{
	"database/employee/cv/ListCV.sol": {
		"ListCV": {
			"abi": [
				{
					"inputs": [],
					"stateMutability": "nonpayable",
					"type": "constructor"
				},
				{
					"anonymous": false,
					"inputs": [
						{
							"components": [
								{
									"internalType": "uint256",
									"name": "employeeId",
									"type": "uint256"
								},
								{
									"internalType": "uint256",
									"name": "cvId",
									"type": "uint256"
								},
								{
									"internalType": "string",
									"name": "data",
									"type": "string"
								}
							],
							"indexed": false,
							"internalType": "struct CV",
							"name": "item",
							"type": "tuple"
						}
					],
					"name": "Add",
					"type": "event"
				},
				{
					"anonymous": false,
					"inputs": [
						{
							"indexed": true,
							"internalType": "address",
							"name": "previousOwner",
							"type": "address"
						},
						{
							"indexed": true,
							"internalType": "address",
							"name": "newOwner",
							"type": "address"
						}
					],
					"name": "OwnershipTransferred",
					"type": "event"
				},
				{
					"anonymous": false,
					"inputs": [
						{
							"components": [
								{
									"internalType": "uint256",
									"name": "employeeId",
									"type": "uint256"
								},
								{
									"internalType": "uint256",
									"name": "cvId",
									"type": "uint256"
								},
								{
									"internalType": "string",
									"name": "data",
									"type": "string"
								}
							],
							"indexed": false,
							"internalType": "struct CV",
							"name": "item",
							"type": "tuple"
						}
					],
					"name": "Remove",
					"type": "event"
				},
				{
					"inputs": [
						{
							"components": [
								{
									"internalType": "uint256",
									"name": "employeeId",
									"type": "uint256"
								},
								{
									"internalType": "uint256",
									"name": "cvId",
									"type": "uint256"
								},
								{
									"internalType": "string",
									"name": "data",
									"type": "string"
								}
							],
							"internalType": "struct CV",
							"name": "item",
							"type": "tuple"
						},
						{
							"internalType": "bytes32",
							"name": "secret",
							"type": "bytes32"
						}
					],
					"name": "add",
					"outputs": [
						{
							"internalType": "bool",
							"name": "",
							"type": "bool"
						}
					],
					"stateMutability": "nonpayable",
					"type": "function"
				},
				{
					"inputs": [
						{
							"internalType": "uint256",
							"name": "index",
							"type": "uint256"
						},
						{
							"internalType": "bytes32",
							"name": "secret",
							"type": "bytes32"
						}
					],
					"name": "at",
					"outputs": [
						{
							"components": [
								{
									"internalType": "uint256",
									"name": "employeeId",
									"type": "uint256"
								},
								{
									"internalType": "uint256",
									"name": "cvId",
									"type": "uint256"
								},
								{
									"internalType": "string",
									"name": "data",
									"type": "string"
								}
							],
							"internalType": "struct CV",
							"name": "",
							"type": "tuple"
						}
					],
					"stateMutability": "view",
					"type": "function"
				},
				{
					"inputs": [],
					"name": "destroy",
					"outputs": [],
					"stateMutability": "nonpayable",
					"type": "function"
				},
				{
					"inputs": [
						{
							"internalType": "uint256",
							"name": "cvId",
							"type": "uint256"
						},
						{
							"components": [
								{
									"internalType": "uint256",
									"name": "employeeId",
									"type": "uint256"
								},
								{
									"internalType": "uint256",
									"name": "cvId",
									"type": "uint256"
								},
								{
									"internalType": "string",
									"name": "data",
									"type": "string"
								}
							],
							"internalType": "struct CV",
							"name": "item",
							"type": "tuple"
						},
						{
							"internalType": "bytes32",
							"name": "secret",
							"type": "bytes32"
						}
					],
					"name": "edit",
					"outputs": [
						{
							"internalType": "bool",
							"name": "",
							"type": "bool"
						}
					],
					"stateMutability": "nonpayable",
					"type": "function"
				},
				{
					"inputs": [
						{
							"internalType": "bytes32",
							"name": "secret",
							"type": "bytes32"
						}
					],
					"name": "getLength",
					"outputs": [
						{
							"internalType": "uint256",
							"name": "",
							"type": "uint256"
						}
					],
					"stateMutability": "view",
					"type": "function"
				},
				{
					"inputs": [],
					"name": "owner",
					"outputs": [
						{
							"internalType": "address",
							"name": "",
							"type": "address"
						}
					],
					"stateMutability": "view",
					"type": "function"
				},
				{
					"inputs": [
						{
							"internalType": "address",
							"name": "newOwner",
							"type": "address"
						}
					],
					"name": "transferOwnership",
					"outputs": [],
					"stateMutability": "nonpayable",
					"type": "function"
				}
			],
			"devdoc": {
				"kind": "dev",
				"methods": {
					"owner()": {
						"details": "Returns the address of the current owner."
					},
					"transferOwnership(address)": {
						"details": "Transfers ownership of the contract to a new account (`newOwner`). Can only be called by the current owner."
					}
				},
				"version": 1
			},
			"evm": {
				"assembly": "    /* \"database/employee/cv/ListCV.sol\":307:1733  contract ListCV is Ownable {... */\n  mstore(0x40, 0x80)\n    /* \"database/employee/cv/ListCV.sol\":413:414  0 */\n  0x00\n    /* \"database/employee/cv/ListCV.sol\":381:414  uint256 private autoIncrement = 0 */\n  0x02\n  sstore\n    /* \"database/employee/cv/ListCV.sol\":455:481  constructor() Ownable() {} */\n  callvalue\n  dup1\n  iszero\n  tag_1\n  jumpi\n  0x00\n  dup1\n  revert\ntag_1:\n  pop\n    /* \"abstract/Ownable.sol\":923:929  _owner */\n  0x00\n    /* \"abstract/Ownable.sol\":923:942  _owner = msg.sender */\n  dup1\n  sload\n  not(sub(shl(0xa0, 0x01), 0x01))\n  and\n    /* \"abstract/Ownable.sol\":932:942  msg.sender */\n  caller\n    /* \"abstract/Ownable.sol\":923:942  _owner = msg.sender */\n  or\n  swap1\n  sstore\n    /* \"database/employee/cv/ListCV.sol\":307:1733  contract ListCV is Ownable {... */\n  dataSize(sub_0)\n  dup1\n  dataOffset(sub_0)\n  0x00\n  codecopy\n  0x00\n  return\nstop\n\nsub_0: assembly {\n        /* \"database/employee/cv/ListCV.sol\":307:1733  contract ListCV is Ownable {... */\n      mstore(0x40, 0x80)\n      callvalue\n      dup1\n      iszero\n      tag_1\n      jumpi\n      0x00\n      dup1\n      revert\n    tag_1:\n      pop\n      jumpi(tag_2, lt(calldatasize, 0x04))\n      shr(0xe0, calldataload(0x00))\n      dup1\n      0xc78a6741\n      gt\n      tag_10\n      jumpi\n      dup1\n      0xc78a6741\n      eq\n      tag_6\n      jumpi\n      dup1\n      0xcfbca46c\n      eq\n      tag_7\n      jumpi\n      dup1\n      0xf2fde38b\n      eq\n      tag_8\n      jumpi\n      dup1\n      0xfd82e9dd\n      eq\n      tag_9\n      jumpi\n      0x00\n      dup1\n      revert\n    tag_10:\n      dup1\n      0x2eb5444f\n      eq\n      tag_3\n      jumpi\n      dup1\n      0x83197ef0\n      eq\n      tag_4\n      jumpi\n      dup1\n      0x8da5cb5b\n      eq\n      tag_5\n      jumpi\n    tag_2:\n      0x00\n      dup1\n      revert\n        /* \"database/employee/cv/ListCV.sol\":1037:1305  function add(CV memory item, bytes32 secret)... */\n    tag_3:\n      tag_11\n      tag_12\n      calldatasize\n      0x04\n      tag_13\n      jump\t// in\n    tag_12:\n      tag_14\n      jump\t// in\n    tag_11:\n      mload(0x40)\n        /* \"#utility.yul\":2170:2184   */\n      swap1\n      iszero\n        /* \"#utility.yul\":2163:2185   */\n      iszero\n        /* \"#utility.yul\":2145:2186   */\n      dup2\n      mstore\n        /* \"#utility.yul\":2133:2135   */\n      0x20\n        /* \"#utility.yul\":2118:2136   */\n      add\n        /* \"database/employee/cv/ListCV.sol\":1037:1305  function add(CV memory item, bytes32 secret)... */\n    tag_15:\n      mload(0x40)\n      dup1\n      swap2\n      sub\n      swap1\n      return\n        /* \"abstract/Ownable.sol\":2642:2731  function destroy() public onlyOwner {... */\n    tag_4:\n      tag_17\n      tag_18\n      jump\t// in\n    tag_17:\n      stop\n        /* \"abstract/Ownable.sol\":1175:1260  function owner() public view virtual returns (address) {... */\n    tag_5:\n        /* \"abstract/Ownable.sol\":1221:1228  address */\n      0x00\n        /* \"abstract/Ownable.sol\":1247:1253  _owner */\n      sload\n        /* \"abstract/Ownable.sol\":1175:1260  function owner() public view virtual returns (address) {... */\n      mload(0x40)\n      sub(shl(0xa0, 0x01), 0x01)\n        /* \"abstract/Ownable.sol\":1247:1253  _owner */\n      swap1\n      swap2\n      and\n        /* \"#utility.yul\":2343:2394   */\n      dup2\n      mstore\n        /* \"#utility.yul\":2331:2333   */\n      0x20\n        /* \"#utility.yul\":2316:2334   */\n      add\n        /* \"abstract/Ownable.sol\":1175:1260  function owner() public view virtual returns (address) {... */\n      tag_15\n        /* \"#utility.yul\":2197:2400   */\n      jump\n        /* \"database/employee/cv/ListCV.sol\":1534:1731  function at(uint256 index, bytes32 secret)... */\n    tag_6:\n      tag_23\n      tag_24\n      calldatasize\n      0x04\n      tag_25\n      jump\t// in\n    tag_24:\n      tag_26\n      jump\t// in\n    tag_23:\n      mload(0x40)\n      tag_15\n      swap2\n      swap1\n      tag_28\n      jump\t// in\n        /* \"database/employee/cv/ListCV.sol\":1311:1528  function edit(... */\n    tag_7:\n      tag_11\n      tag_30\n      calldatasize\n      0x04\n      tag_31\n      jump\t// in\n    tag_30:\n      tag_32\n      jump\t// in\n        /* \"abstract/Ownable.sol\":2063:2295  function transferOwnership(address newOwner) public virtual onlyOwner {... */\n    tag_8:\n      tag_17\n      tag_35\n      calldatasize\n      0x04\n      tag_36\n      jump\t// in\n    tag_35:\n      tag_37\n      jump\t// in\n        /* \"database/employee/cv/ListCV.sol\":868:1031  function getLength(bytes32 secret)... */\n    tag_9:\n      tag_38\n      tag_39\n      calldatasize\n      0x04\n      tag_40\n      jump\t// in\n    tag_39:\n      tag_41\n      jump\t// in\n    tag_38:\n      mload(0x40)\n        /* \"#utility.yul\":4548:4573   */\n      swap1\n      dup2\n      mstore\n        /* \"#utility.yul\":4536:4538   */\n      0x20\n        /* \"#utility.yul\":4521:4539   */\n      add\n        /* \"database/employee/cv/ListCV.sol\":868:1031  function getLength(bytes32 secret)... */\n      tag_15\n        /* \"#utility.yul\":4402:4579   */\n      jump\n        /* \"database/employee/cv/ListCV.sol\":1037:1305  function add(CV memory item, bytes32 secret)... */\n    tag_14:\n        /* \"database/employee/cv/ListCV.sol\":1147:1151  bool */\n      0x00\n        /* \"database/employee/cv/ListCV.sol\":1122:1128  secret */\n      dup2\n      0x00\n      dup1\n      mload\n      0x20\n      data_98ee57057fe0a523e70b51608fd55a37ff53d47c3b8dac495a5f45d45157392f\n      dup4\n      codecopy\n      dup2\n      mload\n      swap2\n      mstore\n        /* \"database/employee/cv/ListCV.sol\":599:620  value == DATABASE_KEY */\n      dup2\n      eq\n        /* \"database/employee/cv/ListCV.sol\":591:658  require(value == DATABASE_KEY, \"Database ListCV: Secret key error\") */\n      tag_45\n      jumpi\n      mload(0x40)\n      shl(0xe5, 0x461bcd)\n      dup2\n      mstore\n      0x04\n      add\n      tag_46\n      swap1\n      tag_47\n      jump\t// in\n    tag_46:\n      mload(0x40)\n      dup1\n      swap2\n      sub\n      swap1\n      revert\n    tag_45:\n        /* \"database/employee/cv/ListCV.sol\":1167:1180  autoIncrement */\n      0x02\n        /* \"database/employee/cv/ListCV.sol\":1167:1182  autoIncrement++ */\n      dup1\n      sload\n      swap1\n        /* \"database/employee/cv/ListCV.sol\":1167:1180  autoIncrement */\n      0x00\n        /* \"database/employee/cv/ListCV.sol\":1167:1182  autoIncrement++ */\n      tag_49\n      dup4\n      tag_50\n      jump\t// in\n    tag_49:\n      swap1\n      swap2\n      sstore\n      pop\n      pop\n        /* \"database/employee/cv/ListCV.sol\":1204:1217  autoIncrement */\n      0x02\n      dup1\n      sload\n        /* \"database/employee/cv/ListCV.sol\":1192:1201  item.cvId */\n      0x20\n      dup1\n      dup8\n      add\n        /* \"database/employee/cv/ListCV.sol\":1192:1217  item.cvId = autoIncrement */\n      dup3\n      dup2\n      mstore\n        /* \"database/employee/cv/ListCV.sol\":1227:1246  list[autoIncrement] */\n      0x00\n      swap3\n      dup4\n      mstore\n        /* \"database/employee/cv/ListCV.sol\":1227:1231  list */\n      0x01\n        /* \"database/employee/cv/ListCV.sol\":1227:1246  list[autoIncrement] */\n      swap2\n      dup3\n      swap1\n      mstore\n      0x40\n      swap3\n      dup4\n      swap1\n      keccak256\n        /* \"database/employee/cv/ListCV.sol\":1227:1253  list[autoIncrement] = item */\n      dup9\n      mload\n      dup2\n      sstore\n      swap1\n      mload\n      swap2\n      dup2\n      add\n      swap2\n      swap1\n      swap2\n      sstore\n      swap1\n      dup7\n      add\n      mload\n        /* \"database/employee/cv/ListCV.sol\":1192:1196  item */\n      dup7\n      swap3\n        /* \"database/employee/cv/ListCV.sol\":1227:1253  list[autoIncrement] = item */\n      dup3\n      add\n      swap1\n      tag_51\n      swap1\n      dup3\n      tag_52\n      jump\t// in\n    tag_51:\n      pop\n      swap1\n      pop\n      pop\n        /* \"database/employee/cv/ListCV.sol\":1268:1277  Add(item) */\n      0xcec38e7998840060d6f44229691470f6cc18febe068571f3b86f772e6eba5963\n        /* \"database/employee/cv/ListCV.sol\":1272:1276  item */\n      dup5\n        /* \"database/employee/cv/ListCV.sol\":1268:1277  Add(item) */\n      mload(0x40)\n      tag_53\n      swap2\n      swap1\n      tag_28\n      jump\t// in\n    tag_53:\n      mload(0x40)\n      dup1\n      swap2\n      sub\n      swap1\n      log1\n      pop\n        /* \"database/employee/cv/ListCV.sol\":1294:1298  true */\n      0x01\n      swap4\n        /* \"database/employee/cv/ListCV.sol\":1037:1305  function add(CV memory item, bytes32 secret)... */\n      swap3\n      pop\n      pop\n      pop\n      jump\t// out\n        /* \"abstract/Ownable.sol\":2642:2731  function destroy() public onlyOwner {... */\n    tag_18:\n        /* \"abstract/Ownable.sol\":1068:1081  _checkOwner() */\n      tag_55\n        /* \"abstract/Ownable.sol\":1068:1079  _checkOwner */\n      tag_56\n        /* \"abstract/Ownable.sol\":1068:1081  _checkOwner() */\n      jump\t// in\n    tag_55:\n        /* \"abstract/Ownable.sol\":2717:2721  this */\n      address\n        /* \"abstract/Ownable.sol\":2688:2724  selfdestruct(payable(address(this))) */\n      selfdestruct\n        /* \"database/employee/cv/ListCV.sol\":1534:1731  function at(uint256 index, bytes32 secret)... */\n    tag_26:\n        /* \"database/employee/cv/ListCV.sol\":1681:1690  CV memory */\n      tag_59\n      mload(0x40)\n      dup1\n      0x60\n      add\n      0x40\n      mstore\n      dup1\n      0x00\n      dup2\n      mstore\n      0x20\n      add\n      0x00\n      dup2\n      mstore\n      0x20\n      add\n      0x60\n      dup2\n      mstore\n      pop\n      swap1\n      jump\n    tag_59:\n        /* \"database/employee/cv/ListCV.sol\":1630:1636  secret */\n      dup2\n      0x00\n      dup1\n      mload\n      0x20\n      data_98ee57057fe0a523e70b51608fd55a37ff53d47c3b8dac495a5f45d45157392f\n      dup4\n      codecopy\n      dup2\n      mload\n      swap2\n      mstore\n        /* \"database/employee/cv/ListCV.sol\":599:620  value == DATABASE_KEY */\n      dup2\n      eq\n        /* \"database/employee/cv/ListCV.sol\":591:658  require(value == DATABASE_KEY, \"Database ListCV: Secret key error\") */\n      tag_62\n      jumpi\n      mload(0x40)\n      shl(0xe5, 0x461bcd)\n      dup2\n      mstore\n      0x04\n      add\n      tag_46\n      swap1\n      tag_47\n      jump\t// in\n    tag_62:\n        /* \"database/employee/cv/ListCV.sol\":1657:1662  index */\n      dup4\n        /* \"database/employee/cv/ListCV.sol\":754:759  index */\n      dup1\n        /* \"database/employee/cv/ListCV.sol\":749:750  1 */\n      0x01\n        /* \"database/employee/cv/ListCV.sol\":749:759  1 <= index */\n      gt\n      iszero\n        /* \"database/employee/cv/ListCV.sol\":748:788  (1 <= index) && (index <= autoIncrement) */\n      dup1\n      iszero\n      tag_65\n      jumpi\n      pop\n        /* \"database/employee/cv/ListCV.sol\":774:787  autoIncrement */\n      sload(0x02)\n        /* \"database/employee/cv/ListCV.sol\":765:770  index */\n      dup2\n        /* \"database/employee/cv/ListCV.sol\":765:787  index <= autoIncrement */\n      gt\n      iszero\n        /* \"database/employee/cv/ListCV.sol\":748:788  (1 <= index) && (index <= autoIncrement) */\n    tag_65:\n        /* \"database/employee/cv/ListCV.sol\":727:844  require(... */\n      tag_66\n      jumpi\n      mload(0x40)\n      shl(0xe5, 0x461bcd)\n      dup2\n      mstore\n        /* \"#utility.yul\":8014:8016   */\n      0x20\n        /* \"database/employee/cv/ListCV.sol\":727:844  require(... */\n      0x04\n      dup3\n      add\n        /* \"#utility.yul\":7996:8017   */\n      mstore\n        /* \"#utility.yul\":8053:8055   */\n      0x1e\n        /* \"#utility.yul\":8033:8051   */\n      0x24\n      dup3\n      add\n        /* \"#utility.yul\":8026:8056   */\n      mstore\n        /* \"#utility.yul\":8092:8124   */\n      0x4461746162617365204c69737443563a20496e76616c696420696e6465780000\n        /* \"#utility.yul\":8072:8090   */\n      0x44\n      dup3\n      add\n        /* \"#utility.yul\":8065:8125   */\n      mstore\n        /* \"#utility.yul\":8142:8160   */\n      0x64\n      add\n        /* \"database/employee/cv/ListCV.sol\":727:844  require(... */\n      tag_46\n        /* \"#utility.yul\":7812:8166   */\n      jump\n        /* \"database/employee/cv/ListCV.sol\":727:844  require(... */\n    tag_66:\n        /* \"database/employee/cv/ListCV.sol\":1713:1717  list */\n      0x01\n        /* \"database/employee/cv/ListCV.sol\":1713:1724  list[index] */\n      0x00\n        /* \"database/employee/cv/ListCV.sol\":1718:1723  index */\n      dup7\n        /* \"database/employee/cv/ListCV.sol\":1713:1724  list[index] */\n      dup2\n      mstore\n      0x20\n      add\n      swap1\n      dup2\n      mstore\n      0x20\n      add\n      0x00\n      keccak256\n        /* \"database/employee/cv/ListCV.sol\":1706:1724  return list[index] */\n      mload(0x40)\n      dup1\n      0x60\n      add\n      0x40\n      mstore\n      swap1\n      dup2\n      0x00\n      dup3\n      add\n      sload\n      dup2\n      mstore\n      0x20\n      add\n      0x01\n      dup3\n      add\n      sload\n      dup2\n      mstore\n      0x20\n      add\n      0x02\n      dup3\n      add\n      dup1\n      sload\n      tag_70\n      swap1\n      tag_71\n      jump\t// in\n    tag_70:\n      dup1\n      0x1f\n      add\n      0x20\n      dup1\n      swap2\n      div\n      mul\n      0x20\n      add\n      mload(0x40)\n      swap1\n      dup2\n      add\n      0x40\n      mstore\n      dup1\n      swap3\n      swap2\n      swap1\n      dup2\n      dup2\n      mstore\n      0x20\n      add\n      dup3\n      dup1\n      sload\n      tag_72\n      swap1\n      tag_71\n      jump\t// in\n    tag_72:\n      dup1\n      iszero\n      tag_73\n      jumpi\n      dup1\n      0x1f\n      lt\n      tag_74\n      jumpi\n      0x0100\n      dup1\n      dup4\n      sload\n      div\n      mul\n      dup4\n      mstore\n      swap2\n      0x20\n      add\n      swap2\n      jump(tag_73)\n    tag_74:\n      dup3\n      add\n      swap2\n      swap1\n      0x00\n      mstore\n      keccak256(0x00, 0x20)\n      swap1\n    tag_75:\n      dup2\n      sload\n      dup2\n      mstore\n      swap1\n      0x01\n      add\n      swap1\n      0x20\n      add\n      dup1\n      dup4\n      gt\n      tag_75\n      jumpi\n      dup3\n      swap1\n      sub\n      0x1f\n      and\n      dup3\n      add\n      swap2\n    tag_73:\n      pop\n      pop\n      pop\n      pop\n      pop\n      dup2\n      mstore\n      pop\n      pop\n      swap3\n      pop\n        /* \"database/employee/cv/ListCV.sol\":668:669  _ */\n      pop\n        /* \"database/employee/cv/ListCV.sol\":1534:1731  function at(uint256 index, bytes32 secret)... */\n      pop\n      swap3\n      swap2\n      pop\n      pop\n      jump\t// out\n        /* \"database/employee/cv/ListCV.sol\":1311:1528  function edit(... */\n    tag_32:\n        /* \"database/employee/cv/ListCV.sol\":1442:1446  bool */\n      0x00\n        /* \"database/employee/cv/ListCV.sol\":1425:1431  secret */\n      dup2\n      0x00\n      dup1\n      mload\n      0x20\n      data_98ee57057fe0a523e70b51608fd55a37ff53d47c3b8dac495a5f45d45157392f\n      dup4\n      codecopy\n      dup2\n      mload\n      swap2\n      mstore\n        /* \"database/employee/cv/ListCV.sol\":599:620  value == DATABASE_KEY */\n      dup2\n      eq\n        /* \"database/employee/cv/ListCV.sol\":591:658  require(value == DATABASE_KEY, \"Database ListCV: Secret key error\") */\n      tag_77\n      jumpi\n      mload(0x40)\n      shl(0xe5, 0x461bcd)\n      dup2\n      mstore\n      0x04\n      add\n      tag_46\n      swap1\n      tag_47\n      jump\t// in\n    tag_77:\n        /* \"database/employee/cv/ListCV.sol\":1458:1471  autoIncrement */\n      0x02\n        /* \"database/employee/cv/ListCV.sol\":1458:1473  autoIncrement++ */\n      dup1\n      sload\n      swap1\n        /* \"database/employee/cv/ListCV.sol\":1458:1471  autoIncrement */\n      0x00\n        /* \"database/employee/cv/ListCV.sol\":1458:1473  autoIncrement++ */\n      tag_80\n      dup4\n      tag_50\n      jump\t// in\n    tag_80:\n      swap2\n      swap1\n      pop\n      sstore\n      pop\n        /* \"database/employee/cv/ListCV.sol\":1496:1500  item */\n      dup4\n        /* \"database/employee/cv/ListCV.sol\":1483:1487  list */\n      0x01\n        /* \"database/employee/cv/ListCV.sol\":1483:1493  list[cvId] */\n      0x00\n        /* \"database/employee/cv/ListCV.sol\":1488:1492  cvId */\n      dup8\n        /* \"database/employee/cv/ListCV.sol\":1483:1493  list[cvId] */\n      dup2\n      mstore\n      0x20\n      add\n      swap1\n      dup2\n      mstore\n      0x20\n      add\n      0x00\n      keccak256\n        /* \"database/employee/cv/ListCV.sol\":1483:1500  list[cvId] = item */\n      0x00\n      dup3\n      add\n      mload\n      dup2\n      0x00\n      add\n      sstore\n      0x20\n      dup3\n      add\n      mload\n      dup2\n      0x01\n      add\n      sstore\n      0x40\n      dup3\n      add\n      mload\n      dup2\n      0x02\n      add\n      swap1\n      dup2\n      tag_81\n      swap2\n      swap1\n      tag_52\n      jump\t// in\n    tag_81:\n      pop\n        /* \"database/employee/cv/ListCV.sol\":1517:1521  true */\n      0x01\n      swap8\n        /* \"database/employee/cv/ListCV.sol\":1311:1528  function edit(... */\n      swap7\n      pop\n      pop\n      pop\n      pop\n      pop\n      pop\n      pop\n      jump\t// out\n        /* \"abstract/Ownable.sol\":2063:2295  function transferOwnership(address newOwner) public virtual onlyOwner {... */\n    tag_37:\n        /* \"abstract/Ownable.sol\":1068:1081  _checkOwner() */\n      tag_83\n        /* \"abstract/Ownable.sol\":1068:1079  _checkOwner */\n      tag_56\n        /* \"abstract/Ownable.sol\":1068:1081  _checkOwner() */\n      jump\t// in\n    tag_83:\n      sub(shl(0xa0, 0x01), 0x01)\n        /* \"abstract/Ownable.sol\":2164:2186  newOwner != address(0) */\n      dup2\n      and\n        /* \"abstract/Ownable.sol\":2143:2250  require(... */\n      tag_85\n      jumpi\n      mload(0x40)\n      shl(0xe5, 0x461bcd)\n      dup2\n      mstore\n        /* \"#utility.yul\":8373:8375   */\n      0x20\n        /* \"abstract/Ownable.sol\":2143:2250  require(... */\n      0x04\n      dup3\n      add\n        /* \"#utility.yul\":8355:8376   */\n      mstore\n        /* \"#utility.yul\":8412:8414   */\n      0x26\n        /* \"#utility.yul\":8392:8410   */\n      0x24\n      dup3\n      add\n        /* \"#utility.yul\":8385:8415   */\n      mstore\n        /* \"#utility.yul\":8451:8485   */\n      0x4f776e61626c653a206e6577206f776e657220697320746865207a65726f2061\n        /* \"#utility.yul\":8431:8449   */\n      0x44\n      dup3\n      add\n        /* \"#utility.yul\":8424:8486   */\n      mstore\n      shl(0xd0, 0x646472657373)\n        /* \"#utility.yul\":8502:8520   */\n      0x64\n      dup3\n      add\n        /* \"#utility.yul\":8495:8531   */\n      mstore\n        /* \"#utility.yul\":8548:8567   */\n      0x84\n      add\n        /* \"abstract/Ownable.sol\":2143:2250  require(... */\n      tag_46\n        /* \"#utility.yul\":8171:8573   */\n      jump\n        /* \"abstract/Ownable.sol\":2143:2250  require(... */\n    tag_85:\n        /* \"abstract/Ownable.sol\":2260:2288  _transferOwnership(newOwner) */\n      tag_88\n        /* \"abstract/Ownable.sol\":2279:2287  newOwner */\n      dup2\n        /* \"abstract/Ownable.sol\":2260:2278  _transferOwnership */\n      tag_89\n        /* \"abstract/Ownable.sol\":2260:2288  _transferOwnership(newOwner) */\n      jump\t// in\n    tag_88:\n        /* \"abstract/Ownable.sol\":2063:2295  function transferOwnership(address newOwner) public virtual onlyOwner {... */\n      pop\n      jump\t// out\n        /* \"database/employee/cv/ListCV.sol\":868:1031  function getLength(bytes32 secret)... */\n    tag_41:\n        /* \"database/employee/cv/ListCV.sol\":981:988  uint256 */\n      0x00\n        /* \"database/employee/cv/ListCV.sol\":956:962  secret */\n      dup2\n      0x00\n      dup1\n      mload\n      0x20\n      data_98ee57057fe0a523e70b51608fd55a37ff53d47c3b8dac495a5f45d45157392f\n      dup4\n      codecopy\n      dup2\n      mload\n      swap2\n      mstore\n        /* \"database/employee/cv/ListCV.sol\":599:620  value == DATABASE_KEY */\n      dup2\n      eq\n        /* \"database/employee/cv/ListCV.sol\":591:658  require(value == DATABASE_KEY, \"Database ListCV: Secret key error\") */\n      tag_91\n      jumpi\n      mload(0x40)\n      shl(0xe5, 0x461bcd)\n      dup2\n      mstore\n      0x04\n      add\n      tag_46\n      swap1\n      tag_47\n      jump\t// in\n    tag_91:\n        /* \"database/employee/cv/ListCV.sol\":1011:1024  autoIncrement */\n      sload(0x02)\n        /* \"database/employee/cv/ListCV.sol\":1004:1024  return autoIncrement */\n      swap2\n      pop\n        /* \"database/employee/cv/ListCV.sol\":668:669  _ */\n    tag_93:\n        /* \"database/employee/cv/ListCV.sol\":868:1031  function getLength(bytes32 secret)... */\n      pop\n      swap2\n      swap1\n      pop\n      jump\t// out\n        /* \"abstract/Ownable.sol\":1333:1461  function _checkOwner() internal view virtual {... */\n    tag_56:\n        /* \"abstract/Ownable.sol\":1407:1417  msg.sender */\n      caller\n        /* \"abstract/Ownable.sol\":1396:1403  owner() */\n      tag_95\n        /* \"abstract/Ownable.sol\":1221:1228  address */\n      0x00\n        /* \"abstract/Ownable.sol\":1247:1253  _owner */\n      sload\n      sub(shl(0xa0, 0x01), 0x01)\n      and\n      swap1\n        /* \"abstract/Ownable.sol\":1175:1260  function owner() public view virtual returns (address) {... */\n      jump\n        /* \"abstract/Ownable.sol\":1396:1403  owner() */\n    tag_95:\n      sub(shl(0xa0, 0x01), 0x01)\n        /* \"abstract/Ownable.sol\":1396:1417  owner() == msg.sender */\n      and\n      eq\n        /* \"abstract/Ownable.sol\":1388:1454  require(owner() == msg.sender, \"Ownable: caller is not the owner\") */\n      tag_96\n      jumpi\n      mload(0x40)\n      shl(0xe5, 0x461bcd)\n      dup2\n      mstore\n        /* \"#utility.yul\":8780:8782   */\n      0x20\n        /* \"abstract/Ownable.sol\":1388:1454  require(owner() == msg.sender, \"Ownable: caller is not the owner\") */\n      0x04\n      dup3\n      add\n        /* \"#utility.yul\":8762:8783   */\n      dup2\n      swap1\n      mstore\n        /* \"#utility.yul\":8799:8817   */\n      0x24\n      dup3\n      add\n        /* \"#utility.yul\":8792:8822   */\n      mstore\n        /* \"#utility.yul\":8858:8892   */\n      0x4f776e61626c653a2063616c6c6572206973206e6f7420746865206f776e6572\n        /* \"#utility.yul\":8838:8856   */\n      0x44\n      dup3\n      add\n        /* \"#utility.yul\":8831:8893   */\n      mstore\n        /* \"#utility.yul\":8910:8928   */\n      0x64\n      add\n        /* \"abstract/Ownable.sol\":1388:1454  require(owner() == msg.sender, \"Ownable: caller is not the owner\") */\n      tag_46\n        /* \"#utility.yul\":8578:8934   */\n      jump\n        /* \"abstract/Ownable.sol\":1388:1454  require(owner() == msg.sender, \"Ownable: caller is not the owner\") */\n    tag_96:\n        /* \"abstract/Ownable.sol\":1333:1461  function _checkOwner() internal view virtual {... */\n      jump\t// out\n        /* \"abstract/Ownable.sol\":2449:2636  function _transferOwnership(address newOwner) internal virtual {... */\n    tag_89:\n        /* \"abstract/Ownable.sol\":2522:2538  address oldOwner */\n      0x00\n        /* \"abstract/Ownable.sol\":2541:2547  _owner */\n      dup1\n      sload\n      sub(shl(0xa0, 0x01), 0x01)\n        /* \"abstract/Ownable.sol\":2557:2574  _owner = newOwner */\n      dup4\n      dup2\n      and\n      not(sub(shl(0xa0, 0x01), 0x01))\n      dup4\n      and\n      dup2\n      or\n      dup5\n      sstore\n        /* \"abstract/Ownable.sol\":2589:2629  OwnershipTransferred(oldOwner, newOwner) */\n      mload(0x40)\n        /* \"abstract/Ownable.sol\":2541:2547  _owner */\n      swap2\n      swap1\n      swap3\n      and\n      swap3\n      dup4\n      swap2\n        /* \"abstract/Ownable.sol\":2589:2629  OwnershipTransferred(oldOwner, newOwner) */\n      0x8be0079c531659141344cd1fd0a4f28419497f9722a3daafe3b4186f6b6457e0\n      swap2\n        /* \"abstract/Ownable.sol\":2522:2538  address oldOwner */\n      swap1\n        /* \"abstract/Ownable.sol\":2589:2629  OwnershipTransferred(oldOwner, newOwner) */\n      log3\n        /* \"abstract/Ownable.sol\":2512:2636  {... */\n      pop\n        /* \"abstract/Ownable.sol\":2449:2636  function _transferOwnership(address newOwner) internal virtual {... */\n      pop\n      jump\t// out\n        /* \"#utility.yul\":14:141   */\n    tag_100:\n        /* \"#utility.yul\":75:85   */\n      0x4e487b71\n        /* \"#utility.yul\":70:73   */\n      0xe0\n        /* \"#utility.yul\":66:86   */\n      shl\n        /* \"#utility.yul\":63:64   */\n      0x00\n        /* \"#utility.yul\":56:87   */\n      mstore\n        /* \"#utility.yul\":106:110   */\n      0x41\n        /* \"#utility.yul\":103:104   */\n      0x04\n        /* \"#utility.yul\":96:111   */\n      mstore\n        /* \"#utility.yul\":130:134   */\n      0x24\n        /* \"#utility.yul\":127:128   */\n      0x00\n        /* \"#utility.yul\":120:135   */\n      revert\n        /* \"#utility.yul\":146:399   */\n    tag_101:\n        /* \"#utility.yul\":218:220   */\n      0x40\n        /* \"#utility.yul\":212:221   */\n      mload\n        /* \"#utility.yul\":260:264   */\n      0x60\n        /* \"#utility.yul\":248:265   */\n      dup2\n      add\n        /* \"#utility.yul\":295:313   */\n      0xffffffffffffffff\n        /* \"#utility.yul\":280:314   */\n      dup2\n      gt\n        /* \"#utility.yul\":316:338   */\n      dup3\n      dup3\n      lt\n        /* \"#utility.yul\":277:339   */\n      or\n        /* \"#utility.yul\":274:362   */\n      iszero\n      tag_111\n      jumpi\n        /* \"#utility.yul\":342:360   */\n      tag_111\n      tag_100\n      jump\t// in\n    tag_111:\n        /* \"#utility.yul\":378:380   */\n      0x40\n        /* \"#utility.yul\":371:393   */\n      mstore\n        /* \"#utility.yul\":146:399   */\n      swap1\n      jump\t// out\n        /* \"#utility.yul\":404:679   */\n    tag_102:\n        /* \"#utility.yul\":475:477   */\n      0x40\n        /* \"#utility.yul\":469:478   */\n      mload\n        /* \"#utility.yul\":540:542   */\n      0x1f\n        /* \"#utility.yul\":521:534   */\n      dup3\n      add\n      not(0x1f)\n        /* \"#utility.yul\":517:544   */\n      and\n        /* \"#utility.yul\":505:545   */\n      dup2\n      add\n        /* \"#utility.yul\":575:593   */\n      0xffffffffffffffff\n        /* \"#utility.yul\":560:594   */\n      dup2\n      gt\n        /* \"#utility.yul\":596:618   */\n      dup3\n      dup3\n      lt\n        /* \"#utility.yul\":557:619   */\n      or\n        /* \"#utility.yul\":554:642   */\n      iszero\n      tag_114\n      jumpi\n        /* \"#utility.yul\":622:640   */\n      tag_114\n      tag_100\n      jump\t// in\n    tag_114:\n        /* \"#utility.yul\":658:660   */\n      0x40\n        /* \"#utility.yul\":651:673   */\n      mstore\n        /* \"#utility.yul\":404:679   */\n      swap2\n      swap1\n      pop\n      jump\t// out\n        /* \"#utility.yul\":684:1592   */\n    tag_103:\n        /* \"#utility.yul\":733:738   */\n      0x00\n        /* \"#utility.yul\":781:785   */\n      0x60\n        /* \"#utility.yul\":769:778   */\n      dup3\n        /* \"#utility.yul\":764:767   */\n      dup5\n        /* \"#utility.yul\":760:779   */\n      sub\n        /* \"#utility.yul\":756:786   */\n      slt\n        /* \"#utility.yul\":753:803   */\n      iszero\n      tag_116\n      jumpi\n        /* \"#utility.yul\":799:800   */\n      0x00\n        /* \"#utility.yul\":796:797   */\n      dup1\n        /* \"#utility.yul\":789:801   */\n      revert\n        /* \"#utility.yul\":753:803   */\n    tag_116:\n        /* \"#utility.yul\":821:843   */\n      tag_117\n      tag_101\n      jump\t// in\n    tag_117:\n        /* \"#utility.yul\":812:843   */\n      swap1\n      pop\n        /* \"#utility.yul\":879:888   */\n      dup2\n        /* \"#utility.yul\":866:889   */\n      calldataload\n        /* \"#utility.yul\":859:864   */\n      dup2\n        /* \"#utility.yul\":852:890   */\n      mstore\n        /* \"#utility.yul\":909:911   */\n      0x20\n        /* \"#utility.yul\":971:973   */\n      dup1\n        /* \"#utility.yul\":960:969   */\n      dup4\n        /* \"#utility.yul\":956:974   */\n      add\n        /* \"#utility.yul\":943:975   */\n      calldataload\n        /* \"#utility.yul\":938:940   */\n      dup2\n        /* \"#utility.yul\":931:936   */\n      dup4\n        /* \"#utility.yul\":927:941   */\n      add\n        /* \"#utility.yul\":920:976   */\n      mstore\n        /* \"#utility.yul\":1027:1029   */\n      0x40\n        /* \"#utility.yul\":1016:1025   */\n      dup4\n        /* \"#utility.yul\":1012:1030   */\n      add\n        /* \"#utility.yul\":999:1031   */\n      calldataload\n        /* \"#utility.yul\":1050:1068   */\n      0xffffffffffffffff\n        /* \"#utility.yul\":1091:1093   */\n      dup1\n        /* \"#utility.yul\":1083:1089   */\n      dup3\n        /* \"#utility.yul\":1080:1094   */\n      gt\n        /* \"#utility.yul\":1077:1111   */\n      iszero\n      tag_118\n      jumpi\n        /* \"#utility.yul\":1107:1108   */\n      0x00\n        /* \"#utility.yul\":1104:1105   */\n      dup1\n        /* \"#utility.yul\":1097:1109   */\n      revert\n        /* \"#utility.yul\":1077:1111   */\n    tag_118:\n        /* \"#utility.yul\":1145:1151   */\n      dup2\n        /* \"#utility.yul\":1134:1143   */\n      dup6\n        /* \"#utility.yul\":1130:1152   */\n      add\n        /* \"#utility.yul\":1120:1152   */\n      swap2\n      pop\n        /* \"#utility.yul\":1190:1193   */\n      dup6\n        /* \"#utility.yul\":1183:1187   */\n      0x1f\n        /* \"#utility.yul\":1179:1181   */\n      dup4\n        /* \"#utility.yul\":1175:1188   */\n      add\n        /* \"#utility.yul\":1171:1194   */\n      slt\n        /* \"#utility.yul\":1161:1212   */\n      tag_119\n      jumpi\n        /* \"#utility.yul\":1208:1209   */\n      0x00\n        /* \"#utility.yul\":1205:1206   */\n      dup1\n        /* \"#utility.yul\":1198:1210   */\n      revert\n        /* \"#utility.yul\":1161:1212   */\n    tag_119:\n        /* \"#utility.yul\":1244:1246   */\n      dup2\n        /* \"#utility.yul\":1231:1247   */\n      calldataload\n        /* \"#utility.yul\":1266:1268   */\n      dup2\n        /* \"#utility.yul\":1262:1264   */\n      dup2\n        /* \"#utility.yul\":1259:1269   */\n      gt\n        /* \"#utility.yul\":1256:1292   */\n      iszero\n      tag_121\n      jumpi\n        /* \"#utility.yul\":1272:1290   */\n      tag_121\n      tag_100\n      jump\t// in\n    tag_121:\n        /* \"#utility.yul\":1314:1367   */\n      tag_122\n        /* \"#utility.yul\":1357:1359   */\n      0x1f\n        /* \"#utility.yul\":1338:1351   */\n      dup3\n      add\n      not(0x1f)\n        /* \"#utility.yul\":1334:1361   */\n      and\n        /* \"#utility.yul\":1330:1366   */\n      dup6\n      add\n        /* \"#utility.yul\":1314:1367   */\n      tag_102\n      jump\t// in\n    tag_122:\n        /* \"#utility.yul\":1301:1367   */\n      swap2\n      pop\n        /* \"#utility.yul\":1390:1392   */\n      dup1\n        /* \"#utility.yul\":1383:1388   */\n      dup3\n        /* \"#utility.yul\":1376:1393   */\n      mstore\n        /* \"#utility.yul\":1430:1433   */\n      dup7\n        /* \"#utility.yul\":1425:1427   */\n      dup5\n        /* \"#utility.yul\":1420:1422   */\n      dup3\n        /* \"#utility.yul\":1416:1418   */\n      dup6\n        /* \"#utility.yul\":1412:1423   */\n      add\n        /* \"#utility.yul\":1408:1428   */\n      add\n        /* \"#utility.yul\":1405:1434   */\n      gt\n        /* \"#utility.yul\":1402:1451   */\n      iszero\n      tag_123\n      jumpi\n        /* \"#utility.yul\":1447:1448   */\n      0x00\n        /* \"#utility.yul\":1444:1445   */\n      dup1\n        /* \"#utility.yul\":1437:1449   */\n      revert\n        /* \"#utility.yul\":1402:1451   */\n    tag_123:\n        /* \"#utility.yul\":1502:1504   */\n      dup1\n        /* \"#utility.yul\":1497:1499   */\n      dup5\n        /* \"#utility.yul\":1493:1495   */\n      dup5\n        /* \"#utility.yul\":1489:1500   */\n      add\n        /* \"#utility.yul\":1484:1486   */\n      dup6\n        /* \"#utility.yul\":1477:1482   */\n      dup5\n        /* \"#utility.yul\":1473:1487   */\n      add\n        /* \"#utility.yul\":1460:1505   */\n      calldatacopy\n        /* \"#utility.yul\":1546:1547   */\n      0x00\n        /* \"#utility.yul\":1541:1543   */\n      dup5\n        /* \"#utility.yul\":1536:1538   */\n      dup3\n        /* \"#utility.yul\":1529:1534   */\n      dup5\n        /* \"#utility.yul\":1525:1539   */\n      add\n        /* \"#utility.yul\":1521:1544   */\n      add\n        /* \"#utility.yul\":1514:1548   */\n      mstore\n      pop\n        /* \"#utility.yul\":1580:1585   */\n      dup1\n        /* \"#utility.yul\":1575:1577   */\n      0x40\n        /* \"#utility.yul\":1568:1573   */\n      dup6\n        /* \"#utility.yul\":1564:1578   */\n      add\n        /* \"#utility.yul\":1557:1586   */\n      mstore\n      pop\n      pop\n      pop\n        /* \"#utility.yul\":684:1592   */\n      swap3\n      swap2\n      pop\n      pop\n      jump\t// out\n        /* \"#utility.yul\":1597:2000   */\n    tag_13:\n        /* \"#utility.yul\":1685:1691   */\n      0x00\n        /* \"#utility.yul\":1693:1699   */\n      dup1\n        /* \"#utility.yul\":1746:1748   */\n      0x40\n        /* \"#utility.yul\":1734:1743   */\n      dup4\n        /* \"#utility.yul\":1725:1732   */\n      dup6\n        /* \"#utility.yul\":1721:1744   */\n      sub\n        /* \"#utility.yul\":1717:1749   */\n      slt\n        /* \"#utility.yul\":1714:1766   */\n      iszero\n      tag_125\n      jumpi\n        /* \"#utility.yul\":1762:1763   */\n      0x00\n        /* \"#utility.yul\":1759:1760   */\n      dup1\n        /* \"#utility.yul\":1752:1764   */\n      revert\n        /* \"#utility.yul\":1714:1766   */\n    tag_125:\n        /* \"#utility.yul\":1802:1811   */\n      dup3\n        /* \"#utility.yul\":1789:1812   */\n      calldataload\n        /* \"#utility.yul\":1835:1853   */\n      0xffffffffffffffff\n        /* \"#utility.yul\":1827:1833   */\n      dup2\n        /* \"#utility.yul\":1824:1854   */\n      gt\n        /* \"#utility.yul\":1821:1871   */\n      iszero\n      tag_126\n      jumpi\n        /* \"#utility.yul\":1867:1868   */\n      0x00\n        /* \"#utility.yul\":1864:1865   */\n      dup1\n        /* \"#utility.yul\":1857:1869   */\n      revert\n        /* \"#utility.yul\":1821:1871   */\n    tag_126:\n        /* \"#utility.yul\":1890:1943   */\n      tag_127\n        /* \"#utility.yul\":1935:1942   */\n      dup6\n        /* \"#utility.yul\":1926:1932   */\n      dup3\n        /* \"#utility.yul\":1915:1924   */\n      dup7\n        /* \"#utility.yul\":1911:1933   */\n      add\n        /* \"#utility.yul\":1890:1943   */\n      tag_103\n      jump\t// in\n    tag_127:\n        /* \"#utility.yul\":1880:1943   */\n      swap6\n        /* \"#utility.yul\":1990:1992   */\n      0x20\n        /* \"#utility.yul\":1975:1993   */\n      swap5\n      swap1\n      swap5\n      add\n        /* \"#utility.yul\":1962:1994   */\n      calldataload\n      swap5\n      pop\n      pop\n      pop\n      pop\n        /* \"#utility.yul\":1597:2000   */\n      jump\t// out\n        /* \"#utility.yul\":2405:2653   */\n    tag_25:\n        /* \"#utility.yul\":2473:2479   */\n      0x00\n        /* \"#utility.yul\":2481:2487   */\n      dup1\n        /* \"#utility.yul\":2534:2536   */\n      0x40\n        /* \"#utility.yul\":2522:2531   */\n      dup4\n        /* \"#utility.yul\":2513:2520   */\n      dup6\n        /* \"#utility.yul\":2509:2532   */\n      sub\n        /* \"#utility.yul\":2505:2537   */\n      slt\n        /* \"#utility.yul\":2502:2554   */\n      iszero\n      tag_131\n      jumpi\n        /* \"#utility.yul\":2550:2551   */\n      0x00\n        /* \"#utility.yul\":2547:2548   */\n      dup1\n        /* \"#utility.yul\":2540:2552   */\n      revert\n        /* \"#utility.yul\":2502:2554   */\n    tag_131:\n      pop\n      pop\n        /* \"#utility.yul\":2573:2596   */\n      dup1\n      calldataload\n      swap3\n        /* \"#utility.yul\":2643:2645   */\n      0x20\n        /* \"#utility.yul\":2628:2646   */\n      swap1\n      swap2\n      add\n        /* \"#utility.yul\":2615:2647   */\n      calldataload\n      swap2\n      pop\n        /* \"#utility.yul\":2405:2653   */\n      jump\t// out\n        /* \"#utility.yul\":2658:3445   */\n    tag_28:\n        /* \"#utility.yul\":2790:2794   */\n      0x00\n        /* \"#utility.yul\":2819:2821   */\n      0x20\n        /* \"#utility.yul\":2848:2850   */\n      dup1\n        /* \"#utility.yul\":2837:2846   */\n      dup4\n        /* \"#utility.yul\":2830:2851   */\n      mstore\n        /* \"#utility.yul\":2893:2899   */\n      dup4\n        /* \"#utility.yul\":2887:2900   */\n      mload\n        /* \"#utility.yul\":2882:2884   */\n      dup2\n        /* \"#utility.yul\":2871:2880   */\n      dup5\n        /* \"#utility.yul\":2867:2885   */\n      add\n        /* \"#utility.yul\":2860:2901   */\n      mstore\n        /* \"#utility.yul\":2955:2957   */\n      dup1\n        /* \"#utility.yul\":2947:2953   */\n      dup5\n        /* \"#utility.yul\":2943:2958   */\n      add\n        /* \"#utility.yul\":2937:2959   */\n      mload\n        /* \"#utility.yul\":2932:2934   */\n      0x40\n        /* \"#utility.yul\":2921:2930   */\n      dup5\n        /* \"#utility.yul\":2917:2935   */\n      add\n        /* \"#utility.yul\":2910:2960   */\n      mstore\n        /* \"#utility.yul\":3007:3009   */\n      0x40\n        /* \"#utility.yul\":2999:3005   */\n      dup5\n        /* \"#utility.yul\":2995:3010   */\n      add\n        /* \"#utility.yul\":2989:3011   */\n      mload\n        /* \"#utility.yul\":3049:3053   */\n      0x60\n        /* \"#utility.yul\":3042:3046   */\n      dup1\n        /* \"#utility.yul\":3031:3040   */\n      dup6\n        /* \"#utility.yul\":3027:3047   */\n      add\n        /* \"#utility.yul\":3020:3054   */\n      mstore\n        /* \"#utility.yul\":3083:3095   */\n      dup1\n        /* \"#utility.yul\":3077:3096   */\n      mload\n        /* \"#utility.yul\":3133:3139   */\n      dup1\n        /* \"#utility.yul\":3127:3130   */\n      0x80\n        /* \"#utility.yul\":3116:3125   */\n      dup7\n        /* \"#utility.yul\":3112:3131   */\n      add\n        /* \"#utility.yul\":3105:3140   */\n      mstore\n        /* \"#utility.yul\":3158:3159   */\n      0x00\n        /* \"#utility.yul\":3168:3315   */\n    tag_133:\n        /* \"#utility.yul\":3182:3188   */\n      dup2\n        /* \"#utility.yul\":3179:3180   */\n      dup2\n        /* \"#utility.yul\":3176:3189   */\n      lt\n        /* \"#utility.yul\":3168:3315   */\n      iszero\n      tag_135\n      jumpi\n        /* \"#utility.yul\":3278:3298   */\n      dup3\n      dup2\n      add\n        /* \"#utility.yul\":3274:3303   */\n      dup5\n      add\n        /* \"#utility.yul\":3268:3304   */\n      mload\n        /* \"#utility.yul\":3243:3260   */\n      dup7\n      dup3\n      add\n        /* \"#utility.yul\":3262:3265   */\n      0xa0\n        /* \"#utility.yul\":3239:3266   */\n      add\n        /* \"#utility.yul\":3232:3305   */\n      mstore\n        /* \"#utility.yul\":3197:3207   */\n      dup4\n      add\n        /* \"#utility.yul\":3168:3315   */\n      jump(tag_133)\n    tag_135:\n        /* \"#utility.yul\":3172:3175   */\n      pop\n        /* \"#utility.yul\":3365:3366   */\n      0x00\n        /* \"#utility.yul\":3359:3362   */\n      0xa0\n        /* \"#utility.yul\":3350:3356   */\n      dup3\n        /* \"#utility.yul\":3339:3348   */\n      dup8\n        /* \"#utility.yul\":3335:3357   */\n      add\n        /* \"#utility.yul\":3331:3363   */\n      add\n        /* \"#utility.yul\":3324:3367   */\n      mstore\n        /* \"#utility.yul\":3435:3438   */\n      0xa0\n        /* \"#utility.yul\":3428:3430   */\n      0x1f\n        /* \"#utility.yul\":3424:3431   */\n      not\n        /* \"#utility.yul\":3419:3421   */\n      0x1f\n        /* \"#utility.yul\":3411:3417   */\n      dup4\n        /* \"#utility.yul\":3407:3422   */\n      add\n        /* \"#utility.yul\":3403:3432   */\n      and\n        /* \"#utility.yul\":3392:3401   */\n      dup7\n        /* \"#utility.yul\":3388:3433   */\n      add\n        /* \"#utility.yul\":3384:3439   */\n      add\n        /* \"#utility.yul\":3376:3439   */\n      swap4\n      pop\n      pop\n      pop\n      pop\n        /* \"#utility.yul\":2658:3445   */\n      swap3\n      swap2\n      pop\n      pop\n      jump\t// out\n        /* \"#utility.yul\":3450:3921   */\n    tag_31:\n        /* \"#utility.yul\":3547:3553   */\n      0x00\n        /* \"#utility.yul\":3555:3561   */\n      dup1\n        /* \"#utility.yul\":3563:3569   */\n      0x00\n        /* \"#utility.yul\":3616:3618   */\n      0x60\n        /* \"#utility.yul\":3604:3613   */\n      dup5\n        /* \"#utility.yul\":3595:3602   */\n      dup7\n        /* \"#utility.yul\":3591:3614   */\n      sub\n        /* \"#utility.yul\":3587:3619   */\n      slt\n        /* \"#utility.yul\":3584:3636   */\n      iszero\n      tag_137\n      jumpi\n        /* \"#utility.yul\":3632:3633   */\n      0x00\n        /* \"#utility.yul\":3629:3630   */\n      dup1\n        /* \"#utility.yul\":3622:3634   */\n      revert\n        /* \"#utility.yul\":3584:3636   */\n    tag_137:\n        /* \"#utility.yul\":3668:3677   */\n      dup4\n        /* \"#utility.yul\":3655:3678   */\n      calldataload\n        /* \"#utility.yul\":3645:3678   */\n      swap3\n      pop\n        /* \"#utility.yul\":3729:3731   */\n      0x20\n        /* \"#utility.yul\":3718:3727   */\n      dup5\n        /* \"#utility.yul\":3714:3732   */\n      add\n        /* \"#utility.yul\":3701:3733   */\n      calldataload\n        /* \"#utility.yul\":3756:3774   */\n      0xffffffffffffffff\n        /* \"#utility.yul\":3748:3754   */\n      dup2\n        /* \"#utility.yul\":3745:3775   */\n      gt\n        /* \"#utility.yul\":3742:3792   */\n      iszero\n      tag_138\n      jumpi\n        /* \"#utility.yul\":3788:3789   */\n      0x00\n        /* \"#utility.yul\":3785:3786   */\n      dup1\n        /* \"#utility.yul\":3778:3790   */\n      revert\n        /* \"#utility.yul\":3742:3792   */\n    tag_138:\n        /* \"#utility.yul\":3811:3864   */\n      tag_139\n        /* \"#utility.yul\":3856:3863   */\n      dup7\n        /* \"#utility.yul\":3847:3853   */\n      dup3\n        /* \"#utility.yul\":3836:3845   */\n      dup8\n        /* \"#utility.yul\":3832:3854   */\n      add\n        /* \"#utility.yul\":3811:3864   */\n      tag_103\n      jump\t// in\n    tag_139:\n        /* \"#utility.yul\":3801:3864   */\n      swap3\n      pop\n      pop\n        /* \"#utility.yul\":3911:3913   */\n      0x40\n        /* \"#utility.yul\":3900:3909   */\n      dup5\n        /* \"#utility.yul\":3896:3914   */\n      add\n        /* \"#utility.yul\":3883:3915   */\n      calldataload\n        /* \"#utility.yul\":3873:3915   */\n      swap1\n      pop\n        /* \"#utility.yul\":3450:3921   */\n      swap3\n      pop\n      swap3\n      pop\n      swap3\n      jump\t// out\n        /* \"#utility.yul\":3926:4212   */\n    tag_36:\n        /* \"#utility.yul\":3985:3991   */\n      0x00\n        /* \"#utility.yul\":4038:4040   */\n      0x20\n        /* \"#utility.yul\":4026:4035   */\n      dup3\n        /* \"#utility.yul\":4017:4024   */\n      dup5\n        /* \"#utility.yul\":4013:4036   */\n      sub\n        /* \"#utility.yul\":4009:4041   */\n      slt\n        /* \"#utility.yul\":4006:4058   */\n      iszero\n      tag_141\n      jumpi\n        /* \"#utility.yul\":4054:4055   */\n      0x00\n        /* \"#utility.yul\":4051:4052   */\n      dup1\n        /* \"#utility.yul\":4044:4056   */\n      revert\n        /* \"#utility.yul\":4006:4058   */\n    tag_141:\n        /* \"#utility.yul\":4080:4103   */\n      dup2\n      calldataload\n      sub(shl(0xa0, 0x01), 0x01)\n        /* \"#utility.yul\":4132:4163   */\n      dup2\n      and\n        /* \"#utility.yul\":4122:4164   */\n      dup2\n      eq\n        /* \"#utility.yul\":4112:4182   */\n      tag_142\n      jumpi\n        /* \"#utility.yul\":4178:4179   */\n      0x00\n        /* \"#utility.yul\":4175:4176   */\n      dup1\n        /* \"#utility.yul\":4168:4180   */\n      revert\n        /* \"#utility.yul\":4112:4182   */\n    tag_142:\n        /* \"#utility.yul\":4201:4206   */\n      swap4\n        /* \"#utility.yul\":3926:4212   */\n      swap3\n      pop\n      pop\n      pop\n      jump\t// out\n        /* \"#utility.yul\":4217:4397   */\n    tag_40:\n        /* \"#utility.yul\":4276:4282   */\n      0x00\n        /* \"#utility.yul\":4329:4331   */\n      0x20\n        /* \"#utility.yul\":4317:4326   */\n      dup3\n        /* \"#utility.yul\":4308:4315   */\n      dup5\n        /* \"#utility.yul\":4304:4327   */\n      sub\n        /* \"#utility.yul\":4300:4332   */\n      slt\n        /* \"#utility.yul\":4297:4349   */\n      iszero\n      tag_144\n      jumpi\n        /* \"#utility.yul\":4345:4346   */\n      0x00\n        /* \"#utility.yul\":4342:4343   */\n      dup1\n        /* \"#utility.yul\":4335:4347   */\n      revert\n        /* \"#utility.yul\":4297:4349   */\n    tag_144:\n      pop\n        /* \"#utility.yul\":4368:4391   */\n      calldataload\n      swap2\n        /* \"#utility.yul\":4217:4397   */\n      swap1\n      pop\n      jump\t// out\n        /* \"#utility.yul\":4584:4981   */\n    tag_47:\n        /* \"#utility.yul\":4786:4788   */\n      0x20\n        /* \"#utility.yul\":4768:4789   */\n      dup1\n      dup3\n      mstore\n        /* \"#utility.yul\":4825:4827   */\n      0x21\n        /* \"#utility.yul\":4805:4823   */\n      swap1\n      dup3\n      add\n        /* \"#utility.yul\":4798:4828   */\n      mstore\n        /* \"#utility.yul\":4864:4898   */\n      0x4461746162617365204c69737443563a20536563726574206b6579206572726f\n        /* \"#utility.yul\":4859:4861   */\n      0x40\n        /* \"#utility.yul\":4844:4862   */\n      dup3\n      add\n        /* \"#utility.yul\":4837:4899   */\n      mstore\n      shl(0xf9, 0x39)\n        /* \"#utility.yul\":4930:4932   */\n      0x60\n        /* \"#utility.yul\":4915:4933   */\n      dup3\n      add\n        /* \"#utility.yul\":4908:4939   */\n      mstore\n        /* \"#utility.yul\":4971:4974   */\n      0x80\n        /* \"#utility.yul\":4956:4975   */\n      add\n      swap1\n        /* \"#utility.yul\":4584:4981   */\n      jump\t// out\n        /* \"#utility.yul\":4986:5218   */\n    tag_50:\n        /* \"#utility.yul\":5025:5028   */\n      0x00\n        /* \"#utility.yul\":5046:5063   */\n      0x01\n      dup3\n      add\n        /* \"#utility.yul\":5043:5183   */\n      tag_148\n      jumpi\n        /* \"#utility.yul\":5105:5115   */\n      0x4e487b71\n        /* \"#utility.yul\":5100:5103   */\n      0xe0\n        /* \"#utility.yul\":5096:5116   */\n      shl\n        /* \"#utility.yul\":5093:5094   */\n      0x00\n        /* \"#utility.yul\":5086:5117   */\n      mstore\n        /* \"#utility.yul\":5140:5144   */\n      0x11\n        /* \"#utility.yul\":5137:5138   */\n      0x04\n        /* \"#utility.yul\":5130:5145   */\n      mstore\n        /* \"#utility.yul\":5168:5172   */\n      0x24\n        /* \"#utility.yul\":5165:5166   */\n      0x00\n        /* \"#utility.yul\":5158:5173   */\n      revert\n        /* \"#utility.yul\":5043:5183   */\n    tag_148:\n      pop\n        /* \"#utility.yul\":5210:5211   */\n      0x01\n        /* \"#utility.yul\":5199:5212   */\n      add\n      swap1\n        /* \"#utility.yul\":4986:5218   */\n      jump\t// out\n        /* \"#utility.yul\":5223:5603   */\n    tag_71:\n        /* \"#utility.yul\":5302:5303   */\n      0x01\n        /* \"#utility.yul\":5298:5310   */\n      dup2\n      dup2\n      shr\n      swap1\n        /* \"#utility.yul\":5345:5357   */\n      dup3\n      and\n      dup1\n        /* \"#utility.yul\":5366:5427   */\n      tag_150\n      jumpi\n        /* \"#utility.yul\":5420:5424   */\n      0x7f\n        /* \"#utility.yul\":5412:5418   */\n      dup3\n        /* \"#utility.yul\":5408:5425   */\n      and\n        /* \"#utility.yul\":5398:5425   */\n      swap2\n      pop\n        /* \"#utility.yul\":5366:5427   */\n    tag_150:\n        /* \"#utility.yul\":5473:5475   */\n      0x20\n        /* \"#utility.yul\":5465:5471   */\n      dup3\n        /* \"#utility.yul\":5462:5476   */\n      lt\n        /* \"#utility.yul\":5442:5460   */\n      dup2\n        /* \"#utility.yul\":5439:5477   */\n      sub\n        /* \"#utility.yul\":5436:5597   */\n      tag_93\n      jumpi\n        /* \"#utility.yul\":5519:5529   */\n      0x4e487b71\n        /* \"#utility.yul\":5514:5517   */\n      0xe0\n        /* \"#utility.yul\":5510:5530   */\n      shl\n        /* \"#utility.yul\":5507:5508   */\n      0x00\n        /* \"#utility.yul\":5500:5531   */\n      mstore\n        /* \"#utility.yul\":5554:5558   */\n      0x22\n        /* \"#utility.yul\":5551:5552   */\n      0x04\n        /* \"#utility.yul\":5544:5559   */\n      mstore\n        /* \"#utility.yul\":5582:5586   */\n      0x24\n        /* \"#utility.yul\":5579:5580   */\n      0x00\n        /* \"#utility.yul\":5572:5587   */\n      revert\n        /* \"#utility.yul\":5734:6279   */\n    tag_105:\n        /* \"#utility.yul\":5836:5838   */\n      0x1f\n        /* \"#utility.yul\":5831:5834   */\n      dup3\n        /* \"#utility.yul\":5828:5839   */\n      gt\n        /* \"#utility.yul\":5825:6273   */\n      iszero\n      tag_154\n      jumpi\n        /* \"#utility.yul\":5872:5873   */\n      0x00\n        /* \"#utility.yul\":5897:5902   */\n      dup2\n        /* \"#utility.yul\":5893:5895   */\n      dup2\n        /* \"#utility.yul\":5886:5903   */\n      mstore\n        /* \"#utility.yul\":5942:5946   */\n      0x20\n        /* \"#utility.yul\":5938:5940   */\n      dup2\n        /* \"#utility.yul\":5928:5947   */\n      keccak256\n        /* \"#utility.yul\":6012:6014   */\n      0x1f\n        /* \"#utility.yul\":6000:6010   */\n      dup6\n        /* \"#utility.yul\":5996:6015   */\n      add\n        /* \"#utility.yul\":5993:5994   */\n      0x05\n        /* \"#utility.yul\":5989:6016   */\n      shr\n        /* \"#utility.yul\":5983:5987   */\n      dup2\n        /* \"#utility.yul\":5979:6017   */\n      add\n        /* \"#utility.yul\":6048:6052   */\n      0x20\n        /* \"#utility.yul\":6036:6046   */\n      dup7\n        /* \"#utility.yul\":6033:6053   */\n      lt\n        /* \"#utility.yul\":6030:6077   */\n      iszero\n      tag_155\n      jumpi\n      pop\n        /* \"#utility.yul\":6071:6075   */\n      dup1\n        /* \"#utility.yul\":6030:6077   */\n    tag_155:\n        /* \"#utility.yul\":6126:6128   */\n      0x1f\n        /* \"#utility.yul\":6121:6124   */\n      dup6\n        /* \"#utility.yul\":6117:6129   */\n      add\n        /* \"#utility.yul\":6114:6115   */\n      0x05\n        /* \"#utility.yul\":6110:6130   */\n      shr\n        /* \"#utility.yul\":6104:6108   */\n      dup3\n        /* \"#utility.yul\":6100:6131   */\n      add\n        /* \"#utility.yul\":6090:6131   */\n      swap2\n      pop\n        /* \"#utility.yul\":6181:6263   */\n    tag_156:\n        /* \"#utility.yul\":6199:6201   */\n      dup2\n        /* \"#utility.yul\":6192:6197   */\n      dup2\n        /* \"#utility.yul\":6189:6202   */\n      lt\n        /* \"#utility.yul\":6181:6263   */\n      iszero\n      tag_158\n      jumpi\n        /* \"#utility.yul\":6244:6261   */\n      dup3\n      dup2\n      sstore\n        /* \"#utility.yul\":6225:6226   */\n      0x01\n        /* \"#utility.yul\":6214:6227   */\n      add\n        /* \"#utility.yul\":6181:6263   */\n      jump(tag_156)\n    tag_158:\n        /* \"#utility.yul\":6185:6188   */\n      pop\n      pop\n      pop\n        /* \"#utility.yul\":5825:6273   */\n    tag_154:\n        /* \"#utility.yul\":5734:6279   */\n      pop\n      pop\n      pop\n      jump\t// out\n        /* \"#utility.yul\":6455:7807   */\n    tag_52:\n        /* \"#utility.yul\":6581:6584   */\n      dup2\n        /* \"#utility.yul\":6575:6585   */\n      mload\n        /* \"#utility.yul\":6608:6626   */\n      0xffffffffffffffff\n        /* \"#utility.yul\":6600:6606   */\n      dup2\n        /* \"#utility.yul\":6597:6627   */\n      gt\n        /* \"#utility.yul\":6594:6650   */\n      iszero\n      tag_162\n      jumpi\n        /* \"#utility.yul\":6630:6648   */\n      tag_162\n      tag_100\n      jump\t// in\n    tag_162:\n        /* \"#utility.yul\":6659:6756   */\n      tag_163\n        /* \"#utility.yul\":6749:6755   */\n      dup2\n        /* \"#utility.yul\":6709:6747   */\n      tag_164\n        /* \"#utility.yul\":6741:6745   */\n      dup5\n        /* \"#utility.yul\":6735:6746   */\n      sload\n        /* \"#utility.yul\":6709:6747   */\n      tag_71\n      jump\t// in\n    tag_164:\n        /* \"#utility.yul\":6703:6707   */\n      dup5\n        /* \"#utility.yul\":6659:6756   */\n      tag_105\n      jump\t// in\n    tag_163:\n        /* \"#utility.yul\":6811:6815   */\n      0x20\n      dup1\n        /* \"#utility.yul\":6875:6877   */\n      0x1f\n        /* \"#utility.yul\":6864:6878   */\n      dup4\n      gt\n        /* \"#utility.yul\":6892:6893   */\n      0x01\n        /* \"#utility.yul\":6887:7550   */\n      dup2\n      eq\n      tag_166\n      jumpi\n        /* \"#utility.yul\":7594:7595   */\n      0x00\n        /* \"#utility.yul\":7611:7617   */\n      dup5\n        /* \"#utility.yul\":7608:7697   */\n      iszero\n      tag_167\n      jumpi\n      pop\n        /* \"#utility.yul\":7663:7682   */\n      dup6\n      dup4\n      add\n        /* \"#utility.yul\":7657:7683   */\n      mload\n        /* \"#utility.yul\":7608:7697   */\n    tag_167:\n      not(0x00)\n        /* \"#utility.yul\":6412:6413   */\n      0x03\n        /* \"#utility.yul\":6408:6419   */\n      dup7\n      swap1\n      shl\n        /* \"#utility.yul\":6404:6428   */\n      shr\n        /* \"#utility.yul\":6400:6429   */\n      not\n        /* \"#utility.yul\":6390:6430   */\n      and\n        /* \"#utility.yul\":6436:6437   */\n      0x01\n        /* \"#utility.yul\":6432:6443   */\n      dup6\n      swap1\n      shl\n        /* \"#utility.yul\":6387:6444   */\n      or\n        /* \"#utility.yul\":7710:7791   */\n      dup6\n      sstore\n        /* \"#utility.yul\":6857:7801   */\n      jump(tag_158)\n        /* \"#utility.yul\":6887:7550   */\n    tag_166:\n        /* \"#utility.yul\":5681:5682   */\n      0x00\n        /* \"#utility.yul\":5674:5688   */\n      dup6\n      dup2\n      mstore\n        /* \"#utility.yul\":5718:5722   */\n      0x20\n        /* \"#utility.yul\":5705:5723   */\n      dup2\n      keccak256\n      not(0x1f)\n        /* \"#utility.yul\":6923:6943   */\n      dup7\n      and\n      swap2\n        /* \"#utility.yul\":7041:7277   */\n    tag_170:\n        /* \"#utility.yul\":7055:7062   */\n      dup3\n        /* \"#utility.yul\":7052:7053   */\n      dup2\n        /* \"#utility.yul\":7049:7063   */\n      lt\n        /* \"#utility.yul\":7041:7277   */\n      iszero\n      tag_172\n      jumpi\n        /* \"#utility.yul\":7144:7163   */\n      dup9\n      dup7\n      add\n        /* \"#utility.yul\":7138:7164   */\n      mload\n        /* \"#utility.yul\":7123:7165   */\n      dup3\n      sstore\n        /* \"#utility.yul\":7236:7263   */\n      swap5\n      dup5\n      add\n      swap5\n        /* \"#utility.yul\":7204:7205   */\n      0x01\n        /* \"#utility.yul\":7192:7206   */\n      swap1\n      swap2\n      add\n      swap1\n        /* \"#utility.yul\":7071:7090   */\n      dup5\n      add\n        /* \"#utility.yul\":7041:7277   */\n      jump(tag_170)\n    tag_172:\n        /* \"#utility.yul\":7045:7048   */\n      pop\n        /* \"#utility.yul\":7305:7311   */\n      dup6\n        /* \"#utility.yul\":7296:7303   */\n      dup3\n        /* \"#utility.yul\":7293:7312   */\n      lt\n        /* \"#utility.yul\":7290:7491   */\n      iszero\n      tag_173\n      jumpi\n        /* \"#utility.yul\":7366:7385   */\n      dup8\n      dup6\n      add\n        /* \"#utility.yul\":7360:7386   */\n      mload\n      not(0x00)\n        /* \"#utility.yul\":7449:7450   */\n      0x03\n        /* \"#utility.yul\":7445:7459   */\n      dup9\n      swap1\n      shl\n        /* \"#utility.yul\":7461:7464   */\n      0xf8\n        /* \"#utility.yul\":7441:7465   */\n      and\n        /* \"#utility.yul\":7437:7474   */\n      shr\n        /* \"#utility.yul\":7433:7475   */\n      not\n        /* \"#utility.yul\":7418:7476   */\n      and\n        /* \"#utility.yul\":7403:7477   */\n      dup2\n      sstore\n        /* \"#utility.yul\":7290:7491   */\n    tag_173:\n      pop\n      pop\n      pop\n      pop\n      pop\n        /* \"#utility.yul\":7537:7538   */\n      0x01\n        /* \"#utility.yul\":7521:7535   */\n      swap1\n      dup2\n      shl\n        /* \"#utility.yul\":7517:7539   */\n      add\n        /* \"#utility.yul\":7504:7540   */\n      swap1\n      sstore\n      pop\n        /* \"#utility.yul\":6455:7807   */\n      jump\t// out\n    stop\n    data_98ee57057fe0a523e70b51608fd55a37ff53d47c3b8dac495a5f45d45157392f 8e1604a838d0f1a9b2cda14a099e4ceb08e966cc6e05e8296f67b02d61a79f09\n\n    auxdata: 0xa2646970667358221220ae183a72a859121b6651ef5c44debd10e3c811bc572b3dbc314519b4d94d878164736f6c63430008110033\n}\n",
				"bytecode": {
					"linkReferences": {},
					"object": "6080604052600060025534801561001557600080fd5b50600080546001600160a01b03191633179055610a1f806100376000396000f3fe608060405234801561001057600080fd5b506004361061007d5760003560e01c8063c78a67411161005b578063c78a6741146100cf578063cfbca46c146100ef578063f2fde38b14610102578063fd82e9dd1461011557600080fd5b80632eb5444f1461008257806383197ef0146100aa5780638da5cb5b146100b4575b600080fd5b6100956100903660046106b4565b610136565b60405190151581526020015b60405180910390f35b6100b2610206565b005b6000546040516001600160a01b0390911681526020016100a1565b6100e26100dd3660046106f9565b610211565b6040516100a1919061071b565b6100956100fd366004610785565b610391565b6100b26101103660046107d5565b610421565b610128610123366004610805565b61049a565b6040519081526020016100a1565b6000816000805160206109ca833981519152811461016f5760405162461bcd60e51b81526004016101669061081e565b60405180910390fd5b6002805490600061017f8361085f565b90915550506002805460208087018281526000928352600191829052604092839020885181559051918101919091559086015186928201906101c19082610909565b509050507fcec38e7998840060d6f44229691470f6cc18febe068571f3b86f772e6eba5963846040516101f4919061071b565b60405180910390a15060019392505050565b61020e6104d6565b30ff5b61023560405180606001604052806000815260200160008152602001606081525090565b816000805160206109ca83398151915281146102635760405162461bcd60e51b81526004016101669061081e565b838060011115801561027757506002548111155b6102c35760405162461bcd60e51b815260206004820152601e60248201527f4461746162617365204c69737443563a20496e76616c696420696e64657800006044820152606401610166565b60016000868152602001908152602001600020604051806060016040529081600082015481526020016001820154815260200160028201805461030590610886565b80601f016020809104026020016040519081016040528092919081815260200182805461033190610886565b801561037e5780601f106103535761010080835404028352916020019161037e565b820191906000526020600020905b81548152906001019060200180831161036157829003601f168201915b5050505050815250509250505092915050565b6000816000805160206109ca83398151915281146103c15760405162461bcd60e51b81526004016101669061081e565b600280549060006103d18361085f565b91905055508360016000878152602001908152602001600020600082015181600001556020820151816001015560408201518160020190816104139190610909565b506001979650505050505050565b6104296104d6565b6001600160a01b03811661048e5760405162461bcd60e51b815260206004820152602660248201527f4f776e61626c653a206e6577206f776e657220697320746865207a65726f206160448201526564647265737360d01b6064820152608401610166565b61049781610541565b50565b6000816000805160206109ca83398151915281146104ca5760405162461bcd60e51b81526004016101669061081e565b60025491505b50919050565b336104e96000546001600160a01b031690565b6001600160a01b03161461053f5760405162461bcd60e51b815260206004820181905260248201527f4f776e61626c653a2063616c6c6572206973206e6f7420746865206f776e65726044820152606401610166565b565b600080546001600160a01b038381166001600160a01b0319831681178455604051919092169283917f8be0079c531659141344cd1fd0a4f28419497f9722a3daafe3b4186f6b6457e09190a35050565b634e487b7160e01b600052604160045260246000fd5b6040516060810167ffffffffffffffff811182821017156105ca576105ca610591565b60405290565b604051601f8201601f1916810167ffffffffffffffff811182821017156105f9576105f9610591565b604052919050565b60006060828403121561061357600080fd5b61061b6105a7565b90508135815260208083013581830152604083013567ffffffffffffffff8082111561064657600080fd5b818501915085601f83011261065a57600080fd5b81358181111561066c5761066c610591565b61067e601f8201601f191685016105d0565b9150808252868482850101111561069457600080fd5b808484018584013760008482840101525080604085015250505092915050565b600080604083850312156106c757600080fd5b823567ffffffffffffffff8111156106de57600080fd5b6106ea85828601610601565b95602094909401359450505050565b6000806040838503121561070c57600080fd5b50508035926020909101359150565b600060208083528351818401528084015160408401526040840151606080850152805180608086015260005b818110156107635782810184015186820160a001528301610747565b50600060a0828701015260a0601f19601f830116860101935050505092915050565b60008060006060848603121561079a57600080fd5b83359250602084013567ffffffffffffffff8111156107b857600080fd5b6107c486828701610601565b925050604084013590509250925092565b6000602082840312156107e757600080fd5b81356001600160a01b03811681146107fe57600080fd5b9392505050565b60006020828403121561081757600080fd5b5035919050565b60208082526021908201527f4461746162617365204c69737443563a20536563726574206b6579206572726f6040820152603960f91b606082015260800190565b60006001820161087f57634e487b7160e01b600052601160045260246000fd5b5060010190565b600181811c9082168061089a57607f821691505b6020821081036104d057634e487b7160e01b600052602260045260246000fd5b601f82111561090457600081815260208120601f850160051c810160208610156108e15750805b601f850160051c820191505b81811015610900578281556001016108ed565b5050505b505050565b815167ffffffffffffffff81111561092357610923610591565b610937816109318454610886565b846108ba565b602080601f83116001811461096c57600084156109545750858301515b600019600386901b1c1916600185901b178555610900565b600085815260208120601f198616915b8281101561099b5788860151825594840194600190910190840161097c565b50858210156109b95787850151600019600388901b60f8161c191681555b5050505050600190811b0190555056fe8e1604a838d0f1a9b2cda14a099e4ceb08e966cc6e05e8296f67b02d61a79f09a2646970667358221220ae183a72a859121b6651ef5c44debd10e3c811bc572b3dbc314519b4d94d878164736f6c63430008110033",
					"opcodes": "PUSH1 0x80 PUSH1 0x40 MSTORE PUSH1 0x0 PUSH1 0x2 SSTORE CALLVALUE DUP1 ISZERO PUSH2 0x15 JUMPI PUSH1 0x0 DUP1 REVERT JUMPDEST POP PUSH1 0x0 DUP1 SLOAD PUSH1 0x1 PUSH1 0x1 PUSH1 0xA0 SHL SUB NOT AND CALLER OR SWAP1 SSTORE PUSH2 0xA1F DUP1 PUSH2 0x37 PUSH1 0x0 CODECOPY PUSH1 0x0 RETURN INVALID PUSH1 0x80 PUSH1 0x40 MSTORE CALLVALUE DUP1 ISZERO PUSH2 0x10 JUMPI PUSH1 0x0 DUP1 REVERT JUMPDEST POP PUSH1 0x4 CALLDATASIZE LT PUSH2 0x7D JUMPI PUSH1 0x0 CALLDATALOAD PUSH1 0xE0 SHR DUP1 PUSH4 0xC78A6741 GT PUSH2 0x5B JUMPI DUP1 PUSH4 0xC78A6741 EQ PUSH2 0xCF JUMPI DUP1 PUSH4 0xCFBCA46C EQ PUSH2 0xEF JUMPI DUP1 PUSH4 0xF2FDE38B EQ PUSH2 0x102 JUMPI DUP1 PUSH4 0xFD82E9DD EQ PUSH2 0x115 JUMPI PUSH1 0x0 DUP1 REVERT JUMPDEST DUP1 PUSH4 0x2EB5444F EQ PUSH2 0x82 JUMPI DUP1 PUSH4 0x83197EF0 EQ PUSH2 0xAA JUMPI DUP1 PUSH4 0x8DA5CB5B EQ PUSH2 0xB4 JUMPI JUMPDEST PUSH1 0x0 DUP1 REVERT JUMPDEST PUSH2 0x95 PUSH2 0x90 CALLDATASIZE PUSH1 0x4 PUSH2 0x6B4 JUMP JUMPDEST PUSH2 0x136 JUMP JUMPDEST PUSH1 0x40 MLOAD SWAP1 ISZERO ISZERO DUP2 MSTORE PUSH1 0x20 ADD JUMPDEST PUSH1 0x40 MLOAD DUP1 SWAP2 SUB SWAP1 RETURN JUMPDEST PUSH2 0xB2 PUSH2 0x206 JUMP JUMPDEST STOP JUMPDEST PUSH1 0x0 SLOAD PUSH1 0x40 MLOAD PUSH1 0x1 PUSH1 0x1 PUSH1 0xA0 SHL SUB SWAP1 SWAP2 AND DUP2 MSTORE PUSH1 0x20 ADD PUSH2 0xA1 JUMP JUMPDEST PUSH2 0xE2 PUSH2 0xDD CALLDATASIZE PUSH1 0x4 PUSH2 0x6F9 JUMP JUMPDEST PUSH2 0x211 JUMP JUMPDEST PUSH1 0x40 MLOAD PUSH2 0xA1 SWAP2 SWAP1 PUSH2 0x71B JUMP JUMPDEST PUSH2 0x95 PUSH2 0xFD CALLDATASIZE PUSH1 0x4 PUSH2 0x785 JUMP JUMPDEST PUSH2 0x391 JUMP JUMPDEST PUSH2 0xB2 PUSH2 0x110 CALLDATASIZE PUSH1 0x4 PUSH2 0x7D5 JUMP JUMPDEST PUSH2 0x421 JUMP JUMPDEST PUSH2 0x128 PUSH2 0x123 CALLDATASIZE PUSH1 0x4 PUSH2 0x805 JUMP JUMPDEST PUSH2 0x49A JUMP JUMPDEST PUSH1 0x40 MLOAD SWAP1 DUP2 MSTORE PUSH1 0x20 ADD PUSH2 0xA1 JUMP JUMPDEST PUSH1 0x0 DUP2 PUSH1 0x0 DUP1 MLOAD PUSH1 0x20 PUSH2 0x9CA DUP4 CODECOPY DUP2 MLOAD SWAP2 MSTORE DUP2 EQ PUSH2 0x16F JUMPI PUSH1 0x40 MLOAD PUSH3 0x461BCD PUSH1 0xE5 SHL DUP2 MSTORE PUSH1 0x4 ADD PUSH2 0x166 SWAP1 PUSH2 0x81E JUMP JUMPDEST PUSH1 0x40 MLOAD DUP1 SWAP2 SUB SWAP1 REVERT JUMPDEST PUSH1 0x2 DUP1 SLOAD SWAP1 PUSH1 0x0 PUSH2 0x17F DUP4 PUSH2 0x85F JUMP JUMPDEST SWAP1 SWAP2 SSTORE POP POP PUSH1 0x2 DUP1 SLOAD PUSH1 0x20 DUP1 DUP8 ADD DUP3 DUP2 MSTORE PUSH1 0x0 SWAP3 DUP4 MSTORE PUSH1 0x1 SWAP2 DUP3 SWAP1 MSTORE PUSH1 0x40 SWAP3 DUP4 SWAP1 KECCAK256 DUP9 MLOAD DUP2 SSTORE SWAP1 MLOAD SWAP2 DUP2 ADD SWAP2 SWAP1 SWAP2 SSTORE SWAP1 DUP7 ADD MLOAD DUP7 SWAP3 DUP3 ADD SWAP1 PUSH2 0x1C1 SWAP1 DUP3 PUSH2 0x909 JUMP JUMPDEST POP SWAP1 POP POP PUSH32 0xCEC38E7998840060D6F44229691470F6CC18FEBE068571F3B86F772E6EBA5963 DUP5 PUSH1 0x40 MLOAD PUSH2 0x1F4 SWAP2 SWAP1 PUSH2 0x71B JUMP JUMPDEST PUSH1 0x40 MLOAD DUP1 SWAP2 SUB SWAP1 LOG1 POP PUSH1 0x1 SWAP4 SWAP3 POP POP POP JUMP JUMPDEST PUSH2 0x20E PUSH2 0x4D6 JUMP JUMPDEST ADDRESS SELFDESTRUCT JUMPDEST PUSH2 0x235 PUSH1 0x40 MLOAD DUP1 PUSH1 0x60 ADD PUSH1 0x40 MSTORE DUP1 PUSH1 0x0 DUP2 MSTORE PUSH1 0x20 ADD PUSH1 0x0 DUP2 MSTORE PUSH1 0x20 ADD PUSH1 0x60 DUP2 MSTORE POP SWAP1 JUMP JUMPDEST DUP2 PUSH1 0x0 DUP1 MLOAD PUSH1 0x20 PUSH2 0x9CA DUP4 CODECOPY DUP2 MLOAD SWAP2 MSTORE DUP2 EQ PUSH2 0x263 JUMPI PUSH1 0x40 MLOAD PUSH3 0x461BCD PUSH1 0xE5 SHL DUP2 MSTORE PUSH1 0x4 ADD PUSH2 0x166 SWAP1 PUSH2 0x81E JUMP JUMPDEST DUP4 DUP1 PUSH1 0x1 GT ISZERO DUP1 ISZERO PUSH2 0x277 JUMPI POP PUSH1 0x2 SLOAD DUP2 GT ISZERO JUMPDEST PUSH2 0x2C3 JUMPI PUSH1 0x40 MLOAD PUSH3 0x461BCD PUSH1 0xE5 SHL DUP2 MSTORE PUSH1 0x20 PUSH1 0x4 DUP3 ADD MSTORE PUSH1 0x1E PUSH1 0x24 DUP3 ADD MSTORE PUSH32 0x4461746162617365204C69737443563A20496E76616C696420696E6465780000 PUSH1 0x44 DUP3 ADD MSTORE PUSH1 0x64 ADD PUSH2 0x166 JUMP JUMPDEST PUSH1 0x1 PUSH1 0x0 DUP7 DUP2 MSTORE PUSH1 0x20 ADD SWAP1 DUP2 MSTORE PUSH1 0x20 ADD PUSH1 0x0 KECCAK256 PUSH1 0x40 MLOAD DUP1 PUSH1 0x60 ADD PUSH1 0x40 MSTORE SWAP1 DUP2 PUSH1 0x0 DUP3 ADD SLOAD DUP2 MSTORE PUSH1 0x20 ADD PUSH1 0x1 DUP3 ADD SLOAD DUP2 MSTORE PUSH1 0x20 ADD PUSH1 0x2 DUP3 ADD DUP1 SLOAD PUSH2 0x305 SWAP1 PUSH2 0x886 JUMP JUMPDEST DUP1 PUSH1 0x1F ADD PUSH1 0x20 DUP1 SWAP2 DIV MUL PUSH1 0x20 ADD PUSH1 0x40 MLOAD SWAP1 DUP2 ADD PUSH1 0x40 MSTORE DUP1 SWAP3 SWAP2 SWAP1 DUP2 DUP2 MSTORE PUSH1 0x20 ADD DUP3 DUP1 SLOAD PUSH2 0x331 SWAP1 PUSH2 0x886 JUMP JUMPDEST DUP1 ISZERO PUSH2 0x37E JUMPI DUP1 PUSH1 0x1F LT PUSH2 0x353 JUMPI PUSH2 0x100 DUP1 DUP4 SLOAD DIV MUL DUP4 MSTORE SWAP2 PUSH1 0x20 ADD SWAP2 PUSH2 0x37E JUMP JUMPDEST DUP3 ADD SWAP2 SWAP1 PUSH1 0x0 MSTORE PUSH1 0x20 PUSH1 0x0 KECCAK256 SWAP1 JUMPDEST DUP2 SLOAD DUP2 MSTORE SWAP1 PUSH1 0x1 ADD SWAP1 PUSH1 0x20 ADD DUP1 DUP4 GT PUSH2 0x361 JUMPI DUP3 SWAP1 SUB PUSH1 0x1F AND DUP3 ADD SWAP2 JUMPDEST POP POP POP POP POP DUP2 MSTORE POP POP SWAP3 POP POP POP SWAP3 SWAP2 POP POP JUMP JUMPDEST PUSH1 0x0 DUP2 PUSH1 0x0 DUP1 MLOAD PUSH1 0x20 PUSH2 0x9CA DUP4 CODECOPY DUP2 MLOAD SWAP2 MSTORE DUP2 EQ PUSH2 0x3C1 JUMPI PUSH1 0x40 MLOAD PUSH3 0x461BCD PUSH1 0xE5 SHL DUP2 MSTORE PUSH1 0x4 ADD PUSH2 0x166 SWAP1 PUSH2 0x81E JUMP JUMPDEST PUSH1 0x2 DUP1 SLOAD SWAP1 PUSH1 0x0 PUSH2 0x3D1 DUP4 PUSH2 0x85F JUMP JUMPDEST SWAP2 SWAP1 POP SSTORE POP DUP4 PUSH1 0x1 PUSH1 0x0 DUP8 DUP2 MSTORE PUSH1 0x20 ADD SWAP1 DUP2 MSTORE PUSH1 0x20 ADD PUSH1 0x0 KECCAK256 PUSH1 0x0 DUP3 ADD MLOAD DUP2 PUSH1 0x0 ADD SSTORE PUSH1 0x20 DUP3 ADD MLOAD DUP2 PUSH1 0x1 ADD SSTORE PUSH1 0x40 DUP3 ADD MLOAD DUP2 PUSH1 0x2 ADD SWAP1 DUP2 PUSH2 0x413 SWAP2 SWAP1 PUSH2 0x909 JUMP JUMPDEST POP PUSH1 0x1 SWAP8 SWAP7 POP POP POP POP POP POP POP JUMP JUMPDEST PUSH2 0x429 PUSH2 0x4D6 JUMP JUMPDEST PUSH1 0x1 PUSH1 0x1 PUSH1 0xA0 SHL SUB DUP2 AND PUSH2 0x48E JUMPI PUSH1 0x40 MLOAD PUSH3 0x461BCD PUSH1 0xE5 SHL DUP2 MSTORE PUSH1 0x20 PUSH1 0x4 DUP3 ADD MSTORE PUSH1 0x26 PUSH1 0x24 DUP3 ADD MSTORE PUSH32 0x4F776E61626C653A206E6577206F776E657220697320746865207A65726F2061 PUSH1 0x44 DUP3 ADD MSTORE PUSH6 0x646472657373 PUSH1 0xD0 SHL PUSH1 0x64 DUP3 ADD MSTORE PUSH1 0x84 ADD PUSH2 0x166 JUMP JUMPDEST PUSH2 0x497 DUP2 PUSH2 0x541 JUMP JUMPDEST POP JUMP JUMPDEST PUSH1 0x0 DUP2 PUSH1 0x0 DUP1 MLOAD PUSH1 0x20 PUSH2 0x9CA DUP4 CODECOPY DUP2 MLOAD SWAP2 MSTORE DUP2 EQ PUSH2 0x4CA JUMPI PUSH1 0x40 MLOAD PUSH3 0x461BCD PUSH1 0xE5 SHL DUP2 MSTORE PUSH1 0x4 ADD PUSH2 0x166 SWAP1 PUSH2 0x81E JUMP JUMPDEST PUSH1 0x2 SLOAD SWAP2 POP JUMPDEST POP SWAP2 SWAP1 POP JUMP JUMPDEST CALLER PUSH2 0x4E9 PUSH1 0x0 SLOAD PUSH1 0x1 PUSH1 0x1 PUSH1 0xA0 SHL SUB AND SWAP1 JUMP JUMPDEST PUSH1 0x1 PUSH1 0x1 PUSH1 0xA0 SHL SUB AND EQ PUSH2 0x53F JUMPI PUSH1 0x40 MLOAD PUSH3 0x461BCD PUSH1 0xE5 SHL DUP2 MSTORE PUSH1 0x20 PUSH1 0x4 DUP3 ADD DUP2 SWAP1 MSTORE PUSH1 0x24 DUP3 ADD MSTORE PUSH32 0x4F776E61626C653A2063616C6C6572206973206E6F7420746865206F776E6572 PUSH1 0x44 DUP3 ADD MSTORE PUSH1 0x64 ADD PUSH2 0x166 JUMP JUMPDEST JUMP JUMPDEST PUSH1 0x0 DUP1 SLOAD PUSH1 0x1 PUSH1 0x1 PUSH1 0xA0 SHL SUB DUP4 DUP2 AND PUSH1 0x1 PUSH1 0x1 PUSH1 0xA0 SHL SUB NOT DUP4 AND DUP2 OR DUP5 SSTORE PUSH1 0x40 MLOAD SWAP2 SWAP1 SWAP3 AND SWAP3 DUP4 SWAP2 PUSH32 0x8BE0079C531659141344CD1FD0A4F28419497F9722A3DAAFE3B4186F6B6457E0 SWAP2 SWAP1 LOG3 POP POP JUMP JUMPDEST PUSH4 0x4E487B71 PUSH1 0xE0 SHL PUSH1 0x0 MSTORE PUSH1 0x41 PUSH1 0x4 MSTORE PUSH1 0x24 PUSH1 0x0 REVERT JUMPDEST PUSH1 0x40 MLOAD PUSH1 0x60 DUP2 ADD PUSH8 0xFFFFFFFFFFFFFFFF DUP2 GT DUP3 DUP3 LT OR ISZERO PUSH2 0x5CA JUMPI PUSH2 0x5CA PUSH2 0x591 JUMP JUMPDEST PUSH1 0x40 MSTORE SWAP1 JUMP JUMPDEST PUSH1 0x40 MLOAD PUSH1 0x1F DUP3 ADD PUSH1 0x1F NOT AND DUP2 ADD PUSH8 0xFFFFFFFFFFFFFFFF DUP2 GT DUP3 DUP3 LT OR ISZERO PUSH2 0x5F9 JUMPI PUSH2 0x5F9 PUSH2 0x591 JUMP JUMPDEST PUSH1 0x40 MSTORE SWAP2 SWAP1 POP JUMP JUMPDEST PUSH1 0x0 PUSH1 0x60 DUP3 DUP5 SUB SLT ISZERO PUSH2 0x613 JUMPI PUSH1 0x0 DUP1 REVERT JUMPDEST PUSH2 0x61B PUSH2 0x5A7 JUMP JUMPDEST SWAP1 POP DUP2 CALLDATALOAD DUP2 MSTORE PUSH1 0x20 DUP1 DUP4 ADD CALLDATALOAD DUP2 DUP4 ADD MSTORE PUSH1 0x40 DUP4 ADD CALLDATALOAD PUSH8 0xFFFFFFFFFFFFFFFF DUP1 DUP3 GT ISZERO PUSH2 0x646 JUMPI PUSH1 0x0 DUP1 REVERT JUMPDEST DUP2 DUP6 ADD SWAP2 POP DUP6 PUSH1 0x1F DUP4 ADD SLT PUSH2 0x65A JUMPI PUSH1 0x0 DUP1 REVERT JUMPDEST DUP2 CALLDATALOAD DUP2 DUP2 GT ISZERO PUSH2 0x66C JUMPI PUSH2 0x66C PUSH2 0x591 JUMP JUMPDEST PUSH2 0x67E PUSH1 0x1F DUP3 ADD PUSH1 0x1F NOT AND DUP6 ADD PUSH2 0x5D0 JUMP JUMPDEST SWAP2 POP DUP1 DUP3 MSTORE DUP7 DUP5 DUP3 DUP6 ADD ADD GT ISZERO PUSH2 0x694 JUMPI PUSH1 0x0 DUP1 REVERT JUMPDEST DUP1 DUP5 DUP5 ADD DUP6 DUP5 ADD CALLDATACOPY PUSH1 0x0 DUP5 DUP3 DUP5 ADD ADD MSTORE POP DUP1 PUSH1 0x40 DUP6 ADD MSTORE POP POP POP SWAP3 SWAP2 POP POP JUMP JUMPDEST PUSH1 0x0 DUP1 PUSH1 0x40 DUP4 DUP6 SUB SLT ISZERO PUSH2 0x6C7 JUMPI PUSH1 0x0 DUP1 REVERT JUMPDEST DUP3 CALLDATALOAD PUSH8 0xFFFFFFFFFFFFFFFF DUP2 GT ISZERO PUSH2 0x6DE JUMPI PUSH1 0x0 DUP1 REVERT JUMPDEST PUSH2 0x6EA DUP6 DUP3 DUP7 ADD PUSH2 0x601 JUMP JUMPDEST SWAP6 PUSH1 0x20 SWAP5 SWAP1 SWAP5 ADD CALLDATALOAD SWAP5 POP POP POP POP JUMP JUMPDEST PUSH1 0x0 DUP1 PUSH1 0x40 DUP4 DUP6 SUB SLT ISZERO PUSH2 0x70C JUMPI PUSH1 0x0 DUP1 REVERT JUMPDEST POP POP DUP1 CALLDATALOAD SWAP3 PUSH1 0x20 SWAP1 SWAP2 ADD CALLDATALOAD SWAP2 POP JUMP JUMPDEST PUSH1 0x0 PUSH1 0x20 DUP1 DUP4 MSTORE DUP4 MLOAD DUP2 DUP5 ADD MSTORE DUP1 DUP5 ADD MLOAD PUSH1 0x40 DUP5 ADD MSTORE PUSH1 0x40 DUP5 ADD MLOAD PUSH1 0x60 DUP1 DUP6 ADD MSTORE DUP1 MLOAD DUP1 PUSH1 0x80 DUP7 ADD MSTORE PUSH1 0x0 JUMPDEST DUP2 DUP2 LT ISZERO PUSH2 0x763 JUMPI DUP3 DUP2 ADD DUP5 ADD MLOAD DUP7 DUP3 ADD PUSH1 0xA0 ADD MSTORE DUP4 ADD PUSH2 0x747 JUMP JUMPDEST POP PUSH1 0x0 PUSH1 0xA0 DUP3 DUP8 ADD ADD MSTORE PUSH1 0xA0 PUSH1 0x1F NOT PUSH1 0x1F DUP4 ADD AND DUP7 ADD ADD SWAP4 POP POP POP POP SWAP3 SWAP2 POP POP JUMP JUMPDEST PUSH1 0x0 DUP1 PUSH1 0x0 PUSH1 0x60 DUP5 DUP7 SUB SLT ISZERO PUSH2 0x79A JUMPI PUSH1 0x0 DUP1 REVERT JUMPDEST DUP4 CALLDATALOAD SWAP3 POP PUSH1 0x20 DUP5 ADD CALLDATALOAD PUSH8 0xFFFFFFFFFFFFFFFF DUP2 GT ISZERO PUSH2 0x7B8 JUMPI PUSH1 0x0 DUP1 REVERT JUMPDEST PUSH2 0x7C4 DUP7 DUP3 DUP8 ADD PUSH2 0x601 JUMP JUMPDEST SWAP3 POP POP PUSH1 0x40 DUP5 ADD CALLDATALOAD SWAP1 POP SWAP3 POP SWAP3 POP SWAP3 JUMP JUMPDEST PUSH1 0x0 PUSH1 0x20 DUP3 DUP5 SUB SLT ISZERO PUSH2 0x7E7 JUMPI PUSH1 0x0 DUP1 REVERT JUMPDEST DUP2 CALLDATALOAD PUSH1 0x1 PUSH1 0x1 PUSH1 0xA0 SHL SUB DUP2 AND DUP2 EQ PUSH2 0x7FE JUMPI PUSH1 0x0 DUP1 REVERT JUMPDEST SWAP4 SWAP3 POP POP POP JUMP JUMPDEST PUSH1 0x0 PUSH1 0x20 DUP3 DUP5 SUB SLT ISZERO PUSH2 0x817 JUMPI PUSH1 0x0 DUP1 REVERT JUMPDEST POP CALLDATALOAD SWAP2 SWAP1 POP JUMP JUMPDEST PUSH1 0x20 DUP1 DUP3 MSTORE PUSH1 0x21 SWAP1 DUP3 ADD MSTORE PUSH32 0x4461746162617365204C69737443563A20536563726574206B6579206572726F PUSH1 0x40 DUP3 ADD MSTORE PUSH1 0x39 PUSH1 0xF9 SHL PUSH1 0x60 DUP3 ADD MSTORE PUSH1 0x80 ADD SWAP1 JUMP JUMPDEST PUSH1 0x0 PUSH1 0x1 DUP3 ADD PUSH2 0x87F JUMPI PUSH4 0x4E487B71 PUSH1 0xE0 SHL PUSH1 0x0 MSTORE PUSH1 0x11 PUSH1 0x4 MSTORE PUSH1 0x24 PUSH1 0x0 REVERT JUMPDEST POP PUSH1 0x1 ADD SWAP1 JUMP JUMPDEST PUSH1 0x1 DUP2 DUP2 SHR SWAP1 DUP3 AND DUP1 PUSH2 0x89A JUMPI PUSH1 0x7F DUP3 AND SWAP2 POP JUMPDEST PUSH1 0x20 DUP3 LT DUP2 SUB PUSH2 0x4D0 JUMPI PUSH4 0x4E487B71 PUSH1 0xE0 SHL PUSH1 0x0 MSTORE PUSH1 0x22 PUSH1 0x4 MSTORE PUSH1 0x24 PUSH1 0x0 REVERT JUMPDEST PUSH1 0x1F DUP3 GT ISZERO PUSH2 0x904 JUMPI PUSH1 0x0 DUP2 DUP2 MSTORE PUSH1 0x20 DUP2 KECCAK256 PUSH1 0x1F DUP6 ADD PUSH1 0x5 SHR DUP2 ADD PUSH1 0x20 DUP7 LT ISZERO PUSH2 0x8E1 JUMPI POP DUP1 JUMPDEST PUSH1 0x1F DUP6 ADD PUSH1 0x5 SHR DUP3 ADD SWAP2 POP JUMPDEST DUP2 DUP2 LT ISZERO PUSH2 0x900 JUMPI DUP3 DUP2 SSTORE PUSH1 0x1 ADD PUSH2 0x8ED JUMP JUMPDEST POP POP POP JUMPDEST POP POP POP JUMP JUMPDEST DUP2 MLOAD PUSH8 0xFFFFFFFFFFFFFFFF DUP2 GT ISZERO PUSH2 0x923 JUMPI PUSH2 0x923 PUSH2 0x591 JUMP JUMPDEST PUSH2 0x937 DUP2 PUSH2 0x931 DUP5 SLOAD PUSH2 0x886 JUMP JUMPDEST DUP5 PUSH2 0x8BA JUMP JUMPDEST PUSH1 0x20 DUP1 PUSH1 0x1F DUP4 GT PUSH1 0x1 DUP2 EQ PUSH2 0x96C JUMPI PUSH1 0x0 DUP5 ISZERO PUSH2 0x954 JUMPI POP DUP6 DUP4 ADD MLOAD JUMPDEST PUSH1 0x0 NOT PUSH1 0x3 DUP7 SWAP1 SHL SHR NOT AND PUSH1 0x1 DUP6 SWAP1 SHL OR DUP6 SSTORE PUSH2 0x900 JUMP JUMPDEST PUSH1 0x0 DUP6 DUP2 MSTORE PUSH1 0x20 DUP2 KECCAK256 PUSH1 0x1F NOT DUP7 AND SWAP2 JUMPDEST DUP3 DUP2 LT ISZERO PUSH2 0x99B JUMPI DUP9 DUP7 ADD MLOAD DUP3 SSTORE SWAP5 DUP5 ADD SWAP5 PUSH1 0x1 SWAP1 SWAP2 ADD SWAP1 DUP5 ADD PUSH2 0x97C JUMP JUMPDEST POP DUP6 DUP3 LT ISZERO PUSH2 0x9B9 JUMPI DUP8 DUP6 ADD MLOAD PUSH1 0x0 NOT PUSH1 0x3 DUP9 SWAP1 SHL PUSH1 0xF8 AND SHR NOT AND DUP2 SSTORE JUMPDEST POP POP POP POP POP PUSH1 0x1 SWAP1 DUP2 SHL ADD SWAP1 SSTORE POP JUMP INVALID DUP15 AND DIV 0xA8 CODESIZE 0xD0 CALL 0xA9 0xB2 0xCD LOG1 0x4A MULMOD SWAP15 0x4C 0xEB ADDMOD 0xE9 PUSH7 0xCC6E05E8296F67 0xB0 0x2D PUSH2 0xA79F MULMOD LOG2 PUSH5 0x6970667358 0x22 SLT KECCAK256 0xAE XOR GASPRICE PUSH19 0xA859121B6651EF5C44DEBD10E3C811BC572B3D 0xBC BALANCE GASLIMIT NOT 0xB4 0xD9 0x4D DUP8 DUP2 PUSH5 0x736F6C6343 STOP ADDMOD GT STOP CALLER "
				},
				"gasEstimates": {
					"creation": {
						"codeDepositCost": "518200",
						"executionCost": "29790",
						"totalCost": "547990"
					},
					"external": {
						"add((uint256,uint256,string),bytes32)": "infinite",
						"at(uint256,bytes32)": "infinite",
						"destroy()": "29957",
						"edit(uint256,(uint256,uint256,string),bytes32)": "infinite",
						"getLength(bytes32)": "infinite",
						"owner()": "2346",
						"transferOwnership(address)": "28375"
					}
				},
				"methodIdentifiers": {
					"add((uint256,uint256,string),bytes32)": "2eb5444f",
					"at(uint256,bytes32)": "c78a6741",
					"destroy()": "83197ef0",
					"edit(uint256,(uint256,uint256,string),bytes32)": "cfbca46c",
					"getLength(bytes32)": "fd82e9dd",
					"owner()": "8da5cb5b",
					"transferOwnership(address)": "f2fde38b"
				}
			},
			"storageLayout": {
				"storage": [
					{
						"astId": 4,
						"contract": "database/employee/cv/ListCV.sol:ListCV",
						"label": "_owner",
						"offset": 0,
						"slot": "0",
						"type": "t_address"
					},
					{
						"astId": 1145,
						"contract": "database/employee/cv/ListCV.sol:ListCV",
						"label": "list",
						"offset": 0,
						"slot": "1",
						"type": "t_mapping(t_uint256,t_struct(CV)1412_storage)"
					},
					{
						"astId": 1148,
						"contract": "database/employee/cv/ListCV.sol:ListCV",
						"label": "autoIncrement",
						"offset": 0,
						"slot": "2",
						"type": "t_uint256"
					}
				],
				"types": {
					"t_address": {
						"encoding": "inplace",
						"label": "address",
						"numberOfBytes": "20"
					},
					"t_mapping(t_uint256,t_struct(CV)1412_storage)": {
						"encoding": "mapping",
						"key": "t_uint256",
						"label": "mapping(uint256 => struct CV)",
						"numberOfBytes": "32",
						"value": "t_struct(CV)1412_storage"
					},
					"t_string_storage": {
						"encoding": "bytes",
						"label": "string",
						"numberOfBytes": "32"
					},
					"t_struct(CV)1412_storage": {
						"encoding": "inplace",
						"label": "struct CV",
						"members": [
							{
								"astId": 1407,
								"contract": "database/employee/cv/ListCV.sol:ListCV",
								"label": "employeeId",
								"offset": 0,
								"slot": "0",
								"type": "t_uint256"
							},
							{
								"astId": 1409,
								"contract": "database/employee/cv/ListCV.sol:ListCV",
								"label": "cvId",
								"offset": 0,
								"slot": "1",
								"type": "t_uint256"
							},
							{
								"astId": 1411,
								"contract": "database/employee/cv/ListCV.sol:ListCV",
								"label": "data",
								"offset": 0,
								"slot": "2",
								"type": "t_string_storage"
							}
						],
						"numberOfBytes": "96"
					},
					"t_uint256": {
						"encoding": "inplace",
						"label": "uint256",
						"numberOfBytes": "32"
					}
				}
			},
			"userdoc": {
				"kind": "user",
				"methods": {},
				"version": 1
			}
		}
	}
}