{
	"controller/employee/cv/CVController.sol": {
		"CVController": {
			"abi": [
				{
					"inputs": [
						{
							"internalType": "address",
							"name": "listEmployeeAddress",
							"type": "address"
						},
						{
							"internalType": "address",
							"name": "listCVAddress",
							"type": "address"
						}
					],
					"stateMutability": "nonpayable",
					"type": "constructor"
				},
				{
					"anonymous": false,
					"inputs": [
						{
							"indexed": true,
							"internalType": "address",
							"name": "previousOwner",
							"type": "address"
						},
						{
							"indexed": true,
							"internalType": "address",
							"name": "newOwner",
							"type": "address"
						}
					],
					"name": "OwnershipTransferred",
					"type": "event"
				},
				{
					"inputs": [],
					"name": "_checkExistEmployeeAccount",
					"outputs": [
						{
							"internalType": "bool",
							"name": "",
							"type": "bool"
						}
					],
					"stateMutability": "view",
					"type": "function"
				},
				{
					"inputs": [
						{
							"internalType": "uint256",
							"name": "employeeId",
							"type": "uint256"
						},
						{
							"internalType": "string",
							"name": "data",
							"type": "string"
						}
					],
					"name": "addCV",
					"outputs": [
						{
							"internalType": "bool",
							"name": "",
							"type": "bool"
						}
					],
					"stateMutability": "nonpayable",
					"type": "function"
				},
				{
					"inputs": [],
					"name": "destroy",
					"outputs": [],
					"stateMutability": "nonpayable",
					"type": "function"
				},
				{
					"inputs": [
						{
							"internalType": "uint256",
							"name": "employeeId",
							"type": "uint256"
						}
					],
					"name": "getListCVByEmployeeId",
					"outputs": [
						{
							"components": [
								{
									"internalType": "uint256",
									"name": "employeeId",
									"type": "uint256"
								},
								{
									"internalType": "uint256",
									"name": "cvId",
									"type": "uint256"
								},
								{
									"internalType": "uint256",
									"name": "time",
									"type": "uint256"
								},
								{
									"internalType": "string",
									"name": "data",
									"type": "string"
								}
							],
							"internalType": "struct CV[]",
							"name": "",
							"type": "tuple[]"
						}
					],
					"stateMutability": "view",
					"type": "function"
				},
				{
					"inputs": [],
					"name": "owner",
					"outputs": [
						{
							"internalType": "address",
							"name": "",
							"type": "address"
						}
					],
					"stateMutability": "view",
					"type": "function"
				},
				{
					"inputs": [
						{
							"internalType": "address",
							"name": "newOwner",
							"type": "address"
						}
					],
					"name": "transferOwnership",
					"outputs": [],
					"stateMutability": "nonpayable",
					"type": "function"
				}
			],
			"devdoc": {
				"kind": "dev",
				"methods": {
					"owner()": {
						"details": "Returns the address of the current owner."
					},
					"transferOwnership(address)": {
						"details": "Transfers ownership of the contract to a new account (`newOwner`). Can only be called by the current owner."
					}
				},
				"version": 1
			},
			"evm": {
				"assembly": "    /* \"controller/employee/cv/CVController.sol\":394:1744  contract CVController is Ownable, ListEmployeeCursor, ListCVCursor {... */\n  mstore(0x40, 0x80)\n    /* \"controller/employee/cv/CVController.sol\":467:639  constructor(address listEmployeeAddress, address listCVAddress)... */\n  callvalue\n  dup1\n  iszero\n  tag_1\n  jumpi\n  0x00\n  dup1\n  revert\ntag_1:\n  pop\n  mload(0x40)\n  sub(codesize, bytecodeSize)\n  dup1\n  bytecodeSize\n  dup4\n  codecopy\n  dup2\n  add\n  0x40\n  dup2\n  swap1\n  mstore\n  tag_2\n  swap2\n  tag_3\n  jump\t// in\ntag_2:\n    /* \"abstract/Ownable.sol\":923:929  _owner */\n  0x00\n    /* \"abstract/Ownable.sol\":923:942  _owner = msg.sender */\n  dup1\n  sload\n    /* \"abstract/Ownable.sol\":932:942  msg.sender */\n  caller\n  not(sub(shl(0xa0, 0x01), 0x01))\n    /* \"abstract/Ownable.sol\":923:942  _owner = msg.sender */\n  swap2\n  dup3\n  and\n  or\n  swap1\n  swap2\n  sstore\n    /* \"cursor/ListEmployeeCursor.sol\":413:432  listEmployeeAddress */\n  0x02\n    /* \"cursor/ListEmployeeCursor.sol\":413:440  listEmployeeAddress = value */\n  dup1\n  sload\n  dup3\n  and\n  sub(shl(0xa0, 0x01), 0x01)\n  swap5\n  dup6\n  and\n  swap1\n  dup2\n  or\n  swap1\n  swap2\n  sstore\n  0x01\n    /* \"cursor/ListEmployeeCursor.sol\":450:490  listEmployeeCursor = ListEmployee(value) */\n  dup1\n  sload\n  dup4\n  and\n  swap1\n  swap2\n  or\n  swap1\n  sstore\n    /* \"cursor/employee/cv/ListCVCursor.sol\":337:350  listCVAddress */\n  0x04\n    /* \"cursor/employee/cv/ListCVCursor.sol\":337:358  listCVAddress = value */\n  dup1\n  sload\n  dup3\n  and\n  swap3\n  swap1\n  swap4\n  and\n  swap2\n  dup3\n  or\n  swap1\n  swap3\n  sstore\n    /* \"cursor/employee/cv/ListCVCursor.sol\":368:380  listCVCursor */\n  0x03\n    /* \"cursor/employee/cv/ListCVCursor.sol\":368:396  listCVCursor = ListCV(value) */\n  dup1\n  sload\n  swap1\n  swap3\n  and\n  or\n  swap1\n  sstore\n    /* \"controller/employee/cv/CVController.sol\":394:1744  contract CVController is Ownable, ListEmployeeCursor, ListCVCursor {... */\n  jump(tag_14)\n    /* \"#utility.yul\":14:191   */\ntag_13:\n    /* \"#utility.yul\":93:106   */\n  dup1\n  mload\n  sub(shl(0xa0, 0x01), 0x01)\n    /* \"#utility.yul\":135:166   */\n  dup2\n  and\n    /* \"#utility.yul\":125:167   */\n  dup2\n  eq\n    /* \"#utility.yul\":115:185   */\n  tag_16\n  jumpi\n    /* \"#utility.yul\":181:182   */\n  0x00\n    /* \"#utility.yul\":178:179   */\n  dup1\n    /* \"#utility.yul\":171:183   */\n  revert\n    /* \"#utility.yul\":115:185   */\ntag_16:\n    /* \"#utility.yul\":14:191   */\n  swap2\n  swap1\n  pop\n  jump\t// out\n    /* \"#utility.yul\":196:489   */\ntag_3:\n    /* \"#utility.yul\":275:281   */\n  0x00\n    /* \"#utility.yul\":283:289   */\n  dup1\n    /* \"#utility.yul\":336:338   */\n  0x40\n    /* \"#utility.yul\":324:333   */\n  dup4\n    /* \"#utility.yul\":315:322   */\n  dup6\n    /* \"#utility.yul\":311:334   */\n  sub\n    /* \"#utility.yul\":307:339   */\n  slt\n    /* \"#utility.yul\":304:356   */\n  iszero\n  tag_18\n  jumpi\n    /* \"#utility.yul\":352:353   */\n  0x00\n    /* \"#utility.yul\":349:350   */\n  dup1\n    /* \"#utility.yul\":342:354   */\n  revert\n    /* \"#utility.yul\":304:356   */\ntag_18:\n    /* \"#utility.yul\":375:415   */\n  tag_19\n    /* \"#utility.yul\":405:414   */\n  dup4\n    /* \"#utility.yul\":375:415   */\n  tag_13\n  jump\t// in\ntag_19:\n    /* \"#utility.yul\":365:415   */\n  swap2\n  pop\n    /* \"#utility.yul\":434:483   */\n  tag_20\n    /* \"#utility.yul\":479:481   */\n  0x20\n    /* \"#utility.yul\":468:477   */\n  dup5\n    /* \"#utility.yul\":464:482   */\n  add\n    /* \"#utility.yul\":434:483   */\n  tag_13\n  jump\t// in\ntag_20:\n    /* \"#utility.yul\":424:483   */\n  swap1\n  pop\n    /* \"#utility.yul\":196:489   */\n  swap3\n  pop\n  swap3\n  swap1\n  pop\n  jump\t// out\ntag_14:\n    /* \"controller/employee/cv/CVController.sol\":394:1744  contract CVController is Ownable, ListEmployeeCursor, ListCVCursor {... */\n  dataSize(sub_0)\n  dup1\n  dataOffset(sub_0)\n  0x00\n  codecopy\n  0x00\n  return\nstop\n\nsub_0: assembly {\n        /* \"controller/employee/cv/CVController.sol\":394:1744  contract CVController is Ownable, ListEmployeeCursor, ListCVCursor {... */\n      mstore(0x40, 0x80)\n      callvalue\n      dup1\n      iszero\n      tag_1\n      jumpi\n      0x00\n      dup1\n      revert\n    tag_1:\n      pop\n      jumpi(tag_2, lt(calldatasize, 0x04))\n      shr(0xe0, calldataload(0x00))\n      dup1\n      0x83197ef0\n      eq\n      tag_3\n      jumpi\n      dup1\n      0x8423f1b1\n      eq\n      tag_4\n      jumpi\n      dup1\n      0x8da5cb5b\n      eq\n      tag_5\n      jumpi\n      dup1\n      0xec40a59b\n      eq\n      tag_6\n      jumpi\n      dup1\n      0xf2fde38b\n      eq\n      tag_7\n      jumpi\n      dup1\n      0xffc1e78a\n      eq\n      tag_8\n      jumpi\n    tag_2:\n      0x00\n      dup1\n      revert\n        /* \"abstract/Ownable.sol\":2642:2731  function destroy() public onlyOwner {... */\n    tag_3:\n      tag_9\n      tag_10\n      jump\t// in\n    tag_9:\n      stop\n        /* \"controller/employee/cv/CVController.sol\":932:1742  function getListCVByEmployeeId(uint256 employeeId)... */\n    tag_4:\n      tag_11\n      tag_12\n      calldatasize\n      0x04\n      tag_13\n      jump\t// in\n    tag_12:\n      tag_14\n      jump\t// in\n    tag_11:\n      mload(0x40)\n      tag_15\n      swap2\n      swap1\n      tag_16\n      jump\t// in\n    tag_15:\n      mload(0x40)\n      dup1\n      swap2\n      sub\n      swap1\n      return\n        /* \"abstract/Ownable.sol\":1175:1260  function owner() public view virtual returns (address) {... */\n    tag_5:\n        /* \"abstract/Ownable.sol\":1221:1228  address */\n      0x00\n        /* \"abstract/Ownable.sol\":1247:1253  _owner */\n      sload\n        /* \"abstract/Ownable.sol\":1175:1260  function owner() public view virtual returns (address) {... */\n      mload(0x40)\n      sub(shl(0xa0, 0x01), 0x01)\n        /* \"abstract/Ownable.sol\":1247:1253  _owner */\n      swap1\n      swap2\n      and\n        /* \"#utility.yul\":1968:2019   */\n      dup2\n      mstore\n        /* \"#utility.yul\":1956:1958   */\n      0x20\n        /* \"#utility.yul\":1941:1959   */\n      add\n        /* \"abstract/Ownable.sol\":1175:1260  function owner() public view virtual returns (address) {... */\n      tag_15\n        /* \"#utility.yul\":1822:2025   */\n      jump\n        /* \"cursor/ListEmployeeCursor.sol\":1429:1673  function _checkExistEmployeeAccount() public view returns (bool) {... */\n    tag_6:\n      tag_21\n      tag_22\n      jump\t// in\n    tag_21:\n      mload(0x40)\n        /* \"#utility.yul\":2195:2209   */\n      swap1\n      iszero\n        /* \"#utility.yul\":2188:2210   */\n      iszero\n        /* \"#utility.yul\":2170:2211   */\n      dup2\n      mstore\n        /* \"#utility.yul\":2158:2160   */\n      0x20\n        /* \"#utility.yul\":2143:2161   */\n      add\n        /* \"cursor/ListEmployeeCursor.sol\":1429:1673  function _checkExistEmployeeAccount() public view returns (bool) {... */\n      tag_15\n        /* \"#utility.yul\":2030:2217   */\n      jump\n        /* \"abstract/Ownable.sol\":2063:2295  function transferOwnership(address newOwner) public virtual onlyOwner {... */\n    tag_7:\n      tag_9\n      tag_26\n      calldatasize\n      0x04\n      tag_27\n      jump\t// in\n    tag_26:\n      tag_28\n      jump\t// in\n        /* \"controller/employee/cv/CVController.sol\":645:926  function addCV(uint256 employeeId, string memory data)... */\n    tag_8:\n      tag_21\n      tag_30\n      calldatasize\n      0x04\n      tag_31\n      jump\t// in\n    tag_30:\n      tag_32\n      jump\t// in\n        /* \"abstract/Ownable.sol\":2642:2731  function destroy() public onlyOwner {... */\n    tag_10:\n        /* \"abstract/Ownable.sol\":1068:1081  _checkOwner() */\n      tag_35\n        /* \"abstract/Ownable.sol\":1068:1079  _checkOwner */\n      tag_36\n        /* \"abstract/Ownable.sol\":1068:1081  _checkOwner() */\n      jump\t// in\n    tag_35:\n        /* \"abstract/Ownable.sol\":2717:2721  this */\n      address\n        /* \"abstract/Ownable.sol\":2688:2724  selfdestruct(payable(address(this))) */\n      selfdestruct\n        /* \"controller/employee/cv/CVController.sol\":932:1742  function getListCVByEmployeeId(uint256 employeeId)... */\n    tag_14:\n        /* \"controller/employee/cv/CVController.sol\":1028:1039  CV[] memory */\n      0x60\n        /* \"controller/employee/cv/CVController.sol\":1055:1069  uint256 length */\n      0x00\n        /* \"controller/employee/cv/CVController.sol\":1113:1114  1 */\n      0x01\n        /* \"controller/employee/cv/CVController.sol\":1083:1321  for (... */\n    tag_39:\n        /* \"cursor/employee/cv/ListCVCursor.sol\":1005:1017  listCVCursor */\n      and(sub(shl(0xa0, 0x01), 0x01), sload(0x03))\n        /* \"controller/employee/cv/CVController.sol\":1133:1175  _getListCVCursor().getLength(DATABASE_KEY) */\n      mload(0x40)\n      shl(0xe0, 0xfd82e9dd)\n      dup2\n      mstore\n      0x00\n      dup1\n      mload\n      0x20\n      data_98ee57057fe0a523e70b51608fd55a37ff53d47c3b8dac495a5f45d45157392f\n      dup4\n      codecopy\n      dup2\n      mload\n      swap2\n      mstore\n      0x04\n      dup3\n      add\n        /* \"#utility.yul\":4366:4391   */\n      mstore\n      sub(shl(0xa0, 0x01), 0x01)\n        /* \"controller/employee/cv/CVController.sol\":1133:1161  _getListCVCursor().getLength */\n      swap2\n      swap1\n      swap2\n      and\n      swap1\n      0xfd82e9dd\n      swap1\n        /* \"#utility.yul\":4339:4357   */\n      0x24\n      add\n        /* \"controller/employee/cv/CVController.sol\":1133:1175  _getListCVCursor().getLength(DATABASE_KEY) */\n      0x20\n      mload(0x40)\n      dup1\n      dup4\n      sub\n      dup2\n      dup7\n      gas\n      staticcall\n      iszero\n      dup1\n      iszero\n      tag_47\n      jumpi\n      returndatasize\n      0x00\n      dup1\n      returndatacopy\n      revert(0x00, returndatasize)\n    tag_47:\n      pop\n      pop\n      pop\n      pop\n      mload(0x40)\n      returndatasize\n      not(0x1f)\n      0x1f\n      dup3\n      add\n      and\n      dup3\n      add\n      dup1\n      0x40\n      mstore\n      pop\n      dup2\n      add\n      swap1\n      tag_48\n      swap2\n      swap1\n      tag_49\n      jump\t// in\n    tag_48:\n        /* \"controller/employee/cv/CVController.sol\":1128:1129  i */\n      dup2\n        /* \"controller/employee/cv/CVController.sol\":1128:1175  i <= _getListCVCursor().getLength(DATABASE_KEY) */\n      gt\n        /* \"controller/employee/cv/CVController.sol\":1083:1321  for (... */\n      tag_40\n      jumpi\n        /* \"controller/employee/cv/CVController.sol\":1274:1284  employeeId */\n      dup4\n        /* \"controller/employee/cv/CVController.sol\":1221:1239  _getListCVCursor() */\n      tag_50\n        /* \"cursor/employee/cv/ListCVCursor.sol\":1005:1017  listCVCursor */\n      and(sub(shl(0xa0, 0x01), 0x01), sload(0x03))\n      swap1\n        /* \"cursor/employee/cv/ListCVCursor.sol\":929:1024  function _getListCVCursor() internal view returns (ListCV) {... */\n      jump\n        /* \"controller/employee/cv/CVController.sol\":1221:1239  _getListCVCursor() */\n    tag_50:\n        /* \"controller/employee/cv/CVController.sol\":1221:1259  _getListCVCursor().at(i, DATABASE_KEY) */\n      mload(0x40)\n      shl(0xe0, 0xc78a6741)\n      dup2\n      mstore\n      0x04\n      dup2\n      add\n        /* \"#utility.yul\":4765:4790   */\n      dup5\n      swap1\n      mstore\n      0x00\n      dup1\n      mload\n      0x20\n      data_98ee57057fe0a523e70b51608fd55a37ff53d47c3b8dac495a5f45d45157392f\n      dup4\n      codecopy\n      dup2\n      mload\n      swap2\n      mstore\n        /* \"#utility.yul\":4806:4824   */\n      0x24\n      dup3\n      add\n        /* \"#utility.yul\":4799:4833   */\n      mstore\n      sub(shl(0xa0, 0x01), 0x01)\n        /* \"controller/employee/cv/CVController.sol\":1221:1242  _getListCVCursor().at */\n      swap2\n      swap1\n      swap2\n      and\n      swap1\n      0xc78a6741\n      swap1\n        /* \"#utility.yul\":4738:4756   */\n      0x44\n      add\n        /* \"controller/employee/cv/CVController.sol\":1221:1259  _getListCVCursor().at(i, DATABASE_KEY) */\n      0x00\n      mload(0x40)\n      dup1\n      dup4\n      sub\n      dup2\n      dup7\n      gas\n      staticcall\n      iszero\n      dup1\n      iszero\n      tag_54\n      jumpi\n      returndatasize\n      0x00\n      dup1\n      returndatacopy\n      revert(0x00, returndatasize)\n    tag_54:\n      pop\n      pop\n      pop\n      pop\n      mload(0x40)\n      returndatasize\n      0x00\n      dup3\n      returndatacopy\n      0x1f\n      returndatasize\n      swap1\n      dup2\n      add\n      not(0x1f)\n      and\n      dup3\n      add\n      0x40\n      mstore\n      tag_55\n      swap2\n      swap1\n      dup2\n      add\n      swap1\n      tag_56\n      jump\t// in\n    tag_55:\n        /* \"controller/employee/cv/CVController.sol\":1221:1270  _getListCVCursor().at(i, DATABASE_KEY).employeeId */\n      mload\n        /* \"controller/employee/cv/CVController.sol\":1221:1284  _getListCVCursor().at(i, DATABASE_KEY).employeeId == employeeId */\n      sub\n        /* \"controller/employee/cv/CVController.sol\":1217:1310  if (_getListCVCursor().at(i, DATABASE_KEY).employeeId == employeeId)... */\n      tag_57\n      jumpi\n        /* \"controller/employee/cv/CVController.sol\":1302:1310  length++ */\n      dup2\n      tag_58\n      dup2\n      tag_59\n      jump\t// in\n    tag_58:\n      swap3\n      pop\n      pop\n        /* \"controller/employee/cv/CVController.sol\":1217:1310  if (_getListCVCursor().at(i, DATABASE_KEY).employeeId == employeeId)... */\n    tag_57:\n        /* \"controller/employee/cv/CVController.sol\":1189:1192  i++ */\n      dup1\n      tag_60\n      dup2\n      tag_59\n      jump\t// in\n    tag_60:\n      swap2\n      pop\n      pop\n        /* \"controller/employee/cv/CVController.sol\":1083:1321  for (... */\n      jump(tag_39)\n    tag_40:\n      pop\n        /* \"controller/employee/cv/CVController.sol\":1331:1347  CV[] memory list */\n      0x00\n        /* \"controller/employee/cv/CVController.sol\":1359:1365  length */\n      dup2\n        /* \"controller/employee/cv/CVController.sol\":1350:1366  new CV[](length) */\n      0xffffffffffffffff\n      dup2\n      gt\n      iszero\n      tag_62\n      jumpi\n      tag_62\n      tag_63\n      jump\t// in\n    tag_62:\n      mload(0x40)\n      swap1\n      dup1\n      dup3\n      mstore\n      dup1\n      0x20\n      mul\n      0x20\n      add\n      dup3\n      add\n      0x40\n      mstore\n      dup1\n      iszero\n      tag_64\n      jumpi\n      dup2\n      0x20\n      add\n    tag_65:\n      tag_66\n      mload(0x40)\n      dup1\n      0x80\n      add\n      0x40\n      mstore\n      dup1\n      0x00\n      dup2\n      mstore\n      0x20\n      add\n      0x00\n      dup2\n      mstore\n      0x20\n      add\n      0x00\n      dup2\n      mstore\n      0x20\n      add\n      0x60\n      dup2\n      mstore\n      pop\n      swap1\n      jump\n    tag_66:\n      dup2\n      mstore\n      0x20\n      add\n      swap1\n      0x01\n      swap1\n      sub\n      swap1\n      dup2\n      tag_65\n      jumpi\n      swap1\n      pop\n    tag_64:\n      pop\n        /* \"controller/employee/cv/CVController.sol\":1331:1366  CV[] memory list = new CV[](length) */\n      swap1\n      pop\n        /* \"controller/employee/cv/CVController.sol\":1376:1385  uint256 j */\n      0x00\n        /* \"controller/employee/cv/CVController.sol\":1429:1430  1 */\n      0x01\n        /* \"controller/employee/cv/CVController.sol\":1399:1715  for (... */\n    tag_68:\n        /* \"cursor/employee/cv/ListCVCursor.sol\":1005:1017  listCVCursor */\n      and(sub(shl(0xa0, 0x01), 0x01), sload(0x03))\n        /* \"controller/employee/cv/CVController.sol\":1449:1491  _getListCVCursor().getLength(DATABASE_KEY) */\n      mload(0x40)\n      shl(0xe0, 0xfd82e9dd)\n      dup2\n      mstore\n      0x00\n      dup1\n      mload\n      0x20\n      data_98ee57057fe0a523e70b51608fd55a37ff53d47c3b8dac495a5f45d45157392f\n      dup4\n      codecopy\n      dup2\n      mload\n      swap2\n      mstore\n      0x04\n      dup3\n      add\n        /* \"#utility.yul\":4366:4391   */\n      mstore\n      sub(shl(0xa0, 0x01), 0x01)\n        /* \"controller/employee/cv/CVController.sol\":1449:1477  _getListCVCursor().getLength */\n      swap2\n      swap1\n      swap2\n      and\n      swap1\n      0xfd82e9dd\n      swap1\n        /* \"#utility.yul\":4339:4357   */\n      0x24\n      add\n        /* \"controller/employee/cv/CVController.sol\":1449:1491  _getListCVCursor().getLength(DATABASE_KEY) */\n      0x20\n      mload(0x40)\n      dup1\n      dup4\n      sub\n      dup2\n      dup7\n      gas\n      staticcall\n      iszero\n      dup1\n      iszero\n      tag_74\n      jumpi\n      returndatasize\n      0x00\n      dup1\n      returndatacopy\n      revert(0x00, returndatasize)\n    tag_74:\n      pop\n      pop\n      pop\n      pop\n      mload(0x40)\n      returndatasize\n      not(0x1f)\n      0x1f\n      dup3\n      add\n      and\n      dup3\n      add\n      dup1\n      0x40\n      mstore\n      pop\n      dup2\n      add\n      swap1\n      tag_75\n      swap2\n      swap1\n      tag_49\n      jump\t// in\n    tag_75:\n        /* \"controller/employee/cv/CVController.sol\":1444:1445  i */\n      dup2\n        /* \"controller/employee/cv/CVController.sol\":1444:1491  i <= _getListCVCursor().getLength(DATABASE_KEY) */\n      gt\n        /* \"controller/employee/cv/CVController.sol\":1399:1715  for (... */\n      tag_69\n      jumpi\n        /* \"controller/employee/cv/CVController.sol\":1533:1547  CV memory item */\n      0x00\n        /* \"controller/employee/cv/CVController.sol\":1550:1568  _getListCVCursor() */\n      tag_76\n        /* \"cursor/employee/cv/ListCVCursor.sol\":1005:1017  listCVCursor */\n      and(sub(shl(0xa0, 0x01), 0x01), sload(0x03))\n      swap1\n        /* \"cursor/employee/cv/ListCVCursor.sol\":929:1024  function _getListCVCursor() internal view returns (ListCV) {... */\n      jump\n        /* \"controller/employee/cv/CVController.sol\":1550:1568  _getListCVCursor() */\n    tag_76:\n        /* \"controller/employee/cv/CVController.sol\":1550:1588  _getListCVCursor().at(i, DATABASE_KEY) */\n      mload(0x40)\n      shl(0xe0, 0xc78a6741)\n      dup2\n      mstore\n      0x04\n      dup2\n      add\n        /* \"#utility.yul\":4765:4790   */\n      dup5\n      swap1\n      mstore\n      0x00\n      dup1\n      mload\n      0x20\n      data_98ee57057fe0a523e70b51608fd55a37ff53d47c3b8dac495a5f45d45157392f\n      dup4\n      codecopy\n      dup2\n      mload\n      swap2\n      mstore\n        /* \"#utility.yul\":4806:4824   */\n      0x24\n      dup3\n      add\n        /* \"#utility.yul\":4799:4833   */\n      mstore\n      sub(shl(0xa0, 0x01), 0x01)\n        /* \"controller/employee/cv/CVController.sol\":1550:1571  _getListCVCursor().at */\n      swap2\n      swap1\n      swap2\n      and\n      swap1\n      0xc78a6741\n      swap1\n        /* \"#utility.yul\":4738:4756   */\n      0x44\n      add\n        /* \"controller/employee/cv/CVController.sol\":1550:1588  _getListCVCursor().at(i, DATABASE_KEY) */\n      0x00\n      mload(0x40)\n      dup1\n      dup4\n      sub\n      dup2\n      dup7\n      gas\n      staticcall\n      iszero\n      dup1\n      iszero\n      tag_79\n      jumpi\n      returndatasize\n      0x00\n      dup1\n      returndatacopy\n      revert(0x00, returndatasize)\n    tag_79:\n      pop\n      pop\n      pop\n      pop\n      mload(0x40)\n      returndatasize\n      0x00\n      dup3\n      returndatacopy\n      0x1f\n      returndatasize\n      swap1\n      dup2\n      add\n      not(0x1f)\n      and\n      dup3\n      add\n      0x40\n      mstore\n      tag_80\n      swap2\n      swap1\n      dup2\n      add\n      swap1\n      tag_56\n      jump\t// in\n    tag_80:\n        /* \"controller/employee/cv/CVController.sol\":1533:1588  CV memory item = _getListCVCursor().at(i, DATABASE_KEY) */\n      swap1\n      pop\n        /* \"controller/employee/cv/CVController.sol\":1625:1635  employeeId */\n      dup7\n        /* \"controller/employee/cv/CVController.sol\":1606:1610  item */\n      dup2\n        /* \"controller/employee/cv/CVController.sol\":1606:1621  item.employeeId */\n      0x00\n      add\n      mload\n        /* \"controller/employee/cv/CVController.sol\":1606:1635  item.employeeId == employeeId */\n      sub\n        /* \"controller/employee/cv/CVController.sol\":1602:1705  if (item.employeeId == employeeId) {... */\n      tag_81\n      jumpi\n        /* \"controller/employee/cv/CVController.sol\":1665:1669  item */\n      dup1\n        /* \"controller/employee/cv/CVController.sol\":1655:1659  list */\n      dup5\n        /* \"controller/employee/cv/CVController.sol\":1660:1661  j */\n      dup5\n        /* \"controller/employee/cv/CVController.sol\":1655:1662  list[j] */\n      dup2\n      mload\n      dup2\n      lt\n      tag_83\n      jumpi\n      tag_83\n      tag_84\n      jump\t// in\n    tag_83:\n      0x20\n      mul\n      0x20\n      add\n      add\n        /* \"controller/employee/cv/CVController.sol\":1655:1669  list[j] = item */\n      dup2\n      swap1\n      mstore\n      pop\n        /* \"controller/employee/cv/CVController.sol\":1687:1690  j++ */\n      dup3\n      dup1\n      tag_85\n      swap1\n      tag_59\n      jump\t// in\n    tag_85:\n      swap4\n      pop\n      pop\n        /* \"controller/employee/cv/CVController.sol\":1602:1705  if (item.employeeId == employeeId) {... */\n    tag_81:\n      pop\n        /* \"controller/employee/cv/CVController.sol\":1505:1508  i++ */\n      dup1\n      tag_86\n      dup2\n      tag_59\n      jump\t// in\n    tag_86:\n      swap2\n      pop\n      pop\n        /* \"controller/employee/cv/CVController.sol\":1399:1715  for (... */\n      jump(tag_68)\n    tag_69:\n      pop\n        /* \"controller/employee/cv/CVController.sol\":1731:1735  list */\n      swap1\n      swap5\n        /* \"controller/employee/cv/CVController.sol\":932:1742  function getListCVByEmployeeId(uint256 employeeId)... */\n      swap4\n      pop\n      pop\n      pop\n      pop\n      jump\t// out\n        /* \"cursor/ListEmployeeCursor.sol\":1429:1673  function _checkExistEmployeeAccount() public view returns (bool) {... */\n    tag_22:\n        /* \"cursor/ListEmployeeCursor.sol\":1517:1535  listEmployeeCursor */\n      sload(0x01)\n        /* \"cursor/ListEmployeeCursor.sol\":1517:1611  listEmployeeCursor.findIdByAddress(... */\n      mload(0x40)\n      shl(0xe0, 0xd32a04c7)\n      dup2\n      mstore\n        /* \"cursor/ListEmployeeCursor.sol\":1565:1575  msg.sender */\n      caller\n        /* \"cursor/ListEmployeeCursor.sol\":1517:1611  listEmployeeCursor.findIdByAddress(... */\n      0x04\n      dup3\n      add\n        /* \"#utility.yul\":6754:6805   */\n      mstore\n      0x00\n      dup1\n      mload\n      0x20\n      data_98ee57057fe0a523e70b51608fd55a37ff53d47c3b8dac495a5f45d45157392f\n      dup4\n      codecopy\n      dup2\n      mload\n      swap2\n      mstore\n        /* \"#utility.yul\":6821:6839   */\n      0x24\n      dup3\n      add\n        /* \"#utility.yul\":6814:6848   */\n      mstore\n        /* \"cursor/ListEmployeeCursor.sol\":1488:1492  bool */\n      0x00\n      swap2\n      dup3\n      swap2\n      sub(shl(0xa0, 0x01), 0x01)\n        /* \"cursor/ListEmployeeCursor.sol\":1517:1535  listEmployeeCursor */\n      swap1\n      swap2\n      and\n      swap1\n        /* \"cursor/ListEmployeeCursor.sol\":1517:1551  listEmployeeCursor.findIdByAddress */\n      0xd32a04c7\n      swap1\n        /* \"#utility.yul\":6727:6745   */\n      0x44\n      add\n        /* \"cursor/ListEmployeeCursor.sol\":1517:1611  listEmployeeCursor.findIdByAddress(... */\n      0x20\n      mload(0x40)\n      dup1\n      dup4\n      sub\n      dup2\n      dup7\n      gas\n      staticcall\n      iszero\n      dup1\n      iszero\n      tag_92\n      jumpi\n      returndatasize\n      0x00\n      dup1\n      returndatacopy\n      revert(0x00, returndatasize)\n    tag_92:\n      pop\n      pop\n      pop\n      pop\n      mload(0x40)\n      returndatasize\n      not(0x1f)\n      0x1f\n      dup3\n      add\n      and\n      dup3\n      add\n      dup1\n      0x40\n      mstore\n      pop\n      dup2\n      add\n      swap1\n      tag_93\n      swap2\n      swap1\n      tag_49\n      jump\t// in\n    tag_93:\n        /* \"cursor/ListEmployeeCursor.sol\":1504:1611  uint256 id = listEmployeeCursor.findIdByAddress(... */\n      swap1\n      pop\n        /* \"cursor/ListEmployeeCursor.sol\":1625:1631  id > 0 */\n      dup1\n      iszero\n        /* \"cursor/ListEmployeeCursor.sol\":1621:1644  if (id > 0) return true */\n      tag_94\n      jumpi\n        /* \"cursor/ListEmployeeCursor.sol\":1640:1644  true */\n      0x01\n        /* \"cursor/ListEmployeeCursor.sol\":1633:1644  return true */\n      swap2\n      pop\n      pop\n        /* \"cursor/ListEmployeeCursor.sol\":1429:1673  function _checkExistEmployeeAccount() public view returns (bool) {... */\n      swap1\n      jump\t// out\n        /* \"cursor/ListEmployeeCursor.sol\":1621:1644  if (id > 0) return true */\n    tag_94:\n        /* \"cursor/ListEmployeeCursor.sol\":1661:1666  false */\n      0x00\n        /* \"cursor/ListEmployeeCursor.sol\":1654:1666  return false */\n      swap2\n      pop\n      pop\n        /* \"cursor/ListEmployeeCursor.sol\":1429:1673  function _checkExistEmployeeAccount() public view returns (bool) {... */\n      swap1\n      jump\t// out\n        /* \"abstract/Ownable.sol\":2063:2295  function transferOwnership(address newOwner) public virtual onlyOwner {... */\n    tag_28:\n        /* \"abstract/Ownable.sol\":1068:1081  _checkOwner() */\n      tag_96\n        /* \"abstract/Ownable.sol\":1068:1079  _checkOwner */\n      tag_36\n        /* \"abstract/Ownable.sol\":1068:1081  _checkOwner() */\n      jump\t// in\n    tag_96:\n      sub(shl(0xa0, 0x01), 0x01)\n        /* \"abstract/Ownable.sol\":2164:2186  newOwner != address(0) */\n      dup2\n      and\n        /* \"abstract/Ownable.sol\":2143:2250  require(... */\n      tag_98\n      jumpi\n      mload(0x40)\n      shl(0xe5, 0x461bcd)\n      dup2\n      mstore\n        /* \"#utility.yul\":7061:7063   */\n      0x20\n        /* \"abstract/Ownable.sol\":2143:2250  require(... */\n      0x04\n      dup3\n      add\n        /* \"#utility.yul\":7043:7064   */\n      mstore\n        /* \"#utility.yul\":7100:7102   */\n      0x26\n        /* \"#utility.yul\":7080:7098   */\n      0x24\n      dup3\n      add\n        /* \"#utility.yul\":7073:7103   */\n      mstore\n        /* \"#utility.yul\":7139:7173   */\n      0x4f776e61626c653a206e6577206f776e657220697320746865207a65726f2061\n        /* \"#utility.yul\":7119:7137   */\n      0x44\n      dup3\n      add\n        /* \"#utility.yul\":7112:7174   */\n      mstore\n      shl(0xd0, 0x646472657373)\n        /* \"#utility.yul\":7190:7208   */\n      0x64\n      dup3\n      add\n        /* \"#utility.yul\":7183:7219   */\n      mstore\n        /* \"#utility.yul\":7236:7255   */\n      0x84\n      add\n        /* \"abstract/Ownable.sol\":2143:2250  require(... */\n    tag_99:\n      mload(0x40)\n      dup1\n      swap2\n      sub\n      swap1\n      revert\n    tag_98:\n        /* \"abstract/Ownable.sol\":2260:2288  _transferOwnership(newOwner) */\n      tag_101\n        /* \"abstract/Ownable.sol\":2279:2287  newOwner */\n      dup2\n        /* \"abstract/Ownable.sol\":2260:2278  _transferOwnership */\n      tag_102\n        /* \"abstract/Ownable.sol\":2260:2288  _transferOwnership(newOwner) */\n      jump\t// in\n    tag_101:\n        /* \"abstract/Ownable.sol\":2063:2295  function transferOwnership(address newOwner) public virtual onlyOwner {... */\n      pop\n      jump\t// out\n        /* \"controller/employee/cv/CVController.sol\":645:926  function addCV(uint256 employeeId, string memory data)... */\n    tag_32:\n        /* \"controller/employee/cv/CVController.sol\":783:787  bool */\n      0x00\n        /* \"controller/employee/cv/CVController.sol\":754:764  employeeId */\n      dup3\n        /* \"cursor/ListEmployeeCursor.sol\":795:823  _checkExistEmployeeAccount() */\n      tag_104\n        /* \"cursor/ListEmployeeCursor.sol\":795:821  _checkExistEmployeeAccount */\n      tag_22\n        /* \"cursor/ListEmployeeCursor.sol\":795:823  _checkExistEmployeeAccount() */\n      jump\t// in\n    tag_104:\n        /* \"cursor/ListEmployeeCursor.sol\":774:903  require(... */\n      tag_105\n      jumpi\n      mload(0x40)\n      shl(0xe5, 0x461bcd)\n      dup2\n      mstore\n        /* \"#utility.yul\":7468:7470   */\n      0x20\n        /* \"cursor/ListEmployeeCursor.sol\":774:903  require(... */\n      0x04\n      dup3\n      add\n        /* \"#utility.yul\":7450:7471   */\n      mstore\n        /* \"#utility.yul\":7507:7509   */\n      0x36\n        /* \"#utility.yul\":7487:7505   */\n      0x24\n      dup3\n      add\n        /* \"#utility.yul\":7480:7510   */\n      mstore\n        /* \"#utility.yul\":7546:7580   */\n      0x4c697374456d706c6f796565437572736f723a2041646472657373206e6f7420\n        /* \"#utility.yul\":7526:7544   */\n      0x44\n      dup3\n      add\n        /* \"#utility.yul\":7519:7581   */\n      mstore\n      shl(0x52, 0x18995b1bdb99dcc81d1bc81d1a19481858d8dbdd5b9d)\n        /* \"#utility.yul\":7597:7615   */\n      0x64\n      dup3\n      add\n        /* \"#utility.yul\":7590:7642   */\n      mstore\n        /* \"#utility.yul\":7659:7678   */\n      0x84\n      add\n        /* \"cursor/ListEmployeeCursor.sol\":774:903  require(... */\n      tag_99\n        /* \"#utility.yul\":7266:7684   */\n      jump\n        /* \"cursor/ListEmployeeCursor.sol\":774:903  require(... */\n    tag_105:\n        /* \"cursor/ListEmployeeCursor.sol\":934:970  _checkEmployeeIdBelongstoAddress(id) */\n      tag_108\n        /* \"cursor/ListEmployeeCursor.sol\":967:969  id */\n      dup2\n        /* \"cursor/ListEmployeeCursor.sol\":934:966  _checkEmployeeIdBelongstoAddress */\n      tag_109\n        /* \"cursor/ListEmployeeCursor.sol\":934:970  _checkEmployeeIdBelongstoAddress(id) */\n      jump\t// in\n    tag_108:\n        /* \"cursor/ListEmployeeCursor.sol\":913:1043  require(... */\n      tag_110\n      jumpi\n      mload(0x40)\n      shl(0xe5, 0x461bcd)\n      dup2\n      mstore\n        /* \"#utility.yul\":7891:7893   */\n      0x20\n        /* \"cursor/ListEmployeeCursor.sol\":913:1043  require(... */\n      0x04\n      dup3\n      add\n        /* \"#utility.yul\":7873:7894   */\n      mstore\n        /* \"#utility.yul\":7930:7932   */\n      0x2f\n        /* \"#utility.yul\":7910:7928   */\n      0x24\n      dup3\n      add\n        /* \"#utility.yul\":7903:7933   */\n      mstore\n        /* \"#utility.yul\":7969:8003   */\n      0x4c697374456d706c6f796565437572736f723a206964206973206e6f74206265\n        /* \"#utility.yul\":7949:7967   */\n      0x44\n      dup3\n      add\n        /* \"#utility.yul\":7942:8004   */\n      mstore\n      shl(0x88, 0x6c6f6e6720746f2061646472657373)\n        /* \"#utility.yul\":8020:8038   */\n      0x64\n      dup3\n      add\n        /* \"#utility.yul\":8013:8058   */\n      mstore\n        /* \"#utility.yul\":8075:8094   */\n      0x84\n      add\n        /* \"cursor/ListEmployeeCursor.sol\":913:1043  require(... */\n      tag_99\n        /* \"#utility.yul\":7689:8100   */\n      jump\n        /* \"cursor/ListEmployeeCursor.sol\":913:1043  require(... */\n    tag_110:\n        /* \"controller/employee/cv/CVController.sol\":820:860  CV(employeeId, 0, block.timestamp, data) */\n      0x40\n      dup1\n      mload\n      0x80\n      dup2\n      add\n      dup3\n      mstore\n      dup6\n      dup2\n      mstore\n      0x00\n      0x20\n      dup3\n      add\n      mstore\n        /* \"controller/employee/cv/CVController.sol\":838:853  block.timestamp */\n      timestamp\n        /* \"controller/employee/cv/CVController.sol\":820:860  CV(employeeId, 0, block.timestamp, data) */\n      dup2\n      dup4\n      add\n      mstore\n      0x60\n      dup2\n      add\n      dup6\n      swap1\n      mstore\n        /* \"cursor/employee/cv/ListCVCursor.sol\":1005:1017  listCVCursor */\n      sload(0x03)\n        /* \"controller/employee/cv/CVController.sol\":877:919  _getListCVCursor().add(item, DATABASE_KEY) */\n      swap2\n      mload\n      shl(0xe0, 0xc1444e69)\n      dup2\n      mstore\n        /* \"controller/employee/cv/CVController.sol\":820:860  CV(employeeId, 0, block.timestamp, data) */\n      swap1\n      swap2\n      sub(shl(0xa0, 0x01), 0x01)\n        /* \"cursor/employee/cv/ListCVCursor.sol\":1005:1017  listCVCursor */\n      and\n      swap1\n        /* \"controller/employee/cv/CVController.sol\":877:899  _getListCVCursor().add */\n      0xc1444e69\n      swap1\n        /* \"controller/employee/cv/CVController.sol\":877:919  _getListCVCursor().add(item, DATABASE_KEY) */\n      tag_115\n      swap1\n        /* \"controller/employee/cv/CVController.sol\":820:860  CV(employeeId, 0, block.timestamp, data) */\n      dup5\n      swap1\n      0x00\n      dup1\n      mload\n      0x20\n      data_98ee57057fe0a523e70b51608fd55a37ff53d47c3b8dac495a5f45d45157392f\n      dup4\n      codecopy\n      dup2\n      mload\n      swap2\n      mstore\n        /* \"constant/SecretKey.sol\":232:298  0x8e1604a838d0f1a9b2cda14a099e4ceb08e966cc6e05e8296f67b02d61a79f09 */\n      swap1\n        /* \"controller/employee/cv/CVController.sol\":877:919  _getListCVCursor().add(item, DATABASE_KEY) */\n      0x04\n      add\n      tag_116\n      jump\t// in\n    tag_115:\n      0x20\n      mload(0x40)\n      dup1\n      dup4\n      sub\n      dup2\n      0x00\n      dup8\n      gas\n      call\n      iszero\n      dup1\n      iszero\n      tag_118\n      jumpi\n      returndatasize\n      0x00\n      dup1\n      returndatacopy\n      revert(0x00, returndatasize)\n    tag_118:\n      pop\n      pop\n      pop\n      pop\n      mload(0x40)\n      returndatasize\n      not(0x1f)\n      0x1f\n      dup3\n      add\n      and\n      dup3\n      add\n      dup1\n      0x40\n      mstore\n      pop\n      dup2\n      add\n      swap1\n      tag_119\n      swap2\n      swap1\n      tag_120\n      jump\t// in\n    tag_119:\n        /* \"controller/employee/cv/CVController.sol\":870:919  return _getListCVCursor().add(item, DATABASE_KEY) */\n      swap6\n        /* \"controller/employee/cv/CVController.sol\":645:926  function addCV(uint256 employeeId, string memory data)... */\n      swap5\n      pop\n      pop\n      pop\n      pop\n      pop\n      jump\t// out\n        /* \"abstract/Ownable.sol\":1333:1461  function _checkOwner() internal view virtual {... */\n    tag_36:\n        /* \"abstract/Ownable.sol\":1407:1417  msg.sender */\n      caller\n        /* \"abstract/Ownable.sol\":1396:1403  owner() */\n      tag_122\n        /* \"abstract/Ownable.sol\":1221:1228  address */\n      0x00\n        /* \"abstract/Ownable.sol\":1247:1253  _owner */\n      sload\n      sub(shl(0xa0, 0x01), 0x01)\n      and\n      swap1\n        /* \"abstract/Ownable.sol\":1175:1260  function owner() public view virtual returns (address) {... */\n      jump\n        /* \"abstract/Ownable.sol\":1396:1403  owner() */\n    tag_122:\n      sub(shl(0xa0, 0x01), 0x01)\n        /* \"abstract/Ownable.sol\":1396:1417  owner() == msg.sender */\n      and\n      eq\n        /* \"abstract/Ownable.sol\":1388:1454  require(owner() == msg.sender, \"Ownable: caller is not the owner\") */\n      tag_123\n      jumpi\n      mload(0x40)\n      shl(0xe5, 0x461bcd)\n      dup2\n      mstore\n        /* \"#utility.yul\":8908:8910   */\n      0x20\n        /* \"abstract/Ownable.sol\":1388:1454  require(owner() == msg.sender, \"Ownable: caller is not the owner\") */\n      0x04\n      dup3\n      add\n        /* \"#utility.yul\":8890:8911   */\n      dup2\n      swap1\n      mstore\n        /* \"#utility.yul\":8927:8945   */\n      0x24\n      dup3\n      add\n        /* \"#utility.yul\":8920:8950   */\n      mstore\n        /* \"#utility.yul\":8986:9020   */\n      0x4f776e61626c653a2063616c6c6572206973206e6f7420746865206f776e6572\n        /* \"#utility.yul\":8966:8984   */\n      0x44\n      dup3\n      add\n        /* \"#utility.yul\":8959:9021   */\n      mstore\n        /* \"#utility.yul\":9038:9056   */\n      0x64\n      add\n        /* \"abstract/Ownable.sol\":1388:1454  require(owner() == msg.sender, \"Ownable: caller is not the owner\") */\n      tag_99\n        /* \"#utility.yul\":8706:9062   */\n      jump\n        /* \"abstract/Ownable.sol\":1388:1454  require(owner() == msg.sender, \"Ownable: caller is not the owner\") */\n    tag_123:\n        /* \"abstract/Ownable.sol\":1333:1461  function _checkOwner() internal view virtual {... */\n      jump\t// out\n        /* \"abstract/Ownable.sol\":2449:2636  function _transferOwnership(address newOwner) internal virtual {... */\n    tag_102:\n        /* \"abstract/Ownable.sol\":2522:2538  address oldOwner */\n      0x00\n        /* \"abstract/Ownable.sol\":2541:2547  _owner */\n      dup1\n      sload\n      sub(shl(0xa0, 0x01), 0x01)\n        /* \"abstract/Ownable.sol\":2557:2574  _owner = newOwner */\n      dup4\n      dup2\n      and\n      not(sub(shl(0xa0, 0x01), 0x01))\n      dup4\n      and\n      dup2\n      or\n      dup5\n      sstore\n        /* \"abstract/Ownable.sol\":2589:2629  OwnershipTransferred(oldOwner, newOwner) */\n      mload(0x40)\n        /* \"abstract/Ownable.sol\":2541:2547  _owner */\n      swap2\n      swap1\n      swap3\n      and\n      swap3\n      dup4\n      swap2\n        /* \"abstract/Ownable.sol\":2589:2629  OwnershipTransferred(oldOwner, newOwner) */\n      0x8be0079c531659141344cd1fd0a4f28419497f9722a3daafe3b4186f6b6457e0\n      swap2\n        /* \"abstract/Ownable.sol\":2522:2538  address oldOwner */\n      swap1\n        /* \"abstract/Ownable.sol\":2589:2629  OwnershipTransferred(oldOwner, newOwner) */\n      log3\n        /* \"abstract/Ownable.sol\":2512:2636  {... */\n      pop\n        /* \"abstract/Ownable.sol\":2449:2636  function _transferOwnership(address newOwner) internal virtual {... */\n      pop\n      jump\t// out\n        /* \"cursor/ListEmployeeCursor.sol\":1868:2115  function _checkEmployeeIdBelongstoAddress(uint256 id)... */\n    tag_109:\n        /* \"cursor/ListEmployeeCursor.sol\":2011:2029  listEmployeeCursor */\n      sload(0x01)\n        /* \"cursor/ListEmployeeCursor.sol\":2011:2050  listEmployeeCursor.at(id, DATABASE_KEY) */\n      mload(0x40)\n      shl(0xe0, 0xc78a6741)\n      dup2\n      mstore\n      0x04\n      dup2\n      add\n        /* \"#utility.yul\":4765:4790   */\n      dup4\n      swap1\n      mstore\n      0x00\n      dup1\n      mload\n      0x20\n      data_98ee57057fe0a523e70b51608fd55a37ff53d47c3b8dac495a5f45d45157392f\n      dup4\n      codecopy\n      dup2\n      mload\n      swap2\n      mstore\n        /* \"#utility.yul\":4806:4824   */\n      0x24\n      dup3\n      add\n        /* \"#utility.yul\":4799:4833   */\n      mstore\n        /* \"cursor/ListEmployeeCursor.sol\":1969:1973  bool */\n      0x00\n      swap2\n      dup3\n      swap2\n      sub(shl(0xa0, 0x01), 0x01)\n        /* \"cursor/ListEmployeeCursor.sol\":2011:2029  listEmployeeCursor */\n      swap1\n      swap2\n      and\n      swap1\n        /* \"cursor/ListEmployeeCursor.sol\":2011:2032  listEmployeeCursor.at */\n      0xc78a6741\n      swap1\n        /* \"#utility.yul\":4738:4756   */\n      0x44\n      add\n        /* \"cursor/ListEmployeeCursor.sol\":2011:2050  listEmployeeCursor.at(id, DATABASE_KEY) */\n      0x00\n      mload(0x40)\n      dup1\n      dup4\n      sub\n      dup2\n      dup7\n      gas\n      staticcall\n      iszero\n      dup1\n      iszero\n      tag_131\n      jumpi\n      returndatasize\n      0x00\n      dup1\n      returndatacopy\n      revert(0x00, returndatasize)\n    tag_131:\n      pop\n      pop\n      pop\n      pop\n      mload(0x40)\n      returndatasize\n      0x00\n      dup3\n      returndatacopy\n      0x1f\n      returndatasize\n      swap1\n      dup2\n      add\n      not(0x1f)\n      and\n      dup3\n      add\n      0x40\n      mstore\n      tag_132\n      swap2\n      swap1\n      dup2\n      add\n      swap1\n      tag_133\n      jump\t// in\n    tag_132:\n        /* \"cursor/ListEmployeeCursor.sol\":1989:2050  Profile memory item = listEmployeeCursor.at(id, DATABASE_KEY) */\n      swap1\n      pop\n        /* \"cursor/ListEmployeeCursor.sol\":2067:2108  _checkEmployeeUser(item.user, msg.sender) */\n      tag_134\n        /* \"cursor/ListEmployeeCursor.sol\":2086:2090  item */\n      dup2\n        /* \"cursor/ListEmployeeCursor.sol\":2086:2095  item.user */\n      0x60\n      add\n      mload\n        /* \"cursor/ListEmployeeCursor.sol\":2097:2107  msg.sender */\n      caller\n        /* \"cursor/ListEmployeeCursor.sol\":2067:2085  _checkEmployeeUser */\n      tag_135\n        /* \"cursor/ListEmployeeCursor.sol\":2067:2108  _checkEmployeeUser(item.user, msg.sender) */\n      jump\t// in\n    tag_134:\n        /* \"cursor/ListEmployeeCursor.sol\":2060:2108  return _checkEmployeeUser(item.user, msg.sender) */\n      swap4\n        /* \"cursor/ListEmployeeCursor.sol\":1868:2115  function _checkEmployeeIdBelongstoAddress(uint256 id)... */\n      swap3\n      pop\n      pop\n      pop\n      jump\t// out\n        /* \"cursor/ListEmployeeCursor.sol\":1679:1862  function _checkEmployeeUser(address user, address value)... */\n    tag_135:\n        /* \"cursor/ListEmployeeCursor.sol\":1783:1787  bool */\n      0x00\n        /* \"cursor/ListEmployeeCursor.sol\":1815:1820  value */\n      dup2\n      sub(shl(0xa0, 0x01), 0x01)\n        /* \"cursor/ListEmployeeCursor.sol\":1807:1820  user == value */\n      and\n        /* \"cursor/ListEmployeeCursor.sol\":1807:1811  user */\n      dup4\n      sub(shl(0xa0, 0x01), 0x01)\n        /* \"cursor/ListEmployeeCursor.sol\":1807:1820  user == value */\n      and\n      sub\n        /* \"cursor/ListEmployeeCursor.sol\":1803:1833  if (user == value) return true */\n      tag_137\n      jumpi\n      pop\n        /* \"cursor/ListEmployeeCursor.sol\":1829:1833  true */\n      0x01\n        /* \"cursor/ListEmployeeCursor.sol\":1822:1833  return true */\n      jump(tag_136)\n        /* \"cursor/ListEmployeeCursor.sol\":1803:1833  if (user == value) return true */\n    tag_137:\n      pop\n        /* \"cursor/ListEmployeeCursor.sol\":1850:1855  false */\n      0x00\n        /* \"cursor/ListEmployeeCursor.sol\":1679:1862  function _checkEmployeeUser(address user, address value)... */\n    tag_136:\n      swap3\n      swap2\n      pop\n      pop\n      jump\t// out\n        /* \"#utility.yul\":14:194   */\n    tag_13:\n        /* \"#utility.yul\":73:79   */\n      0x00\n        /* \"#utility.yul\":126:128   */\n      0x20\n        /* \"#utility.yul\":114:123   */\n      dup3\n        /* \"#utility.yul\":105:112   */\n      dup5\n        /* \"#utility.yul\":101:124   */\n      sub\n        /* \"#utility.yul\":97:129   */\n      slt\n        /* \"#utility.yul\":94:146   */\n      iszero\n      tag_148\n      jumpi\n        /* \"#utility.yul\":142:143   */\n      0x00\n        /* \"#utility.yul\":139:140   */\n      dup1\n        /* \"#utility.yul\":132:144   */\n      revert\n        /* \"#utility.yul\":94:146   */\n    tag_148:\n      pop\n        /* \"#utility.yul\":165:188   */\n      calldataload\n      swap2\n        /* \"#utility.yul\":14:194   */\n      swap1\n      pop\n      jump\t// out\n        /* \"#utility.yul\":199:449   */\n    tag_138:\n        /* \"#utility.yul\":284:285   */\n      0x00\n        /* \"#utility.yul\":294:407   */\n    tag_150:\n        /* \"#utility.yul\":308:314   */\n      dup4\n        /* \"#utility.yul\":305:306   */\n      dup2\n        /* \"#utility.yul\":302:315   */\n      lt\n        /* \"#utility.yul\":294:407   */\n      iszero\n      tag_152\n      jumpi\n        /* \"#utility.yul\":384:395   */\n      dup2\n      dup2\n      add\n        /* \"#utility.yul\":378:396   */\n      mload\n        /* \"#utility.yul\":365:376   */\n      dup4\n      dup3\n      add\n        /* \"#utility.yul\":358:397   */\n      mstore\n        /* \"#utility.yul\":330:332   */\n      0x20\n        /* \"#utility.yul\":323:333   */\n      add\n        /* \"#utility.yul\":294:407   */\n      jump(tag_150)\n    tag_152:\n      pop\n      pop\n        /* \"#utility.yul\":441:442   */\n      0x00\n        /* \"#utility.yul\":423:439   */\n      swap2\n      add\n        /* \"#utility.yul\":416:443   */\n      mstore\n        /* \"#utility.yul\":199:449   */\n      jump\t// out\n        /* \"#utility.yul\":454:986   */\n    tag_139:\n        /* \"#utility.yul\":535:540   */\n      dup1\n        /* \"#utility.yul\":529:541   */\n      mload\n        /* \"#utility.yul\":524:527   */\n      dup3\n        /* \"#utility.yul\":517:542   */\n      mstore\n        /* \"#utility.yul\":591:595   */\n      0x20\n        /* \"#utility.yul\":584:589   */\n      dup2\n        /* \"#utility.yul\":580:596   */\n      add\n        /* \"#utility.yul\":574:597   */\n      mload\n        /* \"#utility.yul\":567:571   */\n      0x20\n        /* \"#utility.yul\":562:565   */\n      dup4\n        /* \"#utility.yul\":558:572   */\n      add\n        /* \"#utility.yul\":551:598   */\n      mstore\n        /* \"#utility.yul\":647:651   */\n      0x40\n        /* \"#utility.yul\":640:645   */\n      dup2\n        /* \"#utility.yul\":636:652   */\n      add\n        /* \"#utility.yul\":630:653   */\n      mload\n        /* \"#utility.yul\":623:627   */\n      0x40\n        /* \"#utility.yul\":618:621   */\n      dup4\n        /* \"#utility.yul\":614:628   */\n      add\n        /* \"#utility.yul\":607:654   */\n      mstore\n        /* \"#utility.yul\":499:502   */\n      0x00\n        /* \"#utility.yul\":700:704   */\n      0x60\n        /* \"#utility.yul\":693:698   */\n      dup3\n        /* \"#utility.yul\":689:705   */\n      add\n        /* \"#utility.yul\":683:706   */\n      mload\n        /* \"#utility.yul\":738:742   */\n      0x80\n        /* \"#utility.yul\":731:735   */\n      0x60\n        /* \"#utility.yul\":726:729   */\n      dup6\n        /* \"#utility.yul\":722:736   */\n      add\n        /* \"#utility.yul\":715:743   */\n      mstore\n        /* \"#utility.yul\":772:784   */\n      dup1\n        /* \"#utility.yul\":766:785   */\n      mload\n        /* \"#utility.yul\":817:823   */\n      dup1\n        /* \"#utility.yul\":810:814   */\n      0x80\n        /* \"#utility.yul\":805:808   */\n      dup7\n        /* \"#utility.yul\":801:815   */\n      add\n        /* \"#utility.yul\":794:824   */\n      mstore\n        /* \"#utility.yul\":833:915   */\n      tag_154\n        /* \"#utility.yul\":908:914   */\n      dup2\n        /* \"#utility.yul\":902:905   */\n      0xa0\n        /* \"#utility.yul\":897:900   */\n      dup8\n        /* \"#utility.yul\":893:906   */\n      add\n        /* \"#utility.yul\":886:890   */\n      0x20\n        /* \"#utility.yul\":872:884   */\n      dup6\n        /* \"#utility.yul\":868:891   */\n      add\n        /* \"#utility.yul\":833:915   */\n      tag_138\n      jump\t// in\n    tag_154:\n        /* \"#utility.yul\":969:971   */\n      0x1f\n        /* \"#utility.yul\":948:963   */\n      add\n      not(0x1f)\n        /* \"#utility.yul\":944:973   */\n      and\n        /* \"#utility.yul\":935:974   */\n      swap4\n      swap1\n      swap4\n      add\n        /* \"#utility.yul\":976:979   */\n      0xa0\n        /* \"#utility.yul\":931:980   */\n      add\n      swap4\n        /* \"#utility.yul\":454:986   */\n      swap3\n      pop\n      pop\n      pop\n      jump\t// out\n        /* \"#utility.yul\":991:1817   */\n    tag_16:\n        /* \"#utility.yul\":1173:1177   */\n      0x00\n        /* \"#utility.yul\":1202:1204   */\n      0x20\n        /* \"#utility.yul\":1242:1244   */\n      dup1\n        /* \"#utility.yul\":1231:1240   */\n      dup4\n        /* \"#utility.yul\":1227:1245   */\n      add\n        /* \"#utility.yul\":1272:1274   */\n      dup2\n        /* \"#utility.yul\":1261:1270   */\n      dup5\n        /* \"#utility.yul\":1254:1275   */\n      mstore\n        /* \"#utility.yul\":1295:1301   */\n      dup1\n        /* \"#utility.yul\":1330:1336   */\n      dup6\n        /* \"#utility.yul\":1324:1337   */\n      mload\n        /* \"#utility.yul\":1361:1367   */\n      dup1\n        /* \"#utility.yul\":1353:1359   */\n      dup4\n        /* \"#utility.yul\":1346:1368   */\n      mstore\n        /* \"#utility.yul\":1399:1401   */\n      0x40\n        /* \"#utility.yul\":1388:1397   */\n      dup7\n        /* \"#utility.yul\":1384:1402   */\n      add\n        /* \"#utility.yul\":1377:1402   */\n      swap2\n      pop\n        /* \"#utility.yul\":1461:1463   */\n      0x40\n        /* \"#utility.yul\":1451:1457   */\n      dup2\n        /* \"#utility.yul\":1448:1449   */\n      0x05\n        /* \"#utility.yul\":1444:1458   */\n      shl\n        /* \"#utility.yul\":1433:1442   */\n      dup8\n        /* \"#utility.yul\":1429:1459   */\n      add\n        /* \"#utility.yul\":1425:1464   */\n      add\n        /* \"#utility.yul\":1411:1464   */\n      swap3\n      pop\n        /* \"#utility.yul\":1499:1501   */\n      dup4\n        /* \"#utility.yul\":1491:1497   */\n      dup8\n        /* \"#utility.yul\":1487:1502   */\n      add\n        /* \"#utility.yul\":1520:1521   */\n      0x00\n        /* \"#utility.yul\":1530:1788   */\n    tag_156:\n        /* \"#utility.yul\":1544:1550   */\n      dup3\n        /* \"#utility.yul\":1541:1542   */\n      dup2\n        /* \"#utility.yul\":1538:1551   */\n      lt\n        /* \"#utility.yul\":1530:1788   */\n      iszero\n      tag_158\n      jumpi\n        /* \"#utility.yul\":1637:1639   */\n      0x3f\n        /* \"#utility.yul\":1633:1640   */\n      not\n        /* \"#utility.yul\":1621:1630   */\n      dup9\n        /* \"#utility.yul\":1613:1619   */\n      dup7\n        /* \"#utility.yul\":1609:1631   */\n      sub\n        /* \"#utility.yul\":1605:1641   */\n      add\n        /* \"#utility.yul\":1600:1603   */\n      dup5\n        /* \"#utility.yul\":1593:1642   */\n      mstore\n        /* \"#utility.yul\":1665:1708   */\n      tag_159\n        /* \"#utility.yul\":1701:1707   */\n      dup6\n        /* \"#utility.yul\":1692:1698   */\n      dup4\n        /* \"#utility.yul\":1686:1699   */\n      mload\n        /* \"#utility.yul\":1665:1708   */\n      tag_139\n      jump\t// in\n    tag_159:\n        /* \"#utility.yul\":1655:1708   */\n      swap5\n      pop\n        /* \"#utility.yul\":1766:1778   */\n      swap3\n      dup6\n      add\n      swap3\n        /* \"#utility.yul\":1731:1746   */\n      swap1\n      dup6\n      add\n      swap1\n        /* \"#utility.yul\":1566:1567   */\n      0x01\n        /* \"#utility.yul\":1559:1568   */\n      add\n        /* \"#utility.yul\":1530:1788   */\n      jump(tag_156)\n    tag_158:\n      pop\n        /* \"#utility.yul\":1805:1811   */\n      swap3\n      swap8\n        /* \"#utility.yul\":991:1817   */\n      swap7\n      pop\n      pop\n      pop\n      pop\n      pop\n      pop\n      pop\n      jump\t// out\n        /* \"#utility.yul\":2222:2353   */\n    tag_140:\n      sub(shl(0xa0, 0x01), 0x01)\n        /* \"#utility.yul\":2297:2328   */\n      dup2\n      and\n        /* \"#utility.yul\":2287:2329   */\n      dup2\n      eq\n        /* \"#utility.yul\":2277:2347   */\n      tag_101\n      jumpi\n        /* \"#utility.yul\":2343:2344   */\n      0x00\n        /* \"#utility.yul\":2340:2341   */\n      dup1\n        /* \"#utility.yul\":2333:2345   */\n      revert\n        /* \"#utility.yul\":2358:2605   */\n    tag_27:\n        /* \"#utility.yul\":2417:2423   */\n      0x00\n        /* \"#utility.yul\":2470:2472   */\n      0x20\n        /* \"#utility.yul\":2458:2467   */\n      dup3\n        /* \"#utility.yul\":2449:2456   */\n      dup5\n        /* \"#utility.yul\":2445:2468   */\n      sub\n        /* \"#utility.yul\":2441:2473   */\n      slt\n        /* \"#utility.yul\":2438:2490   */\n      iszero\n      tag_165\n      jumpi\n        /* \"#utility.yul\":2486:2487   */\n      0x00\n        /* \"#utility.yul\":2483:2484   */\n      dup1\n        /* \"#utility.yul\":2476:2488   */\n      revert\n        /* \"#utility.yul\":2438:2490   */\n    tag_165:\n        /* \"#utility.yul\":2525:2534   */\n      dup2\n        /* \"#utility.yul\":2512:2535   */\n      calldataload\n        /* \"#utility.yul\":2544:2575   */\n      tag_134\n        /* \"#utility.yul\":2569:2574   */\n      dup2\n        /* \"#utility.yul\":2544:2575   */\n      tag_140\n      jump\t// in\n        /* \"#utility.yul\":2610:2737   */\n    tag_63:\n        /* \"#utility.yul\":2671:2681   */\n      0x4e487b71\n        /* \"#utility.yul\":2666:2669   */\n      0xe0\n        /* \"#utility.yul\":2662:2682   */\n      shl\n        /* \"#utility.yul\":2659:2660   */\n      0x00\n        /* \"#utility.yul\":2652:2683   */\n      mstore\n        /* \"#utility.yul\":2702:2706   */\n      0x41\n        /* \"#utility.yul\":2699:2700   */\n      0x04\n        /* \"#utility.yul\":2692:2707   */\n      mstore\n        /* \"#utility.yul\":2726:2730   */\n      0x24\n        /* \"#utility.yul\":2723:2724   */\n      0x00\n        /* \"#utility.yul\":2716:2731   */\n      revert\n        /* \"#utility.yul\":2742:2997   */\n    tag_141:\n        /* \"#utility.yul\":2814:2816   */\n      0x40\n        /* \"#utility.yul\":2808:2817   */\n      mload\n        /* \"#utility.yul\":2856:2862   */\n      0x0180\n        /* \"#utility.yul\":2844:2863   */\n      dup2\n      add\n        /* \"#utility.yul\":2893:2911   */\n      0xffffffffffffffff\n        /* \"#utility.yul\":2878:2912   */\n      dup2\n      gt\n        /* \"#utility.yul\":2914:2936   */\n      dup3\n      dup3\n      lt\n        /* \"#utility.yul\":2875:2937   */\n      or\n        /* \"#utility.yul\":2872:2960   */\n      iszero\n      tag_170\n      jumpi\n        /* \"#utility.yul\":2940:2958   */\n      tag_170\n      tag_63\n      jump\t// in\n    tag_170:\n        /* \"#utility.yul\":2976:2978   */\n      0x40\n        /* \"#utility.yul\":2969:2991   */\n      mstore\n        /* \"#utility.yul\":2742:2997   */\n      swap1\n      jump\t// out\n        /* \"#utility.yul\":3002:3277   */\n    tag_142:\n        /* \"#utility.yul\":3073:3075   */\n      0x40\n        /* \"#utility.yul\":3067:3076   */\n      mload\n        /* \"#utility.yul\":3138:3140   */\n      0x1f\n        /* \"#utility.yul\":3119:3132   */\n      dup3\n      add\n      not(0x1f)\n        /* \"#utility.yul\":3115:3142   */\n      and\n        /* \"#utility.yul\":3103:3143   */\n      dup2\n      add\n        /* \"#utility.yul\":3173:3191   */\n      0xffffffffffffffff\n        /* \"#utility.yul\":3158:3192   */\n      dup2\n      gt\n        /* \"#utility.yul\":3194:3216   */\n      dup3\n      dup3\n      lt\n        /* \"#utility.yul\":3155:3217   */\n      or\n        /* \"#utility.yul\":3152:3240   */\n      iszero\n      tag_173\n      jumpi\n        /* \"#utility.yul\":3220:3238   */\n      tag_173\n      tag_63\n      jump\t// in\n    tag_173:\n        /* \"#utility.yul\":3256:3258   */\n      0x40\n        /* \"#utility.yul\":3249:3271   */\n      mstore\n        /* \"#utility.yul\":3002:3277   */\n      swap2\n      swap1\n      pop\n      jump\t// out\n        /* \"#utility.yul\":3282:3469   */\n    tag_143:\n        /* \"#utility.yul\":3331:3335   */\n      0x00\n        /* \"#utility.yul\":3364:3382   */\n      0xffffffffffffffff\n        /* \"#utility.yul\":3356:3362   */\n      dup3\n        /* \"#utility.yul\":3353:3383   */\n      gt\n        /* \"#utility.yul\":3350:3406   */\n      iszero\n      tag_176\n      jumpi\n        /* \"#utility.yul\":3386:3404   */\n      tag_176\n      tag_63\n      jump\t// in\n    tag_176:\n      pop\n        /* \"#utility.yul\":3452:3454   */\n      0x1f\n        /* \"#utility.yul\":3431:3446   */\n      add\n      not(0x1f)\n        /* \"#utility.yul\":3427:3456   */\n      and\n        /* \"#utility.yul\":3458:3462   */\n      0x20\n        /* \"#utility.yul\":3423:3463   */\n      add\n      swap1\n        /* \"#utility.yul\":3282:3469   */\n      jump\t// out\n        /* \"#utility.yul\":3474:4215   */\n    tag_31:\n        /* \"#utility.yul\":3552:3558   */\n      0x00\n        /* \"#utility.yul\":3560:3566   */\n      dup1\n        /* \"#utility.yul\":3613:3615   */\n      0x40\n        /* \"#utility.yul\":3601:3610   */\n      dup4\n        /* \"#utility.yul\":3592:3599   */\n      dup6\n        /* \"#utility.yul\":3588:3611   */\n      sub\n        /* \"#utility.yul\":3584:3616   */\n      slt\n        /* \"#utility.yul\":3581:3633   */\n      iszero\n      tag_178\n      jumpi\n        /* \"#utility.yul\":3629:3630   */\n      0x00\n        /* \"#utility.yul\":3626:3627   */\n      dup1\n        /* \"#utility.yul\":3619:3631   */\n      revert\n        /* \"#utility.yul\":3581:3633   */\n    tag_178:\n        /* \"#utility.yul\":3665:3674   */\n      dup3\n        /* \"#utility.yul\":3652:3675   */\n      calldataload\n        /* \"#utility.yul\":3642:3675   */\n      swap2\n      pop\n        /* \"#utility.yul\":3726:3728   */\n      0x20\n        /* \"#utility.yul\":3715:3724   */\n      dup4\n        /* \"#utility.yul\":3711:3729   */\n      add\n        /* \"#utility.yul\":3698:3730   */\n      calldataload\n        /* \"#utility.yul\":3753:3771   */\n      0xffffffffffffffff\n        /* \"#utility.yul\":3745:3751   */\n      dup2\n        /* \"#utility.yul\":3742:3772   */\n      gt\n        /* \"#utility.yul\":3739:3789   */\n      iszero\n      tag_179\n      jumpi\n        /* \"#utility.yul\":3785:3786   */\n      0x00\n        /* \"#utility.yul\":3782:3783   */\n      dup1\n        /* \"#utility.yul\":3775:3787   */\n      revert\n        /* \"#utility.yul\":3739:3789   */\n    tag_179:\n        /* \"#utility.yul\":3808:3830   */\n      dup4\n      add\n        /* \"#utility.yul\":3861:3865   */\n      0x1f\n        /* \"#utility.yul\":3853:3866   */\n      dup2\n      add\n        /* \"#utility.yul\":3849:3876   */\n      dup6\n      sgt\n        /* \"#utility.yul\":3839:3894   */\n      tag_180\n      jumpi\n        /* \"#utility.yul\":3890:3891   */\n      0x00\n        /* \"#utility.yul\":3887:3888   */\n      dup1\n        /* \"#utility.yul\":3880:3892   */\n      revert\n        /* \"#utility.yul\":3839:3894   */\n    tag_180:\n        /* \"#utility.yul\":3926:3928   */\n      dup1\n        /* \"#utility.yul\":3913:3929   */\n      calldataload\n        /* \"#utility.yul\":3951:4000   */\n      tag_181\n        /* \"#utility.yul\":3967:3999   */\n      tag_182\n        /* \"#utility.yul\":3996:3998   */\n      dup3\n        /* \"#utility.yul\":3967:3999   */\n      tag_143\n      jump\t// in\n    tag_182:\n        /* \"#utility.yul\":3951:4000   */\n      tag_142\n      jump\t// in\n    tag_181:\n        /* \"#utility.yul\":4023:4025   */\n      dup2\n        /* \"#utility.yul\":4016:4021   */\n      dup2\n        /* \"#utility.yul\":4009:4026   */\n      mstore\n        /* \"#utility.yul\":4063:4070   */\n      dup7\n        /* \"#utility.yul\":4058:4060   */\n      0x20\n        /* \"#utility.yul\":4053:4055   */\n      dup4\n        /* \"#utility.yul\":4049:4051   */\n      dup6\n        /* \"#utility.yul\":4045:4056   */\n      add\n        /* \"#utility.yul\":4041:4061   */\n      add\n        /* \"#utility.yul\":4038:4071   */\n      gt\n        /* \"#utility.yul\":4035:4088   */\n      iszero\n      tag_183\n      jumpi\n        /* \"#utility.yul\":4084:4085   */\n      0x00\n        /* \"#utility.yul\":4081:4082   */\n      dup1\n        /* \"#utility.yul\":4074:4086   */\n      revert\n        /* \"#utility.yul\":4035:4088   */\n    tag_183:\n        /* \"#utility.yul\":4139:4141   */\n      dup2\n        /* \"#utility.yul\":4134:4136   */\n      0x20\n        /* \"#utility.yul\":4130:4132   */\n      dup5\n        /* \"#utility.yul\":4126:4137   */\n      add\n        /* \"#utility.yul\":4121:4123   */\n      0x20\n        /* \"#utility.yul\":4114:4119   */\n      dup4\n        /* \"#utility.yul\":4110:4124   */\n      add\n        /* \"#utility.yul\":4097:4142   */\n      calldatacopy\n        /* \"#utility.yul\":4183:4184   */\n      0x00\n        /* \"#utility.yul\":4178:4180   */\n      0x20\n        /* \"#utility.yul\":4173:4175   */\n      dup4\n        /* \"#utility.yul\":4166:4171   */\n      dup4\n        /* \"#utility.yul\":4162:4176   */\n      add\n        /* \"#utility.yul\":4158:4181   */\n      add\n        /* \"#utility.yul\":4151:4185   */\n      mstore\n        /* \"#utility.yul\":4204:4209   */\n      dup1\n        /* \"#utility.yul\":4194:4209   */\n      swap4\n      pop\n      pop\n      pop\n      pop\n        /* \"#utility.yul\":3474:4215   */\n      swap3\n      pop\n      swap3\n      swap1\n      pop\n      jump\t// out\n        /* \"#utility.yul\":4402:4586   */\n    tag_49:\n        /* \"#utility.yul\":4472:4478   */\n      0x00\n        /* \"#utility.yul\":4525:4527   */\n      0x20\n        /* \"#utility.yul\":4513:4522   */\n      dup3\n        /* \"#utility.yul\":4504:4511   */\n      dup5\n        /* \"#utility.yul\":4500:4523   */\n      sub\n        /* \"#utility.yul\":4496:4528   */\n      slt\n        /* \"#utility.yul\":4493:4545   */\n      iszero\n      tag_186\n      jumpi\n        /* \"#utility.yul\":4541:4542   */\n      0x00\n        /* \"#utility.yul\":4538:4539   */\n      dup1\n        /* \"#utility.yul\":4531:4543   */\n      revert\n        /* \"#utility.yul\":4493:4545   */\n    tag_186:\n      pop\n        /* \"#utility.yul\":4564:4580   */\n      mload\n      swap2\n        /* \"#utility.yul\":4402:4586   */\n      swap1\n      pop\n      jump\t// out\n        /* \"#utility.yul\":4844:5287   */\n    tag_144:\n        /* \"#utility.yul\":4898:4903   */\n      0x00\n        /* \"#utility.yul\":4951:4954   */\n      dup3\n        /* \"#utility.yul\":4944:4948   */\n      0x1f\n        /* \"#utility.yul\":4936:4942   */\n      dup4\n        /* \"#utility.yul\":4932:4949   */\n      add\n        /* \"#utility.yul\":4928:4955   */\n      slt\n        /* \"#utility.yul\":4918:4973   */\n      tag_189\n      jumpi\n        /* \"#utility.yul\":4969:4970   */\n      0x00\n        /* \"#utility.yul\":4966:4967   */\n      dup1\n        /* \"#utility.yul\":4959:4971   */\n      revert\n        /* \"#utility.yul\":4918:4973   */\n    tag_189:\n        /* \"#utility.yul\":4998:5004   */\n      dup2\n        /* \"#utility.yul\":4992:5005   */\n      mload\n        /* \"#utility.yul\":5029:5078   */\n      tag_190\n        /* \"#utility.yul\":5045:5077   */\n      tag_182\n        /* \"#utility.yul\":5074:5076   */\n      dup3\n        /* \"#utility.yul\":5045:5077   */\n      tag_143\n      jump\t// in\n        /* \"#utility.yul\":5029:5078   */\n    tag_190:\n        /* \"#utility.yul\":5103:5105   */\n      dup2\n        /* \"#utility.yul\":5094:5101   */\n      dup2\n        /* \"#utility.yul\":5087:5106   */\n      mstore\n        /* \"#utility.yul\":5149:5152   */\n      dup5\n        /* \"#utility.yul\":5142:5146   */\n      0x20\n        /* \"#utility.yul\":5137:5139   */\n      dup4\n        /* \"#utility.yul\":5129:5135   */\n      dup7\n        /* \"#utility.yul\":5125:5140   */\n      add\n        /* \"#utility.yul\":5121:5147   */\n      add\n        /* \"#utility.yul\":5118:5153   */\n      gt\n        /* \"#utility.yul\":5115:5170   */\n      iszero\n      tag_192\n      jumpi\n        /* \"#utility.yul\":5166:5167   */\n      0x00\n        /* \"#utility.yul\":5163:5164   */\n      dup1\n        /* \"#utility.yul\":5156:5168   */\n      revert\n        /* \"#utility.yul\":5115:5170   */\n    tag_192:\n        /* \"#utility.yul\":5179:5256   */\n      tag_193\n        /* \"#utility.yul\":5253:5255   */\n      dup3\n        /* \"#utility.yul\":5246:5250   */\n      0x20\n        /* \"#utility.yul\":5237:5244   */\n      dup4\n        /* \"#utility.yul\":5233:5251   */\n      add\n        /* \"#utility.yul\":5226:5230   */\n      0x20\n        /* \"#utility.yul\":5218:5224   */\n      dup8\n        /* \"#utility.yul\":5214:5231   */\n      add\n        /* \"#utility.yul\":5179:5256   */\n      tag_138\n      jump\t// in\n    tag_193:\n        /* \"#utility.yul\":5274:5281   */\n      swap5\n        /* \"#utility.yul\":4844:5287   */\n      swap4\n      pop\n      pop\n      pop\n      pop\n      jump\t// out\n        /* \"#utility.yul\":5292:6206   */\n    tag_56:\n        /* \"#utility.yul\":5382:5388   */\n      0x00\n        /* \"#utility.yul\":5435:5437   */\n      0x20\n        /* \"#utility.yul\":5423:5432   */\n      dup3\n        /* \"#utility.yul\":5414:5421   */\n      dup5\n        /* \"#utility.yul\":5410:5433   */\n      sub\n        /* \"#utility.yul\":5406:5438   */\n      slt\n        /* \"#utility.yul\":5403:5455   */\n      iszero\n      tag_195\n      jumpi\n        /* \"#utility.yul\":5451:5452   */\n      0x00\n        /* \"#utility.yul\":5448:5449   */\n      dup1\n        /* \"#utility.yul\":5441:5453   */\n      revert\n        /* \"#utility.yul\":5403:5455   */\n    tag_195:\n        /* \"#utility.yul\":5484:5493   */\n      dup2\n        /* \"#utility.yul\":5478:5494   */\n      mload\n        /* \"#utility.yul\":5513:5531   */\n      0xffffffffffffffff\n        /* \"#utility.yul\":5554:5556   */\n      dup1\n        /* \"#utility.yul\":5546:5552   */\n      dup3\n        /* \"#utility.yul\":5543:5557   */\n      gt\n        /* \"#utility.yul\":5540:5574   */\n      iszero\n      tag_196\n      jumpi\n        /* \"#utility.yul\":5570:5571   */\n      0x00\n        /* \"#utility.yul\":5567:5568   */\n      dup1\n        /* \"#utility.yul\":5560:5572   */\n      revert\n        /* \"#utility.yul\":5540:5574   */\n    tag_196:\n        /* \"#utility.yul\":5593:5615   */\n      swap1\n      dup4\n      add\n      swap1\n        /* \"#utility.yul\":5649:5653   */\n      0x80\n        /* \"#utility.yul\":5631:5647   */\n      dup3\n      dup7\n      sub\n        /* \"#utility.yul\":5627:5654   */\n      slt\n        /* \"#utility.yul\":5624:5671   */\n      iszero\n      tag_197\n      jumpi\n        /* \"#utility.yul\":5667:5668   */\n      0x00\n        /* \"#utility.yul\":5664:5665   */\n      dup1\n        /* \"#utility.yul\":5657:5669   */\n      revert\n        /* \"#utility.yul\":5624:5671   */\n    tag_197:\n        /* \"#utility.yul\":5700:5702   */\n      0x40\n        /* \"#utility.yul\":5694:5703   */\n      mload\n        /* \"#utility.yul\":5742:5746   */\n      0x80\n        /* \"#utility.yul\":5734:5740   */\n      dup2\n        /* \"#utility.yul\":5730:5747   */\n      add\n        /* \"#utility.yul\":5797:5803   */\n      dup2\n        /* \"#utility.yul\":5785:5795   */\n      dup2\n        /* \"#utility.yul\":5782:5804   */\n      lt\n        /* \"#utility.yul\":5777:5779   */\n      dup4\n        /* \"#utility.yul\":5765:5775   */\n      dup3\n        /* \"#utility.yul\":5762:5780   */\n      gt\n        /* \"#utility.yul\":5759:5805   */\n      or\n        /* \"#utility.yul\":5756:5828   */\n      iszero\n      tag_199\n      jumpi\n        /* \"#utility.yul\":5808:5826   */\n      tag_199\n      tag_63\n      jump\t// in\n    tag_199:\n        /* \"#utility.yul\":5848:5858   */\n      dup1\n        /* \"#utility.yul\":5844:5846   */\n      0x40\n        /* \"#utility.yul\":5837:5859   */\n      mstore\n      pop\n        /* \"#utility.yul\":5889:5891   */\n      dup3\n        /* \"#utility.yul\":5883:5892   */\n      mload\n        /* \"#utility.yul\":5875:5881   */\n      dup2\n        /* \"#utility.yul\":5868:5893   */\n      mstore\n        /* \"#utility.yul\":5940:5942   */\n      0x20\n        /* \"#utility.yul\":5936:5938   */\n      dup4\n        /* \"#utility.yul\":5932:5943   */\n      add\n        /* \"#utility.yul\":5926:5944   */\n      mload\n        /* \"#utility.yul\":5921:5923   */\n      0x20\n        /* \"#utility.yul\":5913:5919   */\n      dup3\n        /* \"#utility.yul\":5909:5924   */\n      add\n        /* \"#utility.yul\":5902:5945   */\n      mstore\n        /* \"#utility.yul\":5992:5994   */\n      0x40\n        /* \"#utility.yul\":5988:5990   */\n      dup4\n        /* \"#utility.yul\":5984:5995   */\n      add\n        /* \"#utility.yul\":5978:5996   */\n      mload\n        /* \"#utility.yul\":5973:5975   */\n      0x40\n        /* \"#utility.yul\":5965:5971   */\n      dup3\n        /* \"#utility.yul\":5961:5976   */\n      add\n        /* \"#utility.yul\":5954:5997   */\n      mstore\n        /* \"#utility.yul\":6036:6038   */\n      0x60\n        /* \"#utility.yul\":6032:6034   */\n      dup4\n        /* \"#utility.yul\":6028:6039   */\n      add\n        /* \"#utility.yul\":6022:6040   */\n      mload\n        /* \"#utility.yul\":6065:6067   */\n      dup3\n        /* \"#utility.yul\":6055:6063   */\n      dup2\n        /* \"#utility.yul\":6052:6068   */\n      gt\n        /* \"#utility.yul\":6049:6085   */\n      iszero\n      tag_200\n      jumpi\n        /* \"#utility.yul\":6081:6082   */\n      0x00\n        /* \"#utility.yul\":6078:6079   */\n      dup1\n        /* \"#utility.yul\":6071:6083   */\n      revert\n        /* \"#utility.yul\":6049:6085   */\n    tag_200:\n        /* \"#utility.yul\":6118:6174   */\n      tag_201\n        /* \"#utility.yul\":6166:6173   */\n      dup8\n        /* \"#utility.yul\":6155:6163   */\n      dup3\n        /* \"#utility.yul\":6151:6153   */\n      dup7\n        /* \"#utility.yul\":6147:6164   */\n      add\n        /* \"#utility.yul\":6118:6174   */\n      tag_144\n      jump\t// in\n    tag_201:\n        /* \"#utility.yul\":6113:6115   */\n      0x60\n        /* \"#utility.yul\":6101:6116   */\n      dup4\n      add\n        /* \"#utility.yul\":6094:6175   */\n      mstore\n      pop\n        /* \"#utility.yul\":6105:6111   */\n      swap6\n        /* \"#utility.yul\":5292:6206   */\n      swap5\n      pop\n      pop\n      pop\n      pop\n      pop\n      jump\t// out\n        /* \"#utility.yul\":6211:6443   */\n    tag_59:\n        /* \"#utility.yul\":6250:6253   */\n      0x00\n        /* \"#utility.yul\":6271:6288   */\n      0x01\n      dup3\n      add\n        /* \"#utility.yul\":6268:6408   */\n      tag_203\n      jumpi\n        /* \"#utility.yul\":6330:6340   */\n      0x4e487b71\n        /* \"#utility.yul\":6325:6328   */\n      0xe0\n        /* \"#utility.yul\":6321:6341   */\n      shl\n        /* \"#utility.yul\":6318:6319   */\n      0x00\n        /* \"#utility.yul\":6311:6342   */\n      mstore\n        /* \"#utility.yul\":6365:6369   */\n      0x11\n        /* \"#utility.yul\":6362:6363   */\n      0x04\n        /* \"#utility.yul\":6355:6370   */\n      mstore\n        /* \"#utility.yul\":6393:6397   */\n      0x24\n        /* \"#utility.yul\":6390:6391   */\n      0x00\n        /* \"#utility.yul\":6383:6398   */\n      revert\n        /* \"#utility.yul\":6268:6408   */\n    tag_203:\n      pop\n        /* \"#utility.yul\":6435:6436   */\n      0x01\n        /* \"#utility.yul\":6424:6437   */\n      add\n      swap1\n        /* \"#utility.yul\":6211:6443   */\n      jump\t// out\n        /* \"#utility.yul\":6448:6575   */\n    tag_84:\n        /* \"#utility.yul\":6509:6519   */\n      0x4e487b71\n        /* \"#utility.yul\":6504:6507   */\n      0xe0\n        /* \"#utility.yul\":6500:6520   */\n      shl\n        /* \"#utility.yul\":6497:6498   */\n      0x00\n        /* \"#utility.yul\":6490:6521   */\n      mstore\n        /* \"#utility.yul\":6540:6544   */\n      0x32\n        /* \"#utility.yul\":6537:6538   */\n      0x04\n        /* \"#utility.yul\":6530:6545   */\n      mstore\n        /* \"#utility.yul\":6564:6568   */\n      0x24\n        /* \"#utility.yul\":6561:6562   */\n      0x00\n        /* \"#utility.yul\":6554:6569   */\n      revert\n        /* \"#utility.yul\":8105:8419   */\n    tag_116:\n        /* \"#utility.yul\":8302:8304   */\n      0x40\n        /* \"#utility.yul\":8291:8300   */\n      dup2\n        /* \"#utility.yul\":8284:8305   */\n      mstore\n        /* \"#utility.yul\":8265:8269   */\n      0x00\n        /* \"#utility.yul\":8322:8370   */\n      tag_210\n        /* \"#utility.yul\":8366:8368   */\n      0x40\n        /* \"#utility.yul\":8355:8364   */\n      dup4\n        /* \"#utility.yul\":8351:8369   */\n      add\n        /* \"#utility.yul\":8343:8349   */\n      dup6\n        /* \"#utility.yul\":8322:8370   */\n      tag_139\n      jump\t// in\n    tag_210:\n        /* \"#utility.yul\":8314:8370   */\n      swap1\n      pop\n        /* \"#utility.yul\":8406:8412   */\n      dup3\n        /* \"#utility.yul\":8401:8403   */\n      0x20\n        /* \"#utility.yul\":8390:8399   */\n      dup4\n        /* \"#utility.yul\":8386:8404   */\n      add\n        /* \"#utility.yul\":8379:8413   */\n      mstore\n        /* \"#utility.yul\":8105:8419   */\n      swap4\n      swap3\n      pop\n      pop\n      pop\n      jump\t// out\n        /* \"#utility.yul\":8424:8701   */\n    tag_120:\n        /* \"#utility.yul\":8491:8497   */\n      0x00\n        /* \"#utility.yul\":8544:8546   */\n      0x20\n        /* \"#utility.yul\":8532:8541   */\n      dup3\n        /* \"#utility.yul\":8523:8530   */\n      dup5\n        /* \"#utility.yul\":8519:8542   */\n      sub\n        /* \"#utility.yul\":8515:8547   */\n      slt\n        /* \"#utility.yul\":8512:8564   */\n      iszero\n      tag_212\n      jumpi\n        /* \"#utility.yul\":8560:8561   */\n      0x00\n        /* \"#utility.yul\":8557:8558   */\n      dup1\n        /* \"#utility.yul\":8550:8562   */\n      revert\n        /* \"#utility.yul\":8512:8564   */\n    tag_212:\n        /* \"#utility.yul\":8592:8601   */\n      dup2\n        /* \"#utility.yul\":8586:8602   */\n      mload\n        /* \"#utility.yul\":8645:8650   */\n      dup1\n        /* \"#utility.yul\":8638:8651   */\n      iszero\n        /* \"#utility.yul\":8631:8652   */\n      iszero\n        /* \"#utility.yul\":8624:8629   */\n      dup2\n        /* \"#utility.yul\":8621:8653   */\n      eq\n        /* \"#utility.yul\":8611:8671   */\n      tag_134\n      jumpi\n        /* \"#utility.yul\":8667:8668   */\n      0x00\n        /* \"#utility.yul\":8664:8665   */\n      dup1\n        /* \"#utility.yul\":8657:8669   */\n      revert\n        /* \"#utility.yul\":9067:9205   */\n    tag_145:\n        /* \"#utility.yul\":9146:9159   */\n      dup1\n      mload\n        /* \"#utility.yul\":9168:9199   */\n      tag_216\n        /* \"#utility.yul\":9146:9159   */\n      dup2\n        /* \"#utility.yul\":9168:9199   */\n      tag_140\n      jump\t// in\n    tag_216:\n        /* \"#utility.yul\":9067:9205   */\n      swap2\n      swap1\n      pop\n      jump\t// out\n        /* \"#utility.yul\":9210:11392   */\n    tag_133:\n        /* \"#utility.yul\":9305:9311   */\n      0x00\n        /* \"#utility.yul\":9358:9360   */\n      0x20\n        /* \"#utility.yul\":9346:9355   */\n      dup3\n        /* \"#utility.yul\":9337:9344   */\n      dup5\n        /* \"#utility.yul\":9333:9356   */\n      sub\n        /* \"#utility.yul\":9329:9361   */\n      slt\n        /* \"#utility.yul\":9326:9378   */\n      iszero\n      tag_218\n      jumpi\n        /* \"#utility.yul\":9374:9375   */\n      0x00\n        /* \"#utility.yul\":9371:9372   */\n      dup1\n        /* \"#utility.yul\":9364:9376   */\n      revert\n        /* \"#utility.yul\":9326:9378   */\n    tag_218:\n        /* \"#utility.yul\":9407:9416   */\n      dup2\n        /* \"#utility.yul\":9401:9417   */\n      mload\n        /* \"#utility.yul\":9436:9454   */\n      0xffffffffffffffff\n        /* \"#utility.yul\":9477:9479   */\n      dup1\n        /* \"#utility.yul\":9469:9475   */\n      dup3\n        /* \"#utility.yul\":9466:9480   */\n      gt\n        /* \"#utility.yul\":9463:9497   */\n      iszero\n      tag_219\n      jumpi\n        /* \"#utility.yul\":9493:9494   */\n      0x00\n        /* \"#utility.yul\":9490:9491   */\n      dup1\n        /* \"#utility.yul\":9483:9495   */\n      revert\n        /* \"#utility.yul\":9463:9497   */\n    tag_219:\n        /* \"#utility.yul\":9516:9538   */\n      swap1\n      dup4\n      add\n      swap1\n        /* \"#utility.yul\":9572:9578   */\n      0x0180\n        /* \"#utility.yul\":9554:9570   */\n      dup3\n      dup7\n      sub\n        /* \"#utility.yul\":9550:9579   */\n      slt\n        /* \"#utility.yul\":9547:9596   */\n      iszero\n      tag_220\n      jumpi\n        /* \"#utility.yul\":9592:9593   */\n      0x00\n        /* \"#utility.yul\":9589:9590   */\n      dup1\n        /* \"#utility.yul\":9582:9594   */\n      revert\n        /* \"#utility.yul\":9547:9596   */\n    tag_220:\n        /* \"#utility.yul\":9618:9640   */\n      tag_221\n      tag_141\n      jump\t// in\n    tag_221:\n        /* \"#utility.yul\":9669:9671   */\n      dup3\n        /* \"#utility.yul\":9663:9672   */\n      mload\n        /* \"#utility.yul\":9656:9661   */\n      dup2\n        /* \"#utility.yul\":9649:9673   */\n      mstore\n        /* \"#utility.yul\":9719:9721   */\n      0x20\n        /* \"#utility.yul\":9715:9717   */\n      dup4\n        /* \"#utility.yul\":9711:9722   */\n      add\n        /* \"#utility.yul\":9705:9723   */\n      mload\n        /* \"#utility.yul\":9700:9702   */\n      0x20\n        /* \"#utility.yul\":9693:9698   */\n      dup3\n        /* \"#utility.yul\":9689:9703   */\n      add\n        /* \"#utility.yul\":9682:9724   */\n      mstore\n        /* \"#utility.yul\":9770:9772   */\n      0x40\n        /* \"#utility.yul\":9766:9768   */\n      dup4\n        /* \"#utility.yul\":9762:9773   */\n      add\n        /* \"#utility.yul\":9756:9774   */\n      mload\n        /* \"#utility.yul\":9751:9753   */\n      0x40\n        /* \"#utility.yul\":9744:9749   */\n      dup3\n        /* \"#utility.yul\":9740:9754   */\n      add\n        /* \"#utility.yul\":9733:9775   */\n      mstore\n        /* \"#utility.yul\":9807:9849   */\n      tag_222\n        /* \"#utility.yul\":9845:9847   */\n      0x60\n        /* \"#utility.yul\":9841:9843   */\n      dup5\n        /* \"#utility.yul\":9837:9848   */\n      add\n        /* \"#utility.yul\":9807:9849   */\n      tag_145\n      jump\t// in\n    tag_222:\n        /* \"#utility.yul\":9802:9804   */\n      0x60\n        /* \"#utility.yul\":9795:9800   */\n      dup3\n        /* \"#utility.yul\":9791:9805   */\n      add\n        /* \"#utility.yul\":9784:9850   */\n      mstore\n        /* \"#utility.yul\":9889:9892   */\n      0x80\n        /* \"#utility.yul\":9885:9887   */\n      dup4\n        /* \"#utility.yul\":9881:9893   */\n      add\n        /* \"#utility.yul\":9875:9894   */\n      mload\n        /* \"#utility.yul\":9919:9921   */\n      dup3\n        /* \"#utility.yul\":9909:9917   */\n      dup2\n        /* \"#utility.yul\":9906:9922   */\n      gt\n        /* \"#utility.yul\":9903:9939   */\n      iszero\n      tag_223\n      jumpi\n        /* \"#utility.yul\":9935:9936   */\n      0x00\n        /* \"#utility.yul\":9932:9933   */\n      dup1\n        /* \"#utility.yul\":9925:9937   */\n      revert\n        /* \"#utility.yul\":9903:9939   */\n    tag_223:\n        /* \"#utility.yul\":9972:10028   */\n      tag_224\n        /* \"#utility.yul\":10020:10027   */\n      dup8\n        /* \"#utility.yul\":10009:10017   */\n      dup3\n        /* \"#utility.yul\":10005:10007   */\n      dup7\n        /* \"#utility.yul\":10001:10018   */\n      add\n        /* \"#utility.yul\":9972:10028   */\n      tag_144\n      jump\t// in\n    tag_224:\n        /* \"#utility.yul\":9966:9969   */\n      0x80\n        /* \"#utility.yul\":9959:9964   */\n      dup4\n        /* \"#utility.yul\":9955:9970   */\n      add\n        /* \"#utility.yul\":9948:10029   */\n      mstore\n      pop\n        /* \"#utility.yul\":10068:10071   */\n      0xa0\n        /* \"#utility.yul\":10064:10066   */\n      dup4\n        /* \"#utility.yul\":10060:10072   */\n      add\n        /* \"#utility.yul\":10054:10073   */\n      mload\n        /* \"#utility.yul\":10098:10100   */\n      dup3\n        /* \"#utility.yul\":10088:10096   */\n      dup2\n        /* \"#utility.yul\":10085:10101   */\n      gt\n        /* \"#utility.yul\":10082:10118   */\n      iszero\n      tag_225\n      jumpi\n        /* \"#utility.yul\":10114:10115   */\n      0x00\n        /* \"#utility.yul\":10111:10112   */\n      dup1\n        /* \"#utility.yul\":10104:10116   */\n      revert\n        /* \"#utility.yul\":10082:10118   */\n    tag_225:\n        /* \"#utility.yul\":10151:10207   */\n      tag_226\n        /* \"#utility.yul\":10199:10206   */\n      dup8\n        /* \"#utility.yul\":10188:10196   */\n      dup3\n        /* \"#utility.yul\":10184:10186   */\n      dup7\n        /* \"#utility.yul\":10180:10197   */\n      add\n        /* \"#utility.yul\":10151:10207   */\n      tag_144\n      jump\t// in\n    tag_226:\n        /* \"#utility.yul\":10145:10148   */\n      0xa0\n        /* \"#utility.yul\":10138:10143   */\n      dup4\n        /* \"#utility.yul\":10134:10149   */\n      add\n        /* \"#utility.yul\":10127:10208   */\n      mstore\n      pop\n        /* \"#utility.yul\":10247:10250   */\n      0xc0\n        /* \"#utility.yul\":10243:10245   */\n      dup4\n        /* \"#utility.yul\":10239:10251   */\n      add\n        /* \"#utility.yul\":10233:10252   */\n      mload\n        /* \"#utility.yul\":10277:10279   */\n      dup3\n        /* \"#utility.yul\":10267:10275   */\n      dup2\n        /* \"#utility.yul\":10264:10280   */\n      gt\n        /* \"#utility.yul\":10261:10297   */\n      iszero\n      tag_227\n      jumpi\n        /* \"#utility.yul\":10293:10294   */\n      0x00\n        /* \"#utility.yul\":10290:10291   */\n      dup1\n        /* \"#utility.yul\":10283:10295   */\n      revert\n        /* \"#utility.yul\":10261:10297   */\n    tag_227:\n        /* \"#utility.yul\":10330:10386   */\n      tag_228\n        /* \"#utility.yul\":10378:10385   */\n      dup8\n        /* \"#utility.yul\":10367:10375   */\n      dup3\n        /* \"#utility.yul\":10363:10365   */\n      dup7\n        /* \"#utility.yul\":10359:10376   */\n      add\n        /* \"#utility.yul\":10330:10386   */\n      tag_144\n      jump\t// in\n    tag_228:\n        /* \"#utility.yul\":10324:10327   */\n      0xc0\n        /* \"#utility.yul\":10317:10322   */\n      dup4\n        /* \"#utility.yul\":10313:10328   */\n      add\n        /* \"#utility.yul\":10306:10387   */\n      mstore\n      pop\n        /* \"#utility.yul\":10426:10429   */\n      0xe0\n        /* \"#utility.yul\":10422:10424   */\n      dup4\n        /* \"#utility.yul\":10418:10430   */\n      add\n        /* \"#utility.yul\":10412:10431   */\n      mload\n        /* \"#utility.yul\":10456:10458   */\n      dup3\n        /* \"#utility.yul\":10446:10454   */\n      dup2\n        /* \"#utility.yul\":10443:10459   */\n      gt\n        /* \"#utility.yul\":10440:10476   */\n      iszero\n      tag_229\n      jumpi\n        /* \"#utility.yul\":10472:10473   */\n      0x00\n        /* \"#utility.yul\":10469:10470   */\n      dup1\n        /* \"#utility.yul\":10462:10474   */\n      revert\n        /* \"#utility.yul\":10440:10476   */\n    tag_229:\n        /* \"#utility.yul\":10509:10565   */\n      tag_230\n        /* \"#utility.yul\":10557:10564   */\n      dup8\n        /* \"#utility.yul\":10546:10554   */\n      dup3\n        /* \"#utility.yul\":10542:10544   */\n      dup7\n        /* \"#utility.yul\":10538:10555   */\n      add\n        /* \"#utility.yul\":10509:10565   */\n      tag_144\n      jump\t// in\n    tag_230:\n        /* \"#utility.yul\":10503:10506   */\n      0xe0\n        /* \"#utility.yul\":10496:10501   */\n      dup4\n        /* \"#utility.yul\":10492:10507   */\n      add\n        /* \"#utility.yul\":10485:10566   */\n      mstore\n      pop\n        /* \"#utility.yul\":10585:10588   */\n      0x0100\n        /* \"#utility.yul\":10627:10629   */\n      dup1\n        /* \"#utility.yul\":10623:10625   */\n      dup5\n        /* \"#utility.yul\":10619:10630   */\n      add\n        /* \"#utility.yul\":10613:10631   */\n      mload\n        /* \"#utility.yul\":10656:10658   */\n      dup4\n        /* \"#utility.yul\":10646:10654   */\n      dup2\n        /* \"#utility.yul\":10643:10659   */\n      gt\n        /* \"#utility.yul\":10640:10676   */\n      iszero\n      tag_231\n      jumpi\n        /* \"#utility.yul\":10672:10673   */\n      0x00\n        /* \"#utility.yul\":10669:10670   */\n      dup1\n        /* \"#utility.yul\":10662:10674   */\n      revert\n        /* \"#utility.yul\":10640:10676   */\n    tag_231:\n        /* \"#utility.yul\":10708:10764   */\n      tag_232\n        /* \"#utility.yul\":10756:10763   */\n      dup9\n        /* \"#utility.yul\":10745:10753   */\n      dup3\n        /* \"#utility.yul\":10741:10743   */\n      dup8\n        /* \"#utility.yul\":10737:10754   */\n      add\n        /* \"#utility.yul\":10708:10764   */\n      tag_144\n      jump\t// in\n    tag_232:\n        /* \"#utility.yul\":10703:10705   */\n      dup3\n        /* \"#utility.yul\":10696:10701   */\n      dup5\n        /* \"#utility.yul\":10692:10706   */\n      add\n        /* \"#utility.yul\":10685:10765   */\n      mstore\n      pop\n      pop\n        /* \"#utility.yul\":10784:10787   */\n      0x0120\n        /* \"#utility.yul\":10826:10828   */\n      dup1\n        /* \"#utility.yul\":10822:10824   */\n      dup5\n        /* \"#utility.yul\":10818:10829   */\n      add\n        /* \"#utility.yul\":10812:10830   */\n      mload\n        /* \"#utility.yul\":10855:10857   */\n      dup4\n        /* \"#utility.yul\":10845:10853   */\n      dup2\n        /* \"#utility.yul\":10842:10858   */\n      gt\n        /* \"#utility.yul\":10839:10875   */\n      iszero\n      tag_233\n      jumpi\n        /* \"#utility.yul\":10871:10872   */\n      0x00\n        /* \"#utility.yul\":10868:10869   */\n      dup1\n        /* \"#utility.yul\":10861:10873   */\n      revert\n        /* \"#utility.yul\":10839:10875   */\n    tag_233:\n        /* \"#utility.yul\":10907:10963   */\n      tag_234\n        /* \"#utility.yul\":10955:10962   */\n      dup9\n        /* \"#utility.yul\":10944:10952   */\n      dup3\n        /* \"#utility.yul\":10940:10942   */\n      dup8\n        /* \"#utility.yul\":10936:10953   */\n      add\n        /* \"#utility.yul\":10907:10963   */\n      tag_144\n      jump\t// in\n    tag_234:\n        /* \"#utility.yul\":10902:10904   */\n      dup3\n        /* \"#utility.yul\":10895:10900   */\n      dup5\n        /* \"#utility.yul\":10891:10905   */\n      add\n        /* \"#utility.yul\":10884:10964   */\n      mstore\n      pop\n      pop\n        /* \"#utility.yul\":10983:10986   */\n      0x0140\n        /* \"#utility.yul\":11025:11027   */\n      dup1\n        /* \"#utility.yul\":11021:11023   */\n      dup5\n        /* \"#utility.yul\":11017:11028   */\n      add\n        /* \"#utility.yul\":11011:11029   */\n      mload\n        /* \"#utility.yul\":11054:11056   */\n      dup4\n        /* \"#utility.yul\":11044:11052   */\n      dup2\n        /* \"#utility.yul\":11041:11057   */\n      gt\n        /* \"#utility.yul\":11038:11074   */\n      iszero\n      tag_235\n      jumpi\n        /* \"#utility.yul\":11070:11071   */\n      0x00\n        /* \"#utility.yul\":11067:11068   */\n      dup1\n        /* \"#utility.yul\":11060:11072   */\n      revert\n        /* \"#utility.yul\":11038:11074   */\n    tag_235:\n        /* \"#utility.yul\":11106:11162   */\n      tag_236\n        /* \"#utility.yul\":11154:11161   */\n      dup9\n        /* \"#utility.yul\":11143:11151   */\n      dup3\n        /* \"#utility.yul\":11139:11141   */\n      dup8\n        /* \"#utility.yul\":11135:11152   */\n      add\n        /* \"#utility.yul\":11106:11162   */\n      tag_144\n      jump\t// in\n    tag_236:\n        /* \"#utility.yul\":11101:11103   */\n      dup3\n        /* \"#utility.yul\":11094:11099   */\n      dup5\n        /* \"#utility.yul\":11090:11104   */\n      add\n        /* \"#utility.yul\":11083:11163   */\n      mstore\n      pop\n      pop\n        /* \"#utility.yul\":11182:11185   */\n      0x0160\n        /* \"#utility.yul\":11224:11226   */\n      dup1\n        /* \"#utility.yul\":11220:11222   */\n      dup5\n        /* \"#utility.yul\":11216:11227   */\n      add\n        /* \"#utility.yul\":11210:11228   */\n      mload\n        /* \"#utility.yul\":11253:11255   */\n      dup4\n        /* \"#utility.yul\":11243:11251   */\n      dup2\n        /* \"#utility.yul\":11240:11256   */\n      gt\n        /* \"#utility.yul\":11237:11273   */\n      iszero\n      tag_237\n      jumpi\n        /* \"#utility.yul\":11269:11270   */\n      0x00\n        /* \"#utility.yul\":11266:11267   */\n      dup1\n        /* \"#utility.yul\":11259:11271   */\n      revert\n        /* \"#utility.yul\":11237:11273   */\n    tag_237:\n        /* \"#utility.yul\":11305:11361   */\n      tag_238\n        /* \"#utility.yul\":11353:11360   */\n      dup9\n        /* \"#utility.yul\":11342:11350   */\n      dup3\n        /* \"#utility.yul\":11338:11340   */\n      dup8\n        /* \"#utility.yul\":11334:11351   */\n      add\n        /* \"#utility.yul\":11305:11361   */\n      tag_144\n      jump\t// in\n    tag_238:\n        /* \"#utility.yul\":11289:11303   */\n      swap2\n      dup4\n      add\n        /* \"#utility.yul\":11282:11362   */\n      swap2\n      swap1\n      swap2\n      mstore\n      pop\n        /* \"#utility.yul\":11293:11298   */\n      swap6\n        /* \"#utility.yul\":9210:11392   */\n      swap5\n      pop\n      pop\n      pop\n      pop\n      pop\n      jump\t// out\n    stop\n    data_98ee57057fe0a523e70b51608fd55a37ff53d47c3b8dac495a5f45d45157392f 8e1604a838d0f1a9b2cda14a099e4ceb08e966cc6e05e8296f67b02d61a79f09\n\n    auxdata: 0xa26469706673582212202e6edfc5465f4d321b1c6ffedc03611a78ac5cb174daffb2f3c27af97d14a28264736f6c63430008110033\n}\n",
				"bytecode": {
					"linkReferences": {},
					"object": "608060405234801561001057600080fd5b50604051610f33380380610f3383398101604081905261002f916100a1565b60008054336001600160a01b0319918216179091556002805482166001600160a01b03948516908117909155600180548316909117905560048054821692909316918217909255600380549092161790556100d4565b80516001600160a01b038116811461009c57600080fd5b919050565b600080604083850312156100b457600080fd5b6100bd83610085565b91506100cb60208401610085565b90509250929050565b610e50806100e36000396000f3fe608060405234801561001057600080fd5b50600436106100625760003560e01c806383197ef0146100675780638423f1b1146100715780638da5cb5b1461009a578063ec40a59b146100b5578063f2fde38b146100cd578063ffc1e78a146100e0575b600080fd5b61006f6100f3565b005b61008461007f366004610875565b6100fe565b6040516100919190610906565b60405180910390f35b6000546040516001600160a01b039091168152602001610091565b6100bd610443565b6040519015158152602001610091565b61006f6100db36600461097d565b6104e0565b6100bd6100ee366004610a33565b61055e565b6100fb6106ec565b30ff5b6060600060015b6003546001600160a01b031660405163fd82e9dd60e01b8152600080516020610dfb83398151915260048201526001600160a01b03919091169063fd82e9dd90602401602060405180830381865afa158015610165573d6000803e3d6000fd5b505050506040513d601f19601f820116820180604052508101906101899190610abd565b811161024b57836101a26003546001600160a01b031690565b60405163c78a674160e01b815260048101849052600080516020610dfb83398151915260248201526001600160a01b03919091169063c78a674190604401600060405180830381865afa1580156101fd573d6000803e3d6000fd5b505050506040513d6000823e601f3d908101601f191682016040526102259190810190610b23565b5103610239578161023581610bc6565b9250505b8061024381610bc6565b915050610105565b5060008167ffffffffffffffff8111156102675761026761099a565b6040519080825280602002602001820160405280156102c357816020015b6102b06040518060800160405280600081526020016000815260200160008152602001606081525090565b8152602001906001900390816102855790505b509050600060015b6003546001600160a01b031660405163fd82e9dd60e01b8152600080516020610dfb83398151915260048201526001600160a01b03919091169063fd82e9dd90602401602060405180830381865afa15801561032b573d6000803e3d6000fd5b505050506040513d601f19601f8201168201806040525081019061034f9190610abd565b81116104395760006103696003546001600160a01b031690565b60405163c78a674160e01b815260048101849052600080516020610dfb83398151915260248201526001600160a01b03919091169063c78a674190604401600060405180830381865afa1580156103c4573d6000803e3d6000fd5b505050506040513d6000823e601f3d908101601f191682016040526103ec9190810190610b23565b905086816000015103610426578084848151811061040c5761040c610bed565b6020026020010181905250828061042290610bc6565b9350505b508061043181610bc6565b9150506102cb565b5090949350505050565b60015460405163d32a04c760e01b8152336004820152600080516020610dfb833981519152602482015260009182916001600160a01b039091169063d32a04c790604401602060405180830381865afa1580156104a4573d6000803e3d6000fd5b505050506040513d601f19601f820116820180604052508101906104c89190610abd565b905080156104d857600191505090565b600091505090565b6104e86106ec565b6001600160a01b0381166105525760405162461bcd60e51b815260206004820152602660248201527f4f776e61626c653a206e6577206f776e657220697320746865207a65726f206160448201526564647265737360d01b60648201526084015b60405180910390fd5b61055b81610757565b50565b600082610569610443565b6105d45760405162461bcd60e51b815260206004820152603660248201527f4c697374456d706c6f796565437572736f723a2041646472657373206e6f742060448201527518995b1bdb99dcc81d1bc81d1a19481858d8dbdd5b9d60521b6064820152608401610549565b6105dd816107a7565b6106415760405162461bcd60e51b815260206004820152602f60248201527f4c697374456d706c6f796565437572736f723a206964206973206e6f7420626560448201526e6c6f6e6720746f206164647265737360881b6064820152608401610549565b6040805160808101825285815260006020820152428183015260608101859052600354915163c1444e6960e01b815290916001600160a01b03169063c1444e69906106a0908490600080516020610dfb83398151915290600401610c03565b6020604051808303816000875af11580156106bf573d6000803e3d6000fd5b505050506040513d601f19601f820116820180604052508101906106e39190610c25565b95945050505050565b336106ff6000546001600160a01b031690565b6001600160a01b0316146107555760405162461bcd60e51b815260206004820181905260248201527f4f776e61626c653a2063616c6c6572206973206e6f7420746865206f776e65726044820152606401610549565b565b600080546001600160a01b038381166001600160a01b0319831681178455604051919092169283917f8be0079c531659141344cd1fd0a4f28419497f9722a3daafe3b4186f6b6457e09190a35050565b60015460405163c78a674160e01b815260048101839052600080516020610dfb833981519152602482015260009182916001600160a01b039091169063c78a674190604401600060405180830381865afa158015610809573d6000803e3d6000fd5b505050506040513d6000823e601f3d908101601f191682016040526108319190810190610c57565b9050610841816060015133610848565b9392505050565b6000816001600160a01b0316836001600160a01b03160361086b5750600161086f565b5060005b92915050565b60006020828403121561088757600080fd5b5035919050565b60005b838110156108a9578181015183820152602001610891565b50506000910152565b805182526020810151602083015260408101516040830152600060608201516080606085015280518060808601526108f18160a087016020850161088e565b601f01601f19169390930160a0019392505050565b6000602080830181845280855180835260408601915060408160051b870101925083870160005b8281101561095b57603f198886030184526109498583516108b2565b9450928501929085019060010161092d565b5092979650505050505050565b6001600160a01b038116811461055b57600080fd5b60006020828403121561098f57600080fd5b813561084181610968565b634e487b7160e01b600052604160045260246000fd5b604051610180810167ffffffffffffffff811182821017156109d4576109d461099a565b60405290565b604051601f8201601f1916810167ffffffffffffffff81118282101715610a0357610a0361099a565b604052919050565b600067ffffffffffffffff821115610a2557610a2561099a565b50601f01601f191660200190565b60008060408385031215610a4657600080fd5b82359150602083013567ffffffffffffffff811115610a6457600080fd5b8301601f81018513610a7557600080fd5b8035610a88610a8382610a0b565b6109da565b818152866020838501011115610a9d57600080fd5b816020840160208301376000602083830101528093505050509250929050565b600060208284031215610acf57600080fd5b5051919050565b600082601f830112610ae757600080fd5b8151610af5610a8382610a0b565b818152846020838601011115610b0a57600080fd5b610b1b82602083016020870161088e565b949350505050565b600060208284031215610b3557600080fd5b815167ffffffffffffffff80821115610b4d57600080fd5b9083019060808286031215610b6157600080fd5b604051608081018181108382111715610b7c57610b7c61099a565b8060405250825181526020830151602082015260408301516040820152606083015182811115610bab57600080fd5b610bb787828601610ad6565b60608301525095945050505050565b600060018201610be657634e487b7160e01b600052601160045260246000fd5b5060010190565b634e487b7160e01b600052603260045260246000fd5b604081526000610c1660408301856108b2565b90508260208301529392505050565b600060208284031215610c3757600080fd5b8151801515811461084157600080fd5b8051610c5281610968565b919050565b600060208284031215610c6957600080fd5b815167ffffffffffffffff80821115610c8157600080fd5b908301906101808286031215610c9657600080fd5b610c9e6109b0565b825181526020830151602082015260408301516040820152610cc260608401610c47565b6060820152608083015182811115610cd957600080fd5b610ce587828601610ad6565b60808301525060a083015182811115610cfd57600080fd5b610d0987828601610ad6565b60a08301525060c083015182811115610d2157600080fd5b610d2d87828601610ad6565b60c08301525060e083015182811115610d4557600080fd5b610d5187828601610ad6565b60e0830152506101008084015183811115610d6b57600080fd5b610d7788828701610ad6565b8284015250506101208084015183811115610d9157600080fd5b610d9d88828701610ad6565b8284015250506101408084015183811115610db757600080fd5b610dc388828701610ad6565b8284015250506101608084015183811115610ddd57600080fd5b610de988828701610ad6565b91830191909152509594505050505056fe8e1604a838d0f1a9b2cda14a099e4ceb08e966cc6e05e8296f67b02d61a79f09a26469706673582212202e6edfc5465f4d321b1c6ffedc03611a78ac5cb174daffb2f3c27af97d14a28264736f6c63430008110033",
					"opcodes": "PUSH1 0x80 PUSH1 0x40 MSTORE CALLVALUE DUP1 ISZERO PUSH2 0x10 JUMPI PUSH1 0x0 DUP1 REVERT JUMPDEST POP PUSH1 0x40 MLOAD PUSH2 0xF33 CODESIZE SUB DUP1 PUSH2 0xF33 DUP4 CODECOPY DUP2 ADD PUSH1 0x40 DUP2 SWAP1 MSTORE PUSH2 0x2F SWAP2 PUSH2 0xA1 JUMP JUMPDEST PUSH1 0x0 DUP1 SLOAD CALLER PUSH1 0x1 PUSH1 0x1 PUSH1 0xA0 SHL SUB NOT SWAP2 DUP3 AND OR SWAP1 SWAP2 SSTORE PUSH1 0x2 DUP1 SLOAD DUP3 AND PUSH1 0x1 PUSH1 0x1 PUSH1 0xA0 SHL SUB SWAP5 DUP6 AND SWAP1 DUP2 OR SWAP1 SWAP2 SSTORE PUSH1 0x1 DUP1 SLOAD DUP4 AND SWAP1 SWAP2 OR SWAP1 SSTORE PUSH1 0x4 DUP1 SLOAD DUP3 AND SWAP3 SWAP1 SWAP4 AND SWAP2 DUP3 OR SWAP1 SWAP3 SSTORE PUSH1 0x3 DUP1 SLOAD SWAP1 SWAP3 AND OR SWAP1 SSTORE PUSH2 0xD4 JUMP JUMPDEST DUP1 MLOAD PUSH1 0x1 PUSH1 0x1 PUSH1 0xA0 SHL SUB DUP2 AND DUP2 EQ PUSH2 0x9C JUMPI PUSH1 0x0 DUP1 REVERT JUMPDEST SWAP2 SWAP1 POP JUMP JUMPDEST PUSH1 0x0 DUP1 PUSH1 0x40 DUP4 DUP6 SUB SLT ISZERO PUSH2 0xB4 JUMPI PUSH1 0x0 DUP1 REVERT JUMPDEST PUSH2 0xBD DUP4 PUSH2 0x85 JUMP JUMPDEST SWAP2 POP PUSH2 0xCB PUSH1 0x20 DUP5 ADD PUSH2 0x85 JUMP JUMPDEST SWAP1 POP SWAP3 POP SWAP3 SWAP1 POP JUMP JUMPDEST PUSH2 0xE50 DUP1 PUSH2 0xE3 PUSH1 0x0 CODECOPY PUSH1 0x0 RETURN INVALID PUSH1 0x80 PUSH1 0x40 MSTORE CALLVALUE DUP1 ISZERO PUSH2 0x10 JUMPI PUSH1 0x0 DUP1 REVERT JUMPDEST POP PUSH1 0x4 CALLDATASIZE LT PUSH2 0x62 JUMPI PUSH1 0x0 CALLDATALOAD PUSH1 0xE0 SHR DUP1 PUSH4 0x83197EF0 EQ PUSH2 0x67 JUMPI DUP1 PUSH4 0x8423F1B1 EQ PUSH2 0x71 JUMPI DUP1 PUSH4 0x8DA5CB5B EQ PUSH2 0x9A JUMPI DUP1 PUSH4 0xEC40A59B EQ PUSH2 0xB5 JUMPI DUP1 PUSH4 0xF2FDE38B EQ PUSH2 0xCD JUMPI DUP1 PUSH4 0xFFC1E78A EQ PUSH2 0xE0 JUMPI JUMPDEST PUSH1 0x0 DUP1 REVERT JUMPDEST PUSH2 0x6F PUSH2 0xF3 JUMP JUMPDEST STOP JUMPDEST PUSH2 0x84 PUSH2 0x7F CALLDATASIZE PUSH1 0x4 PUSH2 0x875 JUMP JUMPDEST PUSH2 0xFE JUMP JUMPDEST PUSH1 0x40 MLOAD PUSH2 0x91 SWAP2 SWAP1 PUSH2 0x906 JUMP JUMPDEST PUSH1 0x40 MLOAD DUP1 SWAP2 SUB SWAP1 RETURN JUMPDEST PUSH1 0x0 SLOAD PUSH1 0x40 MLOAD PUSH1 0x1 PUSH1 0x1 PUSH1 0xA0 SHL SUB SWAP1 SWAP2 AND DUP2 MSTORE PUSH1 0x20 ADD PUSH2 0x91 JUMP JUMPDEST PUSH2 0xBD PUSH2 0x443 JUMP JUMPDEST PUSH1 0x40 MLOAD SWAP1 ISZERO ISZERO DUP2 MSTORE PUSH1 0x20 ADD PUSH2 0x91 JUMP JUMPDEST PUSH2 0x6F PUSH2 0xDB CALLDATASIZE PUSH1 0x4 PUSH2 0x97D JUMP JUMPDEST PUSH2 0x4E0 JUMP JUMPDEST PUSH2 0xBD PUSH2 0xEE CALLDATASIZE PUSH1 0x4 PUSH2 0xA33 JUMP JUMPDEST PUSH2 0x55E JUMP JUMPDEST PUSH2 0xFB PUSH2 0x6EC JUMP JUMPDEST ADDRESS SELFDESTRUCT JUMPDEST PUSH1 0x60 PUSH1 0x0 PUSH1 0x1 JUMPDEST PUSH1 0x3 SLOAD PUSH1 0x1 PUSH1 0x1 PUSH1 0xA0 SHL SUB AND PUSH1 0x40 MLOAD PUSH4 0xFD82E9DD PUSH1 0xE0 SHL DUP2 MSTORE PUSH1 0x0 DUP1 MLOAD PUSH1 0x20 PUSH2 0xDFB DUP4 CODECOPY DUP2 MLOAD SWAP2 MSTORE PUSH1 0x4 DUP3 ADD MSTORE PUSH1 0x1 PUSH1 0x1 PUSH1 0xA0 SHL SUB SWAP2 SWAP1 SWAP2 AND SWAP1 PUSH4 0xFD82E9DD SWAP1 PUSH1 0x24 ADD PUSH1 0x20 PUSH1 0x40 MLOAD DUP1 DUP4 SUB DUP2 DUP7 GAS STATICCALL ISZERO DUP1 ISZERO PUSH2 0x165 JUMPI RETURNDATASIZE PUSH1 0x0 DUP1 RETURNDATACOPY RETURNDATASIZE PUSH1 0x0 REVERT JUMPDEST POP POP POP POP PUSH1 0x40 MLOAD RETURNDATASIZE PUSH1 0x1F NOT PUSH1 0x1F DUP3 ADD AND DUP3 ADD DUP1 PUSH1 0x40 MSTORE POP DUP2 ADD SWAP1 PUSH2 0x189 SWAP2 SWAP1 PUSH2 0xABD JUMP JUMPDEST DUP2 GT PUSH2 0x24B JUMPI DUP4 PUSH2 0x1A2 PUSH1 0x3 SLOAD PUSH1 0x1 PUSH1 0x1 PUSH1 0xA0 SHL SUB AND SWAP1 JUMP JUMPDEST PUSH1 0x40 MLOAD PUSH4 0xC78A6741 PUSH1 0xE0 SHL DUP2 MSTORE PUSH1 0x4 DUP2 ADD DUP5 SWAP1 MSTORE PUSH1 0x0 DUP1 MLOAD PUSH1 0x20 PUSH2 0xDFB DUP4 CODECOPY DUP2 MLOAD SWAP2 MSTORE PUSH1 0x24 DUP3 ADD MSTORE PUSH1 0x1 PUSH1 0x1 PUSH1 0xA0 SHL SUB SWAP2 SWAP1 SWAP2 AND SWAP1 PUSH4 0xC78A6741 SWAP1 PUSH1 0x44 ADD PUSH1 0x0 PUSH1 0x40 MLOAD DUP1 DUP4 SUB DUP2 DUP7 GAS STATICCALL ISZERO DUP1 ISZERO PUSH2 0x1FD JUMPI RETURNDATASIZE PUSH1 0x0 DUP1 RETURNDATACOPY RETURNDATASIZE PUSH1 0x0 REVERT JUMPDEST POP POP POP POP PUSH1 0x40 MLOAD RETURNDATASIZE PUSH1 0x0 DUP3 RETURNDATACOPY PUSH1 0x1F RETURNDATASIZE SWAP1 DUP2 ADD PUSH1 0x1F NOT AND DUP3 ADD PUSH1 0x40 MSTORE PUSH2 0x225 SWAP2 SWAP1 DUP2 ADD SWAP1 PUSH2 0xB23 JUMP JUMPDEST MLOAD SUB PUSH2 0x239 JUMPI DUP2 PUSH2 0x235 DUP2 PUSH2 0xBC6 JUMP JUMPDEST SWAP3 POP POP JUMPDEST DUP1 PUSH2 0x243 DUP2 PUSH2 0xBC6 JUMP JUMPDEST SWAP2 POP POP PUSH2 0x105 JUMP JUMPDEST POP PUSH1 0x0 DUP2 PUSH8 0xFFFFFFFFFFFFFFFF DUP2 GT ISZERO PUSH2 0x267 JUMPI PUSH2 0x267 PUSH2 0x99A JUMP JUMPDEST PUSH1 0x40 MLOAD SWAP1 DUP1 DUP3 MSTORE DUP1 PUSH1 0x20 MUL PUSH1 0x20 ADD DUP3 ADD PUSH1 0x40 MSTORE DUP1 ISZERO PUSH2 0x2C3 JUMPI DUP2 PUSH1 0x20 ADD JUMPDEST PUSH2 0x2B0 PUSH1 0x40 MLOAD DUP1 PUSH1 0x80 ADD PUSH1 0x40 MSTORE DUP1 PUSH1 0x0 DUP2 MSTORE PUSH1 0x20 ADD PUSH1 0x0 DUP2 MSTORE PUSH1 0x20 ADD PUSH1 0x0 DUP2 MSTORE PUSH1 0x20 ADD PUSH1 0x60 DUP2 MSTORE POP SWAP1 JUMP JUMPDEST DUP2 MSTORE PUSH1 0x20 ADD SWAP1 PUSH1 0x1 SWAP1 SUB SWAP1 DUP2 PUSH2 0x285 JUMPI SWAP1 POP JUMPDEST POP SWAP1 POP PUSH1 0x0 PUSH1 0x1 JUMPDEST PUSH1 0x3 SLOAD PUSH1 0x1 PUSH1 0x1 PUSH1 0xA0 SHL SUB AND PUSH1 0x40 MLOAD PUSH4 0xFD82E9DD PUSH1 0xE0 SHL DUP2 MSTORE PUSH1 0x0 DUP1 MLOAD PUSH1 0x20 PUSH2 0xDFB DUP4 CODECOPY DUP2 MLOAD SWAP2 MSTORE PUSH1 0x4 DUP3 ADD MSTORE PUSH1 0x1 PUSH1 0x1 PUSH1 0xA0 SHL SUB SWAP2 SWAP1 SWAP2 AND SWAP1 PUSH4 0xFD82E9DD SWAP1 PUSH1 0x24 ADD PUSH1 0x20 PUSH1 0x40 MLOAD DUP1 DUP4 SUB DUP2 DUP7 GAS STATICCALL ISZERO DUP1 ISZERO PUSH2 0x32B JUMPI RETURNDATASIZE PUSH1 0x0 DUP1 RETURNDATACOPY RETURNDATASIZE PUSH1 0x0 REVERT JUMPDEST POP POP POP POP PUSH1 0x40 MLOAD RETURNDATASIZE PUSH1 0x1F NOT PUSH1 0x1F DUP3 ADD AND DUP3 ADD DUP1 PUSH1 0x40 MSTORE POP DUP2 ADD SWAP1 PUSH2 0x34F SWAP2 SWAP1 PUSH2 0xABD JUMP JUMPDEST DUP2 GT PUSH2 0x439 JUMPI PUSH1 0x0 PUSH2 0x369 PUSH1 0x3 SLOAD PUSH1 0x1 PUSH1 0x1 PUSH1 0xA0 SHL SUB AND SWAP1 JUMP JUMPDEST PUSH1 0x40 MLOAD PUSH4 0xC78A6741 PUSH1 0xE0 SHL DUP2 MSTORE PUSH1 0x4 DUP2 ADD DUP5 SWAP1 MSTORE PUSH1 0x0 DUP1 MLOAD PUSH1 0x20 PUSH2 0xDFB DUP4 CODECOPY DUP2 MLOAD SWAP2 MSTORE PUSH1 0x24 DUP3 ADD MSTORE PUSH1 0x1 PUSH1 0x1 PUSH1 0xA0 SHL SUB SWAP2 SWAP1 SWAP2 AND SWAP1 PUSH4 0xC78A6741 SWAP1 PUSH1 0x44 ADD PUSH1 0x0 PUSH1 0x40 MLOAD DUP1 DUP4 SUB DUP2 DUP7 GAS STATICCALL ISZERO DUP1 ISZERO PUSH2 0x3C4 JUMPI RETURNDATASIZE PUSH1 0x0 DUP1 RETURNDATACOPY RETURNDATASIZE PUSH1 0x0 REVERT JUMPDEST POP POP POP POP PUSH1 0x40 MLOAD RETURNDATASIZE PUSH1 0x0 DUP3 RETURNDATACOPY PUSH1 0x1F RETURNDATASIZE SWAP1 DUP2 ADD PUSH1 0x1F NOT AND DUP3 ADD PUSH1 0x40 MSTORE PUSH2 0x3EC SWAP2 SWAP1 DUP2 ADD SWAP1 PUSH2 0xB23 JUMP JUMPDEST SWAP1 POP DUP7 DUP2 PUSH1 0x0 ADD MLOAD SUB PUSH2 0x426 JUMPI DUP1 DUP5 DUP5 DUP2 MLOAD DUP2 LT PUSH2 0x40C JUMPI PUSH2 0x40C PUSH2 0xBED JUMP JUMPDEST PUSH1 0x20 MUL PUSH1 0x20 ADD ADD DUP2 SWAP1 MSTORE POP DUP3 DUP1 PUSH2 0x422 SWAP1 PUSH2 0xBC6 JUMP JUMPDEST SWAP4 POP POP JUMPDEST POP DUP1 PUSH2 0x431 DUP2 PUSH2 0xBC6 JUMP JUMPDEST SWAP2 POP POP PUSH2 0x2CB JUMP JUMPDEST POP SWAP1 SWAP5 SWAP4 POP POP POP POP JUMP JUMPDEST PUSH1 0x1 SLOAD PUSH1 0x40 MLOAD PUSH4 0xD32A04C7 PUSH1 0xE0 SHL DUP2 MSTORE CALLER PUSH1 0x4 DUP3 ADD MSTORE PUSH1 0x0 DUP1 MLOAD PUSH1 0x20 PUSH2 0xDFB DUP4 CODECOPY DUP2 MLOAD SWAP2 MSTORE PUSH1 0x24 DUP3 ADD MSTORE PUSH1 0x0 SWAP2 DUP3 SWAP2 PUSH1 0x1 PUSH1 0x1 PUSH1 0xA0 SHL SUB SWAP1 SWAP2 AND SWAP1 PUSH4 0xD32A04C7 SWAP1 PUSH1 0x44 ADD PUSH1 0x20 PUSH1 0x40 MLOAD DUP1 DUP4 SUB DUP2 DUP7 GAS STATICCALL ISZERO DUP1 ISZERO PUSH2 0x4A4 JUMPI RETURNDATASIZE PUSH1 0x0 DUP1 RETURNDATACOPY RETURNDATASIZE PUSH1 0x0 REVERT JUMPDEST POP POP POP POP PUSH1 0x40 MLOAD RETURNDATASIZE PUSH1 0x1F NOT PUSH1 0x1F DUP3 ADD AND DUP3 ADD DUP1 PUSH1 0x40 MSTORE POP DUP2 ADD SWAP1 PUSH2 0x4C8 SWAP2 SWAP1 PUSH2 0xABD JUMP JUMPDEST SWAP1 POP DUP1 ISZERO PUSH2 0x4D8 JUMPI PUSH1 0x1 SWAP2 POP POP SWAP1 JUMP JUMPDEST PUSH1 0x0 SWAP2 POP POP SWAP1 JUMP JUMPDEST PUSH2 0x4E8 PUSH2 0x6EC JUMP JUMPDEST PUSH1 0x1 PUSH1 0x1 PUSH1 0xA0 SHL SUB DUP2 AND PUSH2 0x552 JUMPI PUSH1 0x40 MLOAD PUSH3 0x461BCD PUSH1 0xE5 SHL DUP2 MSTORE PUSH1 0x20 PUSH1 0x4 DUP3 ADD MSTORE PUSH1 0x26 PUSH1 0x24 DUP3 ADD MSTORE PUSH32 0x4F776E61626C653A206E6577206F776E657220697320746865207A65726F2061 PUSH1 0x44 DUP3 ADD MSTORE PUSH6 0x646472657373 PUSH1 0xD0 SHL PUSH1 0x64 DUP3 ADD MSTORE PUSH1 0x84 ADD JUMPDEST PUSH1 0x40 MLOAD DUP1 SWAP2 SUB SWAP1 REVERT JUMPDEST PUSH2 0x55B DUP2 PUSH2 0x757 JUMP JUMPDEST POP JUMP JUMPDEST PUSH1 0x0 DUP3 PUSH2 0x569 PUSH2 0x443 JUMP JUMPDEST PUSH2 0x5D4 JUMPI PUSH1 0x40 MLOAD PUSH3 0x461BCD PUSH1 0xE5 SHL DUP2 MSTORE PUSH1 0x20 PUSH1 0x4 DUP3 ADD MSTORE PUSH1 0x36 PUSH1 0x24 DUP3 ADD MSTORE PUSH32 0x4C697374456D706C6F796565437572736F723A2041646472657373206E6F7420 PUSH1 0x44 DUP3 ADD MSTORE PUSH22 0x18995B1BDB99DCC81D1BC81D1A19481858D8DBDD5B9D PUSH1 0x52 SHL PUSH1 0x64 DUP3 ADD MSTORE PUSH1 0x84 ADD PUSH2 0x549 JUMP JUMPDEST PUSH2 0x5DD DUP2 PUSH2 0x7A7 JUMP JUMPDEST PUSH2 0x641 JUMPI PUSH1 0x40 MLOAD PUSH3 0x461BCD PUSH1 0xE5 SHL DUP2 MSTORE PUSH1 0x20 PUSH1 0x4 DUP3 ADD MSTORE PUSH1 0x2F PUSH1 0x24 DUP3 ADD MSTORE PUSH32 0x4C697374456D706C6F796565437572736F723A206964206973206E6F74206265 PUSH1 0x44 DUP3 ADD MSTORE PUSH15 0x6C6F6E6720746F2061646472657373 PUSH1 0x88 SHL PUSH1 0x64 DUP3 ADD MSTORE PUSH1 0x84 ADD PUSH2 0x549 JUMP JUMPDEST PUSH1 0x40 DUP1 MLOAD PUSH1 0x80 DUP2 ADD DUP3 MSTORE DUP6 DUP2 MSTORE PUSH1 0x0 PUSH1 0x20 DUP3 ADD MSTORE TIMESTAMP DUP2 DUP4 ADD MSTORE PUSH1 0x60 DUP2 ADD DUP6 SWAP1 MSTORE PUSH1 0x3 SLOAD SWAP2 MLOAD PUSH4 0xC1444E69 PUSH1 0xE0 SHL DUP2 MSTORE SWAP1 SWAP2 PUSH1 0x1 PUSH1 0x1 PUSH1 0xA0 SHL SUB AND SWAP1 PUSH4 0xC1444E69 SWAP1 PUSH2 0x6A0 SWAP1 DUP5 SWAP1 PUSH1 0x0 DUP1 MLOAD PUSH1 0x20 PUSH2 0xDFB DUP4 CODECOPY DUP2 MLOAD SWAP2 MSTORE SWAP1 PUSH1 0x4 ADD PUSH2 0xC03 JUMP JUMPDEST PUSH1 0x20 PUSH1 0x40 MLOAD DUP1 DUP4 SUB DUP2 PUSH1 0x0 DUP8 GAS CALL ISZERO DUP1 ISZERO PUSH2 0x6BF JUMPI RETURNDATASIZE PUSH1 0x0 DUP1 RETURNDATACOPY RETURNDATASIZE PUSH1 0x0 REVERT JUMPDEST POP POP POP POP PUSH1 0x40 MLOAD RETURNDATASIZE PUSH1 0x1F NOT PUSH1 0x1F DUP3 ADD AND DUP3 ADD DUP1 PUSH1 0x40 MSTORE POP DUP2 ADD SWAP1 PUSH2 0x6E3 SWAP2 SWAP1 PUSH2 0xC25 JUMP JUMPDEST SWAP6 SWAP5 POP POP POP POP POP JUMP JUMPDEST CALLER PUSH2 0x6FF PUSH1 0x0 SLOAD PUSH1 0x1 PUSH1 0x1 PUSH1 0xA0 SHL SUB AND SWAP1 JUMP JUMPDEST PUSH1 0x1 PUSH1 0x1 PUSH1 0xA0 SHL SUB AND EQ PUSH2 0x755 JUMPI PUSH1 0x40 MLOAD PUSH3 0x461BCD PUSH1 0xE5 SHL DUP2 MSTORE PUSH1 0x20 PUSH1 0x4 DUP3 ADD DUP2 SWAP1 MSTORE PUSH1 0x24 DUP3 ADD MSTORE PUSH32 0x4F776E61626C653A2063616C6C6572206973206E6F7420746865206F776E6572 PUSH1 0x44 DUP3 ADD MSTORE PUSH1 0x64 ADD PUSH2 0x549 JUMP JUMPDEST JUMP JUMPDEST PUSH1 0x0 DUP1 SLOAD PUSH1 0x1 PUSH1 0x1 PUSH1 0xA0 SHL SUB DUP4 DUP2 AND PUSH1 0x1 PUSH1 0x1 PUSH1 0xA0 SHL SUB NOT DUP4 AND DUP2 OR DUP5 SSTORE PUSH1 0x40 MLOAD SWAP2 SWAP1 SWAP3 AND SWAP3 DUP4 SWAP2 PUSH32 0x8BE0079C531659141344CD1FD0A4F28419497F9722A3DAAFE3B4186F6B6457E0 SWAP2 SWAP1 LOG3 POP POP JUMP JUMPDEST PUSH1 0x1 SLOAD PUSH1 0x40 MLOAD PUSH4 0xC78A6741 PUSH1 0xE0 SHL DUP2 MSTORE PUSH1 0x4 DUP2 ADD DUP4 SWAP1 MSTORE PUSH1 0x0 DUP1 MLOAD PUSH1 0x20 PUSH2 0xDFB DUP4 CODECOPY DUP2 MLOAD SWAP2 MSTORE PUSH1 0x24 DUP3 ADD MSTORE PUSH1 0x0 SWAP2 DUP3 SWAP2 PUSH1 0x1 PUSH1 0x1 PUSH1 0xA0 SHL SUB SWAP1 SWAP2 AND SWAP1 PUSH4 0xC78A6741 SWAP1 PUSH1 0x44 ADD PUSH1 0x0 PUSH1 0x40 MLOAD DUP1 DUP4 SUB DUP2 DUP7 GAS STATICCALL ISZERO DUP1 ISZERO PUSH2 0x809 JUMPI RETURNDATASIZE PUSH1 0x0 DUP1 RETURNDATACOPY RETURNDATASIZE PUSH1 0x0 REVERT JUMPDEST POP POP POP POP PUSH1 0x40 MLOAD RETURNDATASIZE PUSH1 0x0 DUP3 RETURNDATACOPY PUSH1 0x1F RETURNDATASIZE SWAP1 DUP2 ADD PUSH1 0x1F NOT AND DUP3 ADD PUSH1 0x40 MSTORE PUSH2 0x831 SWAP2 SWAP1 DUP2 ADD SWAP1 PUSH2 0xC57 JUMP JUMPDEST SWAP1 POP PUSH2 0x841 DUP2 PUSH1 0x60 ADD MLOAD CALLER PUSH2 0x848 JUMP JUMPDEST SWAP4 SWAP3 POP POP POP JUMP JUMPDEST PUSH1 0x0 DUP2 PUSH1 0x1 PUSH1 0x1 PUSH1 0xA0 SHL SUB AND DUP4 PUSH1 0x1 PUSH1 0x1 PUSH1 0xA0 SHL SUB AND SUB PUSH2 0x86B JUMPI POP PUSH1 0x1 PUSH2 0x86F JUMP JUMPDEST POP PUSH1 0x0 JUMPDEST SWAP3 SWAP2 POP POP JUMP JUMPDEST PUSH1 0x0 PUSH1 0x20 DUP3 DUP5 SUB SLT ISZERO PUSH2 0x887 JUMPI PUSH1 0x0 DUP1 REVERT JUMPDEST POP CALLDATALOAD SWAP2 SWAP1 POP JUMP JUMPDEST PUSH1 0x0 JUMPDEST DUP4 DUP2 LT ISZERO PUSH2 0x8A9 JUMPI DUP2 DUP2 ADD MLOAD DUP4 DUP3 ADD MSTORE PUSH1 0x20 ADD PUSH2 0x891 JUMP JUMPDEST POP POP PUSH1 0x0 SWAP2 ADD MSTORE JUMP JUMPDEST DUP1 MLOAD DUP3 MSTORE PUSH1 0x20 DUP2 ADD MLOAD PUSH1 0x20 DUP4 ADD MSTORE PUSH1 0x40 DUP2 ADD MLOAD PUSH1 0x40 DUP4 ADD MSTORE PUSH1 0x0 PUSH1 0x60 DUP3 ADD MLOAD PUSH1 0x80 PUSH1 0x60 DUP6 ADD MSTORE DUP1 MLOAD DUP1 PUSH1 0x80 DUP7 ADD MSTORE PUSH2 0x8F1 DUP2 PUSH1 0xA0 DUP8 ADD PUSH1 0x20 DUP6 ADD PUSH2 0x88E JUMP JUMPDEST PUSH1 0x1F ADD PUSH1 0x1F NOT AND SWAP4 SWAP1 SWAP4 ADD PUSH1 0xA0 ADD SWAP4 SWAP3 POP POP POP JUMP JUMPDEST PUSH1 0x0 PUSH1 0x20 DUP1 DUP4 ADD DUP2 DUP5 MSTORE DUP1 DUP6 MLOAD DUP1 DUP4 MSTORE PUSH1 0x40 DUP7 ADD SWAP2 POP PUSH1 0x40 DUP2 PUSH1 0x5 SHL DUP8 ADD ADD SWAP3 POP DUP4 DUP8 ADD PUSH1 0x0 JUMPDEST DUP3 DUP2 LT ISZERO PUSH2 0x95B JUMPI PUSH1 0x3F NOT DUP9 DUP7 SUB ADD DUP5 MSTORE PUSH2 0x949 DUP6 DUP4 MLOAD PUSH2 0x8B2 JUMP JUMPDEST SWAP5 POP SWAP3 DUP6 ADD SWAP3 SWAP1 DUP6 ADD SWAP1 PUSH1 0x1 ADD PUSH2 0x92D JUMP JUMPDEST POP SWAP3 SWAP8 SWAP7 POP POP POP POP POP POP POP JUMP JUMPDEST PUSH1 0x1 PUSH1 0x1 PUSH1 0xA0 SHL SUB DUP2 AND DUP2 EQ PUSH2 0x55B JUMPI PUSH1 0x0 DUP1 REVERT JUMPDEST PUSH1 0x0 PUSH1 0x20 DUP3 DUP5 SUB SLT ISZERO PUSH2 0x98F JUMPI PUSH1 0x0 DUP1 REVERT JUMPDEST DUP2 CALLDATALOAD PUSH2 0x841 DUP2 PUSH2 0x968 JUMP JUMPDEST PUSH4 0x4E487B71 PUSH1 0xE0 SHL PUSH1 0x0 MSTORE PUSH1 0x41 PUSH1 0x4 MSTORE PUSH1 0x24 PUSH1 0x0 REVERT JUMPDEST PUSH1 0x40 MLOAD PUSH2 0x180 DUP2 ADD PUSH8 0xFFFFFFFFFFFFFFFF DUP2 GT DUP3 DUP3 LT OR ISZERO PUSH2 0x9D4 JUMPI PUSH2 0x9D4 PUSH2 0x99A JUMP JUMPDEST PUSH1 0x40 MSTORE SWAP1 JUMP JUMPDEST PUSH1 0x40 MLOAD PUSH1 0x1F DUP3 ADD PUSH1 0x1F NOT AND DUP2 ADD PUSH8 0xFFFFFFFFFFFFFFFF DUP2 GT DUP3 DUP3 LT OR ISZERO PUSH2 0xA03 JUMPI PUSH2 0xA03 PUSH2 0x99A JUMP JUMPDEST PUSH1 0x40 MSTORE SWAP2 SWAP1 POP JUMP JUMPDEST PUSH1 0x0 PUSH8 0xFFFFFFFFFFFFFFFF DUP3 GT ISZERO PUSH2 0xA25 JUMPI PUSH2 0xA25 PUSH2 0x99A JUMP JUMPDEST POP PUSH1 0x1F ADD PUSH1 0x1F NOT AND PUSH1 0x20 ADD SWAP1 JUMP JUMPDEST PUSH1 0x0 DUP1 PUSH1 0x40 DUP4 DUP6 SUB SLT ISZERO PUSH2 0xA46 JUMPI PUSH1 0x0 DUP1 REVERT JUMPDEST DUP3 CALLDATALOAD SWAP2 POP PUSH1 0x20 DUP4 ADD CALLDATALOAD PUSH8 0xFFFFFFFFFFFFFFFF DUP2 GT ISZERO PUSH2 0xA64 JUMPI PUSH1 0x0 DUP1 REVERT JUMPDEST DUP4 ADD PUSH1 0x1F DUP2 ADD DUP6 SGT PUSH2 0xA75 JUMPI PUSH1 0x0 DUP1 REVERT JUMPDEST DUP1 CALLDATALOAD PUSH2 0xA88 PUSH2 0xA83 DUP3 PUSH2 0xA0B JUMP JUMPDEST PUSH2 0x9DA JUMP JUMPDEST DUP2 DUP2 MSTORE DUP7 PUSH1 0x20 DUP4 DUP6 ADD ADD GT ISZERO PUSH2 0xA9D JUMPI PUSH1 0x0 DUP1 REVERT JUMPDEST DUP2 PUSH1 0x20 DUP5 ADD PUSH1 0x20 DUP4 ADD CALLDATACOPY PUSH1 0x0 PUSH1 0x20 DUP4 DUP4 ADD ADD MSTORE DUP1 SWAP4 POP POP POP POP SWAP3 POP SWAP3 SWAP1 POP JUMP JUMPDEST PUSH1 0x0 PUSH1 0x20 DUP3 DUP5 SUB SLT ISZERO PUSH2 0xACF JUMPI PUSH1 0x0 DUP1 REVERT JUMPDEST POP MLOAD SWAP2 SWAP1 POP JUMP JUMPDEST PUSH1 0x0 DUP3 PUSH1 0x1F DUP4 ADD SLT PUSH2 0xAE7 JUMPI PUSH1 0x0 DUP1 REVERT JUMPDEST DUP2 MLOAD PUSH2 0xAF5 PUSH2 0xA83 DUP3 PUSH2 0xA0B JUMP JUMPDEST DUP2 DUP2 MSTORE DUP5 PUSH1 0x20 DUP4 DUP7 ADD ADD GT ISZERO PUSH2 0xB0A JUMPI PUSH1 0x0 DUP1 REVERT JUMPDEST PUSH2 0xB1B DUP3 PUSH1 0x20 DUP4 ADD PUSH1 0x20 DUP8 ADD PUSH2 0x88E JUMP JUMPDEST SWAP5 SWAP4 POP POP POP POP JUMP JUMPDEST PUSH1 0x0 PUSH1 0x20 DUP3 DUP5 SUB SLT ISZERO PUSH2 0xB35 JUMPI PUSH1 0x0 DUP1 REVERT JUMPDEST DUP2 MLOAD PUSH8 0xFFFFFFFFFFFFFFFF DUP1 DUP3 GT ISZERO PUSH2 0xB4D JUMPI PUSH1 0x0 DUP1 REVERT JUMPDEST SWAP1 DUP4 ADD SWAP1 PUSH1 0x80 DUP3 DUP7 SUB SLT ISZERO PUSH2 0xB61 JUMPI PUSH1 0x0 DUP1 REVERT JUMPDEST PUSH1 0x40 MLOAD PUSH1 0x80 DUP2 ADD DUP2 DUP2 LT DUP4 DUP3 GT OR ISZERO PUSH2 0xB7C JUMPI PUSH2 0xB7C PUSH2 0x99A JUMP JUMPDEST DUP1 PUSH1 0x40 MSTORE POP DUP3 MLOAD DUP2 MSTORE PUSH1 0x20 DUP4 ADD MLOAD PUSH1 0x20 DUP3 ADD MSTORE PUSH1 0x40 DUP4 ADD MLOAD PUSH1 0x40 DUP3 ADD MSTORE PUSH1 0x60 DUP4 ADD MLOAD DUP3 DUP2 GT ISZERO PUSH2 0xBAB JUMPI PUSH1 0x0 DUP1 REVERT JUMPDEST PUSH2 0xBB7 DUP8 DUP3 DUP7 ADD PUSH2 0xAD6 JUMP JUMPDEST PUSH1 0x60 DUP4 ADD MSTORE POP SWAP6 SWAP5 POP POP POP POP POP JUMP JUMPDEST PUSH1 0x0 PUSH1 0x1 DUP3 ADD PUSH2 0xBE6 JUMPI PUSH4 0x4E487B71 PUSH1 0xE0 SHL PUSH1 0x0 MSTORE PUSH1 0x11 PUSH1 0x4 MSTORE PUSH1 0x24 PUSH1 0x0 REVERT JUMPDEST POP PUSH1 0x1 ADD SWAP1 JUMP JUMPDEST PUSH4 0x4E487B71 PUSH1 0xE0 SHL PUSH1 0x0 MSTORE PUSH1 0x32 PUSH1 0x4 MSTORE PUSH1 0x24 PUSH1 0x0 REVERT JUMPDEST PUSH1 0x40 DUP2 MSTORE PUSH1 0x0 PUSH2 0xC16 PUSH1 0x40 DUP4 ADD DUP6 PUSH2 0x8B2 JUMP JUMPDEST SWAP1 POP DUP3 PUSH1 0x20 DUP4 ADD MSTORE SWAP4 SWAP3 POP POP POP JUMP JUMPDEST PUSH1 0x0 PUSH1 0x20 DUP3 DUP5 SUB SLT ISZERO PUSH2 0xC37 JUMPI PUSH1 0x0 DUP1 REVERT JUMPDEST DUP2 MLOAD DUP1 ISZERO ISZERO DUP2 EQ PUSH2 0x841 JUMPI PUSH1 0x0 DUP1 REVERT JUMPDEST DUP1 MLOAD PUSH2 0xC52 DUP2 PUSH2 0x968 JUMP JUMPDEST SWAP2 SWAP1 POP JUMP JUMPDEST PUSH1 0x0 PUSH1 0x20 DUP3 DUP5 SUB SLT ISZERO PUSH2 0xC69 JUMPI PUSH1 0x0 DUP1 REVERT JUMPDEST DUP2 MLOAD PUSH8 0xFFFFFFFFFFFFFFFF DUP1 DUP3 GT ISZERO PUSH2 0xC81 JUMPI PUSH1 0x0 DUP1 REVERT JUMPDEST SWAP1 DUP4 ADD SWAP1 PUSH2 0x180 DUP3 DUP7 SUB SLT ISZERO PUSH2 0xC96 JUMPI PUSH1 0x0 DUP1 REVERT JUMPDEST PUSH2 0xC9E PUSH2 0x9B0 JUMP JUMPDEST DUP3 MLOAD DUP2 MSTORE PUSH1 0x20 DUP4 ADD MLOAD PUSH1 0x20 DUP3 ADD MSTORE PUSH1 0x40 DUP4 ADD MLOAD PUSH1 0x40 DUP3 ADD MSTORE PUSH2 0xCC2 PUSH1 0x60 DUP5 ADD PUSH2 0xC47 JUMP JUMPDEST PUSH1 0x60 DUP3 ADD MSTORE PUSH1 0x80 DUP4 ADD MLOAD DUP3 DUP2 GT ISZERO PUSH2 0xCD9 JUMPI PUSH1 0x0 DUP1 REVERT JUMPDEST PUSH2 0xCE5 DUP8 DUP3 DUP7 ADD PUSH2 0xAD6 JUMP JUMPDEST PUSH1 0x80 DUP4 ADD MSTORE POP PUSH1 0xA0 DUP4 ADD MLOAD DUP3 DUP2 GT ISZERO PUSH2 0xCFD JUMPI PUSH1 0x0 DUP1 REVERT JUMPDEST PUSH2 0xD09 DUP8 DUP3 DUP7 ADD PUSH2 0xAD6 JUMP JUMPDEST PUSH1 0xA0 DUP4 ADD MSTORE POP PUSH1 0xC0 DUP4 ADD MLOAD DUP3 DUP2 GT ISZERO PUSH2 0xD21 JUMPI PUSH1 0x0 DUP1 REVERT JUMPDEST PUSH2 0xD2D DUP8 DUP3 DUP7 ADD PUSH2 0xAD6 JUMP JUMPDEST PUSH1 0xC0 DUP4 ADD MSTORE POP PUSH1 0xE0 DUP4 ADD MLOAD DUP3 DUP2 GT ISZERO PUSH2 0xD45 JUMPI PUSH1 0x0 DUP1 REVERT JUMPDEST PUSH2 0xD51 DUP8 DUP3 DUP7 ADD PUSH2 0xAD6 JUMP JUMPDEST PUSH1 0xE0 DUP4 ADD MSTORE POP PUSH2 0x100 DUP1 DUP5 ADD MLOAD DUP4 DUP2 GT ISZERO PUSH2 0xD6B JUMPI PUSH1 0x0 DUP1 REVERT JUMPDEST PUSH2 0xD77 DUP9 DUP3 DUP8 ADD PUSH2 0xAD6 JUMP JUMPDEST DUP3 DUP5 ADD MSTORE POP POP PUSH2 0x120 DUP1 DUP5 ADD MLOAD DUP4 DUP2 GT ISZERO PUSH2 0xD91 JUMPI PUSH1 0x0 DUP1 REVERT JUMPDEST PUSH2 0xD9D DUP9 DUP3 DUP8 ADD PUSH2 0xAD6 JUMP JUMPDEST DUP3 DUP5 ADD MSTORE POP POP PUSH2 0x140 DUP1 DUP5 ADD MLOAD DUP4 DUP2 GT ISZERO PUSH2 0xDB7 JUMPI PUSH1 0x0 DUP1 REVERT JUMPDEST PUSH2 0xDC3 DUP9 DUP3 DUP8 ADD PUSH2 0xAD6 JUMP JUMPDEST DUP3 DUP5 ADD MSTORE POP POP PUSH2 0x160 DUP1 DUP5 ADD MLOAD DUP4 DUP2 GT ISZERO PUSH2 0xDDD JUMPI PUSH1 0x0 DUP1 REVERT JUMPDEST PUSH2 0xDE9 DUP9 DUP3 DUP8 ADD PUSH2 0xAD6 JUMP JUMPDEST SWAP2 DUP4 ADD SWAP2 SWAP1 SWAP2 MSTORE POP SWAP6 SWAP5 POP POP POP POP POP JUMP INVALID DUP15 AND DIV 0xA8 CODESIZE 0xD0 CALL 0xA9 0xB2 0xCD LOG1 0x4A MULMOD SWAP15 0x4C 0xEB ADDMOD 0xE9 PUSH7 0xCC6E05E8296F67 0xB0 0x2D PUSH2 0xA79F MULMOD LOG2 PUSH5 0x6970667358 0x22 SLT KECCAK256 0x2E PUSH15 0xDFC5465F4D321B1C6FFEDC03611A78 0xAC 0x5C 0xB1 PUSH21 0xDAFFB2F3C27AF97D14A28264736F6C634300081100 CALLER "
				},
				"gasEstimates": {
					"creation": {
						"codeDepositCost": "732800",
						"executionCost": "infinite",
						"totalCost": "infinite"
					},
					"external": {
						"_checkExistEmployeeAccount()": "infinite",
						"addCV(uint256,string)": "infinite",
						"destroy()": "29912",
						"getListCVByEmployeeId(uint256)": "infinite",
						"owner()": "2323",
						"transferOwnership(address)": "infinite"
					}
				},
				"methodIdentifiers": {
					"_checkExistEmployeeAccount()": "ec40a59b",
					"addCV(uint256,string)": "ffc1e78a",
					"destroy()": "83197ef0",
					"getListCVByEmployeeId(uint256)": "8423f1b1",
					"owner()": "8da5cb5b",
					"transferOwnership(address)": "f2fde38b"
				}
			},
			"storageLayout": {
				"storage": [
					{
						"astId": 4,
						"contract": "controller/employee/cv/CVController.sol:CVController",
						"label": "_owner",
						"offset": 0,
						"slot": "0",
						"type": "t_address"
					},
					{
						"astId": 298,
						"contract": "controller/employee/cv/CVController.sol:CVController",
						"label": "listEmployeeCursor",
						"offset": 0,
						"slot": "1",
						"type": "t_contract(ListEmployee)1127"
					},
					{
						"astId": 300,
						"contract": "controller/employee/cv/CVController.sol:CVController",
						"label": "listEmployeeAddress",
						"offset": 0,
						"slot": "2",
						"type": "t_address"
					},
					{
						"astId": 456,
						"contract": "controller/employee/cv/CVController.sol:CVController",
						"label": "listCVCursor",
						"offset": 0,
						"slot": "3",
						"type": "t_contract(ListCV)1295"
					},
					{
						"astId": 458,
						"contract": "controller/employee/cv/CVController.sol:CVController",
						"label": "listCVAddress",
						"offset": 0,
						"slot": "4",
						"type": "t_address"
					}
				],
				"types": {
					"t_address": {
						"encoding": "inplace",
						"label": "address",
						"numberOfBytes": "20"
					},
					"t_contract(ListCV)1295": {
						"encoding": "inplace",
						"label": "contract ListCV",
						"numberOfBytes": "20"
					},
					"t_contract(ListEmployee)1127": {
						"encoding": "inplace",
						"label": "contract ListEmployee",
						"numberOfBytes": "20"
					}
				}
			},
			"userdoc": {
				"kind": "user",
				"methods": {},
				"version": 1
			}
		}
	}
}