{
	"database/employee/cv/ListCV.sol": {
		"ListCV": {
			"abi": [
				{
					"inputs": [],
					"stateMutability": "nonpayable",
					"type": "constructor"
				},
				{
					"anonymous": false,
					"inputs": [
						{
							"components": [
								{
									"internalType": "uint256",
									"name": "employeeId",
									"type": "uint256"
								},
								{
									"internalType": "uint256",
									"name": "cvId",
									"type": "uint256"
								},
								{
									"internalType": "uint256",
									"name": "time",
									"type": "uint256"
								},
								{
									"internalType": "string",
									"name": "data",
									"type": "string"
								}
							],
							"indexed": false,
							"internalType": "struct CV",
							"name": "item",
							"type": "tuple"
						}
					],
					"name": "Add",
					"type": "event"
				},
				{
					"anonymous": false,
					"inputs": [
						{
							"indexed": true,
							"internalType": "address",
							"name": "previousOwner",
							"type": "address"
						},
						{
							"indexed": true,
							"internalType": "address",
							"name": "newOwner",
							"type": "address"
						}
					],
					"name": "OwnershipTransferred",
					"type": "event"
				},
				{
					"anonymous": false,
					"inputs": [
						{
							"components": [
								{
									"internalType": "uint256",
									"name": "employeeId",
									"type": "uint256"
								},
								{
									"internalType": "uint256",
									"name": "cvId",
									"type": "uint256"
								},
								{
									"internalType": "uint256",
									"name": "time",
									"type": "uint256"
								},
								{
									"internalType": "string",
									"name": "data",
									"type": "string"
								}
							],
							"indexed": false,
							"internalType": "struct CV",
							"name": "item",
							"type": "tuple"
						}
					],
					"name": "Remove",
					"type": "event"
				},
				{
					"inputs": [
						{
							"components": [
								{
									"internalType": "uint256",
									"name": "employeeId",
									"type": "uint256"
								},
								{
									"internalType": "uint256",
									"name": "cvId",
									"type": "uint256"
								},
								{
									"internalType": "uint256",
									"name": "time",
									"type": "uint256"
								},
								{
									"internalType": "string",
									"name": "data",
									"type": "string"
								}
							],
							"internalType": "struct CV",
							"name": "item",
							"type": "tuple"
						},
						{
							"internalType": "bytes32",
							"name": "secret",
							"type": "bytes32"
						}
					],
					"name": "add",
					"outputs": [
						{
							"internalType": "bool",
							"name": "",
							"type": "bool"
						}
					],
					"stateMutability": "nonpayable",
					"type": "function"
				},
				{
					"inputs": [
						{
							"internalType": "uint256",
							"name": "index",
							"type": "uint256"
						},
						{
							"internalType": "bytes32",
							"name": "secret",
							"type": "bytes32"
						}
					],
					"name": "at",
					"outputs": [
						{
							"components": [
								{
									"internalType": "uint256",
									"name": "employeeId",
									"type": "uint256"
								},
								{
									"internalType": "uint256",
									"name": "cvId",
									"type": "uint256"
								},
								{
									"internalType": "uint256",
									"name": "time",
									"type": "uint256"
								},
								{
									"internalType": "string",
									"name": "data",
									"type": "string"
								}
							],
							"internalType": "struct CV",
							"name": "",
							"type": "tuple"
						}
					],
					"stateMutability": "view",
					"type": "function"
				},
				{
					"inputs": [],
					"name": "destroy",
					"outputs": [],
					"stateMutability": "nonpayable",
					"type": "function"
				},
				{
					"inputs": [
						{
							"internalType": "uint256",
							"name": "cvId",
							"type": "uint256"
						},
						{
							"components": [
								{
									"internalType": "uint256",
									"name": "employeeId",
									"type": "uint256"
								},
								{
									"internalType": "uint256",
									"name": "cvId",
									"type": "uint256"
								},
								{
									"internalType": "uint256",
									"name": "time",
									"type": "uint256"
								},
								{
									"internalType": "string",
									"name": "data",
									"type": "string"
								}
							],
							"internalType": "struct CV",
							"name": "item",
							"type": "tuple"
						},
						{
							"internalType": "bytes32",
							"name": "secret",
							"type": "bytes32"
						}
					],
					"name": "edit",
					"outputs": [
						{
							"internalType": "bool",
							"name": "",
							"type": "bool"
						}
					],
					"stateMutability": "nonpayable",
					"type": "function"
				},
				{
					"inputs": [
						{
							"internalType": "bytes32",
							"name": "secret",
							"type": "bytes32"
						}
					],
					"name": "getLength",
					"outputs": [
						{
							"internalType": "uint256",
							"name": "",
							"type": "uint256"
						}
					],
					"stateMutability": "view",
					"type": "function"
				},
				{
					"inputs": [],
					"name": "owner",
					"outputs": [
						{
							"internalType": "address",
							"name": "",
							"type": "address"
						}
					],
					"stateMutability": "view",
					"type": "function"
				},
				{
					"inputs": [
						{
							"internalType": "address",
							"name": "newOwner",
							"type": "address"
						}
					],
					"name": "transferOwnership",
					"outputs": [],
					"stateMutability": "nonpayable",
					"type": "function"
				}
			],
			"devdoc": {
				"kind": "dev",
				"methods": {
					"owner()": {
						"details": "Returns the address of the current owner."
					},
					"transferOwnership(address)": {
						"details": "Transfers ownership of the contract to a new account (`newOwner`). Can only be called by the current owner."
					}
				},
				"version": 1
			},
			"evm": {
				"assembly": "    /* \"database/employee/cv/ListCV.sol\":307:1733  contract ListCV is Ownable {... */\n  mstore(0x40, 0x80)\n    /* \"database/employee/cv/ListCV.sol\":413:414  0 */\n  0x00\n    /* \"database/employee/cv/ListCV.sol\":381:414  uint256 private autoIncrement = 0 */\n  0x02\n  sstore\n    /* \"database/employee/cv/ListCV.sol\":455:481  constructor() Ownable() {} */\n  callvalue\n  dup1\n  iszero\n  tag_1\n  jumpi\n  0x00\n  dup1\n  revert\ntag_1:\n  pop\n    /* \"abstract/Ownable.sol\":923:929  _owner */\n  0x00\n    /* \"abstract/Ownable.sol\":923:942  _owner = msg.sender */\n  dup1\n  sload\n  not(sub(shl(0xa0, 0x01), 0x01))\n  and\n    /* \"abstract/Ownable.sol\":932:942  msg.sender */\n  caller\n    /* \"abstract/Ownable.sol\":923:942  _owner = msg.sender */\n  or\n  swap1\n  sstore\n    /* \"database/employee/cv/ListCV.sol\":307:1733  contract ListCV is Ownable {... */\n  dataSize(sub_0)\n  dup1\n  dataOffset(sub_0)\n  0x00\n  codecopy\n  0x00\n  return\nstop\n\nsub_0: assembly {\n        /* \"database/employee/cv/ListCV.sol\":307:1733  contract ListCV is Ownable {... */\n      mstore(0x40, 0x80)\n      callvalue\n      dup1\n      iszero\n      tag_1\n      jumpi\n      0x00\n      dup1\n      revert\n    tag_1:\n      pop\n      jumpi(tag_2, lt(calldatasize, 0x04))\n      shr(0xe0, calldataload(0x00))\n      dup1\n      0xc1444e69\n      gt\n      tag_10\n      jumpi\n      dup1\n      0xc1444e69\n      eq\n      tag_6\n      jumpi\n      dup1\n      0xc78a6741\n      eq\n      tag_7\n      jumpi\n      dup1\n      0xf2fde38b\n      eq\n      tag_8\n      jumpi\n      dup1\n      0xfd82e9dd\n      eq\n      tag_9\n      jumpi\n      0x00\n      dup1\n      revert\n    tag_10:\n      dup1\n      0x83197ef0\n      eq\n      tag_3\n      jumpi\n      dup1\n      0x8d8ee77c\n      eq\n      tag_4\n      jumpi\n      dup1\n      0x8da5cb5b\n      eq\n      tag_5\n      jumpi\n    tag_2:\n      0x00\n      dup1\n      revert\n        /* \"abstract/Ownable.sol\":2642:2731  function destroy() public onlyOwner {... */\n    tag_3:\n      tag_11\n      tag_12\n      jump\t// in\n    tag_11:\n      stop\n        /* \"database/employee/cv/ListCV.sol\":1311:1528  function edit(... */\n    tag_4:\n      tag_13\n      tag_14\n      calldatasize\n      0x04\n      tag_15\n      jump\t// in\n    tag_14:\n      tag_16\n      jump\t// in\n    tag_13:\n      mload(0x40)\n        /* \"#utility.yul\":2303:2317   */\n      swap1\n      iszero\n        /* \"#utility.yul\":2296:2318   */\n      iszero\n        /* \"#utility.yul\":2278:2319   */\n      dup2\n      mstore\n        /* \"#utility.yul\":2266:2268   */\n      0x20\n        /* \"#utility.yul\":2251:2269   */\n      add\n        /* \"database/employee/cv/ListCV.sol\":1311:1528  function edit(... */\n    tag_17:\n      mload(0x40)\n      dup1\n      swap2\n      sub\n      swap1\n      return\n        /* \"abstract/Ownable.sol\":1175:1260  function owner() public view virtual returns (address) {... */\n    tag_5:\n        /* \"abstract/Ownable.sol\":1221:1228  address */\n      0x00\n        /* \"abstract/Ownable.sol\":1247:1253  _owner */\n      sload\n        /* \"abstract/Ownable.sol\":1175:1260  function owner() public view virtual returns (address) {... */\n      mload(0x40)\n      sub(shl(0xa0, 0x01), 0x01)\n        /* \"abstract/Ownable.sol\":1247:1253  _owner */\n      swap1\n      swap2\n      and\n        /* \"#utility.yul\":2476:2527   */\n      dup2\n      mstore\n        /* \"#utility.yul\":2464:2466   */\n      0x20\n        /* \"#utility.yul\":2449:2467   */\n      add\n        /* \"abstract/Ownable.sol\":1175:1260  function owner() public view virtual returns (address) {... */\n      tag_17\n        /* \"#utility.yul\":2330:2533   */\n      jump\n        /* \"database/employee/cv/ListCV.sol\":1037:1305  function add(CV memory item, bytes32 secret)... */\n    tag_6:\n      tag_13\n      tag_24\n      calldatasize\n      0x04\n      tag_25\n      jump\t// in\n    tag_24:\n      tag_26\n      jump\t// in\n        /* \"database/employee/cv/ListCV.sol\":1534:1731  function at(uint256 index, bytes32 secret)... */\n    tag_7:\n      tag_28\n      tag_29\n      calldatasize\n      0x04\n      tag_30\n      jump\t// in\n    tag_29:\n      tag_31\n      jump\t// in\n    tag_28:\n      mload(0x40)\n      tag_17\n      swap2\n      swap1\n      tag_33\n      jump\t// in\n        /* \"abstract/Ownable.sol\":2063:2295  function transferOwnership(address newOwner) public virtual onlyOwner {... */\n    tag_8:\n      tag_11\n      tag_35\n      calldatasize\n      0x04\n      tag_36\n      jump\t// in\n    tag_35:\n      tag_37\n      jump\t// in\n        /* \"database/employee/cv/ListCV.sol\":868:1031  function getLength(bytes32 secret)... */\n    tag_9:\n      tag_38\n      tag_39\n      calldatasize\n      0x04\n      tag_40\n      jump\t// in\n    tag_39:\n      tag_41\n      jump\t// in\n    tag_38:\n      mload(0x40)\n        /* \"#utility.yul\":4672:4697   */\n      swap1\n      dup2\n      mstore\n        /* \"#utility.yul\":4660:4662   */\n      0x20\n        /* \"#utility.yul\":4645:4663   */\n      add\n        /* \"database/employee/cv/ListCV.sol\":868:1031  function getLength(bytes32 secret)... */\n      tag_17\n        /* \"#utility.yul\":4526:4703   */\n      jump\n        /* \"abstract/Ownable.sol\":2642:2731  function destroy() public onlyOwner {... */\n    tag_12:\n        /* \"abstract/Ownable.sol\":1068:1081  _checkOwner() */\n      tag_45\n        /* \"abstract/Ownable.sol\":1068:1079  _checkOwner */\n      tag_46\n        /* \"abstract/Ownable.sol\":1068:1081  _checkOwner() */\n      jump\t// in\n    tag_45:\n        /* \"abstract/Ownable.sol\":2717:2721  this */\n      address\n        /* \"abstract/Ownable.sol\":2688:2724  selfdestruct(payable(address(this))) */\n      selfdestruct\n        /* \"database/employee/cv/ListCV.sol\":1311:1528  function edit(... */\n    tag_16:\n        /* \"database/employee/cv/ListCV.sol\":1442:1446  bool */\n      0x00\n        /* \"database/employee/cv/ListCV.sol\":1425:1431  secret */\n      dup2\n      0x00\n      dup1\n      mload\n      0x20\n      data_98ee57057fe0a523e70b51608fd55a37ff53d47c3b8dac495a5f45d45157392f\n      dup4\n      codecopy\n      dup2\n      mload\n      swap2\n      mstore\n        /* \"database/employee/cv/ListCV.sol\":599:620  value == DATABASE_KEY */\n      dup2\n      eq\n        /* \"database/employee/cv/ListCV.sol\":591:658  require(value == DATABASE_KEY, \"Database ListCV: Secret key error\") */\n      tag_49\n      jumpi\n      mload(0x40)\n      shl(0xe5, 0x461bcd)\n      dup2\n      mstore\n      0x04\n      add\n      tag_50\n      swap1\n      tag_51\n      jump\t// in\n    tag_50:\n      mload(0x40)\n      dup1\n      swap2\n      sub\n      swap1\n      revert\n    tag_49:\n        /* \"database/employee/cv/ListCV.sol\":1458:1471  autoIncrement */\n      0x02\n        /* \"database/employee/cv/ListCV.sol\":1458:1473  autoIncrement++ */\n      dup1\n      sload\n      swap1\n        /* \"database/employee/cv/ListCV.sol\":1458:1471  autoIncrement */\n      0x00\n        /* \"database/employee/cv/ListCV.sol\":1458:1473  autoIncrement++ */\n      tag_53\n      dup4\n      tag_54\n      jump\t// in\n    tag_53:\n      swap2\n      swap1\n      pop\n      sstore\n      pop\n        /* \"database/employee/cv/ListCV.sol\":1496:1500  item */\n      dup4\n        /* \"database/employee/cv/ListCV.sol\":1483:1487  list */\n      0x01\n        /* \"database/employee/cv/ListCV.sol\":1483:1493  list[cvId] */\n      0x00\n        /* \"database/employee/cv/ListCV.sol\":1488:1492  cvId */\n      dup8\n        /* \"database/employee/cv/ListCV.sol\":1483:1493  list[cvId] */\n      dup2\n      mstore\n      0x20\n      add\n      swap1\n      dup2\n      mstore\n      0x20\n      add\n      0x00\n      keccak256\n        /* \"database/employee/cv/ListCV.sol\":1483:1500  list[cvId] = item */\n      0x00\n      dup3\n      add\n      mload\n      dup2\n      0x00\n      add\n      sstore\n      0x20\n      dup3\n      add\n      mload\n      dup2\n      0x01\n      add\n      sstore\n      0x40\n      dup3\n      add\n      mload\n      dup2\n      0x02\n      add\n      sstore\n      0x60\n      dup3\n      add\n      mload\n      dup2\n      0x03\n      add\n      swap1\n      dup2\n      tag_55\n      swap2\n      swap1\n      tag_56\n      jump\t// in\n    tag_55:\n      pop\n        /* \"database/employee/cv/ListCV.sol\":1517:1521  true */\n      0x01\n      swap8\n        /* \"database/employee/cv/ListCV.sol\":1311:1528  function edit(... */\n      swap7\n      pop\n      pop\n      pop\n      pop\n      pop\n      pop\n      pop\n      jump\t// out\n        /* \"database/employee/cv/ListCV.sol\":1037:1305  function add(CV memory item, bytes32 secret)... */\n    tag_26:\n        /* \"database/employee/cv/ListCV.sol\":1147:1151  bool */\n      0x00\n        /* \"database/employee/cv/ListCV.sol\":1122:1128  secret */\n      dup2\n      0x00\n      dup1\n      mload\n      0x20\n      data_98ee57057fe0a523e70b51608fd55a37ff53d47c3b8dac495a5f45d45157392f\n      dup4\n      codecopy\n      dup2\n      mload\n      swap2\n      mstore\n        /* \"database/employee/cv/ListCV.sol\":599:620  value == DATABASE_KEY */\n      dup2\n      eq\n        /* \"database/employee/cv/ListCV.sol\":591:658  require(value == DATABASE_KEY, \"Database ListCV: Secret key error\") */\n      tag_59\n      jumpi\n      mload(0x40)\n      shl(0xe5, 0x461bcd)\n      dup2\n      mstore\n      0x04\n      add\n      tag_50\n      swap1\n      tag_51\n      jump\t// in\n    tag_59:\n        /* \"database/employee/cv/ListCV.sol\":1167:1180  autoIncrement */\n      0x02\n        /* \"database/employee/cv/ListCV.sol\":1167:1182  autoIncrement++ */\n      dup1\n      sload\n      swap1\n        /* \"database/employee/cv/ListCV.sol\":1167:1180  autoIncrement */\n      0x00\n        /* \"database/employee/cv/ListCV.sol\":1167:1182  autoIncrement++ */\n      tag_62\n      dup4\n      tag_54\n      jump\t// in\n    tag_62:\n      swap2\n      swap1\n      pop\n      sstore\n      pop\n        /* \"database/employee/cv/ListCV.sol\":1204:1217  autoIncrement */\n      sload(0x02)\n        /* \"database/employee/cv/ListCV.sol\":1192:1196  item */\n      dup5\n        /* \"database/employee/cv/ListCV.sol\":1192:1201  item.cvId */\n      0x20\n      add\n        /* \"database/employee/cv/ListCV.sol\":1192:1217  item.cvId = autoIncrement */\n      dup2\n      dup2\n      mstore\n      pop\n      pop\n        /* \"database/employee/cv/ListCV.sol\":1249:1253  item */\n      dup4\n        /* \"database/employee/cv/ListCV.sol\":1227:1231  list */\n      0x01\n        /* \"database/employee/cv/ListCV.sol\":1227:1246  list[autoIncrement] */\n      0x00\n        /* \"database/employee/cv/ListCV.sol\":1232:1245  autoIncrement */\n      sload(0x02)\n        /* \"database/employee/cv/ListCV.sol\":1227:1246  list[autoIncrement] */\n      dup2\n      mstore\n      0x20\n      add\n      swap1\n      dup2\n      mstore\n      0x20\n      add\n      0x00\n      keccak256\n        /* \"database/employee/cv/ListCV.sol\":1227:1253  list[autoIncrement] = item */\n      0x00\n      dup3\n      add\n      mload\n      dup2\n      0x00\n      add\n      sstore\n      0x20\n      dup3\n      add\n      mload\n      dup2\n      0x01\n      add\n      sstore\n      0x40\n      dup3\n      add\n      mload\n      dup2\n      0x02\n      add\n      sstore\n      0x60\n      dup3\n      add\n      mload\n      dup2\n      0x03\n      add\n      swap1\n      dup2\n      tag_63\n      swap2\n      swap1\n      tag_56\n      jump\t// in\n    tag_63:\n      pop\n      swap1\n      pop\n      pop\n        /* \"database/employee/cv/ListCV.sol\":1268:1277  Add(item) */\n      0xa3be13d0d66ad2a9cc793fa2c8efcab3dc5776a3032ee2cb813702b574c3aaee\n        /* \"database/employee/cv/ListCV.sol\":1272:1276  item */\n      dup5\n        /* \"database/employee/cv/ListCV.sol\":1268:1277  Add(item) */\n      mload(0x40)\n      tag_64\n      swap2\n      swap1\n      tag_33\n      jump\t// in\n    tag_64:\n      mload(0x40)\n      dup1\n      swap2\n      sub\n      swap1\n      log1\n      pop\n        /* \"database/employee/cv/ListCV.sol\":1294:1298  true */\n      0x01\n      swap4\n        /* \"database/employee/cv/ListCV.sol\":1037:1305  function add(CV memory item, bytes32 secret)... */\n      swap3\n      pop\n      pop\n      pop\n      jump\t// out\n        /* \"database/employee/cv/ListCV.sol\":1534:1731  function at(uint256 index, bytes32 secret)... */\n    tag_31:\n        /* \"database/employee/cv/ListCV.sol\":1681:1690  CV memory */\n      tag_65\n      mload(0x40)\n      dup1\n      0x80\n      add\n      0x40\n      mstore\n      dup1\n      0x00\n      dup2\n      mstore\n      0x20\n      add\n      0x00\n      dup2\n      mstore\n      0x20\n      add\n      0x00\n      dup2\n      mstore\n      0x20\n      add\n      0x60\n      dup2\n      mstore\n      pop\n      swap1\n      jump\n    tag_65:\n        /* \"database/employee/cv/ListCV.sol\":1630:1636  secret */\n      dup2\n      0x00\n      dup1\n      mload\n      0x20\n      data_98ee57057fe0a523e70b51608fd55a37ff53d47c3b8dac495a5f45d45157392f\n      dup4\n      codecopy\n      dup2\n      mload\n      swap2\n      mstore\n        /* \"database/employee/cv/ListCV.sol\":599:620  value == DATABASE_KEY */\n      dup2\n      eq\n        /* \"database/employee/cv/ListCV.sol\":591:658  require(value == DATABASE_KEY, \"Database ListCV: Secret key error\") */\n      tag_68\n      jumpi\n      mload(0x40)\n      shl(0xe5, 0x461bcd)\n      dup2\n      mstore\n      0x04\n      add\n      tag_50\n      swap1\n      tag_51\n      jump\t// in\n    tag_68:\n        /* \"database/employee/cv/ListCV.sol\":1657:1662  index */\n      dup4\n        /* \"database/employee/cv/ListCV.sol\":754:759  index */\n      dup1\n        /* \"database/employee/cv/ListCV.sol\":749:750  1 */\n      0x01\n        /* \"database/employee/cv/ListCV.sol\":749:759  1 <= index */\n      gt\n      iszero\n        /* \"database/employee/cv/ListCV.sol\":748:788  (1 <= index) && (index <= autoIncrement) */\n      dup1\n      iszero\n      tag_71\n      jumpi\n      pop\n        /* \"database/employee/cv/ListCV.sol\":774:787  autoIncrement */\n      sload(0x02)\n        /* \"database/employee/cv/ListCV.sol\":765:770  index */\n      dup2\n        /* \"database/employee/cv/ListCV.sol\":765:787  index <= autoIncrement */\n      gt\n      iszero\n        /* \"database/employee/cv/ListCV.sol\":748:788  (1 <= index) && (index <= autoIncrement) */\n    tag_71:\n        /* \"database/employee/cv/ListCV.sol\":727:844  require(... */\n      tag_72\n      jumpi\n      mload(0x40)\n      shl(0xe5, 0x461bcd)\n      dup2\n      mstore\n        /* \"#utility.yul\":8138:8140   */\n      0x20\n        /* \"database/employee/cv/ListCV.sol\":727:844  require(... */\n      0x04\n      dup3\n      add\n        /* \"#utility.yul\":8120:8141   */\n      mstore\n        /* \"#utility.yul\":8177:8179   */\n      0x1e\n        /* \"#utility.yul\":8157:8175   */\n      0x24\n      dup3\n      add\n        /* \"#utility.yul\":8150:8180   */\n      mstore\n        /* \"#utility.yul\":8216:8248   */\n      0x4461746162617365204c69737443563a20496e76616c696420696e6465780000\n        /* \"#utility.yul\":8196:8214   */\n      0x44\n      dup3\n      add\n        /* \"#utility.yul\":8189:8249   */\n      mstore\n        /* \"#utility.yul\":8266:8284   */\n      0x64\n      add\n        /* \"database/employee/cv/ListCV.sol\":727:844  require(... */\n      tag_50\n        /* \"#utility.yul\":7936:8290   */\n      jump\n        /* \"database/employee/cv/ListCV.sol\":727:844  require(... */\n    tag_72:\n        /* \"database/employee/cv/ListCV.sol\":1713:1717  list */\n      0x01\n        /* \"database/employee/cv/ListCV.sol\":1713:1724  list[index] */\n      0x00\n        /* \"database/employee/cv/ListCV.sol\":1718:1723  index */\n      dup7\n        /* \"database/employee/cv/ListCV.sol\":1713:1724  list[index] */\n      dup2\n      mstore\n      0x20\n      add\n      swap1\n      dup2\n      mstore\n      0x20\n      add\n      0x00\n      keccak256\n        /* \"database/employee/cv/ListCV.sol\":1706:1724  return list[index] */\n      mload(0x40)\n      dup1\n      0x80\n      add\n      0x40\n      mstore\n      swap1\n      dup2\n      0x00\n      dup3\n      add\n      sload\n      dup2\n      mstore\n      0x20\n      add\n      0x01\n      dup3\n      add\n      sload\n      dup2\n      mstore\n      0x20\n      add\n      0x02\n      dup3\n      add\n      sload\n      dup2\n      mstore\n      0x20\n      add\n      0x03\n      dup3\n      add\n      dup1\n      sload\n      tag_76\n      swap1\n      tag_77\n      jump\t// in\n    tag_76:\n      dup1\n      0x1f\n      add\n      0x20\n      dup1\n      swap2\n      div\n      mul\n      0x20\n      add\n      mload(0x40)\n      swap1\n      dup2\n      add\n      0x40\n      mstore\n      dup1\n      swap3\n      swap2\n      swap1\n      dup2\n      dup2\n      mstore\n      0x20\n      add\n      dup3\n      dup1\n      sload\n      tag_78\n      swap1\n      tag_77\n      jump\t// in\n    tag_78:\n      dup1\n      iszero\n      tag_79\n      jumpi\n      dup1\n      0x1f\n      lt\n      tag_80\n      jumpi\n      0x0100\n      dup1\n      dup4\n      sload\n      div\n      mul\n      dup4\n      mstore\n      swap2\n      0x20\n      add\n      swap2\n      jump(tag_79)\n    tag_80:\n      dup3\n      add\n      swap2\n      swap1\n      0x00\n      mstore\n      keccak256(0x00, 0x20)\n      swap1\n    tag_81:\n      dup2\n      sload\n      dup2\n      mstore\n      swap1\n      0x01\n      add\n      swap1\n      0x20\n      add\n      dup1\n      dup4\n      gt\n      tag_81\n      jumpi\n      dup3\n      swap1\n      sub\n      0x1f\n      and\n      dup3\n      add\n      swap2\n    tag_79:\n      pop\n      pop\n      pop\n      pop\n      pop\n      dup2\n      mstore\n      pop\n      pop\n      swap3\n      pop\n        /* \"database/employee/cv/ListCV.sol\":668:669  _ */\n      pop\n        /* \"database/employee/cv/ListCV.sol\":1534:1731  function at(uint256 index, bytes32 secret)... */\n      pop\n      swap3\n      swap2\n      pop\n      pop\n      jump\t// out\n        /* \"abstract/Ownable.sol\":2063:2295  function transferOwnership(address newOwner) public virtual onlyOwner {... */\n    tag_37:\n        /* \"abstract/Ownable.sol\":1068:1081  _checkOwner() */\n      tag_83\n        /* \"abstract/Ownable.sol\":1068:1079  _checkOwner */\n      tag_46\n        /* \"abstract/Ownable.sol\":1068:1081  _checkOwner() */\n      jump\t// in\n    tag_83:\n      sub(shl(0xa0, 0x01), 0x01)\n        /* \"abstract/Ownable.sol\":2164:2186  newOwner != address(0) */\n      dup2\n      and\n        /* \"abstract/Ownable.sol\":2143:2250  require(... */\n      tag_85\n      jumpi\n      mload(0x40)\n      shl(0xe5, 0x461bcd)\n      dup2\n      mstore\n        /* \"#utility.yul\":8497:8499   */\n      0x20\n        /* \"abstract/Ownable.sol\":2143:2250  require(... */\n      0x04\n      dup3\n      add\n        /* \"#utility.yul\":8479:8500   */\n      mstore\n        /* \"#utility.yul\":8536:8538   */\n      0x26\n        /* \"#utility.yul\":8516:8534   */\n      0x24\n      dup3\n      add\n        /* \"#utility.yul\":8509:8539   */\n      mstore\n        /* \"#utility.yul\":8575:8609   */\n      0x4f776e61626c653a206e6577206f776e657220697320746865207a65726f2061\n        /* \"#utility.yul\":8555:8573   */\n      0x44\n      dup3\n      add\n        /* \"#utility.yul\":8548:8610   */\n      mstore\n      shl(0xd0, 0x646472657373)\n        /* \"#utility.yul\":8626:8644   */\n      0x64\n      dup3\n      add\n        /* \"#utility.yul\":8619:8655   */\n      mstore\n        /* \"#utility.yul\":8672:8691   */\n      0x84\n      add\n        /* \"abstract/Ownable.sol\":2143:2250  require(... */\n      tag_50\n        /* \"#utility.yul\":8295:8697   */\n      jump\n        /* \"abstract/Ownable.sol\":2143:2250  require(... */\n    tag_85:\n        /* \"abstract/Ownable.sol\":2260:2288  _transferOwnership(newOwner) */\n      tag_88\n        /* \"abstract/Ownable.sol\":2279:2287  newOwner */\n      dup2\n        /* \"abstract/Ownable.sol\":2260:2278  _transferOwnership */\n      tag_89\n        /* \"abstract/Ownable.sol\":2260:2288  _transferOwnership(newOwner) */\n      jump\t// in\n    tag_88:\n        /* \"abstract/Ownable.sol\":2063:2295  function transferOwnership(address newOwner) public virtual onlyOwner {... */\n      pop\n      jump\t// out\n        /* \"database/employee/cv/ListCV.sol\":868:1031  function getLength(bytes32 secret)... */\n    tag_41:\n        /* \"database/employee/cv/ListCV.sol\":981:988  uint256 */\n      0x00\n        /* \"database/employee/cv/ListCV.sol\":956:962  secret */\n      dup2\n      0x00\n      dup1\n      mload\n      0x20\n      data_98ee57057fe0a523e70b51608fd55a37ff53d47c3b8dac495a5f45d45157392f\n      dup4\n      codecopy\n      dup2\n      mload\n      swap2\n      mstore\n        /* \"database/employee/cv/ListCV.sol\":599:620  value == DATABASE_KEY */\n      dup2\n      eq\n        /* \"database/employee/cv/ListCV.sol\":591:658  require(value == DATABASE_KEY, \"Database ListCV: Secret key error\") */\n      tag_91\n      jumpi\n      mload(0x40)\n      shl(0xe5, 0x461bcd)\n      dup2\n      mstore\n      0x04\n      add\n      tag_50\n      swap1\n      tag_51\n      jump\t// in\n    tag_91:\n        /* \"database/employee/cv/ListCV.sol\":1011:1024  autoIncrement */\n      sload(0x02)\n        /* \"database/employee/cv/ListCV.sol\":1004:1024  return autoIncrement */\n      swap2\n      pop\n        /* \"database/employee/cv/ListCV.sol\":668:669  _ */\n    tag_93:\n        /* \"database/employee/cv/ListCV.sol\":868:1031  function getLength(bytes32 secret)... */\n      pop\n      swap2\n      swap1\n      pop\n      jump\t// out\n        /* \"abstract/Ownable.sol\":1333:1461  function _checkOwner() internal view virtual {... */\n    tag_46:\n        /* \"abstract/Ownable.sol\":1407:1417  msg.sender */\n      caller\n        /* \"abstract/Ownable.sol\":1396:1403  owner() */\n      tag_95\n        /* \"abstract/Ownable.sol\":1221:1228  address */\n      0x00\n        /* \"abstract/Ownable.sol\":1247:1253  _owner */\n      sload\n      sub(shl(0xa0, 0x01), 0x01)\n      and\n      swap1\n        /* \"abstract/Ownable.sol\":1175:1260  function owner() public view virtual returns (address) {... */\n      jump\n        /* \"abstract/Ownable.sol\":1396:1403  owner() */\n    tag_95:\n      sub(shl(0xa0, 0x01), 0x01)\n        /* \"abstract/Ownable.sol\":1396:1417  owner() == msg.sender */\n      and\n      eq\n        /* \"abstract/Ownable.sol\":1388:1454  require(owner() == msg.sender, \"Ownable: caller is not the owner\") */\n      tag_96\n      jumpi\n      mload(0x40)\n      shl(0xe5, 0x461bcd)\n      dup2\n      mstore\n        /* \"#utility.yul\":8904:8906   */\n      0x20\n        /* \"abstract/Ownable.sol\":1388:1454  require(owner() == msg.sender, \"Ownable: caller is not the owner\") */\n      0x04\n      dup3\n      add\n        /* \"#utility.yul\":8886:8907   */\n      dup2\n      swap1\n      mstore\n        /* \"#utility.yul\":8923:8941   */\n      0x24\n      dup3\n      add\n        /* \"#utility.yul\":8916:8946   */\n      mstore\n        /* \"#utility.yul\":8982:9016   */\n      0x4f776e61626c653a2063616c6c6572206973206e6f7420746865206f776e6572\n        /* \"#utility.yul\":8962:8980   */\n      0x44\n      dup3\n      add\n        /* \"#utility.yul\":8955:9017   */\n      mstore\n        /* \"#utility.yul\":9034:9052   */\n      0x64\n      add\n        /* \"abstract/Ownable.sol\":1388:1454  require(owner() == msg.sender, \"Ownable: caller is not the owner\") */\n      tag_50\n        /* \"#utility.yul\":8702:9058   */\n      jump\n        /* \"abstract/Ownable.sol\":1388:1454  require(owner() == msg.sender, \"Ownable: caller is not the owner\") */\n    tag_96:\n        /* \"abstract/Ownable.sol\":1333:1461  function _checkOwner() internal view virtual {... */\n      jump\t// out\n        /* \"abstract/Ownable.sol\":2449:2636  function _transferOwnership(address newOwner) internal virtual {... */\n    tag_89:\n        /* \"abstract/Ownable.sol\":2522:2538  address oldOwner */\n      0x00\n        /* \"abstract/Ownable.sol\":2541:2547  _owner */\n      dup1\n      sload\n      sub(shl(0xa0, 0x01), 0x01)\n        /* \"abstract/Ownable.sol\":2557:2574  _owner = newOwner */\n      dup4\n      dup2\n      and\n      not(sub(shl(0xa0, 0x01), 0x01))\n      dup4\n      and\n      dup2\n      or\n      dup5\n      sstore\n        /* \"abstract/Ownable.sol\":2589:2629  OwnershipTransferred(oldOwner, newOwner) */\n      mload(0x40)\n        /* \"abstract/Ownable.sol\":2541:2547  _owner */\n      swap2\n      swap1\n      swap3\n      and\n      swap3\n      dup4\n      swap2\n        /* \"abstract/Ownable.sol\":2589:2629  OwnershipTransferred(oldOwner, newOwner) */\n      0x8be0079c531659141344cd1fd0a4f28419497f9722a3daafe3b4186f6b6457e0\n      swap2\n        /* \"abstract/Ownable.sol\":2522:2538  address oldOwner */\n      swap1\n        /* \"abstract/Ownable.sol\":2589:2629  OwnershipTransferred(oldOwner, newOwner) */\n      log3\n        /* \"abstract/Ownable.sol\":2512:2636  {... */\n      pop\n        /* \"abstract/Ownable.sol\":2449:2636  function _transferOwnership(address newOwner) internal virtual {... */\n      pop\n      jump\t// out\n        /* \"#utility.yul\":14:141   */\n    tag_100:\n        /* \"#utility.yul\":75:85   */\n      0x4e487b71\n        /* \"#utility.yul\":70:73   */\n      0xe0\n        /* \"#utility.yul\":66:86   */\n      shl\n        /* \"#utility.yul\":63:64   */\n      0x00\n        /* \"#utility.yul\":56:87   */\n      mstore\n        /* \"#utility.yul\":106:110   */\n      0x41\n        /* \"#utility.yul\":103:104   */\n      0x04\n        /* \"#utility.yul\":96:111   */\n      mstore\n        /* \"#utility.yul\":130:134   */\n      0x24\n        /* \"#utility.yul\":127:128   */\n      0x00\n        /* \"#utility.yul\":120:135   */\n      revert\n        /* \"#utility.yul\":146:399   */\n    tag_101:\n        /* \"#utility.yul\":218:220   */\n      0x40\n        /* \"#utility.yul\":212:221   */\n      mload\n        /* \"#utility.yul\":260:264   */\n      0x80\n        /* \"#utility.yul\":248:265   */\n      dup2\n      add\n        /* \"#utility.yul\":295:313   */\n      0xffffffffffffffff\n        /* \"#utility.yul\":280:314   */\n      dup2\n      gt\n        /* \"#utility.yul\":316:338   */\n      dup3\n      dup3\n      lt\n        /* \"#utility.yul\":277:339   */\n      or\n        /* \"#utility.yul\":274:362   */\n      iszero\n      tag_111\n      jumpi\n        /* \"#utility.yul\":342:360   */\n      tag_111\n      tag_100\n      jump\t// in\n    tag_111:\n        /* \"#utility.yul\":378:380   */\n      0x40\n        /* \"#utility.yul\":371:393   */\n      mstore\n        /* \"#utility.yul\":146:399   */\n      swap1\n      jump\t// out\n        /* \"#utility.yul\":404:679   */\n    tag_102:\n        /* \"#utility.yul\":475:477   */\n      0x40\n        /* \"#utility.yul\":469:478   */\n      mload\n        /* \"#utility.yul\":540:542   */\n      0x1f\n        /* \"#utility.yul\":521:534   */\n      dup3\n      add\n      not(0x1f)\n        /* \"#utility.yul\":517:544   */\n      and\n        /* \"#utility.yul\":505:545   */\n      dup2\n      add\n        /* \"#utility.yul\":575:593   */\n      0xffffffffffffffff\n        /* \"#utility.yul\":560:594   */\n      dup2\n      gt\n        /* \"#utility.yul\":596:618   */\n      dup3\n      dup3\n      lt\n        /* \"#utility.yul\":557:619   */\n      or\n        /* \"#utility.yul\":554:642   */\n      iszero\n      tag_114\n      jumpi\n        /* \"#utility.yul\":622:640   */\n      tag_114\n      tag_100\n      jump\t// in\n    tag_114:\n        /* \"#utility.yul\":658:660   */\n      0x40\n        /* \"#utility.yul\":651:673   */\n      mstore\n        /* \"#utility.yul\":404:679   */\n      swap2\n      swap1\n      pop\n      jump\t// out\n        /* \"#utility.yul\":684:1657   */\n    tag_103:\n        /* \"#utility.yul\":733:738   */\n      0x00\n        /* \"#utility.yul\":781:785   */\n      0x80\n        /* \"#utility.yul\":769:778   */\n      dup3\n        /* \"#utility.yul\":764:767   */\n      dup5\n        /* \"#utility.yul\":760:779   */\n      sub\n        /* \"#utility.yul\":756:786   */\n      slt\n        /* \"#utility.yul\":753:803   */\n      iszero\n      tag_116\n      jumpi\n        /* \"#utility.yul\":799:800   */\n      0x00\n        /* \"#utility.yul\":796:797   */\n      dup1\n        /* \"#utility.yul\":789:801   */\n      revert\n        /* \"#utility.yul\":753:803   */\n    tag_116:\n        /* \"#utility.yul\":821:843   */\n      tag_117\n      tag_101\n      jump\t// in\n    tag_117:\n        /* \"#utility.yul\":812:843   */\n      swap1\n      pop\n        /* \"#utility.yul\":879:888   */\n      dup2\n        /* \"#utility.yul\":866:889   */\n      calldataload\n        /* \"#utility.yul\":859:864   */\n      dup2\n        /* \"#utility.yul\":852:890   */\n      mstore\n        /* \"#utility.yul\":909:911   */\n      0x20\n        /* \"#utility.yul\":971:973   */\n      dup1\n        /* \"#utility.yul\":960:969   */\n      dup4\n        /* \"#utility.yul\":956:974   */\n      add\n        /* \"#utility.yul\":943:975   */\n      calldataload\n        /* \"#utility.yul\":938:940   */\n      dup2\n        /* \"#utility.yul\":931:936   */\n      dup4\n        /* \"#utility.yul\":927:941   */\n      add\n        /* \"#utility.yul\":920:976   */\n      mstore\n        /* \"#utility.yul\":1036:1038   */\n      0x40\n        /* \"#utility.yul\":1025:1034   */\n      dup4\n        /* \"#utility.yul\":1021:1039   */\n      add\n        /* \"#utility.yul\":1008:1040   */\n      calldataload\n        /* \"#utility.yul\":1003:1005   */\n      0x40\n        /* \"#utility.yul\":996:1001   */\n      dup4\n        /* \"#utility.yul\":992:1006   */\n      add\n        /* \"#utility.yul\":985:1041   */\n      mstore\n        /* \"#utility.yul\":1092:1094   */\n      0x60\n        /* \"#utility.yul\":1081:1090   */\n      dup4\n        /* \"#utility.yul\":1077:1095   */\n      add\n        /* \"#utility.yul\":1064:1096   */\n      calldataload\n        /* \"#utility.yul\":1115:1133   */\n      0xffffffffffffffff\n        /* \"#utility.yul\":1156:1158   */\n      dup1\n        /* \"#utility.yul\":1148:1154   */\n      dup3\n        /* \"#utility.yul\":1145:1159   */\n      gt\n        /* \"#utility.yul\":1142:1176   */\n      iszero\n      tag_118\n      jumpi\n        /* \"#utility.yul\":1172:1173   */\n      0x00\n        /* \"#utility.yul\":1169:1170   */\n      dup1\n        /* \"#utility.yul\":1162:1174   */\n      revert\n        /* \"#utility.yul\":1142:1176   */\n    tag_118:\n        /* \"#utility.yul\":1210:1216   */\n      dup2\n        /* \"#utility.yul\":1199:1208   */\n      dup6\n        /* \"#utility.yul\":1195:1217   */\n      add\n        /* \"#utility.yul\":1185:1217   */\n      swap2\n      pop\n        /* \"#utility.yul\":1255:1258   */\n      dup6\n        /* \"#utility.yul\":1248:1252   */\n      0x1f\n        /* \"#utility.yul\":1244:1246   */\n      dup4\n        /* \"#utility.yul\":1240:1253   */\n      add\n        /* \"#utility.yul\":1236:1259   */\n      slt\n        /* \"#utility.yul\":1226:1277   */\n      tag_119\n      jumpi\n        /* \"#utility.yul\":1273:1274   */\n      0x00\n        /* \"#utility.yul\":1270:1271   */\n      dup1\n        /* \"#utility.yul\":1263:1275   */\n      revert\n        /* \"#utility.yul\":1226:1277   */\n    tag_119:\n        /* \"#utility.yul\":1309:1311   */\n      dup2\n        /* \"#utility.yul\":1296:1312   */\n      calldataload\n        /* \"#utility.yul\":1331:1333   */\n      dup2\n        /* \"#utility.yul\":1327:1329   */\n      dup2\n        /* \"#utility.yul\":1324:1334   */\n      gt\n        /* \"#utility.yul\":1321:1357   */\n      iszero\n      tag_121\n      jumpi\n        /* \"#utility.yul\":1337:1355   */\n      tag_121\n      tag_100\n      jump\t// in\n    tag_121:\n        /* \"#utility.yul\":1379:1432   */\n      tag_122\n        /* \"#utility.yul\":1422:1424   */\n      0x1f\n        /* \"#utility.yul\":1403:1416   */\n      dup3\n      add\n      not(0x1f)\n        /* \"#utility.yul\":1399:1426   */\n      and\n        /* \"#utility.yul\":1395:1431   */\n      dup6\n      add\n        /* \"#utility.yul\":1379:1432   */\n      tag_102\n      jump\t// in\n    tag_122:\n        /* \"#utility.yul\":1366:1432   */\n      swap2\n      pop\n        /* \"#utility.yul\":1455:1457   */\n      dup1\n        /* \"#utility.yul\":1448:1453   */\n      dup3\n        /* \"#utility.yul\":1441:1458   */\n      mstore\n        /* \"#utility.yul\":1495:1498   */\n      dup7\n        /* \"#utility.yul\":1490:1492   */\n      dup5\n        /* \"#utility.yul\":1485:1487   */\n      dup3\n        /* \"#utility.yul\":1481:1483   */\n      dup6\n        /* \"#utility.yul\":1477:1488   */\n      add\n        /* \"#utility.yul\":1473:1493   */\n      add\n        /* \"#utility.yul\":1470:1499   */\n      gt\n        /* \"#utility.yul\":1467:1516   */\n      iszero\n      tag_123\n      jumpi\n        /* \"#utility.yul\":1512:1513   */\n      0x00\n        /* \"#utility.yul\":1509:1510   */\n      dup1\n        /* \"#utility.yul\":1502:1514   */\n      revert\n        /* \"#utility.yul\":1467:1516   */\n    tag_123:\n        /* \"#utility.yul\":1567:1569   */\n      dup1\n        /* \"#utility.yul\":1562:1564   */\n      dup5\n        /* \"#utility.yul\":1558:1560   */\n      dup5\n        /* \"#utility.yul\":1554:1565   */\n      add\n        /* \"#utility.yul\":1549:1551   */\n      dup6\n        /* \"#utility.yul\":1542:1547   */\n      dup5\n        /* \"#utility.yul\":1538:1552   */\n      add\n        /* \"#utility.yul\":1525:1570   */\n      calldatacopy\n        /* \"#utility.yul\":1611:1612   */\n      0x00\n        /* \"#utility.yul\":1606:1608   */\n      dup5\n        /* \"#utility.yul\":1601:1603   */\n      dup3\n        /* \"#utility.yul\":1594:1599   */\n      dup5\n        /* \"#utility.yul\":1590:1604   */\n      add\n        /* \"#utility.yul\":1586:1609   */\n      add\n        /* \"#utility.yul\":1579:1613   */\n      mstore\n      pop\n        /* \"#utility.yul\":1645:1650   */\n      dup1\n        /* \"#utility.yul\":1640:1642   */\n      0x60\n        /* \"#utility.yul\":1633:1638   */\n      dup6\n        /* \"#utility.yul\":1629:1643   */\n      add\n        /* \"#utility.yul\":1622:1651   */\n      mstore\n      pop\n      pop\n      pop\n        /* \"#utility.yul\":684:1657   */\n      swap3\n      swap2\n      pop\n      pop\n      jump\t// out\n        /* \"#utility.yul\":1662:2133   */\n    tag_15:\n        /* \"#utility.yul\":1759:1765   */\n      0x00\n        /* \"#utility.yul\":1767:1773   */\n      dup1\n        /* \"#utility.yul\":1775:1781   */\n      0x00\n        /* \"#utility.yul\":1828:1830   */\n      0x60\n        /* \"#utility.yul\":1816:1825   */\n      dup5\n        /* \"#utility.yul\":1807:1814   */\n      dup7\n        /* \"#utility.yul\":1803:1826   */\n      sub\n        /* \"#utility.yul\":1799:1831   */\n      slt\n        /* \"#utility.yul\":1796:1848   */\n      iszero\n      tag_125\n      jumpi\n        /* \"#utility.yul\":1844:1845   */\n      0x00\n        /* \"#utility.yul\":1841:1842   */\n      dup1\n        /* \"#utility.yul\":1834:1846   */\n      revert\n        /* \"#utility.yul\":1796:1848   */\n    tag_125:\n        /* \"#utility.yul\":1880:1889   */\n      dup4\n        /* \"#utility.yul\":1867:1890   */\n      calldataload\n        /* \"#utility.yul\":1857:1890   */\n      swap3\n      pop\n        /* \"#utility.yul\":1941:1943   */\n      0x20\n        /* \"#utility.yul\":1930:1939   */\n      dup5\n        /* \"#utility.yul\":1926:1944   */\n      add\n        /* \"#utility.yul\":1913:1945   */\n      calldataload\n        /* \"#utility.yul\":1968:1986   */\n      0xffffffffffffffff\n        /* \"#utility.yul\":1960:1966   */\n      dup2\n        /* \"#utility.yul\":1957:1987   */\n      gt\n        /* \"#utility.yul\":1954:2004   */\n      iszero\n      tag_126\n      jumpi\n        /* \"#utility.yul\":2000:2001   */\n      0x00\n        /* \"#utility.yul\":1997:1998   */\n      dup1\n        /* \"#utility.yul\":1990:2002   */\n      revert\n        /* \"#utility.yul\":1954:2004   */\n    tag_126:\n        /* \"#utility.yul\":2023:2076   */\n      tag_127\n        /* \"#utility.yul\":2068:2075   */\n      dup7\n        /* \"#utility.yul\":2059:2065   */\n      dup3\n        /* \"#utility.yul\":2048:2057   */\n      dup8\n        /* \"#utility.yul\":2044:2066   */\n      add\n        /* \"#utility.yul\":2023:2076   */\n      tag_103\n      jump\t// in\n    tag_127:\n        /* \"#utility.yul\":2013:2076   */\n      swap3\n      pop\n      pop\n        /* \"#utility.yul\":2123:2125   */\n      0x40\n        /* \"#utility.yul\":2112:2121   */\n      dup5\n        /* \"#utility.yul\":2108:2126   */\n      add\n        /* \"#utility.yul\":2095:2127   */\n      calldataload\n        /* \"#utility.yul\":2085:2127   */\n      swap1\n      pop\n        /* \"#utility.yul\":1662:2133   */\n      swap3\n      pop\n      swap3\n      pop\n      swap3\n      jump\t// out\n        /* \"#utility.yul\":2538:2941   */\n    tag_25:\n        /* \"#utility.yul\":2626:2632   */\n      0x00\n        /* \"#utility.yul\":2634:2640   */\n      dup1\n        /* \"#utility.yul\":2687:2689   */\n      0x40\n        /* \"#utility.yul\":2675:2684   */\n      dup4\n        /* \"#utility.yul\":2666:2673   */\n      dup6\n        /* \"#utility.yul\":2662:2685   */\n      sub\n        /* \"#utility.yul\":2658:2690   */\n      slt\n        /* \"#utility.yul\":2655:2707   */\n      iszero\n      tag_131\n      jumpi\n        /* \"#utility.yul\":2703:2704   */\n      0x00\n        /* \"#utility.yul\":2700:2701   */\n      dup1\n        /* \"#utility.yul\":2693:2705   */\n      revert\n        /* \"#utility.yul\":2655:2707   */\n    tag_131:\n        /* \"#utility.yul\":2743:2752   */\n      dup3\n        /* \"#utility.yul\":2730:2753   */\n      calldataload\n        /* \"#utility.yul\":2776:2794   */\n      0xffffffffffffffff\n        /* \"#utility.yul\":2768:2774   */\n      dup2\n        /* \"#utility.yul\":2765:2795   */\n      gt\n        /* \"#utility.yul\":2762:2812   */\n      iszero\n      tag_132\n      jumpi\n        /* \"#utility.yul\":2808:2809   */\n      0x00\n        /* \"#utility.yul\":2805:2806   */\n      dup1\n        /* \"#utility.yul\":2798:2810   */\n      revert\n        /* \"#utility.yul\":2762:2812   */\n    tag_132:\n        /* \"#utility.yul\":2831:2884   */\n      tag_133\n        /* \"#utility.yul\":2876:2883   */\n      dup6\n        /* \"#utility.yul\":2867:2873   */\n      dup3\n        /* \"#utility.yul\":2856:2865   */\n      dup7\n        /* \"#utility.yul\":2852:2874   */\n      add\n        /* \"#utility.yul\":2831:2884   */\n      tag_103\n      jump\t// in\n    tag_133:\n        /* \"#utility.yul\":2821:2884   */\n      swap6\n        /* \"#utility.yul\":2931:2933   */\n      0x20\n        /* \"#utility.yul\":2916:2934   */\n      swap5\n      swap1\n      swap5\n      add\n        /* \"#utility.yul\":2903:2935   */\n      calldataload\n      swap5\n      pop\n      pop\n      pop\n      pop\n        /* \"#utility.yul\":2538:2941   */\n      jump\t// out\n        /* \"#utility.yul\":2946:3194   */\n    tag_30:\n        /* \"#utility.yul\":3014:3020   */\n      0x00\n        /* \"#utility.yul\":3022:3028   */\n      dup1\n        /* \"#utility.yul\":3075:3077   */\n      0x40\n        /* \"#utility.yul\":3063:3072   */\n      dup4\n        /* \"#utility.yul\":3054:3061   */\n      dup6\n        /* \"#utility.yul\":3050:3073   */\n      sub\n        /* \"#utility.yul\":3046:3078   */\n      slt\n        /* \"#utility.yul\":3043:3095   */\n      iszero\n      tag_135\n      jumpi\n        /* \"#utility.yul\":3091:3092   */\n      0x00\n        /* \"#utility.yul\":3088:3089   */\n      dup1\n        /* \"#utility.yul\":3081:3093   */\n      revert\n        /* \"#utility.yul\":3043:3095   */\n    tag_135:\n      pop\n      pop\n        /* \"#utility.yul\":3114:3137   */\n      dup1\n      calldataload\n      swap3\n        /* \"#utility.yul\":3184:3186   */\n      0x20\n        /* \"#utility.yul\":3169:3187   */\n      swap1\n      swap2\n      add\n        /* \"#utility.yul\":3156:3188   */\n      calldataload\n      swap2\n      pop\n        /* \"#utility.yul\":2946:3194   */\n      jump\t// out\n        /* \"#utility.yul\":3199:4045   */\n    tag_33:\n        /* \"#utility.yul\":3331:3335   */\n      0x00\n        /* \"#utility.yul\":3360:3362   */\n      0x20\n        /* \"#utility.yul\":3389:3391   */\n      dup1\n        /* \"#utility.yul\":3378:3387   */\n      dup4\n        /* \"#utility.yul\":3371:3392   */\n      mstore\n        /* \"#utility.yul\":3434:3440   */\n      dup4\n        /* \"#utility.yul\":3428:3441   */\n      mload\n        /* \"#utility.yul\":3423:3425   */\n      dup2\n        /* \"#utility.yul\":3412:3421   */\n      dup5\n        /* \"#utility.yul\":3408:3426   */\n      add\n        /* \"#utility.yul\":3401:3442   */\n      mstore\n        /* \"#utility.yul\":3496:3498   */\n      dup1\n        /* \"#utility.yul\":3488:3494   */\n      dup5\n        /* \"#utility.yul\":3484:3499   */\n      add\n        /* \"#utility.yul\":3478:3500   */\n      mload\n        /* \"#utility.yul\":3473:3475   */\n      0x40\n        /* \"#utility.yul\":3462:3471   */\n      dup5\n        /* \"#utility.yul\":3458:3476   */\n      add\n        /* \"#utility.yul\":3451:3501   */\n      mstore\n        /* \"#utility.yul\":3555:3557   */\n      0x40\n        /* \"#utility.yul\":3547:3553   */\n      dup5\n        /* \"#utility.yul\":3543:3558   */\n      add\n        /* \"#utility.yul\":3537:3559   */\n      mload\n        /* \"#utility.yul\":3532:3534   */\n      0x60\n        /* \"#utility.yul\":3521:3530   */\n      dup5\n        /* \"#utility.yul\":3517:3535   */\n      add\n        /* \"#utility.yul\":3510:3560   */\n      mstore\n        /* \"#utility.yul\":3607:3609   */\n      0x60\n        /* \"#utility.yul\":3599:3605   */\n      dup5\n        /* \"#utility.yul\":3595:3610   */\n      add\n        /* \"#utility.yul\":3589:3611   */\n      mload\n        /* \"#utility.yul\":3649:3653   */\n      0x80\n        /* \"#utility.yul\":3642:3646   */\n      dup1\n        /* \"#utility.yul\":3631:3640   */\n      dup6\n        /* \"#utility.yul\":3627:3647   */\n      add\n        /* \"#utility.yul\":3620:3654   */\n      mstore\n        /* \"#utility.yul\":3683:3695   */\n      dup1\n        /* \"#utility.yul\":3677:3696   */\n      mload\n        /* \"#utility.yul\":3733:3739   */\n      dup1\n        /* \"#utility.yul\":3727:3730   */\n      0xa0\n        /* \"#utility.yul\":3716:3725   */\n      dup7\n        /* \"#utility.yul\":3712:3731   */\n      add\n        /* \"#utility.yul\":3705:3740   */\n      mstore\n        /* \"#utility.yul\":3758:3759   */\n      0x00\n        /* \"#utility.yul\":3768:3915   */\n    tag_137:\n        /* \"#utility.yul\":3782:3788   */\n      dup2\n        /* \"#utility.yul\":3779:3780   */\n      dup2\n        /* \"#utility.yul\":3776:3789   */\n      lt\n        /* \"#utility.yul\":3768:3915   */\n      iszero\n      tag_139\n      jumpi\n        /* \"#utility.yul\":3878:3898   */\n      dup3\n      dup2\n      add\n        /* \"#utility.yul\":3874:3903   */\n      dup5\n      add\n        /* \"#utility.yul\":3868:3904   */\n      mload\n        /* \"#utility.yul\":3843:3860   */\n      dup7\n      dup3\n      add\n        /* \"#utility.yul\":3862:3865   */\n      0xc0\n        /* \"#utility.yul\":3839:3866   */\n      add\n        /* \"#utility.yul\":3832:3905   */\n      mstore\n        /* \"#utility.yul\":3797:3807   */\n      dup4\n      add\n        /* \"#utility.yul\":3768:3915   */\n      jump(tag_137)\n    tag_139:\n        /* \"#utility.yul\":3772:3775   */\n      pop\n        /* \"#utility.yul\":3965:3966   */\n      0x00\n        /* \"#utility.yul\":3959:3962   */\n      0xc0\n        /* \"#utility.yul\":3950:3956   */\n      dup3\n        /* \"#utility.yul\":3939:3948   */\n      dup8\n        /* \"#utility.yul\":3935:3957   */\n      add\n        /* \"#utility.yul\":3931:3963   */\n      add\n        /* \"#utility.yul\":3924:3967   */\n      mstore\n        /* \"#utility.yul\":4035:4038   */\n      0xc0\n        /* \"#utility.yul\":4028:4030   */\n      0x1f\n        /* \"#utility.yul\":4024:4031   */\n      not\n        /* \"#utility.yul\":4019:4021   */\n      0x1f\n        /* \"#utility.yul\":4011:4017   */\n      dup4\n        /* \"#utility.yul\":4007:4022   */\n      add\n        /* \"#utility.yul\":4003:4032   */\n      and\n        /* \"#utility.yul\":3992:4001   */\n      dup7\n        /* \"#utility.yul\":3988:4033   */\n      add\n        /* \"#utility.yul\":3984:4039   */\n      add\n        /* \"#utility.yul\":3976:4039   */\n      swap4\n      pop\n      pop\n      pop\n      pop\n        /* \"#utility.yul\":3199:4045   */\n      swap3\n      swap2\n      pop\n      pop\n      jump\t// out\n        /* \"#utility.yul\":4050:4336   */\n    tag_36:\n        /* \"#utility.yul\":4109:4115   */\n      0x00\n        /* \"#utility.yul\":4162:4164   */\n      0x20\n        /* \"#utility.yul\":4150:4159   */\n      dup3\n        /* \"#utility.yul\":4141:4148   */\n      dup5\n        /* \"#utility.yul\":4137:4160   */\n      sub\n        /* \"#utility.yul\":4133:4165   */\n      slt\n        /* \"#utility.yul\":4130:4182   */\n      iszero\n      tag_141\n      jumpi\n        /* \"#utility.yul\":4178:4179   */\n      0x00\n        /* \"#utility.yul\":4175:4176   */\n      dup1\n        /* \"#utility.yul\":4168:4180   */\n      revert\n        /* \"#utility.yul\":4130:4182   */\n    tag_141:\n        /* \"#utility.yul\":4204:4227   */\n      dup2\n      calldataload\n      sub(shl(0xa0, 0x01), 0x01)\n        /* \"#utility.yul\":4256:4287   */\n      dup2\n      and\n        /* \"#utility.yul\":4246:4288   */\n      dup2\n      eq\n        /* \"#utility.yul\":4236:4306   */\n      tag_142\n      jumpi\n        /* \"#utility.yul\":4302:4303   */\n      0x00\n        /* \"#utility.yul\":4299:4300   */\n      dup1\n        /* \"#utility.yul\":4292:4304   */\n      revert\n        /* \"#utility.yul\":4236:4306   */\n    tag_142:\n        /* \"#utility.yul\":4325:4330   */\n      swap4\n        /* \"#utility.yul\":4050:4336   */\n      swap3\n      pop\n      pop\n      pop\n      jump\t// out\n        /* \"#utility.yul\":4341:4521   */\n    tag_40:\n        /* \"#utility.yul\":4400:4406   */\n      0x00\n        /* \"#utility.yul\":4453:4455   */\n      0x20\n        /* \"#utility.yul\":4441:4450   */\n      dup3\n        /* \"#utility.yul\":4432:4439   */\n      dup5\n        /* \"#utility.yul\":4428:4451   */\n      sub\n        /* \"#utility.yul\":4424:4456   */\n      slt\n        /* \"#utility.yul\":4421:4473   */\n      iszero\n      tag_144\n      jumpi\n        /* \"#utility.yul\":4469:4470   */\n      0x00\n        /* \"#utility.yul\":4466:4467   */\n      dup1\n        /* \"#utility.yul\":4459:4471   */\n      revert\n        /* \"#utility.yul\":4421:4473   */\n    tag_144:\n      pop\n        /* \"#utility.yul\":4492:4515   */\n      calldataload\n      swap2\n        /* \"#utility.yul\":4341:4521   */\n      swap1\n      pop\n      jump\t// out\n        /* \"#utility.yul\":4708:5105   */\n    tag_51:\n        /* \"#utility.yul\":4910:4912   */\n      0x20\n        /* \"#utility.yul\":4892:4913   */\n      dup1\n      dup3\n      mstore\n        /* \"#utility.yul\":4949:4951   */\n      0x21\n        /* \"#utility.yul\":4929:4947   */\n      swap1\n      dup3\n      add\n        /* \"#utility.yul\":4922:4952   */\n      mstore\n        /* \"#utility.yul\":4988:5022   */\n      0x4461746162617365204c69737443563a20536563726574206b6579206572726f\n        /* \"#utility.yul\":4983:4985   */\n      0x40\n        /* \"#utility.yul\":4968:4986   */\n      dup3\n      add\n        /* \"#utility.yul\":4961:5023   */\n      mstore\n      shl(0xf9, 0x39)\n        /* \"#utility.yul\":5054:5056   */\n      0x60\n        /* \"#utility.yul\":5039:5057   */\n      dup3\n      add\n        /* \"#utility.yul\":5032:5063   */\n      mstore\n        /* \"#utility.yul\":5095:5098   */\n      0x80\n        /* \"#utility.yul\":5080:5099   */\n      add\n      swap1\n        /* \"#utility.yul\":4708:5105   */\n      jump\t// out\n        /* \"#utility.yul\":5110:5342   */\n    tag_54:\n        /* \"#utility.yul\":5149:5152   */\n      0x00\n        /* \"#utility.yul\":5170:5187   */\n      0x01\n      dup3\n      add\n        /* \"#utility.yul\":5167:5307   */\n      tag_148\n      jumpi\n        /* \"#utility.yul\":5229:5239   */\n      0x4e487b71\n        /* \"#utility.yul\":5224:5227   */\n      0xe0\n        /* \"#utility.yul\":5220:5240   */\n      shl\n        /* \"#utility.yul\":5217:5218   */\n      0x00\n        /* \"#utility.yul\":5210:5241   */\n      mstore\n        /* \"#utility.yul\":5264:5268   */\n      0x11\n        /* \"#utility.yul\":5261:5262   */\n      0x04\n        /* \"#utility.yul\":5254:5269   */\n      mstore\n        /* \"#utility.yul\":5292:5296   */\n      0x24\n        /* \"#utility.yul\":5289:5290   */\n      0x00\n        /* \"#utility.yul\":5282:5297   */\n      revert\n        /* \"#utility.yul\":5167:5307   */\n    tag_148:\n      pop\n        /* \"#utility.yul\":5334:5335   */\n      0x01\n        /* \"#utility.yul\":5323:5336   */\n      add\n      swap1\n        /* \"#utility.yul\":5110:5342   */\n      jump\t// out\n        /* \"#utility.yul\":5347:5727   */\n    tag_77:\n        /* \"#utility.yul\":5426:5427   */\n      0x01\n        /* \"#utility.yul\":5422:5434   */\n      dup2\n      dup2\n      shr\n      swap1\n        /* \"#utility.yul\":5469:5481   */\n      dup3\n      and\n      dup1\n        /* \"#utility.yul\":5490:5551   */\n      tag_150\n      jumpi\n        /* \"#utility.yul\":5544:5548   */\n      0x7f\n        /* \"#utility.yul\":5536:5542   */\n      dup3\n        /* \"#utility.yul\":5532:5549   */\n      and\n        /* \"#utility.yul\":5522:5549   */\n      swap2\n      pop\n        /* \"#utility.yul\":5490:5551   */\n    tag_150:\n        /* \"#utility.yul\":5597:5599   */\n      0x20\n        /* \"#utility.yul\":5589:5595   */\n      dup3\n        /* \"#utility.yul\":5586:5600   */\n      lt\n        /* \"#utility.yul\":5566:5584   */\n      dup2\n        /* \"#utility.yul\":5563:5601   */\n      sub\n        /* \"#utility.yul\":5560:5721   */\n      tag_93\n      jumpi\n        /* \"#utility.yul\":5643:5653   */\n      0x4e487b71\n        /* \"#utility.yul\":5638:5641   */\n      0xe0\n        /* \"#utility.yul\":5634:5654   */\n      shl\n        /* \"#utility.yul\":5631:5632   */\n      0x00\n        /* \"#utility.yul\":5624:5655   */\n      mstore\n        /* \"#utility.yul\":5678:5682   */\n      0x22\n        /* \"#utility.yul\":5675:5676   */\n      0x04\n        /* \"#utility.yul\":5668:5683   */\n      mstore\n        /* \"#utility.yul\":5706:5710   */\n      0x24\n        /* \"#utility.yul\":5703:5704   */\n      0x00\n        /* \"#utility.yul\":5696:5711   */\n      revert\n        /* \"#utility.yul\":5858:6403   */\n    tag_105:\n        /* \"#utility.yul\":5960:5962   */\n      0x1f\n        /* \"#utility.yul\":5955:5958   */\n      dup3\n        /* \"#utility.yul\":5952:5963   */\n      gt\n        /* \"#utility.yul\":5949:6397   */\n      iszero\n      tag_154\n      jumpi\n        /* \"#utility.yul\":5996:5997   */\n      0x00\n        /* \"#utility.yul\":6021:6026   */\n      dup2\n        /* \"#utility.yul\":6017:6019   */\n      dup2\n        /* \"#utility.yul\":6010:6027   */\n      mstore\n        /* \"#utility.yul\":6066:6070   */\n      0x20\n        /* \"#utility.yul\":6062:6064   */\n      dup2\n        /* \"#utility.yul\":6052:6071   */\n      keccak256\n        /* \"#utility.yul\":6136:6138   */\n      0x1f\n        /* \"#utility.yul\":6124:6134   */\n      dup6\n        /* \"#utility.yul\":6120:6139   */\n      add\n        /* \"#utility.yul\":6117:6118   */\n      0x05\n        /* \"#utility.yul\":6113:6140   */\n      shr\n        /* \"#utility.yul\":6107:6111   */\n      dup2\n        /* \"#utility.yul\":6103:6141   */\n      add\n        /* \"#utility.yul\":6172:6176   */\n      0x20\n        /* \"#utility.yul\":6160:6170   */\n      dup7\n        /* \"#utility.yul\":6157:6177   */\n      lt\n        /* \"#utility.yul\":6154:6201   */\n      iszero\n      tag_155\n      jumpi\n      pop\n        /* \"#utility.yul\":6195:6199   */\n      dup1\n        /* \"#utility.yul\":6154:6201   */\n    tag_155:\n        /* \"#utility.yul\":6250:6252   */\n      0x1f\n        /* \"#utility.yul\":6245:6248   */\n      dup6\n        /* \"#utility.yul\":6241:6253   */\n      add\n        /* \"#utility.yul\":6238:6239   */\n      0x05\n        /* \"#utility.yul\":6234:6254   */\n      shr\n        /* \"#utility.yul\":6228:6232   */\n      dup3\n        /* \"#utility.yul\":6224:6255   */\n      add\n        /* \"#utility.yul\":6214:6255   */\n      swap2\n      pop\n        /* \"#utility.yul\":6305:6387   */\n    tag_156:\n        /* \"#utility.yul\":6323:6325   */\n      dup2\n        /* \"#utility.yul\":6316:6321   */\n      dup2\n        /* \"#utility.yul\":6313:6326   */\n      lt\n        /* \"#utility.yul\":6305:6387   */\n      iszero\n      tag_158\n      jumpi\n        /* \"#utility.yul\":6368:6385   */\n      dup3\n      dup2\n      sstore\n        /* \"#utility.yul\":6349:6350   */\n      0x01\n        /* \"#utility.yul\":6338:6351   */\n      add\n        /* \"#utility.yul\":6305:6387   */\n      jump(tag_156)\n    tag_158:\n        /* \"#utility.yul\":6309:6312   */\n      pop\n      pop\n      pop\n        /* \"#utility.yul\":5949:6397   */\n    tag_154:\n        /* \"#utility.yul\":5858:6403   */\n      pop\n      pop\n      pop\n      jump\t// out\n        /* \"#utility.yul\":6579:7931   */\n    tag_56:\n        /* \"#utility.yul\":6705:6708   */\n      dup2\n        /* \"#utility.yul\":6699:6709   */\n      mload\n        /* \"#utility.yul\":6732:6750   */\n      0xffffffffffffffff\n        /* \"#utility.yul\":6724:6730   */\n      dup2\n        /* \"#utility.yul\":6721:6751   */\n      gt\n        /* \"#utility.yul\":6718:6774   */\n      iszero\n      tag_162\n      jumpi\n        /* \"#utility.yul\":6754:6772   */\n      tag_162\n      tag_100\n      jump\t// in\n    tag_162:\n        /* \"#utility.yul\":6783:6880   */\n      tag_163\n        /* \"#utility.yul\":6873:6879   */\n      dup2\n        /* \"#utility.yul\":6833:6871   */\n      tag_164\n        /* \"#utility.yul\":6865:6869   */\n      dup5\n        /* \"#utility.yul\":6859:6870   */\n      sload\n        /* \"#utility.yul\":6833:6871   */\n      tag_77\n      jump\t// in\n    tag_164:\n        /* \"#utility.yul\":6827:6831   */\n      dup5\n        /* \"#utility.yul\":6783:6880   */\n      tag_105\n      jump\t// in\n    tag_163:\n        /* \"#utility.yul\":6935:6939   */\n      0x20\n      dup1\n        /* \"#utility.yul\":6999:7001   */\n      0x1f\n        /* \"#utility.yul\":6988:7002   */\n      dup4\n      gt\n        /* \"#utility.yul\":7016:7017   */\n      0x01\n        /* \"#utility.yul\":7011:7674   */\n      dup2\n      eq\n      tag_166\n      jumpi\n        /* \"#utility.yul\":7718:7719   */\n      0x00\n        /* \"#utility.yul\":7735:7741   */\n      dup5\n        /* \"#utility.yul\":7732:7821   */\n      iszero\n      tag_167\n      jumpi\n      pop\n        /* \"#utility.yul\":7787:7806   */\n      dup6\n      dup4\n      add\n        /* \"#utility.yul\":7781:7807   */\n      mload\n        /* \"#utility.yul\":7732:7821   */\n    tag_167:\n      not(0x00)\n        /* \"#utility.yul\":6536:6537   */\n      0x03\n        /* \"#utility.yul\":6532:6543   */\n      dup7\n      swap1\n      shl\n        /* \"#utility.yul\":6528:6552   */\n      shr\n        /* \"#utility.yul\":6524:6553   */\n      not\n        /* \"#utility.yul\":6514:6554   */\n      and\n        /* \"#utility.yul\":6560:6561   */\n      0x01\n        /* \"#utility.yul\":6556:6567   */\n      dup6\n      swap1\n      shl\n        /* \"#utility.yul\":6511:6568   */\n      or\n        /* \"#utility.yul\":7834:7915   */\n      dup6\n      sstore\n        /* \"#utility.yul\":6981:7925   */\n      jump(tag_158)\n        /* \"#utility.yul\":7011:7674   */\n    tag_166:\n        /* \"#utility.yul\":5805:5806   */\n      0x00\n        /* \"#utility.yul\":5798:5812   */\n      dup6\n      dup2\n      mstore\n        /* \"#utility.yul\":5842:5846   */\n      0x20\n        /* \"#utility.yul\":5829:5847   */\n      dup2\n      keccak256\n      not(0x1f)\n        /* \"#utility.yul\":7047:7067   */\n      dup7\n      and\n      swap2\n        /* \"#utility.yul\":7165:7401   */\n    tag_170:\n        /* \"#utility.yul\":7179:7186   */\n      dup3\n        /* \"#utility.yul\":7176:7177   */\n      dup2\n        /* \"#utility.yul\":7173:7187   */\n      lt\n        /* \"#utility.yul\":7165:7401   */\n      iszero\n      tag_172\n      jumpi\n        /* \"#utility.yul\":7268:7287   */\n      dup9\n      dup7\n      add\n        /* \"#utility.yul\":7262:7288   */\n      mload\n        /* \"#utility.yul\":7247:7289   */\n      dup3\n      sstore\n        /* \"#utility.yul\":7360:7387   */\n      swap5\n      dup5\n      add\n      swap5\n        /* \"#utility.yul\":7328:7329   */\n      0x01\n        /* \"#utility.yul\":7316:7330   */\n      swap1\n      swap2\n      add\n      swap1\n        /* \"#utility.yul\":7195:7214   */\n      dup5\n      add\n        /* \"#utility.yul\":7165:7401   */\n      jump(tag_170)\n    tag_172:\n        /* \"#utility.yul\":7169:7172   */\n      pop\n        /* \"#utility.yul\":7429:7435   */\n      dup6\n        /* \"#utility.yul\":7420:7427   */\n      dup3\n        /* \"#utility.yul\":7417:7436   */\n      lt\n        /* \"#utility.yul\":7414:7615   */\n      iszero\n      tag_173\n      jumpi\n        /* \"#utility.yul\":7490:7509   */\n      dup8\n      dup6\n      add\n        /* \"#utility.yul\":7484:7510   */\n      mload\n      not(0x00)\n        /* \"#utility.yul\":7573:7574   */\n      0x03\n        /* \"#utility.yul\":7569:7583   */\n      dup9\n      swap1\n      shl\n        /* \"#utility.yul\":7585:7588   */\n      0xf8\n        /* \"#utility.yul\":7565:7589   */\n      and\n        /* \"#utility.yul\":7561:7598   */\n      shr\n        /* \"#utility.yul\":7557:7599   */\n      not\n        /* \"#utility.yul\":7542:7600   */\n      and\n        /* \"#utility.yul\":7527:7601   */\n      dup2\n      sstore\n        /* \"#utility.yul\":7414:7615   */\n    tag_173:\n      pop\n      pop\n      pop\n      pop\n      pop\n        /* \"#utility.yul\":7661:7662   */\n      0x01\n        /* \"#utility.yul\":7645:7659   */\n      swap1\n      dup2\n      shl\n        /* \"#utility.yul\":7641:7663   */\n      add\n        /* \"#utility.yul\":7628:7664   */\n      swap1\n      sstore\n      pop\n        /* \"#utility.yul\":6579:7931   */\n      jump\t// out\n    stop\n    data_98ee57057fe0a523e70b51608fd55a37ff53d47c3b8dac495a5f45d45157392f 8e1604a838d0f1a9b2cda14a099e4ceb08e966cc6e05e8296f67b02d61a79f09\n\n    auxdata: 0xa26469706673582212207de674d775727a0202452955e6b808c3f72cafb1e2ffcf0897e9e5f71bfa3b7864736f6c63430008110033\n}\n",
				"bytecode": {
					"linkReferences": {},
					"object": "6080604052600060025534801561001557600080fd5b50600080546001600160a01b03191633179055610a66806100376000396000f3fe608060405234801561001057600080fd5b506004361061007d5760003560e01c8063c1444e691161005b578063c1444e69146100cf578063c78a6741146100e2578063f2fde38b14610102578063fd82e9dd1461011557600080fd5b806383197ef0146100825780638d8ee77c1461008c5780638da5cb5b146100b4575b600080fd5b61008a610136565b005b61009f61009a3660046106f1565b610141565b60405190151581526020015b60405180910390f35b6000546040516001600160a01b0390911681526020016100ab565b61009f6100dd366004610741565b6101e4565b6100f56100f0366004610786565b6102c3565b6040516100ab91906107a8565b61008a61011036600461081c565b610454565b61012861012336600461084c565b6104cd565b6040519081526020016100ab565b61013e610509565b30ff5b600081600080516020610a11833981519152811461017a5760405162461bcd60e51b815260040161017190610865565b60405180910390fd5b6002805490600061018a836108a6565b9190505550836001600087815260200190815260200160002060008201518160000155602082015181600101556040820151816002015560608201518160030190816101d69190610950565b506001979650505050505050565b600081600080516020610a1183398151915281146102145760405162461bcd60e51b815260040161017190610865565b60028054906000610224836108a6565b919050555060025484602001818152505083600160006002548152602001908152602001600020600082015181600001556020820151816001015560408201518160020155606082015181600301908161027e9190610950565b509050507fa3be13d0d66ad2a9cc793fa2c8efcab3dc5776a3032ee2cb813702b574c3aaee846040516102b191906107a8565b60405180910390a15060019392505050565b6102ee6040518060800160405280600081526020016000815260200160008152602001606081525090565b81600080516020610a11833981519152811461031c5760405162461bcd60e51b815260040161017190610865565b838060011115801561033057506002548111155b61037c5760405162461bcd60e51b815260206004820152601e60248201527f4461746162617365204c69737443563a20496e76616c696420696e64657800006044820152606401610171565b600160008681526020019081526020016000206040518060800160405290816000820154815260200160018201548152602001600282015481526020016003820180546103c8906108cd565b80601f01602080910402602001604051908101604052809291908181526020018280546103f4906108cd565b80156104415780601f1061041657610100808354040283529160200191610441565b820191906000526020600020905b81548152906001019060200180831161042457829003601f168201915b5050505050815250509250505092915050565b61045c610509565b6001600160a01b0381166104c15760405162461bcd60e51b815260206004820152602660248201527f4f776e61626c653a206e6577206f776e657220697320746865207a65726f206160448201526564647265737360d01b6064820152608401610171565b6104ca81610574565b50565b600081600080516020610a1183398151915281146104fd5760405162461bcd60e51b815260040161017190610865565b60025491505b50919050565b3361051c6000546001600160a01b031690565b6001600160a01b0316146105725760405162461bcd60e51b815260206004820181905260248201527f4f776e61626c653a2063616c6c6572206973206e6f7420746865206f776e65726044820152606401610171565b565b600080546001600160a01b038381166001600160a01b0319831681178455604051919092169283917f8be0079c531659141344cd1fd0a4f28419497f9722a3daafe3b4186f6b6457e09190a35050565b634e487b7160e01b600052604160045260246000fd5b6040516080810167ffffffffffffffff811182821017156105fd576105fd6105c4565b60405290565b604051601f8201601f1916810167ffffffffffffffff8111828210171561062c5761062c6105c4565b604052919050565b60006080828403121561064657600080fd5b61064e6105da565b9050813581526020808301358183015260408301356040830152606083013567ffffffffffffffff8082111561068357600080fd5b818501915085601f83011261069757600080fd5b8135818111156106a9576106a96105c4565b6106bb601f8201601f19168501610603565b915080825286848285010111156106d157600080fd5b808484018584013760008482840101525080606085015250505092915050565b60008060006060848603121561070657600080fd5b83359250602084013567ffffffffffffffff81111561072457600080fd5b61073086828701610634565b925050604084013590509250925092565b6000806040838503121561075457600080fd5b823567ffffffffffffffff81111561076b57600080fd5b61077785828601610634565b95602094909401359450505050565b6000806040838503121561079957600080fd5b50508035926020909101359150565b6000602080835283518184015280840151604084015260408401516060840152606084015160808085015280518060a086015260005b818110156107fa5782810184015186820160c0015283016107de565b50600060c0828701015260c0601f19601f830116860101935050505092915050565b60006020828403121561082e57600080fd5b81356001600160a01b038116811461084557600080fd5b9392505050565b60006020828403121561085e57600080fd5b5035919050565b60208082526021908201527f4461746162617365204c69737443563a20536563726574206b6579206572726f6040820152603960f91b606082015260800190565b6000600182016108c657634e487b7160e01b600052601160045260246000fd5b5060010190565b600181811c908216806108e157607f821691505b60208210810361050357634e487b7160e01b600052602260045260246000fd5b601f82111561094b57600081815260208120601f850160051c810160208610156109285750805b601f850160051c820191505b8181101561094757828155600101610934565b5050505b505050565b815167ffffffffffffffff81111561096a5761096a6105c4565b61097e8161097884546108cd565b84610901565b602080601f8311600181146109b3576000841561099b5750858301515b600019600386901b1c1916600185901b178555610947565b600085815260208120601f198616915b828110156109e2578886015182559484019460019091019084016109c3565b5085821015610a005787850151600019600388901b60f8161c191681555b5050505050600190811b0190555056fe8e1604a838d0f1a9b2cda14a099e4ceb08e966cc6e05e8296f67b02d61a79f09a26469706673582212207de674d775727a0202452955e6b808c3f72cafb1e2ffcf0897e9e5f71bfa3b7864736f6c63430008110033",
					"opcodes": "PUSH1 0x80 PUSH1 0x40 MSTORE PUSH1 0x0 PUSH1 0x2 SSTORE CALLVALUE DUP1 ISZERO PUSH2 0x15 JUMPI PUSH1 0x0 DUP1 REVERT JUMPDEST POP PUSH1 0x0 DUP1 SLOAD PUSH1 0x1 PUSH1 0x1 PUSH1 0xA0 SHL SUB NOT AND CALLER OR SWAP1 SSTORE PUSH2 0xA66 DUP1 PUSH2 0x37 PUSH1 0x0 CODECOPY PUSH1 0x0 RETURN INVALID PUSH1 0x80 PUSH1 0x40 MSTORE CALLVALUE DUP1 ISZERO PUSH2 0x10 JUMPI PUSH1 0x0 DUP1 REVERT JUMPDEST POP PUSH1 0x4 CALLDATASIZE LT PUSH2 0x7D JUMPI PUSH1 0x0 CALLDATALOAD PUSH1 0xE0 SHR DUP1 PUSH4 0xC1444E69 GT PUSH2 0x5B JUMPI DUP1 PUSH4 0xC1444E69 EQ PUSH2 0xCF JUMPI DUP1 PUSH4 0xC78A6741 EQ PUSH2 0xE2 JUMPI DUP1 PUSH4 0xF2FDE38B EQ PUSH2 0x102 JUMPI DUP1 PUSH4 0xFD82E9DD EQ PUSH2 0x115 JUMPI PUSH1 0x0 DUP1 REVERT JUMPDEST DUP1 PUSH4 0x83197EF0 EQ PUSH2 0x82 JUMPI DUP1 PUSH4 0x8D8EE77C EQ PUSH2 0x8C JUMPI DUP1 PUSH4 0x8DA5CB5B EQ PUSH2 0xB4 JUMPI JUMPDEST PUSH1 0x0 DUP1 REVERT JUMPDEST PUSH2 0x8A PUSH2 0x136 JUMP JUMPDEST STOP JUMPDEST PUSH2 0x9F PUSH2 0x9A CALLDATASIZE PUSH1 0x4 PUSH2 0x6F1 JUMP JUMPDEST PUSH2 0x141 JUMP JUMPDEST PUSH1 0x40 MLOAD SWAP1 ISZERO ISZERO DUP2 MSTORE PUSH1 0x20 ADD JUMPDEST PUSH1 0x40 MLOAD DUP1 SWAP2 SUB SWAP1 RETURN JUMPDEST PUSH1 0x0 SLOAD PUSH1 0x40 MLOAD PUSH1 0x1 PUSH1 0x1 PUSH1 0xA0 SHL SUB SWAP1 SWAP2 AND DUP2 MSTORE PUSH1 0x20 ADD PUSH2 0xAB JUMP JUMPDEST PUSH2 0x9F PUSH2 0xDD CALLDATASIZE PUSH1 0x4 PUSH2 0x741 JUMP JUMPDEST PUSH2 0x1E4 JUMP JUMPDEST PUSH2 0xF5 PUSH2 0xF0 CALLDATASIZE PUSH1 0x4 PUSH2 0x786 JUMP JUMPDEST PUSH2 0x2C3 JUMP JUMPDEST PUSH1 0x40 MLOAD PUSH2 0xAB SWAP2 SWAP1 PUSH2 0x7A8 JUMP JUMPDEST PUSH2 0x8A PUSH2 0x110 CALLDATASIZE PUSH1 0x4 PUSH2 0x81C JUMP JUMPDEST PUSH2 0x454 JUMP JUMPDEST PUSH2 0x128 PUSH2 0x123 CALLDATASIZE PUSH1 0x4 PUSH2 0x84C JUMP JUMPDEST PUSH2 0x4CD JUMP JUMPDEST PUSH1 0x40 MLOAD SWAP1 DUP2 MSTORE PUSH1 0x20 ADD PUSH2 0xAB JUMP JUMPDEST PUSH2 0x13E PUSH2 0x509 JUMP JUMPDEST ADDRESS SELFDESTRUCT JUMPDEST PUSH1 0x0 DUP2 PUSH1 0x0 DUP1 MLOAD PUSH1 0x20 PUSH2 0xA11 DUP4 CODECOPY DUP2 MLOAD SWAP2 MSTORE DUP2 EQ PUSH2 0x17A JUMPI PUSH1 0x40 MLOAD PUSH3 0x461BCD PUSH1 0xE5 SHL DUP2 MSTORE PUSH1 0x4 ADD PUSH2 0x171 SWAP1 PUSH2 0x865 JUMP JUMPDEST PUSH1 0x40 MLOAD DUP1 SWAP2 SUB SWAP1 REVERT JUMPDEST PUSH1 0x2 DUP1 SLOAD SWAP1 PUSH1 0x0 PUSH2 0x18A DUP4 PUSH2 0x8A6 JUMP JUMPDEST SWAP2 SWAP1 POP SSTORE POP DUP4 PUSH1 0x1 PUSH1 0x0 DUP8 DUP2 MSTORE PUSH1 0x20 ADD SWAP1 DUP2 MSTORE PUSH1 0x20 ADD PUSH1 0x0 KECCAK256 PUSH1 0x0 DUP3 ADD MLOAD DUP2 PUSH1 0x0 ADD SSTORE PUSH1 0x20 DUP3 ADD MLOAD DUP2 PUSH1 0x1 ADD SSTORE PUSH1 0x40 DUP3 ADD MLOAD DUP2 PUSH1 0x2 ADD SSTORE PUSH1 0x60 DUP3 ADD MLOAD DUP2 PUSH1 0x3 ADD SWAP1 DUP2 PUSH2 0x1D6 SWAP2 SWAP1 PUSH2 0x950 JUMP JUMPDEST POP PUSH1 0x1 SWAP8 SWAP7 POP POP POP POP POP POP POP JUMP JUMPDEST PUSH1 0x0 DUP2 PUSH1 0x0 DUP1 MLOAD PUSH1 0x20 PUSH2 0xA11 DUP4 CODECOPY DUP2 MLOAD SWAP2 MSTORE DUP2 EQ PUSH2 0x214 JUMPI PUSH1 0x40 MLOAD PUSH3 0x461BCD PUSH1 0xE5 SHL DUP2 MSTORE PUSH1 0x4 ADD PUSH2 0x171 SWAP1 PUSH2 0x865 JUMP JUMPDEST PUSH1 0x2 DUP1 SLOAD SWAP1 PUSH1 0x0 PUSH2 0x224 DUP4 PUSH2 0x8A6 JUMP JUMPDEST SWAP2 SWAP1 POP SSTORE POP PUSH1 0x2 SLOAD DUP5 PUSH1 0x20 ADD DUP2 DUP2 MSTORE POP POP DUP4 PUSH1 0x1 PUSH1 0x0 PUSH1 0x2 SLOAD DUP2 MSTORE PUSH1 0x20 ADD SWAP1 DUP2 MSTORE PUSH1 0x20 ADD PUSH1 0x0 KECCAK256 PUSH1 0x0 DUP3 ADD MLOAD DUP2 PUSH1 0x0 ADD SSTORE PUSH1 0x20 DUP3 ADD MLOAD DUP2 PUSH1 0x1 ADD SSTORE PUSH1 0x40 DUP3 ADD MLOAD DUP2 PUSH1 0x2 ADD SSTORE PUSH1 0x60 DUP3 ADD MLOAD DUP2 PUSH1 0x3 ADD SWAP1 DUP2 PUSH2 0x27E SWAP2 SWAP1 PUSH2 0x950 JUMP JUMPDEST POP SWAP1 POP POP PUSH32 0xA3BE13D0D66AD2A9CC793FA2C8EFCAB3DC5776A3032EE2CB813702B574C3AAEE DUP5 PUSH1 0x40 MLOAD PUSH2 0x2B1 SWAP2 SWAP1 PUSH2 0x7A8 JUMP JUMPDEST PUSH1 0x40 MLOAD DUP1 SWAP2 SUB SWAP1 LOG1 POP PUSH1 0x1 SWAP4 SWAP3 POP POP POP JUMP JUMPDEST PUSH2 0x2EE PUSH1 0x40 MLOAD DUP1 PUSH1 0x80 ADD PUSH1 0x40 MSTORE DUP1 PUSH1 0x0 DUP2 MSTORE PUSH1 0x20 ADD PUSH1 0x0 DUP2 MSTORE PUSH1 0x20 ADD PUSH1 0x0 DUP2 MSTORE PUSH1 0x20 ADD PUSH1 0x60 DUP2 MSTORE POP SWAP1 JUMP JUMPDEST DUP2 PUSH1 0x0 DUP1 MLOAD PUSH1 0x20 PUSH2 0xA11 DUP4 CODECOPY DUP2 MLOAD SWAP2 MSTORE DUP2 EQ PUSH2 0x31C JUMPI PUSH1 0x40 MLOAD PUSH3 0x461BCD PUSH1 0xE5 SHL DUP2 MSTORE PUSH1 0x4 ADD PUSH2 0x171 SWAP1 PUSH2 0x865 JUMP JUMPDEST DUP4 DUP1 PUSH1 0x1 GT ISZERO DUP1 ISZERO PUSH2 0x330 JUMPI POP PUSH1 0x2 SLOAD DUP2 GT ISZERO JUMPDEST PUSH2 0x37C JUMPI PUSH1 0x40 MLOAD PUSH3 0x461BCD PUSH1 0xE5 SHL DUP2 MSTORE PUSH1 0x20 PUSH1 0x4 DUP3 ADD MSTORE PUSH1 0x1E PUSH1 0x24 DUP3 ADD MSTORE PUSH32 0x4461746162617365204C69737443563A20496E76616C696420696E6465780000 PUSH1 0x44 DUP3 ADD MSTORE PUSH1 0x64 ADD PUSH2 0x171 JUMP JUMPDEST PUSH1 0x1 PUSH1 0x0 DUP7 DUP2 MSTORE PUSH1 0x20 ADD SWAP1 DUP2 MSTORE PUSH1 0x20 ADD PUSH1 0x0 KECCAK256 PUSH1 0x40 MLOAD DUP1 PUSH1 0x80 ADD PUSH1 0x40 MSTORE SWAP1 DUP2 PUSH1 0x0 DUP3 ADD SLOAD DUP2 MSTORE PUSH1 0x20 ADD PUSH1 0x1 DUP3 ADD SLOAD DUP2 MSTORE PUSH1 0x20 ADD PUSH1 0x2 DUP3 ADD SLOAD DUP2 MSTORE PUSH1 0x20 ADD PUSH1 0x3 DUP3 ADD DUP1 SLOAD PUSH2 0x3C8 SWAP1 PUSH2 0x8CD JUMP JUMPDEST DUP1 PUSH1 0x1F ADD PUSH1 0x20 DUP1 SWAP2 DIV MUL PUSH1 0x20 ADD PUSH1 0x40 MLOAD SWAP1 DUP2 ADD PUSH1 0x40 MSTORE DUP1 SWAP3 SWAP2 SWAP1 DUP2 DUP2 MSTORE PUSH1 0x20 ADD DUP3 DUP1 SLOAD PUSH2 0x3F4 SWAP1 PUSH2 0x8CD JUMP JUMPDEST DUP1 ISZERO PUSH2 0x441 JUMPI DUP1 PUSH1 0x1F LT PUSH2 0x416 JUMPI PUSH2 0x100 DUP1 DUP4 SLOAD DIV MUL DUP4 MSTORE SWAP2 PUSH1 0x20 ADD SWAP2 PUSH2 0x441 JUMP JUMPDEST DUP3 ADD SWAP2 SWAP1 PUSH1 0x0 MSTORE PUSH1 0x20 PUSH1 0x0 KECCAK256 SWAP1 JUMPDEST DUP2 SLOAD DUP2 MSTORE SWAP1 PUSH1 0x1 ADD SWAP1 PUSH1 0x20 ADD DUP1 DUP4 GT PUSH2 0x424 JUMPI DUP3 SWAP1 SUB PUSH1 0x1F AND DUP3 ADD SWAP2 JUMPDEST POP POP POP POP POP DUP2 MSTORE POP POP SWAP3 POP POP POP SWAP3 SWAP2 POP POP JUMP JUMPDEST PUSH2 0x45C PUSH2 0x509 JUMP JUMPDEST PUSH1 0x1 PUSH1 0x1 PUSH1 0xA0 SHL SUB DUP2 AND PUSH2 0x4C1 JUMPI PUSH1 0x40 MLOAD PUSH3 0x461BCD PUSH1 0xE5 SHL DUP2 MSTORE PUSH1 0x20 PUSH1 0x4 DUP3 ADD MSTORE PUSH1 0x26 PUSH1 0x24 DUP3 ADD MSTORE PUSH32 0x4F776E61626C653A206E6577206F776E657220697320746865207A65726F2061 PUSH1 0x44 DUP3 ADD MSTORE PUSH6 0x646472657373 PUSH1 0xD0 SHL PUSH1 0x64 DUP3 ADD MSTORE PUSH1 0x84 ADD PUSH2 0x171 JUMP JUMPDEST PUSH2 0x4CA DUP2 PUSH2 0x574 JUMP JUMPDEST POP JUMP JUMPDEST PUSH1 0x0 DUP2 PUSH1 0x0 DUP1 MLOAD PUSH1 0x20 PUSH2 0xA11 DUP4 CODECOPY DUP2 MLOAD SWAP2 MSTORE DUP2 EQ PUSH2 0x4FD JUMPI PUSH1 0x40 MLOAD PUSH3 0x461BCD PUSH1 0xE5 SHL DUP2 MSTORE PUSH1 0x4 ADD PUSH2 0x171 SWAP1 PUSH2 0x865 JUMP JUMPDEST PUSH1 0x2 SLOAD SWAP2 POP JUMPDEST POP SWAP2 SWAP1 POP JUMP JUMPDEST CALLER PUSH2 0x51C PUSH1 0x0 SLOAD PUSH1 0x1 PUSH1 0x1 PUSH1 0xA0 SHL SUB AND SWAP1 JUMP JUMPDEST PUSH1 0x1 PUSH1 0x1 PUSH1 0xA0 SHL SUB AND EQ PUSH2 0x572 JUMPI PUSH1 0x40 MLOAD PUSH3 0x461BCD PUSH1 0xE5 SHL DUP2 MSTORE PUSH1 0x20 PUSH1 0x4 DUP3 ADD DUP2 SWAP1 MSTORE PUSH1 0x24 DUP3 ADD MSTORE PUSH32 0x4F776E61626C653A2063616C6C6572206973206E6F7420746865206F776E6572 PUSH1 0x44 DUP3 ADD MSTORE PUSH1 0x64 ADD PUSH2 0x171 JUMP JUMPDEST JUMP JUMPDEST PUSH1 0x0 DUP1 SLOAD PUSH1 0x1 PUSH1 0x1 PUSH1 0xA0 SHL SUB DUP4 DUP2 AND PUSH1 0x1 PUSH1 0x1 PUSH1 0xA0 SHL SUB NOT DUP4 AND DUP2 OR DUP5 SSTORE PUSH1 0x40 MLOAD SWAP2 SWAP1 SWAP3 AND SWAP3 DUP4 SWAP2 PUSH32 0x8BE0079C531659141344CD1FD0A4F28419497F9722A3DAAFE3B4186F6B6457E0 SWAP2 SWAP1 LOG3 POP POP JUMP JUMPDEST PUSH4 0x4E487B71 PUSH1 0xE0 SHL PUSH1 0x0 MSTORE PUSH1 0x41 PUSH1 0x4 MSTORE PUSH1 0x24 PUSH1 0x0 REVERT JUMPDEST PUSH1 0x40 MLOAD PUSH1 0x80 DUP2 ADD PUSH8 0xFFFFFFFFFFFFFFFF DUP2 GT DUP3 DUP3 LT OR ISZERO PUSH2 0x5FD JUMPI PUSH2 0x5FD PUSH2 0x5C4 JUMP JUMPDEST PUSH1 0x40 MSTORE SWAP1 JUMP JUMPDEST PUSH1 0x40 MLOAD PUSH1 0x1F DUP3 ADD PUSH1 0x1F NOT AND DUP2 ADD PUSH8 0xFFFFFFFFFFFFFFFF DUP2 GT DUP3 DUP3 LT OR ISZERO PUSH2 0x62C JUMPI PUSH2 0x62C PUSH2 0x5C4 JUMP JUMPDEST PUSH1 0x40 MSTORE SWAP2 SWAP1 POP JUMP JUMPDEST PUSH1 0x0 PUSH1 0x80 DUP3 DUP5 SUB SLT ISZERO PUSH2 0x646 JUMPI PUSH1 0x0 DUP1 REVERT JUMPDEST PUSH2 0x64E PUSH2 0x5DA JUMP JUMPDEST SWAP1 POP DUP2 CALLDATALOAD DUP2 MSTORE PUSH1 0x20 DUP1 DUP4 ADD CALLDATALOAD DUP2 DUP4 ADD MSTORE PUSH1 0x40 DUP4 ADD CALLDATALOAD PUSH1 0x40 DUP4 ADD MSTORE PUSH1 0x60 DUP4 ADD CALLDATALOAD PUSH8 0xFFFFFFFFFFFFFFFF DUP1 DUP3 GT ISZERO PUSH2 0x683 JUMPI PUSH1 0x0 DUP1 REVERT JUMPDEST DUP2 DUP6 ADD SWAP2 POP DUP6 PUSH1 0x1F DUP4 ADD SLT PUSH2 0x697 JUMPI PUSH1 0x0 DUP1 REVERT JUMPDEST DUP2 CALLDATALOAD DUP2 DUP2 GT ISZERO PUSH2 0x6A9 JUMPI PUSH2 0x6A9 PUSH2 0x5C4 JUMP JUMPDEST PUSH2 0x6BB PUSH1 0x1F DUP3 ADD PUSH1 0x1F NOT AND DUP6 ADD PUSH2 0x603 JUMP JUMPDEST SWAP2 POP DUP1 DUP3 MSTORE DUP7 DUP5 DUP3 DUP6 ADD ADD GT ISZERO PUSH2 0x6D1 JUMPI PUSH1 0x0 DUP1 REVERT JUMPDEST DUP1 DUP5 DUP5 ADD DUP6 DUP5 ADD CALLDATACOPY PUSH1 0x0 DUP5 DUP3 DUP5 ADD ADD MSTORE POP DUP1 PUSH1 0x60 DUP6 ADD MSTORE POP POP POP SWAP3 SWAP2 POP POP JUMP JUMPDEST PUSH1 0x0 DUP1 PUSH1 0x0 PUSH1 0x60 DUP5 DUP7 SUB SLT ISZERO PUSH2 0x706 JUMPI PUSH1 0x0 DUP1 REVERT JUMPDEST DUP4 CALLDATALOAD SWAP3 POP PUSH1 0x20 DUP5 ADD CALLDATALOAD PUSH8 0xFFFFFFFFFFFFFFFF DUP2 GT ISZERO PUSH2 0x724 JUMPI PUSH1 0x0 DUP1 REVERT JUMPDEST PUSH2 0x730 DUP7 DUP3 DUP8 ADD PUSH2 0x634 JUMP JUMPDEST SWAP3 POP POP PUSH1 0x40 DUP5 ADD CALLDATALOAD SWAP1 POP SWAP3 POP SWAP3 POP SWAP3 JUMP JUMPDEST PUSH1 0x0 DUP1 PUSH1 0x40 DUP4 DUP6 SUB SLT ISZERO PUSH2 0x754 JUMPI PUSH1 0x0 DUP1 REVERT JUMPDEST DUP3 CALLDATALOAD PUSH8 0xFFFFFFFFFFFFFFFF DUP2 GT ISZERO PUSH2 0x76B JUMPI PUSH1 0x0 DUP1 REVERT JUMPDEST PUSH2 0x777 DUP6 DUP3 DUP7 ADD PUSH2 0x634 JUMP JUMPDEST SWAP6 PUSH1 0x20 SWAP5 SWAP1 SWAP5 ADD CALLDATALOAD SWAP5 POP POP POP POP JUMP JUMPDEST PUSH1 0x0 DUP1 PUSH1 0x40 DUP4 DUP6 SUB SLT ISZERO PUSH2 0x799 JUMPI PUSH1 0x0 DUP1 REVERT JUMPDEST POP POP DUP1 CALLDATALOAD SWAP3 PUSH1 0x20 SWAP1 SWAP2 ADD CALLDATALOAD SWAP2 POP JUMP JUMPDEST PUSH1 0x0 PUSH1 0x20 DUP1 DUP4 MSTORE DUP4 MLOAD DUP2 DUP5 ADD MSTORE DUP1 DUP5 ADD MLOAD PUSH1 0x40 DUP5 ADD MSTORE PUSH1 0x40 DUP5 ADD MLOAD PUSH1 0x60 DUP5 ADD MSTORE PUSH1 0x60 DUP5 ADD MLOAD PUSH1 0x80 DUP1 DUP6 ADD MSTORE DUP1 MLOAD DUP1 PUSH1 0xA0 DUP7 ADD MSTORE PUSH1 0x0 JUMPDEST DUP2 DUP2 LT ISZERO PUSH2 0x7FA JUMPI DUP3 DUP2 ADD DUP5 ADD MLOAD DUP7 DUP3 ADD PUSH1 0xC0 ADD MSTORE DUP4 ADD PUSH2 0x7DE JUMP JUMPDEST POP PUSH1 0x0 PUSH1 0xC0 DUP3 DUP8 ADD ADD MSTORE PUSH1 0xC0 PUSH1 0x1F NOT PUSH1 0x1F DUP4 ADD AND DUP7 ADD ADD SWAP4 POP POP POP POP SWAP3 SWAP2 POP POP JUMP JUMPDEST PUSH1 0x0 PUSH1 0x20 DUP3 DUP5 SUB SLT ISZERO PUSH2 0x82E JUMPI PUSH1 0x0 DUP1 REVERT JUMPDEST DUP2 CALLDATALOAD PUSH1 0x1 PUSH1 0x1 PUSH1 0xA0 SHL SUB DUP2 AND DUP2 EQ PUSH2 0x845 JUMPI PUSH1 0x0 DUP1 REVERT JUMPDEST SWAP4 SWAP3 POP POP POP JUMP JUMPDEST PUSH1 0x0 PUSH1 0x20 DUP3 DUP5 SUB SLT ISZERO PUSH2 0x85E JUMPI PUSH1 0x0 DUP1 REVERT JUMPDEST POP CALLDATALOAD SWAP2 SWAP1 POP JUMP JUMPDEST PUSH1 0x20 DUP1 DUP3 MSTORE PUSH1 0x21 SWAP1 DUP3 ADD MSTORE PUSH32 0x4461746162617365204C69737443563A20536563726574206B6579206572726F PUSH1 0x40 DUP3 ADD MSTORE PUSH1 0x39 PUSH1 0xF9 SHL PUSH1 0x60 DUP3 ADD MSTORE PUSH1 0x80 ADD SWAP1 JUMP JUMPDEST PUSH1 0x0 PUSH1 0x1 DUP3 ADD PUSH2 0x8C6 JUMPI PUSH4 0x4E487B71 PUSH1 0xE0 SHL PUSH1 0x0 MSTORE PUSH1 0x11 PUSH1 0x4 MSTORE PUSH1 0x24 PUSH1 0x0 REVERT JUMPDEST POP PUSH1 0x1 ADD SWAP1 JUMP JUMPDEST PUSH1 0x1 DUP2 DUP2 SHR SWAP1 DUP3 AND DUP1 PUSH2 0x8E1 JUMPI PUSH1 0x7F DUP3 AND SWAP2 POP JUMPDEST PUSH1 0x20 DUP3 LT DUP2 SUB PUSH2 0x503 JUMPI PUSH4 0x4E487B71 PUSH1 0xE0 SHL PUSH1 0x0 MSTORE PUSH1 0x22 PUSH1 0x4 MSTORE PUSH1 0x24 PUSH1 0x0 REVERT JUMPDEST PUSH1 0x1F DUP3 GT ISZERO PUSH2 0x94B JUMPI PUSH1 0x0 DUP2 DUP2 MSTORE PUSH1 0x20 DUP2 KECCAK256 PUSH1 0x1F DUP6 ADD PUSH1 0x5 SHR DUP2 ADD PUSH1 0x20 DUP7 LT ISZERO PUSH2 0x928 JUMPI POP DUP1 JUMPDEST PUSH1 0x1F DUP6 ADD PUSH1 0x5 SHR DUP3 ADD SWAP2 POP JUMPDEST DUP2 DUP2 LT ISZERO PUSH2 0x947 JUMPI DUP3 DUP2 SSTORE PUSH1 0x1 ADD PUSH2 0x934 JUMP JUMPDEST POP POP POP JUMPDEST POP POP POP JUMP JUMPDEST DUP2 MLOAD PUSH8 0xFFFFFFFFFFFFFFFF DUP2 GT ISZERO PUSH2 0x96A JUMPI PUSH2 0x96A PUSH2 0x5C4 JUMP JUMPDEST PUSH2 0x97E DUP2 PUSH2 0x978 DUP5 SLOAD PUSH2 0x8CD JUMP JUMPDEST DUP5 PUSH2 0x901 JUMP JUMPDEST PUSH1 0x20 DUP1 PUSH1 0x1F DUP4 GT PUSH1 0x1 DUP2 EQ PUSH2 0x9B3 JUMPI PUSH1 0x0 DUP5 ISZERO PUSH2 0x99B JUMPI POP DUP6 DUP4 ADD MLOAD JUMPDEST PUSH1 0x0 NOT PUSH1 0x3 DUP7 SWAP1 SHL SHR NOT AND PUSH1 0x1 DUP6 SWAP1 SHL OR DUP6 SSTORE PUSH2 0x947 JUMP JUMPDEST PUSH1 0x0 DUP6 DUP2 MSTORE PUSH1 0x20 DUP2 KECCAK256 PUSH1 0x1F NOT DUP7 AND SWAP2 JUMPDEST DUP3 DUP2 LT ISZERO PUSH2 0x9E2 JUMPI DUP9 DUP7 ADD MLOAD DUP3 SSTORE SWAP5 DUP5 ADD SWAP5 PUSH1 0x1 SWAP1 SWAP2 ADD SWAP1 DUP5 ADD PUSH2 0x9C3 JUMP JUMPDEST POP DUP6 DUP3 LT ISZERO PUSH2 0xA00 JUMPI DUP8 DUP6 ADD MLOAD PUSH1 0x0 NOT PUSH1 0x3 DUP9 SWAP1 SHL PUSH1 0xF8 AND SHR NOT AND DUP2 SSTORE JUMPDEST POP POP POP POP POP PUSH1 0x1 SWAP1 DUP2 SHL ADD SWAP1 SSTORE POP JUMP INVALID DUP15 AND DIV 0xA8 CODESIZE 0xD0 CALL 0xA9 0xB2 0xCD LOG1 0x4A MULMOD SWAP15 0x4C 0xEB ADDMOD 0xE9 PUSH7 0xCC6E05E8296F67 0xB0 0x2D PUSH2 0xA79F MULMOD LOG2 PUSH5 0x6970667358 0x22 SLT KECCAK256 PUSH30 0xE674D775727A0202452955E6B808C3F72CAFB1E2FFCF0897E9E5F71BFA3B PUSH25 0x64736F6C634300081100330000000000000000000000000000 "
				},
				"gasEstimates": {
					"creation": {
						"codeDepositCost": "532400",
						"executionCost": "29809",
						"totalCost": "562209"
					},
					"external": {
						"add((uint256,uint256,uint256,string),bytes32)": "infinite",
						"at(uint256,bytes32)": "infinite",
						"destroy()": "29935",
						"edit(uint256,(uint256,uint256,uint256,string),bytes32)": "infinite",
						"getLength(bytes32)": "infinite",
						"owner()": "2346",
						"transferOwnership(address)": "28375"
					}
				},
				"methodIdentifiers": {
					"add((uint256,uint256,uint256,string),bytes32)": "c1444e69",
					"at(uint256,bytes32)": "c78a6741",
					"destroy()": "83197ef0",
					"edit(uint256,(uint256,uint256,uint256,string),bytes32)": "8d8ee77c",
					"getLength(bytes32)": "fd82e9dd",
					"owner()": "8da5cb5b",
					"transferOwnership(address)": "f2fde38b"
				}
			},
			"storageLayout": {
				"storage": [
					{
						"astId": 4,
						"contract": "database/employee/cv/ListCV.sol:ListCV",
						"label": "_owner",
						"offset": 0,
						"slot": "0",
						"type": "t_address"
					},
					{
						"astId": 1144,
						"contract": "database/employee/cv/ListCV.sol:ListCV",
						"label": "list",
						"offset": 0,
						"slot": "1",
						"type": "t_mapping(t_uint256,t_struct(CV)1413_storage)"
					},
					{
						"astId": 1147,
						"contract": "database/employee/cv/ListCV.sol:ListCV",
						"label": "autoIncrement",
						"offset": 0,
						"slot": "2",
						"type": "t_uint256"
					}
				],
				"types": {
					"t_address": {
						"encoding": "inplace",
						"label": "address",
						"numberOfBytes": "20"
					},
					"t_mapping(t_uint256,t_struct(CV)1413_storage)": {
						"encoding": "mapping",
						"key": "t_uint256",
						"label": "mapping(uint256 => struct CV)",
						"numberOfBytes": "32",
						"value": "t_struct(CV)1413_storage"
					},
					"t_string_storage": {
						"encoding": "bytes",
						"label": "string",
						"numberOfBytes": "32"
					},
					"t_struct(CV)1413_storage": {
						"encoding": "inplace",
						"label": "struct CV",
						"members": [
							{
								"astId": 1406,
								"contract": "database/employee/cv/ListCV.sol:ListCV",
								"label": "employeeId",
								"offset": 0,
								"slot": "0",
								"type": "t_uint256"
							},
							{
								"astId": 1408,
								"contract": "database/employee/cv/ListCV.sol:ListCV",
								"label": "cvId",
								"offset": 0,
								"slot": "1",
								"type": "t_uint256"
							},
							{
								"astId": 1410,
								"contract": "database/employee/cv/ListCV.sol:ListCV",
								"label": "time",
								"offset": 0,
								"slot": "2",
								"type": "t_uint256"
							},
							{
								"astId": 1412,
								"contract": "database/employee/cv/ListCV.sol:ListCV",
								"label": "data",
								"offset": 0,
								"slot": "3",
								"type": "t_string_storage"
							}
						],
						"numberOfBytes": "128"
					},
					"t_uint256": {
						"encoding": "inplace",
						"label": "uint256",
						"numberOfBytes": "32"
					}
				}
			},
			"userdoc": {
				"kind": "user",
				"methods": {},
				"version": 1
			}
		}
	}
}