{
	"data": {
		"bytecode": {
			"linkReferences": {},
			"object": "60806040523480156200001157600080fd5b5060405162002a8d38038062002a8d8339818101604052810190620000379190620001f7565b80828486336000806101000a81548173ffffffffffffffffffffffffffffffffffffffff021916908373ffffffffffffffffffffffffffffffffffffffff16021790555080600160006101000a81548173ffffffffffffffffffffffffffffffffffffffff021916908373ffffffffffffffffffffffffffffffffffffffff1602179055505080600260006101000a81548173ffffffffffffffffffffffffffffffffffffffff021916908373ffffffffffffffffffffffffffffffffffffffff1602179055505080600360006101000a81548173ffffffffffffffffffffffffffffffffffffffff021916908373ffffffffffffffffffffffffffffffffffffffff1602179055505080600460006101000a81548173ffffffffffffffffffffffffffffffffffffffff021916908373ffffffffffffffffffffffffffffffffffffffff160217905550505050505062000269565b600080fd5b600073ffffffffffffffffffffffffffffffffffffffff82169050919050565b6000620001bf8262000192565b9050919050565b620001d181620001b2565b8114620001dd57600080fd5b50565b600081519050620001f181620001c6565b92915050565b600080600080608085870312156200021457620002136200018d565b5b60006200022487828801620001e0565b94505060206200023787828801620001e0565b93505060406200024a87828801620001e0565b92505060606200025d87828801620001e0565b91505092959194509250565b61281480620002796000396000f3fe608060405234801561001057600080fd5b50600436106100cf5760003560e01c80638da5cb5b1161008c578063c1fa897d11610066578063c1fa897d146101fe578063e583267d1461022e578063ec40a59b1461024a578063f2fde38b14610268576100cf565b80638da5cb5b1461019457806396b93424146101b2578063bad50029146101ce576100cf565b80631fe1d463146100d45780633901d42d146100f057806349e488a01461010e57806364f3fe9d1461013e5780637be695691461016e57806383197ef01461018a575b600080fd5b6100ee60048036038101906100e991906112bf565b610284565b005b6100f8610401565b60405161010591906115c3565b60405180910390f35b610128600480360381019061012391906115e5565b610483565b6040516101359190611640565b60405180910390f35b610158600480360381019061015391906115e5565b610591565b6040516101659190611640565b60405180910390f35b6101886004803603810190610183919061165b565b610653565b005b61019261077f565b005b61019c6107a0565b6040516101a991906117e4565b60405180910390f35b6101cc60048036038101906101c791906117ff565b6107c9565b005b6101e860048036038101906101e391906115e5565b610953565b6040516101f59190611640565b60405180910390f35b61021860048036038101906102139190611852565b610a15565b6040516102259190611640565b60405180910390f35b610248600480360381019061024391906117ff565b610af5565b005b610252610c4c565b60405161025f9190611640565b60405180910390f35b610282600480360381019061027d91906118da565b610d27565b005b8261028d610c4c565b6102cc576040517f08c379a00000000000000000000000000000000000000000000000000000000081526004016102c39061198a565b60405180910390fd5b6102d581610daa565b610314576040517f08c379a000000000000000000000000000000000000000000000000000000000815260040161030b90611a1c565b60405180910390fd5b83836103208282610a15565b15610360576040517f08c379a000000000000000000000000000000000000000000000000000000000815260040161035790611aae565b60405180910390fd5b600060405180608001604052808881526020016000815260200187815260200186815250905061038e610e66565b73ffffffffffffffffffffffffffffffffffffffff166363ba26b6826040518263ffffffff1660e01b81526004016103c69190611b31565b600060405180830381600087803b1580156103e057600080fd5b505af11580156103f4573d6000803e3d6000fd5b5050505050505050505050565b606061040b610e90565b73ffffffffffffffffffffffffffffffffffffffff166353ed51436040518163ffffffff1660e01b8152600401600060405180830381865afa158015610455573d6000803e3d6000fd5b505050506040513d6000823e3d601f19601f8201168201806040525081019061047e9190611e97565b905090565b600080600360009054906101000a900473ffffffffffffffffffffffffffffffffffffffff1673ffffffffffffffffffffffffffffffffffffffff166353ed51436040518163ffffffff1660e01b8152600401600060405180830381865afa1580156104f3573d6000803e3d6000fd5b505050506040513d6000823e3d601f19601f8201168201806040525081019061051c9190612043565b905060005b815181101561058457600082828151811061053f5761053e61208c565b5b6020026020010151905085816020015114801561055f5750848160600151145b15610570576001935050505061058b565b50808061057c906120ea565b915050610521565b5060009150505b92915050565b600080600360009054906101000a900473ffffffffffffffffffffffffffffffffffffffff1673ffffffffffffffffffffffffffffffffffffffff1663e0886f90856040518263ffffffff1660e01b81526004016105ef9190612141565b60c060405180830381865afa15801561060c573d6000803e3d6000fd5b505050506040513d601f19601f82011682018060405250810190610630919061215c565b60200151905080830361064757600191505061064d565b60009150505b92915050565b61065b610c4c565b1561069b576040517f08c379a0000000000000000000000000000000000000000000000000000000008152600401610692906121fb565b60405180910390fd5b600033905060006040518061014001604052808b8152602001600081526020018373ffffffffffffffffffffffffffffffffffffffff1681526020018a8152602001898152602001888152602001878152602001868152602001858152602001848152509050610709610e90565b73ffffffffffffffffffffffffffffffffffffffff1663057f4d79826040518263ffffffff1660e01b8152600401610741919061231f565b600060405180830381600087803b15801561075b57600080fd5b505af115801561076f573d6000803e3d6000fd5b5050505050505050505050505050565b610787610eba565b3073ffffffffffffffffffffffffffffffffffffffff16ff5b60008060009054906101000a900473ffffffffffffffffffffffffffffffffffffffff16905090565b826107d2610c4c565b610811576040517f08c379a00000000000000000000000000000000000000000000000000000000081526004016108089061198a565b60405180910390fd5b61081a81610daa565b610859576040517f08c379a000000000000000000000000000000000000000000000000000000000815260040161085090611a1c565b60405180910390fd5b83826108658282610483565b156108a5576040517f08c379a000000000000000000000000000000000000000000000000000000000815260040161089c906123b3565b60405180910390fd5b60006040518060c0016040528060008152602001888152602001878152602001868152602001428152602001600081525090506108e0610f31565b73ffffffffffffffffffffffffffffffffffffffff1663a5b7e4bd826040518263ffffffff1660e01b8152600401610918919061244e565b600060405180830381600087803b15801561093257600080fd5b505af1158015610946573d6000803e3d6000fd5b5050505050505050505050565b600080600360009054906101000a900473ffffffffffffffffffffffffffffffffffffffff1673ffffffffffffffffffffffffffffffffffffffff1663e0886f90856040518263ffffffff1660e01b81526004016109b19190612141565b60c060405180830381865afa1580156109ce573d6000803e3d6000fd5b505050506040513d601f19601f820116820180604052508101906109f2919061215c565b606001519050808303610a09576001915050610a0f565b60009150505b92915050565b600080600260009054906101000a900473ffffffffffffffffffffffffffffffffffffffff1673ffffffffffffffffffffffffffffffffffffffff166325f5477085856040518363ffffffff1660e01b8152600401610a759291906124a2565b602060405180830381865afa158015610a92573d6000803e3d6000fd5b505050506040513d601f19601f82011682018060405250810190610ab691906124d2565b90507fffffffffffffffffffffffffffffffffffffffffffffffffffffffffffffffff8114610ae9576001915050610aef565b60009150505b92915050565b82610afe610c4c565b610b3d576040517f08c379a0000000000000000000000000000000000000000000000000000000008152600401610b349061198a565b60405180910390fd5b610b4681610daa565b610b85576040517f08c379a0000000000000000000000000000000000000000000000000000000008152600401610b7c90611a1c565b60405180910390fd5b8383610b918282610f5b565b610bd0576040517f08c379a0000000000000000000000000000000000000000000000000000000008152600401610bc790612571565b60405180910390fd5b610bd8610e66565b73ffffffffffffffffffffffffffffffffffffffff166370a93b3686866040518363ffffffff1660e01b8152600401610c12929190612591565b600060405180830381600087803b158015610c2c57600080fd5b505af1158015610c40573d6000803e3d6000fd5b50505050505050505050565b600080600160009054906101000a900473ffffffffffffffffffffffffffffffffffffffff1673ffffffffffffffffffffffffffffffffffffffff166368938870336040518263ffffffff1660e01b8152600401610caa91906117e4565b602060405180830381865afa158015610cc7573d6000803e3d6000fd5b505050506040513d601f19601f82011682018060405250810190610ceb91906124d2565b90507fffffffffffffffffffffffffffffffffffffffffffffffffffffffffffffffff8103610d1e576000915050610d24565b60019150505b90565b610d2f610eba565b600073ffffffffffffffffffffffffffffffffffffffff168173ffffffffffffffffffffffffffffffffffffffff1603610d9e576040517f08c379a0000000000000000000000000000000000000000000000000000000008152600401610d959061262c565b60405180910390fd5b610da781611022565b50565b600080600160009054906101000a900473ffffffffffffffffffffffffffffffffffffffff1673ffffffffffffffffffffffffffffffffffffffff1663e0886f90846040518263ffffffff1660e01b8152600401610e089190612141565b600060405180830381865afa158015610e25573d6000803e3d6000fd5b505050506040513d6000823e3d601f19601f82011682018060405250810190610e4e919061264c565b9050610e5e8160400151336110e6565b915050919050565b6000600260009054906101000a900473ffffffffffffffffffffffffffffffffffffffff16905090565b6000600160009054906101000a900473ffffffffffffffffffffffffffffffffffffffff16905090565b3373ffffffffffffffffffffffffffffffffffffffff16610ed96107a0565b73ffffffffffffffffffffffffffffffffffffffff1614610f2f576040517f08c379a0000000000000000000000000000000000000000000000000000000008152600401610f26906126e1565b60405180910390fd5b565b6000600360009054906101000a900473ffffffffffffffffffffffffffffffffffffffff16905090565b600080600260009054906101000a900473ffffffffffffffffffffffffffffffffffffffff1673ffffffffffffffffffffffffffffffffffffffff1663e0886f90856040518263ffffffff1660e01b8152600401610fb99190612141565b600060405180830381865afa158015610fd6573d6000803e3d6000fd5b505050506040513d6000823e3d601f19601f82011682018060405250810190610fff9190612795565b60200151905082810361101657600191505061101c565b60009150505b92915050565b60008060009054906101000a900473ffffffffffffffffffffffffffffffffffffffff169050816000806101000a81548173ffffffffffffffffffffffffffffffffffffffff021916908373ffffffffffffffffffffffffffffffffffffffff1602179055508173ffffffffffffffffffffffffffffffffffffffff168173ffffffffffffffffffffffffffffffffffffffff167f8be0079c531659141344cd1fd0a4f28419497f9722a3daafe3b4186f6b6457e060405160405180910390a35050565b60008173ffffffffffffffffffffffffffffffffffffffff168373ffffffffffffffffffffffffffffffffffffffff16036111245760019050611129565b600090505b92915050565b6000604051905090565b600080fd5b600080fd5b6000819050919050565b61115681611143565b811461116157600080fd5b50565b6000813590506111738161114d565b92915050565b600080fd5b600080fd5b6000601f19601f8301169050919050565b7f4e487b7100000000000000000000000000000000000000000000000000000000600052604160045260246000fd5b6111cc82611183565b810181811067ffffffffffffffff821117156111eb576111ea611194565b5b80604052505050565b60006111fe61112f565b905061120a82826111c3565b919050565b600067ffffffffffffffff82111561122a57611229611194565b5b61123382611183565b9050602081019050919050565b82818337600083830152505050565b600061126261125d8461120f565b6111f4565b90508281526020810184848401111561127e5761127d61117e565b5b611289848285611240565b509392505050565b600082601f8301126112a6576112a5611179565b5b81356112b684826020860161124f565b91505092915050565b6000806000606084860312156112d8576112d7611139565b5b60006112e686828701611164565b935050602084013567ffffffffffffffff8111156113075761130661113e565b5b61131386828701611291565b925050604061132486828701611164565b9150509250925092565b600081519050919050565b600082825260208201905092915050565b6000819050602082019050919050565b61136381611143565b82525050565b600073ffffffffffffffffffffffffffffffffffffffff82169050919050565b600061139482611369565b9050919050565b6113a481611389565b82525050565b600081519050919050565b600082825260208201905092915050565b60005b838110156113e45780820151818401526020810190506113c9565b60008484015250505050565b60006113fb826113aa565b61140581856113b5565b93506114158185602086016113c6565b61141e81611183565b840191505092915050565b600061014083016000830151611442600086018261135a565b506020830151611455602086018261135a565b506040830151611468604086018261139b565b506060830151848203606086015261148082826113f0565b9150506080830151848203608086015261149a82826113f0565b91505060a083015184820360a08601526114b482826113f0565b91505060c083015184820360c08601526114ce82826113f0565b91505060e083015184820360e08601526114e882826113f0565b91505061010083015184820361010086015261150482826113f0565b91505061012083015184820361012086015261152082826113f0565b9150508091505092915050565b60006115398383611429565b905092915050565b6000602082019050919050565b60006115598261132e565b6115638185611339565b9350836020820285016115758561134a565b8060005b858110156115b15784840389528151611592858261152d565b945061159d83611541565b925060208a01995050600181019050611579565b50829750879550505050505092915050565b600060208201905081810360008301526115dd818461154e565b905092915050565b600080604083850312156115fc576115fb611139565b5b600061160a85828601611164565b925050602061161b85828601611164565b9150509250929050565b60008115159050919050565b61163a81611625565b82525050565b60006020820190506116556000830184611631565b92915050565b600080600080600080600080610100898b03121561167c5761167b611139565b5b600061168a8b828c01611164565b985050602089013567ffffffffffffffff8111156116ab576116aa61113e565b5b6116b78b828c01611291565b975050604089013567ffffffffffffffff8111156116d8576116d761113e565b5b6116e48b828c01611291565b965050606089013567ffffffffffffffff8111156117055761170461113e565b5b6117118b828c01611291565b955050608089013567ffffffffffffffff8111156117325761173161113e565b5b61173e8b828c01611291565b94505060a089013567ffffffffffffffff81111561175f5761175e61113e565b5b61176b8b828c01611291565b93505060c089013567ffffffffffffffff81111561178c5761178b61113e565b5b6117988b828c01611291565b92505060e089013567ffffffffffffffff8111156117b9576117b861113e565b5b6117c58b828c01611291565b9150509295985092959890939650565b6117de81611389565b82525050565b60006020820190506117f960008301846117d5565b92915050565b60008060006060848603121561181857611817611139565b5b600061182686828701611164565b935050602061183786828701611164565b925050604061184886828701611164565b9150509250925092565b6000806040838503121561186957611868611139565b5b600061187785828601611164565b925050602083013567ffffffffffffffff8111156118985761189761113e565b5b6118a485828601611291565b9150509250929050565b6118b781611389565b81146118c257600080fd5b50565b6000813590506118d4816118ae565b92915050565b6000602082840312156118f0576118ef611139565b5b60006118fe848285016118c5565b91505092915050565b600082825260208201905092915050565b7f4c697374456d706c6f796565437572736f723a2061646472657373206e6f742060008201527f62656c6f6e677320746f20746865206163636f756e7400000000000000000000602082015250565b6000611974603683611907565b915061197f82611918565b604082019050919050565b600060208201905081810360008301526119a381611967565b9050919050565b7f4c697374456d706c6f796565437572736f723a206964206973206e6f7420626560008201527f6c6f6e6720746f20616464726573730000000000000000000000000000000000602082015250565b6000611a06602f83611907565b9150611a11826119aa565b604082019050919050565b60006020820190508181036000830152611a35816119f9565b9050919050565b7f456d706c6f79656520536b696c6c20437572736f723a20616c7265616479206560008201527f78697374656420736b696c6c0000000000000000000000000000000000000000602082015250565b6000611a98602c83611907565b9150611aa382611a3c565b604082019050919050565b60006020820190508181036000830152611ac781611a8b565b9050919050565b6000608083016000830151611ae6600086018261135a565b506020830151611af9602086018261135a565b5060408301518482036040860152611b1182826113f0565b9150506060830151611b26606086018261135a565b508091505092915050565b60006020820190508181036000830152611b4b8184611ace565b905092915050565b600067ffffffffffffffff821115611b6e57611b6d611194565b5b602082029050602081019050919050565b600080fd5b600080fd5b600080fd5b600081519050611b9d8161114d565b92915050565b600081519050611bb2816118ae565b92915050565b6000611bcb611bc68461120f565b6111f4565b905082815260208101848484011115611be757611be661117e565b5b611bf28482856113c6565b509392505050565b600082601f830112611c0f57611c0e611179565b5b8151611c1f848260208601611bb8565b91505092915050565b60006101408284031215611c3f57611c3e611b84565b5b611c4a6101406111f4565b90506000611c5a84828501611b8e565b6000830152506020611c6e84828501611b8e565b6020830152506040611c8284828501611ba3565b604083015250606082015167ffffffffffffffff811115611ca657611ca5611b89565b5b611cb284828501611bfa565b606083015250608082015167ffffffffffffffff811115611cd657611cd5611b89565b5b611ce284828501611bfa565b60808301525060a082015167ffffffffffffffff811115611d0657611d05611b89565b5b611d1284828501611bfa565b60a08301525060c082015167ffffffffffffffff811115611d3657611d35611b89565b5b611d4284828501611bfa565b60c08301525060e082015167ffffffffffffffff811115611d6657611d65611b89565b5b611d7284828501611bfa565b60e08301525061010082015167ffffffffffffffff811115611d9757611d96611b89565b5b611da384828501611bfa565b6101008301525061012082015167ffffffffffffffff811115611dc957611dc8611b89565b5b611dd584828501611bfa565b6101208301525092915050565b6000611df5611df084611b53565b6111f4565b90508083825260208201905060208402830185811115611e1857611e17611b7f565b5b835b81811015611e5f57805167ffffffffffffffff811115611e3d57611e3c611179565b5b808601611e4a8982611c28565b85526020850194505050602081019050611e1a565b5050509392505050565b600082601f830112611e7e57611e7d611179565b5b8151611e8e848260208601611de2565b91505092915050565b600060208284031215611ead57611eac611139565b5b600082015167ffffffffffffffff811115611ecb57611eca61113e565b5b611ed784828501611e69565b91505092915050565b600067ffffffffffffffff821115611efb57611efa611194565b5b602082029050602081019050919050565b600060c08284031215611f2257611f21611b84565b5b611f2c60c06111f4565b90506000611f3c84828501611b8e565b6000830152506020611f5084828501611b8e565b6020830152506040611f6484828501611b8e565b6040830152506060611f7884828501611b8e565b6060830152506080611f8c84828501611b8e565b60808301525060a0611fa084828501611b8e565b60a08301525092915050565b6000611fbf611fba84611ee0565b6111f4565b90508083825260208201905060c08402830185811115611fe257611fe1611b7f565b5b835b8181101561200b5780611ff78882611f0c565b84526020840193505060c081019050611fe4565b5050509392505050565b600082601f83011261202a57612029611179565b5b815161203a848260208601611fac565b91505092915050565b60006020828403121561205957612058611139565b5b600082015167ffffffffffffffff8111156120775761207661113e565b5b61208384828501612015565b91505092915050565b7f4e487b7100000000000000000000000000000000000000000000000000000000600052603260045260246000fd5b7f4e487b7100000000000000000000000000000000000000000000000000000000600052601160045260246000fd5b60006120f582611143565b91507fffffffffffffffffffffffffffffffffffffffffffffffffffffffffffffffff8203612127576121266120bb565b5b600182019050919050565b61213b81611143565b82525050565b60006020820190506121566000830184612132565b92915050565b600060c0828403121561217257612171611139565b5b600061218084828501611f0c565b91505092915050565b7f4c697374456d706c6f796565437572736f723a20616c7265616479206578697360008201527f746564206163636f756e74000000000000000000000000000000000000000000602082015250565b60006121e5602b83611907565b91506121f082612189565b604082019050919050565b60006020820190508181036000830152612214816121d8565b9050919050565b600061014083016000830151612234600086018261135a565b506020830151612247602086018261135a565b50604083015161225a604086018261139b565b506060830151848203606086015261227282826113f0565b9150506080830151848203608086015261228c82826113f0565b91505060a083015184820360a08601526122a682826113f0565b91505060c083015184820360c08601526122c082826113f0565b91505060e083015184820360e08601526122da82826113f0565b9150506101008301518482036101008601526122f682826113f0565b91505061012083015184820361012086015261231282826113f0565b9150508091505092915050565b60006020820190508181036000830152612339818461221b565b905092915050565b7f4c697374427573696e6573734170706c79437572736f723a206861642061707060008201527f6c69656400000000000000000000000000000000000000000000000000000000602082015250565b600061239d602483611907565b91506123a882612341565b604082019050919050565b600060208201905081810360008301526123cc81612390565b9050919050565b60c0820160008201516123e9600085018261135a565b5060208201516123fc602085018261135a565b50604082015161240f604085018261135a565b506060820151612422606085018261135a565b506080820151612435608085018261135a565b5060a082015161244860a085018261135a565b50505050565b600060c08201905061246360008301846123d3565b92915050565b6000612474826113aa565b61247e8185611907565b935061248e8185602086016113c6565b61249781611183565b840191505092915050565b60006040820190506124b76000830185612132565b81810360208301526124c98184612469565b90509392505050565b6000602082840312156124e8576124e7611139565b5b60006124f684828501611b8e565b91505092915050565b7f456d706c6f79656520536b696c6c20437572736f723a2072657175657374207360008201527f6b696c6c00000000000000000000000000000000000000000000000000000000602082015250565b600061255b602483611907565b9150612566826124ff565b604082019050919050565b6000602082019050818103600083015261258a8161254e565b9050919050565b60006040820190506125a66000830185612132565b6125b36020830184612132565b9392505050565b7f4f776e61626c653a206e6577206f776e657220697320746865207a65726f206160008201527f6464726573730000000000000000000000000000000000000000000000000000602082015250565b6000612616602683611907565b9150612621826125ba565b604082019050919050565b6000602082019050818103600083015261264581612609565b9050919050565b60006020828403121561266257612661611139565b5b600082015167ffffffffffffffff8111156126805761267f61113e565b5b61268c84828501611c28565b91505092915050565b7f4f776e61626c653a2063616c6c6572206973206e6f7420746865206f776e6572600082015250565b60006126cb602083611907565b91506126d682612695565b602082019050919050565b600060208201905081810360008301526126fa816126be565b9050919050565b60006080828403121561271757612716611b84565b5b61272160806111f4565b9050600061273184828501611b8e565b600083015250602061274584828501611b8e565b602083015250604082015167ffffffffffffffff81111561276957612768611b89565b5b61277584828501611bfa565b604083015250606061278984828501611b8e565b60608301525092915050565b6000602082840312156127ab576127aa611139565b5b600082015167ffffffffffffffff8111156127c9576127c861113e565b5b6127d584828501612701565b9150509291505056fea2646970667358221220686577b56df8a028cceea25184f3da75ec897a670c269f6c66d63ed40c4e96cf64736f6c63430008110033",
			"opcodes": "PUSH1 0x80 PUSH1 0x40 MSTORE CALLVALUE DUP1 ISZERO PUSH3 0x11 JUMPI PUSH1 0x0 DUP1 REVERT JUMPDEST POP PUSH1 0x40 MLOAD PUSH3 0x2A8D CODESIZE SUB DUP1 PUSH3 0x2A8D DUP4 CODECOPY DUP2 DUP2 ADD PUSH1 0x40 MSTORE DUP2 ADD SWAP1 PUSH3 0x37 SWAP2 SWAP1 PUSH3 0x1F7 JUMP JUMPDEST DUP1 DUP3 DUP5 DUP7 CALLER PUSH1 0x0 DUP1 PUSH2 0x100 EXP DUP2 SLOAD DUP2 PUSH20 0xFFFFFFFFFFFFFFFFFFFFFFFFFFFFFFFFFFFFFFFF MUL NOT AND SWAP1 DUP4 PUSH20 0xFFFFFFFFFFFFFFFFFFFFFFFFFFFFFFFFFFFFFFFF AND MUL OR SWAP1 SSTORE POP DUP1 PUSH1 0x1 PUSH1 0x0 PUSH2 0x100 EXP DUP2 SLOAD DUP2 PUSH20 0xFFFFFFFFFFFFFFFFFFFFFFFFFFFFFFFFFFFFFFFF MUL NOT AND SWAP1 DUP4 PUSH20 0xFFFFFFFFFFFFFFFFFFFFFFFFFFFFFFFFFFFFFFFF AND MUL OR SWAP1 SSTORE POP POP DUP1 PUSH1 0x2 PUSH1 0x0 PUSH2 0x100 EXP DUP2 SLOAD DUP2 PUSH20 0xFFFFFFFFFFFFFFFFFFFFFFFFFFFFFFFFFFFFFFFF MUL NOT AND SWAP1 DUP4 PUSH20 0xFFFFFFFFFFFFFFFFFFFFFFFFFFFFFFFFFFFFFFFF AND MUL OR SWAP1 SSTORE POP POP DUP1 PUSH1 0x3 PUSH1 0x0 PUSH2 0x100 EXP DUP2 SLOAD DUP2 PUSH20 0xFFFFFFFFFFFFFFFFFFFFFFFFFFFFFFFFFFFFFFFF MUL NOT AND SWAP1 DUP4 PUSH20 0xFFFFFFFFFFFFFFFFFFFFFFFFFFFFFFFFFFFFFFFF AND MUL OR SWAP1 SSTORE POP POP DUP1 PUSH1 0x4 PUSH1 0x0 PUSH2 0x100 EXP DUP2 SLOAD DUP2 PUSH20 0xFFFFFFFFFFFFFFFFFFFFFFFFFFFFFFFFFFFFFFFF MUL NOT AND SWAP1 DUP4 PUSH20 0xFFFFFFFFFFFFFFFFFFFFFFFFFFFFFFFFFFFFFFFF AND MUL OR SWAP1 SSTORE POP POP POP POP POP POP PUSH3 0x269 JUMP JUMPDEST PUSH1 0x0 DUP1 REVERT JUMPDEST PUSH1 0x0 PUSH20 0xFFFFFFFFFFFFFFFFFFFFFFFFFFFFFFFFFFFFFFFF DUP3 AND SWAP1 POP SWAP2 SWAP1 POP JUMP JUMPDEST PUSH1 0x0 PUSH3 0x1BF DUP3 PUSH3 0x192 JUMP JUMPDEST SWAP1 POP SWAP2 SWAP1 POP JUMP JUMPDEST PUSH3 0x1D1 DUP2 PUSH3 0x1B2 JUMP JUMPDEST DUP2 EQ PUSH3 0x1DD JUMPI PUSH1 0x0 DUP1 REVERT JUMPDEST POP JUMP JUMPDEST PUSH1 0x0 DUP2 MLOAD SWAP1 POP PUSH3 0x1F1 DUP2 PUSH3 0x1C6 JUMP JUMPDEST SWAP3 SWAP2 POP POP JUMP JUMPDEST PUSH1 0x0 DUP1 PUSH1 0x0 DUP1 PUSH1 0x80 DUP6 DUP8 SUB SLT ISZERO PUSH3 0x214 JUMPI PUSH3 0x213 PUSH3 0x18D JUMP JUMPDEST JUMPDEST PUSH1 0x0 PUSH3 0x224 DUP8 DUP3 DUP9 ADD PUSH3 0x1E0 JUMP JUMPDEST SWAP5 POP POP PUSH1 0x20 PUSH3 0x237 DUP8 DUP3 DUP9 ADD PUSH3 0x1E0 JUMP JUMPDEST SWAP4 POP POP PUSH1 0x40 PUSH3 0x24A DUP8 DUP3 DUP9 ADD PUSH3 0x1E0 JUMP JUMPDEST SWAP3 POP POP PUSH1 0x60 PUSH3 0x25D DUP8 DUP3 DUP9 ADD PUSH3 0x1E0 JUMP JUMPDEST SWAP2 POP POP SWAP3 SWAP6 SWAP2 SWAP5 POP SWAP3 POP JUMP JUMPDEST PUSH2 0x2814 DUP1 PUSH3 0x279 PUSH1 0x0 CODECOPY PUSH1 0x0 RETURN INVALID PUSH1 0x80 PUSH1 0x40 MSTORE CALLVALUE DUP1 ISZERO PUSH2 0x10 JUMPI PUSH1 0x0 DUP1 REVERT JUMPDEST POP PUSH1 0x4 CALLDATASIZE LT PUSH2 0xCF JUMPI PUSH1 0x0 CALLDATALOAD PUSH1 0xE0 SHR DUP1 PUSH4 0x8DA5CB5B GT PUSH2 0x8C JUMPI DUP1 PUSH4 0xC1FA897D GT PUSH2 0x66 JUMPI DUP1 PUSH4 0xC1FA897D EQ PUSH2 0x1FE JUMPI DUP1 PUSH4 0xE583267D EQ PUSH2 0x22E JUMPI DUP1 PUSH4 0xEC40A59B EQ PUSH2 0x24A JUMPI DUP1 PUSH4 0xF2FDE38B EQ PUSH2 0x268 JUMPI PUSH2 0xCF JUMP JUMPDEST DUP1 PUSH4 0x8DA5CB5B EQ PUSH2 0x194 JUMPI DUP1 PUSH4 0x96B93424 EQ PUSH2 0x1B2 JUMPI DUP1 PUSH4 0xBAD50029 EQ PUSH2 0x1CE JUMPI PUSH2 0xCF JUMP JUMPDEST DUP1 PUSH4 0x1FE1D463 EQ PUSH2 0xD4 JUMPI DUP1 PUSH4 0x3901D42D EQ PUSH2 0xF0 JUMPI DUP1 PUSH4 0x49E488A0 EQ PUSH2 0x10E JUMPI DUP1 PUSH4 0x64F3FE9D EQ PUSH2 0x13E JUMPI DUP1 PUSH4 0x7BE69569 EQ PUSH2 0x16E JUMPI DUP1 PUSH4 0x83197EF0 EQ PUSH2 0x18A JUMPI JUMPDEST PUSH1 0x0 DUP1 REVERT JUMPDEST PUSH2 0xEE PUSH1 0x4 DUP1 CALLDATASIZE SUB DUP2 ADD SWAP1 PUSH2 0xE9 SWAP2 SWAP1 PUSH2 0x12BF JUMP JUMPDEST PUSH2 0x284 JUMP JUMPDEST STOP JUMPDEST PUSH2 0xF8 PUSH2 0x401 JUMP JUMPDEST PUSH1 0x40 MLOAD PUSH2 0x105 SWAP2 SWAP1 PUSH2 0x15C3 JUMP JUMPDEST PUSH1 0x40 MLOAD DUP1 SWAP2 SUB SWAP1 RETURN JUMPDEST PUSH2 0x128 PUSH1 0x4 DUP1 CALLDATASIZE SUB DUP2 ADD SWAP1 PUSH2 0x123 SWAP2 SWAP1 PUSH2 0x15E5 JUMP JUMPDEST PUSH2 0x483 JUMP JUMPDEST PUSH1 0x40 MLOAD PUSH2 0x135 SWAP2 SWAP1 PUSH2 0x1640 JUMP JUMPDEST PUSH1 0x40 MLOAD DUP1 SWAP2 SUB SWAP1 RETURN JUMPDEST PUSH2 0x158 PUSH1 0x4 DUP1 CALLDATASIZE SUB DUP2 ADD SWAP1 PUSH2 0x153 SWAP2 SWAP1 PUSH2 0x15E5 JUMP JUMPDEST PUSH2 0x591 JUMP JUMPDEST PUSH1 0x40 MLOAD PUSH2 0x165 SWAP2 SWAP1 PUSH2 0x1640 JUMP JUMPDEST PUSH1 0x40 MLOAD DUP1 SWAP2 SUB SWAP1 RETURN JUMPDEST PUSH2 0x188 PUSH1 0x4 DUP1 CALLDATASIZE SUB DUP2 ADD SWAP1 PUSH2 0x183 SWAP2 SWAP1 PUSH2 0x165B JUMP JUMPDEST PUSH2 0x653 JUMP JUMPDEST STOP JUMPDEST PUSH2 0x192 PUSH2 0x77F JUMP JUMPDEST STOP JUMPDEST PUSH2 0x19C PUSH2 0x7A0 JUMP JUMPDEST PUSH1 0x40 MLOAD PUSH2 0x1A9 SWAP2 SWAP1 PUSH2 0x17E4 JUMP JUMPDEST PUSH1 0x40 MLOAD DUP1 SWAP2 SUB SWAP1 RETURN JUMPDEST PUSH2 0x1CC PUSH1 0x4 DUP1 CALLDATASIZE SUB DUP2 ADD SWAP1 PUSH2 0x1C7 SWAP2 SWAP1 PUSH2 0x17FF JUMP JUMPDEST PUSH2 0x7C9 JUMP JUMPDEST STOP JUMPDEST PUSH2 0x1E8 PUSH1 0x4 DUP1 CALLDATASIZE SUB DUP2 ADD SWAP1 PUSH2 0x1E3 SWAP2 SWAP1 PUSH2 0x15E5 JUMP JUMPDEST PUSH2 0x953 JUMP JUMPDEST PUSH1 0x40 MLOAD PUSH2 0x1F5 SWAP2 SWAP1 PUSH2 0x1640 JUMP JUMPDEST PUSH1 0x40 MLOAD DUP1 SWAP2 SUB SWAP1 RETURN JUMPDEST PUSH2 0x218 PUSH1 0x4 DUP1 CALLDATASIZE SUB DUP2 ADD SWAP1 PUSH2 0x213 SWAP2 SWAP1 PUSH2 0x1852 JUMP JUMPDEST PUSH2 0xA15 JUMP JUMPDEST PUSH1 0x40 MLOAD PUSH2 0x225 SWAP2 SWAP1 PUSH2 0x1640 JUMP JUMPDEST PUSH1 0x40 MLOAD DUP1 SWAP2 SUB SWAP1 RETURN JUMPDEST PUSH2 0x248 PUSH1 0x4 DUP1 CALLDATASIZE SUB DUP2 ADD SWAP1 PUSH2 0x243 SWAP2 SWAP1 PUSH2 0x17FF JUMP JUMPDEST PUSH2 0xAF5 JUMP JUMPDEST STOP JUMPDEST PUSH2 0x252 PUSH2 0xC4C JUMP JUMPDEST PUSH1 0x40 MLOAD PUSH2 0x25F SWAP2 SWAP1 PUSH2 0x1640 JUMP JUMPDEST PUSH1 0x40 MLOAD DUP1 SWAP2 SUB SWAP1 RETURN JUMPDEST PUSH2 0x282 PUSH1 0x4 DUP1 CALLDATASIZE SUB DUP2 ADD SWAP1 PUSH2 0x27D SWAP2 SWAP1 PUSH2 0x18DA JUMP JUMPDEST PUSH2 0xD27 JUMP JUMPDEST STOP JUMPDEST DUP3 PUSH2 0x28D PUSH2 0xC4C JUMP JUMPDEST PUSH2 0x2CC JUMPI PUSH1 0x40 MLOAD PUSH32 0x8C379A000000000000000000000000000000000000000000000000000000000 DUP2 MSTORE PUSH1 0x4 ADD PUSH2 0x2C3 SWAP1 PUSH2 0x198A JUMP JUMPDEST PUSH1 0x40 MLOAD DUP1 SWAP2 SUB SWAP1 REVERT JUMPDEST PUSH2 0x2D5 DUP2 PUSH2 0xDAA JUMP JUMPDEST PUSH2 0x314 JUMPI PUSH1 0x40 MLOAD PUSH32 0x8C379A000000000000000000000000000000000000000000000000000000000 DUP2 MSTORE PUSH1 0x4 ADD PUSH2 0x30B SWAP1 PUSH2 0x1A1C JUMP JUMPDEST PUSH1 0x40 MLOAD DUP1 SWAP2 SUB SWAP1 REVERT JUMPDEST DUP4 DUP4 PUSH2 0x320 DUP3 DUP3 PUSH2 0xA15 JUMP JUMPDEST ISZERO PUSH2 0x360 JUMPI PUSH1 0x40 MLOAD PUSH32 0x8C379A000000000000000000000000000000000000000000000000000000000 DUP2 MSTORE PUSH1 0x4 ADD PUSH2 0x357 SWAP1 PUSH2 0x1AAE JUMP JUMPDEST PUSH1 0x40 MLOAD DUP1 SWAP2 SUB SWAP1 REVERT JUMPDEST PUSH1 0x0 PUSH1 0x40 MLOAD DUP1 PUSH1 0x80 ADD PUSH1 0x40 MSTORE DUP1 DUP9 DUP2 MSTORE PUSH1 0x20 ADD PUSH1 0x0 DUP2 MSTORE PUSH1 0x20 ADD DUP8 DUP2 MSTORE PUSH1 0x20 ADD DUP7 DUP2 MSTORE POP SWAP1 POP PUSH2 0x38E PUSH2 0xE66 JUMP JUMPDEST PUSH20 0xFFFFFFFFFFFFFFFFFFFFFFFFFFFFFFFFFFFFFFFF AND PUSH4 0x63BA26B6 DUP3 PUSH1 0x40 MLOAD DUP3 PUSH4 0xFFFFFFFF AND PUSH1 0xE0 SHL DUP2 MSTORE PUSH1 0x4 ADD PUSH2 0x3C6 SWAP2 SWAP1 PUSH2 0x1B31 JUMP JUMPDEST PUSH1 0x0 PUSH1 0x40 MLOAD DUP1 DUP4 SUB DUP2 PUSH1 0x0 DUP8 DUP1 EXTCODESIZE ISZERO DUP1 ISZERO PUSH2 0x3E0 JUMPI PUSH1 0x0 DUP1 REVERT JUMPDEST POP GAS CALL ISZERO DUP1 ISZERO PUSH2 0x3F4 JUMPI RETURNDATASIZE PUSH1 0x0 DUP1 RETURNDATACOPY RETURNDATASIZE PUSH1 0x0 REVERT JUMPDEST POP POP POP POP POP POP POP POP POP POP POP JUMP JUMPDEST PUSH1 0x60 PUSH2 0x40B PUSH2 0xE90 JUMP JUMPDEST PUSH20 0xFFFFFFFFFFFFFFFFFFFFFFFFFFFFFFFFFFFFFFFF AND PUSH4 0x53ED5143 PUSH1 0x40 MLOAD DUP2 PUSH4 0xFFFFFFFF AND PUSH1 0xE0 SHL DUP2 MSTORE PUSH1 0x4 ADD PUSH1 0x0 PUSH1 0x40 MLOAD DUP1 DUP4 SUB DUP2 DUP7 GAS STATICCALL ISZERO DUP1 ISZERO PUSH2 0x455 JUMPI RETURNDATASIZE PUSH1 0x0 DUP1 RETURNDATACOPY RETURNDATASIZE PUSH1 0x0 REVERT JUMPDEST POP POP POP POP PUSH1 0x40 MLOAD RETURNDATASIZE PUSH1 0x0 DUP3 RETURNDATACOPY RETURNDATASIZE PUSH1 0x1F NOT PUSH1 0x1F DUP3 ADD AND DUP3 ADD DUP1 PUSH1 0x40 MSTORE POP DUP2 ADD SWAP1 PUSH2 0x47E SWAP2 SWAP1 PUSH2 0x1E97 JUMP JUMPDEST SWAP1 POP SWAP1 JUMP JUMPDEST PUSH1 0x0 DUP1 PUSH1 0x3 PUSH1 0x0 SWAP1 SLOAD SWAP1 PUSH2 0x100 EXP SWAP1 DIV PUSH20 0xFFFFFFFFFFFFFFFFFFFFFFFFFFFFFFFFFFFFFFFF AND PUSH20 0xFFFFFFFFFFFFFFFFFFFFFFFFFFFFFFFFFFFFFFFF AND PUSH4 0x53ED5143 PUSH1 0x40 MLOAD DUP2 PUSH4 0xFFFFFFFF AND PUSH1 0xE0 SHL DUP2 MSTORE PUSH1 0x4 ADD PUSH1 0x0 PUSH1 0x40 MLOAD DUP1 DUP4 SUB DUP2 DUP7 GAS STATICCALL ISZERO DUP1 ISZERO PUSH2 0x4F3 JUMPI RETURNDATASIZE PUSH1 0x0 DUP1 RETURNDATACOPY RETURNDATASIZE PUSH1 0x0 REVERT JUMPDEST POP POP POP POP PUSH1 0x40 MLOAD RETURNDATASIZE PUSH1 0x0 DUP3 RETURNDATACOPY RETURNDATASIZE PUSH1 0x1F NOT PUSH1 0x1F DUP3 ADD AND DUP3 ADD DUP1 PUSH1 0x40 MSTORE POP DUP2 ADD SWAP1 PUSH2 0x51C SWAP2 SWAP1 PUSH2 0x2043 JUMP JUMPDEST SWAP1 POP PUSH1 0x0 JUMPDEST DUP2 MLOAD DUP2 LT ISZERO PUSH2 0x584 JUMPI PUSH1 0x0 DUP3 DUP3 DUP2 MLOAD DUP2 LT PUSH2 0x53F JUMPI PUSH2 0x53E PUSH2 0x208C JUMP JUMPDEST JUMPDEST PUSH1 0x20 MUL PUSH1 0x20 ADD ADD MLOAD SWAP1 POP DUP6 DUP2 PUSH1 0x20 ADD MLOAD EQ DUP1 ISZERO PUSH2 0x55F JUMPI POP DUP5 DUP2 PUSH1 0x60 ADD MLOAD EQ JUMPDEST ISZERO PUSH2 0x570 JUMPI PUSH1 0x1 SWAP4 POP POP POP POP PUSH2 0x58B JUMP JUMPDEST POP DUP1 DUP1 PUSH2 0x57C SWAP1 PUSH2 0x20EA JUMP JUMPDEST SWAP2 POP POP PUSH2 0x521 JUMP JUMPDEST POP PUSH1 0x0 SWAP2 POP POP JUMPDEST SWAP3 SWAP2 POP POP JUMP JUMPDEST PUSH1 0x0 DUP1 PUSH1 0x3 PUSH1 0x0 SWAP1 SLOAD SWAP1 PUSH2 0x100 EXP SWAP1 DIV PUSH20 0xFFFFFFFFFFFFFFFFFFFFFFFFFFFFFFFFFFFFFFFF AND PUSH20 0xFFFFFFFFFFFFFFFFFFFFFFFFFFFFFFFFFFFFFFFF AND PUSH4 0xE0886F90 DUP6 PUSH1 0x40 MLOAD DUP3 PUSH4 0xFFFFFFFF AND PUSH1 0xE0 SHL DUP2 MSTORE PUSH1 0x4 ADD PUSH2 0x5EF SWAP2 SWAP1 PUSH2 0x2141 JUMP JUMPDEST PUSH1 0xC0 PUSH1 0x40 MLOAD DUP1 DUP4 SUB DUP2 DUP7 GAS STATICCALL ISZERO DUP1 ISZERO PUSH2 0x60C JUMPI RETURNDATASIZE PUSH1 0x0 DUP1 RETURNDATACOPY RETURNDATASIZE PUSH1 0x0 REVERT JUMPDEST POP POP POP POP PUSH1 0x40 MLOAD RETURNDATASIZE PUSH1 0x1F NOT PUSH1 0x1F DUP3 ADD AND DUP3 ADD DUP1 PUSH1 0x40 MSTORE POP DUP2 ADD SWAP1 PUSH2 0x630 SWAP2 SWAP1 PUSH2 0x215C JUMP JUMPDEST PUSH1 0x20 ADD MLOAD SWAP1 POP DUP1 DUP4 SUB PUSH2 0x647 JUMPI PUSH1 0x1 SWAP2 POP POP PUSH2 0x64D JUMP JUMPDEST PUSH1 0x0 SWAP2 POP POP JUMPDEST SWAP3 SWAP2 POP POP JUMP JUMPDEST PUSH2 0x65B PUSH2 0xC4C JUMP JUMPDEST ISZERO PUSH2 0x69B JUMPI PUSH1 0x40 MLOAD PUSH32 0x8C379A000000000000000000000000000000000000000000000000000000000 DUP2 MSTORE PUSH1 0x4 ADD PUSH2 0x692 SWAP1 PUSH2 0x21FB JUMP JUMPDEST PUSH1 0x40 MLOAD DUP1 SWAP2 SUB SWAP1 REVERT JUMPDEST PUSH1 0x0 CALLER SWAP1 POP PUSH1 0x0 PUSH1 0x40 MLOAD DUP1 PUSH2 0x140 ADD PUSH1 0x40 MSTORE DUP1 DUP12 DUP2 MSTORE PUSH1 0x20 ADD PUSH1 0x0 DUP2 MSTORE PUSH1 0x20 ADD DUP4 PUSH20 0xFFFFFFFFFFFFFFFFFFFFFFFFFFFFFFFFFFFFFFFF AND DUP2 MSTORE PUSH1 0x20 ADD DUP11 DUP2 MSTORE PUSH1 0x20 ADD DUP10 DUP2 MSTORE PUSH1 0x20 ADD DUP9 DUP2 MSTORE PUSH1 0x20 ADD DUP8 DUP2 MSTORE PUSH1 0x20 ADD DUP7 DUP2 MSTORE PUSH1 0x20 ADD DUP6 DUP2 MSTORE PUSH1 0x20 ADD DUP5 DUP2 MSTORE POP SWAP1 POP PUSH2 0x709 PUSH2 0xE90 JUMP JUMPDEST PUSH20 0xFFFFFFFFFFFFFFFFFFFFFFFFFFFFFFFFFFFFFFFF AND PUSH4 0x57F4D79 DUP3 PUSH1 0x40 MLOAD DUP3 PUSH4 0xFFFFFFFF AND PUSH1 0xE0 SHL DUP2 MSTORE PUSH1 0x4 ADD PUSH2 0x741 SWAP2 SWAP1 PUSH2 0x231F JUMP JUMPDEST PUSH1 0x0 PUSH1 0x40 MLOAD DUP1 DUP4 SUB DUP2 PUSH1 0x0 DUP8 DUP1 EXTCODESIZE ISZERO DUP1 ISZERO PUSH2 0x75B JUMPI PUSH1 0x0 DUP1 REVERT JUMPDEST POP GAS CALL ISZERO DUP1 ISZERO PUSH2 0x76F JUMPI RETURNDATASIZE PUSH1 0x0 DUP1 RETURNDATACOPY RETURNDATASIZE PUSH1 0x0 REVERT JUMPDEST POP POP POP POP POP POP POP POP POP POP POP POP POP POP JUMP JUMPDEST PUSH2 0x787 PUSH2 0xEBA JUMP JUMPDEST ADDRESS PUSH20 0xFFFFFFFFFFFFFFFFFFFFFFFFFFFFFFFFFFFFFFFF AND SELFDESTRUCT JUMPDEST PUSH1 0x0 DUP1 PUSH1 0x0 SWAP1 SLOAD SWAP1 PUSH2 0x100 EXP SWAP1 DIV PUSH20 0xFFFFFFFFFFFFFFFFFFFFFFFFFFFFFFFFFFFFFFFF AND SWAP1 POP SWAP1 JUMP JUMPDEST DUP3 PUSH2 0x7D2 PUSH2 0xC4C JUMP JUMPDEST PUSH2 0x811 JUMPI PUSH1 0x40 MLOAD PUSH32 0x8C379A000000000000000000000000000000000000000000000000000000000 DUP2 MSTORE PUSH1 0x4 ADD PUSH2 0x808 SWAP1 PUSH2 0x198A JUMP JUMPDEST PUSH1 0x40 MLOAD DUP1 SWAP2 SUB SWAP1 REVERT JUMPDEST PUSH2 0x81A DUP2 PUSH2 0xDAA JUMP JUMPDEST PUSH2 0x859 JUMPI PUSH1 0x40 MLOAD PUSH32 0x8C379A000000000000000000000000000000000000000000000000000000000 DUP2 MSTORE PUSH1 0x4 ADD PUSH2 0x850 SWAP1 PUSH2 0x1A1C JUMP JUMPDEST PUSH1 0x40 MLOAD DUP1 SWAP2 SUB SWAP1 REVERT JUMPDEST DUP4 DUP3 PUSH2 0x865 DUP3 DUP3 PUSH2 0x483 JUMP JUMPDEST ISZERO PUSH2 0x8A5 JUMPI PUSH1 0x40 MLOAD PUSH32 0x8C379A000000000000000000000000000000000000000000000000000000000 DUP2 MSTORE PUSH1 0x4 ADD PUSH2 0x89C SWAP1 PUSH2 0x23B3 JUMP JUMPDEST PUSH1 0x40 MLOAD DUP1 SWAP2 SUB SWAP1 REVERT JUMPDEST PUSH1 0x0 PUSH1 0x40 MLOAD DUP1 PUSH1 0xC0 ADD PUSH1 0x40 MSTORE DUP1 PUSH1 0x0 DUP2 MSTORE PUSH1 0x20 ADD DUP9 DUP2 MSTORE PUSH1 0x20 ADD DUP8 DUP2 MSTORE PUSH1 0x20 ADD DUP7 DUP2 MSTORE PUSH1 0x20 ADD TIMESTAMP DUP2 MSTORE PUSH1 0x20 ADD PUSH1 0x0 DUP2 MSTORE POP SWAP1 POP PUSH2 0x8E0 PUSH2 0xF31 JUMP JUMPDEST PUSH20 0xFFFFFFFFFFFFFFFFFFFFFFFFFFFFFFFFFFFFFFFF AND PUSH4 0xA5B7E4BD DUP3 PUSH1 0x40 MLOAD DUP3 PUSH4 0xFFFFFFFF AND PUSH1 0xE0 SHL DUP2 MSTORE PUSH1 0x4 ADD PUSH2 0x918 SWAP2 SWAP1 PUSH2 0x244E JUMP JUMPDEST PUSH1 0x0 PUSH1 0x40 MLOAD DUP1 DUP4 SUB DUP2 PUSH1 0x0 DUP8 DUP1 EXTCODESIZE ISZERO DUP1 ISZERO PUSH2 0x932 JUMPI PUSH1 0x0 DUP1 REVERT JUMPDEST POP GAS CALL ISZERO DUP1 ISZERO PUSH2 0x946 JUMPI RETURNDATASIZE PUSH1 0x0 DUP1 RETURNDATACOPY RETURNDATASIZE PUSH1 0x0 REVERT JUMPDEST POP POP POP POP POP POP POP POP POP POP POP JUMP JUMPDEST PUSH1 0x0 DUP1 PUSH1 0x3 PUSH1 0x0 SWAP1 SLOAD SWAP1 PUSH2 0x100 EXP SWAP1 DIV PUSH20 0xFFFFFFFFFFFFFFFFFFFFFFFFFFFFFFFFFFFFFFFF AND PUSH20 0xFFFFFFFFFFFFFFFFFFFFFFFFFFFFFFFFFFFFFFFF AND PUSH4 0xE0886F90 DUP6 PUSH1 0x40 MLOAD DUP3 PUSH4 0xFFFFFFFF AND PUSH1 0xE0 SHL DUP2 MSTORE PUSH1 0x4 ADD PUSH2 0x9B1 SWAP2 SWAP1 PUSH2 0x2141 JUMP JUMPDEST PUSH1 0xC0 PUSH1 0x40 MLOAD DUP1 DUP4 SUB DUP2 DUP7 GAS STATICCALL ISZERO DUP1 ISZERO PUSH2 0x9CE JUMPI RETURNDATASIZE PUSH1 0x0 DUP1 RETURNDATACOPY RETURNDATASIZE PUSH1 0x0 REVERT JUMPDEST POP POP POP POP PUSH1 0x40 MLOAD RETURNDATASIZE PUSH1 0x1F NOT PUSH1 0x1F DUP3 ADD AND DUP3 ADD DUP1 PUSH1 0x40 MSTORE POP DUP2 ADD SWAP1 PUSH2 0x9F2 SWAP2 SWAP1 PUSH2 0x215C JUMP JUMPDEST PUSH1 0x60 ADD MLOAD SWAP1 POP DUP1 DUP4 SUB PUSH2 0xA09 JUMPI PUSH1 0x1 SWAP2 POP POP PUSH2 0xA0F JUMP JUMPDEST PUSH1 0x0 SWAP2 POP POP JUMPDEST SWAP3 SWAP2 POP POP JUMP JUMPDEST PUSH1 0x0 DUP1 PUSH1 0x2 PUSH1 0x0 SWAP1 SLOAD SWAP1 PUSH2 0x100 EXP SWAP1 DIV PUSH20 0xFFFFFFFFFFFFFFFFFFFFFFFFFFFFFFFFFFFFFFFF AND PUSH20 0xFFFFFFFFFFFFFFFFFFFFFFFFFFFFFFFFFFFFFFFF AND PUSH4 0x25F54770 DUP6 DUP6 PUSH1 0x40 MLOAD DUP4 PUSH4 0xFFFFFFFF AND PUSH1 0xE0 SHL DUP2 MSTORE PUSH1 0x4 ADD PUSH2 0xA75 SWAP3 SWAP2 SWAP1 PUSH2 0x24A2 JUMP JUMPDEST PUSH1 0x20 PUSH1 0x40 MLOAD DUP1 DUP4 SUB DUP2 DUP7 GAS STATICCALL ISZERO DUP1 ISZERO PUSH2 0xA92 JUMPI RETURNDATASIZE PUSH1 0x0 DUP1 RETURNDATACOPY RETURNDATASIZE PUSH1 0x0 REVERT JUMPDEST POP POP POP POP PUSH1 0x40 MLOAD RETURNDATASIZE PUSH1 0x1F NOT PUSH1 0x1F DUP3 ADD AND DUP3 ADD DUP1 PUSH1 0x40 MSTORE POP DUP2 ADD SWAP1 PUSH2 0xAB6 SWAP2 SWAP1 PUSH2 0x24D2 JUMP JUMPDEST SWAP1 POP PUSH32 0xFFFFFFFFFFFFFFFFFFFFFFFFFFFFFFFFFFFFFFFFFFFFFFFFFFFFFFFFFFFFFFFF DUP2 EQ PUSH2 0xAE9 JUMPI PUSH1 0x1 SWAP2 POP POP PUSH2 0xAEF JUMP JUMPDEST PUSH1 0x0 SWAP2 POP POP JUMPDEST SWAP3 SWAP2 POP POP JUMP JUMPDEST DUP3 PUSH2 0xAFE PUSH2 0xC4C JUMP JUMPDEST PUSH2 0xB3D JUMPI PUSH1 0x40 MLOAD PUSH32 0x8C379A000000000000000000000000000000000000000000000000000000000 DUP2 MSTORE PUSH1 0x4 ADD PUSH2 0xB34 SWAP1 PUSH2 0x198A JUMP JUMPDEST PUSH1 0x40 MLOAD DUP1 SWAP2 SUB SWAP1 REVERT JUMPDEST PUSH2 0xB46 DUP2 PUSH2 0xDAA JUMP JUMPDEST PUSH2 0xB85 JUMPI PUSH1 0x40 MLOAD PUSH32 0x8C379A000000000000000000000000000000000000000000000000000000000 DUP2 MSTORE PUSH1 0x4 ADD PUSH2 0xB7C SWAP1 PUSH2 0x1A1C JUMP JUMPDEST PUSH1 0x40 MLOAD DUP1 SWAP2 SUB SWAP1 REVERT JUMPDEST DUP4 DUP4 PUSH2 0xB91 DUP3 DUP3 PUSH2 0xF5B JUMP JUMPDEST PUSH2 0xBD0 JUMPI PUSH1 0x40 MLOAD PUSH32 0x8C379A000000000000000000000000000000000000000000000000000000000 DUP2 MSTORE PUSH1 0x4 ADD PUSH2 0xBC7 SWAP1 PUSH2 0x2571 JUMP JUMPDEST PUSH1 0x40 MLOAD DUP1 SWAP2 SUB SWAP1 REVERT JUMPDEST PUSH2 0xBD8 PUSH2 0xE66 JUMP JUMPDEST PUSH20 0xFFFFFFFFFFFFFFFFFFFFFFFFFFFFFFFFFFFFFFFF AND PUSH4 0x70A93B36 DUP7 DUP7 PUSH1 0x40 MLOAD DUP4 PUSH4 0xFFFFFFFF AND PUSH1 0xE0 SHL DUP2 MSTORE PUSH1 0x4 ADD PUSH2 0xC12 SWAP3 SWAP2 SWAP1 PUSH2 0x2591 JUMP JUMPDEST PUSH1 0x0 PUSH1 0x40 MLOAD DUP1 DUP4 SUB DUP2 PUSH1 0x0 DUP8 DUP1 EXTCODESIZE ISZERO DUP1 ISZERO PUSH2 0xC2C JUMPI PUSH1 0x0 DUP1 REVERT JUMPDEST POP GAS CALL ISZERO DUP1 ISZERO PUSH2 0xC40 JUMPI RETURNDATASIZE PUSH1 0x0 DUP1 RETURNDATACOPY RETURNDATASIZE PUSH1 0x0 REVERT JUMPDEST POP POP POP POP POP POP POP POP POP POP JUMP JUMPDEST PUSH1 0x0 DUP1 PUSH1 0x1 PUSH1 0x0 SWAP1 SLOAD SWAP1 PUSH2 0x100 EXP SWAP1 DIV PUSH20 0xFFFFFFFFFFFFFFFFFFFFFFFFFFFFFFFFFFFFFFFF AND PUSH20 0xFFFFFFFFFFFFFFFFFFFFFFFFFFFFFFFFFFFFFFFF AND PUSH4 0x68938870 CALLER PUSH1 0x40 MLOAD DUP3 PUSH4 0xFFFFFFFF AND PUSH1 0xE0 SHL DUP2 MSTORE PUSH1 0x4 ADD PUSH2 0xCAA SWAP2 SWAP1 PUSH2 0x17E4 JUMP JUMPDEST PUSH1 0x20 PUSH1 0x40 MLOAD DUP1 DUP4 SUB DUP2 DUP7 GAS STATICCALL ISZERO DUP1 ISZERO PUSH2 0xCC7 JUMPI RETURNDATASIZE PUSH1 0x0 DUP1 RETURNDATACOPY RETURNDATASIZE PUSH1 0x0 REVERT JUMPDEST POP POP POP POP PUSH1 0x40 MLOAD RETURNDATASIZE PUSH1 0x1F NOT PUSH1 0x1F DUP3 ADD AND DUP3 ADD DUP1 PUSH1 0x40 MSTORE POP DUP2 ADD SWAP1 PUSH2 0xCEB SWAP2 SWAP1 PUSH2 0x24D2 JUMP JUMPDEST SWAP1 POP PUSH32 0xFFFFFFFFFFFFFFFFFFFFFFFFFFFFFFFFFFFFFFFFFFFFFFFFFFFFFFFFFFFFFFFF DUP2 SUB PUSH2 0xD1E JUMPI PUSH1 0x0 SWAP2 POP POP PUSH2 0xD24 JUMP JUMPDEST PUSH1 0x1 SWAP2 POP POP JUMPDEST SWAP1 JUMP JUMPDEST PUSH2 0xD2F PUSH2 0xEBA JUMP JUMPDEST PUSH1 0x0 PUSH20 0xFFFFFFFFFFFFFFFFFFFFFFFFFFFFFFFFFFFFFFFF AND DUP2 PUSH20 0xFFFFFFFFFFFFFFFFFFFFFFFFFFFFFFFFFFFFFFFF AND SUB PUSH2 0xD9E JUMPI PUSH1 0x40 MLOAD PUSH32 0x8C379A000000000000000000000000000000000000000000000000000000000 DUP2 MSTORE PUSH1 0x4 ADD PUSH2 0xD95 SWAP1 PUSH2 0x262C JUMP JUMPDEST PUSH1 0x40 MLOAD DUP1 SWAP2 SUB SWAP1 REVERT JUMPDEST PUSH2 0xDA7 DUP2 PUSH2 0x1022 JUMP JUMPDEST POP JUMP JUMPDEST PUSH1 0x0 DUP1 PUSH1 0x1 PUSH1 0x0 SWAP1 SLOAD SWAP1 PUSH2 0x100 EXP SWAP1 DIV PUSH20 0xFFFFFFFFFFFFFFFFFFFFFFFFFFFFFFFFFFFFFFFF AND PUSH20 0xFFFFFFFFFFFFFFFFFFFFFFFFFFFFFFFFFFFFFFFF AND PUSH4 0xE0886F90 DUP5 PUSH1 0x40 MLOAD DUP3 PUSH4 0xFFFFFFFF AND PUSH1 0xE0 SHL DUP2 MSTORE PUSH1 0x4 ADD PUSH2 0xE08 SWAP2 SWAP1 PUSH2 0x2141 JUMP JUMPDEST PUSH1 0x0 PUSH1 0x40 MLOAD DUP1 DUP4 SUB DUP2 DUP7 GAS STATICCALL ISZERO DUP1 ISZERO PUSH2 0xE25 JUMPI RETURNDATASIZE PUSH1 0x0 DUP1 RETURNDATACOPY RETURNDATASIZE PUSH1 0x0 REVERT JUMPDEST POP POP POP POP PUSH1 0x40 MLOAD RETURNDATASIZE PUSH1 0x0 DUP3 RETURNDATACOPY RETURNDATASIZE PUSH1 0x1F NOT PUSH1 0x1F DUP3 ADD AND DUP3 ADD DUP1 PUSH1 0x40 MSTORE POP DUP2 ADD SWAP1 PUSH2 0xE4E SWAP2 SWAP1 PUSH2 0x264C JUMP JUMPDEST SWAP1 POP PUSH2 0xE5E DUP2 PUSH1 0x40 ADD MLOAD CALLER PUSH2 0x10E6 JUMP JUMPDEST SWAP2 POP POP SWAP2 SWAP1 POP JUMP JUMPDEST PUSH1 0x0 PUSH1 0x2 PUSH1 0x0 SWAP1 SLOAD SWAP1 PUSH2 0x100 EXP SWAP1 DIV PUSH20 0xFFFFFFFFFFFFFFFFFFFFFFFFFFFFFFFFFFFFFFFF AND SWAP1 POP SWAP1 JUMP JUMPDEST PUSH1 0x0 PUSH1 0x1 PUSH1 0x0 SWAP1 SLOAD SWAP1 PUSH2 0x100 EXP SWAP1 DIV PUSH20 0xFFFFFFFFFFFFFFFFFFFFFFFFFFFFFFFFFFFFFFFF AND SWAP1 POP SWAP1 JUMP JUMPDEST CALLER PUSH20 0xFFFFFFFFFFFFFFFFFFFFFFFFFFFFFFFFFFFFFFFF AND PUSH2 0xED9 PUSH2 0x7A0 JUMP JUMPDEST PUSH20 0xFFFFFFFFFFFFFFFFFFFFFFFFFFFFFFFFFFFFFFFF AND EQ PUSH2 0xF2F JUMPI PUSH1 0x40 MLOAD PUSH32 0x8C379A000000000000000000000000000000000000000000000000000000000 DUP2 MSTORE PUSH1 0x4 ADD PUSH2 0xF26 SWAP1 PUSH2 0x26E1 JUMP JUMPDEST PUSH1 0x40 MLOAD DUP1 SWAP2 SUB SWAP1 REVERT JUMPDEST JUMP JUMPDEST PUSH1 0x0 PUSH1 0x3 PUSH1 0x0 SWAP1 SLOAD SWAP1 PUSH2 0x100 EXP SWAP1 DIV PUSH20 0xFFFFFFFFFFFFFFFFFFFFFFFFFFFFFFFFFFFFFFFF AND SWAP1 POP SWAP1 JUMP JUMPDEST PUSH1 0x0 DUP1 PUSH1 0x2 PUSH1 0x0 SWAP1 SLOAD SWAP1 PUSH2 0x100 EXP SWAP1 DIV PUSH20 0xFFFFFFFFFFFFFFFFFFFFFFFFFFFFFFFFFFFFFFFF AND PUSH20 0xFFFFFFFFFFFFFFFFFFFFFFFFFFFFFFFFFFFFFFFF AND PUSH4 0xE0886F90 DUP6 PUSH1 0x40 MLOAD DUP3 PUSH4 0xFFFFFFFF AND PUSH1 0xE0 SHL DUP2 MSTORE PUSH1 0x4 ADD PUSH2 0xFB9 SWAP2 SWAP1 PUSH2 0x2141 JUMP JUMPDEST PUSH1 0x0 PUSH1 0x40 MLOAD DUP1 DUP4 SUB DUP2 DUP7 GAS STATICCALL ISZERO DUP1 ISZERO PUSH2 0xFD6 JUMPI RETURNDATASIZE PUSH1 0x0 DUP1 RETURNDATACOPY RETURNDATASIZE PUSH1 0x0 REVERT JUMPDEST POP POP POP POP PUSH1 0x40 MLOAD RETURNDATASIZE PUSH1 0x0 DUP3 RETURNDATACOPY RETURNDATASIZE PUSH1 0x1F NOT PUSH1 0x1F DUP3 ADD AND DUP3 ADD DUP1 PUSH1 0x40 MSTORE POP DUP2 ADD SWAP1 PUSH2 0xFFF SWAP2 SWAP1 PUSH2 0x2795 JUMP JUMPDEST PUSH1 0x20 ADD MLOAD SWAP1 POP DUP3 DUP2 SUB PUSH2 0x1016 JUMPI PUSH1 0x1 SWAP2 POP POP PUSH2 0x101C JUMP JUMPDEST PUSH1 0x0 SWAP2 POP POP JUMPDEST SWAP3 SWAP2 POP POP JUMP JUMPDEST PUSH1 0x0 DUP1 PUSH1 0x0 SWAP1 SLOAD SWAP1 PUSH2 0x100 EXP SWAP1 DIV PUSH20 0xFFFFFFFFFFFFFFFFFFFFFFFFFFFFFFFFFFFFFFFF AND SWAP1 POP DUP2 PUSH1 0x0 DUP1 PUSH2 0x100 EXP DUP2 SLOAD DUP2 PUSH20 0xFFFFFFFFFFFFFFFFFFFFFFFFFFFFFFFFFFFFFFFF MUL NOT AND SWAP1 DUP4 PUSH20 0xFFFFFFFFFFFFFFFFFFFFFFFFFFFFFFFFFFFFFFFF AND MUL OR SWAP1 SSTORE POP DUP2 PUSH20 0xFFFFFFFFFFFFFFFFFFFFFFFFFFFFFFFFFFFFFFFF AND DUP2 PUSH20 0xFFFFFFFFFFFFFFFFFFFFFFFFFFFFFFFFFFFFFFFF AND PUSH32 0x8BE0079C531659141344CD1FD0A4F28419497F9722A3DAAFE3B4186F6B6457E0 PUSH1 0x40 MLOAD PUSH1 0x40 MLOAD DUP1 SWAP2 SUB SWAP1 LOG3 POP POP JUMP JUMPDEST PUSH1 0x0 DUP2 PUSH20 0xFFFFFFFFFFFFFFFFFFFFFFFFFFFFFFFFFFFFFFFF AND DUP4 PUSH20 0xFFFFFFFFFFFFFFFFFFFFFFFFFFFFFFFFFFFFFFFF AND SUB PUSH2 0x1124 JUMPI PUSH1 0x1 SWAP1 POP PUSH2 0x1129 JUMP JUMPDEST PUSH1 0x0 SWAP1 POP JUMPDEST SWAP3 SWAP2 POP POP JUMP JUMPDEST PUSH1 0x0 PUSH1 0x40 MLOAD SWAP1 POP SWAP1 JUMP JUMPDEST PUSH1 0x0 DUP1 REVERT JUMPDEST PUSH1 0x0 DUP1 REVERT JUMPDEST PUSH1 0x0 DUP2 SWAP1 POP SWAP2 SWAP1 POP JUMP JUMPDEST PUSH2 0x1156 DUP2 PUSH2 0x1143 JUMP JUMPDEST DUP2 EQ PUSH2 0x1161 JUMPI PUSH1 0x0 DUP1 REVERT JUMPDEST POP JUMP JUMPDEST PUSH1 0x0 DUP2 CALLDATALOAD SWAP1 POP PUSH2 0x1173 DUP2 PUSH2 0x114D JUMP JUMPDEST SWAP3 SWAP2 POP POP JUMP JUMPDEST PUSH1 0x0 DUP1 REVERT JUMPDEST PUSH1 0x0 DUP1 REVERT JUMPDEST PUSH1 0x0 PUSH1 0x1F NOT PUSH1 0x1F DUP4 ADD AND SWAP1 POP SWAP2 SWAP1 POP JUMP JUMPDEST PUSH32 0x4E487B7100000000000000000000000000000000000000000000000000000000 PUSH1 0x0 MSTORE PUSH1 0x41 PUSH1 0x4 MSTORE PUSH1 0x24 PUSH1 0x0 REVERT JUMPDEST PUSH2 0x11CC DUP3 PUSH2 0x1183 JUMP JUMPDEST DUP2 ADD DUP2 DUP2 LT PUSH8 0xFFFFFFFFFFFFFFFF DUP3 GT OR ISZERO PUSH2 0x11EB JUMPI PUSH2 0x11EA PUSH2 0x1194 JUMP JUMPDEST JUMPDEST DUP1 PUSH1 0x40 MSTORE POP POP POP JUMP JUMPDEST PUSH1 0x0 PUSH2 0x11FE PUSH2 0x112F JUMP JUMPDEST SWAP1 POP PUSH2 0x120A DUP3 DUP3 PUSH2 0x11C3 JUMP JUMPDEST SWAP2 SWAP1 POP JUMP JUMPDEST PUSH1 0x0 PUSH8 0xFFFFFFFFFFFFFFFF DUP3 GT ISZERO PUSH2 0x122A JUMPI PUSH2 0x1229 PUSH2 0x1194 JUMP JUMPDEST JUMPDEST PUSH2 0x1233 DUP3 PUSH2 0x1183 JUMP JUMPDEST SWAP1 POP PUSH1 0x20 DUP2 ADD SWAP1 POP SWAP2 SWAP1 POP JUMP JUMPDEST DUP3 DUP2 DUP4 CALLDATACOPY PUSH1 0x0 DUP4 DUP4 ADD MSTORE POP POP POP JUMP JUMPDEST PUSH1 0x0 PUSH2 0x1262 PUSH2 0x125D DUP5 PUSH2 0x120F JUMP JUMPDEST PUSH2 0x11F4 JUMP JUMPDEST SWAP1 POP DUP3 DUP2 MSTORE PUSH1 0x20 DUP2 ADD DUP5 DUP5 DUP5 ADD GT ISZERO PUSH2 0x127E JUMPI PUSH2 0x127D PUSH2 0x117E JUMP JUMPDEST JUMPDEST PUSH2 0x1289 DUP5 DUP3 DUP6 PUSH2 0x1240 JUMP JUMPDEST POP SWAP4 SWAP3 POP POP POP JUMP JUMPDEST PUSH1 0x0 DUP3 PUSH1 0x1F DUP4 ADD SLT PUSH2 0x12A6 JUMPI PUSH2 0x12A5 PUSH2 0x1179 JUMP JUMPDEST JUMPDEST DUP2 CALLDATALOAD PUSH2 0x12B6 DUP5 DUP3 PUSH1 0x20 DUP7 ADD PUSH2 0x124F JUMP JUMPDEST SWAP2 POP POP SWAP3 SWAP2 POP POP JUMP JUMPDEST PUSH1 0x0 DUP1 PUSH1 0x0 PUSH1 0x60 DUP5 DUP7 SUB SLT ISZERO PUSH2 0x12D8 JUMPI PUSH2 0x12D7 PUSH2 0x1139 JUMP JUMPDEST JUMPDEST PUSH1 0x0 PUSH2 0x12E6 DUP7 DUP3 DUP8 ADD PUSH2 0x1164 JUMP JUMPDEST SWAP4 POP POP PUSH1 0x20 DUP5 ADD CALLDATALOAD PUSH8 0xFFFFFFFFFFFFFFFF DUP2 GT ISZERO PUSH2 0x1307 JUMPI PUSH2 0x1306 PUSH2 0x113E JUMP JUMPDEST JUMPDEST PUSH2 0x1313 DUP7 DUP3 DUP8 ADD PUSH2 0x1291 JUMP JUMPDEST SWAP3 POP POP PUSH1 0x40 PUSH2 0x1324 DUP7 DUP3 DUP8 ADD PUSH2 0x1164 JUMP JUMPDEST SWAP2 POP POP SWAP3 POP SWAP3 POP SWAP3 JUMP JUMPDEST PUSH1 0x0 DUP2 MLOAD SWAP1 POP SWAP2 SWAP1 POP JUMP JUMPDEST PUSH1 0x0 DUP3 DUP3 MSTORE PUSH1 0x20 DUP3 ADD SWAP1 POP SWAP3 SWAP2 POP POP JUMP JUMPDEST PUSH1 0x0 DUP2 SWAP1 POP PUSH1 0x20 DUP3 ADD SWAP1 POP SWAP2 SWAP1 POP JUMP JUMPDEST PUSH2 0x1363 DUP2 PUSH2 0x1143 JUMP JUMPDEST DUP3 MSTORE POP POP JUMP JUMPDEST PUSH1 0x0 PUSH20 0xFFFFFFFFFFFFFFFFFFFFFFFFFFFFFFFFFFFFFFFF DUP3 AND SWAP1 POP SWAP2 SWAP1 POP JUMP JUMPDEST PUSH1 0x0 PUSH2 0x1394 DUP3 PUSH2 0x1369 JUMP JUMPDEST SWAP1 POP SWAP2 SWAP1 POP JUMP JUMPDEST PUSH2 0x13A4 DUP2 PUSH2 0x1389 JUMP JUMPDEST DUP3 MSTORE POP POP JUMP JUMPDEST PUSH1 0x0 DUP2 MLOAD SWAP1 POP SWAP2 SWAP1 POP JUMP JUMPDEST PUSH1 0x0 DUP3 DUP3 MSTORE PUSH1 0x20 DUP3 ADD SWAP1 POP SWAP3 SWAP2 POP POP JUMP JUMPDEST PUSH1 0x0 JUMPDEST DUP4 DUP2 LT ISZERO PUSH2 0x13E4 JUMPI DUP1 DUP3 ADD MLOAD DUP2 DUP5 ADD MSTORE PUSH1 0x20 DUP2 ADD SWAP1 POP PUSH2 0x13C9 JUMP JUMPDEST PUSH1 0x0 DUP5 DUP5 ADD MSTORE POP POP POP POP JUMP JUMPDEST PUSH1 0x0 PUSH2 0x13FB DUP3 PUSH2 0x13AA JUMP JUMPDEST PUSH2 0x1405 DUP2 DUP6 PUSH2 0x13B5 JUMP JUMPDEST SWAP4 POP PUSH2 0x1415 DUP2 DUP6 PUSH1 0x20 DUP7 ADD PUSH2 0x13C6 JUMP JUMPDEST PUSH2 0x141E DUP2 PUSH2 0x1183 JUMP JUMPDEST DUP5 ADD SWAP2 POP POP SWAP3 SWAP2 POP POP JUMP JUMPDEST PUSH1 0x0 PUSH2 0x140 DUP4 ADD PUSH1 0x0 DUP4 ADD MLOAD PUSH2 0x1442 PUSH1 0x0 DUP7 ADD DUP3 PUSH2 0x135A JUMP JUMPDEST POP PUSH1 0x20 DUP4 ADD MLOAD PUSH2 0x1455 PUSH1 0x20 DUP7 ADD DUP3 PUSH2 0x135A JUMP JUMPDEST POP PUSH1 0x40 DUP4 ADD MLOAD PUSH2 0x1468 PUSH1 0x40 DUP7 ADD DUP3 PUSH2 0x139B JUMP JUMPDEST POP PUSH1 0x60 DUP4 ADD MLOAD DUP5 DUP3 SUB PUSH1 0x60 DUP7 ADD MSTORE PUSH2 0x1480 DUP3 DUP3 PUSH2 0x13F0 JUMP JUMPDEST SWAP2 POP POP PUSH1 0x80 DUP4 ADD MLOAD DUP5 DUP3 SUB PUSH1 0x80 DUP7 ADD MSTORE PUSH2 0x149A DUP3 DUP3 PUSH2 0x13F0 JUMP JUMPDEST SWAP2 POP POP PUSH1 0xA0 DUP4 ADD MLOAD DUP5 DUP3 SUB PUSH1 0xA0 DUP7 ADD MSTORE PUSH2 0x14B4 DUP3 DUP3 PUSH2 0x13F0 JUMP JUMPDEST SWAP2 POP POP PUSH1 0xC0 DUP4 ADD MLOAD DUP5 DUP3 SUB PUSH1 0xC0 DUP7 ADD MSTORE PUSH2 0x14CE DUP3 DUP3 PUSH2 0x13F0 JUMP JUMPDEST SWAP2 POP POP PUSH1 0xE0 DUP4 ADD MLOAD DUP5 DUP3 SUB PUSH1 0xE0 DUP7 ADD MSTORE PUSH2 0x14E8 DUP3 DUP3 PUSH2 0x13F0 JUMP JUMPDEST SWAP2 POP POP PUSH2 0x100 DUP4 ADD MLOAD DUP5 DUP3 SUB PUSH2 0x100 DUP7 ADD MSTORE PUSH2 0x1504 DUP3 DUP3 PUSH2 0x13F0 JUMP JUMPDEST SWAP2 POP POP PUSH2 0x120 DUP4 ADD MLOAD DUP5 DUP3 SUB PUSH2 0x120 DUP7 ADD MSTORE PUSH2 0x1520 DUP3 DUP3 PUSH2 0x13F0 JUMP JUMPDEST SWAP2 POP POP DUP1 SWAP2 POP POP SWAP3 SWAP2 POP POP JUMP JUMPDEST PUSH1 0x0 PUSH2 0x1539 DUP4 DUP4 PUSH2 0x1429 JUMP JUMPDEST SWAP1 POP SWAP3 SWAP2 POP POP JUMP JUMPDEST PUSH1 0x0 PUSH1 0x20 DUP3 ADD SWAP1 POP SWAP2 SWAP1 POP JUMP JUMPDEST PUSH1 0x0 PUSH2 0x1559 DUP3 PUSH2 0x132E JUMP JUMPDEST PUSH2 0x1563 DUP2 DUP6 PUSH2 0x1339 JUMP JUMPDEST SWAP4 POP DUP4 PUSH1 0x20 DUP3 MUL DUP6 ADD PUSH2 0x1575 DUP6 PUSH2 0x134A JUMP JUMPDEST DUP1 PUSH1 0x0 JUMPDEST DUP6 DUP2 LT ISZERO PUSH2 0x15B1 JUMPI DUP5 DUP5 SUB DUP10 MSTORE DUP2 MLOAD PUSH2 0x1592 DUP6 DUP3 PUSH2 0x152D JUMP JUMPDEST SWAP5 POP PUSH2 0x159D DUP4 PUSH2 0x1541 JUMP JUMPDEST SWAP3 POP PUSH1 0x20 DUP11 ADD SWAP10 POP POP PUSH1 0x1 DUP2 ADD SWAP1 POP PUSH2 0x1579 JUMP JUMPDEST POP DUP3 SWAP8 POP DUP8 SWAP6 POP POP POP POP POP POP SWAP3 SWAP2 POP POP JUMP JUMPDEST PUSH1 0x0 PUSH1 0x20 DUP3 ADD SWAP1 POP DUP2 DUP2 SUB PUSH1 0x0 DUP4 ADD MSTORE PUSH2 0x15DD DUP2 DUP5 PUSH2 0x154E JUMP JUMPDEST SWAP1 POP SWAP3 SWAP2 POP POP JUMP JUMPDEST PUSH1 0x0 DUP1 PUSH1 0x40 DUP4 DUP6 SUB SLT ISZERO PUSH2 0x15FC JUMPI PUSH2 0x15FB PUSH2 0x1139 JUMP JUMPDEST JUMPDEST PUSH1 0x0 PUSH2 0x160A DUP6 DUP3 DUP7 ADD PUSH2 0x1164 JUMP JUMPDEST SWAP3 POP POP PUSH1 0x20 PUSH2 0x161B DUP6 DUP3 DUP7 ADD PUSH2 0x1164 JUMP JUMPDEST SWAP2 POP POP SWAP3 POP SWAP3 SWAP1 POP JUMP JUMPDEST PUSH1 0x0 DUP2 ISZERO ISZERO SWAP1 POP SWAP2 SWAP1 POP JUMP JUMPDEST PUSH2 0x163A DUP2 PUSH2 0x1625 JUMP JUMPDEST DUP3 MSTORE POP POP JUMP JUMPDEST PUSH1 0x0 PUSH1 0x20 DUP3 ADD SWAP1 POP PUSH2 0x1655 PUSH1 0x0 DUP4 ADD DUP5 PUSH2 0x1631 JUMP JUMPDEST SWAP3 SWAP2 POP POP JUMP JUMPDEST PUSH1 0x0 DUP1 PUSH1 0x0 DUP1 PUSH1 0x0 DUP1 PUSH1 0x0 DUP1 PUSH2 0x100 DUP10 DUP12 SUB SLT ISZERO PUSH2 0x167C JUMPI PUSH2 0x167B PUSH2 0x1139 JUMP JUMPDEST JUMPDEST PUSH1 0x0 PUSH2 0x168A DUP12 DUP3 DUP13 ADD PUSH2 0x1164 JUMP JUMPDEST SWAP9 POP POP PUSH1 0x20 DUP10 ADD CALLDATALOAD PUSH8 0xFFFFFFFFFFFFFFFF DUP2 GT ISZERO PUSH2 0x16AB JUMPI PUSH2 0x16AA PUSH2 0x113E JUMP JUMPDEST JUMPDEST PUSH2 0x16B7 DUP12 DUP3 DUP13 ADD PUSH2 0x1291 JUMP JUMPDEST SWAP8 POP POP PUSH1 0x40 DUP10 ADD CALLDATALOAD PUSH8 0xFFFFFFFFFFFFFFFF DUP2 GT ISZERO PUSH2 0x16D8 JUMPI PUSH2 0x16D7 PUSH2 0x113E JUMP JUMPDEST JUMPDEST PUSH2 0x16E4 DUP12 DUP3 DUP13 ADD PUSH2 0x1291 JUMP JUMPDEST SWAP7 POP POP PUSH1 0x60 DUP10 ADD CALLDATALOAD PUSH8 0xFFFFFFFFFFFFFFFF DUP2 GT ISZERO PUSH2 0x1705 JUMPI PUSH2 0x1704 PUSH2 0x113E JUMP JUMPDEST JUMPDEST PUSH2 0x1711 DUP12 DUP3 DUP13 ADD PUSH2 0x1291 JUMP JUMPDEST SWAP6 POP POP PUSH1 0x80 DUP10 ADD CALLDATALOAD PUSH8 0xFFFFFFFFFFFFFFFF DUP2 GT ISZERO PUSH2 0x1732 JUMPI PUSH2 0x1731 PUSH2 0x113E JUMP JUMPDEST JUMPDEST PUSH2 0x173E DUP12 DUP3 DUP13 ADD PUSH2 0x1291 JUMP JUMPDEST SWAP5 POP POP PUSH1 0xA0 DUP10 ADD CALLDATALOAD PUSH8 0xFFFFFFFFFFFFFFFF DUP2 GT ISZERO PUSH2 0x175F JUMPI PUSH2 0x175E PUSH2 0x113E JUMP JUMPDEST JUMPDEST PUSH2 0x176B DUP12 DUP3 DUP13 ADD PUSH2 0x1291 JUMP JUMPDEST SWAP4 POP POP PUSH1 0xC0 DUP10 ADD CALLDATALOAD PUSH8 0xFFFFFFFFFFFFFFFF DUP2 GT ISZERO PUSH2 0x178C JUMPI PUSH2 0x178B PUSH2 0x113E JUMP JUMPDEST JUMPDEST PUSH2 0x1798 DUP12 DUP3 DUP13 ADD PUSH2 0x1291 JUMP JUMPDEST SWAP3 POP POP PUSH1 0xE0 DUP10 ADD CALLDATALOAD PUSH8 0xFFFFFFFFFFFFFFFF DUP2 GT ISZERO PUSH2 0x17B9 JUMPI PUSH2 0x17B8 PUSH2 0x113E JUMP JUMPDEST JUMPDEST PUSH2 0x17C5 DUP12 DUP3 DUP13 ADD PUSH2 0x1291 JUMP JUMPDEST SWAP2 POP POP SWAP3 SWAP6 SWAP9 POP SWAP3 SWAP6 SWAP9 SWAP1 SWAP4 SWAP7 POP JUMP JUMPDEST PUSH2 0x17DE DUP2 PUSH2 0x1389 JUMP JUMPDEST DUP3 MSTORE POP POP JUMP JUMPDEST PUSH1 0x0 PUSH1 0x20 DUP3 ADD SWAP1 POP PUSH2 0x17F9 PUSH1 0x0 DUP4 ADD DUP5 PUSH2 0x17D5 JUMP JUMPDEST SWAP3 SWAP2 POP POP JUMP JUMPDEST PUSH1 0x0 DUP1 PUSH1 0x0 PUSH1 0x60 DUP5 DUP7 SUB SLT ISZERO PUSH2 0x1818 JUMPI PUSH2 0x1817 PUSH2 0x1139 JUMP JUMPDEST JUMPDEST PUSH1 0x0 PUSH2 0x1826 DUP7 DUP3 DUP8 ADD PUSH2 0x1164 JUMP JUMPDEST SWAP4 POP POP PUSH1 0x20 PUSH2 0x1837 DUP7 DUP3 DUP8 ADD PUSH2 0x1164 JUMP JUMPDEST SWAP3 POP POP PUSH1 0x40 PUSH2 0x1848 DUP7 DUP3 DUP8 ADD PUSH2 0x1164 JUMP JUMPDEST SWAP2 POP POP SWAP3 POP SWAP3 POP SWAP3 JUMP JUMPDEST PUSH1 0x0 DUP1 PUSH1 0x40 DUP4 DUP6 SUB SLT ISZERO PUSH2 0x1869 JUMPI PUSH2 0x1868 PUSH2 0x1139 JUMP JUMPDEST JUMPDEST PUSH1 0x0 PUSH2 0x1877 DUP6 DUP3 DUP7 ADD PUSH2 0x1164 JUMP JUMPDEST SWAP3 POP POP PUSH1 0x20 DUP4 ADD CALLDATALOAD PUSH8 0xFFFFFFFFFFFFFFFF DUP2 GT ISZERO PUSH2 0x1898 JUMPI PUSH2 0x1897 PUSH2 0x113E JUMP JUMPDEST JUMPDEST PUSH2 0x18A4 DUP6 DUP3 DUP7 ADD PUSH2 0x1291 JUMP JUMPDEST SWAP2 POP POP SWAP3 POP SWAP3 SWAP1 POP JUMP JUMPDEST PUSH2 0x18B7 DUP2 PUSH2 0x1389 JUMP JUMPDEST DUP2 EQ PUSH2 0x18C2 JUMPI PUSH1 0x0 DUP1 REVERT JUMPDEST POP JUMP JUMPDEST PUSH1 0x0 DUP2 CALLDATALOAD SWAP1 POP PUSH2 0x18D4 DUP2 PUSH2 0x18AE JUMP JUMPDEST SWAP3 SWAP2 POP POP JUMP JUMPDEST PUSH1 0x0 PUSH1 0x20 DUP3 DUP5 SUB SLT ISZERO PUSH2 0x18F0 JUMPI PUSH2 0x18EF PUSH2 0x1139 JUMP JUMPDEST JUMPDEST PUSH1 0x0 PUSH2 0x18FE DUP5 DUP3 DUP6 ADD PUSH2 0x18C5 JUMP JUMPDEST SWAP2 POP POP SWAP3 SWAP2 POP POP JUMP JUMPDEST PUSH1 0x0 DUP3 DUP3 MSTORE PUSH1 0x20 DUP3 ADD SWAP1 POP SWAP3 SWAP2 POP POP JUMP JUMPDEST PUSH32 0x4C697374456D706C6F796565437572736F723A2061646472657373206E6F7420 PUSH1 0x0 DUP3 ADD MSTORE PUSH32 0x62656C6F6E677320746F20746865206163636F756E7400000000000000000000 PUSH1 0x20 DUP3 ADD MSTORE POP JUMP JUMPDEST PUSH1 0x0 PUSH2 0x1974 PUSH1 0x36 DUP4 PUSH2 0x1907 JUMP JUMPDEST SWAP2 POP PUSH2 0x197F DUP3 PUSH2 0x1918 JUMP JUMPDEST PUSH1 0x40 DUP3 ADD SWAP1 POP SWAP2 SWAP1 POP JUMP JUMPDEST PUSH1 0x0 PUSH1 0x20 DUP3 ADD SWAP1 POP DUP2 DUP2 SUB PUSH1 0x0 DUP4 ADD MSTORE PUSH2 0x19A3 DUP2 PUSH2 0x1967 JUMP JUMPDEST SWAP1 POP SWAP2 SWAP1 POP JUMP JUMPDEST PUSH32 0x4C697374456D706C6F796565437572736F723A206964206973206E6F74206265 PUSH1 0x0 DUP3 ADD MSTORE PUSH32 0x6C6F6E6720746F20616464726573730000000000000000000000000000000000 PUSH1 0x20 DUP3 ADD MSTORE POP JUMP JUMPDEST PUSH1 0x0 PUSH2 0x1A06 PUSH1 0x2F DUP4 PUSH2 0x1907 JUMP JUMPDEST SWAP2 POP PUSH2 0x1A11 DUP3 PUSH2 0x19AA JUMP JUMPDEST PUSH1 0x40 DUP3 ADD SWAP1 POP SWAP2 SWAP1 POP JUMP JUMPDEST PUSH1 0x0 PUSH1 0x20 DUP3 ADD SWAP1 POP DUP2 DUP2 SUB PUSH1 0x0 DUP4 ADD MSTORE PUSH2 0x1A35 DUP2 PUSH2 0x19F9 JUMP JUMPDEST SWAP1 POP SWAP2 SWAP1 POP JUMP JUMPDEST PUSH32 0x456D706C6F79656520536B696C6C20437572736F723A20616C72656164792065 PUSH1 0x0 DUP3 ADD MSTORE PUSH32 0x78697374656420736B696C6C0000000000000000000000000000000000000000 PUSH1 0x20 DUP3 ADD MSTORE POP JUMP JUMPDEST PUSH1 0x0 PUSH2 0x1A98 PUSH1 0x2C DUP4 PUSH2 0x1907 JUMP JUMPDEST SWAP2 POP PUSH2 0x1AA3 DUP3 PUSH2 0x1A3C JUMP JUMPDEST PUSH1 0x40 DUP3 ADD SWAP1 POP SWAP2 SWAP1 POP JUMP JUMPDEST PUSH1 0x0 PUSH1 0x20 DUP3 ADD SWAP1 POP DUP2 DUP2 SUB PUSH1 0x0 DUP4 ADD MSTORE PUSH2 0x1AC7 DUP2 PUSH2 0x1A8B JUMP JUMPDEST SWAP1 POP SWAP2 SWAP1 POP JUMP JUMPDEST PUSH1 0x0 PUSH1 0x80 DUP4 ADD PUSH1 0x0 DUP4 ADD MLOAD PUSH2 0x1AE6 PUSH1 0x0 DUP7 ADD DUP3 PUSH2 0x135A JUMP JUMPDEST POP PUSH1 0x20 DUP4 ADD MLOAD PUSH2 0x1AF9 PUSH1 0x20 DUP7 ADD DUP3 PUSH2 0x135A JUMP JUMPDEST POP PUSH1 0x40 DUP4 ADD MLOAD DUP5 DUP3 SUB PUSH1 0x40 DUP7 ADD MSTORE PUSH2 0x1B11 DUP3 DUP3 PUSH2 0x13F0 JUMP JUMPDEST SWAP2 POP POP PUSH1 0x60 DUP4 ADD MLOAD PUSH2 0x1B26 PUSH1 0x60 DUP7 ADD DUP3 PUSH2 0x135A JUMP JUMPDEST POP DUP1 SWAP2 POP POP SWAP3 SWAP2 POP POP JUMP JUMPDEST PUSH1 0x0 PUSH1 0x20 DUP3 ADD SWAP1 POP DUP2 DUP2 SUB PUSH1 0x0 DUP4 ADD MSTORE PUSH2 0x1B4B DUP2 DUP5 PUSH2 0x1ACE JUMP JUMPDEST SWAP1 POP SWAP3 SWAP2 POP POP JUMP JUMPDEST PUSH1 0x0 PUSH8 0xFFFFFFFFFFFFFFFF DUP3 GT ISZERO PUSH2 0x1B6E JUMPI PUSH2 0x1B6D PUSH2 0x1194 JUMP JUMPDEST JUMPDEST PUSH1 0x20 DUP3 MUL SWAP1 POP PUSH1 0x20 DUP2 ADD SWAP1 POP SWAP2 SWAP1 POP JUMP JUMPDEST PUSH1 0x0 DUP1 REVERT JUMPDEST PUSH1 0x0 DUP1 REVERT JUMPDEST PUSH1 0x0 DUP1 REVERT JUMPDEST PUSH1 0x0 DUP2 MLOAD SWAP1 POP PUSH2 0x1B9D DUP2 PUSH2 0x114D JUMP JUMPDEST SWAP3 SWAP2 POP POP JUMP JUMPDEST PUSH1 0x0 DUP2 MLOAD SWAP1 POP PUSH2 0x1BB2 DUP2 PUSH2 0x18AE JUMP JUMPDEST SWAP3 SWAP2 POP POP JUMP JUMPDEST PUSH1 0x0 PUSH2 0x1BCB PUSH2 0x1BC6 DUP5 PUSH2 0x120F JUMP JUMPDEST PUSH2 0x11F4 JUMP JUMPDEST SWAP1 POP DUP3 DUP2 MSTORE PUSH1 0x20 DUP2 ADD DUP5 DUP5 DUP5 ADD GT ISZERO PUSH2 0x1BE7 JUMPI PUSH2 0x1BE6 PUSH2 0x117E JUMP JUMPDEST JUMPDEST PUSH2 0x1BF2 DUP5 DUP3 DUP6 PUSH2 0x13C6 JUMP JUMPDEST POP SWAP4 SWAP3 POP POP POP JUMP JUMPDEST PUSH1 0x0 DUP3 PUSH1 0x1F DUP4 ADD SLT PUSH2 0x1C0F JUMPI PUSH2 0x1C0E PUSH2 0x1179 JUMP JUMPDEST JUMPDEST DUP2 MLOAD PUSH2 0x1C1F DUP5 DUP3 PUSH1 0x20 DUP7 ADD PUSH2 0x1BB8 JUMP JUMPDEST SWAP2 POP POP SWAP3 SWAP2 POP POP JUMP JUMPDEST PUSH1 0x0 PUSH2 0x140 DUP3 DUP5 SUB SLT ISZERO PUSH2 0x1C3F JUMPI PUSH2 0x1C3E PUSH2 0x1B84 JUMP JUMPDEST JUMPDEST PUSH2 0x1C4A PUSH2 0x140 PUSH2 0x11F4 JUMP JUMPDEST SWAP1 POP PUSH1 0x0 PUSH2 0x1C5A DUP5 DUP3 DUP6 ADD PUSH2 0x1B8E JUMP JUMPDEST PUSH1 0x0 DUP4 ADD MSTORE POP PUSH1 0x20 PUSH2 0x1C6E DUP5 DUP3 DUP6 ADD PUSH2 0x1B8E JUMP JUMPDEST PUSH1 0x20 DUP4 ADD MSTORE POP PUSH1 0x40 PUSH2 0x1C82 DUP5 DUP3 DUP6 ADD PUSH2 0x1BA3 JUMP JUMPDEST PUSH1 0x40 DUP4 ADD MSTORE POP PUSH1 0x60 DUP3 ADD MLOAD PUSH8 0xFFFFFFFFFFFFFFFF DUP2 GT ISZERO PUSH2 0x1CA6 JUMPI PUSH2 0x1CA5 PUSH2 0x1B89 JUMP JUMPDEST JUMPDEST PUSH2 0x1CB2 DUP5 DUP3 DUP6 ADD PUSH2 0x1BFA JUMP JUMPDEST PUSH1 0x60 DUP4 ADD MSTORE POP PUSH1 0x80 DUP3 ADD MLOAD PUSH8 0xFFFFFFFFFFFFFFFF DUP2 GT ISZERO PUSH2 0x1CD6 JUMPI PUSH2 0x1CD5 PUSH2 0x1B89 JUMP JUMPDEST JUMPDEST PUSH2 0x1CE2 DUP5 DUP3 DUP6 ADD PUSH2 0x1BFA JUMP JUMPDEST PUSH1 0x80 DUP4 ADD MSTORE POP PUSH1 0xA0 DUP3 ADD MLOAD PUSH8 0xFFFFFFFFFFFFFFFF DUP2 GT ISZERO PUSH2 0x1D06 JUMPI PUSH2 0x1D05 PUSH2 0x1B89 JUMP JUMPDEST JUMPDEST PUSH2 0x1D12 DUP5 DUP3 DUP6 ADD PUSH2 0x1BFA JUMP JUMPDEST PUSH1 0xA0 DUP4 ADD MSTORE POP PUSH1 0xC0 DUP3 ADD MLOAD PUSH8 0xFFFFFFFFFFFFFFFF DUP2 GT ISZERO PUSH2 0x1D36 JUMPI PUSH2 0x1D35 PUSH2 0x1B89 JUMP JUMPDEST JUMPDEST PUSH2 0x1D42 DUP5 DUP3 DUP6 ADD PUSH2 0x1BFA JUMP JUMPDEST PUSH1 0xC0 DUP4 ADD MSTORE POP PUSH1 0xE0 DUP3 ADD MLOAD PUSH8 0xFFFFFFFFFFFFFFFF DUP2 GT ISZERO PUSH2 0x1D66 JUMPI PUSH2 0x1D65 PUSH2 0x1B89 JUMP JUMPDEST JUMPDEST PUSH2 0x1D72 DUP5 DUP3 DUP6 ADD PUSH2 0x1BFA JUMP JUMPDEST PUSH1 0xE0 DUP4 ADD MSTORE POP PUSH2 0x100 DUP3 ADD MLOAD PUSH8 0xFFFFFFFFFFFFFFFF DUP2 GT ISZERO PUSH2 0x1D97 JUMPI PUSH2 0x1D96 PUSH2 0x1B89 JUMP JUMPDEST JUMPDEST PUSH2 0x1DA3 DUP5 DUP3 DUP6 ADD PUSH2 0x1BFA JUMP JUMPDEST PUSH2 0x100 DUP4 ADD MSTORE POP PUSH2 0x120 DUP3 ADD MLOAD PUSH8 0xFFFFFFFFFFFFFFFF DUP2 GT ISZERO PUSH2 0x1DC9 JUMPI PUSH2 0x1DC8 PUSH2 0x1B89 JUMP JUMPDEST JUMPDEST PUSH2 0x1DD5 DUP5 DUP3 DUP6 ADD PUSH2 0x1BFA JUMP JUMPDEST PUSH2 0x120 DUP4 ADD MSTORE POP SWAP3 SWAP2 POP POP JUMP JUMPDEST PUSH1 0x0 PUSH2 0x1DF5 PUSH2 0x1DF0 DUP5 PUSH2 0x1B53 JUMP JUMPDEST PUSH2 0x11F4 JUMP JUMPDEST SWAP1 POP DUP1 DUP4 DUP3 MSTORE PUSH1 0x20 DUP3 ADD SWAP1 POP PUSH1 0x20 DUP5 MUL DUP4 ADD DUP6 DUP2 GT ISZERO PUSH2 0x1E18 JUMPI PUSH2 0x1E17 PUSH2 0x1B7F JUMP JUMPDEST JUMPDEST DUP4 JUMPDEST DUP2 DUP2 LT ISZERO PUSH2 0x1E5F JUMPI DUP1 MLOAD PUSH8 0xFFFFFFFFFFFFFFFF DUP2 GT ISZERO PUSH2 0x1E3D JUMPI PUSH2 0x1E3C PUSH2 0x1179 JUMP JUMPDEST JUMPDEST DUP1 DUP7 ADD PUSH2 0x1E4A DUP10 DUP3 PUSH2 0x1C28 JUMP JUMPDEST DUP6 MSTORE PUSH1 0x20 DUP6 ADD SWAP5 POP POP POP PUSH1 0x20 DUP2 ADD SWAP1 POP PUSH2 0x1E1A JUMP JUMPDEST POP POP POP SWAP4 SWAP3 POP POP POP JUMP JUMPDEST PUSH1 0x0 DUP3 PUSH1 0x1F DUP4 ADD SLT PUSH2 0x1E7E JUMPI PUSH2 0x1E7D PUSH2 0x1179 JUMP JUMPDEST JUMPDEST DUP2 MLOAD PUSH2 0x1E8E DUP5 DUP3 PUSH1 0x20 DUP7 ADD PUSH2 0x1DE2 JUMP JUMPDEST SWAP2 POP POP SWAP3 SWAP2 POP POP JUMP JUMPDEST PUSH1 0x0 PUSH1 0x20 DUP3 DUP5 SUB SLT ISZERO PUSH2 0x1EAD JUMPI PUSH2 0x1EAC PUSH2 0x1139 JUMP JUMPDEST JUMPDEST PUSH1 0x0 DUP3 ADD MLOAD PUSH8 0xFFFFFFFFFFFFFFFF DUP2 GT ISZERO PUSH2 0x1ECB JUMPI PUSH2 0x1ECA PUSH2 0x113E JUMP JUMPDEST JUMPDEST PUSH2 0x1ED7 DUP5 DUP3 DUP6 ADD PUSH2 0x1E69 JUMP JUMPDEST SWAP2 POP POP SWAP3 SWAP2 POP POP JUMP JUMPDEST PUSH1 0x0 PUSH8 0xFFFFFFFFFFFFFFFF DUP3 GT ISZERO PUSH2 0x1EFB JUMPI PUSH2 0x1EFA PUSH2 0x1194 JUMP JUMPDEST JUMPDEST PUSH1 0x20 DUP3 MUL SWAP1 POP PUSH1 0x20 DUP2 ADD SWAP1 POP SWAP2 SWAP1 POP JUMP JUMPDEST PUSH1 0x0 PUSH1 0xC0 DUP3 DUP5 SUB SLT ISZERO PUSH2 0x1F22 JUMPI PUSH2 0x1F21 PUSH2 0x1B84 JUMP JUMPDEST JUMPDEST PUSH2 0x1F2C PUSH1 0xC0 PUSH2 0x11F4 JUMP JUMPDEST SWAP1 POP PUSH1 0x0 PUSH2 0x1F3C DUP5 DUP3 DUP6 ADD PUSH2 0x1B8E JUMP JUMPDEST PUSH1 0x0 DUP4 ADD MSTORE POP PUSH1 0x20 PUSH2 0x1F50 DUP5 DUP3 DUP6 ADD PUSH2 0x1B8E JUMP JUMPDEST PUSH1 0x20 DUP4 ADD MSTORE POP PUSH1 0x40 PUSH2 0x1F64 DUP5 DUP3 DUP6 ADD PUSH2 0x1B8E JUMP JUMPDEST PUSH1 0x40 DUP4 ADD MSTORE POP PUSH1 0x60 PUSH2 0x1F78 DUP5 DUP3 DUP6 ADD PUSH2 0x1B8E JUMP JUMPDEST PUSH1 0x60 DUP4 ADD MSTORE POP PUSH1 0x80 PUSH2 0x1F8C DUP5 DUP3 DUP6 ADD PUSH2 0x1B8E JUMP JUMPDEST PUSH1 0x80 DUP4 ADD MSTORE POP PUSH1 0xA0 PUSH2 0x1FA0 DUP5 DUP3 DUP6 ADD PUSH2 0x1B8E JUMP JUMPDEST PUSH1 0xA0 DUP4 ADD MSTORE POP SWAP3 SWAP2 POP POP JUMP JUMPDEST PUSH1 0x0 PUSH2 0x1FBF PUSH2 0x1FBA DUP5 PUSH2 0x1EE0 JUMP JUMPDEST PUSH2 0x11F4 JUMP JUMPDEST SWAP1 POP DUP1 DUP4 DUP3 MSTORE PUSH1 0x20 DUP3 ADD SWAP1 POP PUSH1 0xC0 DUP5 MUL DUP4 ADD DUP6 DUP2 GT ISZERO PUSH2 0x1FE2 JUMPI PUSH2 0x1FE1 PUSH2 0x1B7F JUMP JUMPDEST JUMPDEST DUP4 JUMPDEST DUP2 DUP2 LT ISZERO PUSH2 0x200B JUMPI DUP1 PUSH2 0x1FF7 DUP9 DUP3 PUSH2 0x1F0C JUMP JUMPDEST DUP5 MSTORE PUSH1 0x20 DUP5 ADD SWAP4 POP POP PUSH1 0xC0 DUP2 ADD SWAP1 POP PUSH2 0x1FE4 JUMP JUMPDEST POP POP POP SWAP4 SWAP3 POP POP POP JUMP JUMPDEST PUSH1 0x0 DUP3 PUSH1 0x1F DUP4 ADD SLT PUSH2 0x202A JUMPI PUSH2 0x2029 PUSH2 0x1179 JUMP JUMPDEST JUMPDEST DUP2 MLOAD PUSH2 0x203A DUP5 DUP3 PUSH1 0x20 DUP7 ADD PUSH2 0x1FAC JUMP JUMPDEST SWAP2 POP POP SWAP3 SWAP2 POP POP JUMP JUMPDEST PUSH1 0x0 PUSH1 0x20 DUP3 DUP5 SUB SLT ISZERO PUSH2 0x2059 JUMPI PUSH2 0x2058 PUSH2 0x1139 JUMP JUMPDEST JUMPDEST PUSH1 0x0 DUP3 ADD MLOAD PUSH8 0xFFFFFFFFFFFFFFFF DUP2 GT ISZERO PUSH2 0x2077 JUMPI PUSH2 0x2076 PUSH2 0x113E JUMP JUMPDEST JUMPDEST PUSH2 0x2083 DUP5 DUP3 DUP6 ADD PUSH2 0x2015 JUMP JUMPDEST SWAP2 POP POP SWAP3 SWAP2 POP POP JUMP JUMPDEST PUSH32 0x4E487B7100000000000000000000000000000000000000000000000000000000 PUSH1 0x0 MSTORE PUSH1 0x32 PUSH1 0x4 MSTORE PUSH1 0x24 PUSH1 0x0 REVERT JUMPDEST PUSH32 0x4E487B7100000000000000000000000000000000000000000000000000000000 PUSH1 0x0 MSTORE PUSH1 0x11 PUSH1 0x4 MSTORE PUSH1 0x24 PUSH1 0x0 REVERT JUMPDEST PUSH1 0x0 PUSH2 0x20F5 DUP3 PUSH2 0x1143 JUMP JUMPDEST SWAP2 POP PUSH32 0xFFFFFFFFFFFFFFFFFFFFFFFFFFFFFFFFFFFFFFFFFFFFFFFFFFFFFFFFFFFFFFFF DUP3 SUB PUSH2 0x2127 JUMPI PUSH2 0x2126 PUSH2 0x20BB JUMP JUMPDEST JUMPDEST PUSH1 0x1 DUP3 ADD SWAP1 POP SWAP2 SWAP1 POP JUMP JUMPDEST PUSH2 0x213B DUP2 PUSH2 0x1143 JUMP JUMPDEST DUP3 MSTORE POP POP JUMP JUMPDEST PUSH1 0x0 PUSH1 0x20 DUP3 ADD SWAP1 POP PUSH2 0x2156 PUSH1 0x0 DUP4 ADD DUP5 PUSH2 0x2132 JUMP JUMPDEST SWAP3 SWAP2 POP POP JUMP JUMPDEST PUSH1 0x0 PUSH1 0xC0 DUP3 DUP5 SUB SLT ISZERO PUSH2 0x2172 JUMPI PUSH2 0x2171 PUSH2 0x1139 JUMP JUMPDEST JUMPDEST PUSH1 0x0 PUSH2 0x2180 DUP5 DUP3 DUP6 ADD PUSH2 0x1F0C JUMP JUMPDEST SWAP2 POP POP SWAP3 SWAP2 POP POP JUMP JUMPDEST PUSH32 0x4C697374456D706C6F796565437572736F723A20616C72656164792065786973 PUSH1 0x0 DUP3 ADD MSTORE PUSH32 0x746564206163636F756E74000000000000000000000000000000000000000000 PUSH1 0x20 DUP3 ADD MSTORE POP JUMP JUMPDEST PUSH1 0x0 PUSH2 0x21E5 PUSH1 0x2B DUP4 PUSH2 0x1907 JUMP JUMPDEST SWAP2 POP PUSH2 0x21F0 DUP3 PUSH2 0x2189 JUMP JUMPDEST PUSH1 0x40 DUP3 ADD SWAP1 POP SWAP2 SWAP1 POP JUMP JUMPDEST PUSH1 0x0 PUSH1 0x20 DUP3 ADD SWAP1 POP DUP2 DUP2 SUB PUSH1 0x0 DUP4 ADD MSTORE PUSH2 0x2214 DUP2 PUSH2 0x21D8 JUMP JUMPDEST SWAP1 POP SWAP2 SWAP1 POP JUMP JUMPDEST PUSH1 0x0 PUSH2 0x140 DUP4 ADD PUSH1 0x0 DUP4 ADD MLOAD PUSH2 0x2234 PUSH1 0x0 DUP7 ADD DUP3 PUSH2 0x135A JUMP JUMPDEST POP PUSH1 0x20 DUP4 ADD MLOAD PUSH2 0x2247 PUSH1 0x20 DUP7 ADD DUP3 PUSH2 0x135A JUMP JUMPDEST POP PUSH1 0x40 DUP4 ADD MLOAD PUSH2 0x225A PUSH1 0x40 DUP7 ADD DUP3 PUSH2 0x139B JUMP JUMPDEST POP PUSH1 0x60 DUP4 ADD MLOAD DUP5 DUP3 SUB PUSH1 0x60 DUP7 ADD MSTORE PUSH2 0x2272 DUP3 DUP3 PUSH2 0x13F0 JUMP JUMPDEST SWAP2 POP POP PUSH1 0x80 DUP4 ADD MLOAD DUP5 DUP3 SUB PUSH1 0x80 DUP7 ADD MSTORE PUSH2 0x228C DUP3 DUP3 PUSH2 0x13F0 JUMP JUMPDEST SWAP2 POP POP PUSH1 0xA0 DUP4 ADD MLOAD DUP5 DUP3 SUB PUSH1 0xA0 DUP7 ADD MSTORE PUSH2 0x22A6 DUP3 DUP3 PUSH2 0x13F0 JUMP JUMPDEST SWAP2 POP POP PUSH1 0xC0 DUP4 ADD MLOAD DUP5 DUP3 SUB PUSH1 0xC0 DUP7 ADD MSTORE PUSH2 0x22C0 DUP3 DUP3 PUSH2 0x13F0 JUMP JUMPDEST SWAP2 POP POP PUSH1 0xE0 DUP4 ADD MLOAD DUP5 DUP3 SUB PUSH1 0xE0 DUP7 ADD MSTORE PUSH2 0x22DA DUP3 DUP3 PUSH2 0x13F0 JUMP JUMPDEST SWAP2 POP POP PUSH2 0x100 DUP4 ADD MLOAD DUP5 DUP3 SUB PUSH2 0x100 DUP7 ADD MSTORE PUSH2 0x22F6 DUP3 DUP3 PUSH2 0x13F0 JUMP JUMPDEST SWAP2 POP POP PUSH2 0x120 DUP4 ADD MLOAD DUP5 DUP3 SUB PUSH2 0x120 DUP7 ADD MSTORE PUSH2 0x2312 DUP3 DUP3 PUSH2 0x13F0 JUMP JUMPDEST SWAP2 POP POP DUP1 SWAP2 POP POP SWAP3 SWAP2 POP POP JUMP JUMPDEST PUSH1 0x0 PUSH1 0x20 DUP3 ADD SWAP1 POP DUP2 DUP2 SUB PUSH1 0x0 DUP4 ADD MSTORE PUSH2 0x2339 DUP2 DUP5 PUSH2 0x221B JUMP JUMPDEST SWAP1 POP SWAP3 SWAP2 POP POP JUMP JUMPDEST PUSH32 0x4C697374427573696E6573734170706C79437572736F723A2068616420617070 PUSH1 0x0 DUP3 ADD MSTORE PUSH32 0x6C69656400000000000000000000000000000000000000000000000000000000 PUSH1 0x20 DUP3 ADD MSTORE POP JUMP JUMPDEST PUSH1 0x0 PUSH2 0x239D PUSH1 0x24 DUP4 PUSH2 0x1907 JUMP JUMPDEST SWAP2 POP PUSH2 0x23A8 DUP3 PUSH2 0x2341 JUMP JUMPDEST PUSH1 0x40 DUP3 ADD SWAP1 POP SWAP2 SWAP1 POP JUMP JUMPDEST PUSH1 0x0 PUSH1 0x20 DUP3 ADD SWAP1 POP DUP2 DUP2 SUB PUSH1 0x0 DUP4 ADD MSTORE PUSH2 0x23CC DUP2 PUSH2 0x2390 JUMP JUMPDEST SWAP1 POP SWAP2 SWAP1 POP JUMP JUMPDEST PUSH1 0xC0 DUP3 ADD PUSH1 0x0 DUP3 ADD MLOAD PUSH2 0x23E9 PUSH1 0x0 DUP6 ADD DUP3 PUSH2 0x135A JUMP JUMPDEST POP PUSH1 0x20 DUP3 ADD MLOAD PUSH2 0x23FC PUSH1 0x20 DUP6 ADD DUP3 PUSH2 0x135A JUMP JUMPDEST POP PUSH1 0x40 DUP3 ADD MLOAD PUSH2 0x240F PUSH1 0x40 DUP6 ADD DUP3 PUSH2 0x135A JUMP JUMPDEST POP PUSH1 0x60 DUP3 ADD MLOAD PUSH2 0x2422 PUSH1 0x60 DUP6 ADD DUP3 PUSH2 0x135A JUMP JUMPDEST POP PUSH1 0x80 DUP3 ADD MLOAD PUSH2 0x2435 PUSH1 0x80 DUP6 ADD DUP3 PUSH2 0x135A JUMP JUMPDEST POP PUSH1 0xA0 DUP3 ADD MLOAD PUSH2 0x2448 PUSH1 0xA0 DUP6 ADD DUP3 PUSH2 0x135A JUMP JUMPDEST POP POP POP POP JUMP JUMPDEST PUSH1 0x0 PUSH1 0xC0 DUP3 ADD SWAP1 POP PUSH2 0x2463 PUSH1 0x0 DUP4 ADD DUP5 PUSH2 0x23D3 JUMP JUMPDEST SWAP3 SWAP2 POP POP JUMP JUMPDEST PUSH1 0x0 PUSH2 0x2474 DUP3 PUSH2 0x13AA JUMP JUMPDEST PUSH2 0x247E DUP2 DUP6 PUSH2 0x1907 JUMP JUMPDEST SWAP4 POP PUSH2 0x248E DUP2 DUP6 PUSH1 0x20 DUP7 ADD PUSH2 0x13C6 JUMP JUMPDEST PUSH2 0x2497 DUP2 PUSH2 0x1183 JUMP JUMPDEST DUP5 ADD SWAP2 POP POP SWAP3 SWAP2 POP POP JUMP JUMPDEST PUSH1 0x0 PUSH1 0x40 DUP3 ADD SWAP1 POP PUSH2 0x24B7 PUSH1 0x0 DUP4 ADD DUP6 PUSH2 0x2132 JUMP JUMPDEST DUP2 DUP2 SUB PUSH1 0x20 DUP4 ADD MSTORE PUSH2 0x24C9 DUP2 DUP5 PUSH2 0x2469 JUMP JUMPDEST SWAP1 POP SWAP4 SWAP3 POP POP POP JUMP JUMPDEST PUSH1 0x0 PUSH1 0x20 DUP3 DUP5 SUB SLT ISZERO PUSH2 0x24E8 JUMPI PUSH2 0x24E7 PUSH2 0x1139 JUMP JUMPDEST JUMPDEST PUSH1 0x0 PUSH2 0x24F6 DUP5 DUP3 DUP6 ADD PUSH2 0x1B8E JUMP JUMPDEST SWAP2 POP POP SWAP3 SWAP2 POP POP JUMP JUMPDEST PUSH32 0x456D706C6F79656520536B696C6C20437572736F723A20726571756573742073 PUSH1 0x0 DUP3 ADD MSTORE PUSH32 0x6B696C6C00000000000000000000000000000000000000000000000000000000 PUSH1 0x20 DUP3 ADD MSTORE POP JUMP JUMPDEST PUSH1 0x0 PUSH2 0x255B PUSH1 0x24 DUP4 PUSH2 0x1907 JUMP JUMPDEST SWAP2 POP PUSH2 0x2566 DUP3 PUSH2 0x24FF JUMP JUMPDEST PUSH1 0x40 DUP3 ADD SWAP1 POP SWAP2 SWAP1 POP JUMP JUMPDEST PUSH1 0x0 PUSH1 0x20 DUP3 ADD SWAP1 POP DUP2 DUP2 SUB PUSH1 0x0 DUP4 ADD MSTORE PUSH2 0x258A DUP2 PUSH2 0x254E JUMP JUMPDEST SWAP1 POP SWAP2 SWAP1 POP JUMP JUMPDEST PUSH1 0x0 PUSH1 0x40 DUP3 ADD SWAP1 POP PUSH2 0x25A6 PUSH1 0x0 DUP4 ADD DUP6 PUSH2 0x2132 JUMP JUMPDEST PUSH2 0x25B3 PUSH1 0x20 DUP4 ADD DUP5 PUSH2 0x2132 JUMP JUMPDEST SWAP4 SWAP3 POP POP POP JUMP JUMPDEST PUSH32 0x4F776E61626C653A206E6577206F776E657220697320746865207A65726F2061 PUSH1 0x0 DUP3 ADD MSTORE PUSH32 0x6464726573730000000000000000000000000000000000000000000000000000 PUSH1 0x20 DUP3 ADD MSTORE POP JUMP JUMPDEST PUSH1 0x0 PUSH2 0x2616 PUSH1 0x26 DUP4 PUSH2 0x1907 JUMP JUMPDEST SWAP2 POP PUSH2 0x2621 DUP3 PUSH2 0x25BA JUMP JUMPDEST PUSH1 0x40 DUP3 ADD SWAP1 POP SWAP2 SWAP1 POP JUMP JUMPDEST PUSH1 0x0 PUSH1 0x20 DUP3 ADD SWAP1 POP DUP2 DUP2 SUB PUSH1 0x0 DUP4 ADD MSTORE PUSH2 0x2645 DUP2 PUSH2 0x2609 JUMP JUMPDEST SWAP1 POP SWAP2 SWAP1 POP JUMP JUMPDEST PUSH1 0x0 PUSH1 0x20 DUP3 DUP5 SUB SLT ISZERO PUSH2 0x2662 JUMPI PUSH2 0x2661 PUSH2 0x1139 JUMP JUMPDEST JUMPDEST PUSH1 0x0 DUP3 ADD MLOAD PUSH8 0xFFFFFFFFFFFFFFFF DUP2 GT ISZERO PUSH2 0x2680 JUMPI PUSH2 0x267F PUSH2 0x113E JUMP JUMPDEST JUMPDEST PUSH2 0x268C DUP5 DUP3 DUP6 ADD PUSH2 0x1C28 JUMP JUMPDEST SWAP2 POP POP SWAP3 SWAP2 POP POP JUMP JUMPDEST PUSH32 0x4F776E61626C653A2063616C6C6572206973206E6F7420746865206F776E6572 PUSH1 0x0 DUP3 ADD MSTORE POP JUMP JUMPDEST PUSH1 0x0 PUSH2 0x26CB PUSH1 0x20 DUP4 PUSH2 0x1907 JUMP JUMPDEST SWAP2 POP PUSH2 0x26D6 DUP3 PUSH2 0x2695 JUMP JUMPDEST PUSH1 0x20 DUP3 ADD SWAP1 POP SWAP2 SWAP1 POP JUMP JUMPDEST PUSH1 0x0 PUSH1 0x20 DUP3 ADD SWAP1 POP DUP2 DUP2 SUB PUSH1 0x0 DUP4 ADD MSTORE PUSH2 0x26FA DUP2 PUSH2 0x26BE JUMP JUMPDEST SWAP1 POP SWAP2 SWAP1 POP JUMP JUMPDEST PUSH1 0x0 PUSH1 0x80 DUP3 DUP5 SUB SLT ISZERO PUSH2 0x2717 JUMPI PUSH2 0x2716 PUSH2 0x1B84 JUMP JUMPDEST JUMPDEST PUSH2 0x2721 PUSH1 0x80 PUSH2 0x11F4 JUMP JUMPDEST SWAP1 POP PUSH1 0x0 PUSH2 0x2731 DUP5 DUP3 DUP6 ADD PUSH2 0x1B8E JUMP JUMPDEST PUSH1 0x0 DUP4 ADD MSTORE POP PUSH1 0x20 PUSH2 0x2745 DUP5 DUP3 DUP6 ADD PUSH2 0x1B8E JUMP JUMPDEST PUSH1 0x20 DUP4 ADD MSTORE POP PUSH1 0x40 DUP3 ADD MLOAD PUSH8 0xFFFFFFFFFFFFFFFF DUP2 GT ISZERO PUSH2 0x2769 JUMPI PUSH2 0x2768 PUSH2 0x1B89 JUMP JUMPDEST JUMPDEST PUSH2 0x2775 DUP5 DUP3 DUP6 ADD PUSH2 0x1BFA JUMP JUMPDEST PUSH1 0x40 DUP4 ADD MSTORE POP PUSH1 0x60 PUSH2 0x2789 DUP5 DUP3 DUP6 ADD PUSH2 0x1B8E JUMP JUMPDEST PUSH1 0x60 DUP4 ADD MSTORE POP SWAP3 SWAP2 POP POP JUMP JUMPDEST PUSH1 0x0 PUSH1 0x20 DUP3 DUP5 SUB SLT ISZERO PUSH2 0x27AB JUMPI PUSH2 0x27AA PUSH2 0x1139 JUMP JUMPDEST JUMPDEST PUSH1 0x0 DUP3 ADD MLOAD PUSH8 0xFFFFFFFFFFFFFFFF DUP2 GT ISZERO PUSH2 0x27C9 JUMPI PUSH2 0x27C8 PUSH2 0x113E JUMP JUMPDEST JUMPDEST PUSH2 0x27D5 DUP5 DUP3 DUP6 ADD PUSH2 0x2701 JUMP JUMPDEST SWAP2 POP POP SWAP3 SWAP2 POP POP JUMP INVALID LOG2 PUSH5 0x6970667358 0x22 SLT KECCAK256 PUSH9 0x6577B56DF8A028CCEE LOG2 MLOAD DUP5 RETURN 0xDA PUSH22 0xEC897A670C269F6C66D63ED40C4E96CF64736F6C6343 STOP ADDMOD GT STOP CALLER "
		},
		"gasEstimates": {
			"creation": {
				"codeDepositCost": "2052000",
				"executionCost": "infinite",
				"totalCost": "infinite"
			},
			"external": {
				"_checkApplyIdBelongsToEmployeeId(uint256,uint256)": "infinite",
				"_checkExistApply(uint256,uint256)": "infinite",
				"_checkExistEmployeeAccount()": "infinite",
				"_checkExistSkill(uint256,string)": "infinite",
				"_checkIdBelongsToPostId(uint256,uint256)": "infinite",
				"addEmployee(uint256,string,string,string,string,string,string,string)": "infinite",
				"addSkill(uint256,string,uint256)": "infinite",
				"applyPost(uint256,uint256,uint256)": "infinite",
				"destroy()": "30083",
				"editSkill(uint256,uint256,uint256)": "infinite",
				"getAllProfile()": "infinite",
				"owner()": "2545",
				"transferOwnership(address)": "30797"
			}
		},
		"methodIdentifiers": {
			"_checkApplyIdBelongsToEmployeeId(uint256,uint256)": "64f3fe9d",
			"_checkExistApply(uint256,uint256)": "49e488a0",
			"_checkExistEmployeeAccount()": "ec40a59b",
			"_checkExistSkill(uint256,string)": "c1fa897d",
			"_checkIdBelongsToPostId(uint256,uint256)": "bad50029",
			"addEmployee(uint256,string,string,string,string,string,string,string)": "7be69569",
			"addSkill(uint256,string,uint256)": "1fe1d463",
			"applyPost(uint256,uint256,uint256)": "96b93424",
			"destroy()": "83197ef0",
			"editSkill(uint256,uint256,uint256)": "e583267d",
			"getAllProfile()": "3901d42d",
			"owner()": "8da5cb5b",
			"transferOwnership(address)": "f2fde38b"
		}
	},
	"abi": [
		{
			"inputs": [
				{
					"internalType": "address",
					"name": "listEmployeeAddress",
					"type": "address"
				},
				{
					"internalType": "address",
					"name": "listEmployeeSkillAddress",
					"type": "address"
				},
				{
					"internalType": "address",
					"name": "listEmployeeApplyAddress",
					"type": "address"
				},
				{
					"internalType": "address",
					"name": "listEmployeeAppointmenAddress",
					"type": "address"
				}
			],
			"stateMutability": "nonpayable",
			"type": "constructor"
		},
		{
			"anonymous": false,
			"inputs": [
				{
					"indexed": true,
					"internalType": "address",
					"name": "previousOwner",
					"type": "address"
				},
				{
					"indexed": true,
					"internalType": "address",
					"name": "newOwner",
					"type": "address"
				}
			],
			"name": "OwnershipTransferred",
			"type": "event"
		},
		{
			"inputs": [
				{
					"internalType": "uint256",
					"name": "id",
					"type": "uint256"
				},
				{
					"internalType": "uint256",
					"name": "employeeId",
					"type": "uint256"
				}
			],
			"name": "_checkApplyIdBelongsToEmployeeId",
			"outputs": [
				{
					"internalType": "bool",
					"name": "",
					"type": "bool"
				}
			],
			"stateMutability": "view",
			"type": "function"
		},
		{
			"inputs": [
				{
					"internalType": "uint256",
					"name": "employeeId",
					"type": "uint256"
				},
				{
					"internalType": "uint256",
					"name": "postId",
					"type": "uint256"
				}
			],
			"name": "_checkExistApply",
			"outputs": [
				{
					"internalType": "bool",
					"name": "",
					"type": "bool"
				}
			],
			"stateMutability": "view",
			"type": "function"
		},
		{
			"inputs": [],
			"name": "_checkExistEmployeeAccount",
			"outputs": [
				{
					"internalType": "bool",
					"name": "",
					"type": "bool"
				}
			],
			"stateMutability": "view",
			"type": "function"
		},
		{
			"inputs": [
				{
					"internalType": "uint256",
					"name": "employeeId",
					"type": "uint256"
				},
				{
					"internalType": "string",
					"name": "title",
					"type": "string"
				}
			],
			"name": "_checkExistSkill",
			"outputs": [
				{
					"internalType": "bool",
					"name": "",
					"type": "bool"
				}
			],
			"stateMutability": "view",
			"type": "function"
		},
		{
			"inputs": [
				{
					"internalType": "uint256",
					"name": "id",
					"type": "uint256"
				},
				{
					"internalType": "uint256",
					"name": "postId",
					"type": "uint256"
				}
			],
			"name": "_checkIdBelongsToPostId",
			"outputs": [
				{
					"internalType": "bool",
					"name": "",
					"type": "bool"
				}
			],
			"stateMutability": "view",
			"type": "function"
		},
		{
			"inputs": [
				{
					"internalType": "uint256",
					"name": "category",
					"type": "uint256"
				},
				{
					"internalType": "string",
					"name": "name",
					"type": "string"
				},
				{
					"internalType": "string",
					"name": "phone",
					"type": "string"
				},
				{
					"internalType": "string",
					"name": "professional",
					"type": "string"
				},
				{
					"internalType": "string",
					"name": "email",
					"type": "string"
				},
				{
					"internalType": "string",
					"name": "github",
					"type": "string"
				},
				{
					"internalType": "string",
					"name": "linkedin",
					"type": "string"
				},
				{
					"internalType": "string",
					"name": "sourceImage",
					"type": "string"
				}
			],
			"name": "addEmployee",
			"outputs": [],
			"stateMutability": "nonpayable",
			"type": "function"
		},
		{
			"inputs": [
				{
					"internalType": "uint256",
					"name": "id",
					"type": "uint256"
				},
				{
					"internalType": "string",
					"name": "title",
					"type": "string"
				},
				{
					"internalType": "uint256",
					"name": "level",
					"type": "uint256"
				}
			],
			"name": "addSkill",
			"outputs": [],
			"stateMutability": "nonpayable",
			"type": "function"
		},
		{
			"inputs": [
				{
					"internalType": "uint256",
					"name": "employeeId",
					"type": "uint256"
				},
				{
					"internalType": "uint256",
					"name": "businessId",
					"type": "uint256"
				},
				{
					"internalType": "uint256",
					"name": "postId",
					"type": "uint256"
				}
			],
			"name": "applyPost",
			"outputs": [],
			"stateMutability": "nonpayable",
			"type": "function"
		},
		{
			"inputs": [],
			"name": "destroy",
			"outputs": [],
			"stateMutability": "nonpayable",
			"type": "function"
		},
		{
			"inputs": [
				{
					"internalType": "uint256",
					"name": "id",
					"type": "uint256"
				},
				{
					"internalType": "uint256",
					"name": "skillId",
					"type": "uint256"
				},
				{
					"internalType": "uint256",
					"name": "level",
					"type": "uint256"
				}
			],
			"name": "editSkill",
			"outputs": [],
			"stateMutability": "nonpayable",
			"type": "function"
		},
		{
			"inputs": [],
			"name": "getAllProfile",
			"outputs": [
				{
					"components": [
						{
							"internalType": "uint256",
							"name": "category",
							"type": "uint256"
						},
						{
							"internalType": "uint256",
							"name": "id",
							"type": "uint256"
						},
						{
							"internalType": "address",
							"name": "user",
							"type": "address"
						},
						{
							"internalType": "string",
							"name": "name",
							"type": "string"
						},
						{
							"internalType": "string",
							"name": "phone",
							"type": "string"
						},
						{
							"internalType": "string",
							"name": "professional",
							"type": "string"
						},
						{
							"internalType": "string",
							"name": "email",
							"type": "string"
						},
						{
							"internalType": "string",
							"name": "github",
							"type": "string"
						},
						{
							"internalType": "string",
							"name": "linkedin",
							"type": "string"
						},
						{
							"internalType": "string",
							"name": "sourceImage",
							"type": "string"
						}
					],
					"internalType": "struct Profile[]",
					"name": "",
					"type": "tuple[]"
				}
			],
			"stateMutability": "view",
			"type": "function"
		},
		{
			"inputs": [],
			"name": "owner",
			"outputs": [
				{
					"internalType": "address",
					"name": "",
					"type": "address"
				}
			],
			"stateMutability": "view",
			"type": "function"
		},
		{
			"inputs": [
				{
					"internalType": "address",
					"name": "newOwner",
					"type": "address"
				}
			],
			"name": "transferOwnership",
			"outputs": [],
			"stateMutability": "nonpayable",
			"type": "function"
		}
	]
}