{
	"database/employee/cv/ListEmployeeCV.sol": {
		"ListEmployeeCV": {
			"abi": [
				{
					"inputs": [],
					"stateMutability": "nonpayable",
					"type": "constructor"
				},
				{
					"anonymous": false,
					"inputs": [
						{
							"components": [
								{
									"internalType": "uint256",
									"name": "id",
									"type": "uint256"
								},
								{
									"internalType": "uint256",
									"name": "employeeId",
									"type": "uint256"
								},
								{
									"internalType": "uint256",
									"name": "time",
									"type": "uint256"
								},
								{
									"internalType": "string",
									"name": "data",
									"type": "string"
								}
							],
							"indexed": false,
							"internalType": "struct EmployeeCV",
							"name": "item",
							"type": "tuple"
						}
					],
					"name": "Add",
					"type": "event"
				},
				{
					"anonymous": false,
					"inputs": [
						{
							"indexed": true,
							"internalType": "address",
							"name": "previousOwner",
							"type": "address"
						},
						{
							"indexed": true,
							"internalType": "address",
							"name": "newOwner",
							"type": "address"
						}
					],
					"name": "OwnershipTransferred",
					"type": "event"
				},
				{
					"anonymous": false,
					"inputs": [
						{
							"components": [
								{
									"internalType": "uint256",
									"name": "id",
									"type": "uint256"
								},
								{
									"internalType": "uint256",
									"name": "employeeId",
									"type": "uint256"
								},
								{
									"internalType": "uint256",
									"name": "time",
									"type": "uint256"
								},
								{
									"internalType": "string",
									"name": "data",
									"type": "string"
								}
							],
							"indexed": false,
							"internalType": "struct EmployeeCV",
							"name": "item",
							"type": "tuple"
						}
					],
					"name": "Remove",
					"type": "event"
				},
				{
					"inputs": [
						{
							"components": [
								{
									"internalType": "uint256",
									"name": "id",
									"type": "uint256"
								},
								{
									"internalType": "uint256",
									"name": "employeeId",
									"type": "uint256"
								},
								{
									"internalType": "uint256",
									"name": "time",
									"type": "uint256"
								},
								{
									"internalType": "string",
									"name": "data",
									"type": "string"
								}
							],
							"internalType": "struct EmployeeCV",
							"name": "item",
							"type": "tuple"
						}
					],
					"name": "add",
					"outputs": [],
					"stateMutability": "nonpayable",
					"type": "function"
				},
				{
					"inputs": [],
					"name": "approve",
					"outputs": [],
					"stateMutability": "nonpayable",
					"type": "function"
				},
				{
					"inputs": [
						{
							"internalType": "uint256",
							"name": "index",
							"type": "uint256"
						}
					],
					"name": "at",
					"outputs": [
						{
							"components": [
								{
									"internalType": "uint256",
									"name": "id",
									"type": "uint256"
								},
								{
									"internalType": "uint256",
									"name": "employeeId",
									"type": "uint256"
								},
								{
									"internalType": "uint256",
									"name": "time",
									"type": "uint256"
								},
								{
									"internalType": "string",
									"name": "data",
									"type": "string"
								}
							],
							"internalType": "struct EmployeeCV",
							"name": "",
							"type": "tuple"
						}
					],
					"stateMutability": "view",
					"type": "function"
				},
				{
					"inputs": [],
					"name": "destroy",
					"outputs": [],
					"stateMutability": "nonpayable",
					"type": "function"
				},
				{
					"inputs": [
						{
							"internalType": "uint256",
							"name": "",
							"type": "uint256"
						}
					],
					"name": "list",
					"outputs": [
						{
							"internalType": "uint256",
							"name": "id",
							"type": "uint256"
						},
						{
							"internalType": "uint256",
							"name": "employeeId",
							"type": "uint256"
						},
						{
							"internalType": "uint256",
							"name": "time",
							"type": "uint256"
						},
						{
							"internalType": "string",
							"name": "data",
							"type": "string"
						}
					],
					"stateMutability": "view",
					"type": "function"
				},
				{
					"inputs": [],
					"name": "owner",
					"outputs": [
						{
							"internalType": "address",
							"name": "",
							"type": "address"
						}
					],
					"stateMutability": "view",
					"type": "function"
				},
				{
					"inputs": [
						{
							"internalType": "address",
							"name": "newOwner",
							"type": "address"
						}
					],
					"name": "transferOwnership",
					"outputs": [],
					"stateMutability": "nonpayable",
					"type": "function"
				}
			],
			"devdoc": {
				"kind": "dev",
				"methods": {
					"owner()": {
						"details": "Returns the address of the current owner."
					},
					"transferOwnership(address)": {
						"details": "Transfers ownership of the contract to a new account (`newOwner`). Can only be called by the current owner."
					}
				},
				"version": 1
			},
			"evm": {
				"assembly": "    /* \"database/employee/cv/ListEmployeeCV.sol\":265:780  contract ListEmployeeCV is Permission {... */\n  mstore(0x40, 0x80)\n    /* \"database/employee/cv/ListEmployeeCV.sol\":374:403  constructor() Permission() {} */\n  callvalue\n  dup1\n  iszero\n  tag_1\n  jumpi\n  0x00\n  dup1\n  revert\ntag_1:\n  pop\n    /* \"abstract/Ownable.sol\":1011:1021  msg.sender */\n  caller\n    /* \"abstract/Ownable.sol\":1002:1008  _owner */\n  0x00\n  dup1\n    /* \"abstract/Ownable.sol\":1002:1021  _owner = msg.sender */\n  0x0100\n  exp\n  dup2\n  sload\n  dup2\n  0xffffffffffffffffffffffffffffffffffffffff\n  mul\n  not\n  and\n  swap1\n  dup4\n  0xffffffffffffffffffffffffffffffffffffffff\n  and\n  mul\n  or\n  swap1\n  sstore\n  pop\n    /* \"database/employee/cv/ListEmployeeCV.sol\":265:780  contract ListEmployeeCV is Permission {... */\n  dataSize(sub_0)\n  dup1\n  dataOffset(sub_0)\n  0x00\n  codecopy\n  0x00\n  return\nstop\n\nsub_0: assembly {\n        /* \"database/employee/cv/ListEmployeeCV.sol\":265:780  contract ListEmployeeCV is Permission {... */\n      mstore(0x40, 0x80)\n      callvalue\n      dup1\n      iszero\n      tag_1\n      jumpi\n      0x00\n      dup1\n      revert\n    tag_1:\n      pop\n      jumpi(tag_2, lt(calldatasize, 0x04))\n      shr(0xe0, calldataload(0x00))\n      dup1\n      0x8da5cb5b\n      gt\n      tag_10\n      jumpi\n      dup1\n      0x8da5cb5b\n      eq\n      tag_6\n      jumpi\n      dup1\n      0xe0886f90\n      eq\n      tag_7\n      jumpi\n      dup1\n      0xf2fde38b\n      eq\n      tag_8\n      jumpi\n      dup1\n      0xf4440976\n      eq\n      tag_9\n      jumpi\n      jump(tag_2)\n    tag_10:\n      dup1\n      0x12424e3f\n      eq\n      tag_3\n      jumpi\n      dup1\n      0x80c9419e\n      eq\n      tag_4\n      jumpi\n      dup1\n      0x83197ef0\n      eq\n      tag_5\n      jumpi\n    tag_2:\n      0x00\n      dup1\n      revert\n        /* \"abstract/Permission.sol\":299:381  function approve() public onlyOwner {... */\n    tag_3:\n      tag_11\n      tag_12\n      jump\t// in\n    tag_11:\n      stop\n        /* \"database/employee/cv/ListEmployeeCV.sol\":343:367  EmployeeCV[] public list */\n    tag_4:\n      tag_13\n      0x04\n      dup1\n      calldatasize\n      sub\n      dup2\n      add\n      swap1\n      tag_14\n      swap2\n      swap1\n      tag_15\n      jump\t// in\n    tag_14:\n      tag_16\n      jump\t// in\n    tag_13:\n      mload(0x40)\n      tag_17\n      swap5\n      swap4\n      swap3\n      swap2\n      swap1\n      tag_18\n      jump\t// in\n    tag_17:\n      mload(0x40)\n      dup1\n      swap2\n      sub\n      swap1\n      return\n        /* \"abstract/Ownable.sol\":2720:2809  function destroy() public onlyOwner {... */\n    tag_5:\n      tag_19\n      tag_20\n      jump\t// in\n    tag_19:\n      stop\n        /* \"abstract/Ownable.sol\":1254:1339  function owner() public view virtual returns (address) {... */\n    tag_6:\n      tag_21\n      tag_22\n      jump\t// in\n    tag_21:\n      mload(0x40)\n      tag_23\n      swap2\n      swap1\n      tag_24\n      jump\t// in\n    tag_23:\n      mload(0x40)\n      dup1\n      swap2\n      sub\n      swap1\n      return\n        /* \"database/employee/cv/ListEmployeeCV.sol\":627:778  function at(uint256 index)... */\n    tag_7:\n      tag_25\n      0x04\n      dup1\n      calldatasize\n      sub\n      dup2\n      add\n      swap1\n      tag_26\n      swap2\n      swap1\n      tag_15\n      jump\t// in\n    tag_26:\n      tag_27\n      jump\t// in\n    tag_25:\n      mload(0x40)\n      tag_28\n      swap2\n      swap1\n      tag_29\n      jump\t// in\n    tag_28:\n      mload(0x40)\n      dup1\n      swap2\n      sub\n      swap1\n      return\n        /* \"abstract/Ownable.sol\":2141:2373  function transferOwnership(address newOwner) public virtual onlyOwner {... */\n    tag_8:\n      tag_30\n      0x04\n      dup1\n      calldatasize\n      sub\n      dup2\n      add\n      swap1\n      tag_31\n      swap2\n      swap1\n      tag_32\n      jump\t// in\n    tag_31:\n      tag_33\n      jump\t// in\n    tag_30:\n      stop\n        /* \"database/employee/cv/ListEmployeeCV.sol\":477:621  function add(EmployeeCV memory item) public onlyApproved {... */\n    tag_9:\n      tag_34\n      0x04\n      dup1\n      calldatasize\n      sub\n      dup2\n      add\n      swap1\n      tag_35\n      swap2\n      swap1\n      tag_36\n      jump\t// in\n    tag_35:\n      tag_37\n      jump\t// in\n    tag_34:\n      stop\n        /* \"abstract/Permission.sol\":299:381  function approve() public onlyOwner {... */\n    tag_12:\n        /* \"abstract/Ownable.sol\":1147:1160  _checkOwner() */\n      tag_39\n        /* \"abstract/Ownable.sol\":1147:1158  _checkOwner */\n      tag_40\n        /* \"abstract/Ownable.sol\":1147:1160  _checkOwner() */\n      jump\t// in\n    tag_39:\n        /* \"abstract/Permission.sol\":370:374  true */\n      0x01\n        /* \"abstract/Permission.sol\":345:353  approved */\n      dup1\n        /* \"abstract/Permission.sol\":345:367  approved[_msgSender()] */\n      0x00\n        /* \"abstract/Permission.sol\":354:366  _msgSender() */\n      tag_42\n        /* \"abstract/Permission.sol\":354:364  _msgSender */\n      tag_43\n        /* \"abstract/Permission.sol\":354:366  _msgSender() */\n      jump\t// in\n    tag_42:\n        /* \"abstract/Permission.sol\":345:367  approved[_msgSender()] */\n      0xffffffffffffffffffffffffffffffffffffffff\n      and\n      0xffffffffffffffffffffffffffffffffffffffff\n      and\n      dup2\n      mstore\n      0x20\n      add\n      swap1\n      dup2\n      mstore\n      0x20\n      add\n      0x00\n      keccak256\n      0x00\n        /* \"abstract/Permission.sol\":345:374  approved[_msgSender()] = true */\n      0x0100\n      exp\n      dup2\n      sload\n      dup2\n      0xff\n      mul\n      not\n      and\n      swap1\n      dup4\n      iszero\n      iszero\n      mul\n      or\n      swap1\n      sstore\n      pop\n        /* \"abstract/Permission.sol\":299:381  function approve() public onlyOwner {... */\n      jump\t// out\n        /* \"database/employee/cv/ListEmployeeCV.sol\":343:367  EmployeeCV[] public list */\n    tag_16:\n      0x02\n      dup2\n      dup2\n      sload\n      dup2\n      lt\n      tag_44\n      jumpi\n      0x00\n      dup1\n      revert\n    tag_44:\n      swap1\n      0x00\n      mstore\n      keccak256(0x00, 0x20)\n      swap1\n      0x04\n      mul\n      add\n      0x00\n      swap2\n      pop\n      swap1\n      pop\n      dup1\n      0x00\n      add\n      sload\n      swap1\n      dup1\n      0x01\n      add\n      sload\n      swap1\n      dup1\n      0x02\n      add\n      sload\n      swap1\n      dup1\n      0x03\n      add\n      dup1\n      sload\n      tag_46\n      swap1\n      tag_47\n      jump\t// in\n    tag_46:\n      dup1\n      0x1f\n      add\n      0x20\n      dup1\n      swap2\n      div\n      mul\n      0x20\n      add\n      mload(0x40)\n      swap1\n      dup2\n      add\n      0x40\n      mstore\n      dup1\n      swap3\n      swap2\n      swap1\n      dup2\n      dup2\n      mstore\n      0x20\n      add\n      dup3\n      dup1\n      sload\n      tag_48\n      swap1\n      tag_47\n      jump\t// in\n    tag_48:\n      dup1\n      iszero\n      tag_49\n      jumpi\n      dup1\n      0x1f\n      lt\n      tag_50\n      jumpi\n      0x0100\n      dup1\n      dup4\n      sload\n      div\n      mul\n      dup4\n      mstore\n      swap2\n      0x20\n      add\n      swap2\n      jump(tag_49)\n    tag_50:\n      dup3\n      add\n      swap2\n      swap1\n      0x00\n      mstore\n      keccak256(0x00, 0x20)\n      swap1\n    tag_51:\n      dup2\n      sload\n      dup2\n      mstore\n      swap1\n      0x01\n      add\n      swap1\n      0x20\n      add\n      dup1\n      dup4\n      gt\n      tag_51\n      jumpi\n      dup3\n      swap1\n      sub\n      0x1f\n      and\n      dup3\n      add\n      swap2\n    tag_49:\n      pop\n      pop\n      pop\n      pop\n      pop\n      swap1\n      pop\n      dup5\n      jump\t// out\n        /* \"abstract/Ownable.sol\":2720:2809  function destroy() public onlyOwner {... */\n    tag_20:\n        /* \"abstract/Ownable.sol\":1147:1160  _checkOwner() */\n      tag_53\n        /* \"abstract/Ownable.sol\":1147:1158  _checkOwner */\n      tag_40\n        /* \"abstract/Ownable.sol\":1147:1160  _checkOwner() */\n      jump\t// in\n    tag_53:\n        /* \"abstract/Ownable.sol\":2795:2799  this */\n      address\n        /* \"abstract/Ownable.sol\":2766:2802  selfdestruct(payable(address(this))) */\n      0xffffffffffffffffffffffffffffffffffffffff\n      and\n      selfdestruct\n        /* \"abstract/Ownable.sol\":1254:1339  function owner() public view virtual returns (address) {... */\n    tag_22:\n        /* \"abstract/Ownable.sol\":1300:1307  address */\n      0x00\n        /* \"abstract/Ownable.sol\":1326:1332  _owner */\n      dup1\n      0x00\n      swap1\n      sload\n      swap1\n      0x0100\n      exp\n      swap1\n      div\n      0xffffffffffffffffffffffffffffffffffffffff\n      and\n        /* \"abstract/Ownable.sol\":1319:1332  return _owner */\n      swap1\n      pop\n        /* \"abstract/Ownable.sol\":1254:1339  function owner() public view virtual returns (address) {... */\n      swap1\n      jump\t// out\n        /* \"database/employee/cv/ListEmployeeCV.sol\":627:778  function at(uint256 index)... */\n    tag_27:\n        /* \"database/employee/cv/ListEmployeeCV.sol\":720:737  EmployeeCV memory */\n      tag_56\n      tag_57\n      jump\t// in\n    tag_56:\n        /* \"abstract/Permission.sol\":421:437  _checkApproved() */\n      tag_59\n        /* \"abstract/Permission.sol\":421:435  _checkApproved */\n      tag_60\n        /* \"abstract/Permission.sol\":421:437  _checkApproved() */\n      jump\t// in\n    tag_59:\n        /* \"database/employee/cv/ListEmployeeCV.sol\":760:764  list */\n      0x02\n        /* \"database/employee/cv/ListEmployeeCV.sol\":765:770  index */\n      dup3\n        /* \"database/employee/cv/ListEmployeeCV.sol\":760:771  list[index] */\n      dup2\n      sload\n      dup2\n      lt\n      tag_62\n      jumpi\n      tag_63\n      tag_64\n      jump\t// in\n    tag_63:\n    tag_62:\n      swap1\n      0x00\n      mstore\n      keccak256(0x00, 0x20)\n      swap1\n      0x04\n      mul\n      add\n        /* \"database/employee/cv/ListEmployeeCV.sol\":753:771  return list[index] */\n      mload(0x40)\n      dup1\n      0x80\n      add\n      0x40\n      mstore\n      swap1\n      dup2\n      0x00\n      dup3\n      add\n      sload\n      dup2\n      mstore\n      0x20\n      add\n      0x01\n      dup3\n      add\n      sload\n      dup2\n      mstore\n      0x20\n      add\n      0x02\n      dup3\n      add\n      sload\n      dup2\n      mstore\n      0x20\n      add\n      0x03\n      dup3\n      add\n      dup1\n      sload\n      tag_66\n      swap1\n      tag_47\n      jump\t// in\n    tag_66:\n      dup1\n      0x1f\n      add\n      0x20\n      dup1\n      swap2\n      div\n      mul\n      0x20\n      add\n      mload(0x40)\n      swap1\n      dup2\n      add\n      0x40\n      mstore\n      dup1\n      swap3\n      swap2\n      swap1\n      dup2\n      dup2\n      mstore\n      0x20\n      add\n      dup3\n      dup1\n      sload\n      tag_67\n      swap1\n      tag_47\n      jump\t// in\n    tag_67:\n      dup1\n      iszero\n      tag_68\n      jumpi\n      dup1\n      0x1f\n      lt\n      tag_69\n      jumpi\n      0x0100\n      dup1\n      dup4\n      sload\n      div\n      mul\n      dup4\n      mstore\n      swap2\n      0x20\n      add\n      swap2\n      jump(tag_68)\n    tag_69:\n      dup3\n      add\n      swap2\n      swap1\n      0x00\n      mstore\n      keccak256(0x00, 0x20)\n      swap1\n    tag_70:\n      dup2\n      sload\n      dup2\n      mstore\n      swap1\n      0x01\n      add\n      swap1\n      0x20\n      add\n      dup1\n      dup4\n      gt\n      tag_70\n      jumpi\n      dup3\n      swap1\n      sub\n      0x1f\n      and\n      dup3\n      add\n      swap2\n    tag_68:\n      pop\n      pop\n      pop\n      pop\n      pop\n      dup2\n      mstore\n      pop\n      pop\n      swap1\n      pop\n        /* \"database/employee/cv/ListEmployeeCV.sol\":627:778  function at(uint256 index)... */\n      swap2\n      swap1\n      pop\n      jump\t// out\n        /* \"abstract/Ownable.sol\":2141:2373  function transferOwnership(address newOwner) public virtual onlyOwner {... */\n    tag_33:\n        /* \"abstract/Ownable.sol\":1147:1160  _checkOwner() */\n      tag_72\n        /* \"abstract/Ownable.sol\":1147:1158  _checkOwner */\n      tag_40\n        /* \"abstract/Ownable.sol\":1147:1160  _checkOwner() */\n      jump\t// in\n    tag_72:\n        /* \"abstract/Ownable.sol\":2262:2263  0 */\n      0x00\n        /* \"abstract/Ownable.sol\":2242:2264  newOwner != address(0) */\n      0xffffffffffffffffffffffffffffffffffffffff\n      and\n        /* \"abstract/Ownable.sol\":2242:2250  newOwner */\n      dup2\n        /* \"abstract/Ownable.sol\":2242:2264  newOwner != address(0) */\n      0xffffffffffffffffffffffffffffffffffffffff\n      and\n      sub\n        /* \"abstract/Ownable.sol\":2221:2328  require(... */\n      tag_74\n      jumpi\n      mload(0x40)\n      0x08c379a000000000000000000000000000000000000000000000000000000000\n      dup2\n      mstore\n      0x04\n      add\n      tag_75\n      swap1\n      tag_76\n      jump\t// in\n    tag_75:\n      mload(0x40)\n      dup1\n      swap2\n      sub\n      swap1\n      revert\n    tag_74:\n        /* \"abstract/Ownable.sol\":2338:2366  _transferOwnership(newOwner) */\n      tag_77\n        /* \"abstract/Ownable.sol\":2357:2365  newOwner */\n      dup2\n        /* \"abstract/Ownable.sol\":2338:2356  _transferOwnership */\n      tag_78\n        /* \"abstract/Ownable.sol\":2338:2366  _transferOwnership(newOwner) */\n      jump\t// in\n    tag_77:\n        /* \"abstract/Ownable.sol\":2141:2373  function transferOwnership(address newOwner) public virtual onlyOwner {... */\n      pop\n      jump\t// out\n        /* \"database/employee/cv/ListEmployeeCV.sol\":477:621  function add(EmployeeCV memory item) public onlyApproved {... */\n    tag_37:\n        /* \"abstract/Permission.sol\":421:437  _checkApproved() */\n      tag_80\n        /* \"abstract/Permission.sol\":421:435  _checkApproved */\n      tag_60\n        /* \"abstract/Permission.sol\":421:437  _checkApproved() */\n      jump\t// in\n    tag_80:\n        /* \"database/employee/cv/ListEmployeeCV.sol\":554:558  list */\n      0x02\n        /* \"database/employee/cv/ListEmployeeCV.sol\":554:565  list.length */\n      dup1\n      sload\n      swap1\n      pop\n        /* \"database/employee/cv/ListEmployeeCV.sol\":544:548  item */\n      dup2\n        /* \"database/employee/cv/ListEmployeeCV.sol\":544:551  item.id */\n      0x00\n      add\n        /* \"database/employee/cv/ListEmployeeCV.sol\":544:565  item.id = list.length */\n      dup2\n      dup2\n      mstore\n      pop\n      pop\n        /* \"database/employee/cv/ListEmployeeCV.sol\":575:579  list */\n      0x02\n        /* \"database/employee/cv/ListEmployeeCV.sol\":585:589  item */\n      dup2\n        /* \"database/employee/cv/ListEmployeeCV.sol\":575:590  list.push(item) */\n      swap1\n      dup1\n      0x01\n      dup2\n      sload\n      add\n      dup1\n      dup3\n      sstore\n      dup1\n      swap2\n      pop\n      pop\n      0x01\n      swap1\n      sub\n      swap1\n      0x00\n      mstore\n      keccak256(0x00, 0x20)\n      swap1\n      0x04\n      mul\n      add\n      0x00\n      swap1\n      swap2\n      swap1\n      swap2\n      swap1\n      swap2\n      pop\n      0x00\n      dup3\n      add\n      mload\n      dup2\n      0x00\n      add\n      sstore\n      0x20\n      dup3\n      add\n      mload\n      dup2\n      0x01\n      add\n      sstore\n      0x40\n      dup3\n      add\n      mload\n      dup2\n      0x02\n      add\n      sstore\n      0x60\n      dup3\n      add\n      mload\n      dup2\n      0x03\n      add\n      swap1\n      dup2\n      tag_83\n      swap2\n      swap1\n      tag_84\n      jump\t// in\n    tag_83:\n      pop\n      pop\n      pop\n        /* \"database/employee/cv/ListEmployeeCV.sol\":605:614  Add(item) */\n      0xa3be13d0d66ad2a9cc793fa2c8efcab3dc5776a3032ee2cb813702b574c3aaee\n        /* \"database/employee/cv/ListEmployeeCV.sol\":609:613  item */\n      dup2\n        /* \"database/employee/cv/ListEmployeeCV.sol\":605:614  Add(item) */\n      mload(0x40)\n      tag_85\n      swap2\n      swap1\n      tag_29\n      jump\t// in\n    tag_85:\n      mload(0x40)\n      dup1\n      swap2\n      sub\n      swap1\n      log1\n        /* \"database/employee/cv/ListEmployeeCV.sol\":477:621  function add(EmployeeCV memory item) public onlyApproved {... */\n      pop\n      jump\t// out\n        /* \"abstract/Ownable.sol\":1412:1540  function _checkOwner() internal view virtual {... */\n    tag_40:\n        /* \"abstract/Ownable.sol\":1486:1496  msg.sender */\n      caller\n        /* \"abstract/Ownable.sol\":1475:1496  owner() == msg.sender */\n      0xffffffffffffffffffffffffffffffffffffffff\n      and\n        /* \"abstract/Ownable.sol\":1475:1482  owner() */\n      tag_87\n        /* \"abstract/Ownable.sol\":1475:1480  owner */\n      tag_22\n        /* \"abstract/Ownable.sol\":1475:1482  owner() */\n      jump\t// in\n    tag_87:\n        /* \"abstract/Ownable.sol\":1475:1496  owner() == msg.sender */\n      0xffffffffffffffffffffffffffffffffffffffff\n      and\n      eq\n        /* \"abstract/Ownable.sol\":1467:1533  require(owner() == msg.sender, \"Ownable: caller is not the owner\") */\n      tag_88\n      jumpi\n      mload(0x40)\n      0x08c379a000000000000000000000000000000000000000000000000000000000\n      dup2\n      mstore\n      0x04\n      add\n      tag_89\n      swap1\n      tag_90\n      jump\t// in\n    tag_89:\n      mload(0x40)\n      dup1\n      swap2\n      sub\n      swap1\n      revert\n    tag_88:\n        /* \"abstract/Ownable.sol\":1412:1540  function _checkOwner() internal view virtual {... */\n      jump\t// out\n        /* \"@openzeppelin/contracts/utils/Context.sol\":640:736  function _msgSender() internal view virtual returns (address) {... */\n    tag_43:\n        /* \"@openzeppelin/contracts/utils/Context.sol\":693:700  address */\n      0x00\n        /* \"@openzeppelin/contracts/utils/Context.sol\":719:729  msg.sender */\n      caller\n        /* \"@openzeppelin/contracts/utils/Context.sol\":712:729  return msg.sender */\n      swap1\n      pop\n        /* \"@openzeppelin/contracts/utils/Context.sol\":640:736  function _msgSender() internal view virtual returns (address) {... */\n      swap1\n      jump\t// out\n        /* \"abstract/Permission.sol\":461:639  function _checkApproved() internal view {... */\n    tag_60:\n        /* \"abstract/Permission.sol\":532:540  approved */\n      0x01\n        /* \"abstract/Permission.sol\":532:554  approved[_msgSender()] */\n      0x00\n        /* \"abstract/Permission.sol\":541:553  _msgSender() */\n      tag_93\n        /* \"abstract/Permission.sol\":541:551  _msgSender */\n      tag_43\n        /* \"abstract/Permission.sol\":541:553  _msgSender() */\n      jump\t// in\n    tag_93:\n        /* \"abstract/Permission.sol\":532:554  approved[_msgSender()] */\n      0xffffffffffffffffffffffffffffffffffffffff\n      and\n      0xffffffffffffffffffffffffffffffffffffffff\n      and\n      dup2\n      mstore\n      0x20\n      add\n      swap1\n      dup2\n      mstore\n      0x20\n      add\n      0x00\n      keccak256\n      0x00\n      swap1\n      sload\n      swap1\n      0x0100\n      exp\n      swap1\n      div\n      0xff\n      and\n        /* \"abstract/Permission.sol\":532:581  approved[_msgSender()] || _msgSender() == owner() */\n      dup1\n      tag_94\n      jumpi\n      pop\n        /* \"abstract/Permission.sol\":574:581  owner() */\n      tag_95\n        /* \"abstract/Permission.sol\":574:579  owner */\n      tag_22\n        /* \"abstract/Permission.sol\":574:581  owner() */\n      jump\t// in\n    tag_95:\n        /* \"abstract/Permission.sol\":558:581  _msgSender() == owner() */\n      0xffffffffffffffffffffffffffffffffffffffff\n      and\n        /* \"abstract/Permission.sol\":558:570  _msgSender() */\n      tag_96\n        /* \"abstract/Permission.sol\":558:568  _msgSender */\n      tag_43\n        /* \"abstract/Permission.sol\":558:570  _msgSender() */\n      jump\t// in\n    tag_96:\n        /* \"abstract/Permission.sol\":558:581  _msgSender() == owner() */\n      0xffffffffffffffffffffffffffffffffffffffff\n      and\n      eq\n        /* \"abstract/Permission.sol\":532:581  approved[_msgSender()] || _msgSender() == owner() */\n    tag_94:\n        /* \"abstract/Permission.sol\":511:632  require(... */\n      tag_97\n      jumpi\n      mload(0x40)\n      0x08c379a000000000000000000000000000000000000000000000000000000000\n      dup2\n      mstore\n      0x04\n      add\n      tag_98\n      swap1\n      tag_99\n      jump\t// in\n    tag_98:\n      mload(0x40)\n      dup1\n      swap2\n      sub\n      swap1\n      revert\n    tag_97:\n        /* \"abstract/Permission.sol\":461:639  function _checkApproved() internal view {... */\n      jump\t// out\n        /* \"abstract/Ownable.sol\":2527:2714  function _transferOwnership(address newOwner) internal virtual {... */\n    tag_78:\n        /* \"abstract/Ownable.sol\":2600:2616  address oldOwner */\n      0x00\n        /* \"abstract/Ownable.sol\":2619:2625  _owner */\n      dup1\n      0x00\n      swap1\n      sload\n      swap1\n      0x0100\n      exp\n      swap1\n      div\n      0xffffffffffffffffffffffffffffffffffffffff\n      and\n        /* \"abstract/Ownable.sol\":2600:2625  address oldOwner = _owner */\n      swap1\n      pop\n        /* \"abstract/Ownable.sol\":2644:2652  newOwner */\n      dup2\n        /* \"abstract/Ownable.sol\":2635:2641  _owner */\n      0x00\n      dup1\n        /* \"abstract/Ownable.sol\":2635:2652  _owner = newOwner */\n      0x0100\n      exp\n      dup2\n      sload\n      dup2\n      0xffffffffffffffffffffffffffffffffffffffff\n      mul\n      not\n      and\n      swap1\n      dup4\n      0xffffffffffffffffffffffffffffffffffffffff\n      and\n      mul\n      or\n      swap1\n      sstore\n      pop\n        /* \"abstract/Ownable.sol\":2698:2706  newOwner */\n      dup2\n        /* \"abstract/Ownable.sol\":2667:2707  OwnershipTransferred(oldOwner, newOwner) */\n      0xffffffffffffffffffffffffffffffffffffffff\n      and\n        /* \"abstract/Ownable.sol\":2688:2696  oldOwner */\n      dup2\n        /* \"abstract/Ownable.sol\":2667:2707  OwnershipTransferred(oldOwner, newOwner) */\n      0xffffffffffffffffffffffffffffffffffffffff\n      and\n      0x8be0079c531659141344cd1fd0a4f28419497f9722a3daafe3b4186f6b6457e0\n      mload(0x40)\n      mload(0x40)\n      dup1\n      swap2\n      sub\n      swap1\n      log3\n        /* \"abstract/Ownable.sol\":2590:2714  {... */\n      pop\n        /* \"abstract/Ownable.sol\":2527:2714  function _transferOwnership(address newOwner) internal virtual {... */\n      pop\n      jump\t// out\n    tag_57:\n      mload(0x40)\n      dup1\n      0x80\n      add\n      0x40\n      mstore\n      dup1\n      0x00\n      dup2\n      mstore\n      0x20\n      add\n      0x00\n      dup2\n      mstore\n      0x20\n      add\n      0x00\n      dup2\n      mstore\n      0x20\n      add\n      0x60\n      dup2\n      mstore\n      pop\n      swap1\n      jump\t// out\n        /* \"#utility.yul\":7:82   */\n    tag_101:\n        /* \"#utility.yul\":40:46   */\n      0x00\n        /* \"#utility.yul\":73:75   */\n      0x40\n        /* \"#utility.yul\":67:76   */\n      mload\n        /* \"#utility.yul\":57:76   */\n      swap1\n      pop\n        /* \"#utility.yul\":7:82   */\n      swap1\n      jump\t// out\n        /* \"#utility.yul\":88:205   */\n    tag_102:\n        /* \"#utility.yul\":197:198   */\n      0x00\n        /* \"#utility.yul\":194:195   */\n      dup1\n        /* \"#utility.yul\":187:199   */\n      revert\n        /* \"#utility.yul\":211:328   */\n    tag_103:\n        /* \"#utility.yul\":320:321   */\n      0x00\n        /* \"#utility.yul\":317:318   */\n      dup1\n        /* \"#utility.yul\":310:322   */\n      revert\n        /* \"#utility.yul\":334:411   */\n    tag_104:\n        /* \"#utility.yul\":371:378   */\n      0x00\n        /* \"#utility.yul\":400:405   */\n      dup2\n        /* \"#utility.yul\":389:405   */\n      swap1\n      pop\n        /* \"#utility.yul\":334:411   */\n      swap2\n      swap1\n      pop\n      jump\t// out\n        /* \"#utility.yul\":417:539   */\n    tag_105:\n        /* \"#utility.yul\":490:514   */\n      tag_162\n        /* \"#utility.yul\":508:513   */\n      dup2\n        /* \"#utility.yul\":490:514   */\n      tag_104\n      jump\t// in\n    tag_162:\n        /* \"#utility.yul\":483:488   */\n      dup2\n        /* \"#utility.yul\":480:515   */\n      eq\n        /* \"#utility.yul\":470:533   */\n      tag_163\n      jumpi\n        /* \"#utility.yul\":529:530   */\n      0x00\n        /* \"#utility.yul\":526:527   */\n      dup1\n        /* \"#utility.yul\":519:531   */\n      revert\n        /* \"#utility.yul\":470:533   */\n    tag_163:\n        /* \"#utility.yul\":417:539   */\n      pop\n      jump\t// out\n        /* \"#utility.yul\":545:684   */\n    tag_106:\n        /* \"#utility.yul\":591:596   */\n      0x00\n        /* \"#utility.yul\":629:635   */\n      dup2\n        /* \"#utility.yul\":616:636   */\n      calldataload\n        /* \"#utility.yul\":607:636   */\n      swap1\n      pop\n        /* \"#utility.yul\":645:678   */\n      tag_165\n        /* \"#utility.yul\":672:677   */\n      dup2\n        /* \"#utility.yul\":645:678   */\n      tag_105\n      jump\t// in\n    tag_165:\n        /* \"#utility.yul\":545:684   */\n      swap3\n      swap2\n      pop\n      pop\n      jump\t// out\n        /* \"#utility.yul\":690:1019   */\n    tag_15:\n        /* \"#utility.yul\":749:755   */\n      0x00\n        /* \"#utility.yul\":798:800   */\n      0x20\n        /* \"#utility.yul\":786:795   */\n      dup3\n        /* \"#utility.yul\":777:784   */\n      dup5\n        /* \"#utility.yul\":773:796   */\n      sub\n        /* \"#utility.yul\":769:801   */\n      slt\n        /* \"#utility.yul\":766:885   */\n      iszero\n      tag_167\n      jumpi\n        /* \"#utility.yul\":804:883   */\n      tag_168\n      tag_102\n      jump\t// in\n    tag_168:\n        /* \"#utility.yul\":766:885   */\n    tag_167:\n        /* \"#utility.yul\":924:925   */\n      0x00\n        /* \"#utility.yul\":949:1002   */\n      tag_169\n        /* \"#utility.yul\":994:1001   */\n      dup5\n        /* \"#utility.yul\":985:991   */\n      dup3\n        /* \"#utility.yul\":974:983   */\n      dup6\n        /* \"#utility.yul\":970:992   */\n      add\n        /* \"#utility.yul\":949:1002   */\n      tag_106\n      jump\t// in\n    tag_169:\n        /* \"#utility.yul\":939:1002   */\n      swap2\n      pop\n        /* \"#utility.yul\":895:1012   */\n      pop\n        /* \"#utility.yul\":690:1019   */\n      swap3\n      swap2\n      pop\n      pop\n      jump\t// out\n        /* \"#utility.yul\":1025:1143   */\n    tag_107:\n        /* \"#utility.yul\":1112:1136   */\n      tag_171\n        /* \"#utility.yul\":1130:1135   */\n      dup2\n        /* \"#utility.yul\":1112:1136   */\n      tag_104\n      jump\t// in\n    tag_171:\n        /* \"#utility.yul\":1107:1110   */\n      dup3\n        /* \"#utility.yul\":1100:1137   */\n      mstore\n        /* \"#utility.yul\":1025:1143   */\n      pop\n      pop\n      jump\t// out\n        /* \"#utility.yul\":1149:1248   */\n    tag_108:\n        /* \"#utility.yul\":1201:1207   */\n      0x00\n        /* \"#utility.yul\":1235:1240   */\n      dup2\n        /* \"#utility.yul\":1229:1241   */\n      mload\n        /* \"#utility.yul\":1219:1241   */\n      swap1\n      pop\n        /* \"#utility.yul\":1149:1248   */\n      swap2\n      swap1\n      pop\n      jump\t// out\n        /* \"#utility.yul\":1254:1423   */\n    tag_109:\n        /* \"#utility.yul\":1338:1349   */\n      0x00\n        /* \"#utility.yul\":1372:1378   */\n      dup3\n        /* \"#utility.yul\":1367:1370   */\n      dup3\n        /* \"#utility.yul\":1360:1379   */\n      mstore\n        /* \"#utility.yul\":1412:1416   */\n      0x20\n        /* \"#utility.yul\":1407:1410   */\n      dup3\n        /* \"#utility.yul\":1403:1417   */\n      add\n        /* \"#utility.yul\":1388:1417   */\n      swap1\n      pop\n        /* \"#utility.yul\":1254:1423   */\n      swap3\n      swap2\n      pop\n      pop\n      jump\t// out\n        /* \"#utility.yul\":1429:1675   */\n    tag_110:\n        /* \"#utility.yul\":1510:1511   */\n      0x00\n        /* \"#utility.yul\":1520:1633   */\n    tag_175:\n        /* \"#utility.yul\":1534:1540   */\n      dup4\n        /* \"#utility.yul\":1531:1532   */\n      dup2\n        /* \"#utility.yul\":1528:1541   */\n      lt\n        /* \"#utility.yul\":1520:1633   */\n      iszero\n      tag_177\n      jumpi\n        /* \"#utility.yul\":1619:1620   */\n      dup1\n        /* \"#utility.yul\":1614:1617   */\n      dup3\n        /* \"#utility.yul\":1610:1621   */\n      add\n        /* \"#utility.yul\":1604:1622   */\n      mload\n        /* \"#utility.yul\":1600:1601   */\n      dup2\n        /* \"#utility.yul\":1595:1598   */\n      dup5\n        /* \"#utility.yul\":1591:1602   */\n      add\n        /* \"#utility.yul\":1584:1623   */\n      mstore\n        /* \"#utility.yul\":1556:1558   */\n      0x20\n        /* \"#utility.yul\":1553:1554   */\n      dup2\n        /* \"#utility.yul\":1549:1559   */\n      add\n        /* \"#utility.yul\":1544:1559   */\n      swap1\n      pop\n        /* \"#utility.yul\":1520:1633   */\n      jump(tag_175)\n    tag_177:\n        /* \"#utility.yul\":1667:1668   */\n      0x00\n        /* \"#utility.yul\":1658:1664   */\n      dup5\n        /* \"#utility.yul\":1653:1656   */\n      dup5\n        /* \"#utility.yul\":1649:1665   */\n      add\n        /* \"#utility.yul\":1642:1669   */\n      mstore\n        /* \"#utility.yul\":1491:1675   */\n      pop\n        /* \"#utility.yul\":1429:1675   */\n      pop\n      pop\n      pop\n      jump\t// out\n        /* \"#utility.yul\":1681:1783   */\n    tag_111:\n        /* \"#utility.yul\":1722:1728   */\n      0x00\n        /* \"#utility.yul\":1773:1775   */\n      0x1f\n        /* \"#utility.yul\":1769:1776   */\n      not\n        /* \"#utility.yul\":1764:1766   */\n      0x1f\n        /* \"#utility.yul\":1757:1762   */\n      dup4\n        /* \"#utility.yul\":1753:1767   */\n      add\n        /* \"#utility.yul\":1749:1777   */\n      and\n        /* \"#utility.yul\":1739:1777   */\n      swap1\n      pop\n        /* \"#utility.yul\":1681:1783   */\n      swap2\n      swap1\n      pop\n      jump\t// out\n        /* \"#utility.yul\":1789:2166   */\n    tag_112:\n        /* \"#utility.yul\":1877:1880   */\n      0x00\n        /* \"#utility.yul\":1905:1944   */\n      tag_180\n        /* \"#utility.yul\":1938:1943   */\n      dup3\n        /* \"#utility.yul\":1905:1944   */\n      tag_108\n      jump\t// in\n    tag_180:\n        /* \"#utility.yul\":1960:2031   */\n      tag_181\n        /* \"#utility.yul\":2024:2030   */\n      dup2\n        /* \"#utility.yul\":2019:2022   */\n      dup6\n        /* \"#utility.yul\":1960:2031   */\n      tag_109\n      jump\t// in\n    tag_181:\n        /* \"#utility.yul\":1953:2031   */\n      swap4\n      pop\n        /* \"#utility.yul\":2040:2105   */\n      tag_182\n        /* \"#utility.yul\":2098:2104   */\n      dup2\n        /* \"#utility.yul\":2093:2096   */\n      dup6\n        /* \"#utility.yul\":2086:2090   */\n      0x20\n        /* \"#utility.yul\":2079:2084   */\n      dup7\n        /* \"#utility.yul\":2075:2091   */\n      add\n        /* \"#utility.yul\":2040:2105   */\n      tag_110\n      jump\t// in\n    tag_182:\n        /* \"#utility.yul\":2130:2159   */\n      tag_183\n        /* \"#utility.yul\":2152:2158   */\n      dup2\n        /* \"#utility.yul\":2130:2159   */\n      tag_111\n      jump\t// in\n    tag_183:\n        /* \"#utility.yul\":2125:2128   */\n      dup5\n        /* \"#utility.yul\":2121:2160   */\n      add\n        /* \"#utility.yul\":2114:2160   */\n      swap2\n      pop\n        /* \"#utility.yul\":1881:2166   */\n      pop\n        /* \"#utility.yul\":1789:2166   */\n      swap3\n      swap2\n      pop\n      pop\n      jump\t// out\n        /* \"#utility.yul\":2172:2816   */\n    tag_18:\n        /* \"#utility.yul\":2369:2373   */\n      0x00\n        /* \"#utility.yul\":2407:2410   */\n      0x80\n        /* \"#utility.yul\":2396:2405   */\n      dup3\n        /* \"#utility.yul\":2392:2411   */\n      add\n        /* \"#utility.yul\":2384:2411   */\n      swap1\n      pop\n        /* \"#utility.yul\":2421:2492   */\n      tag_185\n        /* \"#utility.yul\":2489:2490   */\n      0x00\n        /* \"#utility.yul\":2478:2487   */\n      dup4\n        /* \"#utility.yul\":2474:2491   */\n      add\n        /* \"#utility.yul\":2465:2471   */\n      dup8\n        /* \"#utility.yul\":2421:2492   */\n      tag_107\n      jump\t// in\n    tag_185:\n        /* \"#utility.yul\":2502:2574   */\n      tag_186\n        /* \"#utility.yul\":2570:2572   */\n      0x20\n        /* \"#utility.yul\":2559:2568   */\n      dup4\n        /* \"#utility.yul\":2555:2573   */\n      add\n        /* \"#utility.yul\":2546:2552   */\n      dup7\n        /* \"#utility.yul\":2502:2574   */\n      tag_107\n      jump\t// in\n    tag_186:\n        /* \"#utility.yul\":2584:2656   */\n      tag_187\n        /* \"#utility.yul\":2652:2654   */\n      0x40\n        /* \"#utility.yul\":2641:2650   */\n      dup4\n        /* \"#utility.yul\":2637:2655   */\n      add\n        /* \"#utility.yul\":2628:2634   */\n      dup6\n        /* \"#utility.yul\":2584:2656   */\n      tag_107\n      jump\t// in\n    tag_187:\n        /* \"#utility.yul\":2703:2712   */\n      dup2\n        /* \"#utility.yul\":2697:2701   */\n      dup2\n        /* \"#utility.yul\":2693:2713   */\n      sub\n        /* \"#utility.yul\":2688:2690   */\n      0x60\n        /* \"#utility.yul\":2677:2686   */\n      dup4\n        /* \"#utility.yul\":2673:2691   */\n      add\n        /* \"#utility.yul\":2666:2714   */\n      mstore\n        /* \"#utility.yul\":2731:2809   */\n      tag_188\n        /* \"#utility.yul\":2804:2808   */\n      dup2\n        /* \"#utility.yul\":2795:2801   */\n      dup5\n        /* \"#utility.yul\":2731:2809   */\n      tag_112\n      jump\t// in\n    tag_188:\n        /* \"#utility.yul\":2723:2809   */\n      swap1\n      pop\n        /* \"#utility.yul\":2172:2816   */\n      swap6\n      swap5\n      pop\n      pop\n      pop\n      pop\n      pop\n      jump\t// out\n        /* \"#utility.yul\":2822:2948   */\n    tag_113:\n        /* \"#utility.yul\":2859:2866   */\n      0x00\n        /* \"#utility.yul\":2899:2941   */\n      0xffffffffffffffffffffffffffffffffffffffff\n        /* \"#utility.yul\":2892:2897   */\n      dup3\n        /* \"#utility.yul\":2888:2942   */\n      and\n        /* \"#utility.yul\":2877:2942   */\n      swap1\n      pop\n        /* \"#utility.yul\":2822:2948   */\n      swap2\n      swap1\n      pop\n      jump\t// out\n        /* \"#utility.yul\":2954:3050   */\n    tag_114:\n        /* \"#utility.yul\":2991:2998   */\n      0x00\n        /* \"#utility.yul\":3020:3044   */\n      tag_191\n        /* \"#utility.yul\":3038:3043   */\n      dup3\n        /* \"#utility.yul\":3020:3044   */\n      tag_113\n      jump\t// in\n    tag_191:\n        /* \"#utility.yul\":3009:3044   */\n      swap1\n      pop\n        /* \"#utility.yul\":2954:3050   */\n      swap2\n      swap1\n      pop\n      jump\t// out\n        /* \"#utility.yul\":3056:3174   */\n    tag_115:\n        /* \"#utility.yul\":3143:3167   */\n      tag_193\n        /* \"#utility.yul\":3161:3166   */\n      dup2\n        /* \"#utility.yul\":3143:3167   */\n      tag_114\n      jump\t// in\n    tag_193:\n        /* \"#utility.yul\":3138:3141   */\n      dup3\n        /* \"#utility.yul\":3131:3168   */\n      mstore\n        /* \"#utility.yul\":3056:3174   */\n      pop\n      pop\n      jump\t// out\n        /* \"#utility.yul\":3180:3402   */\n    tag_24:\n        /* \"#utility.yul\":3273:3277   */\n      0x00\n        /* \"#utility.yul\":3311:3313   */\n      0x20\n        /* \"#utility.yul\":3300:3309   */\n      dup3\n        /* \"#utility.yul\":3296:3314   */\n      add\n        /* \"#utility.yul\":3288:3314   */\n      swap1\n      pop\n        /* \"#utility.yul\":3324:3395   */\n      tag_195\n        /* \"#utility.yul\":3392:3393   */\n      0x00\n        /* \"#utility.yul\":3381:3390   */\n      dup4\n        /* \"#utility.yul\":3377:3394   */\n      add\n        /* \"#utility.yul\":3368:3374   */\n      dup5\n        /* \"#utility.yul\":3324:3395   */\n      tag_115\n      jump\t// in\n    tag_195:\n        /* \"#utility.yul\":3180:3402   */\n      swap3\n      swap2\n      pop\n      pop\n      jump\t// out\n        /* \"#utility.yul\":3408:3516   */\n    tag_116:\n        /* \"#utility.yul\":3485:3509   */\n      tag_197\n        /* \"#utility.yul\":3503:3508   */\n      dup2\n        /* \"#utility.yul\":3485:3509   */\n      tag_104\n      jump\t// in\n    tag_197:\n        /* \"#utility.yul\":3480:3483   */\n      dup3\n        /* \"#utility.yul\":3473:3510   */\n      mstore\n        /* \"#utility.yul\":3408:3516   */\n      pop\n      pop\n      jump\t// out\n        /* \"#utility.yul\":3522:3681   */\n    tag_117:\n        /* \"#utility.yul\":3596:3607   */\n      0x00\n        /* \"#utility.yul\":3630:3636   */\n      dup3\n        /* \"#utility.yul\":3625:3628   */\n      dup3\n        /* \"#utility.yul\":3618:3637   */\n      mstore\n        /* \"#utility.yul\":3670:3674   */\n      0x20\n        /* \"#utility.yul\":3665:3668   */\n      dup3\n        /* \"#utility.yul\":3661:3675   */\n      add\n        /* \"#utility.yul\":3646:3675   */\n      swap1\n      pop\n        /* \"#utility.yul\":3522:3681   */\n      swap3\n      swap2\n      pop\n      pop\n      jump\t// out\n        /* \"#utility.yul\":3687:4044   */\n    tag_118:\n        /* \"#utility.yul\":3765:3768   */\n      0x00\n        /* \"#utility.yul\":3793:3832   */\n      tag_200\n        /* \"#utility.yul\":3826:3831   */\n      dup3\n        /* \"#utility.yul\":3793:3832   */\n      tag_108\n      jump\t// in\n    tag_200:\n        /* \"#utility.yul\":3848:3909   */\n      tag_201\n        /* \"#utility.yul\":3902:3908   */\n      dup2\n        /* \"#utility.yul\":3897:3900   */\n      dup6\n        /* \"#utility.yul\":3848:3909   */\n      tag_117\n      jump\t// in\n    tag_201:\n        /* \"#utility.yul\":3841:3909   */\n      swap4\n      pop\n        /* \"#utility.yul\":3918:3983   */\n      tag_202\n        /* \"#utility.yul\":3976:3982   */\n      dup2\n        /* \"#utility.yul\":3971:3974   */\n      dup6\n        /* \"#utility.yul\":3964:3968   */\n      0x20\n        /* \"#utility.yul\":3957:3962   */\n      dup7\n        /* \"#utility.yul\":3953:3969   */\n      add\n        /* \"#utility.yul\":3918:3983   */\n      tag_110\n      jump\t// in\n    tag_202:\n        /* \"#utility.yul\":4008:4037   */\n      tag_203\n        /* \"#utility.yul\":4030:4036   */\n      dup2\n        /* \"#utility.yul\":4008:4037   */\n      tag_111\n      jump\t// in\n    tag_203:\n        /* \"#utility.yul\":4003:4006   */\n      dup5\n        /* \"#utility.yul\":3999:4038   */\n      add\n        /* \"#utility.yul\":3992:4038   */\n      swap2\n      pop\n        /* \"#utility.yul\":3769:4044   */\n      pop\n        /* \"#utility.yul\":3687:4044   */\n      swap3\n      swap2\n      pop\n      pop\n      jump\t// out\n        /* \"#utility.yul\":4096:5058   */\n    tag_119:\n        /* \"#utility.yul\":4219:4222   */\n      0x00\n        /* \"#utility.yul\":4255:4259   */\n      0x80\n        /* \"#utility.yul\":4250:4253   */\n      dup4\n        /* \"#utility.yul\":4246:4260   */\n      add\n        /* \"#utility.yul\":4340:4344   */\n      0x00\n        /* \"#utility.yul\":4333:4338   */\n      dup4\n        /* \"#utility.yul\":4329:4345   */\n      add\n        /* \"#utility.yul\":4323:4346   */\n      mload\n        /* \"#utility.yul\":4359:4422   */\n      tag_205\n        /* \"#utility.yul\":4416:4420   */\n      0x00\n        /* \"#utility.yul\":4411:4414   */\n      dup7\n        /* \"#utility.yul\":4407:4421   */\n      add\n        /* \"#utility.yul\":4393:4405   */\n      dup3\n        /* \"#utility.yul\":4359:4422   */\n      tag_116\n      jump\t// in\n    tag_205:\n        /* \"#utility.yul\":4270:4432   */\n      pop\n        /* \"#utility.yul\":4520:4524   */\n      0x20\n        /* \"#utility.yul\":4513:4518   */\n      dup4\n        /* \"#utility.yul\":4509:4525   */\n      add\n        /* \"#utility.yul\":4503:4526   */\n      mload\n        /* \"#utility.yul\":4539:4602   */\n      tag_206\n        /* \"#utility.yul\":4596:4600   */\n      0x20\n        /* \"#utility.yul\":4591:4594   */\n      dup7\n        /* \"#utility.yul\":4587:4601   */\n      add\n        /* \"#utility.yul\":4573:4585   */\n      dup3\n        /* \"#utility.yul\":4539:4602   */\n      tag_116\n      jump\t// in\n    tag_206:\n        /* \"#utility.yul\":4442:4612   */\n      pop\n        /* \"#utility.yul\":4694:4698   */\n      0x40\n        /* \"#utility.yul\":4687:4692   */\n      dup4\n        /* \"#utility.yul\":4683:4699   */\n      add\n        /* \"#utility.yul\":4677:4700   */\n      mload\n        /* \"#utility.yul\":4713:4776   */\n      tag_207\n        /* \"#utility.yul\":4770:4774   */\n      0x40\n        /* \"#utility.yul\":4765:4768   */\n      dup7\n        /* \"#utility.yul\":4761:4775   */\n      add\n        /* \"#utility.yul\":4747:4759   */\n      dup3\n        /* \"#utility.yul\":4713:4776   */\n      tag_116\n      jump\t// in\n    tag_207:\n        /* \"#utility.yul\":4622:4786   */\n      pop\n        /* \"#utility.yul\":4868:4872   */\n      0x60\n        /* \"#utility.yul\":4861:4866   */\n      dup4\n        /* \"#utility.yul\":4857:4873   */\n      add\n        /* \"#utility.yul\":4851:4874   */\n      mload\n        /* \"#utility.yul\":4921:4924   */\n      dup5\n        /* \"#utility.yul\":4915:4919   */\n      dup3\n        /* \"#utility.yul\":4911:4925   */\n      sub\n        /* \"#utility.yul\":4904:4908   */\n      0x60\n        /* \"#utility.yul\":4899:4902   */\n      dup7\n        /* \"#utility.yul\":4895:4909   */\n      add\n        /* \"#utility.yul\":4888:4926   */\n      mstore\n        /* \"#utility.yul\":4947:5020   */\n      tag_208\n        /* \"#utility.yul\":5015:5019   */\n      dup3\n        /* \"#utility.yul\":5001:5013   */\n      dup3\n        /* \"#utility.yul\":4947:5020   */\n      tag_118\n      jump\t// in\n    tag_208:\n        /* \"#utility.yul\":4939:5020   */\n      swap2\n      pop\n        /* \"#utility.yul\":4796:5031   */\n      pop\n        /* \"#utility.yul\":5048:5052   */\n      dup1\n        /* \"#utility.yul\":5041:5052   */\n      swap2\n      pop\n        /* \"#utility.yul\":4224:5058   */\n      pop\n        /* \"#utility.yul\":4096:5058   */\n      swap3\n      swap2\n      pop\n      pop\n      jump\t// out\n        /* \"#utility.yul\":5064:5445   */\n    tag_29:\n        /* \"#utility.yul\":5211:5215   */\n      0x00\n        /* \"#utility.yul\":5249:5251   */\n      0x20\n        /* \"#utility.yul\":5238:5247   */\n      dup3\n        /* \"#utility.yul\":5234:5252   */\n      add\n        /* \"#utility.yul\":5226:5252   */\n      swap1\n      pop\n        /* \"#utility.yul\":5298:5307   */\n      dup2\n        /* \"#utility.yul\":5292:5296   */\n      dup2\n        /* \"#utility.yul\":5288:5308   */\n      sub\n        /* \"#utility.yul\":5284:5285   */\n      0x00\n        /* \"#utility.yul\":5273:5282   */\n      dup4\n        /* \"#utility.yul\":5269:5286   */\n      add\n        /* \"#utility.yul\":5262:5309   */\n      mstore\n        /* \"#utility.yul\":5326:5438   */\n      tag_210\n        /* \"#utility.yul\":5433:5437   */\n      dup2\n        /* \"#utility.yul\":5424:5430   */\n      dup5\n        /* \"#utility.yul\":5326:5438   */\n      tag_119\n      jump\t// in\n    tag_210:\n        /* \"#utility.yul\":5318:5438   */\n      swap1\n      pop\n        /* \"#utility.yul\":5064:5445   */\n      swap3\n      swap2\n      pop\n      pop\n      jump\t// out\n        /* \"#utility.yul\":5451:5573   */\n    tag_120:\n        /* \"#utility.yul\":5524:5548   */\n      tag_212\n        /* \"#utility.yul\":5542:5547   */\n      dup2\n        /* \"#utility.yul\":5524:5548   */\n      tag_114\n      jump\t// in\n    tag_212:\n        /* \"#utility.yul\":5517:5522   */\n      dup2\n        /* \"#utility.yul\":5514:5549   */\n      eq\n        /* \"#utility.yul\":5504:5567   */\n      tag_213\n      jumpi\n        /* \"#utility.yul\":5563:5564   */\n      0x00\n        /* \"#utility.yul\":5560:5561   */\n      dup1\n        /* \"#utility.yul\":5553:5565   */\n      revert\n        /* \"#utility.yul\":5504:5567   */\n    tag_213:\n        /* \"#utility.yul\":5451:5573   */\n      pop\n      jump\t// out\n        /* \"#utility.yul\":5579:5718   */\n    tag_121:\n        /* \"#utility.yul\":5625:5630   */\n      0x00\n        /* \"#utility.yul\":5663:5669   */\n      dup2\n        /* \"#utility.yul\":5650:5670   */\n      calldataload\n        /* \"#utility.yul\":5641:5670   */\n      swap1\n      pop\n        /* \"#utility.yul\":5679:5712   */\n      tag_215\n        /* \"#utility.yul\":5706:5711   */\n      dup2\n        /* \"#utility.yul\":5679:5712   */\n      tag_120\n      jump\t// in\n    tag_215:\n        /* \"#utility.yul\":5579:5718   */\n      swap3\n      swap2\n      pop\n      pop\n      jump\t// out\n        /* \"#utility.yul\":5724:6053   */\n    tag_32:\n        /* \"#utility.yul\":5783:5789   */\n      0x00\n        /* \"#utility.yul\":5832:5834   */\n      0x20\n        /* \"#utility.yul\":5820:5829   */\n      dup3\n        /* \"#utility.yul\":5811:5818   */\n      dup5\n        /* \"#utility.yul\":5807:5830   */\n      sub\n        /* \"#utility.yul\":5803:5835   */\n      slt\n        /* \"#utility.yul\":5800:5919   */\n      iszero\n      tag_217\n      jumpi\n        /* \"#utility.yul\":5838:5917   */\n      tag_218\n      tag_102\n      jump\t// in\n    tag_218:\n        /* \"#utility.yul\":5800:5919   */\n    tag_217:\n        /* \"#utility.yul\":5958:5959   */\n      0x00\n        /* \"#utility.yul\":5983:6036   */\n      tag_219\n        /* \"#utility.yul\":6028:6035   */\n      dup5\n        /* \"#utility.yul\":6019:6025   */\n      dup3\n        /* \"#utility.yul\":6008:6017   */\n      dup6\n        /* \"#utility.yul\":6004:6026   */\n      add\n        /* \"#utility.yul\":5983:6036   */\n      tag_121\n      jump\t// in\n    tag_219:\n        /* \"#utility.yul\":5973:6036   */\n      swap2\n      pop\n        /* \"#utility.yul\":5929:6046   */\n      pop\n        /* \"#utility.yul\":5724:6053   */\n      swap3\n      swap2\n      pop\n      pop\n      jump\t// out\n        /* \"#utility.yul\":6059:6176   */\n    tag_122:\n        /* \"#utility.yul\":6168:6169   */\n      0x00\n        /* \"#utility.yul\":6165:6166   */\n      dup1\n        /* \"#utility.yul\":6158:6170   */\n      revert\n        /* \"#utility.yul\":6182:6362   */\n    tag_123:\n        /* \"#utility.yul\":6230:6307   */\n      0x4e487b7100000000000000000000000000000000000000000000000000000000\n        /* \"#utility.yul\":6227:6228   */\n      0x00\n        /* \"#utility.yul\":6220:6308   */\n      mstore\n        /* \"#utility.yul\":6327:6331   */\n      0x41\n        /* \"#utility.yul\":6324:6325   */\n      0x04\n        /* \"#utility.yul\":6317:6332   */\n      mstore\n        /* \"#utility.yul\":6351:6355   */\n      0x24\n        /* \"#utility.yul\":6348:6349   */\n      0x00\n        /* \"#utility.yul\":6341:6356   */\n      revert\n        /* \"#utility.yul\":6368:6649   */\n    tag_124:\n        /* \"#utility.yul\":6451:6478   */\n      tag_223\n        /* \"#utility.yul\":6473:6477   */\n      dup3\n        /* \"#utility.yul\":6451:6478   */\n      tag_111\n      jump\t// in\n    tag_223:\n        /* \"#utility.yul\":6443:6449   */\n      dup2\n        /* \"#utility.yul\":6439:6479   */\n      add\n        /* \"#utility.yul\":6581:6587   */\n      dup2\n        /* \"#utility.yul\":6569:6579   */\n      dup2\n        /* \"#utility.yul\":6566:6588   */\n      lt\n        /* \"#utility.yul\":6545:6563   */\n      0xffffffffffffffff\n        /* \"#utility.yul\":6533:6543   */\n      dup3\n        /* \"#utility.yul\":6530:6564   */\n      gt\n        /* \"#utility.yul\":6527:6589   */\n      or\n        /* \"#utility.yul\":6524:6612   */\n      iszero\n      tag_224\n      jumpi\n        /* \"#utility.yul\":6592:6610   */\n      tag_225\n      tag_123\n      jump\t// in\n    tag_225:\n        /* \"#utility.yul\":6524:6612   */\n    tag_224:\n        /* \"#utility.yul\":6632:6642   */\n      dup1\n        /* \"#utility.yul\":6628:6630   */\n      0x40\n        /* \"#utility.yul\":6621:6643   */\n      mstore\n        /* \"#utility.yul\":6411:6649   */\n      pop\n        /* \"#utility.yul\":6368:6649   */\n      pop\n      pop\n      jump\t// out\n        /* \"#utility.yul\":6655:6784   */\n    tag_125:\n        /* \"#utility.yul\":6689:6695   */\n      0x00\n        /* \"#utility.yul\":6716:6736   */\n      tag_227\n      tag_101\n      jump\t// in\n    tag_227:\n        /* \"#utility.yul\":6706:6736   */\n      swap1\n      pop\n        /* \"#utility.yul\":6745:6778   */\n      tag_228\n        /* \"#utility.yul\":6773:6777   */\n      dup3\n        /* \"#utility.yul\":6765:6771   */\n      dup3\n        /* \"#utility.yul\":6745:6778   */\n      tag_124\n      jump\t// in\n    tag_228:\n        /* \"#utility.yul\":6655:6784   */\n      swap2\n      swap1\n      pop\n      jump\t// out\n        /* \"#utility.yul\":6790:6907   */\n    tag_126:\n        /* \"#utility.yul\":6899:6900   */\n      0x00\n        /* \"#utility.yul\":6896:6897   */\n      dup1\n        /* \"#utility.yul\":6889:6901   */\n      revert\n        /* \"#utility.yul\":6913:7030   */\n    tag_127:\n        /* \"#utility.yul\":7022:7023   */\n      0x00\n        /* \"#utility.yul\":7019:7020   */\n      dup1\n        /* \"#utility.yul\":7012:7024   */\n      revert\n        /* \"#utility.yul\":7036:7153   */\n    tag_128:\n        /* \"#utility.yul\":7145:7146   */\n      0x00\n        /* \"#utility.yul\":7142:7143   */\n      dup1\n        /* \"#utility.yul\":7135:7147   */\n      revert\n        /* \"#utility.yul\":7159:7467   */\n    tag_129:\n        /* \"#utility.yul\":7221:7225   */\n      0x00\n        /* \"#utility.yul\":7311:7329   */\n      0xffffffffffffffff\n        /* \"#utility.yul\":7303:7309   */\n      dup3\n        /* \"#utility.yul\":7300:7330   */\n      gt\n        /* \"#utility.yul\":7297:7353   */\n      iszero\n      tag_233\n      jumpi\n        /* \"#utility.yul\":7333:7351   */\n      tag_234\n      tag_123\n      jump\t// in\n    tag_234:\n        /* \"#utility.yul\":7297:7353   */\n    tag_233:\n        /* \"#utility.yul\":7371:7400   */\n      tag_235\n        /* \"#utility.yul\":7393:7399   */\n      dup3\n        /* \"#utility.yul\":7371:7400   */\n      tag_111\n      jump\t// in\n    tag_235:\n        /* \"#utility.yul\":7363:7400   */\n      swap1\n      pop\n        /* \"#utility.yul\":7455:7459   */\n      0x20\n        /* \"#utility.yul\":7449:7453   */\n      dup2\n        /* \"#utility.yul\":7445:7460   */\n      add\n        /* \"#utility.yul\":7437:7460   */\n      swap1\n      pop\n        /* \"#utility.yul\":7159:7467   */\n      swap2\n      swap1\n      pop\n      jump\t// out\n        /* \"#utility.yul\":7473:7619   */\n    tag_130:\n        /* \"#utility.yul\":7570:7576   */\n      dup3\n        /* \"#utility.yul\":7565:7568   */\n      dup2\n        /* \"#utility.yul\":7560:7563   */\n      dup4\n        /* \"#utility.yul\":7547:7577   */\n      calldatacopy\n        /* \"#utility.yul\":7611:7612   */\n      0x00\n        /* \"#utility.yul\":7602:7608   */\n      dup4\n        /* \"#utility.yul\":7597:7600   */\n      dup4\n        /* \"#utility.yul\":7593:7609   */\n      add\n        /* \"#utility.yul\":7586:7613   */\n      mstore\n        /* \"#utility.yul\":7473:7619   */\n      pop\n      pop\n      pop\n      jump\t// out\n        /* \"#utility.yul\":7625:8050   */\n    tag_131:\n        /* \"#utility.yul\":7703:7708   */\n      0x00\n        /* \"#utility.yul\":7728:7794   */\n      tag_238\n        /* \"#utility.yul\":7744:7793   */\n      tag_239\n        /* \"#utility.yul\":7786:7792   */\n      dup5\n        /* \"#utility.yul\":7744:7793   */\n      tag_129\n      jump\t// in\n    tag_239:\n        /* \"#utility.yul\":7728:7794   */\n      tag_125\n      jump\t// in\n    tag_238:\n        /* \"#utility.yul\":7719:7794   */\n      swap1\n      pop\n        /* \"#utility.yul\":7817:7823   */\n      dup3\n        /* \"#utility.yul\":7810:7815   */\n      dup2\n        /* \"#utility.yul\":7803:7824   */\n      mstore\n        /* \"#utility.yul\":7855:7859   */\n      0x20\n        /* \"#utility.yul\":7848:7853   */\n      dup2\n        /* \"#utility.yul\":7844:7860   */\n      add\n        /* \"#utility.yul\":7893:7896   */\n      dup5\n        /* \"#utility.yul\":7884:7890   */\n      dup5\n        /* \"#utility.yul\":7879:7882   */\n      dup5\n        /* \"#utility.yul\":7875:7891   */\n      add\n        /* \"#utility.yul\":7872:7897   */\n      gt\n        /* \"#utility.yul\":7869:7981   */\n      iszero\n      tag_240\n      jumpi\n        /* \"#utility.yul\":7900:7979   */\n      tag_241\n      tag_128\n      jump\t// in\n    tag_241:\n        /* \"#utility.yul\":7869:7981   */\n    tag_240:\n        /* \"#utility.yul\":7990:8044   */\n      tag_242\n        /* \"#utility.yul\":8037:8043   */\n      dup5\n        /* \"#utility.yul\":8032:8035   */\n      dup3\n        /* \"#utility.yul\":8027:8030   */\n      dup6\n        /* \"#utility.yul\":7990:8044   */\n      tag_130\n      jump\t// in\n    tag_242:\n        /* \"#utility.yul\":7709:8050   */\n      pop\n        /* \"#utility.yul\":7625:8050   */\n      swap4\n      swap3\n      pop\n      pop\n      pop\n      jump\t// out\n        /* \"#utility.yul\":8070:8410   */\n    tag_132:\n        /* \"#utility.yul\":8126:8131   */\n      0x00\n        /* \"#utility.yul\":8175:8178   */\n      dup3\n        /* \"#utility.yul\":8168:8172   */\n      0x1f\n        /* \"#utility.yul\":8160:8166   */\n      dup4\n        /* \"#utility.yul\":8156:8173   */\n      add\n        /* \"#utility.yul\":8152:8179   */\n      slt\n        /* \"#utility.yul\":8142:8264   */\n      tag_244\n      jumpi\n        /* \"#utility.yul\":8183:8262   */\n      tag_245\n      tag_127\n      jump\t// in\n    tag_245:\n        /* \"#utility.yul\":8142:8264   */\n    tag_244:\n        /* \"#utility.yul\":8300:8306   */\n      dup2\n        /* \"#utility.yul\":8287:8307   */\n      calldataload\n        /* \"#utility.yul\":8325:8404   */\n      tag_246\n        /* \"#utility.yul\":8400:8403   */\n      dup5\n        /* \"#utility.yul\":8392:8398   */\n      dup3\n        /* \"#utility.yul\":8385:8389   */\n      0x20\n        /* \"#utility.yul\":8377:8383   */\n      dup7\n        /* \"#utility.yul\":8373:8390   */\n      add\n        /* \"#utility.yul\":8325:8404   */\n      tag_131\n      jump\t// in\n    tag_246:\n        /* \"#utility.yul\":8316:8404   */\n      swap2\n      pop\n        /* \"#utility.yul\":8132:8410   */\n      pop\n        /* \"#utility.yul\":8070:8410   */\n      swap3\n      swap2\n      pop\n      pop\n      jump\t// out\n        /* \"#utility.yul\":8441:9513   */\n    tag_133:\n        /* \"#utility.yul\":8517:8522   */\n      0x00\n        /* \"#utility.yul\":8561:8565   */\n      0x80\n        /* \"#utility.yul\":8549:8558   */\n      dup3\n        /* \"#utility.yul\":8544:8547   */\n      dup5\n        /* \"#utility.yul\":8540:8559   */\n      sub\n        /* \"#utility.yul\":8536:8566   */\n      slt\n        /* \"#utility.yul\":8533:8650   */\n      iszero\n      tag_248\n      jumpi\n        /* \"#utility.yul\":8569:8648   */\n      tag_249\n      tag_122\n      jump\t// in\n    tag_249:\n        /* \"#utility.yul\":8533:8650   */\n    tag_248:\n        /* \"#utility.yul\":8668:8689   */\n      tag_250\n        /* \"#utility.yul\":8684:8688   */\n      0x80\n        /* \"#utility.yul\":8668:8689   */\n      tag_125\n      jump\t// in\n    tag_250:\n        /* \"#utility.yul\":8659:8689   */\n      swap1\n      pop\n        /* \"#utility.yul\":8746:8747   */\n      0x00\n        /* \"#utility.yul\":8786:8835   */\n      tag_251\n        /* \"#utility.yul\":8831:8834   */\n      dup5\n        /* \"#utility.yul\":8822:8828   */\n      dup3\n        /* \"#utility.yul\":8811:8820   */\n      dup6\n        /* \"#utility.yul\":8807:8829   */\n      add\n        /* \"#utility.yul\":8786:8835   */\n      tag_106\n      jump\t// in\n    tag_251:\n        /* \"#utility.yul\":8779:8783   */\n      0x00\n        /* \"#utility.yul\":8772:8777   */\n      dup4\n        /* \"#utility.yul\":8768:8784   */\n      add\n        /* \"#utility.yul\":8761:8836   */\n      mstore\n        /* \"#utility.yul\":8699:8847   */\n      pop\n        /* \"#utility.yul\":8912:8914   */\n      0x20\n        /* \"#utility.yul\":8953:9002   */\n      tag_252\n        /* \"#utility.yul\":8998:9001   */\n      dup5\n        /* \"#utility.yul\":8989:8995   */\n      dup3\n        /* \"#utility.yul\":8978:8987   */\n      dup6\n        /* \"#utility.yul\":8974:8996   */\n      add\n        /* \"#utility.yul\":8953:9002   */\n      tag_106\n      jump\t// in\n    tag_252:\n        /* \"#utility.yul\":8946:8950   */\n      0x20\n        /* \"#utility.yul\":8939:8944   */\n      dup4\n        /* \"#utility.yul\":8935:8951   */\n      add\n        /* \"#utility.yul\":8928:9003   */\n      mstore\n        /* \"#utility.yul\":8857:9014   */\n      pop\n        /* \"#utility.yul\":9073:9075   */\n      0x40\n        /* \"#utility.yul\":9114:9163   */\n      tag_253\n        /* \"#utility.yul\":9159:9162   */\n      dup5\n        /* \"#utility.yul\":9150:9156   */\n      dup3\n        /* \"#utility.yul\":9139:9148   */\n      dup6\n        /* \"#utility.yul\":9135:9157   */\n      add\n        /* \"#utility.yul\":9114:9163   */\n      tag_106\n      jump\t// in\n    tag_253:\n        /* \"#utility.yul\":9107:9111   */\n      0x40\n        /* \"#utility.yul\":9100:9105   */\n      dup4\n        /* \"#utility.yul\":9096:9112   */\n      add\n        /* \"#utility.yul\":9089:9164   */\n      mstore\n        /* \"#utility.yul\":9024:9175   */\n      pop\n        /* \"#utility.yul\":9262:9264   */\n      0x60\n        /* \"#utility.yul\":9251:9260   */\n      dup3\n        /* \"#utility.yul\":9247:9265   */\n      add\n        /* \"#utility.yul\":9234:9266   */\n      calldataload\n        /* \"#utility.yul\":9293:9311   */\n      0xffffffffffffffff\n        /* \"#utility.yul\":9285:9291   */\n      dup2\n        /* \"#utility.yul\":9282:9312   */\n      gt\n        /* \"#utility.yul\":9279:9396   */\n      iszero\n      tag_254\n      jumpi\n        /* \"#utility.yul\":9315:9394   */\n      tag_255\n      tag_126\n      jump\t// in\n    tag_255:\n        /* \"#utility.yul\":9279:9396   */\n    tag_254:\n        /* \"#utility.yul\":9435:9494   */\n      tag_256\n        /* \"#utility.yul\":9490:9493   */\n      dup5\n        /* \"#utility.yul\":9481:9487   */\n      dup3\n        /* \"#utility.yul\":9470:9479   */\n      dup6\n        /* \"#utility.yul\":9466:9488   */\n      add\n        /* \"#utility.yul\":9435:9494   */\n      tag_132\n      jump\t// in\n    tag_256:\n        /* \"#utility.yul\":9428:9432   */\n      0x60\n        /* \"#utility.yul\":9421:9426   */\n      dup4\n        /* \"#utility.yul\":9417:9433   */\n      add\n        /* \"#utility.yul\":9410:9495   */\n      mstore\n        /* \"#utility.yul\":9185:9506   */\n      pop\n        /* \"#utility.yul\":8441:9513   */\n      swap3\n      swap2\n      pop\n      pop\n      jump\t// out\n        /* \"#utility.yul\":9519:10062   */\n    tag_36:\n        /* \"#utility.yul\":9605:9611   */\n      0x00\n        /* \"#utility.yul\":9654:9656   */\n      0x20\n        /* \"#utility.yul\":9642:9651   */\n      dup3\n        /* \"#utility.yul\":9633:9640   */\n      dup5\n        /* \"#utility.yul\":9629:9652   */\n      sub\n        /* \"#utility.yul\":9625:9657   */\n      slt\n        /* \"#utility.yul\":9622:9741   */\n      iszero\n      tag_258\n      jumpi\n        /* \"#utility.yul\":9660:9739   */\n      tag_259\n      tag_102\n      jump\t// in\n    tag_259:\n        /* \"#utility.yul\":9622:9741   */\n    tag_258:\n        /* \"#utility.yul\":9808:9809   */\n      0x00\n        /* \"#utility.yul\":9797:9806   */\n      dup3\n        /* \"#utility.yul\":9793:9810   */\n      add\n        /* \"#utility.yul\":9780:9811   */\n      calldataload\n        /* \"#utility.yul\":9838:9856   */\n      0xffffffffffffffff\n        /* \"#utility.yul\":9830:9836   */\n      dup2\n        /* \"#utility.yul\":9827:9857   */\n      gt\n        /* \"#utility.yul\":9824:9941   */\n      iszero\n      tag_260\n      jumpi\n        /* \"#utility.yul\":9860:9939   */\n      tag_261\n      tag_103\n      jump\t// in\n    tag_261:\n        /* \"#utility.yul\":9824:9941   */\n    tag_260:\n        /* \"#utility.yul\":9965:10045   */\n      tag_262\n        /* \"#utility.yul\":10037:10044   */\n      dup5\n        /* \"#utility.yul\":10028:10034   */\n      dup3\n        /* \"#utility.yul\":10017:10026   */\n      dup6\n        /* \"#utility.yul\":10013:10035   */\n      add\n        /* \"#utility.yul\":9965:10045   */\n      tag_133\n      jump\t// in\n    tag_262:\n        /* \"#utility.yul\":9955:10045   */\n      swap2\n      pop\n        /* \"#utility.yul\":9751:10055   */\n      pop\n        /* \"#utility.yul\":9519:10062   */\n      swap3\n      swap2\n      pop\n      pop\n      jump\t// out\n        /* \"#utility.yul\":10068:10248   */\n    tag_134:\n        /* \"#utility.yul\":10116:10193   */\n      0x4e487b7100000000000000000000000000000000000000000000000000000000\n        /* \"#utility.yul\":10113:10114   */\n      0x00\n        /* \"#utility.yul\":10106:10194   */\n      mstore\n        /* \"#utility.yul\":10213:10217   */\n      0x22\n        /* \"#utility.yul\":10210:10211   */\n      0x04\n        /* \"#utility.yul\":10203:10218   */\n      mstore\n        /* \"#utility.yul\":10237:10241   */\n      0x24\n        /* \"#utility.yul\":10234:10235   */\n      0x00\n        /* \"#utility.yul\":10227:10242   */\n      revert\n        /* \"#utility.yul\":10254:10574   */\n    tag_47:\n        /* \"#utility.yul\":10298:10304   */\n      0x00\n        /* \"#utility.yul\":10335:10336   */\n      0x02\n        /* \"#utility.yul\":10329:10333   */\n      dup3\n        /* \"#utility.yul\":10325:10337   */\n      div\n        /* \"#utility.yul\":10315:10337   */\n      swap1\n      pop\n        /* \"#utility.yul\":10382:10383   */\n      0x01\n        /* \"#utility.yul\":10376:10380   */\n      dup3\n        /* \"#utility.yul\":10372:10384   */\n      and\n        /* \"#utility.yul\":10403:10421   */\n      dup1\n        /* \"#utility.yul\":10393:10474   */\n      tag_265\n      jumpi\n        /* \"#utility.yul\":10459:10463   */\n      0x7f\n        /* \"#utility.yul\":10451:10457   */\n      dup3\n        /* \"#utility.yul\":10447:10464   */\n      and\n        /* \"#utility.yul\":10437:10464   */\n      swap2\n      pop\n        /* \"#utility.yul\":10393:10474   */\n    tag_265:\n        /* \"#utility.yul\":10521:10523   */\n      0x20\n        /* \"#utility.yul\":10513:10519   */\n      dup3\n        /* \"#utility.yul\":10510:10524   */\n      lt\n        /* \"#utility.yul\":10490:10508   */\n      dup2\n        /* \"#utility.yul\":10487:10525   */\n      sub\n        /* \"#utility.yul\":10484:10568   */\n      tag_266\n      jumpi\n        /* \"#utility.yul\":10540:10558   */\n      tag_267\n      tag_134\n      jump\t// in\n    tag_267:\n        /* \"#utility.yul\":10484:10568   */\n    tag_266:\n        /* \"#utility.yul\":10305:10574   */\n      pop\n        /* \"#utility.yul\":10254:10574   */\n      swap2\n      swap1\n      pop\n      jump\t// out\n        /* \"#utility.yul\":10580:10760   */\n    tag_64:\n        /* \"#utility.yul\":10628:10705   */\n      0x4e487b7100000000000000000000000000000000000000000000000000000000\n        /* \"#utility.yul\":10625:10626   */\n      0x00\n        /* \"#utility.yul\":10618:10706   */\n      mstore\n        /* \"#utility.yul\":10725:10729   */\n      0x32\n        /* \"#utility.yul\":10722:10723   */\n      0x04\n        /* \"#utility.yul\":10715:10730   */\n      mstore\n        /* \"#utility.yul\":10749:10753   */\n      0x24\n        /* \"#utility.yul\":10746:10747   */\n      0x00\n        /* \"#utility.yul\":10739:10754   */\n      revert\n        /* \"#utility.yul\":10766:10991   */\n    tag_135:\n        /* \"#utility.yul\":10906:10940   */\n      0x4f776e61626c653a206e6577206f776e657220697320746865207a65726f2061\n        /* \"#utility.yul\":10902:10903   */\n      0x00\n        /* \"#utility.yul\":10894:10900   */\n      dup3\n        /* \"#utility.yul\":10890:10904   */\n      add\n        /* \"#utility.yul\":10883:10941   */\n      mstore\n        /* \"#utility.yul\":10975:10983   */\n      0x6464726573730000000000000000000000000000000000000000000000000000\n        /* \"#utility.yul\":10970:10972   */\n      0x20\n        /* \"#utility.yul\":10962:10968   */\n      dup3\n        /* \"#utility.yul\":10958:10973   */\n      add\n        /* \"#utility.yul\":10951:10984   */\n      mstore\n        /* \"#utility.yul\":10766:10991   */\n      pop\n      jump\t// out\n        /* \"#utility.yul\":10997:11363   */\n    tag_136:\n        /* \"#utility.yul\":11139:11142   */\n      0x00\n        /* \"#utility.yul\":11160:11227   */\n      tag_271\n        /* \"#utility.yul\":11224:11226   */\n      0x26\n        /* \"#utility.yul\":11219:11222   */\n      dup4\n        /* \"#utility.yul\":11160:11227   */\n      tag_109\n      jump\t// in\n    tag_271:\n        /* \"#utility.yul\":11153:11227   */\n      swap2\n      pop\n        /* \"#utility.yul\":11236:11329   */\n      tag_272\n        /* \"#utility.yul\":11325:11328   */\n      dup3\n        /* \"#utility.yul\":11236:11329   */\n      tag_135\n      jump\t// in\n    tag_272:\n        /* \"#utility.yul\":11354:11356   */\n      0x40\n        /* \"#utility.yul\":11349:11352   */\n      dup3\n        /* \"#utility.yul\":11345:11357   */\n      add\n        /* \"#utility.yul\":11338:11357   */\n      swap1\n      pop\n        /* \"#utility.yul\":10997:11363   */\n      swap2\n      swap1\n      pop\n      jump\t// out\n        /* \"#utility.yul\":11369:11788   */\n    tag_76:\n        /* \"#utility.yul\":11535:11539   */\n      0x00\n        /* \"#utility.yul\":11573:11575   */\n      0x20\n        /* \"#utility.yul\":11562:11571   */\n      dup3\n        /* \"#utility.yul\":11558:11576   */\n      add\n        /* \"#utility.yul\":11550:11576   */\n      swap1\n      pop\n        /* \"#utility.yul\":11622:11631   */\n      dup2\n        /* \"#utility.yul\":11616:11620   */\n      dup2\n        /* \"#utility.yul\":11612:11632   */\n      sub\n        /* \"#utility.yul\":11608:11609   */\n      0x00\n        /* \"#utility.yul\":11597:11606   */\n      dup4\n        /* \"#utility.yul\":11593:11610   */\n      add\n        /* \"#utility.yul\":11586:11633   */\n      mstore\n        /* \"#utility.yul\":11650:11781   */\n      tag_274\n        /* \"#utility.yul\":11776:11780   */\n      dup2\n        /* \"#utility.yul\":11650:11781   */\n      tag_136\n      jump\t// in\n    tag_274:\n        /* \"#utility.yul\":11642:11781   */\n      swap1\n      pop\n        /* \"#utility.yul\":11369:11788   */\n      swap2\n      swap1\n      pop\n      jump\t// out\n        /* \"#utility.yul\":11794:11935   */\n    tag_137:\n        /* \"#utility.yul\":11843:11847   */\n      0x00\n        /* \"#utility.yul\":11866:11869   */\n      dup2\n        /* \"#utility.yul\":11858:11869   */\n      swap1\n      pop\n        /* \"#utility.yul\":11889:11892   */\n      dup2\n        /* \"#utility.yul\":11886:11887   */\n      0x00\n        /* \"#utility.yul\":11879:11893   */\n      mstore\n        /* \"#utility.yul\":11923:11927   */\n      0x20\n        /* \"#utility.yul\":11920:11921   */\n      0x00\n        /* \"#utility.yul\":11910:11928   */\n      keccak256\n        /* \"#utility.yul\":11902:11928   */\n      swap1\n      pop\n        /* \"#utility.yul\":11794:11935   */\n      swap2\n      swap1\n      pop\n      jump\t// out\n        /* \"#utility.yul\":11941:12034   */\n    tag_138:\n        /* \"#utility.yul\":11978:11984   */\n      0x00\n        /* \"#utility.yul\":12025:12027   */\n      0x20\n        /* \"#utility.yul\":12020:12022   */\n      0x1f\n        /* \"#utility.yul\":12013:12018   */\n      dup4\n        /* \"#utility.yul\":12009:12023   */\n      add\n        /* \"#utility.yul\":12005:12028   */\n      div\n        /* \"#utility.yul\":11995:12028   */\n      swap1\n      pop\n        /* \"#utility.yul\":11941:12034   */\n      swap2\n      swap1\n      pop\n      jump\t// out\n        /* \"#utility.yul\":12040:12147   */\n    tag_139:\n        /* \"#utility.yul\":12084:12092   */\n      0x00\n        /* \"#utility.yul\":12134:12139   */\n      dup3\n        /* \"#utility.yul\":12128:12132   */\n      dup3\n        /* \"#utility.yul\":12124:12140   */\n      shl\n        /* \"#utility.yul\":12103:12140   */\n      swap1\n      pop\n        /* \"#utility.yul\":12040:12147   */\n      swap3\n      swap2\n      pop\n      pop\n      jump\t// out\n        /* \"#utility.yul\":12153:12546   */\n    tag_140:\n        /* \"#utility.yul\":12222:12228   */\n      0x00\n        /* \"#utility.yul\":12272:12273   */\n      0x08\n        /* \"#utility.yul\":12260:12270   */\n      dup4\n        /* \"#utility.yul\":12256:12274   */\n      mul\n        /* \"#utility.yul\":12295:12392   */\n      tag_279\n        /* \"#utility.yul\":12325:12391   */\n      0xffffffffffffffffffffffffffffffffffffffffffffffffffffffffffffffff\n        /* \"#utility.yul\":12314:12323   */\n      dup3\n        /* \"#utility.yul\":12295:12392   */\n      tag_139\n      jump\t// in\n    tag_279:\n        /* \"#utility.yul\":12413:12452   */\n      tag_280\n        /* \"#utility.yul\":12443:12451   */\n      dup7\n        /* \"#utility.yul\":12432:12441   */\n      dup4\n        /* \"#utility.yul\":12413:12452   */\n      tag_139\n      jump\t// in\n    tag_280:\n        /* \"#utility.yul\":12401:12452   */\n      swap6\n      pop\n        /* \"#utility.yul\":12485:12489   */\n      dup1\n        /* \"#utility.yul\":12481:12490   */\n      not\n        /* \"#utility.yul\":12474:12479   */\n      dup5\n        /* \"#utility.yul\":12470:12491   */\n      and\n        /* \"#utility.yul\":12461:12491   */\n      swap4\n      pop\n        /* \"#utility.yul\":12534:12538   */\n      dup1\n        /* \"#utility.yul\":12524:12532   */\n      dup7\n        /* \"#utility.yul\":12520:12539   */\n      and\n        /* \"#utility.yul\":12513:12518   */\n      dup5\n        /* \"#utility.yul\":12510:12540   */\n      or\n        /* \"#utility.yul\":12500:12540   */\n      swap3\n      pop\n        /* \"#utility.yul\":12229:12546   */\n      pop\n      pop\n        /* \"#utility.yul\":12153:12546   */\n      swap4\n      swap3\n      pop\n      pop\n      pop\n      jump\t// out\n        /* \"#utility.yul\":12552:12612   */\n    tag_141:\n        /* \"#utility.yul\":12580:12583   */\n      0x00\n        /* \"#utility.yul\":12601:12606   */\n      dup2\n        /* \"#utility.yul\":12594:12606   */\n      swap1\n      pop\n        /* \"#utility.yul\":12552:12612   */\n      swap2\n      swap1\n      pop\n      jump\t// out\n        /* \"#utility.yul\":12618:12760   */\n    tag_142:\n        /* \"#utility.yul\":12668:12677   */\n      0x00\n        /* \"#utility.yul\":12701:12754   */\n      tag_283\n        /* \"#utility.yul\":12719:12753   */\n      tag_284\n        /* \"#utility.yul\":12728:12752   */\n      tag_285\n        /* \"#utility.yul\":12746:12751   */\n      dup5\n        /* \"#utility.yul\":12728:12752   */\n      tag_104\n      jump\t// in\n    tag_285:\n        /* \"#utility.yul\":12719:12753   */\n      tag_141\n      jump\t// in\n    tag_284:\n        /* \"#utility.yul\":12701:12754   */\n      tag_104\n      jump\t// in\n    tag_283:\n        /* \"#utility.yul\":12688:12754   */\n      swap1\n      pop\n        /* \"#utility.yul\":12618:12760   */\n      swap2\n      swap1\n      pop\n      jump\t// out\n        /* \"#utility.yul\":12766:12841   */\n    tag_143:\n        /* \"#utility.yul\":12809:12812   */\n      0x00\n        /* \"#utility.yul\":12830:12835   */\n      dup2\n        /* \"#utility.yul\":12823:12835   */\n      swap1\n      pop\n        /* \"#utility.yul\":12766:12841   */\n      swap2\n      swap1\n      pop\n      jump\t// out\n        /* \"#utility.yul\":12847:13116   */\n    tag_144:\n        /* \"#utility.yul\":12957:12996   */\n      tag_288\n        /* \"#utility.yul\":12988:12995   */\n      dup4\n        /* \"#utility.yul\":12957:12996   */\n      tag_142\n      jump\t// in\n    tag_288:\n        /* \"#utility.yul\":13018:13109   */\n      tag_289\n        /* \"#utility.yul\":13067:13108   */\n      tag_290\n        /* \"#utility.yul\":13091:13107   */\n      dup3\n        /* \"#utility.yul\":13067:13108   */\n      tag_143\n      jump\t// in\n    tag_290:\n        /* \"#utility.yul\":13059:13065   */\n      dup5\n        /* \"#utility.yul\":13052:13056   */\n      dup5\n        /* \"#utility.yul\":13046:13057   */\n      sload\n        /* \"#utility.yul\":13018:13109   */\n      tag_140\n      jump\t// in\n    tag_289:\n        /* \"#utility.yul\":13012:13016   */\n      dup3\n        /* \"#utility.yul\":13005:13110   */\n      sstore\n        /* \"#utility.yul\":12923:13116   */\n      pop\n        /* \"#utility.yul\":12847:13116   */\n      pop\n      pop\n      pop\n      jump\t// out\n        /* \"#utility.yul\":13122:13195   */\n    tag_145:\n        /* \"#utility.yul\":13167:13170   */\n      0x00\n        /* \"#utility.yul\":13122:13195   */\n      swap1\n      jump\t// out\n        /* \"#utility.yul\":13201:13390   */\n    tag_146:\n        /* \"#utility.yul\":13278:13310   */\n      tag_293\n      tag_145\n      jump\t// in\n    tag_293:\n        /* \"#utility.yul\":13319:13384   */\n      tag_294\n        /* \"#utility.yul\":13377:13383   */\n      dup2\n        /* \"#utility.yul\":13369:13375   */\n      dup5\n        /* \"#utility.yul\":13363:13367   */\n      dup5\n        /* \"#utility.yul\":13319:13384   */\n      tag_144\n      jump\t// in\n    tag_294:\n        /* \"#utility.yul\":13254:13390   */\n      pop\n        /* \"#utility.yul\":13201:13390   */\n      pop\n      pop\n      jump\t// out\n        /* \"#utility.yul\":13396:13582   */\n    tag_147:\n        /* \"#utility.yul\":13456:13576   */\n    tag_296:\n        /* \"#utility.yul\":13473:13476   */\n      dup2\n        /* \"#utility.yul\":13466:13471   */\n      dup2\n        /* \"#utility.yul\":13463:13477   */\n      lt\n        /* \"#utility.yul\":13456:13576   */\n      iszero\n      tag_298\n      jumpi\n        /* \"#utility.yul\":13527:13566   */\n      tag_299\n        /* \"#utility.yul\":13564:13565   */\n      0x00\n        /* \"#utility.yul\":13557:13562   */\n      dup3\n        /* \"#utility.yul\":13527:13566   */\n      tag_146\n      jump\t// in\n    tag_299:\n        /* \"#utility.yul\":13500:13501   */\n      0x01\n        /* \"#utility.yul\":13493:13498   */\n      dup2\n        /* \"#utility.yul\":13489:13502   */\n      add\n        /* \"#utility.yul\":13480:13502   */\n      swap1\n      pop\n        /* \"#utility.yul\":13456:13576   */\n      jump(tag_296)\n    tag_298:\n        /* \"#utility.yul\":13396:13582   */\n      pop\n      pop\n      jump\t// out\n        /* \"#utility.yul\":13588:14131   */\n    tag_148:\n        /* \"#utility.yul\":13689:13691   */\n      0x1f\n        /* \"#utility.yul\":13684:13687   */\n      dup3\n        /* \"#utility.yul\":13681:13692   */\n      gt\n        /* \"#utility.yul\":13678:14124   */\n      iszero\n      tag_301\n      jumpi\n        /* \"#utility.yul\":13723:13761   */\n      tag_302\n        /* \"#utility.yul\":13755:13760   */\n      dup2\n        /* \"#utility.yul\":13723:13761   */\n      tag_137\n      jump\t// in\n    tag_302:\n        /* \"#utility.yul\":13807:13836   */\n      tag_303\n        /* \"#utility.yul\":13825:13835   */\n      dup5\n        /* \"#utility.yul\":13807:13836   */\n      tag_138\n      jump\t// in\n    tag_303:\n        /* \"#utility.yul\":13797:13805   */\n      dup2\n        /* \"#utility.yul\":13793:13837   */\n      add\n        /* \"#utility.yul\":13990:13992   */\n      0x20\n        /* \"#utility.yul\":13978:13988   */\n      dup6\n        /* \"#utility.yul\":13975:13993   */\n      lt\n        /* \"#utility.yul\":13972:14021   */\n      iszero\n      tag_304\n      jumpi\n        /* \"#utility.yul\":14011:14019   */\n      dup2\n        /* \"#utility.yul\":13996:14019   */\n      swap1\n      pop\n        /* \"#utility.yul\":13972:14021   */\n    tag_304:\n        /* \"#utility.yul\":14034:14114   */\n      tag_305\n        /* \"#utility.yul\":14090:14112   */\n      tag_306\n        /* \"#utility.yul\":14108:14111   */\n      dup6\n        /* \"#utility.yul\":14090:14112   */\n      tag_138\n      jump\t// in\n    tag_306:\n        /* \"#utility.yul\":14080:14088   */\n      dup4\n        /* \"#utility.yul\":14076:14113   */\n      add\n        /* \"#utility.yul\":14063:14074   */\n      dup3\n        /* \"#utility.yul\":14034:14114   */\n      tag_147\n      jump\t// in\n    tag_305:\n        /* \"#utility.yul\":13693:14124   */\n      pop\n      pop\n        /* \"#utility.yul\":13678:14124   */\n    tag_301:\n        /* \"#utility.yul\":13588:14131   */\n      pop\n      pop\n      pop\n      jump\t// out\n        /* \"#utility.yul\":14137:14254   */\n    tag_149:\n        /* \"#utility.yul\":14191:14199   */\n      0x00\n        /* \"#utility.yul\":14241:14246   */\n      dup3\n        /* \"#utility.yul\":14235:14239   */\n      dup3\n        /* \"#utility.yul\":14231:14247   */\n      shr\n        /* \"#utility.yul\":14210:14247   */\n      swap1\n      pop\n        /* \"#utility.yul\":14137:14254   */\n      swap3\n      swap2\n      pop\n      pop\n      jump\t// out\n        /* \"#utility.yul\":14260:14429   */\n    tag_150:\n        /* \"#utility.yul\":14304:14310   */\n      0x00\n        /* \"#utility.yul\":14337:14388   */\n      tag_309\n        /* \"#utility.yul\":14385:14386   */\n      0x00\n        /* \"#utility.yul\":14381:14387   */\n      not\n        /* \"#utility.yul\":14373:14378   */\n      dup5\n        /* \"#utility.yul\":14370:14371   */\n      0x08\n        /* \"#utility.yul\":14366:14379   */\n      mul\n        /* \"#utility.yul\":14337:14388   */\n      tag_149\n      jump\t// in\n    tag_309:\n        /* \"#utility.yul\":14333:14389   */\n      not\n        /* \"#utility.yul\":14418:14422   */\n      dup1\n        /* \"#utility.yul\":14412:14416   */\n      dup4\n        /* \"#utility.yul\":14408:14423   */\n      and\n        /* \"#utility.yul\":14398:14423   */\n      swap2\n      pop\n        /* \"#utility.yul\":14311:14429   */\n      pop\n        /* \"#utility.yul\":14260:14429   */\n      swap3\n      swap2\n      pop\n      pop\n      jump\t// out\n        /* \"#utility.yul\":14434:14729   */\n    tag_151:\n        /* \"#utility.yul\":14510:14514   */\n      0x00\n        /* \"#utility.yul\":14656:14685   */\n      tag_311\n        /* \"#utility.yul\":14681:14684   */\n      dup4\n        /* \"#utility.yul\":14675:14679   */\n      dup4\n        /* \"#utility.yul\":14656:14685   */\n      tag_150\n      jump\t// in\n    tag_311:\n        /* \"#utility.yul\":14648:14685   */\n      swap2\n      pop\n        /* \"#utility.yul\":14718:14721   */\n      dup3\n        /* \"#utility.yul\":14715:14716   */\n      0x02\n        /* \"#utility.yul\":14711:14722   */\n      mul\n        /* \"#utility.yul\":14705:14709   */\n      dup3\n        /* \"#utility.yul\":14702:14723   */\n      or\n        /* \"#utility.yul\":14694:14723   */\n      swap1\n      pop\n        /* \"#utility.yul\":14434:14729   */\n      swap3\n      swap2\n      pop\n      pop\n      jump\t// out\n        /* \"#utility.yul\":14734:16129   */\n    tag_84:\n        /* \"#utility.yul\":14851:14888   */\n      tag_313\n        /* \"#utility.yul\":14884:14887   */\n      dup3\n        /* \"#utility.yul\":14851:14888   */\n      tag_108\n      jump\t// in\n    tag_313:\n        /* \"#utility.yul\":14953:14971   */\n      0xffffffffffffffff\n        /* \"#utility.yul\":14945:14951   */\n      dup2\n        /* \"#utility.yul\":14942:14972   */\n      gt\n        /* \"#utility.yul\":14939:14995   */\n      iszero\n      tag_314\n      jumpi\n        /* \"#utility.yul\":14975:14993   */\n      tag_315\n      tag_123\n      jump\t// in\n    tag_315:\n        /* \"#utility.yul\":14939:14995   */\n    tag_314:\n        /* \"#utility.yul\":15019:15057   */\n      tag_316\n        /* \"#utility.yul\":15051:15055   */\n      dup3\n        /* \"#utility.yul\":15045:15056   */\n      sload\n        /* \"#utility.yul\":15019:15057   */\n      tag_47\n      jump\t// in\n    tag_316:\n        /* \"#utility.yul\":15104:15171   */\n      tag_317\n        /* \"#utility.yul\":15164:15170   */\n      dup3\n        /* \"#utility.yul\":15156:15162   */\n      dup3\n        /* \"#utility.yul\":15150:15154   */\n      dup6\n        /* \"#utility.yul\":15104:15171   */\n      tag_148\n      jump\t// in\n    tag_317:\n        /* \"#utility.yul\":15198:15199   */\n      0x00\n        /* \"#utility.yul\":15222:15226   */\n      0x20\n        /* \"#utility.yul\":15209:15226   */\n      swap1\n      pop\n        /* \"#utility.yul\":15254:15256   */\n      0x1f\n        /* \"#utility.yul\":15246:15252   */\n      dup4\n        /* \"#utility.yul\":15243:15257   */\n      gt\n        /* \"#utility.yul\":15271:15272   */\n      0x01\n        /* \"#utility.yul\":15266:15884   */\n      dup2\n      eq\n      tag_319\n      jumpi\n        /* \"#utility.yul\":15928:15929   */\n      0x00\n        /* \"#utility.yul\":15945:15951   */\n      dup5\n        /* \"#utility.yul\":15942:16019   */\n      iszero\n      tag_320\n      jumpi\n        /* \"#utility.yul\":15994:16003   */\n      dup3\n        /* \"#utility.yul\":15989:15992   */\n      dup8\n        /* \"#utility.yul\":15985:16004   */\n      add\n        /* \"#utility.yul\":15979:16005   */\n      mload\n        /* \"#utility.yul\":15970:16005   */\n      swap1\n      pop\n        /* \"#utility.yul\":15942:16019   */\n    tag_320:\n        /* \"#utility.yul\":16045:16112   */\n      tag_321\n        /* \"#utility.yul\":16105:16111   */\n      dup6\n        /* \"#utility.yul\":16098:16103   */\n      dup3\n        /* \"#utility.yul\":16045:16112   */\n      tag_151\n      jump\t// in\n    tag_321:\n        /* \"#utility.yul\":16039:16043   */\n      dup7\n        /* \"#utility.yul\":16032:16113   */\n      sstore\n        /* \"#utility.yul\":15901:16123   */\n      pop\n        /* \"#utility.yul\":15236:16123   */\n      jump(tag_318)\n        /* \"#utility.yul\":15266:15884   */\n    tag_319:\n        /* \"#utility.yul\":15318:15322   */\n      0x1f\n        /* \"#utility.yul\":15314:15323   */\n      not\n        /* \"#utility.yul\":15306:15312   */\n      dup5\n        /* \"#utility.yul\":15302:15324   */\n      and\n        /* \"#utility.yul\":15352:15389   */\n      tag_322\n        /* \"#utility.yul\":15384:15388   */\n      dup7\n        /* \"#utility.yul\":15352:15389   */\n      tag_137\n      jump\t// in\n    tag_322:\n        /* \"#utility.yul\":15411:15412   */\n      0x00\n        /* \"#utility.yul\":15425:15633   */\n    tag_323:\n        /* \"#utility.yul\":15439:15446   */\n      dup3\n        /* \"#utility.yul\":15436:15437   */\n      dup2\n        /* \"#utility.yul\":15433:15447   */\n      lt\n        /* \"#utility.yul\":15425:15633   */\n      iszero\n      tag_325\n      jumpi\n        /* \"#utility.yul\":15518:15527   */\n      dup5\n        /* \"#utility.yul\":15513:15516   */\n      dup10\n        /* \"#utility.yul\":15509:15528   */\n      add\n        /* \"#utility.yul\":15503:15529   */\n      mload\n        /* \"#utility.yul\":15495:15501   */\n      dup3\n        /* \"#utility.yul\":15488:15530   */\n      sstore\n        /* \"#utility.yul\":15569:15570   */\n      0x01\n        /* \"#utility.yul\":15561:15567   */\n      dup3\n        /* \"#utility.yul\":15557:15571   */\n      add\n        /* \"#utility.yul\":15547:15571   */\n      swap2\n      pop\n        /* \"#utility.yul\":15616:15618   */\n      0x20\n        /* \"#utility.yul\":15605:15614   */\n      dup6\n        /* \"#utility.yul\":15601:15619   */\n      add\n        /* \"#utility.yul\":15588:15619   */\n      swap5\n      pop\n        /* \"#utility.yul\":15462:15466   */\n      0x20\n        /* \"#utility.yul\":15459:15460   */\n      dup2\n        /* \"#utility.yul\":15455:15467   */\n      add\n        /* \"#utility.yul\":15450:15467   */\n      swap1\n      pop\n        /* \"#utility.yul\":15425:15633   */\n      jump(tag_323)\n    tag_325:\n        /* \"#utility.yul\":15661:15667   */\n      dup7\n        /* \"#utility.yul\":15652:15659   */\n      dup4\n        /* \"#utility.yul\":15649:15668   */\n      lt\n        /* \"#utility.yul\":15646:15825   */\n      iszero\n      tag_326\n      jumpi\n        /* \"#utility.yul\":15719:15728   */\n      dup5\n        /* \"#utility.yul\":15714:15717   */\n      dup10\n        /* \"#utility.yul\":15710:15729   */\n      add\n        /* \"#utility.yul\":15704:15730   */\n      mload\n        /* \"#utility.yul\":15762:15810   */\n      tag_327\n        /* \"#utility.yul\":15804:15808   */\n      0x1f\n        /* \"#utility.yul\":15796:15802   */\n      dup10\n        /* \"#utility.yul\":15792:15809   */\n      and\n        /* \"#utility.yul\":15781:15790   */\n      dup3\n        /* \"#utility.yul\":15762:15810   */\n      tag_150\n      jump\t// in\n    tag_327:\n        /* \"#utility.yul\":15754:15760   */\n      dup4\n        /* \"#utility.yul\":15747:15811   */\n      sstore\n        /* \"#utility.yul\":15669:15825   */\n      pop\n        /* \"#utility.yul\":15646:15825   */\n    tag_326:\n        /* \"#utility.yul\":15871:15872   */\n      0x01\n        /* \"#utility.yul\":15867:15868   */\n      0x02\n        /* \"#utility.yul\":15859:15865   */\n      dup9\n        /* \"#utility.yul\":15855:15869   */\n      mul\n        /* \"#utility.yul\":15851:15873   */\n      add\n        /* \"#utility.yul\":15845:15849   */\n      dup9\n        /* \"#utility.yul\":15838:15874   */\n      sstore\n        /* \"#utility.yul\":15273:15884   */\n      pop\n      pop\n      pop\n        /* \"#utility.yul\":15236:16123   */\n    tag_318:\n      pop\n        /* \"#utility.yul\":14826:16129   */\n      pop\n      pop\n      pop\n        /* \"#utility.yul\":14734:16129   */\n      pop\n      pop\n      jump\t// out\n        /* \"#utility.yul\":16135:16317   */\n    tag_152:\n        /* \"#utility.yul\":16275:16309   */\n      0x4f776e61626c653a2063616c6c6572206973206e6f7420746865206f776e6572\n        /* \"#utility.yul\":16271:16272   */\n      0x00\n        /* \"#utility.yul\":16263:16269   */\n      dup3\n        /* \"#utility.yul\":16259:16273   */\n      add\n        /* \"#utility.yul\":16252:16310   */\n      mstore\n        /* \"#utility.yul\":16135:16317   */\n      pop\n      jump\t// out\n        /* \"#utility.yul\":16323:16689   */\n    tag_153:\n        /* \"#utility.yul\":16465:16468   */\n      0x00\n        /* \"#utility.yul\":16486:16553   */\n      tag_330\n        /* \"#utility.yul\":16550:16552   */\n      0x20\n        /* \"#utility.yul\":16545:16548   */\n      dup4\n        /* \"#utility.yul\":16486:16553   */\n      tag_109\n      jump\t// in\n    tag_330:\n        /* \"#utility.yul\":16479:16553   */\n      swap2\n      pop\n        /* \"#utility.yul\":16562:16655   */\n      tag_331\n        /* \"#utility.yul\":16651:16654   */\n      dup3\n        /* \"#utility.yul\":16562:16655   */\n      tag_152\n      jump\t// in\n    tag_331:\n        /* \"#utility.yul\":16680:16682   */\n      0x20\n        /* \"#utility.yul\":16675:16678   */\n      dup3\n        /* \"#utility.yul\":16671:16683   */\n      add\n        /* \"#utility.yul\":16664:16683   */\n      swap1\n      pop\n        /* \"#utility.yul\":16323:16689   */\n      swap2\n      swap1\n      pop\n      jump\t// out\n        /* \"#utility.yul\":16695:17114   */\n    tag_90:\n        /* \"#utility.yul\":16861:16865   */\n      0x00\n        /* \"#utility.yul\":16899:16901   */\n      0x20\n        /* \"#utility.yul\":16888:16897   */\n      dup3\n        /* \"#utility.yul\":16884:16902   */\n      add\n        /* \"#utility.yul\":16876:16902   */\n      swap1\n      pop\n        /* \"#utility.yul\":16948:16957   */\n      dup2\n        /* \"#utility.yul\":16942:16946   */\n      dup2\n        /* \"#utility.yul\":16938:16958   */\n      sub\n        /* \"#utility.yul\":16934:16935   */\n      0x00\n        /* \"#utility.yul\":16923:16932   */\n      dup4\n        /* \"#utility.yul\":16919:16936   */\n      add\n        /* \"#utility.yul\":16912:16959   */\n      mstore\n        /* \"#utility.yul\":16976:17107   */\n      tag_333\n        /* \"#utility.yul\":17102:17106   */\n      dup2\n        /* \"#utility.yul\":16976:17107   */\n      tag_153\n      jump\t// in\n    tag_333:\n        /* \"#utility.yul\":16968:17107   */\n      swap1\n      pop\n        /* \"#utility.yul\":16695:17114   */\n      swap2\n      swap1\n      pop\n      jump\t// out\n        /* \"#utility.yul\":17120:17295   */\n    tag_154:\n        /* \"#utility.yul\":17260:17287   */\n      0x5065726d697373696f6e3a206f6e6c7920617070726f76656400000000000000\n        /* \"#utility.yul\":17256:17257   */\n      0x00\n        /* \"#utility.yul\":17248:17254   */\n      dup3\n        /* \"#utility.yul\":17244:17258   */\n      add\n        /* \"#utility.yul\":17237:17288   */\n      mstore\n        /* \"#utility.yul\":17120:17295   */\n      pop\n      jump\t// out\n        /* \"#utility.yul\":17301:17667   */\n    tag_155:\n        /* \"#utility.yul\":17443:17446   */\n      0x00\n        /* \"#utility.yul\":17464:17531   */\n      tag_336\n        /* \"#utility.yul\":17528:17530   */\n      0x19\n        /* \"#utility.yul\":17523:17526   */\n      dup4\n        /* \"#utility.yul\":17464:17531   */\n      tag_109\n      jump\t// in\n    tag_336:\n        /* \"#utility.yul\":17457:17531   */\n      swap2\n      pop\n        /* \"#utility.yul\":17540:17633   */\n      tag_337\n        /* \"#utility.yul\":17629:17632   */\n      dup3\n        /* \"#utility.yul\":17540:17633   */\n      tag_154\n      jump\t// in\n    tag_337:\n        /* \"#utility.yul\":17658:17660   */\n      0x20\n        /* \"#utility.yul\":17653:17656   */\n      dup3\n        /* \"#utility.yul\":17649:17661   */\n      add\n        /* \"#utility.yul\":17642:17661   */\n      swap1\n      pop\n        /* \"#utility.yul\":17301:17667   */\n      swap2\n      swap1\n      pop\n      jump\t// out\n        /* \"#utility.yul\":17673:18092   */\n    tag_99:\n        /* \"#utility.yul\":17839:17843   */\n      0x00\n        /* \"#utility.yul\":17877:17879   */\n      0x20\n        /* \"#utility.yul\":17866:17875   */\n      dup3\n        /* \"#utility.yul\":17862:17880   */\n      add\n        /* \"#utility.yul\":17854:17880   */\n      swap1\n      pop\n        /* \"#utility.yul\":17926:17935   */\n      dup2\n        /* \"#utility.yul\":17920:17924   */\n      dup2\n        /* \"#utility.yul\":17916:17936   */\n      sub\n        /* \"#utility.yul\":17912:17913   */\n      0x00\n        /* \"#utility.yul\":17901:17910   */\n      dup4\n        /* \"#utility.yul\":17897:17914   */\n      add\n        /* \"#utility.yul\":17890:17937   */\n      mstore\n        /* \"#utility.yul\":17954:18085   */\n      tag_339\n        /* \"#utility.yul\":18080:18084   */\n      dup2\n        /* \"#utility.yul\":17954:18085   */\n      tag_155\n      jump\t// in\n    tag_339:\n        /* \"#utility.yul\":17946:18085   */\n      swap1\n      pop\n        /* \"#utility.yul\":17673:18092   */\n      swap2\n      swap1\n      pop\n      jump\t// out\n\n    auxdata: 0xa264697066735822122032959c662a82f30ec14b46aa904001b37cd0f4c3c3aa5dee27c73e47412afce764736f6c63430008110033\n}\n",
				"bytecode": {
					"linkReferences": {},
					"object": "608060405234801561001057600080fd5b50336000806101000a81548173ffffffffffffffffffffffffffffffffffffffff021916908373ffffffffffffffffffffffffffffffffffffffff1602179055506110f5806100606000396000f3fe608060405234801561001057600080fd5b506004361061007d5760003560e01c80638da5cb5b1161005b5780638da5cb5b146100c9578063e0886f90146100e7578063f2fde38b14610117578063f4440976146101335761007d565b806312424e3f1461008257806380c9419e1461008c57806383197ef0146100bf575b600080fd5b61008a61014f565b005b6100a660048036038101906100a19190610781565b6101b7565b6040516100b6949392919061084d565b60405180910390f35b6100c761027f565b005b6100d16102a0565b6040516100de91906108da565b60405180910390f35b61010160048036038101906100fc9190610781565b6102c9565b60405161010e91906109b1565b60405180910390f35b610131600480360381019061012c91906109ff565b6103bd565b005b61014d60048036038101906101489190610bff565b610440565b005b6101576104f3565b600180600061016461056a565b73ffffffffffffffffffffffffffffffffffffffff1673ffffffffffffffffffffffffffffffffffffffff16815260200190815260200160002060006101000a81548160ff021916908315150217905550565b600281815481106101c757600080fd5b90600052602060002090600402016000915090508060000154908060010154908060020154908060030180546101fc90610c77565b80601f016020809104026020016040519081016040528092919081815260200182805461022890610c77565b80156102755780601f1061024a57610100808354040283529160200191610275565b820191906000526020600020905b81548152906001019060200180831161025857829003601f168201915b5050505050905084565b6102876104f3565b3073ffffffffffffffffffffffffffffffffffffffff16ff5b60008060009054906101000a900473ffffffffffffffffffffffffffffffffffffffff16905090565b6102d161070f565b6102d9610572565b600282815481106102ed576102ec610ca8565b5b906000526020600020906004020160405180608001604052908160008201548152602001600182015481526020016002820154815260200160038201805461033490610c77565b80601f016020809104026020016040519081016040528092919081815260200182805461036090610c77565b80156103ad5780601f10610382576101008083540402835291602001916103ad565b820191906000526020600020905b81548152906001019060200180831161039057829003601f168201915b5050505050815250509050919050565b6103c56104f3565b600073ffffffffffffffffffffffffffffffffffffffff168173ffffffffffffffffffffffffffffffffffffffff1603610434576040517f08c379a000000000000000000000000000000000000000000000000000000000815260040161042b90610d49565b60405180910390fd5b61043d8161064b565b50565b610448610572565b600280549050816000018181525050600281908060018154018082558091505060019003906000526020600020906004020160009091909190915060008201518160000155602082015181600101556040820151816002015560608201518160030190816104b69190610f15565b5050507fa3be13d0d66ad2a9cc793fa2c8efcab3dc5776a3032ee2cb813702b574c3aaee816040516104e891906109b1565b60405180910390a150565b3373ffffffffffffffffffffffffffffffffffffffff166105126102a0565b73ffffffffffffffffffffffffffffffffffffffff1614610568576040517f08c379a000000000000000000000000000000000000000000000000000000000815260040161055f90611033565b60405180910390fd5b565b600033905090565b6001600061057e61056a565b73ffffffffffffffffffffffffffffffffffffffff1673ffffffffffffffffffffffffffffffffffffffff16815260200190815260200160002060009054906101000a900460ff168061060a57506105d46102a0565b73ffffffffffffffffffffffffffffffffffffffff166105f261056a565b73ffffffffffffffffffffffffffffffffffffffff16145b610649576040517f08c379a00000000000000000000000000000000000000000000000000000000081526004016106409061109f565b60405180910390fd5b565b60008060009054906101000a900473ffffffffffffffffffffffffffffffffffffffff169050816000806101000a81548173ffffffffffffffffffffffffffffffffffffffff021916908373ffffffffffffffffffffffffffffffffffffffff1602179055508173ffffffffffffffffffffffffffffffffffffffff168173ffffffffffffffffffffffffffffffffffffffff167f8be0079c531659141344cd1fd0a4f28419497f9722a3daafe3b4186f6b6457e060405160405180910390a35050565b6040518060800160405280600081526020016000815260200160008152602001606081525090565b6000604051905090565b600080fd5b600080fd5b6000819050919050565b61075e8161074b565b811461076957600080fd5b50565b60008135905061077b81610755565b92915050565b60006020828403121561079757610796610741565b5b60006107a58482850161076c565b91505092915050565b6107b78161074b565b82525050565b600081519050919050565b600082825260208201905092915050565b60005b838110156107f75780820151818401526020810190506107dc565b60008484015250505050565b6000601f19601f8301169050919050565b600061081f826107bd565b61082981856107c8565b93506108398185602086016107d9565b61084281610803565b840191505092915050565b600060808201905061086260008301876107ae565b61086f60208301866107ae565b61087c60408301856107ae565b818103606083015261088e8184610814565b905095945050505050565b600073ffffffffffffffffffffffffffffffffffffffff82169050919050565b60006108c482610899565b9050919050565b6108d4816108b9565b82525050565b60006020820190506108ef60008301846108cb565b92915050565b6108fe8161074b565b82525050565b600082825260208201905092915050565b6000610920826107bd565b61092a8185610904565b935061093a8185602086016107d9565b61094381610803565b840191505092915050565b600060808301600083015161096660008601826108f5565b50602083015161097960208601826108f5565b50604083015161098c60408601826108f5565b50606083015184820360608601526109a48282610915565b9150508091505092915050565b600060208201905081810360008301526109cb818461094e565b905092915050565b6109dc816108b9565b81146109e757600080fd5b50565b6000813590506109f9816109d3565b92915050565b600060208284031215610a1557610a14610741565b5b6000610a23848285016109ea565b91505092915050565b600080fd5b7f4e487b7100000000000000000000000000000000000000000000000000000000600052604160045260246000fd5b610a6982610803565b810181811067ffffffffffffffff82111715610a8857610a87610a31565b5b80604052505050565b6000610a9b610737565b9050610aa78282610a60565b919050565b600080fd5b600080fd5b600080fd5b600067ffffffffffffffff821115610ad657610ad5610a31565b5b610adf82610803565b9050602081019050919050565b82818337600083830152505050565b6000610b0e610b0984610abb565b610a91565b905082815260208101848484011115610b2a57610b29610ab6565b5b610b35848285610aec565b509392505050565b600082601f830112610b5257610b51610ab1565b5b8135610b62848260208601610afb565b91505092915050565b600060808284031215610b8157610b80610a2c565b5b610b8b6080610a91565b90506000610b9b8482850161076c565b6000830152506020610baf8482850161076c565b6020830152506040610bc38482850161076c565b604083015250606082013567ffffffffffffffff811115610be757610be6610aac565b5b610bf384828501610b3d565b60608301525092915050565b600060208284031215610c1557610c14610741565b5b600082013567ffffffffffffffff811115610c3357610c32610746565b5b610c3f84828501610b6b565b91505092915050565b7f4e487b7100000000000000000000000000000000000000000000000000000000600052602260045260246000fd5b60006002820490506001821680610c8f57607f821691505b602082108103610ca257610ca1610c48565b5b50919050565b7f4e487b7100000000000000000000000000000000000000000000000000000000600052603260045260246000fd5b7f4f776e61626c653a206e6577206f776e657220697320746865207a65726f206160008201527f6464726573730000000000000000000000000000000000000000000000000000602082015250565b6000610d336026836107c8565b9150610d3e82610cd7565b604082019050919050565b60006020820190508181036000830152610d6281610d26565b9050919050565b60008190508160005260206000209050919050565b60006020601f8301049050919050565b600082821b905092915050565b600060088302610dcb7fffffffffffffffffffffffffffffffffffffffffffffffffffffffffffffffff82610d8e565b610dd58683610d8e565b95508019841693508086168417925050509392505050565b6000819050919050565b6000610e12610e0d610e088461074b565b610ded565b61074b565b9050919050565b6000819050919050565b610e2c83610df7565b610e40610e3882610e19565b848454610d9b565b825550505050565b600090565b610e55610e48565b610e60818484610e23565b505050565b5b81811015610e8457610e79600082610e4d565b600181019050610e66565b5050565b601f821115610ec957610e9a81610d69565b610ea384610d7e565b81016020851015610eb2578190505b610ec6610ebe85610d7e565b830182610e65565b50505b505050565b600082821c905092915050565b6000610eec60001984600802610ece565b1980831691505092915050565b6000610f058383610edb565b9150826002028217905092915050565b610f1e826107bd565b67ffffffffffffffff811115610f3757610f36610a31565b5b610f418254610c77565b610f4c828285610e88565b600060209050601f831160018114610f7f5760008415610f6d578287015190505b610f778582610ef9565b865550610fdf565b601f198416610f8d86610d69565b60005b82811015610fb557848901518255600182019150602085019450602081019050610f90565b86831015610fd25784890151610fce601f891682610edb565b8355505b6001600288020188555050505b505050505050565b7f4f776e61626c653a2063616c6c6572206973206e6f7420746865206f776e6572600082015250565b600061101d6020836107c8565b915061102882610fe7565b602082019050919050565b6000602082019050818103600083015261104c81611010565b9050919050565b7f5065726d697373696f6e3a206f6e6c7920617070726f76656400000000000000600082015250565b60006110896019836107c8565b915061109482611053565b602082019050919050565b600060208201905081810360008301526110b88161107c565b905091905056fea264697066735822122032959c662a82f30ec14b46aa904001b37cd0f4c3c3aa5dee27c73e47412afce764736f6c63430008110033",
					"opcodes": "PUSH1 0x80 PUSH1 0x40 MSTORE CALLVALUE DUP1 ISZERO PUSH2 0x10 JUMPI PUSH1 0x0 DUP1 REVERT JUMPDEST POP CALLER PUSH1 0x0 DUP1 PUSH2 0x100 EXP DUP2 SLOAD DUP2 PUSH20 0xFFFFFFFFFFFFFFFFFFFFFFFFFFFFFFFFFFFFFFFF MUL NOT AND SWAP1 DUP4 PUSH20 0xFFFFFFFFFFFFFFFFFFFFFFFFFFFFFFFFFFFFFFFF AND MUL OR SWAP1 SSTORE POP PUSH2 0x10F5 DUP1 PUSH2 0x60 PUSH1 0x0 CODECOPY PUSH1 0x0 RETURN INVALID PUSH1 0x80 PUSH1 0x40 MSTORE CALLVALUE DUP1 ISZERO PUSH2 0x10 JUMPI PUSH1 0x0 DUP1 REVERT JUMPDEST POP PUSH1 0x4 CALLDATASIZE LT PUSH2 0x7D JUMPI PUSH1 0x0 CALLDATALOAD PUSH1 0xE0 SHR DUP1 PUSH4 0x8DA5CB5B GT PUSH2 0x5B JUMPI DUP1 PUSH4 0x8DA5CB5B EQ PUSH2 0xC9 JUMPI DUP1 PUSH4 0xE0886F90 EQ PUSH2 0xE7 JUMPI DUP1 PUSH4 0xF2FDE38B EQ PUSH2 0x117 JUMPI DUP1 PUSH4 0xF4440976 EQ PUSH2 0x133 JUMPI PUSH2 0x7D JUMP JUMPDEST DUP1 PUSH4 0x12424E3F EQ PUSH2 0x82 JUMPI DUP1 PUSH4 0x80C9419E EQ PUSH2 0x8C JUMPI DUP1 PUSH4 0x83197EF0 EQ PUSH2 0xBF JUMPI JUMPDEST PUSH1 0x0 DUP1 REVERT JUMPDEST PUSH2 0x8A PUSH2 0x14F JUMP JUMPDEST STOP JUMPDEST PUSH2 0xA6 PUSH1 0x4 DUP1 CALLDATASIZE SUB DUP2 ADD SWAP1 PUSH2 0xA1 SWAP2 SWAP1 PUSH2 0x781 JUMP JUMPDEST PUSH2 0x1B7 JUMP JUMPDEST PUSH1 0x40 MLOAD PUSH2 0xB6 SWAP5 SWAP4 SWAP3 SWAP2 SWAP1 PUSH2 0x84D JUMP JUMPDEST PUSH1 0x40 MLOAD DUP1 SWAP2 SUB SWAP1 RETURN JUMPDEST PUSH2 0xC7 PUSH2 0x27F JUMP JUMPDEST STOP JUMPDEST PUSH2 0xD1 PUSH2 0x2A0 JUMP JUMPDEST PUSH1 0x40 MLOAD PUSH2 0xDE SWAP2 SWAP1 PUSH2 0x8DA JUMP JUMPDEST PUSH1 0x40 MLOAD DUP1 SWAP2 SUB SWAP1 RETURN JUMPDEST PUSH2 0x101 PUSH1 0x4 DUP1 CALLDATASIZE SUB DUP2 ADD SWAP1 PUSH2 0xFC SWAP2 SWAP1 PUSH2 0x781 JUMP JUMPDEST PUSH2 0x2C9 JUMP JUMPDEST PUSH1 0x40 MLOAD PUSH2 0x10E SWAP2 SWAP1 PUSH2 0x9B1 JUMP JUMPDEST PUSH1 0x40 MLOAD DUP1 SWAP2 SUB SWAP1 RETURN JUMPDEST PUSH2 0x131 PUSH1 0x4 DUP1 CALLDATASIZE SUB DUP2 ADD SWAP1 PUSH2 0x12C SWAP2 SWAP1 PUSH2 0x9FF JUMP JUMPDEST PUSH2 0x3BD JUMP JUMPDEST STOP JUMPDEST PUSH2 0x14D PUSH1 0x4 DUP1 CALLDATASIZE SUB DUP2 ADD SWAP1 PUSH2 0x148 SWAP2 SWAP1 PUSH2 0xBFF JUMP JUMPDEST PUSH2 0x440 JUMP JUMPDEST STOP JUMPDEST PUSH2 0x157 PUSH2 0x4F3 JUMP JUMPDEST PUSH1 0x1 DUP1 PUSH1 0x0 PUSH2 0x164 PUSH2 0x56A JUMP JUMPDEST PUSH20 0xFFFFFFFFFFFFFFFFFFFFFFFFFFFFFFFFFFFFFFFF AND PUSH20 0xFFFFFFFFFFFFFFFFFFFFFFFFFFFFFFFFFFFFFFFF AND DUP2 MSTORE PUSH1 0x20 ADD SWAP1 DUP2 MSTORE PUSH1 0x20 ADD PUSH1 0x0 KECCAK256 PUSH1 0x0 PUSH2 0x100 EXP DUP2 SLOAD DUP2 PUSH1 0xFF MUL NOT AND SWAP1 DUP4 ISZERO ISZERO MUL OR SWAP1 SSTORE POP JUMP JUMPDEST PUSH1 0x2 DUP2 DUP2 SLOAD DUP2 LT PUSH2 0x1C7 JUMPI PUSH1 0x0 DUP1 REVERT JUMPDEST SWAP1 PUSH1 0x0 MSTORE PUSH1 0x20 PUSH1 0x0 KECCAK256 SWAP1 PUSH1 0x4 MUL ADD PUSH1 0x0 SWAP2 POP SWAP1 POP DUP1 PUSH1 0x0 ADD SLOAD SWAP1 DUP1 PUSH1 0x1 ADD SLOAD SWAP1 DUP1 PUSH1 0x2 ADD SLOAD SWAP1 DUP1 PUSH1 0x3 ADD DUP1 SLOAD PUSH2 0x1FC SWAP1 PUSH2 0xC77 JUMP JUMPDEST DUP1 PUSH1 0x1F ADD PUSH1 0x20 DUP1 SWAP2 DIV MUL PUSH1 0x20 ADD PUSH1 0x40 MLOAD SWAP1 DUP2 ADD PUSH1 0x40 MSTORE DUP1 SWAP3 SWAP2 SWAP1 DUP2 DUP2 MSTORE PUSH1 0x20 ADD DUP3 DUP1 SLOAD PUSH2 0x228 SWAP1 PUSH2 0xC77 JUMP JUMPDEST DUP1 ISZERO PUSH2 0x275 JUMPI DUP1 PUSH1 0x1F LT PUSH2 0x24A JUMPI PUSH2 0x100 DUP1 DUP4 SLOAD DIV MUL DUP4 MSTORE SWAP2 PUSH1 0x20 ADD SWAP2 PUSH2 0x275 JUMP JUMPDEST DUP3 ADD SWAP2 SWAP1 PUSH1 0x0 MSTORE PUSH1 0x20 PUSH1 0x0 KECCAK256 SWAP1 JUMPDEST DUP2 SLOAD DUP2 MSTORE SWAP1 PUSH1 0x1 ADD SWAP1 PUSH1 0x20 ADD DUP1 DUP4 GT PUSH2 0x258 JUMPI DUP3 SWAP1 SUB PUSH1 0x1F AND DUP3 ADD SWAP2 JUMPDEST POP POP POP POP POP SWAP1 POP DUP5 JUMP JUMPDEST PUSH2 0x287 PUSH2 0x4F3 JUMP JUMPDEST ADDRESS PUSH20 0xFFFFFFFFFFFFFFFFFFFFFFFFFFFFFFFFFFFFFFFF AND SELFDESTRUCT JUMPDEST PUSH1 0x0 DUP1 PUSH1 0x0 SWAP1 SLOAD SWAP1 PUSH2 0x100 EXP SWAP1 DIV PUSH20 0xFFFFFFFFFFFFFFFFFFFFFFFFFFFFFFFFFFFFFFFF AND SWAP1 POP SWAP1 JUMP JUMPDEST PUSH2 0x2D1 PUSH2 0x70F JUMP JUMPDEST PUSH2 0x2D9 PUSH2 0x572 JUMP JUMPDEST PUSH1 0x2 DUP3 DUP2 SLOAD DUP2 LT PUSH2 0x2ED JUMPI PUSH2 0x2EC PUSH2 0xCA8 JUMP JUMPDEST JUMPDEST SWAP1 PUSH1 0x0 MSTORE PUSH1 0x20 PUSH1 0x0 KECCAK256 SWAP1 PUSH1 0x4 MUL ADD PUSH1 0x40 MLOAD DUP1 PUSH1 0x80 ADD PUSH1 0x40 MSTORE SWAP1 DUP2 PUSH1 0x0 DUP3 ADD SLOAD DUP2 MSTORE PUSH1 0x20 ADD PUSH1 0x1 DUP3 ADD SLOAD DUP2 MSTORE PUSH1 0x20 ADD PUSH1 0x2 DUP3 ADD SLOAD DUP2 MSTORE PUSH1 0x20 ADD PUSH1 0x3 DUP3 ADD DUP1 SLOAD PUSH2 0x334 SWAP1 PUSH2 0xC77 JUMP JUMPDEST DUP1 PUSH1 0x1F ADD PUSH1 0x20 DUP1 SWAP2 DIV MUL PUSH1 0x20 ADD PUSH1 0x40 MLOAD SWAP1 DUP2 ADD PUSH1 0x40 MSTORE DUP1 SWAP3 SWAP2 SWAP1 DUP2 DUP2 MSTORE PUSH1 0x20 ADD DUP3 DUP1 SLOAD PUSH2 0x360 SWAP1 PUSH2 0xC77 JUMP JUMPDEST DUP1 ISZERO PUSH2 0x3AD JUMPI DUP1 PUSH1 0x1F LT PUSH2 0x382 JUMPI PUSH2 0x100 DUP1 DUP4 SLOAD DIV MUL DUP4 MSTORE SWAP2 PUSH1 0x20 ADD SWAP2 PUSH2 0x3AD JUMP JUMPDEST DUP3 ADD SWAP2 SWAP1 PUSH1 0x0 MSTORE PUSH1 0x20 PUSH1 0x0 KECCAK256 SWAP1 JUMPDEST DUP2 SLOAD DUP2 MSTORE SWAP1 PUSH1 0x1 ADD SWAP1 PUSH1 0x20 ADD DUP1 DUP4 GT PUSH2 0x390 JUMPI DUP3 SWAP1 SUB PUSH1 0x1F AND DUP3 ADD SWAP2 JUMPDEST POP POP POP POP POP DUP2 MSTORE POP POP SWAP1 POP SWAP2 SWAP1 POP JUMP JUMPDEST PUSH2 0x3C5 PUSH2 0x4F3 JUMP JUMPDEST PUSH1 0x0 PUSH20 0xFFFFFFFFFFFFFFFFFFFFFFFFFFFFFFFFFFFFFFFF AND DUP2 PUSH20 0xFFFFFFFFFFFFFFFFFFFFFFFFFFFFFFFFFFFFFFFF AND SUB PUSH2 0x434 JUMPI PUSH1 0x40 MLOAD PUSH32 0x8C379A000000000000000000000000000000000000000000000000000000000 DUP2 MSTORE PUSH1 0x4 ADD PUSH2 0x42B SWAP1 PUSH2 0xD49 JUMP JUMPDEST PUSH1 0x40 MLOAD DUP1 SWAP2 SUB SWAP1 REVERT JUMPDEST PUSH2 0x43D DUP2 PUSH2 0x64B JUMP JUMPDEST POP JUMP JUMPDEST PUSH2 0x448 PUSH2 0x572 JUMP JUMPDEST PUSH1 0x2 DUP1 SLOAD SWAP1 POP DUP2 PUSH1 0x0 ADD DUP2 DUP2 MSTORE POP POP PUSH1 0x2 DUP2 SWAP1 DUP1 PUSH1 0x1 DUP2 SLOAD ADD DUP1 DUP3 SSTORE DUP1 SWAP2 POP POP PUSH1 0x1 SWAP1 SUB SWAP1 PUSH1 0x0 MSTORE PUSH1 0x20 PUSH1 0x0 KECCAK256 SWAP1 PUSH1 0x4 MUL ADD PUSH1 0x0 SWAP1 SWAP2 SWAP1 SWAP2 SWAP1 SWAP2 POP PUSH1 0x0 DUP3 ADD MLOAD DUP2 PUSH1 0x0 ADD SSTORE PUSH1 0x20 DUP3 ADD MLOAD DUP2 PUSH1 0x1 ADD SSTORE PUSH1 0x40 DUP3 ADD MLOAD DUP2 PUSH1 0x2 ADD SSTORE PUSH1 0x60 DUP3 ADD MLOAD DUP2 PUSH1 0x3 ADD SWAP1 DUP2 PUSH2 0x4B6 SWAP2 SWAP1 PUSH2 0xF15 JUMP JUMPDEST POP POP POP PUSH32 0xA3BE13D0D66AD2A9CC793FA2C8EFCAB3DC5776A3032EE2CB813702B574C3AAEE DUP2 PUSH1 0x40 MLOAD PUSH2 0x4E8 SWAP2 SWAP1 PUSH2 0x9B1 JUMP JUMPDEST PUSH1 0x40 MLOAD DUP1 SWAP2 SUB SWAP1 LOG1 POP JUMP JUMPDEST CALLER PUSH20 0xFFFFFFFFFFFFFFFFFFFFFFFFFFFFFFFFFFFFFFFF AND PUSH2 0x512 PUSH2 0x2A0 JUMP JUMPDEST PUSH20 0xFFFFFFFFFFFFFFFFFFFFFFFFFFFFFFFFFFFFFFFF AND EQ PUSH2 0x568 JUMPI PUSH1 0x40 MLOAD PUSH32 0x8C379A000000000000000000000000000000000000000000000000000000000 DUP2 MSTORE PUSH1 0x4 ADD PUSH2 0x55F SWAP1 PUSH2 0x1033 JUMP JUMPDEST PUSH1 0x40 MLOAD DUP1 SWAP2 SUB SWAP1 REVERT JUMPDEST JUMP JUMPDEST PUSH1 0x0 CALLER SWAP1 POP SWAP1 JUMP JUMPDEST PUSH1 0x1 PUSH1 0x0 PUSH2 0x57E PUSH2 0x56A JUMP JUMPDEST PUSH20 0xFFFFFFFFFFFFFFFFFFFFFFFFFFFFFFFFFFFFFFFF AND PUSH20 0xFFFFFFFFFFFFFFFFFFFFFFFFFFFFFFFFFFFFFFFF AND DUP2 MSTORE PUSH1 0x20 ADD SWAP1 DUP2 MSTORE PUSH1 0x20 ADD PUSH1 0x0 KECCAK256 PUSH1 0x0 SWAP1 SLOAD SWAP1 PUSH2 0x100 EXP SWAP1 DIV PUSH1 0xFF AND DUP1 PUSH2 0x60A JUMPI POP PUSH2 0x5D4 PUSH2 0x2A0 JUMP JUMPDEST PUSH20 0xFFFFFFFFFFFFFFFFFFFFFFFFFFFFFFFFFFFFFFFF AND PUSH2 0x5F2 PUSH2 0x56A JUMP JUMPDEST PUSH20 0xFFFFFFFFFFFFFFFFFFFFFFFFFFFFFFFFFFFFFFFF AND EQ JUMPDEST PUSH2 0x649 JUMPI PUSH1 0x40 MLOAD PUSH32 0x8C379A000000000000000000000000000000000000000000000000000000000 DUP2 MSTORE PUSH1 0x4 ADD PUSH2 0x640 SWAP1 PUSH2 0x109F JUMP JUMPDEST PUSH1 0x40 MLOAD DUP1 SWAP2 SUB SWAP1 REVERT JUMPDEST JUMP JUMPDEST PUSH1 0x0 DUP1 PUSH1 0x0 SWAP1 SLOAD SWAP1 PUSH2 0x100 EXP SWAP1 DIV PUSH20 0xFFFFFFFFFFFFFFFFFFFFFFFFFFFFFFFFFFFFFFFF AND SWAP1 POP DUP2 PUSH1 0x0 DUP1 PUSH2 0x100 EXP DUP2 SLOAD DUP2 PUSH20 0xFFFFFFFFFFFFFFFFFFFFFFFFFFFFFFFFFFFFFFFF MUL NOT AND SWAP1 DUP4 PUSH20 0xFFFFFFFFFFFFFFFFFFFFFFFFFFFFFFFFFFFFFFFF AND MUL OR SWAP1 SSTORE POP DUP2 PUSH20 0xFFFFFFFFFFFFFFFFFFFFFFFFFFFFFFFFFFFFFFFF AND DUP2 PUSH20 0xFFFFFFFFFFFFFFFFFFFFFFFFFFFFFFFFFFFFFFFF AND PUSH32 0x8BE0079C531659141344CD1FD0A4F28419497F9722A3DAAFE3B4186F6B6457E0 PUSH1 0x40 MLOAD PUSH1 0x40 MLOAD DUP1 SWAP2 SUB SWAP1 LOG3 POP POP JUMP JUMPDEST PUSH1 0x40 MLOAD DUP1 PUSH1 0x80 ADD PUSH1 0x40 MSTORE DUP1 PUSH1 0x0 DUP2 MSTORE PUSH1 0x20 ADD PUSH1 0x0 DUP2 MSTORE PUSH1 0x20 ADD PUSH1 0x0 DUP2 MSTORE PUSH1 0x20 ADD PUSH1 0x60 DUP2 MSTORE POP SWAP1 JUMP JUMPDEST PUSH1 0x0 PUSH1 0x40 MLOAD SWAP1 POP SWAP1 JUMP JUMPDEST PUSH1 0x0 DUP1 REVERT JUMPDEST PUSH1 0x0 DUP1 REVERT JUMPDEST PUSH1 0x0 DUP2 SWAP1 POP SWAP2 SWAP1 POP JUMP JUMPDEST PUSH2 0x75E DUP2 PUSH2 0x74B JUMP JUMPDEST DUP2 EQ PUSH2 0x769 JUMPI PUSH1 0x0 DUP1 REVERT JUMPDEST POP JUMP JUMPDEST PUSH1 0x0 DUP2 CALLDATALOAD SWAP1 POP PUSH2 0x77B DUP2 PUSH2 0x755 JUMP JUMPDEST SWAP3 SWAP2 POP POP JUMP JUMPDEST PUSH1 0x0 PUSH1 0x20 DUP3 DUP5 SUB SLT ISZERO PUSH2 0x797 JUMPI PUSH2 0x796 PUSH2 0x741 JUMP JUMPDEST JUMPDEST PUSH1 0x0 PUSH2 0x7A5 DUP5 DUP3 DUP6 ADD PUSH2 0x76C JUMP JUMPDEST SWAP2 POP POP SWAP3 SWAP2 POP POP JUMP JUMPDEST PUSH2 0x7B7 DUP2 PUSH2 0x74B JUMP JUMPDEST DUP3 MSTORE POP POP JUMP JUMPDEST PUSH1 0x0 DUP2 MLOAD SWAP1 POP SWAP2 SWAP1 POP JUMP JUMPDEST PUSH1 0x0 DUP3 DUP3 MSTORE PUSH1 0x20 DUP3 ADD SWAP1 POP SWAP3 SWAP2 POP POP JUMP JUMPDEST PUSH1 0x0 JUMPDEST DUP4 DUP2 LT ISZERO PUSH2 0x7F7 JUMPI DUP1 DUP3 ADD MLOAD DUP2 DUP5 ADD MSTORE PUSH1 0x20 DUP2 ADD SWAP1 POP PUSH2 0x7DC JUMP JUMPDEST PUSH1 0x0 DUP5 DUP5 ADD MSTORE POP POP POP POP JUMP JUMPDEST PUSH1 0x0 PUSH1 0x1F NOT PUSH1 0x1F DUP4 ADD AND SWAP1 POP SWAP2 SWAP1 POP JUMP JUMPDEST PUSH1 0x0 PUSH2 0x81F DUP3 PUSH2 0x7BD JUMP JUMPDEST PUSH2 0x829 DUP2 DUP6 PUSH2 0x7C8 JUMP JUMPDEST SWAP4 POP PUSH2 0x839 DUP2 DUP6 PUSH1 0x20 DUP7 ADD PUSH2 0x7D9 JUMP JUMPDEST PUSH2 0x842 DUP2 PUSH2 0x803 JUMP JUMPDEST DUP5 ADD SWAP2 POP POP SWAP3 SWAP2 POP POP JUMP JUMPDEST PUSH1 0x0 PUSH1 0x80 DUP3 ADD SWAP1 POP PUSH2 0x862 PUSH1 0x0 DUP4 ADD DUP8 PUSH2 0x7AE JUMP JUMPDEST PUSH2 0x86F PUSH1 0x20 DUP4 ADD DUP7 PUSH2 0x7AE JUMP JUMPDEST PUSH2 0x87C PUSH1 0x40 DUP4 ADD DUP6 PUSH2 0x7AE JUMP JUMPDEST DUP2 DUP2 SUB PUSH1 0x60 DUP4 ADD MSTORE PUSH2 0x88E DUP2 DUP5 PUSH2 0x814 JUMP JUMPDEST SWAP1 POP SWAP6 SWAP5 POP POP POP POP POP JUMP JUMPDEST PUSH1 0x0 PUSH20 0xFFFFFFFFFFFFFFFFFFFFFFFFFFFFFFFFFFFFFFFF DUP3 AND SWAP1 POP SWAP2 SWAP1 POP JUMP JUMPDEST PUSH1 0x0 PUSH2 0x8C4 DUP3 PUSH2 0x899 JUMP JUMPDEST SWAP1 POP SWAP2 SWAP1 POP JUMP JUMPDEST PUSH2 0x8D4 DUP2 PUSH2 0x8B9 JUMP JUMPDEST DUP3 MSTORE POP POP JUMP JUMPDEST PUSH1 0x0 PUSH1 0x20 DUP3 ADD SWAP1 POP PUSH2 0x8EF PUSH1 0x0 DUP4 ADD DUP5 PUSH2 0x8CB JUMP JUMPDEST SWAP3 SWAP2 POP POP JUMP JUMPDEST PUSH2 0x8FE DUP2 PUSH2 0x74B JUMP JUMPDEST DUP3 MSTORE POP POP JUMP JUMPDEST PUSH1 0x0 DUP3 DUP3 MSTORE PUSH1 0x20 DUP3 ADD SWAP1 POP SWAP3 SWAP2 POP POP JUMP JUMPDEST PUSH1 0x0 PUSH2 0x920 DUP3 PUSH2 0x7BD JUMP JUMPDEST PUSH2 0x92A DUP2 DUP6 PUSH2 0x904 JUMP JUMPDEST SWAP4 POP PUSH2 0x93A DUP2 DUP6 PUSH1 0x20 DUP7 ADD PUSH2 0x7D9 JUMP JUMPDEST PUSH2 0x943 DUP2 PUSH2 0x803 JUMP JUMPDEST DUP5 ADD SWAP2 POP POP SWAP3 SWAP2 POP POP JUMP JUMPDEST PUSH1 0x0 PUSH1 0x80 DUP4 ADD PUSH1 0x0 DUP4 ADD MLOAD PUSH2 0x966 PUSH1 0x0 DUP7 ADD DUP3 PUSH2 0x8F5 JUMP JUMPDEST POP PUSH1 0x20 DUP4 ADD MLOAD PUSH2 0x979 PUSH1 0x20 DUP7 ADD DUP3 PUSH2 0x8F5 JUMP JUMPDEST POP PUSH1 0x40 DUP4 ADD MLOAD PUSH2 0x98C PUSH1 0x40 DUP7 ADD DUP3 PUSH2 0x8F5 JUMP JUMPDEST POP PUSH1 0x60 DUP4 ADD MLOAD DUP5 DUP3 SUB PUSH1 0x60 DUP7 ADD MSTORE PUSH2 0x9A4 DUP3 DUP3 PUSH2 0x915 JUMP JUMPDEST SWAP2 POP POP DUP1 SWAP2 POP POP SWAP3 SWAP2 POP POP JUMP JUMPDEST PUSH1 0x0 PUSH1 0x20 DUP3 ADD SWAP1 POP DUP2 DUP2 SUB PUSH1 0x0 DUP4 ADD MSTORE PUSH2 0x9CB DUP2 DUP5 PUSH2 0x94E JUMP JUMPDEST SWAP1 POP SWAP3 SWAP2 POP POP JUMP JUMPDEST PUSH2 0x9DC DUP2 PUSH2 0x8B9 JUMP JUMPDEST DUP2 EQ PUSH2 0x9E7 JUMPI PUSH1 0x0 DUP1 REVERT JUMPDEST POP JUMP JUMPDEST PUSH1 0x0 DUP2 CALLDATALOAD SWAP1 POP PUSH2 0x9F9 DUP2 PUSH2 0x9D3 JUMP JUMPDEST SWAP3 SWAP2 POP POP JUMP JUMPDEST PUSH1 0x0 PUSH1 0x20 DUP3 DUP5 SUB SLT ISZERO PUSH2 0xA15 JUMPI PUSH2 0xA14 PUSH2 0x741 JUMP JUMPDEST JUMPDEST PUSH1 0x0 PUSH2 0xA23 DUP5 DUP3 DUP6 ADD PUSH2 0x9EA JUMP JUMPDEST SWAP2 POP POP SWAP3 SWAP2 POP POP JUMP JUMPDEST PUSH1 0x0 DUP1 REVERT JUMPDEST PUSH32 0x4E487B7100000000000000000000000000000000000000000000000000000000 PUSH1 0x0 MSTORE PUSH1 0x41 PUSH1 0x4 MSTORE PUSH1 0x24 PUSH1 0x0 REVERT JUMPDEST PUSH2 0xA69 DUP3 PUSH2 0x803 JUMP JUMPDEST DUP2 ADD DUP2 DUP2 LT PUSH8 0xFFFFFFFFFFFFFFFF DUP3 GT OR ISZERO PUSH2 0xA88 JUMPI PUSH2 0xA87 PUSH2 0xA31 JUMP JUMPDEST JUMPDEST DUP1 PUSH1 0x40 MSTORE POP POP POP JUMP JUMPDEST PUSH1 0x0 PUSH2 0xA9B PUSH2 0x737 JUMP JUMPDEST SWAP1 POP PUSH2 0xAA7 DUP3 DUP3 PUSH2 0xA60 JUMP JUMPDEST SWAP2 SWAP1 POP JUMP JUMPDEST PUSH1 0x0 DUP1 REVERT JUMPDEST PUSH1 0x0 DUP1 REVERT JUMPDEST PUSH1 0x0 DUP1 REVERT JUMPDEST PUSH1 0x0 PUSH8 0xFFFFFFFFFFFFFFFF DUP3 GT ISZERO PUSH2 0xAD6 JUMPI PUSH2 0xAD5 PUSH2 0xA31 JUMP JUMPDEST JUMPDEST PUSH2 0xADF DUP3 PUSH2 0x803 JUMP JUMPDEST SWAP1 POP PUSH1 0x20 DUP2 ADD SWAP1 POP SWAP2 SWAP1 POP JUMP JUMPDEST DUP3 DUP2 DUP4 CALLDATACOPY PUSH1 0x0 DUP4 DUP4 ADD MSTORE POP POP POP JUMP JUMPDEST PUSH1 0x0 PUSH2 0xB0E PUSH2 0xB09 DUP5 PUSH2 0xABB JUMP JUMPDEST PUSH2 0xA91 JUMP JUMPDEST SWAP1 POP DUP3 DUP2 MSTORE PUSH1 0x20 DUP2 ADD DUP5 DUP5 DUP5 ADD GT ISZERO PUSH2 0xB2A JUMPI PUSH2 0xB29 PUSH2 0xAB6 JUMP JUMPDEST JUMPDEST PUSH2 0xB35 DUP5 DUP3 DUP6 PUSH2 0xAEC JUMP JUMPDEST POP SWAP4 SWAP3 POP POP POP JUMP JUMPDEST PUSH1 0x0 DUP3 PUSH1 0x1F DUP4 ADD SLT PUSH2 0xB52 JUMPI PUSH2 0xB51 PUSH2 0xAB1 JUMP JUMPDEST JUMPDEST DUP2 CALLDATALOAD PUSH2 0xB62 DUP5 DUP3 PUSH1 0x20 DUP7 ADD PUSH2 0xAFB JUMP JUMPDEST SWAP2 POP POP SWAP3 SWAP2 POP POP JUMP JUMPDEST PUSH1 0x0 PUSH1 0x80 DUP3 DUP5 SUB SLT ISZERO PUSH2 0xB81 JUMPI PUSH2 0xB80 PUSH2 0xA2C JUMP JUMPDEST JUMPDEST PUSH2 0xB8B PUSH1 0x80 PUSH2 0xA91 JUMP JUMPDEST SWAP1 POP PUSH1 0x0 PUSH2 0xB9B DUP5 DUP3 DUP6 ADD PUSH2 0x76C JUMP JUMPDEST PUSH1 0x0 DUP4 ADD MSTORE POP PUSH1 0x20 PUSH2 0xBAF DUP5 DUP3 DUP6 ADD PUSH2 0x76C JUMP JUMPDEST PUSH1 0x20 DUP4 ADD MSTORE POP PUSH1 0x40 PUSH2 0xBC3 DUP5 DUP3 DUP6 ADD PUSH2 0x76C JUMP JUMPDEST PUSH1 0x40 DUP4 ADD MSTORE POP PUSH1 0x60 DUP3 ADD CALLDATALOAD PUSH8 0xFFFFFFFFFFFFFFFF DUP2 GT ISZERO PUSH2 0xBE7 JUMPI PUSH2 0xBE6 PUSH2 0xAAC JUMP JUMPDEST JUMPDEST PUSH2 0xBF3 DUP5 DUP3 DUP6 ADD PUSH2 0xB3D JUMP JUMPDEST PUSH1 0x60 DUP4 ADD MSTORE POP SWAP3 SWAP2 POP POP JUMP JUMPDEST PUSH1 0x0 PUSH1 0x20 DUP3 DUP5 SUB SLT ISZERO PUSH2 0xC15 JUMPI PUSH2 0xC14 PUSH2 0x741 JUMP JUMPDEST JUMPDEST PUSH1 0x0 DUP3 ADD CALLDATALOAD PUSH8 0xFFFFFFFFFFFFFFFF DUP2 GT ISZERO PUSH2 0xC33 JUMPI PUSH2 0xC32 PUSH2 0x746 JUMP JUMPDEST JUMPDEST PUSH2 0xC3F DUP5 DUP3 DUP6 ADD PUSH2 0xB6B JUMP JUMPDEST SWAP2 POP POP SWAP3 SWAP2 POP POP JUMP JUMPDEST PUSH32 0x4E487B7100000000000000000000000000000000000000000000000000000000 PUSH1 0x0 MSTORE PUSH1 0x22 PUSH1 0x4 MSTORE PUSH1 0x24 PUSH1 0x0 REVERT JUMPDEST PUSH1 0x0 PUSH1 0x2 DUP3 DIV SWAP1 POP PUSH1 0x1 DUP3 AND DUP1 PUSH2 0xC8F JUMPI PUSH1 0x7F DUP3 AND SWAP2 POP JUMPDEST PUSH1 0x20 DUP3 LT DUP2 SUB PUSH2 0xCA2 JUMPI PUSH2 0xCA1 PUSH2 0xC48 JUMP JUMPDEST JUMPDEST POP SWAP2 SWAP1 POP JUMP JUMPDEST PUSH32 0x4E487B7100000000000000000000000000000000000000000000000000000000 PUSH1 0x0 MSTORE PUSH1 0x32 PUSH1 0x4 MSTORE PUSH1 0x24 PUSH1 0x0 REVERT JUMPDEST PUSH32 0x4F776E61626C653A206E6577206F776E657220697320746865207A65726F2061 PUSH1 0x0 DUP3 ADD MSTORE PUSH32 0x6464726573730000000000000000000000000000000000000000000000000000 PUSH1 0x20 DUP3 ADD MSTORE POP JUMP JUMPDEST PUSH1 0x0 PUSH2 0xD33 PUSH1 0x26 DUP4 PUSH2 0x7C8 JUMP JUMPDEST SWAP2 POP PUSH2 0xD3E DUP3 PUSH2 0xCD7 JUMP JUMPDEST PUSH1 0x40 DUP3 ADD SWAP1 POP SWAP2 SWAP1 POP JUMP JUMPDEST PUSH1 0x0 PUSH1 0x20 DUP3 ADD SWAP1 POP DUP2 DUP2 SUB PUSH1 0x0 DUP4 ADD MSTORE PUSH2 0xD62 DUP2 PUSH2 0xD26 JUMP JUMPDEST SWAP1 POP SWAP2 SWAP1 POP JUMP JUMPDEST PUSH1 0x0 DUP2 SWAP1 POP DUP2 PUSH1 0x0 MSTORE PUSH1 0x20 PUSH1 0x0 KECCAK256 SWAP1 POP SWAP2 SWAP1 POP JUMP JUMPDEST PUSH1 0x0 PUSH1 0x20 PUSH1 0x1F DUP4 ADD DIV SWAP1 POP SWAP2 SWAP1 POP JUMP JUMPDEST PUSH1 0x0 DUP3 DUP3 SHL SWAP1 POP SWAP3 SWAP2 POP POP JUMP JUMPDEST PUSH1 0x0 PUSH1 0x8 DUP4 MUL PUSH2 0xDCB PUSH32 0xFFFFFFFFFFFFFFFFFFFFFFFFFFFFFFFFFFFFFFFFFFFFFFFFFFFFFFFFFFFFFFFF DUP3 PUSH2 0xD8E JUMP JUMPDEST PUSH2 0xDD5 DUP7 DUP4 PUSH2 0xD8E JUMP JUMPDEST SWAP6 POP DUP1 NOT DUP5 AND SWAP4 POP DUP1 DUP7 AND DUP5 OR SWAP3 POP POP POP SWAP4 SWAP3 POP POP POP JUMP JUMPDEST PUSH1 0x0 DUP2 SWAP1 POP SWAP2 SWAP1 POP JUMP JUMPDEST PUSH1 0x0 PUSH2 0xE12 PUSH2 0xE0D PUSH2 0xE08 DUP5 PUSH2 0x74B JUMP JUMPDEST PUSH2 0xDED JUMP JUMPDEST PUSH2 0x74B JUMP JUMPDEST SWAP1 POP SWAP2 SWAP1 POP JUMP JUMPDEST PUSH1 0x0 DUP2 SWAP1 POP SWAP2 SWAP1 POP JUMP JUMPDEST PUSH2 0xE2C DUP4 PUSH2 0xDF7 JUMP JUMPDEST PUSH2 0xE40 PUSH2 0xE38 DUP3 PUSH2 0xE19 JUMP JUMPDEST DUP5 DUP5 SLOAD PUSH2 0xD9B JUMP JUMPDEST DUP3 SSTORE POP POP POP POP JUMP JUMPDEST PUSH1 0x0 SWAP1 JUMP JUMPDEST PUSH2 0xE55 PUSH2 0xE48 JUMP JUMPDEST PUSH2 0xE60 DUP2 DUP5 DUP5 PUSH2 0xE23 JUMP JUMPDEST POP POP POP JUMP JUMPDEST JUMPDEST DUP2 DUP2 LT ISZERO PUSH2 0xE84 JUMPI PUSH2 0xE79 PUSH1 0x0 DUP3 PUSH2 0xE4D JUMP JUMPDEST PUSH1 0x1 DUP2 ADD SWAP1 POP PUSH2 0xE66 JUMP JUMPDEST POP POP JUMP JUMPDEST PUSH1 0x1F DUP3 GT ISZERO PUSH2 0xEC9 JUMPI PUSH2 0xE9A DUP2 PUSH2 0xD69 JUMP JUMPDEST PUSH2 0xEA3 DUP5 PUSH2 0xD7E JUMP JUMPDEST DUP2 ADD PUSH1 0x20 DUP6 LT ISZERO PUSH2 0xEB2 JUMPI DUP2 SWAP1 POP JUMPDEST PUSH2 0xEC6 PUSH2 0xEBE DUP6 PUSH2 0xD7E JUMP JUMPDEST DUP4 ADD DUP3 PUSH2 0xE65 JUMP JUMPDEST POP POP JUMPDEST POP POP POP JUMP JUMPDEST PUSH1 0x0 DUP3 DUP3 SHR SWAP1 POP SWAP3 SWAP2 POP POP JUMP JUMPDEST PUSH1 0x0 PUSH2 0xEEC PUSH1 0x0 NOT DUP5 PUSH1 0x8 MUL PUSH2 0xECE JUMP JUMPDEST NOT DUP1 DUP4 AND SWAP2 POP POP SWAP3 SWAP2 POP POP JUMP JUMPDEST PUSH1 0x0 PUSH2 0xF05 DUP4 DUP4 PUSH2 0xEDB JUMP JUMPDEST SWAP2 POP DUP3 PUSH1 0x2 MUL DUP3 OR SWAP1 POP SWAP3 SWAP2 POP POP JUMP JUMPDEST PUSH2 0xF1E DUP3 PUSH2 0x7BD JUMP JUMPDEST PUSH8 0xFFFFFFFFFFFFFFFF DUP2 GT ISZERO PUSH2 0xF37 JUMPI PUSH2 0xF36 PUSH2 0xA31 JUMP JUMPDEST JUMPDEST PUSH2 0xF41 DUP3 SLOAD PUSH2 0xC77 JUMP JUMPDEST PUSH2 0xF4C DUP3 DUP3 DUP6 PUSH2 0xE88 JUMP JUMPDEST PUSH1 0x0 PUSH1 0x20 SWAP1 POP PUSH1 0x1F DUP4 GT PUSH1 0x1 DUP2 EQ PUSH2 0xF7F JUMPI PUSH1 0x0 DUP5 ISZERO PUSH2 0xF6D JUMPI DUP3 DUP8 ADD MLOAD SWAP1 POP JUMPDEST PUSH2 0xF77 DUP6 DUP3 PUSH2 0xEF9 JUMP JUMPDEST DUP7 SSTORE POP PUSH2 0xFDF JUMP JUMPDEST PUSH1 0x1F NOT DUP5 AND PUSH2 0xF8D DUP7 PUSH2 0xD69 JUMP JUMPDEST PUSH1 0x0 JUMPDEST DUP3 DUP2 LT ISZERO PUSH2 0xFB5 JUMPI DUP5 DUP10 ADD MLOAD DUP3 SSTORE PUSH1 0x1 DUP3 ADD SWAP2 POP PUSH1 0x20 DUP6 ADD SWAP5 POP PUSH1 0x20 DUP2 ADD SWAP1 POP PUSH2 0xF90 JUMP JUMPDEST DUP7 DUP4 LT ISZERO PUSH2 0xFD2 JUMPI DUP5 DUP10 ADD MLOAD PUSH2 0xFCE PUSH1 0x1F DUP10 AND DUP3 PUSH2 0xEDB JUMP JUMPDEST DUP4 SSTORE POP JUMPDEST PUSH1 0x1 PUSH1 0x2 DUP9 MUL ADD DUP9 SSTORE POP POP POP JUMPDEST POP POP POP POP POP POP JUMP JUMPDEST PUSH32 0x4F776E61626C653A2063616C6C6572206973206E6F7420746865206F776E6572 PUSH1 0x0 DUP3 ADD MSTORE POP JUMP JUMPDEST PUSH1 0x0 PUSH2 0x101D PUSH1 0x20 DUP4 PUSH2 0x7C8 JUMP JUMPDEST SWAP2 POP PUSH2 0x1028 DUP3 PUSH2 0xFE7 JUMP JUMPDEST PUSH1 0x20 DUP3 ADD SWAP1 POP SWAP2 SWAP1 POP JUMP JUMPDEST PUSH1 0x0 PUSH1 0x20 DUP3 ADD SWAP1 POP DUP2 DUP2 SUB PUSH1 0x0 DUP4 ADD MSTORE PUSH2 0x104C DUP2 PUSH2 0x1010 JUMP JUMPDEST SWAP1 POP SWAP2 SWAP1 POP JUMP JUMPDEST PUSH32 0x5065726D697373696F6E3A206F6E6C7920617070726F76656400000000000000 PUSH1 0x0 DUP3 ADD MSTORE POP JUMP JUMPDEST PUSH1 0x0 PUSH2 0x1089 PUSH1 0x19 DUP4 PUSH2 0x7C8 JUMP JUMPDEST SWAP2 POP PUSH2 0x1094 DUP3 PUSH2 0x1053 JUMP JUMPDEST PUSH1 0x20 DUP3 ADD SWAP1 POP SWAP2 SWAP1 POP JUMP JUMPDEST PUSH1 0x0 PUSH1 0x20 DUP3 ADD SWAP1 POP DUP2 DUP2 SUB PUSH1 0x0 DUP4 ADD MSTORE PUSH2 0x10B8 DUP2 PUSH2 0x107C JUMP JUMPDEST SWAP1 POP SWAP2 SWAP1 POP JUMP INVALID LOG2 PUSH5 0x6970667358 0x22 SLT KECCAK256 ORIGIN SWAP6 SWAP13 PUSH7 0x2A82F30EC14B46 0xAA SWAP1 BLOCKHASH ADD 0xB3 PUSH29 0xD0F4C3C3AA5DEE27C73E47412AFCE764736F6C63430008110033000000 "
				},
				"gasEstimates": {
					"creation": {
						"codeDepositCost": "868200",
						"executionCost": "25169",
						"totalCost": "893369"
					},
					"external": {
						"add((uint256,uint256,uint256,string))": "infinite",
						"approve()": "26765",
						"at(uint256)": "infinite",
						"destroy()": "30017",
						"list(uint256)": "infinite",
						"owner()": "2522",
						"transferOwnership(address)": "30753"
					}
				},
				"methodIdentifiers": {
					"add((uint256,uint256,uint256,string))": "f4440976",
					"approve()": "12424e3f",
					"at(uint256)": "e0886f90",
					"destroy()": "83197ef0",
					"list(uint256)": "80c9419e",
					"owner()": "8da5cb5b",
					"transferOwnership(address)": "f2fde38b"
				}
			},
			"storageLayout": {
				"storage": [
					{
						"astId": 30,
						"contract": "database/employee/cv/ListEmployeeCV.sol:ListEmployeeCV",
						"label": "_owner",
						"offset": 0,
						"slot": "0",
						"type": "t_address"
					},
					{
						"astId": 149,
						"contract": "database/employee/cv/ListEmployeeCV.sol:ListEmployeeCV",
						"label": "approved",
						"offset": 0,
						"slot": "1",
						"type": "t_mapping(t_address,t_bool)"
					},
					{
						"astId": 211,
						"contract": "database/employee/cv/ListEmployeeCV.sol:ListEmployeeCV",
						"label": "list",
						"offset": 0,
						"slot": "2",
						"type": "t_array(t_struct(EmployeeCV)360_storage)dyn_storage"
					}
				],
				"types": {
					"t_address": {
						"encoding": "inplace",
						"label": "address",
						"numberOfBytes": "20"
					},
					"t_array(t_struct(EmployeeCV)360_storage)dyn_storage": {
						"base": "t_struct(EmployeeCV)360_storage",
						"encoding": "dynamic_array",
						"label": "struct EmployeeCV[]",
						"numberOfBytes": "32"
					},
					"t_bool": {
						"encoding": "inplace",
						"label": "bool",
						"numberOfBytes": "1"
					},
					"t_mapping(t_address,t_bool)": {
						"encoding": "mapping",
						"key": "t_address",
						"label": "mapping(address => bool)",
						"numberOfBytes": "32",
						"value": "t_bool"
					},
					"t_string_storage": {
						"encoding": "bytes",
						"label": "string",
						"numberOfBytes": "32"
					},
					"t_struct(EmployeeCV)360_storage": {
						"encoding": "inplace",
						"label": "struct EmployeeCV",
						"members": [
							{
								"astId": 353,
								"contract": "database/employee/cv/ListEmployeeCV.sol:ListEmployeeCV",
								"label": "id",
								"offset": 0,
								"slot": "0",
								"type": "t_uint256"
							},
							{
								"astId": 355,
								"contract": "database/employee/cv/ListEmployeeCV.sol:ListEmployeeCV",
								"label": "employeeId",
								"offset": 0,
								"slot": "1",
								"type": "t_uint256"
							},
							{
								"astId": 357,
								"contract": "database/employee/cv/ListEmployeeCV.sol:ListEmployeeCV",
								"label": "time",
								"offset": 0,
								"slot": "2",
								"type": "t_uint256"
							},
							{
								"astId": 359,
								"contract": "database/employee/cv/ListEmployeeCV.sol:ListEmployeeCV",
								"label": "data",
								"offset": 0,
								"slot": "3",
								"type": "t_string_storage"
							}
						],
						"numberOfBytes": "128"
					},
					"t_uint256": {
						"encoding": "inplace",
						"label": "uint256",
						"numberOfBytes": "32"
					}
				}
			},
			"userdoc": {
				"kind": "user",
				"methods": {},
				"version": 1
			}
		}
	}
}