{
	"data": {
		"bytecode": {
			"linkReferences": {},
			"object": "60806040523480156200001157600080fd5b5060405162005a3c38038062005a3c8339818101604052810190620000379190620002fb565b80828486336000806101000a81548173ffffffffffffffffffffffffffffffffffffffff021916908373ffffffffffffffffffffffffffffffffffffffff16021790555080600260006101000a81548173ffffffffffffffffffffffffffffffffffffffff021916908373ffffffffffffffffffffffffffffffffffffffff16021790555080600160006101000a81548173ffffffffffffffffffffffffffffffffffffffff021916908373ffffffffffffffffffffffffffffffffffffffff1602179055505080600460006101000a81548173ffffffffffffffffffffffffffffffffffffffff021916908373ffffffffffffffffffffffffffffffffffffffff16021790555080600360006101000a81548173ffffffffffffffffffffffffffffffffffffffff021916908373ffffffffffffffffffffffffffffffffffffffff1602179055505080600660006101000a81548173ffffffffffffffffffffffffffffffffffffffff021916908373ffffffffffffffffffffffffffffffffffffffff16021790555080600560006101000a81548173ffffffffffffffffffffffffffffffffffffffff021916908373ffffffffffffffffffffffffffffffffffffffff1602179055505080600860006101000a81548173ffffffffffffffffffffffffffffffffffffffff021916908373ffffffffffffffffffffffffffffffffffffffff16021790555080600760006101000a81548173ffffffffffffffffffffffffffffffffffffffff021916908373ffffffffffffffffffffffffffffffffffffffff16021790555050505050506200036d565b600080fd5b600073ffffffffffffffffffffffffffffffffffffffff82169050919050565b6000620002c38262000296565b9050919050565b620002d581620002b6565b8114620002e157600080fd5b50565b600081519050620002f581620002ca565b92915050565b6000806000806080858703121562000318576200031762000291565b5b60006200032887828801620002e4565b94505060206200033b87828801620002e4565b93505060406200034e87828801620002e4565b92505060606200036187828801620002e4565b91505092959194509250565b6156bf806200037d6000396000f3fe608060405234801561001057600080fd5b50600436106101735760003560e01c806381c68643116100de578063d6c6109a11610097578063efeebbf411610071578063efeebbf4146104e8578063f08f4f6414610518578063f2fde38b14610548578063f8acd9721461056457610173565b8063d6c6109a1461046a578063da7d9d101461049a578063dfe47cdb146104b857610173565b806381c68643146103a657806383197ef0146103d65780638da5cb5b146103e0578063a56e1ca6146103fe578063c1cc0a561461041c578063d610b45a1461044c57610173565b806340731c241161013057806340731c24146102865780634363b6c6146102b657806346aa9f8a146102e657806349e488a0146103165780635f7e3e191461034657806364f3fe9d1461037657610173565b806301b02b8c14610178578063073b8d8c146101a85780630d943da2146101d857806326233345146102085780633901d42d146102385780633a7d280c14610256575b600080fd5b610192600480360381019061018d9190613519565b610594565b60405161019f91906136de565b60405180910390f35b6101c260048036038101906101bd91906136f9565b610706565b6040516101cf91906137b0565b60405180910390f35b6101f260048036038101906101ed91906136f9565b6107bb565b6040516101ff9190613846565b60405180910390f35b610222600480360381019061021d9190613861565b610870565b60405161022f91906138eb565b60405180910390f35b610240610b30565b60405161024d9190613ba8565b60405180910390f35b610270600480360381019061026b9190613bca565b610d86565b60405161027d91906138eb565b60405180910390f35b6102a0600480360381019061029b91906136f9565b610eba565b6040516102ad9190613d4f565b60405180910390f35b6102d060048036038101906102cb9190613d71565b610f74565b6040516102dd91906136de565b60405180910390f35b61030060048036038101906102fb9190613d71565b611060565b60405161030d91906136de565b60405180910390f35b610330600480360381019061032b9190613d71565b611147565b60405161033d91906136de565b60405180910390f35b610360600480360381019061035b9190613dd6565b61131f565b60405161036d91906136de565b60405180910390f35b610390600480360381019061038b9190613d71565b6114b2565b60405161039d91906136de565b60405180910390f35b6103c060048036038101906103bb91906136f9565b611599565b6040516103cd9190613f53565b60405180910390f35b6103de611940565b005b6103e8611961565b6040516103f59190613f84565b60405180910390f35b61040661198a565b60405161041391906140c9565b60405180910390f35b610436600480360381019061043191906140eb565b611b83565b60405161044391906142c5565b60405180910390f35b610454611f78565b60405161046191906136de565b60405180910390f35b610484600480360381019061047f91906142e7565b61205a565b60405161049191906136de565b60405180910390f35b6104a26125aa565b6040516104af91906142c5565b60405180910390f35b6104d260048036038101906104cd9190614461565b6127a8565b6040516104df91906138eb565b60405180910390f35b61050260048036038101906104fd919061458a565b612982565b60405161050f91906138eb565b60405180910390f35b610532600480360381019061052d91906136f9565b612ad4565b60405161053f91906146d7565b60405180910390f35b610562600480360381019061055d919061458a565b612be6565b005b61057e60048036038101906105799190613d71565b612c69565b60405161058b91906136de565b60405180910390f35b600061059e611f78565b156105de576040517f08c379a00000000000000000000000000000000000000000000000000000000081526004016105d59061477c565b60405180910390fd5b600033905060006040518061016001604052808d8152602001600081526020018373ffffffffffffffffffffffffffffffffffffffff1681526020018c81526020018b81526020018a8152602001898152602001888152602001878152602001868152602001858152509050610652612df9565b73ffffffffffffffffffffffffffffffffffffffff166304a28c07827f8e1604a838d0f1a9b2cda14a099e4ceb08e966cc6e05e8296f67b02d61a79f0960001b6040518363ffffffff1660e01b81526004016106af9291906147b5565b6020604051808303816000875af11580156106ce573d6000803e3d6000fd5b505050506040513d601f19601f820116820180604052508101906106f29190614811565b506001925050509998505050505050505050565b61070e613256565b610716612e23565b73ffffffffffffffffffffffffffffffffffffffff1663c78a6741837f8e1604a838d0f1a9b2cda14a099e4ceb08e966cc6e05e8296f67b02d61a79f0960001b6040518363ffffffff1660e01b815260040161077392919061483e565b60c060405180830381865afa158015610790573d6000803e3d6000fd5b505050506040513d601f19601f820116820180604052508101906107b49190614926565b9050919050565b6107c361328c565b6107cb612e4d565b73ffffffffffffffffffffffffffffffffffffffff1663c78a6741837f8e1604a838d0f1a9b2cda14a099e4ceb08e966cc6e05e8296f67b02d61a79f0960001b6040518363ffffffff1660e01b815260040161082892919061483e565b60c060405180830381865afa158015610845573d6000803e3d6000fd5b505050506040513d601f19601f8201168201806040525081019061086991906149f3565b9050919050565b60008361087b611f78565b6108ba576040517f08c379a00000000000000000000000000000000000000000000000000000000081526004016108b19061477c565b60405180910390fd5b6108c381612e77565b610902576040517f08c379a00000000000000000000000000000000000000000000000000000000081526004016108f990614a92565b60405180910390fd5b848761090e8282610f74565b61094d576040517f08c379a000000000000000000000000000000000000000000000000000000000815260040161094490614b24565b60405180910390fd5b88866109598282611060565b610998576040517f08c379a000000000000000000000000000000000000000000000000000000000815260040161098f90614bb6565b60405180910390fd5b6109a0612e23565b73ffffffffffffffffffffffffffffffffffffffff1663ca99afce897f8e1604a838d0f1a9b2cda14a099e4ceb08e966cc6e05e8296f67b02d61a79f0960001b60016040518463ffffffff1660e01b8152600401610a0093929190614c1b565b6020604051808303816000875af1158015610a1f573d6000803e3d6000fd5b505050506040513d601f19601f82011682018060405250810190610a439190614811565b5060006040518060c00160405280600081526020018a81526020018c81526020018b815260200189815260200160018152509050610a7f612e4d565b73ffffffffffffffffffffffffffffffffffffffff1663e155e532827f8e1604a838d0f1a9b2cda14a099e4ceb08e966cc6e05e8296f67b02d61a79f0960001b6040518363ffffffff1660e01b8152600401610adc929190614c52565b6020604051808303816000875af1158015610afb573d6000803e3d6000fd5b505050506040513d601f19601f82011682018060405250810190610b1f9190614c7b565b965050505050505095945050505050565b60606000610b3c612df9565b73ffffffffffffffffffffffffffffffffffffffff1663fd82e9dd7f8e1604a838d0f1a9b2cda14a099e4ceb08e966cc6e05e8296f67b02d61a79f0960001b6040518263ffffffff1660e01b8152600401610b979190614ca8565b602060405180830381865afa158015610bb4573d6000803e3d6000fd5b505050506040513d601f19601f82011682018060405250810190610bd89190614c7b565b905060008167ffffffffffffffff811115610bf657610bf56133ee565b5b604051908082528060200260200182016040528015610c2f57816020015b610c1c6132c2565b815260200190600190039081610c145790505b50905060005b82811015610d7d576000610c47612df9565b73ffffffffffffffffffffffffffffffffffffffff1663c78a6741600184610c6f9190614cf2565b7f8e1604a838d0f1a9b2cda14a099e4ceb08e966cc6e05e8296f67b02d61a79f0960001b6040518363ffffffff1660e01b8152600401610cb092919061483e565b600060405180830381865afa158015610ccd573d6000803e3d6000fd5b505050506040513d6000823e3d601f19601f82011682018060405250810190610cf69190614f97565b90506000816040019073ffffffffffffffffffffffffffffffffffffffff16908173ffffffffffffffffffffffffffffffffffffffff16815250506040518060200160405280600081525081610140018190525080838381518110610d5e57610d5d614fe0565b5b6020026020010181905250508080610d759061500f565b915050610c35565b50809250505090565b6000610d90611f78565b610dcf576040517f08c379a0000000000000000000000000000000000000000000000000000000008152600401610dc6906150c9565b60405180910390fd5b60003390506000610dde612df9565b73ffffffffffffffffffffffffffffffffffffffff1663236df93c837f8e1604a838d0f1a9b2cda14a099e4ceb08e966cc6e05e8296f67b02d61a79f0960001b6040518363ffffffff1660e01b8152600401610e3b9291906150e9565b600060405180830381865afa158015610e58573d6000803e3d6000fd5b505050506040513d6000823e3d601f19601f82011682018060405250810190610e819190614f97565b9050610e9b84826101400151612f5890919063ffffffff16565b15610eae57806020015192505050610eb5565b6000925050505b919050565b610ec2613332565b610eca612fc1565b73ffffffffffffffffffffffffffffffffffffffff1663c78a6741837f8e1604a838d0f1a9b2cda14a099e4ceb08e966cc6e05e8296f67b02d61a79f0960001b6040518363ffffffff1660e01b8152600401610f2792919061483e565b600060405180830381865afa158015610f44573d6000803e3d6000fd5b505050506040513d6000823e3d601f19601f82011682018060405250810190610f6d9190615261565b9050919050565b600080600360009054906101000a900473ffffffffffffffffffffffffffffffffffffffff1673ffffffffffffffffffffffffffffffffffffffff1663c78a6741847f8e1604a838d0f1a9b2cda14a099e4ceb08e966cc6e05e8296f67b02d61a79f0960001b6040518363ffffffff1660e01b8152600401610ff792919061483e565b600060405180830381865afa158015611014573d6000803e3d6000fd5b505050506040513d6000823e3d601f19601f8201168201806040525081019061103d9190615261565b60000151905083810361105457600191505061105a565b60009150505b92915050565b600080600560009054906101000a900473ffffffffffffffffffffffffffffffffffffffff1673ffffffffffffffffffffffffffffffffffffffff1663c78a6741847f8e1604a838d0f1a9b2cda14a099e4ceb08e966cc6e05e8296f67b02d61a79f0960001b6040518363ffffffff1660e01b81526004016110e392919061483e565b60c060405180830381865afa158015611100573d6000803e3d6000fd5b505050506040513d601f19601f820116820180604052508101906111249190614926565b60600151905080840361113b576001915050611141565b60009150505b92915050565b600080600190505b600560009054906101000a900473ffffffffffffffffffffffffffffffffffffffff1673ffffffffffffffffffffffffffffffffffffffff1663fd82e9dd7f8e1604a838d0f1a9b2cda14a099e4ceb08e966cc6e05e8296f67b02d61a79f0960001b6040518263ffffffff1660e01b81526004016111cd9190614ca8565b602060405180830381865afa1580156111ea573d6000803e3d6000fd5b505050506040513d601f19601f8201168201806040525081019061120e9190614c7b565b8111611313576000600560009054906101000a900473ffffffffffffffffffffffffffffffffffffffff1673ffffffffffffffffffffffffffffffffffffffff1663c78a6741837f8e1604a838d0f1a9b2cda14a099e4ceb08e966cc6e05e8296f67b02d61a79f0960001b6040518363ffffffff1660e01b815260040161129692919061483e565b60c060405180830381865afa1580156112b3573d6000803e3d6000fd5b505050506040513d601f19601f820116820180604052508101906112d79190614926565b90508481602001511480156112ef5750838160600151145b156112ff57600192505050611319565b50808061130b9061500f565b91505061114f565b50600090505b92915050565b6000838361132d8282610f74565b61136c576040517f08c379a000000000000000000000000000000000000000000000000000000000815260040161136390614b24565b60405180910390fd5b85611375611f78565b6113b4576040517f08c379a00000000000000000000000000000000000000000000000000000000081526004016113ab9061477c565b60405180910390fd5b6113bd81612e77565b6113fc576040517f08c379a00000000000000000000000000000000000000000000000000000000081526004016113f390614a92565b60405180910390fd5b611404612fc1565b73ffffffffffffffffffffffffffffffffffffffff16634f71735b877f8e1604a838d0f1a9b2cda14a099e4ceb08e966cc6e05e8296f67b02d61a79f0960001b886040518463ffffffff1660e01b8152600401611463939291906152b9565b6020604051808303816000875af1158015611482573d6000803e3d6000fd5b505050506040513d601f19601f820116820180604052508101906114a69190614811565b93505050509392505050565b600080600560009054906101000a900473ffffffffffffffffffffffffffffffffffffffff1673ffffffffffffffffffffffffffffffffffffffff1663c78a6741847f8e1604a838d0f1a9b2cda14a099e4ceb08e966cc6e05e8296f67b02d61a79f0960001b6040518363ffffffff1660e01b815260040161153592919061483e565b60c060405180830381865afa158015611552573d6000803e3d6000fd5b505050506040513d601f19601f820116820180604052508101906115769190614926565b60200151905080840361158d576001915050611593565b60009150505b92915050565b6060600080600190505b6115ab612e23565b73ffffffffffffffffffffffffffffffffffffffff1663fd82e9dd7f8e1604a838d0f1a9b2cda14a099e4ceb08e966cc6e05e8296f67b02d61a79f0960001b6040518263ffffffff1660e01b81526004016116069190614ca8565b602060405180830381865afa158015611623573d6000803e3d6000fd5b505050506040513d601f19601f820116820180604052508101906116479190614c7b565b8111611725576000611657612e23565b73ffffffffffffffffffffffffffffffffffffffff1663c78a6741837f8e1604a838d0f1a9b2cda14a099e4ceb08e966cc6e05e8296f67b02d61a79f0960001b6040518363ffffffff1660e01b81526004016116b492919061483e565b60c060405180830381865afa1580156116d1573d6000803e3d6000fd5b505050506040513d601f19601f820116820180604052508101906116f59190614926565b90508481606001510361171157828061170d9061500f565b9350505b50808061171d9061500f565b9150506115a3565b5060008167ffffffffffffffff811115611742576117416133ee565b5b60405190808252806020026020018201604052801561177b57816020015b611768613256565b8152602001906001900390816117605790505b509050600080600190505b61178e612e23565b73ffffffffffffffffffffffffffffffffffffffff1663fd82e9dd7f8e1604a838d0f1a9b2cda14a099e4ceb08e966cc6e05e8296f67b02d61a79f0960001b6040518263ffffffff1660e01b81526004016117e99190614ca8565b602060405180830381865afa158015611806573d6000803e3d6000fd5b505050506040513d601f19601f8201168201806040525081019061182a9190614c7b565b811115801561183857508382105b15611934576000611847612e23565b73ffffffffffffffffffffffffffffffffffffffff1663c78a6741837f8e1604a838d0f1a9b2cda14a099e4ceb08e966cc6e05e8296f67b02d61a79f0960001b6040518363ffffffff1660e01b81526004016118a492919061483e565b60c060405180830381865afa1580156118c1573d6000803e3d6000fd5b505050506040513d601f19601f820116820180604052508101906118e59190614926565b905086816060015103611920578084848151811061190657611905614fe0565b5b6020026020010181905250828061191c9061500f565b9350505b50808061192c9061500f565b915050611786565b50819350505050919050565b611948612feb565b3073ffffffffffffffffffffffffffffffffffffffff16ff5b60008060009054906101000a900473ffffffffffffffffffffffffffffffffffffffff16905090565b60606000611996612e4d565b73ffffffffffffffffffffffffffffffffffffffff1663fd82e9dd7f8e1604a838d0f1a9b2cda14a099e4ceb08e966cc6e05e8296f67b02d61a79f0960001b6040518263ffffffff1660e01b81526004016119f19190614ca8565b602060405180830381865afa158015611a0e573d6000803e3d6000fd5b505050506040513d601f19601f82011682018060405250810190611a329190614c7b565b905060008167ffffffffffffffff811115611a5057611a4f6133ee565b5b604051908082528060200260200182016040528015611a8957816020015b611a7661328c565b815260200190600190039081611a6e5790505b50905060005b82811015611b7a57611a9f612e4d565b73ffffffffffffffffffffffffffffffffffffffff1663c78a6741600183611ac79190614cf2565b7f8e1604a838d0f1a9b2cda14a099e4ceb08e966cc6e05e8296f67b02d61a79f0960001b6040518363ffffffff1660e01b8152600401611b0892919061483e565b60c060405180830381865afa158015611b25573d6000803e3d6000fd5b505050506040513d601f19601f82011682018060405250810190611b4991906149f3565b828281518110611b5c57611b5b614fe0565b5b60200260200101819052508080611b729061500f565b915050611a8f565b50809250505090565b6060600080600190505b611b95612fc1565b73ffffffffffffffffffffffffffffffffffffffff1663fd82e9dd7f8e1604a838d0f1a9b2cda14a099e4ceb08e966cc6e05e8296f67b02d61a79f0960001b6040518263ffffffff1660e01b8152600401611bf09190614ca8565b602060405180830381865afa158015611c0d573d6000803e3d6000fd5b505050506040513d601f19601f82011682018060405250810190611c319190614c7b565b8111611d35576000611c41612fc1565b73ffffffffffffffffffffffffffffffffffffffff1663c78a6741837f8e1604a838d0f1a9b2cda14a099e4ceb08e966cc6e05e8296f67b02d61a79f0960001b6040518363ffffffff1660e01b8152600401611c9e92919061483e565b600060405180830381865afa158015611cbb573d6000803e3d6000fd5b505050506040513d6000823e3d601f19601f82011682018060405250810190611ce49190615261565b9050806000015187148015611cfd575080606001518611155b8015611d0d575084816060015111155b15611d21578280611d1d9061500f565b9350505b508080611d2d9061500f565b915050611b8d565b5060008167ffffffffffffffff811115611d5257611d516133ee565b5b604051908082528060200260200182016040528015611d8b57816020015b611d78613332565b815260200190600190039081611d705790505b509050600080600190505b611d9e612fc1565b73ffffffffffffffffffffffffffffffffffffffff1663fd82e9dd7f8e1604a838d0f1a9b2cda14a099e4ceb08e966cc6e05e8296f67b02d61a79f0960001b6040518263ffffffff1660e01b8152600401611df99190614ca8565b602060405180830381865afa158015611e16573d6000803e3d6000fd5b505050506040513d601f19601f82011682018060405250810190611e3a9190614c7b565b8111158015611e4857508382105b15611f6a576000611e57612fc1565b73ffffffffffffffffffffffffffffffffffffffff1663c78a6741837f8e1604a838d0f1a9b2cda14a099e4ceb08e966cc6e05e8296f67b02d61a79f0960001b6040518363ffffffff1660e01b8152600401611eb492919061483e565b600060405180830381865afa158015611ed1573d6000803e3d6000fd5b505050506040513d6000823e3d601f19601f82011682018060405250810190611efa9190615261565b9050806000015189148015611f13575080606001518811155b8015611f23575086816060015111155b15611f565780848481518110611f3c57611f3b614fe0565b5b60200260200101819052508280611f529061500f565b9350505b508080611f629061500f565b915050611d96565b508193505050509392505050565b600080600160009054906101000a900473ffffffffffffffffffffffffffffffffffffffff1673ffffffffffffffffffffffffffffffffffffffff1663d32a04c7337f8e1604a838d0f1a9b2cda14a099e4ceb08e966cc6e05e8296f67b02d61a79f0960001b6040518363ffffffff1660e01b8152600401611ffb9291906150e9565b602060405180830381865afa158015612018573d6000803e3d6000fd5b505050506040513d601f19601f8201168201806040525081019061203c9190614c7b565b90506000811115612051576001915050612057565b60009150505b90565b600088612065611f78565b6120a4576040517f08c379a000000000000000000000000000000000000000000000000000000000815260040161209b9061477c565b60405180910390fd5b6120ad81612e77565b6120ec576040517f08c379a00000000000000000000000000000000000000000000000000000000081526004016120e390614a92565b60405180910390fd5b6120f4612df9565b73ffffffffffffffffffffffffffffffffffffffff1663413896e48b7f8e1604a838d0f1a9b2cda14a099e4ceb08e966cc6e05e8296f67b02d61a79f0960001b8c6040518463ffffffff1660e01b815260040161215393929190615329565b6020604051808303816000875af1158015612172573d6000803e3d6000fd5b505050506040513d601f19601f820116820180604052508101906121969190614811565b5061219f612df9565b73ffffffffffffffffffffffffffffffffffffffff1663d49cb1468b7f8e1604a838d0f1a9b2cda14a099e4ceb08e966cc6e05e8296f67b02d61a79f0960001b8b6040518463ffffffff1660e01b81526004016121fe93929190615329565b6020604051808303816000875af115801561221d573d6000803e3d6000fd5b505050506040513d601f19601f820116820180604052508101906122419190614811565b5061224a612df9565b73ffffffffffffffffffffffffffffffffffffffff1663e3f343718b7f8e1604a838d0f1a9b2cda14a099e4ceb08e966cc6e05e8296f67b02d61a79f0960001b8a6040518463ffffffff1660e01b81526004016122a993929190615329565b6020604051808303816000875af11580156122c8573d6000803e3d6000fd5b505050506040513d601f19601f820116820180604052508101906122ec9190614811565b506122f5612df9565b73ffffffffffffffffffffffffffffffffffffffff166329cd63118b7f8e1604a838d0f1a9b2cda14a099e4ceb08e966cc6e05e8296f67b02d61a79f0960001b896040518463ffffffff1660e01b815260040161235493929190615329565b6020604051808303816000875af1158015612373573d6000803e3d6000fd5b505050506040513d601f19601f820116820180604052508101906123979190614811565b506123a0612df9565b73ffffffffffffffffffffffffffffffffffffffff1663d2af71a68b7f8e1604a838d0f1a9b2cda14a099e4ceb08e966cc6e05e8296f67b02d61a79f0960001b886040518463ffffffff1660e01b81526004016123ff93929190615329565b6020604051808303816000875af115801561241e573d6000803e3d6000fd5b505050506040513d601f19601f820116820180604052508101906124429190614811565b5061244b612df9565b73ffffffffffffffffffffffffffffffffffffffff1663d45c8abf8b7f8e1604a838d0f1a9b2cda14a099e4ceb08e966cc6e05e8296f67b02d61a79f0960001b876040518463ffffffff1660e01b81526004016124aa93929190615329565b6020604051808303816000875af11580156124c9573d6000803e3d6000fd5b505050506040513d601f19601f820116820180604052508101906124ed9190614811565b506124f6612df9565b73ffffffffffffffffffffffffffffffffffffffff1663800f22348b7f8e1604a838d0f1a9b2cda14a099e4ceb08e966cc6e05e8296f67b02d61a79f0960001b866040518463ffffffff1660e01b815260040161255593929190615329565b6020604051808303816000875af1158015612574573d6000803e3d6000fd5b505050506040513d601f19601f820116820180604052508101906125989190614811565b50600191505098975050505050505050565b606060006125b6612fc1565b73ffffffffffffffffffffffffffffffffffffffff1663fd82e9dd7f8e1604a838d0f1a9b2cda14a099e4ceb08e966cc6e05e8296f67b02d61a79f0960001b6040518263ffffffff1660e01b81526004016126119190614ca8565b602060405180830381865afa15801561262e573d6000803e3d6000fd5b505050506040513d601f19601f820116820180604052508101906126529190614c7b565b905060008167ffffffffffffffff8111156126705761266f6133ee565b5b6040519080825280602002602001820160405280156126a957816020015b612696613332565b81526020019060019003908161268e5790505b50905060005b8281101561279f576126bf612fc1565b73ffffffffffffffffffffffffffffffffffffffff1663c78a67416001836126e79190614cf2565b7f8e1604a838d0f1a9b2cda14a099e4ceb08e966cc6e05e8296f67b02d61a79f0960001b6040518363ffffffff1660e01b815260040161272892919061483e565b600060405180830381865afa158015612745573d6000803e3d6000fd5b505050506040513d6000823e3d601f19601f8201168201806040525081019061276e9190615261565b82828151811061278157612780614fe0565b5b602002602001018190525080806127979061500f565b9150506126af565b50809250505090565b6000866127b3611f78565b6127f2576040517f08c379a00000000000000000000000000000000000000000000000000000000081526004016127e99061477c565b60405180910390fd5b6127fb81612e77565b61283a576040517f08c379a000000000000000000000000000000000000000000000000000000000815260040161283190614a92565b60405180910390fd5b60006040518061010001604052808a81526020016000815260200189815260200142815260200187815260200186815260200188815260200185600381111561288657612885613c13565b5b81525090507f2a06240f64f73b349ab5f76b84c507f5faeb668a9391adc81d950bb7f6d323178989898989896040516128c496959493929190615367565b60405180910390a16128d4612fc1565b73ffffffffffffffffffffffffffffffffffffffff1663116f4a23827f8e1604a838d0f1a9b2cda14a099e4ceb08e966cc6e05e8296f67b02d61a79f0960001b6040518363ffffffff1660e01b81526004016129319291906153e4565b6020604051808303816000875af1158015612950573d6000803e3d6000fd5b505050506040513d601f19601f820116820180604052508101906129749190614c7b565b925050509695505050505050565b600033826129908282613062565b6129cf576040517f08c379a00000000000000000000000000000000000000000000000000000000081526004016129c690615486565b60405180910390fd5b6129d7611f78565b612a16576040517f08c379a0000000000000000000000000000000000000000000000000000000008152600401612a0d906150c9565b60405180910390fd5b6000612a20612df9565b73ffffffffffffffffffffffffffffffffffffffff1663236df93c337f8e1604a838d0f1a9b2cda14a099e4ceb08e966cc6e05e8296f67b02d61a79f0960001b6040518363ffffffff1660e01b8152600401612a7d9291906150e9565b600060405180830381865afa158015612a9a573d6000803e3d6000fd5b505050506040513d6000823e3d601f19601f82011682018060405250810190612ac39190614f97565b602001519050809350505050919050565b612adc6132c2565b6000612ae6612df9565b73ffffffffffffffffffffffffffffffffffffffff1663c78a6741847f8e1604a838d0f1a9b2cda14a099e4ceb08e966cc6e05e8296f67b02d61a79f0960001b6040518363ffffffff1660e01b8152600401612b4392919061483e565b600060405180830381865afa158015612b60573d6000803e3d6000fd5b505050506040513d6000823e3d601f19601f82011682018060405250810190612b899190614f97565b90506000816040019073ffffffffffffffffffffffffffffffffffffffff16908173ffffffffffffffffffffffffffffffffffffffff16815250506040518060200160405280600081525081610140018190525080915050919050565b612bee612feb565b600073ffffffffffffffffffffffffffffffffffffffff168173ffffffffffffffffffffffffffffffffffffffff1603612c5d576040517f08c379a0000000000000000000000000000000000000000000000000000000008152600401612c5490615518565b60405180910390fd5b612c66816130ab565b50565b600082612c74611f78565b612cb3576040517f08c379a0000000000000000000000000000000000000000000000000000000008152600401612caa9061477c565b60405180910390fd5b612cbc81612e77565b612cfb576040517f08c379a0000000000000000000000000000000000000000000000000000000008152600401612cf290614a92565b60405180910390fd5b8383612d07828261316f565b612d46576040517f08c379a0000000000000000000000000000000000000000000000000000000008152600401612d3d906155aa565b60405180910390fd5b612d4e612e4d565b73ffffffffffffffffffffffffffffffffffffffff1663b615c00a867f8e1604a838d0f1a9b2cda14a099e4ceb08e966cc6e05e8296f67b02d61a79f0960001b6040518363ffffffff1660e01b8152600401612dab92919061483e565b6020604051808303816000875af1158015612dca573d6000803e3d6000fd5b505050506040513d601f19601f82011682018060405250810190612dee9190614811565b935050505092915050565b6000600160009054906101000a900473ffffffffffffffffffffffffffffffffffffffff16905090565b6000600560009054906101000a900473ffffffffffffffffffffffffffffffffffffffff16905090565b6000600760009054906101000a900473ffffffffffffffffffffffffffffffffffffffff16905090565b600080600160009054906101000a900473ffffffffffffffffffffffffffffffffffffffff1673ffffffffffffffffffffffffffffffffffffffff1663c78a6741847f8e1604a838d0f1a9b2cda14a099e4ceb08e966cc6e05e8296f67b02d61a79f0960001b6040518363ffffffff1660e01b8152600401612efa92919061483e565b600060405180830381865afa158015612f17573d6000803e3d6000fd5b505050506040513d6000823e3d601f19601f82011682018060405250810190612f409190614f97565b9050612f50816040015133613062565b915050919050565b600081604051602001612f6b9190615606565b6040516020818303038152906040528051906020012083604051602001612f929190615606565b6040516020818303038152906040528051906020012003612fb65760019050612fbb565b600090505b92915050565b6000600360009054906101000a900473ffffffffffffffffffffffffffffffffffffffff16905090565b3373ffffffffffffffffffffffffffffffffffffffff1661300a611961565b73ffffffffffffffffffffffffffffffffffffffff1614613060576040517f08c379a000000000000000000000000000000000000000000000000000000000815260040161305790615669565b60405180910390fd5b565b60008173ffffffffffffffffffffffffffffffffffffffff168373ffffffffffffffffffffffffffffffffffffffff16036130a057600190506130a5565b600090505b92915050565b60008060009054906101000a900473ffffffffffffffffffffffffffffffffffffffff169050816000806101000a81548173ffffffffffffffffffffffffffffffffffffffff021916908373ffffffffffffffffffffffffffffffffffffffff1602179055508173ffffffffffffffffffffffffffffffffffffffff168173ffffffffffffffffffffffffffffffffffffffff167f8be0079c531659141344cd1fd0a4f28419497f9722a3daafe3b4186f6b6457e060405160405180910390a35050565b600080600760009054906101000a900473ffffffffffffffffffffffffffffffffffffffff1673ffffffffffffffffffffffffffffffffffffffff1663c78a6741847f8e1604a838d0f1a9b2cda14a099e4ceb08e966cc6e05e8296f67b02d61a79f0960001b6040518363ffffffff1660e01b81526004016131f292919061483e565b60c060405180830381865afa15801561320f573d6000803e3d6000fd5b505050506040513d601f19601f8201168201806040525081019061323391906149f3565b60600151905083810361324a576001915050613250565b60009150505b92915050565b6040518060c001604052806000815260200160008152602001600081526020016000815260200160008152602001600081525090565b6040518060c001604052806000815260200160008152602001600081526020016000815260200160008152602001600081525090565b6040518061016001604052806000815260200160008152602001600073ffffffffffffffffffffffffffffffffffffffff16815260200160608152602001606081526020016060815260200160608152602001606081526020016060815260200160608152602001606081525090565b604051806101000160405280600081526020016000815260200160608152602001600081526020016060815260200160608152602001606081526020016000600381111561338357613382613c13565b5b81525090565b6000604051905090565b600080fd5b600080fd5b6000819050919050565b6133b08161339d565b81146133bb57600080fd5b50565b6000813590506133cd816133a7565b92915050565b600080fd5b600080fd5b6000601f19601f8301169050919050565b7f4e487b7100000000000000000000000000000000000000000000000000000000600052604160045260246000fd5b613426826133dd565b810181811067ffffffffffffffff82111715613445576134446133ee565b5b80604052505050565b6000613458613389565b9050613464828261341d565b919050565b600067ffffffffffffffff821115613484576134836133ee565b5b61348d826133dd565b9050602081019050919050565b82818337600083830152505050565b60006134bc6134b784613469565b61344e565b9050828152602081018484840111156134d8576134d76133d8565b5b6134e384828561349a565b509392505050565b600082601f830112613500576134ff6133d3565b5b81356135108482602086016134a9565b91505092915050565b60008060008060008060008060006101208a8c03121561353c5761353b613393565b5b600061354a8c828d016133be565b99505060208a013567ffffffffffffffff81111561356b5761356a613398565b5b6135778c828d016134eb565b98505060408a013567ffffffffffffffff81111561359857613597613398565b5b6135a48c828d016134eb565b97505060608a013567ffffffffffffffff8111156135c5576135c4613398565b5b6135d18c828d016134eb565b96505060808a013567ffffffffffffffff8111156135f2576135f1613398565b5b6135fe8c828d016134eb565b95505060a08a013567ffffffffffffffff81111561361f5761361e613398565b5b61362b8c828d016134eb565b94505060c08a013567ffffffffffffffff81111561364c5761364b613398565b5b6136588c828d016134eb565b93505060e08a013567ffffffffffffffff81111561367957613678613398565b5b6136858c828d016134eb565b9250506101008a013567ffffffffffffffff8111156136a7576136a6613398565b5b6136b38c828d016134eb565b9150509295985092959850929598565b60008115159050919050565b6136d8816136c3565b82525050565b60006020820190506136f360008301846136cf565b92915050565b60006020828403121561370f5761370e613393565b5b600061371d848285016133be565b91505092915050565b61372f8161339d565b82525050565b60c08201600082015161374b6000850182613726565b50602082015161375e6020850182613726565b5060408201516137716040850182613726565b5060608201516137846060850182613726565b5060808201516137976080850182613726565b5060a08201516137aa60a0850182613726565b50505050565b600060c0820190506137c56000830184613735565b92915050565b60c0820160008201516137e16000850182613726565b5060208201516137f46020850182613726565b5060408201516138076040850182613726565b50606082015161381a6060850182613726565b50608082015161382d6080850182613726565b5060a082015161384060a0850182613726565b50505050565b600060c08201905061385b60008301846137cb565b92915050565b600080600080600060a0868803121561387d5761387c613393565b5b600061388b888289016133be565b955050602061389c888289016133be565b94505060406138ad888289016133be565b93505060606138be888289016133be565b92505060806138cf888289016133be565b9150509295509295909350565b6138e58161339d565b82525050565b600060208201905061390060008301846138dc565b92915050565b600081519050919050565b600082825260208201905092915050565b6000819050602082019050919050565b600073ffffffffffffffffffffffffffffffffffffffff82169050919050565b600061395d82613932565b9050919050565b61396d81613952565b82525050565b600081519050919050565b600082825260208201905092915050565b60005b838110156139ad578082015181840152602081019050613992565b60008484015250505050565b60006139c482613973565b6139ce818561397e565b93506139de81856020860161398f565b6139e7816133dd565b840191505092915050565b600061016083016000830151613a0b6000860182613726565b506020830151613a1e6020860182613726565b506040830151613a316040860182613964565b5060608301518482036060860152613a4982826139b9565b91505060808301518482036080860152613a6382826139b9565b91505060a083015184820360a0860152613a7d82826139b9565b91505060c083015184820360c0860152613a9782826139b9565b91505060e083015184820360e0860152613ab182826139b9565b915050610100830151848203610100860152613acd82826139b9565b915050610120830151848203610120860152613ae982826139b9565b915050610140830151848203610140860152613b0582826139b9565b9150508091505092915050565b6000613b1e83836139f2565b905092915050565b6000602082019050919050565b6000613b3e82613906565b613b488185613911565b935083602082028501613b5a85613922565b8060005b85811015613b965784840389528151613b778582613b12565b9450613b8283613b26565b925060208a01995050600181019050613b5e565b50829750879550505050505092915050565b60006020820190508181036000830152613bc28184613b33565b905092915050565b600060208284031215613be057613bdf613393565b5b600082013567ffffffffffffffff811115613bfe57613bfd613398565b5b613c0a848285016134eb565b91505092915050565b7f4e487b7100000000000000000000000000000000000000000000000000000000600052602160045260246000fd5b60048110613c5357613c52613c13565b5b50565b6000819050613c6482613c42565b919050565b6000613c7482613c56565b9050919050565b613c8481613c69565b82525050565b600061010083016000830151613ca36000860182613726565b506020830151613cb66020860182613726565b5060408301518482036040860152613cce82826139b9565b9150506060830151613ce36060860182613726565b5060808301518482036080860152613cfb82826139b9565b91505060a083015184820360a0860152613d1582826139b9565b91505060c083015184820360c0860152613d2f82826139b9565b91505060e0830151613d4460e0860182613c7b565b508091505092915050565b60006020820190508181036000830152613d698184613c8a565b905092915050565b60008060408385031215613d8857613d87613393565b5b6000613d96858286016133be565b9250506020613da7858286016133be565b9150509250929050565b60048110613dbe57600080fd5b50565b600081359050613dd081613db1565b92915050565b600080600060608486031215613def57613dee613393565b5b6000613dfd868287016133be565b9350506020613e0e868287016133be565b9250506040613e1f86828701613dc1565b9150509250925092565b600081519050919050565b600082825260208201905092915050565b6000819050602082019050919050565b60c082016000820151613e6b6000850182613726565b506020820151613e7e6020850182613726565b506040820151613e916040850182613726565b506060820151613ea46060850182613726565b506080820151613eb76080850182613726565b5060a0820151613eca60a0850182613726565b50505050565b6000613edc8383613e55565b60c08301905092915050565b6000602082019050919050565b6000613f0082613e29565b613f0a8185613e34565b9350613f1583613e45565b8060005b83811015613f46578151613f2d8882613ed0565b9750613f3883613ee8565b925050600181019050613f19565b5085935050505092915050565b60006020820190508181036000830152613f6d8184613ef5565b905092915050565b613f7e81613952565b82525050565b6000602082019050613f996000830184613f75565b92915050565b600081519050919050565b600082825260208201905092915050565b6000819050602082019050919050565b60c082016000820151613fe16000850182613726565b506020820151613ff46020850182613726565b5060408201516140076040850182613726565b50606082015161401a6060850182613726565b50608082015161402d6080850182613726565b5060a082015161404060a0850182613726565b50505050565b60006140528383613fcb565b60c08301905092915050565b6000602082019050919050565b600061407682613f9f565b6140808185613faa565b935061408b83613fbb565b8060005b838110156140bc5781516140a38882614046565b97506140ae8361405e565b92505060018101905061408f565b5085935050505092915050565b600060208201905081810360008301526140e3818461406b565b905092915050565b60008060006060848603121561410457614103613393565b5b6000614112868287016133be565b9350506020614123868287016133be565b9250506040614134868287016133be565b9150509250925092565b600081519050919050565b600082825260208201905092915050565b6000819050602082019050919050565b6000610100830160008301516141836000860182613726565b5060208301516141966020860182613726565b50604083015184820360408601526141ae82826139b9565b91505060608301516141c36060860182613726565b50608083015184820360808601526141db82826139b9565b91505060a083015184820360a08601526141f582826139b9565b91505060c083015184820360c086015261420f82826139b9565b91505060e083015161422460e0860182613c7b565b508091505092915050565b600061423b838361416a565b905092915050565b6000602082019050919050565b600061425b8261413e565b6142658185614149565b9350836020820285016142778561415a565b8060005b858110156142b35784840389528151614294858261422f565b945061429f83614243565b925060208a0199505060018101905061427b565b50829750879550505050505092915050565b600060208201905081810360008301526142df8184614250565b905092915050565b600080600080600080600080610100898b03121561430857614307613393565b5b60006143168b828c016133be565b985050602089013567ffffffffffffffff81111561433757614336613398565b5b6143438b828c016134eb565b975050604089013567ffffffffffffffff81111561436457614363613398565b5b6143708b828c016134eb565b965050606089013567ffffffffffffffff81111561439157614390613398565b5b61439d8b828c016134eb565b955050608089013567ffffffffffffffff8111156143be576143bd613398565b5b6143ca8b828c016134eb565b94505060a089013567ffffffffffffffff8111156143eb576143ea613398565b5b6143f78b828c016134eb565b93505060c089013567ffffffffffffffff81111561441857614417613398565b5b6144248b828c016134eb565b92505060e089013567ffffffffffffffff81111561444557614444613398565b5b6144518b828c016134eb565b9150509295985092959890939650565b60008060008060008060c0878903121561447e5761447d613393565b5b600061448c89828a016133be565b965050602087013567ffffffffffffffff8111156144ad576144ac613398565b5b6144b989828a016134eb565b955050604087013567ffffffffffffffff8111156144da576144d9613398565b5b6144e689828a016134eb565b945050606087013567ffffffffffffffff81111561450757614506613398565b5b61451389828a016134eb565b935050608087013567ffffffffffffffff81111561453457614533613398565b5b61454089828a016134eb565b92505060a061455189828a01613dc1565b9150509295509295509295565b61456781613952565b811461457257600080fd5b50565b6000813590506145848161455e565b92915050565b6000602082840312156145a05761459f613393565b5b60006145ae84828501614575565b91505092915050565b6000610160830160008301516145d06000860182613726565b5060208301516145e36020860182613726565b5060408301516145f66040860182613964565b506060830151848203606086015261460e82826139b9565b9150506080830151848203608086015261462882826139b9565b91505060a083015184820360a086015261464282826139b9565b91505060c083015184820360c086015261465c82826139b9565b91505060e083015184820360e086015261467682826139b9565b91505061010083015184820361010086015261469282826139b9565b9150506101208301518482036101208601526146ae82826139b9565b9150506101408301518482036101408601526146ca82826139b9565b9150508091505092915050565b600060208201905081810360008301526146f181846145b7565b905092915050565b600082825260208201905092915050565b7f4c697374427573696e657373437572736f723a20416c7265616479206578697360008201527f746564206163636f756e74000000000000000000000000000000000000000000602082015250565b6000614766602b836146f9565b91506147718261470a565b604082019050919050565b6000602082019050818103600083015261479581614759565b9050919050565b6000819050919050565b6147af8161479c565b82525050565b600060408201905081810360008301526147cf81856145b7565b90506147de60208301846147a6565b9392505050565b6147ee816136c3565b81146147f957600080fd5b50565b60008151905061480b816147e5565b92915050565b60006020828403121561482757614826613393565b5b6000614835848285016147fc565b91505092915050565b600060408201905061485360008301856138dc565b61486060208301846147a6565b9392505050565b600080fd5b600080fd5b600081519050614880816133a7565b92915050565b600060c0828403121561489c5761489b614867565b5b6148a660c061344e565b905060006148b684828501614871565b60008301525060206148ca84828501614871565b60208301525060406148de84828501614871565b60408301525060606148f284828501614871565b606083015250608061490684828501614871565b60808301525060a061491a84828501614871565b60a08301525092915050565b600060c0828403121561493c5761493b613393565b5b600061494a84828501614886565b91505092915050565b600060c0828403121561496957614968614867565b5b61497360c061344e565b9050600061498384828501614871565b600083015250602061499784828501614871565b60208301525060406149ab84828501614871565b60408301525060606149bf84828501614871565b60608301525060806149d384828501614871565b60808301525060a06149e784828501614871565b60a08301525092915050565b600060c08284031215614a0957614a08613393565b5b6000614a1784828501614953565b91505092915050565b7f4c697374427573696e657373437572736f723a206964206973206e6f7420626560008201527f6c6f6e6720746f20616464726573730000000000000000000000000000000000602082015250565b6000614a7c602f836146f9565b9150614a8782614a20565b604082019050919050565b60006020820190508181036000830152614aab81614a6f565b9050919050565b7f4c69737420427573696e65737320506f737420437572736f723a20506f73742060008201527f6964206e6f742062656c6f6e677320746f20627573696e657373206964000000602082015250565b6000614b0e603d836146f9565b9150614b1982614ab2565b604082019050919050565b60006020820190508181036000830152614b3d81614b01565b9050919050565b7f4c6973744170706c79437572736f723a206170706c794944206e6f742062656c60008201527f6f6e677320746f20706f73744964000000000000000000000000000000000000602082015250565b6000614ba0602e836146f9565b9150614bab82614b44565b604082019050919050565b60006020820190508181036000830152614bcf81614b93565b9050919050565b6000819050919050565b6000819050919050565b6000614c05614c00614bfb84614bd6565b614be0565b61339d565b9050919050565b614c1581614bea565b82525050565b6000606082019050614c3060008301866138dc565b614c3d60208301856147a6565b614c4a6040830184614c0c565b949350505050565b600060e082019050614c6760008301856137cb565b614c7460c08301846147a6565b9392505050565b600060208284031215614c9157614c90613393565b5b6000614c9f84828501614871565b91505092915050565b6000602082019050614cbd60008301846147a6565b92915050565b7f4e487b7100000000000000000000000000000000000000000000000000000000600052601160045260246000fd5b6000614cfd8261339d565b9150614d088361339d565b9250828201905080821115614d2057614d1f614cc3565b5b92915050565b600081519050614d358161455e565b92915050565b6000614d4e614d4984613469565b61344e565b905082815260208101848484011115614d6a57614d696133d8565b5b614d7584828561398f565b509392505050565b600082601f830112614d9257614d916133d3565b5b8151614da2848260208601614d3b565b91505092915050565b60006101608284031215614dc257614dc1614867565b5b614dcd61016061344e565b90506000614ddd84828501614871565b6000830152506020614df184828501614871565b6020830152506040614e0584828501614d26565b604083015250606082015167ffffffffffffffff811115614e2957614e2861486c565b5b614e3584828501614d7d565b606083015250608082015167ffffffffffffffff811115614e5957614e5861486c565b5b614e6584828501614d7d565b60808301525060a082015167ffffffffffffffff811115614e8957614e8861486c565b5b614e9584828501614d7d565b60a08301525060c082015167ffffffffffffffff811115614eb957614eb861486c565b5b614ec584828501614d7d565b60c08301525060e082015167ffffffffffffffff811115614ee957614ee861486c565b5b614ef584828501614d7d565b60e08301525061010082015167ffffffffffffffff811115614f1a57614f1961486c565b5b614f2684828501614d7d565b6101008301525061012082015167ffffffffffffffff811115614f4c57614f4b61486c565b5b614f5884828501614d7d565b6101208301525061014082015167ffffffffffffffff811115614f7e57614f7d61486c565b5b614f8a84828501614d7d565b6101408301525092915050565b600060208284031215614fad57614fac613393565b5b600082015167ffffffffffffffff811115614fcb57614fca613398565b5b614fd784828501614dab565b91505092915050565b7f4e487b7100000000000000000000000000000000000000000000000000000000600052603260045260246000fd5b600061501a8261339d565b91507fffffffffffffffffffffffffffffffffffffffffffffffffffffffffffffffff820361504c5761504b614cc3565b5b600182019050919050565b7f4c697374427573696e657373437572736f723a20416c7265616479206e6f742060008201527f65786973746564206163636f756e740000000000000000000000000000000000602082015250565b60006150b3602f836146f9565b91506150be82615057565b604082019050919050565b600060208201905081810360008301526150e2816150a6565b9050919050565b60006040820190506150fe6000830185613f75565b61510b60208301846147a6565b9392505050565b60008151905061512181613db1565b92915050565b6000610100828403121561513e5761513d614867565b5b61514961010061344e565b9050600061515984828501614871565b600083015250602061516d84828501614871565b602083015250604082015167ffffffffffffffff8111156151915761519061486c565b5b61519d84828501614d7d565b60408301525060606151b184828501614871565b606083015250608082015167ffffffffffffffff8111156151d5576151d461486c565b5b6151e184828501614d7d565b60808301525060a082015167ffffffffffffffff8111156152055761520461486c565b5b61521184828501614d7d565b60a08301525060c082015167ffffffffffffffff8111156152355761523461486c565b5b61524184828501614d7d565b60c08301525060e061525584828501615112565b60e08301525092915050565b60006020828403121561527757615276613393565b5b600082015167ffffffffffffffff81111561529557615294613398565b5b6152a184828501615127565b91505092915050565b6152b381613c69565b82525050565b60006060820190506152ce60008301866138dc565b6152db60208301856147a6565b6152e860408301846152aa565b949350505050565b60006152fb82613973565b61530581856146f9565b935061531581856020860161398f565b61531e816133dd565b840191505092915050565b600060608201905061533e60008301866138dc565b61534b60208301856147a6565b818103604083015261535d81846152f0565b9050949350505050565b600060c08201905061537c60008301896138dc565b818103602083015261538e81886152f0565b905081810360408301526153a281876152f0565b905081810360608301526153b681866152f0565b905081810360808301526153ca81856152f0565b90506153d960a08301846152aa565b979650505050505050565b600060408201905081810360008301526153fe8185613c8a565b905061540d60208301846147a6565b9392505050565b7f4c697374427573696e657373437572736f723a2063616c6c6572206973206e6f60008201527f7420746865207573657200000000000000000000000000000000000000000000602082015250565b6000615470602a836146f9565b915061547b82615414565b604082019050919050565b6000602082019050818103600083015261549f81615463565b9050919050565b7f4f776e61626c653a206e6577206f776e657220697320746865207a65726f206160008201527f6464726573730000000000000000000000000000000000000000000000000000602082015250565b60006155026026836146f9565b915061550d826154a6565b604082019050919050565b60006020820190508181036000830152615531816154f5565b9050919050565b7f4c69737441706f696e746d656e74437572736f723a206f6e6c7952657175657360008201527f74496442656c6f6e6773746f4964000000000000000000000000000000000000602082015250565b6000615594602e836146f9565b915061559f82615538565b604082019050919050565b600060208201905081810360008301526155c381615587565b9050919050565b600081905092915050565b60006155e082613973565b6155ea81856155ca565b93506155fa81856020860161398f565b80840191505092915050565b600061561282846155d5565b915081905092915050565b7f4f776e61626c653a2063616c6c6572206973206e6f7420746865206f776e6572600082015250565b60006156536020836146f9565b915061565e8261561d565b602082019050919050565b6000602082019050818103600083015261568281615646565b905091905056fea2646970667358221220abb908480103d6f9fd88f833661feb9c18c73142458e638c60af2be9b70524ba64736f6c63430008110033",
			"opcodes": "PUSH1 0x80 PUSH1 0x40 MSTORE CALLVALUE DUP1 ISZERO PUSH3 0x11 JUMPI PUSH1 0x0 DUP1 REVERT JUMPDEST POP PUSH1 0x40 MLOAD PUSH3 0x5A3C CODESIZE SUB DUP1 PUSH3 0x5A3C DUP4 CODECOPY DUP2 DUP2 ADD PUSH1 0x40 MSTORE DUP2 ADD SWAP1 PUSH3 0x37 SWAP2 SWAP1 PUSH3 0x2FB JUMP JUMPDEST DUP1 DUP3 DUP5 DUP7 CALLER PUSH1 0x0 DUP1 PUSH2 0x100 EXP DUP2 SLOAD DUP2 PUSH20 0xFFFFFFFFFFFFFFFFFFFFFFFFFFFFFFFFFFFFFFFF MUL NOT AND SWAP1 DUP4 PUSH20 0xFFFFFFFFFFFFFFFFFFFFFFFFFFFFFFFFFFFFFFFF AND MUL OR SWAP1 SSTORE POP DUP1 PUSH1 0x2 PUSH1 0x0 PUSH2 0x100 EXP DUP2 SLOAD DUP2 PUSH20 0xFFFFFFFFFFFFFFFFFFFFFFFFFFFFFFFFFFFFFFFF MUL NOT AND SWAP1 DUP4 PUSH20 0xFFFFFFFFFFFFFFFFFFFFFFFFFFFFFFFFFFFFFFFF AND MUL OR SWAP1 SSTORE POP DUP1 PUSH1 0x1 PUSH1 0x0 PUSH2 0x100 EXP DUP2 SLOAD DUP2 PUSH20 0xFFFFFFFFFFFFFFFFFFFFFFFFFFFFFFFFFFFFFFFF MUL NOT AND SWAP1 DUP4 PUSH20 0xFFFFFFFFFFFFFFFFFFFFFFFFFFFFFFFFFFFFFFFF AND MUL OR SWAP1 SSTORE POP POP DUP1 PUSH1 0x4 PUSH1 0x0 PUSH2 0x100 EXP DUP2 SLOAD DUP2 PUSH20 0xFFFFFFFFFFFFFFFFFFFFFFFFFFFFFFFFFFFFFFFF MUL NOT AND SWAP1 DUP4 PUSH20 0xFFFFFFFFFFFFFFFFFFFFFFFFFFFFFFFFFFFFFFFF AND MUL OR SWAP1 SSTORE POP DUP1 PUSH1 0x3 PUSH1 0x0 PUSH2 0x100 EXP DUP2 SLOAD DUP2 PUSH20 0xFFFFFFFFFFFFFFFFFFFFFFFFFFFFFFFFFFFFFFFF MUL NOT AND SWAP1 DUP4 PUSH20 0xFFFFFFFFFFFFFFFFFFFFFFFFFFFFFFFFFFFFFFFF AND MUL OR SWAP1 SSTORE POP POP DUP1 PUSH1 0x6 PUSH1 0x0 PUSH2 0x100 EXP DUP2 SLOAD DUP2 PUSH20 0xFFFFFFFFFFFFFFFFFFFFFFFFFFFFFFFFFFFFFFFF MUL NOT AND SWAP1 DUP4 PUSH20 0xFFFFFFFFFFFFFFFFFFFFFFFFFFFFFFFFFFFFFFFF AND MUL OR SWAP1 SSTORE POP DUP1 PUSH1 0x5 PUSH1 0x0 PUSH2 0x100 EXP DUP2 SLOAD DUP2 PUSH20 0xFFFFFFFFFFFFFFFFFFFFFFFFFFFFFFFFFFFFFFFF MUL NOT AND SWAP1 DUP4 PUSH20 0xFFFFFFFFFFFFFFFFFFFFFFFFFFFFFFFFFFFFFFFF AND MUL OR SWAP1 SSTORE POP POP DUP1 PUSH1 0x8 PUSH1 0x0 PUSH2 0x100 EXP DUP2 SLOAD DUP2 PUSH20 0xFFFFFFFFFFFFFFFFFFFFFFFFFFFFFFFFFFFFFFFF MUL NOT AND SWAP1 DUP4 PUSH20 0xFFFFFFFFFFFFFFFFFFFFFFFFFFFFFFFFFFFFFFFF AND MUL OR SWAP1 SSTORE POP DUP1 PUSH1 0x7 PUSH1 0x0 PUSH2 0x100 EXP DUP2 SLOAD DUP2 PUSH20 0xFFFFFFFFFFFFFFFFFFFFFFFFFFFFFFFFFFFFFFFF MUL NOT AND SWAP1 DUP4 PUSH20 0xFFFFFFFFFFFFFFFFFFFFFFFFFFFFFFFFFFFFFFFF AND MUL OR SWAP1 SSTORE POP POP POP POP POP POP PUSH3 0x36D JUMP JUMPDEST PUSH1 0x0 DUP1 REVERT JUMPDEST PUSH1 0x0 PUSH20 0xFFFFFFFFFFFFFFFFFFFFFFFFFFFFFFFFFFFFFFFF DUP3 AND SWAP1 POP SWAP2 SWAP1 POP JUMP JUMPDEST PUSH1 0x0 PUSH3 0x2C3 DUP3 PUSH3 0x296 JUMP JUMPDEST SWAP1 POP SWAP2 SWAP1 POP JUMP JUMPDEST PUSH3 0x2D5 DUP2 PUSH3 0x2B6 JUMP JUMPDEST DUP2 EQ PUSH3 0x2E1 JUMPI PUSH1 0x0 DUP1 REVERT JUMPDEST POP JUMP JUMPDEST PUSH1 0x0 DUP2 MLOAD SWAP1 POP PUSH3 0x2F5 DUP2 PUSH3 0x2CA JUMP JUMPDEST SWAP3 SWAP2 POP POP JUMP JUMPDEST PUSH1 0x0 DUP1 PUSH1 0x0 DUP1 PUSH1 0x80 DUP6 DUP8 SUB SLT ISZERO PUSH3 0x318 JUMPI PUSH3 0x317 PUSH3 0x291 JUMP JUMPDEST JUMPDEST PUSH1 0x0 PUSH3 0x328 DUP8 DUP3 DUP9 ADD PUSH3 0x2E4 JUMP JUMPDEST SWAP5 POP POP PUSH1 0x20 PUSH3 0x33B DUP8 DUP3 DUP9 ADD PUSH3 0x2E4 JUMP JUMPDEST SWAP4 POP POP PUSH1 0x40 PUSH3 0x34E DUP8 DUP3 DUP9 ADD PUSH3 0x2E4 JUMP JUMPDEST SWAP3 POP POP PUSH1 0x60 PUSH3 0x361 DUP8 DUP3 DUP9 ADD PUSH3 0x2E4 JUMP JUMPDEST SWAP2 POP POP SWAP3 SWAP6 SWAP2 SWAP5 POP SWAP3 POP JUMP JUMPDEST PUSH2 0x56BF DUP1 PUSH3 0x37D PUSH1 0x0 CODECOPY PUSH1 0x0 RETURN INVALID PUSH1 0x80 PUSH1 0x40 MSTORE CALLVALUE DUP1 ISZERO PUSH2 0x10 JUMPI PUSH1 0x0 DUP1 REVERT JUMPDEST POP PUSH1 0x4 CALLDATASIZE LT PUSH2 0x173 JUMPI PUSH1 0x0 CALLDATALOAD PUSH1 0xE0 SHR DUP1 PUSH4 0x81C68643 GT PUSH2 0xDE JUMPI DUP1 PUSH4 0xD6C6109A GT PUSH2 0x97 JUMPI DUP1 PUSH4 0xEFEEBBF4 GT PUSH2 0x71 JUMPI DUP1 PUSH4 0xEFEEBBF4 EQ PUSH2 0x4E8 JUMPI DUP1 PUSH4 0xF08F4F64 EQ PUSH2 0x518 JUMPI DUP1 PUSH4 0xF2FDE38B EQ PUSH2 0x548 JUMPI DUP1 PUSH4 0xF8ACD972 EQ PUSH2 0x564 JUMPI PUSH2 0x173 JUMP JUMPDEST DUP1 PUSH4 0xD6C6109A EQ PUSH2 0x46A JUMPI DUP1 PUSH4 0xDA7D9D10 EQ PUSH2 0x49A JUMPI DUP1 PUSH4 0xDFE47CDB EQ PUSH2 0x4B8 JUMPI PUSH2 0x173 JUMP JUMPDEST DUP1 PUSH4 0x81C68643 EQ PUSH2 0x3A6 JUMPI DUP1 PUSH4 0x83197EF0 EQ PUSH2 0x3D6 JUMPI DUP1 PUSH4 0x8DA5CB5B EQ PUSH2 0x3E0 JUMPI DUP1 PUSH4 0xA56E1CA6 EQ PUSH2 0x3FE JUMPI DUP1 PUSH4 0xC1CC0A56 EQ PUSH2 0x41C JUMPI DUP1 PUSH4 0xD610B45A EQ PUSH2 0x44C JUMPI PUSH2 0x173 JUMP JUMPDEST DUP1 PUSH4 0x40731C24 GT PUSH2 0x130 JUMPI DUP1 PUSH4 0x40731C24 EQ PUSH2 0x286 JUMPI DUP1 PUSH4 0x4363B6C6 EQ PUSH2 0x2B6 JUMPI DUP1 PUSH4 0x46AA9F8A EQ PUSH2 0x2E6 JUMPI DUP1 PUSH4 0x49E488A0 EQ PUSH2 0x316 JUMPI DUP1 PUSH4 0x5F7E3E19 EQ PUSH2 0x346 JUMPI DUP1 PUSH4 0x64F3FE9D EQ PUSH2 0x376 JUMPI PUSH2 0x173 JUMP JUMPDEST DUP1 PUSH4 0x1B02B8C EQ PUSH2 0x178 JUMPI DUP1 PUSH4 0x73B8D8C EQ PUSH2 0x1A8 JUMPI DUP1 PUSH4 0xD943DA2 EQ PUSH2 0x1D8 JUMPI DUP1 PUSH4 0x26233345 EQ PUSH2 0x208 JUMPI DUP1 PUSH4 0x3901D42D EQ PUSH2 0x238 JUMPI DUP1 PUSH4 0x3A7D280C EQ PUSH2 0x256 JUMPI JUMPDEST PUSH1 0x0 DUP1 REVERT JUMPDEST PUSH2 0x192 PUSH1 0x4 DUP1 CALLDATASIZE SUB DUP2 ADD SWAP1 PUSH2 0x18D SWAP2 SWAP1 PUSH2 0x3519 JUMP JUMPDEST PUSH2 0x594 JUMP JUMPDEST PUSH1 0x40 MLOAD PUSH2 0x19F SWAP2 SWAP1 PUSH2 0x36DE JUMP JUMPDEST PUSH1 0x40 MLOAD DUP1 SWAP2 SUB SWAP1 RETURN JUMPDEST PUSH2 0x1C2 PUSH1 0x4 DUP1 CALLDATASIZE SUB DUP2 ADD SWAP1 PUSH2 0x1BD SWAP2 SWAP1 PUSH2 0x36F9 JUMP JUMPDEST PUSH2 0x706 JUMP JUMPDEST PUSH1 0x40 MLOAD PUSH2 0x1CF SWAP2 SWAP1 PUSH2 0x37B0 JUMP JUMPDEST PUSH1 0x40 MLOAD DUP1 SWAP2 SUB SWAP1 RETURN JUMPDEST PUSH2 0x1F2 PUSH1 0x4 DUP1 CALLDATASIZE SUB DUP2 ADD SWAP1 PUSH2 0x1ED SWAP2 SWAP1 PUSH2 0x36F9 JUMP JUMPDEST PUSH2 0x7BB JUMP JUMPDEST PUSH1 0x40 MLOAD PUSH2 0x1FF SWAP2 SWAP1 PUSH2 0x3846 JUMP JUMPDEST PUSH1 0x40 MLOAD DUP1 SWAP2 SUB SWAP1 RETURN JUMPDEST PUSH2 0x222 PUSH1 0x4 DUP1 CALLDATASIZE SUB DUP2 ADD SWAP1 PUSH2 0x21D SWAP2 SWAP1 PUSH2 0x3861 JUMP JUMPDEST PUSH2 0x870 JUMP JUMPDEST PUSH1 0x40 MLOAD PUSH2 0x22F SWAP2 SWAP1 PUSH2 0x38EB JUMP JUMPDEST PUSH1 0x40 MLOAD DUP1 SWAP2 SUB SWAP1 RETURN JUMPDEST PUSH2 0x240 PUSH2 0xB30 JUMP JUMPDEST PUSH1 0x40 MLOAD PUSH2 0x24D SWAP2 SWAP1 PUSH2 0x3BA8 JUMP JUMPDEST PUSH1 0x40 MLOAD DUP1 SWAP2 SUB SWAP1 RETURN JUMPDEST PUSH2 0x270 PUSH1 0x4 DUP1 CALLDATASIZE SUB DUP2 ADD SWAP1 PUSH2 0x26B SWAP2 SWAP1 PUSH2 0x3BCA JUMP JUMPDEST PUSH2 0xD86 JUMP JUMPDEST PUSH1 0x40 MLOAD PUSH2 0x27D SWAP2 SWAP1 PUSH2 0x38EB JUMP JUMPDEST PUSH1 0x40 MLOAD DUP1 SWAP2 SUB SWAP1 RETURN JUMPDEST PUSH2 0x2A0 PUSH1 0x4 DUP1 CALLDATASIZE SUB DUP2 ADD SWAP1 PUSH2 0x29B SWAP2 SWAP1 PUSH2 0x36F9 JUMP JUMPDEST PUSH2 0xEBA JUMP JUMPDEST PUSH1 0x40 MLOAD PUSH2 0x2AD SWAP2 SWAP1 PUSH2 0x3D4F JUMP JUMPDEST PUSH1 0x40 MLOAD DUP1 SWAP2 SUB SWAP1 RETURN JUMPDEST PUSH2 0x2D0 PUSH1 0x4 DUP1 CALLDATASIZE SUB DUP2 ADD SWAP1 PUSH2 0x2CB SWAP2 SWAP1 PUSH2 0x3D71 JUMP JUMPDEST PUSH2 0xF74 JUMP JUMPDEST PUSH1 0x40 MLOAD PUSH2 0x2DD SWAP2 SWAP1 PUSH2 0x36DE JUMP JUMPDEST PUSH1 0x40 MLOAD DUP1 SWAP2 SUB SWAP1 RETURN JUMPDEST PUSH2 0x300 PUSH1 0x4 DUP1 CALLDATASIZE SUB DUP2 ADD SWAP1 PUSH2 0x2FB SWAP2 SWAP1 PUSH2 0x3D71 JUMP JUMPDEST PUSH2 0x1060 JUMP JUMPDEST PUSH1 0x40 MLOAD PUSH2 0x30D SWAP2 SWAP1 PUSH2 0x36DE JUMP JUMPDEST PUSH1 0x40 MLOAD DUP1 SWAP2 SUB SWAP1 RETURN JUMPDEST PUSH2 0x330 PUSH1 0x4 DUP1 CALLDATASIZE SUB DUP2 ADD SWAP1 PUSH2 0x32B SWAP2 SWAP1 PUSH2 0x3D71 JUMP JUMPDEST PUSH2 0x1147 JUMP JUMPDEST PUSH1 0x40 MLOAD PUSH2 0x33D SWAP2 SWAP1 PUSH2 0x36DE JUMP JUMPDEST PUSH1 0x40 MLOAD DUP1 SWAP2 SUB SWAP1 RETURN JUMPDEST PUSH2 0x360 PUSH1 0x4 DUP1 CALLDATASIZE SUB DUP2 ADD SWAP1 PUSH2 0x35B SWAP2 SWAP1 PUSH2 0x3DD6 JUMP JUMPDEST PUSH2 0x131F JUMP JUMPDEST PUSH1 0x40 MLOAD PUSH2 0x36D SWAP2 SWAP1 PUSH2 0x36DE JUMP JUMPDEST PUSH1 0x40 MLOAD DUP1 SWAP2 SUB SWAP1 RETURN JUMPDEST PUSH2 0x390 PUSH1 0x4 DUP1 CALLDATASIZE SUB DUP2 ADD SWAP1 PUSH2 0x38B SWAP2 SWAP1 PUSH2 0x3D71 JUMP JUMPDEST PUSH2 0x14B2 JUMP JUMPDEST PUSH1 0x40 MLOAD PUSH2 0x39D SWAP2 SWAP1 PUSH2 0x36DE JUMP JUMPDEST PUSH1 0x40 MLOAD DUP1 SWAP2 SUB SWAP1 RETURN JUMPDEST PUSH2 0x3C0 PUSH1 0x4 DUP1 CALLDATASIZE SUB DUP2 ADD SWAP1 PUSH2 0x3BB SWAP2 SWAP1 PUSH2 0x36F9 JUMP JUMPDEST PUSH2 0x1599 JUMP JUMPDEST PUSH1 0x40 MLOAD PUSH2 0x3CD SWAP2 SWAP1 PUSH2 0x3F53 JUMP JUMPDEST PUSH1 0x40 MLOAD DUP1 SWAP2 SUB SWAP1 RETURN JUMPDEST PUSH2 0x3DE PUSH2 0x1940 JUMP JUMPDEST STOP JUMPDEST PUSH2 0x3E8 PUSH2 0x1961 JUMP JUMPDEST PUSH1 0x40 MLOAD PUSH2 0x3F5 SWAP2 SWAP1 PUSH2 0x3F84 JUMP JUMPDEST PUSH1 0x40 MLOAD DUP1 SWAP2 SUB SWAP1 RETURN JUMPDEST PUSH2 0x406 PUSH2 0x198A JUMP JUMPDEST PUSH1 0x40 MLOAD PUSH2 0x413 SWAP2 SWAP1 PUSH2 0x40C9 JUMP JUMPDEST PUSH1 0x40 MLOAD DUP1 SWAP2 SUB SWAP1 RETURN JUMPDEST PUSH2 0x436 PUSH1 0x4 DUP1 CALLDATASIZE SUB DUP2 ADD SWAP1 PUSH2 0x431 SWAP2 SWAP1 PUSH2 0x40EB JUMP JUMPDEST PUSH2 0x1B83 JUMP JUMPDEST PUSH1 0x40 MLOAD PUSH2 0x443 SWAP2 SWAP1 PUSH2 0x42C5 JUMP JUMPDEST PUSH1 0x40 MLOAD DUP1 SWAP2 SUB SWAP1 RETURN JUMPDEST PUSH2 0x454 PUSH2 0x1F78 JUMP JUMPDEST PUSH1 0x40 MLOAD PUSH2 0x461 SWAP2 SWAP1 PUSH2 0x36DE JUMP JUMPDEST PUSH1 0x40 MLOAD DUP1 SWAP2 SUB SWAP1 RETURN JUMPDEST PUSH2 0x484 PUSH1 0x4 DUP1 CALLDATASIZE SUB DUP2 ADD SWAP1 PUSH2 0x47F SWAP2 SWAP1 PUSH2 0x42E7 JUMP JUMPDEST PUSH2 0x205A JUMP JUMPDEST PUSH1 0x40 MLOAD PUSH2 0x491 SWAP2 SWAP1 PUSH2 0x36DE JUMP JUMPDEST PUSH1 0x40 MLOAD DUP1 SWAP2 SUB SWAP1 RETURN JUMPDEST PUSH2 0x4A2 PUSH2 0x25AA JUMP JUMPDEST PUSH1 0x40 MLOAD PUSH2 0x4AF SWAP2 SWAP1 PUSH2 0x42C5 JUMP JUMPDEST PUSH1 0x40 MLOAD DUP1 SWAP2 SUB SWAP1 RETURN JUMPDEST PUSH2 0x4D2 PUSH1 0x4 DUP1 CALLDATASIZE SUB DUP2 ADD SWAP1 PUSH2 0x4CD SWAP2 SWAP1 PUSH2 0x4461 JUMP JUMPDEST PUSH2 0x27A8 JUMP JUMPDEST PUSH1 0x40 MLOAD PUSH2 0x4DF SWAP2 SWAP1 PUSH2 0x38EB JUMP JUMPDEST PUSH1 0x40 MLOAD DUP1 SWAP2 SUB SWAP1 RETURN JUMPDEST PUSH2 0x502 PUSH1 0x4 DUP1 CALLDATASIZE SUB DUP2 ADD SWAP1 PUSH2 0x4FD SWAP2 SWAP1 PUSH2 0x458A JUMP JUMPDEST PUSH2 0x2982 JUMP JUMPDEST PUSH1 0x40 MLOAD PUSH2 0x50F SWAP2 SWAP1 PUSH2 0x38EB JUMP JUMPDEST PUSH1 0x40 MLOAD DUP1 SWAP2 SUB SWAP1 RETURN JUMPDEST PUSH2 0x532 PUSH1 0x4 DUP1 CALLDATASIZE SUB DUP2 ADD SWAP1 PUSH2 0x52D SWAP2 SWAP1 PUSH2 0x36F9 JUMP JUMPDEST PUSH2 0x2AD4 JUMP JUMPDEST PUSH1 0x40 MLOAD PUSH2 0x53F SWAP2 SWAP1 PUSH2 0x46D7 JUMP JUMPDEST PUSH1 0x40 MLOAD DUP1 SWAP2 SUB SWAP1 RETURN JUMPDEST PUSH2 0x562 PUSH1 0x4 DUP1 CALLDATASIZE SUB DUP2 ADD SWAP1 PUSH2 0x55D SWAP2 SWAP1 PUSH2 0x458A JUMP JUMPDEST PUSH2 0x2BE6 JUMP JUMPDEST STOP JUMPDEST PUSH2 0x57E PUSH1 0x4 DUP1 CALLDATASIZE SUB DUP2 ADD SWAP1 PUSH2 0x579 SWAP2 SWAP1 PUSH2 0x3D71 JUMP JUMPDEST PUSH2 0x2C69 JUMP JUMPDEST PUSH1 0x40 MLOAD PUSH2 0x58B SWAP2 SWAP1 PUSH2 0x36DE JUMP JUMPDEST PUSH1 0x40 MLOAD DUP1 SWAP2 SUB SWAP1 RETURN JUMPDEST PUSH1 0x0 PUSH2 0x59E PUSH2 0x1F78 JUMP JUMPDEST ISZERO PUSH2 0x5DE JUMPI PUSH1 0x40 MLOAD PUSH32 0x8C379A000000000000000000000000000000000000000000000000000000000 DUP2 MSTORE PUSH1 0x4 ADD PUSH2 0x5D5 SWAP1 PUSH2 0x477C JUMP JUMPDEST PUSH1 0x40 MLOAD DUP1 SWAP2 SUB SWAP1 REVERT JUMPDEST PUSH1 0x0 CALLER SWAP1 POP PUSH1 0x0 PUSH1 0x40 MLOAD DUP1 PUSH2 0x160 ADD PUSH1 0x40 MSTORE DUP1 DUP14 DUP2 MSTORE PUSH1 0x20 ADD PUSH1 0x0 DUP2 MSTORE PUSH1 0x20 ADD DUP4 PUSH20 0xFFFFFFFFFFFFFFFFFFFFFFFFFFFFFFFFFFFFFFFF AND DUP2 MSTORE PUSH1 0x20 ADD DUP13 DUP2 MSTORE PUSH1 0x20 ADD DUP12 DUP2 MSTORE PUSH1 0x20 ADD DUP11 DUP2 MSTORE PUSH1 0x20 ADD DUP10 DUP2 MSTORE PUSH1 0x20 ADD DUP9 DUP2 MSTORE PUSH1 0x20 ADD DUP8 DUP2 MSTORE PUSH1 0x20 ADD DUP7 DUP2 MSTORE PUSH1 0x20 ADD DUP6 DUP2 MSTORE POP SWAP1 POP PUSH2 0x652 PUSH2 0x2DF9 JUMP JUMPDEST PUSH20 0xFFFFFFFFFFFFFFFFFFFFFFFFFFFFFFFFFFFFFFFF AND PUSH4 0x4A28C07 DUP3 PUSH32 0x8E1604A838D0F1A9B2CDA14A099E4CEB08E966CC6E05E8296F67B02D61A79F09 PUSH1 0x0 SHL PUSH1 0x40 MLOAD DUP4 PUSH4 0xFFFFFFFF AND PUSH1 0xE0 SHL DUP2 MSTORE PUSH1 0x4 ADD PUSH2 0x6AF SWAP3 SWAP2 SWAP1 PUSH2 0x47B5 JUMP JUMPDEST PUSH1 0x20 PUSH1 0x40 MLOAD DUP1 DUP4 SUB DUP2 PUSH1 0x0 DUP8 GAS CALL ISZERO DUP1 ISZERO PUSH2 0x6CE JUMPI RETURNDATASIZE PUSH1 0x0 DUP1 RETURNDATACOPY RETURNDATASIZE PUSH1 0x0 REVERT JUMPDEST POP POP POP POP PUSH1 0x40 MLOAD RETURNDATASIZE PUSH1 0x1F NOT PUSH1 0x1F DUP3 ADD AND DUP3 ADD DUP1 PUSH1 0x40 MSTORE POP DUP2 ADD SWAP1 PUSH2 0x6F2 SWAP2 SWAP1 PUSH2 0x4811 JUMP JUMPDEST POP PUSH1 0x1 SWAP3 POP POP POP SWAP10 SWAP9 POP POP POP POP POP POP POP POP POP JUMP JUMPDEST PUSH2 0x70E PUSH2 0x3256 JUMP JUMPDEST PUSH2 0x716 PUSH2 0x2E23 JUMP JUMPDEST PUSH20 0xFFFFFFFFFFFFFFFFFFFFFFFFFFFFFFFFFFFFFFFF AND PUSH4 0xC78A6741 DUP4 PUSH32 0x8E1604A838D0F1A9B2CDA14A099E4CEB08E966CC6E05E8296F67B02D61A79F09 PUSH1 0x0 SHL PUSH1 0x40 MLOAD DUP4 PUSH4 0xFFFFFFFF AND PUSH1 0xE0 SHL DUP2 MSTORE PUSH1 0x4 ADD PUSH2 0x773 SWAP3 SWAP2 SWAP1 PUSH2 0x483E JUMP JUMPDEST PUSH1 0xC0 PUSH1 0x40 MLOAD DUP1 DUP4 SUB DUP2 DUP7 GAS STATICCALL ISZERO DUP1 ISZERO PUSH2 0x790 JUMPI RETURNDATASIZE PUSH1 0x0 DUP1 RETURNDATACOPY RETURNDATASIZE PUSH1 0x0 REVERT JUMPDEST POP POP POP POP PUSH1 0x40 MLOAD RETURNDATASIZE PUSH1 0x1F NOT PUSH1 0x1F DUP3 ADD AND DUP3 ADD DUP1 PUSH1 0x40 MSTORE POP DUP2 ADD SWAP1 PUSH2 0x7B4 SWAP2 SWAP1 PUSH2 0x4926 JUMP JUMPDEST SWAP1 POP SWAP2 SWAP1 POP JUMP JUMPDEST PUSH2 0x7C3 PUSH2 0x328C JUMP JUMPDEST PUSH2 0x7CB PUSH2 0x2E4D JUMP JUMPDEST PUSH20 0xFFFFFFFFFFFFFFFFFFFFFFFFFFFFFFFFFFFFFFFF AND PUSH4 0xC78A6741 DUP4 PUSH32 0x8E1604A838D0F1A9B2CDA14A099E4CEB08E966CC6E05E8296F67B02D61A79F09 PUSH1 0x0 SHL PUSH1 0x40 MLOAD DUP4 PUSH4 0xFFFFFFFF AND PUSH1 0xE0 SHL DUP2 MSTORE PUSH1 0x4 ADD PUSH2 0x828 SWAP3 SWAP2 SWAP1 PUSH2 0x483E JUMP JUMPDEST PUSH1 0xC0 PUSH1 0x40 MLOAD DUP1 DUP4 SUB DUP2 DUP7 GAS STATICCALL ISZERO DUP1 ISZERO PUSH2 0x845 JUMPI RETURNDATASIZE PUSH1 0x0 DUP1 RETURNDATACOPY RETURNDATASIZE PUSH1 0x0 REVERT JUMPDEST POP POP POP POP PUSH1 0x40 MLOAD RETURNDATASIZE PUSH1 0x1F NOT PUSH1 0x1F DUP3 ADD AND DUP3 ADD DUP1 PUSH1 0x40 MSTORE POP DUP2 ADD SWAP1 PUSH2 0x869 SWAP2 SWAP1 PUSH2 0x49F3 JUMP JUMPDEST SWAP1 POP SWAP2 SWAP1 POP JUMP JUMPDEST PUSH1 0x0 DUP4 PUSH2 0x87B PUSH2 0x1F78 JUMP JUMPDEST PUSH2 0x8BA JUMPI PUSH1 0x40 MLOAD PUSH32 0x8C379A000000000000000000000000000000000000000000000000000000000 DUP2 MSTORE PUSH1 0x4 ADD PUSH2 0x8B1 SWAP1 PUSH2 0x477C JUMP JUMPDEST PUSH1 0x40 MLOAD DUP1 SWAP2 SUB SWAP1 REVERT JUMPDEST PUSH2 0x8C3 DUP2 PUSH2 0x2E77 JUMP JUMPDEST PUSH2 0x902 JUMPI PUSH1 0x40 MLOAD PUSH32 0x8C379A000000000000000000000000000000000000000000000000000000000 DUP2 MSTORE PUSH1 0x4 ADD PUSH2 0x8F9 SWAP1 PUSH2 0x4A92 JUMP JUMPDEST PUSH1 0x40 MLOAD DUP1 SWAP2 SUB SWAP1 REVERT JUMPDEST DUP5 DUP8 PUSH2 0x90E DUP3 DUP3 PUSH2 0xF74 JUMP JUMPDEST PUSH2 0x94D JUMPI PUSH1 0x40 MLOAD PUSH32 0x8C379A000000000000000000000000000000000000000000000000000000000 DUP2 MSTORE PUSH1 0x4 ADD PUSH2 0x944 SWAP1 PUSH2 0x4B24 JUMP JUMPDEST PUSH1 0x40 MLOAD DUP1 SWAP2 SUB SWAP1 REVERT JUMPDEST DUP9 DUP7 PUSH2 0x959 DUP3 DUP3 PUSH2 0x1060 JUMP JUMPDEST PUSH2 0x998 JUMPI PUSH1 0x40 MLOAD PUSH32 0x8C379A000000000000000000000000000000000000000000000000000000000 DUP2 MSTORE PUSH1 0x4 ADD PUSH2 0x98F SWAP1 PUSH2 0x4BB6 JUMP JUMPDEST PUSH1 0x40 MLOAD DUP1 SWAP2 SUB SWAP1 REVERT JUMPDEST PUSH2 0x9A0 PUSH2 0x2E23 JUMP JUMPDEST PUSH20 0xFFFFFFFFFFFFFFFFFFFFFFFFFFFFFFFFFFFFFFFF AND PUSH4 0xCA99AFCE DUP10 PUSH32 0x8E1604A838D0F1A9B2CDA14A099E4CEB08E966CC6E05E8296F67B02D61A79F09 PUSH1 0x0 SHL PUSH1 0x1 PUSH1 0x40 MLOAD DUP5 PUSH4 0xFFFFFFFF AND PUSH1 0xE0 SHL DUP2 MSTORE PUSH1 0x4 ADD PUSH2 0xA00 SWAP4 SWAP3 SWAP2 SWAP1 PUSH2 0x4C1B JUMP JUMPDEST PUSH1 0x20 PUSH1 0x40 MLOAD DUP1 DUP4 SUB DUP2 PUSH1 0x0 DUP8 GAS CALL ISZERO DUP1 ISZERO PUSH2 0xA1F JUMPI RETURNDATASIZE PUSH1 0x0 DUP1 RETURNDATACOPY RETURNDATASIZE PUSH1 0x0 REVERT JUMPDEST POP POP POP POP PUSH1 0x40 MLOAD RETURNDATASIZE PUSH1 0x1F NOT PUSH1 0x1F DUP3 ADD AND DUP3 ADD DUP1 PUSH1 0x40 MSTORE POP DUP2 ADD SWAP1 PUSH2 0xA43 SWAP2 SWAP1 PUSH2 0x4811 JUMP JUMPDEST POP PUSH1 0x0 PUSH1 0x40 MLOAD DUP1 PUSH1 0xC0 ADD PUSH1 0x40 MSTORE DUP1 PUSH1 0x0 DUP2 MSTORE PUSH1 0x20 ADD DUP11 DUP2 MSTORE PUSH1 0x20 ADD DUP13 DUP2 MSTORE PUSH1 0x20 ADD DUP12 DUP2 MSTORE PUSH1 0x20 ADD DUP10 DUP2 MSTORE PUSH1 0x20 ADD PUSH1 0x1 DUP2 MSTORE POP SWAP1 POP PUSH2 0xA7F PUSH2 0x2E4D JUMP JUMPDEST PUSH20 0xFFFFFFFFFFFFFFFFFFFFFFFFFFFFFFFFFFFFFFFF AND PUSH4 0xE155E532 DUP3 PUSH32 0x8E1604A838D0F1A9B2CDA14A099E4CEB08E966CC6E05E8296F67B02D61A79F09 PUSH1 0x0 SHL PUSH1 0x40 MLOAD DUP4 PUSH4 0xFFFFFFFF AND PUSH1 0xE0 SHL DUP2 MSTORE PUSH1 0x4 ADD PUSH2 0xADC SWAP3 SWAP2 SWAP1 PUSH2 0x4C52 JUMP JUMPDEST PUSH1 0x20 PUSH1 0x40 MLOAD DUP1 DUP4 SUB DUP2 PUSH1 0x0 DUP8 GAS CALL ISZERO DUP1 ISZERO PUSH2 0xAFB JUMPI RETURNDATASIZE PUSH1 0x0 DUP1 RETURNDATACOPY RETURNDATASIZE PUSH1 0x0 REVERT JUMPDEST POP POP POP POP PUSH1 0x40 MLOAD RETURNDATASIZE PUSH1 0x1F NOT PUSH1 0x1F DUP3 ADD AND DUP3 ADD DUP1 PUSH1 0x40 MSTORE POP DUP2 ADD SWAP1 PUSH2 0xB1F SWAP2 SWAP1 PUSH2 0x4C7B JUMP JUMPDEST SWAP7 POP POP POP POP POP POP POP SWAP6 SWAP5 POP POP POP POP POP JUMP JUMPDEST PUSH1 0x60 PUSH1 0x0 PUSH2 0xB3C PUSH2 0x2DF9 JUMP JUMPDEST PUSH20 0xFFFFFFFFFFFFFFFFFFFFFFFFFFFFFFFFFFFFFFFF AND PUSH4 0xFD82E9DD PUSH32 0x8E1604A838D0F1A9B2CDA14A099E4CEB08E966CC6E05E8296F67B02D61A79F09 PUSH1 0x0 SHL PUSH1 0x40 MLOAD DUP3 PUSH4 0xFFFFFFFF AND PUSH1 0xE0 SHL DUP2 MSTORE PUSH1 0x4 ADD PUSH2 0xB97 SWAP2 SWAP1 PUSH2 0x4CA8 JUMP JUMPDEST PUSH1 0x20 PUSH1 0x40 MLOAD DUP1 DUP4 SUB DUP2 DUP7 GAS STATICCALL ISZERO DUP1 ISZERO PUSH2 0xBB4 JUMPI RETURNDATASIZE PUSH1 0x0 DUP1 RETURNDATACOPY RETURNDATASIZE PUSH1 0x0 REVERT JUMPDEST POP POP POP POP PUSH1 0x40 MLOAD RETURNDATASIZE PUSH1 0x1F NOT PUSH1 0x1F DUP3 ADD AND DUP3 ADD DUP1 PUSH1 0x40 MSTORE POP DUP2 ADD SWAP1 PUSH2 0xBD8 SWAP2 SWAP1 PUSH2 0x4C7B JUMP JUMPDEST SWAP1 POP PUSH1 0x0 DUP2 PUSH8 0xFFFFFFFFFFFFFFFF DUP2 GT ISZERO PUSH2 0xBF6 JUMPI PUSH2 0xBF5 PUSH2 0x33EE JUMP JUMPDEST JUMPDEST PUSH1 0x40 MLOAD SWAP1 DUP1 DUP3 MSTORE DUP1 PUSH1 0x20 MUL PUSH1 0x20 ADD DUP3 ADD PUSH1 0x40 MSTORE DUP1 ISZERO PUSH2 0xC2F JUMPI DUP2 PUSH1 0x20 ADD JUMPDEST PUSH2 0xC1C PUSH2 0x32C2 JUMP JUMPDEST DUP2 MSTORE PUSH1 0x20 ADD SWAP1 PUSH1 0x1 SWAP1 SUB SWAP1 DUP2 PUSH2 0xC14 JUMPI SWAP1 POP JUMPDEST POP SWAP1 POP PUSH1 0x0 JUMPDEST DUP3 DUP2 LT ISZERO PUSH2 0xD7D JUMPI PUSH1 0x0 PUSH2 0xC47 PUSH2 0x2DF9 JUMP JUMPDEST PUSH20 0xFFFFFFFFFFFFFFFFFFFFFFFFFFFFFFFFFFFFFFFF AND PUSH4 0xC78A6741 PUSH1 0x1 DUP5 PUSH2 0xC6F SWAP2 SWAP1 PUSH2 0x4CF2 JUMP JUMPDEST PUSH32 0x8E1604A838D0F1A9B2CDA14A099E4CEB08E966CC6E05E8296F67B02D61A79F09 PUSH1 0x0 SHL PUSH1 0x40 MLOAD DUP4 PUSH4 0xFFFFFFFF AND PUSH1 0xE0 SHL DUP2 MSTORE PUSH1 0x4 ADD PUSH2 0xCB0 SWAP3 SWAP2 SWAP1 PUSH2 0x483E JUMP JUMPDEST PUSH1 0x0 PUSH1 0x40 MLOAD DUP1 DUP4 SUB DUP2 DUP7 GAS STATICCALL ISZERO DUP1 ISZERO PUSH2 0xCCD JUMPI RETURNDATASIZE PUSH1 0x0 DUP1 RETURNDATACOPY RETURNDATASIZE PUSH1 0x0 REVERT JUMPDEST POP POP POP POP PUSH1 0x40 MLOAD RETURNDATASIZE PUSH1 0x0 DUP3 RETURNDATACOPY RETURNDATASIZE PUSH1 0x1F NOT PUSH1 0x1F DUP3 ADD AND DUP3 ADD DUP1 PUSH1 0x40 MSTORE POP DUP2 ADD SWAP1 PUSH2 0xCF6 SWAP2 SWAP1 PUSH2 0x4F97 JUMP JUMPDEST SWAP1 POP PUSH1 0x0 DUP2 PUSH1 0x40 ADD SWAP1 PUSH20 0xFFFFFFFFFFFFFFFFFFFFFFFFFFFFFFFFFFFFFFFF AND SWAP1 DUP2 PUSH20 0xFFFFFFFFFFFFFFFFFFFFFFFFFFFFFFFFFFFFFFFF AND DUP2 MSTORE POP POP PUSH1 0x40 MLOAD DUP1 PUSH1 0x20 ADD PUSH1 0x40 MSTORE DUP1 PUSH1 0x0 DUP2 MSTORE POP DUP2 PUSH2 0x140 ADD DUP2 SWAP1 MSTORE POP DUP1 DUP4 DUP4 DUP2 MLOAD DUP2 LT PUSH2 0xD5E JUMPI PUSH2 0xD5D PUSH2 0x4FE0 JUMP JUMPDEST JUMPDEST PUSH1 0x20 MUL PUSH1 0x20 ADD ADD DUP2 SWAP1 MSTORE POP POP DUP1 DUP1 PUSH2 0xD75 SWAP1 PUSH2 0x500F JUMP JUMPDEST SWAP2 POP POP PUSH2 0xC35 JUMP JUMPDEST POP DUP1 SWAP3 POP POP POP SWAP1 JUMP JUMPDEST PUSH1 0x0 PUSH2 0xD90 PUSH2 0x1F78 JUMP JUMPDEST PUSH2 0xDCF JUMPI PUSH1 0x40 MLOAD PUSH32 0x8C379A000000000000000000000000000000000000000000000000000000000 DUP2 MSTORE PUSH1 0x4 ADD PUSH2 0xDC6 SWAP1 PUSH2 0x50C9 JUMP JUMPDEST PUSH1 0x40 MLOAD DUP1 SWAP2 SUB SWAP1 REVERT JUMPDEST PUSH1 0x0 CALLER SWAP1 POP PUSH1 0x0 PUSH2 0xDDE PUSH2 0x2DF9 JUMP JUMPDEST PUSH20 0xFFFFFFFFFFFFFFFFFFFFFFFFFFFFFFFFFFFFFFFF AND PUSH4 0x236DF93C DUP4 PUSH32 0x8E1604A838D0F1A9B2CDA14A099E4CEB08E966CC6E05E8296F67B02D61A79F09 PUSH1 0x0 SHL PUSH1 0x40 MLOAD DUP4 PUSH4 0xFFFFFFFF AND PUSH1 0xE0 SHL DUP2 MSTORE PUSH1 0x4 ADD PUSH2 0xE3B SWAP3 SWAP2 SWAP1 PUSH2 0x50E9 JUMP JUMPDEST PUSH1 0x0 PUSH1 0x40 MLOAD DUP1 DUP4 SUB DUP2 DUP7 GAS STATICCALL ISZERO DUP1 ISZERO PUSH2 0xE58 JUMPI RETURNDATASIZE PUSH1 0x0 DUP1 RETURNDATACOPY RETURNDATASIZE PUSH1 0x0 REVERT JUMPDEST POP POP POP POP PUSH1 0x40 MLOAD RETURNDATASIZE PUSH1 0x0 DUP3 RETURNDATACOPY RETURNDATASIZE PUSH1 0x1F NOT PUSH1 0x1F DUP3 ADD AND DUP3 ADD DUP1 PUSH1 0x40 MSTORE POP DUP2 ADD SWAP1 PUSH2 0xE81 SWAP2 SWAP1 PUSH2 0x4F97 JUMP JUMPDEST SWAP1 POP PUSH2 0xE9B DUP5 DUP3 PUSH2 0x140 ADD MLOAD PUSH2 0x2F58 SWAP1 SWAP2 SWAP1 PUSH4 0xFFFFFFFF AND JUMP JUMPDEST ISZERO PUSH2 0xEAE JUMPI DUP1 PUSH1 0x20 ADD MLOAD SWAP3 POP POP POP PUSH2 0xEB5 JUMP JUMPDEST PUSH1 0x0 SWAP3 POP POP POP JUMPDEST SWAP2 SWAP1 POP JUMP JUMPDEST PUSH2 0xEC2 PUSH2 0x3332 JUMP JUMPDEST PUSH2 0xECA PUSH2 0x2FC1 JUMP JUMPDEST PUSH20 0xFFFFFFFFFFFFFFFFFFFFFFFFFFFFFFFFFFFFFFFF AND PUSH4 0xC78A6741 DUP4 PUSH32 0x8E1604A838D0F1A9B2CDA14A099E4CEB08E966CC6E05E8296F67B02D61A79F09 PUSH1 0x0 SHL PUSH1 0x40 MLOAD DUP4 PUSH4 0xFFFFFFFF AND PUSH1 0xE0 SHL DUP2 MSTORE PUSH1 0x4 ADD PUSH2 0xF27 SWAP3 SWAP2 SWAP1 PUSH2 0x483E JUMP JUMPDEST PUSH1 0x0 PUSH1 0x40 MLOAD DUP1 DUP4 SUB DUP2 DUP7 GAS STATICCALL ISZERO DUP1 ISZERO PUSH2 0xF44 JUMPI RETURNDATASIZE PUSH1 0x0 DUP1 RETURNDATACOPY RETURNDATASIZE PUSH1 0x0 REVERT JUMPDEST POP POP POP POP PUSH1 0x40 MLOAD RETURNDATASIZE PUSH1 0x0 DUP3 RETURNDATACOPY RETURNDATASIZE PUSH1 0x1F NOT PUSH1 0x1F DUP3 ADD AND DUP3 ADD DUP1 PUSH1 0x40 MSTORE POP DUP2 ADD SWAP1 PUSH2 0xF6D SWAP2 SWAP1 PUSH2 0x5261 JUMP JUMPDEST SWAP1 POP SWAP2 SWAP1 POP JUMP JUMPDEST PUSH1 0x0 DUP1 PUSH1 0x3 PUSH1 0x0 SWAP1 SLOAD SWAP1 PUSH2 0x100 EXP SWAP1 DIV PUSH20 0xFFFFFFFFFFFFFFFFFFFFFFFFFFFFFFFFFFFFFFFF AND PUSH20 0xFFFFFFFFFFFFFFFFFFFFFFFFFFFFFFFFFFFFFFFF AND PUSH4 0xC78A6741 DUP5 PUSH32 0x8E1604A838D0F1A9B2CDA14A099E4CEB08E966CC6E05E8296F67B02D61A79F09 PUSH1 0x0 SHL PUSH1 0x40 MLOAD DUP4 PUSH4 0xFFFFFFFF AND PUSH1 0xE0 SHL DUP2 MSTORE PUSH1 0x4 ADD PUSH2 0xFF7 SWAP3 SWAP2 SWAP1 PUSH2 0x483E JUMP JUMPDEST PUSH1 0x0 PUSH1 0x40 MLOAD DUP1 DUP4 SUB DUP2 DUP7 GAS STATICCALL ISZERO DUP1 ISZERO PUSH2 0x1014 JUMPI RETURNDATASIZE PUSH1 0x0 DUP1 RETURNDATACOPY RETURNDATASIZE PUSH1 0x0 REVERT JUMPDEST POP POP POP POP PUSH1 0x40 MLOAD RETURNDATASIZE PUSH1 0x0 DUP3 RETURNDATACOPY RETURNDATASIZE PUSH1 0x1F NOT PUSH1 0x1F DUP3 ADD AND DUP3 ADD DUP1 PUSH1 0x40 MSTORE POP DUP2 ADD SWAP1 PUSH2 0x103D SWAP2 SWAP1 PUSH2 0x5261 JUMP JUMPDEST PUSH1 0x0 ADD MLOAD SWAP1 POP DUP4 DUP2 SUB PUSH2 0x1054 JUMPI PUSH1 0x1 SWAP2 POP POP PUSH2 0x105A JUMP JUMPDEST PUSH1 0x0 SWAP2 POP POP JUMPDEST SWAP3 SWAP2 POP POP JUMP JUMPDEST PUSH1 0x0 DUP1 PUSH1 0x5 PUSH1 0x0 SWAP1 SLOAD SWAP1 PUSH2 0x100 EXP SWAP1 DIV PUSH20 0xFFFFFFFFFFFFFFFFFFFFFFFFFFFFFFFFFFFFFFFF AND PUSH20 0xFFFFFFFFFFFFFFFFFFFFFFFFFFFFFFFFFFFFFFFF AND PUSH4 0xC78A6741 DUP5 PUSH32 0x8E1604A838D0F1A9B2CDA14A099E4CEB08E966CC6E05E8296F67B02D61A79F09 PUSH1 0x0 SHL PUSH1 0x40 MLOAD DUP4 PUSH4 0xFFFFFFFF AND PUSH1 0xE0 SHL DUP2 MSTORE PUSH1 0x4 ADD PUSH2 0x10E3 SWAP3 SWAP2 SWAP1 PUSH2 0x483E JUMP JUMPDEST PUSH1 0xC0 PUSH1 0x40 MLOAD DUP1 DUP4 SUB DUP2 DUP7 GAS STATICCALL ISZERO DUP1 ISZERO PUSH2 0x1100 JUMPI RETURNDATASIZE PUSH1 0x0 DUP1 RETURNDATACOPY RETURNDATASIZE PUSH1 0x0 REVERT JUMPDEST POP POP POP POP PUSH1 0x40 MLOAD RETURNDATASIZE PUSH1 0x1F NOT PUSH1 0x1F DUP3 ADD AND DUP3 ADD DUP1 PUSH1 0x40 MSTORE POP DUP2 ADD SWAP1 PUSH2 0x1124 SWAP2 SWAP1 PUSH2 0x4926 JUMP JUMPDEST PUSH1 0x60 ADD MLOAD SWAP1 POP DUP1 DUP5 SUB PUSH2 0x113B JUMPI PUSH1 0x1 SWAP2 POP POP PUSH2 0x1141 JUMP JUMPDEST PUSH1 0x0 SWAP2 POP POP JUMPDEST SWAP3 SWAP2 POP POP JUMP JUMPDEST PUSH1 0x0 DUP1 PUSH1 0x1 SWAP1 POP JUMPDEST PUSH1 0x5 PUSH1 0x0 SWAP1 SLOAD SWAP1 PUSH2 0x100 EXP SWAP1 DIV PUSH20 0xFFFFFFFFFFFFFFFFFFFFFFFFFFFFFFFFFFFFFFFF AND PUSH20 0xFFFFFFFFFFFFFFFFFFFFFFFFFFFFFFFFFFFFFFFF AND PUSH4 0xFD82E9DD PUSH32 0x8E1604A838D0F1A9B2CDA14A099E4CEB08E966CC6E05E8296F67B02D61A79F09 PUSH1 0x0 SHL PUSH1 0x40 MLOAD DUP3 PUSH4 0xFFFFFFFF AND PUSH1 0xE0 SHL DUP2 MSTORE PUSH1 0x4 ADD PUSH2 0x11CD SWAP2 SWAP1 PUSH2 0x4CA8 JUMP JUMPDEST PUSH1 0x20 PUSH1 0x40 MLOAD DUP1 DUP4 SUB DUP2 DUP7 GAS STATICCALL ISZERO DUP1 ISZERO PUSH2 0x11EA JUMPI RETURNDATASIZE PUSH1 0x0 DUP1 RETURNDATACOPY RETURNDATASIZE PUSH1 0x0 REVERT JUMPDEST POP POP POP POP PUSH1 0x40 MLOAD RETURNDATASIZE PUSH1 0x1F NOT PUSH1 0x1F DUP3 ADD AND DUP3 ADD DUP1 PUSH1 0x40 MSTORE POP DUP2 ADD SWAP1 PUSH2 0x120E SWAP2 SWAP1 PUSH2 0x4C7B JUMP JUMPDEST DUP2 GT PUSH2 0x1313 JUMPI PUSH1 0x0 PUSH1 0x5 PUSH1 0x0 SWAP1 SLOAD SWAP1 PUSH2 0x100 EXP SWAP1 DIV PUSH20 0xFFFFFFFFFFFFFFFFFFFFFFFFFFFFFFFFFFFFFFFF AND PUSH20 0xFFFFFFFFFFFFFFFFFFFFFFFFFFFFFFFFFFFFFFFF AND PUSH4 0xC78A6741 DUP4 PUSH32 0x8E1604A838D0F1A9B2CDA14A099E4CEB08E966CC6E05E8296F67B02D61A79F09 PUSH1 0x0 SHL PUSH1 0x40 MLOAD DUP4 PUSH4 0xFFFFFFFF AND PUSH1 0xE0 SHL DUP2 MSTORE PUSH1 0x4 ADD PUSH2 0x1296 SWAP3 SWAP2 SWAP1 PUSH2 0x483E JUMP JUMPDEST PUSH1 0xC0 PUSH1 0x40 MLOAD DUP1 DUP4 SUB DUP2 DUP7 GAS STATICCALL ISZERO DUP1 ISZERO PUSH2 0x12B3 JUMPI RETURNDATASIZE PUSH1 0x0 DUP1 RETURNDATACOPY RETURNDATASIZE PUSH1 0x0 REVERT JUMPDEST POP POP POP POP PUSH1 0x40 MLOAD RETURNDATASIZE PUSH1 0x1F NOT PUSH1 0x1F DUP3 ADD AND DUP3 ADD DUP1 PUSH1 0x40 MSTORE POP DUP2 ADD SWAP1 PUSH2 0x12D7 SWAP2 SWAP1 PUSH2 0x4926 JUMP JUMPDEST SWAP1 POP DUP5 DUP2 PUSH1 0x20 ADD MLOAD EQ DUP1 ISZERO PUSH2 0x12EF JUMPI POP DUP4 DUP2 PUSH1 0x60 ADD MLOAD EQ JUMPDEST ISZERO PUSH2 0x12FF JUMPI PUSH1 0x1 SWAP3 POP POP POP PUSH2 0x1319 JUMP JUMPDEST POP DUP1 DUP1 PUSH2 0x130B SWAP1 PUSH2 0x500F JUMP JUMPDEST SWAP2 POP POP PUSH2 0x114F JUMP JUMPDEST POP PUSH1 0x0 SWAP1 POP JUMPDEST SWAP3 SWAP2 POP POP JUMP JUMPDEST PUSH1 0x0 DUP4 DUP4 PUSH2 0x132D DUP3 DUP3 PUSH2 0xF74 JUMP JUMPDEST PUSH2 0x136C JUMPI PUSH1 0x40 MLOAD PUSH32 0x8C379A000000000000000000000000000000000000000000000000000000000 DUP2 MSTORE PUSH1 0x4 ADD PUSH2 0x1363 SWAP1 PUSH2 0x4B24 JUMP JUMPDEST PUSH1 0x40 MLOAD DUP1 SWAP2 SUB SWAP1 REVERT JUMPDEST DUP6 PUSH2 0x1375 PUSH2 0x1F78 JUMP JUMPDEST PUSH2 0x13B4 JUMPI PUSH1 0x40 MLOAD PUSH32 0x8C379A000000000000000000000000000000000000000000000000000000000 DUP2 MSTORE PUSH1 0x4 ADD PUSH2 0x13AB SWAP1 PUSH2 0x477C JUMP JUMPDEST PUSH1 0x40 MLOAD DUP1 SWAP2 SUB SWAP1 REVERT JUMPDEST PUSH2 0x13BD DUP2 PUSH2 0x2E77 JUMP JUMPDEST PUSH2 0x13FC JUMPI PUSH1 0x40 MLOAD PUSH32 0x8C379A000000000000000000000000000000000000000000000000000000000 DUP2 MSTORE PUSH1 0x4 ADD PUSH2 0x13F3 SWAP1 PUSH2 0x4A92 JUMP JUMPDEST PUSH1 0x40 MLOAD DUP1 SWAP2 SUB SWAP1 REVERT JUMPDEST PUSH2 0x1404 PUSH2 0x2FC1 JUMP JUMPDEST PUSH20 0xFFFFFFFFFFFFFFFFFFFFFFFFFFFFFFFFFFFFFFFF AND PUSH4 0x4F71735B DUP8 PUSH32 0x8E1604A838D0F1A9B2CDA14A099E4CEB08E966CC6E05E8296F67B02D61A79F09 PUSH1 0x0 SHL DUP9 PUSH1 0x40 MLOAD DUP5 PUSH4 0xFFFFFFFF AND PUSH1 0xE0 SHL DUP2 MSTORE PUSH1 0x4 ADD PUSH2 0x1463 SWAP4 SWAP3 SWAP2 SWAP1 PUSH2 0x52B9 JUMP JUMPDEST PUSH1 0x20 PUSH1 0x40 MLOAD DUP1 DUP4 SUB DUP2 PUSH1 0x0 DUP8 GAS CALL ISZERO DUP1 ISZERO PUSH2 0x1482 JUMPI RETURNDATASIZE PUSH1 0x0 DUP1 RETURNDATACOPY RETURNDATASIZE PUSH1 0x0 REVERT JUMPDEST POP POP POP POP PUSH1 0x40 MLOAD RETURNDATASIZE PUSH1 0x1F NOT PUSH1 0x1F DUP3 ADD AND DUP3 ADD DUP1 PUSH1 0x40 MSTORE POP DUP2 ADD SWAP1 PUSH2 0x14A6 SWAP2 SWAP1 PUSH2 0x4811 JUMP JUMPDEST SWAP4 POP POP POP POP SWAP4 SWAP3 POP POP POP JUMP JUMPDEST PUSH1 0x0 DUP1 PUSH1 0x5 PUSH1 0x0 SWAP1 SLOAD SWAP1 PUSH2 0x100 EXP SWAP1 DIV PUSH20 0xFFFFFFFFFFFFFFFFFFFFFFFFFFFFFFFFFFFFFFFF AND PUSH20 0xFFFFFFFFFFFFFFFFFFFFFFFFFFFFFFFFFFFFFFFF AND PUSH4 0xC78A6741 DUP5 PUSH32 0x8E1604A838D0F1A9B2CDA14A099E4CEB08E966CC6E05E8296F67B02D61A79F09 PUSH1 0x0 SHL PUSH1 0x40 MLOAD DUP4 PUSH4 0xFFFFFFFF AND PUSH1 0xE0 SHL DUP2 MSTORE PUSH1 0x4 ADD PUSH2 0x1535 SWAP3 SWAP2 SWAP1 PUSH2 0x483E JUMP JUMPDEST PUSH1 0xC0 PUSH1 0x40 MLOAD DUP1 DUP4 SUB DUP2 DUP7 GAS STATICCALL ISZERO DUP1 ISZERO PUSH2 0x1552 JUMPI RETURNDATASIZE PUSH1 0x0 DUP1 RETURNDATACOPY RETURNDATASIZE PUSH1 0x0 REVERT JUMPDEST POP POP POP POP PUSH1 0x40 MLOAD RETURNDATASIZE PUSH1 0x1F NOT PUSH1 0x1F DUP3 ADD AND DUP3 ADD DUP1 PUSH1 0x40 MSTORE POP DUP2 ADD SWAP1 PUSH2 0x1576 SWAP2 SWAP1 PUSH2 0x4926 JUMP JUMPDEST PUSH1 0x20 ADD MLOAD SWAP1 POP DUP1 DUP5 SUB PUSH2 0x158D JUMPI PUSH1 0x1 SWAP2 POP POP PUSH2 0x1593 JUMP JUMPDEST PUSH1 0x0 SWAP2 POP POP JUMPDEST SWAP3 SWAP2 POP POP JUMP JUMPDEST PUSH1 0x60 PUSH1 0x0 DUP1 PUSH1 0x1 SWAP1 POP JUMPDEST PUSH2 0x15AB PUSH2 0x2E23 JUMP JUMPDEST PUSH20 0xFFFFFFFFFFFFFFFFFFFFFFFFFFFFFFFFFFFFFFFF AND PUSH4 0xFD82E9DD PUSH32 0x8E1604A838D0F1A9B2CDA14A099E4CEB08E966CC6E05E8296F67B02D61A79F09 PUSH1 0x0 SHL PUSH1 0x40 MLOAD DUP3 PUSH4 0xFFFFFFFF AND PUSH1 0xE0 SHL DUP2 MSTORE PUSH1 0x4 ADD PUSH2 0x1606 SWAP2 SWAP1 PUSH2 0x4CA8 JUMP JUMPDEST PUSH1 0x20 PUSH1 0x40 MLOAD DUP1 DUP4 SUB DUP2 DUP7 GAS STATICCALL ISZERO DUP1 ISZERO PUSH2 0x1623 JUMPI RETURNDATASIZE PUSH1 0x0 DUP1 RETURNDATACOPY RETURNDATASIZE PUSH1 0x0 REVERT JUMPDEST POP POP POP POP PUSH1 0x40 MLOAD RETURNDATASIZE PUSH1 0x1F NOT PUSH1 0x1F DUP3 ADD AND DUP3 ADD DUP1 PUSH1 0x40 MSTORE POP DUP2 ADD SWAP1 PUSH2 0x1647 SWAP2 SWAP1 PUSH2 0x4C7B JUMP JUMPDEST DUP2 GT PUSH2 0x1725 JUMPI PUSH1 0x0 PUSH2 0x1657 PUSH2 0x2E23 JUMP JUMPDEST PUSH20 0xFFFFFFFFFFFFFFFFFFFFFFFFFFFFFFFFFFFFFFFF AND PUSH4 0xC78A6741 DUP4 PUSH32 0x8E1604A838D0F1A9B2CDA14A099E4CEB08E966CC6E05E8296F67B02D61A79F09 PUSH1 0x0 SHL PUSH1 0x40 MLOAD DUP4 PUSH4 0xFFFFFFFF AND PUSH1 0xE0 SHL DUP2 MSTORE PUSH1 0x4 ADD PUSH2 0x16B4 SWAP3 SWAP2 SWAP1 PUSH2 0x483E JUMP JUMPDEST PUSH1 0xC0 PUSH1 0x40 MLOAD DUP1 DUP4 SUB DUP2 DUP7 GAS STATICCALL ISZERO DUP1 ISZERO PUSH2 0x16D1 JUMPI RETURNDATASIZE PUSH1 0x0 DUP1 RETURNDATACOPY RETURNDATASIZE PUSH1 0x0 REVERT JUMPDEST POP POP POP POP PUSH1 0x40 MLOAD RETURNDATASIZE PUSH1 0x1F NOT PUSH1 0x1F DUP3 ADD AND DUP3 ADD DUP1 PUSH1 0x40 MSTORE POP DUP2 ADD SWAP1 PUSH2 0x16F5 SWAP2 SWAP1 PUSH2 0x4926 JUMP JUMPDEST SWAP1 POP DUP5 DUP2 PUSH1 0x60 ADD MLOAD SUB PUSH2 0x1711 JUMPI DUP3 DUP1 PUSH2 0x170D SWAP1 PUSH2 0x500F JUMP JUMPDEST SWAP4 POP POP JUMPDEST POP DUP1 DUP1 PUSH2 0x171D SWAP1 PUSH2 0x500F JUMP JUMPDEST SWAP2 POP POP PUSH2 0x15A3 JUMP JUMPDEST POP PUSH1 0x0 DUP2 PUSH8 0xFFFFFFFFFFFFFFFF DUP2 GT ISZERO PUSH2 0x1742 JUMPI PUSH2 0x1741 PUSH2 0x33EE JUMP JUMPDEST JUMPDEST PUSH1 0x40 MLOAD SWAP1 DUP1 DUP3 MSTORE DUP1 PUSH1 0x20 MUL PUSH1 0x20 ADD DUP3 ADD PUSH1 0x40 MSTORE DUP1 ISZERO PUSH2 0x177B JUMPI DUP2 PUSH1 0x20 ADD JUMPDEST PUSH2 0x1768 PUSH2 0x3256 JUMP JUMPDEST DUP2 MSTORE PUSH1 0x20 ADD SWAP1 PUSH1 0x1 SWAP1 SUB SWAP1 DUP2 PUSH2 0x1760 JUMPI SWAP1 POP JUMPDEST POP SWAP1 POP PUSH1 0x0 DUP1 PUSH1 0x1 SWAP1 POP JUMPDEST PUSH2 0x178E PUSH2 0x2E23 JUMP JUMPDEST PUSH20 0xFFFFFFFFFFFFFFFFFFFFFFFFFFFFFFFFFFFFFFFF AND PUSH4 0xFD82E9DD PUSH32 0x8E1604A838D0F1A9B2CDA14A099E4CEB08E966CC6E05E8296F67B02D61A79F09 PUSH1 0x0 SHL PUSH1 0x40 MLOAD DUP3 PUSH4 0xFFFFFFFF AND PUSH1 0xE0 SHL DUP2 MSTORE PUSH1 0x4 ADD PUSH2 0x17E9 SWAP2 SWAP1 PUSH2 0x4CA8 JUMP JUMPDEST PUSH1 0x20 PUSH1 0x40 MLOAD DUP1 DUP4 SUB DUP2 DUP7 GAS STATICCALL ISZERO DUP1 ISZERO PUSH2 0x1806 JUMPI RETURNDATASIZE PUSH1 0x0 DUP1 RETURNDATACOPY RETURNDATASIZE PUSH1 0x0 REVERT JUMPDEST POP POP POP POP PUSH1 0x40 MLOAD RETURNDATASIZE PUSH1 0x1F NOT PUSH1 0x1F DUP3 ADD AND DUP3 ADD DUP1 PUSH1 0x40 MSTORE POP DUP2 ADD SWAP1 PUSH2 0x182A SWAP2 SWAP1 PUSH2 0x4C7B JUMP JUMPDEST DUP2 GT ISZERO DUP1 ISZERO PUSH2 0x1838 JUMPI POP DUP4 DUP3 LT JUMPDEST ISZERO PUSH2 0x1934 JUMPI PUSH1 0x0 PUSH2 0x1847 PUSH2 0x2E23 JUMP JUMPDEST PUSH20 0xFFFFFFFFFFFFFFFFFFFFFFFFFFFFFFFFFFFFFFFF AND PUSH4 0xC78A6741 DUP4 PUSH32 0x8E1604A838D0F1A9B2CDA14A099E4CEB08E966CC6E05E8296F67B02D61A79F09 PUSH1 0x0 SHL PUSH1 0x40 MLOAD DUP4 PUSH4 0xFFFFFFFF AND PUSH1 0xE0 SHL DUP2 MSTORE PUSH1 0x4 ADD PUSH2 0x18A4 SWAP3 SWAP2 SWAP1 PUSH2 0x483E JUMP JUMPDEST PUSH1 0xC0 PUSH1 0x40 MLOAD DUP1 DUP4 SUB DUP2 DUP7 GAS STATICCALL ISZERO DUP1 ISZERO PUSH2 0x18C1 JUMPI RETURNDATASIZE PUSH1 0x0 DUP1 RETURNDATACOPY RETURNDATASIZE PUSH1 0x0 REVERT JUMPDEST POP POP POP POP PUSH1 0x40 MLOAD RETURNDATASIZE PUSH1 0x1F NOT PUSH1 0x1F DUP3 ADD AND DUP3 ADD DUP1 PUSH1 0x40 MSTORE POP DUP2 ADD SWAP1 PUSH2 0x18E5 SWAP2 SWAP1 PUSH2 0x4926 JUMP JUMPDEST SWAP1 POP DUP7 DUP2 PUSH1 0x60 ADD MLOAD SUB PUSH2 0x1920 JUMPI DUP1 DUP5 DUP5 DUP2 MLOAD DUP2 LT PUSH2 0x1906 JUMPI PUSH2 0x1905 PUSH2 0x4FE0 JUMP JUMPDEST JUMPDEST PUSH1 0x20 MUL PUSH1 0x20 ADD ADD DUP2 SWAP1 MSTORE POP DUP3 DUP1 PUSH2 0x191C SWAP1 PUSH2 0x500F JUMP JUMPDEST SWAP4 POP POP JUMPDEST POP DUP1 DUP1 PUSH2 0x192C SWAP1 PUSH2 0x500F JUMP JUMPDEST SWAP2 POP POP PUSH2 0x1786 JUMP JUMPDEST POP DUP2 SWAP4 POP POP POP POP SWAP2 SWAP1 POP JUMP JUMPDEST PUSH2 0x1948 PUSH2 0x2FEB JUMP JUMPDEST ADDRESS PUSH20 0xFFFFFFFFFFFFFFFFFFFFFFFFFFFFFFFFFFFFFFFF AND SELFDESTRUCT JUMPDEST PUSH1 0x0 DUP1 PUSH1 0x0 SWAP1 SLOAD SWAP1 PUSH2 0x100 EXP SWAP1 DIV PUSH20 0xFFFFFFFFFFFFFFFFFFFFFFFFFFFFFFFFFFFFFFFF AND SWAP1 POP SWAP1 JUMP JUMPDEST PUSH1 0x60 PUSH1 0x0 PUSH2 0x1996 PUSH2 0x2E4D JUMP JUMPDEST PUSH20 0xFFFFFFFFFFFFFFFFFFFFFFFFFFFFFFFFFFFFFFFF AND PUSH4 0xFD82E9DD PUSH32 0x8E1604A838D0F1A9B2CDA14A099E4CEB08E966CC6E05E8296F67B02D61A79F09 PUSH1 0x0 SHL PUSH1 0x40 MLOAD DUP3 PUSH4 0xFFFFFFFF AND PUSH1 0xE0 SHL DUP2 MSTORE PUSH1 0x4 ADD PUSH2 0x19F1 SWAP2 SWAP1 PUSH2 0x4CA8 JUMP JUMPDEST PUSH1 0x20 PUSH1 0x40 MLOAD DUP1 DUP4 SUB DUP2 DUP7 GAS STATICCALL ISZERO DUP1 ISZERO PUSH2 0x1A0E JUMPI RETURNDATASIZE PUSH1 0x0 DUP1 RETURNDATACOPY RETURNDATASIZE PUSH1 0x0 REVERT JUMPDEST POP POP POP POP PUSH1 0x40 MLOAD RETURNDATASIZE PUSH1 0x1F NOT PUSH1 0x1F DUP3 ADD AND DUP3 ADD DUP1 PUSH1 0x40 MSTORE POP DUP2 ADD SWAP1 PUSH2 0x1A32 SWAP2 SWAP1 PUSH2 0x4C7B JUMP JUMPDEST SWAP1 POP PUSH1 0x0 DUP2 PUSH8 0xFFFFFFFFFFFFFFFF DUP2 GT ISZERO PUSH2 0x1A50 JUMPI PUSH2 0x1A4F PUSH2 0x33EE JUMP JUMPDEST JUMPDEST PUSH1 0x40 MLOAD SWAP1 DUP1 DUP3 MSTORE DUP1 PUSH1 0x20 MUL PUSH1 0x20 ADD DUP3 ADD PUSH1 0x40 MSTORE DUP1 ISZERO PUSH2 0x1A89 JUMPI DUP2 PUSH1 0x20 ADD JUMPDEST PUSH2 0x1A76 PUSH2 0x328C JUMP JUMPDEST DUP2 MSTORE PUSH1 0x20 ADD SWAP1 PUSH1 0x1 SWAP1 SUB SWAP1 DUP2 PUSH2 0x1A6E JUMPI SWAP1 POP JUMPDEST POP SWAP1 POP PUSH1 0x0 JUMPDEST DUP3 DUP2 LT ISZERO PUSH2 0x1B7A JUMPI PUSH2 0x1A9F PUSH2 0x2E4D JUMP JUMPDEST PUSH20 0xFFFFFFFFFFFFFFFFFFFFFFFFFFFFFFFFFFFFFFFF AND PUSH4 0xC78A6741 PUSH1 0x1 DUP4 PUSH2 0x1AC7 SWAP2 SWAP1 PUSH2 0x4CF2 JUMP JUMPDEST PUSH32 0x8E1604A838D0F1A9B2CDA14A099E4CEB08E966CC6E05E8296F67B02D61A79F09 PUSH1 0x0 SHL PUSH1 0x40 MLOAD DUP4 PUSH4 0xFFFFFFFF AND PUSH1 0xE0 SHL DUP2 MSTORE PUSH1 0x4 ADD PUSH2 0x1B08 SWAP3 SWAP2 SWAP1 PUSH2 0x483E JUMP JUMPDEST PUSH1 0xC0 PUSH1 0x40 MLOAD DUP1 DUP4 SUB DUP2 DUP7 GAS STATICCALL ISZERO DUP1 ISZERO PUSH2 0x1B25 JUMPI RETURNDATASIZE PUSH1 0x0 DUP1 RETURNDATACOPY RETURNDATASIZE PUSH1 0x0 REVERT JUMPDEST POP POP POP POP PUSH1 0x40 MLOAD RETURNDATASIZE PUSH1 0x1F NOT PUSH1 0x1F DUP3 ADD AND DUP3 ADD DUP1 PUSH1 0x40 MSTORE POP DUP2 ADD SWAP1 PUSH2 0x1B49 SWAP2 SWAP1 PUSH2 0x49F3 JUMP JUMPDEST DUP3 DUP3 DUP2 MLOAD DUP2 LT PUSH2 0x1B5C JUMPI PUSH2 0x1B5B PUSH2 0x4FE0 JUMP JUMPDEST JUMPDEST PUSH1 0x20 MUL PUSH1 0x20 ADD ADD DUP2 SWAP1 MSTORE POP DUP1 DUP1 PUSH2 0x1B72 SWAP1 PUSH2 0x500F JUMP JUMPDEST SWAP2 POP POP PUSH2 0x1A8F JUMP JUMPDEST POP DUP1 SWAP3 POP POP POP SWAP1 JUMP JUMPDEST PUSH1 0x60 PUSH1 0x0 DUP1 PUSH1 0x1 SWAP1 POP JUMPDEST PUSH2 0x1B95 PUSH2 0x2FC1 JUMP JUMPDEST PUSH20 0xFFFFFFFFFFFFFFFFFFFFFFFFFFFFFFFFFFFFFFFF AND PUSH4 0xFD82E9DD PUSH32 0x8E1604A838D0F1A9B2CDA14A099E4CEB08E966CC6E05E8296F67B02D61A79F09 PUSH1 0x0 SHL PUSH1 0x40 MLOAD DUP3 PUSH4 0xFFFFFFFF AND PUSH1 0xE0 SHL DUP2 MSTORE PUSH1 0x4 ADD PUSH2 0x1BF0 SWAP2 SWAP1 PUSH2 0x4CA8 JUMP JUMPDEST PUSH1 0x20 PUSH1 0x40 MLOAD DUP1 DUP4 SUB DUP2 DUP7 GAS STATICCALL ISZERO DUP1 ISZERO PUSH2 0x1C0D JUMPI RETURNDATASIZE PUSH1 0x0 DUP1 RETURNDATACOPY RETURNDATASIZE PUSH1 0x0 REVERT JUMPDEST POP POP POP POP PUSH1 0x40 MLOAD RETURNDATASIZE PUSH1 0x1F NOT PUSH1 0x1F DUP3 ADD AND DUP3 ADD DUP1 PUSH1 0x40 MSTORE POP DUP2 ADD SWAP1 PUSH2 0x1C31 SWAP2 SWAP1 PUSH2 0x4C7B JUMP JUMPDEST DUP2 GT PUSH2 0x1D35 JUMPI PUSH1 0x0 PUSH2 0x1C41 PUSH2 0x2FC1 JUMP JUMPDEST PUSH20 0xFFFFFFFFFFFFFFFFFFFFFFFFFFFFFFFFFFFFFFFF AND PUSH4 0xC78A6741 DUP4 PUSH32 0x8E1604A838D0F1A9B2CDA14A099E4CEB08E966CC6E05E8296F67B02D61A79F09 PUSH1 0x0 SHL PUSH1 0x40 MLOAD DUP4 PUSH4 0xFFFFFFFF AND PUSH1 0xE0 SHL DUP2 MSTORE PUSH1 0x4 ADD PUSH2 0x1C9E SWAP3 SWAP2 SWAP1 PUSH2 0x483E JUMP JUMPDEST PUSH1 0x0 PUSH1 0x40 MLOAD DUP1 DUP4 SUB DUP2 DUP7 GAS STATICCALL ISZERO DUP1 ISZERO PUSH2 0x1CBB JUMPI RETURNDATASIZE PUSH1 0x0 DUP1 RETURNDATACOPY RETURNDATASIZE PUSH1 0x0 REVERT JUMPDEST POP POP POP POP PUSH1 0x40 MLOAD RETURNDATASIZE PUSH1 0x0 DUP3 RETURNDATACOPY RETURNDATASIZE PUSH1 0x1F NOT PUSH1 0x1F DUP3 ADD AND DUP3 ADD DUP1 PUSH1 0x40 MSTORE POP DUP2 ADD SWAP1 PUSH2 0x1CE4 SWAP2 SWAP1 PUSH2 0x5261 JUMP JUMPDEST SWAP1 POP DUP1 PUSH1 0x0 ADD MLOAD DUP8 EQ DUP1 ISZERO PUSH2 0x1CFD JUMPI POP DUP1 PUSH1 0x60 ADD MLOAD DUP7 GT ISZERO JUMPDEST DUP1 ISZERO PUSH2 0x1D0D JUMPI POP DUP5 DUP2 PUSH1 0x60 ADD MLOAD GT ISZERO JUMPDEST ISZERO PUSH2 0x1D21 JUMPI DUP3 DUP1 PUSH2 0x1D1D SWAP1 PUSH2 0x500F JUMP JUMPDEST SWAP4 POP POP JUMPDEST POP DUP1 DUP1 PUSH2 0x1D2D SWAP1 PUSH2 0x500F JUMP JUMPDEST SWAP2 POP POP PUSH2 0x1B8D JUMP JUMPDEST POP PUSH1 0x0 DUP2 PUSH8 0xFFFFFFFFFFFFFFFF DUP2 GT ISZERO PUSH2 0x1D52 JUMPI PUSH2 0x1D51 PUSH2 0x33EE JUMP JUMPDEST JUMPDEST PUSH1 0x40 MLOAD SWAP1 DUP1 DUP3 MSTORE DUP1 PUSH1 0x20 MUL PUSH1 0x20 ADD DUP3 ADD PUSH1 0x40 MSTORE DUP1 ISZERO PUSH2 0x1D8B JUMPI DUP2 PUSH1 0x20 ADD JUMPDEST PUSH2 0x1D78 PUSH2 0x3332 JUMP JUMPDEST DUP2 MSTORE PUSH1 0x20 ADD SWAP1 PUSH1 0x1 SWAP1 SUB SWAP1 DUP2 PUSH2 0x1D70 JUMPI SWAP1 POP JUMPDEST POP SWAP1 POP PUSH1 0x0 DUP1 PUSH1 0x1 SWAP1 POP JUMPDEST PUSH2 0x1D9E PUSH2 0x2FC1 JUMP JUMPDEST PUSH20 0xFFFFFFFFFFFFFFFFFFFFFFFFFFFFFFFFFFFFFFFF AND PUSH4 0xFD82E9DD PUSH32 0x8E1604A838D0F1A9B2CDA14A099E4CEB08E966CC6E05E8296F67B02D61A79F09 PUSH1 0x0 SHL PUSH1 0x40 MLOAD DUP3 PUSH4 0xFFFFFFFF AND PUSH1 0xE0 SHL DUP2 MSTORE PUSH1 0x4 ADD PUSH2 0x1DF9 SWAP2 SWAP1 PUSH2 0x4CA8 JUMP JUMPDEST PUSH1 0x20 PUSH1 0x40 MLOAD DUP1 DUP4 SUB DUP2 DUP7 GAS STATICCALL ISZERO DUP1 ISZERO PUSH2 0x1E16 JUMPI RETURNDATASIZE PUSH1 0x0 DUP1 RETURNDATACOPY RETURNDATASIZE PUSH1 0x0 REVERT JUMPDEST POP POP POP POP PUSH1 0x40 MLOAD RETURNDATASIZE PUSH1 0x1F NOT PUSH1 0x1F DUP3 ADD AND DUP3 ADD DUP1 PUSH1 0x40 MSTORE POP DUP2 ADD SWAP1 PUSH2 0x1E3A SWAP2 SWAP1 PUSH2 0x4C7B JUMP JUMPDEST DUP2 GT ISZERO DUP1 ISZERO PUSH2 0x1E48 JUMPI POP DUP4 DUP3 LT JUMPDEST ISZERO PUSH2 0x1F6A JUMPI PUSH1 0x0 PUSH2 0x1E57 PUSH2 0x2FC1 JUMP JUMPDEST PUSH20 0xFFFFFFFFFFFFFFFFFFFFFFFFFFFFFFFFFFFFFFFF AND PUSH4 0xC78A6741 DUP4 PUSH32 0x8E1604A838D0F1A9B2CDA14A099E4CEB08E966CC6E05E8296F67B02D61A79F09 PUSH1 0x0 SHL PUSH1 0x40 MLOAD DUP4 PUSH4 0xFFFFFFFF AND PUSH1 0xE0 SHL DUP2 MSTORE PUSH1 0x4 ADD PUSH2 0x1EB4 SWAP3 SWAP2 SWAP1 PUSH2 0x483E JUMP JUMPDEST PUSH1 0x0 PUSH1 0x40 MLOAD DUP1 DUP4 SUB DUP2 DUP7 GAS STATICCALL ISZERO DUP1 ISZERO PUSH2 0x1ED1 JUMPI RETURNDATASIZE PUSH1 0x0 DUP1 RETURNDATACOPY RETURNDATASIZE PUSH1 0x0 REVERT JUMPDEST POP POP POP POP PUSH1 0x40 MLOAD RETURNDATASIZE PUSH1 0x0 DUP3 RETURNDATACOPY RETURNDATASIZE PUSH1 0x1F NOT PUSH1 0x1F DUP3 ADD AND DUP3 ADD DUP1 PUSH1 0x40 MSTORE POP DUP2 ADD SWAP1 PUSH2 0x1EFA SWAP2 SWAP1 PUSH2 0x5261 JUMP JUMPDEST SWAP1 POP DUP1 PUSH1 0x0 ADD MLOAD DUP10 EQ DUP1 ISZERO PUSH2 0x1F13 JUMPI POP DUP1 PUSH1 0x60 ADD MLOAD DUP9 GT ISZERO JUMPDEST DUP1 ISZERO PUSH2 0x1F23 JUMPI POP DUP7 DUP2 PUSH1 0x60 ADD MLOAD GT ISZERO JUMPDEST ISZERO PUSH2 0x1F56 JUMPI DUP1 DUP5 DUP5 DUP2 MLOAD DUP2 LT PUSH2 0x1F3C JUMPI PUSH2 0x1F3B PUSH2 0x4FE0 JUMP JUMPDEST JUMPDEST PUSH1 0x20 MUL PUSH1 0x20 ADD ADD DUP2 SWAP1 MSTORE POP DUP3 DUP1 PUSH2 0x1F52 SWAP1 PUSH2 0x500F JUMP JUMPDEST SWAP4 POP POP JUMPDEST POP DUP1 DUP1 PUSH2 0x1F62 SWAP1 PUSH2 0x500F JUMP JUMPDEST SWAP2 POP POP PUSH2 0x1D96 JUMP JUMPDEST POP DUP2 SWAP4 POP POP POP POP SWAP4 SWAP3 POP POP POP JUMP JUMPDEST PUSH1 0x0 DUP1 PUSH1 0x1 PUSH1 0x0 SWAP1 SLOAD SWAP1 PUSH2 0x100 EXP SWAP1 DIV PUSH20 0xFFFFFFFFFFFFFFFFFFFFFFFFFFFFFFFFFFFFFFFF AND PUSH20 0xFFFFFFFFFFFFFFFFFFFFFFFFFFFFFFFFFFFFFFFF AND PUSH4 0xD32A04C7 CALLER PUSH32 0x8E1604A838D0F1A9B2CDA14A099E4CEB08E966CC6E05E8296F67B02D61A79F09 PUSH1 0x0 SHL PUSH1 0x40 MLOAD DUP4 PUSH4 0xFFFFFFFF AND PUSH1 0xE0 SHL DUP2 MSTORE PUSH1 0x4 ADD PUSH2 0x1FFB SWAP3 SWAP2 SWAP1 PUSH2 0x50E9 JUMP JUMPDEST PUSH1 0x20 PUSH1 0x40 MLOAD DUP1 DUP4 SUB DUP2 DUP7 GAS STATICCALL ISZERO DUP1 ISZERO PUSH2 0x2018 JUMPI RETURNDATASIZE PUSH1 0x0 DUP1 RETURNDATACOPY RETURNDATASIZE PUSH1 0x0 REVERT JUMPDEST POP POP POP POP PUSH1 0x40 MLOAD RETURNDATASIZE PUSH1 0x1F NOT PUSH1 0x1F DUP3 ADD AND DUP3 ADD DUP1 PUSH1 0x40 MSTORE POP DUP2 ADD SWAP1 PUSH2 0x203C SWAP2 SWAP1 PUSH2 0x4C7B JUMP JUMPDEST SWAP1 POP PUSH1 0x0 DUP2 GT ISZERO PUSH2 0x2051 JUMPI PUSH1 0x1 SWAP2 POP POP PUSH2 0x2057 JUMP JUMPDEST PUSH1 0x0 SWAP2 POP POP JUMPDEST SWAP1 JUMP JUMPDEST PUSH1 0x0 DUP9 PUSH2 0x2065 PUSH2 0x1F78 JUMP JUMPDEST PUSH2 0x20A4 JUMPI PUSH1 0x40 MLOAD PUSH32 0x8C379A000000000000000000000000000000000000000000000000000000000 DUP2 MSTORE PUSH1 0x4 ADD PUSH2 0x209B SWAP1 PUSH2 0x477C JUMP JUMPDEST PUSH1 0x40 MLOAD DUP1 SWAP2 SUB SWAP1 REVERT JUMPDEST PUSH2 0x20AD DUP2 PUSH2 0x2E77 JUMP JUMPDEST PUSH2 0x20EC JUMPI PUSH1 0x40 MLOAD PUSH32 0x8C379A000000000000000000000000000000000000000000000000000000000 DUP2 MSTORE PUSH1 0x4 ADD PUSH2 0x20E3 SWAP1 PUSH2 0x4A92 JUMP JUMPDEST PUSH1 0x40 MLOAD DUP1 SWAP2 SUB SWAP1 REVERT JUMPDEST PUSH2 0x20F4 PUSH2 0x2DF9 JUMP JUMPDEST PUSH20 0xFFFFFFFFFFFFFFFFFFFFFFFFFFFFFFFFFFFFFFFF AND PUSH4 0x413896E4 DUP12 PUSH32 0x8E1604A838D0F1A9B2CDA14A099E4CEB08E966CC6E05E8296F67B02D61A79F09 PUSH1 0x0 SHL DUP13 PUSH1 0x40 MLOAD DUP5 PUSH4 0xFFFFFFFF AND PUSH1 0xE0 SHL DUP2 MSTORE PUSH1 0x4 ADD PUSH2 0x2153 SWAP4 SWAP3 SWAP2 SWAP1 PUSH2 0x5329 JUMP JUMPDEST PUSH1 0x20 PUSH1 0x40 MLOAD DUP1 DUP4 SUB DUP2 PUSH1 0x0 DUP8 GAS CALL ISZERO DUP1 ISZERO PUSH2 0x2172 JUMPI RETURNDATASIZE PUSH1 0x0 DUP1 RETURNDATACOPY RETURNDATASIZE PUSH1 0x0 REVERT JUMPDEST POP POP POP POP PUSH1 0x40 MLOAD RETURNDATASIZE PUSH1 0x1F NOT PUSH1 0x1F DUP3 ADD AND DUP3 ADD DUP1 PUSH1 0x40 MSTORE POP DUP2 ADD SWAP1 PUSH2 0x2196 SWAP2 SWAP1 PUSH2 0x4811 JUMP JUMPDEST POP PUSH2 0x219F PUSH2 0x2DF9 JUMP JUMPDEST PUSH20 0xFFFFFFFFFFFFFFFFFFFFFFFFFFFFFFFFFFFFFFFF AND PUSH4 0xD49CB146 DUP12 PUSH32 0x8E1604A838D0F1A9B2CDA14A099E4CEB08E966CC6E05E8296F67B02D61A79F09 PUSH1 0x0 SHL DUP12 PUSH1 0x40 MLOAD DUP5 PUSH4 0xFFFFFFFF AND PUSH1 0xE0 SHL DUP2 MSTORE PUSH1 0x4 ADD PUSH2 0x21FE SWAP4 SWAP3 SWAP2 SWAP1 PUSH2 0x5329 JUMP JUMPDEST PUSH1 0x20 PUSH1 0x40 MLOAD DUP1 DUP4 SUB DUP2 PUSH1 0x0 DUP8 GAS CALL ISZERO DUP1 ISZERO PUSH2 0x221D JUMPI RETURNDATASIZE PUSH1 0x0 DUP1 RETURNDATACOPY RETURNDATASIZE PUSH1 0x0 REVERT JUMPDEST POP POP POP POP PUSH1 0x40 MLOAD RETURNDATASIZE PUSH1 0x1F NOT PUSH1 0x1F DUP3 ADD AND DUP3 ADD DUP1 PUSH1 0x40 MSTORE POP DUP2 ADD SWAP1 PUSH2 0x2241 SWAP2 SWAP1 PUSH2 0x4811 JUMP JUMPDEST POP PUSH2 0x224A PUSH2 0x2DF9 JUMP JUMPDEST PUSH20 0xFFFFFFFFFFFFFFFFFFFFFFFFFFFFFFFFFFFFFFFF AND PUSH4 0xE3F34371 DUP12 PUSH32 0x8E1604A838D0F1A9B2CDA14A099E4CEB08E966CC6E05E8296F67B02D61A79F09 PUSH1 0x0 SHL DUP11 PUSH1 0x40 MLOAD DUP5 PUSH4 0xFFFFFFFF AND PUSH1 0xE0 SHL DUP2 MSTORE PUSH1 0x4 ADD PUSH2 0x22A9 SWAP4 SWAP3 SWAP2 SWAP1 PUSH2 0x5329 JUMP JUMPDEST PUSH1 0x20 PUSH1 0x40 MLOAD DUP1 DUP4 SUB DUP2 PUSH1 0x0 DUP8 GAS CALL ISZERO DUP1 ISZERO PUSH2 0x22C8 JUMPI RETURNDATASIZE PUSH1 0x0 DUP1 RETURNDATACOPY RETURNDATASIZE PUSH1 0x0 REVERT JUMPDEST POP POP POP POP PUSH1 0x40 MLOAD RETURNDATASIZE PUSH1 0x1F NOT PUSH1 0x1F DUP3 ADD AND DUP3 ADD DUP1 PUSH1 0x40 MSTORE POP DUP2 ADD SWAP1 PUSH2 0x22EC SWAP2 SWAP1 PUSH2 0x4811 JUMP JUMPDEST POP PUSH2 0x22F5 PUSH2 0x2DF9 JUMP JUMPDEST PUSH20 0xFFFFFFFFFFFFFFFFFFFFFFFFFFFFFFFFFFFFFFFF AND PUSH4 0x29CD6311 DUP12 PUSH32 0x8E1604A838D0F1A9B2CDA14A099E4CEB08E966CC6E05E8296F67B02D61A79F09 PUSH1 0x0 SHL DUP10 PUSH1 0x40 MLOAD DUP5 PUSH4 0xFFFFFFFF AND PUSH1 0xE0 SHL DUP2 MSTORE PUSH1 0x4 ADD PUSH2 0x2354 SWAP4 SWAP3 SWAP2 SWAP1 PUSH2 0x5329 JUMP JUMPDEST PUSH1 0x20 PUSH1 0x40 MLOAD DUP1 DUP4 SUB DUP2 PUSH1 0x0 DUP8 GAS CALL ISZERO DUP1 ISZERO PUSH2 0x2373 JUMPI RETURNDATASIZE PUSH1 0x0 DUP1 RETURNDATACOPY RETURNDATASIZE PUSH1 0x0 REVERT JUMPDEST POP POP POP POP PUSH1 0x40 MLOAD RETURNDATASIZE PUSH1 0x1F NOT PUSH1 0x1F DUP3 ADD AND DUP3 ADD DUP1 PUSH1 0x40 MSTORE POP DUP2 ADD SWAP1 PUSH2 0x2397 SWAP2 SWAP1 PUSH2 0x4811 JUMP JUMPDEST POP PUSH2 0x23A0 PUSH2 0x2DF9 JUMP JUMPDEST PUSH20 0xFFFFFFFFFFFFFFFFFFFFFFFFFFFFFFFFFFFFFFFF AND PUSH4 0xD2AF71A6 DUP12 PUSH32 0x8E1604A838D0F1A9B2CDA14A099E4CEB08E966CC6E05E8296F67B02D61A79F09 PUSH1 0x0 SHL DUP9 PUSH1 0x40 MLOAD DUP5 PUSH4 0xFFFFFFFF AND PUSH1 0xE0 SHL DUP2 MSTORE PUSH1 0x4 ADD PUSH2 0x23FF SWAP4 SWAP3 SWAP2 SWAP1 PUSH2 0x5329 JUMP JUMPDEST PUSH1 0x20 PUSH1 0x40 MLOAD DUP1 DUP4 SUB DUP2 PUSH1 0x0 DUP8 GAS CALL ISZERO DUP1 ISZERO PUSH2 0x241E JUMPI RETURNDATASIZE PUSH1 0x0 DUP1 RETURNDATACOPY RETURNDATASIZE PUSH1 0x0 REVERT JUMPDEST POP POP POP POP PUSH1 0x40 MLOAD RETURNDATASIZE PUSH1 0x1F NOT PUSH1 0x1F DUP3 ADD AND DUP3 ADD DUP1 PUSH1 0x40 MSTORE POP DUP2 ADD SWAP1 PUSH2 0x2442 SWAP2 SWAP1 PUSH2 0x4811 JUMP JUMPDEST POP PUSH2 0x244B PUSH2 0x2DF9 JUMP JUMPDEST PUSH20 0xFFFFFFFFFFFFFFFFFFFFFFFFFFFFFFFFFFFFFFFF AND PUSH4 0xD45C8ABF DUP12 PUSH32 0x8E1604A838D0F1A9B2CDA14A099E4CEB08E966CC6E05E8296F67B02D61A79F09 PUSH1 0x0 SHL DUP8 PUSH1 0x40 MLOAD DUP5 PUSH4 0xFFFFFFFF AND PUSH1 0xE0 SHL DUP2 MSTORE PUSH1 0x4 ADD PUSH2 0x24AA SWAP4 SWAP3 SWAP2 SWAP1 PUSH2 0x5329 JUMP JUMPDEST PUSH1 0x20 PUSH1 0x40 MLOAD DUP1 DUP4 SUB DUP2 PUSH1 0x0 DUP8 GAS CALL ISZERO DUP1 ISZERO PUSH2 0x24C9 JUMPI RETURNDATASIZE PUSH1 0x0 DUP1 RETURNDATACOPY RETURNDATASIZE PUSH1 0x0 REVERT JUMPDEST POP POP POP POP PUSH1 0x40 MLOAD RETURNDATASIZE PUSH1 0x1F NOT PUSH1 0x1F DUP3 ADD AND DUP3 ADD DUP1 PUSH1 0x40 MSTORE POP DUP2 ADD SWAP1 PUSH2 0x24ED SWAP2 SWAP1 PUSH2 0x4811 JUMP JUMPDEST POP PUSH2 0x24F6 PUSH2 0x2DF9 JUMP JUMPDEST PUSH20 0xFFFFFFFFFFFFFFFFFFFFFFFFFFFFFFFFFFFFFFFF AND PUSH4 0x800F2234 DUP12 PUSH32 0x8E1604A838D0F1A9B2CDA14A099E4CEB08E966CC6E05E8296F67B02D61A79F09 PUSH1 0x0 SHL DUP7 PUSH1 0x40 MLOAD DUP5 PUSH4 0xFFFFFFFF AND PUSH1 0xE0 SHL DUP2 MSTORE PUSH1 0x4 ADD PUSH2 0x2555 SWAP4 SWAP3 SWAP2 SWAP1 PUSH2 0x5329 JUMP JUMPDEST PUSH1 0x20 PUSH1 0x40 MLOAD DUP1 DUP4 SUB DUP2 PUSH1 0x0 DUP8 GAS CALL ISZERO DUP1 ISZERO PUSH2 0x2574 JUMPI RETURNDATASIZE PUSH1 0x0 DUP1 RETURNDATACOPY RETURNDATASIZE PUSH1 0x0 REVERT JUMPDEST POP POP POP POP PUSH1 0x40 MLOAD RETURNDATASIZE PUSH1 0x1F NOT PUSH1 0x1F DUP3 ADD AND DUP3 ADD DUP1 PUSH1 0x40 MSTORE POP DUP2 ADD SWAP1 PUSH2 0x2598 SWAP2 SWAP1 PUSH2 0x4811 JUMP JUMPDEST POP PUSH1 0x1 SWAP2 POP POP SWAP9 SWAP8 POP POP POP POP POP POP POP POP JUMP JUMPDEST PUSH1 0x60 PUSH1 0x0 PUSH2 0x25B6 PUSH2 0x2FC1 JUMP JUMPDEST PUSH20 0xFFFFFFFFFFFFFFFFFFFFFFFFFFFFFFFFFFFFFFFF AND PUSH4 0xFD82E9DD PUSH32 0x8E1604A838D0F1A9B2CDA14A099E4CEB08E966CC6E05E8296F67B02D61A79F09 PUSH1 0x0 SHL PUSH1 0x40 MLOAD DUP3 PUSH4 0xFFFFFFFF AND PUSH1 0xE0 SHL DUP2 MSTORE PUSH1 0x4 ADD PUSH2 0x2611 SWAP2 SWAP1 PUSH2 0x4CA8 JUMP JUMPDEST PUSH1 0x20 PUSH1 0x40 MLOAD DUP1 DUP4 SUB DUP2 DUP7 GAS STATICCALL ISZERO DUP1 ISZERO PUSH2 0x262E JUMPI RETURNDATASIZE PUSH1 0x0 DUP1 RETURNDATACOPY RETURNDATASIZE PUSH1 0x0 REVERT JUMPDEST POP POP POP POP PUSH1 0x40 MLOAD RETURNDATASIZE PUSH1 0x1F NOT PUSH1 0x1F DUP3 ADD AND DUP3 ADD DUP1 PUSH1 0x40 MSTORE POP DUP2 ADD SWAP1 PUSH2 0x2652 SWAP2 SWAP1 PUSH2 0x4C7B JUMP JUMPDEST SWAP1 POP PUSH1 0x0 DUP2 PUSH8 0xFFFFFFFFFFFFFFFF DUP2 GT ISZERO PUSH2 0x2670 JUMPI PUSH2 0x266F PUSH2 0x33EE JUMP JUMPDEST JUMPDEST PUSH1 0x40 MLOAD SWAP1 DUP1 DUP3 MSTORE DUP1 PUSH1 0x20 MUL PUSH1 0x20 ADD DUP3 ADD PUSH1 0x40 MSTORE DUP1 ISZERO PUSH2 0x26A9 JUMPI DUP2 PUSH1 0x20 ADD JUMPDEST PUSH2 0x2696 PUSH2 0x3332 JUMP JUMPDEST DUP2 MSTORE PUSH1 0x20 ADD SWAP1 PUSH1 0x1 SWAP1 SUB SWAP1 DUP2 PUSH2 0x268E JUMPI SWAP1 POP JUMPDEST POP SWAP1 POP PUSH1 0x0 JUMPDEST DUP3 DUP2 LT ISZERO PUSH2 0x279F JUMPI PUSH2 0x26BF PUSH2 0x2FC1 JUMP JUMPDEST PUSH20 0xFFFFFFFFFFFFFFFFFFFFFFFFFFFFFFFFFFFFFFFF AND PUSH4 0xC78A6741 PUSH1 0x1 DUP4 PUSH2 0x26E7 SWAP2 SWAP1 PUSH2 0x4CF2 JUMP JUMPDEST PUSH32 0x8E1604A838D0F1A9B2CDA14A099E4CEB08E966CC6E05E8296F67B02D61A79F09 PUSH1 0x0 SHL PUSH1 0x40 MLOAD DUP4 PUSH4 0xFFFFFFFF AND PUSH1 0xE0 SHL DUP2 MSTORE PUSH1 0x4 ADD PUSH2 0x2728 SWAP3 SWAP2 SWAP1 PUSH2 0x483E JUMP JUMPDEST PUSH1 0x0 PUSH1 0x40 MLOAD DUP1 DUP4 SUB DUP2 DUP7 GAS STATICCALL ISZERO DUP1 ISZERO PUSH2 0x2745 JUMPI RETURNDATASIZE PUSH1 0x0 DUP1 RETURNDATACOPY RETURNDATASIZE PUSH1 0x0 REVERT JUMPDEST POP POP POP POP PUSH1 0x40 MLOAD RETURNDATASIZE PUSH1 0x0 DUP3 RETURNDATACOPY RETURNDATASIZE PUSH1 0x1F NOT PUSH1 0x1F DUP3 ADD AND DUP3 ADD DUP1 PUSH1 0x40 MSTORE POP DUP2 ADD SWAP1 PUSH2 0x276E SWAP2 SWAP1 PUSH2 0x5261 JUMP JUMPDEST DUP3 DUP3 DUP2 MLOAD DUP2 LT PUSH2 0x2781 JUMPI PUSH2 0x2780 PUSH2 0x4FE0 JUMP JUMPDEST JUMPDEST PUSH1 0x20 MUL PUSH1 0x20 ADD ADD DUP2 SWAP1 MSTORE POP DUP1 DUP1 PUSH2 0x2797 SWAP1 PUSH2 0x500F JUMP JUMPDEST SWAP2 POP POP PUSH2 0x26AF JUMP JUMPDEST POP DUP1 SWAP3 POP POP POP SWAP1 JUMP JUMPDEST PUSH1 0x0 DUP7 PUSH2 0x27B3 PUSH2 0x1F78 JUMP JUMPDEST PUSH2 0x27F2 JUMPI PUSH1 0x40 MLOAD PUSH32 0x8C379A000000000000000000000000000000000000000000000000000000000 DUP2 MSTORE PUSH1 0x4 ADD PUSH2 0x27E9 SWAP1 PUSH2 0x477C JUMP JUMPDEST PUSH1 0x40 MLOAD DUP1 SWAP2 SUB SWAP1 REVERT JUMPDEST PUSH2 0x27FB DUP2 PUSH2 0x2E77 JUMP JUMPDEST PUSH2 0x283A JUMPI PUSH1 0x40 MLOAD PUSH32 0x8C379A000000000000000000000000000000000000000000000000000000000 DUP2 MSTORE PUSH1 0x4 ADD PUSH2 0x2831 SWAP1 PUSH2 0x4A92 JUMP JUMPDEST PUSH1 0x40 MLOAD DUP1 SWAP2 SUB SWAP1 REVERT JUMPDEST PUSH1 0x0 PUSH1 0x40 MLOAD DUP1 PUSH2 0x100 ADD PUSH1 0x40 MSTORE DUP1 DUP11 DUP2 MSTORE PUSH1 0x20 ADD PUSH1 0x0 DUP2 MSTORE PUSH1 0x20 ADD DUP10 DUP2 MSTORE PUSH1 0x20 ADD TIMESTAMP DUP2 MSTORE PUSH1 0x20 ADD DUP8 DUP2 MSTORE PUSH1 0x20 ADD DUP7 DUP2 MSTORE PUSH1 0x20 ADD DUP9 DUP2 MSTORE PUSH1 0x20 ADD DUP6 PUSH1 0x3 DUP2 GT ISZERO PUSH2 0x2886 JUMPI PUSH2 0x2885 PUSH2 0x3C13 JUMP JUMPDEST JUMPDEST DUP2 MSTORE POP SWAP1 POP PUSH32 0x2A06240F64F73B349AB5F76B84C507F5FAEB668A9391ADC81D950BB7F6D32317 DUP10 DUP10 DUP10 DUP10 DUP10 DUP10 PUSH1 0x40 MLOAD PUSH2 0x28C4 SWAP7 SWAP6 SWAP5 SWAP4 SWAP3 SWAP2 SWAP1 PUSH2 0x5367 JUMP JUMPDEST PUSH1 0x40 MLOAD DUP1 SWAP2 SUB SWAP1 LOG1 PUSH2 0x28D4 PUSH2 0x2FC1 JUMP JUMPDEST PUSH20 0xFFFFFFFFFFFFFFFFFFFFFFFFFFFFFFFFFFFFFFFF AND PUSH4 0x116F4A23 DUP3 PUSH32 0x8E1604A838D0F1A9B2CDA14A099E4CEB08E966CC6E05E8296F67B02D61A79F09 PUSH1 0x0 SHL PUSH1 0x40 MLOAD DUP4 PUSH4 0xFFFFFFFF AND PUSH1 0xE0 SHL DUP2 MSTORE PUSH1 0x4 ADD PUSH2 0x2931 SWAP3 SWAP2 SWAP1 PUSH2 0x53E4 JUMP JUMPDEST PUSH1 0x20 PUSH1 0x40 MLOAD DUP1 DUP4 SUB DUP2 PUSH1 0x0 DUP8 GAS CALL ISZERO DUP1 ISZERO PUSH2 0x2950 JUMPI RETURNDATASIZE PUSH1 0x0 DUP1 RETURNDATACOPY RETURNDATASIZE PUSH1 0x0 REVERT JUMPDEST POP POP POP POP PUSH1 0x40 MLOAD RETURNDATASIZE PUSH1 0x1F NOT PUSH1 0x1F DUP3 ADD AND DUP3 ADD DUP1 PUSH1 0x40 MSTORE POP DUP2 ADD SWAP1 PUSH2 0x2974 SWAP2 SWAP1 PUSH2 0x4C7B JUMP JUMPDEST SWAP3 POP POP POP SWAP7 SWAP6 POP POP POP POP POP POP JUMP JUMPDEST PUSH1 0x0 CALLER DUP3 PUSH2 0x2990 DUP3 DUP3 PUSH2 0x3062 JUMP JUMPDEST PUSH2 0x29CF JUMPI PUSH1 0x40 MLOAD PUSH32 0x8C379A000000000000000000000000000000000000000000000000000000000 DUP2 MSTORE PUSH1 0x4 ADD PUSH2 0x29C6 SWAP1 PUSH2 0x5486 JUMP JUMPDEST PUSH1 0x40 MLOAD DUP1 SWAP2 SUB SWAP1 REVERT JUMPDEST PUSH2 0x29D7 PUSH2 0x1F78 JUMP JUMPDEST PUSH2 0x2A16 JUMPI PUSH1 0x40 MLOAD PUSH32 0x8C379A000000000000000000000000000000000000000000000000000000000 DUP2 MSTORE PUSH1 0x4 ADD PUSH2 0x2A0D SWAP1 PUSH2 0x50C9 JUMP JUMPDEST PUSH1 0x40 MLOAD DUP1 SWAP2 SUB SWAP1 REVERT JUMPDEST PUSH1 0x0 PUSH2 0x2A20 PUSH2 0x2DF9 JUMP JUMPDEST PUSH20 0xFFFFFFFFFFFFFFFFFFFFFFFFFFFFFFFFFFFFFFFF AND PUSH4 0x236DF93C CALLER PUSH32 0x8E1604A838D0F1A9B2CDA14A099E4CEB08E966CC6E05E8296F67B02D61A79F09 PUSH1 0x0 SHL PUSH1 0x40 MLOAD DUP4 PUSH4 0xFFFFFFFF AND PUSH1 0xE0 SHL DUP2 MSTORE PUSH1 0x4 ADD PUSH2 0x2A7D SWAP3 SWAP2 SWAP1 PUSH2 0x50E9 JUMP JUMPDEST PUSH1 0x0 PUSH1 0x40 MLOAD DUP1 DUP4 SUB DUP2 DUP7 GAS STATICCALL ISZERO DUP1 ISZERO PUSH2 0x2A9A JUMPI RETURNDATASIZE PUSH1 0x0 DUP1 RETURNDATACOPY RETURNDATASIZE PUSH1 0x0 REVERT JUMPDEST POP POP POP POP PUSH1 0x40 MLOAD RETURNDATASIZE PUSH1 0x0 DUP3 RETURNDATACOPY RETURNDATASIZE PUSH1 0x1F NOT PUSH1 0x1F DUP3 ADD AND DUP3 ADD DUP1 PUSH1 0x40 MSTORE POP DUP2 ADD SWAP1 PUSH2 0x2AC3 SWAP2 SWAP1 PUSH2 0x4F97 JUMP JUMPDEST PUSH1 0x20 ADD MLOAD SWAP1 POP DUP1 SWAP4 POP POP POP POP SWAP2 SWAP1 POP JUMP JUMPDEST PUSH2 0x2ADC PUSH2 0x32C2 JUMP JUMPDEST PUSH1 0x0 PUSH2 0x2AE6 PUSH2 0x2DF9 JUMP JUMPDEST PUSH20 0xFFFFFFFFFFFFFFFFFFFFFFFFFFFFFFFFFFFFFFFF AND PUSH4 0xC78A6741 DUP5 PUSH32 0x8E1604A838D0F1A9B2CDA14A099E4CEB08E966CC6E05E8296F67B02D61A79F09 PUSH1 0x0 SHL PUSH1 0x40 MLOAD DUP4 PUSH4 0xFFFFFFFF AND PUSH1 0xE0 SHL DUP2 MSTORE PUSH1 0x4 ADD PUSH2 0x2B43 SWAP3 SWAP2 SWAP1 PUSH2 0x483E JUMP JUMPDEST PUSH1 0x0 PUSH1 0x40 MLOAD DUP1 DUP4 SUB DUP2 DUP7 GAS STATICCALL ISZERO DUP1 ISZERO PUSH2 0x2B60 JUMPI RETURNDATASIZE PUSH1 0x0 DUP1 RETURNDATACOPY RETURNDATASIZE PUSH1 0x0 REVERT JUMPDEST POP POP POP POP PUSH1 0x40 MLOAD RETURNDATASIZE PUSH1 0x0 DUP3 RETURNDATACOPY RETURNDATASIZE PUSH1 0x1F NOT PUSH1 0x1F DUP3 ADD AND DUP3 ADD DUP1 PUSH1 0x40 MSTORE POP DUP2 ADD SWAP1 PUSH2 0x2B89 SWAP2 SWAP1 PUSH2 0x4F97 JUMP JUMPDEST SWAP1 POP PUSH1 0x0 DUP2 PUSH1 0x40 ADD SWAP1 PUSH20 0xFFFFFFFFFFFFFFFFFFFFFFFFFFFFFFFFFFFFFFFF AND SWAP1 DUP2 PUSH20 0xFFFFFFFFFFFFFFFFFFFFFFFFFFFFFFFFFFFFFFFF AND DUP2 MSTORE POP POP PUSH1 0x40 MLOAD DUP1 PUSH1 0x20 ADD PUSH1 0x40 MSTORE DUP1 PUSH1 0x0 DUP2 MSTORE POP DUP2 PUSH2 0x140 ADD DUP2 SWAP1 MSTORE POP DUP1 SWAP2 POP POP SWAP2 SWAP1 POP JUMP JUMPDEST PUSH2 0x2BEE PUSH2 0x2FEB JUMP JUMPDEST PUSH1 0x0 PUSH20 0xFFFFFFFFFFFFFFFFFFFFFFFFFFFFFFFFFFFFFFFF AND DUP2 PUSH20 0xFFFFFFFFFFFFFFFFFFFFFFFFFFFFFFFFFFFFFFFF AND SUB PUSH2 0x2C5D JUMPI PUSH1 0x40 MLOAD PUSH32 0x8C379A000000000000000000000000000000000000000000000000000000000 DUP2 MSTORE PUSH1 0x4 ADD PUSH2 0x2C54 SWAP1 PUSH2 0x5518 JUMP JUMPDEST PUSH1 0x40 MLOAD DUP1 SWAP2 SUB SWAP1 REVERT JUMPDEST PUSH2 0x2C66 DUP2 PUSH2 0x30AB JUMP JUMPDEST POP JUMP JUMPDEST PUSH1 0x0 DUP3 PUSH2 0x2C74 PUSH2 0x1F78 JUMP JUMPDEST PUSH2 0x2CB3 JUMPI PUSH1 0x40 MLOAD PUSH32 0x8C379A000000000000000000000000000000000000000000000000000000000 DUP2 MSTORE PUSH1 0x4 ADD PUSH2 0x2CAA SWAP1 PUSH2 0x477C JUMP JUMPDEST PUSH1 0x40 MLOAD DUP1 SWAP2 SUB SWAP1 REVERT JUMPDEST PUSH2 0x2CBC DUP2 PUSH2 0x2E77 JUMP JUMPDEST PUSH2 0x2CFB JUMPI PUSH1 0x40 MLOAD PUSH32 0x8C379A000000000000000000000000000000000000000000000000000000000 DUP2 MSTORE PUSH1 0x4 ADD PUSH2 0x2CF2 SWAP1 PUSH2 0x4A92 JUMP JUMPDEST PUSH1 0x40 MLOAD DUP1 SWAP2 SUB SWAP1 REVERT JUMPDEST DUP4 DUP4 PUSH2 0x2D07 DUP3 DUP3 PUSH2 0x316F JUMP JUMPDEST PUSH2 0x2D46 JUMPI PUSH1 0x40 MLOAD PUSH32 0x8C379A000000000000000000000000000000000000000000000000000000000 DUP2 MSTORE PUSH1 0x4 ADD PUSH2 0x2D3D SWAP1 PUSH2 0x55AA JUMP JUMPDEST PUSH1 0x40 MLOAD DUP1 SWAP2 SUB SWAP1 REVERT JUMPDEST PUSH2 0x2D4E PUSH2 0x2E4D JUMP JUMPDEST PUSH20 0xFFFFFFFFFFFFFFFFFFFFFFFFFFFFFFFFFFFFFFFF AND PUSH4 0xB615C00A DUP7 PUSH32 0x8E1604A838D0F1A9B2CDA14A099E4CEB08E966CC6E05E8296F67B02D61A79F09 PUSH1 0x0 SHL PUSH1 0x40 MLOAD DUP4 PUSH4 0xFFFFFFFF AND PUSH1 0xE0 SHL DUP2 MSTORE PUSH1 0x4 ADD PUSH2 0x2DAB SWAP3 SWAP2 SWAP1 PUSH2 0x483E JUMP JUMPDEST PUSH1 0x20 PUSH1 0x40 MLOAD DUP1 DUP4 SUB DUP2 PUSH1 0x0 DUP8 GAS CALL ISZERO DUP1 ISZERO PUSH2 0x2DCA JUMPI RETURNDATASIZE PUSH1 0x0 DUP1 RETURNDATACOPY RETURNDATASIZE PUSH1 0x0 REVERT JUMPDEST POP POP POP POP PUSH1 0x40 MLOAD RETURNDATASIZE PUSH1 0x1F NOT PUSH1 0x1F DUP3 ADD AND DUP3 ADD DUP1 PUSH1 0x40 MSTORE POP DUP2 ADD SWAP1 PUSH2 0x2DEE SWAP2 SWAP1 PUSH2 0x4811 JUMP JUMPDEST SWAP4 POP POP POP POP SWAP3 SWAP2 POP POP JUMP JUMPDEST PUSH1 0x0 PUSH1 0x1 PUSH1 0x0 SWAP1 SLOAD SWAP1 PUSH2 0x100 EXP SWAP1 DIV PUSH20 0xFFFFFFFFFFFFFFFFFFFFFFFFFFFFFFFFFFFFFFFF AND SWAP1 POP SWAP1 JUMP JUMPDEST PUSH1 0x0 PUSH1 0x5 PUSH1 0x0 SWAP1 SLOAD SWAP1 PUSH2 0x100 EXP SWAP1 DIV PUSH20 0xFFFFFFFFFFFFFFFFFFFFFFFFFFFFFFFFFFFFFFFF AND SWAP1 POP SWAP1 JUMP JUMPDEST PUSH1 0x0 PUSH1 0x7 PUSH1 0x0 SWAP1 SLOAD SWAP1 PUSH2 0x100 EXP SWAP1 DIV PUSH20 0xFFFFFFFFFFFFFFFFFFFFFFFFFFFFFFFFFFFFFFFF AND SWAP1 POP SWAP1 JUMP JUMPDEST PUSH1 0x0 DUP1 PUSH1 0x1 PUSH1 0x0 SWAP1 SLOAD SWAP1 PUSH2 0x100 EXP SWAP1 DIV PUSH20 0xFFFFFFFFFFFFFFFFFFFFFFFFFFFFFFFFFFFFFFFF AND PUSH20 0xFFFFFFFFFFFFFFFFFFFFFFFFFFFFFFFFFFFFFFFF AND PUSH4 0xC78A6741 DUP5 PUSH32 0x8E1604A838D0F1A9B2CDA14A099E4CEB08E966CC6E05E8296F67B02D61A79F09 PUSH1 0x0 SHL PUSH1 0x40 MLOAD DUP4 PUSH4 0xFFFFFFFF AND PUSH1 0xE0 SHL DUP2 MSTORE PUSH1 0x4 ADD PUSH2 0x2EFA SWAP3 SWAP2 SWAP1 PUSH2 0x483E JUMP JUMPDEST PUSH1 0x0 PUSH1 0x40 MLOAD DUP1 DUP4 SUB DUP2 DUP7 GAS STATICCALL ISZERO DUP1 ISZERO PUSH2 0x2F17 JUMPI RETURNDATASIZE PUSH1 0x0 DUP1 RETURNDATACOPY RETURNDATASIZE PUSH1 0x0 REVERT JUMPDEST POP POP POP POP PUSH1 0x40 MLOAD RETURNDATASIZE PUSH1 0x0 DUP3 RETURNDATACOPY RETURNDATASIZE PUSH1 0x1F NOT PUSH1 0x1F DUP3 ADD AND DUP3 ADD DUP1 PUSH1 0x40 MSTORE POP DUP2 ADD SWAP1 PUSH2 0x2F40 SWAP2 SWAP1 PUSH2 0x4F97 JUMP JUMPDEST SWAP1 POP PUSH2 0x2F50 DUP2 PUSH1 0x40 ADD MLOAD CALLER PUSH2 0x3062 JUMP JUMPDEST SWAP2 POP POP SWAP2 SWAP1 POP JUMP JUMPDEST PUSH1 0x0 DUP2 PUSH1 0x40 MLOAD PUSH1 0x20 ADD PUSH2 0x2F6B SWAP2 SWAP1 PUSH2 0x5606 JUMP JUMPDEST PUSH1 0x40 MLOAD PUSH1 0x20 DUP2 DUP4 SUB SUB DUP2 MSTORE SWAP1 PUSH1 0x40 MSTORE DUP1 MLOAD SWAP1 PUSH1 0x20 ADD KECCAK256 DUP4 PUSH1 0x40 MLOAD PUSH1 0x20 ADD PUSH2 0x2F92 SWAP2 SWAP1 PUSH2 0x5606 JUMP JUMPDEST PUSH1 0x40 MLOAD PUSH1 0x20 DUP2 DUP4 SUB SUB DUP2 MSTORE SWAP1 PUSH1 0x40 MSTORE DUP1 MLOAD SWAP1 PUSH1 0x20 ADD KECCAK256 SUB PUSH2 0x2FB6 JUMPI PUSH1 0x1 SWAP1 POP PUSH2 0x2FBB JUMP JUMPDEST PUSH1 0x0 SWAP1 POP JUMPDEST SWAP3 SWAP2 POP POP JUMP JUMPDEST PUSH1 0x0 PUSH1 0x3 PUSH1 0x0 SWAP1 SLOAD SWAP1 PUSH2 0x100 EXP SWAP1 DIV PUSH20 0xFFFFFFFFFFFFFFFFFFFFFFFFFFFFFFFFFFFFFFFF AND SWAP1 POP SWAP1 JUMP JUMPDEST CALLER PUSH20 0xFFFFFFFFFFFFFFFFFFFFFFFFFFFFFFFFFFFFFFFF AND PUSH2 0x300A PUSH2 0x1961 JUMP JUMPDEST PUSH20 0xFFFFFFFFFFFFFFFFFFFFFFFFFFFFFFFFFFFFFFFF AND EQ PUSH2 0x3060 JUMPI PUSH1 0x40 MLOAD PUSH32 0x8C379A000000000000000000000000000000000000000000000000000000000 DUP2 MSTORE PUSH1 0x4 ADD PUSH2 0x3057 SWAP1 PUSH2 0x5669 JUMP JUMPDEST PUSH1 0x40 MLOAD DUP1 SWAP2 SUB SWAP1 REVERT JUMPDEST JUMP JUMPDEST PUSH1 0x0 DUP2 PUSH20 0xFFFFFFFFFFFFFFFFFFFFFFFFFFFFFFFFFFFFFFFF AND DUP4 PUSH20 0xFFFFFFFFFFFFFFFFFFFFFFFFFFFFFFFFFFFFFFFF AND SUB PUSH2 0x30A0 JUMPI PUSH1 0x1 SWAP1 POP PUSH2 0x30A5 JUMP JUMPDEST PUSH1 0x0 SWAP1 POP JUMPDEST SWAP3 SWAP2 POP POP JUMP JUMPDEST PUSH1 0x0 DUP1 PUSH1 0x0 SWAP1 SLOAD SWAP1 PUSH2 0x100 EXP SWAP1 DIV PUSH20 0xFFFFFFFFFFFFFFFFFFFFFFFFFFFFFFFFFFFFFFFF AND SWAP1 POP DUP2 PUSH1 0x0 DUP1 PUSH2 0x100 EXP DUP2 SLOAD DUP2 PUSH20 0xFFFFFFFFFFFFFFFFFFFFFFFFFFFFFFFFFFFFFFFF MUL NOT AND SWAP1 DUP4 PUSH20 0xFFFFFFFFFFFFFFFFFFFFFFFFFFFFFFFFFFFFFFFF AND MUL OR SWAP1 SSTORE POP DUP2 PUSH20 0xFFFFFFFFFFFFFFFFFFFFFFFFFFFFFFFFFFFFFFFF AND DUP2 PUSH20 0xFFFFFFFFFFFFFFFFFFFFFFFFFFFFFFFFFFFFFFFF AND PUSH32 0x8BE0079C531659141344CD1FD0A4F28419497F9722A3DAAFE3B4186F6B6457E0 PUSH1 0x40 MLOAD PUSH1 0x40 MLOAD DUP1 SWAP2 SUB SWAP1 LOG3 POP POP JUMP JUMPDEST PUSH1 0x0 DUP1 PUSH1 0x7 PUSH1 0x0 SWAP1 SLOAD SWAP1 PUSH2 0x100 EXP SWAP1 DIV PUSH20 0xFFFFFFFFFFFFFFFFFFFFFFFFFFFFFFFFFFFFFFFF AND PUSH20 0xFFFFFFFFFFFFFFFFFFFFFFFFFFFFFFFFFFFFFFFF AND PUSH4 0xC78A6741 DUP5 PUSH32 0x8E1604A838D0F1A9B2CDA14A099E4CEB08E966CC6E05E8296F67B02D61A79F09 PUSH1 0x0 SHL PUSH1 0x40 MLOAD DUP4 PUSH4 0xFFFFFFFF AND PUSH1 0xE0 SHL DUP2 MSTORE PUSH1 0x4 ADD PUSH2 0x31F2 SWAP3 SWAP2 SWAP1 PUSH2 0x483E JUMP JUMPDEST PUSH1 0xC0 PUSH1 0x40 MLOAD DUP1 DUP4 SUB DUP2 DUP7 GAS STATICCALL ISZERO DUP1 ISZERO PUSH2 0x320F JUMPI RETURNDATASIZE PUSH1 0x0 DUP1 RETURNDATACOPY RETURNDATASIZE PUSH1 0x0 REVERT JUMPDEST POP POP POP POP PUSH1 0x40 MLOAD RETURNDATASIZE PUSH1 0x1F NOT PUSH1 0x1F DUP3 ADD AND DUP3 ADD DUP1 PUSH1 0x40 MSTORE POP DUP2 ADD SWAP1 PUSH2 0x3233 SWAP2 SWAP1 PUSH2 0x49F3 JUMP JUMPDEST PUSH1 0x60 ADD MLOAD SWAP1 POP DUP4 DUP2 SUB PUSH2 0x324A JUMPI PUSH1 0x1 SWAP2 POP POP PUSH2 0x3250 JUMP JUMPDEST PUSH1 0x0 SWAP2 POP POP JUMPDEST SWAP3 SWAP2 POP POP JUMP JUMPDEST PUSH1 0x40 MLOAD DUP1 PUSH1 0xC0 ADD PUSH1 0x40 MSTORE DUP1 PUSH1 0x0 DUP2 MSTORE PUSH1 0x20 ADD PUSH1 0x0 DUP2 MSTORE PUSH1 0x20 ADD PUSH1 0x0 DUP2 MSTORE PUSH1 0x20 ADD PUSH1 0x0 DUP2 MSTORE PUSH1 0x20 ADD PUSH1 0x0 DUP2 MSTORE PUSH1 0x20 ADD PUSH1 0x0 DUP2 MSTORE POP SWAP1 JUMP JUMPDEST PUSH1 0x40 MLOAD DUP1 PUSH1 0xC0 ADD PUSH1 0x40 MSTORE DUP1 PUSH1 0x0 DUP2 MSTORE PUSH1 0x20 ADD PUSH1 0x0 DUP2 MSTORE PUSH1 0x20 ADD PUSH1 0x0 DUP2 MSTORE PUSH1 0x20 ADD PUSH1 0x0 DUP2 MSTORE PUSH1 0x20 ADD PUSH1 0x0 DUP2 MSTORE PUSH1 0x20 ADD PUSH1 0x0 DUP2 MSTORE POP SWAP1 JUMP JUMPDEST PUSH1 0x40 MLOAD DUP1 PUSH2 0x160 ADD PUSH1 0x40 MSTORE DUP1 PUSH1 0x0 DUP2 MSTORE PUSH1 0x20 ADD PUSH1 0x0 DUP2 MSTORE PUSH1 0x20 ADD PUSH1 0x0 PUSH20 0xFFFFFFFFFFFFFFFFFFFFFFFFFFFFFFFFFFFFFFFF AND DUP2 MSTORE PUSH1 0x20 ADD PUSH1 0x60 DUP2 MSTORE PUSH1 0x20 ADD PUSH1 0x60 DUP2 MSTORE PUSH1 0x20 ADD PUSH1 0x60 DUP2 MSTORE PUSH1 0x20 ADD PUSH1 0x60 DUP2 MSTORE PUSH1 0x20 ADD PUSH1 0x60 DUP2 MSTORE PUSH1 0x20 ADD PUSH1 0x60 DUP2 MSTORE PUSH1 0x20 ADD PUSH1 0x60 DUP2 MSTORE PUSH1 0x20 ADD PUSH1 0x60 DUP2 MSTORE POP SWAP1 JUMP JUMPDEST PUSH1 0x40 MLOAD DUP1 PUSH2 0x100 ADD PUSH1 0x40 MSTORE DUP1 PUSH1 0x0 DUP2 MSTORE PUSH1 0x20 ADD PUSH1 0x0 DUP2 MSTORE PUSH1 0x20 ADD PUSH1 0x60 DUP2 MSTORE PUSH1 0x20 ADD PUSH1 0x0 DUP2 MSTORE PUSH1 0x20 ADD PUSH1 0x60 DUP2 MSTORE PUSH1 0x20 ADD PUSH1 0x60 DUP2 MSTORE PUSH1 0x20 ADD PUSH1 0x60 DUP2 MSTORE PUSH1 0x20 ADD PUSH1 0x0 PUSH1 0x3 DUP2 GT ISZERO PUSH2 0x3383 JUMPI PUSH2 0x3382 PUSH2 0x3C13 JUMP JUMPDEST JUMPDEST DUP2 MSTORE POP SWAP1 JUMP JUMPDEST PUSH1 0x0 PUSH1 0x40 MLOAD SWAP1 POP SWAP1 JUMP JUMPDEST PUSH1 0x0 DUP1 REVERT JUMPDEST PUSH1 0x0 DUP1 REVERT JUMPDEST PUSH1 0x0 DUP2 SWAP1 POP SWAP2 SWAP1 POP JUMP JUMPDEST PUSH2 0x33B0 DUP2 PUSH2 0x339D JUMP JUMPDEST DUP2 EQ PUSH2 0x33BB JUMPI PUSH1 0x0 DUP1 REVERT JUMPDEST POP JUMP JUMPDEST PUSH1 0x0 DUP2 CALLDATALOAD SWAP1 POP PUSH2 0x33CD DUP2 PUSH2 0x33A7 JUMP JUMPDEST SWAP3 SWAP2 POP POP JUMP JUMPDEST PUSH1 0x0 DUP1 REVERT JUMPDEST PUSH1 0x0 DUP1 REVERT JUMPDEST PUSH1 0x0 PUSH1 0x1F NOT PUSH1 0x1F DUP4 ADD AND SWAP1 POP SWAP2 SWAP1 POP JUMP JUMPDEST PUSH32 0x4E487B7100000000000000000000000000000000000000000000000000000000 PUSH1 0x0 MSTORE PUSH1 0x41 PUSH1 0x4 MSTORE PUSH1 0x24 PUSH1 0x0 REVERT JUMPDEST PUSH2 0x3426 DUP3 PUSH2 0x33DD JUMP JUMPDEST DUP2 ADD DUP2 DUP2 LT PUSH8 0xFFFFFFFFFFFFFFFF DUP3 GT OR ISZERO PUSH2 0x3445 JUMPI PUSH2 0x3444 PUSH2 0x33EE JUMP JUMPDEST JUMPDEST DUP1 PUSH1 0x40 MSTORE POP POP POP JUMP JUMPDEST PUSH1 0x0 PUSH2 0x3458 PUSH2 0x3389 JUMP JUMPDEST SWAP1 POP PUSH2 0x3464 DUP3 DUP3 PUSH2 0x341D JUMP JUMPDEST SWAP2 SWAP1 POP JUMP JUMPDEST PUSH1 0x0 PUSH8 0xFFFFFFFFFFFFFFFF DUP3 GT ISZERO PUSH2 0x3484 JUMPI PUSH2 0x3483 PUSH2 0x33EE JUMP JUMPDEST JUMPDEST PUSH2 0x348D DUP3 PUSH2 0x33DD JUMP JUMPDEST SWAP1 POP PUSH1 0x20 DUP2 ADD SWAP1 POP SWAP2 SWAP1 POP JUMP JUMPDEST DUP3 DUP2 DUP4 CALLDATACOPY PUSH1 0x0 DUP4 DUP4 ADD MSTORE POP POP POP JUMP JUMPDEST PUSH1 0x0 PUSH2 0x34BC PUSH2 0x34B7 DUP5 PUSH2 0x3469 JUMP JUMPDEST PUSH2 0x344E JUMP JUMPDEST SWAP1 POP DUP3 DUP2 MSTORE PUSH1 0x20 DUP2 ADD DUP5 DUP5 DUP5 ADD GT ISZERO PUSH2 0x34D8 JUMPI PUSH2 0x34D7 PUSH2 0x33D8 JUMP JUMPDEST JUMPDEST PUSH2 0x34E3 DUP5 DUP3 DUP6 PUSH2 0x349A JUMP JUMPDEST POP SWAP4 SWAP3 POP POP POP JUMP JUMPDEST PUSH1 0x0 DUP3 PUSH1 0x1F DUP4 ADD SLT PUSH2 0x3500 JUMPI PUSH2 0x34FF PUSH2 0x33D3 JUMP JUMPDEST JUMPDEST DUP2 CALLDATALOAD PUSH2 0x3510 DUP5 DUP3 PUSH1 0x20 DUP7 ADD PUSH2 0x34A9 JUMP JUMPDEST SWAP2 POP POP SWAP3 SWAP2 POP POP JUMP JUMPDEST PUSH1 0x0 DUP1 PUSH1 0x0 DUP1 PUSH1 0x0 DUP1 PUSH1 0x0 DUP1 PUSH1 0x0 PUSH2 0x120 DUP11 DUP13 SUB SLT ISZERO PUSH2 0x353C JUMPI PUSH2 0x353B PUSH2 0x3393 JUMP JUMPDEST JUMPDEST PUSH1 0x0 PUSH2 0x354A DUP13 DUP3 DUP14 ADD PUSH2 0x33BE JUMP JUMPDEST SWAP10 POP POP PUSH1 0x20 DUP11 ADD CALLDATALOAD PUSH8 0xFFFFFFFFFFFFFFFF DUP2 GT ISZERO PUSH2 0x356B JUMPI PUSH2 0x356A PUSH2 0x3398 JUMP JUMPDEST JUMPDEST PUSH2 0x3577 DUP13 DUP3 DUP14 ADD PUSH2 0x34EB JUMP JUMPDEST SWAP9 POP POP PUSH1 0x40 DUP11 ADD CALLDATALOAD PUSH8 0xFFFFFFFFFFFFFFFF DUP2 GT ISZERO PUSH2 0x3598 JUMPI PUSH2 0x3597 PUSH2 0x3398 JUMP JUMPDEST JUMPDEST PUSH2 0x35A4 DUP13 DUP3 DUP14 ADD PUSH2 0x34EB JUMP JUMPDEST SWAP8 POP POP PUSH1 0x60 DUP11 ADD CALLDATALOAD PUSH8 0xFFFFFFFFFFFFFFFF DUP2 GT ISZERO PUSH2 0x35C5 JUMPI PUSH2 0x35C4 PUSH2 0x3398 JUMP JUMPDEST JUMPDEST PUSH2 0x35D1 DUP13 DUP3 DUP14 ADD PUSH2 0x34EB JUMP JUMPDEST SWAP7 POP POP PUSH1 0x80 DUP11 ADD CALLDATALOAD PUSH8 0xFFFFFFFFFFFFFFFF DUP2 GT ISZERO PUSH2 0x35F2 JUMPI PUSH2 0x35F1 PUSH2 0x3398 JUMP JUMPDEST JUMPDEST PUSH2 0x35FE DUP13 DUP3 DUP14 ADD PUSH2 0x34EB JUMP JUMPDEST SWAP6 POP POP PUSH1 0xA0 DUP11 ADD CALLDATALOAD PUSH8 0xFFFFFFFFFFFFFFFF DUP2 GT ISZERO PUSH2 0x361F JUMPI PUSH2 0x361E PUSH2 0x3398 JUMP JUMPDEST JUMPDEST PUSH2 0x362B DUP13 DUP3 DUP14 ADD PUSH2 0x34EB JUMP JUMPDEST SWAP5 POP POP PUSH1 0xC0 DUP11 ADD CALLDATALOAD PUSH8 0xFFFFFFFFFFFFFFFF DUP2 GT ISZERO PUSH2 0x364C JUMPI PUSH2 0x364B PUSH2 0x3398 JUMP JUMPDEST JUMPDEST PUSH2 0x3658 DUP13 DUP3 DUP14 ADD PUSH2 0x34EB JUMP JUMPDEST SWAP4 POP POP PUSH1 0xE0 DUP11 ADD CALLDATALOAD PUSH8 0xFFFFFFFFFFFFFFFF DUP2 GT ISZERO PUSH2 0x3679 JUMPI PUSH2 0x3678 PUSH2 0x3398 JUMP JUMPDEST JUMPDEST PUSH2 0x3685 DUP13 DUP3 DUP14 ADD PUSH2 0x34EB JUMP JUMPDEST SWAP3 POP POP PUSH2 0x100 DUP11 ADD CALLDATALOAD PUSH8 0xFFFFFFFFFFFFFFFF DUP2 GT ISZERO PUSH2 0x36A7 JUMPI PUSH2 0x36A6 PUSH2 0x3398 JUMP JUMPDEST JUMPDEST PUSH2 0x36B3 DUP13 DUP3 DUP14 ADD PUSH2 0x34EB JUMP JUMPDEST SWAP2 POP POP SWAP3 SWAP6 SWAP9 POP SWAP3 SWAP6 SWAP9 POP SWAP3 SWAP6 SWAP9 JUMP JUMPDEST PUSH1 0x0 DUP2 ISZERO ISZERO SWAP1 POP SWAP2 SWAP1 POP JUMP JUMPDEST PUSH2 0x36D8 DUP2 PUSH2 0x36C3 JUMP JUMPDEST DUP3 MSTORE POP POP JUMP JUMPDEST PUSH1 0x0 PUSH1 0x20 DUP3 ADD SWAP1 POP PUSH2 0x36F3 PUSH1 0x0 DUP4 ADD DUP5 PUSH2 0x36CF JUMP JUMPDEST SWAP3 SWAP2 POP POP JUMP JUMPDEST PUSH1 0x0 PUSH1 0x20 DUP3 DUP5 SUB SLT ISZERO PUSH2 0x370F JUMPI PUSH2 0x370E PUSH2 0x3393 JUMP JUMPDEST JUMPDEST PUSH1 0x0 PUSH2 0x371D DUP5 DUP3 DUP6 ADD PUSH2 0x33BE JUMP JUMPDEST SWAP2 POP POP SWAP3 SWAP2 POP POP JUMP JUMPDEST PUSH2 0x372F DUP2 PUSH2 0x339D JUMP JUMPDEST DUP3 MSTORE POP POP JUMP JUMPDEST PUSH1 0xC0 DUP3 ADD PUSH1 0x0 DUP3 ADD MLOAD PUSH2 0x374B PUSH1 0x0 DUP6 ADD DUP3 PUSH2 0x3726 JUMP JUMPDEST POP PUSH1 0x20 DUP3 ADD MLOAD PUSH2 0x375E PUSH1 0x20 DUP6 ADD DUP3 PUSH2 0x3726 JUMP JUMPDEST POP PUSH1 0x40 DUP3 ADD MLOAD PUSH2 0x3771 PUSH1 0x40 DUP6 ADD DUP3 PUSH2 0x3726 JUMP JUMPDEST POP PUSH1 0x60 DUP3 ADD MLOAD PUSH2 0x3784 PUSH1 0x60 DUP6 ADD DUP3 PUSH2 0x3726 JUMP JUMPDEST POP PUSH1 0x80 DUP3 ADD MLOAD PUSH2 0x3797 PUSH1 0x80 DUP6 ADD DUP3 PUSH2 0x3726 JUMP JUMPDEST POP PUSH1 0xA0 DUP3 ADD MLOAD PUSH2 0x37AA PUSH1 0xA0 DUP6 ADD DUP3 PUSH2 0x3726 JUMP JUMPDEST POP POP POP POP JUMP JUMPDEST PUSH1 0x0 PUSH1 0xC0 DUP3 ADD SWAP1 POP PUSH2 0x37C5 PUSH1 0x0 DUP4 ADD DUP5 PUSH2 0x3735 JUMP JUMPDEST SWAP3 SWAP2 POP POP JUMP JUMPDEST PUSH1 0xC0 DUP3 ADD PUSH1 0x0 DUP3 ADD MLOAD PUSH2 0x37E1 PUSH1 0x0 DUP6 ADD DUP3 PUSH2 0x3726 JUMP JUMPDEST POP PUSH1 0x20 DUP3 ADD MLOAD PUSH2 0x37F4 PUSH1 0x20 DUP6 ADD DUP3 PUSH2 0x3726 JUMP JUMPDEST POP PUSH1 0x40 DUP3 ADD MLOAD PUSH2 0x3807 PUSH1 0x40 DUP6 ADD DUP3 PUSH2 0x3726 JUMP JUMPDEST POP PUSH1 0x60 DUP3 ADD MLOAD PUSH2 0x381A PUSH1 0x60 DUP6 ADD DUP3 PUSH2 0x3726 JUMP JUMPDEST POP PUSH1 0x80 DUP3 ADD MLOAD PUSH2 0x382D PUSH1 0x80 DUP6 ADD DUP3 PUSH2 0x3726 JUMP JUMPDEST POP PUSH1 0xA0 DUP3 ADD MLOAD PUSH2 0x3840 PUSH1 0xA0 DUP6 ADD DUP3 PUSH2 0x3726 JUMP JUMPDEST POP POP POP POP JUMP JUMPDEST PUSH1 0x0 PUSH1 0xC0 DUP3 ADD SWAP1 POP PUSH2 0x385B PUSH1 0x0 DUP4 ADD DUP5 PUSH2 0x37CB JUMP JUMPDEST SWAP3 SWAP2 POP POP JUMP JUMPDEST PUSH1 0x0 DUP1 PUSH1 0x0 DUP1 PUSH1 0x0 PUSH1 0xA0 DUP7 DUP9 SUB SLT ISZERO PUSH2 0x387D JUMPI PUSH2 0x387C PUSH2 0x3393 JUMP JUMPDEST JUMPDEST PUSH1 0x0 PUSH2 0x388B DUP9 DUP3 DUP10 ADD PUSH2 0x33BE JUMP JUMPDEST SWAP6 POP POP PUSH1 0x20 PUSH2 0x389C DUP9 DUP3 DUP10 ADD PUSH2 0x33BE JUMP JUMPDEST SWAP5 POP POP PUSH1 0x40 PUSH2 0x38AD DUP9 DUP3 DUP10 ADD PUSH2 0x33BE JUMP JUMPDEST SWAP4 POP POP PUSH1 0x60 PUSH2 0x38BE DUP9 DUP3 DUP10 ADD PUSH2 0x33BE JUMP JUMPDEST SWAP3 POP POP PUSH1 0x80 PUSH2 0x38CF DUP9 DUP3 DUP10 ADD PUSH2 0x33BE JUMP JUMPDEST SWAP2 POP POP SWAP3 SWAP6 POP SWAP3 SWAP6 SWAP1 SWAP4 POP JUMP JUMPDEST PUSH2 0x38E5 DUP2 PUSH2 0x339D JUMP JUMPDEST DUP3 MSTORE POP POP JUMP JUMPDEST PUSH1 0x0 PUSH1 0x20 DUP3 ADD SWAP1 POP PUSH2 0x3900 PUSH1 0x0 DUP4 ADD DUP5 PUSH2 0x38DC JUMP JUMPDEST SWAP3 SWAP2 POP POP JUMP JUMPDEST PUSH1 0x0 DUP2 MLOAD SWAP1 POP SWAP2 SWAP1 POP JUMP JUMPDEST PUSH1 0x0 DUP3 DUP3 MSTORE PUSH1 0x20 DUP3 ADD SWAP1 POP SWAP3 SWAP2 POP POP JUMP JUMPDEST PUSH1 0x0 DUP2 SWAP1 POP PUSH1 0x20 DUP3 ADD SWAP1 POP SWAP2 SWAP1 POP JUMP JUMPDEST PUSH1 0x0 PUSH20 0xFFFFFFFFFFFFFFFFFFFFFFFFFFFFFFFFFFFFFFFF DUP3 AND SWAP1 POP SWAP2 SWAP1 POP JUMP JUMPDEST PUSH1 0x0 PUSH2 0x395D DUP3 PUSH2 0x3932 JUMP JUMPDEST SWAP1 POP SWAP2 SWAP1 POP JUMP JUMPDEST PUSH2 0x396D DUP2 PUSH2 0x3952 JUMP JUMPDEST DUP3 MSTORE POP POP JUMP JUMPDEST PUSH1 0x0 DUP2 MLOAD SWAP1 POP SWAP2 SWAP1 POP JUMP JUMPDEST PUSH1 0x0 DUP3 DUP3 MSTORE PUSH1 0x20 DUP3 ADD SWAP1 POP SWAP3 SWAP2 POP POP JUMP JUMPDEST PUSH1 0x0 JUMPDEST DUP4 DUP2 LT ISZERO PUSH2 0x39AD JUMPI DUP1 DUP3 ADD MLOAD DUP2 DUP5 ADD MSTORE PUSH1 0x20 DUP2 ADD SWAP1 POP PUSH2 0x3992 JUMP JUMPDEST PUSH1 0x0 DUP5 DUP5 ADD MSTORE POP POP POP POP JUMP JUMPDEST PUSH1 0x0 PUSH2 0x39C4 DUP3 PUSH2 0x3973 JUMP JUMPDEST PUSH2 0x39CE DUP2 DUP6 PUSH2 0x397E JUMP JUMPDEST SWAP4 POP PUSH2 0x39DE DUP2 DUP6 PUSH1 0x20 DUP7 ADD PUSH2 0x398F JUMP JUMPDEST PUSH2 0x39E7 DUP2 PUSH2 0x33DD JUMP JUMPDEST DUP5 ADD SWAP2 POP POP SWAP3 SWAP2 POP POP JUMP JUMPDEST PUSH1 0x0 PUSH2 0x160 DUP4 ADD PUSH1 0x0 DUP4 ADD MLOAD PUSH2 0x3A0B PUSH1 0x0 DUP7 ADD DUP3 PUSH2 0x3726 JUMP JUMPDEST POP PUSH1 0x20 DUP4 ADD MLOAD PUSH2 0x3A1E PUSH1 0x20 DUP7 ADD DUP3 PUSH2 0x3726 JUMP JUMPDEST POP PUSH1 0x40 DUP4 ADD MLOAD PUSH2 0x3A31 PUSH1 0x40 DUP7 ADD DUP3 PUSH2 0x3964 JUMP JUMPDEST POP PUSH1 0x60 DUP4 ADD MLOAD DUP5 DUP3 SUB PUSH1 0x60 DUP7 ADD MSTORE PUSH2 0x3A49 DUP3 DUP3 PUSH2 0x39B9 JUMP JUMPDEST SWAP2 POP POP PUSH1 0x80 DUP4 ADD MLOAD DUP5 DUP3 SUB PUSH1 0x80 DUP7 ADD MSTORE PUSH2 0x3A63 DUP3 DUP3 PUSH2 0x39B9 JUMP JUMPDEST SWAP2 POP POP PUSH1 0xA0 DUP4 ADD MLOAD DUP5 DUP3 SUB PUSH1 0xA0 DUP7 ADD MSTORE PUSH2 0x3A7D DUP3 DUP3 PUSH2 0x39B9 JUMP JUMPDEST SWAP2 POP POP PUSH1 0xC0 DUP4 ADD MLOAD DUP5 DUP3 SUB PUSH1 0xC0 DUP7 ADD MSTORE PUSH2 0x3A97 DUP3 DUP3 PUSH2 0x39B9 JUMP JUMPDEST SWAP2 POP POP PUSH1 0xE0 DUP4 ADD MLOAD DUP5 DUP3 SUB PUSH1 0xE0 DUP7 ADD MSTORE PUSH2 0x3AB1 DUP3 DUP3 PUSH2 0x39B9 JUMP JUMPDEST SWAP2 POP POP PUSH2 0x100 DUP4 ADD MLOAD DUP5 DUP3 SUB PUSH2 0x100 DUP7 ADD MSTORE PUSH2 0x3ACD DUP3 DUP3 PUSH2 0x39B9 JUMP JUMPDEST SWAP2 POP POP PUSH2 0x120 DUP4 ADD MLOAD DUP5 DUP3 SUB PUSH2 0x120 DUP7 ADD MSTORE PUSH2 0x3AE9 DUP3 DUP3 PUSH2 0x39B9 JUMP JUMPDEST SWAP2 POP POP PUSH2 0x140 DUP4 ADD MLOAD DUP5 DUP3 SUB PUSH2 0x140 DUP7 ADD MSTORE PUSH2 0x3B05 DUP3 DUP3 PUSH2 0x39B9 JUMP JUMPDEST SWAP2 POP POP DUP1 SWAP2 POP POP SWAP3 SWAP2 POP POP JUMP JUMPDEST PUSH1 0x0 PUSH2 0x3B1E DUP4 DUP4 PUSH2 0x39F2 JUMP JUMPDEST SWAP1 POP SWAP3 SWAP2 POP POP JUMP JUMPDEST PUSH1 0x0 PUSH1 0x20 DUP3 ADD SWAP1 POP SWAP2 SWAP1 POP JUMP JUMPDEST PUSH1 0x0 PUSH2 0x3B3E DUP3 PUSH2 0x3906 JUMP JUMPDEST PUSH2 0x3B48 DUP2 DUP6 PUSH2 0x3911 JUMP JUMPDEST SWAP4 POP DUP4 PUSH1 0x20 DUP3 MUL DUP6 ADD PUSH2 0x3B5A DUP6 PUSH2 0x3922 JUMP JUMPDEST DUP1 PUSH1 0x0 JUMPDEST DUP6 DUP2 LT ISZERO PUSH2 0x3B96 JUMPI DUP5 DUP5 SUB DUP10 MSTORE DUP2 MLOAD PUSH2 0x3B77 DUP6 DUP3 PUSH2 0x3B12 JUMP JUMPDEST SWAP5 POP PUSH2 0x3B82 DUP4 PUSH2 0x3B26 JUMP JUMPDEST SWAP3 POP PUSH1 0x20 DUP11 ADD SWAP10 POP POP PUSH1 0x1 DUP2 ADD SWAP1 POP PUSH2 0x3B5E JUMP JUMPDEST POP DUP3 SWAP8 POP DUP8 SWAP6 POP POP POP POP POP POP SWAP3 SWAP2 POP POP JUMP JUMPDEST PUSH1 0x0 PUSH1 0x20 DUP3 ADD SWAP1 POP DUP2 DUP2 SUB PUSH1 0x0 DUP4 ADD MSTORE PUSH2 0x3BC2 DUP2 DUP5 PUSH2 0x3B33 JUMP JUMPDEST SWAP1 POP SWAP3 SWAP2 POP POP JUMP JUMPDEST PUSH1 0x0 PUSH1 0x20 DUP3 DUP5 SUB SLT ISZERO PUSH2 0x3BE0 JUMPI PUSH2 0x3BDF PUSH2 0x3393 JUMP JUMPDEST JUMPDEST PUSH1 0x0 DUP3 ADD CALLDATALOAD PUSH8 0xFFFFFFFFFFFFFFFF DUP2 GT ISZERO PUSH2 0x3BFE JUMPI PUSH2 0x3BFD PUSH2 0x3398 JUMP JUMPDEST JUMPDEST PUSH2 0x3C0A DUP5 DUP3 DUP6 ADD PUSH2 0x34EB JUMP JUMPDEST SWAP2 POP POP SWAP3 SWAP2 POP POP JUMP JUMPDEST PUSH32 0x4E487B7100000000000000000000000000000000000000000000000000000000 PUSH1 0x0 MSTORE PUSH1 0x21 PUSH1 0x4 MSTORE PUSH1 0x24 PUSH1 0x0 REVERT JUMPDEST PUSH1 0x4 DUP2 LT PUSH2 0x3C53 JUMPI PUSH2 0x3C52 PUSH2 0x3C13 JUMP JUMPDEST JUMPDEST POP JUMP JUMPDEST PUSH1 0x0 DUP2 SWAP1 POP PUSH2 0x3C64 DUP3 PUSH2 0x3C42 JUMP JUMPDEST SWAP2 SWAP1 POP JUMP JUMPDEST PUSH1 0x0 PUSH2 0x3C74 DUP3 PUSH2 0x3C56 JUMP JUMPDEST SWAP1 POP SWAP2 SWAP1 POP JUMP JUMPDEST PUSH2 0x3C84 DUP2 PUSH2 0x3C69 JUMP JUMPDEST DUP3 MSTORE POP POP JUMP JUMPDEST PUSH1 0x0 PUSH2 0x100 DUP4 ADD PUSH1 0x0 DUP4 ADD MLOAD PUSH2 0x3CA3 PUSH1 0x0 DUP7 ADD DUP3 PUSH2 0x3726 JUMP JUMPDEST POP PUSH1 0x20 DUP4 ADD MLOAD PUSH2 0x3CB6 PUSH1 0x20 DUP7 ADD DUP3 PUSH2 0x3726 JUMP JUMPDEST POP PUSH1 0x40 DUP4 ADD MLOAD DUP5 DUP3 SUB PUSH1 0x40 DUP7 ADD MSTORE PUSH2 0x3CCE DUP3 DUP3 PUSH2 0x39B9 JUMP JUMPDEST SWAP2 POP POP PUSH1 0x60 DUP4 ADD MLOAD PUSH2 0x3CE3 PUSH1 0x60 DUP7 ADD DUP3 PUSH2 0x3726 JUMP JUMPDEST POP PUSH1 0x80 DUP4 ADD MLOAD DUP5 DUP3 SUB PUSH1 0x80 DUP7 ADD MSTORE PUSH2 0x3CFB DUP3 DUP3 PUSH2 0x39B9 JUMP JUMPDEST SWAP2 POP POP PUSH1 0xA0 DUP4 ADD MLOAD DUP5 DUP3 SUB PUSH1 0xA0 DUP7 ADD MSTORE PUSH2 0x3D15 DUP3 DUP3 PUSH2 0x39B9 JUMP JUMPDEST SWAP2 POP POP PUSH1 0xC0 DUP4 ADD MLOAD DUP5 DUP3 SUB PUSH1 0xC0 DUP7 ADD MSTORE PUSH2 0x3D2F DUP3 DUP3 PUSH2 0x39B9 JUMP JUMPDEST SWAP2 POP POP PUSH1 0xE0 DUP4 ADD MLOAD PUSH2 0x3D44 PUSH1 0xE0 DUP7 ADD DUP3 PUSH2 0x3C7B JUMP JUMPDEST POP DUP1 SWAP2 POP POP SWAP3 SWAP2 POP POP JUMP JUMPDEST PUSH1 0x0 PUSH1 0x20 DUP3 ADD SWAP1 POP DUP2 DUP2 SUB PUSH1 0x0 DUP4 ADD MSTORE PUSH2 0x3D69 DUP2 DUP5 PUSH2 0x3C8A JUMP JUMPDEST SWAP1 POP SWAP3 SWAP2 POP POP JUMP JUMPDEST PUSH1 0x0 DUP1 PUSH1 0x40 DUP4 DUP6 SUB SLT ISZERO PUSH2 0x3D88 JUMPI PUSH2 0x3D87 PUSH2 0x3393 JUMP JUMPDEST JUMPDEST PUSH1 0x0 PUSH2 0x3D96 DUP6 DUP3 DUP7 ADD PUSH2 0x33BE JUMP JUMPDEST SWAP3 POP POP PUSH1 0x20 PUSH2 0x3DA7 DUP6 DUP3 DUP7 ADD PUSH2 0x33BE JUMP JUMPDEST SWAP2 POP POP SWAP3 POP SWAP3 SWAP1 POP JUMP JUMPDEST PUSH1 0x4 DUP2 LT PUSH2 0x3DBE JUMPI PUSH1 0x0 DUP1 REVERT JUMPDEST POP JUMP JUMPDEST PUSH1 0x0 DUP2 CALLDATALOAD SWAP1 POP PUSH2 0x3DD0 DUP2 PUSH2 0x3DB1 JUMP JUMPDEST SWAP3 SWAP2 POP POP JUMP JUMPDEST PUSH1 0x0 DUP1 PUSH1 0x0 PUSH1 0x60 DUP5 DUP7 SUB SLT ISZERO PUSH2 0x3DEF JUMPI PUSH2 0x3DEE PUSH2 0x3393 JUMP JUMPDEST JUMPDEST PUSH1 0x0 PUSH2 0x3DFD DUP7 DUP3 DUP8 ADD PUSH2 0x33BE JUMP JUMPDEST SWAP4 POP POP PUSH1 0x20 PUSH2 0x3E0E DUP7 DUP3 DUP8 ADD PUSH2 0x33BE JUMP JUMPDEST SWAP3 POP POP PUSH1 0x40 PUSH2 0x3E1F DUP7 DUP3 DUP8 ADD PUSH2 0x3DC1 JUMP JUMPDEST SWAP2 POP POP SWAP3 POP SWAP3 POP SWAP3 JUMP JUMPDEST PUSH1 0x0 DUP2 MLOAD SWAP1 POP SWAP2 SWAP1 POP JUMP JUMPDEST PUSH1 0x0 DUP3 DUP3 MSTORE PUSH1 0x20 DUP3 ADD SWAP1 POP SWAP3 SWAP2 POP POP JUMP JUMPDEST PUSH1 0x0 DUP2 SWAP1 POP PUSH1 0x20 DUP3 ADD SWAP1 POP SWAP2 SWAP1 POP JUMP JUMPDEST PUSH1 0xC0 DUP3 ADD PUSH1 0x0 DUP3 ADD MLOAD PUSH2 0x3E6B PUSH1 0x0 DUP6 ADD DUP3 PUSH2 0x3726 JUMP JUMPDEST POP PUSH1 0x20 DUP3 ADD MLOAD PUSH2 0x3E7E PUSH1 0x20 DUP6 ADD DUP3 PUSH2 0x3726 JUMP JUMPDEST POP PUSH1 0x40 DUP3 ADD MLOAD PUSH2 0x3E91 PUSH1 0x40 DUP6 ADD DUP3 PUSH2 0x3726 JUMP JUMPDEST POP PUSH1 0x60 DUP3 ADD MLOAD PUSH2 0x3EA4 PUSH1 0x60 DUP6 ADD DUP3 PUSH2 0x3726 JUMP JUMPDEST POP PUSH1 0x80 DUP3 ADD MLOAD PUSH2 0x3EB7 PUSH1 0x80 DUP6 ADD DUP3 PUSH2 0x3726 JUMP JUMPDEST POP PUSH1 0xA0 DUP3 ADD MLOAD PUSH2 0x3ECA PUSH1 0xA0 DUP6 ADD DUP3 PUSH2 0x3726 JUMP JUMPDEST POP POP POP POP JUMP JUMPDEST PUSH1 0x0 PUSH2 0x3EDC DUP4 DUP4 PUSH2 0x3E55 JUMP JUMPDEST PUSH1 0xC0 DUP4 ADD SWAP1 POP SWAP3 SWAP2 POP POP JUMP JUMPDEST PUSH1 0x0 PUSH1 0x20 DUP3 ADD SWAP1 POP SWAP2 SWAP1 POP JUMP JUMPDEST PUSH1 0x0 PUSH2 0x3F00 DUP3 PUSH2 0x3E29 JUMP JUMPDEST PUSH2 0x3F0A DUP2 DUP6 PUSH2 0x3E34 JUMP JUMPDEST SWAP4 POP PUSH2 0x3F15 DUP4 PUSH2 0x3E45 JUMP JUMPDEST DUP1 PUSH1 0x0 JUMPDEST DUP4 DUP2 LT ISZERO PUSH2 0x3F46 JUMPI DUP2 MLOAD PUSH2 0x3F2D DUP9 DUP3 PUSH2 0x3ED0 JUMP JUMPDEST SWAP8 POP PUSH2 0x3F38 DUP4 PUSH2 0x3EE8 JUMP JUMPDEST SWAP3 POP POP PUSH1 0x1 DUP2 ADD SWAP1 POP PUSH2 0x3F19 JUMP JUMPDEST POP DUP6 SWAP4 POP POP POP POP SWAP3 SWAP2 POP POP JUMP JUMPDEST PUSH1 0x0 PUSH1 0x20 DUP3 ADD SWAP1 POP DUP2 DUP2 SUB PUSH1 0x0 DUP4 ADD MSTORE PUSH2 0x3F6D DUP2 DUP5 PUSH2 0x3EF5 JUMP JUMPDEST SWAP1 POP SWAP3 SWAP2 POP POP JUMP JUMPDEST PUSH2 0x3F7E DUP2 PUSH2 0x3952 JUMP JUMPDEST DUP3 MSTORE POP POP JUMP JUMPDEST PUSH1 0x0 PUSH1 0x20 DUP3 ADD SWAP1 POP PUSH2 0x3F99 PUSH1 0x0 DUP4 ADD DUP5 PUSH2 0x3F75 JUMP JUMPDEST SWAP3 SWAP2 POP POP JUMP JUMPDEST PUSH1 0x0 DUP2 MLOAD SWAP1 POP SWAP2 SWAP1 POP JUMP JUMPDEST PUSH1 0x0 DUP3 DUP3 MSTORE PUSH1 0x20 DUP3 ADD SWAP1 POP SWAP3 SWAP2 POP POP JUMP JUMPDEST PUSH1 0x0 DUP2 SWAP1 POP PUSH1 0x20 DUP3 ADD SWAP1 POP SWAP2 SWAP1 POP JUMP JUMPDEST PUSH1 0xC0 DUP3 ADD PUSH1 0x0 DUP3 ADD MLOAD PUSH2 0x3FE1 PUSH1 0x0 DUP6 ADD DUP3 PUSH2 0x3726 JUMP JUMPDEST POP PUSH1 0x20 DUP3 ADD MLOAD PUSH2 0x3FF4 PUSH1 0x20 DUP6 ADD DUP3 PUSH2 0x3726 JUMP JUMPDEST POP PUSH1 0x40 DUP3 ADD MLOAD PUSH2 0x4007 PUSH1 0x40 DUP6 ADD DUP3 PUSH2 0x3726 JUMP JUMPDEST POP PUSH1 0x60 DUP3 ADD MLOAD PUSH2 0x401A PUSH1 0x60 DUP6 ADD DUP3 PUSH2 0x3726 JUMP JUMPDEST POP PUSH1 0x80 DUP3 ADD MLOAD PUSH2 0x402D PUSH1 0x80 DUP6 ADD DUP3 PUSH2 0x3726 JUMP JUMPDEST POP PUSH1 0xA0 DUP3 ADD MLOAD PUSH2 0x4040 PUSH1 0xA0 DUP6 ADD DUP3 PUSH2 0x3726 JUMP JUMPDEST POP POP POP POP JUMP JUMPDEST PUSH1 0x0 PUSH2 0x4052 DUP4 DUP4 PUSH2 0x3FCB JUMP JUMPDEST PUSH1 0xC0 DUP4 ADD SWAP1 POP SWAP3 SWAP2 POP POP JUMP JUMPDEST PUSH1 0x0 PUSH1 0x20 DUP3 ADD SWAP1 POP SWAP2 SWAP1 POP JUMP JUMPDEST PUSH1 0x0 PUSH2 0x4076 DUP3 PUSH2 0x3F9F JUMP JUMPDEST PUSH2 0x4080 DUP2 DUP6 PUSH2 0x3FAA JUMP JUMPDEST SWAP4 POP PUSH2 0x408B DUP4 PUSH2 0x3FBB JUMP JUMPDEST DUP1 PUSH1 0x0 JUMPDEST DUP4 DUP2 LT ISZERO PUSH2 0x40BC JUMPI DUP2 MLOAD PUSH2 0x40A3 DUP9 DUP3 PUSH2 0x4046 JUMP JUMPDEST SWAP8 POP PUSH2 0x40AE DUP4 PUSH2 0x405E JUMP JUMPDEST SWAP3 POP POP PUSH1 0x1 DUP2 ADD SWAP1 POP PUSH2 0x408F JUMP JUMPDEST POP DUP6 SWAP4 POP POP POP POP SWAP3 SWAP2 POP POP JUMP JUMPDEST PUSH1 0x0 PUSH1 0x20 DUP3 ADD SWAP1 POP DUP2 DUP2 SUB PUSH1 0x0 DUP4 ADD MSTORE PUSH2 0x40E3 DUP2 DUP5 PUSH2 0x406B JUMP JUMPDEST SWAP1 POP SWAP3 SWAP2 POP POP JUMP JUMPDEST PUSH1 0x0 DUP1 PUSH1 0x0 PUSH1 0x60 DUP5 DUP7 SUB SLT ISZERO PUSH2 0x4104 JUMPI PUSH2 0x4103 PUSH2 0x3393 JUMP JUMPDEST JUMPDEST PUSH1 0x0 PUSH2 0x4112 DUP7 DUP3 DUP8 ADD PUSH2 0x33BE JUMP JUMPDEST SWAP4 POP POP PUSH1 0x20 PUSH2 0x4123 DUP7 DUP3 DUP8 ADD PUSH2 0x33BE JUMP JUMPDEST SWAP3 POP POP PUSH1 0x40 PUSH2 0x4134 DUP7 DUP3 DUP8 ADD PUSH2 0x33BE JUMP JUMPDEST SWAP2 POP POP SWAP3 POP SWAP3 POP SWAP3 JUMP JUMPDEST PUSH1 0x0 DUP2 MLOAD SWAP1 POP SWAP2 SWAP1 POP JUMP JUMPDEST PUSH1 0x0 DUP3 DUP3 MSTORE PUSH1 0x20 DUP3 ADD SWAP1 POP SWAP3 SWAP2 POP POP JUMP JUMPDEST PUSH1 0x0 DUP2 SWAP1 POP PUSH1 0x20 DUP3 ADD SWAP1 POP SWAP2 SWAP1 POP JUMP JUMPDEST PUSH1 0x0 PUSH2 0x100 DUP4 ADD PUSH1 0x0 DUP4 ADD MLOAD PUSH2 0x4183 PUSH1 0x0 DUP7 ADD DUP3 PUSH2 0x3726 JUMP JUMPDEST POP PUSH1 0x20 DUP4 ADD MLOAD PUSH2 0x4196 PUSH1 0x20 DUP7 ADD DUP3 PUSH2 0x3726 JUMP JUMPDEST POP PUSH1 0x40 DUP4 ADD MLOAD DUP5 DUP3 SUB PUSH1 0x40 DUP7 ADD MSTORE PUSH2 0x41AE DUP3 DUP3 PUSH2 0x39B9 JUMP JUMPDEST SWAP2 POP POP PUSH1 0x60 DUP4 ADD MLOAD PUSH2 0x41C3 PUSH1 0x60 DUP7 ADD DUP3 PUSH2 0x3726 JUMP JUMPDEST POP PUSH1 0x80 DUP4 ADD MLOAD DUP5 DUP3 SUB PUSH1 0x80 DUP7 ADD MSTORE PUSH2 0x41DB DUP3 DUP3 PUSH2 0x39B9 JUMP JUMPDEST SWAP2 POP POP PUSH1 0xA0 DUP4 ADD MLOAD DUP5 DUP3 SUB PUSH1 0xA0 DUP7 ADD MSTORE PUSH2 0x41F5 DUP3 DUP3 PUSH2 0x39B9 JUMP JUMPDEST SWAP2 POP POP PUSH1 0xC0 DUP4 ADD MLOAD DUP5 DUP3 SUB PUSH1 0xC0 DUP7 ADD MSTORE PUSH2 0x420F DUP3 DUP3 PUSH2 0x39B9 JUMP JUMPDEST SWAP2 POP POP PUSH1 0xE0 DUP4 ADD MLOAD PUSH2 0x4224 PUSH1 0xE0 DUP7 ADD DUP3 PUSH2 0x3C7B JUMP JUMPDEST POP DUP1 SWAP2 POP POP SWAP3 SWAP2 POP POP JUMP JUMPDEST PUSH1 0x0 PUSH2 0x423B DUP4 DUP4 PUSH2 0x416A JUMP JUMPDEST SWAP1 POP SWAP3 SWAP2 POP POP JUMP JUMPDEST PUSH1 0x0 PUSH1 0x20 DUP3 ADD SWAP1 POP SWAP2 SWAP1 POP JUMP JUMPDEST PUSH1 0x0 PUSH2 0x425B DUP3 PUSH2 0x413E JUMP JUMPDEST PUSH2 0x4265 DUP2 DUP6 PUSH2 0x4149 JUMP JUMPDEST SWAP4 POP DUP4 PUSH1 0x20 DUP3 MUL DUP6 ADD PUSH2 0x4277 DUP6 PUSH2 0x415A JUMP JUMPDEST DUP1 PUSH1 0x0 JUMPDEST DUP6 DUP2 LT ISZERO PUSH2 0x42B3 JUMPI DUP5 DUP5 SUB DUP10 MSTORE DUP2 MLOAD PUSH2 0x4294 DUP6 DUP3 PUSH2 0x422F JUMP JUMPDEST SWAP5 POP PUSH2 0x429F DUP4 PUSH2 0x4243 JUMP JUMPDEST SWAP3 POP PUSH1 0x20 DUP11 ADD SWAP10 POP POP PUSH1 0x1 DUP2 ADD SWAP1 POP PUSH2 0x427B JUMP JUMPDEST POP DUP3 SWAP8 POP DUP8 SWAP6 POP POP POP POP POP POP SWAP3 SWAP2 POP POP JUMP JUMPDEST PUSH1 0x0 PUSH1 0x20 DUP3 ADD SWAP1 POP DUP2 DUP2 SUB PUSH1 0x0 DUP4 ADD MSTORE PUSH2 0x42DF DUP2 DUP5 PUSH2 0x4250 JUMP JUMPDEST SWAP1 POP SWAP3 SWAP2 POP POP JUMP JUMPDEST PUSH1 0x0 DUP1 PUSH1 0x0 DUP1 PUSH1 0x0 DUP1 PUSH1 0x0 DUP1 PUSH2 0x100 DUP10 DUP12 SUB SLT ISZERO PUSH2 0x4308 JUMPI PUSH2 0x4307 PUSH2 0x3393 JUMP JUMPDEST JUMPDEST PUSH1 0x0 PUSH2 0x4316 DUP12 DUP3 DUP13 ADD PUSH2 0x33BE JUMP JUMPDEST SWAP9 POP POP PUSH1 0x20 DUP10 ADD CALLDATALOAD PUSH8 0xFFFFFFFFFFFFFFFF DUP2 GT ISZERO PUSH2 0x4337 JUMPI PUSH2 0x4336 PUSH2 0x3398 JUMP JUMPDEST JUMPDEST PUSH2 0x4343 DUP12 DUP3 DUP13 ADD PUSH2 0x34EB JUMP JUMPDEST SWAP8 POP POP PUSH1 0x40 DUP10 ADD CALLDATALOAD PUSH8 0xFFFFFFFFFFFFFFFF DUP2 GT ISZERO PUSH2 0x4364 JUMPI PUSH2 0x4363 PUSH2 0x3398 JUMP JUMPDEST JUMPDEST PUSH2 0x4370 DUP12 DUP3 DUP13 ADD PUSH2 0x34EB JUMP JUMPDEST SWAP7 POP POP PUSH1 0x60 DUP10 ADD CALLDATALOAD PUSH8 0xFFFFFFFFFFFFFFFF DUP2 GT ISZERO PUSH2 0x4391 JUMPI PUSH2 0x4390 PUSH2 0x3398 JUMP JUMPDEST JUMPDEST PUSH2 0x439D DUP12 DUP3 DUP13 ADD PUSH2 0x34EB JUMP JUMPDEST SWAP6 POP POP PUSH1 0x80 DUP10 ADD CALLDATALOAD PUSH8 0xFFFFFFFFFFFFFFFF DUP2 GT ISZERO PUSH2 0x43BE JUMPI PUSH2 0x43BD PUSH2 0x3398 JUMP JUMPDEST JUMPDEST PUSH2 0x43CA DUP12 DUP3 DUP13 ADD PUSH2 0x34EB JUMP JUMPDEST SWAP5 POP POP PUSH1 0xA0 DUP10 ADD CALLDATALOAD PUSH8 0xFFFFFFFFFFFFFFFF DUP2 GT ISZERO PUSH2 0x43EB JUMPI PUSH2 0x43EA PUSH2 0x3398 JUMP JUMPDEST JUMPDEST PUSH2 0x43F7 DUP12 DUP3 DUP13 ADD PUSH2 0x34EB JUMP JUMPDEST SWAP4 POP POP PUSH1 0xC0 DUP10 ADD CALLDATALOAD PUSH8 0xFFFFFFFFFFFFFFFF DUP2 GT ISZERO PUSH2 0x4418 JUMPI PUSH2 0x4417 PUSH2 0x3398 JUMP JUMPDEST JUMPDEST PUSH2 0x4424 DUP12 DUP3 DUP13 ADD PUSH2 0x34EB JUMP JUMPDEST SWAP3 POP POP PUSH1 0xE0 DUP10 ADD CALLDATALOAD PUSH8 0xFFFFFFFFFFFFFFFF DUP2 GT ISZERO PUSH2 0x4445 JUMPI PUSH2 0x4444 PUSH2 0x3398 JUMP JUMPDEST JUMPDEST PUSH2 0x4451 DUP12 DUP3 DUP13 ADD PUSH2 0x34EB JUMP JUMPDEST SWAP2 POP POP SWAP3 SWAP6 SWAP9 POP SWAP3 SWAP6 SWAP9 SWAP1 SWAP4 SWAP7 POP JUMP JUMPDEST PUSH1 0x0 DUP1 PUSH1 0x0 DUP1 PUSH1 0x0 DUP1 PUSH1 0xC0 DUP8 DUP10 SUB SLT ISZERO PUSH2 0x447E JUMPI PUSH2 0x447D PUSH2 0x3393 JUMP JUMPDEST JUMPDEST PUSH1 0x0 PUSH2 0x448C DUP10 DUP3 DUP11 ADD PUSH2 0x33BE JUMP JUMPDEST SWAP7 POP POP PUSH1 0x20 DUP8 ADD CALLDATALOAD PUSH8 0xFFFFFFFFFFFFFFFF DUP2 GT ISZERO PUSH2 0x44AD JUMPI PUSH2 0x44AC PUSH2 0x3398 JUMP JUMPDEST JUMPDEST PUSH2 0x44B9 DUP10 DUP3 DUP11 ADD PUSH2 0x34EB JUMP JUMPDEST SWAP6 POP POP PUSH1 0x40 DUP8 ADD CALLDATALOAD PUSH8 0xFFFFFFFFFFFFFFFF DUP2 GT ISZERO PUSH2 0x44DA JUMPI PUSH2 0x44D9 PUSH2 0x3398 JUMP JUMPDEST JUMPDEST PUSH2 0x44E6 DUP10 DUP3 DUP11 ADD PUSH2 0x34EB JUMP JUMPDEST SWAP5 POP POP PUSH1 0x60 DUP8 ADD CALLDATALOAD PUSH8 0xFFFFFFFFFFFFFFFF DUP2 GT ISZERO PUSH2 0x4507 JUMPI PUSH2 0x4506 PUSH2 0x3398 JUMP JUMPDEST JUMPDEST PUSH2 0x4513 DUP10 DUP3 DUP11 ADD PUSH2 0x34EB JUMP JUMPDEST SWAP4 POP POP PUSH1 0x80 DUP8 ADD CALLDATALOAD PUSH8 0xFFFFFFFFFFFFFFFF DUP2 GT ISZERO PUSH2 0x4534 JUMPI PUSH2 0x4533 PUSH2 0x3398 JUMP JUMPDEST JUMPDEST PUSH2 0x4540 DUP10 DUP3 DUP11 ADD PUSH2 0x34EB JUMP JUMPDEST SWAP3 POP POP PUSH1 0xA0 PUSH2 0x4551 DUP10 DUP3 DUP11 ADD PUSH2 0x3DC1 JUMP JUMPDEST SWAP2 POP POP SWAP3 SWAP6 POP SWAP3 SWAP6 POP SWAP3 SWAP6 JUMP JUMPDEST PUSH2 0x4567 DUP2 PUSH2 0x3952 JUMP JUMPDEST DUP2 EQ PUSH2 0x4572 JUMPI PUSH1 0x0 DUP1 REVERT JUMPDEST POP JUMP JUMPDEST PUSH1 0x0 DUP2 CALLDATALOAD SWAP1 POP PUSH2 0x4584 DUP2 PUSH2 0x455E JUMP JUMPDEST SWAP3 SWAP2 POP POP JUMP JUMPDEST PUSH1 0x0 PUSH1 0x20 DUP3 DUP5 SUB SLT ISZERO PUSH2 0x45A0 JUMPI PUSH2 0x459F PUSH2 0x3393 JUMP JUMPDEST JUMPDEST PUSH1 0x0 PUSH2 0x45AE DUP5 DUP3 DUP6 ADD PUSH2 0x4575 JUMP JUMPDEST SWAP2 POP POP SWAP3 SWAP2 POP POP JUMP JUMPDEST PUSH1 0x0 PUSH2 0x160 DUP4 ADD PUSH1 0x0 DUP4 ADD MLOAD PUSH2 0x45D0 PUSH1 0x0 DUP7 ADD DUP3 PUSH2 0x3726 JUMP JUMPDEST POP PUSH1 0x20 DUP4 ADD MLOAD PUSH2 0x45E3 PUSH1 0x20 DUP7 ADD DUP3 PUSH2 0x3726 JUMP JUMPDEST POP PUSH1 0x40 DUP4 ADD MLOAD PUSH2 0x45F6 PUSH1 0x40 DUP7 ADD DUP3 PUSH2 0x3964 JUMP JUMPDEST POP PUSH1 0x60 DUP4 ADD MLOAD DUP5 DUP3 SUB PUSH1 0x60 DUP7 ADD MSTORE PUSH2 0x460E DUP3 DUP3 PUSH2 0x39B9 JUMP JUMPDEST SWAP2 POP POP PUSH1 0x80 DUP4 ADD MLOAD DUP5 DUP3 SUB PUSH1 0x80 DUP7 ADD MSTORE PUSH2 0x4628 DUP3 DUP3 PUSH2 0x39B9 JUMP JUMPDEST SWAP2 POP POP PUSH1 0xA0 DUP4 ADD MLOAD DUP5 DUP3 SUB PUSH1 0xA0 DUP7 ADD MSTORE PUSH2 0x4642 DUP3 DUP3 PUSH2 0x39B9 JUMP JUMPDEST SWAP2 POP POP PUSH1 0xC0 DUP4 ADD MLOAD DUP5 DUP3 SUB PUSH1 0xC0 DUP7 ADD MSTORE PUSH2 0x465C DUP3 DUP3 PUSH2 0x39B9 JUMP JUMPDEST SWAP2 POP POP PUSH1 0xE0 DUP4 ADD MLOAD DUP5 DUP3 SUB PUSH1 0xE0 DUP7 ADD MSTORE PUSH2 0x4676 DUP3 DUP3 PUSH2 0x39B9 JUMP JUMPDEST SWAP2 POP POP PUSH2 0x100 DUP4 ADD MLOAD DUP5 DUP3 SUB PUSH2 0x100 DUP7 ADD MSTORE PUSH2 0x4692 DUP3 DUP3 PUSH2 0x39B9 JUMP JUMPDEST SWAP2 POP POP PUSH2 0x120 DUP4 ADD MLOAD DUP5 DUP3 SUB PUSH2 0x120 DUP7 ADD MSTORE PUSH2 0x46AE DUP3 DUP3 PUSH2 0x39B9 JUMP JUMPDEST SWAP2 POP POP PUSH2 0x140 DUP4 ADD MLOAD DUP5 DUP3 SUB PUSH2 0x140 DUP7 ADD MSTORE PUSH2 0x46CA DUP3 DUP3 PUSH2 0x39B9 JUMP JUMPDEST SWAP2 POP POP DUP1 SWAP2 POP POP SWAP3 SWAP2 POP POP JUMP JUMPDEST PUSH1 0x0 PUSH1 0x20 DUP3 ADD SWAP1 POP DUP2 DUP2 SUB PUSH1 0x0 DUP4 ADD MSTORE PUSH2 0x46F1 DUP2 DUP5 PUSH2 0x45B7 JUMP JUMPDEST SWAP1 POP SWAP3 SWAP2 POP POP JUMP JUMPDEST PUSH1 0x0 DUP3 DUP3 MSTORE PUSH1 0x20 DUP3 ADD SWAP1 POP SWAP3 SWAP2 POP POP JUMP JUMPDEST PUSH32 0x4C697374427573696E657373437572736F723A20416C72656164792065786973 PUSH1 0x0 DUP3 ADD MSTORE PUSH32 0x746564206163636F756E74000000000000000000000000000000000000000000 PUSH1 0x20 DUP3 ADD MSTORE POP JUMP JUMPDEST PUSH1 0x0 PUSH2 0x4766 PUSH1 0x2B DUP4 PUSH2 0x46F9 JUMP JUMPDEST SWAP2 POP PUSH2 0x4771 DUP3 PUSH2 0x470A JUMP JUMPDEST PUSH1 0x40 DUP3 ADD SWAP1 POP SWAP2 SWAP1 POP JUMP JUMPDEST PUSH1 0x0 PUSH1 0x20 DUP3 ADD SWAP1 POP DUP2 DUP2 SUB PUSH1 0x0 DUP4 ADD MSTORE PUSH2 0x4795 DUP2 PUSH2 0x4759 JUMP JUMPDEST SWAP1 POP SWAP2 SWAP1 POP JUMP JUMPDEST PUSH1 0x0 DUP2 SWAP1 POP SWAP2 SWAP1 POP JUMP JUMPDEST PUSH2 0x47AF DUP2 PUSH2 0x479C JUMP JUMPDEST DUP3 MSTORE POP POP JUMP JUMPDEST PUSH1 0x0 PUSH1 0x40 DUP3 ADD SWAP1 POP DUP2 DUP2 SUB PUSH1 0x0 DUP4 ADD MSTORE PUSH2 0x47CF DUP2 DUP6 PUSH2 0x45B7 JUMP JUMPDEST SWAP1 POP PUSH2 0x47DE PUSH1 0x20 DUP4 ADD DUP5 PUSH2 0x47A6 JUMP JUMPDEST SWAP4 SWAP3 POP POP POP JUMP JUMPDEST PUSH2 0x47EE DUP2 PUSH2 0x36C3 JUMP JUMPDEST DUP2 EQ PUSH2 0x47F9 JUMPI PUSH1 0x0 DUP1 REVERT JUMPDEST POP JUMP JUMPDEST PUSH1 0x0 DUP2 MLOAD SWAP1 POP PUSH2 0x480B DUP2 PUSH2 0x47E5 JUMP JUMPDEST SWAP3 SWAP2 POP POP JUMP JUMPDEST PUSH1 0x0 PUSH1 0x20 DUP3 DUP5 SUB SLT ISZERO PUSH2 0x4827 JUMPI PUSH2 0x4826 PUSH2 0x3393 JUMP JUMPDEST JUMPDEST PUSH1 0x0 PUSH2 0x4835 DUP5 DUP3 DUP6 ADD PUSH2 0x47FC JUMP JUMPDEST SWAP2 POP POP SWAP3 SWAP2 POP POP JUMP JUMPDEST PUSH1 0x0 PUSH1 0x40 DUP3 ADD SWAP1 POP PUSH2 0x4853 PUSH1 0x0 DUP4 ADD DUP6 PUSH2 0x38DC JUMP JUMPDEST PUSH2 0x4860 PUSH1 0x20 DUP4 ADD DUP5 PUSH2 0x47A6 JUMP JUMPDEST SWAP4 SWAP3 POP POP POP JUMP JUMPDEST PUSH1 0x0 DUP1 REVERT JUMPDEST PUSH1 0x0 DUP1 REVERT JUMPDEST PUSH1 0x0 DUP2 MLOAD SWAP1 POP PUSH2 0x4880 DUP2 PUSH2 0x33A7 JUMP JUMPDEST SWAP3 SWAP2 POP POP JUMP JUMPDEST PUSH1 0x0 PUSH1 0xC0 DUP3 DUP5 SUB SLT ISZERO PUSH2 0x489C JUMPI PUSH2 0x489B PUSH2 0x4867 JUMP JUMPDEST JUMPDEST PUSH2 0x48A6 PUSH1 0xC0 PUSH2 0x344E JUMP JUMPDEST SWAP1 POP PUSH1 0x0 PUSH2 0x48B6 DUP5 DUP3 DUP6 ADD PUSH2 0x4871 JUMP JUMPDEST PUSH1 0x0 DUP4 ADD MSTORE POP PUSH1 0x20 PUSH2 0x48CA DUP5 DUP3 DUP6 ADD PUSH2 0x4871 JUMP JUMPDEST PUSH1 0x20 DUP4 ADD MSTORE POP PUSH1 0x40 PUSH2 0x48DE DUP5 DUP3 DUP6 ADD PUSH2 0x4871 JUMP JUMPDEST PUSH1 0x40 DUP4 ADD MSTORE POP PUSH1 0x60 PUSH2 0x48F2 DUP5 DUP3 DUP6 ADD PUSH2 0x4871 JUMP JUMPDEST PUSH1 0x60 DUP4 ADD MSTORE POP PUSH1 0x80 PUSH2 0x4906 DUP5 DUP3 DUP6 ADD PUSH2 0x4871 JUMP JUMPDEST PUSH1 0x80 DUP4 ADD MSTORE POP PUSH1 0xA0 PUSH2 0x491A DUP5 DUP3 DUP6 ADD PUSH2 0x4871 JUMP JUMPDEST PUSH1 0xA0 DUP4 ADD MSTORE POP SWAP3 SWAP2 POP POP JUMP JUMPDEST PUSH1 0x0 PUSH1 0xC0 DUP3 DUP5 SUB SLT ISZERO PUSH2 0x493C JUMPI PUSH2 0x493B PUSH2 0x3393 JUMP JUMPDEST JUMPDEST PUSH1 0x0 PUSH2 0x494A DUP5 DUP3 DUP6 ADD PUSH2 0x4886 JUMP JUMPDEST SWAP2 POP POP SWAP3 SWAP2 POP POP JUMP JUMPDEST PUSH1 0x0 PUSH1 0xC0 DUP3 DUP5 SUB SLT ISZERO PUSH2 0x4969 JUMPI PUSH2 0x4968 PUSH2 0x4867 JUMP JUMPDEST JUMPDEST PUSH2 0x4973 PUSH1 0xC0 PUSH2 0x344E JUMP JUMPDEST SWAP1 POP PUSH1 0x0 PUSH2 0x4983 DUP5 DUP3 DUP6 ADD PUSH2 0x4871 JUMP JUMPDEST PUSH1 0x0 DUP4 ADD MSTORE POP PUSH1 0x20 PUSH2 0x4997 DUP5 DUP3 DUP6 ADD PUSH2 0x4871 JUMP JUMPDEST PUSH1 0x20 DUP4 ADD MSTORE POP PUSH1 0x40 PUSH2 0x49AB DUP5 DUP3 DUP6 ADD PUSH2 0x4871 JUMP JUMPDEST PUSH1 0x40 DUP4 ADD MSTORE POP PUSH1 0x60 PUSH2 0x49BF DUP5 DUP3 DUP6 ADD PUSH2 0x4871 JUMP JUMPDEST PUSH1 0x60 DUP4 ADD MSTORE POP PUSH1 0x80 PUSH2 0x49D3 DUP5 DUP3 DUP6 ADD PUSH2 0x4871 JUMP JUMPDEST PUSH1 0x80 DUP4 ADD MSTORE POP PUSH1 0xA0 PUSH2 0x49E7 DUP5 DUP3 DUP6 ADD PUSH2 0x4871 JUMP JUMPDEST PUSH1 0xA0 DUP4 ADD MSTORE POP SWAP3 SWAP2 POP POP JUMP JUMPDEST PUSH1 0x0 PUSH1 0xC0 DUP3 DUP5 SUB SLT ISZERO PUSH2 0x4A09 JUMPI PUSH2 0x4A08 PUSH2 0x3393 JUMP JUMPDEST JUMPDEST PUSH1 0x0 PUSH2 0x4A17 DUP5 DUP3 DUP6 ADD PUSH2 0x4953 JUMP JUMPDEST SWAP2 POP POP SWAP3 SWAP2 POP POP JUMP JUMPDEST PUSH32 0x4C697374427573696E657373437572736F723A206964206973206E6F74206265 PUSH1 0x0 DUP3 ADD MSTORE PUSH32 0x6C6F6E6720746F20616464726573730000000000000000000000000000000000 PUSH1 0x20 DUP3 ADD MSTORE POP JUMP JUMPDEST PUSH1 0x0 PUSH2 0x4A7C PUSH1 0x2F DUP4 PUSH2 0x46F9 JUMP JUMPDEST SWAP2 POP PUSH2 0x4A87 DUP3 PUSH2 0x4A20 JUMP JUMPDEST PUSH1 0x40 DUP3 ADD SWAP1 POP SWAP2 SWAP1 POP JUMP JUMPDEST PUSH1 0x0 PUSH1 0x20 DUP3 ADD SWAP1 POP DUP2 DUP2 SUB PUSH1 0x0 DUP4 ADD MSTORE PUSH2 0x4AAB DUP2 PUSH2 0x4A6F JUMP JUMPDEST SWAP1 POP SWAP2 SWAP1 POP JUMP JUMPDEST PUSH32 0x4C69737420427573696E65737320506F737420437572736F723A20506F737420 PUSH1 0x0 DUP3 ADD MSTORE PUSH32 0x6964206E6F742062656C6F6E677320746F20627573696E657373206964000000 PUSH1 0x20 DUP3 ADD MSTORE POP JUMP JUMPDEST PUSH1 0x0 PUSH2 0x4B0E PUSH1 0x3D DUP4 PUSH2 0x46F9 JUMP JUMPDEST SWAP2 POP PUSH2 0x4B19 DUP3 PUSH2 0x4AB2 JUMP JUMPDEST PUSH1 0x40 DUP3 ADD SWAP1 POP SWAP2 SWAP1 POP JUMP JUMPDEST PUSH1 0x0 PUSH1 0x20 DUP3 ADD SWAP1 POP DUP2 DUP2 SUB PUSH1 0x0 DUP4 ADD MSTORE PUSH2 0x4B3D DUP2 PUSH2 0x4B01 JUMP JUMPDEST SWAP1 POP SWAP2 SWAP1 POP JUMP JUMPDEST PUSH32 0x4C6973744170706C79437572736F723A206170706C794944206E6F742062656C PUSH1 0x0 DUP3 ADD MSTORE PUSH32 0x6F6E677320746F20706F73744964000000000000000000000000000000000000 PUSH1 0x20 DUP3 ADD MSTORE POP JUMP JUMPDEST PUSH1 0x0 PUSH2 0x4BA0 PUSH1 0x2E DUP4 PUSH2 0x46F9 JUMP JUMPDEST SWAP2 POP PUSH2 0x4BAB DUP3 PUSH2 0x4B44 JUMP JUMPDEST PUSH1 0x40 DUP3 ADD SWAP1 POP SWAP2 SWAP1 POP JUMP JUMPDEST PUSH1 0x0 PUSH1 0x20 DUP3 ADD SWAP1 POP DUP2 DUP2 SUB PUSH1 0x0 DUP4 ADD MSTORE PUSH2 0x4BCF DUP2 PUSH2 0x4B93 JUMP JUMPDEST SWAP1 POP SWAP2 SWAP1 POP JUMP JUMPDEST PUSH1 0x0 DUP2 SWAP1 POP SWAP2 SWAP1 POP JUMP JUMPDEST PUSH1 0x0 DUP2 SWAP1 POP SWAP2 SWAP1 POP JUMP JUMPDEST PUSH1 0x0 PUSH2 0x4C05 PUSH2 0x4C00 PUSH2 0x4BFB DUP5 PUSH2 0x4BD6 JUMP JUMPDEST PUSH2 0x4BE0 JUMP JUMPDEST PUSH2 0x339D JUMP JUMPDEST SWAP1 POP SWAP2 SWAP1 POP JUMP JUMPDEST PUSH2 0x4C15 DUP2 PUSH2 0x4BEA JUMP JUMPDEST DUP3 MSTORE POP POP JUMP JUMPDEST PUSH1 0x0 PUSH1 0x60 DUP3 ADD SWAP1 POP PUSH2 0x4C30 PUSH1 0x0 DUP4 ADD DUP7 PUSH2 0x38DC JUMP JUMPDEST PUSH2 0x4C3D PUSH1 0x20 DUP4 ADD DUP6 PUSH2 0x47A6 JUMP JUMPDEST PUSH2 0x4C4A PUSH1 0x40 DUP4 ADD DUP5 PUSH2 0x4C0C JUMP JUMPDEST SWAP5 SWAP4 POP POP POP POP JUMP JUMPDEST PUSH1 0x0 PUSH1 0xE0 DUP3 ADD SWAP1 POP PUSH2 0x4C67 PUSH1 0x0 DUP4 ADD DUP6 PUSH2 0x37CB JUMP JUMPDEST PUSH2 0x4C74 PUSH1 0xC0 DUP4 ADD DUP5 PUSH2 0x47A6 JUMP JUMPDEST SWAP4 SWAP3 POP POP POP JUMP JUMPDEST PUSH1 0x0 PUSH1 0x20 DUP3 DUP5 SUB SLT ISZERO PUSH2 0x4C91 JUMPI PUSH2 0x4C90 PUSH2 0x3393 JUMP JUMPDEST JUMPDEST PUSH1 0x0 PUSH2 0x4C9F DUP5 DUP3 DUP6 ADD PUSH2 0x4871 JUMP JUMPDEST SWAP2 POP POP SWAP3 SWAP2 POP POP JUMP JUMPDEST PUSH1 0x0 PUSH1 0x20 DUP3 ADD SWAP1 POP PUSH2 0x4CBD PUSH1 0x0 DUP4 ADD DUP5 PUSH2 0x47A6 JUMP JUMPDEST SWAP3 SWAP2 POP POP JUMP JUMPDEST PUSH32 0x4E487B7100000000000000000000000000000000000000000000000000000000 PUSH1 0x0 MSTORE PUSH1 0x11 PUSH1 0x4 MSTORE PUSH1 0x24 PUSH1 0x0 REVERT JUMPDEST PUSH1 0x0 PUSH2 0x4CFD DUP3 PUSH2 0x339D JUMP JUMPDEST SWAP2 POP PUSH2 0x4D08 DUP4 PUSH2 0x339D JUMP JUMPDEST SWAP3 POP DUP3 DUP3 ADD SWAP1 POP DUP1 DUP3 GT ISZERO PUSH2 0x4D20 JUMPI PUSH2 0x4D1F PUSH2 0x4CC3 JUMP JUMPDEST JUMPDEST SWAP3 SWAP2 POP POP JUMP JUMPDEST PUSH1 0x0 DUP2 MLOAD SWAP1 POP PUSH2 0x4D35 DUP2 PUSH2 0x455E JUMP JUMPDEST SWAP3 SWAP2 POP POP JUMP JUMPDEST PUSH1 0x0 PUSH2 0x4D4E PUSH2 0x4D49 DUP5 PUSH2 0x3469 JUMP JUMPDEST PUSH2 0x344E JUMP JUMPDEST SWAP1 POP DUP3 DUP2 MSTORE PUSH1 0x20 DUP2 ADD DUP5 DUP5 DUP5 ADD GT ISZERO PUSH2 0x4D6A JUMPI PUSH2 0x4D69 PUSH2 0x33D8 JUMP JUMPDEST JUMPDEST PUSH2 0x4D75 DUP5 DUP3 DUP6 PUSH2 0x398F JUMP JUMPDEST POP SWAP4 SWAP3 POP POP POP JUMP JUMPDEST PUSH1 0x0 DUP3 PUSH1 0x1F DUP4 ADD SLT PUSH2 0x4D92 JUMPI PUSH2 0x4D91 PUSH2 0x33D3 JUMP JUMPDEST JUMPDEST DUP2 MLOAD PUSH2 0x4DA2 DUP5 DUP3 PUSH1 0x20 DUP7 ADD PUSH2 0x4D3B JUMP JUMPDEST SWAP2 POP POP SWAP3 SWAP2 POP POP JUMP JUMPDEST PUSH1 0x0 PUSH2 0x160 DUP3 DUP5 SUB SLT ISZERO PUSH2 0x4DC2 JUMPI PUSH2 0x4DC1 PUSH2 0x4867 JUMP JUMPDEST JUMPDEST PUSH2 0x4DCD PUSH2 0x160 PUSH2 0x344E JUMP JUMPDEST SWAP1 POP PUSH1 0x0 PUSH2 0x4DDD DUP5 DUP3 DUP6 ADD PUSH2 0x4871 JUMP JUMPDEST PUSH1 0x0 DUP4 ADD MSTORE POP PUSH1 0x20 PUSH2 0x4DF1 DUP5 DUP3 DUP6 ADD PUSH2 0x4871 JUMP JUMPDEST PUSH1 0x20 DUP4 ADD MSTORE POP PUSH1 0x40 PUSH2 0x4E05 DUP5 DUP3 DUP6 ADD PUSH2 0x4D26 JUMP JUMPDEST PUSH1 0x40 DUP4 ADD MSTORE POP PUSH1 0x60 DUP3 ADD MLOAD PUSH8 0xFFFFFFFFFFFFFFFF DUP2 GT ISZERO PUSH2 0x4E29 JUMPI PUSH2 0x4E28 PUSH2 0x486C JUMP JUMPDEST JUMPDEST PUSH2 0x4E35 DUP5 DUP3 DUP6 ADD PUSH2 0x4D7D JUMP JUMPDEST PUSH1 0x60 DUP4 ADD MSTORE POP PUSH1 0x80 DUP3 ADD MLOAD PUSH8 0xFFFFFFFFFFFFFFFF DUP2 GT ISZERO PUSH2 0x4E59 JUMPI PUSH2 0x4E58 PUSH2 0x486C JUMP JUMPDEST JUMPDEST PUSH2 0x4E65 DUP5 DUP3 DUP6 ADD PUSH2 0x4D7D JUMP JUMPDEST PUSH1 0x80 DUP4 ADD MSTORE POP PUSH1 0xA0 DUP3 ADD MLOAD PUSH8 0xFFFFFFFFFFFFFFFF DUP2 GT ISZERO PUSH2 0x4E89 JUMPI PUSH2 0x4E88 PUSH2 0x486C JUMP JUMPDEST JUMPDEST PUSH2 0x4E95 DUP5 DUP3 DUP6 ADD PUSH2 0x4D7D JUMP JUMPDEST PUSH1 0xA0 DUP4 ADD MSTORE POP PUSH1 0xC0 DUP3 ADD MLOAD PUSH8 0xFFFFFFFFFFFFFFFF DUP2 GT ISZERO PUSH2 0x4EB9 JUMPI PUSH2 0x4EB8 PUSH2 0x486C JUMP JUMPDEST JUMPDEST PUSH2 0x4EC5 DUP5 DUP3 DUP6 ADD PUSH2 0x4D7D JUMP JUMPDEST PUSH1 0xC0 DUP4 ADD MSTORE POP PUSH1 0xE0 DUP3 ADD MLOAD PUSH8 0xFFFFFFFFFFFFFFFF DUP2 GT ISZERO PUSH2 0x4EE9 JUMPI PUSH2 0x4EE8 PUSH2 0x486C JUMP JUMPDEST JUMPDEST PUSH2 0x4EF5 DUP5 DUP3 DUP6 ADD PUSH2 0x4D7D JUMP JUMPDEST PUSH1 0xE0 DUP4 ADD MSTORE POP PUSH2 0x100 DUP3 ADD MLOAD PUSH8 0xFFFFFFFFFFFFFFFF DUP2 GT ISZERO PUSH2 0x4F1A JUMPI PUSH2 0x4F19 PUSH2 0x486C JUMP JUMPDEST JUMPDEST PUSH2 0x4F26 DUP5 DUP3 DUP6 ADD PUSH2 0x4D7D JUMP JUMPDEST PUSH2 0x100 DUP4 ADD MSTORE POP PUSH2 0x120 DUP3 ADD MLOAD PUSH8 0xFFFFFFFFFFFFFFFF DUP2 GT ISZERO PUSH2 0x4F4C JUMPI PUSH2 0x4F4B PUSH2 0x486C JUMP JUMPDEST JUMPDEST PUSH2 0x4F58 DUP5 DUP3 DUP6 ADD PUSH2 0x4D7D JUMP JUMPDEST PUSH2 0x120 DUP4 ADD MSTORE POP PUSH2 0x140 DUP3 ADD MLOAD PUSH8 0xFFFFFFFFFFFFFFFF DUP2 GT ISZERO PUSH2 0x4F7E JUMPI PUSH2 0x4F7D PUSH2 0x486C JUMP JUMPDEST JUMPDEST PUSH2 0x4F8A DUP5 DUP3 DUP6 ADD PUSH2 0x4D7D JUMP JUMPDEST PUSH2 0x140 DUP4 ADD MSTORE POP SWAP3 SWAP2 POP POP JUMP JUMPDEST PUSH1 0x0 PUSH1 0x20 DUP3 DUP5 SUB SLT ISZERO PUSH2 0x4FAD JUMPI PUSH2 0x4FAC PUSH2 0x3393 JUMP JUMPDEST JUMPDEST PUSH1 0x0 DUP3 ADD MLOAD PUSH8 0xFFFFFFFFFFFFFFFF DUP2 GT ISZERO PUSH2 0x4FCB JUMPI PUSH2 0x4FCA PUSH2 0x3398 JUMP JUMPDEST JUMPDEST PUSH2 0x4FD7 DUP5 DUP3 DUP6 ADD PUSH2 0x4DAB JUMP JUMPDEST SWAP2 POP POP SWAP3 SWAP2 POP POP JUMP JUMPDEST PUSH32 0x4E487B7100000000000000000000000000000000000000000000000000000000 PUSH1 0x0 MSTORE PUSH1 0x32 PUSH1 0x4 MSTORE PUSH1 0x24 PUSH1 0x0 REVERT JUMPDEST PUSH1 0x0 PUSH2 0x501A DUP3 PUSH2 0x339D JUMP JUMPDEST SWAP2 POP PUSH32 0xFFFFFFFFFFFFFFFFFFFFFFFFFFFFFFFFFFFFFFFFFFFFFFFFFFFFFFFFFFFFFFFF DUP3 SUB PUSH2 0x504C JUMPI PUSH2 0x504B PUSH2 0x4CC3 JUMP JUMPDEST JUMPDEST PUSH1 0x1 DUP3 ADD SWAP1 POP SWAP2 SWAP1 POP JUMP JUMPDEST PUSH32 0x4C697374427573696E657373437572736F723A20416C7265616479206E6F7420 PUSH1 0x0 DUP3 ADD MSTORE PUSH32 0x65786973746564206163636F756E740000000000000000000000000000000000 PUSH1 0x20 DUP3 ADD MSTORE POP JUMP JUMPDEST PUSH1 0x0 PUSH2 0x50B3 PUSH1 0x2F DUP4 PUSH2 0x46F9 JUMP JUMPDEST SWAP2 POP PUSH2 0x50BE DUP3 PUSH2 0x5057 JUMP JUMPDEST PUSH1 0x40 DUP3 ADD SWAP1 POP SWAP2 SWAP1 POP JUMP JUMPDEST PUSH1 0x0 PUSH1 0x20 DUP3 ADD SWAP1 POP DUP2 DUP2 SUB PUSH1 0x0 DUP4 ADD MSTORE PUSH2 0x50E2 DUP2 PUSH2 0x50A6 JUMP JUMPDEST SWAP1 POP SWAP2 SWAP1 POP JUMP JUMPDEST PUSH1 0x0 PUSH1 0x40 DUP3 ADD SWAP1 POP PUSH2 0x50FE PUSH1 0x0 DUP4 ADD DUP6 PUSH2 0x3F75 JUMP JUMPDEST PUSH2 0x510B PUSH1 0x20 DUP4 ADD DUP5 PUSH2 0x47A6 JUMP JUMPDEST SWAP4 SWAP3 POP POP POP JUMP JUMPDEST PUSH1 0x0 DUP2 MLOAD SWAP1 POP PUSH2 0x5121 DUP2 PUSH2 0x3DB1 JUMP JUMPDEST SWAP3 SWAP2 POP POP JUMP JUMPDEST PUSH1 0x0 PUSH2 0x100 DUP3 DUP5 SUB SLT ISZERO PUSH2 0x513E JUMPI PUSH2 0x513D PUSH2 0x4867 JUMP JUMPDEST JUMPDEST PUSH2 0x5149 PUSH2 0x100 PUSH2 0x344E JUMP JUMPDEST SWAP1 POP PUSH1 0x0 PUSH2 0x5159 DUP5 DUP3 DUP6 ADD PUSH2 0x4871 JUMP JUMPDEST PUSH1 0x0 DUP4 ADD MSTORE POP PUSH1 0x20 PUSH2 0x516D DUP5 DUP3 DUP6 ADD PUSH2 0x4871 JUMP JUMPDEST PUSH1 0x20 DUP4 ADD MSTORE POP PUSH1 0x40 DUP3 ADD MLOAD PUSH8 0xFFFFFFFFFFFFFFFF DUP2 GT ISZERO PUSH2 0x5191 JUMPI PUSH2 0x5190 PUSH2 0x486C JUMP JUMPDEST JUMPDEST PUSH2 0x519D DUP5 DUP3 DUP6 ADD PUSH2 0x4D7D JUMP JUMPDEST PUSH1 0x40 DUP4 ADD MSTORE POP PUSH1 0x60 PUSH2 0x51B1 DUP5 DUP3 DUP6 ADD PUSH2 0x4871 JUMP JUMPDEST PUSH1 0x60 DUP4 ADD MSTORE POP PUSH1 0x80 DUP3 ADD MLOAD PUSH8 0xFFFFFFFFFFFFFFFF DUP2 GT ISZERO PUSH2 0x51D5 JUMPI PUSH2 0x51D4 PUSH2 0x486C JUMP JUMPDEST JUMPDEST PUSH2 0x51E1 DUP5 DUP3 DUP6 ADD PUSH2 0x4D7D JUMP JUMPDEST PUSH1 0x80 DUP4 ADD MSTORE POP PUSH1 0xA0 DUP3 ADD MLOAD PUSH8 0xFFFFFFFFFFFFFFFF DUP2 GT ISZERO PUSH2 0x5205 JUMPI PUSH2 0x5204 PUSH2 0x486C JUMP JUMPDEST JUMPDEST PUSH2 0x5211 DUP5 DUP3 DUP6 ADD PUSH2 0x4D7D JUMP JUMPDEST PUSH1 0xA0 DUP4 ADD MSTORE POP PUSH1 0xC0 DUP3 ADD MLOAD PUSH8 0xFFFFFFFFFFFFFFFF DUP2 GT ISZERO PUSH2 0x5235 JUMPI PUSH2 0x5234 PUSH2 0x486C JUMP JUMPDEST JUMPDEST PUSH2 0x5241 DUP5 DUP3 DUP6 ADD PUSH2 0x4D7D JUMP JUMPDEST PUSH1 0xC0 DUP4 ADD MSTORE POP PUSH1 0xE0 PUSH2 0x5255 DUP5 DUP3 DUP6 ADD PUSH2 0x5112 JUMP JUMPDEST PUSH1 0xE0 DUP4 ADD MSTORE POP SWAP3 SWAP2 POP POP JUMP JUMPDEST PUSH1 0x0 PUSH1 0x20 DUP3 DUP5 SUB SLT ISZERO PUSH2 0x5277 JUMPI PUSH2 0x5276 PUSH2 0x3393 JUMP JUMPDEST JUMPDEST PUSH1 0x0 DUP3 ADD MLOAD PUSH8 0xFFFFFFFFFFFFFFFF DUP2 GT ISZERO PUSH2 0x5295 JUMPI PUSH2 0x5294 PUSH2 0x3398 JUMP JUMPDEST JUMPDEST PUSH2 0x52A1 DUP5 DUP3 DUP6 ADD PUSH2 0x5127 JUMP JUMPDEST SWAP2 POP POP SWAP3 SWAP2 POP POP JUMP JUMPDEST PUSH2 0x52B3 DUP2 PUSH2 0x3C69 JUMP JUMPDEST DUP3 MSTORE POP POP JUMP JUMPDEST PUSH1 0x0 PUSH1 0x60 DUP3 ADD SWAP1 POP PUSH2 0x52CE PUSH1 0x0 DUP4 ADD DUP7 PUSH2 0x38DC JUMP JUMPDEST PUSH2 0x52DB PUSH1 0x20 DUP4 ADD DUP6 PUSH2 0x47A6 JUMP JUMPDEST PUSH2 0x52E8 PUSH1 0x40 DUP4 ADD DUP5 PUSH2 0x52AA JUMP JUMPDEST SWAP5 SWAP4 POP POP POP POP JUMP JUMPDEST PUSH1 0x0 PUSH2 0x52FB DUP3 PUSH2 0x3973 JUMP JUMPDEST PUSH2 0x5305 DUP2 DUP6 PUSH2 0x46F9 JUMP JUMPDEST SWAP4 POP PUSH2 0x5315 DUP2 DUP6 PUSH1 0x20 DUP7 ADD PUSH2 0x398F JUMP JUMPDEST PUSH2 0x531E DUP2 PUSH2 0x33DD JUMP JUMPDEST DUP5 ADD SWAP2 POP POP SWAP3 SWAP2 POP POP JUMP JUMPDEST PUSH1 0x0 PUSH1 0x60 DUP3 ADD SWAP1 POP PUSH2 0x533E PUSH1 0x0 DUP4 ADD DUP7 PUSH2 0x38DC JUMP JUMPDEST PUSH2 0x534B PUSH1 0x20 DUP4 ADD DUP6 PUSH2 0x47A6 JUMP JUMPDEST DUP2 DUP2 SUB PUSH1 0x40 DUP4 ADD MSTORE PUSH2 0x535D DUP2 DUP5 PUSH2 0x52F0 JUMP JUMPDEST SWAP1 POP SWAP5 SWAP4 POP POP POP POP JUMP JUMPDEST PUSH1 0x0 PUSH1 0xC0 DUP3 ADD SWAP1 POP PUSH2 0x537C PUSH1 0x0 DUP4 ADD DUP10 PUSH2 0x38DC JUMP JUMPDEST DUP2 DUP2 SUB PUSH1 0x20 DUP4 ADD MSTORE PUSH2 0x538E DUP2 DUP9 PUSH2 0x52F0 JUMP JUMPDEST SWAP1 POP DUP2 DUP2 SUB PUSH1 0x40 DUP4 ADD MSTORE PUSH2 0x53A2 DUP2 DUP8 PUSH2 0x52F0 JUMP JUMPDEST SWAP1 POP DUP2 DUP2 SUB PUSH1 0x60 DUP4 ADD MSTORE PUSH2 0x53B6 DUP2 DUP7 PUSH2 0x52F0 JUMP JUMPDEST SWAP1 POP DUP2 DUP2 SUB PUSH1 0x80 DUP4 ADD MSTORE PUSH2 0x53CA DUP2 DUP6 PUSH2 0x52F0 JUMP JUMPDEST SWAP1 POP PUSH2 0x53D9 PUSH1 0xA0 DUP4 ADD DUP5 PUSH2 0x52AA JUMP JUMPDEST SWAP8 SWAP7 POP POP POP POP POP POP POP JUMP JUMPDEST PUSH1 0x0 PUSH1 0x40 DUP3 ADD SWAP1 POP DUP2 DUP2 SUB PUSH1 0x0 DUP4 ADD MSTORE PUSH2 0x53FE DUP2 DUP6 PUSH2 0x3C8A JUMP JUMPDEST SWAP1 POP PUSH2 0x540D PUSH1 0x20 DUP4 ADD DUP5 PUSH2 0x47A6 JUMP JUMPDEST SWAP4 SWAP3 POP POP POP JUMP JUMPDEST PUSH32 0x4C697374427573696E657373437572736F723A2063616C6C6572206973206E6F PUSH1 0x0 DUP3 ADD MSTORE PUSH32 0x7420746865207573657200000000000000000000000000000000000000000000 PUSH1 0x20 DUP3 ADD MSTORE POP JUMP JUMPDEST PUSH1 0x0 PUSH2 0x5470 PUSH1 0x2A DUP4 PUSH2 0x46F9 JUMP JUMPDEST SWAP2 POP PUSH2 0x547B DUP3 PUSH2 0x5414 JUMP JUMPDEST PUSH1 0x40 DUP3 ADD SWAP1 POP SWAP2 SWAP1 POP JUMP JUMPDEST PUSH1 0x0 PUSH1 0x20 DUP3 ADD SWAP1 POP DUP2 DUP2 SUB PUSH1 0x0 DUP4 ADD MSTORE PUSH2 0x549F DUP2 PUSH2 0x5463 JUMP JUMPDEST SWAP1 POP SWAP2 SWAP1 POP JUMP JUMPDEST PUSH32 0x4F776E61626C653A206E6577206F776E657220697320746865207A65726F2061 PUSH1 0x0 DUP3 ADD MSTORE PUSH32 0x6464726573730000000000000000000000000000000000000000000000000000 PUSH1 0x20 DUP3 ADD MSTORE POP JUMP JUMPDEST PUSH1 0x0 PUSH2 0x5502 PUSH1 0x26 DUP4 PUSH2 0x46F9 JUMP JUMPDEST SWAP2 POP PUSH2 0x550D DUP3 PUSH2 0x54A6 JUMP JUMPDEST PUSH1 0x40 DUP3 ADD SWAP1 POP SWAP2 SWAP1 POP JUMP JUMPDEST PUSH1 0x0 PUSH1 0x20 DUP3 ADD SWAP1 POP DUP2 DUP2 SUB PUSH1 0x0 DUP4 ADD MSTORE PUSH2 0x5531 DUP2 PUSH2 0x54F5 JUMP JUMPDEST SWAP1 POP SWAP2 SWAP1 POP JUMP JUMPDEST PUSH32 0x4C69737441706F696E746D656E74437572736F723A206F6E6C79526571756573 PUSH1 0x0 DUP3 ADD MSTORE PUSH32 0x74496442656C6F6E6773746F4964000000000000000000000000000000000000 PUSH1 0x20 DUP3 ADD MSTORE POP JUMP JUMPDEST PUSH1 0x0 PUSH2 0x5594 PUSH1 0x2E DUP4 PUSH2 0x46F9 JUMP JUMPDEST SWAP2 POP PUSH2 0x559F DUP3 PUSH2 0x5538 JUMP JUMPDEST PUSH1 0x40 DUP3 ADD SWAP1 POP SWAP2 SWAP1 POP JUMP JUMPDEST PUSH1 0x0 PUSH1 0x20 DUP3 ADD SWAP1 POP DUP2 DUP2 SUB PUSH1 0x0 DUP4 ADD MSTORE PUSH2 0x55C3 DUP2 PUSH2 0x5587 JUMP JUMPDEST SWAP1 POP SWAP2 SWAP1 POP JUMP JUMPDEST PUSH1 0x0 DUP2 SWAP1 POP SWAP3 SWAP2 POP POP JUMP JUMPDEST PUSH1 0x0 PUSH2 0x55E0 DUP3 PUSH2 0x3973 JUMP JUMPDEST PUSH2 0x55EA DUP2 DUP6 PUSH2 0x55CA JUMP JUMPDEST SWAP4 POP PUSH2 0x55FA DUP2 DUP6 PUSH1 0x20 DUP7 ADD PUSH2 0x398F JUMP JUMPDEST DUP1 DUP5 ADD SWAP2 POP POP SWAP3 SWAP2 POP POP JUMP JUMPDEST PUSH1 0x0 PUSH2 0x5612 DUP3 DUP5 PUSH2 0x55D5 JUMP JUMPDEST SWAP2 POP DUP2 SWAP1 POP SWAP3 SWAP2 POP POP JUMP JUMPDEST PUSH32 0x4F776E61626C653A2063616C6C6572206973206E6F7420746865206F776E6572 PUSH1 0x0 DUP3 ADD MSTORE POP JUMP JUMPDEST PUSH1 0x0 PUSH2 0x5653 PUSH1 0x20 DUP4 PUSH2 0x46F9 JUMP JUMPDEST SWAP2 POP PUSH2 0x565E DUP3 PUSH2 0x561D JUMP JUMPDEST PUSH1 0x20 DUP3 ADD SWAP1 POP SWAP2 SWAP1 POP JUMP JUMPDEST PUSH1 0x0 PUSH1 0x20 DUP3 ADD SWAP1 POP DUP2 DUP2 SUB PUSH1 0x0 DUP4 ADD MSTORE PUSH2 0x5682 DUP2 PUSH2 0x5646 JUMP JUMPDEST SWAP1 POP SWAP2 SWAP1 POP JUMP INVALID LOG2 PUSH5 0x6970667358 0x22 SLT KECCAK256 0xAB 0xB9 ADDMOD BASEFEE ADD SUB 0xD6 0xF9 REVERT DUP9 0xF8 CALLER PUSH7 0x1FEB9C18C73142 GASLIMIT DUP15 PUSH4 0x8C60AF2B 0xE9 0xB7 SDIV 0x24 0xBA PUSH5 0x736F6C6343 STOP ADDMOD GT STOP CALLER "
		},
		"gasEstimates": {
			"creation": {
				"codeDepositCost": "4441400",
				"executionCost": "infinite",
				"totalCost": "infinite"
			},
			"external": {
				"_checkApplyIdBelongsToEmployeeId(uint256,uint256)": "infinite",
				"_checkApplyIdBelongsToPostId(uint256,uint256)": "infinite",
				"_checkExistApply(uint256,uint256)": "infinite",
				"_checkExistBusinessAccount()": "infinite",
				"_checkPostIdBelongstoBusinessId(uint256,uint256)": "infinite",
				"addAppointment(uint256,uint256,uint256,uint256,uint256)": "infinite",
				"addBusiness(uint256,string,string,string,string,string,string,string,string)": "infinite",
				"addPost(uint256,string,string,string,string,uint8)": "infinite",
				"autoLogin(address)": "infinite",
				"deleteAllAppointment(uint256,uint256)": "infinite",
				"destroy()": "30017",
				"editBusiness(uint256,string,string,string,string,string,string,string)": "infinite",
				"getAllAppointment()": "infinite",
				"getAllPost()": "infinite",
				"getAllProfile()": "infinite",
				"getApplierOfPost(uint256)": "infinite",
				"getApply(uint256)": "infinite",
				"getAppointment(uint256)": "infinite",
				"getListPostOfBusiness(uint256,uint256,uint256)": "infinite",
				"getPost(uint256)": "infinite",
				"getProfile(uint256)": "infinite",
				"login(string)": "infinite",
				"owner()": "2589",
				"setStatusPost(uint256,uint256,uint8)": "infinite",
				"transferOwnership(address)": "30797"
			}
		},
		"methodIdentifiers": {
			"_checkApplyIdBelongsToEmployeeId(uint256,uint256)": "64f3fe9d",
			"_checkApplyIdBelongsToPostId(uint256,uint256)": "46aa9f8a",
			"_checkExistApply(uint256,uint256)": "49e488a0",
			"_checkExistBusinessAccount()": "d610b45a",
			"_checkPostIdBelongstoBusinessId(uint256,uint256)": "4363b6c6",
			"addAppointment(uint256,uint256,uint256,uint256,uint256)": "26233345",
			"addBusiness(uint256,string,string,string,string,string,string,string,string)": "01b02b8c",
			"addPost(uint256,string,string,string,string,uint8)": "dfe47cdb",
			"autoLogin(address)": "efeebbf4",
			"deleteAllAppointment(uint256,uint256)": "f8acd972",
			"destroy()": "83197ef0",
			"editBusiness(uint256,string,string,string,string,string,string,string)": "d6c6109a",
			"getAllAppointment()": "a56e1ca6",
			"getAllPost()": "da7d9d10",
			"getAllProfile()": "3901d42d",
			"getApplierOfPost(uint256)": "81c68643",
			"getApply(uint256)": "073b8d8c",
			"getAppointment(uint256)": "0d943da2",
			"getListPostOfBusiness(uint256,uint256,uint256)": "c1cc0a56",
			"getPost(uint256)": "40731c24",
			"getProfile(uint256)": "f08f4f64",
			"login(string)": "3a7d280c",
			"owner()": "8da5cb5b",
			"setStatusPost(uint256,uint256,uint8)": "5f7e3e19",
			"transferOwnership(address)": "f2fde38b"
		}
	},
	"abi": [
		{
			"inputs": [
				{
					"internalType": "address",
					"name": "listBusinessAddress",
					"type": "address"
				},
				{
					"internalType": "address",
					"name": "listBusinessPostAddress",
					"type": "address"
				},
				{
					"internalType": "address",
					"name": "listApplyAddress",
					"type": "address"
				},
				{
					"internalType": "address",
					"name": "listAppointmenAddress",
					"type": "address"
				}
			],
			"stateMutability": "nonpayable",
			"type": "constructor"
		},
		{
			"anonymous": false,
			"inputs": [
				{
					"indexed": true,
					"internalType": "address",
					"name": "previousOwner",
					"type": "address"
				},
				{
					"indexed": true,
					"internalType": "address",
					"name": "newOwner",
					"type": "address"
				}
			],
			"name": "OwnershipTransferred",
			"type": "event"
		},
		{
			"anonymous": false,
			"inputs": [
				{
					"indexed": false,
					"internalType": "uint256",
					"name": "id",
					"type": "uint256"
				},
				{
					"indexed": false,
					"internalType": "string",
					"name": "hashTag",
					"type": "string"
				},
				{
					"indexed": false,
					"internalType": "string",
					"name": "job",
					"type": "string"
				},
				{
					"indexed": false,
					"internalType": "string",
					"name": "content",
					"type": "string"
				},
				{
					"indexed": false,
					"internalType": "string",
					"name": "imageSource",
					"type": "string"
				},
				{
					"indexed": false,
					"internalType": "enum Status",
					"name": "status",
					"type": "uint8"
				}
			],
			"name": "eventAddPost",
			"type": "event"
		},
		{
			"inputs": [
				{
					"internalType": "uint256",
					"name": "id",
					"type": "uint256"
				},
				{
					"internalType": "uint256",
					"name": "applyId",
					"type": "uint256"
				}
			],
			"name": "_checkApplyIdBelongsToEmployeeId",
			"outputs": [
				{
					"internalType": "bool",
					"name": "",
					"type": "bool"
				}
			],
			"stateMutability": "view",
			"type": "function"
		},
		{
			"inputs": [
				{
					"internalType": "uint256",
					"name": "postId",
					"type": "uint256"
				},
				{
					"internalType": "uint256",
					"name": "applyId",
					"type": "uint256"
				}
			],
			"name": "_checkApplyIdBelongsToPostId",
			"outputs": [
				{
					"internalType": "bool",
					"name": "",
					"type": "bool"
				}
			],
			"stateMutability": "view",
			"type": "function"
		},
		{
			"inputs": [
				{
					"internalType": "uint256",
					"name": "employeeId",
					"type": "uint256"
				},
				{
					"internalType": "uint256",
					"name": "postId",
					"type": "uint256"
				}
			],
			"name": "_checkExistApply",
			"outputs": [
				{
					"internalType": "bool",
					"name": "",
					"type": "bool"
				}
			],
			"stateMutability": "view",
			"type": "function"
		},
		{
			"inputs": [],
			"name": "_checkExistBusinessAccount",
			"outputs": [
				{
					"internalType": "bool",
					"name": "",
					"type": "bool"
				}
			],
			"stateMutability": "view",
			"type": "function"
		},
		{
			"inputs": [
				{
					"internalType": "uint256",
					"name": "id",
					"type": "uint256"
				},
				{
					"internalType": "uint256",
					"name": "postId",
					"type": "uint256"
				}
			],
			"name": "_checkPostIdBelongstoBusinessId",
			"outputs": [
				{
					"internalType": "bool",
					"name": "",
					"type": "bool"
				}
			],
			"stateMutability": "view",
			"type": "function"
		},
		{
			"inputs": [
				{
					"internalType": "uint256",
					"name": "postId",
					"type": "uint256"
				},
				{
					"internalType": "uint256",
					"name": "employeeId",
					"type": "uint256"
				},
				{
					"internalType": "uint256",
					"name": "businessId",
					"type": "uint256"
				},
				{
					"internalType": "uint256",
					"name": "applyId",
					"type": "uint256"
				},
				{
					"internalType": "uint256",
					"name": "time",
					"type": "uint256"
				}
			],
			"name": "addAppointment",
			"outputs": [
				{
					"internalType": "uint256",
					"name": "",
					"type": "uint256"
				}
			],
			"stateMutability": "nonpayable",
			"type": "function"
		},
		{
			"inputs": [
				{
					"internalType": "uint256",
					"name": "category",
					"type": "uint256"
				},
				{
					"internalType": "string",
					"name": "name",
					"type": "string"
				},
				{
					"internalType": "string",
					"name": "phone",
					"type": "string"
				},
				{
					"internalType": "string",
					"name": "professional",
					"type": "string"
				},
				{
					"internalType": "string",
					"name": "email",
					"type": "string"
				},
				{
					"internalType": "string",
					"name": "github",
					"type": "string"
				},
				{
					"internalType": "string",
					"name": "linkedin",
					"type": "string"
				},
				{
					"internalType": "string",
					"name": "sourceImage",
					"type": "string"
				},
				{
					"internalType": "string",
					"name": "password",
					"type": "string"
				}
			],
			"name": "addBusiness",
			"outputs": [
				{
					"internalType": "bool",
					"name": "",
					"type": "bool"
				}
			],
			"stateMutability": "nonpayable",
			"type": "function"
		},
		{
			"inputs": [
				{
					"internalType": "uint256",
					"name": "id",
					"type": "uint256"
				},
				{
					"internalType": "string",
					"name": "hashTag",
					"type": "string"
				},
				{
					"internalType": "string",
					"name": "job",
					"type": "string"
				},
				{
					"internalType": "string",
					"name": "content",
					"type": "string"
				},
				{
					"internalType": "string",
					"name": "imageSource",
					"type": "string"
				},
				{
					"internalType": "enum Status",
					"name": "status",
					"type": "uint8"
				}
			],
			"name": "addPost",
			"outputs": [
				{
					"internalType": "uint256",
					"name": "",
					"type": "uint256"
				}
			],
			"stateMutability": "nonpayable",
			"type": "function"
		},
		{
			"inputs": [
				{
					"internalType": "address",
					"name": "value",
					"type": "address"
				}
			],
			"name": "autoLogin",
			"outputs": [
				{
					"internalType": "uint256",
					"name": "",
					"type": "uint256"
				}
			],
			"stateMutability": "view",
			"type": "function"
		},
		{
			"inputs": [
				{
					"internalType": "uint256",
					"name": "businessId",
					"type": "uint256"
				},
				{
					"internalType": "uint256",
					"name": "appointmentId",
					"type": "uint256"
				}
			],
			"name": "deleteAllAppointment",
			"outputs": [
				{
					"internalType": "bool",
					"name": "",
					"type": "bool"
				}
			],
			"stateMutability": "nonpayable",
			"type": "function"
		},
		{
			"inputs": [],
			"name": "destroy",
			"outputs": [],
			"stateMutability": "nonpayable",
			"type": "function"
		},
		{
			"inputs": [
				{
					"internalType": "uint256",
					"name": "id",
					"type": "uint256"
				},
				{
					"internalType": "string",
					"name": "name",
					"type": "string"
				},
				{
					"internalType": "string",
					"name": "phone",
					"type": "string"
				},
				{
					"internalType": "string",
					"name": "professional",
					"type": "string"
				},
				{
					"internalType": "string",
					"name": "email",
					"type": "string"
				},
				{
					"internalType": "string",
					"name": "github",
					"type": "string"
				},
				{
					"internalType": "string",
					"name": "linkedin",
					"type": "string"
				},
				{
					"internalType": "string",
					"name": "sourceImage",
					"type": "string"
				}
			],
			"name": "editBusiness",
			"outputs": [
				{
					"internalType": "bool",
					"name": "",
					"type": "bool"
				}
			],
			"stateMutability": "nonpayable",
			"type": "function"
		},
		{
			"inputs": [],
			"name": "getAllAppointment",
			"outputs": [
				{
					"components": [
						{
							"internalType": "uint256",
							"name": "appointmentId",
							"type": "uint256"
						},
						{
							"internalType": "uint256",
							"name": "applyId",
							"type": "uint256"
						},
						{
							"internalType": "uint256",
							"name": "employeeId",
							"type": "uint256"
						},
						{
							"internalType": "uint256",
							"name": "businessId",
							"type": "uint256"
						},
						{
							"internalType": "uint256",
							"name": "time",
							"type": "uint256"
						},
						{
							"internalType": "uint256",
							"name": "status",
							"type": "uint256"
						}
					],
					"internalType": "struct Appointment[]",
					"name": "",
					"type": "tuple[]"
				}
			],
			"stateMutability": "view",
			"type": "function"
		},
		{
			"inputs": [],
			"name": "getAllPost",
			"outputs": [
				{
					"components": [
						{
							"internalType": "uint256",
							"name": "id",
							"type": "uint256"
						},
						{
							"internalType": "uint256",
							"name": "businessPostId",
							"type": "uint256"
						},
						{
							"internalType": "string",
							"name": "hashTag",
							"type": "string"
						},
						{
							"internalType": "uint256",
							"name": "time",
							"type": "uint256"
						},
						{
							"internalType": "string",
							"name": "content",
							"type": "string"
						},
						{
							"internalType": "string",
							"name": "imageSource",
							"type": "string"
						},
						{
							"internalType": "string",
							"name": "job",
							"type": "string"
						},
						{
							"internalType": "enum Status",
							"name": "status",
							"type": "uint8"
						}
					],
					"internalType": "struct BusinessPost[]",
					"name": "",
					"type": "tuple[]"
				}
			],
			"stateMutability": "view",
			"type": "function"
		},
		{
			"inputs": [],
			"name": "getAllProfile",
			"outputs": [
				{
					"components": [
						{
							"internalType": "uint256",
							"name": "category",
							"type": "uint256"
						},
						{
							"internalType": "uint256",
							"name": "id",
							"type": "uint256"
						},
						{
							"internalType": "address",
							"name": "user",
							"type": "address"
						},
						{
							"internalType": "string",
							"name": "name",
							"type": "string"
						},
						{
							"internalType": "string",
							"name": "phone",
							"type": "string"
						},
						{
							"internalType": "string",
							"name": "professional",
							"type": "string"
						},
						{
							"internalType": "string",
							"name": "email",
							"type": "string"
						},
						{
							"internalType": "string",
							"name": "github",
							"type": "string"
						},
						{
							"internalType": "string",
							"name": "linkedin",
							"type": "string"
						},
						{
							"internalType": "string",
							"name": "sourceImage",
							"type": "string"
						},
						{
							"internalType": "string",
							"name": "password",
							"type": "string"
						}
					],
					"internalType": "struct Profile[]",
					"name": "",
					"type": "tuple[]"
				}
			],
			"stateMutability": "view",
			"type": "function"
		},
		{
			"inputs": [
				{
					"internalType": "uint256",
					"name": "postId",
					"type": "uint256"
				}
			],
			"name": "getApplierOfPost",
			"outputs": [
				{
					"components": [
						{
							"internalType": "uint256",
							"name": "applyId",
							"type": "uint256"
						},
						{
							"internalType": "uint256",
							"name": "employeeId",
							"type": "uint256"
						},
						{
							"internalType": "uint256",
							"name": "businessId",
							"type": "uint256"
						},
						{
							"internalType": "uint256",
							"name": "postId",
							"type": "uint256"
						},
						{
							"internalType": "uint256",
							"name": "time",
							"type": "uint256"
						},
						{
							"internalType": "uint256",
							"name": "status",
							"type": "uint256"
						}
					],
					"internalType": "struct Apply[]",
					"name": "",
					"type": "tuple[]"
				}
			],
			"stateMutability": "view",
			"type": "function"
		},
		{
			"inputs": [
				{
					"internalType": "uint256",
					"name": "applyId",
					"type": "uint256"
				}
			],
			"name": "getApply",
			"outputs": [
				{
					"components": [
						{
							"internalType": "uint256",
							"name": "applyId",
							"type": "uint256"
						},
						{
							"internalType": "uint256",
							"name": "employeeId",
							"type": "uint256"
						},
						{
							"internalType": "uint256",
							"name": "businessId",
							"type": "uint256"
						},
						{
							"internalType": "uint256",
							"name": "postId",
							"type": "uint256"
						},
						{
							"internalType": "uint256",
							"name": "time",
							"type": "uint256"
						},
						{
							"internalType": "uint256",
							"name": "status",
							"type": "uint256"
						}
					],
					"internalType": "struct Apply",
					"name": "",
					"type": "tuple"
				}
			],
			"stateMutability": "view",
			"type": "function"
		},
		{
			"inputs": [
				{
					"internalType": "uint256",
					"name": "appointmentId",
					"type": "uint256"
				}
			],
			"name": "getAppointment",
			"outputs": [
				{
					"components": [
						{
							"internalType": "uint256",
							"name": "appointmentId",
							"type": "uint256"
						},
						{
							"internalType": "uint256",
							"name": "applyId",
							"type": "uint256"
						},
						{
							"internalType": "uint256",
							"name": "employeeId",
							"type": "uint256"
						},
						{
							"internalType": "uint256",
							"name": "businessId",
							"type": "uint256"
						},
						{
							"internalType": "uint256",
							"name": "time",
							"type": "uint256"
						},
						{
							"internalType": "uint256",
							"name": "status",
							"type": "uint256"
						}
					],
					"internalType": "struct Appointment",
					"name": "",
					"type": "tuple"
				}
			],
			"stateMutability": "view",
			"type": "function"
		},
		{
			"inputs": [
				{
					"internalType": "uint256",
					"name": "id",
					"type": "uint256"
				},
				{
					"internalType": "uint256",
					"name": "start",
					"type": "uint256"
				},
				{
					"internalType": "uint256",
					"name": "end",
					"type": "uint256"
				}
			],
			"name": "getListPostOfBusiness",
			"outputs": [
				{
					"components": [
						{
							"internalType": "uint256",
							"name": "id",
							"type": "uint256"
						},
						{
							"internalType": "uint256",
							"name": "businessPostId",
							"type": "uint256"
						},
						{
							"internalType": "string",
							"name": "hashTag",
							"type": "string"
						},
						{
							"internalType": "uint256",
							"name": "time",
							"type": "uint256"
						},
						{
							"internalType": "string",
							"name": "content",
							"type": "string"
						},
						{
							"internalType": "string",
							"name": "imageSource",
							"type": "string"
						},
						{
							"internalType": "string",
							"name": "job",
							"type": "string"
						},
						{
							"internalType": "enum Status",
							"name": "status",
							"type": "uint8"
						}
					],
					"internalType": "struct BusinessPost[]",
					"name": "",
					"type": "tuple[]"
				}
			],
			"stateMutability": "view",
			"type": "function"
		},
		{
			"inputs": [
				{
					"internalType": "uint256",
					"name": "postId",
					"type": "uint256"
				}
			],
			"name": "getPost",
			"outputs": [
				{
					"components": [
						{
							"internalType": "uint256",
							"name": "id",
							"type": "uint256"
						},
						{
							"internalType": "uint256",
							"name": "businessPostId",
							"type": "uint256"
						},
						{
							"internalType": "string",
							"name": "hashTag",
							"type": "string"
						},
						{
							"internalType": "uint256",
							"name": "time",
							"type": "uint256"
						},
						{
							"internalType": "string",
							"name": "content",
							"type": "string"
						},
						{
							"internalType": "string",
							"name": "imageSource",
							"type": "string"
						},
						{
							"internalType": "string",
							"name": "job",
							"type": "string"
						},
						{
							"internalType": "enum Status",
							"name": "status",
							"type": "uint8"
						}
					],
					"internalType": "struct BusinessPost",
					"name": "",
					"type": "tuple"
				}
			],
			"stateMutability": "view",
			"type": "function"
		},
		{
			"inputs": [
				{
					"internalType": "uint256",
					"name": "id",
					"type": "uint256"
				}
			],
			"name": "getProfile",
			"outputs": [
				{
					"components": [
						{
							"internalType": "uint256",
							"name": "category",
							"type": "uint256"
						},
						{
							"internalType": "uint256",
							"name": "id",
							"type": "uint256"
						},
						{
							"internalType": "address",
							"name": "user",
							"type": "address"
						},
						{
							"internalType": "string",
							"name": "name",
							"type": "string"
						},
						{
							"internalType": "string",
							"name": "phone",
							"type": "string"
						},
						{
							"internalType": "string",
							"name": "professional",
							"type": "string"
						},
						{
							"internalType": "string",
							"name": "email",
							"type": "string"
						},
						{
							"internalType": "string",
							"name": "github",
							"type": "string"
						},
						{
							"internalType": "string",
							"name": "linkedin",
							"type": "string"
						},
						{
							"internalType": "string",
							"name": "sourceImage",
							"type": "string"
						},
						{
							"internalType": "string",
							"name": "password",
							"type": "string"
						}
					],
					"internalType": "struct Profile",
					"name": "",
					"type": "tuple"
				}
			],
			"stateMutability": "view",
			"type": "function"
		},
		{
			"inputs": [
				{
					"internalType": "string",
					"name": "password",
					"type": "string"
				}
			],
			"name": "login",
			"outputs": [
				{
					"internalType": "uint256",
					"name": "",
					"type": "uint256"
				}
			],
			"stateMutability": "view",
			"type": "function"
		},
		{
			"inputs": [],
			"name": "owner",
			"outputs": [
				{
					"internalType": "address",
					"name": "",
					"type": "address"
				}
			],
			"stateMutability": "view",
			"type": "function"
		},
		{
			"inputs": [
				{
					"internalType": "uint256",
					"name": "id",
					"type": "uint256"
				},
				{
					"internalType": "uint256",
					"name": "postId",
					"type": "uint256"
				},
				{
					"internalType": "enum Status",
					"name": "status",
					"type": "uint8"
				}
			],
			"name": "setStatusPost",
			"outputs": [
				{
					"internalType": "bool",
					"name": "",
					"type": "bool"
				}
			],
			"stateMutability": "nonpayable",
			"type": "function"
		},
		{
			"inputs": [
				{
					"internalType": "address",
					"name": "newOwner",
					"type": "address"
				}
			],
			"name": "transferOwnership",
			"outputs": [],
			"stateMutability": "nonpayable",
			"type": "function"
		}
	]
}