{
	"data": {
		"bytecode": {
			"linkReferences": {},
			"object": "60806040523480156200001157600080fd5b5060405162005627380380620056278339818101604052810190620000379190620002fb565b80828486336000806101000a81548173ffffffffffffffffffffffffffffffffffffffff021916908373ffffffffffffffffffffffffffffffffffffffff16021790555080600260006101000a81548173ffffffffffffffffffffffffffffffffffffffff021916908373ffffffffffffffffffffffffffffffffffffffff16021790555080600160006101000a81548173ffffffffffffffffffffffffffffffffffffffff021916908373ffffffffffffffffffffffffffffffffffffffff1602179055505080600460006101000a81548173ffffffffffffffffffffffffffffffffffffffff021916908373ffffffffffffffffffffffffffffffffffffffff16021790555080600360006101000a81548173ffffffffffffffffffffffffffffffffffffffff021916908373ffffffffffffffffffffffffffffffffffffffff1602179055505080600660006101000a81548173ffffffffffffffffffffffffffffffffffffffff021916908373ffffffffffffffffffffffffffffffffffffffff16021790555080600560006101000a81548173ffffffffffffffffffffffffffffffffffffffff021916908373ffffffffffffffffffffffffffffffffffffffff1602179055505080600860006101000a81548173ffffffffffffffffffffffffffffffffffffffff021916908373ffffffffffffffffffffffffffffffffffffffff16021790555080600760006101000a81548173ffffffffffffffffffffffffffffffffffffffff021916908373ffffffffffffffffffffffffffffffffffffffff16021790555050505050506200036d565b600080fd5b600073ffffffffffffffffffffffffffffffffffffffff82169050919050565b6000620002c38262000296565b9050919050565b620002d581620002b6565b8114620002e157600080fd5b50565b600081519050620002f581620002ca565b92915050565b6000806000806080858703121562000318576200031762000291565b5b60006200032887828801620002e4565b94505060206200033b87828801620002e4565b93505060406200034e87828801620002e4565b92505060606200036187828801620002e4565b91505092959194509250565b6152aa806200037d6000396000f3fe608060405234801561001057600080fd5b50600436106101425760003560e01c80638da5cb5b116100b8578063e583267d1161007c578063e583267d146103fd578063ec40a59b1461042d578063efeebbf41461044b578063f072eb961461047b578063f08f4f64146104ab578063f2fde38b146104db57610142565b80638da5cb5b1461031f57806396b934241461033d578063b2c2db061461036d578063c1fa897d1461039d578063ccd1c519146103cd57610142565b806342c68ba71161010a57806342c68ba71461022557806346aa9f8a1461025557806349e488a01461028557806364f3fe9d146102b5578063820a59fe146102e557806383197ef01461031557610142565b8063059f7829146101475780631fe1d46314610177578063369a41be146101a75780633901d42d146101d75780633a7d280c146101f5575b600080fd5b610161600480360381019061015c91906134e7565b6104f7565b60405161016e9190613690565b60405180910390f35b610191600480360381019061018c91906136ab565b610af3565b60405161019e9190613690565b60405180910390f35b6101c160048036038101906101bc919061371a565b610caf565b6040516101ce9190613880565b60405180910390f35b6101df611056565b6040516101ec9190613b59565b60405180910390f35b61020f600480360381019061020a9190613b7b565b6112ac565b60405161021c9190613bd3565b60405180910390f35b61023f600480360381019061023a919061371a565b6113e0565b60405161024c9190613d13565b60405180910390f35b61026f600480360381019061026a9190613d35565b61178b565b60405161027c9190613690565b60405180910390f35b61029f600480360381019061029a9190613d35565b611872565b6040516102ac9190613690565b60405180910390f35b6102cf60048036038101906102ca9190613d35565b611a4a565b6040516102dc9190613690565b60405180910390f35b6102ff60048036038101906102fa9190613d35565b611b31565b60405161030c9190613690565b60405180910390f35b61031d611cc4565b005b610327611ce5565b6040516103349190613d84565b60405180910390f35b61035760048036038101906103529190613d9f565b611d0e565b6040516103649190613bd3565b60405180910390f35b61038760048036038101906103829190613df2565b611ed4565b6040516103949190613bd3565b60405180910390f35b6103b760048036038101906103b29190613fb1565b612050565b6040516103c49190613690565b60405180910390f35b6103e760048036038101906103e2919061371a565b612136565b6040516103f49190614137565b60405180910390f35b61041760048036038101906104129190613d9f565b6124d0565b6040516104249190613690565b60405180910390f35b610435612666565b6040516104429190613690565b60405180910390f35b61046560048036038101906104609190614185565b612748565b6040516104729190613bd3565b60405180910390f35b61049560048036038101906104909190613d35565b61289a565b6040516104a29190614137565b60405180910390f35b6104c560048036038101906104c0919061371a565b612c55565b6040516104d291906142e7565b60405180910390f35b6104f560048036038101906104f09190614185565b612d67565b005b600089610502612666565b610541576040517f08c379a00000000000000000000000000000000000000000000000000000000081526004016105389061438c565b60405180910390fd5b61054a81612dea565b610589576040517f08c379a00000000000000000000000000000000000000000000000000000000081526004016105809061441e565b60405180910390fd5b610591612ecb565b73ffffffffffffffffffffffffffffffffffffffff166311a89a5f8c7f8e1604a838d0f1a9b2cda14a099e4ceb08e966cc6e05e8296f67b02d61a79f0960001b8d6040518463ffffffff1660e01b81526004016105f093929190614457565b6020604051808303816000875af115801561060f573d6000803e3d6000fd5b505050506040513d601f19601f8201168201806040525081019061063391906144ba565b5061063c612ecb565b73ffffffffffffffffffffffffffffffffffffffff1663413896e48c7f8e1604a838d0f1a9b2cda14a099e4ceb08e966cc6e05e8296f67b02d61a79f0960001b8c6040518463ffffffff1660e01b815260040161069b93929190614520565b6020604051808303816000875af11580156106ba573d6000803e3d6000fd5b505050506040513d601f19601f820116820180604052508101906106de91906144ba565b506106e7612ecb565b73ffffffffffffffffffffffffffffffffffffffff1663d49cb1468c7f8e1604a838d0f1a9b2cda14a099e4ceb08e966cc6e05e8296f67b02d61a79f0960001b8b6040518463ffffffff1660e01b815260040161074693929190614520565b6020604051808303816000875af1158015610765573d6000803e3d6000fd5b505050506040513d601f19601f8201168201806040525081019061078991906144ba565b50610792612ecb565b73ffffffffffffffffffffffffffffffffffffffff1663e3f343718c7f8e1604a838d0f1a9b2cda14a099e4ceb08e966cc6e05e8296f67b02d61a79f0960001b8a6040518463ffffffff1660e01b81526004016107f193929190614520565b6020604051808303816000875af1158015610810573d6000803e3d6000fd5b505050506040513d601f19601f8201168201806040525081019061083491906144ba565b5061083d612ecb565b73ffffffffffffffffffffffffffffffffffffffff166329cd63118c7f8e1604a838d0f1a9b2cda14a099e4ceb08e966cc6e05e8296f67b02d61a79f0960001b896040518463ffffffff1660e01b815260040161089c93929190614520565b6020604051808303816000875af11580156108bb573d6000803e3d6000fd5b505050506040513d601f19601f820116820180604052508101906108df91906144ba565b506108e8612ecb565b73ffffffffffffffffffffffffffffffffffffffff1663d2af71a68c7f8e1604a838d0f1a9b2cda14a099e4ceb08e966cc6e05e8296f67b02d61a79f0960001b886040518463ffffffff1660e01b815260040161094793929190614520565b6020604051808303816000875af1158015610966573d6000803e3d6000fd5b505050506040513d601f19601f8201168201806040525081019061098a91906144ba565b50610993612ecb565b73ffffffffffffffffffffffffffffffffffffffff1663d45c8abf8c7f8e1604a838d0f1a9b2cda14a099e4ceb08e966cc6e05e8296f67b02d61a79f0960001b876040518463ffffffff1660e01b81526004016109f293929190614520565b6020604051808303816000875af1158015610a11573d6000803e3d6000fd5b505050506040513d601f19601f82011682018060405250810190610a3591906144ba565b50610a3e612ecb565b73ffffffffffffffffffffffffffffffffffffffff1663800f22348c7f8e1604a838d0f1a9b2cda14a099e4ceb08e966cc6e05e8296f67b02d61a79f0960001b866040518463ffffffff1660e01b8152600401610a9d93929190614520565b6020604051808303816000875af1158015610abc573d6000803e3d6000fd5b505050506040513d601f19601f82011682018060405250810190610ae091906144ba565b5060019150509998505050505050505050565b600083610afe612666565b610b3d576040517f08c379a0000000000000000000000000000000000000000000000000000000008152600401610b349061438c565b60405180910390fd5b610b4681612dea565b610b85576040517f08c379a0000000000000000000000000000000000000000000000000000000008152600401610b7c9061441e565b60405180910390fd5b8484610b918282612050565b15610bd1576040517f08c379a0000000000000000000000000000000000000000000000000000000008152600401610bc8906145d0565b60405180910390fd5b6000604051806080016040528089815260200160008152602001888152602001878152509050610bff612ef5565b73ffffffffffffffffffffffffffffffffffffffff16632a9d3976827f8e1604a838d0f1a9b2cda14a099e4ceb08e966cc6e05e8296f67b02d61a79f0960001b6040518363ffffffff1660e01b8152600401610c5c929190614653565b6020604051808303816000875af1158015610c7b573d6000803e3d6000fd5b505050506040513d601f19601f82011682018060405250810190610c9f91906144ba565b5060019450505050509392505050565b6060600080600190505b610cc1612f1f565b73ffffffffffffffffffffffffffffffffffffffff1663fd82e9dd7f8e1604a838d0f1a9b2cda14a099e4ceb08e966cc6e05e8296f67b02d61a79f0960001b6040518263ffffffff1660e01b8152600401610d1c9190614683565b602060405180830381865afa158015610d39573d6000803e3d6000fd5b505050506040513d601f19601f82011682018060405250810190610d5d91906146b3565b8111610e3b576000610d6d612f1f565b73ffffffffffffffffffffffffffffffffffffffff1663c78a6741837f8e1604a838d0f1a9b2cda14a099e4ceb08e966cc6e05e8296f67b02d61a79f0960001b6040518363ffffffff1660e01b8152600401610dca9291906146e0565b60c060405180830381865afa158015610de7573d6000803e3d6000fd5b505050506040513d601f19601f82011682018060405250810190610e0b91906147b3565b905084816020015103610e27578280610e239061480f565b9350505b508080610e339061480f565b915050610cb9565b5060008167ffffffffffffffff811115610e5857610e576133bc565b5b604051908082528060200260200182016040528015610e9157816020015b610e7e61324c565b815260200190600190039081610e765790505b509050600080600190505b610ea4612f1f565b73ffffffffffffffffffffffffffffffffffffffff1663fd82e9dd7f8e1604a838d0f1a9b2cda14a099e4ceb08e966cc6e05e8296f67b02d61a79f0960001b6040518263ffffffff1660e01b8152600401610eff9190614683565b602060405180830381865afa158015610f1c573d6000803e3d6000fd5b505050506040513d601f19601f82011682018060405250810190610f4091906146b3565b8111158015610f4e57508382105b1561104a576000610f5d612f1f565b73ffffffffffffffffffffffffffffffffffffffff1663c78a6741837f8e1604a838d0f1a9b2cda14a099e4ceb08e966cc6e05e8296f67b02d61a79f0960001b6040518363ffffffff1660e01b8152600401610fba9291906146e0565b60c060405180830381865afa158015610fd7573d6000803e3d6000fd5b505050506040513d601f19601f82011682018060405250810190610ffb91906147b3565b905086816020015103611036578084848151811061101c5761101b614857565b5b602002602001018190525082806110329061480f565b9350505b5080806110429061480f565b915050610e9c565b50819350505050919050565b60606000611062612ecb565b73ffffffffffffffffffffffffffffffffffffffff1663fd82e9dd7f8e1604a838d0f1a9b2cda14a099e4ceb08e966cc6e05e8296f67b02d61a79f0960001b6040518263ffffffff1660e01b81526004016110bd9190614683565b602060405180830381865afa1580156110da573d6000803e3d6000fd5b505050506040513d601f19601f820116820180604052508101906110fe91906146b3565b905060008167ffffffffffffffff81111561111c5761111b6133bc565b5b60405190808252806020026020018201604052801561115557816020015b611142613282565b81526020019060019003908161113a5790505b50905060005b828110156112a357600061116d612ecb565b73ffffffffffffffffffffffffffffffffffffffff1663c78a67416001846111959190614886565b7f8e1604a838d0f1a9b2cda14a099e4ceb08e966cc6e05e8296f67b02d61a79f0960001b6040518363ffffffff1660e01b81526004016111d69291906146e0565b600060405180830381865afa1580156111f3573d6000803e3d6000fd5b505050506040513d6000823e3d601f19601f8201168201806040525081019061121c9190614b41565b90506000816060019073ffffffffffffffffffffffffffffffffffffffff16908173ffffffffffffffffffffffffffffffffffffffff1681525050604051806020016040528060008152508161016001819052508083838151811061128457611283614857565b5b602002602001018190525050808061129b9061480f565b91505061115b565b50809250505090565b60006112b6612666565b6112f5576040517f08c379a00000000000000000000000000000000000000000000000000000000081526004016112ec90614bfc565b60405180910390fd5b60003390506000611304612ecb565b73ffffffffffffffffffffffffffffffffffffffff1663236df93c837f8e1604a838d0f1a9b2cda14a099e4ceb08e966cc6e05e8296f67b02d61a79f0960001b6040518363ffffffff1660e01b8152600401611361929190614c1c565b600060405180830381865afa15801561137e573d6000803e3d6000fd5b505050506040513d6000823e3d601f19601f820116820180604052508101906113a79190614b41565b90506113c184826101600151612f4990919063ffffffff16565b156113d4578060200151925050506113db565b6000925050505b919050565b6060600080600190505b6113f2612ef5565b73ffffffffffffffffffffffffffffffffffffffff1663fd82e9dd7f8e1604a838d0f1a9b2cda14a099e4ceb08e966cc6e05e8296f67b02d61a79f0960001b6040518263ffffffff1660e01b815260040161144d9190614683565b602060405180830381865afa15801561146a573d6000803e3d6000fd5b505050506040513d601f19601f8201168201806040525081019061148e91906146b3565b811161156b578361149d612ef5565b73ffffffffffffffffffffffffffffffffffffffff1663c78a6741837f8e1604a838d0f1a9b2cda14a099e4ceb08e966cc6e05e8296f67b02d61a79f0960001b6040518363ffffffff1660e01b81526004016114fa9291906146e0565b600060405180830381865afa158015611517573d6000803e3d6000fd5b505050506040513d6000823e3d601f19601f820116820180604052508101906115409190614cd9565b60000151036115585781806115549061480f565b9250505b80806115639061480f565b9150506113ea565b5060008167ffffffffffffffff811115611588576115876133bc565b5b6040519080825280602002602001820160405280156115c157816020015b6115ae6132f9565b8152602001906001900390816115a65790505b509050600080600190505b6115d4612ef5565b73ffffffffffffffffffffffffffffffffffffffff1663fd82e9dd7f8e1604a838d0f1a9b2cda14a099e4ceb08e966cc6e05e8296f67b02d61a79f0960001b6040518263ffffffff1660e01b815260040161162f9190614683565b602060405180830381865afa15801561164c573d6000803e3d6000fd5b505050506040513d601f19601f8201168201806040525081019061167091906146b3565b811115801561167e57508382105b1561177f57600061168d612ef5565b73ffffffffffffffffffffffffffffffffffffffff1663c78a6741837f8e1604a838d0f1a9b2cda14a099e4ceb08e966cc6e05e8296f67b02d61a79f0960001b6040518363ffffffff1660e01b81526004016116ea9291906146e0565b600060405180830381865afa158015611707573d6000803e3d6000fd5b505050506040513d6000823e3d601f19601f820116820180604052508101906117309190614cd9565b90508681600001510361176b578084848151811061175157611750614857565b5b602002602001018190525082806117679061480f565b9350505b5080806117779061480f565b9150506115cc565b50819350505050919050565b600080600560009054906101000a900473ffffffffffffffffffffffffffffffffffffffff1673ffffffffffffffffffffffffffffffffffffffff1663c78a6741847f8e1604a838d0f1a9b2cda14a099e4ceb08e966cc6e05e8296f67b02d61a79f0960001b6040518363ffffffff1660e01b815260040161180e9291906146e0565b60c060405180830381865afa15801561182b573d6000803e3d6000fd5b505050506040513d601f19601f8201168201806040525081019061184f91906147b3565b60600151905080840361186657600191505061186c565b60009150505b92915050565b600080600190505b600560009054906101000a900473ffffffffffffffffffffffffffffffffffffffff1673ffffffffffffffffffffffffffffffffffffffff1663fd82e9dd7f8e1604a838d0f1a9b2cda14a099e4ceb08e966cc6e05e8296f67b02d61a79f0960001b6040518263ffffffff1660e01b81526004016118f89190614683565b602060405180830381865afa158015611915573d6000803e3d6000fd5b505050506040513d601f19601f8201168201806040525081019061193991906146b3565b8111611a3e576000600560009054906101000a900473ffffffffffffffffffffffffffffffffffffffff1673ffffffffffffffffffffffffffffffffffffffff1663c78a6741837f8e1604a838d0f1a9b2cda14a099e4ceb08e966cc6e05e8296f67b02d61a79f0960001b6040518363ffffffff1660e01b81526004016119c19291906146e0565b60c060405180830381865afa1580156119de573d6000803e3d6000fd5b505050506040513d601f19601f82011682018060405250810190611a0291906147b3565b9050848160200151148015611a1a5750838160600151145b15611a2a57600192505050611a44565b508080611a369061480f565b91505061187a565b50600090505b92915050565b600080600560009054906101000a900473ffffffffffffffffffffffffffffffffffffffff1673ffffffffffffffffffffffffffffffffffffffff1663c78a6741847f8e1604a838d0f1a9b2cda14a099e4ceb08e966cc6e05e8296f67b02d61a79f0960001b6040518363ffffffff1660e01b8152600401611acd9291906146e0565b60c060405180830381865afa158015611aea573d6000803e3d6000fd5b505050506040513d601f19601f82011682018060405250810190611b0e91906147b3565b602001519050808403611b25576001915050611b2b565b60009150505b92915050565b600082611b3c612666565b611b7b576040517f08c379a0000000000000000000000000000000000000000000000000000000008152600401611b729061438c565b60405180910390fd5b611b8481612dea565b611bc3576040517f08c379a0000000000000000000000000000000000000000000000000000000008152600401611bba9061441e565b60405180910390fd5b8383611bcf8282612fb2565b611c0e576040517f08c379a0000000000000000000000000000000000000000000000000000000008152600401611c0590614d94565b60405180910390fd5b611c16612ef5565b73ffffffffffffffffffffffffffffffffffffffff1663b615c00a867f8e1604a838d0f1a9b2cda14a099e4ceb08e966cc6e05e8296f67b02d61a79f0960001b6040518363ffffffff1660e01b8152600401611c739291906146e0565b6020604051808303816000875af1158015611c92573d6000803e3d6000fd5b505050506040513d601f19601f82011682018060405250810190611cb691906144ba565b506001935050505092915050565b611ccc61309e565b3073ffffffffffffffffffffffffffffffffffffffff16ff5b60008060009054906101000a900473ffffffffffffffffffffffffffffffffffffffff16905090565b600083611d19612666565b611d58576040517f08c379a0000000000000000000000000000000000000000000000000000000008152600401611d4f9061438c565b60405180910390fd5b611d6181612dea565b611da0576040517f08c379a0000000000000000000000000000000000000000000000000000000008152600401611d979061441e565b60405180910390fd5b8483611dac8282611872565b15611dec576040517f08c379a0000000000000000000000000000000000000000000000000000000008152600401611de390614e00565b60405180910390fd5b60006040518060c001604052806000815260200189815260200188815260200187815260200142815260200160008152509050611e27612f1f565b73ffffffffffffffffffffffffffffffffffffffff1663e155e532827f8e1604a838d0f1a9b2cda14a099e4ceb08e966cc6e05e8296f67b02d61a79f0960001b6040518363ffffffff1660e01b8152600401611e84929190614e9b565b6020604051808303816000875af1158015611ea3573d6000803e3d6000fd5b505050506040513d601f19601f82011682018060405250810190611ec791906146b3565b9450505050509392505050565b6000611ede612666565b15611f1e576040517f08c379a0000000000000000000000000000000000000000000000000000000008152600401611f1590614f36565b60405180910390fd5b600033905060006040518061018001604052808e8152602001600081526020018d81526020018373ffffffffffffffffffffffffffffffffffffffff1681526020018c81526020018b81526020018a81526020018981526020018881526020018781526020018681526020018581525090506000611f9a612ecb565b73ffffffffffffffffffffffffffffffffffffffff16637dcd61bd837f8e1604a838d0f1a9b2cda14a099e4ceb08e966cc6e05e8296f67b02d61a79f0960001b6040518363ffffffff1660e01b8152600401611ff7929190614f56565b6020604051808303816000875af1158015612016573d6000803e3d6000fd5b505050506040513d601f19601f8201168201806040525081019061203a91906146b3565b90508093505050509a9950505050505050505050565b600080600360009054906101000a900473ffffffffffffffffffffffffffffffffffffffff1673ffffffffffffffffffffffffffffffffffffffff1663fe6132187f8e1604a838d0f1a9b2cda14a099e4ceb08e966cc6e05e8296f67b02d61a79f0960001b86866040518463ffffffff1660e01b81526004016120d593929190614f86565b602060405180830381865afa1580156120f2573d6000803e3d6000fd5b505050506040513d601f19601f8201168201806040525081019061211691906146b3565b90506000811461212a576001915050612130565b60009150505b92915050565b6060600080600190505b612148613115565b73ffffffffffffffffffffffffffffffffffffffff1663fd82e9dd7f8e1604a838d0f1a9b2cda14a099e4ceb08e966cc6e05e8296f67b02d61a79f0960001b6040518263ffffffff1660e01b81526004016121a39190614683565b602060405180830381865afa1580156121c0573d6000803e3d6000fd5b505050506040513d601f19601f820116820180604052508101906121e491906146b3565b81116122c25760006121f4613115565b73ffffffffffffffffffffffffffffffffffffffff1663c78a6741837f8e1604a838d0f1a9b2cda14a099e4ceb08e966cc6e05e8296f67b02d61a79f0960001b6040518363ffffffff1660e01b81526004016122519291906146e0565b60c060405180830381865afa15801561226e573d6000803e3d6000fd5b505050506040513d601f19601f820116820180604052508101906122929190615064565b6040015190508481036122ae5782806122aa9061480f565b9350505b5080806122ba9061480f565b915050612140565b5060008167ffffffffffffffff8111156122df576122de6133bc565b5b60405190808252806020026020018201604052801561231857816020015b612305613321565b8152602001906001900390816122fd5790505b509050600080600190505b61232b613115565b73ffffffffffffffffffffffffffffffffffffffff1663fd82e9dd7f8e1604a838d0f1a9b2cda14a099e4ceb08e966cc6e05e8296f67b02d61a79f0960001b6040518263ffffffff1660e01b81526004016123869190614683565b602060405180830381865afa1580156123a3573d6000803e3d6000fd5b505050506040513d601f19601f820116820180604052508101906123c791906146b3565b81116124c45760006123d7613115565b73ffffffffffffffffffffffffffffffffffffffff1663c78a6741837f8e1604a838d0f1a9b2cda14a099e4ceb08e966cc6e05e8296f67b02d61a79f0960001b6040518363ffffffff1660e01b81526004016124349291906146e0565b60c060405180830381865afa158015612451573d6000803e3d6000fd5b505050506040513d601f19601f820116820180604052508101906124759190615064565b9050868160400151036124b0578084848151811061249657612495614857565b5b602002602001018190525082806124ac9061480f565b9350505b5080806124bc9061480f565b915050612323565b50819350505050919050565b6000836124db612666565b61251a576040517f08c379a00000000000000000000000000000000000000000000000000000000081526004016125119061438c565b60405180910390fd5b61252381612dea565b612562576040517f08c379a00000000000000000000000000000000000000000000000000000000081526004016125599061441e565b60405180910390fd5b848461256e8282612fb2565b6125ad576040517f08c379a00000000000000000000000000000000000000000000000000000000081526004016125a490614d94565b60405180910390fd5b6125b5612ef5565b73ffffffffffffffffffffffffffffffffffffffff1663c1d58001877f8e1604a838d0f1a9b2cda14a099e4ceb08e966cc6e05e8296f67b02d61a79f0960001b886040518463ffffffff1660e01b815260040161261493929190614457565b6020604051808303816000875af1158015612633573d6000803e3d6000fd5b505050506040513d601f19601f8201168201806040525081019061265791906144ba565b50600193505050509392505050565b600080600160009054906101000a900473ffffffffffffffffffffffffffffffffffffffff1673ffffffffffffffffffffffffffffffffffffffff1663d32a04c7337f8e1604a838d0f1a9b2cda14a099e4ceb08e966cc6e05e8296f67b02d61a79f0960001b6040518363ffffffff1660e01b81526004016126e9929190614c1c565b602060405180830381865afa158015612706573d6000803e3d6000fd5b505050506040513d601f19601f8201168201806040525081019061272a91906146b3565b9050600081111561273f576001915050612745565b60009150505b90565b60003382612756828261313f565b612795576040517f08c379a000000000000000000000000000000000000000000000000000000000815260040161278c90615103565b60405180910390fd5b61279d612666565b6127dc576040517f08c379a00000000000000000000000000000000000000000000000000000000081526004016127d390614bfc565b60405180910390fd5b60006127e6612ecb565b73ffffffffffffffffffffffffffffffffffffffff1663236df93c337f8e1604a838d0f1a9b2cda14a099e4ceb08e966cc6e05e8296f67b02d61a79f0960001b6040518363ffffffff1660e01b8152600401612843929190614c1c565b600060405180830381865afa158015612860573d6000803e3d6000fd5b505050506040513d6000823e3d601f19601f820116820180604052508101906128899190614b41565b602001519050809350505050919050565b6060600080600190505b6128ac613115565b73ffffffffffffffffffffffffffffffffffffffff1663fd82e9dd7f8e1604a838d0f1a9b2cda14a099e4ceb08e966cc6e05e8296f67b02d61a79f0960001b6040518263ffffffff1660e01b81526004016129079190614683565b602060405180830381865afa158015612924573d6000803e3d6000fd5b505050506040513d601f19601f8201168201806040525081019061294891906146b3565b8111612a36576000612958613115565b73ffffffffffffffffffffffffffffffffffffffff1663c78a6741837f8e1604a838d0f1a9b2cda14a099e4ceb08e966cc6e05e8296f67b02d61a79f0960001b6040518363ffffffff1660e01b81526004016129b59291906146e0565b60c060405180830381865afa1580156129d2573d6000803e3d6000fd5b505050506040513d601f19601f820116820180604052508101906129f69190615064565b9050858160400151148015612a0e5750848160600151145b15612a22578280612a1e9061480f565b9350505b508080612a2e9061480f565b9150506128a4565b5060008167ffffffffffffffff811115612a5357612a526133bc565b5b604051908082528060200260200182016040528015612a8c57816020015b612a79613321565b815260200190600190039081612a715790505b509050600080600190505b612a9f613115565b73ffffffffffffffffffffffffffffffffffffffff1663fd82e9dd7f8e1604a838d0f1a9b2cda14a099e4ceb08e966cc6e05e8296f67b02d61a79f0960001b6040518263ffffffff1660e01b8152600401612afa9190614683565b602060405180830381865afa158015612b17573d6000803e3d6000fd5b505050506040513d601f19601f82011682018060405250810190612b3b91906146b3565b8111612c48576000612b4b613115565b73ffffffffffffffffffffffffffffffffffffffff1663c78a6741837f8e1604a838d0f1a9b2cda14a099e4ceb08e966cc6e05e8296f67b02d61a79f0960001b6040518363ffffffff1660e01b8152600401612ba89291906146e0565b60c060405180830381865afa158015612bc5573d6000803e3d6000fd5b505050506040513d601f19601f82011682018060405250810190612be99190615064565b9050878160400151148015612c015750868160600151145b15612c345780848481518110612c1a57612c19614857565b5b60200260200101819052508280612c309061480f565b9350505b508080612c409061480f565b915050612a97565b5081935050505092915050565b612c5d613282565b6000612c67612ecb565b73ffffffffffffffffffffffffffffffffffffffff1663c78a6741847f8e1604a838d0f1a9b2cda14a099e4ceb08e966cc6e05e8296f67b02d61a79f0960001b6040518363ffffffff1660e01b8152600401612cc49291906146e0565b600060405180830381865afa158015612ce1573d6000803e3d6000fd5b505050506040513d6000823e3d601f19601f82011682018060405250810190612d0a9190614b41565b90506000816060019073ffffffffffffffffffffffffffffffffffffffff16908173ffffffffffffffffffffffffffffffffffffffff16815250506040518060200160405280600081525081610160018190525080915050919050565b612d6f61309e565b600073ffffffffffffffffffffffffffffffffffffffff168173ffffffffffffffffffffffffffffffffffffffff1603612dde576040517f08c379a0000000000000000000000000000000000000000000000000000000008152600401612dd590615195565b60405180910390fd5b612de781613188565b50565b600080600160009054906101000a900473ffffffffffffffffffffffffffffffffffffffff1673ffffffffffffffffffffffffffffffffffffffff1663c78a6741847f8e1604a838d0f1a9b2cda14a099e4ceb08e966cc6e05e8296f67b02d61a79f0960001b6040518363ffffffff1660e01b8152600401612e6d9291906146e0565b600060405180830381865afa158015612e8a573d6000803e3d6000fd5b505050506040513d6000823e3d601f19601f82011682018060405250810190612eb39190614b41565b9050612ec381606001513361313f565b915050919050565b6000600160009054906101000a900473ffffffffffffffffffffffffffffffffffffffff16905090565b6000600360009054906101000a900473ffffffffffffffffffffffffffffffffffffffff16905090565b6000600560009054906101000a900473ffffffffffffffffffffffffffffffffffffffff16905090565b600081604051602001612f5c91906151f1565b6040516020818303038152906040528051906020012083604051602001612f8391906151f1565b6040516020818303038152906040528051906020012003612fa75760019050612fac565b600090505b92915050565b600080600360009054906101000a900473ffffffffffffffffffffffffffffffffffffffff1673ffffffffffffffffffffffffffffffffffffffff1663c78a6741847f8e1604a838d0f1a9b2cda14a099e4ceb08e966cc6e05e8296f67b02d61a79f0960001b6040518363ffffffff1660e01b81526004016130359291906146e0565b600060405180830381865afa158015613052573d6000803e3d6000fd5b505050506040513d6000823e3d601f19601f8201168201806040525081019061307b9190614cd9565b600001519050838103613092576001915050613098565b60009150505b92915050565b3373ffffffffffffffffffffffffffffffffffffffff166130bd611ce5565b73ffffffffffffffffffffffffffffffffffffffff1614613113576040517f08c379a000000000000000000000000000000000000000000000000000000000815260040161310a90615254565b60405180910390fd5b565b6000600760009054906101000a900473ffffffffffffffffffffffffffffffffffffffff16905090565b60008173ffffffffffffffffffffffffffffffffffffffff168373ffffffffffffffffffffffffffffffffffffffff160361317d5760019050613182565b600090505b92915050565b60008060009054906101000a900473ffffffffffffffffffffffffffffffffffffffff169050816000806101000a81548173ffffffffffffffffffffffffffffffffffffffff021916908373ffffffffffffffffffffffffffffffffffffffff1602179055508173ffffffffffffffffffffffffffffffffffffffff168173ffffffffffffffffffffffffffffffffffffffff167f8be0079c531659141344cd1fd0a4f28419497f9722a3daafe3b4186f6b6457e060405160405180910390a35050565b6040518060c001604052806000815260200160008152602001600081526020016000815260200160008152602001600081525090565b604051806101800160405280600081526020016000815260200160008152602001600073ffffffffffffffffffffffffffffffffffffffff16815260200160608152602001606081526020016060815260200160608152602001606081526020016060815260200160608152602001606081525090565b6040518060800160405280600081526020016000815260200160608152602001600081525090565b6040518060c001604052806000815260200160008152602001600081526020016000815260200160008152602001600081525090565b6000604051905090565b600080fd5b600080fd5b6000819050919050565b61337e8161336b565b811461338957600080fd5b50565b60008135905061339b81613375565b92915050565b600080fd5b600080fd5b6000601f19601f8301169050919050565b7f4e487b7100000000000000000000000000000000000000000000000000000000600052604160045260246000fd5b6133f4826133ab565b810181811067ffffffffffffffff82111715613413576134126133bc565b5b80604052505050565b6000613426613357565b905061343282826133eb565b919050565b600067ffffffffffffffff821115613452576134516133bc565b5b61345b826133ab565b9050602081019050919050565b82818337600083830152505050565b600061348a61348584613437565b61341c565b9050828152602081018484840111156134a6576134a56133a6565b5b6134b1848285613468565b509392505050565b600082601f8301126134ce576134cd6133a1565b5b81356134de848260208601613477565b91505092915050565b60008060008060008060008060006101208a8c03121561350a57613509613361565b5b60006135188c828d0161338c565b99505060206135298c828d0161338c565b98505060408a013567ffffffffffffffff81111561354a57613549613366565b5b6135568c828d016134b9565b97505060608a013567ffffffffffffffff81111561357757613576613366565b5b6135838c828d016134b9565b96505060808a013567ffffffffffffffff8111156135a4576135a3613366565b5b6135b08c828d016134b9565b95505060a08a013567ffffffffffffffff8111156135d1576135d0613366565b5b6135dd8c828d016134b9565b94505060c08a013567ffffffffffffffff8111156135fe576135fd613366565b5b61360a8c828d016134b9565b93505060e08a013567ffffffffffffffff81111561362b5761362a613366565b5b6136378c828d016134b9565b9250506101008a013567ffffffffffffffff81111561365957613658613366565b5b6136658c828d016134b9565b9150509295985092959850929598565b60008115159050919050565b61368a81613675565b82525050565b60006020820190506136a56000830184613681565b92915050565b6000806000606084860312156136c4576136c3613361565b5b60006136d28682870161338c565b935050602084013567ffffffffffffffff8111156136f3576136f2613366565b5b6136ff868287016134b9565b92505060406137108682870161338c565b9150509250925092565b6000602082840312156137305761372f613361565b5b600061373e8482850161338c565b91505092915050565b600081519050919050565b600082825260208201905092915050565b6000819050602082019050919050565b61377c8161336b565b82525050565b60c0820160008201516137986000850182613773565b5060208201516137ab6020850182613773565b5060408201516137be6040850182613773565b5060608201516137d16060850182613773565b5060808201516137e46080850182613773565b5060a08201516137f760a0850182613773565b50505050565b60006138098383613782565b60c08301905092915050565b6000602082019050919050565b600061382d82613747565b6138378185613752565b935061384283613763565b8060005b8381101561387357815161385a88826137fd565b975061386583613815565b925050600181019050613846565b5085935050505092915050565b6000602082019050818103600083015261389a8184613822565b905092915050565b600081519050919050565b600082825260208201905092915050565b6000819050602082019050919050565b600073ffffffffffffffffffffffffffffffffffffffff82169050919050565b60006138f9826138ce565b9050919050565b613909816138ee565b82525050565b600081519050919050565b600082825260208201905092915050565b60005b8381101561394957808201518184015260208101905061392e565b60008484015250505050565b60006139608261390f565b61396a818561391a565b935061397a81856020860161392b565b613983816133ab565b840191505092915050565b6000610180830160008301516139a76000860182613773565b5060208301516139ba6020860182613773565b5060408301516139cd6040860182613773565b5060608301516139e06060860182613900565b50608083015184820360808601526139f88282613955565b91505060a083015184820360a0860152613a128282613955565b91505060c083015184820360c0860152613a2c8282613955565b91505060e083015184820360e0860152613a468282613955565b915050610100830151848203610100860152613a628282613955565b915050610120830151848203610120860152613a7e8282613955565b915050610140830151848203610140860152613a9a8282613955565b915050610160830151848203610160860152613ab68282613955565b9150508091505092915050565b6000613acf838361398e565b905092915050565b6000602082019050919050565b6000613aef826138a2565b613af981856138ad565b935083602082028501613b0b856138be565b8060005b85811015613b475784840389528151613b288582613ac3565b9450613b3383613ad7565b925060208a01995050600181019050613b0f565b50829750879550505050505092915050565b60006020820190508181036000830152613b738184613ae4565b905092915050565b600060208284031215613b9157613b90613361565b5b600082013567ffffffffffffffff811115613baf57613bae613366565b5b613bbb848285016134b9565b91505092915050565b613bcd8161336b565b82525050565b6000602082019050613be86000830184613bc4565b92915050565b600081519050919050565b600082825260208201905092915050565b6000819050602082019050919050565b6000608083016000830151613c326000860182613773565b506020830151613c456020860182613773565b5060408301518482036040860152613c5d8282613955565b9150506060830151613c726060860182613773565b508091505092915050565b6000613c898383613c1a565b905092915050565b6000602082019050919050565b6000613ca982613bee565b613cb38185613bf9565b935083602082028501613cc585613c0a565b8060005b85811015613d015784840389528151613ce28582613c7d565b9450613ced83613c91565b925060208a01995050600181019050613cc9565b50829750879550505050505092915050565b60006020820190508181036000830152613d2d8184613c9e565b905092915050565b60008060408385031215613d4c57613d4b613361565b5b6000613d5a8582860161338c565b9250506020613d6b8582860161338c565b9150509250929050565b613d7e816138ee565b82525050565b6000602082019050613d996000830184613d75565b92915050565b600080600060608486031215613db857613db7613361565b5b6000613dc68682870161338c565b9350506020613dd78682870161338c565b9250506040613de88682870161338c565b9150509250925092565b6000806000806000806000806000806101408b8d031215613e1657613e15613361565b5b6000613e248d828e0161338c565b9a50506020613e358d828e0161338c565b99505060408b013567ffffffffffffffff811115613e5657613e55613366565b5b613e628d828e016134b9565b98505060608b013567ffffffffffffffff811115613e8357613e82613366565b5b613e8f8d828e016134b9565b97505060808b013567ffffffffffffffff811115613eb057613eaf613366565b5b613ebc8d828e016134b9565b96505060a08b013567ffffffffffffffff811115613edd57613edc613366565b5b613ee98d828e016134b9565b95505060c08b013567ffffffffffffffff811115613f0a57613f09613366565b5b613f168d828e016134b9565b94505060e08b013567ffffffffffffffff811115613f3757613f36613366565b5b613f438d828e016134b9565b9350506101008b013567ffffffffffffffff811115613f6557613f64613366565b5b613f718d828e016134b9565b9250506101208b013567ffffffffffffffff811115613f9357613f92613366565b5b613f9f8d828e016134b9565b9150509295989b9194979a5092959850565b60008060408385031215613fc857613fc7613361565b5b6000613fd68582860161338c565b925050602083013567ffffffffffffffff811115613ff757613ff6613366565b5b614003858286016134b9565b9150509250929050565b600081519050919050565b600082825260208201905092915050565b6000819050602082019050919050565b60c08201600082015161404f6000850182613773565b5060208201516140626020850182613773565b5060408201516140756040850182613773565b5060608201516140886060850182613773565b50608082015161409b6080850182613773565b5060a08201516140ae60a0850182613773565b50505050565b60006140c08383614039565b60c08301905092915050565b6000602082019050919050565b60006140e48261400d565b6140ee8185614018565b93506140f983614029565b8060005b8381101561412a57815161411188826140b4565b975061411c836140cc565b9250506001810190506140fd565b5085935050505092915050565b6000602082019050818103600083015261415181846140d9565b905092915050565b614162816138ee565b811461416d57600080fd5b50565b60008135905061417f81614159565b92915050565b60006020828403121561419b5761419a613361565b5b60006141a984828501614170565b91505092915050565b6000610180830160008301516141cb6000860182613773565b5060208301516141de6020860182613773565b5060408301516141f16040860182613773565b5060608301516142046060860182613900565b506080830151848203608086015261421c8282613955565b91505060a083015184820360a08601526142368282613955565b91505060c083015184820360c08601526142508282613955565b91505060e083015184820360e086015261426a8282613955565b9150506101008301518482036101008601526142868282613955565b9150506101208301518482036101208601526142a28282613955565b9150506101408301518482036101408601526142be8282613955565b9150506101608301518482036101608601526142da8282613955565b9150508091505092915050565b6000602082019050818103600083015261430181846141b2565b905092915050565b600082825260208201905092915050565b7f4c697374456d706c6f796565437572736f723a2041646472657373206e6f742060008201527f62656c6f6e677320746f20746865206163636f756e7400000000000000000000602082015250565b6000614376603683614309565b91506143818261431a565b604082019050919050565b600060208201905081810360008301526143a581614369565b9050919050565b7f4c697374456d706c6f796565437572736f723a206964206973206e6f7420626560008201527f6c6f6e6720746f20616464726573730000000000000000000000000000000000602082015250565b6000614408602f83614309565b9150614413826143ac565b604082019050919050565b60006020820190508181036000830152614437816143fb565b9050919050565b6000819050919050565b6144518161443e565b82525050565b600060608201905061446c6000830186613bc4565b6144796020830185614448565b6144866040830184613bc4565b949350505050565b61449781613675565b81146144a257600080fd5b50565b6000815190506144b48161448e565b92915050565b6000602082840312156144d0576144cf613361565b5b60006144de848285016144a5565b91505092915050565b60006144f28261390f565b6144fc8185614309565b935061450c81856020860161392b565b614515816133ab565b840191505092915050565b60006060820190506145356000830186613bc4565b6145426020830185614448565b818103604083015261455481846144e7565b9050949350505050565b7f456d706c6f79656520536b696c6c20437572736f723a20416c7265616479206560008201527f78697374656420736b696c6c0000000000000000000000000000000000000000602082015250565b60006145ba602c83614309565b91506145c58261455e565b604082019050919050565b600060208201905081810360008301526145e9816145ad565b9050919050565b60006080830160008301516146086000860182613773565b50602083015161461b6020860182613773565b50604083015184820360408601526146338282613955565b91505060608301516146486060860182613773565b508091505092915050565b6000604082019050818103600083015261466d81856145f0565b905061467c6020830184614448565b9392505050565b60006020820190506146986000830184614448565b92915050565b6000815190506146ad81613375565b92915050565b6000602082840312156146c9576146c8613361565b5b60006146d78482850161469e565b91505092915050565b60006040820190506146f56000830185613bc4565b6147026020830184614448565b9392505050565b600080fd5b600080fd5b600060c0828403121561472957614728614709565b5b61473360c061341c565b905060006147438482850161469e565b60008301525060206147578482850161469e565b602083015250604061476b8482850161469e565b604083015250606061477f8482850161469e565b60608301525060806147938482850161469e565b60808301525060a06147a78482850161469e565b60a08301525092915050565b600060c082840312156147c9576147c8613361565b5b60006147d784828501614713565b91505092915050565b7f4e487b7100000000000000000000000000000000000000000000000000000000600052601160045260246000fd5b600061481a8261336b565b91507fffffffffffffffffffffffffffffffffffffffffffffffffffffffffffffffff820361484c5761484b6147e0565b5b600182019050919050565b7f4e487b7100000000000000000000000000000000000000000000000000000000600052603260045260246000fd5b60006148918261336b565b915061489c8361336b565b92508282019050808211156148b4576148b36147e0565b5b92915050565b6000815190506148c981614159565b92915050565b60006148e26148dd84613437565b61341c565b9050828152602081018484840111156148fe576148fd6133a6565b5b61490984828561392b565b509392505050565b600082601f830112614926576149256133a1565b5b81516149368482602086016148cf565b91505092915050565b6000610180828403121561495657614955614709565b5b61496161018061341c565b905060006149718482850161469e565b60008301525060206149858482850161469e565b60208301525060406149998482850161469e565b60408301525060606149ad848285016148ba565b606083015250608082015167ffffffffffffffff8111156149d1576149d061470e565b5b6149dd84828501614911565b60808301525060a082015167ffffffffffffffff811115614a0157614a0061470e565b5b614a0d84828501614911565b60a08301525060c082015167ffffffffffffffff811115614a3157614a3061470e565b5b614a3d84828501614911565b60c08301525060e082015167ffffffffffffffff811115614a6157614a6061470e565b5b614a6d84828501614911565b60e08301525061010082015167ffffffffffffffff811115614a9257614a9161470e565b5b614a9e84828501614911565b6101008301525061012082015167ffffffffffffffff811115614ac457614ac361470e565b5b614ad084828501614911565b6101208301525061014082015167ffffffffffffffff811115614af657614af561470e565b5b614b0284828501614911565b6101408301525061016082015167ffffffffffffffff811115614b2857614b2761470e565b5b614b3484828501614911565b6101608301525092915050565b600060208284031215614b5757614b56613361565b5b600082015167ffffffffffffffff811115614b7557614b74613366565b5b614b818482850161493f565b91505092915050565b7f4c697374456d706c6f796565437572736f723a204e6f7420686173206163636f60008201527f756e740000000000000000000000000000000000000000000000000000000000602082015250565b6000614be6602383614309565b9150614bf182614b8a565b604082019050919050565b60006020820190508181036000830152614c1581614bd9565b9050919050565b6000604082019050614c316000830185613d75565b614c3e6020830184614448565b9392505050565b600060808284031215614c5b57614c5a614709565b5b614c65608061341c565b90506000614c758482850161469e565b6000830152506020614c898482850161469e565b602083015250604082015167ffffffffffffffff811115614cad57614cac61470e565b5b614cb984828501614911565b6040830152506060614ccd8482850161469e565b60608301525092915050565b600060208284031215614cef57614cee613361565b5b600082015167ffffffffffffffff811115614d0d57614d0c613366565b5b614d1984828501614c45565b91505092915050565b7f456d706c6f79656520536b696c6c20437572736f723a2052657175657374207360008201527f6b696c6c00000000000000000000000000000000000000000000000000000000602082015250565b6000614d7e602483614309565b9150614d8982614d22565b604082019050919050565b60006020820190508181036000830152614dad81614d71565b9050919050565b7f4c6973744170706c79437572736f723a206861644170706c6965640000000000600082015250565b6000614dea601b83614309565b9150614df582614db4565b602082019050919050565b60006020820190508181036000830152614e1981614ddd565b9050919050565b60c082016000820151614e366000850182613773565b506020820151614e496020850182613773565b506040820151614e5c6040850182613773565b506060820151614e6f6060850182613773565b506080820151614e826080850182613773565b5060a0820151614e9560a0850182613773565b50505050565b600060e082019050614eb06000830185614e20565b614ebd60c0830184614448565b9392505050565b7f4c697374456d706c6f796565437572736f723a20416c7265616479206578697360008201527f746564206163636f756e74000000000000000000000000000000000000000000602082015250565b6000614f20602b83614309565b9150614f2b82614ec4565b604082019050919050565b60006020820190508181036000830152614f4f81614f13565b9050919050565b60006040820190508181036000830152614f7081856141b2565b9050614f7f6020830184614448565b9392505050565b6000606082019050614f9b6000830186614448565b614fa86020830185613bc4565b8181036040830152614fba81846144e7565b9050949350505050565b600060c08284031215614fda57614fd9614709565b5b614fe460c061341c565b90506000614ff48482850161469e565b60008301525060206150088482850161469e565b602083015250604061501c8482850161469e565b60408301525060606150308482850161469e565b60608301525060806150448482850161469e565b60808301525060a06150588482850161469e565b60a08301525092915050565b600060c0828403121561507a57615079613361565b5b600061508884828501614fc4565b91505092915050565b7f4c697374456d706c6f796565437572736f723a2063616c6c6572206973206e6f60008201527f7420746865207573657200000000000000000000000000000000000000000000602082015250565b60006150ed602a83614309565b91506150f882615091565b604082019050919050565b6000602082019050818103600083015261511c816150e0565b9050919050565b7f4f776e61626c653a206e6577206f776e657220697320746865207a65726f206160008201527f6464726573730000000000000000000000000000000000000000000000000000602082015250565b600061517f602683614309565b915061518a82615123565b604082019050919050565b600060208201905081810360008301526151ae81615172565b9050919050565b600081905092915050565b60006151cb8261390f565b6151d581856151b5565b93506151e581856020860161392b565b80840191505092915050565b60006151fd82846151c0565b915081905092915050565b7f4f776e61626c653a2063616c6c6572206973206e6f7420746865206f776e6572600082015250565b600061523e602083614309565b915061524982615208565b602082019050919050565b6000602082019050818103600083015261526d81615231565b905091905056fea2646970667358221220c72c8ff7687b9f0daedee0ae9c4b618a25a07fed1427643dc6ae05b8b724e03464736f6c63430008110033",
			"opcodes": "PUSH1 0x80 PUSH1 0x40 MSTORE CALLVALUE DUP1 ISZERO PUSH3 0x11 JUMPI PUSH1 0x0 DUP1 REVERT JUMPDEST POP PUSH1 0x40 MLOAD PUSH3 0x5627 CODESIZE SUB DUP1 PUSH3 0x5627 DUP4 CODECOPY DUP2 DUP2 ADD PUSH1 0x40 MSTORE DUP2 ADD SWAP1 PUSH3 0x37 SWAP2 SWAP1 PUSH3 0x2FB JUMP JUMPDEST DUP1 DUP3 DUP5 DUP7 CALLER PUSH1 0x0 DUP1 PUSH2 0x100 EXP DUP2 SLOAD DUP2 PUSH20 0xFFFFFFFFFFFFFFFFFFFFFFFFFFFFFFFFFFFFFFFF MUL NOT AND SWAP1 DUP4 PUSH20 0xFFFFFFFFFFFFFFFFFFFFFFFFFFFFFFFFFFFFFFFF AND MUL OR SWAP1 SSTORE POP DUP1 PUSH1 0x2 PUSH1 0x0 PUSH2 0x100 EXP DUP2 SLOAD DUP2 PUSH20 0xFFFFFFFFFFFFFFFFFFFFFFFFFFFFFFFFFFFFFFFF MUL NOT AND SWAP1 DUP4 PUSH20 0xFFFFFFFFFFFFFFFFFFFFFFFFFFFFFFFFFFFFFFFF AND MUL OR SWAP1 SSTORE POP DUP1 PUSH1 0x1 PUSH1 0x0 PUSH2 0x100 EXP DUP2 SLOAD DUP2 PUSH20 0xFFFFFFFFFFFFFFFFFFFFFFFFFFFFFFFFFFFFFFFF MUL NOT AND SWAP1 DUP4 PUSH20 0xFFFFFFFFFFFFFFFFFFFFFFFFFFFFFFFFFFFFFFFF AND MUL OR SWAP1 SSTORE POP POP DUP1 PUSH1 0x4 PUSH1 0x0 PUSH2 0x100 EXP DUP2 SLOAD DUP2 PUSH20 0xFFFFFFFFFFFFFFFFFFFFFFFFFFFFFFFFFFFFFFFF MUL NOT AND SWAP1 DUP4 PUSH20 0xFFFFFFFFFFFFFFFFFFFFFFFFFFFFFFFFFFFFFFFF AND MUL OR SWAP1 SSTORE POP DUP1 PUSH1 0x3 PUSH1 0x0 PUSH2 0x100 EXP DUP2 SLOAD DUP2 PUSH20 0xFFFFFFFFFFFFFFFFFFFFFFFFFFFFFFFFFFFFFFFF MUL NOT AND SWAP1 DUP4 PUSH20 0xFFFFFFFFFFFFFFFFFFFFFFFFFFFFFFFFFFFFFFFF AND MUL OR SWAP1 SSTORE POP POP DUP1 PUSH1 0x6 PUSH1 0x0 PUSH2 0x100 EXP DUP2 SLOAD DUP2 PUSH20 0xFFFFFFFFFFFFFFFFFFFFFFFFFFFFFFFFFFFFFFFF MUL NOT AND SWAP1 DUP4 PUSH20 0xFFFFFFFFFFFFFFFFFFFFFFFFFFFFFFFFFFFFFFFF AND MUL OR SWAP1 SSTORE POP DUP1 PUSH1 0x5 PUSH1 0x0 PUSH2 0x100 EXP DUP2 SLOAD DUP2 PUSH20 0xFFFFFFFFFFFFFFFFFFFFFFFFFFFFFFFFFFFFFFFF MUL NOT AND SWAP1 DUP4 PUSH20 0xFFFFFFFFFFFFFFFFFFFFFFFFFFFFFFFFFFFFFFFF AND MUL OR SWAP1 SSTORE POP POP DUP1 PUSH1 0x8 PUSH1 0x0 PUSH2 0x100 EXP DUP2 SLOAD DUP2 PUSH20 0xFFFFFFFFFFFFFFFFFFFFFFFFFFFFFFFFFFFFFFFF MUL NOT AND SWAP1 DUP4 PUSH20 0xFFFFFFFFFFFFFFFFFFFFFFFFFFFFFFFFFFFFFFFF AND MUL OR SWAP1 SSTORE POP DUP1 PUSH1 0x7 PUSH1 0x0 PUSH2 0x100 EXP DUP2 SLOAD DUP2 PUSH20 0xFFFFFFFFFFFFFFFFFFFFFFFFFFFFFFFFFFFFFFFF MUL NOT AND SWAP1 DUP4 PUSH20 0xFFFFFFFFFFFFFFFFFFFFFFFFFFFFFFFFFFFFFFFF AND MUL OR SWAP1 SSTORE POP POP POP POP POP POP PUSH3 0x36D JUMP JUMPDEST PUSH1 0x0 DUP1 REVERT JUMPDEST PUSH1 0x0 PUSH20 0xFFFFFFFFFFFFFFFFFFFFFFFFFFFFFFFFFFFFFFFF DUP3 AND SWAP1 POP SWAP2 SWAP1 POP JUMP JUMPDEST PUSH1 0x0 PUSH3 0x2C3 DUP3 PUSH3 0x296 JUMP JUMPDEST SWAP1 POP SWAP2 SWAP1 POP JUMP JUMPDEST PUSH3 0x2D5 DUP2 PUSH3 0x2B6 JUMP JUMPDEST DUP2 EQ PUSH3 0x2E1 JUMPI PUSH1 0x0 DUP1 REVERT JUMPDEST POP JUMP JUMPDEST PUSH1 0x0 DUP2 MLOAD SWAP1 POP PUSH3 0x2F5 DUP2 PUSH3 0x2CA JUMP JUMPDEST SWAP3 SWAP2 POP POP JUMP JUMPDEST PUSH1 0x0 DUP1 PUSH1 0x0 DUP1 PUSH1 0x80 DUP6 DUP8 SUB SLT ISZERO PUSH3 0x318 JUMPI PUSH3 0x317 PUSH3 0x291 JUMP JUMPDEST JUMPDEST PUSH1 0x0 PUSH3 0x328 DUP8 DUP3 DUP9 ADD PUSH3 0x2E4 JUMP JUMPDEST SWAP5 POP POP PUSH1 0x20 PUSH3 0x33B DUP8 DUP3 DUP9 ADD PUSH3 0x2E4 JUMP JUMPDEST SWAP4 POP POP PUSH1 0x40 PUSH3 0x34E DUP8 DUP3 DUP9 ADD PUSH3 0x2E4 JUMP JUMPDEST SWAP3 POP POP PUSH1 0x60 PUSH3 0x361 DUP8 DUP3 DUP9 ADD PUSH3 0x2E4 JUMP JUMPDEST SWAP2 POP POP SWAP3 SWAP6 SWAP2 SWAP5 POP SWAP3 POP JUMP JUMPDEST PUSH2 0x52AA DUP1 PUSH3 0x37D PUSH1 0x0 CODECOPY PUSH1 0x0 RETURN INVALID PUSH1 0x80 PUSH1 0x40 MSTORE CALLVALUE DUP1 ISZERO PUSH2 0x10 JUMPI PUSH1 0x0 DUP1 REVERT JUMPDEST POP PUSH1 0x4 CALLDATASIZE LT PUSH2 0x142 JUMPI PUSH1 0x0 CALLDATALOAD PUSH1 0xE0 SHR DUP1 PUSH4 0x8DA5CB5B GT PUSH2 0xB8 JUMPI DUP1 PUSH4 0xE583267D GT PUSH2 0x7C JUMPI DUP1 PUSH4 0xE583267D EQ PUSH2 0x3FD JUMPI DUP1 PUSH4 0xEC40A59B EQ PUSH2 0x42D JUMPI DUP1 PUSH4 0xEFEEBBF4 EQ PUSH2 0x44B JUMPI DUP1 PUSH4 0xF072EB96 EQ PUSH2 0x47B JUMPI DUP1 PUSH4 0xF08F4F64 EQ PUSH2 0x4AB JUMPI DUP1 PUSH4 0xF2FDE38B EQ PUSH2 0x4DB JUMPI PUSH2 0x142 JUMP JUMPDEST DUP1 PUSH4 0x8DA5CB5B EQ PUSH2 0x31F JUMPI DUP1 PUSH4 0x96B93424 EQ PUSH2 0x33D JUMPI DUP1 PUSH4 0xB2C2DB06 EQ PUSH2 0x36D JUMPI DUP1 PUSH4 0xC1FA897D EQ PUSH2 0x39D JUMPI DUP1 PUSH4 0xCCD1C519 EQ PUSH2 0x3CD JUMPI PUSH2 0x142 JUMP JUMPDEST DUP1 PUSH4 0x42C68BA7 GT PUSH2 0x10A JUMPI DUP1 PUSH4 0x42C68BA7 EQ PUSH2 0x225 JUMPI DUP1 PUSH4 0x46AA9F8A EQ PUSH2 0x255 JUMPI DUP1 PUSH4 0x49E488A0 EQ PUSH2 0x285 JUMPI DUP1 PUSH4 0x64F3FE9D EQ PUSH2 0x2B5 JUMPI DUP1 PUSH4 0x820A59FE EQ PUSH2 0x2E5 JUMPI DUP1 PUSH4 0x83197EF0 EQ PUSH2 0x315 JUMPI PUSH2 0x142 JUMP JUMPDEST DUP1 PUSH4 0x59F7829 EQ PUSH2 0x147 JUMPI DUP1 PUSH4 0x1FE1D463 EQ PUSH2 0x177 JUMPI DUP1 PUSH4 0x369A41BE EQ PUSH2 0x1A7 JUMPI DUP1 PUSH4 0x3901D42D EQ PUSH2 0x1D7 JUMPI DUP1 PUSH4 0x3A7D280C EQ PUSH2 0x1F5 JUMPI JUMPDEST PUSH1 0x0 DUP1 REVERT JUMPDEST PUSH2 0x161 PUSH1 0x4 DUP1 CALLDATASIZE SUB DUP2 ADD SWAP1 PUSH2 0x15C SWAP2 SWAP1 PUSH2 0x34E7 JUMP JUMPDEST PUSH2 0x4F7 JUMP JUMPDEST PUSH1 0x40 MLOAD PUSH2 0x16E SWAP2 SWAP1 PUSH2 0x3690 JUMP JUMPDEST PUSH1 0x40 MLOAD DUP1 SWAP2 SUB SWAP1 RETURN JUMPDEST PUSH2 0x191 PUSH1 0x4 DUP1 CALLDATASIZE SUB DUP2 ADD SWAP1 PUSH2 0x18C SWAP2 SWAP1 PUSH2 0x36AB JUMP JUMPDEST PUSH2 0xAF3 JUMP JUMPDEST PUSH1 0x40 MLOAD PUSH2 0x19E SWAP2 SWAP1 PUSH2 0x3690 JUMP JUMPDEST PUSH1 0x40 MLOAD DUP1 SWAP2 SUB SWAP1 RETURN JUMPDEST PUSH2 0x1C1 PUSH1 0x4 DUP1 CALLDATASIZE SUB DUP2 ADD SWAP1 PUSH2 0x1BC SWAP2 SWAP1 PUSH2 0x371A JUMP JUMPDEST PUSH2 0xCAF JUMP JUMPDEST PUSH1 0x40 MLOAD PUSH2 0x1CE SWAP2 SWAP1 PUSH2 0x3880 JUMP JUMPDEST PUSH1 0x40 MLOAD DUP1 SWAP2 SUB SWAP1 RETURN JUMPDEST PUSH2 0x1DF PUSH2 0x1056 JUMP JUMPDEST PUSH1 0x40 MLOAD PUSH2 0x1EC SWAP2 SWAP1 PUSH2 0x3B59 JUMP JUMPDEST PUSH1 0x40 MLOAD DUP1 SWAP2 SUB SWAP1 RETURN JUMPDEST PUSH2 0x20F PUSH1 0x4 DUP1 CALLDATASIZE SUB DUP2 ADD SWAP1 PUSH2 0x20A SWAP2 SWAP1 PUSH2 0x3B7B JUMP JUMPDEST PUSH2 0x12AC JUMP JUMPDEST PUSH1 0x40 MLOAD PUSH2 0x21C SWAP2 SWAP1 PUSH2 0x3BD3 JUMP JUMPDEST PUSH1 0x40 MLOAD DUP1 SWAP2 SUB SWAP1 RETURN JUMPDEST PUSH2 0x23F PUSH1 0x4 DUP1 CALLDATASIZE SUB DUP2 ADD SWAP1 PUSH2 0x23A SWAP2 SWAP1 PUSH2 0x371A JUMP JUMPDEST PUSH2 0x13E0 JUMP JUMPDEST PUSH1 0x40 MLOAD PUSH2 0x24C SWAP2 SWAP1 PUSH2 0x3D13 JUMP JUMPDEST PUSH1 0x40 MLOAD DUP1 SWAP2 SUB SWAP1 RETURN JUMPDEST PUSH2 0x26F PUSH1 0x4 DUP1 CALLDATASIZE SUB DUP2 ADD SWAP1 PUSH2 0x26A SWAP2 SWAP1 PUSH2 0x3D35 JUMP JUMPDEST PUSH2 0x178B JUMP JUMPDEST PUSH1 0x40 MLOAD PUSH2 0x27C SWAP2 SWAP1 PUSH2 0x3690 JUMP JUMPDEST PUSH1 0x40 MLOAD DUP1 SWAP2 SUB SWAP1 RETURN JUMPDEST PUSH2 0x29F PUSH1 0x4 DUP1 CALLDATASIZE SUB DUP2 ADD SWAP1 PUSH2 0x29A SWAP2 SWAP1 PUSH2 0x3D35 JUMP JUMPDEST PUSH2 0x1872 JUMP JUMPDEST PUSH1 0x40 MLOAD PUSH2 0x2AC SWAP2 SWAP1 PUSH2 0x3690 JUMP JUMPDEST PUSH1 0x40 MLOAD DUP1 SWAP2 SUB SWAP1 RETURN JUMPDEST PUSH2 0x2CF PUSH1 0x4 DUP1 CALLDATASIZE SUB DUP2 ADD SWAP1 PUSH2 0x2CA SWAP2 SWAP1 PUSH2 0x3D35 JUMP JUMPDEST PUSH2 0x1A4A JUMP JUMPDEST PUSH1 0x40 MLOAD PUSH2 0x2DC SWAP2 SWAP1 PUSH2 0x3690 JUMP JUMPDEST PUSH1 0x40 MLOAD DUP1 SWAP2 SUB SWAP1 RETURN JUMPDEST PUSH2 0x2FF PUSH1 0x4 DUP1 CALLDATASIZE SUB DUP2 ADD SWAP1 PUSH2 0x2FA SWAP2 SWAP1 PUSH2 0x3D35 JUMP JUMPDEST PUSH2 0x1B31 JUMP JUMPDEST PUSH1 0x40 MLOAD PUSH2 0x30C SWAP2 SWAP1 PUSH2 0x3690 JUMP JUMPDEST PUSH1 0x40 MLOAD DUP1 SWAP2 SUB SWAP1 RETURN JUMPDEST PUSH2 0x31D PUSH2 0x1CC4 JUMP JUMPDEST STOP JUMPDEST PUSH2 0x327 PUSH2 0x1CE5 JUMP JUMPDEST PUSH1 0x40 MLOAD PUSH2 0x334 SWAP2 SWAP1 PUSH2 0x3D84 JUMP JUMPDEST PUSH1 0x40 MLOAD DUP1 SWAP2 SUB SWAP1 RETURN JUMPDEST PUSH2 0x357 PUSH1 0x4 DUP1 CALLDATASIZE SUB DUP2 ADD SWAP1 PUSH2 0x352 SWAP2 SWAP1 PUSH2 0x3D9F JUMP JUMPDEST PUSH2 0x1D0E JUMP JUMPDEST PUSH1 0x40 MLOAD PUSH2 0x364 SWAP2 SWAP1 PUSH2 0x3BD3 JUMP JUMPDEST PUSH1 0x40 MLOAD DUP1 SWAP2 SUB SWAP1 RETURN JUMPDEST PUSH2 0x387 PUSH1 0x4 DUP1 CALLDATASIZE SUB DUP2 ADD SWAP1 PUSH2 0x382 SWAP2 SWAP1 PUSH2 0x3DF2 JUMP JUMPDEST PUSH2 0x1ED4 JUMP JUMPDEST PUSH1 0x40 MLOAD PUSH2 0x394 SWAP2 SWAP1 PUSH2 0x3BD3 JUMP JUMPDEST PUSH1 0x40 MLOAD DUP1 SWAP2 SUB SWAP1 RETURN JUMPDEST PUSH2 0x3B7 PUSH1 0x4 DUP1 CALLDATASIZE SUB DUP2 ADD SWAP1 PUSH2 0x3B2 SWAP2 SWAP1 PUSH2 0x3FB1 JUMP JUMPDEST PUSH2 0x2050 JUMP JUMPDEST PUSH1 0x40 MLOAD PUSH2 0x3C4 SWAP2 SWAP1 PUSH2 0x3690 JUMP JUMPDEST PUSH1 0x40 MLOAD DUP1 SWAP2 SUB SWAP1 RETURN JUMPDEST PUSH2 0x3E7 PUSH1 0x4 DUP1 CALLDATASIZE SUB DUP2 ADD SWAP1 PUSH2 0x3E2 SWAP2 SWAP1 PUSH2 0x371A JUMP JUMPDEST PUSH2 0x2136 JUMP JUMPDEST PUSH1 0x40 MLOAD PUSH2 0x3F4 SWAP2 SWAP1 PUSH2 0x4137 JUMP JUMPDEST PUSH1 0x40 MLOAD DUP1 SWAP2 SUB SWAP1 RETURN JUMPDEST PUSH2 0x417 PUSH1 0x4 DUP1 CALLDATASIZE SUB DUP2 ADD SWAP1 PUSH2 0x412 SWAP2 SWAP1 PUSH2 0x3D9F JUMP JUMPDEST PUSH2 0x24D0 JUMP JUMPDEST PUSH1 0x40 MLOAD PUSH2 0x424 SWAP2 SWAP1 PUSH2 0x3690 JUMP JUMPDEST PUSH1 0x40 MLOAD DUP1 SWAP2 SUB SWAP1 RETURN JUMPDEST PUSH2 0x435 PUSH2 0x2666 JUMP JUMPDEST PUSH1 0x40 MLOAD PUSH2 0x442 SWAP2 SWAP1 PUSH2 0x3690 JUMP JUMPDEST PUSH1 0x40 MLOAD DUP1 SWAP2 SUB SWAP1 RETURN JUMPDEST PUSH2 0x465 PUSH1 0x4 DUP1 CALLDATASIZE SUB DUP2 ADD SWAP1 PUSH2 0x460 SWAP2 SWAP1 PUSH2 0x4185 JUMP JUMPDEST PUSH2 0x2748 JUMP JUMPDEST PUSH1 0x40 MLOAD PUSH2 0x472 SWAP2 SWAP1 PUSH2 0x3BD3 JUMP JUMPDEST PUSH1 0x40 MLOAD DUP1 SWAP2 SUB SWAP1 RETURN JUMPDEST PUSH2 0x495 PUSH1 0x4 DUP1 CALLDATASIZE SUB DUP2 ADD SWAP1 PUSH2 0x490 SWAP2 SWAP1 PUSH2 0x3D35 JUMP JUMPDEST PUSH2 0x289A JUMP JUMPDEST PUSH1 0x40 MLOAD PUSH2 0x4A2 SWAP2 SWAP1 PUSH2 0x4137 JUMP JUMPDEST PUSH1 0x40 MLOAD DUP1 SWAP2 SUB SWAP1 RETURN JUMPDEST PUSH2 0x4C5 PUSH1 0x4 DUP1 CALLDATASIZE SUB DUP2 ADD SWAP1 PUSH2 0x4C0 SWAP2 SWAP1 PUSH2 0x371A JUMP JUMPDEST PUSH2 0x2C55 JUMP JUMPDEST PUSH1 0x40 MLOAD PUSH2 0x4D2 SWAP2 SWAP1 PUSH2 0x42E7 JUMP JUMPDEST PUSH1 0x40 MLOAD DUP1 SWAP2 SUB SWAP1 RETURN JUMPDEST PUSH2 0x4F5 PUSH1 0x4 DUP1 CALLDATASIZE SUB DUP2 ADD SWAP1 PUSH2 0x4F0 SWAP2 SWAP1 PUSH2 0x4185 JUMP JUMPDEST PUSH2 0x2D67 JUMP JUMPDEST STOP JUMPDEST PUSH1 0x0 DUP10 PUSH2 0x502 PUSH2 0x2666 JUMP JUMPDEST PUSH2 0x541 JUMPI PUSH1 0x40 MLOAD PUSH32 0x8C379A000000000000000000000000000000000000000000000000000000000 DUP2 MSTORE PUSH1 0x4 ADD PUSH2 0x538 SWAP1 PUSH2 0x438C JUMP JUMPDEST PUSH1 0x40 MLOAD DUP1 SWAP2 SUB SWAP1 REVERT JUMPDEST PUSH2 0x54A DUP2 PUSH2 0x2DEA JUMP JUMPDEST PUSH2 0x589 JUMPI PUSH1 0x40 MLOAD PUSH32 0x8C379A000000000000000000000000000000000000000000000000000000000 DUP2 MSTORE PUSH1 0x4 ADD PUSH2 0x580 SWAP1 PUSH2 0x441E JUMP JUMPDEST PUSH1 0x40 MLOAD DUP1 SWAP2 SUB SWAP1 REVERT JUMPDEST PUSH2 0x591 PUSH2 0x2ECB JUMP JUMPDEST PUSH20 0xFFFFFFFFFFFFFFFFFFFFFFFFFFFFFFFFFFFFFFFF AND PUSH4 0x11A89A5F DUP13 PUSH32 0x8E1604A838D0F1A9B2CDA14A099E4CEB08E966CC6E05E8296F67B02D61A79F09 PUSH1 0x0 SHL DUP14 PUSH1 0x40 MLOAD DUP5 PUSH4 0xFFFFFFFF AND PUSH1 0xE0 SHL DUP2 MSTORE PUSH1 0x4 ADD PUSH2 0x5F0 SWAP4 SWAP3 SWAP2 SWAP1 PUSH2 0x4457 JUMP JUMPDEST PUSH1 0x20 PUSH1 0x40 MLOAD DUP1 DUP4 SUB DUP2 PUSH1 0x0 DUP8 GAS CALL ISZERO DUP1 ISZERO PUSH2 0x60F JUMPI RETURNDATASIZE PUSH1 0x0 DUP1 RETURNDATACOPY RETURNDATASIZE PUSH1 0x0 REVERT JUMPDEST POP POP POP POP PUSH1 0x40 MLOAD RETURNDATASIZE PUSH1 0x1F NOT PUSH1 0x1F DUP3 ADD AND DUP3 ADD DUP1 PUSH1 0x40 MSTORE POP DUP2 ADD SWAP1 PUSH2 0x633 SWAP2 SWAP1 PUSH2 0x44BA JUMP JUMPDEST POP PUSH2 0x63C PUSH2 0x2ECB JUMP JUMPDEST PUSH20 0xFFFFFFFFFFFFFFFFFFFFFFFFFFFFFFFFFFFFFFFF AND PUSH4 0x413896E4 DUP13 PUSH32 0x8E1604A838D0F1A9B2CDA14A099E4CEB08E966CC6E05E8296F67B02D61A79F09 PUSH1 0x0 SHL DUP13 PUSH1 0x40 MLOAD DUP5 PUSH4 0xFFFFFFFF AND PUSH1 0xE0 SHL DUP2 MSTORE PUSH1 0x4 ADD PUSH2 0x69B SWAP4 SWAP3 SWAP2 SWAP1 PUSH2 0x4520 JUMP JUMPDEST PUSH1 0x20 PUSH1 0x40 MLOAD DUP1 DUP4 SUB DUP2 PUSH1 0x0 DUP8 GAS CALL ISZERO DUP1 ISZERO PUSH2 0x6BA JUMPI RETURNDATASIZE PUSH1 0x0 DUP1 RETURNDATACOPY RETURNDATASIZE PUSH1 0x0 REVERT JUMPDEST POP POP POP POP PUSH1 0x40 MLOAD RETURNDATASIZE PUSH1 0x1F NOT PUSH1 0x1F DUP3 ADD AND DUP3 ADD DUP1 PUSH1 0x40 MSTORE POP DUP2 ADD SWAP1 PUSH2 0x6DE SWAP2 SWAP1 PUSH2 0x44BA JUMP JUMPDEST POP PUSH2 0x6E7 PUSH2 0x2ECB JUMP JUMPDEST PUSH20 0xFFFFFFFFFFFFFFFFFFFFFFFFFFFFFFFFFFFFFFFF AND PUSH4 0xD49CB146 DUP13 PUSH32 0x8E1604A838D0F1A9B2CDA14A099E4CEB08E966CC6E05E8296F67B02D61A79F09 PUSH1 0x0 SHL DUP12 PUSH1 0x40 MLOAD DUP5 PUSH4 0xFFFFFFFF AND PUSH1 0xE0 SHL DUP2 MSTORE PUSH1 0x4 ADD PUSH2 0x746 SWAP4 SWAP3 SWAP2 SWAP1 PUSH2 0x4520 JUMP JUMPDEST PUSH1 0x20 PUSH1 0x40 MLOAD DUP1 DUP4 SUB DUP2 PUSH1 0x0 DUP8 GAS CALL ISZERO DUP1 ISZERO PUSH2 0x765 JUMPI RETURNDATASIZE PUSH1 0x0 DUP1 RETURNDATACOPY RETURNDATASIZE PUSH1 0x0 REVERT JUMPDEST POP POP POP POP PUSH1 0x40 MLOAD RETURNDATASIZE PUSH1 0x1F NOT PUSH1 0x1F DUP3 ADD AND DUP3 ADD DUP1 PUSH1 0x40 MSTORE POP DUP2 ADD SWAP1 PUSH2 0x789 SWAP2 SWAP1 PUSH2 0x44BA JUMP JUMPDEST POP PUSH2 0x792 PUSH2 0x2ECB JUMP JUMPDEST PUSH20 0xFFFFFFFFFFFFFFFFFFFFFFFFFFFFFFFFFFFFFFFF AND PUSH4 0xE3F34371 DUP13 PUSH32 0x8E1604A838D0F1A9B2CDA14A099E4CEB08E966CC6E05E8296F67B02D61A79F09 PUSH1 0x0 SHL DUP11 PUSH1 0x40 MLOAD DUP5 PUSH4 0xFFFFFFFF AND PUSH1 0xE0 SHL DUP2 MSTORE PUSH1 0x4 ADD PUSH2 0x7F1 SWAP4 SWAP3 SWAP2 SWAP1 PUSH2 0x4520 JUMP JUMPDEST PUSH1 0x20 PUSH1 0x40 MLOAD DUP1 DUP4 SUB DUP2 PUSH1 0x0 DUP8 GAS CALL ISZERO DUP1 ISZERO PUSH2 0x810 JUMPI RETURNDATASIZE PUSH1 0x0 DUP1 RETURNDATACOPY RETURNDATASIZE PUSH1 0x0 REVERT JUMPDEST POP POP POP POP PUSH1 0x40 MLOAD RETURNDATASIZE PUSH1 0x1F NOT PUSH1 0x1F DUP3 ADD AND DUP3 ADD DUP1 PUSH1 0x40 MSTORE POP DUP2 ADD SWAP1 PUSH2 0x834 SWAP2 SWAP1 PUSH2 0x44BA JUMP JUMPDEST POP PUSH2 0x83D PUSH2 0x2ECB JUMP JUMPDEST PUSH20 0xFFFFFFFFFFFFFFFFFFFFFFFFFFFFFFFFFFFFFFFF AND PUSH4 0x29CD6311 DUP13 PUSH32 0x8E1604A838D0F1A9B2CDA14A099E4CEB08E966CC6E05E8296F67B02D61A79F09 PUSH1 0x0 SHL DUP10 PUSH1 0x40 MLOAD DUP5 PUSH4 0xFFFFFFFF AND PUSH1 0xE0 SHL DUP2 MSTORE PUSH1 0x4 ADD PUSH2 0x89C SWAP4 SWAP3 SWAP2 SWAP1 PUSH2 0x4520 JUMP JUMPDEST PUSH1 0x20 PUSH1 0x40 MLOAD DUP1 DUP4 SUB DUP2 PUSH1 0x0 DUP8 GAS CALL ISZERO DUP1 ISZERO PUSH2 0x8BB JUMPI RETURNDATASIZE PUSH1 0x0 DUP1 RETURNDATACOPY RETURNDATASIZE PUSH1 0x0 REVERT JUMPDEST POP POP POP POP PUSH1 0x40 MLOAD RETURNDATASIZE PUSH1 0x1F NOT PUSH1 0x1F DUP3 ADD AND DUP3 ADD DUP1 PUSH1 0x40 MSTORE POP DUP2 ADD SWAP1 PUSH2 0x8DF SWAP2 SWAP1 PUSH2 0x44BA JUMP JUMPDEST POP PUSH2 0x8E8 PUSH2 0x2ECB JUMP JUMPDEST PUSH20 0xFFFFFFFFFFFFFFFFFFFFFFFFFFFFFFFFFFFFFFFF AND PUSH4 0xD2AF71A6 DUP13 PUSH32 0x8E1604A838D0F1A9B2CDA14A099E4CEB08E966CC6E05E8296F67B02D61A79F09 PUSH1 0x0 SHL DUP9 PUSH1 0x40 MLOAD DUP5 PUSH4 0xFFFFFFFF AND PUSH1 0xE0 SHL DUP2 MSTORE PUSH1 0x4 ADD PUSH2 0x947 SWAP4 SWAP3 SWAP2 SWAP1 PUSH2 0x4520 JUMP JUMPDEST PUSH1 0x20 PUSH1 0x40 MLOAD DUP1 DUP4 SUB DUP2 PUSH1 0x0 DUP8 GAS CALL ISZERO DUP1 ISZERO PUSH2 0x966 JUMPI RETURNDATASIZE PUSH1 0x0 DUP1 RETURNDATACOPY RETURNDATASIZE PUSH1 0x0 REVERT JUMPDEST POP POP POP POP PUSH1 0x40 MLOAD RETURNDATASIZE PUSH1 0x1F NOT PUSH1 0x1F DUP3 ADD AND DUP3 ADD DUP1 PUSH1 0x40 MSTORE POP DUP2 ADD SWAP1 PUSH2 0x98A SWAP2 SWAP1 PUSH2 0x44BA JUMP JUMPDEST POP PUSH2 0x993 PUSH2 0x2ECB JUMP JUMPDEST PUSH20 0xFFFFFFFFFFFFFFFFFFFFFFFFFFFFFFFFFFFFFFFF AND PUSH4 0xD45C8ABF DUP13 PUSH32 0x8E1604A838D0F1A9B2CDA14A099E4CEB08E966CC6E05E8296F67B02D61A79F09 PUSH1 0x0 SHL DUP8 PUSH1 0x40 MLOAD DUP5 PUSH4 0xFFFFFFFF AND PUSH1 0xE0 SHL DUP2 MSTORE PUSH1 0x4 ADD PUSH2 0x9F2 SWAP4 SWAP3 SWAP2 SWAP1 PUSH2 0x4520 JUMP JUMPDEST PUSH1 0x20 PUSH1 0x40 MLOAD DUP1 DUP4 SUB DUP2 PUSH1 0x0 DUP8 GAS CALL ISZERO DUP1 ISZERO PUSH2 0xA11 JUMPI RETURNDATASIZE PUSH1 0x0 DUP1 RETURNDATACOPY RETURNDATASIZE PUSH1 0x0 REVERT JUMPDEST POP POP POP POP PUSH1 0x40 MLOAD RETURNDATASIZE PUSH1 0x1F NOT PUSH1 0x1F DUP3 ADD AND DUP3 ADD DUP1 PUSH1 0x40 MSTORE POP DUP2 ADD SWAP1 PUSH2 0xA35 SWAP2 SWAP1 PUSH2 0x44BA JUMP JUMPDEST POP PUSH2 0xA3E PUSH2 0x2ECB JUMP JUMPDEST PUSH20 0xFFFFFFFFFFFFFFFFFFFFFFFFFFFFFFFFFFFFFFFF AND PUSH4 0x800F2234 DUP13 PUSH32 0x8E1604A838D0F1A9B2CDA14A099E4CEB08E966CC6E05E8296F67B02D61A79F09 PUSH1 0x0 SHL DUP7 PUSH1 0x40 MLOAD DUP5 PUSH4 0xFFFFFFFF AND PUSH1 0xE0 SHL DUP2 MSTORE PUSH1 0x4 ADD PUSH2 0xA9D SWAP4 SWAP3 SWAP2 SWAP1 PUSH2 0x4520 JUMP JUMPDEST PUSH1 0x20 PUSH1 0x40 MLOAD DUP1 DUP4 SUB DUP2 PUSH1 0x0 DUP8 GAS CALL ISZERO DUP1 ISZERO PUSH2 0xABC JUMPI RETURNDATASIZE PUSH1 0x0 DUP1 RETURNDATACOPY RETURNDATASIZE PUSH1 0x0 REVERT JUMPDEST POP POP POP POP PUSH1 0x40 MLOAD RETURNDATASIZE PUSH1 0x1F NOT PUSH1 0x1F DUP3 ADD AND DUP3 ADD DUP1 PUSH1 0x40 MSTORE POP DUP2 ADD SWAP1 PUSH2 0xAE0 SWAP2 SWAP1 PUSH2 0x44BA JUMP JUMPDEST POP PUSH1 0x1 SWAP2 POP POP SWAP10 SWAP9 POP POP POP POP POP POP POP POP POP JUMP JUMPDEST PUSH1 0x0 DUP4 PUSH2 0xAFE PUSH2 0x2666 JUMP JUMPDEST PUSH2 0xB3D JUMPI PUSH1 0x40 MLOAD PUSH32 0x8C379A000000000000000000000000000000000000000000000000000000000 DUP2 MSTORE PUSH1 0x4 ADD PUSH2 0xB34 SWAP1 PUSH2 0x438C JUMP JUMPDEST PUSH1 0x40 MLOAD DUP1 SWAP2 SUB SWAP1 REVERT JUMPDEST PUSH2 0xB46 DUP2 PUSH2 0x2DEA JUMP JUMPDEST PUSH2 0xB85 JUMPI PUSH1 0x40 MLOAD PUSH32 0x8C379A000000000000000000000000000000000000000000000000000000000 DUP2 MSTORE PUSH1 0x4 ADD PUSH2 0xB7C SWAP1 PUSH2 0x441E JUMP JUMPDEST PUSH1 0x40 MLOAD DUP1 SWAP2 SUB SWAP1 REVERT JUMPDEST DUP5 DUP5 PUSH2 0xB91 DUP3 DUP3 PUSH2 0x2050 JUMP JUMPDEST ISZERO PUSH2 0xBD1 JUMPI PUSH1 0x40 MLOAD PUSH32 0x8C379A000000000000000000000000000000000000000000000000000000000 DUP2 MSTORE PUSH1 0x4 ADD PUSH2 0xBC8 SWAP1 PUSH2 0x45D0 JUMP JUMPDEST PUSH1 0x40 MLOAD DUP1 SWAP2 SUB SWAP1 REVERT JUMPDEST PUSH1 0x0 PUSH1 0x40 MLOAD DUP1 PUSH1 0x80 ADD PUSH1 0x40 MSTORE DUP1 DUP10 DUP2 MSTORE PUSH1 0x20 ADD PUSH1 0x0 DUP2 MSTORE PUSH1 0x20 ADD DUP9 DUP2 MSTORE PUSH1 0x20 ADD DUP8 DUP2 MSTORE POP SWAP1 POP PUSH2 0xBFF PUSH2 0x2EF5 JUMP JUMPDEST PUSH20 0xFFFFFFFFFFFFFFFFFFFFFFFFFFFFFFFFFFFFFFFF AND PUSH4 0x2A9D3976 DUP3 PUSH32 0x8E1604A838D0F1A9B2CDA14A099E4CEB08E966CC6E05E8296F67B02D61A79F09 PUSH1 0x0 SHL PUSH1 0x40 MLOAD DUP4 PUSH4 0xFFFFFFFF AND PUSH1 0xE0 SHL DUP2 MSTORE PUSH1 0x4 ADD PUSH2 0xC5C SWAP3 SWAP2 SWAP1 PUSH2 0x4653 JUMP JUMPDEST PUSH1 0x20 PUSH1 0x40 MLOAD DUP1 DUP4 SUB DUP2 PUSH1 0x0 DUP8 GAS CALL ISZERO DUP1 ISZERO PUSH2 0xC7B JUMPI RETURNDATASIZE PUSH1 0x0 DUP1 RETURNDATACOPY RETURNDATASIZE PUSH1 0x0 REVERT JUMPDEST POP POP POP POP PUSH1 0x40 MLOAD RETURNDATASIZE PUSH1 0x1F NOT PUSH1 0x1F DUP3 ADD AND DUP3 ADD DUP1 PUSH1 0x40 MSTORE POP DUP2 ADD SWAP1 PUSH2 0xC9F SWAP2 SWAP1 PUSH2 0x44BA JUMP JUMPDEST POP PUSH1 0x1 SWAP5 POP POP POP POP POP SWAP4 SWAP3 POP POP POP JUMP JUMPDEST PUSH1 0x60 PUSH1 0x0 DUP1 PUSH1 0x1 SWAP1 POP JUMPDEST PUSH2 0xCC1 PUSH2 0x2F1F JUMP JUMPDEST PUSH20 0xFFFFFFFFFFFFFFFFFFFFFFFFFFFFFFFFFFFFFFFF AND PUSH4 0xFD82E9DD PUSH32 0x8E1604A838D0F1A9B2CDA14A099E4CEB08E966CC6E05E8296F67B02D61A79F09 PUSH1 0x0 SHL PUSH1 0x40 MLOAD DUP3 PUSH4 0xFFFFFFFF AND PUSH1 0xE0 SHL DUP2 MSTORE PUSH1 0x4 ADD PUSH2 0xD1C SWAP2 SWAP1 PUSH2 0x4683 JUMP JUMPDEST PUSH1 0x20 PUSH1 0x40 MLOAD DUP1 DUP4 SUB DUP2 DUP7 GAS STATICCALL ISZERO DUP1 ISZERO PUSH2 0xD39 JUMPI RETURNDATASIZE PUSH1 0x0 DUP1 RETURNDATACOPY RETURNDATASIZE PUSH1 0x0 REVERT JUMPDEST POP POP POP POP PUSH1 0x40 MLOAD RETURNDATASIZE PUSH1 0x1F NOT PUSH1 0x1F DUP3 ADD AND DUP3 ADD DUP1 PUSH1 0x40 MSTORE POP DUP2 ADD SWAP1 PUSH2 0xD5D SWAP2 SWAP1 PUSH2 0x46B3 JUMP JUMPDEST DUP2 GT PUSH2 0xE3B JUMPI PUSH1 0x0 PUSH2 0xD6D PUSH2 0x2F1F JUMP JUMPDEST PUSH20 0xFFFFFFFFFFFFFFFFFFFFFFFFFFFFFFFFFFFFFFFF AND PUSH4 0xC78A6741 DUP4 PUSH32 0x8E1604A838D0F1A9B2CDA14A099E4CEB08E966CC6E05E8296F67B02D61A79F09 PUSH1 0x0 SHL PUSH1 0x40 MLOAD DUP4 PUSH4 0xFFFFFFFF AND PUSH1 0xE0 SHL DUP2 MSTORE PUSH1 0x4 ADD PUSH2 0xDCA SWAP3 SWAP2 SWAP1 PUSH2 0x46E0 JUMP JUMPDEST PUSH1 0xC0 PUSH1 0x40 MLOAD DUP1 DUP4 SUB DUP2 DUP7 GAS STATICCALL ISZERO DUP1 ISZERO PUSH2 0xDE7 JUMPI RETURNDATASIZE PUSH1 0x0 DUP1 RETURNDATACOPY RETURNDATASIZE PUSH1 0x0 REVERT JUMPDEST POP POP POP POP PUSH1 0x40 MLOAD RETURNDATASIZE PUSH1 0x1F NOT PUSH1 0x1F DUP3 ADD AND DUP3 ADD DUP1 PUSH1 0x40 MSTORE POP DUP2 ADD SWAP1 PUSH2 0xE0B SWAP2 SWAP1 PUSH2 0x47B3 JUMP JUMPDEST SWAP1 POP DUP5 DUP2 PUSH1 0x20 ADD MLOAD SUB PUSH2 0xE27 JUMPI DUP3 DUP1 PUSH2 0xE23 SWAP1 PUSH2 0x480F JUMP JUMPDEST SWAP4 POP POP JUMPDEST POP DUP1 DUP1 PUSH2 0xE33 SWAP1 PUSH2 0x480F JUMP JUMPDEST SWAP2 POP POP PUSH2 0xCB9 JUMP JUMPDEST POP PUSH1 0x0 DUP2 PUSH8 0xFFFFFFFFFFFFFFFF DUP2 GT ISZERO PUSH2 0xE58 JUMPI PUSH2 0xE57 PUSH2 0x33BC JUMP JUMPDEST JUMPDEST PUSH1 0x40 MLOAD SWAP1 DUP1 DUP3 MSTORE DUP1 PUSH1 0x20 MUL PUSH1 0x20 ADD DUP3 ADD PUSH1 0x40 MSTORE DUP1 ISZERO PUSH2 0xE91 JUMPI DUP2 PUSH1 0x20 ADD JUMPDEST PUSH2 0xE7E PUSH2 0x324C JUMP JUMPDEST DUP2 MSTORE PUSH1 0x20 ADD SWAP1 PUSH1 0x1 SWAP1 SUB SWAP1 DUP2 PUSH2 0xE76 JUMPI SWAP1 POP JUMPDEST POP SWAP1 POP PUSH1 0x0 DUP1 PUSH1 0x1 SWAP1 POP JUMPDEST PUSH2 0xEA4 PUSH2 0x2F1F JUMP JUMPDEST PUSH20 0xFFFFFFFFFFFFFFFFFFFFFFFFFFFFFFFFFFFFFFFF AND PUSH4 0xFD82E9DD PUSH32 0x8E1604A838D0F1A9B2CDA14A099E4CEB08E966CC6E05E8296F67B02D61A79F09 PUSH1 0x0 SHL PUSH1 0x40 MLOAD DUP3 PUSH4 0xFFFFFFFF AND PUSH1 0xE0 SHL DUP2 MSTORE PUSH1 0x4 ADD PUSH2 0xEFF SWAP2 SWAP1 PUSH2 0x4683 JUMP JUMPDEST PUSH1 0x20 PUSH1 0x40 MLOAD DUP1 DUP4 SUB DUP2 DUP7 GAS STATICCALL ISZERO DUP1 ISZERO PUSH2 0xF1C JUMPI RETURNDATASIZE PUSH1 0x0 DUP1 RETURNDATACOPY RETURNDATASIZE PUSH1 0x0 REVERT JUMPDEST POP POP POP POP PUSH1 0x40 MLOAD RETURNDATASIZE PUSH1 0x1F NOT PUSH1 0x1F DUP3 ADD AND DUP3 ADD DUP1 PUSH1 0x40 MSTORE POP DUP2 ADD SWAP1 PUSH2 0xF40 SWAP2 SWAP1 PUSH2 0x46B3 JUMP JUMPDEST DUP2 GT ISZERO DUP1 ISZERO PUSH2 0xF4E JUMPI POP DUP4 DUP3 LT JUMPDEST ISZERO PUSH2 0x104A JUMPI PUSH1 0x0 PUSH2 0xF5D PUSH2 0x2F1F JUMP JUMPDEST PUSH20 0xFFFFFFFFFFFFFFFFFFFFFFFFFFFFFFFFFFFFFFFF AND PUSH4 0xC78A6741 DUP4 PUSH32 0x8E1604A838D0F1A9B2CDA14A099E4CEB08E966CC6E05E8296F67B02D61A79F09 PUSH1 0x0 SHL PUSH1 0x40 MLOAD DUP4 PUSH4 0xFFFFFFFF AND PUSH1 0xE0 SHL DUP2 MSTORE PUSH1 0x4 ADD PUSH2 0xFBA SWAP3 SWAP2 SWAP1 PUSH2 0x46E0 JUMP JUMPDEST PUSH1 0xC0 PUSH1 0x40 MLOAD DUP1 DUP4 SUB DUP2 DUP7 GAS STATICCALL ISZERO DUP1 ISZERO PUSH2 0xFD7 JUMPI RETURNDATASIZE PUSH1 0x0 DUP1 RETURNDATACOPY RETURNDATASIZE PUSH1 0x0 REVERT JUMPDEST POP POP POP POP PUSH1 0x40 MLOAD RETURNDATASIZE PUSH1 0x1F NOT PUSH1 0x1F DUP3 ADD AND DUP3 ADD DUP1 PUSH1 0x40 MSTORE POP DUP2 ADD SWAP1 PUSH2 0xFFB SWAP2 SWAP1 PUSH2 0x47B3 JUMP JUMPDEST SWAP1 POP DUP7 DUP2 PUSH1 0x20 ADD MLOAD SUB PUSH2 0x1036 JUMPI DUP1 DUP5 DUP5 DUP2 MLOAD DUP2 LT PUSH2 0x101C JUMPI PUSH2 0x101B PUSH2 0x4857 JUMP JUMPDEST JUMPDEST PUSH1 0x20 MUL PUSH1 0x20 ADD ADD DUP2 SWAP1 MSTORE POP DUP3 DUP1 PUSH2 0x1032 SWAP1 PUSH2 0x480F JUMP JUMPDEST SWAP4 POP POP JUMPDEST POP DUP1 DUP1 PUSH2 0x1042 SWAP1 PUSH2 0x480F JUMP JUMPDEST SWAP2 POP POP PUSH2 0xE9C JUMP JUMPDEST POP DUP2 SWAP4 POP POP POP POP SWAP2 SWAP1 POP JUMP JUMPDEST PUSH1 0x60 PUSH1 0x0 PUSH2 0x1062 PUSH2 0x2ECB JUMP JUMPDEST PUSH20 0xFFFFFFFFFFFFFFFFFFFFFFFFFFFFFFFFFFFFFFFF AND PUSH4 0xFD82E9DD PUSH32 0x8E1604A838D0F1A9B2CDA14A099E4CEB08E966CC6E05E8296F67B02D61A79F09 PUSH1 0x0 SHL PUSH1 0x40 MLOAD DUP3 PUSH4 0xFFFFFFFF AND PUSH1 0xE0 SHL DUP2 MSTORE PUSH1 0x4 ADD PUSH2 0x10BD SWAP2 SWAP1 PUSH2 0x4683 JUMP JUMPDEST PUSH1 0x20 PUSH1 0x40 MLOAD DUP1 DUP4 SUB DUP2 DUP7 GAS STATICCALL ISZERO DUP1 ISZERO PUSH2 0x10DA JUMPI RETURNDATASIZE PUSH1 0x0 DUP1 RETURNDATACOPY RETURNDATASIZE PUSH1 0x0 REVERT JUMPDEST POP POP POP POP PUSH1 0x40 MLOAD RETURNDATASIZE PUSH1 0x1F NOT PUSH1 0x1F DUP3 ADD AND DUP3 ADD DUP1 PUSH1 0x40 MSTORE POP DUP2 ADD SWAP1 PUSH2 0x10FE SWAP2 SWAP1 PUSH2 0x46B3 JUMP JUMPDEST SWAP1 POP PUSH1 0x0 DUP2 PUSH8 0xFFFFFFFFFFFFFFFF DUP2 GT ISZERO PUSH2 0x111C JUMPI PUSH2 0x111B PUSH2 0x33BC JUMP JUMPDEST JUMPDEST PUSH1 0x40 MLOAD SWAP1 DUP1 DUP3 MSTORE DUP1 PUSH1 0x20 MUL PUSH1 0x20 ADD DUP3 ADD PUSH1 0x40 MSTORE DUP1 ISZERO PUSH2 0x1155 JUMPI DUP2 PUSH1 0x20 ADD JUMPDEST PUSH2 0x1142 PUSH2 0x3282 JUMP JUMPDEST DUP2 MSTORE PUSH1 0x20 ADD SWAP1 PUSH1 0x1 SWAP1 SUB SWAP1 DUP2 PUSH2 0x113A JUMPI SWAP1 POP JUMPDEST POP SWAP1 POP PUSH1 0x0 JUMPDEST DUP3 DUP2 LT ISZERO PUSH2 0x12A3 JUMPI PUSH1 0x0 PUSH2 0x116D PUSH2 0x2ECB JUMP JUMPDEST PUSH20 0xFFFFFFFFFFFFFFFFFFFFFFFFFFFFFFFFFFFFFFFF AND PUSH4 0xC78A6741 PUSH1 0x1 DUP5 PUSH2 0x1195 SWAP2 SWAP1 PUSH2 0x4886 JUMP JUMPDEST PUSH32 0x8E1604A838D0F1A9B2CDA14A099E4CEB08E966CC6E05E8296F67B02D61A79F09 PUSH1 0x0 SHL PUSH1 0x40 MLOAD DUP4 PUSH4 0xFFFFFFFF AND PUSH1 0xE0 SHL DUP2 MSTORE PUSH1 0x4 ADD PUSH2 0x11D6 SWAP3 SWAP2 SWAP1 PUSH2 0x46E0 JUMP JUMPDEST PUSH1 0x0 PUSH1 0x40 MLOAD DUP1 DUP4 SUB DUP2 DUP7 GAS STATICCALL ISZERO DUP1 ISZERO PUSH2 0x11F3 JUMPI RETURNDATASIZE PUSH1 0x0 DUP1 RETURNDATACOPY RETURNDATASIZE PUSH1 0x0 REVERT JUMPDEST POP POP POP POP PUSH1 0x40 MLOAD RETURNDATASIZE PUSH1 0x0 DUP3 RETURNDATACOPY RETURNDATASIZE PUSH1 0x1F NOT PUSH1 0x1F DUP3 ADD AND DUP3 ADD DUP1 PUSH1 0x40 MSTORE POP DUP2 ADD SWAP1 PUSH2 0x121C SWAP2 SWAP1 PUSH2 0x4B41 JUMP JUMPDEST SWAP1 POP PUSH1 0x0 DUP2 PUSH1 0x60 ADD SWAP1 PUSH20 0xFFFFFFFFFFFFFFFFFFFFFFFFFFFFFFFFFFFFFFFF AND SWAP1 DUP2 PUSH20 0xFFFFFFFFFFFFFFFFFFFFFFFFFFFFFFFFFFFFFFFF AND DUP2 MSTORE POP POP PUSH1 0x40 MLOAD DUP1 PUSH1 0x20 ADD PUSH1 0x40 MSTORE DUP1 PUSH1 0x0 DUP2 MSTORE POP DUP2 PUSH2 0x160 ADD DUP2 SWAP1 MSTORE POP DUP1 DUP4 DUP4 DUP2 MLOAD DUP2 LT PUSH2 0x1284 JUMPI PUSH2 0x1283 PUSH2 0x4857 JUMP JUMPDEST JUMPDEST PUSH1 0x20 MUL PUSH1 0x20 ADD ADD DUP2 SWAP1 MSTORE POP POP DUP1 DUP1 PUSH2 0x129B SWAP1 PUSH2 0x480F JUMP JUMPDEST SWAP2 POP POP PUSH2 0x115B JUMP JUMPDEST POP DUP1 SWAP3 POP POP POP SWAP1 JUMP JUMPDEST PUSH1 0x0 PUSH2 0x12B6 PUSH2 0x2666 JUMP JUMPDEST PUSH2 0x12F5 JUMPI PUSH1 0x40 MLOAD PUSH32 0x8C379A000000000000000000000000000000000000000000000000000000000 DUP2 MSTORE PUSH1 0x4 ADD PUSH2 0x12EC SWAP1 PUSH2 0x4BFC JUMP JUMPDEST PUSH1 0x40 MLOAD DUP1 SWAP2 SUB SWAP1 REVERT JUMPDEST PUSH1 0x0 CALLER SWAP1 POP PUSH1 0x0 PUSH2 0x1304 PUSH2 0x2ECB JUMP JUMPDEST PUSH20 0xFFFFFFFFFFFFFFFFFFFFFFFFFFFFFFFFFFFFFFFF AND PUSH4 0x236DF93C DUP4 PUSH32 0x8E1604A838D0F1A9B2CDA14A099E4CEB08E966CC6E05E8296F67B02D61A79F09 PUSH1 0x0 SHL PUSH1 0x40 MLOAD DUP4 PUSH4 0xFFFFFFFF AND PUSH1 0xE0 SHL DUP2 MSTORE PUSH1 0x4 ADD PUSH2 0x1361 SWAP3 SWAP2 SWAP1 PUSH2 0x4C1C JUMP JUMPDEST PUSH1 0x0 PUSH1 0x40 MLOAD DUP1 DUP4 SUB DUP2 DUP7 GAS STATICCALL ISZERO DUP1 ISZERO PUSH2 0x137E JUMPI RETURNDATASIZE PUSH1 0x0 DUP1 RETURNDATACOPY RETURNDATASIZE PUSH1 0x0 REVERT JUMPDEST POP POP POP POP PUSH1 0x40 MLOAD RETURNDATASIZE PUSH1 0x0 DUP3 RETURNDATACOPY RETURNDATASIZE PUSH1 0x1F NOT PUSH1 0x1F DUP3 ADD AND DUP3 ADD DUP1 PUSH1 0x40 MSTORE POP DUP2 ADD SWAP1 PUSH2 0x13A7 SWAP2 SWAP1 PUSH2 0x4B41 JUMP JUMPDEST SWAP1 POP PUSH2 0x13C1 DUP5 DUP3 PUSH2 0x160 ADD MLOAD PUSH2 0x2F49 SWAP1 SWAP2 SWAP1 PUSH4 0xFFFFFFFF AND JUMP JUMPDEST ISZERO PUSH2 0x13D4 JUMPI DUP1 PUSH1 0x20 ADD MLOAD SWAP3 POP POP POP PUSH2 0x13DB JUMP JUMPDEST PUSH1 0x0 SWAP3 POP POP POP JUMPDEST SWAP2 SWAP1 POP JUMP JUMPDEST PUSH1 0x60 PUSH1 0x0 DUP1 PUSH1 0x1 SWAP1 POP JUMPDEST PUSH2 0x13F2 PUSH2 0x2EF5 JUMP JUMPDEST PUSH20 0xFFFFFFFFFFFFFFFFFFFFFFFFFFFFFFFFFFFFFFFF AND PUSH4 0xFD82E9DD PUSH32 0x8E1604A838D0F1A9B2CDA14A099E4CEB08E966CC6E05E8296F67B02D61A79F09 PUSH1 0x0 SHL PUSH1 0x40 MLOAD DUP3 PUSH4 0xFFFFFFFF AND PUSH1 0xE0 SHL DUP2 MSTORE PUSH1 0x4 ADD PUSH2 0x144D SWAP2 SWAP1 PUSH2 0x4683 JUMP JUMPDEST PUSH1 0x20 PUSH1 0x40 MLOAD DUP1 DUP4 SUB DUP2 DUP7 GAS STATICCALL ISZERO DUP1 ISZERO PUSH2 0x146A JUMPI RETURNDATASIZE PUSH1 0x0 DUP1 RETURNDATACOPY RETURNDATASIZE PUSH1 0x0 REVERT JUMPDEST POP POP POP POP PUSH1 0x40 MLOAD RETURNDATASIZE PUSH1 0x1F NOT PUSH1 0x1F DUP3 ADD AND DUP3 ADD DUP1 PUSH1 0x40 MSTORE POP DUP2 ADD SWAP1 PUSH2 0x148E SWAP2 SWAP1 PUSH2 0x46B3 JUMP JUMPDEST DUP2 GT PUSH2 0x156B JUMPI DUP4 PUSH2 0x149D PUSH2 0x2EF5 JUMP JUMPDEST PUSH20 0xFFFFFFFFFFFFFFFFFFFFFFFFFFFFFFFFFFFFFFFF AND PUSH4 0xC78A6741 DUP4 PUSH32 0x8E1604A838D0F1A9B2CDA14A099E4CEB08E966CC6E05E8296F67B02D61A79F09 PUSH1 0x0 SHL PUSH1 0x40 MLOAD DUP4 PUSH4 0xFFFFFFFF AND PUSH1 0xE0 SHL DUP2 MSTORE PUSH1 0x4 ADD PUSH2 0x14FA SWAP3 SWAP2 SWAP1 PUSH2 0x46E0 JUMP JUMPDEST PUSH1 0x0 PUSH1 0x40 MLOAD DUP1 DUP4 SUB DUP2 DUP7 GAS STATICCALL ISZERO DUP1 ISZERO PUSH2 0x1517 JUMPI RETURNDATASIZE PUSH1 0x0 DUP1 RETURNDATACOPY RETURNDATASIZE PUSH1 0x0 REVERT JUMPDEST POP POP POP POP PUSH1 0x40 MLOAD RETURNDATASIZE PUSH1 0x0 DUP3 RETURNDATACOPY RETURNDATASIZE PUSH1 0x1F NOT PUSH1 0x1F DUP3 ADD AND DUP3 ADD DUP1 PUSH1 0x40 MSTORE POP DUP2 ADD SWAP1 PUSH2 0x1540 SWAP2 SWAP1 PUSH2 0x4CD9 JUMP JUMPDEST PUSH1 0x0 ADD MLOAD SUB PUSH2 0x1558 JUMPI DUP2 DUP1 PUSH2 0x1554 SWAP1 PUSH2 0x480F JUMP JUMPDEST SWAP3 POP POP JUMPDEST DUP1 DUP1 PUSH2 0x1563 SWAP1 PUSH2 0x480F JUMP JUMPDEST SWAP2 POP POP PUSH2 0x13EA JUMP JUMPDEST POP PUSH1 0x0 DUP2 PUSH8 0xFFFFFFFFFFFFFFFF DUP2 GT ISZERO PUSH2 0x1588 JUMPI PUSH2 0x1587 PUSH2 0x33BC JUMP JUMPDEST JUMPDEST PUSH1 0x40 MLOAD SWAP1 DUP1 DUP3 MSTORE DUP1 PUSH1 0x20 MUL PUSH1 0x20 ADD DUP3 ADD PUSH1 0x40 MSTORE DUP1 ISZERO PUSH2 0x15C1 JUMPI DUP2 PUSH1 0x20 ADD JUMPDEST PUSH2 0x15AE PUSH2 0x32F9 JUMP JUMPDEST DUP2 MSTORE PUSH1 0x20 ADD SWAP1 PUSH1 0x1 SWAP1 SUB SWAP1 DUP2 PUSH2 0x15A6 JUMPI SWAP1 POP JUMPDEST POP SWAP1 POP PUSH1 0x0 DUP1 PUSH1 0x1 SWAP1 POP JUMPDEST PUSH2 0x15D4 PUSH2 0x2EF5 JUMP JUMPDEST PUSH20 0xFFFFFFFFFFFFFFFFFFFFFFFFFFFFFFFFFFFFFFFF AND PUSH4 0xFD82E9DD PUSH32 0x8E1604A838D0F1A9B2CDA14A099E4CEB08E966CC6E05E8296F67B02D61A79F09 PUSH1 0x0 SHL PUSH1 0x40 MLOAD DUP3 PUSH4 0xFFFFFFFF AND PUSH1 0xE0 SHL DUP2 MSTORE PUSH1 0x4 ADD PUSH2 0x162F SWAP2 SWAP1 PUSH2 0x4683 JUMP JUMPDEST PUSH1 0x20 PUSH1 0x40 MLOAD DUP1 DUP4 SUB DUP2 DUP7 GAS STATICCALL ISZERO DUP1 ISZERO PUSH2 0x164C JUMPI RETURNDATASIZE PUSH1 0x0 DUP1 RETURNDATACOPY RETURNDATASIZE PUSH1 0x0 REVERT JUMPDEST POP POP POP POP PUSH1 0x40 MLOAD RETURNDATASIZE PUSH1 0x1F NOT PUSH1 0x1F DUP3 ADD AND DUP3 ADD DUP1 PUSH1 0x40 MSTORE POP DUP2 ADD SWAP1 PUSH2 0x1670 SWAP2 SWAP1 PUSH2 0x46B3 JUMP JUMPDEST DUP2 GT ISZERO DUP1 ISZERO PUSH2 0x167E JUMPI POP DUP4 DUP3 LT JUMPDEST ISZERO PUSH2 0x177F JUMPI PUSH1 0x0 PUSH2 0x168D PUSH2 0x2EF5 JUMP JUMPDEST PUSH20 0xFFFFFFFFFFFFFFFFFFFFFFFFFFFFFFFFFFFFFFFF AND PUSH4 0xC78A6741 DUP4 PUSH32 0x8E1604A838D0F1A9B2CDA14A099E4CEB08E966CC6E05E8296F67B02D61A79F09 PUSH1 0x0 SHL PUSH1 0x40 MLOAD DUP4 PUSH4 0xFFFFFFFF AND PUSH1 0xE0 SHL DUP2 MSTORE PUSH1 0x4 ADD PUSH2 0x16EA SWAP3 SWAP2 SWAP1 PUSH2 0x46E0 JUMP JUMPDEST PUSH1 0x0 PUSH1 0x40 MLOAD DUP1 DUP4 SUB DUP2 DUP7 GAS STATICCALL ISZERO DUP1 ISZERO PUSH2 0x1707 JUMPI RETURNDATASIZE PUSH1 0x0 DUP1 RETURNDATACOPY RETURNDATASIZE PUSH1 0x0 REVERT JUMPDEST POP POP POP POP PUSH1 0x40 MLOAD RETURNDATASIZE PUSH1 0x0 DUP3 RETURNDATACOPY RETURNDATASIZE PUSH1 0x1F NOT PUSH1 0x1F DUP3 ADD AND DUP3 ADD DUP1 PUSH1 0x40 MSTORE POP DUP2 ADD SWAP1 PUSH2 0x1730 SWAP2 SWAP1 PUSH2 0x4CD9 JUMP JUMPDEST SWAP1 POP DUP7 DUP2 PUSH1 0x0 ADD MLOAD SUB PUSH2 0x176B JUMPI DUP1 DUP5 DUP5 DUP2 MLOAD DUP2 LT PUSH2 0x1751 JUMPI PUSH2 0x1750 PUSH2 0x4857 JUMP JUMPDEST JUMPDEST PUSH1 0x20 MUL PUSH1 0x20 ADD ADD DUP2 SWAP1 MSTORE POP DUP3 DUP1 PUSH2 0x1767 SWAP1 PUSH2 0x480F JUMP JUMPDEST SWAP4 POP POP JUMPDEST POP DUP1 DUP1 PUSH2 0x1777 SWAP1 PUSH2 0x480F JUMP JUMPDEST SWAP2 POP POP PUSH2 0x15CC JUMP JUMPDEST POP DUP2 SWAP4 POP POP POP POP SWAP2 SWAP1 POP JUMP JUMPDEST PUSH1 0x0 DUP1 PUSH1 0x5 PUSH1 0x0 SWAP1 SLOAD SWAP1 PUSH2 0x100 EXP SWAP1 DIV PUSH20 0xFFFFFFFFFFFFFFFFFFFFFFFFFFFFFFFFFFFFFFFF AND PUSH20 0xFFFFFFFFFFFFFFFFFFFFFFFFFFFFFFFFFFFFFFFF AND PUSH4 0xC78A6741 DUP5 PUSH32 0x8E1604A838D0F1A9B2CDA14A099E4CEB08E966CC6E05E8296F67B02D61A79F09 PUSH1 0x0 SHL PUSH1 0x40 MLOAD DUP4 PUSH4 0xFFFFFFFF AND PUSH1 0xE0 SHL DUP2 MSTORE PUSH1 0x4 ADD PUSH2 0x180E SWAP3 SWAP2 SWAP1 PUSH2 0x46E0 JUMP JUMPDEST PUSH1 0xC0 PUSH1 0x40 MLOAD DUP1 DUP4 SUB DUP2 DUP7 GAS STATICCALL ISZERO DUP1 ISZERO PUSH2 0x182B JUMPI RETURNDATASIZE PUSH1 0x0 DUP1 RETURNDATACOPY RETURNDATASIZE PUSH1 0x0 REVERT JUMPDEST POP POP POP POP PUSH1 0x40 MLOAD RETURNDATASIZE PUSH1 0x1F NOT PUSH1 0x1F DUP3 ADD AND DUP3 ADD DUP1 PUSH1 0x40 MSTORE POP DUP2 ADD SWAP1 PUSH2 0x184F SWAP2 SWAP1 PUSH2 0x47B3 JUMP JUMPDEST PUSH1 0x60 ADD MLOAD SWAP1 POP DUP1 DUP5 SUB PUSH2 0x1866 JUMPI PUSH1 0x1 SWAP2 POP POP PUSH2 0x186C JUMP JUMPDEST PUSH1 0x0 SWAP2 POP POP JUMPDEST SWAP3 SWAP2 POP POP JUMP JUMPDEST PUSH1 0x0 DUP1 PUSH1 0x1 SWAP1 POP JUMPDEST PUSH1 0x5 PUSH1 0x0 SWAP1 SLOAD SWAP1 PUSH2 0x100 EXP SWAP1 DIV PUSH20 0xFFFFFFFFFFFFFFFFFFFFFFFFFFFFFFFFFFFFFFFF AND PUSH20 0xFFFFFFFFFFFFFFFFFFFFFFFFFFFFFFFFFFFFFFFF AND PUSH4 0xFD82E9DD PUSH32 0x8E1604A838D0F1A9B2CDA14A099E4CEB08E966CC6E05E8296F67B02D61A79F09 PUSH1 0x0 SHL PUSH1 0x40 MLOAD DUP3 PUSH4 0xFFFFFFFF AND PUSH1 0xE0 SHL DUP2 MSTORE PUSH1 0x4 ADD PUSH2 0x18F8 SWAP2 SWAP1 PUSH2 0x4683 JUMP JUMPDEST PUSH1 0x20 PUSH1 0x40 MLOAD DUP1 DUP4 SUB DUP2 DUP7 GAS STATICCALL ISZERO DUP1 ISZERO PUSH2 0x1915 JUMPI RETURNDATASIZE PUSH1 0x0 DUP1 RETURNDATACOPY RETURNDATASIZE PUSH1 0x0 REVERT JUMPDEST POP POP POP POP PUSH1 0x40 MLOAD RETURNDATASIZE PUSH1 0x1F NOT PUSH1 0x1F DUP3 ADD AND DUP3 ADD DUP1 PUSH1 0x40 MSTORE POP DUP2 ADD SWAP1 PUSH2 0x1939 SWAP2 SWAP1 PUSH2 0x46B3 JUMP JUMPDEST DUP2 GT PUSH2 0x1A3E JUMPI PUSH1 0x0 PUSH1 0x5 PUSH1 0x0 SWAP1 SLOAD SWAP1 PUSH2 0x100 EXP SWAP1 DIV PUSH20 0xFFFFFFFFFFFFFFFFFFFFFFFFFFFFFFFFFFFFFFFF AND PUSH20 0xFFFFFFFFFFFFFFFFFFFFFFFFFFFFFFFFFFFFFFFF AND PUSH4 0xC78A6741 DUP4 PUSH32 0x8E1604A838D0F1A9B2CDA14A099E4CEB08E966CC6E05E8296F67B02D61A79F09 PUSH1 0x0 SHL PUSH1 0x40 MLOAD DUP4 PUSH4 0xFFFFFFFF AND PUSH1 0xE0 SHL DUP2 MSTORE PUSH1 0x4 ADD PUSH2 0x19C1 SWAP3 SWAP2 SWAP1 PUSH2 0x46E0 JUMP JUMPDEST PUSH1 0xC0 PUSH1 0x40 MLOAD DUP1 DUP4 SUB DUP2 DUP7 GAS STATICCALL ISZERO DUP1 ISZERO PUSH2 0x19DE JUMPI RETURNDATASIZE PUSH1 0x0 DUP1 RETURNDATACOPY RETURNDATASIZE PUSH1 0x0 REVERT JUMPDEST POP POP POP POP PUSH1 0x40 MLOAD RETURNDATASIZE PUSH1 0x1F NOT PUSH1 0x1F DUP3 ADD AND DUP3 ADD DUP1 PUSH1 0x40 MSTORE POP DUP2 ADD SWAP1 PUSH2 0x1A02 SWAP2 SWAP1 PUSH2 0x47B3 JUMP JUMPDEST SWAP1 POP DUP5 DUP2 PUSH1 0x20 ADD MLOAD EQ DUP1 ISZERO PUSH2 0x1A1A JUMPI POP DUP4 DUP2 PUSH1 0x60 ADD MLOAD EQ JUMPDEST ISZERO PUSH2 0x1A2A JUMPI PUSH1 0x1 SWAP3 POP POP POP PUSH2 0x1A44 JUMP JUMPDEST POP DUP1 DUP1 PUSH2 0x1A36 SWAP1 PUSH2 0x480F JUMP JUMPDEST SWAP2 POP POP PUSH2 0x187A JUMP JUMPDEST POP PUSH1 0x0 SWAP1 POP JUMPDEST SWAP3 SWAP2 POP POP JUMP JUMPDEST PUSH1 0x0 DUP1 PUSH1 0x5 PUSH1 0x0 SWAP1 SLOAD SWAP1 PUSH2 0x100 EXP SWAP1 DIV PUSH20 0xFFFFFFFFFFFFFFFFFFFFFFFFFFFFFFFFFFFFFFFF AND PUSH20 0xFFFFFFFFFFFFFFFFFFFFFFFFFFFFFFFFFFFFFFFF AND PUSH4 0xC78A6741 DUP5 PUSH32 0x8E1604A838D0F1A9B2CDA14A099E4CEB08E966CC6E05E8296F67B02D61A79F09 PUSH1 0x0 SHL PUSH1 0x40 MLOAD DUP4 PUSH4 0xFFFFFFFF AND PUSH1 0xE0 SHL DUP2 MSTORE PUSH1 0x4 ADD PUSH2 0x1ACD SWAP3 SWAP2 SWAP1 PUSH2 0x46E0 JUMP JUMPDEST PUSH1 0xC0 PUSH1 0x40 MLOAD DUP1 DUP4 SUB DUP2 DUP7 GAS STATICCALL ISZERO DUP1 ISZERO PUSH2 0x1AEA JUMPI RETURNDATASIZE PUSH1 0x0 DUP1 RETURNDATACOPY RETURNDATASIZE PUSH1 0x0 REVERT JUMPDEST POP POP POP POP PUSH1 0x40 MLOAD RETURNDATASIZE PUSH1 0x1F NOT PUSH1 0x1F DUP3 ADD AND DUP3 ADD DUP1 PUSH1 0x40 MSTORE POP DUP2 ADD SWAP1 PUSH2 0x1B0E SWAP2 SWAP1 PUSH2 0x47B3 JUMP JUMPDEST PUSH1 0x20 ADD MLOAD SWAP1 POP DUP1 DUP5 SUB PUSH2 0x1B25 JUMPI PUSH1 0x1 SWAP2 POP POP PUSH2 0x1B2B JUMP JUMPDEST PUSH1 0x0 SWAP2 POP POP JUMPDEST SWAP3 SWAP2 POP POP JUMP JUMPDEST PUSH1 0x0 DUP3 PUSH2 0x1B3C PUSH2 0x2666 JUMP JUMPDEST PUSH2 0x1B7B JUMPI PUSH1 0x40 MLOAD PUSH32 0x8C379A000000000000000000000000000000000000000000000000000000000 DUP2 MSTORE PUSH1 0x4 ADD PUSH2 0x1B72 SWAP1 PUSH2 0x438C JUMP JUMPDEST PUSH1 0x40 MLOAD DUP1 SWAP2 SUB SWAP1 REVERT JUMPDEST PUSH2 0x1B84 DUP2 PUSH2 0x2DEA JUMP JUMPDEST PUSH2 0x1BC3 JUMPI PUSH1 0x40 MLOAD PUSH32 0x8C379A000000000000000000000000000000000000000000000000000000000 DUP2 MSTORE PUSH1 0x4 ADD PUSH2 0x1BBA SWAP1 PUSH2 0x441E JUMP JUMPDEST PUSH1 0x40 MLOAD DUP1 SWAP2 SUB SWAP1 REVERT JUMPDEST DUP4 DUP4 PUSH2 0x1BCF DUP3 DUP3 PUSH2 0x2FB2 JUMP JUMPDEST PUSH2 0x1C0E JUMPI PUSH1 0x40 MLOAD PUSH32 0x8C379A000000000000000000000000000000000000000000000000000000000 DUP2 MSTORE PUSH1 0x4 ADD PUSH2 0x1C05 SWAP1 PUSH2 0x4D94 JUMP JUMPDEST PUSH1 0x40 MLOAD DUP1 SWAP2 SUB SWAP1 REVERT JUMPDEST PUSH2 0x1C16 PUSH2 0x2EF5 JUMP JUMPDEST PUSH20 0xFFFFFFFFFFFFFFFFFFFFFFFFFFFFFFFFFFFFFFFF AND PUSH4 0xB615C00A DUP7 PUSH32 0x8E1604A838D0F1A9B2CDA14A099E4CEB08E966CC6E05E8296F67B02D61A79F09 PUSH1 0x0 SHL PUSH1 0x40 MLOAD DUP4 PUSH4 0xFFFFFFFF AND PUSH1 0xE0 SHL DUP2 MSTORE PUSH1 0x4 ADD PUSH2 0x1C73 SWAP3 SWAP2 SWAP1 PUSH2 0x46E0 JUMP JUMPDEST PUSH1 0x20 PUSH1 0x40 MLOAD DUP1 DUP4 SUB DUP2 PUSH1 0x0 DUP8 GAS CALL ISZERO DUP1 ISZERO PUSH2 0x1C92 JUMPI RETURNDATASIZE PUSH1 0x0 DUP1 RETURNDATACOPY RETURNDATASIZE PUSH1 0x0 REVERT JUMPDEST POP POP POP POP PUSH1 0x40 MLOAD RETURNDATASIZE PUSH1 0x1F NOT PUSH1 0x1F DUP3 ADD AND DUP3 ADD DUP1 PUSH1 0x40 MSTORE POP DUP2 ADD SWAP1 PUSH2 0x1CB6 SWAP2 SWAP1 PUSH2 0x44BA JUMP JUMPDEST POP PUSH1 0x1 SWAP4 POP POP POP POP SWAP3 SWAP2 POP POP JUMP JUMPDEST PUSH2 0x1CCC PUSH2 0x309E JUMP JUMPDEST ADDRESS PUSH20 0xFFFFFFFFFFFFFFFFFFFFFFFFFFFFFFFFFFFFFFFF AND SELFDESTRUCT JUMPDEST PUSH1 0x0 DUP1 PUSH1 0x0 SWAP1 SLOAD SWAP1 PUSH2 0x100 EXP SWAP1 DIV PUSH20 0xFFFFFFFFFFFFFFFFFFFFFFFFFFFFFFFFFFFFFFFF AND SWAP1 POP SWAP1 JUMP JUMPDEST PUSH1 0x0 DUP4 PUSH2 0x1D19 PUSH2 0x2666 JUMP JUMPDEST PUSH2 0x1D58 JUMPI PUSH1 0x40 MLOAD PUSH32 0x8C379A000000000000000000000000000000000000000000000000000000000 DUP2 MSTORE PUSH1 0x4 ADD PUSH2 0x1D4F SWAP1 PUSH2 0x438C JUMP JUMPDEST PUSH1 0x40 MLOAD DUP1 SWAP2 SUB SWAP1 REVERT JUMPDEST PUSH2 0x1D61 DUP2 PUSH2 0x2DEA JUMP JUMPDEST PUSH2 0x1DA0 JUMPI PUSH1 0x40 MLOAD PUSH32 0x8C379A000000000000000000000000000000000000000000000000000000000 DUP2 MSTORE PUSH1 0x4 ADD PUSH2 0x1D97 SWAP1 PUSH2 0x441E JUMP JUMPDEST PUSH1 0x40 MLOAD DUP1 SWAP2 SUB SWAP1 REVERT JUMPDEST DUP5 DUP4 PUSH2 0x1DAC DUP3 DUP3 PUSH2 0x1872 JUMP JUMPDEST ISZERO PUSH2 0x1DEC JUMPI PUSH1 0x40 MLOAD PUSH32 0x8C379A000000000000000000000000000000000000000000000000000000000 DUP2 MSTORE PUSH1 0x4 ADD PUSH2 0x1DE3 SWAP1 PUSH2 0x4E00 JUMP JUMPDEST PUSH1 0x40 MLOAD DUP1 SWAP2 SUB SWAP1 REVERT JUMPDEST PUSH1 0x0 PUSH1 0x40 MLOAD DUP1 PUSH1 0xC0 ADD PUSH1 0x40 MSTORE DUP1 PUSH1 0x0 DUP2 MSTORE PUSH1 0x20 ADD DUP10 DUP2 MSTORE PUSH1 0x20 ADD DUP9 DUP2 MSTORE PUSH1 0x20 ADD DUP8 DUP2 MSTORE PUSH1 0x20 ADD TIMESTAMP DUP2 MSTORE PUSH1 0x20 ADD PUSH1 0x0 DUP2 MSTORE POP SWAP1 POP PUSH2 0x1E27 PUSH2 0x2F1F JUMP JUMPDEST PUSH20 0xFFFFFFFFFFFFFFFFFFFFFFFFFFFFFFFFFFFFFFFF AND PUSH4 0xE155E532 DUP3 PUSH32 0x8E1604A838D0F1A9B2CDA14A099E4CEB08E966CC6E05E8296F67B02D61A79F09 PUSH1 0x0 SHL PUSH1 0x40 MLOAD DUP4 PUSH4 0xFFFFFFFF AND PUSH1 0xE0 SHL DUP2 MSTORE PUSH1 0x4 ADD PUSH2 0x1E84 SWAP3 SWAP2 SWAP1 PUSH2 0x4E9B JUMP JUMPDEST PUSH1 0x20 PUSH1 0x40 MLOAD DUP1 DUP4 SUB DUP2 PUSH1 0x0 DUP8 GAS CALL ISZERO DUP1 ISZERO PUSH2 0x1EA3 JUMPI RETURNDATASIZE PUSH1 0x0 DUP1 RETURNDATACOPY RETURNDATASIZE PUSH1 0x0 REVERT JUMPDEST POP POP POP POP PUSH1 0x40 MLOAD RETURNDATASIZE PUSH1 0x1F NOT PUSH1 0x1F DUP3 ADD AND DUP3 ADD DUP1 PUSH1 0x40 MSTORE POP DUP2 ADD SWAP1 PUSH2 0x1EC7 SWAP2 SWAP1 PUSH2 0x46B3 JUMP JUMPDEST SWAP5 POP POP POP POP POP SWAP4 SWAP3 POP POP POP JUMP JUMPDEST PUSH1 0x0 PUSH2 0x1EDE PUSH2 0x2666 JUMP JUMPDEST ISZERO PUSH2 0x1F1E JUMPI PUSH1 0x40 MLOAD PUSH32 0x8C379A000000000000000000000000000000000000000000000000000000000 DUP2 MSTORE PUSH1 0x4 ADD PUSH2 0x1F15 SWAP1 PUSH2 0x4F36 JUMP JUMPDEST PUSH1 0x40 MLOAD DUP1 SWAP2 SUB SWAP1 REVERT JUMPDEST PUSH1 0x0 CALLER SWAP1 POP PUSH1 0x0 PUSH1 0x40 MLOAD DUP1 PUSH2 0x180 ADD PUSH1 0x40 MSTORE DUP1 DUP15 DUP2 MSTORE PUSH1 0x20 ADD PUSH1 0x0 DUP2 MSTORE PUSH1 0x20 ADD DUP14 DUP2 MSTORE PUSH1 0x20 ADD DUP4 PUSH20 0xFFFFFFFFFFFFFFFFFFFFFFFFFFFFFFFFFFFFFFFF AND DUP2 MSTORE PUSH1 0x20 ADD DUP13 DUP2 MSTORE PUSH1 0x20 ADD DUP12 DUP2 MSTORE PUSH1 0x20 ADD DUP11 DUP2 MSTORE PUSH1 0x20 ADD DUP10 DUP2 MSTORE PUSH1 0x20 ADD DUP9 DUP2 MSTORE PUSH1 0x20 ADD DUP8 DUP2 MSTORE PUSH1 0x20 ADD DUP7 DUP2 MSTORE PUSH1 0x20 ADD DUP6 DUP2 MSTORE POP SWAP1 POP PUSH1 0x0 PUSH2 0x1F9A PUSH2 0x2ECB JUMP JUMPDEST PUSH20 0xFFFFFFFFFFFFFFFFFFFFFFFFFFFFFFFFFFFFFFFF AND PUSH4 0x7DCD61BD DUP4 PUSH32 0x8E1604A838D0F1A9B2CDA14A099E4CEB08E966CC6E05E8296F67B02D61A79F09 PUSH1 0x0 SHL PUSH1 0x40 MLOAD DUP4 PUSH4 0xFFFFFFFF AND PUSH1 0xE0 SHL DUP2 MSTORE PUSH1 0x4 ADD PUSH2 0x1FF7 SWAP3 SWAP2 SWAP1 PUSH2 0x4F56 JUMP JUMPDEST PUSH1 0x20 PUSH1 0x40 MLOAD DUP1 DUP4 SUB DUP2 PUSH1 0x0 DUP8 GAS CALL ISZERO DUP1 ISZERO PUSH2 0x2016 JUMPI RETURNDATASIZE PUSH1 0x0 DUP1 RETURNDATACOPY RETURNDATASIZE PUSH1 0x0 REVERT JUMPDEST POP POP POP POP PUSH1 0x40 MLOAD RETURNDATASIZE PUSH1 0x1F NOT PUSH1 0x1F DUP3 ADD AND DUP3 ADD DUP1 PUSH1 0x40 MSTORE POP DUP2 ADD SWAP1 PUSH2 0x203A SWAP2 SWAP1 PUSH2 0x46B3 JUMP JUMPDEST SWAP1 POP DUP1 SWAP4 POP POP POP POP SWAP11 SWAP10 POP POP POP POP POP POP POP POP POP POP JUMP JUMPDEST PUSH1 0x0 DUP1 PUSH1 0x3 PUSH1 0x0 SWAP1 SLOAD SWAP1 PUSH2 0x100 EXP SWAP1 DIV PUSH20 0xFFFFFFFFFFFFFFFFFFFFFFFFFFFFFFFFFFFFFFFF AND PUSH20 0xFFFFFFFFFFFFFFFFFFFFFFFFFFFFFFFFFFFFFFFF AND PUSH4 0xFE613218 PUSH32 0x8E1604A838D0F1A9B2CDA14A099E4CEB08E966CC6E05E8296F67B02D61A79F09 PUSH1 0x0 SHL DUP7 DUP7 PUSH1 0x40 MLOAD DUP5 PUSH4 0xFFFFFFFF AND PUSH1 0xE0 SHL DUP2 MSTORE PUSH1 0x4 ADD PUSH2 0x20D5 SWAP4 SWAP3 SWAP2 SWAP1 PUSH2 0x4F86 JUMP JUMPDEST PUSH1 0x20 PUSH1 0x40 MLOAD DUP1 DUP4 SUB DUP2 DUP7 GAS STATICCALL ISZERO DUP1 ISZERO PUSH2 0x20F2 JUMPI RETURNDATASIZE PUSH1 0x0 DUP1 RETURNDATACOPY RETURNDATASIZE PUSH1 0x0 REVERT JUMPDEST POP POP POP POP PUSH1 0x40 MLOAD RETURNDATASIZE PUSH1 0x1F NOT PUSH1 0x1F DUP3 ADD AND DUP3 ADD DUP1 PUSH1 0x40 MSTORE POP DUP2 ADD SWAP1 PUSH2 0x2116 SWAP2 SWAP1 PUSH2 0x46B3 JUMP JUMPDEST SWAP1 POP PUSH1 0x0 DUP2 EQ PUSH2 0x212A JUMPI PUSH1 0x1 SWAP2 POP POP PUSH2 0x2130 JUMP JUMPDEST PUSH1 0x0 SWAP2 POP POP JUMPDEST SWAP3 SWAP2 POP POP JUMP JUMPDEST PUSH1 0x60 PUSH1 0x0 DUP1 PUSH1 0x1 SWAP1 POP JUMPDEST PUSH2 0x2148 PUSH2 0x3115 JUMP JUMPDEST PUSH20 0xFFFFFFFFFFFFFFFFFFFFFFFFFFFFFFFFFFFFFFFF AND PUSH4 0xFD82E9DD PUSH32 0x8E1604A838D0F1A9B2CDA14A099E4CEB08E966CC6E05E8296F67B02D61A79F09 PUSH1 0x0 SHL PUSH1 0x40 MLOAD DUP3 PUSH4 0xFFFFFFFF AND PUSH1 0xE0 SHL DUP2 MSTORE PUSH1 0x4 ADD PUSH2 0x21A3 SWAP2 SWAP1 PUSH2 0x4683 JUMP JUMPDEST PUSH1 0x20 PUSH1 0x40 MLOAD DUP1 DUP4 SUB DUP2 DUP7 GAS STATICCALL ISZERO DUP1 ISZERO PUSH2 0x21C0 JUMPI RETURNDATASIZE PUSH1 0x0 DUP1 RETURNDATACOPY RETURNDATASIZE PUSH1 0x0 REVERT JUMPDEST POP POP POP POP PUSH1 0x40 MLOAD RETURNDATASIZE PUSH1 0x1F NOT PUSH1 0x1F DUP3 ADD AND DUP3 ADD DUP1 PUSH1 0x40 MSTORE POP DUP2 ADD SWAP1 PUSH2 0x21E4 SWAP2 SWAP1 PUSH2 0x46B3 JUMP JUMPDEST DUP2 GT PUSH2 0x22C2 JUMPI PUSH1 0x0 PUSH2 0x21F4 PUSH2 0x3115 JUMP JUMPDEST PUSH20 0xFFFFFFFFFFFFFFFFFFFFFFFFFFFFFFFFFFFFFFFF AND PUSH4 0xC78A6741 DUP4 PUSH32 0x8E1604A838D0F1A9B2CDA14A099E4CEB08E966CC6E05E8296F67B02D61A79F09 PUSH1 0x0 SHL PUSH1 0x40 MLOAD DUP4 PUSH4 0xFFFFFFFF AND PUSH1 0xE0 SHL DUP2 MSTORE PUSH1 0x4 ADD PUSH2 0x2251 SWAP3 SWAP2 SWAP1 PUSH2 0x46E0 JUMP JUMPDEST PUSH1 0xC0 PUSH1 0x40 MLOAD DUP1 DUP4 SUB DUP2 DUP7 GAS STATICCALL ISZERO DUP1 ISZERO PUSH2 0x226E JUMPI RETURNDATASIZE PUSH1 0x0 DUP1 RETURNDATACOPY RETURNDATASIZE PUSH1 0x0 REVERT JUMPDEST POP POP POP POP PUSH1 0x40 MLOAD RETURNDATASIZE PUSH1 0x1F NOT PUSH1 0x1F DUP3 ADD AND DUP3 ADD DUP1 PUSH1 0x40 MSTORE POP DUP2 ADD SWAP1 PUSH2 0x2292 SWAP2 SWAP1 PUSH2 0x5064 JUMP JUMPDEST PUSH1 0x40 ADD MLOAD SWAP1 POP DUP5 DUP2 SUB PUSH2 0x22AE JUMPI DUP3 DUP1 PUSH2 0x22AA SWAP1 PUSH2 0x480F JUMP JUMPDEST SWAP4 POP POP JUMPDEST POP DUP1 DUP1 PUSH2 0x22BA SWAP1 PUSH2 0x480F JUMP JUMPDEST SWAP2 POP POP PUSH2 0x2140 JUMP JUMPDEST POP PUSH1 0x0 DUP2 PUSH8 0xFFFFFFFFFFFFFFFF DUP2 GT ISZERO PUSH2 0x22DF JUMPI PUSH2 0x22DE PUSH2 0x33BC JUMP JUMPDEST JUMPDEST PUSH1 0x40 MLOAD SWAP1 DUP1 DUP3 MSTORE DUP1 PUSH1 0x20 MUL PUSH1 0x20 ADD DUP3 ADD PUSH1 0x40 MSTORE DUP1 ISZERO PUSH2 0x2318 JUMPI DUP2 PUSH1 0x20 ADD JUMPDEST PUSH2 0x2305 PUSH2 0x3321 JUMP JUMPDEST DUP2 MSTORE PUSH1 0x20 ADD SWAP1 PUSH1 0x1 SWAP1 SUB SWAP1 DUP2 PUSH2 0x22FD JUMPI SWAP1 POP JUMPDEST POP SWAP1 POP PUSH1 0x0 DUP1 PUSH1 0x1 SWAP1 POP JUMPDEST PUSH2 0x232B PUSH2 0x3115 JUMP JUMPDEST PUSH20 0xFFFFFFFFFFFFFFFFFFFFFFFFFFFFFFFFFFFFFFFF AND PUSH4 0xFD82E9DD PUSH32 0x8E1604A838D0F1A9B2CDA14A099E4CEB08E966CC6E05E8296F67B02D61A79F09 PUSH1 0x0 SHL PUSH1 0x40 MLOAD DUP3 PUSH4 0xFFFFFFFF AND PUSH1 0xE0 SHL DUP2 MSTORE PUSH1 0x4 ADD PUSH2 0x2386 SWAP2 SWAP1 PUSH2 0x4683 JUMP JUMPDEST PUSH1 0x20 PUSH1 0x40 MLOAD DUP1 DUP4 SUB DUP2 DUP7 GAS STATICCALL ISZERO DUP1 ISZERO PUSH2 0x23A3 JUMPI RETURNDATASIZE PUSH1 0x0 DUP1 RETURNDATACOPY RETURNDATASIZE PUSH1 0x0 REVERT JUMPDEST POP POP POP POP PUSH1 0x40 MLOAD RETURNDATASIZE PUSH1 0x1F NOT PUSH1 0x1F DUP3 ADD AND DUP3 ADD DUP1 PUSH1 0x40 MSTORE POP DUP2 ADD SWAP1 PUSH2 0x23C7 SWAP2 SWAP1 PUSH2 0x46B3 JUMP JUMPDEST DUP2 GT PUSH2 0x24C4 JUMPI PUSH1 0x0 PUSH2 0x23D7 PUSH2 0x3115 JUMP JUMPDEST PUSH20 0xFFFFFFFFFFFFFFFFFFFFFFFFFFFFFFFFFFFFFFFF AND PUSH4 0xC78A6741 DUP4 PUSH32 0x8E1604A838D0F1A9B2CDA14A099E4CEB08E966CC6E05E8296F67B02D61A79F09 PUSH1 0x0 SHL PUSH1 0x40 MLOAD DUP4 PUSH4 0xFFFFFFFF AND PUSH1 0xE0 SHL DUP2 MSTORE PUSH1 0x4 ADD PUSH2 0x2434 SWAP3 SWAP2 SWAP1 PUSH2 0x46E0 JUMP JUMPDEST PUSH1 0xC0 PUSH1 0x40 MLOAD DUP1 DUP4 SUB DUP2 DUP7 GAS STATICCALL ISZERO DUP1 ISZERO PUSH2 0x2451 JUMPI RETURNDATASIZE PUSH1 0x0 DUP1 RETURNDATACOPY RETURNDATASIZE PUSH1 0x0 REVERT JUMPDEST POP POP POP POP PUSH1 0x40 MLOAD RETURNDATASIZE PUSH1 0x1F NOT PUSH1 0x1F DUP3 ADD AND DUP3 ADD DUP1 PUSH1 0x40 MSTORE POP DUP2 ADD SWAP1 PUSH2 0x2475 SWAP2 SWAP1 PUSH2 0x5064 JUMP JUMPDEST SWAP1 POP DUP7 DUP2 PUSH1 0x40 ADD MLOAD SUB PUSH2 0x24B0 JUMPI DUP1 DUP5 DUP5 DUP2 MLOAD DUP2 LT PUSH2 0x2496 JUMPI PUSH2 0x2495 PUSH2 0x4857 JUMP JUMPDEST JUMPDEST PUSH1 0x20 MUL PUSH1 0x20 ADD ADD DUP2 SWAP1 MSTORE POP DUP3 DUP1 PUSH2 0x24AC SWAP1 PUSH2 0x480F JUMP JUMPDEST SWAP4 POP POP JUMPDEST POP DUP1 DUP1 PUSH2 0x24BC SWAP1 PUSH2 0x480F JUMP JUMPDEST SWAP2 POP POP PUSH2 0x2323 JUMP JUMPDEST POP DUP2 SWAP4 POP POP POP POP SWAP2 SWAP1 POP JUMP JUMPDEST PUSH1 0x0 DUP4 PUSH2 0x24DB PUSH2 0x2666 JUMP JUMPDEST PUSH2 0x251A JUMPI PUSH1 0x40 MLOAD PUSH32 0x8C379A000000000000000000000000000000000000000000000000000000000 DUP2 MSTORE PUSH1 0x4 ADD PUSH2 0x2511 SWAP1 PUSH2 0x438C JUMP JUMPDEST PUSH1 0x40 MLOAD DUP1 SWAP2 SUB SWAP1 REVERT JUMPDEST PUSH2 0x2523 DUP2 PUSH2 0x2DEA JUMP JUMPDEST PUSH2 0x2562 JUMPI PUSH1 0x40 MLOAD PUSH32 0x8C379A000000000000000000000000000000000000000000000000000000000 DUP2 MSTORE PUSH1 0x4 ADD PUSH2 0x2559 SWAP1 PUSH2 0x441E JUMP JUMPDEST PUSH1 0x40 MLOAD DUP1 SWAP2 SUB SWAP1 REVERT JUMPDEST DUP5 DUP5 PUSH2 0x256E DUP3 DUP3 PUSH2 0x2FB2 JUMP JUMPDEST PUSH2 0x25AD JUMPI PUSH1 0x40 MLOAD PUSH32 0x8C379A000000000000000000000000000000000000000000000000000000000 DUP2 MSTORE PUSH1 0x4 ADD PUSH2 0x25A4 SWAP1 PUSH2 0x4D94 JUMP JUMPDEST PUSH1 0x40 MLOAD DUP1 SWAP2 SUB SWAP1 REVERT JUMPDEST PUSH2 0x25B5 PUSH2 0x2EF5 JUMP JUMPDEST PUSH20 0xFFFFFFFFFFFFFFFFFFFFFFFFFFFFFFFFFFFFFFFF AND PUSH4 0xC1D58001 DUP8 PUSH32 0x8E1604A838D0F1A9B2CDA14A099E4CEB08E966CC6E05E8296F67B02D61A79F09 PUSH1 0x0 SHL DUP9 PUSH1 0x40 MLOAD DUP5 PUSH4 0xFFFFFFFF AND PUSH1 0xE0 SHL DUP2 MSTORE PUSH1 0x4 ADD PUSH2 0x2614 SWAP4 SWAP3 SWAP2 SWAP1 PUSH2 0x4457 JUMP JUMPDEST PUSH1 0x20 PUSH1 0x40 MLOAD DUP1 DUP4 SUB DUP2 PUSH1 0x0 DUP8 GAS CALL ISZERO DUP1 ISZERO PUSH2 0x2633 JUMPI RETURNDATASIZE PUSH1 0x0 DUP1 RETURNDATACOPY RETURNDATASIZE PUSH1 0x0 REVERT JUMPDEST POP POP POP POP PUSH1 0x40 MLOAD RETURNDATASIZE PUSH1 0x1F NOT PUSH1 0x1F DUP3 ADD AND DUP3 ADD DUP1 PUSH1 0x40 MSTORE POP DUP2 ADD SWAP1 PUSH2 0x2657 SWAP2 SWAP1 PUSH2 0x44BA JUMP JUMPDEST POP PUSH1 0x1 SWAP4 POP POP POP POP SWAP4 SWAP3 POP POP POP JUMP JUMPDEST PUSH1 0x0 DUP1 PUSH1 0x1 PUSH1 0x0 SWAP1 SLOAD SWAP1 PUSH2 0x100 EXP SWAP1 DIV PUSH20 0xFFFFFFFFFFFFFFFFFFFFFFFFFFFFFFFFFFFFFFFF AND PUSH20 0xFFFFFFFFFFFFFFFFFFFFFFFFFFFFFFFFFFFFFFFF AND PUSH4 0xD32A04C7 CALLER PUSH32 0x8E1604A838D0F1A9B2CDA14A099E4CEB08E966CC6E05E8296F67B02D61A79F09 PUSH1 0x0 SHL PUSH1 0x40 MLOAD DUP4 PUSH4 0xFFFFFFFF AND PUSH1 0xE0 SHL DUP2 MSTORE PUSH1 0x4 ADD PUSH2 0x26E9 SWAP3 SWAP2 SWAP1 PUSH2 0x4C1C JUMP JUMPDEST PUSH1 0x20 PUSH1 0x40 MLOAD DUP1 DUP4 SUB DUP2 DUP7 GAS STATICCALL ISZERO DUP1 ISZERO PUSH2 0x2706 JUMPI RETURNDATASIZE PUSH1 0x0 DUP1 RETURNDATACOPY RETURNDATASIZE PUSH1 0x0 REVERT JUMPDEST POP POP POP POP PUSH1 0x40 MLOAD RETURNDATASIZE PUSH1 0x1F NOT PUSH1 0x1F DUP3 ADD AND DUP3 ADD DUP1 PUSH1 0x40 MSTORE POP DUP2 ADD SWAP1 PUSH2 0x272A SWAP2 SWAP1 PUSH2 0x46B3 JUMP JUMPDEST SWAP1 POP PUSH1 0x0 DUP2 GT ISZERO PUSH2 0x273F JUMPI PUSH1 0x1 SWAP2 POP POP PUSH2 0x2745 JUMP JUMPDEST PUSH1 0x0 SWAP2 POP POP JUMPDEST SWAP1 JUMP JUMPDEST PUSH1 0x0 CALLER DUP3 PUSH2 0x2756 DUP3 DUP3 PUSH2 0x313F JUMP JUMPDEST PUSH2 0x2795 JUMPI PUSH1 0x40 MLOAD PUSH32 0x8C379A000000000000000000000000000000000000000000000000000000000 DUP2 MSTORE PUSH1 0x4 ADD PUSH2 0x278C SWAP1 PUSH2 0x5103 JUMP JUMPDEST PUSH1 0x40 MLOAD DUP1 SWAP2 SUB SWAP1 REVERT JUMPDEST PUSH2 0x279D PUSH2 0x2666 JUMP JUMPDEST PUSH2 0x27DC JUMPI PUSH1 0x40 MLOAD PUSH32 0x8C379A000000000000000000000000000000000000000000000000000000000 DUP2 MSTORE PUSH1 0x4 ADD PUSH2 0x27D3 SWAP1 PUSH2 0x4BFC JUMP JUMPDEST PUSH1 0x40 MLOAD DUP1 SWAP2 SUB SWAP1 REVERT JUMPDEST PUSH1 0x0 PUSH2 0x27E6 PUSH2 0x2ECB JUMP JUMPDEST PUSH20 0xFFFFFFFFFFFFFFFFFFFFFFFFFFFFFFFFFFFFFFFF AND PUSH4 0x236DF93C CALLER PUSH32 0x8E1604A838D0F1A9B2CDA14A099E4CEB08E966CC6E05E8296F67B02D61A79F09 PUSH1 0x0 SHL PUSH1 0x40 MLOAD DUP4 PUSH4 0xFFFFFFFF AND PUSH1 0xE0 SHL DUP2 MSTORE PUSH1 0x4 ADD PUSH2 0x2843 SWAP3 SWAP2 SWAP1 PUSH2 0x4C1C JUMP JUMPDEST PUSH1 0x0 PUSH1 0x40 MLOAD DUP1 DUP4 SUB DUP2 DUP7 GAS STATICCALL ISZERO DUP1 ISZERO PUSH2 0x2860 JUMPI RETURNDATASIZE PUSH1 0x0 DUP1 RETURNDATACOPY RETURNDATASIZE PUSH1 0x0 REVERT JUMPDEST POP POP POP POP PUSH1 0x40 MLOAD RETURNDATASIZE PUSH1 0x0 DUP3 RETURNDATACOPY RETURNDATASIZE PUSH1 0x1F NOT PUSH1 0x1F DUP3 ADD AND DUP3 ADD DUP1 PUSH1 0x40 MSTORE POP DUP2 ADD SWAP1 PUSH2 0x2889 SWAP2 SWAP1 PUSH2 0x4B41 JUMP JUMPDEST PUSH1 0x20 ADD MLOAD SWAP1 POP DUP1 SWAP4 POP POP POP POP SWAP2 SWAP1 POP JUMP JUMPDEST PUSH1 0x60 PUSH1 0x0 DUP1 PUSH1 0x1 SWAP1 POP JUMPDEST PUSH2 0x28AC PUSH2 0x3115 JUMP JUMPDEST PUSH20 0xFFFFFFFFFFFFFFFFFFFFFFFFFFFFFFFFFFFFFFFF AND PUSH4 0xFD82E9DD PUSH32 0x8E1604A838D0F1A9B2CDA14A099E4CEB08E966CC6E05E8296F67B02D61A79F09 PUSH1 0x0 SHL PUSH1 0x40 MLOAD DUP3 PUSH4 0xFFFFFFFF AND PUSH1 0xE0 SHL DUP2 MSTORE PUSH1 0x4 ADD PUSH2 0x2907 SWAP2 SWAP1 PUSH2 0x4683 JUMP JUMPDEST PUSH1 0x20 PUSH1 0x40 MLOAD DUP1 DUP4 SUB DUP2 DUP7 GAS STATICCALL ISZERO DUP1 ISZERO PUSH2 0x2924 JUMPI RETURNDATASIZE PUSH1 0x0 DUP1 RETURNDATACOPY RETURNDATASIZE PUSH1 0x0 REVERT JUMPDEST POP POP POP POP PUSH1 0x40 MLOAD RETURNDATASIZE PUSH1 0x1F NOT PUSH1 0x1F DUP3 ADD AND DUP3 ADD DUP1 PUSH1 0x40 MSTORE POP DUP2 ADD SWAP1 PUSH2 0x2948 SWAP2 SWAP1 PUSH2 0x46B3 JUMP JUMPDEST DUP2 GT PUSH2 0x2A36 JUMPI PUSH1 0x0 PUSH2 0x2958 PUSH2 0x3115 JUMP JUMPDEST PUSH20 0xFFFFFFFFFFFFFFFFFFFFFFFFFFFFFFFFFFFFFFFF AND PUSH4 0xC78A6741 DUP4 PUSH32 0x8E1604A838D0F1A9B2CDA14A099E4CEB08E966CC6E05E8296F67B02D61A79F09 PUSH1 0x0 SHL PUSH1 0x40 MLOAD DUP4 PUSH4 0xFFFFFFFF AND PUSH1 0xE0 SHL DUP2 MSTORE PUSH1 0x4 ADD PUSH2 0x29B5 SWAP3 SWAP2 SWAP1 PUSH2 0x46E0 JUMP JUMPDEST PUSH1 0xC0 PUSH1 0x40 MLOAD DUP1 DUP4 SUB DUP2 DUP7 GAS STATICCALL ISZERO DUP1 ISZERO PUSH2 0x29D2 JUMPI RETURNDATASIZE PUSH1 0x0 DUP1 RETURNDATACOPY RETURNDATASIZE PUSH1 0x0 REVERT JUMPDEST POP POP POP POP PUSH1 0x40 MLOAD RETURNDATASIZE PUSH1 0x1F NOT PUSH1 0x1F DUP3 ADD AND DUP3 ADD DUP1 PUSH1 0x40 MSTORE POP DUP2 ADD SWAP1 PUSH2 0x29F6 SWAP2 SWAP1 PUSH2 0x5064 JUMP JUMPDEST SWAP1 POP DUP6 DUP2 PUSH1 0x40 ADD MLOAD EQ DUP1 ISZERO PUSH2 0x2A0E JUMPI POP DUP5 DUP2 PUSH1 0x60 ADD MLOAD EQ JUMPDEST ISZERO PUSH2 0x2A22 JUMPI DUP3 DUP1 PUSH2 0x2A1E SWAP1 PUSH2 0x480F JUMP JUMPDEST SWAP4 POP POP JUMPDEST POP DUP1 DUP1 PUSH2 0x2A2E SWAP1 PUSH2 0x480F JUMP JUMPDEST SWAP2 POP POP PUSH2 0x28A4 JUMP JUMPDEST POP PUSH1 0x0 DUP2 PUSH8 0xFFFFFFFFFFFFFFFF DUP2 GT ISZERO PUSH2 0x2A53 JUMPI PUSH2 0x2A52 PUSH2 0x33BC JUMP JUMPDEST JUMPDEST PUSH1 0x40 MLOAD SWAP1 DUP1 DUP3 MSTORE DUP1 PUSH1 0x20 MUL PUSH1 0x20 ADD DUP3 ADD PUSH1 0x40 MSTORE DUP1 ISZERO PUSH2 0x2A8C JUMPI DUP2 PUSH1 0x20 ADD JUMPDEST PUSH2 0x2A79 PUSH2 0x3321 JUMP JUMPDEST DUP2 MSTORE PUSH1 0x20 ADD SWAP1 PUSH1 0x1 SWAP1 SUB SWAP1 DUP2 PUSH2 0x2A71 JUMPI SWAP1 POP JUMPDEST POP SWAP1 POP PUSH1 0x0 DUP1 PUSH1 0x1 SWAP1 POP JUMPDEST PUSH2 0x2A9F PUSH2 0x3115 JUMP JUMPDEST PUSH20 0xFFFFFFFFFFFFFFFFFFFFFFFFFFFFFFFFFFFFFFFF AND PUSH4 0xFD82E9DD PUSH32 0x8E1604A838D0F1A9B2CDA14A099E4CEB08E966CC6E05E8296F67B02D61A79F09 PUSH1 0x0 SHL PUSH1 0x40 MLOAD DUP3 PUSH4 0xFFFFFFFF AND PUSH1 0xE0 SHL DUP2 MSTORE PUSH1 0x4 ADD PUSH2 0x2AFA SWAP2 SWAP1 PUSH2 0x4683 JUMP JUMPDEST PUSH1 0x20 PUSH1 0x40 MLOAD DUP1 DUP4 SUB DUP2 DUP7 GAS STATICCALL ISZERO DUP1 ISZERO PUSH2 0x2B17 JUMPI RETURNDATASIZE PUSH1 0x0 DUP1 RETURNDATACOPY RETURNDATASIZE PUSH1 0x0 REVERT JUMPDEST POP POP POP POP PUSH1 0x40 MLOAD RETURNDATASIZE PUSH1 0x1F NOT PUSH1 0x1F DUP3 ADD AND DUP3 ADD DUP1 PUSH1 0x40 MSTORE POP DUP2 ADD SWAP1 PUSH2 0x2B3B SWAP2 SWAP1 PUSH2 0x46B3 JUMP JUMPDEST DUP2 GT PUSH2 0x2C48 JUMPI PUSH1 0x0 PUSH2 0x2B4B PUSH2 0x3115 JUMP JUMPDEST PUSH20 0xFFFFFFFFFFFFFFFFFFFFFFFFFFFFFFFFFFFFFFFF AND PUSH4 0xC78A6741 DUP4 PUSH32 0x8E1604A838D0F1A9B2CDA14A099E4CEB08E966CC6E05E8296F67B02D61A79F09 PUSH1 0x0 SHL PUSH1 0x40 MLOAD DUP4 PUSH4 0xFFFFFFFF AND PUSH1 0xE0 SHL DUP2 MSTORE PUSH1 0x4 ADD PUSH2 0x2BA8 SWAP3 SWAP2 SWAP1 PUSH2 0x46E0 JUMP JUMPDEST PUSH1 0xC0 PUSH1 0x40 MLOAD DUP1 DUP4 SUB DUP2 DUP7 GAS STATICCALL ISZERO DUP1 ISZERO PUSH2 0x2BC5 JUMPI RETURNDATASIZE PUSH1 0x0 DUP1 RETURNDATACOPY RETURNDATASIZE PUSH1 0x0 REVERT JUMPDEST POP POP POP POP PUSH1 0x40 MLOAD RETURNDATASIZE PUSH1 0x1F NOT PUSH1 0x1F DUP3 ADD AND DUP3 ADD DUP1 PUSH1 0x40 MSTORE POP DUP2 ADD SWAP1 PUSH2 0x2BE9 SWAP2 SWAP1 PUSH2 0x5064 JUMP JUMPDEST SWAP1 POP DUP8 DUP2 PUSH1 0x40 ADD MLOAD EQ DUP1 ISZERO PUSH2 0x2C01 JUMPI POP DUP7 DUP2 PUSH1 0x60 ADD MLOAD EQ JUMPDEST ISZERO PUSH2 0x2C34 JUMPI DUP1 DUP5 DUP5 DUP2 MLOAD DUP2 LT PUSH2 0x2C1A JUMPI PUSH2 0x2C19 PUSH2 0x4857 JUMP JUMPDEST JUMPDEST PUSH1 0x20 MUL PUSH1 0x20 ADD ADD DUP2 SWAP1 MSTORE POP DUP3 DUP1 PUSH2 0x2C30 SWAP1 PUSH2 0x480F JUMP JUMPDEST SWAP4 POP POP JUMPDEST POP DUP1 DUP1 PUSH2 0x2C40 SWAP1 PUSH2 0x480F JUMP JUMPDEST SWAP2 POP POP PUSH2 0x2A97 JUMP JUMPDEST POP DUP2 SWAP4 POP POP POP POP SWAP3 SWAP2 POP POP JUMP JUMPDEST PUSH2 0x2C5D PUSH2 0x3282 JUMP JUMPDEST PUSH1 0x0 PUSH2 0x2C67 PUSH2 0x2ECB JUMP JUMPDEST PUSH20 0xFFFFFFFFFFFFFFFFFFFFFFFFFFFFFFFFFFFFFFFF AND PUSH4 0xC78A6741 DUP5 PUSH32 0x8E1604A838D0F1A9B2CDA14A099E4CEB08E966CC6E05E8296F67B02D61A79F09 PUSH1 0x0 SHL PUSH1 0x40 MLOAD DUP4 PUSH4 0xFFFFFFFF AND PUSH1 0xE0 SHL DUP2 MSTORE PUSH1 0x4 ADD PUSH2 0x2CC4 SWAP3 SWAP2 SWAP1 PUSH2 0x46E0 JUMP JUMPDEST PUSH1 0x0 PUSH1 0x40 MLOAD DUP1 DUP4 SUB DUP2 DUP7 GAS STATICCALL ISZERO DUP1 ISZERO PUSH2 0x2CE1 JUMPI RETURNDATASIZE PUSH1 0x0 DUP1 RETURNDATACOPY RETURNDATASIZE PUSH1 0x0 REVERT JUMPDEST POP POP POP POP PUSH1 0x40 MLOAD RETURNDATASIZE PUSH1 0x0 DUP3 RETURNDATACOPY RETURNDATASIZE PUSH1 0x1F NOT PUSH1 0x1F DUP3 ADD AND DUP3 ADD DUP1 PUSH1 0x40 MSTORE POP DUP2 ADD SWAP1 PUSH2 0x2D0A SWAP2 SWAP1 PUSH2 0x4B41 JUMP JUMPDEST SWAP1 POP PUSH1 0x0 DUP2 PUSH1 0x60 ADD SWAP1 PUSH20 0xFFFFFFFFFFFFFFFFFFFFFFFFFFFFFFFFFFFFFFFF AND SWAP1 DUP2 PUSH20 0xFFFFFFFFFFFFFFFFFFFFFFFFFFFFFFFFFFFFFFFF AND DUP2 MSTORE POP POP PUSH1 0x40 MLOAD DUP1 PUSH1 0x20 ADD PUSH1 0x40 MSTORE DUP1 PUSH1 0x0 DUP2 MSTORE POP DUP2 PUSH2 0x160 ADD DUP2 SWAP1 MSTORE POP DUP1 SWAP2 POP POP SWAP2 SWAP1 POP JUMP JUMPDEST PUSH2 0x2D6F PUSH2 0x309E JUMP JUMPDEST PUSH1 0x0 PUSH20 0xFFFFFFFFFFFFFFFFFFFFFFFFFFFFFFFFFFFFFFFF AND DUP2 PUSH20 0xFFFFFFFFFFFFFFFFFFFFFFFFFFFFFFFFFFFFFFFF AND SUB PUSH2 0x2DDE JUMPI PUSH1 0x40 MLOAD PUSH32 0x8C379A000000000000000000000000000000000000000000000000000000000 DUP2 MSTORE PUSH1 0x4 ADD PUSH2 0x2DD5 SWAP1 PUSH2 0x5195 JUMP JUMPDEST PUSH1 0x40 MLOAD DUP1 SWAP2 SUB SWAP1 REVERT JUMPDEST PUSH2 0x2DE7 DUP2 PUSH2 0x3188 JUMP JUMPDEST POP JUMP JUMPDEST PUSH1 0x0 DUP1 PUSH1 0x1 PUSH1 0x0 SWAP1 SLOAD SWAP1 PUSH2 0x100 EXP SWAP1 DIV PUSH20 0xFFFFFFFFFFFFFFFFFFFFFFFFFFFFFFFFFFFFFFFF AND PUSH20 0xFFFFFFFFFFFFFFFFFFFFFFFFFFFFFFFFFFFFFFFF AND PUSH4 0xC78A6741 DUP5 PUSH32 0x8E1604A838D0F1A9B2CDA14A099E4CEB08E966CC6E05E8296F67B02D61A79F09 PUSH1 0x0 SHL PUSH1 0x40 MLOAD DUP4 PUSH4 0xFFFFFFFF AND PUSH1 0xE0 SHL DUP2 MSTORE PUSH1 0x4 ADD PUSH2 0x2E6D SWAP3 SWAP2 SWAP1 PUSH2 0x46E0 JUMP JUMPDEST PUSH1 0x0 PUSH1 0x40 MLOAD DUP1 DUP4 SUB DUP2 DUP7 GAS STATICCALL ISZERO DUP1 ISZERO PUSH2 0x2E8A JUMPI RETURNDATASIZE PUSH1 0x0 DUP1 RETURNDATACOPY RETURNDATASIZE PUSH1 0x0 REVERT JUMPDEST POP POP POP POP PUSH1 0x40 MLOAD RETURNDATASIZE PUSH1 0x0 DUP3 RETURNDATACOPY RETURNDATASIZE PUSH1 0x1F NOT PUSH1 0x1F DUP3 ADD AND DUP3 ADD DUP1 PUSH1 0x40 MSTORE POP DUP2 ADD SWAP1 PUSH2 0x2EB3 SWAP2 SWAP1 PUSH2 0x4B41 JUMP JUMPDEST SWAP1 POP PUSH2 0x2EC3 DUP2 PUSH1 0x60 ADD MLOAD CALLER PUSH2 0x313F JUMP JUMPDEST SWAP2 POP POP SWAP2 SWAP1 POP JUMP JUMPDEST PUSH1 0x0 PUSH1 0x1 PUSH1 0x0 SWAP1 SLOAD SWAP1 PUSH2 0x100 EXP SWAP1 DIV PUSH20 0xFFFFFFFFFFFFFFFFFFFFFFFFFFFFFFFFFFFFFFFF AND SWAP1 POP SWAP1 JUMP JUMPDEST PUSH1 0x0 PUSH1 0x3 PUSH1 0x0 SWAP1 SLOAD SWAP1 PUSH2 0x100 EXP SWAP1 DIV PUSH20 0xFFFFFFFFFFFFFFFFFFFFFFFFFFFFFFFFFFFFFFFF AND SWAP1 POP SWAP1 JUMP JUMPDEST PUSH1 0x0 PUSH1 0x5 PUSH1 0x0 SWAP1 SLOAD SWAP1 PUSH2 0x100 EXP SWAP1 DIV PUSH20 0xFFFFFFFFFFFFFFFFFFFFFFFFFFFFFFFFFFFFFFFF AND SWAP1 POP SWAP1 JUMP JUMPDEST PUSH1 0x0 DUP2 PUSH1 0x40 MLOAD PUSH1 0x20 ADD PUSH2 0x2F5C SWAP2 SWAP1 PUSH2 0x51F1 JUMP JUMPDEST PUSH1 0x40 MLOAD PUSH1 0x20 DUP2 DUP4 SUB SUB DUP2 MSTORE SWAP1 PUSH1 0x40 MSTORE DUP1 MLOAD SWAP1 PUSH1 0x20 ADD KECCAK256 DUP4 PUSH1 0x40 MLOAD PUSH1 0x20 ADD PUSH2 0x2F83 SWAP2 SWAP1 PUSH2 0x51F1 JUMP JUMPDEST PUSH1 0x40 MLOAD PUSH1 0x20 DUP2 DUP4 SUB SUB DUP2 MSTORE SWAP1 PUSH1 0x40 MSTORE DUP1 MLOAD SWAP1 PUSH1 0x20 ADD KECCAK256 SUB PUSH2 0x2FA7 JUMPI PUSH1 0x1 SWAP1 POP PUSH2 0x2FAC JUMP JUMPDEST PUSH1 0x0 SWAP1 POP JUMPDEST SWAP3 SWAP2 POP POP JUMP JUMPDEST PUSH1 0x0 DUP1 PUSH1 0x3 PUSH1 0x0 SWAP1 SLOAD SWAP1 PUSH2 0x100 EXP SWAP1 DIV PUSH20 0xFFFFFFFFFFFFFFFFFFFFFFFFFFFFFFFFFFFFFFFF AND PUSH20 0xFFFFFFFFFFFFFFFFFFFFFFFFFFFFFFFFFFFFFFFF AND PUSH4 0xC78A6741 DUP5 PUSH32 0x8E1604A838D0F1A9B2CDA14A099E4CEB08E966CC6E05E8296F67B02D61A79F09 PUSH1 0x0 SHL PUSH1 0x40 MLOAD DUP4 PUSH4 0xFFFFFFFF AND PUSH1 0xE0 SHL DUP2 MSTORE PUSH1 0x4 ADD PUSH2 0x3035 SWAP3 SWAP2 SWAP1 PUSH2 0x46E0 JUMP JUMPDEST PUSH1 0x0 PUSH1 0x40 MLOAD DUP1 DUP4 SUB DUP2 DUP7 GAS STATICCALL ISZERO DUP1 ISZERO PUSH2 0x3052 JUMPI RETURNDATASIZE PUSH1 0x0 DUP1 RETURNDATACOPY RETURNDATASIZE PUSH1 0x0 REVERT JUMPDEST POP POP POP POP PUSH1 0x40 MLOAD RETURNDATASIZE PUSH1 0x0 DUP3 RETURNDATACOPY RETURNDATASIZE PUSH1 0x1F NOT PUSH1 0x1F DUP3 ADD AND DUP3 ADD DUP1 PUSH1 0x40 MSTORE POP DUP2 ADD SWAP1 PUSH2 0x307B SWAP2 SWAP1 PUSH2 0x4CD9 JUMP JUMPDEST PUSH1 0x0 ADD MLOAD SWAP1 POP DUP4 DUP2 SUB PUSH2 0x3092 JUMPI PUSH1 0x1 SWAP2 POP POP PUSH2 0x3098 JUMP JUMPDEST PUSH1 0x0 SWAP2 POP POP JUMPDEST SWAP3 SWAP2 POP POP JUMP JUMPDEST CALLER PUSH20 0xFFFFFFFFFFFFFFFFFFFFFFFFFFFFFFFFFFFFFFFF AND PUSH2 0x30BD PUSH2 0x1CE5 JUMP JUMPDEST PUSH20 0xFFFFFFFFFFFFFFFFFFFFFFFFFFFFFFFFFFFFFFFF AND EQ PUSH2 0x3113 JUMPI PUSH1 0x40 MLOAD PUSH32 0x8C379A000000000000000000000000000000000000000000000000000000000 DUP2 MSTORE PUSH1 0x4 ADD PUSH2 0x310A SWAP1 PUSH2 0x5254 JUMP JUMPDEST PUSH1 0x40 MLOAD DUP1 SWAP2 SUB SWAP1 REVERT JUMPDEST JUMP JUMPDEST PUSH1 0x0 PUSH1 0x7 PUSH1 0x0 SWAP1 SLOAD SWAP1 PUSH2 0x100 EXP SWAP1 DIV PUSH20 0xFFFFFFFFFFFFFFFFFFFFFFFFFFFFFFFFFFFFFFFF AND SWAP1 POP SWAP1 JUMP JUMPDEST PUSH1 0x0 DUP2 PUSH20 0xFFFFFFFFFFFFFFFFFFFFFFFFFFFFFFFFFFFFFFFF AND DUP4 PUSH20 0xFFFFFFFFFFFFFFFFFFFFFFFFFFFFFFFFFFFFFFFF AND SUB PUSH2 0x317D JUMPI PUSH1 0x1 SWAP1 POP PUSH2 0x3182 JUMP JUMPDEST PUSH1 0x0 SWAP1 POP JUMPDEST SWAP3 SWAP2 POP POP JUMP JUMPDEST PUSH1 0x0 DUP1 PUSH1 0x0 SWAP1 SLOAD SWAP1 PUSH2 0x100 EXP SWAP1 DIV PUSH20 0xFFFFFFFFFFFFFFFFFFFFFFFFFFFFFFFFFFFFFFFF AND SWAP1 POP DUP2 PUSH1 0x0 DUP1 PUSH2 0x100 EXP DUP2 SLOAD DUP2 PUSH20 0xFFFFFFFFFFFFFFFFFFFFFFFFFFFFFFFFFFFFFFFF MUL NOT AND SWAP1 DUP4 PUSH20 0xFFFFFFFFFFFFFFFFFFFFFFFFFFFFFFFFFFFFFFFF AND MUL OR SWAP1 SSTORE POP DUP2 PUSH20 0xFFFFFFFFFFFFFFFFFFFFFFFFFFFFFFFFFFFFFFFF AND DUP2 PUSH20 0xFFFFFFFFFFFFFFFFFFFFFFFFFFFFFFFFFFFFFFFF AND PUSH32 0x8BE0079C531659141344CD1FD0A4F28419497F9722A3DAAFE3B4186F6B6457E0 PUSH1 0x40 MLOAD PUSH1 0x40 MLOAD DUP1 SWAP2 SUB SWAP1 LOG3 POP POP JUMP JUMPDEST PUSH1 0x40 MLOAD DUP1 PUSH1 0xC0 ADD PUSH1 0x40 MSTORE DUP1 PUSH1 0x0 DUP2 MSTORE PUSH1 0x20 ADD PUSH1 0x0 DUP2 MSTORE PUSH1 0x20 ADD PUSH1 0x0 DUP2 MSTORE PUSH1 0x20 ADD PUSH1 0x0 DUP2 MSTORE PUSH1 0x20 ADD PUSH1 0x0 DUP2 MSTORE PUSH1 0x20 ADD PUSH1 0x0 DUP2 MSTORE POP SWAP1 JUMP JUMPDEST PUSH1 0x40 MLOAD DUP1 PUSH2 0x180 ADD PUSH1 0x40 MSTORE DUP1 PUSH1 0x0 DUP2 MSTORE PUSH1 0x20 ADD PUSH1 0x0 DUP2 MSTORE PUSH1 0x20 ADD PUSH1 0x0 DUP2 MSTORE PUSH1 0x20 ADD PUSH1 0x0 PUSH20 0xFFFFFFFFFFFFFFFFFFFFFFFFFFFFFFFFFFFFFFFF AND DUP2 MSTORE PUSH1 0x20 ADD PUSH1 0x60 DUP2 MSTORE PUSH1 0x20 ADD PUSH1 0x60 DUP2 MSTORE PUSH1 0x20 ADD PUSH1 0x60 DUP2 MSTORE PUSH1 0x20 ADD PUSH1 0x60 DUP2 MSTORE PUSH1 0x20 ADD PUSH1 0x60 DUP2 MSTORE PUSH1 0x20 ADD PUSH1 0x60 DUP2 MSTORE PUSH1 0x20 ADD PUSH1 0x60 DUP2 MSTORE PUSH1 0x20 ADD PUSH1 0x60 DUP2 MSTORE POP SWAP1 JUMP JUMPDEST PUSH1 0x40 MLOAD DUP1 PUSH1 0x80 ADD PUSH1 0x40 MSTORE DUP1 PUSH1 0x0 DUP2 MSTORE PUSH1 0x20 ADD PUSH1 0x0 DUP2 MSTORE PUSH1 0x20 ADD PUSH1 0x60 DUP2 MSTORE PUSH1 0x20 ADD PUSH1 0x0 DUP2 MSTORE POP SWAP1 JUMP JUMPDEST PUSH1 0x40 MLOAD DUP1 PUSH1 0xC0 ADD PUSH1 0x40 MSTORE DUP1 PUSH1 0x0 DUP2 MSTORE PUSH1 0x20 ADD PUSH1 0x0 DUP2 MSTORE PUSH1 0x20 ADD PUSH1 0x0 DUP2 MSTORE PUSH1 0x20 ADD PUSH1 0x0 DUP2 MSTORE PUSH1 0x20 ADD PUSH1 0x0 DUP2 MSTORE PUSH1 0x20 ADD PUSH1 0x0 DUP2 MSTORE POP SWAP1 JUMP JUMPDEST PUSH1 0x0 PUSH1 0x40 MLOAD SWAP1 POP SWAP1 JUMP JUMPDEST PUSH1 0x0 DUP1 REVERT JUMPDEST PUSH1 0x0 DUP1 REVERT JUMPDEST PUSH1 0x0 DUP2 SWAP1 POP SWAP2 SWAP1 POP JUMP JUMPDEST PUSH2 0x337E DUP2 PUSH2 0x336B JUMP JUMPDEST DUP2 EQ PUSH2 0x3389 JUMPI PUSH1 0x0 DUP1 REVERT JUMPDEST POP JUMP JUMPDEST PUSH1 0x0 DUP2 CALLDATALOAD SWAP1 POP PUSH2 0x339B DUP2 PUSH2 0x3375 JUMP JUMPDEST SWAP3 SWAP2 POP POP JUMP JUMPDEST PUSH1 0x0 DUP1 REVERT JUMPDEST PUSH1 0x0 DUP1 REVERT JUMPDEST PUSH1 0x0 PUSH1 0x1F NOT PUSH1 0x1F DUP4 ADD AND SWAP1 POP SWAP2 SWAP1 POP JUMP JUMPDEST PUSH32 0x4E487B7100000000000000000000000000000000000000000000000000000000 PUSH1 0x0 MSTORE PUSH1 0x41 PUSH1 0x4 MSTORE PUSH1 0x24 PUSH1 0x0 REVERT JUMPDEST PUSH2 0x33F4 DUP3 PUSH2 0x33AB JUMP JUMPDEST DUP2 ADD DUP2 DUP2 LT PUSH8 0xFFFFFFFFFFFFFFFF DUP3 GT OR ISZERO PUSH2 0x3413 JUMPI PUSH2 0x3412 PUSH2 0x33BC JUMP JUMPDEST JUMPDEST DUP1 PUSH1 0x40 MSTORE POP POP POP JUMP JUMPDEST PUSH1 0x0 PUSH2 0x3426 PUSH2 0x3357 JUMP JUMPDEST SWAP1 POP PUSH2 0x3432 DUP3 DUP3 PUSH2 0x33EB JUMP JUMPDEST SWAP2 SWAP1 POP JUMP JUMPDEST PUSH1 0x0 PUSH8 0xFFFFFFFFFFFFFFFF DUP3 GT ISZERO PUSH2 0x3452 JUMPI PUSH2 0x3451 PUSH2 0x33BC JUMP JUMPDEST JUMPDEST PUSH2 0x345B DUP3 PUSH2 0x33AB JUMP JUMPDEST SWAP1 POP PUSH1 0x20 DUP2 ADD SWAP1 POP SWAP2 SWAP1 POP JUMP JUMPDEST DUP3 DUP2 DUP4 CALLDATACOPY PUSH1 0x0 DUP4 DUP4 ADD MSTORE POP POP POP JUMP JUMPDEST PUSH1 0x0 PUSH2 0x348A PUSH2 0x3485 DUP5 PUSH2 0x3437 JUMP JUMPDEST PUSH2 0x341C JUMP JUMPDEST SWAP1 POP DUP3 DUP2 MSTORE PUSH1 0x20 DUP2 ADD DUP5 DUP5 DUP5 ADD GT ISZERO PUSH2 0x34A6 JUMPI PUSH2 0x34A5 PUSH2 0x33A6 JUMP JUMPDEST JUMPDEST PUSH2 0x34B1 DUP5 DUP3 DUP6 PUSH2 0x3468 JUMP JUMPDEST POP SWAP4 SWAP3 POP POP POP JUMP JUMPDEST PUSH1 0x0 DUP3 PUSH1 0x1F DUP4 ADD SLT PUSH2 0x34CE JUMPI PUSH2 0x34CD PUSH2 0x33A1 JUMP JUMPDEST JUMPDEST DUP2 CALLDATALOAD PUSH2 0x34DE DUP5 DUP3 PUSH1 0x20 DUP7 ADD PUSH2 0x3477 JUMP JUMPDEST SWAP2 POP POP SWAP3 SWAP2 POP POP JUMP JUMPDEST PUSH1 0x0 DUP1 PUSH1 0x0 DUP1 PUSH1 0x0 DUP1 PUSH1 0x0 DUP1 PUSH1 0x0 PUSH2 0x120 DUP11 DUP13 SUB SLT ISZERO PUSH2 0x350A JUMPI PUSH2 0x3509 PUSH2 0x3361 JUMP JUMPDEST JUMPDEST PUSH1 0x0 PUSH2 0x3518 DUP13 DUP3 DUP14 ADD PUSH2 0x338C JUMP JUMPDEST SWAP10 POP POP PUSH1 0x20 PUSH2 0x3529 DUP13 DUP3 DUP14 ADD PUSH2 0x338C JUMP JUMPDEST SWAP9 POP POP PUSH1 0x40 DUP11 ADD CALLDATALOAD PUSH8 0xFFFFFFFFFFFFFFFF DUP2 GT ISZERO PUSH2 0x354A JUMPI PUSH2 0x3549 PUSH2 0x3366 JUMP JUMPDEST JUMPDEST PUSH2 0x3556 DUP13 DUP3 DUP14 ADD PUSH2 0x34B9 JUMP JUMPDEST SWAP8 POP POP PUSH1 0x60 DUP11 ADD CALLDATALOAD PUSH8 0xFFFFFFFFFFFFFFFF DUP2 GT ISZERO PUSH2 0x3577 JUMPI PUSH2 0x3576 PUSH2 0x3366 JUMP JUMPDEST JUMPDEST PUSH2 0x3583 DUP13 DUP3 DUP14 ADD PUSH2 0x34B9 JUMP JUMPDEST SWAP7 POP POP PUSH1 0x80 DUP11 ADD CALLDATALOAD PUSH8 0xFFFFFFFFFFFFFFFF DUP2 GT ISZERO PUSH2 0x35A4 JUMPI PUSH2 0x35A3 PUSH2 0x3366 JUMP JUMPDEST JUMPDEST PUSH2 0x35B0 DUP13 DUP3 DUP14 ADD PUSH2 0x34B9 JUMP JUMPDEST SWAP6 POP POP PUSH1 0xA0 DUP11 ADD CALLDATALOAD PUSH8 0xFFFFFFFFFFFFFFFF DUP2 GT ISZERO PUSH2 0x35D1 JUMPI PUSH2 0x35D0 PUSH2 0x3366 JUMP JUMPDEST JUMPDEST PUSH2 0x35DD DUP13 DUP3 DUP14 ADD PUSH2 0x34B9 JUMP JUMPDEST SWAP5 POP POP PUSH1 0xC0 DUP11 ADD CALLDATALOAD PUSH8 0xFFFFFFFFFFFFFFFF DUP2 GT ISZERO PUSH2 0x35FE JUMPI PUSH2 0x35FD PUSH2 0x3366 JUMP JUMPDEST JUMPDEST PUSH2 0x360A DUP13 DUP3 DUP14 ADD PUSH2 0x34B9 JUMP JUMPDEST SWAP4 POP POP PUSH1 0xE0 DUP11 ADD CALLDATALOAD PUSH8 0xFFFFFFFFFFFFFFFF DUP2 GT ISZERO PUSH2 0x362B JUMPI PUSH2 0x362A PUSH2 0x3366 JUMP JUMPDEST JUMPDEST PUSH2 0x3637 DUP13 DUP3 DUP14 ADD PUSH2 0x34B9 JUMP JUMPDEST SWAP3 POP POP PUSH2 0x100 DUP11 ADD CALLDATALOAD PUSH8 0xFFFFFFFFFFFFFFFF DUP2 GT ISZERO PUSH2 0x3659 JUMPI PUSH2 0x3658 PUSH2 0x3366 JUMP JUMPDEST JUMPDEST PUSH2 0x3665 DUP13 DUP3 DUP14 ADD PUSH2 0x34B9 JUMP JUMPDEST SWAP2 POP POP SWAP3 SWAP6 SWAP9 POP SWAP3 SWAP6 SWAP9 POP SWAP3 SWAP6 SWAP9 JUMP JUMPDEST PUSH1 0x0 DUP2 ISZERO ISZERO SWAP1 POP SWAP2 SWAP1 POP JUMP JUMPDEST PUSH2 0x368A DUP2 PUSH2 0x3675 JUMP JUMPDEST DUP3 MSTORE POP POP JUMP JUMPDEST PUSH1 0x0 PUSH1 0x20 DUP3 ADD SWAP1 POP PUSH2 0x36A5 PUSH1 0x0 DUP4 ADD DUP5 PUSH2 0x3681 JUMP JUMPDEST SWAP3 SWAP2 POP POP JUMP JUMPDEST PUSH1 0x0 DUP1 PUSH1 0x0 PUSH1 0x60 DUP5 DUP7 SUB SLT ISZERO PUSH2 0x36C4 JUMPI PUSH2 0x36C3 PUSH2 0x3361 JUMP JUMPDEST JUMPDEST PUSH1 0x0 PUSH2 0x36D2 DUP7 DUP3 DUP8 ADD PUSH2 0x338C JUMP JUMPDEST SWAP4 POP POP PUSH1 0x20 DUP5 ADD CALLDATALOAD PUSH8 0xFFFFFFFFFFFFFFFF DUP2 GT ISZERO PUSH2 0x36F3 JUMPI PUSH2 0x36F2 PUSH2 0x3366 JUMP JUMPDEST JUMPDEST PUSH2 0x36FF DUP7 DUP3 DUP8 ADD PUSH2 0x34B9 JUMP JUMPDEST SWAP3 POP POP PUSH1 0x40 PUSH2 0x3710 DUP7 DUP3 DUP8 ADD PUSH2 0x338C JUMP JUMPDEST SWAP2 POP POP SWAP3 POP SWAP3 POP SWAP3 JUMP JUMPDEST PUSH1 0x0 PUSH1 0x20 DUP3 DUP5 SUB SLT ISZERO PUSH2 0x3730 JUMPI PUSH2 0x372F PUSH2 0x3361 JUMP JUMPDEST JUMPDEST PUSH1 0x0 PUSH2 0x373E DUP5 DUP3 DUP6 ADD PUSH2 0x338C JUMP JUMPDEST SWAP2 POP POP SWAP3 SWAP2 POP POP JUMP JUMPDEST PUSH1 0x0 DUP2 MLOAD SWAP1 POP SWAP2 SWAP1 POP JUMP JUMPDEST PUSH1 0x0 DUP3 DUP3 MSTORE PUSH1 0x20 DUP3 ADD SWAP1 POP SWAP3 SWAP2 POP POP JUMP JUMPDEST PUSH1 0x0 DUP2 SWAP1 POP PUSH1 0x20 DUP3 ADD SWAP1 POP SWAP2 SWAP1 POP JUMP JUMPDEST PUSH2 0x377C DUP2 PUSH2 0x336B JUMP JUMPDEST DUP3 MSTORE POP POP JUMP JUMPDEST PUSH1 0xC0 DUP3 ADD PUSH1 0x0 DUP3 ADD MLOAD PUSH2 0x3798 PUSH1 0x0 DUP6 ADD DUP3 PUSH2 0x3773 JUMP JUMPDEST POP PUSH1 0x20 DUP3 ADD MLOAD PUSH2 0x37AB PUSH1 0x20 DUP6 ADD DUP3 PUSH2 0x3773 JUMP JUMPDEST POP PUSH1 0x40 DUP3 ADD MLOAD PUSH2 0x37BE PUSH1 0x40 DUP6 ADD DUP3 PUSH2 0x3773 JUMP JUMPDEST POP PUSH1 0x60 DUP3 ADD MLOAD PUSH2 0x37D1 PUSH1 0x60 DUP6 ADD DUP3 PUSH2 0x3773 JUMP JUMPDEST POP PUSH1 0x80 DUP3 ADD MLOAD PUSH2 0x37E4 PUSH1 0x80 DUP6 ADD DUP3 PUSH2 0x3773 JUMP JUMPDEST POP PUSH1 0xA0 DUP3 ADD MLOAD PUSH2 0x37F7 PUSH1 0xA0 DUP6 ADD DUP3 PUSH2 0x3773 JUMP JUMPDEST POP POP POP POP JUMP JUMPDEST PUSH1 0x0 PUSH2 0x3809 DUP4 DUP4 PUSH2 0x3782 JUMP JUMPDEST PUSH1 0xC0 DUP4 ADD SWAP1 POP SWAP3 SWAP2 POP POP JUMP JUMPDEST PUSH1 0x0 PUSH1 0x20 DUP3 ADD SWAP1 POP SWAP2 SWAP1 POP JUMP JUMPDEST PUSH1 0x0 PUSH2 0x382D DUP3 PUSH2 0x3747 JUMP JUMPDEST PUSH2 0x3837 DUP2 DUP6 PUSH2 0x3752 JUMP JUMPDEST SWAP4 POP PUSH2 0x3842 DUP4 PUSH2 0x3763 JUMP JUMPDEST DUP1 PUSH1 0x0 JUMPDEST DUP4 DUP2 LT ISZERO PUSH2 0x3873 JUMPI DUP2 MLOAD PUSH2 0x385A DUP9 DUP3 PUSH2 0x37FD JUMP JUMPDEST SWAP8 POP PUSH2 0x3865 DUP4 PUSH2 0x3815 JUMP JUMPDEST SWAP3 POP POP PUSH1 0x1 DUP2 ADD SWAP1 POP PUSH2 0x3846 JUMP JUMPDEST POP DUP6 SWAP4 POP POP POP POP SWAP3 SWAP2 POP POP JUMP JUMPDEST PUSH1 0x0 PUSH1 0x20 DUP3 ADD SWAP1 POP DUP2 DUP2 SUB PUSH1 0x0 DUP4 ADD MSTORE PUSH2 0x389A DUP2 DUP5 PUSH2 0x3822 JUMP JUMPDEST SWAP1 POP SWAP3 SWAP2 POP POP JUMP JUMPDEST PUSH1 0x0 DUP2 MLOAD SWAP1 POP SWAP2 SWAP1 POP JUMP JUMPDEST PUSH1 0x0 DUP3 DUP3 MSTORE PUSH1 0x20 DUP3 ADD SWAP1 POP SWAP3 SWAP2 POP POP JUMP JUMPDEST PUSH1 0x0 DUP2 SWAP1 POP PUSH1 0x20 DUP3 ADD SWAP1 POP SWAP2 SWAP1 POP JUMP JUMPDEST PUSH1 0x0 PUSH20 0xFFFFFFFFFFFFFFFFFFFFFFFFFFFFFFFFFFFFFFFF DUP3 AND SWAP1 POP SWAP2 SWAP1 POP JUMP JUMPDEST PUSH1 0x0 PUSH2 0x38F9 DUP3 PUSH2 0x38CE JUMP JUMPDEST SWAP1 POP SWAP2 SWAP1 POP JUMP JUMPDEST PUSH2 0x3909 DUP2 PUSH2 0x38EE JUMP JUMPDEST DUP3 MSTORE POP POP JUMP JUMPDEST PUSH1 0x0 DUP2 MLOAD SWAP1 POP SWAP2 SWAP1 POP JUMP JUMPDEST PUSH1 0x0 DUP3 DUP3 MSTORE PUSH1 0x20 DUP3 ADD SWAP1 POP SWAP3 SWAP2 POP POP JUMP JUMPDEST PUSH1 0x0 JUMPDEST DUP4 DUP2 LT ISZERO PUSH2 0x3949 JUMPI DUP1 DUP3 ADD MLOAD DUP2 DUP5 ADD MSTORE PUSH1 0x20 DUP2 ADD SWAP1 POP PUSH2 0x392E JUMP JUMPDEST PUSH1 0x0 DUP5 DUP5 ADD MSTORE POP POP POP POP JUMP JUMPDEST PUSH1 0x0 PUSH2 0x3960 DUP3 PUSH2 0x390F JUMP JUMPDEST PUSH2 0x396A DUP2 DUP6 PUSH2 0x391A JUMP JUMPDEST SWAP4 POP PUSH2 0x397A DUP2 DUP6 PUSH1 0x20 DUP7 ADD PUSH2 0x392B JUMP JUMPDEST PUSH2 0x3983 DUP2 PUSH2 0x33AB JUMP JUMPDEST DUP5 ADD SWAP2 POP POP SWAP3 SWAP2 POP POP JUMP JUMPDEST PUSH1 0x0 PUSH2 0x180 DUP4 ADD PUSH1 0x0 DUP4 ADD MLOAD PUSH2 0x39A7 PUSH1 0x0 DUP7 ADD DUP3 PUSH2 0x3773 JUMP JUMPDEST POP PUSH1 0x20 DUP4 ADD MLOAD PUSH2 0x39BA PUSH1 0x20 DUP7 ADD DUP3 PUSH2 0x3773 JUMP JUMPDEST POP PUSH1 0x40 DUP4 ADD MLOAD PUSH2 0x39CD PUSH1 0x40 DUP7 ADD DUP3 PUSH2 0x3773 JUMP JUMPDEST POP PUSH1 0x60 DUP4 ADD MLOAD PUSH2 0x39E0 PUSH1 0x60 DUP7 ADD DUP3 PUSH2 0x3900 JUMP JUMPDEST POP PUSH1 0x80 DUP4 ADD MLOAD DUP5 DUP3 SUB PUSH1 0x80 DUP7 ADD MSTORE PUSH2 0x39F8 DUP3 DUP3 PUSH2 0x3955 JUMP JUMPDEST SWAP2 POP POP PUSH1 0xA0 DUP4 ADD MLOAD DUP5 DUP3 SUB PUSH1 0xA0 DUP7 ADD MSTORE PUSH2 0x3A12 DUP3 DUP3 PUSH2 0x3955 JUMP JUMPDEST SWAP2 POP POP PUSH1 0xC0 DUP4 ADD MLOAD DUP5 DUP3 SUB PUSH1 0xC0 DUP7 ADD MSTORE PUSH2 0x3A2C DUP3 DUP3 PUSH2 0x3955 JUMP JUMPDEST SWAP2 POP POP PUSH1 0xE0 DUP4 ADD MLOAD DUP5 DUP3 SUB PUSH1 0xE0 DUP7 ADD MSTORE PUSH2 0x3A46 DUP3 DUP3 PUSH2 0x3955 JUMP JUMPDEST SWAP2 POP POP PUSH2 0x100 DUP4 ADD MLOAD DUP5 DUP3 SUB PUSH2 0x100 DUP7 ADD MSTORE PUSH2 0x3A62 DUP3 DUP3 PUSH2 0x3955 JUMP JUMPDEST SWAP2 POP POP PUSH2 0x120 DUP4 ADD MLOAD DUP5 DUP3 SUB PUSH2 0x120 DUP7 ADD MSTORE PUSH2 0x3A7E DUP3 DUP3 PUSH2 0x3955 JUMP JUMPDEST SWAP2 POP POP PUSH2 0x140 DUP4 ADD MLOAD DUP5 DUP3 SUB PUSH2 0x140 DUP7 ADD MSTORE PUSH2 0x3A9A DUP3 DUP3 PUSH2 0x3955 JUMP JUMPDEST SWAP2 POP POP PUSH2 0x160 DUP4 ADD MLOAD DUP5 DUP3 SUB PUSH2 0x160 DUP7 ADD MSTORE PUSH2 0x3AB6 DUP3 DUP3 PUSH2 0x3955 JUMP JUMPDEST SWAP2 POP POP DUP1 SWAP2 POP POP SWAP3 SWAP2 POP POP JUMP JUMPDEST PUSH1 0x0 PUSH2 0x3ACF DUP4 DUP4 PUSH2 0x398E JUMP JUMPDEST SWAP1 POP SWAP3 SWAP2 POP POP JUMP JUMPDEST PUSH1 0x0 PUSH1 0x20 DUP3 ADD SWAP1 POP SWAP2 SWAP1 POP JUMP JUMPDEST PUSH1 0x0 PUSH2 0x3AEF DUP3 PUSH2 0x38A2 JUMP JUMPDEST PUSH2 0x3AF9 DUP2 DUP6 PUSH2 0x38AD JUMP JUMPDEST SWAP4 POP DUP4 PUSH1 0x20 DUP3 MUL DUP6 ADD PUSH2 0x3B0B DUP6 PUSH2 0x38BE JUMP JUMPDEST DUP1 PUSH1 0x0 JUMPDEST DUP6 DUP2 LT ISZERO PUSH2 0x3B47 JUMPI DUP5 DUP5 SUB DUP10 MSTORE DUP2 MLOAD PUSH2 0x3B28 DUP6 DUP3 PUSH2 0x3AC3 JUMP JUMPDEST SWAP5 POP PUSH2 0x3B33 DUP4 PUSH2 0x3AD7 JUMP JUMPDEST SWAP3 POP PUSH1 0x20 DUP11 ADD SWAP10 POP POP PUSH1 0x1 DUP2 ADD SWAP1 POP PUSH2 0x3B0F JUMP JUMPDEST POP DUP3 SWAP8 POP DUP8 SWAP6 POP POP POP POP POP POP SWAP3 SWAP2 POP POP JUMP JUMPDEST PUSH1 0x0 PUSH1 0x20 DUP3 ADD SWAP1 POP DUP2 DUP2 SUB PUSH1 0x0 DUP4 ADD MSTORE PUSH2 0x3B73 DUP2 DUP5 PUSH2 0x3AE4 JUMP JUMPDEST SWAP1 POP SWAP3 SWAP2 POP POP JUMP JUMPDEST PUSH1 0x0 PUSH1 0x20 DUP3 DUP5 SUB SLT ISZERO PUSH2 0x3B91 JUMPI PUSH2 0x3B90 PUSH2 0x3361 JUMP JUMPDEST JUMPDEST PUSH1 0x0 DUP3 ADD CALLDATALOAD PUSH8 0xFFFFFFFFFFFFFFFF DUP2 GT ISZERO PUSH2 0x3BAF JUMPI PUSH2 0x3BAE PUSH2 0x3366 JUMP JUMPDEST JUMPDEST PUSH2 0x3BBB DUP5 DUP3 DUP6 ADD PUSH2 0x34B9 JUMP JUMPDEST SWAP2 POP POP SWAP3 SWAP2 POP POP JUMP JUMPDEST PUSH2 0x3BCD DUP2 PUSH2 0x336B JUMP JUMPDEST DUP3 MSTORE POP POP JUMP JUMPDEST PUSH1 0x0 PUSH1 0x20 DUP3 ADD SWAP1 POP PUSH2 0x3BE8 PUSH1 0x0 DUP4 ADD DUP5 PUSH2 0x3BC4 JUMP JUMPDEST SWAP3 SWAP2 POP POP JUMP JUMPDEST PUSH1 0x0 DUP2 MLOAD SWAP1 POP SWAP2 SWAP1 POP JUMP JUMPDEST PUSH1 0x0 DUP3 DUP3 MSTORE PUSH1 0x20 DUP3 ADD SWAP1 POP SWAP3 SWAP2 POP POP JUMP JUMPDEST PUSH1 0x0 DUP2 SWAP1 POP PUSH1 0x20 DUP3 ADD SWAP1 POP SWAP2 SWAP1 POP JUMP JUMPDEST PUSH1 0x0 PUSH1 0x80 DUP4 ADD PUSH1 0x0 DUP4 ADD MLOAD PUSH2 0x3C32 PUSH1 0x0 DUP7 ADD DUP3 PUSH2 0x3773 JUMP JUMPDEST POP PUSH1 0x20 DUP4 ADD MLOAD PUSH2 0x3C45 PUSH1 0x20 DUP7 ADD DUP3 PUSH2 0x3773 JUMP JUMPDEST POP PUSH1 0x40 DUP4 ADD MLOAD DUP5 DUP3 SUB PUSH1 0x40 DUP7 ADD MSTORE PUSH2 0x3C5D DUP3 DUP3 PUSH2 0x3955 JUMP JUMPDEST SWAP2 POP POP PUSH1 0x60 DUP4 ADD MLOAD PUSH2 0x3C72 PUSH1 0x60 DUP7 ADD DUP3 PUSH2 0x3773 JUMP JUMPDEST POP DUP1 SWAP2 POP POP SWAP3 SWAP2 POP POP JUMP JUMPDEST PUSH1 0x0 PUSH2 0x3C89 DUP4 DUP4 PUSH2 0x3C1A JUMP JUMPDEST SWAP1 POP SWAP3 SWAP2 POP POP JUMP JUMPDEST PUSH1 0x0 PUSH1 0x20 DUP3 ADD SWAP1 POP SWAP2 SWAP1 POP JUMP JUMPDEST PUSH1 0x0 PUSH2 0x3CA9 DUP3 PUSH2 0x3BEE JUMP JUMPDEST PUSH2 0x3CB3 DUP2 DUP6 PUSH2 0x3BF9 JUMP JUMPDEST SWAP4 POP DUP4 PUSH1 0x20 DUP3 MUL DUP6 ADD PUSH2 0x3CC5 DUP6 PUSH2 0x3C0A JUMP JUMPDEST DUP1 PUSH1 0x0 JUMPDEST DUP6 DUP2 LT ISZERO PUSH2 0x3D01 JUMPI DUP5 DUP5 SUB DUP10 MSTORE DUP2 MLOAD PUSH2 0x3CE2 DUP6 DUP3 PUSH2 0x3C7D JUMP JUMPDEST SWAP5 POP PUSH2 0x3CED DUP4 PUSH2 0x3C91 JUMP JUMPDEST SWAP3 POP PUSH1 0x20 DUP11 ADD SWAP10 POP POP PUSH1 0x1 DUP2 ADD SWAP1 POP PUSH2 0x3CC9 JUMP JUMPDEST POP DUP3 SWAP8 POP DUP8 SWAP6 POP POP POP POP POP POP SWAP3 SWAP2 POP POP JUMP JUMPDEST PUSH1 0x0 PUSH1 0x20 DUP3 ADD SWAP1 POP DUP2 DUP2 SUB PUSH1 0x0 DUP4 ADD MSTORE PUSH2 0x3D2D DUP2 DUP5 PUSH2 0x3C9E JUMP JUMPDEST SWAP1 POP SWAP3 SWAP2 POP POP JUMP JUMPDEST PUSH1 0x0 DUP1 PUSH1 0x40 DUP4 DUP6 SUB SLT ISZERO PUSH2 0x3D4C JUMPI PUSH2 0x3D4B PUSH2 0x3361 JUMP JUMPDEST JUMPDEST PUSH1 0x0 PUSH2 0x3D5A DUP6 DUP3 DUP7 ADD PUSH2 0x338C JUMP JUMPDEST SWAP3 POP POP PUSH1 0x20 PUSH2 0x3D6B DUP6 DUP3 DUP7 ADD PUSH2 0x338C JUMP JUMPDEST SWAP2 POP POP SWAP3 POP SWAP3 SWAP1 POP JUMP JUMPDEST PUSH2 0x3D7E DUP2 PUSH2 0x38EE JUMP JUMPDEST DUP3 MSTORE POP POP JUMP JUMPDEST PUSH1 0x0 PUSH1 0x20 DUP3 ADD SWAP1 POP PUSH2 0x3D99 PUSH1 0x0 DUP4 ADD DUP5 PUSH2 0x3D75 JUMP JUMPDEST SWAP3 SWAP2 POP POP JUMP JUMPDEST PUSH1 0x0 DUP1 PUSH1 0x0 PUSH1 0x60 DUP5 DUP7 SUB SLT ISZERO PUSH2 0x3DB8 JUMPI PUSH2 0x3DB7 PUSH2 0x3361 JUMP JUMPDEST JUMPDEST PUSH1 0x0 PUSH2 0x3DC6 DUP7 DUP3 DUP8 ADD PUSH2 0x338C JUMP JUMPDEST SWAP4 POP POP PUSH1 0x20 PUSH2 0x3DD7 DUP7 DUP3 DUP8 ADD PUSH2 0x338C JUMP JUMPDEST SWAP3 POP POP PUSH1 0x40 PUSH2 0x3DE8 DUP7 DUP3 DUP8 ADD PUSH2 0x338C JUMP JUMPDEST SWAP2 POP POP SWAP3 POP SWAP3 POP SWAP3 JUMP JUMPDEST PUSH1 0x0 DUP1 PUSH1 0x0 DUP1 PUSH1 0x0 DUP1 PUSH1 0x0 DUP1 PUSH1 0x0 DUP1 PUSH2 0x140 DUP12 DUP14 SUB SLT ISZERO PUSH2 0x3E16 JUMPI PUSH2 0x3E15 PUSH2 0x3361 JUMP JUMPDEST JUMPDEST PUSH1 0x0 PUSH2 0x3E24 DUP14 DUP3 DUP15 ADD PUSH2 0x338C JUMP JUMPDEST SWAP11 POP POP PUSH1 0x20 PUSH2 0x3E35 DUP14 DUP3 DUP15 ADD PUSH2 0x338C JUMP JUMPDEST SWAP10 POP POP PUSH1 0x40 DUP12 ADD CALLDATALOAD PUSH8 0xFFFFFFFFFFFFFFFF DUP2 GT ISZERO PUSH2 0x3E56 JUMPI PUSH2 0x3E55 PUSH2 0x3366 JUMP JUMPDEST JUMPDEST PUSH2 0x3E62 DUP14 DUP3 DUP15 ADD PUSH2 0x34B9 JUMP JUMPDEST SWAP9 POP POP PUSH1 0x60 DUP12 ADD CALLDATALOAD PUSH8 0xFFFFFFFFFFFFFFFF DUP2 GT ISZERO PUSH2 0x3E83 JUMPI PUSH2 0x3E82 PUSH2 0x3366 JUMP JUMPDEST JUMPDEST PUSH2 0x3E8F DUP14 DUP3 DUP15 ADD PUSH2 0x34B9 JUMP JUMPDEST SWAP8 POP POP PUSH1 0x80 DUP12 ADD CALLDATALOAD PUSH8 0xFFFFFFFFFFFFFFFF DUP2 GT ISZERO PUSH2 0x3EB0 JUMPI PUSH2 0x3EAF PUSH2 0x3366 JUMP JUMPDEST JUMPDEST PUSH2 0x3EBC DUP14 DUP3 DUP15 ADD PUSH2 0x34B9 JUMP JUMPDEST SWAP7 POP POP PUSH1 0xA0 DUP12 ADD CALLDATALOAD PUSH8 0xFFFFFFFFFFFFFFFF DUP2 GT ISZERO PUSH2 0x3EDD JUMPI PUSH2 0x3EDC PUSH2 0x3366 JUMP JUMPDEST JUMPDEST PUSH2 0x3EE9 DUP14 DUP3 DUP15 ADD PUSH2 0x34B9 JUMP JUMPDEST SWAP6 POP POP PUSH1 0xC0 DUP12 ADD CALLDATALOAD PUSH8 0xFFFFFFFFFFFFFFFF DUP2 GT ISZERO PUSH2 0x3F0A JUMPI PUSH2 0x3F09 PUSH2 0x3366 JUMP JUMPDEST JUMPDEST PUSH2 0x3F16 DUP14 DUP3 DUP15 ADD PUSH2 0x34B9 JUMP JUMPDEST SWAP5 POP POP PUSH1 0xE0 DUP12 ADD CALLDATALOAD PUSH8 0xFFFFFFFFFFFFFFFF DUP2 GT ISZERO PUSH2 0x3F37 JUMPI PUSH2 0x3F36 PUSH2 0x3366 JUMP JUMPDEST JUMPDEST PUSH2 0x3F43 DUP14 DUP3 DUP15 ADD PUSH2 0x34B9 JUMP JUMPDEST SWAP4 POP POP PUSH2 0x100 DUP12 ADD CALLDATALOAD PUSH8 0xFFFFFFFFFFFFFFFF DUP2 GT ISZERO PUSH2 0x3F65 JUMPI PUSH2 0x3F64 PUSH2 0x3366 JUMP JUMPDEST JUMPDEST PUSH2 0x3F71 DUP14 DUP3 DUP15 ADD PUSH2 0x34B9 JUMP JUMPDEST SWAP3 POP POP PUSH2 0x120 DUP12 ADD CALLDATALOAD PUSH8 0xFFFFFFFFFFFFFFFF DUP2 GT ISZERO PUSH2 0x3F93 JUMPI PUSH2 0x3F92 PUSH2 0x3366 JUMP JUMPDEST JUMPDEST PUSH2 0x3F9F DUP14 DUP3 DUP15 ADD PUSH2 0x34B9 JUMP JUMPDEST SWAP2 POP POP SWAP3 SWAP6 SWAP9 SWAP12 SWAP2 SWAP5 SWAP8 SWAP11 POP SWAP3 SWAP6 SWAP9 POP JUMP JUMPDEST PUSH1 0x0 DUP1 PUSH1 0x40 DUP4 DUP6 SUB SLT ISZERO PUSH2 0x3FC8 JUMPI PUSH2 0x3FC7 PUSH2 0x3361 JUMP JUMPDEST JUMPDEST PUSH1 0x0 PUSH2 0x3FD6 DUP6 DUP3 DUP7 ADD PUSH2 0x338C JUMP JUMPDEST SWAP3 POP POP PUSH1 0x20 DUP4 ADD CALLDATALOAD PUSH8 0xFFFFFFFFFFFFFFFF DUP2 GT ISZERO PUSH2 0x3FF7 JUMPI PUSH2 0x3FF6 PUSH2 0x3366 JUMP JUMPDEST JUMPDEST PUSH2 0x4003 DUP6 DUP3 DUP7 ADD PUSH2 0x34B9 JUMP JUMPDEST SWAP2 POP POP SWAP3 POP SWAP3 SWAP1 POP JUMP JUMPDEST PUSH1 0x0 DUP2 MLOAD SWAP1 POP SWAP2 SWAP1 POP JUMP JUMPDEST PUSH1 0x0 DUP3 DUP3 MSTORE PUSH1 0x20 DUP3 ADD SWAP1 POP SWAP3 SWAP2 POP POP JUMP JUMPDEST PUSH1 0x0 DUP2 SWAP1 POP PUSH1 0x20 DUP3 ADD SWAP1 POP SWAP2 SWAP1 POP JUMP JUMPDEST PUSH1 0xC0 DUP3 ADD PUSH1 0x0 DUP3 ADD MLOAD PUSH2 0x404F PUSH1 0x0 DUP6 ADD DUP3 PUSH2 0x3773 JUMP JUMPDEST POP PUSH1 0x20 DUP3 ADD MLOAD PUSH2 0x4062 PUSH1 0x20 DUP6 ADD DUP3 PUSH2 0x3773 JUMP JUMPDEST POP PUSH1 0x40 DUP3 ADD MLOAD PUSH2 0x4075 PUSH1 0x40 DUP6 ADD DUP3 PUSH2 0x3773 JUMP JUMPDEST POP PUSH1 0x60 DUP3 ADD MLOAD PUSH2 0x4088 PUSH1 0x60 DUP6 ADD DUP3 PUSH2 0x3773 JUMP JUMPDEST POP PUSH1 0x80 DUP3 ADD MLOAD PUSH2 0x409B PUSH1 0x80 DUP6 ADD DUP3 PUSH2 0x3773 JUMP JUMPDEST POP PUSH1 0xA0 DUP3 ADD MLOAD PUSH2 0x40AE PUSH1 0xA0 DUP6 ADD DUP3 PUSH2 0x3773 JUMP JUMPDEST POP POP POP POP JUMP JUMPDEST PUSH1 0x0 PUSH2 0x40C0 DUP4 DUP4 PUSH2 0x4039 JUMP JUMPDEST PUSH1 0xC0 DUP4 ADD SWAP1 POP SWAP3 SWAP2 POP POP JUMP JUMPDEST PUSH1 0x0 PUSH1 0x20 DUP3 ADD SWAP1 POP SWAP2 SWAP1 POP JUMP JUMPDEST PUSH1 0x0 PUSH2 0x40E4 DUP3 PUSH2 0x400D JUMP JUMPDEST PUSH2 0x40EE DUP2 DUP6 PUSH2 0x4018 JUMP JUMPDEST SWAP4 POP PUSH2 0x40F9 DUP4 PUSH2 0x4029 JUMP JUMPDEST DUP1 PUSH1 0x0 JUMPDEST DUP4 DUP2 LT ISZERO PUSH2 0x412A JUMPI DUP2 MLOAD PUSH2 0x4111 DUP9 DUP3 PUSH2 0x40B4 JUMP JUMPDEST SWAP8 POP PUSH2 0x411C DUP4 PUSH2 0x40CC JUMP JUMPDEST SWAP3 POP POP PUSH1 0x1 DUP2 ADD SWAP1 POP PUSH2 0x40FD JUMP JUMPDEST POP DUP6 SWAP4 POP POP POP POP SWAP3 SWAP2 POP POP JUMP JUMPDEST PUSH1 0x0 PUSH1 0x20 DUP3 ADD SWAP1 POP DUP2 DUP2 SUB PUSH1 0x0 DUP4 ADD MSTORE PUSH2 0x4151 DUP2 DUP5 PUSH2 0x40D9 JUMP JUMPDEST SWAP1 POP SWAP3 SWAP2 POP POP JUMP JUMPDEST PUSH2 0x4162 DUP2 PUSH2 0x38EE JUMP JUMPDEST DUP2 EQ PUSH2 0x416D JUMPI PUSH1 0x0 DUP1 REVERT JUMPDEST POP JUMP JUMPDEST PUSH1 0x0 DUP2 CALLDATALOAD SWAP1 POP PUSH2 0x417F DUP2 PUSH2 0x4159 JUMP JUMPDEST SWAP3 SWAP2 POP POP JUMP JUMPDEST PUSH1 0x0 PUSH1 0x20 DUP3 DUP5 SUB SLT ISZERO PUSH2 0x419B JUMPI PUSH2 0x419A PUSH2 0x3361 JUMP JUMPDEST JUMPDEST PUSH1 0x0 PUSH2 0x41A9 DUP5 DUP3 DUP6 ADD PUSH2 0x4170 JUMP JUMPDEST SWAP2 POP POP SWAP3 SWAP2 POP POP JUMP JUMPDEST PUSH1 0x0 PUSH2 0x180 DUP4 ADD PUSH1 0x0 DUP4 ADD MLOAD PUSH2 0x41CB PUSH1 0x0 DUP7 ADD DUP3 PUSH2 0x3773 JUMP JUMPDEST POP PUSH1 0x20 DUP4 ADD MLOAD PUSH2 0x41DE PUSH1 0x20 DUP7 ADD DUP3 PUSH2 0x3773 JUMP JUMPDEST POP PUSH1 0x40 DUP4 ADD MLOAD PUSH2 0x41F1 PUSH1 0x40 DUP7 ADD DUP3 PUSH2 0x3773 JUMP JUMPDEST POP PUSH1 0x60 DUP4 ADD MLOAD PUSH2 0x4204 PUSH1 0x60 DUP7 ADD DUP3 PUSH2 0x3900 JUMP JUMPDEST POP PUSH1 0x80 DUP4 ADD MLOAD DUP5 DUP3 SUB PUSH1 0x80 DUP7 ADD MSTORE PUSH2 0x421C DUP3 DUP3 PUSH2 0x3955 JUMP JUMPDEST SWAP2 POP POP PUSH1 0xA0 DUP4 ADD MLOAD DUP5 DUP3 SUB PUSH1 0xA0 DUP7 ADD MSTORE PUSH2 0x4236 DUP3 DUP3 PUSH2 0x3955 JUMP JUMPDEST SWAP2 POP POP PUSH1 0xC0 DUP4 ADD MLOAD DUP5 DUP3 SUB PUSH1 0xC0 DUP7 ADD MSTORE PUSH2 0x4250 DUP3 DUP3 PUSH2 0x3955 JUMP JUMPDEST SWAP2 POP POP PUSH1 0xE0 DUP4 ADD MLOAD DUP5 DUP3 SUB PUSH1 0xE0 DUP7 ADD MSTORE PUSH2 0x426A DUP3 DUP3 PUSH2 0x3955 JUMP JUMPDEST SWAP2 POP POP PUSH2 0x100 DUP4 ADD MLOAD DUP5 DUP3 SUB PUSH2 0x100 DUP7 ADD MSTORE PUSH2 0x4286 DUP3 DUP3 PUSH2 0x3955 JUMP JUMPDEST SWAP2 POP POP PUSH2 0x120 DUP4 ADD MLOAD DUP5 DUP3 SUB PUSH2 0x120 DUP7 ADD MSTORE PUSH2 0x42A2 DUP3 DUP3 PUSH2 0x3955 JUMP JUMPDEST SWAP2 POP POP PUSH2 0x140 DUP4 ADD MLOAD DUP5 DUP3 SUB PUSH2 0x140 DUP7 ADD MSTORE PUSH2 0x42BE DUP3 DUP3 PUSH2 0x3955 JUMP JUMPDEST SWAP2 POP POP PUSH2 0x160 DUP4 ADD MLOAD DUP5 DUP3 SUB PUSH2 0x160 DUP7 ADD MSTORE PUSH2 0x42DA DUP3 DUP3 PUSH2 0x3955 JUMP JUMPDEST SWAP2 POP POP DUP1 SWAP2 POP POP SWAP3 SWAP2 POP POP JUMP JUMPDEST PUSH1 0x0 PUSH1 0x20 DUP3 ADD SWAP1 POP DUP2 DUP2 SUB PUSH1 0x0 DUP4 ADD MSTORE PUSH2 0x4301 DUP2 DUP5 PUSH2 0x41B2 JUMP JUMPDEST SWAP1 POP SWAP3 SWAP2 POP POP JUMP JUMPDEST PUSH1 0x0 DUP3 DUP3 MSTORE PUSH1 0x20 DUP3 ADD SWAP1 POP SWAP3 SWAP2 POP POP JUMP JUMPDEST PUSH32 0x4C697374456D706C6F796565437572736F723A2041646472657373206E6F7420 PUSH1 0x0 DUP3 ADD MSTORE PUSH32 0x62656C6F6E677320746F20746865206163636F756E7400000000000000000000 PUSH1 0x20 DUP3 ADD MSTORE POP JUMP JUMPDEST PUSH1 0x0 PUSH2 0x4376 PUSH1 0x36 DUP4 PUSH2 0x4309 JUMP JUMPDEST SWAP2 POP PUSH2 0x4381 DUP3 PUSH2 0x431A JUMP JUMPDEST PUSH1 0x40 DUP3 ADD SWAP1 POP SWAP2 SWAP1 POP JUMP JUMPDEST PUSH1 0x0 PUSH1 0x20 DUP3 ADD SWAP1 POP DUP2 DUP2 SUB PUSH1 0x0 DUP4 ADD MSTORE PUSH2 0x43A5 DUP2 PUSH2 0x4369 JUMP JUMPDEST SWAP1 POP SWAP2 SWAP1 POP JUMP JUMPDEST PUSH32 0x4C697374456D706C6F796565437572736F723A206964206973206E6F74206265 PUSH1 0x0 DUP3 ADD MSTORE PUSH32 0x6C6F6E6720746F20616464726573730000000000000000000000000000000000 PUSH1 0x20 DUP3 ADD MSTORE POP JUMP JUMPDEST PUSH1 0x0 PUSH2 0x4408 PUSH1 0x2F DUP4 PUSH2 0x4309 JUMP JUMPDEST SWAP2 POP PUSH2 0x4413 DUP3 PUSH2 0x43AC JUMP JUMPDEST PUSH1 0x40 DUP3 ADD SWAP1 POP SWAP2 SWAP1 POP JUMP JUMPDEST PUSH1 0x0 PUSH1 0x20 DUP3 ADD SWAP1 POP DUP2 DUP2 SUB PUSH1 0x0 DUP4 ADD MSTORE PUSH2 0x4437 DUP2 PUSH2 0x43FB JUMP JUMPDEST SWAP1 POP SWAP2 SWAP1 POP JUMP JUMPDEST PUSH1 0x0 DUP2 SWAP1 POP SWAP2 SWAP1 POP JUMP JUMPDEST PUSH2 0x4451 DUP2 PUSH2 0x443E JUMP JUMPDEST DUP3 MSTORE POP POP JUMP JUMPDEST PUSH1 0x0 PUSH1 0x60 DUP3 ADD SWAP1 POP PUSH2 0x446C PUSH1 0x0 DUP4 ADD DUP7 PUSH2 0x3BC4 JUMP JUMPDEST PUSH2 0x4479 PUSH1 0x20 DUP4 ADD DUP6 PUSH2 0x4448 JUMP JUMPDEST PUSH2 0x4486 PUSH1 0x40 DUP4 ADD DUP5 PUSH2 0x3BC4 JUMP JUMPDEST SWAP5 SWAP4 POP POP POP POP JUMP JUMPDEST PUSH2 0x4497 DUP2 PUSH2 0x3675 JUMP JUMPDEST DUP2 EQ PUSH2 0x44A2 JUMPI PUSH1 0x0 DUP1 REVERT JUMPDEST POP JUMP JUMPDEST PUSH1 0x0 DUP2 MLOAD SWAP1 POP PUSH2 0x44B4 DUP2 PUSH2 0x448E JUMP JUMPDEST SWAP3 SWAP2 POP POP JUMP JUMPDEST PUSH1 0x0 PUSH1 0x20 DUP3 DUP5 SUB SLT ISZERO PUSH2 0x44D0 JUMPI PUSH2 0x44CF PUSH2 0x3361 JUMP JUMPDEST JUMPDEST PUSH1 0x0 PUSH2 0x44DE DUP5 DUP3 DUP6 ADD PUSH2 0x44A5 JUMP JUMPDEST SWAP2 POP POP SWAP3 SWAP2 POP POP JUMP JUMPDEST PUSH1 0x0 PUSH2 0x44F2 DUP3 PUSH2 0x390F JUMP JUMPDEST PUSH2 0x44FC DUP2 DUP6 PUSH2 0x4309 JUMP JUMPDEST SWAP4 POP PUSH2 0x450C DUP2 DUP6 PUSH1 0x20 DUP7 ADD PUSH2 0x392B JUMP JUMPDEST PUSH2 0x4515 DUP2 PUSH2 0x33AB JUMP JUMPDEST DUP5 ADD SWAP2 POP POP SWAP3 SWAP2 POP POP JUMP JUMPDEST PUSH1 0x0 PUSH1 0x60 DUP3 ADD SWAP1 POP PUSH2 0x4535 PUSH1 0x0 DUP4 ADD DUP7 PUSH2 0x3BC4 JUMP JUMPDEST PUSH2 0x4542 PUSH1 0x20 DUP4 ADD DUP6 PUSH2 0x4448 JUMP JUMPDEST DUP2 DUP2 SUB PUSH1 0x40 DUP4 ADD MSTORE PUSH2 0x4554 DUP2 DUP5 PUSH2 0x44E7 JUMP JUMPDEST SWAP1 POP SWAP5 SWAP4 POP POP POP POP JUMP JUMPDEST PUSH32 0x456D706C6F79656520536B696C6C20437572736F723A20416C72656164792065 PUSH1 0x0 DUP3 ADD MSTORE PUSH32 0x78697374656420736B696C6C0000000000000000000000000000000000000000 PUSH1 0x20 DUP3 ADD MSTORE POP JUMP JUMPDEST PUSH1 0x0 PUSH2 0x45BA PUSH1 0x2C DUP4 PUSH2 0x4309 JUMP JUMPDEST SWAP2 POP PUSH2 0x45C5 DUP3 PUSH2 0x455E JUMP JUMPDEST PUSH1 0x40 DUP3 ADD SWAP1 POP SWAP2 SWAP1 POP JUMP JUMPDEST PUSH1 0x0 PUSH1 0x20 DUP3 ADD SWAP1 POP DUP2 DUP2 SUB PUSH1 0x0 DUP4 ADD MSTORE PUSH2 0x45E9 DUP2 PUSH2 0x45AD JUMP JUMPDEST SWAP1 POP SWAP2 SWAP1 POP JUMP JUMPDEST PUSH1 0x0 PUSH1 0x80 DUP4 ADD PUSH1 0x0 DUP4 ADD MLOAD PUSH2 0x4608 PUSH1 0x0 DUP7 ADD DUP3 PUSH2 0x3773 JUMP JUMPDEST POP PUSH1 0x20 DUP4 ADD MLOAD PUSH2 0x461B PUSH1 0x20 DUP7 ADD DUP3 PUSH2 0x3773 JUMP JUMPDEST POP PUSH1 0x40 DUP4 ADD MLOAD DUP5 DUP3 SUB PUSH1 0x40 DUP7 ADD MSTORE PUSH2 0x4633 DUP3 DUP3 PUSH2 0x3955 JUMP JUMPDEST SWAP2 POP POP PUSH1 0x60 DUP4 ADD MLOAD PUSH2 0x4648 PUSH1 0x60 DUP7 ADD DUP3 PUSH2 0x3773 JUMP JUMPDEST POP DUP1 SWAP2 POP POP SWAP3 SWAP2 POP POP JUMP JUMPDEST PUSH1 0x0 PUSH1 0x40 DUP3 ADD SWAP1 POP DUP2 DUP2 SUB PUSH1 0x0 DUP4 ADD MSTORE PUSH2 0x466D DUP2 DUP6 PUSH2 0x45F0 JUMP JUMPDEST SWAP1 POP PUSH2 0x467C PUSH1 0x20 DUP4 ADD DUP5 PUSH2 0x4448 JUMP JUMPDEST SWAP4 SWAP3 POP POP POP JUMP JUMPDEST PUSH1 0x0 PUSH1 0x20 DUP3 ADD SWAP1 POP PUSH2 0x4698 PUSH1 0x0 DUP4 ADD DUP5 PUSH2 0x4448 JUMP JUMPDEST SWAP3 SWAP2 POP POP JUMP JUMPDEST PUSH1 0x0 DUP2 MLOAD SWAP1 POP PUSH2 0x46AD DUP2 PUSH2 0x3375 JUMP JUMPDEST SWAP3 SWAP2 POP POP JUMP JUMPDEST PUSH1 0x0 PUSH1 0x20 DUP3 DUP5 SUB SLT ISZERO PUSH2 0x46C9 JUMPI PUSH2 0x46C8 PUSH2 0x3361 JUMP JUMPDEST JUMPDEST PUSH1 0x0 PUSH2 0x46D7 DUP5 DUP3 DUP6 ADD PUSH2 0x469E JUMP JUMPDEST SWAP2 POP POP SWAP3 SWAP2 POP POP JUMP JUMPDEST PUSH1 0x0 PUSH1 0x40 DUP3 ADD SWAP1 POP PUSH2 0x46F5 PUSH1 0x0 DUP4 ADD DUP6 PUSH2 0x3BC4 JUMP JUMPDEST PUSH2 0x4702 PUSH1 0x20 DUP4 ADD DUP5 PUSH2 0x4448 JUMP JUMPDEST SWAP4 SWAP3 POP POP POP JUMP JUMPDEST PUSH1 0x0 DUP1 REVERT JUMPDEST PUSH1 0x0 DUP1 REVERT JUMPDEST PUSH1 0x0 PUSH1 0xC0 DUP3 DUP5 SUB SLT ISZERO PUSH2 0x4729 JUMPI PUSH2 0x4728 PUSH2 0x4709 JUMP JUMPDEST JUMPDEST PUSH2 0x4733 PUSH1 0xC0 PUSH2 0x341C JUMP JUMPDEST SWAP1 POP PUSH1 0x0 PUSH2 0x4743 DUP5 DUP3 DUP6 ADD PUSH2 0x469E JUMP JUMPDEST PUSH1 0x0 DUP4 ADD MSTORE POP PUSH1 0x20 PUSH2 0x4757 DUP5 DUP3 DUP6 ADD PUSH2 0x469E JUMP JUMPDEST PUSH1 0x20 DUP4 ADD MSTORE POP PUSH1 0x40 PUSH2 0x476B DUP5 DUP3 DUP6 ADD PUSH2 0x469E JUMP JUMPDEST PUSH1 0x40 DUP4 ADD MSTORE POP PUSH1 0x60 PUSH2 0x477F DUP5 DUP3 DUP6 ADD PUSH2 0x469E JUMP JUMPDEST PUSH1 0x60 DUP4 ADD MSTORE POP PUSH1 0x80 PUSH2 0x4793 DUP5 DUP3 DUP6 ADD PUSH2 0x469E JUMP JUMPDEST PUSH1 0x80 DUP4 ADD MSTORE POP PUSH1 0xA0 PUSH2 0x47A7 DUP5 DUP3 DUP6 ADD PUSH2 0x469E JUMP JUMPDEST PUSH1 0xA0 DUP4 ADD MSTORE POP SWAP3 SWAP2 POP POP JUMP JUMPDEST PUSH1 0x0 PUSH1 0xC0 DUP3 DUP5 SUB SLT ISZERO PUSH2 0x47C9 JUMPI PUSH2 0x47C8 PUSH2 0x3361 JUMP JUMPDEST JUMPDEST PUSH1 0x0 PUSH2 0x47D7 DUP5 DUP3 DUP6 ADD PUSH2 0x4713 JUMP JUMPDEST SWAP2 POP POP SWAP3 SWAP2 POP POP JUMP JUMPDEST PUSH32 0x4E487B7100000000000000000000000000000000000000000000000000000000 PUSH1 0x0 MSTORE PUSH1 0x11 PUSH1 0x4 MSTORE PUSH1 0x24 PUSH1 0x0 REVERT JUMPDEST PUSH1 0x0 PUSH2 0x481A DUP3 PUSH2 0x336B JUMP JUMPDEST SWAP2 POP PUSH32 0xFFFFFFFFFFFFFFFFFFFFFFFFFFFFFFFFFFFFFFFFFFFFFFFFFFFFFFFFFFFFFFFF DUP3 SUB PUSH2 0x484C JUMPI PUSH2 0x484B PUSH2 0x47E0 JUMP JUMPDEST JUMPDEST PUSH1 0x1 DUP3 ADD SWAP1 POP SWAP2 SWAP1 POP JUMP JUMPDEST PUSH32 0x4E487B7100000000000000000000000000000000000000000000000000000000 PUSH1 0x0 MSTORE PUSH1 0x32 PUSH1 0x4 MSTORE PUSH1 0x24 PUSH1 0x0 REVERT JUMPDEST PUSH1 0x0 PUSH2 0x4891 DUP3 PUSH2 0x336B JUMP JUMPDEST SWAP2 POP PUSH2 0x489C DUP4 PUSH2 0x336B JUMP JUMPDEST SWAP3 POP DUP3 DUP3 ADD SWAP1 POP DUP1 DUP3 GT ISZERO PUSH2 0x48B4 JUMPI PUSH2 0x48B3 PUSH2 0x47E0 JUMP JUMPDEST JUMPDEST SWAP3 SWAP2 POP POP JUMP JUMPDEST PUSH1 0x0 DUP2 MLOAD SWAP1 POP PUSH2 0x48C9 DUP2 PUSH2 0x4159 JUMP JUMPDEST SWAP3 SWAP2 POP POP JUMP JUMPDEST PUSH1 0x0 PUSH2 0x48E2 PUSH2 0x48DD DUP5 PUSH2 0x3437 JUMP JUMPDEST PUSH2 0x341C JUMP JUMPDEST SWAP1 POP DUP3 DUP2 MSTORE PUSH1 0x20 DUP2 ADD DUP5 DUP5 DUP5 ADD GT ISZERO PUSH2 0x48FE JUMPI PUSH2 0x48FD PUSH2 0x33A6 JUMP JUMPDEST JUMPDEST PUSH2 0x4909 DUP5 DUP3 DUP6 PUSH2 0x392B JUMP JUMPDEST POP SWAP4 SWAP3 POP POP POP JUMP JUMPDEST PUSH1 0x0 DUP3 PUSH1 0x1F DUP4 ADD SLT PUSH2 0x4926 JUMPI PUSH2 0x4925 PUSH2 0x33A1 JUMP JUMPDEST JUMPDEST DUP2 MLOAD PUSH2 0x4936 DUP5 DUP3 PUSH1 0x20 DUP7 ADD PUSH2 0x48CF JUMP JUMPDEST SWAP2 POP POP SWAP3 SWAP2 POP POP JUMP JUMPDEST PUSH1 0x0 PUSH2 0x180 DUP3 DUP5 SUB SLT ISZERO PUSH2 0x4956 JUMPI PUSH2 0x4955 PUSH2 0x4709 JUMP JUMPDEST JUMPDEST PUSH2 0x4961 PUSH2 0x180 PUSH2 0x341C JUMP JUMPDEST SWAP1 POP PUSH1 0x0 PUSH2 0x4971 DUP5 DUP3 DUP6 ADD PUSH2 0x469E JUMP JUMPDEST PUSH1 0x0 DUP4 ADD MSTORE POP PUSH1 0x20 PUSH2 0x4985 DUP5 DUP3 DUP6 ADD PUSH2 0x469E JUMP JUMPDEST PUSH1 0x20 DUP4 ADD MSTORE POP PUSH1 0x40 PUSH2 0x4999 DUP5 DUP3 DUP6 ADD PUSH2 0x469E JUMP JUMPDEST PUSH1 0x40 DUP4 ADD MSTORE POP PUSH1 0x60 PUSH2 0x49AD DUP5 DUP3 DUP6 ADD PUSH2 0x48BA JUMP JUMPDEST PUSH1 0x60 DUP4 ADD MSTORE POP PUSH1 0x80 DUP3 ADD MLOAD PUSH8 0xFFFFFFFFFFFFFFFF DUP2 GT ISZERO PUSH2 0x49D1 JUMPI PUSH2 0x49D0 PUSH2 0x470E JUMP JUMPDEST JUMPDEST PUSH2 0x49DD DUP5 DUP3 DUP6 ADD PUSH2 0x4911 JUMP JUMPDEST PUSH1 0x80 DUP4 ADD MSTORE POP PUSH1 0xA0 DUP3 ADD MLOAD PUSH8 0xFFFFFFFFFFFFFFFF DUP2 GT ISZERO PUSH2 0x4A01 JUMPI PUSH2 0x4A00 PUSH2 0x470E JUMP JUMPDEST JUMPDEST PUSH2 0x4A0D DUP5 DUP3 DUP6 ADD PUSH2 0x4911 JUMP JUMPDEST PUSH1 0xA0 DUP4 ADD MSTORE POP PUSH1 0xC0 DUP3 ADD MLOAD PUSH8 0xFFFFFFFFFFFFFFFF DUP2 GT ISZERO PUSH2 0x4A31 JUMPI PUSH2 0x4A30 PUSH2 0x470E JUMP JUMPDEST JUMPDEST PUSH2 0x4A3D DUP5 DUP3 DUP6 ADD PUSH2 0x4911 JUMP JUMPDEST PUSH1 0xC0 DUP4 ADD MSTORE POP PUSH1 0xE0 DUP3 ADD MLOAD PUSH8 0xFFFFFFFFFFFFFFFF DUP2 GT ISZERO PUSH2 0x4A61 JUMPI PUSH2 0x4A60 PUSH2 0x470E JUMP JUMPDEST JUMPDEST PUSH2 0x4A6D DUP5 DUP3 DUP6 ADD PUSH2 0x4911 JUMP JUMPDEST PUSH1 0xE0 DUP4 ADD MSTORE POP PUSH2 0x100 DUP3 ADD MLOAD PUSH8 0xFFFFFFFFFFFFFFFF DUP2 GT ISZERO PUSH2 0x4A92 JUMPI PUSH2 0x4A91 PUSH2 0x470E JUMP JUMPDEST JUMPDEST PUSH2 0x4A9E DUP5 DUP3 DUP6 ADD PUSH2 0x4911 JUMP JUMPDEST PUSH2 0x100 DUP4 ADD MSTORE POP PUSH2 0x120 DUP3 ADD MLOAD PUSH8 0xFFFFFFFFFFFFFFFF DUP2 GT ISZERO PUSH2 0x4AC4 JUMPI PUSH2 0x4AC3 PUSH2 0x470E JUMP JUMPDEST JUMPDEST PUSH2 0x4AD0 DUP5 DUP3 DUP6 ADD PUSH2 0x4911 JUMP JUMPDEST PUSH2 0x120 DUP4 ADD MSTORE POP PUSH2 0x140 DUP3 ADD MLOAD PUSH8 0xFFFFFFFFFFFFFFFF DUP2 GT ISZERO PUSH2 0x4AF6 JUMPI PUSH2 0x4AF5 PUSH2 0x470E JUMP JUMPDEST JUMPDEST PUSH2 0x4B02 DUP5 DUP3 DUP6 ADD PUSH2 0x4911 JUMP JUMPDEST PUSH2 0x140 DUP4 ADD MSTORE POP PUSH2 0x160 DUP3 ADD MLOAD PUSH8 0xFFFFFFFFFFFFFFFF DUP2 GT ISZERO PUSH2 0x4B28 JUMPI PUSH2 0x4B27 PUSH2 0x470E JUMP JUMPDEST JUMPDEST PUSH2 0x4B34 DUP5 DUP3 DUP6 ADD PUSH2 0x4911 JUMP JUMPDEST PUSH2 0x160 DUP4 ADD MSTORE POP SWAP3 SWAP2 POP POP JUMP JUMPDEST PUSH1 0x0 PUSH1 0x20 DUP3 DUP5 SUB SLT ISZERO PUSH2 0x4B57 JUMPI PUSH2 0x4B56 PUSH2 0x3361 JUMP JUMPDEST JUMPDEST PUSH1 0x0 DUP3 ADD MLOAD PUSH8 0xFFFFFFFFFFFFFFFF DUP2 GT ISZERO PUSH2 0x4B75 JUMPI PUSH2 0x4B74 PUSH2 0x3366 JUMP JUMPDEST JUMPDEST PUSH2 0x4B81 DUP5 DUP3 DUP6 ADD PUSH2 0x493F JUMP JUMPDEST SWAP2 POP POP SWAP3 SWAP2 POP POP JUMP JUMPDEST PUSH32 0x4C697374456D706C6F796565437572736F723A204E6F7420686173206163636F PUSH1 0x0 DUP3 ADD MSTORE PUSH32 0x756E740000000000000000000000000000000000000000000000000000000000 PUSH1 0x20 DUP3 ADD MSTORE POP JUMP JUMPDEST PUSH1 0x0 PUSH2 0x4BE6 PUSH1 0x23 DUP4 PUSH2 0x4309 JUMP JUMPDEST SWAP2 POP PUSH2 0x4BF1 DUP3 PUSH2 0x4B8A JUMP JUMPDEST PUSH1 0x40 DUP3 ADD SWAP1 POP SWAP2 SWAP1 POP JUMP JUMPDEST PUSH1 0x0 PUSH1 0x20 DUP3 ADD SWAP1 POP DUP2 DUP2 SUB PUSH1 0x0 DUP4 ADD MSTORE PUSH2 0x4C15 DUP2 PUSH2 0x4BD9 JUMP JUMPDEST SWAP1 POP SWAP2 SWAP1 POP JUMP JUMPDEST PUSH1 0x0 PUSH1 0x40 DUP3 ADD SWAP1 POP PUSH2 0x4C31 PUSH1 0x0 DUP4 ADD DUP6 PUSH2 0x3D75 JUMP JUMPDEST PUSH2 0x4C3E PUSH1 0x20 DUP4 ADD DUP5 PUSH2 0x4448 JUMP JUMPDEST SWAP4 SWAP3 POP POP POP JUMP JUMPDEST PUSH1 0x0 PUSH1 0x80 DUP3 DUP5 SUB SLT ISZERO PUSH2 0x4C5B JUMPI PUSH2 0x4C5A PUSH2 0x4709 JUMP JUMPDEST JUMPDEST PUSH2 0x4C65 PUSH1 0x80 PUSH2 0x341C JUMP JUMPDEST SWAP1 POP PUSH1 0x0 PUSH2 0x4C75 DUP5 DUP3 DUP6 ADD PUSH2 0x469E JUMP JUMPDEST PUSH1 0x0 DUP4 ADD MSTORE POP PUSH1 0x20 PUSH2 0x4C89 DUP5 DUP3 DUP6 ADD PUSH2 0x469E JUMP JUMPDEST PUSH1 0x20 DUP4 ADD MSTORE POP PUSH1 0x40 DUP3 ADD MLOAD PUSH8 0xFFFFFFFFFFFFFFFF DUP2 GT ISZERO PUSH2 0x4CAD JUMPI PUSH2 0x4CAC PUSH2 0x470E JUMP JUMPDEST JUMPDEST PUSH2 0x4CB9 DUP5 DUP3 DUP6 ADD PUSH2 0x4911 JUMP JUMPDEST PUSH1 0x40 DUP4 ADD MSTORE POP PUSH1 0x60 PUSH2 0x4CCD DUP5 DUP3 DUP6 ADD PUSH2 0x469E JUMP JUMPDEST PUSH1 0x60 DUP4 ADD MSTORE POP SWAP3 SWAP2 POP POP JUMP JUMPDEST PUSH1 0x0 PUSH1 0x20 DUP3 DUP5 SUB SLT ISZERO PUSH2 0x4CEF JUMPI PUSH2 0x4CEE PUSH2 0x3361 JUMP JUMPDEST JUMPDEST PUSH1 0x0 DUP3 ADD MLOAD PUSH8 0xFFFFFFFFFFFFFFFF DUP2 GT ISZERO PUSH2 0x4D0D JUMPI PUSH2 0x4D0C PUSH2 0x3366 JUMP JUMPDEST JUMPDEST PUSH2 0x4D19 DUP5 DUP3 DUP6 ADD PUSH2 0x4C45 JUMP JUMPDEST SWAP2 POP POP SWAP3 SWAP2 POP POP JUMP JUMPDEST PUSH32 0x456D706C6F79656520536B696C6C20437572736F723A20526571756573742073 PUSH1 0x0 DUP3 ADD MSTORE PUSH32 0x6B696C6C00000000000000000000000000000000000000000000000000000000 PUSH1 0x20 DUP3 ADD MSTORE POP JUMP JUMPDEST PUSH1 0x0 PUSH2 0x4D7E PUSH1 0x24 DUP4 PUSH2 0x4309 JUMP JUMPDEST SWAP2 POP PUSH2 0x4D89 DUP3 PUSH2 0x4D22 JUMP JUMPDEST PUSH1 0x40 DUP3 ADD SWAP1 POP SWAP2 SWAP1 POP JUMP JUMPDEST PUSH1 0x0 PUSH1 0x20 DUP3 ADD SWAP1 POP DUP2 DUP2 SUB PUSH1 0x0 DUP4 ADD MSTORE PUSH2 0x4DAD DUP2 PUSH2 0x4D71 JUMP JUMPDEST SWAP1 POP SWAP2 SWAP1 POP JUMP JUMPDEST PUSH32 0x4C6973744170706C79437572736F723A206861644170706C6965640000000000 PUSH1 0x0 DUP3 ADD MSTORE POP JUMP JUMPDEST PUSH1 0x0 PUSH2 0x4DEA PUSH1 0x1B DUP4 PUSH2 0x4309 JUMP JUMPDEST SWAP2 POP PUSH2 0x4DF5 DUP3 PUSH2 0x4DB4 JUMP JUMPDEST PUSH1 0x20 DUP3 ADD SWAP1 POP SWAP2 SWAP1 POP JUMP JUMPDEST PUSH1 0x0 PUSH1 0x20 DUP3 ADD SWAP1 POP DUP2 DUP2 SUB PUSH1 0x0 DUP4 ADD MSTORE PUSH2 0x4E19 DUP2 PUSH2 0x4DDD JUMP JUMPDEST SWAP1 POP SWAP2 SWAP1 POP JUMP JUMPDEST PUSH1 0xC0 DUP3 ADD PUSH1 0x0 DUP3 ADD MLOAD PUSH2 0x4E36 PUSH1 0x0 DUP6 ADD DUP3 PUSH2 0x3773 JUMP JUMPDEST POP PUSH1 0x20 DUP3 ADD MLOAD PUSH2 0x4E49 PUSH1 0x20 DUP6 ADD DUP3 PUSH2 0x3773 JUMP JUMPDEST POP PUSH1 0x40 DUP3 ADD MLOAD PUSH2 0x4E5C PUSH1 0x40 DUP6 ADD DUP3 PUSH2 0x3773 JUMP JUMPDEST POP PUSH1 0x60 DUP3 ADD MLOAD PUSH2 0x4E6F PUSH1 0x60 DUP6 ADD DUP3 PUSH2 0x3773 JUMP JUMPDEST POP PUSH1 0x80 DUP3 ADD MLOAD PUSH2 0x4E82 PUSH1 0x80 DUP6 ADD DUP3 PUSH2 0x3773 JUMP JUMPDEST POP PUSH1 0xA0 DUP3 ADD MLOAD PUSH2 0x4E95 PUSH1 0xA0 DUP6 ADD DUP3 PUSH2 0x3773 JUMP JUMPDEST POP POP POP POP JUMP JUMPDEST PUSH1 0x0 PUSH1 0xE0 DUP3 ADD SWAP1 POP PUSH2 0x4EB0 PUSH1 0x0 DUP4 ADD DUP6 PUSH2 0x4E20 JUMP JUMPDEST PUSH2 0x4EBD PUSH1 0xC0 DUP4 ADD DUP5 PUSH2 0x4448 JUMP JUMPDEST SWAP4 SWAP3 POP POP POP JUMP JUMPDEST PUSH32 0x4C697374456D706C6F796565437572736F723A20416C72656164792065786973 PUSH1 0x0 DUP3 ADD MSTORE PUSH32 0x746564206163636F756E74000000000000000000000000000000000000000000 PUSH1 0x20 DUP3 ADD MSTORE POP JUMP JUMPDEST PUSH1 0x0 PUSH2 0x4F20 PUSH1 0x2B DUP4 PUSH2 0x4309 JUMP JUMPDEST SWAP2 POP PUSH2 0x4F2B DUP3 PUSH2 0x4EC4 JUMP JUMPDEST PUSH1 0x40 DUP3 ADD SWAP1 POP SWAP2 SWAP1 POP JUMP JUMPDEST PUSH1 0x0 PUSH1 0x20 DUP3 ADD SWAP1 POP DUP2 DUP2 SUB PUSH1 0x0 DUP4 ADD MSTORE PUSH2 0x4F4F DUP2 PUSH2 0x4F13 JUMP JUMPDEST SWAP1 POP SWAP2 SWAP1 POP JUMP JUMPDEST PUSH1 0x0 PUSH1 0x40 DUP3 ADD SWAP1 POP DUP2 DUP2 SUB PUSH1 0x0 DUP4 ADD MSTORE PUSH2 0x4F70 DUP2 DUP6 PUSH2 0x41B2 JUMP JUMPDEST SWAP1 POP PUSH2 0x4F7F PUSH1 0x20 DUP4 ADD DUP5 PUSH2 0x4448 JUMP JUMPDEST SWAP4 SWAP3 POP POP POP JUMP JUMPDEST PUSH1 0x0 PUSH1 0x60 DUP3 ADD SWAP1 POP PUSH2 0x4F9B PUSH1 0x0 DUP4 ADD DUP7 PUSH2 0x4448 JUMP JUMPDEST PUSH2 0x4FA8 PUSH1 0x20 DUP4 ADD DUP6 PUSH2 0x3BC4 JUMP JUMPDEST DUP2 DUP2 SUB PUSH1 0x40 DUP4 ADD MSTORE PUSH2 0x4FBA DUP2 DUP5 PUSH2 0x44E7 JUMP JUMPDEST SWAP1 POP SWAP5 SWAP4 POP POP POP POP JUMP JUMPDEST PUSH1 0x0 PUSH1 0xC0 DUP3 DUP5 SUB SLT ISZERO PUSH2 0x4FDA JUMPI PUSH2 0x4FD9 PUSH2 0x4709 JUMP JUMPDEST JUMPDEST PUSH2 0x4FE4 PUSH1 0xC0 PUSH2 0x341C JUMP JUMPDEST SWAP1 POP PUSH1 0x0 PUSH2 0x4FF4 DUP5 DUP3 DUP6 ADD PUSH2 0x469E JUMP JUMPDEST PUSH1 0x0 DUP4 ADD MSTORE POP PUSH1 0x20 PUSH2 0x5008 DUP5 DUP3 DUP6 ADD PUSH2 0x469E JUMP JUMPDEST PUSH1 0x20 DUP4 ADD MSTORE POP PUSH1 0x40 PUSH2 0x501C DUP5 DUP3 DUP6 ADD PUSH2 0x469E JUMP JUMPDEST PUSH1 0x40 DUP4 ADD MSTORE POP PUSH1 0x60 PUSH2 0x5030 DUP5 DUP3 DUP6 ADD PUSH2 0x469E JUMP JUMPDEST PUSH1 0x60 DUP4 ADD MSTORE POP PUSH1 0x80 PUSH2 0x5044 DUP5 DUP3 DUP6 ADD PUSH2 0x469E JUMP JUMPDEST PUSH1 0x80 DUP4 ADD MSTORE POP PUSH1 0xA0 PUSH2 0x5058 DUP5 DUP3 DUP6 ADD PUSH2 0x469E JUMP JUMPDEST PUSH1 0xA0 DUP4 ADD MSTORE POP SWAP3 SWAP2 POP POP JUMP JUMPDEST PUSH1 0x0 PUSH1 0xC0 DUP3 DUP5 SUB SLT ISZERO PUSH2 0x507A JUMPI PUSH2 0x5079 PUSH2 0x3361 JUMP JUMPDEST JUMPDEST PUSH1 0x0 PUSH2 0x5088 DUP5 DUP3 DUP6 ADD PUSH2 0x4FC4 JUMP JUMPDEST SWAP2 POP POP SWAP3 SWAP2 POP POP JUMP JUMPDEST PUSH32 0x4C697374456D706C6F796565437572736F723A2063616C6C6572206973206E6F PUSH1 0x0 DUP3 ADD MSTORE PUSH32 0x7420746865207573657200000000000000000000000000000000000000000000 PUSH1 0x20 DUP3 ADD MSTORE POP JUMP JUMPDEST PUSH1 0x0 PUSH2 0x50ED PUSH1 0x2A DUP4 PUSH2 0x4309 JUMP JUMPDEST SWAP2 POP PUSH2 0x50F8 DUP3 PUSH2 0x5091 JUMP JUMPDEST PUSH1 0x40 DUP3 ADD SWAP1 POP SWAP2 SWAP1 POP JUMP JUMPDEST PUSH1 0x0 PUSH1 0x20 DUP3 ADD SWAP1 POP DUP2 DUP2 SUB PUSH1 0x0 DUP4 ADD MSTORE PUSH2 0x511C DUP2 PUSH2 0x50E0 JUMP JUMPDEST SWAP1 POP SWAP2 SWAP1 POP JUMP JUMPDEST PUSH32 0x4F776E61626C653A206E6577206F776E657220697320746865207A65726F2061 PUSH1 0x0 DUP3 ADD MSTORE PUSH32 0x6464726573730000000000000000000000000000000000000000000000000000 PUSH1 0x20 DUP3 ADD MSTORE POP JUMP JUMPDEST PUSH1 0x0 PUSH2 0x517F PUSH1 0x26 DUP4 PUSH2 0x4309 JUMP JUMPDEST SWAP2 POP PUSH2 0x518A DUP3 PUSH2 0x5123 JUMP JUMPDEST PUSH1 0x40 DUP3 ADD SWAP1 POP SWAP2 SWAP1 POP JUMP JUMPDEST PUSH1 0x0 PUSH1 0x20 DUP3 ADD SWAP1 POP DUP2 DUP2 SUB PUSH1 0x0 DUP4 ADD MSTORE PUSH2 0x51AE DUP2 PUSH2 0x5172 JUMP JUMPDEST SWAP1 POP SWAP2 SWAP1 POP JUMP JUMPDEST PUSH1 0x0 DUP2 SWAP1 POP SWAP3 SWAP2 POP POP JUMP JUMPDEST PUSH1 0x0 PUSH2 0x51CB DUP3 PUSH2 0x390F JUMP JUMPDEST PUSH2 0x51D5 DUP2 DUP6 PUSH2 0x51B5 JUMP JUMPDEST SWAP4 POP PUSH2 0x51E5 DUP2 DUP6 PUSH1 0x20 DUP7 ADD PUSH2 0x392B JUMP JUMPDEST DUP1 DUP5 ADD SWAP2 POP POP SWAP3 SWAP2 POP POP JUMP JUMPDEST PUSH1 0x0 PUSH2 0x51FD DUP3 DUP5 PUSH2 0x51C0 JUMP JUMPDEST SWAP2 POP DUP2 SWAP1 POP SWAP3 SWAP2 POP POP JUMP JUMPDEST PUSH32 0x4F776E61626C653A2063616C6C6572206973206E6F7420746865206F776E6572 PUSH1 0x0 DUP3 ADD MSTORE POP JUMP JUMPDEST PUSH1 0x0 PUSH2 0x523E PUSH1 0x20 DUP4 PUSH2 0x4309 JUMP JUMPDEST SWAP2 POP PUSH2 0x5249 DUP3 PUSH2 0x5208 JUMP JUMPDEST PUSH1 0x20 DUP3 ADD SWAP1 POP SWAP2 SWAP1 POP JUMP JUMPDEST PUSH1 0x0 PUSH1 0x20 DUP3 ADD SWAP1 POP DUP2 DUP2 SUB PUSH1 0x0 DUP4 ADD MSTORE PUSH2 0x526D DUP2 PUSH2 0x5231 JUMP JUMPDEST SWAP1 POP SWAP2 SWAP1 POP JUMP INVALID LOG2 PUSH5 0x6970667358 0x22 SLT KECCAK256 0xC7 0x2C DUP16 0xF7 PUSH9 0x7B9F0DAEDEE0AE9C4B PUSH2 0x8A25 LOG0 PUSH32 0xED1427643DC6AE05B8B724E03464736F6C634300081100330000000000000000 "
		},
		"gasEstimates": {
			"creation": {
				"codeDepositCost": "4232400",
				"executionCost": "infinite",
				"totalCost": "infinite"
			},
			"external": {
				"_checkApplyIdBelongsToEmployeeId(uint256,uint256)": "infinite",
				"_checkApplyIdBelongsToPostId(uint256,uint256)": "infinite",
				"_checkExistApply(uint256,uint256)": "infinite",
				"_checkExistEmployeeAccount()": "infinite",
				"_checkExistSkill(uint256,string)": "infinite",
				"addEmployee(uint256,uint256,string,string,string,string,string,string,string,string)": "infinite",
				"addSkill(uint256,string,uint256)": "infinite",
				"applyPost(uint256,uint256,uint256)": "infinite",
				"autoLogin(address)": "infinite",
				"destroy()": "30105",
				"editEmployee(uint256,uint256,string,string,string,string,string,string,string)": "infinite",
				"editSkill(uint256,uint256,uint256)": "infinite",
				"getAllProfile()": "infinite",
				"getListAppointmentByEmployeeIdAndBusinessId(uint256,uint256)": "infinite",
				"getListApppointmentByEmployeeId(uint256)": "infinite",
				"getListSkillOfEmployee(uint256)": "infinite",
				"getPostIdAppliedOfEmployee(uint256)": "infinite",
				"getProfile(uint256)": "infinite",
				"login(string)": "infinite",
				"owner()": "2545",
				"removeSkill(uint256,uint256)": "infinite",
				"transferOwnership(address)": "30841"
			}
		},
		"methodIdentifiers": {
			"_checkApplyIdBelongsToEmployeeId(uint256,uint256)": "64f3fe9d",
			"_checkApplyIdBelongsToPostId(uint256,uint256)": "46aa9f8a",
			"_checkExistApply(uint256,uint256)": "49e488a0",
			"_checkExistEmployeeAccount()": "ec40a59b",
			"_checkExistSkill(uint256,string)": "c1fa897d",
			"addEmployee(uint256,uint256,string,string,string,string,string,string,string,string)": "b2c2db06",
			"addSkill(uint256,string,uint256)": "1fe1d463",
			"applyPost(uint256,uint256,uint256)": "96b93424",
			"autoLogin(address)": "efeebbf4",
			"destroy()": "83197ef0",
			"editEmployee(uint256,uint256,string,string,string,string,string,string,string)": "059f7829",
			"editSkill(uint256,uint256,uint256)": "e583267d",
			"getAllProfile()": "3901d42d",
			"getListAppointmentByEmployeeIdAndBusinessId(uint256,uint256)": "f072eb96",
			"getListApppointmentByEmployeeId(uint256)": "ccd1c519",
			"getListSkillOfEmployee(uint256)": "42c68ba7",
			"getPostIdAppliedOfEmployee(uint256)": "369a41be",
			"getProfile(uint256)": "f08f4f64",
			"login(string)": "3a7d280c",
			"owner()": "8da5cb5b",
			"removeSkill(uint256,uint256)": "820a59fe",
			"transferOwnership(address)": "f2fde38b"
		}
	},
	"abi": [
		{
			"inputs": [
				{
					"internalType": "address",
					"name": "listEmployeeAddress",
					"type": "address"
				},
				{
					"internalType": "address",
					"name": "listSkillAddress",
					"type": "address"
				},
				{
					"internalType": "address",
					"name": "listApplyAddress",
					"type": "address"
				},
				{
					"internalType": "address",
					"name": "listAppointmenAddress",
					"type": "address"
				}
			],
			"stateMutability": "nonpayable",
			"type": "constructor"
		},
		{
			"anonymous": false,
			"inputs": [
				{
					"indexed": true,
					"internalType": "address",
					"name": "previousOwner",
					"type": "address"
				},
				{
					"indexed": true,
					"internalType": "address",
					"name": "newOwner",
					"type": "address"
				}
			],
			"name": "OwnershipTransferred",
			"type": "event"
		},
		{
			"inputs": [
				{
					"internalType": "uint256",
					"name": "id",
					"type": "uint256"
				},
				{
					"internalType": "uint256",
					"name": "applyId",
					"type": "uint256"
				}
			],
			"name": "_checkApplyIdBelongsToEmployeeId",
			"outputs": [
				{
					"internalType": "bool",
					"name": "",
					"type": "bool"
				}
			],
			"stateMutability": "view",
			"type": "function"
		},
		{
			"inputs": [
				{
					"internalType": "uint256",
					"name": "postId",
					"type": "uint256"
				},
				{
					"internalType": "uint256",
					"name": "applyId",
					"type": "uint256"
				}
			],
			"name": "_checkApplyIdBelongsToPostId",
			"outputs": [
				{
					"internalType": "bool",
					"name": "",
					"type": "bool"
				}
			],
			"stateMutability": "view",
			"type": "function"
		},
		{
			"inputs": [
				{
					"internalType": "uint256",
					"name": "employeeId",
					"type": "uint256"
				},
				{
					"internalType": "uint256",
					"name": "postId",
					"type": "uint256"
				}
			],
			"name": "_checkExistApply",
			"outputs": [
				{
					"internalType": "bool",
					"name": "",
					"type": "bool"
				}
			],
			"stateMutability": "view",
			"type": "function"
		},
		{
			"inputs": [],
			"name": "_checkExistEmployeeAccount",
			"outputs": [
				{
					"internalType": "bool",
					"name": "",
					"type": "bool"
				}
			],
			"stateMutability": "view",
			"type": "function"
		},
		{
			"inputs": [
				{
					"internalType": "uint256",
					"name": "id",
					"type": "uint256"
				},
				{
					"internalType": "string",
					"name": "title",
					"type": "string"
				}
			],
			"name": "_checkExistSkill",
			"outputs": [
				{
					"internalType": "bool",
					"name": "",
					"type": "bool"
				}
			],
			"stateMutability": "view",
			"type": "function"
		},
		{
			"inputs": [
				{
					"internalType": "uint256",
					"name": "category",
					"type": "uint256"
				},
				{
					"internalType": "uint256",
					"name": "idCardNumber",
					"type": "uint256"
				},
				{
					"internalType": "string",
					"name": "name",
					"type": "string"
				},
				{
					"internalType": "string",
					"name": "phone",
					"type": "string"
				},
				{
					"internalType": "string",
					"name": "professional",
					"type": "string"
				},
				{
					"internalType": "string",
					"name": "email",
					"type": "string"
				},
				{
					"internalType": "string",
					"name": "github",
					"type": "string"
				},
				{
					"internalType": "string",
					"name": "linkedin",
					"type": "string"
				},
				{
					"internalType": "string",
					"name": "sourceImage",
					"type": "string"
				},
				{
					"internalType": "string",
					"name": "password",
					"type": "string"
				}
			],
			"name": "addEmployee",
			"outputs": [
				{
					"internalType": "uint256",
					"name": "",
					"type": "uint256"
				}
			],
			"stateMutability": "nonpayable",
			"type": "function"
		},
		{
			"inputs": [
				{
					"internalType": "uint256",
					"name": "id",
					"type": "uint256"
				},
				{
					"internalType": "string",
					"name": "title",
					"type": "string"
				},
				{
					"internalType": "uint256",
					"name": "level",
					"type": "uint256"
				}
			],
			"name": "addSkill",
			"outputs": [
				{
					"internalType": "bool",
					"name": "",
					"type": "bool"
				}
			],
			"stateMutability": "nonpayable",
			"type": "function"
		},
		{
			"inputs": [
				{
					"internalType": "uint256",
					"name": "employeeId",
					"type": "uint256"
				},
				{
					"internalType": "uint256",
					"name": "businessId",
					"type": "uint256"
				},
				{
					"internalType": "uint256",
					"name": "postId",
					"type": "uint256"
				}
			],
			"name": "applyPost",
			"outputs": [
				{
					"internalType": "uint256",
					"name": "",
					"type": "uint256"
				}
			],
			"stateMutability": "nonpayable",
			"type": "function"
		},
		{
			"inputs": [
				{
					"internalType": "address",
					"name": "value",
					"type": "address"
				}
			],
			"name": "autoLogin",
			"outputs": [
				{
					"internalType": "uint256",
					"name": "",
					"type": "uint256"
				}
			],
			"stateMutability": "view",
			"type": "function"
		},
		{
			"inputs": [],
			"name": "destroy",
			"outputs": [],
			"stateMutability": "nonpayable",
			"type": "function"
		},
		{
			"inputs": [
				{
					"internalType": "uint256",
					"name": "id",
					"type": "uint256"
				},
				{
					"internalType": "uint256",
					"name": "idCardNumber",
					"type": "uint256"
				},
				{
					"internalType": "string",
					"name": "name",
					"type": "string"
				},
				{
					"internalType": "string",
					"name": "phone",
					"type": "string"
				},
				{
					"internalType": "string",
					"name": "professional",
					"type": "string"
				},
				{
					"internalType": "string",
					"name": "email",
					"type": "string"
				},
				{
					"internalType": "string",
					"name": "github",
					"type": "string"
				},
				{
					"internalType": "string",
					"name": "linkedin",
					"type": "string"
				},
				{
					"internalType": "string",
					"name": "sourceImage",
					"type": "string"
				}
			],
			"name": "editEmployee",
			"outputs": [
				{
					"internalType": "bool",
					"name": "",
					"type": "bool"
				}
			],
			"stateMutability": "nonpayable",
			"type": "function"
		},
		{
			"inputs": [
				{
					"internalType": "uint256",
					"name": "id",
					"type": "uint256"
				},
				{
					"internalType": "uint256",
					"name": "skillId",
					"type": "uint256"
				},
				{
					"internalType": "uint256",
					"name": "level",
					"type": "uint256"
				}
			],
			"name": "editSkill",
			"outputs": [
				{
					"internalType": "bool",
					"name": "",
					"type": "bool"
				}
			],
			"stateMutability": "nonpayable",
			"type": "function"
		},
		{
			"inputs": [],
			"name": "getAllProfile",
			"outputs": [
				{
					"components": [
						{
							"internalType": "uint256",
							"name": "category",
							"type": "uint256"
						},
						{
							"internalType": "uint256",
							"name": "id",
							"type": "uint256"
						},
						{
							"internalType": "uint256",
							"name": "idCardNumber",
							"type": "uint256"
						},
						{
							"internalType": "address",
							"name": "user",
							"type": "address"
						},
						{
							"internalType": "string",
							"name": "name",
							"type": "string"
						},
						{
							"internalType": "string",
							"name": "phone",
							"type": "string"
						},
						{
							"internalType": "string",
							"name": "professional",
							"type": "string"
						},
						{
							"internalType": "string",
							"name": "email",
							"type": "string"
						},
						{
							"internalType": "string",
							"name": "github",
							"type": "string"
						},
						{
							"internalType": "string",
							"name": "linkedin",
							"type": "string"
						},
						{
							"internalType": "string",
							"name": "sourceImage",
							"type": "string"
						},
						{
							"internalType": "string",
							"name": "password",
							"type": "string"
						}
					],
					"internalType": "struct Profile[]",
					"name": "",
					"type": "tuple[]"
				}
			],
			"stateMutability": "view",
			"type": "function"
		},
		{
			"inputs": [
				{
					"internalType": "uint256",
					"name": "employeeId",
					"type": "uint256"
				},
				{
					"internalType": "uint256",
					"name": "businessId",
					"type": "uint256"
				}
			],
			"name": "getListAppointmentByEmployeeIdAndBusinessId",
			"outputs": [
				{
					"components": [
						{
							"internalType": "uint256",
							"name": "appointmentId",
							"type": "uint256"
						},
						{
							"internalType": "uint256",
							"name": "applyId",
							"type": "uint256"
						},
						{
							"internalType": "uint256",
							"name": "employeeId",
							"type": "uint256"
						},
						{
							"internalType": "uint256",
							"name": "businessId",
							"type": "uint256"
						},
						{
							"internalType": "uint256",
							"name": "time",
							"type": "uint256"
						},
						{
							"internalType": "uint256",
							"name": "status",
							"type": "uint256"
						}
					],
					"internalType": "struct Appointment[]",
					"name": "",
					"type": "tuple[]"
				}
			],
			"stateMutability": "view",
			"type": "function"
		},
		{
			"inputs": [
				{
					"internalType": "uint256",
					"name": "employeeId",
					"type": "uint256"
				}
			],
			"name": "getListApppointmentByEmployeeId",
			"outputs": [
				{
					"components": [
						{
							"internalType": "uint256",
							"name": "appointmentId",
							"type": "uint256"
						},
						{
							"internalType": "uint256",
							"name": "applyId",
							"type": "uint256"
						},
						{
							"internalType": "uint256",
							"name": "employeeId",
							"type": "uint256"
						},
						{
							"internalType": "uint256",
							"name": "businessId",
							"type": "uint256"
						},
						{
							"internalType": "uint256",
							"name": "time",
							"type": "uint256"
						},
						{
							"internalType": "uint256",
							"name": "status",
							"type": "uint256"
						}
					],
					"internalType": "struct Appointment[]",
					"name": "",
					"type": "tuple[]"
				}
			],
			"stateMutability": "view",
			"type": "function"
		},
		{
			"inputs": [
				{
					"internalType": "uint256",
					"name": "id",
					"type": "uint256"
				}
			],
			"name": "getListSkillOfEmployee",
			"outputs": [
				{
					"components": [
						{
							"internalType": "uint256",
							"name": "id",
							"type": "uint256"
						},
						{
							"internalType": "uint256",
							"name": "skillId",
							"type": "uint256"
						},
						{
							"internalType": "string",
							"name": "title",
							"type": "string"
						},
						{
							"internalType": "uint256",
							"name": "level",
							"type": "uint256"
						}
					],
					"internalType": "struct Skill[]",
					"name": "",
					"type": "tuple[]"
				}
			],
			"stateMutability": "view",
			"type": "function"
		},
		{
			"inputs": [
				{
					"internalType": "uint256",
					"name": "employeeId",
					"type": "uint256"
				}
			],
			"name": "getPostIdAppliedOfEmployee",
			"outputs": [
				{
					"components": [
						{
							"internalType": "uint256",
							"name": "applyId",
							"type": "uint256"
						},
						{
							"internalType": "uint256",
							"name": "employeeId",
							"type": "uint256"
						},
						{
							"internalType": "uint256",
							"name": "businessId",
							"type": "uint256"
						},
						{
							"internalType": "uint256",
							"name": "postId",
							"type": "uint256"
						},
						{
							"internalType": "uint256",
							"name": "time",
							"type": "uint256"
						},
						{
							"internalType": "uint256",
							"name": "status",
							"type": "uint256"
						}
					],
					"internalType": "struct Apply[]",
					"name": "",
					"type": "tuple[]"
				}
			],
			"stateMutability": "view",
			"type": "function"
		},
		{
			"inputs": [
				{
					"internalType": "uint256",
					"name": "id",
					"type": "uint256"
				}
			],
			"name": "getProfile",
			"outputs": [
				{
					"components": [
						{
							"internalType": "uint256",
							"name": "category",
							"type": "uint256"
						},
						{
							"internalType": "uint256",
							"name": "id",
							"type": "uint256"
						},
						{
							"internalType": "uint256",
							"name": "idCardNumber",
							"type": "uint256"
						},
						{
							"internalType": "address",
							"name": "user",
							"type": "address"
						},
						{
							"internalType": "string",
							"name": "name",
							"type": "string"
						},
						{
							"internalType": "string",
							"name": "phone",
							"type": "string"
						},
						{
							"internalType": "string",
							"name": "professional",
							"type": "string"
						},
						{
							"internalType": "string",
							"name": "email",
							"type": "string"
						},
						{
							"internalType": "string",
							"name": "github",
							"type": "string"
						},
						{
							"internalType": "string",
							"name": "linkedin",
							"type": "string"
						},
						{
							"internalType": "string",
							"name": "sourceImage",
							"type": "string"
						},
						{
							"internalType": "string",
							"name": "password",
							"type": "string"
						}
					],
					"internalType": "struct Profile",
					"name": "",
					"type": "tuple"
				}
			],
			"stateMutability": "view",
			"type": "function"
		},
		{
			"inputs": [
				{
					"internalType": "string",
					"name": "password",
					"type": "string"
				}
			],
			"name": "login",
			"outputs": [
				{
					"internalType": "uint256",
					"name": "",
					"type": "uint256"
				}
			],
			"stateMutability": "view",
			"type": "function"
		},
		{
			"inputs": [],
			"name": "owner",
			"outputs": [
				{
					"internalType": "address",
					"name": "",
					"type": "address"
				}
			],
			"stateMutability": "view",
			"type": "function"
		},
		{
			"inputs": [
				{
					"internalType": "uint256",
					"name": "id",
					"type": "uint256"
				},
				{
					"internalType": "uint256",
					"name": "skillId",
					"type": "uint256"
				}
			],
			"name": "removeSkill",
			"outputs": [
				{
					"internalType": "bool",
					"name": "",
					"type": "bool"
				}
			],
			"stateMutability": "nonpayable",
			"type": "function"
		},
		{
			"inputs": [
				{
					"internalType": "address",
					"name": "newOwner",
					"type": "address"
				}
			],
			"name": "transferOwnership",
			"outputs": [],
			"stateMutability": "nonpayable",
			"type": "function"
		}
	]
}