{
	"data": {
		"bytecode": {
			"linkReferences": {},
			"object": "60806040523480156200001157600080fd5b50604051620035ad380380620035ad83398181016040528101906200003791906200023b565b8082848688336000806101000a81548173ffffffffffffffffffffffffffffffffffffffff021916908373ffffffffffffffffffffffffffffffffffffffff16021790555080600160006101000a81548173ffffffffffffffffffffffffffffffffffffffff021916908373ffffffffffffffffffffffffffffffffffffffff1602179055505080600260006101000a81548173ffffffffffffffffffffffffffffffffffffffff021916908373ffffffffffffffffffffffffffffffffffffffff1602179055505080600360006101000a81548173ffffffffffffffffffffffffffffffffffffffff021916908373ffffffffffffffffffffffffffffffffffffffff1602179055505080600460006101000a81548173ffffffffffffffffffffffffffffffffffffffff021916908373ffffffffffffffffffffffffffffffffffffffff1602179055505080600560006101000a81548173ffffffffffffffffffffffffffffffffffffffff021916908373ffffffffffffffffffffffffffffffffffffffff160217905550505050505050620002c3565b600080fd5b600073ffffffffffffffffffffffffffffffffffffffff82169050919050565b60006200020382620001d6565b9050919050565b6200021581620001f6565b81146200022157600080fd5b50565b60008151905062000235816200020a565b92915050565b600080600080600060a086880312156200025a5762000259620001d1565b5b60006200026a8882890162000224565b95505060206200027d8882890162000224565b9450506040620002908882890162000224565b9350506060620002a38882890162000224565b9250506080620002b68882890162000224565b9150509295509295909350565b6132da80620002d36000396000f3fe608060405234801561001057600080fd5b50600436106100ea5760003560e01c8063b97f0c761161008c578063d610b45a11610066578063d610b45a14610225578063ec40a59b14610243578063f2fde38b14610261578063fc9388741461027d576100ea565b8063b97f0c76146101d1578063c6648542146101ed578063cf26f86514610209576100ea565b806378a81bd5116100c857806378a81bd51461016d57806383197ef01461018b5780638da5cb5b14610195578063a7cdca4b146101b3576100ea565b80631598193a146100ef5780631e2542431461011f578063320cf3f21461014f575b600080fd5b610109600480360381019061010491906117b7565b610299565b6040516101169190611812565b60405180910390f35b610139600480360381019061013491906117b7565b6103f3565b6040516101469190611812565b60405180910390f35b61015761054e565b6040516101649190611a25565b60405180910390f35b6101756105d0565b6040516101829190611bf6565b60405180910390f35b610193610652565b005b61019d610673565b6040516101aa9190611c59565b60405180910390f35b6101bb61069c565b6040516101c89190611ddb565b60405180910390f35b6101eb60048036038101906101e69190611e22565b61071e565b005b610207600480360381019061020291906117b7565b6109c6565b005b610223600480360381019061021e9190611e22565b610c42565b005b61022d610eea565b60405161023a9190611812565b60405180910390f35b61024b610fa7565b6040516102589190611812565b60405180910390f35b61027b60048036038101906102769190611f04565b611082565b005b610297600480360381019061029291906117b7565b611105565b005b6000806102a4611380565b73ffffffffffffffffffffffffffffffffffffffff166353ed51436040518163ffffffff1660e01b8152600401600060405180830381865afa1580156102ee573d6000803e3d6000fd5b505050506040513d6000823e3d601f19601f820116820180604052508101906103179190612193565b905060005b81518110156103e657600082828151811061033a576103396121dc565b5b6020026020010151905085816040015114801561035a5750848160200151145b801561038d575060028081111561037457610373611868565b5b8160800151600281111561038b5761038a611868565b5b145b80156103c15750600160038111156103a8576103a7611868565b5b8160a0015160038111156103bf576103be611868565b5b145b156103d257600193505050506103ed565b5080806103de9061223a565b91505061031c565b5060009150505b92915050565b6000806103fe611380565b73ffffffffffffffffffffffffffffffffffffffff166353ed51436040518163ffffffff1660e01b8152600401600060405180830381865afa158015610448573d6000803e3d6000fd5b505050506040513d6000823e3d601f19601f820116820180604052508101906104719190612193565b905060005b8151811015610541576000828281518110610494576104936121dc565b5b602002602001015190508581604001511480156104b45750848160200151145b80156104e85750600160028111156104cf576104ce611868565b5b816080015160028111156104e6576104e5611868565b5b145b801561051c57506001600381111561050357610502611868565b5b8160a00151600381111561051a57610519611868565b5b145b1561052d5760019350505050610548565b5080806105399061223a565b915050610476565b5060009150505b92915050565b6060610558611380565b73ffffffffffffffffffffffffffffffffffffffff166353ed51436040518163ffffffff1660e01b8152600401600060405180830381865afa1580156105a2573d6000803e3d6000fd5b505050506040513d6000823e3d601f19601f820116820180604052508101906105cb9190612193565b905090565b60606105da6113aa565b73ffffffffffffffffffffffffffffffffffffffff166353ed51436040518163ffffffff1660e01b8152600401600060405180830381865afa158015610624573d6000803e3d6000fd5b505050506040513d6000823e3d601f19601f8201168201806040525081019061064d919061243c565b905090565b61065a6113d4565b3073ffffffffffffffffffffffffffffffffffffffff16ff5b60008060009054906101000a900473ffffffffffffffffffffffffffffffffffffffff16905090565b60606106a661144b565b73ffffffffffffffffffffffffffffffffffffffff166353ed51436040518163ffffffff1660e01b8152600401600060405180830381865afa1580156106f0573d6000803e3d6000fd5b505050506040513d6000823e3d601f19601f82011682018060405250810190610719919061262a565b905090565b87610727610eea565b610766576040517f08c379a000000000000000000000000000000000000000000000000000000000815260040161075d906126f6565b60405180910390fd5b61076f81611475565b6107ae576040517f08c379a00000000000000000000000000000000000000000000000000000000081526004016107a590612788565b60405180910390fd5b8860026107b9611531565b73ffffffffffffffffffffffffffffffffffffffff1663e0886f90836040518263ffffffff1660e01b81526004016107f191906127b7565b600060405180830381865afa15801561080e573d6000803e3d6000fd5b505050506040513d6000823e3d601f19601f820116820180604052508101906108379190612a71565b600001511461087b576040517f08c379a000000000000000000000000000000000000000000000000000000000815260040161087290612b2c565b60405180910390fd5b6000604051806101200160405280600081526020018c81526020018b81526020018a81526020018960048111156108b5576108b4611868565b5b81526020018881526020018781526020018681526020014281525090506108da611380565b73ffffffffffffffffffffffffffffffffffffffff16632be2eff18560026040518363ffffffff1660e01b8152600401610915929190612b5b565b600060405180830381600087803b15801561092f57600080fd5b505af1158015610943573d6000803e3d6000fd5b5050505061094f6113aa565b73ffffffffffffffffffffffffffffffffffffffff16638f89e6f2826040518263ffffffff1660e01b81526004016109879190612c3b565b600060405180830381600087803b1580156109a157600080fd5b505af11580156109b5573d6000803e3d6000fd5b505050505050505050505050505050565b816109cf610fa7565b610a0e576040517f08c379a0000000000000000000000000000000000000000000000000000000008152600401610a0590612cc9565b60405180910390fd5b610a178161155b565b610a56576040517f08c379a0000000000000000000000000000000000000000000000000000000008152600401610a4d90612d5b565b60405180910390fd5b816002610a61611531565b73ffffffffffffffffffffffffffffffffffffffff1663e0886f90836040518263ffffffff1660e01b8152600401610a9991906127b7565b600060405180830381865afa158015610ab6573d6000803e3d6000fd5b505050506040513d6000823e3d601f19601f82011682018060405250810190610adf9190612a71565b6000015114610b23576040517f08c379a0000000000000000000000000000000000000000000000000000000008152600401610b1a90612b2c565b60405180910390fd5b8383610b2f82826103f3565b15610b6f576040517f08c379a0000000000000000000000000000000000000000000000000000000008152600401610b6690612ded565b60405180910390fd5b60006040518060c001604052806000815260200187815260200188815260200142815260200160016002811115610ba957610ba8611868565b5b815260200160016003811115610bc257610bc1611868565b5b8152509050610bcf611380565b73ffffffffffffffffffffffffffffffffffffffff16637ef3e572826040518263ffffffff1660e01b8152600401610c079190612e88565b600060405180830381600087803b158015610c2157600080fd5b505af1158015610c35573d6000803e3d6000fd5b5050505050505050505050565b87610c4b610eea565b610c8a576040517f08c379a0000000000000000000000000000000000000000000000000000000008152600401610c81906126f6565b60405180910390fd5b610c9381611475565b610cd2576040517f08c379a0000000000000000000000000000000000000000000000000000000008152600401610cc990612788565b60405180910390fd5b886002610cdd611531565b73ffffffffffffffffffffffffffffffffffffffff1663e0886f90836040518263ffffffff1660e01b8152600401610d1591906127b7565b600060405180830381865afa158015610d32573d6000803e3d6000fd5b505050506040513d6000823e3d601f19601f82011682018060405250810190610d5b9190612a71565b6000015114610d9f576040517f08c379a0000000000000000000000000000000000000000000000000000000008152600401610d9690612b2c565b60405180910390fd5b6000604051806101200160405280600081526020018c81526020018b81526020018a8152602001896004811115610dd957610dd8611868565b5b8152602001888152602001878152602001868152602001428152509050610dfe611380565b73ffffffffffffffffffffffffffffffffffffffff16632be2eff18560026040518363ffffffff1660e01b8152600401610e39929190612b5b565b600060405180830381600087803b158015610e5357600080fd5b505af1158015610e67573d6000803e3d6000fd5b50505050610e7361144b565b73ffffffffffffffffffffffffffffffffffffffff16638f89e6f2826040518263ffffffff1660e01b8152600401610eab9190612f5a565b600060405180830381600087803b158015610ec557600080fd5b505af1158015610ed9573d6000803e3d6000fd5b505050505050505050505050505050565b600080600160009054906101000a900473ffffffffffffffffffffffffffffffffffffffff1673ffffffffffffffffffffffffffffffffffffffff166368938870336040518263ffffffff1660e01b8152600401610f489190611c59565b602060405180830381865afa158015610f65573d6000803e3d6000fd5b505050506040513d601f19601f82011682018060405250810190610f899190612f76565b90506000811115610f9e576001915050610fa4565b60009150505b90565b600080600260009054906101000a900473ffffffffffffffffffffffffffffffffffffffff1673ffffffffffffffffffffffffffffffffffffffff166368938870336040518263ffffffff1660e01b81526004016110059190611c59565b602060405180830381865afa158015611022573d6000803e3d6000fd5b505050506040513d601f19601f820116820180604052508101906110469190612f76565b90507fffffffffffffffffffffffffffffffffffffffffffffffffffffffffffffffff810361107957600191505061107f565b60019150505b90565b61108a6113d4565b600073ffffffffffffffffffffffffffffffffffffffff168173ffffffffffffffffffffffffffffffffffffffff16036110f9576040517f08c379a00000000000000000000000000000000000000000000000000000000081526004016110f090613015565b60405180910390fd5b61110281611617565b50565b8161110e610fa7565b61114d576040517f08c379a000000000000000000000000000000000000000000000000000000000815260040161114490612cc9565b60405180910390fd5b6111568161155b565b611195576040517f08c379a000000000000000000000000000000000000000000000000000000000815260040161118c90612d5b565b60405180910390fd5b8160026111a0611531565b73ffffffffffffffffffffffffffffffffffffffff1663e0886f90836040518263ffffffff1660e01b81526004016111d891906127b7565b600060405180830381865afa1580156111f5573d6000803e3d6000fd5b505050506040513d6000823e3d601f19601f8201168201806040525081019061121e9190612a71565b6000015114611262576040517f08c379a000000000000000000000000000000000000000000000000000000000815260040161125990612b2c565b60405180910390fd5b838361126e8282610299565b156112ae576040517f08c379a00000000000000000000000000000000000000000000000000000000081526004016112a590612ded565b60405180910390fd5b60006040518060c00160405280600081526020018781526020018881526020014281526020016002808111156112e7576112e6611868565b5b815260200160016003811115611300576112ff611868565b5b815250905061130d611380565b73ffffffffffffffffffffffffffffffffffffffff16637ef3e572826040518263ffffffff1660e01b81526004016113459190612e88565b600060405180830381600087803b15801561135f57600080fd5b505af1158015611373573d6000803e3d6000fd5b5050505050505050505050565b6000600360009054906101000a900473ffffffffffffffffffffffffffffffffffffffff16905090565b6000600560009054906101000a900473ffffffffffffffffffffffffffffffffffffffff16905090565b3373ffffffffffffffffffffffffffffffffffffffff166113f3610673565b73ffffffffffffffffffffffffffffffffffffffff1614611449576040517f08c379a000000000000000000000000000000000000000000000000000000000815260040161144090613081565b60405180910390fd5b565b6000600460009054906101000a900473ffffffffffffffffffffffffffffffffffffffff16905090565b600080600160009054906101000a900473ffffffffffffffffffffffffffffffffffffffff1673ffffffffffffffffffffffffffffffffffffffff1663e0886f90846040518263ffffffff1660e01b81526004016114d391906127b7565b600060405180830381865afa1580156114f0573d6000803e3d6000fd5b505050506040513d6000823e3d601f19601f820116820180604052508101906115199190612a71565b90506115298160400151336116db565b915050919050565b6000600160009054906101000a900473ffffffffffffffffffffffffffffffffffffffff16905090565b600080600260009054906101000a900473ffffffffffffffffffffffffffffffffffffffff1673ffffffffffffffffffffffffffffffffffffffff1663e0886f90846040518263ffffffff1660e01b81526004016115b991906127b7565b600060405180830381865afa1580156115d6573d6000803e3d6000fd5b505050506040513d6000823e3d601f19601f820116820180604052508101906115ff919061325b565b905061160f816040015133611724565b915050919050565b60008060009054906101000a900473ffffffffffffffffffffffffffffffffffffffff169050816000806101000a81548173ffffffffffffffffffffffffffffffffffffffff021916908373ffffffffffffffffffffffffffffffffffffffff1602179055508173ffffffffffffffffffffffffffffffffffffffff168173ffffffffffffffffffffffffffffffffffffffff167f8be0079c531659141344cd1fd0a4f28419497f9722a3daafe3b4186f6b6457e060405160405180910390a35050565b60008173ffffffffffffffffffffffffffffffffffffffff168373ffffffffffffffffffffffffffffffffffffffff1603611719576001905061171e565b600090505b92915050565b60008173ffffffffffffffffffffffffffffffffffffffff168373ffffffffffffffffffffffffffffffffffffffff16036117625760019050611767565b600090505b92915050565b6000604051905090565b600080fd5b600080fd5b6000819050919050565b61179481611781565b811461179f57600080fd5b50565b6000813590506117b18161178b565b92915050565b600080604083850312156117ce576117cd611777565b5b60006117dc858286016117a2565b92505060206117ed858286016117a2565b9150509250929050565b60008115159050919050565b61180c816117f7565b82525050565b60006020820190506118276000830184611803565b92915050565b600081519050919050565b600082825260208201905092915050565b6000819050602082019050919050565b61186281611781565b82525050565b7f4e487b7100000000000000000000000000000000000000000000000000000000600052602160045260246000fd5b600381106118a8576118a7611868565b5b50565b60008190506118b982611897565b919050565b60006118c9826118ab565b9050919050565b6118d9816118be565b82525050565b600481106118f0576118ef611868565b5b50565b6000819050611901826118df565b919050565b6000611911826118f3565b9050919050565b61192181611906565b82525050565b60c08201600082015161193d6000850182611859565b5060208201516119506020850182611859565b5060408201516119636040850182611859565b5060608201516119766060850182611859565b50608082015161198960808501826118d0565b5060a082015161199c60a0850182611918565b50505050565b60006119ae8383611927565b60c08301905092915050565b6000602082019050919050565b60006119d28261182d565b6119dc8185611838565b93506119e783611849565b8060005b83811015611a185781516119ff88826119a2565b9750611a0a836119ba565b9250506001810190506119eb565b5085935050505092915050565b60006020820190508181036000830152611a3f81846119c7565b905092915050565b600081519050919050565b600082825260208201905092915050565b6000819050602082019050919050565b60058110611a8457611a83611868565b5b50565b6000819050611a9582611a73565b919050565b6000611aa582611a87565b9050919050565b611ab581611a9a565b82525050565b61012082016000820151611ad26000850182611859565b506020820151611ae56020850182611859565b506040820151611af86040850182611859565b506060820151611b0b6060850182611859565b506080820151611b1e6080850182611aac565b5060a0820151611b3160a0850182611859565b5060c0820151611b4460c0850182611859565b5060e0820151611b5760e0850182611859565b50610100820151611b6c610100850182611859565b50505050565b6000611b7e8383611abb565b6101208301905092915050565b6000602082019050919050565b6000611ba382611a47565b611bad8185611a52565b9350611bb883611a63565b8060005b83811015611be9578151611bd08882611b72565b9750611bdb83611b8b565b925050600181019050611bbc565b5085935050505092915050565b60006020820190508181036000830152611c108184611b98565b905092915050565b600073ffffffffffffffffffffffffffffffffffffffff82169050919050565b6000611c4382611c18565b9050919050565b611c5381611c38565b82525050565b6000602082019050611c6e6000830184611c4a565b92915050565b600081519050919050565b600082825260208201905092915050565b6000819050602082019050919050565b61012082016000820151611cb76000850182611859565b506020820151611cca6020850182611859565b506040820151611cdd6040850182611859565b506060820151611cf06060850182611859565b506080820151611d036080850182611aac565b5060a0820151611d1660a0850182611859565b5060c0820151611d2960c0850182611859565b5060e0820151611d3c60e0850182611859565b50610100820151611d51610100850182611859565b50505050565b6000611d638383611ca0565b6101208301905092915050565b6000602082019050919050565b6000611d8882611c74565b611d928185611c7f565b9350611d9d83611c90565b8060005b83811015611dce578151611db58882611d57565b9750611dc083611d70565b925050600181019050611da1565b5085935050505092915050565b60006020820190508181036000830152611df58184611d7d565b905092915050565b60058110611e0a57600080fd5b50565b600081359050611e1c81611dfd565b92915050565b600080600080600080600080610100898b031215611e4357611e42611777565b5b6000611e518b828c016117a2565b9850506020611e628b828c016117a2565b9750506040611e738b828c016117a2565b9650506060611e848b828c01611e0d565b9550506080611e958b828c016117a2565b94505060a0611ea68b828c016117a2565b93505060c0611eb78b828c016117a2565b92505060e0611ec88b828c016117a2565b9150509295985092959890939650565b611ee181611c38565b8114611eec57600080fd5b50565b600081359050611efe81611ed8565b92915050565b600060208284031215611f1a57611f19611777565b5b6000611f2884828501611eef565b91505092915050565b600080fd5b6000601f19601f8301169050919050565b7f4e487b7100000000000000000000000000000000000000000000000000000000600052604160045260246000fd5b611f7f82611f36565b810181811067ffffffffffffffff82111715611f9e57611f9d611f47565b5b80604052505050565b6000611fb161176d565b9050611fbd8282611f76565b919050565b600067ffffffffffffffff821115611fdd57611fdc611f47565b5b602082029050602081019050919050565b600080fd5b600080fd5b600080fd5b60008151905061200c8161178b565b92915050565b6003811061201f57600080fd5b50565b60008151905061203181612012565b92915050565b6004811061204457600080fd5b50565b60008151905061205681612037565b92915050565b600060c0828403121561207257612071611ff3565b5b61207c60c0611fa7565b9050600061208c84828501611ffd565b60008301525060206120a084828501611ffd565b60208301525060406120b484828501611ffd565b60408301525060606120c884828501611ffd565b60608301525060806120dc84828501612022565b60808301525060a06120f084828501612047565b60a08301525092915050565b600061210f61210a84611fc2565b611fa7565b90508083825260208201905060c0840283018581111561213257612131611fee565b5b835b8181101561215b5780612147888261205c565b84526020840193505060c081019050612134565b5050509392505050565b600082601f83011261217a57612179611f31565b5b815161218a8482602086016120fc565b91505092915050565b6000602082840312156121a9576121a8611777565b5b600082015167ffffffffffffffff8111156121c7576121c661177c565b5b6121d384828501612165565b91505092915050565b7f4e487b7100000000000000000000000000000000000000000000000000000000600052603260045260246000fd5b7f4e487b7100000000000000000000000000000000000000000000000000000000600052601160045260246000fd5b600061224582611781565b91507fffffffffffffffffffffffffffffffffffffffffffffffffffffffffffffffff82036122775761227661220b565b5b600182019050919050565b600067ffffffffffffffff82111561229d5761229c611f47565b5b602082029050602081019050919050565b6000815190506122bd81611dfd565b92915050565b600061012082840312156122da576122d9611ff3565b5b6122e5610120611fa7565b905060006122f584828501611ffd565b600083015250602061230984828501611ffd565b602083015250604061231d84828501611ffd565b604083015250606061233184828501611ffd565b6060830152506080612345848285016122ae565b60808301525060a061235984828501611ffd565b60a08301525060c061236d84828501611ffd565b60c08301525060e061238184828501611ffd565b60e08301525061010061239684828501611ffd565b6101008301525092915050565b60006123b66123b184612282565b611fa7565b90508083825260208201905061012084028301858111156123da576123d9611fee565b5b835b8181101561240457806123ef88826122c3565b845260208401935050610120810190506123dc565b5050509392505050565b600082601f83011261242357612422611f31565b5b81516124338482602086016123a3565b91505092915050565b60006020828403121561245257612451611777565b5b600082015167ffffffffffffffff8111156124705761246f61177c565b5b61247c8482850161240e565b91505092915050565b600067ffffffffffffffff8211156124a05761249f611f47565b5b602082029050602081019050919050565b600061012082840312156124c8576124c7611ff3565b5b6124d3610120611fa7565b905060006124e384828501611ffd565b60008301525060206124f784828501611ffd565b602083015250604061250b84828501611ffd565b604083015250606061251f84828501611ffd565b6060830152506080612533848285016122ae565b60808301525060a061254784828501611ffd565b60a08301525060c061255b84828501611ffd565b60c08301525060e061256f84828501611ffd565b60e08301525061010061258484828501611ffd565b6101008301525092915050565b60006125a461259f84612485565b611fa7565b90508083825260208201905061012084028301858111156125c8576125c7611fee565b5b835b818110156125f257806125dd88826124b1565b845260208401935050610120810190506125ca565b5050509392505050565b600082601f83011261261157612610611f31565b5b8151612621848260208601612591565b91505092915050565b6000602082840312156126405761263f611777565b5b600082015167ffffffffffffffff81111561265e5761265d61177c565b5b61266a848285016125fc565b91505092915050565b600082825260208201905092915050565b7f4c697374427573696e657373437572736f723a20616c7265616479206578697360008201527f746564206163636f756e74000000000000000000000000000000000000000000602082015250565b60006126e0602b83612673565b91506126eb82612684565b604082019050919050565b6000602082019050818103600083015261270f816126d3565b9050919050565b7f4c697374427573696e657373437572736f723a206964206973206e6f7420626560008201527f6c6f6e6720746f20616464726573730000000000000000000000000000000000602082015250565b6000612772602f83612673565b915061277d82612716565b604082019050919050565b600060208201905081810360008301526127a181612765565b9050919050565b6127b181611781565b82525050565b60006020820190506127cc60008301846127a8565b92915050565b6000815190506127e181611ed8565b92915050565b600080fd5b600067ffffffffffffffff82111561280757612806611f47565b5b61281082611f36565b9050602081019050919050565b60005b8381101561283b578082015181840152602081019050612820565b60008484015250505050565b600061285a612855846127ec565b611fa7565b905082815260208101848484011115612876576128756127e7565b5b61288184828561281d565b509392505050565b600082601f83011261289e5761289d611f31565b5b81516128ae848260208601612847565b91505092915050565b600061014082840312156128ce576128cd611ff3565b5b6128d9610140611fa7565b905060006128e984828501611ffd565b60008301525060206128fd84828501611ffd565b6020830152506040612911848285016127d2565b604083015250606082015167ffffffffffffffff81111561293557612934611ff8565b5b61294184828501612889565b606083015250608082015167ffffffffffffffff81111561296557612964611ff8565b5b61297184828501612889565b60808301525060a082015167ffffffffffffffff81111561299557612994611ff8565b5b6129a184828501612889565b60a08301525060c082015167ffffffffffffffff8111156129c5576129c4611ff8565b5b6129d184828501612889565b60c08301525060e082015167ffffffffffffffff8111156129f5576129f4611ff8565b5b612a0184828501612889565b60e08301525061010082015167ffffffffffffffff811115612a2657612a25611ff8565b5b612a3284828501612889565b6101008301525061012082015167ffffffffffffffff811115612a5857612a57611ff8565b5b612a6484828501612889565b6101208301525092915050565b600060208284031215612a8757612a86611777565b5b600082015167ffffffffffffffff811115612aa557612aa461177c565b5b612ab1848285016128b7565b91505092915050565b7f494947436f6e74726f6c6c65723a206973206e6f7420494947204163636f756e60008201527f7400000000000000000000000000000000000000000000000000000000000000602082015250565b6000612b16602183612673565b9150612b2182612aba565b604082019050919050565b60006020820190508181036000830152612b4581612b09565b9050919050565b612b5581611906565b82525050565b6000604082019050612b7060008301856127a8565b612b7d6020830184612b4c565b9392505050565b61012082016000820151612b9b6000850182611859565b506020820151612bae6020850182611859565b506040820151612bc16040850182611859565b506060820151612bd46060850182611859565b506080820151612be76080850182611aac565b5060a0820151612bfa60a0850182611859565b5060c0820151612c0d60c0850182611859565b5060e0820151612c2060e0850182611859565b50610100820151612c35610100850182611859565b50505050565b600061012082019050612c516000830184612b84565b92915050565b7f4c697374456d706c6f796565437572736f723a2061646472657373206e6f742060008201527f62656c6f6e677320746f20746865206163636f756e7400000000000000000000602082015250565b6000612cb3603683612673565b9150612cbe82612c57565b604082019050919050565b60006020820190508181036000830152612ce281612ca6565b9050919050565b7f4c697374456d706c6f796565437572736f723a206964206973206e6f7420626560008201527f6c6f6e6720746f20616464726573730000000000000000000000000000000000602082015250565b6000612d45602f83612673565b9150612d5082612ce9565b604082019050919050565b60006020820190508181036000830152612d7481612d38565b9050919050565b7f4949474c69737449494752657175657374437572736f723a204f6e6c7920726560008201527f7175657374204c52206f6e6574696d6500000000000000000000000000000000602082015250565b6000612dd7603083612673565b9150612de282612d7b565b604082019050919050565b60006020820190508181036000830152612e0681612dca565b9050919050565b60c082016000820151612e236000850182611859565b506020820151612e366020850182611859565b506040820151612e496040850182611859565b506060820151612e5c6060850182611859565b506080820151612e6f60808501826118d0565b5060a0820151612e8260a0850182611918565b50505050565b600060c082019050612e9d6000830184612e0d565b92915050565b61012082016000820151612eba6000850182611859565b506020820151612ecd6020850182611859565b506040820151612ee06040850182611859565b506060820151612ef36060850182611859565b506080820151612f066080850182611aac565b5060a0820151612f1960a0850182611859565b5060c0820151612f2c60c0850182611859565b5060e0820151612f3f60e0850182611859565b50610100820151612f54610100850182611859565b50505050565b600061012082019050612f706000830184612ea3565b92915050565b600060208284031215612f8c57612f8b611777565b5b6000612f9a84828501611ffd565b91505092915050565b7f4f776e61626c653a206e6577206f776e657220697320746865207a65726f206160008201527f6464726573730000000000000000000000000000000000000000000000000000602082015250565b6000612fff602683612673565b915061300a82612fa3565b604082019050919050565b6000602082019050818103600083015261302e81612ff2565b9050919050565b7f4f776e61626c653a2063616c6c6572206973206e6f7420746865206f776e6572600082015250565b600061306b602083612673565b915061307682613035565b602082019050919050565b6000602082019050818103600083015261309a8161305e565b9050919050565b600061014082840312156130b8576130b7611ff3565b5b6130c3610140611fa7565b905060006130d384828501611ffd565b60008301525060206130e784828501611ffd565b60208301525060406130fb848285016127d2565b604083015250606082015167ffffffffffffffff81111561311f5761311e611ff8565b5b61312b84828501612889565b606083015250608082015167ffffffffffffffff81111561314f5761314e611ff8565b5b61315b84828501612889565b60808301525060a082015167ffffffffffffffff81111561317f5761317e611ff8565b5b61318b84828501612889565b60a08301525060c082015167ffffffffffffffff8111156131af576131ae611ff8565b5b6131bb84828501612889565b60c08301525060e082015167ffffffffffffffff8111156131df576131de611ff8565b5b6131eb84828501612889565b60e08301525061010082015167ffffffffffffffff8111156132105761320f611ff8565b5b61321c84828501612889565b6101008301525061012082015167ffffffffffffffff81111561324257613241611ff8565b5b61324e84828501612889565b6101208301525092915050565b60006020828403121561327157613270611777565b5b600082015167ffffffffffffffff81111561328f5761328e61177c565b5b61329b848285016130a1565b9150509291505056fea2646970667358221220a92f06167a2a89135cfb15da9d80fce9afd0ba8505834cbc3ad756637ab0657d64736f6c63430008110033",
			"opcodes": "PUSH1 0x80 PUSH1 0x40 MSTORE CALLVALUE DUP1 ISZERO PUSH3 0x11 JUMPI PUSH1 0x0 DUP1 REVERT JUMPDEST POP PUSH1 0x40 MLOAD PUSH3 0x35AD CODESIZE SUB DUP1 PUSH3 0x35AD DUP4 CODECOPY DUP2 DUP2 ADD PUSH1 0x40 MSTORE DUP2 ADD SWAP1 PUSH3 0x37 SWAP2 SWAP1 PUSH3 0x23B JUMP JUMPDEST DUP1 DUP3 DUP5 DUP7 DUP9 CALLER PUSH1 0x0 DUP1 PUSH2 0x100 EXP DUP2 SLOAD DUP2 PUSH20 0xFFFFFFFFFFFFFFFFFFFFFFFFFFFFFFFFFFFFFFFF MUL NOT AND SWAP1 DUP4 PUSH20 0xFFFFFFFFFFFFFFFFFFFFFFFFFFFFFFFFFFFFFFFF AND MUL OR SWAP1 SSTORE POP DUP1 PUSH1 0x1 PUSH1 0x0 PUSH2 0x100 EXP DUP2 SLOAD DUP2 PUSH20 0xFFFFFFFFFFFFFFFFFFFFFFFFFFFFFFFFFFFFFFFF MUL NOT AND SWAP1 DUP4 PUSH20 0xFFFFFFFFFFFFFFFFFFFFFFFFFFFFFFFFFFFFFFFF AND MUL OR SWAP1 SSTORE POP POP DUP1 PUSH1 0x2 PUSH1 0x0 PUSH2 0x100 EXP DUP2 SLOAD DUP2 PUSH20 0xFFFFFFFFFFFFFFFFFFFFFFFFFFFFFFFFFFFFFFFF MUL NOT AND SWAP1 DUP4 PUSH20 0xFFFFFFFFFFFFFFFFFFFFFFFFFFFFFFFFFFFFFFFF AND MUL OR SWAP1 SSTORE POP POP DUP1 PUSH1 0x3 PUSH1 0x0 PUSH2 0x100 EXP DUP2 SLOAD DUP2 PUSH20 0xFFFFFFFFFFFFFFFFFFFFFFFFFFFFFFFFFFFFFFFF MUL NOT AND SWAP1 DUP4 PUSH20 0xFFFFFFFFFFFFFFFFFFFFFFFFFFFFFFFFFFFFFFFF AND MUL OR SWAP1 SSTORE POP POP DUP1 PUSH1 0x4 PUSH1 0x0 PUSH2 0x100 EXP DUP2 SLOAD DUP2 PUSH20 0xFFFFFFFFFFFFFFFFFFFFFFFFFFFFFFFFFFFFFFFF MUL NOT AND SWAP1 DUP4 PUSH20 0xFFFFFFFFFFFFFFFFFFFFFFFFFFFFFFFFFFFFFFFF AND MUL OR SWAP1 SSTORE POP POP DUP1 PUSH1 0x5 PUSH1 0x0 PUSH2 0x100 EXP DUP2 SLOAD DUP2 PUSH20 0xFFFFFFFFFFFFFFFFFFFFFFFFFFFFFFFFFFFFFFFF MUL NOT AND SWAP1 DUP4 PUSH20 0xFFFFFFFFFFFFFFFFFFFFFFFFFFFFFFFFFFFFFFFF AND MUL OR SWAP1 SSTORE POP POP POP POP POP POP POP PUSH3 0x2C3 JUMP JUMPDEST PUSH1 0x0 DUP1 REVERT JUMPDEST PUSH1 0x0 PUSH20 0xFFFFFFFFFFFFFFFFFFFFFFFFFFFFFFFFFFFFFFFF DUP3 AND SWAP1 POP SWAP2 SWAP1 POP JUMP JUMPDEST PUSH1 0x0 PUSH3 0x203 DUP3 PUSH3 0x1D6 JUMP JUMPDEST SWAP1 POP SWAP2 SWAP1 POP JUMP JUMPDEST PUSH3 0x215 DUP2 PUSH3 0x1F6 JUMP JUMPDEST DUP2 EQ PUSH3 0x221 JUMPI PUSH1 0x0 DUP1 REVERT JUMPDEST POP JUMP JUMPDEST PUSH1 0x0 DUP2 MLOAD SWAP1 POP PUSH3 0x235 DUP2 PUSH3 0x20A JUMP JUMPDEST SWAP3 SWAP2 POP POP JUMP JUMPDEST PUSH1 0x0 DUP1 PUSH1 0x0 DUP1 PUSH1 0x0 PUSH1 0xA0 DUP7 DUP9 SUB SLT ISZERO PUSH3 0x25A JUMPI PUSH3 0x259 PUSH3 0x1D1 JUMP JUMPDEST JUMPDEST PUSH1 0x0 PUSH3 0x26A DUP9 DUP3 DUP10 ADD PUSH3 0x224 JUMP JUMPDEST SWAP6 POP POP PUSH1 0x20 PUSH3 0x27D DUP9 DUP3 DUP10 ADD PUSH3 0x224 JUMP JUMPDEST SWAP5 POP POP PUSH1 0x40 PUSH3 0x290 DUP9 DUP3 DUP10 ADD PUSH3 0x224 JUMP JUMPDEST SWAP4 POP POP PUSH1 0x60 PUSH3 0x2A3 DUP9 DUP3 DUP10 ADD PUSH3 0x224 JUMP JUMPDEST SWAP3 POP POP PUSH1 0x80 PUSH3 0x2B6 DUP9 DUP3 DUP10 ADD PUSH3 0x224 JUMP JUMPDEST SWAP2 POP POP SWAP3 SWAP6 POP SWAP3 SWAP6 SWAP1 SWAP4 POP JUMP JUMPDEST PUSH2 0x32DA DUP1 PUSH3 0x2D3 PUSH1 0x0 CODECOPY PUSH1 0x0 RETURN INVALID PUSH1 0x80 PUSH1 0x40 MSTORE CALLVALUE DUP1 ISZERO PUSH2 0x10 JUMPI PUSH1 0x0 DUP1 REVERT JUMPDEST POP PUSH1 0x4 CALLDATASIZE LT PUSH2 0xEA JUMPI PUSH1 0x0 CALLDATALOAD PUSH1 0xE0 SHR DUP1 PUSH4 0xB97F0C76 GT PUSH2 0x8C JUMPI DUP1 PUSH4 0xD610B45A GT PUSH2 0x66 JUMPI DUP1 PUSH4 0xD610B45A EQ PUSH2 0x225 JUMPI DUP1 PUSH4 0xEC40A59B EQ PUSH2 0x243 JUMPI DUP1 PUSH4 0xF2FDE38B EQ PUSH2 0x261 JUMPI DUP1 PUSH4 0xFC938874 EQ PUSH2 0x27D JUMPI PUSH2 0xEA JUMP JUMPDEST DUP1 PUSH4 0xB97F0C76 EQ PUSH2 0x1D1 JUMPI DUP1 PUSH4 0xC6648542 EQ PUSH2 0x1ED JUMPI DUP1 PUSH4 0xCF26F865 EQ PUSH2 0x209 JUMPI PUSH2 0xEA JUMP JUMPDEST DUP1 PUSH4 0x78A81BD5 GT PUSH2 0xC8 JUMPI DUP1 PUSH4 0x78A81BD5 EQ PUSH2 0x16D JUMPI DUP1 PUSH4 0x83197EF0 EQ PUSH2 0x18B JUMPI DUP1 PUSH4 0x8DA5CB5B EQ PUSH2 0x195 JUMPI DUP1 PUSH4 0xA7CDCA4B EQ PUSH2 0x1B3 JUMPI PUSH2 0xEA JUMP JUMPDEST DUP1 PUSH4 0x1598193A EQ PUSH2 0xEF JUMPI DUP1 PUSH4 0x1E254243 EQ PUSH2 0x11F JUMPI DUP1 PUSH4 0x320CF3F2 EQ PUSH2 0x14F JUMPI JUMPDEST PUSH1 0x0 DUP1 REVERT JUMPDEST PUSH2 0x109 PUSH1 0x4 DUP1 CALLDATASIZE SUB DUP2 ADD SWAP1 PUSH2 0x104 SWAP2 SWAP1 PUSH2 0x17B7 JUMP JUMPDEST PUSH2 0x299 JUMP JUMPDEST PUSH1 0x40 MLOAD PUSH2 0x116 SWAP2 SWAP1 PUSH2 0x1812 JUMP JUMPDEST PUSH1 0x40 MLOAD DUP1 SWAP2 SUB SWAP1 RETURN JUMPDEST PUSH2 0x139 PUSH1 0x4 DUP1 CALLDATASIZE SUB DUP2 ADD SWAP1 PUSH2 0x134 SWAP2 SWAP1 PUSH2 0x17B7 JUMP JUMPDEST PUSH2 0x3F3 JUMP JUMPDEST PUSH1 0x40 MLOAD PUSH2 0x146 SWAP2 SWAP1 PUSH2 0x1812 JUMP JUMPDEST PUSH1 0x40 MLOAD DUP1 SWAP2 SUB SWAP1 RETURN JUMPDEST PUSH2 0x157 PUSH2 0x54E JUMP JUMPDEST PUSH1 0x40 MLOAD PUSH2 0x164 SWAP2 SWAP1 PUSH2 0x1A25 JUMP JUMPDEST PUSH1 0x40 MLOAD DUP1 SWAP2 SUB SWAP1 RETURN JUMPDEST PUSH2 0x175 PUSH2 0x5D0 JUMP JUMPDEST PUSH1 0x40 MLOAD PUSH2 0x182 SWAP2 SWAP1 PUSH2 0x1BF6 JUMP JUMPDEST PUSH1 0x40 MLOAD DUP1 SWAP2 SUB SWAP1 RETURN JUMPDEST PUSH2 0x193 PUSH2 0x652 JUMP JUMPDEST STOP JUMPDEST PUSH2 0x19D PUSH2 0x673 JUMP JUMPDEST PUSH1 0x40 MLOAD PUSH2 0x1AA SWAP2 SWAP1 PUSH2 0x1C59 JUMP JUMPDEST PUSH1 0x40 MLOAD DUP1 SWAP2 SUB SWAP1 RETURN JUMPDEST PUSH2 0x1BB PUSH2 0x69C JUMP JUMPDEST PUSH1 0x40 MLOAD PUSH2 0x1C8 SWAP2 SWAP1 PUSH2 0x1DDB JUMP JUMPDEST PUSH1 0x40 MLOAD DUP1 SWAP2 SUB SWAP1 RETURN JUMPDEST PUSH2 0x1EB PUSH1 0x4 DUP1 CALLDATASIZE SUB DUP2 ADD SWAP1 PUSH2 0x1E6 SWAP2 SWAP1 PUSH2 0x1E22 JUMP JUMPDEST PUSH2 0x71E JUMP JUMPDEST STOP JUMPDEST PUSH2 0x207 PUSH1 0x4 DUP1 CALLDATASIZE SUB DUP2 ADD SWAP1 PUSH2 0x202 SWAP2 SWAP1 PUSH2 0x17B7 JUMP JUMPDEST PUSH2 0x9C6 JUMP JUMPDEST STOP JUMPDEST PUSH2 0x223 PUSH1 0x4 DUP1 CALLDATASIZE SUB DUP2 ADD SWAP1 PUSH2 0x21E SWAP2 SWAP1 PUSH2 0x1E22 JUMP JUMPDEST PUSH2 0xC42 JUMP JUMPDEST STOP JUMPDEST PUSH2 0x22D PUSH2 0xEEA JUMP JUMPDEST PUSH1 0x40 MLOAD PUSH2 0x23A SWAP2 SWAP1 PUSH2 0x1812 JUMP JUMPDEST PUSH1 0x40 MLOAD DUP1 SWAP2 SUB SWAP1 RETURN JUMPDEST PUSH2 0x24B PUSH2 0xFA7 JUMP JUMPDEST PUSH1 0x40 MLOAD PUSH2 0x258 SWAP2 SWAP1 PUSH2 0x1812 JUMP JUMPDEST PUSH1 0x40 MLOAD DUP1 SWAP2 SUB SWAP1 RETURN JUMPDEST PUSH2 0x27B PUSH1 0x4 DUP1 CALLDATASIZE SUB DUP2 ADD SWAP1 PUSH2 0x276 SWAP2 SWAP1 PUSH2 0x1F04 JUMP JUMPDEST PUSH2 0x1082 JUMP JUMPDEST STOP JUMPDEST PUSH2 0x297 PUSH1 0x4 DUP1 CALLDATASIZE SUB DUP2 ADD SWAP1 PUSH2 0x292 SWAP2 SWAP1 PUSH2 0x17B7 JUMP JUMPDEST PUSH2 0x1105 JUMP JUMPDEST STOP JUMPDEST PUSH1 0x0 DUP1 PUSH2 0x2A4 PUSH2 0x1380 JUMP JUMPDEST PUSH20 0xFFFFFFFFFFFFFFFFFFFFFFFFFFFFFFFFFFFFFFFF AND PUSH4 0x53ED5143 PUSH1 0x40 MLOAD DUP2 PUSH4 0xFFFFFFFF AND PUSH1 0xE0 SHL DUP2 MSTORE PUSH1 0x4 ADD PUSH1 0x0 PUSH1 0x40 MLOAD DUP1 DUP4 SUB DUP2 DUP7 GAS STATICCALL ISZERO DUP1 ISZERO PUSH2 0x2EE JUMPI RETURNDATASIZE PUSH1 0x0 DUP1 RETURNDATACOPY RETURNDATASIZE PUSH1 0x0 REVERT JUMPDEST POP POP POP POP PUSH1 0x40 MLOAD RETURNDATASIZE PUSH1 0x0 DUP3 RETURNDATACOPY RETURNDATASIZE PUSH1 0x1F NOT PUSH1 0x1F DUP3 ADD AND DUP3 ADD DUP1 PUSH1 0x40 MSTORE POP DUP2 ADD SWAP1 PUSH2 0x317 SWAP2 SWAP1 PUSH2 0x2193 JUMP JUMPDEST SWAP1 POP PUSH1 0x0 JUMPDEST DUP2 MLOAD DUP2 LT ISZERO PUSH2 0x3E6 JUMPI PUSH1 0x0 DUP3 DUP3 DUP2 MLOAD DUP2 LT PUSH2 0x33A JUMPI PUSH2 0x339 PUSH2 0x21DC JUMP JUMPDEST JUMPDEST PUSH1 0x20 MUL PUSH1 0x20 ADD ADD MLOAD SWAP1 POP DUP6 DUP2 PUSH1 0x40 ADD MLOAD EQ DUP1 ISZERO PUSH2 0x35A JUMPI POP DUP5 DUP2 PUSH1 0x20 ADD MLOAD EQ JUMPDEST DUP1 ISZERO PUSH2 0x38D JUMPI POP PUSH1 0x2 DUP1 DUP2 GT ISZERO PUSH2 0x374 JUMPI PUSH2 0x373 PUSH2 0x1868 JUMP JUMPDEST JUMPDEST DUP2 PUSH1 0x80 ADD MLOAD PUSH1 0x2 DUP2 GT ISZERO PUSH2 0x38B JUMPI PUSH2 0x38A PUSH2 0x1868 JUMP JUMPDEST JUMPDEST EQ JUMPDEST DUP1 ISZERO PUSH2 0x3C1 JUMPI POP PUSH1 0x1 PUSH1 0x3 DUP2 GT ISZERO PUSH2 0x3A8 JUMPI PUSH2 0x3A7 PUSH2 0x1868 JUMP JUMPDEST JUMPDEST DUP2 PUSH1 0xA0 ADD MLOAD PUSH1 0x3 DUP2 GT ISZERO PUSH2 0x3BF JUMPI PUSH2 0x3BE PUSH2 0x1868 JUMP JUMPDEST JUMPDEST EQ JUMPDEST ISZERO PUSH2 0x3D2 JUMPI PUSH1 0x1 SWAP4 POP POP POP POP PUSH2 0x3ED JUMP JUMPDEST POP DUP1 DUP1 PUSH2 0x3DE SWAP1 PUSH2 0x223A JUMP JUMPDEST SWAP2 POP POP PUSH2 0x31C JUMP JUMPDEST POP PUSH1 0x0 SWAP2 POP POP JUMPDEST SWAP3 SWAP2 POP POP JUMP JUMPDEST PUSH1 0x0 DUP1 PUSH2 0x3FE PUSH2 0x1380 JUMP JUMPDEST PUSH20 0xFFFFFFFFFFFFFFFFFFFFFFFFFFFFFFFFFFFFFFFF AND PUSH4 0x53ED5143 PUSH1 0x40 MLOAD DUP2 PUSH4 0xFFFFFFFF AND PUSH1 0xE0 SHL DUP2 MSTORE PUSH1 0x4 ADD PUSH1 0x0 PUSH1 0x40 MLOAD DUP1 DUP4 SUB DUP2 DUP7 GAS STATICCALL ISZERO DUP1 ISZERO PUSH2 0x448 JUMPI RETURNDATASIZE PUSH1 0x0 DUP1 RETURNDATACOPY RETURNDATASIZE PUSH1 0x0 REVERT JUMPDEST POP POP POP POP PUSH1 0x40 MLOAD RETURNDATASIZE PUSH1 0x0 DUP3 RETURNDATACOPY RETURNDATASIZE PUSH1 0x1F NOT PUSH1 0x1F DUP3 ADD AND DUP3 ADD DUP1 PUSH1 0x40 MSTORE POP DUP2 ADD SWAP1 PUSH2 0x471 SWAP2 SWAP1 PUSH2 0x2193 JUMP JUMPDEST SWAP1 POP PUSH1 0x0 JUMPDEST DUP2 MLOAD DUP2 LT ISZERO PUSH2 0x541 JUMPI PUSH1 0x0 DUP3 DUP3 DUP2 MLOAD DUP2 LT PUSH2 0x494 JUMPI PUSH2 0x493 PUSH2 0x21DC JUMP JUMPDEST JUMPDEST PUSH1 0x20 MUL PUSH1 0x20 ADD ADD MLOAD SWAP1 POP DUP6 DUP2 PUSH1 0x40 ADD MLOAD EQ DUP1 ISZERO PUSH2 0x4B4 JUMPI POP DUP5 DUP2 PUSH1 0x20 ADD MLOAD EQ JUMPDEST DUP1 ISZERO PUSH2 0x4E8 JUMPI POP PUSH1 0x1 PUSH1 0x2 DUP2 GT ISZERO PUSH2 0x4CF JUMPI PUSH2 0x4CE PUSH2 0x1868 JUMP JUMPDEST JUMPDEST DUP2 PUSH1 0x80 ADD MLOAD PUSH1 0x2 DUP2 GT ISZERO PUSH2 0x4E6 JUMPI PUSH2 0x4E5 PUSH2 0x1868 JUMP JUMPDEST JUMPDEST EQ JUMPDEST DUP1 ISZERO PUSH2 0x51C JUMPI POP PUSH1 0x1 PUSH1 0x3 DUP2 GT ISZERO PUSH2 0x503 JUMPI PUSH2 0x502 PUSH2 0x1868 JUMP JUMPDEST JUMPDEST DUP2 PUSH1 0xA0 ADD MLOAD PUSH1 0x3 DUP2 GT ISZERO PUSH2 0x51A JUMPI PUSH2 0x519 PUSH2 0x1868 JUMP JUMPDEST JUMPDEST EQ JUMPDEST ISZERO PUSH2 0x52D JUMPI PUSH1 0x1 SWAP4 POP POP POP POP PUSH2 0x548 JUMP JUMPDEST POP DUP1 DUP1 PUSH2 0x539 SWAP1 PUSH2 0x223A JUMP JUMPDEST SWAP2 POP POP PUSH2 0x476 JUMP JUMPDEST POP PUSH1 0x0 SWAP2 POP POP JUMPDEST SWAP3 SWAP2 POP POP JUMP JUMPDEST PUSH1 0x60 PUSH2 0x558 PUSH2 0x1380 JUMP JUMPDEST PUSH20 0xFFFFFFFFFFFFFFFFFFFFFFFFFFFFFFFFFFFFFFFF AND PUSH4 0x53ED5143 PUSH1 0x40 MLOAD DUP2 PUSH4 0xFFFFFFFF AND PUSH1 0xE0 SHL DUP2 MSTORE PUSH1 0x4 ADD PUSH1 0x0 PUSH1 0x40 MLOAD DUP1 DUP4 SUB DUP2 DUP7 GAS STATICCALL ISZERO DUP1 ISZERO PUSH2 0x5A2 JUMPI RETURNDATASIZE PUSH1 0x0 DUP1 RETURNDATACOPY RETURNDATASIZE PUSH1 0x0 REVERT JUMPDEST POP POP POP POP PUSH1 0x40 MLOAD RETURNDATASIZE PUSH1 0x0 DUP3 RETURNDATACOPY RETURNDATASIZE PUSH1 0x1F NOT PUSH1 0x1F DUP3 ADD AND DUP3 ADD DUP1 PUSH1 0x40 MSTORE POP DUP2 ADD SWAP1 PUSH2 0x5CB SWAP2 SWAP1 PUSH2 0x2193 JUMP JUMPDEST SWAP1 POP SWAP1 JUMP JUMPDEST PUSH1 0x60 PUSH2 0x5DA PUSH2 0x13AA JUMP JUMPDEST PUSH20 0xFFFFFFFFFFFFFFFFFFFFFFFFFFFFFFFFFFFFFFFF AND PUSH4 0x53ED5143 PUSH1 0x40 MLOAD DUP2 PUSH4 0xFFFFFFFF AND PUSH1 0xE0 SHL DUP2 MSTORE PUSH1 0x4 ADD PUSH1 0x0 PUSH1 0x40 MLOAD DUP1 DUP4 SUB DUP2 DUP7 GAS STATICCALL ISZERO DUP1 ISZERO PUSH2 0x624 JUMPI RETURNDATASIZE PUSH1 0x0 DUP1 RETURNDATACOPY RETURNDATASIZE PUSH1 0x0 REVERT JUMPDEST POP POP POP POP PUSH1 0x40 MLOAD RETURNDATASIZE PUSH1 0x0 DUP3 RETURNDATACOPY RETURNDATASIZE PUSH1 0x1F NOT PUSH1 0x1F DUP3 ADD AND DUP3 ADD DUP1 PUSH1 0x40 MSTORE POP DUP2 ADD SWAP1 PUSH2 0x64D SWAP2 SWAP1 PUSH2 0x243C JUMP JUMPDEST SWAP1 POP SWAP1 JUMP JUMPDEST PUSH2 0x65A PUSH2 0x13D4 JUMP JUMPDEST ADDRESS PUSH20 0xFFFFFFFFFFFFFFFFFFFFFFFFFFFFFFFFFFFFFFFF AND SELFDESTRUCT JUMPDEST PUSH1 0x0 DUP1 PUSH1 0x0 SWAP1 SLOAD SWAP1 PUSH2 0x100 EXP SWAP1 DIV PUSH20 0xFFFFFFFFFFFFFFFFFFFFFFFFFFFFFFFFFFFFFFFF AND SWAP1 POP SWAP1 JUMP JUMPDEST PUSH1 0x60 PUSH2 0x6A6 PUSH2 0x144B JUMP JUMPDEST PUSH20 0xFFFFFFFFFFFFFFFFFFFFFFFFFFFFFFFFFFFFFFFF AND PUSH4 0x53ED5143 PUSH1 0x40 MLOAD DUP2 PUSH4 0xFFFFFFFF AND PUSH1 0xE0 SHL DUP2 MSTORE PUSH1 0x4 ADD PUSH1 0x0 PUSH1 0x40 MLOAD DUP1 DUP4 SUB DUP2 DUP7 GAS STATICCALL ISZERO DUP1 ISZERO PUSH2 0x6F0 JUMPI RETURNDATASIZE PUSH1 0x0 DUP1 RETURNDATACOPY RETURNDATASIZE PUSH1 0x0 REVERT JUMPDEST POP POP POP POP PUSH1 0x40 MLOAD RETURNDATASIZE PUSH1 0x0 DUP3 RETURNDATACOPY RETURNDATASIZE PUSH1 0x1F NOT PUSH1 0x1F DUP3 ADD AND DUP3 ADD DUP1 PUSH1 0x40 MSTORE POP DUP2 ADD SWAP1 PUSH2 0x719 SWAP2 SWAP1 PUSH2 0x262A JUMP JUMPDEST SWAP1 POP SWAP1 JUMP JUMPDEST DUP8 PUSH2 0x727 PUSH2 0xEEA JUMP JUMPDEST PUSH2 0x766 JUMPI PUSH1 0x40 MLOAD PUSH32 0x8C379A000000000000000000000000000000000000000000000000000000000 DUP2 MSTORE PUSH1 0x4 ADD PUSH2 0x75D SWAP1 PUSH2 0x26F6 JUMP JUMPDEST PUSH1 0x40 MLOAD DUP1 SWAP2 SUB SWAP1 REVERT JUMPDEST PUSH2 0x76F DUP2 PUSH2 0x1475 JUMP JUMPDEST PUSH2 0x7AE JUMPI PUSH1 0x40 MLOAD PUSH32 0x8C379A000000000000000000000000000000000000000000000000000000000 DUP2 MSTORE PUSH1 0x4 ADD PUSH2 0x7A5 SWAP1 PUSH2 0x2788 JUMP JUMPDEST PUSH1 0x40 MLOAD DUP1 SWAP2 SUB SWAP1 REVERT JUMPDEST DUP9 PUSH1 0x2 PUSH2 0x7B9 PUSH2 0x1531 JUMP JUMPDEST PUSH20 0xFFFFFFFFFFFFFFFFFFFFFFFFFFFFFFFFFFFFFFFF AND PUSH4 0xE0886F90 DUP4 PUSH1 0x40 MLOAD DUP3 PUSH4 0xFFFFFFFF AND PUSH1 0xE0 SHL DUP2 MSTORE PUSH1 0x4 ADD PUSH2 0x7F1 SWAP2 SWAP1 PUSH2 0x27B7 JUMP JUMPDEST PUSH1 0x0 PUSH1 0x40 MLOAD DUP1 DUP4 SUB DUP2 DUP7 GAS STATICCALL ISZERO DUP1 ISZERO PUSH2 0x80E JUMPI RETURNDATASIZE PUSH1 0x0 DUP1 RETURNDATACOPY RETURNDATASIZE PUSH1 0x0 REVERT JUMPDEST POP POP POP POP PUSH1 0x40 MLOAD RETURNDATASIZE PUSH1 0x0 DUP3 RETURNDATACOPY RETURNDATASIZE PUSH1 0x1F NOT PUSH1 0x1F DUP3 ADD AND DUP3 ADD DUP1 PUSH1 0x40 MSTORE POP DUP2 ADD SWAP1 PUSH2 0x837 SWAP2 SWAP1 PUSH2 0x2A71 JUMP JUMPDEST PUSH1 0x0 ADD MLOAD EQ PUSH2 0x87B JUMPI PUSH1 0x40 MLOAD PUSH32 0x8C379A000000000000000000000000000000000000000000000000000000000 DUP2 MSTORE PUSH1 0x4 ADD PUSH2 0x872 SWAP1 PUSH2 0x2B2C JUMP JUMPDEST PUSH1 0x40 MLOAD DUP1 SWAP2 SUB SWAP1 REVERT JUMPDEST PUSH1 0x0 PUSH1 0x40 MLOAD DUP1 PUSH2 0x120 ADD PUSH1 0x40 MSTORE DUP1 PUSH1 0x0 DUP2 MSTORE PUSH1 0x20 ADD DUP13 DUP2 MSTORE PUSH1 0x20 ADD DUP12 DUP2 MSTORE PUSH1 0x20 ADD DUP11 DUP2 MSTORE PUSH1 0x20 ADD DUP10 PUSH1 0x4 DUP2 GT ISZERO PUSH2 0x8B5 JUMPI PUSH2 0x8B4 PUSH2 0x1868 JUMP JUMPDEST JUMPDEST DUP2 MSTORE PUSH1 0x20 ADD DUP9 DUP2 MSTORE PUSH1 0x20 ADD DUP8 DUP2 MSTORE PUSH1 0x20 ADD DUP7 DUP2 MSTORE PUSH1 0x20 ADD TIMESTAMP DUP2 MSTORE POP SWAP1 POP PUSH2 0x8DA PUSH2 0x1380 JUMP JUMPDEST PUSH20 0xFFFFFFFFFFFFFFFFFFFFFFFFFFFFFFFFFFFFFFFF AND PUSH4 0x2BE2EFF1 DUP6 PUSH1 0x2 PUSH1 0x40 MLOAD DUP4 PUSH4 0xFFFFFFFF AND PUSH1 0xE0 SHL DUP2 MSTORE PUSH1 0x4 ADD PUSH2 0x915 SWAP3 SWAP2 SWAP1 PUSH2 0x2B5B JUMP JUMPDEST PUSH1 0x0 PUSH1 0x40 MLOAD DUP1 DUP4 SUB DUP2 PUSH1 0x0 DUP8 DUP1 EXTCODESIZE ISZERO DUP1 ISZERO PUSH2 0x92F JUMPI PUSH1 0x0 DUP1 REVERT JUMPDEST POP GAS CALL ISZERO DUP1 ISZERO PUSH2 0x943 JUMPI RETURNDATASIZE PUSH1 0x0 DUP1 RETURNDATACOPY RETURNDATASIZE PUSH1 0x0 REVERT JUMPDEST POP POP POP POP PUSH2 0x94F PUSH2 0x13AA JUMP JUMPDEST PUSH20 0xFFFFFFFFFFFFFFFFFFFFFFFFFFFFFFFFFFFFFFFF AND PUSH4 0x8F89E6F2 DUP3 PUSH1 0x40 MLOAD DUP3 PUSH4 0xFFFFFFFF AND PUSH1 0xE0 SHL DUP2 MSTORE PUSH1 0x4 ADD PUSH2 0x987 SWAP2 SWAP1 PUSH2 0x2C3B JUMP JUMPDEST PUSH1 0x0 PUSH1 0x40 MLOAD DUP1 DUP4 SUB DUP2 PUSH1 0x0 DUP8 DUP1 EXTCODESIZE ISZERO DUP1 ISZERO PUSH2 0x9A1 JUMPI PUSH1 0x0 DUP1 REVERT JUMPDEST POP GAS CALL ISZERO DUP1 ISZERO PUSH2 0x9B5 JUMPI RETURNDATASIZE PUSH1 0x0 DUP1 RETURNDATACOPY RETURNDATASIZE PUSH1 0x0 REVERT JUMPDEST POP POP POP POP POP POP POP POP POP POP POP POP POP POP POP JUMP JUMPDEST DUP2 PUSH2 0x9CF PUSH2 0xFA7 JUMP JUMPDEST PUSH2 0xA0E JUMPI PUSH1 0x40 MLOAD PUSH32 0x8C379A000000000000000000000000000000000000000000000000000000000 DUP2 MSTORE PUSH1 0x4 ADD PUSH2 0xA05 SWAP1 PUSH2 0x2CC9 JUMP JUMPDEST PUSH1 0x40 MLOAD DUP1 SWAP2 SUB SWAP1 REVERT JUMPDEST PUSH2 0xA17 DUP2 PUSH2 0x155B JUMP JUMPDEST PUSH2 0xA56 JUMPI PUSH1 0x40 MLOAD PUSH32 0x8C379A000000000000000000000000000000000000000000000000000000000 DUP2 MSTORE PUSH1 0x4 ADD PUSH2 0xA4D SWAP1 PUSH2 0x2D5B JUMP JUMPDEST PUSH1 0x40 MLOAD DUP1 SWAP2 SUB SWAP1 REVERT JUMPDEST DUP2 PUSH1 0x2 PUSH2 0xA61 PUSH2 0x1531 JUMP JUMPDEST PUSH20 0xFFFFFFFFFFFFFFFFFFFFFFFFFFFFFFFFFFFFFFFF AND PUSH4 0xE0886F90 DUP4 PUSH1 0x40 MLOAD DUP3 PUSH4 0xFFFFFFFF AND PUSH1 0xE0 SHL DUP2 MSTORE PUSH1 0x4 ADD PUSH2 0xA99 SWAP2 SWAP1 PUSH2 0x27B7 JUMP JUMPDEST PUSH1 0x0 PUSH1 0x40 MLOAD DUP1 DUP4 SUB DUP2 DUP7 GAS STATICCALL ISZERO DUP1 ISZERO PUSH2 0xAB6 JUMPI RETURNDATASIZE PUSH1 0x0 DUP1 RETURNDATACOPY RETURNDATASIZE PUSH1 0x0 REVERT JUMPDEST POP POP POP POP PUSH1 0x40 MLOAD RETURNDATASIZE PUSH1 0x0 DUP3 RETURNDATACOPY RETURNDATASIZE PUSH1 0x1F NOT PUSH1 0x1F DUP3 ADD AND DUP3 ADD DUP1 PUSH1 0x40 MSTORE POP DUP2 ADD SWAP1 PUSH2 0xADF SWAP2 SWAP1 PUSH2 0x2A71 JUMP JUMPDEST PUSH1 0x0 ADD MLOAD EQ PUSH2 0xB23 JUMPI PUSH1 0x40 MLOAD PUSH32 0x8C379A000000000000000000000000000000000000000000000000000000000 DUP2 MSTORE PUSH1 0x4 ADD PUSH2 0xB1A SWAP1 PUSH2 0x2B2C JUMP JUMPDEST PUSH1 0x40 MLOAD DUP1 SWAP2 SUB SWAP1 REVERT JUMPDEST DUP4 DUP4 PUSH2 0xB2F DUP3 DUP3 PUSH2 0x3F3 JUMP JUMPDEST ISZERO PUSH2 0xB6F JUMPI PUSH1 0x40 MLOAD PUSH32 0x8C379A000000000000000000000000000000000000000000000000000000000 DUP2 MSTORE PUSH1 0x4 ADD PUSH2 0xB66 SWAP1 PUSH2 0x2DED JUMP JUMPDEST PUSH1 0x40 MLOAD DUP1 SWAP2 SUB SWAP1 REVERT JUMPDEST PUSH1 0x0 PUSH1 0x40 MLOAD DUP1 PUSH1 0xC0 ADD PUSH1 0x40 MSTORE DUP1 PUSH1 0x0 DUP2 MSTORE PUSH1 0x20 ADD DUP8 DUP2 MSTORE PUSH1 0x20 ADD DUP9 DUP2 MSTORE PUSH1 0x20 ADD TIMESTAMP DUP2 MSTORE PUSH1 0x20 ADD PUSH1 0x1 PUSH1 0x2 DUP2 GT ISZERO PUSH2 0xBA9 JUMPI PUSH2 0xBA8 PUSH2 0x1868 JUMP JUMPDEST JUMPDEST DUP2 MSTORE PUSH1 0x20 ADD PUSH1 0x1 PUSH1 0x3 DUP2 GT ISZERO PUSH2 0xBC2 JUMPI PUSH2 0xBC1 PUSH2 0x1868 JUMP JUMPDEST JUMPDEST DUP2 MSTORE POP SWAP1 POP PUSH2 0xBCF PUSH2 0x1380 JUMP JUMPDEST PUSH20 0xFFFFFFFFFFFFFFFFFFFFFFFFFFFFFFFFFFFFFFFF AND PUSH4 0x7EF3E572 DUP3 PUSH1 0x40 MLOAD DUP3 PUSH4 0xFFFFFFFF AND PUSH1 0xE0 SHL DUP2 MSTORE PUSH1 0x4 ADD PUSH2 0xC07 SWAP2 SWAP1 PUSH2 0x2E88 JUMP JUMPDEST PUSH1 0x0 PUSH1 0x40 MLOAD DUP1 DUP4 SUB DUP2 PUSH1 0x0 DUP8 DUP1 EXTCODESIZE ISZERO DUP1 ISZERO PUSH2 0xC21 JUMPI PUSH1 0x0 DUP1 REVERT JUMPDEST POP GAS CALL ISZERO DUP1 ISZERO PUSH2 0xC35 JUMPI RETURNDATASIZE PUSH1 0x0 DUP1 RETURNDATACOPY RETURNDATASIZE PUSH1 0x0 REVERT JUMPDEST POP POP POP POP POP POP POP POP POP POP POP JUMP JUMPDEST DUP8 PUSH2 0xC4B PUSH2 0xEEA JUMP JUMPDEST PUSH2 0xC8A JUMPI PUSH1 0x40 MLOAD PUSH32 0x8C379A000000000000000000000000000000000000000000000000000000000 DUP2 MSTORE PUSH1 0x4 ADD PUSH2 0xC81 SWAP1 PUSH2 0x26F6 JUMP JUMPDEST PUSH1 0x40 MLOAD DUP1 SWAP2 SUB SWAP1 REVERT JUMPDEST PUSH2 0xC93 DUP2 PUSH2 0x1475 JUMP JUMPDEST PUSH2 0xCD2 JUMPI PUSH1 0x40 MLOAD PUSH32 0x8C379A000000000000000000000000000000000000000000000000000000000 DUP2 MSTORE PUSH1 0x4 ADD PUSH2 0xCC9 SWAP1 PUSH2 0x2788 JUMP JUMPDEST PUSH1 0x40 MLOAD DUP1 SWAP2 SUB SWAP1 REVERT JUMPDEST DUP9 PUSH1 0x2 PUSH2 0xCDD PUSH2 0x1531 JUMP JUMPDEST PUSH20 0xFFFFFFFFFFFFFFFFFFFFFFFFFFFFFFFFFFFFFFFF AND PUSH4 0xE0886F90 DUP4 PUSH1 0x40 MLOAD DUP3 PUSH4 0xFFFFFFFF AND PUSH1 0xE0 SHL DUP2 MSTORE PUSH1 0x4 ADD PUSH2 0xD15 SWAP2 SWAP1 PUSH2 0x27B7 JUMP JUMPDEST PUSH1 0x0 PUSH1 0x40 MLOAD DUP1 DUP4 SUB DUP2 DUP7 GAS STATICCALL ISZERO DUP1 ISZERO PUSH2 0xD32 JUMPI RETURNDATASIZE PUSH1 0x0 DUP1 RETURNDATACOPY RETURNDATASIZE PUSH1 0x0 REVERT JUMPDEST POP POP POP POP PUSH1 0x40 MLOAD RETURNDATASIZE PUSH1 0x0 DUP3 RETURNDATACOPY RETURNDATASIZE PUSH1 0x1F NOT PUSH1 0x1F DUP3 ADD AND DUP3 ADD DUP1 PUSH1 0x40 MSTORE POP DUP2 ADD SWAP1 PUSH2 0xD5B SWAP2 SWAP1 PUSH2 0x2A71 JUMP JUMPDEST PUSH1 0x0 ADD MLOAD EQ PUSH2 0xD9F JUMPI PUSH1 0x40 MLOAD PUSH32 0x8C379A000000000000000000000000000000000000000000000000000000000 DUP2 MSTORE PUSH1 0x4 ADD PUSH2 0xD96 SWAP1 PUSH2 0x2B2C JUMP JUMPDEST PUSH1 0x40 MLOAD DUP1 SWAP2 SUB SWAP1 REVERT JUMPDEST PUSH1 0x0 PUSH1 0x40 MLOAD DUP1 PUSH2 0x120 ADD PUSH1 0x40 MSTORE DUP1 PUSH1 0x0 DUP2 MSTORE PUSH1 0x20 ADD DUP13 DUP2 MSTORE PUSH1 0x20 ADD DUP12 DUP2 MSTORE PUSH1 0x20 ADD DUP11 DUP2 MSTORE PUSH1 0x20 ADD DUP10 PUSH1 0x4 DUP2 GT ISZERO PUSH2 0xDD9 JUMPI PUSH2 0xDD8 PUSH2 0x1868 JUMP JUMPDEST JUMPDEST DUP2 MSTORE PUSH1 0x20 ADD DUP9 DUP2 MSTORE PUSH1 0x20 ADD DUP8 DUP2 MSTORE PUSH1 0x20 ADD DUP7 DUP2 MSTORE PUSH1 0x20 ADD TIMESTAMP DUP2 MSTORE POP SWAP1 POP PUSH2 0xDFE PUSH2 0x1380 JUMP JUMPDEST PUSH20 0xFFFFFFFFFFFFFFFFFFFFFFFFFFFFFFFFFFFFFFFF AND PUSH4 0x2BE2EFF1 DUP6 PUSH1 0x2 PUSH1 0x40 MLOAD DUP4 PUSH4 0xFFFFFFFF AND PUSH1 0xE0 SHL DUP2 MSTORE PUSH1 0x4 ADD PUSH2 0xE39 SWAP3 SWAP2 SWAP1 PUSH2 0x2B5B JUMP JUMPDEST PUSH1 0x0 PUSH1 0x40 MLOAD DUP1 DUP4 SUB DUP2 PUSH1 0x0 DUP8 DUP1 EXTCODESIZE ISZERO DUP1 ISZERO PUSH2 0xE53 JUMPI PUSH1 0x0 DUP1 REVERT JUMPDEST POP GAS CALL ISZERO DUP1 ISZERO PUSH2 0xE67 JUMPI RETURNDATASIZE PUSH1 0x0 DUP1 RETURNDATACOPY RETURNDATASIZE PUSH1 0x0 REVERT JUMPDEST POP POP POP POP PUSH2 0xE73 PUSH2 0x144B JUMP JUMPDEST PUSH20 0xFFFFFFFFFFFFFFFFFFFFFFFFFFFFFFFFFFFFFFFF AND PUSH4 0x8F89E6F2 DUP3 PUSH1 0x40 MLOAD DUP3 PUSH4 0xFFFFFFFF AND PUSH1 0xE0 SHL DUP2 MSTORE PUSH1 0x4 ADD PUSH2 0xEAB SWAP2 SWAP1 PUSH2 0x2F5A JUMP JUMPDEST PUSH1 0x0 PUSH1 0x40 MLOAD DUP1 DUP4 SUB DUP2 PUSH1 0x0 DUP8 DUP1 EXTCODESIZE ISZERO DUP1 ISZERO PUSH2 0xEC5 JUMPI PUSH1 0x0 DUP1 REVERT JUMPDEST POP GAS CALL ISZERO DUP1 ISZERO PUSH2 0xED9 JUMPI RETURNDATASIZE PUSH1 0x0 DUP1 RETURNDATACOPY RETURNDATASIZE PUSH1 0x0 REVERT JUMPDEST POP POP POP POP POP POP POP POP POP POP POP POP POP POP POP JUMP JUMPDEST PUSH1 0x0 DUP1 PUSH1 0x1 PUSH1 0x0 SWAP1 SLOAD SWAP1 PUSH2 0x100 EXP SWAP1 DIV PUSH20 0xFFFFFFFFFFFFFFFFFFFFFFFFFFFFFFFFFFFFFFFF AND PUSH20 0xFFFFFFFFFFFFFFFFFFFFFFFFFFFFFFFFFFFFFFFF AND PUSH4 0x68938870 CALLER PUSH1 0x40 MLOAD DUP3 PUSH4 0xFFFFFFFF AND PUSH1 0xE0 SHL DUP2 MSTORE PUSH1 0x4 ADD PUSH2 0xF48 SWAP2 SWAP1 PUSH2 0x1C59 JUMP JUMPDEST PUSH1 0x20 PUSH1 0x40 MLOAD DUP1 DUP4 SUB DUP2 DUP7 GAS STATICCALL ISZERO DUP1 ISZERO PUSH2 0xF65 JUMPI RETURNDATASIZE PUSH1 0x0 DUP1 RETURNDATACOPY RETURNDATASIZE PUSH1 0x0 REVERT JUMPDEST POP POP POP POP PUSH1 0x40 MLOAD RETURNDATASIZE PUSH1 0x1F NOT PUSH1 0x1F DUP3 ADD AND DUP3 ADD DUP1 PUSH1 0x40 MSTORE POP DUP2 ADD SWAP1 PUSH2 0xF89 SWAP2 SWAP1 PUSH2 0x2F76 JUMP JUMPDEST SWAP1 POP PUSH1 0x0 DUP2 GT ISZERO PUSH2 0xF9E JUMPI PUSH1 0x1 SWAP2 POP POP PUSH2 0xFA4 JUMP JUMPDEST PUSH1 0x0 SWAP2 POP POP JUMPDEST SWAP1 JUMP JUMPDEST PUSH1 0x0 DUP1 PUSH1 0x2 PUSH1 0x0 SWAP1 SLOAD SWAP1 PUSH2 0x100 EXP SWAP1 DIV PUSH20 0xFFFFFFFFFFFFFFFFFFFFFFFFFFFFFFFFFFFFFFFF AND PUSH20 0xFFFFFFFFFFFFFFFFFFFFFFFFFFFFFFFFFFFFFFFF AND PUSH4 0x68938870 CALLER PUSH1 0x40 MLOAD DUP3 PUSH4 0xFFFFFFFF AND PUSH1 0xE0 SHL DUP2 MSTORE PUSH1 0x4 ADD PUSH2 0x1005 SWAP2 SWAP1 PUSH2 0x1C59 JUMP JUMPDEST PUSH1 0x20 PUSH1 0x40 MLOAD DUP1 DUP4 SUB DUP2 DUP7 GAS STATICCALL ISZERO DUP1 ISZERO PUSH2 0x1022 JUMPI RETURNDATASIZE PUSH1 0x0 DUP1 RETURNDATACOPY RETURNDATASIZE PUSH1 0x0 REVERT JUMPDEST POP POP POP POP PUSH1 0x40 MLOAD RETURNDATASIZE PUSH1 0x1F NOT PUSH1 0x1F DUP3 ADD AND DUP3 ADD DUP1 PUSH1 0x40 MSTORE POP DUP2 ADD SWAP1 PUSH2 0x1046 SWAP2 SWAP1 PUSH2 0x2F76 JUMP JUMPDEST SWAP1 POP PUSH32 0xFFFFFFFFFFFFFFFFFFFFFFFFFFFFFFFFFFFFFFFFFFFFFFFFFFFFFFFFFFFFFFFF DUP2 SUB PUSH2 0x1079 JUMPI PUSH1 0x1 SWAP2 POP POP PUSH2 0x107F JUMP JUMPDEST PUSH1 0x1 SWAP2 POP POP JUMPDEST SWAP1 JUMP JUMPDEST PUSH2 0x108A PUSH2 0x13D4 JUMP JUMPDEST PUSH1 0x0 PUSH20 0xFFFFFFFFFFFFFFFFFFFFFFFFFFFFFFFFFFFFFFFF AND DUP2 PUSH20 0xFFFFFFFFFFFFFFFFFFFFFFFFFFFFFFFFFFFFFFFF AND SUB PUSH2 0x10F9 JUMPI PUSH1 0x40 MLOAD PUSH32 0x8C379A000000000000000000000000000000000000000000000000000000000 DUP2 MSTORE PUSH1 0x4 ADD PUSH2 0x10F0 SWAP1 PUSH2 0x3015 JUMP JUMPDEST PUSH1 0x40 MLOAD DUP1 SWAP2 SUB SWAP1 REVERT JUMPDEST PUSH2 0x1102 DUP2 PUSH2 0x1617 JUMP JUMPDEST POP JUMP JUMPDEST DUP2 PUSH2 0x110E PUSH2 0xFA7 JUMP JUMPDEST PUSH2 0x114D JUMPI PUSH1 0x40 MLOAD PUSH32 0x8C379A000000000000000000000000000000000000000000000000000000000 DUP2 MSTORE PUSH1 0x4 ADD PUSH2 0x1144 SWAP1 PUSH2 0x2CC9 JUMP JUMPDEST PUSH1 0x40 MLOAD DUP1 SWAP2 SUB SWAP1 REVERT JUMPDEST PUSH2 0x1156 DUP2 PUSH2 0x155B JUMP JUMPDEST PUSH2 0x1195 JUMPI PUSH1 0x40 MLOAD PUSH32 0x8C379A000000000000000000000000000000000000000000000000000000000 DUP2 MSTORE PUSH1 0x4 ADD PUSH2 0x118C SWAP1 PUSH2 0x2D5B JUMP JUMPDEST PUSH1 0x40 MLOAD DUP1 SWAP2 SUB SWAP1 REVERT JUMPDEST DUP2 PUSH1 0x2 PUSH2 0x11A0 PUSH2 0x1531 JUMP JUMPDEST PUSH20 0xFFFFFFFFFFFFFFFFFFFFFFFFFFFFFFFFFFFFFFFF AND PUSH4 0xE0886F90 DUP4 PUSH1 0x40 MLOAD DUP3 PUSH4 0xFFFFFFFF AND PUSH1 0xE0 SHL DUP2 MSTORE PUSH1 0x4 ADD PUSH2 0x11D8 SWAP2 SWAP1 PUSH2 0x27B7 JUMP JUMPDEST PUSH1 0x0 PUSH1 0x40 MLOAD DUP1 DUP4 SUB DUP2 DUP7 GAS STATICCALL ISZERO DUP1 ISZERO PUSH2 0x11F5 JUMPI RETURNDATASIZE PUSH1 0x0 DUP1 RETURNDATACOPY RETURNDATASIZE PUSH1 0x0 REVERT JUMPDEST POP POP POP POP PUSH1 0x40 MLOAD RETURNDATASIZE PUSH1 0x0 DUP3 RETURNDATACOPY RETURNDATASIZE PUSH1 0x1F NOT PUSH1 0x1F DUP3 ADD AND DUP3 ADD DUP1 PUSH1 0x40 MSTORE POP DUP2 ADD SWAP1 PUSH2 0x121E SWAP2 SWAP1 PUSH2 0x2A71 JUMP JUMPDEST PUSH1 0x0 ADD MLOAD EQ PUSH2 0x1262 JUMPI PUSH1 0x40 MLOAD PUSH32 0x8C379A000000000000000000000000000000000000000000000000000000000 DUP2 MSTORE PUSH1 0x4 ADD PUSH2 0x1259 SWAP1 PUSH2 0x2B2C JUMP JUMPDEST PUSH1 0x40 MLOAD DUP1 SWAP2 SUB SWAP1 REVERT JUMPDEST DUP4 DUP4 PUSH2 0x126E DUP3 DUP3 PUSH2 0x299 JUMP JUMPDEST ISZERO PUSH2 0x12AE JUMPI PUSH1 0x40 MLOAD PUSH32 0x8C379A000000000000000000000000000000000000000000000000000000000 DUP2 MSTORE PUSH1 0x4 ADD PUSH2 0x12A5 SWAP1 PUSH2 0x2DED JUMP JUMPDEST PUSH1 0x40 MLOAD DUP1 SWAP2 SUB SWAP1 REVERT JUMPDEST PUSH1 0x0 PUSH1 0x40 MLOAD DUP1 PUSH1 0xC0 ADD PUSH1 0x40 MSTORE DUP1 PUSH1 0x0 DUP2 MSTORE PUSH1 0x20 ADD DUP8 DUP2 MSTORE PUSH1 0x20 ADD DUP9 DUP2 MSTORE PUSH1 0x20 ADD TIMESTAMP DUP2 MSTORE PUSH1 0x20 ADD PUSH1 0x2 DUP1 DUP2 GT ISZERO PUSH2 0x12E7 JUMPI PUSH2 0x12E6 PUSH2 0x1868 JUMP JUMPDEST JUMPDEST DUP2 MSTORE PUSH1 0x20 ADD PUSH1 0x1 PUSH1 0x3 DUP2 GT ISZERO PUSH2 0x1300 JUMPI PUSH2 0x12FF PUSH2 0x1868 JUMP JUMPDEST JUMPDEST DUP2 MSTORE POP SWAP1 POP PUSH2 0x130D PUSH2 0x1380 JUMP JUMPDEST PUSH20 0xFFFFFFFFFFFFFFFFFFFFFFFFFFFFFFFFFFFFFFFF AND PUSH4 0x7EF3E572 DUP3 PUSH1 0x40 MLOAD DUP3 PUSH4 0xFFFFFFFF AND PUSH1 0xE0 SHL DUP2 MSTORE PUSH1 0x4 ADD PUSH2 0x1345 SWAP2 SWAP1 PUSH2 0x2E88 JUMP JUMPDEST PUSH1 0x0 PUSH1 0x40 MLOAD DUP1 DUP4 SUB DUP2 PUSH1 0x0 DUP8 DUP1 EXTCODESIZE ISZERO DUP1 ISZERO PUSH2 0x135F JUMPI PUSH1 0x0 DUP1 REVERT JUMPDEST POP GAS CALL ISZERO DUP1 ISZERO PUSH2 0x1373 JUMPI RETURNDATASIZE PUSH1 0x0 DUP1 RETURNDATACOPY RETURNDATASIZE PUSH1 0x0 REVERT JUMPDEST POP POP POP POP POP POP POP POP POP POP POP JUMP JUMPDEST PUSH1 0x0 PUSH1 0x3 PUSH1 0x0 SWAP1 SLOAD SWAP1 PUSH2 0x100 EXP SWAP1 DIV PUSH20 0xFFFFFFFFFFFFFFFFFFFFFFFFFFFFFFFFFFFFFFFF AND SWAP1 POP SWAP1 JUMP JUMPDEST PUSH1 0x0 PUSH1 0x5 PUSH1 0x0 SWAP1 SLOAD SWAP1 PUSH2 0x100 EXP SWAP1 DIV PUSH20 0xFFFFFFFFFFFFFFFFFFFFFFFFFFFFFFFFFFFFFFFF AND SWAP1 POP SWAP1 JUMP JUMPDEST CALLER PUSH20 0xFFFFFFFFFFFFFFFFFFFFFFFFFFFFFFFFFFFFFFFF AND PUSH2 0x13F3 PUSH2 0x673 JUMP JUMPDEST PUSH20 0xFFFFFFFFFFFFFFFFFFFFFFFFFFFFFFFFFFFFFFFF AND EQ PUSH2 0x1449 JUMPI PUSH1 0x40 MLOAD PUSH32 0x8C379A000000000000000000000000000000000000000000000000000000000 DUP2 MSTORE PUSH1 0x4 ADD PUSH2 0x1440 SWAP1 PUSH2 0x3081 JUMP JUMPDEST PUSH1 0x40 MLOAD DUP1 SWAP2 SUB SWAP1 REVERT JUMPDEST JUMP JUMPDEST PUSH1 0x0 PUSH1 0x4 PUSH1 0x0 SWAP1 SLOAD SWAP1 PUSH2 0x100 EXP SWAP1 DIV PUSH20 0xFFFFFFFFFFFFFFFFFFFFFFFFFFFFFFFFFFFFFFFF AND SWAP1 POP SWAP1 JUMP JUMPDEST PUSH1 0x0 DUP1 PUSH1 0x1 PUSH1 0x0 SWAP1 SLOAD SWAP1 PUSH2 0x100 EXP SWAP1 DIV PUSH20 0xFFFFFFFFFFFFFFFFFFFFFFFFFFFFFFFFFFFFFFFF AND PUSH20 0xFFFFFFFFFFFFFFFFFFFFFFFFFFFFFFFFFFFFFFFF AND PUSH4 0xE0886F90 DUP5 PUSH1 0x40 MLOAD DUP3 PUSH4 0xFFFFFFFF AND PUSH1 0xE0 SHL DUP2 MSTORE PUSH1 0x4 ADD PUSH2 0x14D3 SWAP2 SWAP1 PUSH2 0x27B7 JUMP JUMPDEST PUSH1 0x0 PUSH1 0x40 MLOAD DUP1 DUP4 SUB DUP2 DUP7 GAS STATICCALL ISZERO DUP1 ISZERO PUSH2 0x14F0 JUMPI RETURNDATASIZE PUSH1 0x0 DUP1 RETURNDATACOPY RETURNDATASIZE PUSH1 0x0 REVERT JUMPDEST POP POP POP POP PUSH1 0x40 MLOAD RETURNDATASIZE PUSH1 0x0 DUP3 RETURNDATACOPY RETURNDATASIZE PUSH1 0x1F NOT PUSH1 0x1F DUP3 ADD AND DUP3 ADD DUP1 PUSH1 0x40 MSTORE POP DUP2 ADD SWAP1 PUSH2 0x1519 SWAP2 SWAP1 PUSH2 0x2A71 JUMP JUMPDEST SWAP1 POP PUSH2 0x1529 DUP2 PUSH1 0x40 ADD MLOAD CALLER PUSH2 0x16DB JUMP JUMPDEST SWAP2 POP POP SWAP2 SWAP1 POP JUMP JUMPDEST PUSH1 0x0 PUSH1 0x1 PUSH1 0x0 SWAP1 SLOAD SWAP1 PUSH2 0x100 EXP SWAP1 DIV PUSH20 0xFFFFFFFFFFFFFFFFFFFFFFFFFFFFFFFFFFFFFFFF AND SWAP1 POP SWAP1 JUMP JUMPDEST PUSH1 0x0 DUP1 PUSH1 0x2 PUSH1 0x0 SWAP1 SLOAD SWAP1 PUSH2 0x100 EXP SWAP1 DIV PUSH20 0xFFFFFFFFFFFFFFFFFFFFFFFFFFFFFFFFFFFFFFFF AND PUSH20 0xFFFFFFFFFFFFFFFFFFFFFFFFFFFFFFFFFFFFFFFF AND PUSH4 0xE0886F90 DUP5 PUSH1 0x40 MLOAD DUP3 PUSH4 0xFFFFFFFF AND PUSH1 0xE0 SHL DUP2 MSTORE PUSH1 0x4 ADD PUSH2 0x15B9 SWAP2 SWAP1 PUSH2 0x27B7 JUMP JUMPDEST PUSH1 0x0 PUSH1 0x40 MLOAD DUP1 DUP4 SUB DUP2 DUP7 GAS STATICCALL ISZERO DUP1 ISZERO PUSH2 0x15D6 JUMPI RETURNDATASIZE PUSH1 0x0 DUP1 RETURNDATACOPY RETURNDATASIZE PUSH1 0x0 REVERT JUMPDEST POP POP POP POP PUSH1 0x40 MLOAD RETURNDATASIZE PUSH1 0x0 DUP3 RETURNDATACOPY RETURNDATASIZE PUSH1 0x1F NOT PUSH1 0x1F DUP3 ADD AND DUP3 ADD DUP1 PUSH1 0x40 MSTORE POP DUP2 ADD SWAP1 PUSH2 0x15FF SWAP2 SWAP1 PUSH2 0x325B JUMP JUMPDEST SWAP1 POP PUSH2 0x160F DUP2 PUSH1 0x40 ADD MLOAD CALLER PUSH2 0x1724 JUMP JUMPDEST SWAP2 POP POP SWAP2 SWAP1 POP JUMP JUMPDEST PUSH1 0x0 DUP1 PUSH1 0x0 SWAP1 SLOAD SWAP1 PUSH2 0x100 EXP SWAP1 DIV PUSH20 0xFFFFFFFFFFFFFFFFFFFFFFFFFFFFFFFFFFFFFFFF AND SWAP1 POP DUP2 PUSH1 0x0 DUP1 PUSH2 0x100 EXP DUP2 SLOAD DUP2 PUSH20 0xFFFFFFFFFFFFFFFFFFFFFFFFFFFFFFFFFFFFFFFF MUL NOT AND SWAP1 DUP4 PUSH20 0xFFFFFFFFFFFFFFFFFFFFFFFFFFFFFFFFFFFFFFFF AND MUL OR SWAP1 SSTORE POP DUP2 PUSH20 0xFFFFFFFFFFFFFFFFFFFFFFFFFFFFFFFFFFFFFFFF AND DUP2 PUSH20 0xFFFFFFFFFFFFFFFFFFFFFFFFFFFFFFFFFFFFFFFF AND PUSH32 0x8BE0079C531659141344CD1FD0A4F28419497F9722A3DAAFE3B4186F6B6457E0 PUSH1 0x40 MLOAD PUSH1 0x40 MLOAD DUP1 SWAP2 SUB SWAP1 LOG3 POP POP JUMP JUMPDEST PUSH1 0x0 DUP2 PUSH20 0xFFFFFFFFFFFFFFFFFFFFFFFFFFFFFFFFFFFFFFFF AND DUP4 PUSH20 0xFFFFFFFFFFFFFFFFFFFFFFFFFFFFFFFFFFFFFFFF AND SUB PUSH2 0x1719 JUMPI PUSH1 0x1 SWAP1 POP PUSH2 0x171E JUMP JUMPDEST PUSH1 0x0 SWAP1 POP JUMPDEST SWAP3 SWAP2 POP POP JUMP JUMPDEST PUSH1 0x0 DUP2 PUSH20 0xFFFFFFFFFFFFFFFFFFFFFFFFFFFFFFFFFFFFFFFF AND DUP4 PUSH20 0xFFFFFFFFFFFFFFFFFFFFFFFFFFFFFFFFFFFFFFFF AND SUB PUSH2 0x1762 JUMPI PUSH1 0x1 SWAP1 POP PUSH2 0x1767 JUMP JUMPDEST PUSH1 0x0 SWAP1 POP JUMPDEST SWAP3 SWAP2 POP POP JUMP JUMPDEST PUSH1 0x0 PUSH1 0x40 MLOAD SWAP1 POP SWAP1 JUMP JUMPDEST PUSH1 0x0 DUP1 REVERT JUMPDEST PUSH1 0x0 DUP1 REVERT JUMPDEST PUSH1 0x0 DUP2 SWAP1 POP SWAP2 SWAP1 POP JUMP JUMPDEST PUSH2 0x1794 DUP2 PUSH2 0x1781 JUMP JUMPDEST DUP2 EQ PUSH2 0x179F JUMPI PUSH1 0x0 DUP1 REVERT JUMPDEST POP JUMP JUMPDEST PUSH1 0x0 DUP2 CALLDATALOAD SWAP1 POP PUSH2 0x17B1 DUP2 PUSH2 0x178B JUMP JUMPDEST SWAP3 SWAP2 POP POP JUMP JUMPDEST PUSH1 0x0 DUP1 PUSH1 0x40 DUP4 DUP6 SUB SLT ISZERO PUSH2 0x17CE JUMPI PUSH2 0x17CD PUSH2 0x1777 JUMP JUMPDEST JUMPDEST PUSH1 0x0 PUSH2 0x17DC DUP6 DUP3 DUP7 ADD PUSH2 0x17A2 JUMP JUMPDEST SWAP3 POP POP PUSH1 0x20 PUSH2 0x17ED DUP6 DUP3 DUP7 ADD PUSH2 0x17A2 JUMP JUMPDEST SWAP2 POP POP SWAP3 POP SWAP3 SWAP1 POP JUMP JUMPDEST PUSH1 0x0 DUP2 ISZERO ISZERO SWAP1 POP SWAP2 SWAP1 POP JUMP JUMPDEST PUSH2 0x180C DUP2 PUSH2 0x17F7 JUMP JUMPDEST DUP3 MSTORE POP POP JUMP JUMPDEST PUSH1 0x0 PUSH1 0x20 DUP3 ADD SWAP1 POP PUSH2 0x1827 PUSH1 0x0 DUP4 ADD DUP5 PUSH2 0x1803 JUMP JUMPDEST SWAP3 SWAP2 POP POP JUMP JUMPDEST PUSH1 0x0 DUP2 MLOAD SWAP1 POP SWAP2 SWAP1 POP JUMP JUMPDEST PUSH1 0x0 DUP3 DUP3 MSTORE PUSH1 0x20 DUP3 ADD SWAP1 POP SWAP3 SWAP2 POP POP JUMP JUMPDEST PUSH1 0x0 DUP2 SWAP1 POP PUSH1 0x20 DUP3 ADD SWAP1 POP SWAP2 SWAP1 POP JUMP JUMPDEST PUSH2 0x1862 DUP2 PUSH2 0x1781 JUMP JUMPDEST DUP3 MSTORE POP POP JUMP JUMPDEST PUSH32 0x4E487B7100000000000000000000000000000000000000000000000000000000 PUSH1 0x0 MSTORE PUSH1 0x21 PUSH1 0x4 MSTORE PUSH1 0x24 PUSH1 0x0 REVERT JUMPDEST PUSH1 0x3 DUP2 LT PUSH2 0x18A8 JUMPI PUSH2 0x18A7 PUSH2 0x1868 JUMP JUMPDEST JUMPDEST POP JUMP JUMPDEST PUSH1 0x0 DUP2 SWAP1 POP PUSH2 0x18B9 DUP3 PUSH2 0x1897 JUMP JUMPDEST SWAP2 SWAP1 POP JUMP JUMPDEST PUSH1 0x0 PUSH2 0x18C9 DUP3 PUSH2 0x18AB JUMP JUMPDEST SWAP1 POP SWAP2 SWAP1 POP JUMP JUMPDEST PUSH2 0x18D9 DUP2 PUSH2 0x18BE JUMP JUMPDEST DUP3 MSTORE POP POP JUMP JUMPDEST PUSH1 0x4 DUP2 LT PUSH2 0x18F0 JUMPI PUSH2 0x18EF PUSH2 0x1868 JUMP JUMPDEST JUMPDEST POP JUMP JUMPDEST PUSH1 0x0 DUP2 SWAP1 POP PUSH2 0x1901 DUP3 PUSH2 0x18DF JUMP JUMPDEST SWAP2 SWAP1 POP JUMP JUMPDEST PUSH1 0x0 PUSH2 0x1911 DUP3 PUSH2 0x18F3 JUMP JUMPDEST SWAP1 POP SWAP2 SWAP1 POP JUMP JUMPDEST PUSH2 0x1921 DUP2 PUSH2 0x1906 JUMP JUMPDEST DUP3 MSTORE POP POP JUMP JUMPDEST PUSH1 0xC0 DUP3 ADD PUSH1 0x0 DUP3 ADD MLOAD PUSH2 0x193D PUSH1 0x0 DUP6 ADD DUP3 PUSH2 0x1859 JUMP JUMPDEST POP PUSH1 0x20 DUP3 ADD MLOAD PUSH2 0x1950 PUSH1 0x20 DUP6 ADD DUP3 PUSH2 0x1859 JUMP JUMPDEST POP PUSH1 0x40 DUP3 ADD MLOAD PUSH2 0x1963 PUSH1 0x40 DUP6 ADD DUP3 PUSH2 0x1859 JUMP JUMPDEST POP PUSH1 0x60 DUP3 ADD MLOAD PUSH2 0x1976 PUSH1 0x60 DUP6 ADD DUP3 PUSH2 0x1859 JUMP JUMPDEST POP PUSH1 0x80 DUP3 ADD MLOAD PUSH2 0x1989 PUSH1 0x80 DUP6 ADD DUP3 PUSH2 0x18D0 JUMP JUMPDEST POP PUSH1 0xA0 DUP3 ADD MLOAD PUSH2 0x199C PUSH1 0xA0 DUP6 ADD DUP3 PUSH2 0x1918 JUMP JUMPDEST POP POP POP POP JUMP JUMPDEST PUSH1 0x0 PUSH2 0x19AE DUP4 DUP4 PUSH2 0x1927 JUMP JUMPDEST PUSH1 0xC0 DUP4 ADD SWAP1 POP SWAP3 SWAP2 POP POP JUMP JUMPDEST PUSH1 0x0 PUSH1 0x20 DUP3 ADD SWAP1 POP SWAP2 SWAP1 POP JUMP JUMPDEST PUSH1 0x0 PUSH2 0x19D2 DUP3 PUSH2 0x182D JUMP JUMPDEST PUSH2 0x19DC DUP2 DUP6 PUSH2 0x1838 JUMP JUMPDEST SWAP4 POP PUSH2 0x19E7 DUP4 PUSH2 0x1849 JUMP JUMPDEST DUP1 PUSH1 0x0 JUMPDEST DUP4 DUP2 LT ISZERO PUSH2 0x1A18 JUMPI DUP2 MLOAD PUSH2 0x19FF DUP9 DUP3 PUSH2 0x19A2 JUMP JUMPDEST SWAP8 POP PUSH2 0x1A0A DUP4 PUSH2 0x19BA JUMP JUMPDEST SWAP3 POP POP PUSH1 0x1 DUP2 ADD SWAP1 POP PUSH2 0x19EB JUMP JUMPDEST POP DUP6 SWAP4 POP POP POP POP SWAP3 SWAP2 POP POP JUMP JUMPDEST PUSH1 0x0 PUSH1 0x20 DUP3 ADD SWAP1 POP DUP2 DUP2 SUB PUSH1 0x0 DUP4 ADD MSTORE PUSH2 0x1A3F DUP2 DUP5 PUSH2 0x19C7 JUMP JUMPDEST SWAP1 POP SWAP3 SWAP2 POP POP JUMP JUMPDEST PUSH1 0x0 DUP2 MLOAD SWAP1 POP SWAP2 SWAP1 POP JUMP JUMPDEST PUSH1 0x0 DUP3 DUP3 MSTORE PUSH1 0x20 DUP3 ADD SWAP1 POP SWAP3 SWAP2 POP POP JUMP JUMPDEST PUSH1 0x0 DUP2 SWAP1 POP PUSH1 0x20 DUP3 ADD SWAP1 POP SWAP2 SWAP1 POP JUMP JUMPDEST PUSH1 0x5 DUP2 LT PUSH2 0x1A84 JUMPI PUSH2 0x1A83 PUSH2 0x1868 JUMP JUMPDEST JUMPDEST POP JUMP JUMPDEST PUSH1 0x0 DUP2 SWAP1 POP PUSH2 0x1A95 DUP3 PUSH2 0x1A73 JUMP JUMPDEST SWAP2 SWAP1 POP JUMP JUMPDEST PUSH1 0x0 PUSH2 0x1AA5 DUP3 PUSH2 0x1A87 JUMP JUMPDEST SWAP1 POP SWAP2 SWAP1 POP JUMP JUMPDEST PUSH2 0x1AB5 DUP2 PUSH2 0x1A9A JUMP JUMPDEST DUP3 MSTORE POP POP JUMP JUMPDEST PUSH2 0x120 DUP3 ADD PUSH1 0x0 DUP3 ADD MLOAD PUSH2 0x1AD2 PUSH1 0x0 DUP6 ADD DUP3 PUSH2 0x1859 JUMP JUMPDEST POP PUSH1 0x20 DUP3 ADD MLOAD PUSH2 0x1AE5 PUSH1 0x20 DUP6 ADD DUP3 PUSH2 0x1859 JUMP JUMPDEST POP PUSH1 0x40 DUP3 ADD MLOAD PUSH2 0x1AF8 PUSH1 0x40 DUP6 ADD DUP3 PUSH2 0x1859 JUMP JUMPDEST POP PUSH1 0x60 DUP3 ADD MLOAD PUSH2 0x1B0B PUSH1 0x60 DUP6 ADD DUP3 PUSH2 0x1859 JUMP JUMPDEST POP PUSH1 0x80 DUP3 ADD MLOAD PUSH2 0x1B1E PUSH1 0x80 DUP6 ADD DUP3 PUSH2 0x1AAC JUMP JUMPDEST POP PUSH1 0xA0 DUP3 ADD MLOAD PUSH2 0x1B31 PUSH1 0xA0 DUP6 ADD DUP3 PUSH2 0x1859 JUMP JUMPDEST POP PUSH1 0xC0 DUP3 ADD MLOAD PUSH2 0x1B44 PUSH1 0xC0 DUP6 ADD DUP3 PUSH2 0x1859 JUMP JUMPDEST POP PUSH1 0xE0 DUP3 ADD MLOAD PUSH2 0x1B57 PUSH1 0xE0 DUP6 ADD DUP3 PUSH2 0x1859 JUMP JUMPDEST POP PUSH2 0x100 DUP3 ADD MLOAD PUSH2 0x1B6C PUSH2 0x100 DUP6 ADD DUP3 PUSH2 0x1859 JUMP JUMPDEST POP POP POP POP JUMP JUMPDEST PUSH1 0x0 PUSH2 0x1B7E DUP4 DUP4 PUSH2 0x1ABB JUMP JUMPDEST PUSH2 0x120 DUP4 ADD SWAP1 POP SWAP3 SWAP2 POP POP JUMP JUMPDEST PUSH1 0x0 PUSH1 0x20 DUP3 ADD SWAP1 POP SWAP2 SWAP1 POP JUMP JUMPDEST PUSH1 0x0 PUSH2 0x1BA3 DUP3 PUSH2 0x1A47 JUMP JUMPDEST PUSH2 0x1BAD DUP2 DUP6 PUSH2 0x1A52 JUMP JUMPDEST SWAP4 POP PUSH2 0x1BB8 DUP4 PUSH2 0x1A63 JUMP JUMPDEST DUP1 PUSH1 0x0 JUMPDEST DUP4 DUP2 LT ISZERO PUSH2 0x1BE9 JUMPI DUP2 MLOAD PUSH2 0x1BD0 DUP9 DUP3 PUSH2 0x1B72 JUMP JUMPDEST SWAP8 POP PUSH2 0x1BDB DUP4 PUSH2 0x1B8B JUMP JUMPDEST SWAP3 POP POP PUSH1 0x1 DUP2 ADD SWAP1 POP PUSH2 0x1BBC JUMP JUMPDEST POP DUP6 SWAP4 POP POP POP POP SWAP3 SWAP2 POP POP JUMP JUMPDEST PUSH1 0x0 PUSH1 0x20 DUP3 ADD SWAP1 POP DUP2 DUP2 SUB PUSH1 0x0 DUP4 ADD MSTORE PUSH2 0x1C10 DUP2 DUP5 PUSH2 0x1B98 JUMP JUMPDEST SWAP1 POP SWAP3 SWAP2 POP POP JUMP JUMPDEST PUSH1 0x0 PUSH20 0xFFFFFFFFFFFFFFFFFFFFFFFFFFFFFFFFFFFFFFFF DUP3 AND SWAP1 POP SWAP2 SWAP1 POP JUMP JUMPDEST PUSH1 0x0 PUSH2 0x1C43 DUP3 PUSH2 0x1C18 JUMP JUMPDEST SWAP1 POP SWAP2 SWAP1 POP JUMP JUMPDEST PUSH2 0x1C53 DUP2 PUSH2 0x1C38 JUMP JUMPDEST DUP3 MSTORE POP POP JUMP JUMPDEST PUSH1 0x0 PUSH1 0x20 DUP3 ADD SWAP1 POP PUSH2 0x1C6E PUSH1 0x0 DUP4 ADD DUP5 PUSH2 0x1C4A JUMP JUMPDEST SWAP3 SWAP2 POP POP JUMP JUMPDEST PUSH1 0x0 DUP2 MLOAD SWAP1 POP SWAP2 SWAP1 POP JUMP JUMPDEST PUSH1 0x0 DUP3 DUP3 MSTORE PUSH1 0x20 DUP3 ADD SWAP1 POP SWAP3 SWAP2 POP POP JUMP JUMPDEST PUSH1 0x0 DUP2 SWAP1 POP PUSH1 0x20 DUP3 ADD SWAP1 POP SWAP2 SWAP1 POP JUMP JUMPDEST PUSH2 0x120 DUP3 ADD PUSH1 0x0 DUP3 ADD MLOAD PUSH2 0x1CB7 PUSH1 0x0 DUP6 ADD DUP3 PUSH2 0x1859 JUMP JUMPDEST POP PUSH1 0x20 DUP3 ADD MLOAD PUSH2 0x1CCA PUSH1 0x20 DUP6 ADD DUP3 PUSH2 0x1859 JUMP JUMPDEST POP PUSH1 0x40 DUP3 ADD MLOAD PUSH2 0x1CDD PUSH1 0x40 DUP6 ADD DUP3 PUSH2 0x1859 JUMP JUMPDEST POP PUSH1 0x60 DUP3 ADD MLOAD PUSH2 0x1CF0 PUSH1 0x60 DUP6 ADD DUP3 PUSH2 0x1859 JUMP JUMPDEST POP PUSH1 0x80 DUP3 ADD MLOAD PUSH2 0x1D03 PUSH1 0x80 DUP6 ADD DUP3 PUSH2 0x1AAC JUMP JUMPDEST POP PUSH1 0xA0 DUP3 ADD MLOAD PUSH2 0x1D16 PUSH1 0xA0 DUP6 ADD DUP3 PUSH2 0x1859 JUMP JUMPDEST POP PUSH1 0xC0 DUP3 ADD MLOAD PUSH2 0x1D29 PUSH1 0xC0 DUP6 ADD DUP3 PUSH2 0x1859 JUMP JUMPDEST POP PUSH1 0xE0 DUP3 ADD MLOAD PUSH2 0x1D3C PUSH1 0xE0 DUP6 ADD DUP3 PUSH2 0x1859 JUMP JUMPDEST POP PUSH2 0x100 DUP3 ADD MLOAD PUSH2 0x1D51 PUSH2 0x100 DUP6 ADD DUP3 PUSH2 0x1859 JUMP JUMPDEST POP POP POP POP JUMP JUMPDEST PUSH1 0x0 PUSH2 0x1D63 DUP4 DUP4 PUSH2 0x1CA0 JUMP JUMPDEST PUSH2 0x120 DUP4 ADD SWAP1 POP SWAP3 SWAP2 POP POP JUMP JUMPDEST PUSH1 0x0 PUSH1 0x20 DUP3 ADD SWAP1 POP SWAP2 SWAP1 POP JUMP JUMPDEST PUSH1 0x0 PUSH2 0x1D88 DUP3 PUSH2 0x1C74 JUMP JUMPDEST PUSH2 0x1D92 DUP2 DUP6 PUSH2 0x1C7F JUMP JUMPDEST SWAP4 POP PUSH2 0x1D9D DUP4 PUSH2 0x1C90 JUMP JUMPDEST DUP1 PUSH1 0x0 JUMPDEST DUP4 DUP2 LT ISZERO PUSH2 0x1DCE JUMPI DUP2 MLOAD PUSH2 0x1DB5 DUP9 DUP3 PUSH2 0x1D57 JUMP JUMPDEST SWAP8 POP PUSH2 0x1DC0 DUP4 PUSH2 0x1D70 JUMP JUMPDEST SWAP3 POP POP PUSH1 0x1 DUP2 ADD SWAP1 POP PUSH2 0x1DA1 JUMP JUMPDEST POP DUP6 SWAP4 POP POP POP POP SWAP3 SWAP2 POP POP JUMP JUMPDEST PUSH1 0x0 PUSH1 0x20 DUP3 ADD SWAP1 POP DUP2 DUP2 SUB PUSH1 0x0 DUP4 ADD MSTORE PUSH2 0x1DF5 DUP2 DUP5 PUSH2 0x1D7D JUMP JUMPDEST SWAP1 POP SWAP3 SWAP2 POP POP JUMP JUMPDEST PUSH1 0x5 DUP2 LT PUSH2 0x1E0A JUMPI PUSH1 0x0 DUP1 REVERT JUMPDEST POP JUMP JUMPDEST PUSH1 0x0 DUP2 CALLDATALOAD SWAP1 POP PUSH2 0x1E1C DUP2 PUSH2 0x1DFD JUMP JUMPDEST SWAP3 SWAP2 POP POP JUMP JUMPDEST PUSH1 0x0 DUP1 PUSH1 0x0 DUP1 PUSH1 0x0 DUP1 PUSH1 0x0 DUP1 PUSH2 0x100 DUP10 DUP12 SUB SLT ISZERO PUSH2 0x1E43 JUMPI PUSH2 0x1E42 PUSH2 0x1777 JUMP JUMPDEST JUMPDEST PUSH1 0x0 PUSH2 0x1E51 DUP12 DUP3 DUP13 ADD PUSH2 0x17A2 JUMP JUMPDEST SWAP9 POP POP PUSH1 0x20 PUSH2 0x1E62 DUP12 DUP3 DUP13 ADD PUSH2 0x17A2 JUMP JUMPDEST SWAP8 POP POP PUSH1 0x40 PUSH2 0x1E73 DUP12 DUP3 DUP13 ADD PUSH2 0x17A2 JUMP JUMPDEST SWAP7 POP POP PUSH1 0x60 PUSH2 0x1E84 DUP12 DUP3 DUP13 ADD PUSH2 0x1E0D JUMP JUMPDEST SWAP6 POP POP PUSH1 0x80 PUSH2 0x1E95 DUP12 DUP3 DUP13 ADD PUSH2 0x17A2 JUMP JUMPDEST SWAP5 POP POP PUSH1 0xA0 PUSH2 0x1EA6 DUP12 DUP3 DUP13 ADD PUSH2 0x17A2 JUMP JUMPDEST SWAP4 POP POP PUSH1 0xC0 PUSH2 0x1EB7 DUP12 DUP3 DUP13 ADD PUSH2 0x17A2 JUMP JUMPDEST SWAP3 POP POP PUSH1 0xE0 PUSH2 0x1EC8 DUP12 DUP3 DUP13 ADD PUSH2 0x17A2 JUMP JUMPDEST SWAP2 POP POP SWAP3 SWAP6 SWAP9 POP SWAP3 SWAP6 SWAP9 SWAP1 SWAP4 SWAP7 POP JUMP JUMPDEST PUSH2 0x1EE1 DUP2 PUSH2 0x1C38 JUMP JUMPDEST DUP2 EQ PUSH2 0x1EEC JUMPI PUSH1 0x0 DUP1 REVERT JUMPDEST POP JUMP JUMPDEST PUSH1 0x0 DUP2 CALLDATALOAD SWAP1 POP PUSH2 0x1EFE DUP2 PUSH2 0x1ED8 JUMP JUMPDEST SWAP3 SWAP2 POP POP JUMP JUMPDEST PUSH1 0x0 PUSH1 0x20 DUP3 DUP5 SUB SLT ISZERO PUSH2 0x1F1A JUMPI PUSH2 0x1F19 PUSH2 0x1777 JUMP JUMPDEST JUMPDEST PUSH1 0x0 PUSH2 0x1F28 DUP5 DUP3 DUP6 ADD PUSH2 0x1EEF JUMP JUMPDEST SWAP2 POP POP SWAP3 SWAP2 POP POP JUMP JUMPDEST PUSH1 0x0 DUP1 REVERT JUMPDEST PUSH1 0x0 PUSH1 0x1F NOT PUSH1 0x1F DUP4 ADD AND SWAP1 POP SWAP2 SWAP1 POP JUMP JUMPDEST PUSH32 0x4E487B7100000000000000000000000000000000000000000000000000000000 PUSH1 0x0 MSTORE PUSH1 0x41 PUSH1 0x4 MSTORE PUSH1 0x24 PUSH1 0x0 REVERT JUMPDEST PUSH2 0x1F7F DUP3 PUSH2 0x1F36 JUMP JUMPDEST DUP2 ADD DUP2 DUP2 LT PUSH8 0xFFFFFFFFFFFFFFFF DUP3 GT OR ISZERO PUSH2 0x1F9E JUMPI PUSH2 0x1F9D PUSH2 0x1F47 JUMP JUMPDEST JUMPDEST DUP1 PUSH1 0x40 MSTORE POP POP POP JUMP JUMPDEST PUSH1 0x0 PUSH2 0x1FB1 PUSH2 0x176D JUMP JUMPDEST SWAP1 POP PUSH2 0x1FBD DUP3 DUP3 PUSH2 0x1F76 JUMP JUMPDEST SWAP2 SWAP1 POP JUMP JUMPDEST PUSH1 0x0 PUSH8 0xFFFFFFFFFFFFFFFF DUP3 GT ISZERO PUSH2 0x1FDD JUMPI PUSH2 0x1FDC PUSH2 0x1F47 JUMP JUMPDEST JUMPDEST PUSH1 0x20 DUP3 MUL SWAP1 POP PUSH1 0x20 DUP2 ADD SWAP1 POP SWAP2 SWAP1 POP JUMP JUMPDEST PUSH1 0x0 DUP1 REVERT JUMPDEST PUSH1 0x0 DUP1 REVERT JUMPDEST PUSH1 0x0 DUP1 REVERT JUMPDEST PUSH1 0x0 DUP2 MLOAD SWAP1 POP PUSH2 0x200C DUP2 PUSH2 0x178B JUMP JUMPDEST SWAP3 SWAP2 POP POP JUMP JUMPDEST PUSH1 0x3 DUP2 LT PUSH2 0x201F JUMPI PUSH1 0x0 DUP1 REVERT JUMPDEST POP JUMP JUMPDEST PUSH1 0x0 DUP2 MLOAD SWAP1 POP PUSH2 0x2031 DUP2 PUSH2 0x2012 JUMP JUMPDEST SWAP3 SWAP2 POP POP JUMP JUMPDEST PUSH1 0x4 DUP2 LT PUSH2 0x2044 JUMPI PUSH1 0x0 DUP1 REVERT JUMPDEST POP JUMP JUMPDEST PUSH1 0x0 DUP2 MLOAD SWAP1 POP PUSH2 0x2056 DUP2 PUSH2 0x2037 JUMP JUMPDEST SWAP3 SWAP2 POP POP JUMP JUMPDEST PUSH1 0x0 PUSH1 0xC0 DUP3 DUP5 SUB SLT ISZERO PUSH2 0x2072 JUMPI PUSH2 0x2071 PUSH2 0x1FF3 JUMP JUMPDEST JUMPDEST PUSH2 0x207C PUSH1 0xC0 PUSH2 0x1FA7 JUMP JUMPDEST SWAP1 POP PUSH1 0x0 PUSH2 0x208C DUP5 DUP3 DUP6 ADD PUSH2 0x1FFD JUMP JUMPDEST PUSH1 0x0 DUP4 ADD MSTORE POP PUSH1 0x20 PUSH2 0x20A0 DUP5 DUP3 DUP6 ADD PUSH2 0x1FFD JUMP JUMPDEST PUSH1 0x20 DUP4 ADD MSTORE POP PUSH1 0x40 PUSH2 0x20B4 DUP5 DUP3 DUP6 ADD PUSH2 0x1FFD JUMP JUMPDEST PUSH1 0x40 DUP4 ADD MSTORE POP PUSH1 0x60 PUSH2 0x20C8 DUP5 DUP3 DUP6 ADD PUSH2 0x1FFD JUMP JUMPDEST PUSH1 0x60 DUP4 ADD MSTORE POP PUSH1 0x80 PUSH2 0x20DC DUP5 DUP3 DUP6 ADD PUSH2 0x2022 JUMP JUMPDEST PUSH1 0x80 DUP4 ADD MSTORE POP PUSH1 0xA0 PUSH2 0x20F0 DUP5 DUP3 DUP6 ADD PUSH2 0x2047 JUMP JUMPDEST PUSH1 0xA0 DUP4 ADD MSTORE POP SWAP3 SWAP2 POP POP JUMP JUMPDEST PUSH1 0x0 PUSH2 0x210F PUSH2 0x210A DUP5 PUSH2 0x1FC2 JUMP JUMPDEST PUSH2 0x1FA7 JUMP JUMPDEST SWAP1 POP DUP1 DUP4 DUP3 MSTORE PUSH1 0x20 DUP3 ADD SWAP1 POP PUSH1 0xC0 DUP5 MUL DUP4 ADD DUP6 DUP2 GT ISZERO PUSH2 0x2132 JUMPI PUSH2 0x2131 PUSH2 0x1FEE JUMP JUMPDEST JUMPDEST DUP4 JUMPDEST DUP2 DUP2 LT ISZERO PUSH2 0x215B JUMPI DUP1 PUSH2 0x2147 DUP9 DUP3 PUSH2 0x205C JUMP JUMPDEST DUP5 MSTORE PUSH1 0x20 DUP5 ADD SWAP4 POP POP PUSH1 0xC0 DUP2 ADD SWAP1 POP PUSH2 0x2134 JUMP JUMPDEST POP POP POP SWAP4 SWAP3 POP POP POP JUMP JUMPDEST PUSH1 0x0 DUP3 PUSH1 0x1F DUP4 ADD SLT PUSH2 0x217A JUMPI PUSH2 0x2179 PUSH2 0x1F31 JUMP JUMPDEST JUMPDEST DUP2 MLOAD PUSH2 0x218A DUP5 DUP3 PUSH1 0x20 DUP7 ADD PUSH2 0x20FC JUMP JUMPDEST SWAP2 POP POP SWAP3 SWAP2 POP POP JUMP JUMPDEST PUSH1 0x0 PUSH1 0x20 DUP3 DUP5 SUB SLT ISZERO PUSH2 0x21A9 JUMPI PUSH2 0x21A8 PUSH2 0x1777 JUMP JUMPDEST JUMPDEST PUSH1 0x0 DUP3 ADD MLOAD PUSH8 0xFFFFFFFFFFFFFFFF DUP2 GT ISZERO PUSH2 0x21C7 JUMPI PUSH2 0x21C6 PUSH2 0x177C JUMP JUMPDEST JUMPDEST PUSH2 0x21D3 DUP5 DUP3 DUP6 ADD PUSH2 0x2165 JUMP JUMPDEST SWAP2 POP POP SWAP3 SWAP2 POP POP JUMP JUMPDEST PUSH32 0x4E487B7100000000000000000000000000000000000000000000000000000000 PUSH1 0x0 MSTORE PUSH1 0x32 PUSH1 0x4 MSTORE PUSH1 0x24 PUSH1 0x0 REVERT JUMPDEST PUSH32 0x4E487B7100000000000000000000000000000000000000000000000000000000 PUSH1 0x0 MSTORE PUSH1 0x11 PUSH1 0x4 MSTORE PUSH1 0x24 PUSH1 0x0 REVERT JUMPDEST PUSH1 0x0 PUSH2 0x2245 DUP3 PUSH2 0x1781 JUMP JUMPDEST SWAP2 POP PUSH32 0xFFFFFFFFFFFFFFFFFFFFFFFFFFFFFFFFFFFFFFFFFFFFFFFFFFFFFFFFFFFFFFFF DUP3 SUB PUSH2 0x2277 JUMPI PUSH2 0x2276 PUSH2 0x220B JUMP JUMPDEST JUMPDEST PUSH1 0x1 DUP3 ADD SWAP1 POP SWAP2 SWAP1 POP JUMP JUMPDEST PUSH1 0x0 PUSH8 0xFFFFFFFFFFFFFFFF DUP3 GT ISZERO PUSH2 0x229D JUMPI PUSH2 0x229C PUSH2 0x1F47 JUMP JUMPDEST JUMPDEST PUSH1 0x20 DUP3 MUL SWAP1 POP PUSH1 0x20 DUP2 ADD SWAP1 POP SWAP2 SWAP1 POP JUMP JUMPDEST PUSH1 0x0 DUP2 MLOAD SWAP1 POP PUSH2 0x22BD DUP2 PUSH2 0x1DFD JUMP JUMPDEST SWAP3 SWAP2 POP POP JUMP JUMPDEST PUSH1 0x0 PUSH2 0x120 DUP3 DUP5 SUB SLT ISZERO PUSH2 0x22DA JUMPI PUSH2 0x22D9 PUSH2 0x1FF3 JUMP JUMPDEST JUMPDEST PUSH2 0x22E5 PUSH2 0x120 PUSH2 0x1FA7 JUMP JUMPDEST SWAP1 POP PUSH1 0x0 PUSH2 0x22F5 DUP5 DUP3 DUP6 ADD PUSH2 0x1FFD JUMP JUMPDEST PUSH1 0x0 DUP4 ADD MSTORE POP PUSH1 0x20 PUSH2 0x2309 DUP5 DUP3 DUP6 ADD PUSH2 0x1FFD JUMP JUMPDEST PUSH1 0x20 DUP4 ADD MSTORE POP PUSH1 0x40 PUSH2 0x231D DUP5 DUP3 DUP6 ADD PUSH2 0x1FFD JUMP JUMPDEST PUSH1 0x40 DUP4 ADD MSTORE POP PUSH1 0x60 PUSH2 0x2331 DUP5 DUP3 DUP6 ADD PUSH2 0x1FFD JUMP JUMPDEST PUSH1 0x60 DUP4 ADD MSTORE POP PUSH1 0x80 PUSH2 0x2345 DUP5 DUP3 DUP6 ADD PUSH2 0x22AE JUMP JUMPDEST PUSH1 0x80 DUP4 ADD MSTORE POP PUSH1 0xA0 PUSH2 0x2359 DUP5 DUP3 DUP6 ADD PUSH2 0x1FFD JUMP JUMPDEST PUSH1 0xA0 DUP4 ADD MSTORE POP PUSH1 0xC0 PUSH2 0x236D DUP5 DUP3 DUP6 ADD PUSH2 0x1FFD JUMP JUMPDEST PUSH1 0xC0 DUP4 ADD MSTORE POP PUSH1 0xE0 PUSH2 0x2381 DUP5 DUP3 DUP6 ADD PUSH2 0x1FFD JUMP JUMPDEST PUSH1 0xE0 DUP4 ADD MSTORE POP PUSH2 0x100 PUSH2 0x2396 DUP5 DUP3 DUP6 ADD PUSH2 0x1FFD JUMP JUMPDEST PUSH2 0x100 DUP4 ADD MSTORE POP SWAP3 SWAP2 POP POP JUMP JUMPDEST PUSH1 0x0 PUSH2 0x23B6 PUSH2 0x23B1 DUP5 PUSH2 0x2282 JUMP JUMPDEST PUSH2 0x1FA7 JUMP JUMPDEST SWAP1 POP DUP1 DUP4 DUP3 MSTORE PUSH1 0x20 DUP3 ADD SWAP1 POP PUSH2 0x120 DUP5 MUL DUP4 ADD DUP6 DUP2 GT ISZERO PUSH2 0x23DA JUMPI PUSH2 0x23D9 PUSH2 0x1FEE JUMP JUMPDEST JUMPDEST DUP4 JUMPDEST DUP2 DUP2 LT ISZERO PUSH2 0x2404 JUMPI DUP1 PUSH2 0x23EF DUP9 DUP3 PUSH2 0x22C3 JUMP JUMPDEST DUP5 MSTORE PUSH1 0x20 DUP5 ADD SWAP4 POP POP PUSH2 0x120 DUP2 ADD SWAP1 POP PUSH2 0x23DC JUMP JUMPDEST POP POP POP SWAP4 SWAP3 POP POP POP JUMP JUMPDEST PUSH1 0x0 DUP3 PUSH1 0x1F DUP4 ADD SLT PUSH2 0x2423 JUMPI PUSH2 0x2422 PUSH2 0x1F31 JUMP JUMPDEST JUMPDEST DUP2 MLOAD PUSH2 0x2433 DUP5 DUP3 PUSH1 0x20 DUP7 ADD PUSH2 0x23A3 JUMP JUMPDEST SWAP2 POP POP SWAP3 SWAP2 POP POP JUMP JUMPDEST PUSH1 0x0 PUSH1 0x20 DUP3 DUP5 SUB SLT ISZERO PUSH2 0x2452 JUMPI PUSH2 0x2451 PUSH2 0x1777 JUMP JUMPDEST JUMPDEST PUSH1 0x0 DUP3 ADD MLOAD PUSH8 0xFFFFFFFFFFFFFFFF DUP2 GT ISZERO PUSH2 0x2470 JUMPI PUSH2 0x246F PUSH2 0x177C JUMP JUMPDEST JUMPDEST PUSH2 0x247C DUP5 DUP3 DUP6 ADD PUSH2 0x240E JUMP JUMPDEST SWAP2 POP POP SWAP3 SWAP2 POP POP JUMP JUMPDEST PUSH1 0x0 PUSH8 0xFFFFFFFFFFFFFFFF DUP3 GT ISZERO PUSH2 0x24A0 JUMPI PUSH2 0x249F PUSH2 0x1F47 JUMP JUMPDEST JUMPDEST PUSH1 0x20 DUP3 MUL SWAP1 POP PUSH1 0x20 DUP2 ADD SWAP1 POP SWAP2 SWAP1 POP JUMP JUMPDEST PUSH1 0x0 PUSH2 0x120 DUP3 DUP5 SUB SLT ISZERO PUSH2 0x24C8 JUMPI PUSH2 0x24C7 PUSH2 0x1FF3 JUMP JUMPDEST JUMPDEST PUSH2 0x24D3 PUSH2 0x120 PUSH2 0x1FA7 JUMP JUMPDEST SWAP1 POP PUSH1 0x0 PUSH2 0x24E3 DUP5 DUP3 DUP6 ADD PUSH2 0x1FFD JUMP JUMPDEST PUSH1 0x0 DUP4 ADD MSTORE POP PUSH1 0x20 PUSH2 0x24F7 DUP5 DUP3 DUP6 ADD PUSH2 0x1FFD JUMP JUMPDEST PUSH1 0x20 DUP4 ADD MSTORE POP PUSH1 0x40 PUSH2 0x250B DUP5 DUP3 DUP6 ADD PUSH2 0x1FFD JUMP JUMPDEST PUSH1 0x40 DUP4 ADD MSTORE POP PUSH1 0x60 PUSH2 0x251F DUP5 DUP3 DUP6 ADD PUSH2 0x1FFD JUMP JUMPDEST PUSH1 0x60 DUP4 ADD MSTORE POP PUSH1 0x80 PUSH2 0x2533 DUP5 DUP3 DUP6 ADD PUSH2 0x22AE JUMP JUMPDEST PUSH1 0x80 DUP4 ADD MSTORE POP PUSH1 0xA0 PUSH2 0x2547 DUP5 DUP3 DUP6 ADD PUSH2 0x1FFD JUMP JUMPDEST PUSH1 0xA0 DUP4 ADD MSTORE POP PUSH1 0xC0 PUSH2 0x255B DUP5 DUP3 DUP6 ADD PUSH2 0x1FFD JUMP JUMPDEST PUSH1 0xC0 DUP4 ADD MSTORE POP PUSH1 0xE0 PUSH2 0x256F DUP5 DUP3 DUP6 ADD PUSH2 0x1FFD JUMP JUMPDEST PUSH1 0xE0 DUP4 ADD MSTORE POP PUSH2 0x100 PUSH2 0x2584 DUP5 DUP3 DUP6 ADD PUSH2 0x1FFD JUMP JUMPDEST PUSH2 0x100 DUP4 ADD MSTORE POP SWAP3 SWAP2 POP POP JUMP JUMPDEST PUSH1 0x0 PUSH2 0x25A4 PUSH2 0x259F DUP5 PUSH2 0x2485 JUMP JUMPDEST PUSH2 0x1FA7 JUMP JUMPDEST SWAP1 POP DUP1 DUP4 DUP3 MSTORE PUSH1 0x20 DUP3 ADD SWAP1 POP PUSH2 0x120 DUP5 MUL DUP4 ADD DUP6 DUP2 GT ISZERO PUSH2 0x25C8 JUMPI PUSH2 0x25C7 PUSH2 0x1FEE JUMP JUMPDEST JUMPDEST DUP4 JUMPDEST DUP2 DUP2 LT ISZERO PUSH2 0x25F2 JUMPI DUP1 PUSH2 0x25DD DUP9 DUP3 PUSH2 0x24B1 JUMP JUMPDEST DUP5 MSTORE PUSH1 0x20 DUP5 ADD SWAP4 POP POP PUSH2 0x120 DUP2 ADD SWAP1 POP PUSH2 0x25CA JUMP JUMPDEST POP POP POP SWAP4 SWAP3 POP POP POP JUMP JUMPDEST PUSH1 0x0 DUP3 PUSH1 0x1F DUP4 ADD SLT PUSH2 0x2611 JUMPI PUSH2 0x2610 PUSH2 0x1F31 JUMP JUMPDEST JUMPDEST DUP2 MLOAD PUSH2 0x2621 DUP5 DUP3 PUSH1 0x20 DUP7 ADD PUSH2 0x2591 JUMP JUMPDEST SWAP2 POP POP SWAP3 SWAP2 POP POP JUMP JUMPDEST PUSH1 0x0 PUSH1 0x20 DUP3 DUP5 SUB SLT ISZERO PUSH2 0x2640 JUMPI PUSH2 0x263F PUSH2 0x1777 JUMP JUMPDEST JUMPDEST PUSH1 0x0 DUP3 ADD MLOAD PUSH8 0xFFFFFFFFFFFFFFFF DUP2 GT ISZERO PUSH2 0x265E JUMPI PUSH2 0x265D PUSH2 0x177C JUMP JUMPDEST JUMPDEST PUSH2 0x266A DUP5 DUP3 DUP6 ADD PUSH2 0x25FC JUMP JUMPDEST SWAP2 POP POP SWAP3 SWAP2 POP POP JUMP JUMPDEST PUSH1 0x0 DUP3 DUP3 MSTORE PUSH1 0x20 DUP3 ADD SWAP1 POP SWAP3 SWAP2 POP POP JUMP JUMPDEST PUSH32 0x4C697374427573696E657373437572736F723A20616C72656164792065786973 PUSH1 0x0 DUP3 ADD MSTORE PUSH32 0x746564206163636F756E74000000000000000000000000000000000000000000 PUSH1 0x20 DUP3 ADD MSTORE POP JUMP JUMPDEST PUSH1 0x0 PUSH2 0x26E0 PUSH1 0x2B DUP4 PUSH2 0x2673 JUMP JUMPDEST SWAP2 POP PUSH2 0x26EB DUP3 PUSH2 0x2684 JUMP JUMPDEST PUSH1 0x40 DUP3 ADD SWAP1 POP SWAP2 SWAP1 POP JUMP JUMPDEST PUSH1 0x0 PUSH1 0x20 DUP3 ADD SWAP1 POP DUP2 DUP2 SUB PUSH1 0x0 DUP4 ADD MSTORE PUSH2 0x270F DUP2 PUSH2 0x26D3 JUMP JUMPDEST SWAP1 POP SWAP2 SWAP1 POP JUMP JUMPDEST PUSH32 0x4C697374427573696E657373437572736F723A206964206973206E6F74206265 PUSH1 0x0 DUP3 ADD MSTORE PUSH32 0x6C6F6E6720746F20616464726573730000000000000000000000000000000000 PUSH1 0x20 DUP3 ADD MSTORE POP JUMP JUMPDEST PUSH1 0x0 PUSH2 0x2772 PUSH1 0x2F DUP4 PUSH2 0x2673 JUMP JUMPDEST SWAP2 POP PUSH2 0x277D DUP3 PUSH2 0x2716 JUMP JUMPDEST PUSH1 0x40 DUP3 ADD SWAP1 POP SWAP2 SWAP1 POP JUMP JUMPDEST PUSH1 0x0 PUSH1 0x20 DUP3 ADD SWAP1 POP DUP2 DUP2 SUB PUSH1 0x0 DUP4 ADD MSTORE PUSH2 0x27A1 DUP2 PUSH2 0x2765 JUMP JUMPDEST SWAP1 POP SWAP2 SWAP1 POP JUMP JUMPDEST PUSH2 0x27B1 DUP2 PUSH2 0x1781 JUMP JUMPDEST DUP3 MSTORE POP POP JUMP JUMPDEST PUSH1 0x0 PUSH1 0x20 DUP3 ADD SWAP1 POP PUSH2 0x27CC PUSH1 0x0 DUP4 ADD DUP5 PUSH2 0x27A8 JUMP JUMPDEST SWAP3 SWAP2 POP POP JUMP JUMPDEST PUSH1 0x0 DUP2 MLOAD SWAP1 POP PUSH2 0x27E1 DUP2 PUSH2 0x1ED8 JUMP JUMPDEST SWAP3 SWAP2 POP POP JUMP JUMPDEST PUSH1 0x0 DUP1 REVERT JUMPDEST PUSH1 0x0 PUSH8 0xFFFFFFFFFFFFFFFF DUP3 GT ISZERO PUSH2 0x2807 JUMPI PUSH2 0x2806 PUSH2 0x1F47 JUMP JUMPDEST JUMPDEST PUSH2 0x2810 DUP3 PUSH2 0x1F36 JUMP JUMPDEST SWAP1 POP PUSH1 0x20 DUP2 ADD SWAP1 POP SWAP2 SWAP1 POP JUMP JUMPDEST PUSH1 0x0 JUMPDEST DUP4 DUP2 LT ISZERO PUSH2 0x283B JUMPI DUP1 DUP3 ADD MLOAD DUP2 DUP5 ADD MSTORE PUSH1 0x20 DUP2 ADD SWAP1 POP PUSH2 0x2820 JUMP JUMPDEST PUSH1 0x0 DUP5 DUP5 ADD MSTORE POP POP POP POP JUMP JUMPDEST PUSH1 0x0 PUSH2 0x285A PUSH2 0x2855 DUP5 PUSH2 0x27EC JUMP JUMPDEST PUSH2 0x1FA7 JUMP JUMPDEST SWAP1 POP DUP3 DUP2 MSTORE PUSH1 0x20 DUP2 ADD DUP5 DUP5 DUP5 ADD GT ISZERO PUSH2 0x2876 JUMPI PUSH2 0x2875 PUSH2 0x27E7 JUMP JUMPDEST JUMPDEST PUSH2 0x2881 DUP5 DUP3 DUP6 PUSH2 0x281D JUMP JUMPDEST POP SWAP4 SWAP3 POP POP POP JUMP JUMPDEST PUSH1 0x0 DUP3 PUSH1 0x1F DUP4 ADD SLT PUSH2 0x289E JUMPI PUSH2 0x289D PUSH2 0x1F31 JUMP JUMPDEST JUMPDEST DUP2 MLOAD PUSH2 0x28AE DUP5 DUP3 PUSH1 0x20 DUP7 ADD PUSH2 0x2847 JUMP JUMPDEST SWAP2 POP POP SWAP3 SWAP2 POP POP JUMP JUMPDEST PUSH1 0x0 PUSH2 0x140 DUP3 DUP5 SUB SLT ISZERO PUSH2 0x28CE JUMPI PUSH2 0x28CD PUSH2 0x1FF3 JUMP JUMPDEST JUMPDEST PUSH2 0x28D9 PUSH2 0x140 PUSH2 0x1FA7 JUMP JUMPDEST SWAP1 POP PUSH1 0x0 PUSH2 0x28E9 DUP5 DUP3 DUP6 ADD PUSH2 0x1FFD JUMP JUMPDEST PUSH1 0x0 DUP4 ADD MSTORE POP PUSH1 0x20 PUSH2 0x28FD DUP5 DUP3 DUP6 ADD PUSH2 0x1FFD JUMP JUMPDEST PUSH1 0x20 DUP4 ADD MSTORE POP PUSH1 0x40 PUSH2 0x2911 DUP5 DUP3 DUP6 ADD PUSH2 0x27D2 JUMP JUMPDEST PUSH1 0x40 DUP4 ADD MSTORE POP PUSH1 0x60 DUP3 ADD MLOAD PUSH8 0xFFFFFFFFFFFFFFFF DUP2 GT ISZERO PUSH2 0x2935 JUMPI PUSH2 0x2934 PUSH2 0x1FF8 JUMP JUMPDEST JUMPDEST PUSH2 0x2941 DUP5 DUP3 DUP6 ADD PUSH2 0x2889 JUMP JUMPDEST PUSH1 0x60 DUP4 ADD MSTORE POP PUSH1 0x80 DUP3 ADD MLOAD PUSH8 0xFFFFFFFFFFFFFFFF DUP2 GT ISZERO PUSH2 0x2965 JUMPI PUSH2 0x2964 PUSH2 0x1FF8 JUMP JUMPDEST JUMPDEST PUSH2 0x2971 DUP5 DUP3 DUP6 ADD PUSH2 0x2889 JUMP JUMPDEST PUSH1 0x80 DUP4 ADD MSTORE POP PUSH1 0xA0 DUP3 ADD MLOAD PUSH8 0xFFFFFFFFFFFFFFFF DUP2 GT ISZERO PUSH2 0x2995 JUMPI PUSH2 0x2994 PUSH2 0x1FF8 JUMP JUMPDEST JUMPDEST PUSH2 0x29A1 DUP5 DUP3 DUP6 ADD PUSH2 0x2889 JUMP JUMPDEST PUSH1 0xA0 DUP4 ADD MSTORE POP PUSH1 0xC0 DUP3 ADD MLOAD PUSH8 0xFFFFFFFFFFFFFFFF DUP2 GT ISZERO PUSH2 0x29C5 JUMPI PUSH2 0x29C4 PUSH2 0x1FF8 JUMP JUMPDEST JUMPDEST PUSH2 0x29D1 DUP5 DUP3 DUP6 ADD PUSH2 0x2889 JUMP JUMPDEST PUSH1 0xC0 DUP4 ADD MSTORE POP PUSH1 0xE0 DUP3 ADD MLOAD PUSH8 0xFFFFFFFFFFFFFFFF DUP2 GT ISZERO PUSH2 0x29F5 JUMPI PUSH2 0x29F4 PUSH2 0x1FF8 JUMP JUMPDEST JUMPDEST PUSH2 0x2A01 DUP5 DUP3 DUP6 ADD PUSH2 0x2889 JUMP JUMPDEST PUSH1 0xE0 DUP4 ADD MSTORE POP PUSH2 0x100 DUP3 ADD MLOAD PUSH8 0xFFFFFFFFFFFFFFFF DUP2 GT ISZERO PUSH2 0x2A26 JUMPI PUSH2 0x2A25 PUSH2 0x1FF8 JUMP JUMPDEST JUMPDEST PUSH2 0x2A32 DUP5 DUP3 DUP6 ADD PUSH2 0x2889 JUMP JUMPDEST PUSH2 0x100 DUP4 ADD MSTORE POP PUSH2 0x120 DUP3 ADD MLOAD PUSH8 0xFFFFFFFFFFFFFFFF DUP2 GT ISZERO PUSH2 0x2A58 JUMPI PUSH2 0x2A57 PUSH2 0x1FF8 JUMP JUMPDEST JUMPDEST PUSH2 0x2A64 DUP5 DUP3 DUP6 ADD PUSH2 0x2889 JUMP JUMPDEST PUSH2 0x120 DUP4 ADD MSTORE POP SWAP3 SWAP2 POP POP JUMP JUMPDEST PUSH1 0x0 PUSH1 0x20 DUP3 DUP5 SUB SLT ISZERO PUSH2 0x2A87 JUMPI PUSH2 0x2A86 PUSH2 0x1777 JUMP JUMPDEST JUMPDEST PUSH1 0x0 DUP3 ADD MLOAD PUSH8 0xFFFFFFFFFFFFFFFF DUP2 GT ISZERO PUSH2 0x2AA5 JUMPI PUSH2 0x2AA4 PUSH2 0x177C JUMP JUMPDEST JUMPDEST PUSH2 0x2AB1 DUP5 DUP3 DUP6 ADD PUSH2 0x28B7 JUMP JUMPDEST SWAP2 POP POP SWAP3 SWAP2 POP POP JUMP JUMPDEST PUSH32 0x494947436F6E74726F6C6C65723A206973206E6F7420494947204163636F756E PUSH1 0x0 DUP3 ADD MSTORE PUSH32 0x7400000000000000000000000000000000000000000000000000000000000000 PUSH1 0x20 DUP3 ADD MSTORE POP JUMP JUMPDEST PUSH1 0x0 PUSH2 0x2B16 PUSH1 0x21 DUP4 PUSH2 0x2673 JUMP JUMPDEST SWAP2 POP PUSH2 0x2B21 DUP3 PUSH2 0x2ABA JUMP JUMPDEST PUSH1 0x40 DUP3 ADD SWAP1 POP SWAP2 SWAP1 POP JUMP JUMPDEST PUSH1 0x0 PUSH1 0x20 DUP3 ADD SWAP1 POP DUP2 DUP2 SUB PUSH1 0x0 DUP4 ADD MSTORE PUSH2 0x2B45 DUP2 PUSH2 0x2B09 JUMP JUMPDEST SWAP1 POP SWAP2 SWAP1 POP JUMP JUMPDEST PUSH2 0x2B55 DUP2 PUSH2 0x1906 JUMP JUMPDEST DUP3 MSTORE POP POP JUMP JUMPDEST PUSH1 0x0 PUSH1 0x40 DUP3 ADD SWAP1 POP PUSH2 0x2B70 PUSH1 0x0 DUP4 ADD DUP6 PUSH2 0x27A8 JUMP JUMPDEST PUSH2 0x2B7D PUSH1 0x20 DUP4 ADD DUP5 PUSH2 0x2B4C JUMP JUMPDEST SWAP4 SWAP3 POP POP POP JUMP JUMPDEST PUSH2 0x120 DUP3 ADD PUSH1 0x0 DUP3 ADD MLOAD PUSH2 0x2B9B PUSH1 0x0 DUP6 ADD DUP3 PUSH2 0x1859 JUMP JUMPDEST POP PUSH1 0x20 DUP3 ADD MLOAD PUSH2 0x2BAE PUSH1 0x20 DUP6 ADD DUP3 PUSH2 0x1859 JUMP JUMPDEST POP PUSH1 0x40 DUP3 ADD MLOAD PUSH2 0x2BC1 PUSH1 0x40 DUP6 ADD DUP3 PUSH2 0x1859 JUMP JUMPDEST POP PUSH1 0x60 DUP3 ADD MLOAD PUSH2 0x2BD4 PUSH1 0x60 DUP6 ADD DUP3 PUSH2 0x1859 JUMP JUMPDEST POP PUSH1 0x80 DUP3 ADD MLOAD PUSH2 0x2BE7 PUSH1 0x80 DUP6 ADD DUP3 PUSH2 0x1AAC JUMP JUMPDEST POP PUSH1 0xA0 DUP3 ADD MLOAD PUSH2 0x2BFA PUSH1 0xA0 DUP6 ADD DUP3 PUSH2 0x1859 JUMP JUMPDEST POP PUSH1 0xC0 DUP3 ADD MLOAD PUSH2 0x2C0D PUSH1 0xC0 DUP6 ADD DUP3 PUSH2 0x1859 JUMP JUMPDEST POP PUSH1 0xE0 DUP3 ADD MLOAD PUSH2 0x2C20 PUSH1 0xE0 DUP6 ADD DUP3 PUSH2 0x1859 JUMP JUMPDEST POP PUSH2 0x100 DUP3 ADD MLOAD PUSH2 0x2C35 PUSH2 0x100 DUP6 ADD DUP3 PUSH2 0x1859 JUMP JUMPDEST POP POP POP POP JUMP JUMPDEST PUSH1 0x0 PUSH2 0x120 DUP3 ADD SWAP1 POP PUSH2 0x2C51 PUSH1 0x0 DUP4 ADD DUP5 PUSH2 0x2B84 JUMP JUMPDEST SWAP3 SWAP2 POP POP JUMP JUMPDEST PUSH32 0x4C697374456D706C6F796565437572736F723A2061646472657373206E6F7420 PUSH1 0x0 DUP3 ADD MSTORE PUSH32 0x62656C6F6E677320746F20746865206163636F756E7400000000000000000000 PUSH1 0x20 DUP3 ADD MSTORE POP JUMP JUMPDEST PUSH1 0x0 PUSH2 0x2CB3 PUSH1 0x36 DUP4 PUSH2 0x2673 JUMP JUMPDEST SWAP2 POP PUSH2 0x2CBE DUP3 PUSH2 0x2C57 JUMP JUMPDEST PUSH1 0x40 DUP3 ADD SWAP1 POP SWAP2 SWAP1 POP JUMP JUMPDEST PUSH1 0x0 PUSH1 0x20 DUP3 ADD SWAP1 POP DUP2 DUP2 SUB PUSH1 0x0 DUP4 ADD MSTORE PUSH2 0x2CE2 DUP2 PUSH2 0x2CA6 JUMP JUMPDEST SWAP1 POP SWAP2 SWAP1 POP JUMP JUMPDEST PUSH32 0x4C697374456D706C6F796565437572736F723A206964206973206E6F74206265 PUSH1 0x0 DUP3 ADD MSTORE PUSH32 0x6C6F6E6720746F20616464726573730000000000000000000000000000000000 PUSH1 0x20 DUP3 ADD MSTORE POP JUMP JUMPDEST PUSH1 0x0 PUSH2 0x2D45 PUSH1 0x2F DUP4 PUSH2 0x2673 JUMP JUMPDEST SWAP2 POP PUSH2 0x2D50 DUP3 PUSH2 0x2CE9 JUMP JUMPDEST PUSH1 0x40 DUP3 ADD SWAP1 POP SWAP2 SWAP1 POP JUMP JUMPDEST PUSH1 0x0 PUSH1 0x20 DUP3 ADD SWAP1 POP DUP2 DUP2 SUB PUSH1 0x0 DUP4 ADD MSTORE PUSH2 0x2D74 DUP2 PUSH2 0x2D38 JUMP JUMPDEST SWAP1 POP SWAP2 SWAP1 POP JUMP JUMPDEST PUSH32 0x4949474C69737449494752657175657374437572736F723A204F6E6C79207265 PUSH1 0x0 DUP3 ADD MSTORE PUSH32 0x7175657374204C52206F6E6574696D6500000000000000000000000000000000 PUSH1 0x20 DUP3 ADD MSTORE POP JUMP JUMPDEST PUSH1 0x0 PUSH2 0x2DD7 PUSH1 0x30 DUP4 PUSH2 0x2673 JUMP JUMPDEST SWAP2 POP PUSH2 0x2DE2 DUP3 PUSH2 0x2D7B JUMP JUMPDEST PUSH1 0x40 DUP3 ADD SWAP1 POP SWAP2 SWAP1 POP JUMP JUMPDEST PUSH1 0x0 PUSH1 0x20 DUP3 ADD SWAP1 POP DUP2 DUP2 SUB PUSH1 0x0 DUP4 ADD MSTORE PUSH2 0x2E06 DUP2 PUSH2 0x2DCA JUMP JUMPDEST SWAP1 POP SWAP2 SWAP1 POP JUMP JUMPDEST PUSH1 0xC0 DUP3 ADD PUSH1 0x0 DUP3 ADD MLOAD PUSH2 0x2E23 PUSH1 0x0 DUP6 ADD DUP3 PUSH2 0x1859 JUMP JUMPDEST POP PUSH1 0x20 DUP3 ADD MLOAD PUSH2 0x2E36 PUSH1 0x20 DUP6 ADD DUP3 PUSH2 0x1859 JUMP JUMPDEST POP PUSH1 0x40 DUP3 ADD MLOAD PUSH2 0x2E49 PUSH1 0x40 DUP6 ADD DUP3 PUSH2 0x1859 JUMP JUMPDEST POP PUSH1 0x60 DUP3 ADD MLOAD PUSH2 0x2E5C PUSH1 0x60 DUP6 ADD DUP3 PUSH2 0x1859 JUMP JUMPDEST POP PUSH1 0x80 DUP3 ADD MLOAD PUSH2 0x2E6F PUSH1 0x80 DUP6 ADD DUP3 PUSH2 0x18D0 JUMP JUMPDEST POP PUSH1 0xA0 DUP3 ADD MLOAD PUSH2 0x2E82 PUSH1 0xA0 DUP6 ADD DUP3 PUSH2 0x1918 JUMP JUMPDEST POP POP POP POP JUMP JUMPDEST PUSH1 0x0 PUSH1 0xC0 DUP3 ADD SWAP1 POP PUSH2 0x2E9D PUSH1 0x0 DUP4 ADD DUP5 PUSH2 0x2E0D JUMP JUMPDEST SWAP3 SWAP2 POP POP JUMP JUMPDEST PUSH2 0x120 DUP3 ADD PUSH1 0x0 DUP3 ADD MLOAD PUSH2 0x2EBA PUSH1 0x0 DUP6 ADD DUP3 PUSH2 0x1859 JUMP JUMPDEST POP PUSH1 0x20 DUP3 ADD MLOAD PUSH2 0x2ECD PUSH1 0x20 DUP6 ADD DUP3 PUSH2 0x1859 JUMP JUMPDEST POP PUSH1 0x40 DUP3 ADD MLOAD PUSH2 0x2EE0 PUSH1 0x40 DUP6 ADD DUP3 PUSH2 0x1859 JUMP JUMPDEST POP PUSH1 0x60 DUP3 ADD MLOAD PUSH2 0x2EF3 PUSH1 0x60 DUP6 ADD DUP3 PUSH2 0x1859 JUMP JUMPDEST POP PUSH1 0x80 DUP3 ADD MLOAD PUSH2 0x2F06 PUSH1 0x80 DUP6 ADD DUP3 PUSH2 0x1AAC JUMP JUMPDEST POP PUSH1 0xA0 DUP3 ADD MLOAD PUSH2 0x2F19 PUSH1 0xA0 DUP6 ADD DUP3 PUSH2 0x1859 JUMP JUMPDEST POP PUSH1 0xC0 DUP3 ADD MLOAD PUSH2 0x2F2C PUSH1 0xC0 DUP6 ADD DUP3 PUSH2 0x1859 JUMP JUMPDEST POP PUSH1 0xE0 DUP3 ADD MLOAD PUSH2 0x2F3F PUSH1 0xE0 DUP6 ADD DUP3 PUSH2 0x1859 JUMP JUMPDEST POP PUSH2 0x100 DUP3 ADD MLOAD PUSH2 0x2F54 PUSH2 0x100 DUP6 ADD DUP3 PUSH2 0x1859 JUMP JUMPDEST POP POP POP POP JUMP JUMPDEST PUSH1 0x0 PUSH2 0x120 DUP3 ADD SWAP1 POP PUSH2 0x2F70 PUSH1 0x0 DUP4 ADD DUP5 PUSH2 0x2EA3 JUMP JUMPDEST SWAP3 SWAP2 POP POP JUMP JUMPDEST PUSH1 0x0 PUSH1 0x20 DUP3 DUP5 SUB SLT ISZERO PUSH2 0x2F8C JUMPI PUSH2 0x2F8B PUSH2 0x1777 JUMP JUMPDEST JUMPDEST PUSH1 0x0 PUSH2 0x2F9A DUP5 DUP3 DUP6 ADD PUSH2 0x1FFD JUMP JUMPDEST SWAP2 POP POP SWAP3 SWAP2 POP POP JUMP JUMPDEST PUSH32 0x4F776E61626C653A206E6577206F776E657220697320746865207A65726F2061 PUSH1 0x0 DUP3 ADD MSTORE PUSH32 0x6464726573730000000000000000000000000000000000000000000000000000 PUSH1 0x20 DUP3 ADD MSTORE POP JUMP JUMPDEST PUSH1 0x0 PUSH2 0x2FFF PUSH1 0x26 DUP4 PUSH2 0x2673 JUMP JUMPDEST SWAP2 POP PUSH2 0x300A DUP3 PUSH2 0x2FA3 JUMP JUMPDEST PUSH1 0x40 DUP3 ADD SWAP1 POP SWAP2 SWAP1 POP JUMP JUMPDEST PUSH1 0x0 PUSH1 0x20 DUP3 ADD SWAP1 POP DUP2 DUP2 SUB PUSH1 0x0 DUP4 ADD MSTORE PUSH2 0x302E DUP2 PUSH2 0x2FF2 JUMP JUMPDEST SWAP1 POP SWAP2 SWAP1 POP JUMP JUMPDEST PUSH32 0x4F776E61626C653A2063616C6C6572206973206E6F7420746865206F776E6572 PUSH1 0x0 DUP3 ADD MSTORE POP JUMP JUMPDEST PUSH1 0x0 PUSH2 0x306B PUSH1 0x20 DUP4 PUSH2 0x2673 JUMP JUMPDEST SWAP2 POP PUSH2 0x3076 DUP3 PUSH2 0x3035 JUMP JUMPDEST PUSH1 0x20 DUP3 ADD SWAP1 POP SWAP2 SWAP1 POP JUMP JUMPDEST PUSH1 0x0 PUSH1 0x20 DUP3 ADD SWAP1 POP DUP2 DUP2 SUB PUSH1 0x0 DUP4 ADD MSTORE PUSH2 0x309A DUP2 PUSH2 0x305E JUMP JUMPDEST SWAP1 POP SWAP2 SWAP1 POP JUMP JUMPDEST PUSH1 0x0 PUSH2 0x140 DUP3 DUP5 SUB SLT ISZERO PUSH2 0x30B8 JUMPI PUSH2 0x30B7 PUSH2 0x1FF3 JUMP JUMPDEST JUMPDEST PUSH2 0x30C3 PUSH2 0x140 PUSH2 0x1FA7 JUMP JUMPDEST SWAP1 POP PUSH1 0x0 PUSH2 0x30D3 DUP5 DUP3 DUP6 ADD PUSH2 0x1FFD JUMP JUMPDEST PUSH1 0x0 DUP4 ADD MSTORE POP PUSH1 0x20 PUSH2 0x30E7 DUP5 DUP3 DUP6 ADD PUSH2 0x1FFD JUMP JUMPDEST PUSH1 0x20 DUP4 ADD MSTORE POP PUSH1 0x40 PUSH2 0x30FB DUP5 DUP3 DUP6 ADD PUSH2 0x27D2 JUMP JUMPDEST PUSH1 0x40 DUP4 ADD MSTORE POP PUSH1 0x60 DUP3 ADD MLOAD PUSH8 0xFFFFFFFFFFFFFFFF DUP2 GT ISZERO PUSH2 0x311F JUMPI PUSH2 0x311E PUSH2 0x1FF8 JUMP JUMPDEST JUMPDEST PUSH2 0x312B DUP5 DUP3 DUP6 ADD PUSH2 0x2889 JUMP JUMPDEST PUSH1 0x60 DUP4 ADD MSTORE POP PUSH1 0x80 DUP3 ADD MLOAD PUSH8 0xFFFFFFFFFFFFFFFF DUP2 GT ISZERO PUSH2 0x314F JUMPI PUSH2 0x314E PUSH2 0x1FF8 JUMP JUMPDEST JUMPDEST PUSH2 0x315B DUP5 DUP3 DUP6 ADD PUSH2 0x2889 JUMP JUMPDEST PUSH1 0x80 DUP4 ADD MSTORE POP PUSH1 0xA0 DUP3 ADD MLOAD PUSH8 0xFFFFFFFFFFFFFFFF DUP2 GT ISZERO PUSH2 0x317F JUMPI PUSH2 0x317E PUSH2 0x1FF8 JUMP JUMPDEST JUMPDEST PUSH2 0x318B DUP5 DUP3 DUP6 ADD PUSH2 0x2889 JUMP JUMPDEST PUSH1 0xA0 DUP4 ADD MSTORE POP PUSH1 0xC0 DUP3 ADD MLOAD PUSH8 0xFFFFFFFFFFFFFFFF DUP2 GT ISZERO PUSH2 0x31AF JUMPI PUSH2 0x31AE PUSH2 0x1FF8 JUMP JUMPDEST JUMPDEST PUSH2 0x31BB DUP5 DUP3 DUP6 ADD PUSH2 0x2889 JUMP JUMPDEST PUSH1 0xC0 DUP4 ADD MSTORE POP PUSH1 0xE0 DUP3 ADD MLOAD PUSH8 0xFFFFFFFFFFFFFFFF DUP2 GT ISZERO PUSH2 0x31DF JUMPI PUSH2 0x31DE PUSH2 0x1FF8 JUMP JUMPDEST JUMPDEST PUSH2 0x31EB DUP5 DUP3 DUP6 ADD PUSH2 0x2889 JUMP JUMPDEST PUSH1 0xE0 DUP4 ADD MSTORE POP PUSH2 0x100 DUP3 ADD MLOAD PUSH8 0xFFFFFFFFFFFFFFFF DUP2 GT ISZERO PUSH2 0x3210 JUMPI PUSH2 0x320F PUSH2 0x1FF8 JUMP JUMPDEST JUMPDEST PUSH2 0x321C DUP5 DUP3 DUP6 ADD PUSH2 0x2889 JUMP JUMPDEST PUSH2 0x100 DUP4 ADD MSTORE POP PUSH2 0x120 DUP3 ADD MLOAD PUSH8 0xFFFFFFFFFFFFFFFF DUP2 GT ISZERO PUSH2 0x3242 JUMPI PUSH2 0x3241 PUSH2 0x1FF8 JUMP JUMPDEST JUMPDEST PUSH2 0x324E DUP5 DUP3 DUP6 ADD PUSH2 0x2889 JUMP JUMPDEST PUSH2 0x120 DUP4 ADD MSTORE POP SWAP3 SWAP2 POP POP JUMP JUMPDEST PUSH1 0x0 PUSH1 0x20 DUP3 DUP5 SUB SLT ISZERO PUSH2 0x3271 JUMPI PUSH2 0x3270 PUSH2 0x1777 JUMP JUMPDEST JUMPDEST PUSH1 0x0 DUP3 ADD MLOAD PUSH8 0xFFFFFFFFFFFFFFFF DUP2 GT ISZERO PUSH2 0x328F JUMPI PUSH2 0x328E PUSH2 0x177C JUMP JUMPDEST JUMPDEST PUSH2 0x329B DUP5 DUP3 DUP6 ADD PUSH2 0x30A1 JUMP JUMPDEST SWAP2 POP POP SWAP3 SWAP2 POP POP JUMP INVALID LOG2 PUSH5 0x6970667358 0x22 SLT KECCAK256 0xA9 0x2F MOD AND PUSH27 0x2A89135CFB15DA9D80FCE9AFD0BA8505834CBC3AD756637AB0657D PUSH5 0x736F6C6343 STOP ADDMOD GT STOP CALLER "
		},
		"gasEstimates": {
			"creation": {
				"codeDepositCost": "2603600",
				"executionCost": "infinite",
				"totalCost": "infinite"
			},
			"external": {
				"_checkExistBusinessAccount()": "infinite",
				"_checkExistEmployeeAccount()": "infinite",
				"_checkExistIIGRequestLR(uint256,uint256)": "infinite",
				"_checkExistIIGRequestSW(uint256,uint256)": "infinite",
				"addLRRequest(uint256,uint256)": "infinite",
				"addLRResult(uint256,uint256,uint256,uint8,uint256,uint256,uint256,uint256)": "infinite",
				"addSWRequest(uint256,uint256)": "infinite",
				"addSWResult(uint256,uint256,uint256,uint8,uint256,uint256,uint256,uint256)": "infinite",
				"destroy()": "30017",
				"getAllIIGLRResult()": "infinite",
				"getAllIIGRequest()": "infinite",
				"getAllIIGSWResult()": "infinite",
				"owner()": "2589",
				"transferOwnership(address)": "30775"
			}
		},
		"methodIdentifiers": {
			"_checkExistBusinessAccount()": "d610b45a",
			"_checkExistEmployeeAccount()": "ec40a59b",
			"_checkExistIIGRequestLR(uint256,uint256)": "1e254243",
			"_checkExistIIGRequestSW(uint256,uint256)": "1598193a",
			"addLRRequest(uint256,uint256)": "c6648542",
			"addLRResult(uint256,uint256,uint256,uint8,uint256,uint256,uint256,uint256)": "cf26f865",
			"addSWRequest(uint256,uint256)": "fc938874",
			"addSWResult(uint256,uint256,uint256,uint8,uint256,uint256,uint256,uint256)": "b97f0c76",
			"destroy()": "83197ef0",
			"getAllIIGLRResult()": "a7cdca4b",
			"getAllIIGRequest()": "320cf3f2",
			"getAllIIGSWResult()": "78a81bd5",
			"owner()": "8da5cb5b",
			"transferOwnership(address)": "f2fde38b"
		}
	},
	"abi": [
		{
			"inputs": [
				{
					"internalType": "address",
					"name": "listBusinessAddress",
					"type": "address"
				},
				{
					"internalType": "address",
					"name": "listEmployeeAddress",
					"type": "address"
				},
				{
					"internalType": "address",
					"name": "listIIGRequestAddress",
					"type": "address"
				},
				{
					"internalType": "address",
					"name": "listIIGLRResultAddress",
					"type": "address"
				},
				{
					"internalType": "address",
					"name": "listIIGSWResultAddress",
					"type": "address"
				}
			],
			"stateMutability": "nonpayable",
			"type": "constructor"
		},
		{
			"anonymous": false,
			"inputs": [
				{
					"indexed": true,
					"internalType": "address",
					"name": "previousOwner",
					"type": "address"
				},
				{
					"indexed": true,
					"internalType": "address",
					"name": "newOwner",
					"type": "address"
				}
			],
			"name": "OwnershipTransferred",
			"type": "event"
		},
		{
			"inputs": [],
			"name": "_checkExistBusinessAccount",
			"outputs": [
				{
					"internalType": "bool",
					"name": "",
					"type": "bool"
				}
			],
			"stateMutability": "view",
			"type": "function"
		},
		{
			"inputs": [],
			"name": "_checkExistEmployeeAccount",
			"outputs": [
				{
					"internalType": "bool",
					"name": "",
					"type": "bool"
				}
			],
			"stateMutability": "view",
			"type": "function"
		},
		{
			"inputs": [
				{
					"internalType": "uint256",
					"name": "employeeId",
					"type": "uint256"
				},
				{
					"internalType": "uint256",
					"name": "businessId",
					"type": "uint256"
				}
			],
			"name": "_checkExistIIGRequestLR",
			"outputs": [
				{
					"internalType": "bool",
					"name": "",
					"type": "bool"
				}
			],
			"stateMutability": "view",
			"type": "function"
		},
		{
			"inputs": [
				{
					"internalType": "uint256",
					"name": "employeeId",
					"type": "uint256"
				},
				{
					"internalType": "uint256",
					"name": "businessId",
					"type": "uint256"
				}
			],
			"name": "_checkExistIIGRequestSW",
			"outputs": [
				{
					"internalType": "bool",
					"name": "",
					"type": "bool"
				}
			],
			"stateMutability": "view",
			"type": "function"
		},
		{
			"inputs": [
				{
					"internalType": "uint256",
					"name": "employeeId",
					"type": "uint256"
				},
				{
					"internalType": "uint256",
					"name": "businessId",
					"type": "uint256"
				}
			],
			"name": "addLRRequest",
			"outputs": [],
			"stateMutability": "nonpayable",
			"type": "function"
		},
		{
			"inputs": [
				{
					"internalType": "uint256",
					"name": "businessId",
					"type": "uint256"
				},
				{
					"internalType": "uint256",
					"name": "employeeId",
					"type": "uint256"
				},
				{
					"internalType": "uint256",
					"name": "testDate",
					"type": "uint256"
				},
				{
					"internalType": "enum IIGShiftTest",
					"name": "shiftTest",
					"type": "uint8"
				},
				{
					"internalType": "uint256",
					"name": "expireDate",
					"type": "uint256"
				},
				{
					"internalType": "uint256",
					"name": "listeningScore",
					"type": "uint256"
				},
				{
					"internalType": "uint256",
					"name": "readingScore",
					"type": "uint256"
				},
				{
					"internalType": "uint256",
					"name": "requestId",
					"type": "uint256"
				}
			],
			"name": "addLRResult",
			"outputs": [],
			"stateMutability": "nonpayable",
			"type": "function"
		},
		{
			"inputs": [
				{
					"internalType": "uint256",
					"name": "employeeId",
					"type": "uint256"
				},
				{
					"internalType": "uint256",
					"name": "businessId",
					"type": "uint256"
				}
			],
			"name": "addSWRequest",
			"outputs": [],
			"stateMutability": "nonpayable",
			"type": "function"
		},
		{
			"inputs": [
				{
					"internalType": "uint256",
					"name": "businessId",
					"type": "uint256"
				},
				{
					"internalType": "uint256",
					"name": "employeeId",
					"type": "uint256"
				},
				{
					"internalType": "uint256",
					"name": "testDate",
					"type": "uint256"
				},
				{
					"internalType": "enum IIGShiftTest",
					"name": "shiftTest",
					"type": "uint8"
				},
				{
					"internalType": "uint256",
					"name": "expireDate",
					"type": "uint256"
				},
				{
					"internalType": "uint256",
					"name": "speakingScore",
					"type": "uint256"
				},
				{
					"internalType": "uint256",
					"name": "writingScore",
					"type": "uint256"
				},
				{
					"internalType": "uint256",
					"name": "requestId",
					"type": "uint256"
				}
			],
			"name": "addSWResult",
			"outputs": [],
			"stateMutability": "nonpayable",
			"type": "function"
		},
		{
			"inputs": [],
			"name": "destroy",
			"outputs": [],
			"stateMutability": "nonpayable",
			"type": "function"
		},
		{
			"inputs": [],
			"name": "getAllIIGLRResult",
			"outputs": [
				{
					"components": [
						{
							"internalType": "uint256",
							"name": "id",
							"type": "uint256"
						},
						{
							"internalType": "uint256",
							"name": "businessId",
							"type": "uint256"
						},
						{
							"internalType": "uint256",
							"name": "employeeId",
							"type": "uint256"
						},
						{
							"internalType": "uint256",
							"name": "testDate",
							"type": "uint256"
						},
						{
							"internalType": "enum IIGShiftTest",
							"name": "shiftTest",
							"type": "uint8"
						},
						{
							"internalType": "uint256",
							"name": "expireDate",
							"type": "uint256"
						},
						{
							"internalType": "uint256",
							"name": "listeningScore",
							"type": "uint256"
						},
						{
							"internalType": "uint256",
							"name": "readingScore",
							"type": "uint256"
						},
						{
							"internalType": "uint256",
							"name": "time",
							"type": "uint256"
						}
					],
					"internalType": "struct IIGLRResult[]",
					"name": "",
					"type": "tuple[]"
				}
			],
			"stateMutability": "view",
			"type": "function"
		},
		{
			"inputs": [],
			"name": "getAllIIGRequest",
			"outputs": [
				{
					"components": [
						{
							"internalType": "uint256",
							"name": "id",
							"type": "uint256"
						},
						{
							"internalType": "uint256",
							"name": "businessId",
							"type": "uint256"
						},
						{
							"internalType": "uint256",
							"name": "employeeId",
							"type": "uint256"
						},
						{
							"internalType": "uint256",
							"name": "requestDate",
							"type": "uint256"
						},
						{
							"internalType": "enum IIGRequestType",
							"name": "requestType",
							"type": "uint8"
						},
						{
							"internalType": "enum IIGStatusRequest",
							"name": "statusRequest",
							"type": "uint8"
						}
					],
					"internalType": "struct IIGRequest[]",
					"name": "",
					"type": "tuple[]"
				}
			],
			"stateMutability": "view",
			"type": "function"
		},
		{
			"inputs": [],
			"name": "getAllIIGSWResult",
			"outputs": [
				{
					"components": [
						{
							"internalType": "uint256",
							"name": "id",
							"type": "uint256"
						},
						{
							"internalType": "uint256",
							"name": "businessId",
							"type": "uint256"
						},
						{
							"internalType": "uint256",
							"name": "employeeId",
							"type": "uint256"
						},
						{
							"internalType": "uint256",
							"name": "testDate",
							"type": "uint256"
						},
						{
							"internalType": "enum IIGShiftTest",
							"name": "shiftTest",
							"type": "uint8"
						},
						{
							"internalType": "uint256",
							"name": "expireDate",
							"type": "uint256"
						},
						{
							"internalType": "uint256",
							"name": "speakingScore",
							"type": "uint256"
						},
						{
							"internalType": "uint256",
							"name": "writingScore",
							"type": "uint256"
						},
						{
							"internalType": "uint256",
							"name": "time",
							"type": "uint256"
						}
					],
					"internalType": "struct IIGSWResult[]",
					"name": "",
					"type": "tuple[]"
				}
			],
			"stateMutability": "view",
			"type": "function"
		},
		{
			"inputs": [],
			"name": "owner",
			"outputs": [
				{
					"internalType": "address",
					"name": "",
					"type": "address"
				}
			],
			"stateMutability": "view",
			"type": "function"
		},
		{
			"inputs": [
				{
					"internalType": "address",
					"name": "newOwner",
					"type": "address"
				}
			],
			"name": "transferOwnership",
			"outputs": [],
			"stateMutability": "nonpayable",
			"type": "function"
		}
	]
}