{
	"database/ListEmployee.sol": {
		"ListEmployee": {
			"abi": [
				{
					"inputs": [],
					"stateMutability": "nonpayable",
					"type": "constructor"
				},
				{
					"anonymous": false,
					"inputs": [
						{
							"components": [
								{
									"internalType": "uint256",
									"name": "catergory",
									"type": "uint256"
								},
								{
									"internalType": "uint256",
									"name": "id",
									"type": "uint256"
								},
								{
									"internalType": "uint256",
									"name": "idCardNumber",
									"type": "uint256"
								},
								{
									"internalType": "address",
									"name": "user",
									"type": "address"
								},
								{
									"internalType": "string",
									"name": "name",
									"type": "string"
								},
								{
									"internalType": "string",
									"name": "phone",
									"type": "string"
								},
								{
									"internalType": "string",
									"name": "professional",
									"type": "string"
								},
								{
									"internalType": "string",
									"name": "email",
									"type": "string"
								},
								{
									"internalType": "string",
									"name": "github",
									"type": "string"
								},
								{
									"internalType": "string",
									"name": "linkedin",
									"type": "string"
								},
								{
									"internalType": "string",
									"name": "sourceImage",
									"type": "string"
								},
								{
									"internalType": "string",
									"name": "password",
									"type": "string"
								}
							],
							"indexed": false,
							"internalType": "struct Profile",
							"name": "item",
							"type": "tuple"
						}
					],
					"name": "Add",
					"type": "event"
				},
				{
					"anonymous": false,
					"inputs": [
						{
							"indexed": true,
							"internalType": "address",
							"name": "previousOwner",
							"type": "address"
						},
						{
							"indexed": true,
							"internalType": "address",
							"name": "newOwner",
							"type": "address"
						}
					],
					"name": "OwnershipTransferred",
					"type": "event"
				},
				{
					"anonymous": false,
					"inputs": [
						{
							"components": [
								{
									"internalType": "uint256",
									"name": "catergory",
									"type": "uint256"
								},
								{
									"internalType": "uint256",
									"name": "id",
									"type": "uint256"
								},
								{
									"internalType": "uint256",
									"name": "idCardNumber",
									"type": "uint256"
								},
								{
									"internalType": "address",
									"name": "user",
									"type": "address"
								},
								{
									"internalType": "string",
									"name": "name",
									"type": "string"
								},
								{
									"internalType": "string",
									"name": "phone",
									"type": "string"
								},
								{
									"internalType": "string",
									"name": "professional",
									"type": "string"
								},
								{
									"internalType": "string",
									"name": "email",
									"type": "string"
								},
								{
									"internalType": "string",
									"name": "github",
									"type": "string"
								},
								{
									"internalType": "string",
									"name": "linkedin",
									"type": "string"
								},
								{
									"internalType": "string",
									"name": "sourceImage",
									"type": "string"
								},
								{
									"internalType": "string",
									"name": "password",
									"type": "string"
								}
							],
							"indexed": false,
							"internalType": "struct Profile",
							"name": "item",
							"type": "tuple"
						}
					],
					"name": "Remove",
					"type": "event"
				},
				{
					"inputs": [
						{
							"components": [
								{
									"internalType": "uint256",
									"name": "catergory",
									"type": "uint256"
								},
								{
									"internalType": "uint256",
									"name": "id",
									"type": "uint256"
								},
								{
									"internalType": "uint256",
									"name": "idCardNumber",
									"type": "uint256"
								},
								{
									"internalType": "address",
									"name": "user",
									"type": "address"
								},
								{
									"internalType": "string",
									"name": "name",
									"type": "string"
								},
								{
									"internalType": "string",
									"name": "phone",
									"type": "string"
								},
								{
									"internalType": "string",
									"name": "professional",
									"type": "string"
								},
								{
									"internalType": "string",
									"name": "email",
									"type": "string"
								},
								{
									"internalType": "string",
									"name": "github",
									"type": "string"
								},
								{
									"internalType": "string",
									"name": "linkedin",
									"type": "string"
								},
								{
									"internalType": "string",
									"name": "sourceImage",
									"type": "string"
								},
								{
									"internalType": "string",
									"name": "password",
									"type": "string"
								}
							],
							"internalType": "struct Profile",
							"name": "item",
							"type": "tuple"
						},
						{
							"internalType": "bytes32",
							"name": "secret",
							"type": "bytes32"
						}
					],
					"name": "add",
					"outputs": [
						{
							"internalType": "bool",
							"name": "",
							"type": "bool"
						}
					],
					"stateMutability": "nonpayable",
					"type": "function"
				},
				{
					"inputs": [
						{
							"internalType": "uint256",
							"name": "index",
							"type": "uint256"
						},
						{
							"internalType": "bytes32",
							"name": "secret",
							"type": "bytes32"
						}
					],
					"name": "at",
					"outputs": [
						{
							"components": [
								{
									"internalType": "uint256",
									"name": "catergory",
									"type": "uint256"
								},
								{
									"internalType": "uint256",
									"name": "id",
									"type": "uint256"
								},
								{
									"internalType": "uint256",
									"name": "idCardNumber",
									"type": "uint256"
								},
								{
									"internalType": "address",
									"name": "user",
									"type": "address"
								},
								{
									"internalType": "string",
									"name": "name",
									"type": "string"
								},
								{
									"internalType": "string",
									"name": "phone",
									"type": "string"
								},
								{
									"internalType": "string",
									"name": "professional",
									"type": "string"
								},
								{
									"internalType": "string",
									"name": "email",
									"type": "string"
								},
								{
									"internalType": "string",
									"name": "github",
									"type": "string"
								},
								{
									"internalType": "string",
									"name": "linkedin",
									"type": "string"
								},
								{
									"internalType": "string",
									"name": "sourceImage",
									"type": "string"
								},
								{
									"internalType": "string",
									"name": "password",
									"type": "string"
								}
							],
							"internalType": "struct Profile",
							"name": "",
							"type": "tuple"
						}
					],
					"stateMutability": "view",
					"type": "function"
				},
				{
					"inputs": [
						{
							"internalType": "address",
							"name": "value",
							"type": "address"
						},
						{
							"internalType": "bytes32",
							"name": "secret",
							"type": "bytes32"
						}
					],
					"name": "atAddress",
					"outputs": [
						{
							"components": [
								{
									"internalType": "uint256",
									"name": "catergory",
									"type": "uint256"
								},
								{
									"internalType": "uint256",
									"name": "id",
									"type": "uint256"
								},
								{
									"internalType": "uint256",
									"name": "idCardNumber",
									"type": "uint256"
								},
								{
									"internalType": "address",
									"name": "user",
									"type": "address"
								},
								{
									"internalType": "string",
									"name": "name",
									"type": "string"
								},
								{
									"internalType": "string",
									"name": "phone",
									"type": "string"
								},
								{
									"internalType": "string",
									"name": "professional",
									"type": "string"
								},
								{
									"internalType": "string",
									"name": "email",
									"type": "string"
								},
								{
									"internalType": "string",
									"name": "github",
									"type": "string"
								},
								{
									"internalType": "string",
									"name": "linkedin",
									"type": "string"
								},
								{
									"internalType": "string",
									"name": "sourceImage",
									"type": "string"
								},
								{
									"internalType": "string",
									"name": "password",
									"type": "string"
								}
							],
							"internalType": "struct Profile",
							"name": "",
							"type": "tuple"
						}
					],
					"stateMutability": "view",
					"type": "function"
				},
				{
					"inputs": [],
					"name": "destroy",
					"outputs": [],
					"stateMutability": "nonpayable",
					"type": "function"
				},
				{
					"inputs": [
						{
							"internalType": "address",
							"name": "value",
							"type": "address"
						},
						{
							"internalType": "bytes32",
							"name": "secret",
							"type": "bytes32"
						}
					],
					"name": "findIdByAddress",
					"outputs": [
						{
							"internalType": "uint256",
							"name": "",
							"type": "uint256"
						}
					],
					"stateMutability": "view",
					"type": "function"
				},
				{
					"inputs": [
						{
							"internalType": "bytes32",
							"name": "secret",
							"type": "bytes32"
						}
					],
					"name": "getLength",
					"outputs": [
						{
							"internalType": "uint256",
							"name": "",
							"type": "uint256"
						}
					],
					"stateMutability": "view",
					"type": "function"
				},
				{
					"inputs": [
						{
							"internalType": "uint256",
							"name": "index",
							"type": "uint256"
						},
						{
							"internalType": "bytes32",
							"name": "secret",
							"type": "bytes32"
						}
					],
					"name": "hide",
					"outputs": [
						{
							"internalType": "bool",
							"name": "",
							"type": "bool"
						}
					],
					"stateMutability": "nonpayable",
					"type": "function"
				},
				{
					"inputs": [],
					"name": "owner",
					"outputs": [
						{
							"internalType": "address",
							"name": "",
							"type": "address"
						}
					],
					"stateMutability": "view",
					"type": "function"
				},
				{
					"inputs": [
						{
							"internalType": "uint256",
							"name": "index",
							"type": "uint256"
						},
						{
							"internalType": "bytes32",
							"name": "secret",
							"type": "bytes32"
						},
						{
							"internalType": "uint256",
							"name": "value",
							"type": "uint256"
						}
					],
					"name": "setCategory",
					"outputs": [
						{
							"internalType": "bool",
							"name": "",
							"type": "bool"
						}
					],
					"stateMutability": "nonpayable",
					"type": "function"
				},
				{
					"inputs": [
						{
							"internalType": "uint256",
							"name": "index",
							"type": "uint256"
						},
						{
							"internalType": "bytes32",
							"name": "secret",
							"type": "bytes32"
						},
						{
							"internalType": "string",
							"name": "value",
							"type": "string"
						}
					],
					"name": "setEmail",
					"outputs": [
						{
							"internalType": "bool",
							"name": "",
							"type": "bool"
						}
					],
					"stateMutability": "nonpayable",
					"type": "function"
				},
				{
					"inputs": [
						{
							"internalType": "uint256",
							"name": "index",
							"type": "uint256"
						},
						{
							"internalType": "bytes32",
							"name": "secret",
							"type": "bytes32"
						},
						{
							"internalType": "string",
							"name": "value",
							"type": "string"
						}
					],
					"name": "setGithub",
					"outputs": [
						{
							"internalType": "bool",
							"name": "",
							"type": "bool"
						}
					],
					"stateMutability": "nonpayable",
					"type": "function"
				},
				{
					"inputs": [
						{
							"internalType": "uint256",
							"name": "index",
							"type": "uint256"
						},
						{
							"internalType": "bytes32",
							"name": "secret",
							"type": "bytes32"
						},
						{
							"internalType": "uint256",
							"name": "value",
							"type": "uint256"
						}
					],
					"name": "setId",
					"outputs": [
						{
							"internalType": "bool",
							"name": "",
							"type": "bool"
						}
					],
					"stateMutability": "nonpayable",
					"type": "function"
				},
				{
					"inputs": [
						{
							"internalType": "uint256",
							"name": "index",
							"type": "uint256"
						},
						{
							"internalType": "bytes32",
							"name": "secret",
							"type": "bytes32"
						},
						{
							"internalType": "uint256",
							"name": "value",
							"type": "uint256"
						}
					],
					"name": "setIdCardNumber",
					"outputs": [
						{
							"internalType": "bool",
							"name": "",
							"type": "bool"
						}
					],
					"stateMutability": "nonpayable",
					"type": "function"
				},
				{
					"inputs": [
						{
							"internalType": "uint256",
							"name": "index",
							"type": "uint256"
						},
						{
							"internalType": "bytes32",
							"name": "secret",
							"type": "bytes32"
						},
						{
							"internalType": "string",
							"name": "value",
							"type": "string"
						}
					],
					"name": "setLinkedin",
					"outputs": [
						{
							"internalType": "bool",
							"name": "",
							"type": "bool"
						}
					],
					"stateMutability": "nonpayable",
					"type": "function"
				},
				{
					"inputs": [
						{
							"internalType": "uint256",
							"name": "index",
							"type": "uint256"
						},
						{
							"internalType": "bytes32",
							"name": "secret",
							"type": "bytes32"
						},
						{
							"internalType": "string",
							"name": "value",
							"type": "string"
						}
					],
					"name": "setName",
					"outputs": [
						{
							"internalType": "bool",
							"name": "",
							"type": "bool"
						}
					],
					"stateMutability": "nonpayable",
					"type": "function"
				},
				{
					"inputs": [
						{
							"internalType": "uint256",
							"name": "index",
							"type": "uint256"
						},
						{
							"internalType": "bytes32",
							"name": "secret",
							"type": "bytes32"
						},
						{
							"internalType": "string",
							"name": "value",
							"type": "string"
						}
					],
					"name": "setPassword",
					"outputs": [
						{
							"internalType": "bool",
							"name": "",
							"type": "bool"
						}
					],
					"stateMutability": "nonpayable",
					"type": "function"
				},
				{
					"inputs": [
						{
							"internalType": "uint256",
							"name": "index",
							"type": "uint256"
						},
						{
							"internalType": "bytes32",
							"name": "secret",
							"type": "bytes32"
						},
						{
							"internalType": "string",
							"name": "value",
							"type": "string"
						}
					],
					"name": "setPhone",
					"outputs": [
						{
							"internalType": "bool",
							"name": "",
							"type": "bool"
						}
					],
					"stateMutability": "nonpayable",
					"type": "function"
				},
				{
					"inputs": [
						{
							"internalType": "uint256",
							"name": "index",
							"type": "uint256"
						},
						{
							"internalType": "bytes32",
							"name": "secret",
							"type": "bytes32"
						},
						{
							"internalType": "string",
							"name": "value",
							"type": "string"
						}
					],
					"name": "setProfessional",
					"outputs": [
						{
							"internalType": "bool",
							"name": "",
							"type": "bool"
						}
					],
					"stateMutability": "nonpayable",
					"type": "function"
				},
				{
					"inputs": [
						{
							"internalType": "uint256",
							"name": "index",
							"type": "uint256"
						},
						{
							"internalType": "bytes32",
							"name": "secret",
							"type": "bytes32"
						},
						{
							"internalType": "string",
							"name": "value",
							"type": "string"
						}
					],
					"name": "setSourceImage",
					"outputs": [
						{
							"internalType": "bool",
							"name": "",
							"type": "bool"
						}
					],
					"stateMutability": "nonpayable",
					"type": "function"
				},
				{
					"inputs": [
						{
							"internalType": "uint256",
							"name": "index",
							"type": "uint256"
						},
						{
							"internalType": "bytes32",
							"name": "secret",
							"type": "bytes32"
						},
						{
							"internalType": "address",
							"name": "value",
							"type": "address"
						}
					],
					"name": "setUser",
					"outputs": [
						{
							"internalType": "bool",
							"name": "",
							"type": "bool"
						}
					],
					"stateMutability": "nonpayable",
					"type": "function"
				},
				{
					"inputs": [
						{
							"internalType": "address",
							"name": "newOwner",
							"type": "address"
						}
					],
					"name": "transferOwnership",
					"outputs": [],
					"stateMutability": "nonpayable",
					"type": "function"
				}
			],
			"devdoc": {
				"kind": "dev",
				"methods": {
					"owner()": {
						"details": "Returns the address of the current owner."
					},
					"transferOwnership(address)": {
						"details": "Transfers ownership of the contract to a new account (`newOwner`). Can only be called by the current owner."
					}
				},
				"version": 1
			},
			"evm": {
				"assembly": "    /* \"database/ListEmployee.sol\":237:5855  contract ListEmployee is Ownable {... */\n  mstore(0x40, 0x80)\n    /* \"database/ListEmployee.sol\":354:355  0 */\n  0x00\n    /* \"database/ListEmployee.sol\":322:355  uint256 private autoIncrement = 0 */\n  0x02\n  sstore\n    /* \"database/ListEmployee.sol\":362:388  constructor() Ownable() {} */\n  callvalue\n  dup1\n  iszero\n  tag_1\n  jumpi\n  0x00\n  dup1\n  revert\ntag_1:\n  pop\n    /* \"abstract/Ownable.sol\":923:929  _owner */\n  0x00\n    /* \"abstract/Ownable.sol\":923:942  _owner = msg.sender */\n  dup1\n  sload\n  not(sub(shl(0xa0, 0x01), 0x01))\n  and\n    /* \"abstract/Ownable.sol\":932:942  msg.sender */\n  caller\n    /* \"abstract/Ownable.sol\":923:942  _owner = msg.sender */\n  or\n  swap1\n  sstore\n    /* \"database/ListEmployee.sol\":237:5855  contract ListEmployee is Ownable {... */\n  dataSize(sub_0)\n  dup1\n  dataOffset(sub_0)\n  0x00\n  codecopy\n  0x00\n  return\nstop\n\nsub_0: assembly {\n        /* \"database/ListEmployee.sol\":237:5855  contract ListEmployee is Ownable {... */\n      mstore(0x40, 0x80)\n      callvalue\n      dup1\n      iszero\n      tag_1\n      jumpi\n      0x00\n      dup1\n      revert\n    tag_1:\n      pop\n      jumpi(tag_2, lt(calldatasize, 0x04))\n      shr(0xe0, calldataload(0x00))\n      dup1\n      0x8827b05f\n      gt\n      tag_24\n      jumpi\n      dup1\n      0xd32a04c7\n      gt\n      tag_25\n      jumpi\n      dup1\n      0xd32a04c7\n      eq\n      tag_18\n      jumpi\n      dup1\n      0xd45c8abf\n      eq\n      tag_19\n      jumpi\n      dup1\n      0xd49cb146\n      eq\n      tag_20\n      jumpi\n      dup1\n      0xe3f34371\n      eq\n      tag_21\n      jumpi\n      dup1\n      0xf2fde38b\n      eq\n      tag_22\n      jumpi\n      dup1\n      0xfd82e9dd\n      eq\n      tag_23\n      jumpi\n      0x00\n      dup1\n      revert\n    tag_25:\n      dup1\n      0x8827b05f\n      eq\n      tag_13\n      jumpi\n      dup1\n      0x8da5cb5b\n      eq\n      tag_14\n      jumpi\n      dup1\n      0xb615c00a\n      eq\n      tag_15\n      jumpi\n      dup1\n      0xc78a6741\n      eq\n      tag_16\n      jumpi\n      dup1\n      0xd2af71a6\n      eq\n      tag_17\n      jumpi\n      0x00\n      dup1\n      revert\n    tag_24:\n      dup1\n      0x2e22eafe\n      gt\n      tag_26\n      jumpi\n      dup1\n      0x2e22eafe\n      eq\n      tag_8\n      jumpi\n      dup1\n      0x413896e4\n      eq\n      tag_9\n      jumpi\n      dup1\n      0x7dcd61bd\n      eq\n      tag_10\n      jumpi\n      dup1\n      0x800f2234\n      eq\n      tag_11\n      jumpi\n      dup1\n      0x83197ef0\n      eq\n      tag_12\n      jumpi\n      0x00\n      dup1\n      revert\n    tag_26:\n      dup1\n      0x11a89a5f\n      eq\n      tag_3\n      jumpi\n      dup1\n      0x236df93c\n      eq\n      tag_4\n      jumpi\n      dup1\n      0x294b4b6b\n      eq\n      tag_5\n      jumpi\n      dup1\n      0x29cd6311\n      eq\n      tag_6\n      jumpi\n      dup1\n      0x2c3ce919\n      eq\n      tag_7\n      jumpi\n    tag_2:\n      0x00\n      dup1\n      revert\n        /* \"database/ListEmployee.sol\":3481:3717  function setIdCardNumber(... */\n    tag_3:\n      tag_27\n      tag_28\n      calldatasize\n      0x04\n      tag_29\n      jump\t// in\n    tag_28:\n      tag_30\n      jump\t// in\n    tag_27:\n      mload(0x40)\n        /* \"#utility.yul\":500:514   */\n      swap1\n      iszero\n        /* \"#utility.yul\":493:515   */\n      iszero\n        /* \"#utility.yul\":475:516   */\n      dup2\n      mstore\n        /* \"#utility.yul\":463:465   */\n      0x20\n        /* \"#utility.yul\":448:466   */\n      add\n        /* \"database/ListEmployee.sol\":3481:3717  function setIdCardNumber(... */\n    tag_31:\n      mload(0x40)\n      dup1\n      swap2\n      sub\n      swap1\n      return\n        /* \"database/ListEmployee.sol\":1866:2199  function atAddress(address value, bytes32 secret)... */\n    tag_4:\n      tag_33\n      tag_34\n      calldatasize\n      0x04\n      tag_35\n      jump\t// in\n    tag_34:\n      tag_36\n      jump\t// in\n    tag_33:\n      mload(0x40)\n      tag_31\n      swap2\n      swap1\n      tag_38\n      jump\t// in\n        /* \"database/ListEmployee.sol\":3024:3253  function setCategory(... */\n    tag_5:\n      tag_27\n      tag_40\n      calldatasize\n      0x04\n      tag_29\n      jump\t// in\n    tag_40:\n      tag_41\n      jump\t// in\n        /* \"database/ListEmployee.sol\":4663:4891  function setEmail(... */\n    tag_6:\n      tag_27\n      tag_44\n      calldatasize\n      0x04\n      tag_45\n      jump\t// in\n    tag_44:\n      tag_46\n      jump\t// in\n        /* \"database/ListEmployee.sol\":5619:5853  function setPassword(... */\n    tag_7:\n      tag_27\n      tag_49\n      calldatasize\n      0x04\n      tag_45\n      jump\t// in\n    tag_49:\n      tag_50\n      jump\t// in\n        /* \"database/ListEmployee.sol\":3723:3943  function setUser(... */\n    tag_8:\n      tag_27\n      tag_53\n      calldatasize\n      0x04\n      tag_54\n      jump\t// in\n    tag_53:\n      tag_55\n      jump\t// in\n        /* \"database/ListEmployee.sol\":3949:4175  function setName(... */\n    tag_9:\n      tag_27\n      tag_58\n      calldatasize\n      0x04\n      tag_45\n      jump\t// in\n    tag_58:\n      tag_59\n      jump\t// in\n        /* \"database/ListEmployee.sol\":1000:1271  function add(Profile memory item, bytes32 secret)... */\n    tag_10:\n      tag_27\n      tag_62\n      calldatasize\n      0x04\n      tag_63\n      jump\t// in\n    tag_62:\n      tag_64\n      jump\t// in\n        /* \"database/ListEmployee.sol\":5373:5613  function setSourceImage(... */\n    tag_11:\n      tag_27\n      tag_67\n      calldatasize\n      0x04\n      tag_45\n      jump\t// in\n    tag_67:\n      tag_68\n      jump\t// in\n        /* \"abstract/Ownable.sol\":2642:2731  function destroy() public onlyOwner {... */\n    tag_12:\n      tag_70\n      tag_71\n      jump\t// in\n    tag_70:\n      stop\n        /* \"database/ListEmployee.sol\":3259:3475  function setId(... */\n    tag_13:\n      tag_27\n      tag_73\n      calldatasize\n      0x04\n      tag_29\n      jump\t// in\n    tag_73:\n      tag_74\n      jump\t// in\n        /* \"abstract/Ownable.sol\":1175:1260  function owner() public view virtual returns (address) {... */\n    tag_14:\n        /* \"abstract/Ownable.sol\":1221:1228  address */\n      0x00\n        /* \"abstract/Ownable.sol\":1247:1253  _owner */\n      sload\n        /* \"abstract/Ownable.sol\":1175:1260  function owner() public view virtual returns (address) {... */\n      mload(0x40)\n      sub(shl(0xa0, 0x01), 0x01)\n        /* \"abstract/Ownable.sol\":1247:1253  _owner */\n      swap1\n      swap2\n      and\n        /* \"#utility.yul\":7847:7898   */\n      dup2\n      mstore\n        /* \"#utility.yul\":7835:7837   */\n      0x20\n        /* \"#utility.yul\":7820:7838   */\n      add\n        /* \"abstract/Ownable.sol\":1175:1260  function owner() public view virtual returns (address) {... */\n      tag_31\n        /* \"#utility.yul\":7701:7904   */\n      jump\n        /* \"database/ListEmployee.sol\":2483:2929  function hide(uint256 index, bytes32 secret)... */\n    tag_15:\n      tag_27\n      tag_81\n      calldatasize\n      0x04\n      tag_82\n      jump\t// in\n    tag_81:\n      tag_83\n      jump\t// in\n        /* \"database/ListEmployee.sol\":1277:1559  function at(uint256 index, bytes32 secret)... */\n    tag_16:\n      tag_33\n      tag_86\n      calldatasize\n      0x04\n      tag_82\n      jump\t// in\n    tag_86:\n      tag_87\n      jump\t// in\n        /* \"database/ListEmployee.sol\":4897:5127  function setGithub(... */\n    tag_17:\n      tag_27\n      tag_90\n      calldatasize\n      0x04\n      tag_45\n      jump\t// in\n    tag_90:\n      tag_91\n      jump\t// in\n        /* \"database/ListEmployee.sol\":1565:1860  function findIdByAddress(address value, bytes32 secret)... */\n    tag_18:\n      tag_93\n      tag_94\n      calldatasize\n      0x04\n      tag_35\n      jump\t// in\n    tag_94:\n      tag_95\n      jump\t// in\n    tag_93:\n      mload(0x40)\n        /* \"#utility.yul\":8308:8333   */\n      swap1\n      dup2\n      mstore\n        /* \"#utility.yul\":8296:8298   */\n      0x20\n        /* \"#utility.yul\":8281:8299   */\n      add\n        /* \"database/ListEmployee.sol\":1565:1860  function findIdByAddress(address value, bytes32 secret)... */\n      tag_31\n        /* \"#utility.yul\":8162:8339   */\n      jump\n        /* \"database/ListEmployee.sol\":5133:5367  function setLinkedin(... */\n    tag_19:\n      tag_27\n      tag_99\n      calldatasize\n      0x04\n      tag_45\n      jump\t// in\n    tag_99:\n      tag_100\n      jump\t// in\n        /* \"database/ListEmployee.sol\":4181:4409  function setPhone(... */\n    tag_20:\n      tag_27\n      tag_103\n      calldatasize\n      0x04\n      tag_45\n      jump\t// in\n    tag_103:\n      tag_104\n      jump\t// in\n        /* \"database/ListEmployee.sol\":4415:4657  function setProfessional(... */\n    tag_21:\n      tag_27\n      tag_107\n      calldatasize\n      0x04\n      tag_45\n      jump\t// in\n    tag_107:\n      tag_108\n      jump\t// in\n        /* \"abstract/Ownable.sol\":2063:2295  function transferOwnership(address newOwner) public virtual onlyOwner {... */\n    tag_22:\n      tag_70\n      tag_111\n      calldatasize\n      0x04\n      tag_112\n      jump\t// in\n    tag_111:\n      tag_113\n      jump\t// in\n        /* \"database/ListEmployee.sol\":831:994  function getLength(bytes32 secret)... */\n    tag_23:\n      tag_93\n      tag_115\n      calldatasize\n      0x04\n      tag_116\n      jump\t// in\n    tag_115:\n      tag_117\n      jump\t// in\n        /* \"database/ListEmployee.sol\":3481:3717  function setIdCardNumber(... */\n    tag_30:\n        /* \"database/ListEmployee.sol\":3641:3645  bool */\n      0x00\n        /* \"database/ListEmployee.sol\":3606:3612  secret */\n      dup3\n      0x00\n      dup1\n      mload\n      0x20\n      data_98ee57057fe0a523e70b51608fd55a37ff53d47c3b8dac495a5f45d45157392f\n      dup4\n      codecopy\n      dup2\n      mload\n      swap2\n      mstore\n        /* \"database/ListEmployee.sol\":529:550  value == DATABASE_KEY */\n      dup2\n      eq\n        /* \"database/ListEmployee.sol\":508:615  require(... */\n      tag_120\n      jumpi\n      mload(0x40)\n      shl(0xe5, 0x461bcd)\n      dup2\n      mstore\n      0x04\n      add\n      tag_121\n      swap1\n      tag_122\n      jump\t// in\n    tag_121:\n      mload(0x40)\n      dup1\n      swap2\n      sub\n      swap1\n      revert\n    tag_120:\n        /* \"database/ListEmployee.sol\":3625:3630  index */\n      dup5\n        /* \"database/ListEmployee.sol\":711:716  index */\n      dup1\n        /* \"database/ListEmployee.sol\":706:707  1 */\n      0x01\n        /* \"database/ListEmployee.sol\":706:716  1 <= index */\n      gt\n      iszero\n        /* \"database/ListEmployee.sol\":705:745  (1 <= index) && (index <= autoIncrement) */\n      dup1\n      iszero\n      tag_124\n      jumpi\n      pop\n        /* \"database/ListEmployee.sol\":731:744  autoIncrement */\n      sload(0x02)\n        /* \"database/ListEmployee.sol\":722:727  index */\n      dup2\n        /* \"database/ListEmployee.sol\":722:744  index <= autoIncrement */\n      gt\n      iszero\n        /* \"database/ListEmployee.sol\":705:745  (1 <= index) && (index <= autoIncrement) */\n    tag_124:\n        /* \"database/ListEmployee.sol\":684:807  require(... */\n      tag_125\n      jumpi\n      mload(0x40)\n      shl(0xe5, 0x461bcd)\n      dup2\n      mstore\n      0x04\n      add\n      tag_121\n      swap1\n      tag_127\n      jump\t// in\n    tag_125:\n      pop\n      pop\n      pop\n        /* \"database/ListEmployee.sol\":3657:3668  list[index] */\n      0x00\n      swap3\n      dup4\n      mstore\n        /* \"database/ListEmployee.sol\":3657:3661  list */\n      0x01\n        /* \"database/ListEmployee.sol\":3657:3668  list[index] */\n      0x20\n      dup2\n      swap1\n      mstore\n      0x40\n      swap1\n      swap4\n      keccak256\n        /* \"database/ListEmployee.sol\":3657:3681  list[index].idCardNumber */\n      0x02\n      add\n        /* \"database/ListEmployee.sol\":3657:3689  list[index].idCardNumber = value */\n      sstore\n      pop\n        /* \"database/ListEmployee.sol\":3657:3661  list */\n      swap1\n        /* \"database/ListEmployee.sol\":3481:3717  function setIdCardNumber(... */\n      jump\t// out\n        /* \"database/ListEmployee.sol\":1866:2199  function atAddress(address value, bytes32 secret)... */\n    tag_36:\n        /* \"database/ListEmployee.sol\":1994:2008  Profile memory */\n      tag_129\n      tag_130\n      jump\t// in\n    tag_129:\n        /* \"database/ListEmployee.sol\":1969:1975  secret */\n      dup2\n      0x00\n      dup1\n      mload\n      0x20\n      data_98ee57057fe0a523e70b51608fd55a37ff53d47c3b8dac495a5f45d45157392f\n      dup4\n      codecopy\n      dup2\n      mload\n      swap2\n      mstore\n        /* \"database/ListEmployee.sol\":529:550  value == DATABASE_KEY */\n      dup2\n      eq\n        /* \"database/ListEmployee.sol\":508:615  require(... */\n      tag_132\n      jumpi\n      mload(0x40)\n      shl(0xe5, 0x461bcd)\n      dup2\n      mstore\n      0x04\n      add\n      tag_121\n      swap1\n      tag_122\n      jump\t// in\n    tag_132:\n        /* \"database/ListEmployee.sol\":2041:2042  1 */\n      0x01\n        /* \"database/ListEmployee.sol\":2024:2135  for (uint256 i = 1; i <= autoIncrement; i++) {... */\n    tag_135:\n        /* \"database/ListEmployee.sol\":2049:2062  autoIncrement */\n      sload(0x02)\n        /* \"database/ListEmployee.sol\":2044:2045  i */\n      dup2\n        /* \"database/ListEmployee.sol\":2044:2062  i <= autoIncrement */\n      gt\n        /* \"database/ListEmployee.sol\":2024:2135  for (uint256 i = 1; i <= autoIncrement; i++) {... */\n      tag_136\n      jumpi\n        /* \"database/ListEmployee.sol\":2087:2094  list[i] */\n      0x00\n      dup2\n      dup2\n      mstore\n        /* \"database/ListEmployee.sol\":2087:2091  list */\n      0x01\n        /* \"database/ListEmployee.sol\":2087:2094  list[i] */\n      0x20\n      mstore\n      0x40\n      swap1\n      keccak256\n        /* \"database/ListEmployee.sol\":2087:2099  list[i].user */\n      0x03\n      add\n      sload\n      sub(shl(0xa0, 0x01), 0x01)\n        /* \"database/ListEmployee.sol\":2087:2108  list[i].user == value */\n      dup1\n      dup8\n      and\n        /* \"database/ListEmployee.sol\":2087:2099  list[i].user */\n      swap2\n      and\n        /* \"database/ListEmployee.sol\":2087:2108  list[i].user == value */\n      sub\n        /* \"database/ListEmployee.sol\":2083:2124  if (list[i].user == value) return list[i] */\n      tag_138\n      jumpi\n        /* \"database/ListEmployee.sol\":2117:2124  list[i] */\n      0x00\n      dup2\n      dup2\n      mstore\n        /* \"database/ListEmployee.sol\":2117:2121  list */\n      0x01\n        /* \"database/ListEmployee.sol\":2117:2124  list[i] */\n      0x20\n      dup2\n      dup2\n      mstore\n      0x40\n      swap3\n      dup4\n      swap1\n      keccak256\n        /* \"database/ListEmployee.sol\":2110:2124  return list[i] */\n      dup4\n      mload\n      0x0180\n      dup2\n      add\n      dup6\n      mstore\n      dup2\n      sload\n      dup2\n      mstore\n      swap3\n      dup2\n      add\n      sload\n      swap2\n      dup4\n      add\n      swap2\n      swap1\n      swap2\n      mstore\n      0x02\n      dup2\n      add\n      sload\n      swap3\n      dup3\n      add\n      swap3\n      swap1\n      swap3\n      mstore\n      0x03\n      dup3\n      add\n      sload\n      sub(shl(0xa0, 0x01), 0x01)\n      and\n      0x60\n      dup3\n      add\n      mstore\n      0x04\n      dup3\n      add\n      dup1\n      sload\n      swap2\n      swap3\n        /* \"database/ListEmployee.sol\":2117:2124  list[i] */\n      swap2\n        /* \"database/ListEmployee.sol\":2110:2124  return list[i] */\n      0x80\n      dup5\n      add\n      swap2\n      swap1\n      tag_139\n      swap1\n      tag_140\n      jump\t// in\n    tag_139:\n      dup1\n      0x1f\n      add\n      0x20\n      dup1\n      swap2\n      div\n      mul\n      0x20\n      add\n      mload(0x40)\n      swap1\n      dup2\n      add\n      0x40\n      mstore\n      dup1\n      swap3\n      swap2\n      swap1\n      dup2\n      dup2\n      mstore\n      0x20\n      add\n      dup3\n      dup1\n      sload\n      tag_141\n      swap1\n      tag_140\n      jump\t// in\n    tag_141:\n      dup1\n      iszero\n      tag_142\n      jumpi\n      dup1\n      0x1f\n      lt\n      tag_143\n      jumpi\n      0x0100\n      dup1\n      dup4\n      sload\n      div\n      mul\n      dup4\n      mstore\n      swap2\n      0x20\n      add\n      swap2\n      jump(tag_142)\n    tag_143:\n      dup3\n      add\n      swap2\n      swap1\n      0x00\n      mstore\n      keccak256(0x00, 0x20)\n      swap1\n    tag_144:\n      dup2\n      sload\n      dup2\n      mstore\n      swap1\n      0x01\n      add\n      swap1\n      0x20\n      add\n      dup1\n      dup4\n      gt\n      tag_144\n      jumpi\n      dup3\n      swap1\n      sub\n      0x1f\n      and\n      dup3\n      add\n      swap2\n    tag_142:\n      pop\n      pop\n      pop\n      pop\n      pop\n      dup2\n      mstore\n      0x20\n      add\n      0x05\n      dup3\n      add\n      dup1\n      sload\n      tag_145\n      swap1\n      tag_140\n      jump\t// in\n    tag_145:\n      dup1\n      0x1f\n      add\n      0x20\n      dup1\n      swap2\n      div\n      mul\n      0x20\n      add\n      mload(0x40)\n      swap1\n      dup2\n      add\n      0x40\n      mstore\n      dup1\n      swap3\n      swap2\n      swap1\n      dup2\n      dup2\n      mstore\n      0x20\n      add\n      dup3\n      dup1\n      sload\n      tag_146\n      swap1\n      tag_140\n      jump\t// in\n    tag_146:\n      dup1\n      iszero\n      tag_147\n      jumpi\n      dup1\n      0x1f\n      lt\n      tag_148\n      jumpi\n      0x0100\n      dup1\n      dup4\n      sload\n      div\n      mul\n      dup4\n      mstore\n      swap2\n      0x20\n      add\n      swap2\n      jump(tag_147)\n    tag_148:\n      dup3\n      add\n      swap2\n      swap1\n      0x00\n      mstore\n      keccak256(0x00, 0x20)\n      swap1\n    tag_149:\n      dup2\n      sload\n      dup2\n      mstore\n      swap1\n      0x01\n      add\n      swap1\n      0x20\n      add\n      dup1\n      dup4\n      gt\n      tag_149\n      jumpi\n      dup3\n      swap1\n      sub\n      0x1f\n      and\n      dup3\n      add\n      swap2\n    tag_147:\n      pop\n      pop\n      pop\n      pop\n      pop\n      dup2\n      mstore\n      0x20\n      add\n      0x06\n      dup3\n      add\n      dup1\n      sload\n      tag_150\n      swap1\n      tag_140\n      jump\t// in\n    tag_150:\n      dup1\n      0x1f\n      add\n      0x20\n      dup1\n      swap2\n      div\n      mul\n      0x20\n      add\n      mload(0x40)\n      swap1\n      dup2\n      add\n      0x40\n      mstore\n      dup1\n      swap3\n      swap2\n      swap1\n      dup2\n      dup2\n      mstore\n      0x20\n      add\n      dup3\n      dup1\n      sload\n      tag_151\n      swap1\n      tag_140\n      jump\t// in\n    tag_151:\n      dup1\n      iszero\n      tag_152\n      jumpi\n      dup1\n      0x1f\n      lt\n      tag_153\n      jumpi\n      0x0100\n      dup1\n      dup4\n      sload\n      div\n      mul\n      dup4\n      mstore\n      swap2\n      0x20\n      add\n      swap2\n      jump(tag_152)\n    tag_153:\n      dup3\n      add\n      swap2\n      swap1\n      0x00\n      mstore\n      keccak256(0x00, 0x20)\n      swap1\n    tag_154:\n      dup2\n      sload\n      dup2\n      mstore\n      swap1\n      0x01\n      add\n      swap1\n      0x20\n      add\n      dup1\n      dup4\n      gt\n      tag_154\n      jumpi\n      dup3\n      swap1\n      sub\n      0x1f\n      and\n      dup3\n      add\n      swap2\n    tag_152:\n      pop\n      pop\n      pop\n      pop\n      pop\n      dup2\n      mstore\n      0x20\n      add\n      0x07\n      dup3\n      add\n      dup1\n      sload\n      tag_155\n      swap1\n      tag_140\n      jump\t// in\n    tag_155:\n      dup1\n      0x1f\n      add\n      0x20\n      dup1\n      swap2\n      div\n      mul\n      0x20\n      add\n      mload(0x40)\n      swap1\n      dup2\n      add\n      0x40\n      mstore\n      dup1\n      swap3\n      swap2\n      swap1\n      dup2\n      dup2\n      mstore\n      0x20\n      add\n      dup3\n      dup1\n      sload\n      tag_156\n      swap1\n      tag_140\n      jump\t// in\n    tag_156:\n      dup1\n      iszero\n      tag_157\n      jumpi\n      dup1\n      0x1f\n      lt\n      tag_158\n      jumpi\n      0x0100\n      dup1\n      dup4\n      sload\n      div\n      mul\n      dup4\n      mstore\n      swap2\n      0x20\n      add\n      swap2\n      jump(tag_157)\n    tag_158:\n      dup3\n      add\n      swap2\n      swap1\n      0x00\n      mstore\n      keccak256(0x00, 0x20)\n      swap1\n    tag_159:\n      dup2\n      sload\n      dup2\n      mstore\n      swap1\n      0x01\n      add\n      swap1\n      0x20\n      add\n      dup1\n      dup4\n      gt\n      tag_159\n      jumpi\n      dup3\n      swap1\n      sub\n      0x1f\n      and\n      dup3\n      add\n      swap2\n    tag_157:\n      pop\n      pop\n      pop\n      pop\n      pop\n      dup2\n      mstore\n      0x20\n      add\n      0x08\n      dup3\n      add\n      dup1\n      sload\n      tag_160\n      swap1\n      tag_140\n      jump\t// in\n    tag_160:\n      dup1\n      0x1f\n      add\n      0x20\n      dup1\n      swap2\n      div\n      mul\n      0x20\n      add\n      mload(0x40)\n      swap1\n      dup2\n      add\n      0x40\n      mstore\n      dup1\n      swap3\n      swap2\n      swap1\n      dup2\n      dup2\n      mstore\n      0x20\n      add\n      dup3\n      dup1\n      sload\n      tag_161\n      swap1\n      tag_140\n      jump\t// in\n    tag_161:\n      dup1\n      iszero\n      tag_162\n      jumpi\n      dup1\n      0x1f\n      lt\n      tag_163\n      jumpi\n      0x0100\n      dup1\n      dup4\n      sload\n      div\n      mul\n      dup4\n      mstore\n      swap2\n      0x20\n      add\n      swap2\n      jump(tag_162)\n    tag_163:\n      dup3\n      add\n      swap2\n      swap1\n      0x00\n      mstore\n      keccak256(0x00, 0x20)\n      swap1\n    tag_164:\n      dup2\n      sload\n      dup2\n      mstore\n      swap1\n      0x01\n      add\n      swap1\n      0x20\n      add\n      dup1\n      dup4\n      gt\n      tag_164\n      jumpi\n      dup3\n      swap1\n      sub\n      0x1f\n      and\n      dup3\n      add\n      swap2\n    tag_162:\n      pop\n      pop\n      pop\n      pop\n      pop\n      dup2\n      mstore\n      0x20\n      add\n      0x09\n      dup3\n      add\n      dup1\n      sload\n      tag_165\n      swap1\n      tag_140\n      jump\t// in\n    tag_165:\n      dup1\n      0x1f\n      add\n      0x20\n      dup1\n      swap2\n      div\n      mul\n      0x20\n      add\n      mload(0x40)\n      swap1\n      dup2\n      add\n      0x40\n      mstore\n      dup1\n      swap3\n      swap2\n      swap1\n      dup2\n      dup2\n      mstore\n      0x20\n      add\n      dup3\n      dup1\n      sload\n      tag_166\n      swap1\n      tag_140\n      jump\t// in\n    tag_166:\n      dup1\n      iszero\n      tag_167\n      jumpi\n      dup1\n      0x1f\n      lt\n      tag_168\n      jumpi\n      0x0100\n      dup1\n      dup4\n      sload\n      div\n      mul\n      dup4\n      mstore\n      swap2\n      0x20\n      add\n      swap2\n      jump(tag_167)\n    tag_168:\n      dup3\n      add\n      swap2\n      swap1\n      0x00\n      mstore\n      keccak256(0x00, 0x20)\n      swap1\n    tag_169:\n      dup2\n      sload\n      dup2\n      mstore\n      swap1\n      0x01\n      add\n      swap1\n      0x20\n      add\n      dup1\n      dup4\n      gt\n      tag_169\n      jumpi\n      dup3\n      swap1\n      sub\n      0x1f\n      and\n      dup3\n      add\n      swap2\n    tag_167:\n      pop\n      pop\n      pop\n      pop\n      pop\n      dup2\n      mstore\n      0x20\n      add\n      0x0a\n      dup3\n      add\n      dup1\n      sload\n      tag_170\n      swap1\n      tag_140\n      jump\t// in\n    tag_170:\n      dup1\n      0x1f\n      add\n      0x20\n      dup1\n      swap2\n      div\n      mul\n      0x20\n      add\n      mload(0x40)\n      swap1\n      dup2\n      add\n      0x40\n      mstore\n      dup1\n      swap3\n      swap2\n      swap1\n      dup2\n      dup2\n      mstore\n      0x20\n      add\n      dup3\n      dup1\n      sload\n      tag_171\n      swap1\n      tag_140\n      jump\t// in\n    tag_171:\n      dup1\n      iszero\n      tag_172\n      jumpi\n      dup1\n      0x1f\n      lt\n      tag_173\n      jumpi\n      0x0100\n      dup1\n      dup4\n      sload\n      div\n      mul\n      dup4\n      mstore\n      swap2\n      0x20\n      add\n      swap2\n      jump(tag_172)\n    tag_173:\n      dup3\n      add\n      swap2\n      swap1\n      0x00\n      mstore\n      keccak256(0x00, 0x20)\n      swap1\n    tag_174:\n      dup2\n      sload\n      dup2\n      mstore\n      swap1\n      0x01\n      add\n      swap1\n      0x20\n      add\n      dup1\n      dup4\n      gt\n      tag_174\n      jumpi\n      dup3\n      swap1\n      sub\n      0x1f\n      and\n      dup3\n      add\n      swap2\n    tag_172:\n      pop\n      pop\n      pop\n      pop\n      pop\n      dup2\n      mstore\n      0x20\n      add\n      0x0b\n      dup3\n      add\n      dup1\n      sload\n      tag_175\n      swap1\n      tag_140\n      jump\t// in\n    tag_175:\n      dup1\n      0x1f\n      add\n      0x20\n      dup1\n      swap2\n      div\n      mul\n      0x20\n      add\n      mload(0x40)\n      swap1\n      dup2\n      add\n      0x40\n      mstore\n      dup1\n      swap3\n      swap2\n      swap1\n      dup2\n      dup2\n      mstore\n      0x20\n      add\n      dup3\n      dup1\n      sload\n      tag_176\n      swap1\n      tag_140\n      jump\t// in\n    tag_176:\n      dup1\n      iszero\n      tag_177\n      jumpi\n      dup1\n      0x1f\n      lt\n      tag_178\n      jumpi\n      0x0100\n      dup1\n      dup4\n      sload\n      div\n      mul\n      dup4\n      mstore\n      swap2\n      0x20\n      add\n      swap2\n      jump(tag_177)\n    tag_178:\n      dup3\n      add\n      swap2\n      swap1\n      0x00\n      mstore\n      keccak256(0x00, 0x20)\n      swap1\n    tag_179:\n      dup2\n      sload\n      dup2\n      mstore\n      swap1\n      0x01\n      add\n      swap1\n      0x20\n      add\n      dup1\n      dup4\n      gt\n      tag_179\n      jumpi\n      dup3\n      swap1\n      sub\n      0x1f\n      and\n      dup3\n      add\n      swap2\n    tag_177:\n      pop\n      pop\n      pop\n      pop\n      pop\n      dup2\n      mstore\n      pop\n      pop\n      swap3\n      pop\n      pop\n      jump(tag_134)\n        /* \"database/ListEmployee.sol\":2083:2124  if (list[i].user == value) return list[i] */\n    tag_138:\n        /* \"database/ListEmployee.sol\":2064:2067  i++ */\n      dup1\n      tag_180\n      dup2\n      tag_181\n      jump\t// in\n    tag_180:\n      swap2\n      pop\n      pop\n        /* \"database/ListEmployee.sol\":2024:2135  for (uint256 i = 1; i <= autoIncrement; i++) {... */\n      jump(tag_135)\n    tag_136:\n      pop\n        /* \"database/ListEmployee.sol\":2144:2192  revert(\"Database ListEmployee: Invalid address\") */\n      mload(0x40)\n      shl(0xe5, 0x461bcd)\n      dup2\n      mstore\n        /* \"#utility.yul\":10357:10359   */\n      0x20\n        /* \"database/ListEmployee.sol\":2144:2192  revert(\"Database ListEmployee: Invalid address\") */\n      0x04\n      dup3\n      add\n        /* \"#utility.yul\":10339:10360   */\n      mstore\n        /* \"#utility.yul\":10396:10398   */\n      0x26\n        /* \"#utility.yul\":10376:10394   */\n      0x24\n      dup3\n      add\n        /* \"#utility.yul\":10369:10399   */\n      mstore\n        /* \"#utility.yul\":10435:10469   */\n      0x4461746162617365204c697374456d706c6f7965653a20496e76616c69642061\n        /* \"#utility.yul\":10415:10433   */\n      0x44\n      dup3\n      add\n        /* \"#utility.yul\":10408:10470   */\n      mstore\n      shl(0xd0, 0x646472657373)\n        /* \"#utility.yul\":10486:10504   */\n      0x64\n      dup3\n      add\n        /* \"#utility.yul\":10479:10515   */\n      mstore\n        /* \"#utility.yul\":10532:10551   */\n      0x84\n      add\n        /* \"database/ListEmployee.sol\":2144:2192  revert(\"Database ListEmployee: Invalid address\") */\n      tag_121\n        /* \"#utility.yul\":10155:10557   */\n      jump\n        /* \"database/ListEmployee.sol\":625:626  _ */\n    tag_134:\n        /* \"database/ListEmployee.sol\":1866:2199  function atAddress(address value, bytes32 secret)... */\n      pop\n      swap3\n      swap2\n      pop\n      pop\n      jump\t// out\n        /* \"database/ListEmployee.sol\":3024:3253  function setCategory(... */\n    tag_41:\n        /* \"database/ListEmployee.sol\":3180:3184  bool */\n      0x00\n        /* \"database/ListEmployee.sol\":3145:3151  secret */\n      dup3\n      0x00\n      dup1\n      mload\n      0x20\n      data_98ee57057fe0a523e70b51608fd55a37ff53d47c3b8dac495a5f45d45157392f\n      dup4\n      codecopy\n      dup2\n      mload\n      swap2\n      mstore\n        /* \"database/ListEmployee.sol\":529:550  value == DATABASE_KEY */\n      dup2\n      eq\n        /* \"database/ListEmployee.sol\":508:615  require(... */\n      tag_185\n      jumpi\n      mload(0x40)\n      shl(0xe5, 0x461bcd)\n      dup2\n      mstore\n      0x04\n      add\n      tag_121\n      swap1\n      tag_122\n      jump\t// in\n    tag_185:\n        /* \"database/ListEmployee.sol\":3164:3169  index */\n      dup5\n        /* \"database/ListEmployee.sol\":711:716  index */\n      dup1\n        /* \"database/ListEmployee.sol\":706:707  1 */\n      0x01\n        /* \"database/ListEmployee.sol\":706:716  1 <= index */\n      gt\n      iszero\n        /* \"database/ListEmployee.sol\":705:745  (1 <= index) && (index <= autoIncrement) */\n      dup1\n      iszero\n      tag_188\n      jumpi\n      pop\n        /* \"database/ListEmployee.sol\":731:744  autoIncrement */\n      sload(0x02)\n        /* \"database/ListEmployee.sol\":722:727  index */\n      dup2\n        /* \"database/ListEmployee.sol\":722:744  index <= autoIncrement */\n      gt\n      iszero\n        /* \"database/ListEmployee.sol\":705:745  (1 <= index) && (index <= autoIncrement) */\n    tag_188:\n        /* \"database/ListEmployee.sol\":684:807  require(... */\n      tag_189\n      jumpi\n      mload(0x40)\n      shl(0xe5, 0x461bcd)\n      dup2\n      mstore\n      0x04\n      add\n      tag_121\n      swap1\n      tag_127\n      jump\t// in\n    tag_189:\n      pop\n      pop\n      pop\n        /* \"database/ListEmployee.sol\":3196:3207  list[index] */\n      0x00\n      swap3\n      dup4\n      mstore\n        /* \"database/ListEmployee.sol\":3196:3200  list */\n      0x01\n        /* \"database/ListEmployee.sol\":3196:3207  list[index] */\n      0x20\n      dup2\n      swap1\n      mstore\n      0x40\n      swap1\n      swap4\n      keccak256\n        /* \"database/ListEmployee.sol\":3196:3225  list[index].catergory = value */\n      sstore\n      pop\n        /* \"database/ListEmployee.sol\":3196:3200  list */\n      swap1\n        /* \"database/ListEmployee.sol\":3024:3253  function setCategory(... */\n      jump\t// out\n        /* \"database/ListEmployee.sol\":4663:4891  function setEmail(... */\n    tag_46:\n        /* \"database/ListEmployee.sol\":4822:4826  bool */\n      0x00\n        /* \"database/ListEmployee.sol\":4787:4793  secret */\n      dup3\n      0x00\n      dup1\n      mload\n      0x20\n      data_98ee57057fe0a523e70b51608fd55a37ff53d47c3b8dac495a5f45d45157392f\n      dup4\n      codecopy\n      dup2\n      mload\n      swap2\n      mstore\n        /* \"database/ListEmployee.sol\":529:550  value == DATABASE_KEY */\n      dup2\n      eq\n        /* \"database/ListEmployee.sol\":508:615  require(... */\n      tag_193\n      jumpi\n      mload(0x40)\n      shl(0xe5, 0x461bcd)\n      dup2\n      mstore\n      0x04\n      add\n      tag_121\n      swap1\n      tag_122\n      jump\t// in\n    tag_193:\n        /* \"database/ListEmployee.sol\":4806:4811  index */\n      dup5\n        /* \"database/ListEmployee.sol\":711:716  index */\n      dup1\n        /* \"database/ListEmployee.sol\":706:707  1 */\n      0x01\n        /* \"database/ListEmployee.sol\":706:716  1 <= index */\n      gt\n      iszero\n        /* \"database/ListEmployee.sol\":705:745  (1 <= index) && (index <= autoIncrement) */\n      dup1\n      iszero\n      tag_196\n      jumpi\n      pop\n        /* \"database/ListEmployee.sol\":731:744  autoIncrement */\n      sload(0x02)\n        /* \"database/ListEmployee.sol\":722:727  index */\n      dup2\n        /* \"database/ListEmployee.sol\":722:744  index <= autoIncrement */\n      gt\n      iszero\n        /* \"database/ListEmployee.sol\":705:745  (1 <= index) && (index <= autoIncrement) */\n    tag_196:\n        /* \"database/ListEmployee.sol\":684:807  require(... */\n      tag_197\n      jumpi\n      mload(0x40)\n      shl(0xe5, 0x461bcd)\n      dup2\n      mstore\n      0x04\n      add\n      tag_121\n      swap1\n      tag_127\n      jump\t// in\n    tag_197:\n        /* \"database/ListEmployee.sol\":4838:4849  list[index] */\n      0x00\n      dup7\n      dup2\n      mstore\n        /* \"database/ListEmployee.sol\":4838:4842  list */\n      0x01\n        /* \"database/ListEmployee.sol\":4838:4849  list[index] */\n      0x20\n      mstore\n      0x40\n      swap1\n      keccak256\n        /* \"database/ListEmployee.sol\":4838:4855  list[index].email */\n      0x07\n      add\n        /* \"database/ListEmployee.sol\":4838:4863  list[index].email = value */\n      tag_200\n        /* \"database/ListEmployee.sol\":4858:4863  value */\n      dup6\n        /* \"database/ListEmployee.sol\":4838:4855  list[index].email */\n      dup3\n        /* \"database/ListEmployee.sol\":4838:4863  list[index].email = value */\n      tag_201\n      jump\t// in\n    tag_200:\n      pop\n        /* \"database/ListEmployee.sol\":4880:4884  true */\n      0x01\n      swap7\n        /* \"database/ListEmployee.sol\":4663:4891  function setEmail(... */\n      swap6\n      pop\n      pop\n      pop\n      pop\n      pop\n      pop\n      jump\t// out\n        /* \"database/ListEmployee.sol\":5619:5853  function setPassword(... */\n    tag_50:\n        /* \"database/ListEmployee.sol\":5781:5785  bool */\n      0x00\n        /* \"database/ListEmployee.sol\":5746:5752  secret */\n      dup3\n      0x00\n      dup1\n      mload\n      0x20\n      data_98ee57057fe0a523e70b51608fd55a37ff53d47c3b8dac495a5f45d45157392f\n      dup4\n      codecopy\n      dup2\n      mload\n      swap2\n      mstore\n        /* \"database/ListEmployee.sol\":529:550  value == DATABASE_KEY */\n      dup2\n      eq\n        /* \"database/ListEmployee.sol\":508:615  require(... */\n      tag_203\n      jumpi\n      mload(0x40)\n      shl(0xe5, 0x461bcd)\n      dup2\n      mstore\n      0x04\n      add\n      tag_121\n      swap1\n      tag_122\n      jump\t// in\n    tag_203:\n        /* \"database/ListEmployee.sol\":5765:5770  index */\n      dup5\n        /* \"database/ListEmployee.sol\":711:716  index */\n      dup1\n        /* \"database/ListEmployee.sol\":706:707  1 */\n      0x01\n        /* \"database/ListEmployee.sol\":706:716  1 <= index */\n      gt\n      iszero\n        /* \"database/ListEmployee.sol\":705:745  (1 <= index) && (index <= autoIncrement) */\n      dup1\n      iszero\n      tag_206\n      jumpi\n      pop\n        /* \"database/ListEmployee.sol\":731:744  autoIncrement */\n      sload(0x02)\n        /* \"database/ListEmployee.sol\":722:727  index */\n      dup2\n        /* \"database/ListEmployee.sol\":722:744  index <= autoIncrement */\n      gt\n      iszero\n        /* \"database/ListEmployee.sol\":705:745  (1 <= index) && (index <= autoIncrement) */\n    tag_206:\n        /* \"database/ListEmployee.sol\":684:807  require(... */\n      tag_207\n      jumpi\n      mload(0x40)\n      shl(0xe5, 0x461bcd)\n      dup2\n      mstore\n      0x04\n      add\n      tag_121\n      swap1\n      tag_127\n      jump\t// in\n    tag_207:\n        /* \"database/ListEmployee.sol\":5797:5808  list[index] */\n      0x00\n      dup7\n      dup2\n      mstore\n        /* \"database/ListEmployee.sol\":5797:5801  list */\n      0x01\n        /* \"database/ListEmployee.sol\":5797:5808  list[index] */\n      0x20\n      mstore\n      0x40\n      swap1\n      keccak256\n        /* \"database/ListEmployee.sol\":5797:5817  list[index].password */\n      0x0b\n      add\n        /* \"database/ListEmployee.sol\":5797:5825  list[index].password = value */\n      tag_200\n        /* \"database/ListEmployee.sol\":5820:5825  value */\n      dup6\n        /* \"database/ListEmployee.sol\":5797:5817  list[index].password */\n      dup3\n        /* \"database/ListEmployee.sol\":5797:5825  list[index].password = value */\n      tag_201\n      jump\t// in\n        /* \"database/ListEmployee.sol\":3723:3943  function setUser(... */\n    tag_55:\n        /* \"database/ListEmployee.sol\":3875:3879  bool */\n      0x00\n        /* \"database/ListEmployee.sol\":3840:3846  secret */\n      dup3\n      0x00\n      dup1\n      mload\n      0x20\n      data_98ee57057fe0a523e70b51608fd55a37ff53d47c3b8dac495a5f45d45157392f\n      dup4\n      codecopy\n      dup2\n      mload\n      swap2\n      mstore\n        /* \"database/ListEmployee.sol\":529:550  value == DATABASE_KEY */\n      dup2\n      eq\n        /* \"database/ListEmployee.sol\":508:615  require(... */\n      tag_212\n      jumpi\n      mload(0x40)\n      shl(0xe5, 0x461bcd)\n      dup2\n      mstore\n      0x04\n      add\n      tag_121\n      swap1\n      tag_122\n      jump\t// in\n    tag_212:\n        /* \"database/ListEmployee.sol\":3859:3864  index */\n      dup5\n        /* \"database/ListEmployee.sol\":711:716  index */\n      dup1\n        /* \"database/ListEmployee.sol\":706:707  1 */\n      0x01\n        /* \"database/ListEmployee.sol\":706:716  1 <= index */\n      gt\n      iszero\n        /* \"database/ListEmployee.sol\":705:745  (1 <= index) && (index <= autoIncrement) */\n      dup1\n      iszero\n      tag_215\n      jumpi\n      pop\n        /* \"database/ListEmployee.sol\":731:744  autoIncrement */\n      sload(0x02)\n        /* \"database/ListEmployee.sol\":722:727  index */\n      dup2\n        /* \"database/ListEmployee.sol\":722:744  index <= autoIncrement */\n      gt\n      iszero\n        /* \"database/ListEmployee.sol\":705:745  (1 <= index) && (index <= autoIncrement) */\n    tag_215:\n        /* \"database/ListEmployee.sol\":684:807  require(... */\n      tag_216\n      jumpi\n      mload(0x40)\n      shl(0xe5, 0x461bcd)\n      dup2\n      mstore\n      0x04\n      add\n      tag_121\n      swap1\n      tag_127\n      jump\t// in\n    tag_216:\n      pop\n      pop\n      pop\n        /* \"database/ListEmployee.sol\":3891:3902  list[index] */\n      0x00\n      swap3\n      dup4\n      mstore\n        /* \"database/ListEmployee.sol\":3891:3895  list */\n      0x01\n        /* \"database/ListEmployee.sol\":3891:3902  list[index] */\n      0x20\n      dup2\n      swap1\n      mstore\n      0x40\n      swap1\n      swap4\n      keccak256\n        /* \"database/ListEmployee.sol\":3891:3907  list[index].user */\n      0x03\n      add\n        /* \"database/ListEmployee.sol\":3891:3915  list[index].user = value */\n      dup1\n      sload\n      not(sub(shl(0xa0, 0x01), 0x01))\n      and\n      sub(shl(0xa0, 0x01), 0x01)\n      swap3\n      swap1\n      swap3\n      and\n      swap2\n      swap1\n      swap2\n      or\n      swap1\n      sstore\n      pop\n        /* \"database/ListEmployee.sol\":3891:3895  list */\n      swap1\n        /* \"database/ListEmployee.sol\":3723:3943  function setUser(... */\n      jump\t// out\n        /* \"database/ListEmployee.sol\":3949:4175  function setName(... */\n    tag_59:\n        /* \"database/ListEmployee.sol\":4107:4111  bool */\n      0x00\n        /* \"database/ListEmployee.sol\":4072:4078  secret */\n      dup3\n      0x00\n      dup1\n      mload\n      0x20\n      data_98ee57057fe0a523e70b51608fd55a37ff53d47c3b8dac495a5f45d45157392f\n      dup4\n      codecopy\n      dup2\n      mload\n      swap2\n      mstore\n        /* \"database/ListEmployee.sol\":529:550  value == DATABASE_KEY */\n      dup2\n      eq\n        /* \"database/ListEmployee.sol\":508:615  require(... */\n      tag_220\n      jumpi\n      mload(0x40)\n      shl(0xe5, 0x461bcd)\n      dup2\n      mstore\n      0x04\n      add\n      tag_121\n      swap1\n      tag_122\n      jump\t// in\n    tag_220:\n        /* \"database/ListEmployee.sol\":4091:4096  index */\n      dup5\n        /* \"database/ListEmployee.sol\":711:716  index */\n      dup1\n        /* \"database/ListEmployee.sol\":706:707  1 */\n      0x01\n        /* \"database/ListEmployee.sol\":706:716  1 <= index */\n      gt\n      iszero\n        /* \"database/ListEmployee.sol\":705:745  (1 <= index) && (index <= autoIncrement) */\n      dup1\n      iszero\n      tag_223\n      jumpi\n      pop\n        /* \"database/ListEmployee.sol\":731:744  autoIncrement */\n      sload(0x02)\n        /* \"database/ListEmployee.sol\":722:727  index */\n      dup2\n        /* \"database/ListEmployee.sol\":722:744  index <= autoIncrement */\n      gt\n      iszero\n        /* \"database/ListEmployee.sol\":705:745  (1 <= index) && (index <= autoIncrement) */\n    tag_223:\n        /* \"database/ListEmployee.sol\":684:807  require(... */\n      tag_224\n      jumpi\n      mload(0x40)\n      shl(0xe5, 0x461bcd)\n      dup2\n      mstore\n      0x04\n      add\n      tag_121\n      swap1\n      tag_127\n      jump\t// in\n    tag_224:\n        /* \"database/ListEmployee.sol\":4123:4134  list[index] */\n      0x00\n      dup7\n      dup2\n      mstore\n        /* \"database/ListEmployee.sol\":4123:4127  list */\n      0x01\n        /* \"database/ListEmployee.sol\":4123:4134  list[index] */\n      0x20\n      mstore\n      0x40\n      swap1\n      keccak256\n        /* \"database/ListEmployee.sol\":4123:4139  list[index].name */\n      0x04\n      add\n        /* \"database/ListEmployee.sol\":4123:4147  list[index].name = value */\n      tag_200\n        /* \"database/ListEmployee.sol\":4142:4147  value */\n      dup6\n        /* \"database/ListEmployee.sol\":4123:4139  list[index].name */\n      dup3\n        /* \"database/ListEmployee.sol\":4123:4147  list[index].name = value */\n      tag_201\n      jump\t// in\n        /* \"database/ListEmployee.sol\":1000:1271  function add(Profile memory item, bytes32 secret)... */\n    tag_64:\n        /* \"database/ListEmployee.sol\":1115:1119  bool */\n      0x00\n        /* \"database/ListEmployee.sol\":1090:1096  secret */\n      dup2\n      0x00\n      dup1\n      mload\n      0x20\n      data_98ee57057fe0a523e70b51608fd55a37ff53d47c3b8dac495a5f45d45157392f\n      dup4\n      codecopy\n      dup2\n      mload\n      swap2\n      mstore\n        /* \"database/ListEmployee.sol\":529:550  value == DATABASE_KEY */\n      dup2\n      eq\n        /* \"database/ListEmployee.sol\":508:615  require(... */\n      tag_229\n      jumpi\n      mload(0x40)\n      shl(0xe5, 0x461bcd)\n      dup2\n      mstore\n      0x04\n      add\n      tag_121\n      swap1\n      tag_122\n      jump\t// in\n    tag_229:\n        /* \"database/ListEmployee.sol\":1135:1148  autoIncrement */\n      0x02\n        /* \"database/ListEmployee.sol\":1135:1150  autoIncrement++ */\n      dup1\n      sload\n      swap1\n        /* \"database/ListEmployee.sol\":1135:1148  autoIncrement */\n      0x00\n        /* \"database/ListEmployee.sol\":1135:1150  autoIncrement++ */\n      tag_232\n      dup4\n      tag_181\n      jump\t// in\n    tag_232:\n      swap1\n      swap2\n      sstore\n      pop\n      pop\n        /* \"database/ListEmployee.sol\":1170:1183  autoIncrement */\n      0x02\n      dup1\n      sload\n        /* \"database/ListEmployee.sol\":1160:1167  item.id */\n      0x20\n      dup7\n      dup2\n      add\n        /* \"database/ListEmployee.sol\":1160:1183  item.id = autoIncrement */\n      dup3\n      dup2\n      mstore\n        /* \"database/ListEmployee.sol\":1193:1212  list[autoIncrement] */\n      0x00\n      swap3\n      dup4\n      mstore\n        /* \"database/ListEmployee.sol\":1193:1197  list */\n      0x01\n        /* \"database/ListEmployee.sol\":1193:1212  list[autoIncrement] */\n      swap2\n      dup3\n      swap1\n      mstore\n      0x40\n      swap3\n      dup4\n      swap1\n      keccak256\n        /* \"database/ListEmployee.sol\":1193:1219  list[autoIncrement] = item */\n      dup9\n      mload\n      dup2\n      sstore\n      swap1\n      mload\n      swap2\n      dup2\n      add\n      swap2\n      swap1\n      swap2\n      sstore\n      swap1\n      dup7\n      add\n      mload\n      swap2\n      dup2\n      add\n      swap2\n      swap1\n      swap2\n      sstore\n      0x60\n      dup6\n      add\n      mload\n      0x03\n      dup3\n      add\n      dup1\n      sload\n      not(sub(shl(0xa0, 0x01), 0x01))\n      and\n      sub(shl(0xa0, 0x01), 0x01)\n      swap1\n      swap3\n      and\n      swap2\n      swap1\n      swap2\n      or\n      swap1\n      sstore\n      0x80\n      dup6\n      add\n      mload\n        /* \"database/ListEmployee.sol\":1160:1167  item.id */\n      dup6\n      swap2\n        /* \"database/ListEmployee.sol\":1193:1212  list[autoIncrement] */\n      swap1\n        /* \"database/ListEmployee.sol\":1193:1219  list[autoIncrement] = item */\n      0x04\n      dup3\n      add\n      swap1\n      tag_233\n      swap1\n      dup3\n      tag_201\n      jump\t// in\n    tag_233:\n      pop\n      0xa0\n      dup3\n      add\n      mload\n      0x05\n      dup3\n      add\n      swap1\n      tag_234\n      swap1\n      dup3\n      tag_201\n      jump\t// in\n    tag_234:\n      pop\n      0xc0\n      dup3\n      add\n      mload\n      0x06\n      dup3\n      add\n      swap1\n      tag_235\n      swap1\n      dup3\n      tag_201\n      jump\t// in\n    tag_235:\n      pop\n      0xe0\n      dup3\n      add\n      mload\n      0x07\n      dup3\n      add\n      swap1\n      tag_236\n      swap1\n      dup3\n      tag_201\n      jump\t// in\n    tag_236:\n      pop\n      0x0100\n      dup3\n      add\n      mload\n      0x08\n      dup3\n      add\n      swap1\n      tag_237\n      swap1\n      dup3\n      tag_201\n      jump\t// in\n    tag_237:\n      pop\n      0x0120\n      dup3\n      add\n      mload\n      0x09\n      dup3\n      add\n      swap1\n      tag_238\n      swap1\n      dup3\n      tag_201\n      jump\t// in\n    tag_238:\n      pop\n      0x0140\n      dup3\n      add\n      mload\n      0x0a\n      dup3\n      add\n      swap1\n      tag_239\n      swap1\n      dup3\n      tag_201\n      jump\t// in\n    tag_239:\n      pop\n      0x0160\n      dup3\n      add\n      mload\n      0x0b\n      dup3\n      add\n      swap1\n      tag_240\n      swap1\n      dup3\n      tag_201\n      jump\t// in\n    tag_240:\n      pop\n      swap1\n      pop\n      pop\n        /* \"database/ListEmployee.sol\":1234:1243  Add(item) */\n      0x909ad77f22e0c92af47eb3f445c01071af38cca1b24a4204c243f9d6421568f4\n        /* \"database/ListEmployee.sol\":1238:1242  item */\n      dup5\n        /* \"database/ListEmployee.sol\":1234:1243  Add(item) */\n      mload(0x40)\n      tag_241\n      swap2\n      swap1\n      tag_38\n      jump\t// in\n    tag_241:\n      mload(0x40)\n      dup1\n      swap2\n      sub\n      swap1\n      log1\n      pop\n        /* \"database/ListEmployee.sol\":1260:1264  true */\n      0x01\n      swap4\n        /* \"database/ListEmployee.sol\":1000:1271  function add(Profile memory item, bytes32 secret)... */\n      swap3\n      pop\n      pop\n      pop\n      jump\t// out\n        /* \"database/ListEmployee.sol\":5373:5613  function setSourceImage(... */\n    tag_68:\n        /* \"database/ListEmployee.sol\":5538:5542  bool */\n      0x00\n        /* \"database/ListEmployee.sol\":5503:5509  secret */\n      dup3\n      0x00\n      dup1\n      mload\n      0x20\n      data_98ee57057fe0a523e70b51608fd55a37ff53d47c3b8dac495a5f45d45157392f\n      dup4\n      codecopy\n      dup2\n      mload\n      swap2\n      mstore\n        /* \"database/ListEmployee.sol\":529:550  value == DATABASE_KEY */\n      dup2\n      eq\n        /* \"database/ListEmployee.sol\":508:615  require(... */\n      tag_243\n      jumpi\n      mload(0x40)\n      shl(0xe5, 0x461bcd)\n      dup2\n      mstore\n      0x04\n      add\n      tag_121\n      swap1\n      tag_122\n      jump\t// in\n    tag_243:\n        /* \"database/ListEmployee.sol\":5522:5527  index */\n      dup5\n        /* \"database/ListEmployee.sol\":711:716  index */\n      dup1\n        /* \"database/ListEmployee.sol\":706:707  1 */\n      0x01\n        /* \"database/ListEmployee.sol\":706:716  1 <= index */\n      gt\n      iszero\n        /* \"database/ListEmployee.sol\":705:745  (1 <= index) && (index <= autoIncrement) */\n      dup1\n      iszero\n      tag_246\n      jumpi\n      pop\n        /* \"database/ListEmployee.sol\":731:744  autoIncrement */\n      sload(0x02)\n        /* \"database/ListEmployee.sol\":722:727  index */\n      dup2\n        /* \"database/ListEmployee.sol\":722:744  index <= autoIncrement */\n      gt\n      iszero\n        /* \"database/ListEmployee.sol\":705:745  (1 <= index) && (index <= autoIncrement) */\n    tag_246:\n        /* \"database/ListEmployee.sol\":684:807  require(... */\n      tag_247\n      jumpi\n      mload(0x40)\n      shl(0xe5, 0x461bcd)\n      dup2\n      mstore\n      0x04\n      add\n      tag_121\n      swap1\n      tag_127\n      jump\t// in\n    tag_247:\n        /* \"database/ListEmployee.sol\":5554:5565  list[index] */\n      0x00\n      dup7\n      dup2\n      mstore\n        /* \"database/ListEmployee.sol\":5554:5558  list */\n      0x01\n        /* \"database/ListEmployee.sol\":5554:5565  list[index] */\n      0x20\n      mstore\n      0x40\n      swap1\n      keccak256\n        /* \"database/ListEmployee.sol\":5554:5577  list[index].sourceImage */\n      0x0a\n      add\n        /* \"database/ListEmployee.sol\":5554:5585  list[index].sourceImage = value */\n      tag_200\n        /* \"database/ListEmployee.sol\":5580:5585  value */\n      dup6\n        /* \"database/ListEmployee.sol\":5554:5577  list[index].sourceImage */\n      dup3\n        /* \"database/ListEmployee.sol\":5554:5585  list[index].sourceImage = value */\n      tag_201\n      jump\t// in\n        /* \"abstract/Ownable.sol\":2642:2731  function destroy() public onlyOwner {... */\n    tag_71:\n        /* \"abstract/Ownable.sol\":1068:1081  _checkOwner() */\n      tag_252\n        /* \"abstract/Ownable.sol\":1068:1079  _checkOwner */\n      tag_253\n        /* \"abstract/Ownable.sol\":1068:1081  _checkOwner() */\n      jump\t// in\n    tag_252:\n        /* \"abstract/Ownable.sol\":2717:2721  this */\n      address\n        /* \"abstract/Ownable.sol\":2688:2724  selfdestruct(payable(address(this))) */\n      selfdestruct\n        /* \"database/ListEmployee.sol\":3259:3475  function setId(... */\n    tag_74:\n        /* \"database/ListEmployee.sol\":3409:3413  bool */\n      0x00\n        /* \"database/ListEmployee.sol\":3374:3380  secret */\n      dup3\n      0x00\n      dup1\n      mload\n      0x20\n      data_98ee57057fe0a523e70b51608fd55a37ff53d47c3b8dac495a5f45d45157392f\n      dup4\n      codecopy\n      dup2\n      mload\n      swap2\n      mstore\n        /* \"database/ListEmployee.sol\":529:550  value == DATABASE_KEY */\n      dup2\n      eq\n        /* \"database/ListEmployee.sol\":508:615  require(... */\n      tag_256\n      jumpi\n      mload(0x40)\n      shl(0xe5, 0x461bcd)\n      dup2\n      mstore\n      0x04\n      add\n      tag_121\n      swap1\n      tag_122\n      jump\t// in\n    tag_256:\n        /* \"database/ListEmployee.sol\":3393:3398  index */\n      dup5\n        /* \"database/ListEmployee.sol\":711:716  index */\n      dup1\n        /* \"database/ListEmployee.sol\":706:707  1 */\n      0x01\n        /* \"database/ListEmployee.sol\":706:716  1 <= index */\n      gt\n      iszero\n        /* \"database/ListEmployee.sol\":705:745  (1 <= index) && (index <= autoIncrement) */\n      dup1\n      iszero\n      tag_259\n      jumpi\n      pop\n        /* \"database/ListEmployee.sol\":731:744  autoIncrement */\n      sload(0x02)\n        /* \"database/ListEmployee.sol\":722:727  index */\n      dup2\n        /* \"database/ListEmployee.sol\":722:744  index <= autoIncrement */\n      gt\n      iszero\n        /* \"database/ListEmployee.sol\":705:745  (1 <= index) && (index <= autoIncrement) */\n    tag_259:\n        /* \"database/ListEmployee.sol\":684:807  require(... */\n      tag_260\n      jumpi\n      mload(0x40)\n      shl(0xe5, 0x461bcd)\n      dup2\n      mstore\n      0x04\n      add\n      tag_121\n      swap1\n      tag_127\n      jump\t// in\n    tag_260:\n      pop\n      pop\n      pop\n        /* \"database/ListEmployee.sol\":3425:3436  list[index] */\n      0x00\n      swap3\n      dup4\n      mstore\n        /* \"database/ListEmployee.sol\":3425:3429  list */\n      0x01\n        /* \"database/ListEmployee.sol\":3425:3436  list[index] */\n      0x20\n      dup2\n      swap1\n      mstore\n      0x40\n      swap1\n      swap4\n      keccak256\n        /* \"database/ListEmployee.sol\":3425:3439  list[index].id */\n      dup4\n      add\n        /* \"database/ListEmployee.sol\":3425:3447  list[index].id = value */\n      sstore\n      pop\n        /* \"database/ListEmployee.sol\":3425:3429  list */\n      swap1\n        /* \"database/ListEmployee.sol\":3259:3475  function setId(... */\n      jump\t// out\n        /* \"database/ListEmployee.sol\":2483:2929  function hide(uint256 index, bytes32 secret)... */\n    tag_83:\n        /* \"database/ListEmployee.sol\":2619:2623  bool */\n      0x00\n        /* \"database/ListEmployee.sol\":2568:2574  secret */\n      dup2\n      0x00\n      dup1\n      mload\n      0x20\n      data_98ee57057fe0a523e70b51608fd55a37ff53d47c3b8dac495a5f45d45157392f\n      dup4\n      codecopy\n      dup2\n      mload\n      swap2\n      mstore\n        /* \"database/ListEmployee.sol\":529:550  value == DATABASE_KEY */\n      dup2\n      eq\n        /* \"database/ListEmployee.sol\":508:615  require(... */\n      tag_265\n      jumpi\n      mload(0x40)\n      shl(0xe5, 0x461bcd)\n      dup2\n      mstore\n      0x04\n      add\n      tag_121\n      swap1\n      tag_122\n      jump\t// in\n    tag_265:\n        /* \"database/ListEmployee.sol\":2595:2600  index */\n      dup4\n        /* \"database/ListEmployee.sol\":711:716  index */\n      dup1\n        /* \"database/ListEmployee.sol\":706:707  1 */\n      0x01\n        /* \"database/ListEmployee.sol\":706:716  1 <= index */\n      gt\n      iszero\n        /* \"database/ListEmployee.sol\":705:745  (1 <= index) && (index <= autoIncrement) */\n      dup1\n      iszero\n      tag_268\n      jumpi\n      pop\n        /* \"database/ListEmployee.sol\":731:744  autoIncrement */\n      sload(0x02)\n        /* \"database/ListEmployee.sol\":722:727  index */\n      dup2\n        /* \"database/ListEmployee.sol\":722:744  index <= autoIncrement */\n      gt\n      iszero\n        /* \"database/ListEmployee.sol\":705:745  (1 <= index) && (index <= autoIncrement) */\n    tag_268:\n        /* \"database/ListEmployee.sol\":684:807  require(... */\n      tag_269\n      jumpi\n      mload(0x40)\n      shl(0xe5, 0x461bcd)\n      dup2\n      mstore\n      0x04\n      add\n      tag_121\n      swap1\n      tag_127\n      jump\t// in\n    tag_269:\n        /* \"database/ListEmployee.sol\":2660:2874  Profile(... */\n      0x40\n      dup1\n      mload\n      0x0180\n      dup2\n      add\n      dup3\n      mstore\n      0x00\n      dup1\n      dup3\n      mstore\n      0x20\n      dup1\n      dup4\n      add\n      dup3\n      dup2\n      mstore\n      dup4\n      dup6\n      add\n      dup4\n      dup2\n      mstore\n      0x60\n      dup6\n      add\n      dup5\n      dup2\n      mstore\n      dup7\n      mload\n      dup1\n      dup6\n      add\n      dup9\n      mstore\n      dup6\n      dup2\n      mstore\n      0x80\n      dup8\n      add\n      swap1\n      dup2\n      mstore\n      dup8\n      mload\n      dup1\n      dup7\n      add\n      dup10\n      mstore\n      dup7\n      dup2\n      mstore\n      0xa0\n      dup9\n      add\n      mstore\n      dup8\n      mload\n      dup1\n      dup7\n      add\n      dup10\n      mstore\n      dup7\n      dup2\n      mstore\n      0xc0\n      dup9\n      add\n      mstore\n      dup8\n      mload\n      dup1\n      dup7\n      add\n      dup10\n      mstore\n      dup7\n      dup2\n      mstore\n      0xe0\n      dup9\n      add\n      mstore\n      dup8\n      mload\n      dup1\n      dup7\n      add\n      dup10\n      mstore\n      dup7\n      dup2\n      mstore\n      0x0100\n      dup9\n      add\n      mstore\n      dup8\n      mload\n      dup1\n      dup7\n      add\n      dup10\n      mstore\n      dup7\n      dup2\n      mstore\n      0x0120\n      dup9\n      add\n      mstore\n      dup8\n      mload\n      dup1\n      dup7\n      add\n      dup10\n      mstore\n      dup7\n      dup2\n      mstore\n      0x0140\n      dup9\n      add\n      mstore\n      dup8\n      mload\n      dup1\n      dup7\n      add\n      dup10\n      mstore\n      dup7\n      dup2\n      mstore\n      0x0160\n      dup9\n      add\n      mstore\n        /* \"database/ListEmployee.sol\":2884:2895  list[index] */\n      dup13\n      dup7\n      mstore\n        /* \"database/ListEmployee.sol\":2884:2888  list */\n      0x01\n        /* \"database/ListEmployee.sol\":2884:2895  list[index] */\n      swap5\n      dup6\n      swap1\n      mstore\n      swap7\n      swap1\n      swap5\n      keccak256\n        /* \"database/ListEmployee.sol\":2884:2901  list[index] = gap */\n      dup6\n      mload\n      dup2\n      sstore\n      swap2\n      mload\n      swap3\n      dup3\n      add\n      swap3\n      swap1\n      swap3\n      sstore\n      swap1\n      mload\n      0x02\n      dup3\n      add\n      sstore\n      swap1\n      mload\n      0x03\n      dup3\n      add\n      dup1\n      sload\n      not(sub(shl(0xa0, 0x01), 0x01))\n      and\n      sub(shl(0xa0, 0x01), 0x01)\n      swap1\n      swap3\n      and\n      swap2\n      swap1\n      swap2\n      or\n      swap1\n      sstore\n      swap2\n      mload\n        /* \"database/ListEmployee.sol\":2660:2874  Profile(... */\n      swap1\n      swap2\n      dup3\n      swap2\n        /* \"database/ListEmployee.sol\":2884:2901  list[index] = gap */\n      0x04\n      dup3\n      add\n      swap1\n      tag_272\n      swap1\n      dup3\n      tag_201\n      jump\t// in\n    tag_272:\n      pop\n      0xa0\n      dup3\n      add\n      mload\n      0x05\n      dup3\n      add\n      swap1\n      tag_273\n      swap1\n      dup3\n      tag_201\n      jump\t// in\n    tag_273:\n      pop\n      0xc0\n      dup3\n      add\n      mload\n      0x06\n      dup3\n      add\n      swap1\n      tag_274\n      swap1\n      dup3\n      tag_201\n      jump\t// in\n    tag_274:\n      pop\n      0xe0\n      dup3\n      add\n      mload\n      0x07\n      dup3\n      add\n      swap1\n      tag_275\n      swap1\n      dup3\n      tag_201\n      jump\t// in\n    tag_275:\n      pop\n      0x0100\n      dup3\n      add\n      mload\n      0x08\n      dup3\n      add\n      swap1\n      tag_276\n      swap1\n      dup3\n      tag_201\n      jump\t// in\n    tag_276:\n      pop\n      0x0120\n      dup3\n      add\n      mload\n      0x09\n      dup3\n      add\n      swap1\n      tag_277\n      swap1\n      dup3\n      tag_201\n      jump\t// in\n    tag_277:\n      pop\n      0x0140\n      dup3\n      add\n      mload\n      0x0a\n      dup3\n      add\n      swap1\n      tag_278\n      swap1\n      dup3\n      tag_201\n      jump\t// in\n    tag_278:\n      pop\n      0x0160\n      dup3\n      add\n      mload\n      0x0b\n      dup3\n      add\n      swap1\n      tag_279\n      swap1\n      dup3\n      tag_201\n      jump\t// in\n    tag_279:\n      pop\n        /* \"database/ListEmployee.sol\":2918:2922  true */\n      0x01\n      swap9\n        /* \"database/ListEmployee.sol\":2483:2929  function hide(uint256 index, bytes32 secret)... */\n      swap8\n      pop\n      pop\n      pop\n      pop\n      pop\n      pop\n      pop\n      pop\n      jump\t// out\n        /* \"database/ListEmployee.sol\":1277:1559  function at(uint256 index, bytes32 secret)... */\n    tag_87:\n        /* \"database/ListEmployee.sol\":1424:1438  Profile memory */\n      tag_280\n      tag_130\n      jump\t// in\n    tag_280:\n        /* \"database/ListEmployee.sol\":1373:1379  secret */\n      dup2\n      0x00\n      dup1\n      mload\n      0x20\n      data_98ee57057fe0a523e70b51608fd55a37ff53d47c3b8dac495a5f45d45157392f\n      dup4\n      codecopy\n      dup2\n      mload\n      swap2\n      mstore\n        /* \"database/ListEmployee.sol\":529:550  value == DATABASE_KEY */\n      dup2\n      eq\n        /* \"database/ListEmployee.sol\":508:615  require(... */\n      tag_282\n      jumpi\n      mload(0x40)\n      shl(0xe5, 0x461bcd)\n      dup2\n      mstore\n      0x04\n      add\n      tag_121\n      swap1\n      tag_122\n      jump\t// in\n    tag_282:\n        /* \"database/ListEmployee.sol\":1400:1405  index */\n      dup4\n        /* \"database/ListEmployee.sol\":711:716  index */\n      dup1\n        /* \"database/ListEmployee.sol\":706:707  1 */\n      0x01\n        /* \"database/ListEmployee.sol\":706:716  1 <= index */\n      gt\n      iszero\n        /* \"database/ListEmployee.sol\":705:745  (1 <= index) && (index <= autoIncrement) */\n      dup1\n      iszero\n      tag_285\n      jumpi\n      pop\n        /* \"database/ListEmployee.sol\":731:744  autoIncrement */\n      sload(0x02)\n        /* \"database/ListEmployee.sol\":722:727  index */\n      dup2\n        /* \"database/ListEmployee.sol\":722:744  index <= autoIncrement */\n      gt\n      iszero\n        /* \"database/ListEmployee.sol\":705:745  (1 <= index) && (index <= autoIncrement) */\n    tag_285:\n        /* \"database/ListEmployee.sol\":684:807  require(... */\n      tag_286\n      jumpi\n      mload(0x40)\n      shl(0xe5, 0x461bcd)\n      dup2\n      mstore\n      0x04\n      add\n      tag_121\n      swap1\n      tag_127\n      jump\t// in\n    tag_286:\n        /* \"database/ListEmployee.sol\":1541:1552  list[index] */\n      0x00\n      dup6\n      dup2\n      mstore\n        /* \"database/ListEmployee.sol\":1541:1545  list */\n      0x01\n        /* \"database/ListEmployee.sol\":1541:1552  list[index] */\n      0x20\n      dup2\n      dup2\n      mstore\n      0x40\n      swap3\n      dup4\n      swap1\n      keccak256\n        /* \"database/ListEmployee.sol\":1534:1552  return list[index] */\n      dup4\n      mload\n      0x0180\n      dup2\n      add\n      dup6\n      mstore\n      dup2\n      sload\n      dup2\n      mstore\n      swap3\n      dup2\n      add\n      sload\n      swap2\n      dup4\n      add\n      swap2\n      swap1\n      swap2\n      mstore\n      0x02\n      dup2\n      add\n      sload\n      swap3\n      dup3\n      add\n      swap3\n      swap1\n      swap3\n      mstore\n      0x03\n      dup3\n      add\n      sload\n      sub(shl(0xa0, 0x01), 0x01)\n      and\n      0x60\n      dup3\n      add\n      mstore\n      0x04\n      dup3\n      add\n      dup1\n      sload\n      swap2\n      swap3\n        /* \"database/ListEmployee.sol\":1541:1552  list[index] */\n      swap2\n        /* \"database/ListEmployee.sol\":1534:1552  return list[index] */\n      0x80\n      dup5\n      add\n      swap2\n      swap1\n      tag_289\n      swap1\n      tag_140\n      jump\t// in\n    tag_289:\n      dup1\n      0x1f\n      add\n      0x20\n      dup1\n      swap2\n      div\n      mul\n      0x20\n      add\n      mload(0x40)\n      swap1\n      dup2\n      add\n      0x40\n      mstore\n      dup1\n      swap3\n      swap2\n      swap1\n      dup2\n      dup2\n      mstore\n      0x20\n      add\n      dup3\n      dup1\n      sload\n      tag_290\n      swap1\n      tag_140\n      jump\t// in\n    tag_290:\n      dup1\n      iszero\n      tag_291\n      jumpi\n      dup1\n      0x1f\n      lt\n      tag_292\n      jumpi\n      0x0100\n      dup1\n      dup4\n      sload\n      div\n      mul\n      dup4\n      mstore\n      swap2\n      0x20\n      add\n      swap2\n      jump(tag_291)\n    tag_292:\n      dup3\n      add\n      swap2\n      swap1\n      0x00\n      mstore\n      keccak256(0x00, 0x20)\n      swap1\n    tag_293:\n      dup2\n      sload\n      dup2\n      mstore\n      swap1\n      0x01\n      add\n      swap1\n      0x20\n      add\n      dup1\n      dup4\n      gt\n      tag_293\n      jumpi\n      dup3\n      swap1\n      sub\n      0x1f\n      and\n      dup3\n      add\n      swap2\n    tag_291:\n      pop\n      pop\n      pop\n      pop\n      pop\n      dup2\n      mstore\n      0x20\n      add\n      0x05\n      dup3\n      add\n      dup1\n      sload\n      tag_294\n      swap1\n      tag_140\n      jump\t// in\n    tag_294:\n      dup1\n      0x1f\n      add\n      0x20\n      dup1\n      swap2\n      div\n      mul\n      0x20\n      add\n      mload(0x40)\n      swap1\n      dup2\n      add\n      0x40\n      mstore\n      dup1\n      swap3\n      swap2\n      swap1\n      dup2\n      dup2\n      mstore\n      0x20\n      add\n      dup3\n      dup1\n      sload\n      tag_295\n      swap1\n      tag_140\n      jump\t// in\n    tag_295:\n      dup1\n      iszero\n      tag_296\n      jumpi\n      dup1\n      0x1f\n      lt\n      tag_297\n      jumpi\n      0x0100\n      dup1\n      dup4\n      sload\n      div\n      mul\n      dup4\n      mstore\n      swap2\n      0x20\n      add\n      swap2\n      jump(tag_296)\n    tag_297:\n      dup3\n      add\n      swap2\n      swap1\n      0x00\n      mstore\n      keccak256(0x00, 0x20)\n      swap1\n    tag_298:\n      dup2\n      sload\n      dup2\n      mstore\n      swap1\n      0x01\n      add\n      swap1\n      0x20\n      add\n      dup1\n      dup4\n      gt\n      tag_298\n      jumpi\n      dup3\n      swap1\n      sub\n      0x1f\n      and\n      dup3\n      add\n      swap2\n    tag_296:\n      pop\n      pop\n      pop\n      pop\n      pop\n      dup2\n      mstore\n      0x20\n      add\n      0x06\n      dup3\n      add\n      dup1\n      sload\n      tag_299\n      swap1\n      tag_140\n      jump\t// in\n    tag_299:\n      dup1\n      0x1f\n      add\n      0x20\n      dup1\n      swap2\n      div\n      mul\n      0x20\n      add\n      mload(0x40)\n      swap1\n      dup2\n      add\n      0x40\n      mstore\n      dup1\n      swap3\n      swap2\n      swap1\n      dup2\n      dup2\n      mstore\n      0x20\n      add\n      dup3\n      dup1\n      sload\n      tag_300\n      swap1\n      tag_140\n      jump\t// in\n    tag_300:\n      dup1\n      iszero\n      tag_301\n      jumpi\n      dup1\n      0x1f\n      lt\n      tag_302\n      jumpi\n      0x0100\n      dup1\n      dup4\n      sload\n      div\n      mul\n      dup4\n      mstore\n      swap2\n      0x20\n      add\n      swap2\n      jump(tag_301)\n    tag_302:\n      dup3\n      add\n      swap2\n      swap1\n      0x00\n      mstore\n      keccak256(0x00, 0x20)\n      swap1\n    tag_303:\n      dup2\n      sload\n      dup2\n      mstore\n      swap1\n      0x01\n      add\n      swap1\n      0x20\n      add\n      dup1\n      dup4\n      gt\n      tag_303\n      jumpi\n      dup3\n      swap1\n      sub\n      0x1f\n      and\n      dup3\n      add\n      swap2\n    tag_301:\n      pop\n      pop\n      pop\n      pop\n      pop\n      dup2\n      mstore\n      0x20\n      add\n      0x07\n      dup3\n      add\n      dup1\n      sload\n      tag_304\n      swap1\n      tag_140\n      jump\t// in\n    tag_304:\n      dup1\n      0x1f\n      add\n      0x20\n      dup1\n      swap2\n      div\n      mul\n      0x20\n      add\n      mload(0x40)\n      swap1\n      dup2\n      add\n      0x40\n      mstore\n      dup1\n      swap3\n      swap2\n      swap1\n      dup2\n      dup2\n      mstore\n      0x20\n      add\n      dup3\n      dup1\n      sload\n      tag_305\n      swap1\n      tag_140\n      jump\t// in\n    tag_305:\n      dup1\n      iszero\n      tag_306\n      jumpi\n      dup1\n      0x1f\n      lt\n      tag_307\n      jumpi\n      0x0100\n      dup1\n      dup4\n      sload\n      div\n      mul\n      dup4\n      mstore\n      swap2\n      0x20\n      add\n      swap2\n      jump(tag_306)\n    tag_307:\n      dup3\n      add\n      swap2\n      swap1\n      0x00\n      mstore\n      keccak256(0x00, 0x20)\n      swap1\n    tag_308:\n      dup2\n      sload\n      dup2\n      mstore\n      swap1\n      0x01\n      add\n      swap1\n      0x20\n      add\n      dup1\n      dup4\n      gt\n      tag_308\n      jumpi\n      dup3\n      swap1\n      sub\n      0x1f\n      and\n      dup3\n      add\n      swap2\n    tag_306:\n      pop\n      pop\n      pop\n      pop\n      pop\n      dup2\n      mstore\n      0x20\n      add\n      0x08\n      dup3\n      add\n      dup1\n      sload\n      tag_309\n      swap1\n      tag_140\n      jump\t// in\n    tag_309:\n      dup1\n      0x1f\n      add\n      0x20\n      dup1\n      swap2\n      div\n      mul\n      0x20\n      add\n      mload(0x40)\n      swap1\n      dup2\n      add\n      0x40\n      mstore\n      dup1\n      swap3\n      swap2\n      swap1\n      dup2\n      dup2\n      mstore\n      0x20\n      add\n      dup3\n      dup1\n      sload\n      tag_310\n      swap1\n      tag_140\n      jump\t// in\n    tag_310:\n      dup1\n      iszero\n      tag_311\n      jumpi\n      dup1\n      0x1f\n      lt\n      tag_312\n      jumpi\n      0x0100\n      dup1\n      dup4\n      sload\n      div\n      mul\n      dup4\n      mstore\n      swap2\n      0x20\n      add\n      swap2\n      jump(tag_311)\n    tag_312:\n      dup3\n      add\n      swap2\n      swap1\n      0x00\n      mstore\n      keccak256(0x00, 0x20)\n      swap1\n    tag_313:\n      dup2\n      sload\n      dup2\n      mstore\n      swap1\n      0x01\n      add\n      swap1\n      0x20\n      add\n      dup1\n      dup4\n      gt\n      tag_313\n      jumpi\n      dup3\n      swap1\n      sub\n      0x1f\n      and\n      dup3\n      add\n      swap2\n    tag_311:\n      pop\n      pop\n      pop\n      pop\n      pop\n      dup2\n      mstore\n      0x20\n      add\n      0x09\n      dup3\n      add\n      dup1\n      sload\n      tag_314\n      swap1\n      tag_140\n      jump\t// in\n    tag_314:\n      dup1\n      0x1f\n      add\n      0x20\n      dup1\n      swap2\n      div\n      mul\n      0x20\n      add\n      mload(0x40)\n      swap1\n      dup2\n      add\n      0x40\n      mstore\n      dup1\n      swap3\n      swap2\n      swap1\n      dup2\n      dup2\n      mstore\n      0x20\n      add\n      dup3\n      dup1\n      sload\n      tag_315\n      swap1\n      tag_140\n      jump\t// in\n    tag_315:\n      dup1\n      iszero\n      tag_316\n      jumpi\n      dup1\n      0x1f\n      lt\n      tag_317\n      jumpi\n      0x0100\n      dup1\n      dup4\n      sload\n      div\n      mul\n      dup4\n      mstore\n      swap2\n      0x20\n      add\n      swap2\n      jump(tag_316)\n    tag_317:\n      dup3\n      add\n      swap2\n      swap1\n      0x00\n      mstore\n      keccak256(0x00, 0x20)\n      swap1\n    tag_318:\n      dup2\n      sload\n      dup2\n      mstore\n      swap1\n      0x01\n      add\n      swap1\n      0x20\n      add\n      dup1\n      dup4\n      gt\n      tag_318\n      jumpi\n      dup3\n      swap1\n      sub\n      0x1f\n      and\n      dup3\n      add\n      swap2\n    tag_316:\n      pop\n      pop\n      pop\n      pop\n      pop\n      dup2\n      mstore\n      0x20\n      add\n      0x0a\n      dup3\n      add\n      dup1\n      sload\n      tag_319\n      swap1\n      tag_140\n      jump\t// in\n    tag_319:\n      dup1\n      0x1f\n      add\n      0x20\n      dup1\n      swap2\n      div\n      mul\n      0x20\n      add\n      mload(0x40)\n      swap1\n      dup2\n      add\n      0x40\n      mstore\n      dup1\n      swap3\n      swap2\n      swap1\n      dup2\n      dup2\n      mstore\n      0x20\n      add\n      dup3\n      dup1\n      sload\n      tag_320\n      swap1\n      tag_140\n      jump\t// in\n    tag_320:\n      dup1\n      iszero\n      tag_321\n      jumpi\n      dup1\n      0x1f\n      lt\n      tag_322\n      jumpi\n      0x0100\n      dup1\n      dup4\n      sload\n      div\n      mul\n      dup4\n      mstore\n      swap2\n      0x20\n      add\n      swap2\n      jump(tag_321)\n    tag_322:\n      dup3\n      add\n      swap2\n      swap1\n      0x00\n      mstore\n      keccak256(0x00, 0x20)\n      swap1\n    tag_323:\n      dup2\n      sload\n      dup2\n      mstore\n      swap1\n      0x01\n      add\n      swap1\n      0x20\n      add\n      dup1\n      dup4\n      gt\n      tag_323\n      jumpi\n      dup3\n      swap1\n      sub\n      0x1f\n      and\n      dup3\n      add\n      swap2\n    tag_321:\n      pop\n      pop\n      pop\n      pop\n      pop\n      dup2\n      mstore\n      0x20\n      add\n      0x0b\n      dup3\n      add\n      dup1\n      sload\n      tag_324\n      swap1\n      tag_140\n      jump\t// in\n    tag_324:\n      dup1\n      0x1f\n      add\n      0x20\n      dup1\n      swap2\n      div\n      mul\n      0x20\n      add\n      mload(0x40)\n      swap1\n      dup2\n      add\n      0x40\n      mstore\n      dup1\n      swap3\n      swap2\n      swap1\n      dup2\n      dup2\n      mstore\n      0x20\n      add\n      dup3\n      dup1\n      sload\n      tag_325\n      swap1\n      tag_140\n      jump\t// in\n    tag_325:\n      dup1\n      iszero\n      tag_326\n      jumpi\n      dup1\n      0x1f\n      lt\n      tag_327\n      jumpi\n      0x0100\n      dup1\n      dup4\n      sload\n      div\n      mul\n      dup4\n      mstore\n      swap2\n      0x20\n      add\n      swap2\n      jump(tag_326)\n    tag_327:\n      dup3\n      add\n      swap2\n      swap1\n      0x00\n      mstore\n      keccak256(0x00, 0x20)\n      swap1\n    tag_328:\n      dup2\n      sload\n      dup2\n      mstore\n      swap1\n      0x01\n      add\n      swap1\n      0x20\n      add\n      dup1\n      dup4\n      gt\n      tag_328\n      jumpi\n      dup3\n      swap1\n      sub\n      0x1f\n      and\n      dup3\n      add\n      swap2\n    tag_326:\n      pop\n      pop\n      pop\n      pop\n      pop\n      dup2\n      mstore\n      pop\n      pop\n      swap3\n      pop\n        /* \"database/ListEmployee.sol\":625:626  _ */\n      pop\n        /* \"database/ListEmployee.sol\":1277:1559  function at(uint256 index, bytes32 secret)... */\n      pop\n      swap3\n      swap2\n      pop\n      pop\n      jump\t// out\n        /* \"database/ListEmployee.sol\":4897:5127  function setGithub(... */\n    tag_91:\n        /* \"database/ListEmployee.sol\":5057:5061  bool */\n      0x00\n        /* \"database/ListEmployee.sol\":5022:5028  secret */\n      dup3\n      0x00\n      dup1\n      mload\n      0x20\n      data_98ee57057fe0a523e70b51608fd55a37ff53d47c3b8dac495a5f45d45157392f\n      dup4\n      codecopy\n      dup2\n      mload\n      swap2\n      mstore\n        /* \"database/ListEmployee.sol\":529:550  value == DATABASE_KEY */\n      dup2\n      eq\n        /* \"database/ListEmployee.sol\":508:615  require(... */\n      tag_330\n      jumpi\n      mload(0x40)\n      shl(0xe5, 0x461bcd)\n      dup2\n      mstore\n      0x04\n      add\n      tag_121\n      swap1\n      tag_122\n      jump\t// in\n    tag_330:\n        /* \"database/ListEmployee.sol\":5041:5046  index */\n      dup5\n        /* \"database/ListEmployee.sol\":711:716  index */\n      dup1\n        /* \"database/ListEmployee.sol\":706:707  1 */\n      0x01\n        /* \"database/ListEmployee.sol\":706:716  1 <= index */\n      gt\n      iszero\n        /* \"database/ListEmployee.sol\":705:745  (1 <= index) && (index <= autoIncrement) */\n      dup1\n      iszero\n      tag_333\n      jumpi\n      pop\n        /* \"database/ListEmployee.sol\":731:744  autoIncrement */\n      sload(0x02)\n        /* \"database/ListEmployee.sol\":722:727  index */\n      dup2\n        /* \"database/ListEmployee.sol\":722:744  index <= autoIncrement */\n      gt\n      iszero\n        /* \"database/ListEmployee.sol\":705:745  (1 <= index) && (index <= autoIncrement) */\n    tag_333:\n        /* \"database/ListEmployee.sol\":684:807  require(... */\n      tag_334\n      jumpi\n      mload(0x40)\n      shl(0xe5, 0x461bcd)\n      dup2\n      mstore\n      0x04\n      add\n      tag_121\n      swap1\n      tag_127\n      jump\t// in\n    tag_334:\n        /* \"database/ListEmployee.sol\":5073:5084  list[index] */\n      0x00\n      dup7\n      dup2\n      mstore\n        /* \"database/ListEmployee.sol\":5073:5077  list */\n      0x01\n        /* \"database/ListEmployee.sol\":5073:5084  list[index] */\n      0x20\n      mstore\n      0x40\n      swap1\n      keccak256\n        /* \"database/ListEmployee.sol\":5073:5091  list[index].github */\n      0x08\n      add\n        /* \"database/ListEmployee.sol\":5073:5099  list[index].github = value */\n      tag_200\n        /* \"database/ListEmployee.sol\":5094:5099  value */\n      dup6\n        /* \"database/ListEmployee.sol\":5073:5091  list[index].github */\n      dup3\n        /* \"database/ListEmployee.sol\":5073:5099  list[index].github = value */\n      tag_201\n      jump\t// in\n        /* \"database/ListEmployee.sol\":1565:1860  function findIdByAddress(address value, bytes32 secret)... */\n    tag_95:\n        /* \"database/ListEmployee.sol\":1699:1706  uint256 */\n      0x00\n        /* \"database/ListEmployee.sol\":1674:1680  secret */\n      dup2\n      0x00\n      dup1\n      mload\n      0x20\n      data_98ee57057fe0a523e70b51608fd55a37ff53d47c3b8dac495a5f45d45157392f\n      dup4\n      codecopy\n      dup2\n      mload\n      swap2\n      mstore\n        /* \"database/ListEmployee.sol\":529:550  value == DATABASE_KEY */\n      dup2\n      eq\n        /* \"database/ListEmployee.sol\":508:615  require(... */\n      tag_339\n      jumpi\n      mload(0x40)\n      shl(0xe5, 0x461bcd)\n      dup2\n      mstore\n      0x04\n      add\n      tag_121\n      swap1\n      tag_122\n      jump\t// in\n    tag_339:\n        /* \"database/ListEmployee.sol\":1739:1740  1 */\n      0x01\n        /* \"database/ListEmployee.sol\":1722:1836  for (uint256 i = 1; i <= autoIncrement; i++) {... */\n    tag_342:\n        /* \"database/ListEmployee.sol\":1747:1760  autoIncrement */\n      sload(0x02)\n        /* \"database/ListEmployee.sol\":1742:1743  i */\n      dup2\n        /* \"database/ListEmployee.sol\":1742:1760  i <= autoIncrement */\n      gt\n        /* \"database/ListEmployee.sol\":1722:1836  for (uint256 i = 1; i <= autoIncrement; i++) {... */\n      tag_343\n      jumpi\n        /* \"database/ListEmployee.sol\":1785:1792  list[i] */\n      0x00\n      dup2\n      dup2\n      mstore\n        /* \"database/ListEmployee.sol\":1785:1789  list */\n      0x01\n        /* \"database/ListEmployee.sol\":1785:1792  list[i] */\n      0x20\n      mstore\n      0x40\n      swap1\n      keccak256\n        /* \"database/ListEmployee.sol\":1785:1797  list[i].user */\n      0x03\n      add\n      sload\n      sub(shl(0xa0, 0x01), 0x01)\n        /* \"database/ListEmployee.sol\":1785:1806  list[i].user == value */\n      dup1\n      dup8\n      and\n        /* \"database/ListEmployee.sol\":1785:1797  list[i].user */\n      swap2\n      and\n        /* \"database/ListEmployee.sol\":1785:1806  list[i].user == value */\n      sub\n        /* \"database/ListEmployee.sol\":1781:1825  if (list[i].user == value) return list[i].id */\n      tag_345\n      jumpi\n        /* \"database/ListEmployee.sol\":1815:1822  list[i] */\n      0x00\n      swap1\n      dup2\n      mstore\n        /* \"database/ListEmployee.sol\":1815:1819  list */\n      0x01\n        /* \"database/ListEmployee.sol\":1815:1822  list[i] */\n      0x20\n      dup2\n      swap1\n      mstore\n      0x40\n      swap1\n      swap2\n      keccak256\n        /* \"database/ListEmployee.sol\":1815:1825  list[i].id */\n      add\n      sload\n      swap2\n      pop\n        /* \"database/ListEmployee.sol\":1808:1825  return list[i].id */\n      jump(tag_134)\n        /* \"database/ListEmployee.sol\":1781:1825  if (list[i].user == value) return list[i].id */\n    tag_345:\n        /* \"database/ListEmployee.sol\":1762:1765  i++ */\n      dup1\n      tag_346\n      dup2\n      tag_181\n      jump\t// in\n    tag_346:\n      swap2\n      pop\n      pop\n        /* \"database/ListEmployee.sol\":1722:1836  for (uint256 i = 1; i <= autoIncrement; i++) {... */\n      jump(tag_342)\n    tag_343:\n      pop\n        /* \"database/ListEmployee.sol\":1852:1853  0 */\n      0x00\n      swap5\n        /* \"database/ListEmployee.sol\":1565:1860  function findIdByAddress(address value, bytes32 secret)... */\n      swap4\n      pop\n      pop\n      pop\n      pop\n      jump\t// out\n        /* \"database/ListEmployee.sol\":5133:5367  function setLinkedin(... */\n    tag_100:\n        /* \"database/ListEmployee.sol\":5295:5299  bool */\n      0x00\n        /* \"database/ListEmployee.sol\":5260:5266  secret */\n      dup3\n      0x00\n      dup1\n      mload\n      0x20\n      data_98ee57057fe0a523e70b51608fd55a37ff53d47c3b8dac495a5f45d45157392f\n      dup4\n      codecopy\n      dup2\n      mload\n      swap2\n      mstore\n        /* \"database/ListEmployee.sol\":529:550  value == DATABASE_KEY */\n      dup2\n      eq\n        /* \"database/ListEmployee.sol\":508:615  require(... */\n      tag_348\n      jumpi\n      mload(0x40)\n      shl(0xe5, 0x461bcd)\n      dup2\n      mstore\n      0x04\n      add\n      tag_121\n      swap1\n      tag_122\n      jump\t// in\n    tag_348:\n        /* \"database/ListEmployee.sol\":5279:5284  index */\n      dup5\n        /* \"database/ListEmployee.sol\":711:716  index */\n      dup1\n        /* \"database/ListEmployee.sol\":706:707  1 */\n      0x01\n        /* \"database/ListEmployee.sol\":706:716  1 <= index */\n      gt\n      iszero\n        /* \"database/ListEmployee.sol\":705:745  (1 <= index) && (index <= autoIncrement) */\n      dup1\n      iszero\n      tag_351\n      jumpi\n      pop\n        /* \"database/ListEmployee.sol\":731:744  autoIncrement */\n      sload(0x02)\n        /* \"database/ListEmployee.sol\":722:727  index */\n      dup2\n        /* \"database/ListEmployee.sol\":722:744  index <= autoIncrement */\n      gt\n      iszero\n        /* \"database/ListEmployee.sol\":705:745  (1 <= index) && (index <= autoIncrement) */\n    tag_351:\n        /* \"database/ListEmployee.sol\":684:807  require(... */\n      tag_352\n      jumpi\n      mload(0x40)\n      shl(0xe5, 0x461bcd)\n      dup2\n      mstore\n      0x04\n      add\n      tag_121\n      swap1\n      tag_127\n      jump\t// in\n    tag_352:\n        /* \"database/ListEmployee.sol\":5311:5322  list[index] */\n      0x00\n      dup7\n      dup2\n      mstore\n        /* \"database/ListEmployee.sol\":5311:5315  list */\n      0x01\n        /* \"database/ListEmployee.sol\":5311:5322  list[index] */\n      0x20\n      mstore\n      0x40\n      swap1\n      keccak256\n        /* \"database/ListEmployee.sol\":5311:5331  list[index].linkedin */\n      0x09\n      add\n        /* \"database/ListEmployee.sol\":5311:5339  list[index].linkedin = value */\n      tag_200\n        /* \"database/ListEmployee.sol\":5334:5339  value */\n      dup6\n        /* \"database/ListEmployee.sol\":5311:5331  list[index].linkedin */\n      dup3\n        /* \"database/ListEmployee.sol\":5311:5339  list[index].linkedin = value */\n      tag_201\n      jump\t// in\n        /* \"database/ListEmployee.sol\":4181:4409  function setPhone(... */\n    tag_104:\n        /* \"database/ListEmployee.sol\":4340:4344  bool */\n      0x00\n        /* \"database/ListEmployee.sol\":4305:4311  secret */\n      dup3\n      0x00\n      dup1\n      mload\n      0x20\n      data_98ee57057fe0a523e70b51608fd55a37ff53d47c3b8dac495a5f45d45157392f\n      dup4\n      codecopy\n      dup2\n      mload\n      swap2\n      mstore\n        /* \"database/ListEmployee.sol\":529:550  value == DATABASE_KEY */\n      dup2\n      eq\n        /* \"database/ListEmployee.sol\":508:615  require(... */\n      tag_357\n      jumpi\n      mload(0x40)\n      shl(0xe5, 0x461bcd)\n      dup2\n      mstore\n      0x04\n      add\n      tag_121\n      swap1\n      tag_122\n      jump\t// in\n    tag_357:\n        /* \"database/ListEmployee.sol\":4324:4329  index */\n      dup5\n        /* \"database/ListEmployee.sol\":711:716  index */\n      dup1\n        /* \"database/ListEmployee.sol\":706:707  1 */\n      0x01\n        /* \"database/ListEmployee.sol\":706:716  1 <= index */\n      gt\n      iszero\n        /* \"database/ListEmployee.sol\":705:745  (1 <= index) && (index <= autoIncrement) */\n      dup1\n      iszero\n      tag_360\n      jumpi\n      pop\n        /* \"database/ListEmployee.sol\":731:744  autoIncrement */\n      sload(0x02)\n        /* \"database/ListEmployee.sol\":722:727  index */\n      dup2\n        /* \"database/ListEmployee.sol\":722:744  index <= autoIncrement */\n      gt\n      iszero\n        /* \"database/ListEmployee.sol\":705:745  (1 <= index) && (index <= autoIncrement) */\n    tag_360:\n        /* \"database/ListEmployee.sol\":684:807  require(... */\n      tag_361\n      jumpi\n      mload(0x40)\n      shl(0xe5, 0x461bcd)\n      dup2\n      mstore\n      0x04\n      add\n      tag_121\n      swap1\n      tag_127\n      jump\t// in\n    tag_361:\n        /* \"database/ListEmployee.sol\":4356:4367  list[index] */\n      0x00\n      dup7\n      dup2\n      mstore\n        /* \"database/ListEmployee.sol\":4356:4360  list */\n      0x01\n        /* \"database/ListEmployee.sol\":4356:4367  list[index] */\n      0x20\n      mstore\n      0x40\n      swap1\n      keccak256\n        /* \"database/ListEmployee.sol\":4356:4373  list[index].phone */\n      0x05\n      add\n        /* \"database/ListEmployee.sol\":4356:4381  list[index].phone = value */\n      tag_200\n        /* \"database/ListEmployee.sol\":4376:4381  value */\n      dup6\n        /* \"database/ListEmployee.sol\":4356:4373  list[index].phone */\n      dup3\n        /* \"database/ListEmployee.sol\":4356:4381  list[index].phone = value */\n      tag_201\n      jump\t// in\n        /* \"database/ListEmployee.sol\":4415:4657  function setProfessional(... */\n    tag_108:\n        /* \"database/ListEmployee.sol\":4581:4585  bool */\n      0x00\n        /* \"database/ListEmployee.sol\":4546:4552  secret */\n      dup3\n      0x00\n      dup1\n      mload\n      0x20\n      data_98ee57057fe0a523e70b51608fd55a37ff53d47c3b8dac495a5f45d45157392f\n      dup4\n      codecopy\n      dup2\n      mload\n      swap2\n      mstore\n        /* \"database/ListEmployee.sol\":529:550  value == DATABASE_KEY */\n      dup2\n      eq\n        /* \"database/ListEmployee.sol\":508:615  require(... */\n      tag_366\n      jumpi\n      mload(0x40)\n      shl(0xe5, 0x461bcd)\n      dup2\n      mstore\n      0x04\n      add\n      tag_121\n      swap1\n      tag_122\n      jump\t// in\n    tag_366:\n        /* \"database/ListEmployee.sol\":4565:4570  index */\n      dup5\n        /* \"database/ListEmployee.sol\":711:716  index */\n      dup1\n        /* \"database/ListEmployee.sol\":706:707  1 */\n      0x01\n        /* \"database/ListEmployee.sol\":706:716  1 <= index */\n      gt\n      iszero\n        /* \"database/ListEmployee.sol\":705:745  (1 <= index) && (index <= autoIncrement) */\n      dup1\n      iszero\n      tag_369\n      jumpi\n      pop\n        /* \"database/ListEmployee.sol\":731:744  autoIncrement */\n      sload(0x02)\n        /* \"database/ListEmployee.sol\":722:727  index */\n      dup2\n        /* \"database/ListEmployee.sol\":722:744  index <= autoIncrement */\n      gt\n      iszero\n        /* \"database/ListEmployee.sol\":705:745  (1 <= index) && (index <= autoIncrement) */\n    tag_369:\n        /* \"database/ListEmployee.sol\":684:807  require(... */\n      tag_370\n      jumpi\n      mload(0x40)\n      shl(0xe5, 0x461bcd)\n      dup2\n      mstore\n      0x04\n      add\n      tag_121\n      swap1\n      tag_127\n      jump\t// in\n    tag_370:\n        /* \"database/ListEmployee.sol\":4597:4608  list[index] */\n      0x00\n      dup7\n      dup2\n      mstore\n        /* \"database/ListEmployee.sol\":4597:4601  list */\n      0x01\n        /* \"database/ListEmployee.sol\":4597:4608  list[index] */\n      0x20\n      mstore\n      0x40\n      swap1\n      keccak256\n        /* \"database/ListEmployee.sol\":4597:4621  list[index].professional */\n      0x06\n      add\n        /* \"database/ListEmployee.sol\":4597:4629  list[index].professional = value */\n      tag_200\n        /* \"database/ListEmployee.sol\":4624:4629  value */\n      dup6\n        /* \"database/ListEmployee.sol\":4597:4621  list[index].professional */\n      dup3\n        /* \"database/ListEmployee.sol\":4597:4629  list[index].professional = value */\n      tag_201\n      jump\t// in\n        /* \"abstract/Ownable.sol\":2063:2295  function transferOwnership(address newOwner) public virtual onlyOwner {... */\n    tag_113:\n        /* \"abstract/Ownable.sol\":1068:1081  _checkOwner() */\n      tag_375\n        /* \"abstract/Ownable.sol\":1068:1079  _checkOwner */\n      tag_253\n        /* \"abstract/Ownable.sol\":1068:1081  _checkOwner() */\n      jump\t// in\n    tag_375:\n      sub(shl(0xa0, 0x01), 0x01)\n        /* \"abstract/Ownable.sol\":2164:2186  newOwner != address(0) */\n      dup2\n      and\n        /* \"abstract/Ownable.sol\":2143:2250  require(... */\n      tag_377\n      jumpi\n      mload(0x40)\n      shl(0xe5, 0x461bcd)\n      dup2\n      mstore\n        /* \"#utility.yul\":12968:12970   */\n      0x20\n        /* \"abstract/Ownable.sol\":2143:2250  require(... */\n      0x04\n      dup3\n      add\n        /* \"#utility.yul\":12950:12971   */\n      mstore\n        /* \"#utility.yul\":13007:13009   */\n      0x26\n        /* \"#utility.yul\":12987:13005   */\n      0x24\n      dup3\n      add\n        /* \"#utility.yul\":12980:13010   */\n      mstore\n        /* \"#utility.yul\":13046:13080   */\n      0x4f776e61626c653a206e6577206f776e657220697320746865207a65726f2061\n        /* \"#utility.yul\":13026:13044   */\n      0x44\n      dup3\n      add\n        /* \"#utility.yul\":13019:13081   */\n      mstore\n      shl(0xd0, 0x646472657373)\n        /* \"#utility.yul\":13097:13115   */\n      0x64\n      dup3\n      add\n        /* \"#utility.yul\":13090:13126   */\n      mstore\n        /* \"#utility.yul\":13143:13162   */\n      0x84\n      add\n        /* \"abstract/Ownable.sol\":2143:2250  require(... */\n      tag_121\n        /* \"#utility.yul\":12766:13168   */\n      jump\n        /* \"abstract/Ownable.sol\":2143:2250  require(... */\n    tag_377:\n        /* \"abstract/Ownable.sol\":2260:2288  _transferOwnership(newOwner) */\n      tag_380\n        /* \"abstract/Ownable.sol\":2279:2287  newOwner */\n      dup2\n        /* \"abstract/Ownable.sol\":2260:2278  _transferOwnership */\n      tag_381\n        /* \"abstract/Ownable.sol\":2260:2288  _transferOwnership(newOwner) */\n      jump\t// in\n    tag_380:\n        /* \"abstract/Ownable.sol\":2063:2295  function transferOwnership(address newOwner) public virtual onlyOwner {... */\n      pop\n      jump\t// out\n        /* \"database/ListEmployee.sol\":831:994  function getLength(bytes32 secret)... */\n    tag_117:\n        /* \"database/ListEmployee.sol\":944:951  uint256 */\n      0x00\n        /* \"database/ListEmployee.sol\":919:925  secret */\n      dup2\n      0x00\n      dup1\n      mload\n      0x20\n      data_98ee57057fe0a523e70b51608fd55a37ff53d47c3b8dac495a5f45d45157392f\n      dup4\n      codecopy\n      dup2\n      mload\n      swap2\n      mstore\n        /* \"database/ListEmployee.sol\":529:550  value == DATABASE_KEY */\n      dup2\n      eq\n        /* \"database/ListEmployee.sol\":508:615  require(... */\n      tag_383\n      jumpi\n      mload(0x40)\n      shl(0xe5, 0x461bcd)\n      dup2\n      mstore\n      0x04\n      add\n      tag_121\n      swap1\n      tag_122\n      jump\t// in\n    tag_383:\n        /* \"database/ListEmployee.sol\":974:987  autoIncrement */\n      sload(0x02)\n        /* \"database/ListEmployee.sol\":967:987  return autoIncrement */\n      swap2\n      pop\n        /* \"database/ListEmployee.sol\":625:626  _ */\n    tag_385:\n        /* \"database/ListEmployee.sol\":831:994  function getLength(bytes32 secret)... */\n      pop\n      swap2\n      swap1\n      pop\n      jump\t// out\n        /* \"abstract/Ownable.sol\":1333:1461  function _checkOwner() internal view virtual {... */\n    tag_253:\n        /* \"abstract/Ownable.sol\":1407:1417  msg.sender */\n      caller\n        /* \"abstract/Ownable.sol\":1396:1403  owner() */\n      tag_387\n        /* \"abstract/Ownable.sol\":1221:1228  address */\n      0x00\n        /* \"abstract/Ownable.sol\":1247:1253  _owner */\n      sload\n      sub(shl(0xa0, 0x01), 0x01)\n      and\n      swap1\n        /* \"abstract/Ownable.sol\":1175:1260  function owner() public view virtual returns (address) {... */\n      jump\n        /* \"abstract/Ownable.sol\":1396:1403  owner() */\n    tag_387:\n      sub(shl(0xa0, 0x01), 0x01)\n        /* \"abstract/Ownable.sol\":1396:1417  owner() == msg.sender */\n      and\n      eq\n        /* \"abstract/Ownable.sol\":1388:1454  require(owner() == msg.sender, \"Ownable: caller is not the owner\") */\n      tag_388\n      jumpi\n      mload(0x40)\n      shl(0xe5, 0x461bcd)\n      dup2\n      mstore\n        /* \"#utility.yul\":13375:13377   */\n      0x20\n        /* \"abstract/Ownable.sol\":1388:1454  require(owner() == msg.sender, \"Ownable: caller is not the owner\") */\n      0x04\n      dup3\n      add\n        /* \"#utility.yul\":13357:13378   */\n      dup2\n      swap1\n      mstore\n        /* \"#utility.yul\":13394:13412   */\n      0x24\n      dup3\n      add\n        /* \"#utility.yul\":13387:13417   */\n      mstore\n        /* \"#utility.yul\":13453:13487   */\n      0x4f776e61626c653a2063616c6c6572206973206e6f7420746865206f776e6572\n        /* \"#utility.yul\":13433:13451   */\n      0x44\n      dup3\n      add\n        /* \"#utility.yul\":13426:13488   */\n      mstore\n        /* \"#utility.yul\":13505:13523   */\n      0x64\n      add\n        /* \"abstract/Ownable.sol\":1388:1454  require(owner() == msg.sender, \"Ownable: caller is not the owner\") */\n      tag_121\n        /* \"#utility.yul\":13173:13529   */\n      jump\n        /* \"abstract/Ownable.sol\":1388:1454  require(owner() == msg.sender, \"Ownable: caller is not the owner\") */\n    tag_388:\n        /* \"abstract/Ownable.sol\":1333:1461  function _checkOwner() internal view virtual {... */\n      jump\t// out\n        /* \"abstract/Ownable.sol\":2449:2636  function _transferOwnership(address newOwner) internal virtual {... */\n    tag_381:\n        /* \"abstract/Ownable.sol\":2522:2538  address oldOwner */\n      0x00\n        /* \"abstract/Ownable.sol\":2541:2547  _owner */\n      dup1\n      sload\n      sub(shl(0xa0, 0x01), 0x01)\n        /* \"abstract/Ownable.sol\":2557:2574  _owner = newOwner */\n      dup4\n      dup2\n      and\n      not(sub(shl(0xa0, 0x01), 0x01))\n      dup4\n      and\n      dup2\n      or\n      dup5\n      sstore\n        /* \"abstract/Ownable.sol\":2589:2629  OwnershipTransferred(oldOwner, newOwner) */\n      mload(0x40)\n        /* \"abstract/Ownable.sol\":2541:2547  _owner */\n      swap2\n      swap1\n      swap3\n      and\n      swap3\n      dup4\n      swap2\n        /* \"abstract/Ownable.sol\":2589:2629  OwnershipTransferred(oldOwner, newOwner) */\n      0x8be0079c531659141344cd1fd0a4f28419497f9722a3daafe3b4186f6b6457e0\n      swap2\n        /* \"abstract/Ownable.sol\":2522:2538  address oldOwner */\n      swap1\n        /* \"abstract/Ownable.sol\":2589:2629  OwnershipTransferred(oldOwner, newOwner) */\n      log3\n        /* \"abstract/Ownable.sol\":2512:2636  {... */\n      pop\n        /* \"abstract/Ownable.sol\":2449:2636  function _transferOwnership(address newOwner) internal virtual {... */\n      pop\n      jump\t// out\n    tag_130:\n      mload(0x40)\n      dup1\n      0x0180\n      add\n      0x40\n      mstore\n      dup1\n      0x00\n      dup2\n      mstore\n      0x20\n      add\n      0x00\n      dup2\n      mstore\n      0x20\n      add\n      0x00\n      dup2\n      mstore\n      0x20\n      add\n      and(sub(shl(0xa0, 0x01), 0x01), 0x00)\n      dup2\n      mstore\n      0x20\n      add\n      0x60\n      dup2\n      mstore\n      0x20\n      add\n      0x60\n      dup2\n      mstore\n      0x20\n      add\n      0x60\n      dup2\n      mstore\n      0x20\n      add\n      0x60\n      dup2\n      mstore\n      0x20\n      add\n      0x60\n      dup2\n      mstore\n      0x20\n      add\n      0x60\n      dup2\n      mstore\n      0x20\n      add\n      0x60\n      dup2\n      mstore\n      0x20\n      add\n      0x60\n      dup2\n      mstore\n      pop\n      swap1\n      jump\t// out\n        /* \"#utility.yul\":14:330   */\n    tag_29:\n        /* \"#utility.yul\":91:97   */\n      0x00\n        /* \"#utility.yul\":99:105   */\n      dup1\n        /* \"#utility.yul\":107:113   */\n      0x00\n        /* \"#utility.yul\":160:162   */\n      0x60\n        /* \"#utility.yul\":148:157   */\n      dup5\n        /* \"#utility.yul\":139:146   */\n      dup7\n        /* \"#utility.yul\":135:158   */\n      sub\n        /* \"#utility.yul\":131:163   */\n      slt\n        /* \"#utility.yul\":128:180   */\n      iszero\n      tag_403\n      jumpi\n        /* \"#utility.yul\":176:177   */\n      0x00\n        /* \"#utility.yul\":173:174   */\n      dup1\n        /* \"#utility.yul\":166:178   */\n      revert\n        /* \"#utility.yul\":128:180   */\n    tag_403:\n      pop\n      pop\n        /* \"#utility.yul\":199:222   */\n      dup2\n      calldataload\n      swap4\n        /* \"#utility.yul\":269:271   */\n      0x20\n        /* \"#utility.yul\":254:272   */\n      dup4\n      add\n        /* \"#utility.yul\":241:273   */\n      calldataload\n      swap4\n      pop\n        /* \"#utility.yul\":320:322   */\n      0x40\n        /* \"#utility.yul\":305:323   */\n      swap1\n      swap3\n      add\n        /* \"#utility.yul\":292:324   */\n      calldataload\n      swap2\n        /* \"#utility.yul\":14:330   */\n      swap1\n      pop\n      jump\t// out\n        /* \"#utility.yul\":527:700   */\n    tag_392:\n        /* \"#utility.yul\":595:615   */\n      dup1\n      calldataload\n      sub(shl(0xa0, 0x01), 0x01)\n        /* \"#utility.yul\":644:675   */\n      dup2\n      and\n        /* \"#utility.yul\":634:676   */\n      dup2\n      eq\n        /* \"#utility.yul\":624:694   */\n      tag_406\n      jumpi\n        /* \"#utility.yul\":690:691   */\n      0x00\n        /* \"#utility.yul\":687:688   */\n      dup1\n        /* \"#utility.yul\":680:692   */\n      revert\n        /* \"#utility.yul\":624:694   */\n    tag_406:\n        /* \"#utility.yul\":527:700   */\n      swap2\n      swap1\n      pop\n      jump\t// out\n        /* \"#utility.yul\":705:959   */\n    tag_35:\n        /* \"#utility.yul\":773:779   */\n      0x00\n        /* \"#utility.yul\":781:787   */\n      dup1\n        /* \"#utility.yul\":834:836   */\n      0x40\n        /* \"#utility.yul\":822:831   */\n      dup4\n        /* \"#utility.yul\":813:820   */\n      dup6\n        /* \"#utility.yul\":809:832   */\n      sub\n        /* \"#utility.yul\":805:837   */\n      slt\n        /* \"#utility.yul\":802:854   */\n      iszero\n      tag_408\n      jumpi\n        /* \"#utility.yul\":850:851   */\n      0x00\n        /* \"#utility.yul\":847:848   */\n      dup1\n        /* \"#utility.yul\":840:852   */\n      revert\n        /* \"#utility.yul\":802:854   */\n    tag_408:\n        /* \"#utility.yul\":873:902   */\n      tag_409\n        /* \"#utility.yul\":892:901   */\n      dup4\n        /* \"#utility.yul\":873:902   */\n      tag_392\n      jump\t// in\n    tag_409:\n        /* \"#utility.yul\":863:902   */\n      swap5\n        /* \"#utility.yul\":949:951   */\n      0x20\n        /* \"#utility.yul\":934:952   */\n      swap4\n      swap1\n      swap4\n      add\n        /* \"#utility.yul\":921:953   */\n      calldataload\n      swap4\n      pop\n      pop\n      pop\n        /* \"#utility.yul\":705:959   */\n      jump\t// out\n        /* \"#utility.yul\":1073:1496   */\n    tag_394:\n        /* \"#utility.yul\":1115:1118   */\n      0x00\n        /* \"#utility.yul\":1153:1158   */\n      dup2\n        /* \"#utility.yul\":1147:1159   */\n      mload\n        /* \"#utility.yul\":1180:1186   */\n      dup1\n        /* \"#utility.yul\":1175:1178   */\n      dup5\n        /* \"#utility.yul\":1168:1187   */\n      mstore\n        /* \"#utility.yul\":1205:1206   */\n      0x00\n        /* \"#utility.yul\":1215:1377   */\n    tag_412:\n        /* \"#utility.yul\":1229:1235   */\n      dup2\n        /* \"#utility.yul\":1226:1227   */\n      dup2\n        /* \"#utility.yul\":1223:1236   */\n      lt\n        /* \"#utility.yul\":1215:1377   */\n      iszero\n      tag_414\n      jumpi\n        /* \"#utility.yul\":1291:1295   */\n      0x20\n        /* \"#utility.yul\":1347:1360   */\n      dup2\n      dup6\n      add\n        /* \"#utility.yul\":1343:1365   */\n      dup2\n      add\n        /* \"#utility.yul\":1337:1366   */\n      mload\n        /* \"#utility.yul\":1319:1330   */\n      dup7\n      dup4\n      add\n        /* \"#utility.yul\":1315:1335   */\n      dup3\n      add\n        /* \"#utility.yul\":1308:1367   */\n      mstore\n        /* \"#utility.yul\":1244:1256   */\n      add\n        /* \"#utility.yul\":1215:1377   */\n      jump(tag_412)\n    tag_414:\n        /* \"#utility.yul\":1219:1222   */\n      pop\n        /* \"#utility.yul\":1422:1423   */\n      0x00\n        /* \"#utility.yul\":1415:1419   */\n      0x20\n        /* \"#utility.yul\":1406:1412   */\n      dup3\n        /* \"#utility.yul\":1401:1404   */\n      dup7\n        /* \"#utility.yul\":1397:1413   */\n      add\n        /* \"#utility.yul\":1393:1420   */\n      add\n        /* \"#utility.yul\":1386:1424   */\n      mstore\n        /* \"#utility.yul\":1485:1489   */\n      0x20\n        /* \"#utility.yul\":1478:1480   */\n      0x1f\n        /* \"#utility.yul\":1474:1481   */\n      not\n        /* \"#utility.yul\":1469:1471   */\n      0x1f\n        /* \"#utility.yul\":1461:1467   */\n      dup4\n        /* \"#utility.yul\":1457:1472   */\n      add\n        /* \"#utility.yul\":1453:1482   */\n      and\n        /* \"#utility.yul\":1448:1451   */\n      dup6\n        /* \"#utility.yul\":1444:1483   */\n      add\n        /* \"#utility.yul\":1440:1490   */\n      add\n        /* \"#utility.yul\":1433:1490   */\n      swap2\n      pop\n      pop\n        /* \"#utility.yul\":1073:1496   */\n      swap3\n      swap2\n      pop\n      pop\n      jump\t// out\n        /* \"#utility.yul\":1501:3572   */\n    tag_38:\n        /* \"#utility.yul\":1678:1680   */\n      0x20\n        /* \"#utility.yul\":1667:1676   */\n      dup2\n        /* \"#utility.yul\":1660:1681   */\n      mstore\n        /* \"#utility.yul\":1723:1729   */\n      dup2\n        /* \"#utility.yul\":1717:1730   */\n      mload\n        /* \"#utility.yul\":1712:1714   */\n      0x20\n        /* \"#utility.yul\":1701:1710   */\n      dup3\n        /* \"#utility.yul\":1697:1715   */\n      add\n        /* \"#utility.yul\":1690:1731   */\n      mstore\n        /* \"#utility.yul\":1785:1787   */\n      0x20\n        /* \"#utility.yul\":1777:1783   */\n      dup3\n        /* \"#utility.yul\":1773:1788   */\n      add\n        /* \"#utility.yul\":1767:1789   */\n      mload\n        /* \"#utility.yul\":1762:1764   */\n      0x40\n        /* \"#utility.yul\":1751:1760   */\n      dup3\n        /* \"#utility.yul\":1747:1765   */\n      add\n        /* \"#utility.yul\":1740:1790   */\n      mstore\n        /* \"#utility.yul\":1844:1846   */\n      0x40\n        /* \"#utility.yul\":1836:1842   */\n      dup3\n        /* \"#utility.yul\":1832:1847   */\n      add\n        /* \"#utility.yul\":1826:1848   */\n      mload\n        /* \"#utility.yul\":1821:1823   */\n      0x60\n        /* \"#utility.yul\":1810:1819   */\n      dup3\n        /* \"#utility.yul\":1806:1824   */\n      add\n        /* \"#utility.yul\":1799:1849   */\n      mstore\n        /* \"#utility.yul\":1641:1645   */\n      0x00\n        /* \"#utility.yul\":1896:1898   */\n      0x60\n        /* \"#utility.yul\":1888:1894   */\n      dup4\n        /* \"#utility.yul\":1884:1899   */\n      add\n        /* \"#utility.yul\":1878:1900   */\n      mload\n        /* \"#utility.yul\":1909:1962   */\n      tag_416\n        /* \"#utility.yul\":1957:1960   */\n      0x80\n        /* \"#utility.yul\":1946:1955   */\n      dup5\n        /* \"#utility.yul\":1942:1961   */\n      add\n        /* \"#utility.yul\":1928:1940   */\n      dup3\n      sub(shl(0xa0, 0x01), 0x01)\n        /* \"#utility.yul\":1030:1061   */\n      and\n        /* \"#utility.yul\":1018:1062   */\n      swap1\n      mstore\n        /* \"#utility.yul\":964:1068   */\n      jump\n        /* \"#utility.yul\":1909:1962   */\n    tag_416:\n      pop\n        /* \"#utility.yul\":2011:2014   */\n      0x80\n        /* \"#utility.yul\":2003:2009   */\n      dup4\n        /* \"#utility.yul\":1999:2015   */\n      add\n        /* \"#utility.yul\":1993:2016   */\n      mload\n        /* \"#utility.yul\":2035:2041   */\n      0x0180\n        /* \"#utility.yul\":2078:2080   */\n      dup1\n        /* \"#utility.yul\":2072:2075   */\n      0xa0\n        /* \"#utility.yul\":2061:2070   */\n      dup6\n        /* \"#utility.yul\":2057:2076   */\n      add\n        /* \"#utility.yul\":2050:2081   */\n      mstore\n        /* \"#utility.yul\":2104:2158   */\n      tag_417\n        /* \"#utility.yul\":2153:2156   */\n      0x01a0\n        /* \"#utility.yul\":2142:2151   */\n      dup6\n        /* \"#utility.yul\":2138:2157   */\n      add\n        /* \"#utility.yul\":2122:2136   */\n      dup4\n        /* \"#utility.yul\":2104:2158   */\n      tag_394\n      jump\t// in\n    tag_417:\n        /* \"#utility.yul\":2090:2158   */\n      swap2\n      pop\n        /* \"#utility.yul\":2207:2210   */\n      0xa0\n        /* \"#utility.yul\":2199:2205   */\n      dup6\n        /* \"#utility.yul\":2195:2211   */\n      add\n        /* \"#utility.yul\":2189:2212   */\n      mload\n        /* \"#utility.yul\":2235:2237   */\n      0x1f\n        /* \"#utility.yul\":2231:2238   */\n      not\n        /* \"#utility.yul\":2303:2305   */\n      dup1\n        /* \"#utility.yul\":2291:2300   */\n      dup7\n        /* \"#utility.yul\":2283:2289   */\n      dup6\n        /* \"#utility.yul\":2279:2301   */\n      sub\n        /* \"#utility.yul\":2275:2306   */\n      add\n        /* \"#utility.yul\":2269:2272   */\n      0xc0\n        /* \"#utility.yul\":2258:2267   */\n      dup8\n        /* \"#utility.yul\":2254:2273   */\n      add\n        /* \"#utility.yul\":2247:2307   */\n      mstore\n        /* \"#utility.yul\":2330:2371   */\n      tag_418\n        /* \"#utility.yul\":2364:2370   */\n      dup5\n        /* \"#utility.yul\":2348:2362   */\n      dup4\n        /* \"#utility.yul\":2330:2371   */\n      tag_394\n      jump\t// in\n    tag_418:\n        /* \"#utility.yul\":2316:2371   */\n      swap4\n      pop\n        /* \"#utility.yul\":2420:2423   */\n      0xc0\n        /* \"#utility.yul\":2412:2418   */\n      dup8\n        /* \"#utility.yul\":2408:2424   */\n      add\n        /* \"#utility.yul\":2402:2425   */\n      mload\n        /* \"#utility.yul\":2380:2425   */\n      swap2\n      pop\n        /* \"#utility.yul\":2490:2492   */\n      dup1\n        /* \"#utility.yul\":2478:2487   */\n      dup7\n        /* \"#utility.yul\":2470:2476   */\n      dup6\n        /* \"#utility.yul\":2466:2488   */\n      sub\n        /* \"#utility.yul\":2462:2493   */\n      add\n        /* \"#utility.yul\":2456:2459   */\n      0xe0\n        /* \"#utility.yul\":2445:2454   */\n      dup8\n        /* \"#utility.yul\":2441:2460   */\n      add\n        /* \"#utility.yul\":2434:2494   */\n      mstore\n        /* \"#utility.yul\":2517:2558   */\n      tag_419\n        /* \"#utility.yul\":2551:2557   */\n      dup5\n        /* \"#utility.yul\":2535:2549   */\n      dup4\n        /* \"#utility.yul\":2517:2558   */\n      tag_394\n      jump\t// in\n    tag_419:\n        /* \"#utility.yul\":2503:2558   */\n      swap4\n      pop\n        /* \"#utility.yul\":2607:2610   */\n      0xe0\n        /* \"#utility.yul\":2599:2605   */\n      dup8\n        /* \"#utility.yul\":2595:2611   */\n      add\n        /* \"#utility.yul\":2589:2612   */\n      mload\n        /* \"#utility.yul\":2567:2612   */\n      swap2\n      pop\n        /* \"#utility.yul\":2631:2634   */\n      0x0100\n        /* \"#utility.yul\":2698:2700   */\n      dup2\n        /* \"#utility.yul\":2686:2695   */\n      dup8\n        /* \"#utility.yul\":2678:2684   */\n      dup7\n        /* \"#utility.yul\":2674:2696   */\n      sub\n        /* \"#utility.yul\":2670:2701   */\n      add\n        /* \"#utility.yul\":2665:2667   */\n      dup2\n        /* \"#utility.yul\":2654:2663   */\n      dup9\n        /* \"#utility.yul\":2650:2668   */\n      add\n        /* \"#utility.yul\":2643:2702   */\n      mstore\n        /* \"#utility.yul\":2725:2766   */\n      tag_420\n        /* \"#utility.yul\":2759:2765   */\n      dup6\n        /* \"#utility.yul\":2743:2757   */\n      dup5\n        /* \"#utility.yul\":2725:2766   */\n      tag_394\n      jump\t// in\n    tag_420:\n        /* \"#utility.yul\":2711:2766   */\n      swap5\n      pop\n        /* \"#utility.yul\":2815:2817   */\n      dup1\n        /* \"#utility.yul\":2807:2813   */\n      dup9\n        /* \"#utility.yul\":2803:2818   */\n      add\n        /* \"#utility.yul\":2797:2819   */\n      mload\n        /* \"#utility.yul\":2775:2819   */\n      swap3\n      pop\n      pop\n        /* \"#utility.yul\":2838:2841   */\n      0x0120\n        /* \"#utility.yul\":2905:2907   */\n      dup2\n        /* \"#utility.yul\":2893:2902   */\n      dup8\n        /* \"#utility.yul\":2885:2891   */\n      dup7\n        /* \"#utility.yul\":2881:2903   */\n      sub\n        /* \"#utility.yul\":2877:2908   */\n      add\n        /* \"#utility.yul\":2872:2874   */\n      dup2\n        /* \"#utility.yul\":2861:2870   */\n      dup9\n        /* \"#utility.yul\":2857:2875   */\n      add\n        /* \"#utility.yul\":2850:2909   */\n      mstore\n        /* \"#utility.yul\":2932:2973   */\n      tag_421\n        /* \"#utility.yul\":2966:2972   */\n      dup6\n        /* \"#utility.yul\":2950:2964   */\n      dup5\n        /* \"#utility.yul\":2932:2973   */\n      tag_394\n      jump\t// in\n    tag_421:\n        /* \"#utility.yul\":2918:2973   */\n      swap5\n      pop\n        /* \"#utility.yul\":3022:3024   */\n      dup1\n        /* \"#utility.yul\":3014:3020   */\n      dup9\n        /* \"#utility.yul\":3010:3025   */\n      add\n        /* \"#utility.yul\":3004:3026   */\n      mload\n        /* \"#utility.yul\":2982:3026   */\n      swap3\n      pop\n      pop\n        /* \"#utility.yul\":3045:3048   */\n      0x0140\n        /* \"#utility.yul\":3112:3114   */\n      dup2\n        /* \"#utility.yul\":3100:3109   */\n      dup8\n        /* \"#utility.yul\":3092:3098   */\n      dup7\n        /* \"#utility.yul\":3088:3110   */\n      sub\n        /* \"#utility.yul\":3084:3115   */\n      add\n        /* \"#utility.yul\":3079:3081   */\n      dup2\n        /* \"#utility.yul\":3068:3077   */\n      dup9\n        /* \"#utility.yul\":3064:3082   */\n      add\n        /* \"#utility.yul\":3057:3116   */\n      mstore\n        /* \"#utility.yul\":3139:3180   */\n      tag_422\n        /* \"#utility.yul\":3173:3179   */\n      dup6\n        /* \"#utility.yul\":3157:3171   */\n      dup5\n        /* \"#utility.yul\":3139:3180   */\n      tag_394\n      jump\t// in\n    tag_422:\n        /* \"#utility.yul\":3125:3180   */\n      swap5\n      pop\n        /* \"#utility.yul\":3229:3231   */\n      dup1\n        /* \"#utility.yul\":3221:3227   */\n      dup9\n        /* \"#utility.yul\":3217:3232   */\n      add\n        /* \"#utility.yul\":3211:3233   */\n      mload\n        /* \"#utility.yul\":3189:3233   */\n      swap3\n      pop\n      pop\n        /* \"#utility.yul\":3252:3255   */\n      0x0160\n        /* \"#utility.yul\":3319:3321   */\n      dup2\n        /* \"#utility.yul\":3307:3316   */\n      dup8\n        /* \"#utility.yul\":3299:3305   */\n      dup7\n        /* \"#utility.yul\":3295:3317   */\n      sub\n        /* \"#utility.yul\":3291:3322   */\n      add\n        /* \"#utility.yul\":3286:3288   */\n      dup2\n        /* \"#utility.yul\":3275:3284   */\n      dup9\n        /* \"#utility.yul\":3271:3289   */\n      add\n        /* \"#utility.yul\":3264:3323   */\n      mstore\n        /* \"#utility.yul\":3346:3387   */\n      tag_423\n        /* \"#utility.yul\":3380:3386   */\n      dup6\n        /* \"#utility.yul\":3364:3378   */\n      dup5\n        /* \"#utility.yul\":3346:3387   */\n      tag_394\n      jump\t// in\n    tag_423:\n        /* \"#utility.yul\":3424:3439   */\n      swap1\n      dup9\n      add\n        /* \"#utility.yul\":3418:3440   */\n      mload\n        /* \"#utility.yul\":3480:3502   */\n      dup8\n      dup3\n      sub\n        /* \"#utility.yul\":3476:3507   */\n      swap1\n      swap3\n      add\n        /* \"#utility.yul\":3456:3474   */\n      dup5\n      dup9\n      add\n        /* \"#utility.yul\":3449:3508   */\n      mstore\n        /* \"#utility.yul\":3332:3387   */\n      swap4\n      pop\n        /* \"#utility.yul\":3418:3440   */\n      swap1\n      pop\n        /* \"#utility.yul\":3525:3566   */\n      tag_424\n        /* \"#utility.yul\":3332:3387   */\n      dup4\n        /* \"#utility.yul\":3418:3440   */\n      dup3\n        /* \"#utility.yul\":3525:3566   */\n      tag_394\n      jump\t// in\n    tag_424:\n        /* \"#utility.yul\":3517:3566   */\n      swap7\n        /* \"#utility.yul\":1501:3572   */\n      swap6\n      pop\n      pop\n      pop\n      pop\n      pop\n      pop\n      jump\t// out\n        /* \"#utility.yul\":3577:3704   */\n    tag_395:\n        /* \"#utility.yul\":3638:3648   */\n      0x4e487b71\n        /* \"#utility.yul\":3633:3636   */\n      0xe0\n        /* \"#utility.yul\":3629:3649   */\n      shl\n        /* \"#utility.yul\":3626:3627   */\n      0x00\n        /* \"#utility.yul\":3619:3650   */\n      mstore\n        /* \"#utility.yul\":3669:3673   */\n      0x41\n        /* \"#utility.yul\":3666:3667   */\n      0x04\n        /* \"#utility.yul\":3659:3674   */\n      mstore\n        /* \"#utility.yul\":3693:3697   */\n      0x24\n        /* \"#utility.yul\":3690:3691   */\n      0x00\n        /* \"#utility.yul\":3683:3698   */\n      revert\n        /* \"#utility.yul\":3709:3959   */\n    tag_396:\n        /* \"#utility.yul\":3776:3778   */\n      0x40\n        /* \"#utility.yul\":3770:3779   */\n      mload\n        /* \"#utility.yul\":3818:3824   */\n      0x0180\n        /* \"#utility.yul\":3806:3825   */\n      dup2\n      add\n        /* \"#utility.yul\":3855:3873   */\n      0xffffffffffffffff\n        /* \"#utility.yul\":3840:3874   */\n      dup2\n      gt\n        /* \"#utility.yul\":3876:3898   */\n      dup3\n      dup3\n      lt\n        /* \"#utility.yul\":3837:3899   */\n      or\n        /* \"#utility.yul\":3834:3922   */\n      iszero\n      tag_428\n      jumpi\n        /* \"#utility.yul\":3902:3920   */\n      tag_428\n      tag_395\n      jump\t// in\n    tag_428:\n        /* \"#utility.yul\":3938:3940   */\n      0x40\n        /* \"#utility.yul\":3931:3953   */\n      mstore\n        /* \"#utility.yul\":3709:3959   */\n      swap1\n      jump\t// out\n        /* \"#utility.yul\":3964:4683   */\n    tag_397:\n        /* \"#utility.yul\":4007:4012   */\n      0x00\n        /* \"#utility.yul\":4060:4063   */\n      dup3\n        /* \"#utility.yul\":4053:4057   */\n      0x1f\n        /* \"#utility.yul\":4045:4051   */\n      dup4\n        /* \"#utility.yul\":4041:4058   */\n      add\n        /* \"#utility.yul\":4037:4064   */\n      slt\n        /* \"#utility.yul\":4027:4082   */\n      tag_430\n      jumpi\n        /* \"#utility.yul\":4078:4079   */\n      0x00\n        /* \"#utility.yul\":4075:4076   */\n      dup1\n        /* \"#utility.yul\":4068:4080   */\n      revert\n        /* \"#utility.yul\":4027:4082   */\n    tag_430:\n        /* \"#utility.yul\":4114:4120   */\n      dup2\n        /* \"#utility.yul\":4101:4121   */\n      calldataload\n        /* \"#utility.yul\":4140:4158   */\n      0xffffffffffffffff\n        /* \"#utility.yul\":4177:4179   */\n      dup1\n        /* \"#utility.yul\":4173:4175   */\n      dup3\n        /* \"#utility.yul\":4170:4180   */\n      gt\n        /* \"#utility.yul\":4167:4203   */\n      iszero\n      tag_432\n      jumpi\n        /* \"#utility.yul\":4183:4201   */\n      tag_432\n      tag_395\n      jump\t// in\n    tag_432:\n        /* \"#utility.yul\":4258:4260   */\n      0x40\n        /* \"#utility.yul\":4252:4261   */\n      mload\n        /* \"#utility.yul\":4226:4228   */\n      0x1f\n        /* \"#utility.yul\":4312:4325   */\n      dup4\n      add\n      not(0x1f)\n        /* \"#utility.yul\":4308:4330   */\n      swap1\n      dup2\n      and\n        /* \"#utility.yul\":4332:4334   */\n      0x3f\n        /* \"#utility.yul\":4304:4335   */\n      add\n        /* \"#utility.yul\":4300:4340   */\n      and\n        /* \"#utility.yul\":4288:4341   */\n      dup2\n      add\n      swap1\n        /* \"#utility.yul\":4356:4374   */\n      dup3\n      dup3\n      gt\n        /* \"#utility.yul\":4376:4398   */\n      dup2\n      dup4\n      lt\n        /* \"#utility.yul\":4353:4399   */\n      or\n        /* \"#utility.yul\":4350:4422   */\n      iszero\n      tag_434\n      jumpi\n        /* \"#utility.yul\":4402:4420   */\n      tag_434\n      tag_395\n      jump\t// in\n    tag_434:\n        /* \"#utility.yul\":4442:4452   */\n      dup2\n        /* \"#utility.yul\":4438:4440   */\n      0x40\n        /* \"#utility.yul\":4431:4453   */\n      mstore\n        /* \"#utility.yul\":4477:4479   */\n      dup4\n        /* \"#utility.yul\":4469:4475   */\n      dup2\n        /* \"#utility.yul\":4462:4480   */\n      mstore\n        /* \"#utility.yul\":4523:4526   */\n      dup7\n        /* \"#utility.yul\":4516:4520   */\n      0x20\n        /* \"#utility.yul\":4511:4513   */\n      dup6\n        /* \"#utility.yul\":4503:4509   */\n      dup9\n        /* \"#utility.yul\":4499:4514   */\n      add\n        /* \"#utility.yul\":4495:4521   */\n      add\n        /* \"#utility.yul\":4492:4527   */\n      gt\n        /* \"#utility.yul\":4489:4544   */\n      iszero\n      tag_435\n      jumpi\n        /* \"#utility.yul\":4540:4541   */\n      0x00\n        /* \"#utility.yul\":4537:4538   */\n      dup1\n        /* \"#utility.yul\":4530:4542   */\n      revert\n        /* \"#utility.yul\":4489:4544   */\n    tag_435:\n        /* \"#utility.yul\":4604:4606   */\n      dup4\n        /* \"#utility.yul\":4597:4601   */\n      0x20\n        /* \"#utility.yul\":4589:4595   */\n      dup8\n        /* \"#utility.yul\":4585:4602   */\n      add\n        /* \"#utility.yul\":4578:4582   */\n      0x20\n        /* \"#utility.yul\":4570:4576   */\n      dup4\n        /* \"#utility.yul\":4566:4583   */\n      add\n        /* \"#utility.yul\":4553:4607   */\n      calldatacopy\n        /* \"#utility.yul\":4651:4652   */\n      0x00\n        /* \"#utility.yul\":4644:4648   */\n      0x20\n        /* \"#utility.yul\":4639:4641   */\n      dup6\n        /* \"#utility.yul\":4631:4637   */\n      dup4\n        /* \"#utility.yul\":4627:4642   */\n      add\n        /* \"#utility.yul\":4623:4649   */\n      add\n        /* \"#utility.yul\":4616:4653   */\n      mstore\n        /* \"#utility.yul\":4671:4677   */\n      dup1\n        /* \"#utility.yul\":4662:4677   */\n      swap5\n      pop\n      pop\n      pop\n      pop\n      pop\n        /* \"#utility.yul\":3964:4683   */\n      swap3\n      swap2\n      pop\n      pop\n      jump\t// out\n        /* \"#utility.yul\":4688:5146   */\n    tag_45:\n        /* \"#utility.yul\":4775:4781   */\n      0x00\n        /* \"#utility.yul\":4783:4789   */\n      dup1\n        /* \"#utility.yul\":4791:4797   */\n      0x00\n        /* \"#utility.yul\":4844:4846   */\n      0x60\n        /* \"#utility.yul\":4832:4841   */\n      dup5\n        /* \"#utility.yul\":4823:4830   */\n      dup7\n        /* \"#utility.yul\":4819:4842   */\n      sub\n        /* \"#utility.yul\":4815:4847   */\n      slt\n        /* \"#utility.yul\":4812:4864   */\n      iszero\n      tag_437\n      jumpi\n        /* \"#utility.yul\":4860:4861   */\n      0x00\n        /* \"#utility.yul\":4857:4858   */\n      dup1\n        /* \"#utility.yul\":4850:4862   */\n      revert\n        /* \"#utility.yul\":4812:4864   */\n    tag_437:\n        /* \"#utility.yul\":4896:4905   */\n      dup4\n        /* \"#utility.yul\":4883:4906   */\n      calldataload\n        /* \"#utility.yul\":4873:4906   */\n      swap3\n      pop\n        /* \"#utility.yul\":4953:4955   */\n      0x20\n        /* \"#utility.yul\":4942:4951   */\n      dup5\n        /* \"#utility.yul\":4938:4956   */\n      add\n        /* \"#utility.yul\":4925:4957   */\n      calldataload\n        /* \"#utility.yul\":4915:4957   */\n      swap2\n      pop\n        /* \"#utility.yul\":5008:5010   */\n      0x40\n        /* \"#utility.yul\":4997:5006   */\n      dup5\n        /* \"#utility.yul\":4993:5011   */\n      add\n        /* \"#utility.yul\":4980:5012   */\n      calldataload\n        /* \"#utility.yul\":5035:5053   */\n      0xffffffffffffffff\n        /* \"#utility.yul\":5027:5033   */\n      dup2\n        /* \"#utility.yul\":5024:5054   */\n      gt\n        /* \"#utility.yul\":5021:5071   */\n      iszero\n      tag_438\n      jumpi\n        /* \"#utility.yul\":5067:5068   */\n      0x00\n        /* \"#utility.yul\":5064:5065   */\n      dup1\n        /* \"#utility.yul\":5057:5069   */\n      revert\n        /* \"#utility.yul\":5021:5071   */\n    tag_438:\n        /* \"#utility.yul\":5090:5140   */\n      tag_439\n        /* \"#utility.yul\":5132:5139   */\n      dup7\n        /* \"#utility.yul\":5123:5129   */\n      dup3\n        /* \"#utility.yul\":5112:5121   */\n      dup8\n        /* \"#utility.yul\":5108:5130   */\n      add\n        /* \"#utility.yul\":5090:5140   */\n      tag_397\n      jump\t// in\n    tag_439:\n        /* \"#utility.yul\":5080:5140   */\n      swap2\n      pop\n      pop\n        /* \"#utility.yul\":4688:5146   */\n      swap3\n      pop\n      swap3\n      pop\n      swap3\n      jump\t// out\n        /* \"#utility.yul\":5151:5473   */\n    tag_54:\n        /* \"#utility.yul\":5228:5234   */\n      0x00\n        /* \"#utility.yul\":5236:5242   */\n      dup1\n        /* \"#utility.yul\":5244:5250   */\n      0x00\n        /* \"#utility.yul\":5297:5299   */\n      0x60\n        /* \"#utility.yul\":5285:5294   */\n      dup5\n        /* \"#utility.yul\":5276:5283   */\n      dup7\n        /* \"#utility.yul\":5272:5295   */\n      sub\n        /* \"#utility.yul\":5268:5300   */\n      slt\n        /* \"#utility.yul\":5265:5317   */\n      iszero\n      tag_441\n      jumpi\n        /* \"#utility.yul\":5313:5314   */\n      0x00\n        /* \"#utility.yul\":5310:5311   */\n      dup1\n        /* \"#utility.yul\":5303:5315   */\n      revert\n        /* \"#utility.yul\":5265:5317   */\n    tag_441:\n        /* \"#utility.yul\":5349:5358   */\n      dup4\n        /* \"#utility.yul\":5336:5359   */\n      calldataload\n        /* \"#utility.yul\":5326:5359   */\n      swap3\n      pop\n        /* \"#utility.yul\":5406:5408   */\n      0x20\n        /* \"#utility.yul\":5395:5404   */\n      dup5\n        /* \"#utility.yul\":5391:5409   */\n      add\n        /* \"#utility.yul\":5378:5410   */\n      calldataload\n        /* \"#utility.yul\":5368:5410   */\n      swap2\n      pop\n        /* \"#utility.yul\":5429:5467   */\n      tag_442\n        /* \"#utility.yul\":5463:5465   */\n      0x40\n        /* \"#utility.yul\":5452:5461   */\n      dup6\n        /* \"#utility.yul\":5448:5466   */\n      add\n        /* \"#utility.yul\":5429:5467   */\n      tag_392\n      jump\t// in\n    tag_442:\n        /* \"#utility.yul\":5419:5467   */\n      swap1\n      pop\n        /* \"#utility.yul\":5151:5473   */\n      swap3\n      pop\n      swap3\n      pop\n      swap3\n      jump\t// out\n        /* \"#utility.yul\":5478:7696   */\n    tag_63:\n        /* \"#utility.yul\":5570:5576   */\n      0x00\n        /* \"#utility.yul\":5578:5584   */\n      dup1\n        /* \"#utility.yul\":5631:5633   */\n      0x40\n        /* \"#utility.yul\":5619:5628   */\n      dup4\n        /* \"#utility.yul\":5610:5617   */\n      dup6\n        /* \"#utility.yul\":5606:5629   */\n      sub\n        /* \"#utility.yul\":5602:5634   */\n      slt\n        /* \"#utility.yul\":5599:5651   */\n      iszero\n      tag_444\n      jumpi\n        /* \"#utility.yul\":5647:5648   */\n      0x00\n        /* \"#utility.yul\":5644:5645   */\n      dup1\n        /* \"#utility.yul\":5637:5649   */\n      revert\n        /* \"#utility.yul\":5599:5651   */\n    tag_444:\n        /* \"#utility.yul\":5687:5696   */\n      dup3\n        /* \"#utility.yul\":5674:5697   */\n      calldataload\n        /* \"#utility.yul\":5716:5734   */\n      0xffffffffffffffff\n        /* \"#utility.yul\":5757:5759   */\n      dup1\n        /* \"#utility.yul\":5749:5755   */\n      dup3\n        /* \"#utility.yul\":5746:5760   */\n      gt\n        /* \"#utility.yul\":5743:5777   */\n      iszero\n      tag_445\n      jumpi\n        /* \"#utility.yul\":5773:5774   */\n      0x00\n        /* \"#utility.yul\":5770:5771   */\n      dup1\n        /* \"#utility.yul\":5763:5775   */\n      revert\n        /* \"#utility.yul\":5743:5777   */\n    tag_445:\n        /* \"#utility.yul\":5796:5818   */\n      swap1\n      dup5\n      add\n      swap1\n        /* \"#utility.yul\":5852:5858   */\n      0x0180\n        /* \"#utility.yul\":5834:5850   */\n      dup3\n      dup8\n      sub\n        /* \"#utility.yul\":5830:5859   */\n      slt\n        /* \"#utility.yul\":5827:5876   */\n      iszero\n      tag_446\n      jumpi\n        /* \"#utility.yul\":5872:5873   */\n      0x00\n        /* \"#utility.yul\":5869:5870   */\n      dup1\n        /* \"#utility.yul\":5862:5874   */\n      revert\n        /* \"#utility.yul\":5827:5876   */\n    tag_446:\n        /* \"#utility.yul\":5898:5915   */\n      tag_447\n      tag_396\n      jump\t// in\n    tag_447:\n        /* \"#utility.yul\":5951:5953   */\n      dup3\n        /* \"#utility.yul\":5938:5954   */\n      calldataload\n        /* \"#utility.yul\":5931:5936   */\n      dup2\n        /* \"#utility.yul\":5924:5955   */\n      mstore\n        /* \"#utility.yul\":6008:6010   */\n      0x20\n        /* \"#utility.yul\":6004:6006   */\n      dup4\n        /* \"#utility.yul\":6000:6011   */\n      add\n        /* \"#utility.yul\":5987:6012   */\n      calldataload\n        /* \"#utility.yul\":5982:5984   */\n      0x20\n        /* \"#utility.yul\":5975:5980   */\n      dup3\n        /* \"#utility.yul\":5971:5985   */\n      add\n        /* \"#utility.yul\":5964:6013   */\n      mstore\n        /* \"#utility.yul\":6066:6068   */\n      0x40\n        /* \"#utility.yul\":6062:6064   */\n      dup4\n        /* \"#utility.yul\":6058:6069   */\n      add\n        /* \"#utility.yul\":6045:6070   */\n      calldataload\n        /* \"#utility.yul\":6040:6042   */\n      0x40\n        /* \"#utility.yul\":6033:6038   */\n      dup3\n        /* \"#utility.yul\":6029:6043   */\n      add\n        /* \"#utility.yul\":6022:6071   */\n      mstore\n        /* \"#utility.yul\":6103:6134   */\n      tag_448\n        /* \"#utility.yul\":6130:6132   */\n      0x60\n        /* \"#utility.yul\":6126:6128   */\n      dup5\n        /* \"#utility.yul\":6122:6133   */\n      add\n        /* \"#utility.yul\":6103:6134   */\n      tag_392\n      jump\t// in\n    tag_448:\n        /* \"#utility.yul\":6098:6100   */\n      0x60\n        /* \"#utility.yul\":6091:6096   */\n      dup3\n        /* \"#utility.yul\":6087:6101   */\n      add\n        /* \"#utility.yul\":6080:6135   */\n      mstore\n        /* \"#utility.yul\":6181:6184   */\n      0x80\n        /* \"#utility.yul\":6177:6179   */\n      dup4\n        /* \"#utility.yul\":6173:6185   */\n      add\n        /* \"#utility.yul\":6160:6186   */\n      calldataload\n        /* \"#utility.yul\":6211:6213   */\n      dup3\n        /* \"#utility.yul\":6201:6209   */\n      dup2\n        /* \"#utility.yul\":6198:6214   */\n      gt\n        /* \"#utility.yul\":6195:6231   */\n      iszero\n      tag_449\n      jumpi\n        /* \"#utility.yul\":6227:6228   */\n      0x00\n        /* \"#utility.yul\":6224:6225   */\n      dup1\n        /* \"#utility.yul\":6217:6229   */\n      revert\n        /* \"#utility.yul\":6195:6231   */\n    tag_449:\n        /* \"#utility.yul\":6264:6309   */\n      tag_450\n        /* \"#utility.yul\":6301:6308   */\n      dup9\n        /* \"#utility.yul\":6290:6298   */\n      dup3\n        /* \"#utility.yul\":6286:6288   */\n      dup7\n        /* \"#utility.yul\":6282:6299   */\n      add\n        /* \"#utility.yul\":6264:6309   */\n      tag_397\n      jump\t// in\n    tag_450:\n        /* \"#utility.yul\":6258:6261   */\n      0x80\n        /* \"#utility.yul\":6251:6256   */\n      dup4\n        /* \"#utility.yul\":6247:6262   */\n      add\n        /* \"#utility.yul\":6240:6310   */\n      mstore\n      pop\n        /* \"#utility.yul\":6356:6359   */\n      0xa0\n        /* \"#utility.yul\":6352:6354   */\n      dup4\n        /* \"#utility.yul\":6348:6360   */\n      add\n        /* \"#utility.yul\":6335:6361   */\n      calldataload\n        /* \"#utility.yul\":6386:6388   */\n      dup3\n        /* \"#utility.yul\":6376:6384   */\n      dup2\n        /* \"#utility.yul\":6373:6389   */\n      gt\n        /* \"#utility.yul\":6370:6406   */\n      iszero\n      tag_451\n      jumpi\n        /* \"#utility.yul\":6402:6403   */\n      0x00\n        /* \"#utility.yul\":6399:6400   */\n      dup1\n        /* \"#utility.yul\":6392:6404   */\n      revert\n        /* \"#utility.yul\":6370:6406   */\n    tag_451:\n        /* \"#utility.yul\":6439:6484   */\n      tag_452\n        /* \"#utility.yul\":6476:6483   */\n      dup9\n        /* \"#utility.yul\":6465:6473   */\n      dup3\n        /* \"#utility.yul\":6461:6463   */\n      dup7\n        /* \"#utility.yul\":6457:6474   */\n      add\n        /* \"#utility.yul\":6439:6484   */\n      tag_397\n      jump\t// in\n    tag_452:\n        /* \"#utility.yul\":6433:6436   */\n      0xa0\n        /* \"#utility.yul\":6426:6431   */\n      dup4\n        /* \"#utility.yul\":6422:6437   */\n      add\n        /* \"#utility.yul\":6415:6485   */\n      mstore\n      pop\n        /* \"#utility.yul\":6531:6534   */\n      0xc0\n        /* \"#utility.yul\":6527:6529   */\n      dup4\n        /* \"#utility.yul\":6523:6535   */\n      add\n        /* \"#utility.yul\":6510:6536   */\n      calldataload\n        /* \"#utility.yul\":6561:6563   */\n      dup3\n        /* \"#utility.yul\":6551:6559   */\n      dup2\n        /* \"#utility.yul\":6548:6564   */\n      gt\n        /* \"#utility.yul\":6545:6581   */\n      iszero\n      tag_453\n      jumpi\n        /* \"#utility.yul\":6577:6578   */\n      0x00\n        /* \"#utility.yul\":6574:6575   */\n      dup1\n        /* \"#utility.yul\":6567:6579   */\n      revert\n        /* \"#utility.yul\":6545:6581   */\n    tag_453:\n        /* \"#utility.yul\":6614:6659   */\n      tag_454\n        /* \"#utility.yul\":6651:6658   */\n      dup9\n        /* \"#utility.yul\":6640:6648   */\n      dup3\n        /* \"#utility.yul\":6636:6638   */\n      dup7\n        /* \"#utility.yul\":6632:6649   */\n      add\n        /* \"#utility.yul\":6614:6659   */\n      tag_397\n      jump\t// in\n    tag_454:\n        /* \"#utility.yul\":6608:6611   */\n      0xc0\n        /* \"#utility.yul\":6601:6606   */\n      dup4\n        /* \"#utility.yul\":6597:6612   */\n      add\n        /* \"#utility.yul\":6590:6660   */\n      mstore\n      pop\n        /* \"#utility.yul\":6706:6709   */\n      0xe0\n        /* \"#utility.yul\":6702:6704   */\n      dup4\n        /* \"#utility.yul\":6698:6710   */\n      add\n        /* \"#utility.yul\":6685:6711   */\n      calldataload\n        /* \"#utility.yul\":6736:6738   */\n      dup3\n        /* \"#utility.yul\":6726:6734   */\n      dup2\n        /* \"#utility.yul\":6723:6739   */\n      gt\n        /* \"#utility.yul\":6720:6756   */\n      iszero\n      tag_455\n      jumpi\n        /* \"#utility.yul\":6752:6753   */\n      0x00\n        /* \"#utility.yul\":6749:6750   */\n      dup1\n        /* \"#utility.yul\":6742:6754   */\n      revert\n        /* \"#utility.yul\":6720:6756   */\n    tag_455:\n        /* \"#utility.yul\":6789:6834   */\n      tag_456\n        /* \"#utility.yul\":6826:6833   */\n      dup9\n        /* \"#utility.yul\":6815:6823   */\n      dup3\n        /* \"#utility.yul\":6811:6813   */\n      dup7\n        /* \"#utility.yul\":6807:6824   */\n      add\n        /* \"#utility.yul\":6789:6834   */\n      tag_397\n      jump\t// in\n    tag_456:\n        /* \"#utility.yul\":6783:6786   */\n      0xe0\n        /* \"#utility.yul\":6776:6781   */\n      dup4\n        /* \"#utility.yul\":6772:6787   */\n      add\n        /* \"#utility.yul\":6765:6835   */\n      mstore\n      pop\n        /* \"#utility.yul\":6854:6857   */\n      0x0100\n        /* \"#utility.yul\":6903:6905   */\n      dup1\n        /* \"#utility.yul\":6899:6901   */\n      dup5\n        /* \"#utility.yul\":6895:6906   */\n      add\n        /* \"#utility.yul\":6882:6907   */\n      calldataload\n        /* \"#utility.yul\":6932:6934   */\n      dup4\n        /* \"#utility.yul\":6922:6930   */\n      dup2\n        /* \"#utility.yul\":6919:6935   */\n      gt\n        /* \"#utility.yul\":6916:6952   */\n      iszero\n      tag_457\n      jumpi\n        /* \"#utility.yul\":6948:6949   */\n      0x00\n        /* \"#utility.yul\":6945:6946   */\n      dup1\n        /* \"#utility.yul\":6938:6950   */\n      revert\n        /* \"#utility.yul\":6916:6952   */\n    tag_457:\n        /* \"#utility.yul\":6984:7029   */\n      tag_458\n        /* \"#utility.yul\":7021:7028   */\n      dup10\n        /* \"#utility.yul\":7010:7018   */\n      dup3\n        /* \"#utility.yul\":7006:7008   */\n      dup8\n        /* \"#utility.yul\":7002:7019   */\n      add\n        /* \"#utility.yul\":6984:7029   */\n      tag_397\n      jump\t// in\n    tag_458:\n        /* \"#utility.yul\":6979:6981   */\n      dup3\n        /* \"#utility.yul\":6972:6977   */\n      dup5\n        /* \"#utility.yul\":6968:6982   */\n      add\n        /* \"#utility.yul\":6961:7030   */\n      mstore\n      pop\n      pop\n        /* \"#utility.yul\":7049:7052   */\n      0x0120\n        /* \"#utility.yul\":7098:7100   */\n      dup1\n        /* \"#utility.yul\":7094:7096   */\n      dup5\n        /* \"#utility.yul\":7090:7101   */\n      add\n        /* \"#utility.yul\":7077:7102   */\n      calldataload\n        /* \"#utility.yul\":7127:7129   */\n      dup4\n        /* \"#utility.yul\":7117:7125   */\n      dup2\n        /* \"#utility.yul\":7114:7130   */\n      gt\n        /* \"#utility.yul\":7111:7147   */\n      iszero\n      tag_459\n      jumpi\n        /* \"#utility.yul\":7143:7144   */\n      0x00\n        /* \"#utility.yul\":7140:7141   */\n      dup1\n        /* \"#utility.yul\":7133:7145   */\n      revert\n        /* \"#utility.yul\":7111:7147   */\n    tag_459:\n        /* \"#utility.yul\":7179:7224   */\n      tag_460\n        /* \"#utility.yul\":7216:7223   */\n      dup10\n        /* \"#utility.yul\":7205:7213   */\n      dup3\n        /* \"#utility.yul\":7201:7203   */\n      dup8\n        /* \"#utility.yul\":7197:7214   */\n      add\n        /* \"#utility.yul\":7179:7224   */\n      tag_397\n      jump\t// in\n    tag_460:\n        /* \"#utility.yul\":7174:7176   */\n      dup3\n        /* \"#utility.yul\":7167:7172   */\n      dup5\n        /* \"#utility.yul\":7163:7177   */\n      add\n        /* \"#utility.yul\":7156:7225   */\n      mstore\n      pop\n      pop\n        /* \"#utility.yul\":7244:7247   */\n      0x0140\n        /* \"#utility.yul\":7293:7295   */\n      dup1\n        /* \"#utility.yul\":7289:7291   */\n      dup5\n        /* \"#utility.yul\":7285:7296   */\n      add\n        /* \"#utility.yul\":7272:7297   */\n      calldataload\n        /* \"#utility.yul\":7322:7324   */\n      dup4\n        /* \"#utility.yul\":7312:7320   */\n      dup2\n        /* \"#utility.yul\":7309:7325   */\n      gt\n        /* \"#utility.yul\":7306:7342   */\n      iszero\n      tag_461\n      jumpi\n        /* \"#utility.yul\":7338:7339   */\n      0x00\n        /* \"#utility.yul\":7335:7336   */\n      dup1\n        /* \"#utility.yul\":7328:7340   */\n      revert\n        /* \"#utility.yul\":7306:7342   */\n    tag_461:\n        /* \"#utility.yul\":7374:7419   */\n      tag_462\n        /* \"#utility.yul\":7411:7418   */\n      dup10\n        /* \"#utility.yul\":7400:7408   */\n      dup3\n        /* \"#utility.yul\":7396:7398   */\n      dup8\n        /* \"#utility.yul\":7392:7409   */\n      add\n        /* \"#utility.yul\":7374:7419   */\n      tag_397\n      jump\t// in\n    tag_462:\n        /* \"#utility.yul\":7369:7371   */\n      dup3\n        /* \"#utility.yul\":7362:7367   */\n      dup5\n        /* \"#utility.yul\":7358:7372   */\n      add\n        /* \"#utility.yul\":7351:7420   */\n      mstore\n      pop\n      pop\n        /* \"#utility.yul\":7439:7442   */\n      0x0160\n        /* \"#utility.yul\":7488:7490   */\n      dup1\n        /* \"#utility.yul\":7484:7486   */\n      dup5\n        /* \"#utility.yul\":7480:7491   */\n      add\n        /* \"#utility.yul\":7467:7492   */\n      calldataload\n        /* \"#utility.yul\":7517:7519   */\n      dup4\n        /* \"#utility.yul\":7507:7515   */\n      dup2\n        /* \"#utility.yul\":7504:7520   */\n      gt\n        /* \"#utility.yul\":7501:7537   */\n      iszero\n      tag_463\n      jumpi\n        /* \"#utility.yul\":7533:7534   */\n      0x00\n        /* \"#utility.yul\":7530:7531   */\n      dup1\n        /* \"#utility.yul\":7523:7535   */\n      revert\n        /* \"#utility.yul\":7501:7537   */\n    tag_463:\n        /* \"#utility.yul\":7569:7614   */\n      tag_464\n        /* \"#utility.yul\":7606:7613   */\n      dup10\n        /* \"#utility.yul\":7595:7603   */\n      dup3\n        /* \"#utility.yul\":7591:7593   */\n      dup8\n        /* \"#utility.yul\":7587:7604   */\n      add\n        /* \"#utility.yul\":7569:7614   */\n      tag_397\n      jump\t// in\n    tag_464:\n        /* \"#utility.yul\":7553:7567   */\n      swap2\n      dup4\n      add\n        /* \"#utility.yul\":7546:7615   */\n      swap2\n      swap1\n      swap2\n      mstore\n      pop\n        /* \"#utility.yul\":7557:7562   */\n      swap7\n        /* \"#utility.yul\":7686:7688   */\n      0x20\n        /* \"#utility.yul\":7671:7689   */\n      swap6\n      swap1\n      swap6\n      add\n        /* \"#utility.yul\":7658:7690   */\n      calldataload\n      swap6\n      pop\n      pop\n      pop\n      pop\n      pop\n        /* \"#utility.yul\":5478:7696   */\n      jump\t// out\n        /* \"#utility.yul\":7909:8157   */\n    tag_82:\n        /* \"#utility.yul\":7977:7983   */\n      0x00\n        /* \"#utility.yul\":7985:7991   */\n      dup1\n        /* \"#utility.yul\":8038:8040   */\n      0x40\n        /* \"#utility.yul\":8026:8035   */\n      dup4\n        /* \"#utility.yul\":8017:8024   */\n      dup6\n        /* \"#utility.yul\":8013:8036   */\n      sub\n        /* \"#utility.yul\":8009:8041   */\n      slt\n        /* \"#utility.yul\":8006:8058   */\n      iszero\n      tag_467\n      jumpi\n        /* \"#utility.yul\":8054:8055   */\n      0x00\n        /* \"#utility.yul\":8051:8052   */\n      dup1\n        /* \"#utility.yul\":8044:8056   */\n      revert\n        /* \"#utility.yul\":8006:8058   */\n    tag_467:\n      pop\n      pop\n        /* \"#utility.yul\":8077:8100   */\n      dup1\n      calldataload\n      swap3\n        /* \"#utility.yul\":8147:8149   */\n      0x20\n        /* \"#utility.yul\":8132:8150   */\n      swap1\n      swap2\n      add\n        /* \"#utility.yul\":8119:8151   */\n      calldataload\n      swap2\n      pop\n        /* \"#utility.yul\":7909:8157   */\n      jump\t// out\n        /* \"#utility.yul\":8344:8530   */\n    tag_112:\n        /* \"#utility.yul\":8403:8409   */\n      0x00\n        /* \"#utility.yul\":8456:8458   */\n      0x20\n        /* \"#utility.yul\":8444:8453   */\n      dup3\n        /* \"#utility.yul\":8435:8442   */\n      dup5\n        /* \"#utility.yul\":8431:8454   */\n      sub\n        /* \"#utility.yul\":8427:8459   */\n      slt\n        /* \"#utility.yul\":8424:8476   */\n      iszero\n      tag_470\n      jumpi\n        /* \"#utility.yul\":8472:8473   */\n      0x00\n        /* \"#utility.yul\":8469:8470   */\n      dup1\n        /* \"#utility.yul\":8462:8474   */\n      revert\n        /* \"#utility.yul\":8424:8476   */\n    tag_470:\n        /* \"#utility.yul\":8495:8524   */\n      tag_471\n        /* \"#utility.yul\":8514:8523   */\n      dup3\n        /* \"#utility.yul\":8495:8524   */\n      tag_392\n      jump\t// in\n    tag_471:\n        /* \"#utility.yul\":8485:8524   */\n      swap4\n        /* \"#utility.yul\":8344:8530   */\n      swap3\n      pop\n      pop\n      pop\n      jump\t// out\n        /* \"#utility.yul\":8535:8715   */\n    tag_116:\n        /* \"#utility.yul\":8594:8600   */\n      0x00\n        /* \"#utility.yul\":8647:8649   */\n      0x20\n        /* \"#utility.yul\":8635:8644   */\n      dup3\n        /* \"#utility.yul\":8626:8633   */\n      dup5\n        /* \"#utility.yul\":8622:8645   */\n      sub\n        /* \"#utility.yul\":8618:8650   */\n      slt\n        /* \"#utility.yul\":8615:8667   */\n      iszero\n      tag_473\n      jumpi\n        /* \"#utility.yul\":8663:8664   */\n      0x00\n        /* \"#utility.yul\":8660:8661   */\n      dup1\n        /* \"#utility.yul\":8653:8665   */\n      revert\n        /* \"#utility.yul\":8615:8667   */\n    tag_473:\n      pop\n        /* \"#utility.yul\":8686:8709   */\n      calldataload\n      swap2\n        /* \"#utility.yul\":8535:8715   */\n      swap1\n      pop\n      jump\t// out\n        /* \"#utility.yul\":8720:9123   */\n    tag_122:\n        /* \"#utility.yul\":8922:8924   */\n      0x20\n        /* \"#utility.yul\":8904:8925   */\n      dup1\n      dup3\n      mstore\n        /* \"#utility.yul\":8961:8963   */\n      0x27\n        /* \"#utility.yul\":8941:8959   */\n      swap1\n      dup3\n      add\n        /* \"#utility.yul\":8934:8964   */\n      mstore\n        /* \"#utility.yul\":9000:9034   */\n      0x4461746162617365204c697374456d706c6f7965653a20536563726574206b65\n        /* \"#utility.yul\":8995:8997   */\n      0x40\n        /* \"#utility.yul\":8980:8998   */\n      dup3\n      add\n        /* \"#utility.yul\":8973:9035   */\n      mstore\n      shl(0xc9, 0x3c9032b93937b9)\n        /* \"#utility.yul\":9066:9068   */\n      0x60\n        /* \"#utility.yul\":9051:9069   */\n      dup3\n      add\n        /* \"#utility.yul\":9044:9081   */\n      mstore\n        /* \"#utility.yul\":9113:9116   */\n      0x80\n        /* \"#utility.yul\":9098:9117   */\n      add\n      swap1\n        /* \"#utility.yul\":8720:9123   */\n      jump\t// out\n        /* \"#utility.yul\":9128:9528   */\n    tag_127:\n        /* \"#utility.yul\":9330:9332   */\n      0x20\n        /* \"#utility.yul\":9312:9333   */\n      dup1\n      dup3\n      mstore\n        /* \"#utility.yul\":9369:9371   */\n      0x24\n        /* \"#utility.yul\":9349:9367   */\n      swap1\n      dup3\n      add\n        /* \"#utility.yul\":9342:9372   */\n      mstore\n        /* \"#utility.yul\":9408:9442   */\n      0x4461746162617365204c697374456d706c6f7965653a20496e76616c69642069\n        /* \"#utility.yul\":9403:9405   */\n      0x40\n        /* \"#utility.yul\":9388:9406   */\n      dup3\n      add\n        /* \"#utility.yul\":9381:9443   */\n      mstore\n      shl(0xe3, 0x0dcc8caf)\n        /* \"#utility.yul\":9474:9476   */\n      0x60\n        /* \"#utility.yul\":9459:9477   */\n      dup3\n      add\n        /* \"#utility.yul\":9452:9486   */\n      mstore\n        /* \"#utility.yul\":9518:9521   */\n      0x80\n        /* \"#utility.yul\":9503:9522   */\n      add\n      swap1\n        /* \"#utility.yul\":9128:9528   */\n      jump\t// out\n        /* \"#utility.yul\":9533:9913   */\n    tag_140:\n        /* \"#utility.yul\":9612:9613   */\n      0x01\n        /* \"#utility.yul\":9608:9620   */\n      dup2\n      dup2\n      shr\n      swap1\n        /* \"#utility.yul\":9655:9667   */\n      dup3\n      and\n      dup1\n        /* \"#utility.yul\":9676:9737   */\n      tag_477\n      jumpi\n        /* \"#utility.yul\":9730:9734   */\n      0x7f\n        /* \"#utility.yul\":9722:9728   */\n      dup3\n        /* \"#utility.yul\":9718:9735   */\n      and\n        /* \"#utility.yul\":9708:9735   */\n      swap2\n      pop\n        /* \"#utility.yul\":9676:9737   */\n    tag_477:\n        /* \"#utility.yul\":9783:9785   */\n      0x20\n        /* \"#utility.yul\":9775:9781   */\n      dup3\n        /* \"#utility.yul\":9772:9786   */\n      lt\n        /* \"#utility.yul\":9752:9770   */\n      dup2\n        /* \"#utility.yul\":9749:9787   */\n      sub\n        /* \"#utility.yul\":9746:9907   */\n      tag_385\n      jumpi\n        /* \"#utility.yul\":9829:9839   */\n      0x4e487b71\n        /* \"#utility.yul\":9824:9827   */\n      0xe0\n        /* \"#utility.yul\":9820:9840   */\n      shl\n        /* \"#utility.yul\":9817:9818   */\n      0x00\n        /* \"#utility.yul\":9810:9841   */\n      mstore\n        /* \"#utility.yul\":9864:9868   */\n      0x22\n        /* \"#utility.yul\":9861:9862   */\n      0x04\n        /* \"#utility.yul\":9854:9869   */\n      mstore\n        /* \"#utility.yul\":9892:9896   */\n      0x24\n        /* \"#utility.yul\":9889:9890   */\n      0x00\n        /* \"#utility.yul\":9882:9897   */\n      revert\n        /* \"#utility.yul\":9918:10150   */\n    tag_181:\n        /* \"#utility.yul\":9957:9960   */\n      0x00\n        /* \"#utility.yul\":9978:9995   */\n      0x01\n      dup3\n      add\n        /* \"#utility.yul\":9975:10115   */\n      tag_480\n      jumpi\n        /* \"#utility.yul\":10037:10047   */\n      0x4e487b71\n        /* \"#utility.yul\":10032:10035   */\n      0xe0\n        /* \"#utility.yul\":10028:10048   */\n      shl\n        /* \"#utility.yul\":10025:10026   */\n      0x00\n        /* \"#utility.yul\":10018:10049   */\n      mstore\n        /* \"#utility.yul\":10072:10076   */\n      0x11\n        /* \"#utility.yul\":10069:10070   */\n      0x04\n        /* \"#utility.yul\":10062:10077   */\n      mstore\n        /* \"#utility.yul\":10100:10104   */\n      0x24\n        /* \"#utility.yul\":10097:10098   */\n      0x00\n        /* \"#utility.yul\":10090:10105   */\n      revert\n        /* \"#utility.yul\":9975:10115   */\n    tag_480:\n      pop\n        /* \"#utility.yul\":10142:10143   */\n      0x01\n        /* \"#utility.yul\":10131:10144   */\n      add\n      swap1\n        /* \"#utility.yul\":9918:10150   */\n      jump\t// out\n        /* \"#utility.yul\":10688:11233   */\n    tag_399:\n        /* \"#utility.yul\":10790:10792   */\n      0x1f\n        /* \"#utility.yul\":10785:10788   */\n      dup3\n        /* \"#utility.yul\":10782:10793   */\n      gt\n        /* \"#utility.yul\":10779:11227   */\n      iszero\n      tag_484\n      jumpi\n        /* \"#utility.yul\":10826:10827   */\n      0x00\n        /* \"#utility.yul\":10851:10856   */\n      dup2\n        /* \"#utility.yul\":10847:10849   */\n      dup2\n        /* \"#utility.yul\":10840:10857   */\n      mstore\n        /* \"#utility.yul\":10896:10900   */\n      0x20\n        /* \"#utility.yul\":10892:10894   */\n      dup2\n        /* \"#utility.yul\":10882:10901   */\n      keccak256\n        /* \"#utility.yul\":10966:10968   */\n      0x1f\n        /* \"#utility.yul\":10954:10964   */\n      dup6\n        /* \"#utility.yul\":10950:10969   */\n      add\n        /* \"#utility.yul\":10947:10948   */\n      0x05\n        /* \"#utility.yul\":10943:10970   */\n      shr\n        /* \"#utility.yul\":10937:10941   */\n      dup2\n        /* \"#utility.yul\":10933:10971   */\n      add\n        /* \"#utility.yul\":11002:11006   */\n      0x20\n        /* \"#utility.yul\":10990:11000   */\n      dup7\n        /* \"#utility.yul\":10987:11007   */\n      lt\n        /* \"#utility.yul\":10984:11031   */\n      iszero\n      tag_485\n      jumpi\n      pop\n        /* \"#utility.yul\":11025:11029   */\n      dup1\n        /* \"#utility.yul\":10984:11031   */\n    tag_485:\n        /* \"#utility.yul\":11080:11082   */\n      0x1f\n        /* \"#utility.yul\":11075:11078   */\n      dup6\n        /* \"#utility.yul\":11071:11083   */\n      add\n        /* \"#utility.yul\":11068:11069   */\n      0x05\n        /* \"#utility.yul\":11064:11084   */\n      shr\n        /* \"#utility.yul\":11058:11062   */\n      dup3\n        /* \"#utility.yul\":11054:11085   */\n      add\n        /* \"#utility.yul\":11044:11085   */\n      swap2\n      pop\n        /* \"#utility.yul\":11135:11217   */\n    tag_486:\n        /* \"#utility.yul\":11153:11155   */\n      dup2\n        /* \"#utility.yul\":11146:11151   */\n      dup2\n        /* \"#utility.yul\":11143:11156   */\n      lt\n        /* \"#utility.yul\":11135:11217   */\n      iszero\n      tag_488\n      jumpi\n        /* \"#utility.yul\":11198:11215   */\n      dup3\n      dup2\n      sstore\n        /* \"#utility.yul\":11179:11180   */\n      0x01\n        /* \"#utility.yul\":11168:11181   */\n      add\n        /* \"#utility.yul\":11135:11217   */\n      jump(tag_486)\n    tag_488:\n        /* \"#utility.yul\":11139:11142   */\n      pop\n      pop\n      pop\n        /* \"#utility.yul\":10779:11227   */\n    tag_484:\n        /* \"#utility.yul\":10688:11233   */\n      pop\n      pop\n      pop\n      jump\t// out\n        /* \"#utility.yul\":11409:12761   */\n    tag_201:\n        /* \"#utility.yul\":11535:11538   */\n      dup2\n        /* \"#utility.yul\":11529:11539   */\n      mload\n        /* \"#utility.yul\":11562:11580   */\n      0xffffffffffffffff\n        /* \"#utility.yul\":11554:11560   */\n      dup2\n        /* \"#utility.yul\":11551:11581   */\n      gt\n        /* \"#utility.yul\":11548:11604   */\n      iszero\n      tag_492\n      jumpi\n        /* \"#utility.yul\":11584:11602   */\n      tag_492\n      tag_395\n      jump\t// in\n    tag_492:\n        /* \"#utility.yul\":11613:11710   */\n      tag_493\n        /* \"#utility.yul\":11703:11709   */\n      dup2\n        /* \"#utility.yul\":11663:11701   */\n      tag_494\n        /* \"#utility.yul\":11695:11699   */\n      dup5\n        /* \"#utility.yul\":11689:11700   */\n      sload\n        /* \"#utility.yul\":11663:11701   */\n      tag_140\n      jump\t// in\n    tag_494:\n        /* \"#utility.yul\":11657:11661   */\n      dup5\n        /* \"#utility.yul\":11613:11710   */\n      tag_399\n      jump\t// in\n    tag_493:\n        /* \"#utility.yul\":11765:11769   */\n      0x20\n      dup1\n        /* \"#utility.yul\":11829:11831   */\n      0x1f\n        /* \"#utility.yul\":11818:11832   */\n      dup4\n      gt\n        /* \"#utility.yul\":11846:11847   */\n      0x01\n        /* \"#utility.yul\":11841:12504   */\n      dup2\n      eq\n      tag_496\n      jumpi\n        /* \"#utility.yul\":12548:12549   */\n      0x00\n        /* \"#utility.yul\":12565:12571   */\n      dup5\n        /* \"#utility.yul\":12562:12651   */\n      iszero\n      tag_497\n      jumpi\n      pop\n        /* \"#utility.yul\":12617:12636   */\n      dup6\n      dup4\n      add\n        /* \"#utility.yul\":12611:12637   */\n      mload\n        /* \"#utility.yul\":12562:12651   */\n    tag_497:\n      not(0x00)\n        /* \"#utility.yul\":11366:11367   */\n      0x03\n        /* \"#utility.yul\":11362:11373   */\n      dup7\n      swap1\n      shl\n        /* \"#utility.yul\":11358:11382   */\n      shr\n        /* \"#utility.yul\":11354:11383   */\n      not\n        /* \"#utility.yul\":11344:11384   */\n      and\n        /* \"#utility.yul\":11390:11391   */\n      0x01\n        /* \"#utility.yul\":11386:11397   */\n      dup6\n      swap1\n      shl\n        /* \"#utility.yul\":11341:11398   */\n      or\n        /* \"#utility.yul\":12664:12745   */\n      dup6\n      sstore\n        /* \"#utility.yul\":11811:12755   */\n      jump(tag_488)\n        /* \"#utility.yul\":11841:12504   */\n    tag_496:\n        /* \"#utility.yul\":10635:10636   */\n      0x00\n        /* \"#utility.yul\":10628:10642   */\n      dup6\n      dup2\n      mstore\n        /* \"#utility.yul\":10672:10676   */\n      0x20\n        /* \"#utility.yul\":10659:10677   */\n      dup2\n      keccak256\n      not(0x1f)\n        /* \"#utility.yul\":11877:11897   */\n      dup7\n      and\n      swap2\n        /* \"#utility.yul\":11995:12231   */\n    tag_500:\n        /* \"#utility.yul\":12009:12016   */\n      dup3\n        /* \"#utility.yul\":12006:12007   */\n      dup2\n        /* \"#utility.yul\":12003:12017   */\n      lt\n        /* \"#utility.yul\":11995:12231   */\n      iszero\n      tag_502\n      jumpi\n        /* \"#utility.yul\":12098:12117   */\n      dup9\n      dup7\n      add\n        /* \"#utility.yul\":12092:12118   */\n      mload\n        /* \"#utility.yul\":12077:12119   */\n      dup3\n      sstore\n        /* \"#utility.yul\":12190:12217   */\n      swap5\n      dup5\n      add\n      swap5\n        /* \"#utility.yul\":12158:12159   */\n      0x01\n        /* \"#utility.yul\":12146:12160   */\n      swap1\n      swap2\n      add\n      swap1\n        /* \"#utility.yul\":12025:12044   */\n      dup5\n      add\n        /* \"#utility.yul\":11995:12231   */\n      jump(tag_500)\n    tag_502:\n        /* \"#utility.yul\":11999:12002   */\n      pop\n        /* \"#utility.yul\":12259:12265   */\n      dup6\n        /* \"#utility.yul\":12250:12257   */\n      dup3\n        /* \"#utility.yul\":12247:12266   */\n      lt\n        /* \"#utility.yul\":12244:12445   */\n      iszero\n      tag_503\n      jumpi\n        /* \"#utility.yul\":12320:12339   */\n      dup8\n      dup6\n      add\n        /* \"#utility.yul\":12314:12340   */\n      mload\n      not(0x00)\n        /* \"#utility.yul\":12403:12404   */\n      0x03\n        /* \"#utility.yul\":12399:12413   */\n      dup9\n      swap1\n      shl\n        /* \"#utility.yul\":12415:12418   */\n      0xf8\n        /* \"#utility.yul\":12395:12419   */\n      and\n        /* \"#utility.yul\":12391:12428   */\n      shr\n        /* \"#utility.yul\":12387:12429   */\n      not\n        /* \"#utility.yul\":12372:12430   */\n      and\n        /* \"#utility.yul\":12357:12431   */\n      dup2\n      sstore\n        /* \"#utility.yul\":12244:12445   */\n    tag_503:\n      pop\n      pop\n      pop\n      pop\n      pop\n        /* \"#utility.yul\":12491:12492   */\n      0x01\n        /* \"#utility.yul\":12475:12489   */\n      swap1\n      dup2\n      shl\n        /* \"#utility.yul\":12471:12493   */\n      add\n        /* \"#utility.yul\":12458:12494   */\n      swap1\n      sstore\n      pop\n        /* \"#utility.yul\":11409:12761   */\n      jump\t// out\n    stop\n    data_98ee57057fe0a523e70b51608fd55a37ff53d47c3b8dac495a5f45d45157392f 8e1604a838d0f1a9b2cda14a099e4ceb08e966cc6e05e8296f67b02d61a79f09\n\n    auxdata: 0xa2646970667358221220fd8dc2c3c1b2351bf97e09140db095d0a999f44f127b4ed123c56265b49583d764736f6c63430008100033\n}\n",
				"bytecode": {
					"linkReferences": {},
					"object": "6080604052600060025534801561001557600080fd5b50600080546001600160a01b031916331790556121a5806100376000396000f3fe608060405234801561001057600080fd5b50600436106101375760003560e01c80638827b05f116100b8578063d32a04c71161007c578063d32a04c71461027a578063d45c8abf1461029b578063d49cb146146102ae578063e3f34371146102c1578063f2fde38b146102d4578063fd82e9dd146102e757600080fd5b80638827b05f146102135780638da5cb5b14610226578063b615c00a14610241578063c78a674114610254578063d2af71a61461026757600080fd5b80632e22eafe116100ff5780632e22eafe146101bd578063413896e4146101d05780637dcd61bd146101e3578063800f2234146101f657806383197ef01461020957600080fd5b806311a89a5f1461013c578063236df93c14610164578063294b4b6b1461018457806329cd6311146101975780632c3ce919146101aa575b600080fd5b61014f61014a366004611a13565b6102fa565b60405190151581526020015b60405180910390f35b610177610172366004611a5b565b61037f565b60405161015b9190611acb565b61014f610192366004611a13565b61093f565b61014f6101a5366004611ccd565b6109b8565b61014f6101b8366004611ccd565b610a40565b61014f6101cb366004611d1d565b610abb565b61014f6101de366004611ccd565b610b54565b61014f6101f1366004611d52565b610bcf565b61014f610204366004611ccd565b610d62565b610211610ddd565b005b61014f610221366004611a13565b610de8565b6000546040516001600160a01b03909116815260200161015b565b61014f61024f366004611efd565b610e63565b610177610262366004611efd565b611065565b61014f610275366004611ccd565b6115b6565b61028d610288366004611a5b565b611631565b60405190815260200161015b565b61014f6102a9366004611ccd565b6116c8565b61014f6102bc366004611ccd565b611743565b61014f6102cf366004611ccd565b6117be565b6102116102e2366004611f1f565b611839565b61028d6102f5366004611f41565b6118b2565b60008260008051602061215083398151915281146103335760405162461bcd60e51b815260040161032a90611f5a565b60405180910390fd5b848060011115801561034757506002548111155b6103635760405162461bcd60e51b815260040161032a90611fa1565b5050506000928352600160208190526040909320600201555090565b6103876119a9565b8160008051602061215083398151915281146103b55760405162461bcd60e51b815260040161032a90611f5a565b60015b60025481116108e0576000818152600160205260409020600301546001600160a01b038087169116036108ce5760008181526001602081815260409283902083516101808101855281548152928101549183019190915260028101549282019290925260038201546001600160a01b0316606082015260048201805491929160808401919061044690611fe5565b80601f016020809104026020016040519081016040528092919081815260200182805461047290611fe5565b80156104bf5780601f10610494576101008083540402835291602001916104bf565b820191906000526020600020905b8154815290600101906020018083116104a257829003601f168201915b505050505081526020016005820180546104d890611fe5565b80601f016020809104026020016040519081016040528092919081815260200182805461050490611fe5565b80156105515780601f1061052657610100808354040283529160200191610551565b820191906000526020600020905b81548152906001019060200180831161053457829003601f168201915b5050505050815260200160068201805461056a90611fe5565b80601f016020809104026020016040519081016040528092919081815260200182805461059690611fe5565b80156105e35780601f106105b8576101008083540402835291602001916105e3565b820191906000526020600020905b8154815290600101906020018083116105c657829003601f168201915b505050505081526020016007820180546105fc90611fe5565b80601f016020809104026020016040519081016040528092919081815260200182805461062890611fe5565b80156106755780601f1061064a57610100808354040283529160200191610675565b820191906000526020600020905b81548152906001019060200180831161065857829003601f168201915b5050505050815260200160088201805461068e90611fe5565b80601f01602080910402602001604051908101604052809291908181526020018280546106ba90611fe5565b80156107075780601f106106dc57610100808354040283529160200191610707565b820191906000526020600020905b8154815290600101906020018083116106ea57829003601f168201915b5050505050815260200160098201805461072090611fe5565b80601f016020809104026020016040519081016040528092919081815260200182805461074c90611fe5565b80156107995780601f1061076e57610100808354040283529160200191610799565b820191906000526020600020905b81548152906001019060200180831161077c57829003601f168201915b50505050508152602001600a820180546107b290611fe5565b80601f01602080910402602001604051908101604052809291908181526020018280546107de90611fe5565b801561082b5780601f106108005761010080835404028352916020019161082b565b820191906000526020600020905b81548152906001019060200180831161080e57829003601f168201915b50505050508152602001600b8201805461084490611fe5565b80601f016020809104026020016040519081016040528092919081815260200182805461087090611fe5565b80156108bd5780601f10610892576101008083540402835291602001916108bd565b820191906000526020600020905b8154815290600101906020018083116108a057829003601f168201915b505050505081525050925050610938565b806108d881612019565b9150506103b8565b5060405162461bcd60e51b815260206004820152602660248201527f4461746162617365204c697374456d706c6f7965653a20496e76616c6964206160448201526564647265737360d01b606482015260840161032a565b5092915050565b600082600080516020612150833981519152811461096f5760405162461bcd60e51b815260040161032a90611f5a565b848060011115801561098357506002548111155b61099f5760405162461bcd60e51b815260040161032a90611fa1565b5050506000928352600160208190526040909320555090565b60008260008051602061215083398151915281146109e85760405162461bcd60e51b815260040161032a90611f5a565b84806001111580156109fc57506002548111155b610a185760405162461bcd60e51b815260040161032a90611fa1565b6000868152600160205260409020600701610a33858261208f565b5060019695505050505050565b6000826000805160206121508339815191528114610a705760405162461bcd60e51b815260040161032a90611f5a565b8480600111158015610a8457506002548111155b610aa05760405162461bcd60e51b815260040161032a90611fa1565b6000868152600160205260409020600b01610a33858261208f565b6000826000805160206121508339815191528114610aeb5760405162461bcd60e51b815260040161032a90611f5a565b8480600111158015610aff57506002548111155b610b1b5760405162461bcd60e51b815260040161032a90611fa1565b505050600092835260016020819052604090932060030180546001600160a01b0319166001600160a01b03929092169190911790555090565b6000826000805160206121508339815191528114610b845760405162461bcd60e51b815260040161032a90611f5a565b8480600111158015610b9857506002548111155b610bb45760405162461bcd60e51b815260040161032a90611fa1565b6000868152600160205260409020600401610a33858261208f565b6000816000805160206121508339815191528114610bff5760405162461bcd60e51b815260040161032a90611f5a565b60028054906000610c0f83612019565b9091555050600280546020868101828152600092835260019182905260409283902088518155905191810191909155908601519181019190915560608501516003820180546001600160a01b0319166001600160a01b0390921691909117905560808501518591906004820190610c86908261208f565b5060a08201516005820190610c9b908261208f565b5060c08201516006820190610cb0908261208f565b5060e08201516007820190610cc5908261208f565b506101008201516008820190610cdb908261208f565b506101208201516009820190610cf1908261208f565b50610140820151600a820190610d07908261208f565b50610160820151600b820190610d1d908261208f565b509050507f909ad77f22e0c92af47eb3f445c01071af38cca1b24a4204c243f9d6421568f484604051610d509190611acb565b60405180910390a15060019392505050565b6000826000805160206121508339815191528114610d925760405162461bcd60e51b815260040161032a90611f5a565b8480600111158015610da657506002548111155b610dc25760405162461bcd60e51b815260040161032a90611fa1565b6000868152600160205260409020600a01610a33858261208f565b610de56118ee565b30ff5b6000826000805160206121508339815191528114610e185760405162461bcd60e51b815260040161032a90611f5a565b8480600111158015610e2c57506002548111155b610e485760405162461bcd60e51b815260040161032a90611fa1565b50505060009283526001602081905260409093208301555090565b6000816000805160206121508339815191528114610e935760405162461bcd60e51b815260040161032a90611f5a565b8380600111158015610ea757506002548111155b610ec35760405162461bcd60e51b815260040161032a90611fa1565b6040805161018081018252600080825260208083018281528385018381526060850184815286518085018852858152608087019081528751808601895286815260a08801528751808601895286815260c08801528751808601895286815260e0880152875180860189528681526101008801528751808601895286815261012088015287518086018952868152610140880152875180860189528681526101608801528c865260019485905296909420855181559151928201929092559051600282015590516003820180546001600160a01b0319166001600160a01b039092169190911790559151909182916004820190610fbf908261208f565b5060a08201516005820190610fd4908261208f565b5060c08201516006820190610fe9908261208f565b5060e08201516007820190610ffe908261208f565b506101008201516008820190611014908261208f565b50610120820151600982019061102a908261208f565b50610140820151600a820190611040908261208f565b50610160820151600b820190611056908261208f565b50600198975050505050505050565b61106d6119a9565b81600080516020612150833981519152811461109b5760405162461bcd60e51b815260040161032a90611f5a565b83806001111580156110af57506002548111155b6110cb5760405162461bcd60e51b815260040161032a90611fa1565b60008581526001602081815260409283902083516101808101855281548152928101549183019190915260028101549282019290925260038201546001600160a01b0316606082015260048201805491929160808401919061112c90611fe5565b80601f016020809104026020016040519081016040528092919081815260200182805461115890611fe5565b80156111a55780601f1061117a576101008083540402835291602001916111a5565b820191906000526020600020905b81548152906001019060200180831161118857829003601f168201915b505050505081526020016005820180546111be90611fe5565b80601f01602080910402602001604051908101604052809291908181526020018280546111ea90611fe5565b80156112375780601f1061120c57610100808354040283529160200191611237565b820191906000526020600020905b81548152906001019060200180831161121a57829003601f168201915b5050505050815260200160068201805461125090611fe5565b80601f016020809104026020016040519081016040528092919081815260200182805461127c90611fe5565b80156112c95780601f1061129e576101008083540402835291602001916112c9565b820191906000526020600020905b8154815290600101906020018083116112ac57829003601f168201915b505050505081526020016007820180546112e290611fe5565b80601f016020809104026020016040519081016040528092919081815260200182805461130e90611fe5565b801561135b5780601f106113305761010080835404028352916020019161135b565b820191906000526020600020905b81548152906001019060200180831161133e57829003601f168201915b5050505050815260200160088201805461137490611fe5565b80601f01602080910402602001604051908101604052809291908181526020018280546113a090611fe5565b80156113ed5780601f106113c2576101008083540402835291602001916113ed565b820191906000526020600020905b8154815290600101906020018083116113d057829003601f168201915b5050505050815260200160098201805461140690611fe5565b80601f016020809104026020016040519081016040528092919081815260200182805461143290611fe5565b801561147f5780601f106114545761010080835404028352916020019161147f565b820191906000526020600020905b81548152906001019060200180831161146257829003601f168201915b50505050508152602001600a8201805461149890611fe5565b80601f01602080910402602001604051908101604052809291908181526020018280546114c490611fe5565b80156115115780601f106114e657610100808354040283529160200191611511565b820191906000526020600020905b8154815290600101906020018083116114f457829003601f168201915b50505050508152602001600b8201805461152a90611fe5565b80601f016020809104026020016040519081016040528092919081815260200182805461155690611fe5565b80156115a35780601f10611578576101008083540402835291602001916115a3565b820191906000526020600020905b81548152906001019060200180831161158657829003601f168201915b5050505050815250509250505092915050565b60008260008051602061215083398151915281146115e65760405162461bcd60e51b815260040161032a90611f5a565b84806001111580156115fa57506002548111155b6116165760405162461bcd60e51b815260040161032a90611fa1565b6000868152600160205260409020600801610a33858261208f565b60008160008051602061215083398151915281146116615760405162461bcd60e51b815260040161032a90611f5a565b60015b60025481116116bd576000818152600160205260409020600301546001600160a01b038087169116036116ab57600090815260016020819052604090912001549150610938565b806116b581612019565b915050611664565b506000949350505050565b60008260008051602061215083398151915281146116f85760405162461bcd60e51b815260040161032a90611f5a565b848060011115801561170c57506002548111155b6117285760405162461bcd60e51b815260040161032a90611fa1565b6000868152600160205260409020600901610a33858261208f565b60008260008051602061215083398151915281146117735760405162461bcd60e51b815260040161032a90611f5a565b848060011115801561178757506002548111155b6117a35760405162461bcd60e51b815260040161032a90611fa1565b6000868152600160205260409020600501610a33858261208f565b60008260008051602061215083398151915281146117ee5760405162461bcd60e51b815260040161032a90611f5a565b848060011115801561180257506002548111155b61181e5760405162461bcd60e51b815260040161032a90611fa1565b6000868152600160205260409020600601610a33858261208f565b6118416118ee565b6001600160a01b0381166118a65760405162461bcd60e51b815260206004820152602660248201527f4f776e61626c653a206e6577206f776e657220697320746865207a65726f206160448201526564647265737360d01b606482015260840161032a565b6118af81611959565b50565b60008160008051602061215083398151915281146118e25760405162461bcd60e51b815260040161032a90611f5a565b60025491505b50919050565b336119016000546001600160a01b031690565b6001600160a01b0316146119575760405162461bcd60e51b815260206004820181905260248201527f4f776e61626c653a2063616c6c6572206973206e6f7420746865206f776e6572604482015260640161032a565b565b600080546001600160a01b038381166001600160a01b0319831681178455604051919092169283917f8be0079c531659141344cd1fd0a4f28419497f9722a3daafe3b4186f6b6457e09190a35050565b60405180610180016040528060008152602001600081526020016000815260200160006001600160a01b0316815260200160608152602001606081526020016060815260200160608152602001606081526020016060815260200160608152602001606081525090565b600080600060608486031215611a2857600080fd5b505081359360208301359350604090920135919050565b80356001600160a01b0381168114611a5657600080fd5b919050565b60008060408385031215611a6e57600080fd5b611a7783611a3f565b946020939093013593505050565b6000815180845260005b81811015611aab57602081850181015186830182015201611a8f565b506000602082860101526020601f19601f83011685010191505092915050565b6020815281516020820152602082015160408201526040820151606082015260006060830151611b0660808401826001600160a01b03169052565b5060808301516101808060a0850152611b236101a0850183611a85565b915060a0850151601f19808685030160c0870152611b418483611a85565b935060c08701519150808685030160e0870152611b5e8483611a85565b935060e08701519150610100818786030181880152611b7d8584611a85565b945080880151925050610120818786030181880152611b9c8584611a85565b945080880151925050610140818786030181880152611bbb8584611a85565b945080880151925050610160818786030181880152611bda8584611a85565b908801518782039092018488015293509050611bf68382611a85565b9695505050505050565b634e487b7160e01b600052604160045260246000fd5b604051610180810167ffffffffffffffff81118282101715611c3a57611c3a611c00565b60405290565b600082601f830112611c5157600080fd5b813567ffffffffffffffff80821115611c6c57611c6c611c00565b604051601f8301601f19908116603f01168101908282118183101715611c9457611c94611c00565b81604052838152866020858801011115611cad57600080fd5b836020870160208301376000602085830101528094505050505092915050565b600080600060608486031215611ce257600080fd5b8335925060208401359150604084013567ffffffffffffffff811115611d0757600080fd5b611d1386828701611c40565b9150509250925092565b600080600060608486031215611d3257600080fd5b8335925060208401359150611d4960408501611a3f565b90509250925092565b60008060408385031215611d6557600080fd5b823567ffffffffffffffff80821115611d7d57600080fd5b908401906101808287031215611d9257600080fd5b611d9a611c16565b823581526020830135602082015260408301356040820152611dbe60608401611a3f565b6060820152608083013582811115611dd557600080fd5b611de188828601611c40565b60808301525060a083013582811115611df957600080fd5b611e0588828601611c40565b60a08301525060c083013582811115611e1d57600080fd5b611e2988828601611c40565b60c08301525060e083013582811115611e4157600080fd5b611e4d88828601611c40565b60e0830152506101008084013583811115611e6757600080fd5b611e7389828701611c40565b8284015250506101208084013583811115611e8d57600080fd5b611e9989828701611c40565b8284015250506101408084013583811115611eb357600080fd5b611ebf89828701611c40565b8284015250506101608084013583811115611ed957600080fd5b611ee589828701611c40565b91830191909152509660209590950135955050505050565b60008060408385031215611f1057600080fd5b50508035926020909101359150565b600060208284031215611f3157600080fd5b611f3a82611a3f565b9392505050565b600060208284031215611f5357600080fd5b5035919050565b60208082526027908201527f4461746162617365204c697374456d706c6f7965653a20536563726574206b656040820152663c9032b93937b960c91b606082015260800190565b60208082526024908201527f4461746162617365204c697374456d706c6f7965653a20496e76616c696420696040820152630dcc8caf60e31b606082015260800190565b600181811c90821680611ff957607f821691505b6020821081036118e857634e487b7160e01b600052602260045260246000fd5b60006001820161203957634e487b7160e01b600052601160045260246000fd5b5060010190565b601f82111561208a57600081815260208120601f850160051c810160208610156120675750805b601f850160051c820191505b8181101561208657828155600101612073565b5050505b505050565b815167ffffffffffffffff8111156120a9576120a9611c00565b6120bd816120b78454611fe5565b84612040565b602080601f8311600181146120f257600084156120da5750858301515b600019600386901b1c1916600185901b178555612086565b600085815260208120601f198616915b8281101561212157888601518255948401946001909101908401612102565b508582101561213f5787850151600019600388901b60f8161c191681555b5050505050600190811b0190555056fe8e1604a838d0f1a9b2cda14a099e4ceb08e966cc6e05e8296f67b02d61a79f09a2646970667358221220fd8dc2c3c1b2351bf97e09140db095d0a999f44f127b4ed123c56265b49583d764736f6c63430008100033",
					"opcodes": "PUSH1 0x80 PUSH1 0x40 MSTORE PUSH1 0x0 PUSH1 0x2 SSTORE CALLVALUE DUP1 ISZERO PUSH2 0x15 JUMPI PUSH1 0x0 DUP1 REVERT JUMPDEST POP PUSH1 0x0 DUP1 SLOAD PUSH1 0x1 PUSH1 0x1 PUSH1 0xA0 SHL SUB NOT AND CALLER OR SWAP1 SSTORE PUSH2 0x21A5 DUP1 PUSH2 0x37 PUSH1 0x0 CODECOPY PUSH1 0x0 RETURN INVALID PUSH1 0x80 PUSH1 0x40 MSTORE CALLVALUE DUP1 ISZERO PUSH2 0x10 JUMPI PUSH1 0x0 DUP1 REVERT JUMPDEST POP PUSH1 0x4 CALLDATASIZE LT PUSH2 0x137 JUMPI PUSH1 0x0 CALLDATALOAD PUSH1 0xE0 SHR DUP1 PUSH4 0x8827B05F GT PUSH2 0xB8 JUMPI DUP1 PUSH4 0xD32A04C7 GT PUSH2 0x7C JUMPI DUP1 PUSH4 0xD32A04C7 EQ PUSH2 0x27A JUMPI DUP1 PUSH4 0xD45C8ABF EQ PUSH2 0x29B JUMPI DUP1 PUSH4 0xD49CB146 EQ PUSH2 0x2AE JUMPI DUP1 PUSH4 0xE3F34371 EQ PUSH2 0x2C1 JUMPI DUP1 PUSH4 0xF2FDE38B EQ PUSH2 0x2D4 JUMPI DUP1 PUSH4 0xFD82E9DD EQ PUSH2 0x2E7 JUMPI PUSH1 0x0 DUP1 REVERT JUMPDEST DUP1 PUSH4 0x8827B05F EQ PUSH2 0x213 JUMPI DUP1 PUSH4 0x8DA5CB5B EQ PUSH2 0x226 JUMPI DUP1 PUSH4 0xB615C00A EQ PUSH2 0x241 JUMPI DUP1 PUSH4 0xC78A6741 EQ PUSH2 0x254 JUMPI DUP1 PUSH4 0xD2AF71A6 EQ PUSH2 0x267 JUMPI PUSH1 0x0 DUP1 REVERT JUMPDEST DUP1 PUSH4 0x2E22EAFE GT PUSH2 0xFF JUMPI DUP1 PUSH4 0x2E22EAFE EQ PUSH2 0x1BD JUMPI DUP1 PUSH4 0x413896E4 EQ PUSH2 0x1D0 JUMPI DUP1 PUSH4 0x7DCD61BD EQ PUSH2 0x1E3 JUMPI DUP1 PUSH4 0x800F2234 EQ PUSH2 0x1F6 JUMPI DUP1 PUSH4 0x83197EF0 EQ PUSH2 0x209 JUMPI PUSH1 0x0 DUP1 REVERT JUMPDEST DUP1 PUSH4 0x11A89A5F EQ PUSH2 0x13C JUMPI DUP1 PUSH4 0x236DF93C EQ PUSH2 0x164 JUMPI DUP1 PUSH4 0x294B4B6B EQ PUSH2 0x184 JUMPI DUP1 PUSH4 0x29CD6311 EQ PUSH2 0x197 JUMPI DUP1 PUSH4 0x2C3CE919 EQ PUSH2 0x1AA JUMPI JUMPDEST PUSH1 0x0 DUP1 REVERT JUMPDEST PUSH2 0x14F PUSH2 0x14A CALLDATASIZE PUSH1 0x4 PUSH2 0x1A13 JUMP JUMPDEST PUSH2 0x2FA JUMP JUMPDEST PUSH1 0x40 MLOAD SWAP1 ISZERO ISZERO DUP2 MSTORE PUSH1 0x20 ADD JUMPDEST PUSH1 0x40 MLOAD DUP1 SWAP2 SUB SWAP1 RETURN JUMPDEST PUSH2 0x177 PUSH2 0x172 CALLDATASIZE PUSH1 0x4 PUSH2 0x1A5B JUMP JUMPDEST PUSH2 0x37F JUMP JUMPDEST PUSH1 0x40 MLOAD PUSH2 0x15B SWAP2 SWAP1 PUSH2 0x1ACB JUMP JUMPDEST PUSH2 0x14F PUSH2 0x192 CALLDATASIZE PUSH1 0x4 PUSH2 0x1A13 JUMP JUMPDEST PUSH2 0x93F JUMP JUMPDEST PUSH2 0x14F PUSH2 0x1A5 CALLDATASIZE PUSH1 0x4 PUSH2 0x1CCD JUMP JUMPDEST PUSH2 0x9B8 JUMP JUMPDEST PUSH2 0x14F PUSH2 0x1B8 CALLDATASIZE PUSH1 0x4 PUSH2 0x1CCD JUMP JUMPDEST PUSH2 0xA40 JUMP JUMPDEST PUSH2 0x14F PUSH2 0x1CB CALLDATASIZE PUSH1 0x4 PUSH2 0x1D1D JUMP JUMPDEST PUSH2 0xABB JUMP JUMPDEST PUSH2 0x14F PUSH2 0x1DE CALLDATASIZE PUSH1 0x4 PUSH2 0x1CCD JUMP JUMPDEST PUSH2 0xB54 JUMP JUMPDEST PUSH2 0x14F PUSH2 0x1F1 CALLDATASIZE PUSH1 0x4 PUSH2 0x1D52 JUMP JUMPDEST PUSH2 0xBCF JUMP JUMPDEST PUSH2 0x14F PUSH2 0x204 CALLDATASIZE PUSH1 0x4 PUSH2 0x1CCD JUMP JUMPDEST PUSH2 0xD62 JUMP JUMPDEST PUSH2 0x211 PUSH2 0xDDD JUMP JUMPDEST STOP JUMPDEST PUSH2 0x14F PUSH2 0x221 CALLDATASIZE PUSH1 0x4 PUSH2 0x1A13 JUMP JUMPDEST PUSH2 0xDE8 JUMP JUMPDEST PUSH1 0x0 SLOAD PUSH1 0x40 MLOAD PUSH1 0x1 PUSH1 0x1 PUSH1 0xA0 SHL SUB SWAP1 SWAP2 AND DUP2 MSTORE PUSH1 0x20 ADD PUSH2 0x15B JUMP JUMPDEST PUSH2 0x14F PUSH2 0x24F CALLDATASIZE PUSH1 0x4 PUSH2 0x1EFD JUMP JUMPDEST PUSH2 0xE63 JUMP JUMPDEST PUSH2 0x177 PUSH2 0x262 CALLDATASIZE PUSH1 0x4 PUSH2 0x1EFD JUMP JUMPDEST PUSH2 0x1065 JUMP JUMPDEST PUSH2 0x14F PUSH2 0x275 CALLDATASIZE PUSH1 0x4 PUSH2 0x1CCD JUMP JUMPDEST PUSH2 0x15B6 JUMP JUMPDEST PUSH2 0x28D PUSH2 0x288 CALLDATASIZE PUSH1 0x4 PUSH2 0x1A5B JUMP JUMPDEST PUSH2 0x1631 JUMP JUMPDEST PUSH1 0x40 MLOAD SWAP1 DUP2 MSTORE PUSH1 0x20 ADD PUSH2 0x15B JUMP JUMPDEST PUSH2 0x14F PUSH2 0x2A9 CALLDATASIZE PUSH1 0x4 PUSH2 0x1CCD JUMP JUMPDEST PUSH2 0x16C8 JUMP JUMPDEST PUSH2 0x14F PUSH2 0x2BC CALLDATASIZE PUSH1 0x4 PUSH2 0x1CCD JUMP JUMPDEST PUSH2 0x1743 JUMP JUMPDEST PUSH2 0x14F PUSH2 0x2CF CALLDATASIZE PUSH1 0x4 PUSH2 0x1CCD JUMP JUMPDEST PUSH2 0x17BE JUMP JUMPDEST PUSH2 0x211 PUSH2 0x2E2 CALLDATASIZE PUSH1 0x4 PUSH2 0x1F1F JUMP JUMPDEST PUSH2 0x1839 JUMP JUMPDEST PUSH2 0x28D PUSH2 0x2F5 CALLDATASIZE PUSH1 0x4 PUSH2 0x1F41 JUMP JUMPDEST PUSH2 0x18B2 JUMP JUMPDEST PUSH1 0x0 DUP3 PUSH1 0x0 DUP1 MLOAD PUSH1 0x20 PUSH2 0x2150 DUP4 CODECOPY DUP2 MLOAD SWAP2 MSTORE DUP2 EQ PUSH2 0x333 JUMPI PUSH1 0x40 MLOAD PUSH3 0x461BCD PUSH1 0xE5 SHL DUP2 MSTORE PUSH1 0x4 ADD PUSH2 0x32A SWAP1 PUSH2 0x1F5A JUMP JUMPDEST PUSH1 0x40 MLOAD DUP1 SWAP2 SUB SWAP1 REVERT JUMPDEST DUP5 DUP1 PUSH1 0x1 GT ISZERO DUP1 ISZERO PUSH2 0x347 JUMPI POP PUSH1 0x2 SLOAD DUP2 GT ISZERO JUMPDEST PUSH2 0x363 JUMPI PUSH1 0x40 MLOAD PUSH3 0x461BCD PUSH1 0xE5 SHL DUP2 MSTORE PUSH1 0x4 ADD PUSH2 0x32A SWAP1 PUSH2 0x1FA1 JUMP JUMPDEST POP POP POP PUSH1 0x0 SWAP3 DUP4 MSTORE PUSH1 0x1 PUSH1 0x20 DUP2 SWAP1 MSTORE PUSH1 0x40 SWAP1 SWAP4 KECCAK256 PUSH1 0x2 ADD SSTORE POP SWAP1 JUMP JUMPDEST PUSH2 0x387 PUSH2 0x19A9 JUMP JUMPDEST DUP2 PUSH1 0x0 DUP1 MLOAD PUSH1 0x20 PUSH2 0x2150 DUP4 CODECOPY DUP2 MLOAD SWAP2 MSTORE DUP2 EQ PUSH2 0x3B5 JUMPI PUSH1 0x40 MLOAD PUSH3 0x461BCD PUSH1 0xE5 SHL DUP2 MSTORE PUSH1 0x4 ADD PUSH2 0x32A SWAP1 PUSH2 0x1F5A JUMP JUMPDEST PUSH1 0x1 JUMPDEST PUSH1 0x2 SLOAD DUP2 GT PUSH2 0x8E0 JUMPI PUSH1 0x0 DUP2 DUP2 MSTORE PUSH1 0x1 PUSH1 0x20 MSTORE PUSH1 0x40 SWAP1 KECCAK256 PUSH1 0x3 ADD SLOAD PUSH1 0x1 PUSH1 0x1 PUSH1 0xA0 SHL SUB DUP1 DUP8 AND SWAP2 AND SUB PUSH2 0x8CE JUMPI PUSH1 0x0 DUP2 DUP2 MSTORE PUSH1 0x1 PUSH1 0x20 DUP2 DUP2 MSTORE PUSH1 0x40 SWAP3 DUP4 SWAP1 KECCAK256 DUP4 MLOAD PUSH2 0x180 DUP2 ADD DUP6 MSTORE DUP2 SLOAD DUP2 MSTORE SWAP3 DUP2 ADD SLOAD SWAP2 DUP4 ADD SWAP2 SWAP1 SWAP2 MSTORE PUSH1 0x2 DUP2 ADD SLOAD SWAP3 DUP3 ADD SWAP3 SWAP1 SWAP3 MSTORE PUSH1 0x3 DUP3 ADD SLOAD PUSH1 0x1 PUSH1 0x1 PUSH1 0xA0 SHL SUB AND PUSH1 0x60 DUP3 ADD MSTORE PUSH1 0x4 DUP3 ADD DUP1 SLOAD SWAP2 SWAP3 SWAP2 PUSH1 0x80 DUP5 ADD SWAP2 SWAP1 PUSH2 0x446 SWAP1 PUSH2 0x1FE5 JUMP JUMPDEST DUP1 PUSH1 0x1F ADD PUSH1 0x20 DUP1 SWAP2 DIV MUL PUSH1 0x20 ADD PUSH1 0x40 MLOAD SWAP1 DUP2 ADD PUSH1 0x40 MSTORE DUP1 SWAP3 SWAP2 SWAP1 DUP2 DUP2 MSTORE PUSH1 0x20 ADD DUP3 DUP1 SLOAD PUSH2 0x472 SWAP1 PUSH2 0x1FE5 JUMP JUMPDEST DUP1 ISZERO PUSH2 0x4BF JUMPI DUP1 PUSH1 0x1F LT PUSH2 0x494 JUMPI PUSH2 0x100 DUP1 DUP4 SLOAD DIV MUL DUP4 MSTORE SWAP2 PUSH1 0x20 ADD SWAP2 PUSH2 0x4BF JUMP JUMPDEST DUP3 ADD SWAP2 SWAP1 PUSH1 0x0 MSTORE PUSH1 0x20 PUSH1 0x0 KECCAK256 SWAP1 JUMPDEST DUP2 SLOAD DUP2 MSTORE SWAP1 PUSH1 0x1 ADD SWAP1 PUSH1 0x20 ADD DUP1 DUP4 GT PUSH2 0x4A2 JUMPI DUP3 SWAP1 SUB PUSH1 0x1F AND DUP3 ADD SWAP2 JUMPDEST POP POP POP POP POP DUP2 MSTORE PUSH1 0x20 ADD PUSH1 0x5 DUP3 ADD DUP1 SLOAD PUSH2 0x4D8 SWAP1 PUSH2 0x1FE5 JUMP JUMPDEST DUP1 PUSH1 0x1F ADD PUSH1 0x20 DUP1 SWAP2 DIV MUL PUSH1 0x20 ADD PUSH1 0x40 MLOAD SWAP1 DUP2 ADD PUSH1 0x40 MSTORE DUP1 SWAP3 SWAP2 SWAP1 DUP2 DUP2 MSTORE PUSH1 0x20 ADD DUP3 DUP1 SLOAD PUSH2 0x504 SWAP1 PUSH2 0x1FE5 JUMP JUMPDEST DUP1 ISZERO PUSH2 0x551 JUMPI DUP1 PUSH1 0x1F LT PUSH2 0x526 JUMPI PUSH2 0x100 DUP1 DUP4 SLOAD DIV MUL DUP4 MSTORE SWAP2 PUSH1 0x20 ADD SWAP2 PUSH2 0x551 JUMP JUMPDEST DUP3 ADD SWAP2 SWAP1 PUSH1 0x0 MSTORE PUSH1 0x20 PUSH1 0x0 KECCAK256 SWAP1 JUMPDEST DUP2 SLOAD DUP2 MSTORE SWAP1 PUSH1 0x1 ADD SWAP1 PUSH1 0x20 ADD DUP1 DUP4 GT PUSH2 0x534 JUMPI DUP3 SWAP1 SUB PUSH1 0x1F AND DUP3 ADD SWAP2 JUMPDEST POP POP POP POP POP DUP2 MSTORE PUSH1 0x20 ADD PUSH1 0x6 DUP3 ADD DUP1 SLOAD PUSH2 0x56A SWAP1 PUSH2 0x1FE5 JUMP JUMPDEST DUP1 PUSH1 0x1F ADD PUSH1 0x20 DUP1 SWAP2 DIV MUL PUSH1 0x20 ADD PUSH1 0x40 MLOAD SWAP1 DUP2 ADD PUSH1 0x40 MSTORE DUP1 SWAP3 SWAP2 SWAP1 DUP2 DUP2 MSTORE PUSH1 0x20 ADD DUP3 DUP1 SLOAD PUSH2 0x596 SWAP1 PUSH2 0x1FE5 JUMP JUMPDEST DUP1 ISZERO PUSH2 0x5E3 JUMPI DUP1 PUSH1 0x1F LT PUSH2 0x5B8 JUMPI PUSH2 0x100 DUP1 DUP4 SLOAD DIV MUL DUP4 MSTORE SWAP2 PUSH1 0x20 ADD SWAP2 PUSH2 0x5E3 JUMP JUMPDEST DUP3 ADD SWAP2 SWAP1 PUSH1 0x0 MSTORE PUSH1 0x20 PUSH1 0x0 KECCAK256 SWAP1 JUMPDEST DUP2 SLOAD DUP2 MSTORE SWAP1 PUSH1 0x1 ADD SWAP1 PUSH1 0x20 ADD DUP1 DUP4 GT PUSH2 0x5C6 JUMPI DUP3 SWAP1 SUB PUSH1 0x1F AND DUP3 ADD SWAP2 JUMPDEST POP POP POP POP POP DUP2 MSTORE PUSH1 0x20 ADD PUSH1 0x7 DUP3 ADD DUP1 SLOAD PUSH2 0x5FC SWAP1 PUSH2 0x1FE5 JUMP JUMPDEST DUP1 PUSH1 0x1F ADD PUSH1 0x20 DUP1 SWAP2 DIV MUL PUSH1 0x20 ADD PUSH1 0x40 MLOAD SWAP1 DUP2 ADD PUSH1 0x40 MSTORE DUP1 SWAP3 SWAP2 SWAP1 DUP2 DUP2 MSTORE PUSH1 0x20 ADD DUP3 DUP1 SLOAD PUSH2 0x628 SWAP1 PUSH2 0x1FE5 JUMP JUMPDEST DUP1 ISZERO PUSH2 0x675 JUMPI DUP1 PUSH1 0x1F LT PUSH2 0x64A JUMPI PUSH2 0x100 DUP1 DUP4 SLOAD DIV MUL DUP4 MSTORE SWAP2 PUSH1 0x20 ADD SWAP2 PUSH2 0x675 JUMP JUMPDEST DUP3 ADD SWAP2 SWAP1 PUSH1 0x0 MSTORE PUSH1 0x20 PUSH1 0x0 KECCAK256 SWAP1 JUMPDEST DUP2 SLOAD DUP2 MSTORE SWAP1 PUSH1 0x1 ADD SWAP1 PUSH1 0x20 ADD DUP1 DUP4 GT PUSH2 0x658 JUMPI DUP3 SWAP1 SUB PUSH1 0x1F AND DUP3 ADD SWAP2 JUMPDEST POP POP POP POP POP DUP2 MSTORE PUSH1 0x20 ADD PUSH1 0x8 DUP3 ADD DUP1 SLOAD PUSH2 0x68E SWAP1 PUSH2 0x1FE5 JUMP JUMPDEST DUP1 PUSH1 0x1F ADD PUSH1 0x20 DUP1 SWAP2 DIV MUL PUSH1 0x20 ADD PUSH1 0x40 MLOAD SWAP1 DUP2 ADD PUSH1 0x40 MSTORE DUP1 SWAP3 SWAP2 SWAP1 DUP2 DUP2 MSTORE PUSH1 0x20 ADD DUP3 DUP1 SLOAD PUSH2 0x6BA SWAP1 PUSH2 0x1FE5 JUMP JUMPDEST DUP1 ISZERO PUSH2 0x707 JUMPI DUP1 PUSH1 0x1F LT PUSH2 0x6DC JUMPI PUSH2 0x100 DUP1 DUP4 SLOAD DIV MUL DUP4 MSTORE SWAP2 PUSH1 0x20 ADD SWAP2 PUSH2 0x707 JUMP JUMPDEST DUP3 ADD SWAP2 SWAP1 PUSH1 0x0 MSTORE PUSH1 0x20 PUSH1 0x0 KECCAK256 SWAP1 JUMPDEST DUP2 SLOAD DUP2 MSTORE SWAP1 PUSH1 0x1 ADD SWAP1 PUSH1 0x20 ADD DUP1 DUP4 GT PUSH2 0x6EA JUMPI DUP3 SWAP1 SUB PUSH1 0x1F AND DUP3 ADD SWAP2 JUMPDEST POP POP POP POP POP DUP2 MSTORE PUSH1 0x20 ADD PUSH1 0x9 DUP3 ADD DUP1 SLOAD PUSH2 0x720 SWAP1 PUSH2 0x1FE5 JUMP JUMPDEST DUP1 PUSH1 0x1F ADD PUSH1 0x20 DUP1 SWAP2 DIV MUL PUSH1 0x20 ADD PUSH1 0x40 MLOAD SWAP1 DUP2 ADD PUSH1 0x40 MSTORE DUP1 SWAP3 SWAP2 SWAP1 DUP2 DUP2 MSTORE PUSH1 0x20 ADD DUP3 DUP1 SLOAD PUSH2 0x74C SWAP1 PUSH2 0x1FE5 JUMP JUMPDEST DUP1 ISZERO PUSH2 0x799 JUMPI DUP1 PUSH1 0x1F LT PUSH2 0x76E JUMPI PUSH2 0x100 DUP1 DUP4 SLOAD DIV MUL DUP4 MSTORE SWAP2 PUSH1 0x20 ADD SWAP2 PUSH2 0x799 JUMP JUMPDEST DUP3 ADD SWAP2 SWAP1 PUSH1 0x0 MSTORE PUSH1 0x20 PUSH1 0x0 KECCAK256 SWAP1 JUMPDEST DUP2 SLOAD DUP2 MSTORE SWAP1 PUSH1 0x1 ADD SWAP1 PUSH1 0x20 ADD DUP1 DUP4 GT PUSH2 0x77C JUMPI DUP3 SWAP1 SUB PUSH1 0x1F AND DUP3 ADD SWAP2 JUMPDEST POP POP POP POP POP DUP2 MSTORE PUSH1 0x20 ADD PUSH1 0xA DUP3 ADD DUP1 SLOAD PUSH2 0x7B2 SWAP1 PUSH2 0x1FE5 JUMP JUMPDEST DUP1 PUSH1 0x1F ADD PUSH1 0x20 DUP1 SWAP2 DIV MUL PUSH1 0x20 ADD PUSH1 0x40 MLOAD SWAP1 DUP2 ADD PUSH1 0x40 MSTORE DUP1 SWAP3 SWAP2 SWAP1 DUP2 DUP2 MSTORE PUSH1 0x20 ADD DUP3 DUP1 SLOAD PUSH2 0x7DE SWAP1 PUSH2 0x1FE5 JUMP JUMPDEST DUP1 ISZERO PUSH2 0x82B JUMPI DUP1 PUSH1 0x1F LT PUSH2 0x800 JUMPI PUSH2 0x100 DUP1 DUP4 SLOAD DIV MUL DUP4 MSTORE SWAP2 PUSH1 0x20 ADD SWAP2 PUSH2 0x82B JUMP JUMPDEST DUP3 ADD SWAP2 SWAP1 PUSH1 0x0 MSTORE PUSH1 0x20 PUSH1 0x0 KECCAK256 SWAP1 JUMPDEST DUP2 SLOAD DUP2 MSTORE SWAP1 PUSH1 0x1 ADD SWAP1 PUSH1 0x20 ADD DUP1 DUP4 GT PUSH2 0x80E JUMPI DUP3 SWAP1 SUB PUSH1 0x1F AND DUP3 ADD SWAP2 JUMPDEST POP POP POP POP POP DUP2 MSTORE PUSH1 0x20 ADD PUSH1 0xB DUP3 ADD DUP1 SLOAD PUSH2 0x844 SWAP1 PUSH2 0x1FE5 JUMP JUMPDEST DUP1 PUSH1 0x1F ADD PUSH1 0x20 DUP1 SWAP2 DIV MUL PUSH1 0x20 ADD PUSH1 0x40 MLOAD SWAP1 DUP2 ADD PUSH1 0x40 MSTORE DUP1 SWAP3 SWAP2 SWAP1 DUP2 DUP2 MSTORE PUSH1 0x20 ADD DUP3 DUP1 SLOAD PUSH2 0x870 SWAP1 PUSH2 0x1FE5 JUMP JUMPDEST DUP1 ISZERO PUSH2 0x8BD JUMPI DUP1 PUSH1 0x1F LT PUSH2 0x892 JUMPI PUSH2 0x100 DUP1 DUP4 SLOAD DIV MUL DUP4 MSTORE SWAP2 PUSH1 0x20 ADD SWAP2 PUSH2 0x8BD JUMP JUMPDEST DUP3 ADD SWAP2 SWAP1 PUSH1 0x0 MSTORE PUSH1 0x20 PUSH1 0x0 KECCAK256 SWAP1 JUMPDEST DUP2 SLOAD DUP2 MSTORE SWAP1 PUSH1 0x1 ADD SWAP1 PUSH1 0x20 ADD DUP1 DUP4 GT PUSH2 0x8A0 JUMPI DUP3 SWAP1 SUB PUSH1 0x1F AND DUP3 ADD SWAP2 JUMPDEST POP POP POP POP POP DUP2 MSTORE POP POP SWAP3 POP POP PUSH2 0x938 JUMP JUMPDEST DUP1 PUSH2 0x8D8 DUP2 PUSH2 0x2019 JUMP JUMPDEST SWAP2 POP POP PUSH2 0x3B8 JUMP JUMPDEST POP PUSH1 0x40 MLOAD PUSH3 0x461BCD PUSH1 0xE5 SHL DUP2 MSTORE PUSH1 0x20 PUSH1 0x4 DUP3 ADD MSTORE PUSH1 0x26 PUSH1 0x24 DUP3 ADD MSTORE PUSH32 0x4461746162617365204C697374456D706C6F7965653A20496E76616C69642061 PUSH1 0x44 DUP3 ADD MSTORE PUSH6 0x646472657373 PUSH1 0xD0 SHL PUSH1 0x64 DUP3 ADD MSTORE PUSH1 0x84 ADD PUSH2 0x32A JUMP JUMPDEST POP SWAP3 SWAP2 POP POP JUMP JUMPDEST PUSH1 0x0 DUP3 PUSH1 0x0 DUP1 MLOAD PUSH1 0x20 PUSH2 0x2150 DUP4 CODECOPY DUP2 MLOAD SWAP2 MSTORE DUP2 EQ PUSH2 0x96F JUMPI PUSH1 0x40 MLOAD PUSH3 0x461BCD PUSH1 0xE5 SHL DUP2 MSTORE PUSH1 0x4 ADD PUSH2 0x32A SWAP1 PUSH2 0x1F5A JUMP JUMPDEST DUP5 DUP1 PUSH1 0x1 GT ISZERO DUP1 ISZERO PUSH2 0x983 JUMPI POP PUSH1 0x2 SLOAD DUP2 GT ISZERO JUMPDEST PUSH2 0x99F JUMPI PUSH1 0x40 MLOAD PUSH3 0x461BCD PUSH1 0xE5 SHL DUP2 MSTORE PUSH1 0x4 ADD PUSH2 0x32A SWAP1 PUSH2 0x1FA1 JUMP JUMPDEST POP POP POP PUSH1 0x0 SWAP3 DUP4 MSTORE PUSH1 0x1 PUSH1 0x20 DUP2 SWAP1 MSTORE PUSH1 0x40 SWAP1 SWAP4 KECCAK256 SSTORE POP SWAP1 JUMP JUMPDEST PUSH1 0x0 DUP3 PUSH1 0x0 DUP1 MLOAD PUSH1 0x20 PUSH2 0x2150 DUP4 CODECOPY DUP2 MLOAD SWAP2 MSTORE DUP2 EQ PUSH2 0x9E8 JUMPI PUSH1 0x40 MLOAD PUSH3 0x461BCD PUSH1 0xE5 SHL DUP2 MSTORE PUSH1 0x4 ADD PUSH2 0x32A SWAP1 PUSH2 0x1F5A JUMP JUMPDEST DUP5 DUP1 PUSH1 0x1 GT ISZERO DUP1 ISZERO PUSH2 0x9FC JUMPI POP PUSH1 0x2 SLOAD DUP2 GT ISZERO JUMPDEST PUSH2 0xA18 JUMPI PUSH1 0x40 MLOAD PUSH3 0x461BCD PUSH1 0xE5 SHL DUP2 MSTORE PUSH1 0x4 ADD PUSH2 0x32A SWAP1 PUSH2 0x1FA1 JUMP JUMPDEST PUSH1 0x0 DUP7 DUP2 MSTORE PUSH1 0x1 PUSH1 0x20 MSTORE PUSH1 0x40 SWAP1 KECCAK256 PUSH1 0x7 ADD PUSH2 0xA33 DUP6 DUP3 PUSH2 0x208F JUMP JUMPDEST POP PUSH1 0x1 SWAP7 SWAP6 POP POP POP POP POP POP JUMP JUMPDEST PUSH1 0x0 DUP3 PUSH1 0x0 DUP1 MLOAD PUSH1 0x20 PUSH2 0x2150 DUP4 CODECOPY DUP2 MLOAD SWAP2 MSTORE DUP2 EQ PUSH2 0xA70 JUMPI PUSH1 0x40 MLOAD PUSH3 0x461BCD PUSH1 0xE5 SHL DUP2 MSTORE PUSH1 0x4 ADD PUSH2 0x32A SWAP1 PUSH2 0x1F5A JUMP JUMPDEST DUP5 DUP1 PUSH1 0x1 GT ISZERO DUP1 ISZERO PUSH2 0xA84 JUMPI POP PUSH1 0x2 SLOAD DUP2 GT ISZERO JUMPDEST PUSH2 0xAA0 JUMPI PUSH1 0x40 MLOAD PUSH3 0x461BCD PUSH1 0xE5 SHL DUP2 MSTORE PUSH1 0x4 ADD PUSH2 0x32A SWAP1 PUSH2 0x1FA1 JUMP JUMPDEST PUSH1 0x0 DUP7 DUP2 MSTORE PUSH1 0x1 PUSH1 0x20 MSTORE PUSH1 0x40 SWAP1 KECCAK256 PUSH1 0xB ADD PUSH2 0xA33 DUP6 DUP3 PUSH2 0x208F JUMP JUMPDEST PUSH1 0x0 DUP3 PUSH1 0x0 DUP1 MLOAD PUSH1 0x20 PUSH2 0x2150 DUP4 CODECOPY DUP2 MLOAD SWAP2 MSTORE DUP2 EQ PUSH2 0xAEB JUMPI PUSH1 0x40 MLOAD PUSH3 0x461BCD PUSH1 0xE5 SHL DUP2 MSTORE PUSH1 0x4 ADD PUSH2 0x32A SWAP1 PUSH2 0x1F5A JUMP JUMPDEST DUP5 DUP1 PUSH1 0x1 GT ISZERO DUP1 ISZERO PUSH2 0xAFF JUMPI POP PUSH1 0x2 SLOAD DUP2 GT ISZERO JUMPDEST PUSH2 0xB1B JUMPI PUSH1 0x40 MLOAD PUSH3 0x461BCD PUSH1 0xE5 SHL DUP2 MSTORE PUSH1 0x4 ADD PUSH2 0x32A SWAP1 PUSH2 0x1FA1 JUMP JUMPDEST POP POP POP PUSH1 0x0 SWAP3 DUP4 MSTORE PUSH1 0x1 PUSH1 0x20 DUP2 SWAP1 MSTORE PUSH1 0x40 SWAP1 SWAP4 KECCAK256 PUSH1 0x3 ADD DUP1 SLOAD PUSH1 0x1 PUSH1 0x1 PUSH1 0xA0 SHL SUB NOT AND PUSH1 0x1 PUSH1 0x1 PUSH1 0xA0 SHL SUB SWAP3 SWAP1 SWAP3 AND SWAP2 SWAP1 SWAP2 OR SWAP1 SSTORE POP SWAP1 JUMP JUMPDEST PUSH1 0x0 DUP3 PUSH1 0x0 DUP1 MLOAD PUSH1 0x20 PUSH2 0x2150 DUP4 CODECOPY DUP2 MLOAD SWAP2 MSTORE DUP2 EQ PUSH2 0xB84 JUMPI PUSH1 0x40 MLOAD PUSH3 0x461BCD PUSH1 0xE5 SHL DUP2 MSTORE PUSH1 0x4 ADD PUSH2 0x32A SWAP1 PUSH2 0x1F5A JUMP JUMPDEST DUP5 DUP1 PUSH1 0x1 GT ISZERO DUP1 ISZERO PUSH2 0xB98 JUMPI POP PUSH1 0x2 SLOAD DUP2 GT ISZERO JUMPDEST PUSH2 0xBB4 JUMPI PUSH1 0x40 MLOAD PUSH3 0x461BCD PUSH1 0xE5 SHL DUP2 MSTORE PUSH1 0x4 ADD PUSH2 0x32A SWAP1 PUSH2 0x1FA1 JUMP JUMPDEST PUSH1 0x0 DUP7 DUP2 MSTORE PUSH1 0x1 PUSH1 0x20 MSTORE PUSH1 0x40 SWAP1 KECCAK256 PUSH1 0x4 ADD PUSH2 0xA33 DUP6 DUP3 PUSH2 0x208F JUMP JUMPDEST PUSH1 0x0 DUP2 PUSH1 0x0 DUP1 MLOAD PUSH1 0x20 PUSH2 0x2150 DUP4 CODECOPY DUP2 MLOAD SWAP2 MSTORE DUP2 EQ PUSH2 0xBFF JUMPI PUSH1 0x40 MLOAD PUSH3 0x461BCD PUSH1 0xE5 SHL DUP2 MSTORE PUSH1 0x4 ADD PUSH2 0x32A SWAP1 PUSH2 0x1F5A JUMP JUMPDEST PUSH1 0x2 DUP1 SLOAD SWAP1 PUSH1 0x0 PUSH2 0xC0F DUP4 PUSH2 0x2019 JUMP JUMPDEST SWAP1 SWAP2 SSTORE POP POP PUSH1 0x2 DUP1 SLOAD PUSH1 0x20 DUP7 DUP2 ADD DUP3 DUP2 MSTORE PUSH1 0x0 SWAP3 DUP4 MSTORE PUSH1 0x1 SWAP2 DUP3 SWAP1 MSTORE PUSH1 0x40 SWAP3 DUP4 SWAP1 KECCAK256 DUP9 MLOAD DUP2 SSTORE SWAP1 MLOAD SWAP2 DUP2 ADD SWAP2 SWAP1 SWAP2 SSTORE SWAP1 DUP7 ADD MLOAD SWAP2 DUP2 ADD SWAP2 SWAP1 SWAP2 SSTORE PUSH1 0x60 DUP6 ADD MLOAD PUSH1 0x3 DUP3 ADD DUP1 SLOAD PUSH1 0x1 PUSH1 0x1 PUSH1 0xA0 SHL SUB NOT AND PUSH1 0x1 PUSH1 0x1 PUSH1 0xA0 SHL SUB SWAP1 SWAP3 AND SWAP2 SWAP1 SWAP2 OR SWAP1 SSTORE PUSH1 0x80 DUP6 ADD MLOAD DUP6 SWAP2 SWAP1 PUSH1 0x4 DUP3 ADD SWAP1 PUSH2 0xC86 SWAP1 DUP3 PUSH2 0x208F JUMP JUMPDEST POP PUSH1 0xA0 DUP3 ADD MLOAD PUSH1 0x5 DUP3 ADD SWAP1 PUSH2 0xC9B SWAP1 DUP3 PUSH2 0x208F JUMP JUMPDEST POP PUSH1 0xC0 DUP3 ADD MLOAD PUSH1 0x6 DUP3 ADD SWAP1 PUSH2 0xCB0 SWAP1 DUP3 PUSH2 0x208F JUMP JUMPDEST POP PUSH1 0xE0 DUP3 ADD MLOAD PUSH1 0x7 DUP3 ADD SWAP1 PUSH2 0xCC5 SWAP1 DUP3 PUSH2 0x208F JUMP JUMPDEST POP PUSH2 0x100 DUP3 ADD MLOAD PUSH1 0x8 DUP3 ADD SWAP1 PUSH2 0xCDB SWAP1 DUP3 PUSH2 0x208F JUMP JUMPDEST POP PUSH2 0x120 DUP3 ADD MLOAD PUSH1 0x9 DUP3 ADD SWAP1 PUSH2 0xCF1 SWAP1 DUP3 PUSH2 0x208F JUMP JUMPDEST POP PUSH2 0x140 DUP3 ADD MLOAD PUSH1 0xA DUP3 ADD SWAP1 PUSH2 0xD07 SWAP1 DUP3 PUSH2 0x208F JUMP JUMPDEST POP PUSH2 0x160 DUP3 ADD MLOAD PUSH1 0xB DUP3 ADD SWAP1 PUSH2 0xD1D SWAP1 DUP3 PUSH2 0x208F JUMP JUMPDEST POP SWAP1 POP POP PUSH32 0x909AD77F22E0C92AF47EB3F445C01071AF38CCA1B24A4204C243F9D6421568F4 DUP5 PUSH1 0x40 MLOAD PUSH2 0xD50 SWAP2 SWAP1 PUSH2 0x1ACB JUMP JUMPDEST PUSH1 0x40 MLOAD DUP1 SWAP2 SUB SWAP1 LOG1 POP PUSH1 0x1 SWAP4 SWAP3 POP POP POP JUMP JUMPDEST PUSH1 0x0 DUP3 PUSH1 0x0 DUP1 MLOAD PUSH1 0x20 PUSH2 0x2150 DUP4 CODECOPY DUP2 MLOAD SWAP2 MSTORE DUP2 EQ PUSH2 0xD92 JUMPI PUSH1 0x40 MLOAD PUSH3 0x461BCD PUSH1 0xE5 SHL DUP2 MSTORE PUSH1 0x4 ADD PUSH2 0x32A SWAP1 PUSH2 0x1F5A JUMP JUMPDEST DUP5 DUP1 PUSH1 0x1 GT ISZERO DUP1 ISZERO PUSH2 0xDA6 JUMPI POP PUSH1 0x2 SLOAD DUP2 GT ISZERO JUMPDEST PUSH2 0xDC2 JUMPI PUSH1 0x40 MLOAD PUSH3 0x461BCD PUSH1 0xE5 SHL DUP2 MSTORE PUSH1 0x4 ADD PUSH2 0x32A SWAP1 PUSH2 0x1FA1 JUMP JUMPDEST PUSH1 0x0 DUP7 DUP2 MSTORE PUSH1 0x1 PUSH1 0x20 MSTORE PUSH1 0x40 SWAP1 KECCAK256 PUSH1 0xA ADD PUSH2 0xA33 DUP6 DUP3 PUSH2 0x208F JUMP JUMPDEST PUSH2 0xDE5 PUSH2 0x18EE JUMP JUMPDEST ADDRESS SELFDESTRUCT JUMPDEST PUSH1 0x0 DUP3 PUSH1 0x0 DUP1 MLOAD PUSH1 0x20 PUSH2 0x2150 DUP4 CODECOPY DUP2 MLOAD SWAP2 MSTORE DUP2 EQ PUSH2 0xE18 JUMPI PUSH1 0x40 MLOAD PUSH3 0x461BCD PUSH1 0xE5 SHL DUP2 MSTORE PUSH1 0x4 ADD PUSH2 0x32A SWAP1 PUSH2 0x1F5A JUMP JUMPDEST DUP5 DUP1 PUSH1 0x1 GT ISZERO DUP1 ISZERO PUSH2 0xE2C JUMPI POP PUSH1 0x2 SLOAD DUP2 GT ISZERO JUMPDEST PUSH2 0xE48 JUMPI PUSH1 0x40 MLOAD PUSH3 0x461BCD PUSH1 0xE5 SHL DUP2 MSTORE PUSH1 0x4 ADD PUSH2 0x32A SWAP1 PUSH2 0x1FA1 JUMP JUMPDEST POP POP POP PUSH1 0x0 SWAP3 DUP4 MSTORE PUSH1 0x1 PUSH1 0x20 DUP2 SWAP1 MSTORE PUSH1 0x40 SWAP1 SWAP4 KECCAK256 DUP4 ADD SSTORE POP SWAP1 JUMP JUMPDEST PUSH1 0x0 DUP2 PUSH1 0x0 DUP1 MLOAD PUSH1 0x20 PUSH2 0x2150 DUP4 CODECOPY DUP2 MLOAD SWAP2 MSTORE DUP2 EQ PUSH2 0xE93 JUMPI PUSH1 0x40 MLOAD PUSH3 0x461BCD PUSH1 0xE5 SHL DUP2 MSTORE PUSH1 0x4 ADD PUSH2 0x32A SWAP1 PUSH2 0x1F5A JUMP JUMPDEST DUP4 DUP1 PUSH1 0x1 GT ISZERO DUP1 ISZERO PUSH2 0xEA7 JUMPI POP PUSH1 0x2 SLOAD DUP2 GT ISZERO JUMPDEST PUSH2 0xEC3 JUMPI PUSH1 0x40 MLOAD PUSH3 0x461BCD PUSH1 0xE5 SHL DUP2 MSTORE PUSH1 0x4 ADD PUSH2 0x32A SWAP1 PUSH2 0x1FA1 JUMP JUMPDEST PUSH1 0x40 DUP1 MLOAD PUSH2 0x180 DUP2 ADD DUP3 MSTORE PUSH1 0x0 DUP1 DUP3 MSTORE PUSH1 0x20 DUP1 DUP4 ADD DUP3 DUP2 MSTORE DUP4 DUP6 ADD DUP4 DUP2 MSTORE PUSH1 0x60 DUP6 ADD DUP5 DUP2 MSTORE DUP7 MLOAD DUP1 DUP6 ADD DUP9 MSTORE DUP6 DUP2 MSTORE PUSH1 0x80 DUP8 ADD SWAP1 DUP2 MSTORE DUP8 MLOAD DUP1 DUP7 ADD DUP10 MSTORE DUP7 DUP2 MSTORE PUSH1 0xA0 DUP9 ADD MSTORE DUP8 MLOAD DUP1 DUP7 ADD DUP10 MSTORE DUP7 DUP2 MSTORE PUSH1 0xC0 DUP9 ADD MSTORE DUP8 MLOAD DUP1 DUP7 ADD DUP10 MSTORE DUP7 DUP2 MSTORE PUSH1 0xE0 DUP9 ADD MSTORE DUP8 MLOAD DUP1 DUP7 ADD DUP10 MSTORE DUP7 DUP2 MSTORE PUSH2 0x100 DUP9 ADD MSTORE DUP8 MLOAD DUP1 DUP7 ADD DUP10 MSTORE DUP7 DUP2 MSTORE PUSH2 0x120 DUP9 ADD MSTORE DUP8 MLOAD DUP1 DUP7 ADD DUP10 MSTORE DUP7 DUP2 MSTORE PUSH2 0x140 DUP9 ADD MSTORE DUP8 MLOAD DUP1 DUP7 ADD DUP10 MSTORE DUP7 DUP2 MSTORE PUSH2 0x160 DUP9 ADD MSTORE DUP13 DUP7 MSTORE PUSH1 0x1 SWAP5 DUP6 SWAP1 MSTORE SWAP7 SWAP1 SWAP5 KECCAK256 DUP6 MLOAD DUP2 SSTORE SWAP2 MLOAD SWAP3 DUP3 ADD SWAP3 SWAP1 SWAP3 SSTORE SWAP1 MLOAD PUSH1 0x2 DUP3 ADD SSTORE SWAP1 MLOAD PUSH1 0x3 DUP3 ADD DUP1 SLOAD PUSH1 0x1 PUSH1 0x1 PUSH1 0xA0 SHL SUB NOT AND PUSH1 0x1 PUSH1 0x1 PUSH1 0xA0 SHL SUB SWAP1 SWAP3 AND SWAP2 SWAP1 SWAP2 OR SWAP1 SSTORE SWAP2 MLOAD SWAP1 SWAP2 DUP3 SWAP2 PUSH1 0x4 DUP3 ADD SWAP1 PUSH2 0xFBF SWAP1 DUP3 PUSH2 0x208F JUMP JUMPDEST POP PUSH1 0xA0 DUP3 ADD MLOAD PUSH1 0x5 DUP3 ADD SWAP1 PUSH2 0xFD4 SWAP1 DUP3 PUSH2 0x208F JUMP JUMPDEST POP PUSH1 0xC0 DUP3 ADD MLOAD PUSH1 0x6 DUP3 ADD SWAP1 PUSH2 0xFE9 SWAP1 DUP3 PUSH2 0x208F JUMP JUMPDEST POP PUSH1 0xE0 DUP3 ADD MLOAD PUSH1 0x7 DUP3 ADD SWAP1 PUSH2 0xFFE SWAP1 DUP3 PUSH2 0x208F JUMP JUMPDEST POP PUSH2 0x100 DUP3 ADD MLOAD PUSH1 0x8 DUP3 ADD SWAP1 PUSH2 0x1014 SWAP1 DUP3 PUSH2 0x208F JUMP JUMPDEST POP PUSH2 0x120 DUP3 ADD MLOAD PUSH1 0x9 DUP3 ADD SWAP1 PUSH2 0x102A SWAP1 DUP3 PUSH2 0x208F JUMP JUMPDEST POP PUSH2 0x140 DUP3 ADD MLOAD PUSH1 0xA DUP3 ADD SWAP1 PUSH2 0x1040 SWAP1 DUP3 PUSH2 0x208F JUMP JUMPDEST POP PUSH2 0x160 DUP3 ADD MLOAD PUSH1 0xB DUP3 ADD SWAP1 PUSH2 0x1056 SWAP1 DUP3 PUSH2 0x208F JUMP JUMPDEST POP PUSH1 0x1 SWAP9 SWAP8 POP POP POP POP POP POP POP POP JUMP JUMPDEST PUSH2 0x106D PUSH2 0x19A9 JUMP JUMPDEST DUP2 PUSH1 0x0 DUP1 MLOAD PUSH1 0x20 PUSH2 0x2150 DUP4 CODECOPY DUP2 MLOAD SWAP2 MSTORE DUP2 EQ PUSH2 0x109B JUMPI PUSH1 0x40 MLOAD PUSH3 0x461BCD PUSH1 0xE5 SHL DUP2 MSTORE PUSH1 0x4 ADD PUSH2 0x32A SWAP1 PUSH2 0x1F5A JUMP JUMPDEST DUP4 DUP1 PUSH1 0x1 GT ISZERO DUP1 ISZERO PUSH2 0x10AF JUMPI POP PUSH1 0x2 SLOAD DUP2 GT ISZERO JUMPDEST PUSH2 0x10CB JUMPI PUSH1 0x40 MLOAD PUSH3 0x461BCD PUSH1 0xE5 SHL DUP2 MSTORE PUSH1 0x4 ADD PUSH2 0x32A SWAP1 PUSH2 0x1FA1 JUMP JUMPDEST PUSH1 0x0 DUP6 DUP2 MSTORE PUSH1 0x1 PUSH1 0x20 DUP2 DUP2 MSTORE PUSH1 0x40 SWAP3 DUP4 SWAP1 KECCAK256 DUP4 MLOAD PUSH2 0x180 DUP2 ADD DUP6 MSTORE DUP2 SLOAD DUP2 MSTORE SWAP3 DUP2 ADD SLOAD SWAP2 DUP4 ADD SWAP2 SWAP1 SWAP2 MSTORE PUSH1 0x2 DUP2 ADD SLOAD SWAP3 DUP3 ADD SWAP3 SWAP1 SWAP3 MSTORE PUSH1 0x3 DUP3 ADD SLOAD PUSH1 0x1 PUSH1 0x1 PUSH1 0xA0 SHL SUB AND PUSH1 0x60 DUP3 ADD MSTORE PUSH1 0x4 DUP3 ADD DUP1 SLOAD SWAP2 SWAP3 SWAP2 PUSH1 0x80 DUP5 ADD SWAP2 SWAP1 PUSH2 0x112C SWAP1 PUSH2 0x1FE5 JUMP JUMPDEST DUP1 PUSH1 0x1F ADD PUSH1 0x20 DUP1 SWAP2 DIV MUL PUSH1 0x20 ADD PUSH1 0x40 MLOAD SWAP1 DUP2 ADD PUSH1 0x40 MSTORE DUP1 SWAP3 SWAP2 SWAP1 DUP2 DUP2 MSTORE PUSH1 0x20 ADD DUP3 DUP1 SLOAD PUSH2 0x1158 SWAP1 PUSH2 0x1FE5 JUMP JUMPDEST DUP1 ISZERO PUSH2 0x11A5 JUMPI DUP1 PUSH1 0x1F LT PUSH2 0x117A JUMPI PUSH2 0x100 DUP1 DUP4 SLOAD DIV MUL DUP4 MSTORE SWAP2 PUSH1 0x20 ADD SWAP2 PUSH2 0x11A5 JUMP JUMPDEST DUP3 ADD SWAP2 SWAP1 PUSH1 0x0 MSTORE PUSH1 0x20 PUSH1 0x0 KECCAK256 SWAP1 JUMPDEST DUP2 SLOAD DUP2 MSTORE SWAP1 PUSH1 0x1 ADD SWAP1 PUSH1 0x20 ADD DUP1 DUP4 GT PUSH2 0x1188 JUMPI DUP3 SWAP1 SUB PUSH1 0x1F AND DUP3 ADD SWAP2 JUMPDEST POP POP POP POP POP DUP2 MSTORE PUSH1 0x20 ADD PUSH1 0x5 DUP3 ADD DUP1 SLOAD PUSH2 0x11BE SWAP1 PUSH2 0x1FE5 JUMP JUMPDEST DUP1 PUSH1 0x1F ADD PUSH1 0x20 DUP1 SWAP2 DIV MUL PUSH1 0x20 ADD PUSH1 0x40 MLOAD SWAP1 DUP2 ADD PUSH1 0x40 MSTORE DUP1 SWAP3 SWAP2 SWAP1 DUP2 DUP2 MSTORE PUSH1 0x20 ADD DUP3 DUP1 SLOAD PUSH2 0x11EA SWAP1 PUSH2 0x1FE5 JUMP JUMPDEST DUP1 ISZERO PUSH2 0x1237 JUMPI DUP1 PUSH1 0x1F LT PUSH2 0x120C JUMPI PUSH2 0x100 DUP1 DUP4 SLOAD DIV MUL DUP4 MSTORE SWAP2 PUSH1 0x20 ADD SWAP2 PUSH2 0x1237 JUMP JUMPDEST DUP3 ADD SWAP2 SWAP1 PUSH1 0x0 MSTORE PUSH1 0x20 PUSH1 0x0 KECCAK256 SWAP1 JUMPDEST DUP2 SLOAD DUP2 MSTORE SWAP1 PUSH1 0x1 ADD SWAP1 PUSH1 0x20 ADD DUP1 DUP4 GT PUSH2 0x121A JUMPI DUP3 SWAP1 SUB PUSH1 0x1F AND DUP3 ADD SWAP2 JUMPDEST POP POP POP POP POP DUP2 MSTORE PUSH1 0x20 ADD PUSH1 0x6 DUP3 ADD DUP1 SLOAD PUSH2 0x1250 SWAP1 PUSH2 0x1FE5 JUMP JUMPDEST DUP1 PUSH1 0x1F ADD PUSH1 0x20 DUP1 SWAP2 DIV MUL PUSH1 0x20 ADD PUSH1 0x40 MLOAD SWAP1 DUP2 ADD PUSH1 0x40 MSTORE DUP1 SWAP3 SWAP2 SWAP1 DUP2 DUP2 MSTORE PUSH1 0x20 ADD DUP3 DUP1 SLOAD PUSH2 0x127C SWAP1 PUSH2 0x1FE5 JUMP JUMPDEST DUP1 ISZERO PUSH2 0x12C9 JUMPI DUP1 PUSH1 0x1F LT PUSH2 0x129E JUMPI PUSH2 0x100 DUP1 DUP4 SLOAD DIV MUL DUP4 MSTORE SWAP2 PUSH1 0x20 ADD SWAP2 PUSH2 0x12C9 JUMP JUMPDEST DUP3 ADD SWAP2 SWAP1 PUSH1 0x0 MSTORE PUSH1 0x20 PUSH1 0x0 KECCAK256 SWAP1 JUMPDEST DUP2 SLOAD DUP2 MSTORE SWAP1 PUSH1 0x1 ADD SWAP1 PUSH1 0x20 ADD DUP1 DUP4 GT PUSH2 0x12AC JUMPI DUP3 SWAP1 SUB PUSH1 0x1F AND DUP3 ADD SWAP2 JUMPDEST POP POP POP POP POP DUP2 MSTORE PUSH1 0x20 ADD PUSH1 0x7 DUP3 ADD DUP1 SLOAD PUSH2 0x12E2 SWAP1 PUSH2 0x1FE5 JUMP JUMPDEST DUP1 PUSH1 0x1F ADD PUSH1 0x20 DUP1 SWAP2 DIV MUL PUSH1 0x20 ADD PUSH1 0x40 MLOAD SWAP1 DUP2 ADD PUSH1 0x40 MSTORE DUP1 SWAP3 SWAP2 SWAP1 DUP2 DUP2 MSTORE PUSH1 0x20 ADD DUP3 DUP1 SLOAD PUSH2 0x130E SWAP1 PUSH2 0x1FE5 JUMP JUMPDEST DUP1 ISZERO PUSH2 0x135B JUMPI DUP1 PUSH1 0x1F LT PUSH2 0x1330 JUMPI PUSH2 0x100 DUP1 DUP4 SLOAD DIV MUL DUP4 MSTORE SWAP2 PUSH1 0x20 ADD SWAP2 PUSH2 0x135B JUMP JUMPDEST DUP3 ADD SWAP2 SWAP1 PUSH1 0x0 MSTORE PUSH1 0x20 PUSH1 0x0 KECCAK256 SWAP1 JUMPDEST DUP2 SLOAD DUP2 MSTORE SWAP1 PUSH1 0x1 ADD SWAP1 PUSH1 0x20 ADD DUP1 DUP4 GT PUSH2 0x133E JUMPI DUP3 SWAP1 SUB PUSH1 0x1F AND DUP3 ADD SWAP2 JUMPDEST POP POP POP POP POP DUP2 MSTORE PUSH1 0x20 ADD PUSH1 0x8 DUP3 ADD DUP1 SLOAD PUSH2 0x1374 SWAP1 PUSH2 0x1FE5 JUMP JUMPDEST DUP1 PUSH1 0x1F ADD PUSH1 0x20 DUP1 SWAP2 DIV MUL PUSH1 0x20 ADD PUSH1 0x40 MLOAD SWAP1 DUP2 ADD PUSH1 0x40 MSTORE DUP1 SWAP3 SWAP2 SWAP1 DUP2 DUP2 MSTORE PUSH1 0x20 ADD DUP3 DUP1 SLOAD PUSH2 0x13A0 SWAP1 PUSH2 0x1FE5 JUMP JUMPDEST DUP1 ISZERO PUSH2 0x13ED JUMPI DUP1 PUSH1 0x1F LT PUSH2 0x13C2 JUMPI PUSH2 0x100 DUP1 DUP4 SLOAD DIV MUL DUP4 MSTORE SWAP2 PUSH1 0x20 ADD SWAP2 PUSH2 0x13ED JUMP JUMPDEST DUP3 ADD SWAP2 SWAP1 PUSH1 0x0 MSTORE PUSH1 0x20 PUSH1 0x0 KECCAK256 SWAP1 JUMPDEST DUP2 SLOAD DUP2 MSTORE SWAP1 PUSH1 0x1 ADD SWAP1 PUSH1 0x20 ADD DUP1 DUP4 GT PUSH2 0x13D0 JUMPI DUP3 SWAP1 SUB PUSH1 0x1F AND DUP3 ADD SWAP2 JUMPDEST POP POP POP POP POP DUP2 MSTORE PUSH1 0x20 ADD PUSH1 0x9 DUP3 ADD DUP1 SLOAD PUSH2 0x1406 SWAP1 PUSH2 0x1FE5 JUMP JUMPDEST DUP1 PUSH1 0x1F ADD PUSH1 0x20 DUP1 SWAP2 DIV MUL PUSH1 0x20 ADD PUSH1 0x40 MLOAD SWAP1 DUP2 ADD PUSH1 0x40 MSTORE DUP1 SWAP3 SWAP2 SWAP1 DUP2 DUP2 MSTORE PUSH1 0x20 ADD DUP3 DUP1 SLOAD PUSH2 0x1432 SWAP1 PUSH2 0x1FE5 JUMP JUMPDEST DUP1 ISZERO PUSH2 0x147F JUMPI DUP1 PUSH1 0x1F LT PUSH2 0x1454 JUMPI PUSH2 0x100 DUP1 DUP4 SLOAD DIV MUL DUP4 MSTORE SWAP2 PUSH1 0x20 ADD SWAP2 PUSH2 0x147F JUMP JUMPDEST DUP3 ADD SWAP2 SWAP1 PUSH1 0x0 MSTORE PUSH1 0x20 PUSH1 0x0 KECCAK256 SWAP1 JUMPDEST DUP2 SLOAD DUP2 MSTORE SWAP1 PUSH1 0x1 ADD SWAP1 PUSH1 0x20 ADD DUP1 DUP4 GT PUSH2 0x1462 JUMPI DUP3 SWAP1 SUB PUSH1 0x1F AND DUP3 ADD SWAP2 JUMPDEST POP POP POP POP POP DUP2 MSTORE PUSH1 0x20 ADD PUSH1 0xA DUP3 ADD DUP1 SLOAD PUSH2 0x1498 SWAP1 PUSH2 0x1FE5 JUMP JUMPDEST DUP1 PUSH1 0x1F ADD PUSH1 0x20 DUP1 SWAP2 DIV MUL PUSH1 0x20 ADD PUSH1 0x40 MLOAD SWAP1 DUP2 ADD PUSH1 0x40 MSTORE DUP1 SWAP3 SWAP2 SWAP1 DUP2 DUP2 MSTORE PUSH1 0x20 ADD DUP3 DUP1 SLOAD PUSH2 0x14C4 SWAP1 PUSH2 0x1FE5 JUMP JUMPDEST DUP1 ISZERO PUSH2 0x1511 JUMPI DUP1 PUSH1 0x1F LT PUSH2 0x14E6 JUMPI PUSH2 0x100 DUP1 DUP4 SLOAD DIV MUL DUP4 MSTORE SWAP2 PUSH1 0x20 ADD SWAP2 PUSH2 0x1511 JUMP JUMPDEST DUP3 ADD SWAP2 SWAP1 PUSH1 0x0 MSTORE PUSH1 0x20 PUSH1 0x0 KECCAK256 SWAP1 JUMPDEST DUP2 SLOAD DUP2 MSTORE SWAP1 PUSH1 0x1 ADD SWAP1 PUSH1 0x20 ADD DUP1 DUP4 GT PUSH2 0x14F4 JUMPI DUP3 SWAP1 SUB PUSH1 0x1F AND DUP3 ADD SWAP2 JUMPDEST POP POP POP POP POP DUP2 MSTORE PUSH1 0x20 ADD PUSH1 0xB DUP3 ADD DUP1 SLOAD PUSH2 0x152A SWAP1 PUSH2 0x1FE5 JUMP JUMPDEST DUP1 PUSH1 0x1F ADD PUSH1 0x20 DUP1 SWAP2 DIV MUL PUSH1 0x20 ADD PUSH1 0x40 MLOAD SWAP1 DUP2 ADD PUSH1 0x40 MSTORE DUP1 SWAP3 SWAP2 SWAP1 DUP2 DUP2 MSTORE PUSH1 0x20 ADD DUP3 DUP1 SLOAD PUSH2 0x1556 SWAP1 PUSH2 0x1FE5 JUMP JUMPDEST DUP1 ISZERO PUSH2 0x15A3 JUMPI DUP1 PUSH1 0x1F LT PUSH2 0x1578 JUMPI PUSH2 0x100 DUP1 DUP4 SLOAD DIV MUL DUP4 MSTORE SWAP2 PUSH1 0x20 ADD SWAP2 PUSH2 0x15A3 JUMP JUMPDEST DUP3 ADD SWAP2 SWAP1 PUSH1 0x0 MSTORE PUSH1 0x20 PUSH1 0x0 KECCAK256 SWAP1 JUMPDEST DUP2 SLOAD DUP2 MSTORE SWAP1 PUSH1 0x1 ADD SWAP1 PUSH1 0x20 ADD DUP1 DUP4 GT PUSH2 0x1586 JUMPI DUP3 SWAP1 SUB PUSH1 0x1F AND DUP3 ADD SWAP2 JUMPDEST POP POP POP POP POP DUP2 MSTORE POP POP SWAP3 POP POP POP SWAP3 SWAP2 POP POP JUMP JUMPDEST PUSH1 0x0 DUP3 PUSH1 0x0 DUP1 MLOAD PUSH1 0x20 PUSH2 0x2150 DUP4 CODECOPY DUP2 MLOAD SWAP2 MSTORE DUP2 EQ PUSH2 0x15E6 JUMPI PUSH1 0x40 MLOAD PUSH3 0x461BCD PUSH1 0xE5 SHL DUP2 MSTORE PUSH1 0x4 ADD PUSH2 0x32A SWAP1 PUSH2 0x1F5A JUMP JUMPDEST DUP5 DUP1 PUSH1 0x1 GT ISZERO DUP1 ISZERO PUSH2 0x15FA JUMPI POP PUSH1 0x2 SLOAD DUP2 GT ISZERO JUMPDEST PUSH2 0x1616 JUMPI PUSH1 0x40 MLOAD PUSH3 0x461BCD PUSH1 0xE5 SHL DUP2 MSTORE PUSH1 0x4 ADD PUSH2 0x32A SWAP1 PUSH2 0x1FA1 JUMP JUMPDEST PUSH1 0x0 DUP7 DUP2 MSTORE PUSH1 0x1 PUSH1 0x20 MSTORE PUSH1 0x40 SWAP1 KECCAK256 PUSH1 0x8 ADD PUSH2 0xA33 DUP6 DUP3 PUSH2 0x208F JUMP JUMPDEST PUSH1 0x0 DUP2 PUSH1 0x0 DUP1 MLOAD PUSH1 0x20 PUSH2 0x2150 DUP4 CODECOPY DUP2 MLOAD SWAP2 MSTORE DUP2 EQ PUSH2 0x1661 JUMPI PUSH1 0x40 MLOAD PUSH3 0x461BCD PUSH1 0xE5 SHL DUP2 MSTORE PUSH1 0x4 ADD PUSH2 0x32A SWAP1 PUSH2 0x1F5A JUMP JUMPDEST PUSH1 0x1 JUMPDEST PUSH1 0x2 SLOAD DUP2 GT PUSH2 0x16BD JUMPI PUSH1 0x0 DUP2 DUP2 MSTORE PUSH1 0x1 PUSH1 0x20 MSTORE PUSH1 0x40 SWAP1 KECCAK256 PUSH1 0x3 ADD SLOAD PUSH1 0x1 PUSH1 0x1 PUSH1 0xA0 SHL SUB DUP1 DUP8 AND SWAP2 AND SUB PUSH2 0x16AB JUMPI PUSH1 0x0 SWAP1 DUP2 MSTORE PUSH1 0x1 PUSH1 0x20 DUP2 SWAP1 MSTORE PUSH1 0x40 SWAP1 SWAP2 KECCAK256 ADD SLOAD SWAP2 POP PUSH2 0x938 JUMP JUMPDEST DUP1 PUSH2 0x16B5 DUP2 PUSH2 0x2019 JUMP JUMPDEST SWAP2 POP POP PUSH2 0x1664 JUMP JUMPDEST POP PUSH1 0x0 SWAP5 SWAP4 POP POP POP POP JUMP JUMPDEST PUSH1 0x0 DUP3 PUSH1 0x0 DUP1 MLOAD PUSH1 0x20 PUSH2 0x2150 DUP4 CODECOPY DUP2 MLOAD SWAP2 MSTORE DUP2 EQ PUSH2 0x16F8 JUMPI PUSH1 0x40 MLOAD PUSH3 0x461BCD PUSH1 0xE5 SHL DUP2 MSTORE PUSH1 0x4 ADD PUSH2 0x32A SWAP1 PUSH2 0x1F5A JUMP JUMPDEST DUP5 DUP1 PUSH1 0x1 GT ISZERO DUP1 ISZERO PUSH2 0x170C JUMPI POP PUSH1 0x2 SLOAD DUP2 GT ISZERO JUMPDEST PUSH2 0x1728 JUMPI PUSH1 0x40 MLOAD PUSH3 0x461BCD PUSH1 0xE5 SHL DUP2 MSTORE PUSH1 0x4 ADD PUSH2 0x32A SWAP1 PUSH2 0x1FA1 JUMP JUMPDEST PUSH1 0x0 DUP7 DUP2 MSTORE PUSH1 0x1 PUSH1 0x20 MSTORE PUSH1 0x40 SWAP1 KECCAK256 PUSH1 0x9 ADD PUSH2 0xA33 DUP6 DUP3 PUSH2 0x208F JUMP JUMPDEST PUSH1 0x0 DUP3 PUSH1 0x0 DUP1 MLOAD PUSH1 0x20 PUSH2 0x2150 DUP4 CODECOPY DUP2 MLOAD SWAP2 MSTORE DUP2 EQ PUSH2 0x1773 JUMPI PUSH1 0x40 MLOAD PUSH3 0x461BCD PUSH1 0xE5 SHL DUP2 MSTORE PUSH1 0x4 ADD PUSH2 0x32A SWAP1 PUSH2 0x1F5A JUMP JUMPDEST DUP5 DUP1 PUSH1 0x1 GT ISZERO DUP1 ISZERO PUSH2 0x1787 JUMPI POP PUSH1 0x2 SLOAD DUP2 GT ISZERO JUMPDEST PUSH2 0x17A3 JUMPI PUSH1 0x40 MLOAD PUSH3 0x461BCD PUSH1 0xE5 SHL DUP2 MSTORE PUSH1 0x4 ADD PUSH2 0x32A SWAP1 PUSH2 0x1FA1 JUMP JUMPDEST PUSH1 0x0 DUP7 DUP2 MSTORE PUSH1 0x1 PUSH1 0x20 MSTORE PUSH1 0x40 SWAP1 KECCAK256 PUSH1 0x5 ADD PUSH2 0xA33 DUP6 DUP3 PUSH2 0x208F JUMP JUMPDEST PUSH1 0x0 DUP3 PUSH1 0x0 DUP1 MLOAD PUSH1 0x20 PUSH2 0x2150 DUP4 CODECOPY DUP2 MLOAD SWAP2 MSTORE DUP2 EQ PUSH2 0x17EE JUMPI PUSH1 0x40 MLOAD PUSH3 0x461BCD PUSH1 0xE5 SHL DUP2 MSTORE PUSH1 0x4 ADD PUSH2 0x32A SWAP1 PUSH2 0x1F5A JUMP JUMPDEST DUP5 DUP1 PUSH1 0x1 GT ISZERO DUP1 ISZERO PUSH2 0x1802 JUMPI POP PUSH1 0x2 SLOAD DUP2 GT ISZERO JUMPDEST PUSH2 0x181E JUMPI PUSH1 0x40 MLOAD PUSH3 0x461BCD PUSH1 0xE5 SHL DUP2 MSTORE PUSH1 0x4 ADD PUSH2 0x32A SWAP1 PUSH2 0x1FA1 JUMP JUMPDEST PUSH1 0x0 DUP7 DUP2 MSTORE PUSH1 0x1 PUSH1 0x20 MSTORE PUSH1 0x40 SWAP1 KECCAK256 PUSH1 0x6 ADD PUSH2 0xA33 DUP6 DUP3 PUSH2 0x208F JUMP JUMPDEST PUSH2 0x1841 PUSH2 0x18EE JUMP JUMPDEST PUSH1 0x1 PUSH1 0x1 PUSH1 0xA0 SHL SUB DUP2 AND PUSH2 0x18A6 JUMPI PUSH1 0x40 MLOAD PUSH3 0x461BCD PUSH1 0xE5 SHL DUP2 MSTORE PUSH1 0x20 PUSH1 0x4 DUP3 ADD MSTORE PUSH1 0x26 PUSH1 0x24 DUP3 ADD MSTORE PUSH32 0x4F776E61626C653A206E6577206F776E657220697320746865207A65726F2061 PUSH1 0x44 DUP3 ADD MSTORE PUSH6 0x646472657373 PUSH1 0xD0 SHL PUSH1 0x64 DUP3 ADD MSTORE PUSH1 0x84 ADD PUSH2 0x32A JUMP JUMPDEST PUSH2 0x18AF DUP2 PUSH2 0x1959 JUMP JUMPDEST POP JUMP JUMPDEST PUSH1 0x0 DUP2 PUSH1 0x0 DUP1 MLOAD PUSH1 0x20 PUSH2 0x2150 DUP4 CODECOPY DUP2 MLOAD SWAP2 MSTORE DUP2 EQ PUSH2 0x18E2 JUMPI PUSH1 0x40 MLOAD PUSH3 0x461BCD PUSH1 0xE5 SHL DUP2 MSTORE PUSH1 0x4 ADD PUSH2 0x32A SWAP1 PUSH2 0x1F5A JUMP JUMPDEST PUSH1 0x2 SLOAD SWAP2 POP JUMPDEST POP SWAP2 SWAP1 POP JUMP JUMPDEST CALLER PUSH2 0x1901 PUSH1 0x0 SLOAD PUSH1 0x1 PUSH1 0x1 PUSH1 0xA0 SHL SUB AND SWAP1 JUMP JUMPDEST PUSH1 0x1 PUSH1 0x1 PUSH1 0xA0 SHL SUB AND EQ PUSH2 0x1957 JUMPI PUSH1 0x40 MLOAD PUSH3 0x461BCD PUSH1 0xE5 SHL DUP2 MSTORE PUSH1 0x20 PUSH1 0x4 DUP3 ADD DUP2 SWAP1 MSTORE PUSH1 0x24 DUP3 ADD MSTORE PUSH32 0x4F776E61626C653A2063616C6C6572206973206E6F7420746865206F776E6572 PUSH1 0x44 DUP3 ADD MSTORE PUSH1 0x64 ADD PUSH2 0x32A JUMP JUMPDEST JUMP JUMPDEST PUSH1 0x0 DUP1 SLOAD PUSH1 0x1 PUSH1 0x1 PUSH1 0xA0 SHL SUB DUP4 DUP2 AND PUSH1 0x1 PUSH1 0x1 PUSH1 0xA0 SHL SUB NOT DUP4 AND DUP2 OR DUP5 SSTORE PUSH1 0x40 MLOAD SWAP2 SWAP1 SWAP3 AND SWAP3 DUP4 SWAP2 PUSH32 0x8BE0079C531659141344CD1FD0A4F28419497F9722A3DAAFE3B4186F6B6457E0 SWAP2 SWAP1 LOG3 POP POP JUMP JUMPDEST PUSH1 0x40 MLOAD DUP1 PUSH2 0x180 ADD PUSH1 0x40 MSTORE DUP1 PUSH1 0x0 DUP2 MSTORE PUSH1 0x20 ADD PUSH1 0x0 DUP2 MSTORE PUSH1 0x20 ADD PUSH1 0x0 DUP2 MSTORE PUSH1 0x20 ADD PUSH1 0x0 PUSH1 0x1 PUSH1 0x1 PUSH1 0xA0 SHL SUB AND DUP2 MSTORE PUSH1 0x20 ADD PUSH1 0x60 DUP2 MSTORE PUSH1 0x20 ADD PUSH1 0x60 DUP2 MSTORE PUSH1 0x20 ADD PUSH1 0x60 DUP2 MSTORE PUSH1 0x20 ADD PUSH1 0x60 DUP2 MSTORE PUSH1 0x20 ADD PUSH1 0x60 DUP2 MSTORE PUSH1 0x20 ADD PUSH1 0x60 DUP2 MSTORE PUSH1 0x20 ADD PUSH1 0x60 DUP2 MSTORE PUSH1 0x20 ADD PUSH1 0x60 DUP2 MSTORE POP SWAP1 JUMP JUMPDEST PUSH1 0x0 DUP1 PUSH1 0x0 PUSH1 0x60 DUP5 DUP7 SUB SLT ISZERO PUSH2 0x1A28 JUMPI PUSH1 0x0 DUP1 REVERT JUMPDEST POP POP DUP2 CALLDATALOAD SWAP4 PUSH1 0x20 DUP4 ADD CALLDATALOAD SWAP4 POP PUSH1 0x40 SWAP1 SWAP3 ADD CALLDATALOAD SWAP2 SWAP1 POP JUMP JUMPDEST DUP1 CALLDATALOAD PUSH1 0x1 PUSH1 0x1 PUSH1 0xA0 SHL SUB DUP2 AND DUP2 EQ PUSH2 0x1A56 JUMPI PUSH1 0x0 DUP1 REVERT JUMPDEST SWAP2 SWAP1 POP JUMP JUMPDEST PUSH1 0x0 DUP1 PUSH1 0x40 DUP4 DUP6 SUB SLT ISZERO PUSH2 0x1A6E JUMPI PUSH1 0x0 DUP1 REVERT JUMPDEST PUSH2 0x1A77 DUP4 PUSH2 0x1A3F JUMP JUMPDEST SWAP5 PUSH1 0x20 SWAP4 SWAP1 SWAP4 ADD CALLDATALOAD SWAP4 POP POP POP JUMP JUMPDEST PUSH1 0x0 DUP2 MLOAD DUP1 DUP5 MSTORE PUSH1 0x0 JUMPDEST DUP2 DUP2 LT ISZERO PUSH2 0x1AAB JUMPI PUSH1 0x20 DUP2 DUP6 ADD DUP2 ADD MLOAD DUP7 DUP4 ADD DUP3 ADD MSTORE ADD PUSH2 0x1A8F JUMP JUMPDEST POP PUSH1 0x0 PUSH1 0x20 DUP3 DUP7 ADD ADD MSTORE PUSH1 0x20 PUSH1 0x1F NOT PUSH1 0x1F DUP4 ADD AND DUP6 ADD ADD SWAP2 POP POP SWAP3 SWAP2 POP POP JUMP JUMPDEST PUSH1 0x20 DUP2 MSTORE DUP2 MLOAD PUSH1 0x20 DUP3 ADD MSTORE PUSH1 0x20 DUP3 ADD MLOAD PUSH1 0x40 DUP3 ADD MSTORE PUSH1 0x40 DUP3 ADD MLOAD PUSH1 0x60 DUP3 ADD MSTORE PUSH1 0x0 PUSH1 0x60 DUP4 ADD MLOAD PUSH2 0x1B06 PUSH1 0x80 DUP5 ADD DUP3 PUSH1 0x1 PUSH1 0x1 PUSH1 0xA0 SHL SUB AND SWAP1 MSTORE JUMP JUMPDEST POP PUSH1 0x80 DUP4 ADD MLOAD PUSH2 0x180 DUP1 PUSH1 0xA0 DUP6 ADD MSTORE PUSH2 0x1B23 PUSH2 0x1A0 DUP6 ADD DUP4 PUSH2 0x1A85 JUMP JUMPDEST SWAP2 POP PUSH1 0xA0 DUP6 ADD MLOAD PUSH1 0x1F NOT DUP1 DUP7 DUP6 SUB ADD PUSH1 0xC0 DUP8 ADD MSTORE PUSH2 0x1B41 DUP5 DUP4 PUSH2 0x1A85 JUMP JUMPDEST SWAP4 POP PUSH1 0xC0 DUP8 ADD MLOAD SWAP2 POP DUP1 DUP7 DUP6 SUB ADD PUSH1 0xE0 DUP8 ADD MSTORE PUSH2 0x1B5E DUP5 DUP4 PUSH2 0x1A85 JUMP JUMPDEST SWAP4 POP PUSH1 0xE0 DUP8 ADD MLOAD SWAP2 POP PUSH2 0x100 DUP2 DUP8 DUP7 SUB ADD DUP2 DUP9 ADD MSTORE PUSH2 0x1B7D DUP6 DUP5 PUSH2 0x1A85 JUMP JUMPDEST SWAP5 POP DUP1 DUP9 ADD MLOAD SWAP3 POP POP PUSH2 0x120 DUP2 DUP8 DUP7 SUB ADD DUP2 DUP9 ADD MSTORE PUSH2 0x1B9C DUP6 DUP5 PUSH2 0x1A85 JUMP JUMPDEST SWAP5 POP DUP1 DUP9 ADD MLOAD SWAP3 POP POP PUSH2 0x140 DUP2 DUP8 DUP7 SUB ADD DUP2 DUP9 ADD MSTORE PUSH2 0x1BBB DUP6 DUP5 PUSH2 0x1A85 JUMP JUMPDEST SWAP5 POP DUP1 DUP9 ADD MLOAD SWAP3 POP POP PUSH2 0x160 DUP2 DUP8 DUP7 SUB ADD DUP2 DUP9 ADD MSTORE PUSH2 0x1BDA DUP6 DUP5 PUSH2 0x1A85 JUMP JUMPDEST SWAP1 DUP9 ADD MLOAD DUP8 DUP3 SUB SWAP1 SWAP3 ADD DUP5 DUP9 ADD MSTORE SWAP4 POP SWAP1 POP PUSH2 0x1BF6 DUP4 DUP3 PUSH2 0x1A85 JUMP JUMPDEST SWAP7 SWAP6 POP POP POP POP POP POP JUMP JUMPDEST PUSH4 0x4E487B71 PUSH1 0xE0 SHL PUSH1 0x0 MSTORE PUSH1 0x41 PUSH1 0x4 MSTORE PUSH1 0x24 PUSH1 0x0 REVERT JUMPDEST PUSH1 0x40 MLOAD PUSH2 0x180 DUP2 ADD PUSH8 0xFFFFFFFFFFFFFFFF DUP2 GT DUP3 DUP3 LT OR ISZERO PUSH2 0x1C3A JUMPI PUSH2 0x1C3A PUSH2 0x1C00 JUMP JUMPDEST PUSH1 0x40 MSTORE SWAP1 JUMP JUMPDEST PUSH1 0x0 DUP3 PUSH1 0x1F DUP4 ADD SLT PUSH2 0x1C51 JUMPI PUSH1 0x0 DUP1 REVERT JUMPDEST DUP2 CALLDATALOAD PUSH8 0xFFFFFFFFFFFFFFFF DUP1 DUP3 GT ISZERO PUSH2 0x1C6C JUMPI PUSH2 0x1C6C PUSH2 0x1C00 JUMP JUMPDEST PUSH1 0x40 MLOAD PUSH1 0x1F DUP4 ADD PUSH1 0x1F NOT SWAP1 DUP2 AND PUSH1 0x3F ADD AND DUP2 ADD SWAP1 DUP3 DUP3 GT DUP2 DUP4 LT OR ISZERO PUSH2 0x1C94 JUMPI PUSH2 0x1C94 PUSH2 0x1C00 JUMP JUMPDEST DUP2 PUSH1 0x40 MSTORE DUP4 DUP2 MSTORE DUP7 PUSH1 0x20 DUP6 DUP9 ADD ADD GT ISZERO PUSH2 0x1CAD JUMPI PUSH1 0x0 DUP1 REVERT JUMPDEST DUP4 PUSH1 0x20 DUP8 ADD PUSH1 0x20 DUP4 ADD CALLDATACOPY PUSH1 0x0 PUSH1 0x20 DUP6 DUP4 ADD ADD MSTORE DUP1 SWAP5 POP POP POP POP POP SWAP3 SWAP2 POP POP JUMP JUMPDEST PUSH1 0x0 DUP1 PUSH1 0x0 PUSH1 0x60 DUP5 DUP7 SUB SLT ISZERO PUSH2 0x1CE2 JUMPI PUSH1 0x0 DUP1 REVERT JUMPDEST DUP4 CALLDATALOAD SWAP3 POP PUSH1 0x20 DUP5 ADD CALLDATALOAD SWAP2 POP PUSH1 0x40 DUP5 ADD CALLDATALOAD PUSH8 0xFFFFFFFFFFFFFFFF DUP2 GT ISZERO PUSH2 0x1D07 JUMPI PUSH1 0x0 DUP1 REVERT JUMPDEST PUSH2 0x1D13 DUP7 DUP3 DUP8 ADD PUSH2 0x1C40 JUMP JUMPDEST SWAP2 POP POP SWAP3 POP SWAP3 POP SWAP3 JUMP JUMPDEST PUSH1 0x0 DUP1 PUSH1 0x0 PUSH1 0x60 DUP5 DUP7 SUB SLT ISZERO PUSH2 0x1D32 JUMPI PUSH1 0x0 DUP1 REVERT JUMPDEST DUP4 CALLDATALOAD SWAP3 POP PUSH1 0x20 DUP5 ADD CALLDATALOAD SWAP2 POP PUSH2 0x1D49 PUSH1 0x40 DUP6 ADD PUSH2 0x1A3F JUMP JUMPDEST SWAP1 POP SWAP3 POP SWAP3 POP SWAP3 JUMP JUMPDEST PUSH1 0x0 DUP1 PUSH1 0x40 DUP4 DUP6 SUB SLT ISZERO PUSH2 0x1D65 JUMPI PUSH1 0x0 DUP1 REVERT JUMPDEST DUP3 CALLDATALOAD PUSH8 0xFFFFFFFFFFFFFFFF DUP1 DUP3 GT ISZERO PUSH2 0x1D7D JUMPI PUSH1 0x0 DUP1 REVERT JUMPDEST SWAP1 DUP5 ADD SWAP1 PUSH2 0x180 DUP3 DUP8 SUB SLT ISZERO PUSH2 0x1D92 JUMPI PUSH1 0x0 DUP1 REVERT JUMPDEST PUSH2 0x1D9A PUSH2 0x1C16 JUMP JUMPDEST DUP3 CALLDATALOAD DUP2 MSTORE PUSH1 0x20 DUP4 ADD CALLDATALOAD PUSH1 0x20 DUP3 ADD MSTORE PUSH1 0x40 DUP4 ADD CALLDATALOAD PUSH1 0x40 DUP3 ADD MSTORE PUSH2 0x1DBE PUSH1 0x60 DUP5 ADD PUSH2 0x1A3F JUMP JUMPDEST PUSH1 0x60 DUP3 ADD MSTORE PUSH1 0x80 DUP4 ADD CALLDATALOAD DUP3 DUP2 GT ISZERO PUSH2 0x1DD5 JUMPI PUSH1 0x0 DUP1 REVERT JUMPDEST PUSH2 0x1DE1 DUP9 DUP3 DUP7 ADD PUSH2 0x1C40 JUMP JUMPDEST PUSH1 0x80 DUP4 ADD MSTORE POP PUSH1 0xA0 DUP4 ADD CALLDATALOAD DUP3 DUP2 GT ISZERO PUSH2 0x1DF9 JUMPI PUSH1 0x0 DUP1 REVERT JUMPDEST PUSH2 0x1E05 DUP9 DUP3 DUP7 ADD PUSH2 0x1C40 JUMP JUMPDEST PUSH1 0xA0 DUP4 ADD MSTORE POP PUSH1 0xC0 DUP4 ADD CALLDATALOAD DUP3 DUP2 GT ISZERO PUSH2 0x1E1D JUMPI PUSH1 0x0 DUP1 REVERT JUMPDEST PUSH2 0x1E29 DUP9 DUP3 DUP7 ADD PUSH2 0x1C40 JUMP JUMPDEST PUSH1 0xC0 DUP4 ADD MSTORE POP PUSH1 0xE0 DUP4 ADD CALLDATALOAD DUP3 DUP2 GT ISZERO PUSH2 0x1E41 JUMPI PUSH1 0x0 DUP1 REVERT JUMPDEST PUSH2 0x1E4D DUP9 DUP3 DUP7 ADD PUSH2 0x1C40 JUMP JUMPDEST PUSH1 0xE0 DUP4 ADD MSTORE POP PUSH2 0x100 DUP1 DUP5 ADD CALLDATALOAD DUP4 DUP2 GT ISZERO PUSH2 0x1E67 JUMPI PUSH1 0x0 DUP1 REVERT JUMPDEST PUSH2 0x1E73 DUP10 DUP3 DUP8 ADD PUSH2 0x1C40 JUMP JUMPDEST DUP3 DUP5 ADD MSTORE POP POP PUSH2 0x120 DUP1 DUP5 ADD CALLDATALOAD DUP4 DUP2 GT ISZERO PUSH2 0x1E8D JUMPI PUSH1 0x0 DUP1 REVERT JUMPDEST PUSH2 0x1E99 DUP10 DUP3 DUP8 ADD PUSH2 0x1C40 JUMP JUMPDEST DUP3 DUP5 ADD MSTORE POP POP PUSH2 0x140 DUP1 DUP5 ADD CALLDATALOAD DUP4 DUP2 GT ISZERO PUSH2 0x1EB3 JUMPI PUSH1 0x0 DUP1 REVERT JUMPDEST PUSH2 0x1EBF DUP10 DUP3 DUP8 ADD PUSH2 0x1C40 JUMP JUMPDEST DUP3 DUP5 ADD MSTORE POP POP PUSH2 0x160 DUP1 DUP5 ADD CALLDATALOAD DUP4 DUP2 GT ISZERO PUSH2 0x1ED9 JUMPI PUSH1 0x0 DUP1 REVERT JUMPDEST PUSH2 0x1EE5 DUP10 DUP3 DUP8 ADD PUSH2 0x1C40 JUMP JUMPDEST SWAP2 DUP4 ADD SWAP2 SWAP1 SWAP2 MSTORE POP SWAP7 PUSH1 0x20 SWAP6 SWAP1 SWAP6 ADD CALLDATALOAD SWAP6 POP POP POP POP POP JUMP JUMPDEST PUSH1 0x0 DUP1 PUSH1 0x40 DUP4 DUP6 SUB SLT ISZERO PUSH2 0x1F10 JUMPI PUSH1 0x0 DUP1 REVERT JUMPDEST POP POP DUP1 CALLDATALOAD SWAP3 PUSH1 0x20 SWAP1 SWAP2 ADD CALLDATALOAD SWAP2 POP JUMP JUMPDEST PUSH1 0x0 PUSH1 0x20 DUP3 DUP5 SUB SLT ISZERO PUSH2 0x1F31 JUMPI PUSH1 0x0 DUP1 REVERT JUMPDEST PUSH2 0x1F3A DUP3 PUSH2 0x1A3F JUMP JUMPDEST SWAP4 SWAP3 POP POP POP JUMP JUMPDEST PUSH1 0x0 PUSH1 0x20 DUP3 DUP5 SUB SLT ISZERO PUSH2 0x1F53 JUMPI PUSH1 0x0 DUP1 REVERT JUMPDEST POP CALLDATALOAD SWAP2 SWAP1 POP JUMP JUMPDEST PUSH1 0x20 DUP1 DUP3 MSTORE PUSH1 0x27 SWAP1 DUP3 ADD MSTORE PUSH32 0x4461746162617365204C697374456D706C6F7965653A20536563726574206B65 PUSH1 0x40 DUP3 ADD MSTORE PUSH7 0x3C9032B93937B9 PUSH1 0xC9 SHL PUSH1 0x60 DUP3 ADD MSTORE PUSH1 0x80 ADD SWAP1 JUMP JUMPDEST PUSH1 0x20 DUP1 DUP3 MSTORE PUSH1 0x24 SWAP1 DUP3 ADD MSTORE PUSH32 0x4461746162617365204C697374456D706C6F7965653A20496E76616C69642069 PUSH1 0x40 DUP3 ADD MSTORE PUSH4 0xDCC8CAF PUSH1 0xE3 SHL PUSH1 0x60 DUP3 ADD MSTORE PUSH1 0x80 ADD SWAP1 JUMP JUMPDEST PUSH1 0x1 DUP2 DUP2 SHR SWAP1 DUP3 AND DUP1 PUSH2 0x1FF9 JUMPI PUSH1 0x7F DUP3 AND SWAP2 POP JUMPDEST PUSH1 0x20 DUP3 LT DUP2 SUB PUSH2 0x18E8 JUMPI PUSH4 0x4E487B71 PUSH1 0xE0 SHL PUSH1 0x0 MSTORE PUSH1 0x22 PUSH1 0x4 MSTORE PUSH1 0x24 PUSH1 0x0 REVERT JUMPDEST PUSH1 0x0 PUSH1 0x1 DUP3 ADD PUSH2 0x2039 JUMPI PUSH4 0x4E487B71 PUSH1 0xE0 SHL PUSH1 0x0 MSTORE PUSH1 0x11 PUSH1 0x4 MSTORE PUSH1 0x24 PUSH1 0x0 REVERT JUMPDEST POP PUSH1 0x1 ADD SWAP1 JUMP JUMPDEST PUSH1 0x1F DUP3 GT ISZERO PUSH2 0x208A JUMPI PUSH1 0x0 DUP2 DUP2 MSTORE PUSH1 0x20 DUP2 KECCAK256 PUSH1 0x1F DUP6 ADD PUSH1 0x5 SHR DUP2 ADD PUSH1 0x20 DUP7 LT ISZERO PUSH2 0x2067 JUMPI POP DUP1 JUMPDEST PUSH1 0x1F DUP6 ADD PUSH1 0x5 SHR DUP3 ADD SWAP2 POP JUMPDEST DUP2 DUP2 LT ISZERO PUSH2 0x2086 JUMPI DUP3 DUP2 SSTORE PUSH1 0x1 ADD PUSH2 0x2073 JUMP JUMPDEST POP POP POP JUMPDEST POP POP POP JUMP JUMPDEST DUP2 MLOAD PUSH8 0xFFFFFFFFFFFFFFFF DUP2 GT ISZERO PUSH2 0x20A9 JUMPI PUSH2 0x20A9 PUSH2 0x1C00 JUMP JUMPDEST PUSH2 0x20BD DUP2 PUSH2 0x20B7 DUP5 SLOAD PUSH2 0x1FE5 JUMP JUMPDEST DUP5 PUSH2 0x2040 JUMP JUMPDEST PUSH1 0x20 DUP1 PUSH1 0x1F DUP4 GT PUSH1 0x1 DUP2 EQ PUSH2 0x20F2 JUMPI PUSH1 0x0 DUP5 ISZERO PUSH2 0x20DA JUMPI POP DUP6 DUP4 ADD MLOAD JUMPDEST PUSH1 0x0 NOT PUSH1 0x3 DUP7 SWAP1 SHL SHR NOT AND PUSH1 0x1 DUP6 SWAP1 SHL OR DUP6 SSTORE PUSH2 0x2086 JUMP JUMPDEST PUSH1 0x0 DUP6 DUP2 MSTORE PUSH1 0x20 DUP2 KECCAK256 PUSH1 0x1F NOT DUP7 AND SWAP2 JUMPDEST DUP3 DUP2 LT ISZERO PUSH2 0x2121 JUMPI DUP9 DUP7 ADD MLOAD DUP3 SSTORE SWAP5 DUP5 ADD SWAP5 PUSH1 0x1 SWAP1 SWAP2 ADD SWAP1 DUP5 ADD PUSH2 0x2102 JUMP JUMPDEST POP DUP6 DUP3 LT ISZERO PUSH2 0x213F JUMPI DUP8 DUP6 ADD MLOAD PUSH1 0x0 NOT PUSH1 0x3 DUP9 SWAP1 SHL PUSH1 0xF8 AND SHR NOT AND DUP2 SSTORE JUMPDEST POP POP POP POP POP PUSH1 0x1 SWAP1 DUP2 SHL ADD SWAP1 SSTORE POP JUMP INVALID DUP15 AND DIV 0xA8 CODESIZE 0xD0 CALL 0xA9 0xB2 0xCD LOG1 0x4A MULMOD SWAP15 0x4C 0xEB ADDMOD 0xE9 PUSH7 0xCC6E05E8296F67 0xB0 0x2D PUSH2 0xA79F MULMOD LOG2 PUSH5 0x6970667358 0x22 SLT KECCAK256 REVERT DUP14 0xC2 0xC3 0xC1 0xB2 CALLDATALOAD SHL 0xF9 PUSH31 0x9140DB095D0A999F44F127B4ED123C56265B49583D764736F6C6343000810 STOP CALLER "
				},
				"gasEstimates": {
					"creation": {
						"codeDepositCost": "1722600",
						"executionCost": "31054",
						"totalCost": "1753654"
					},
					"external": {
						"add((uint256,uint256,uint256,address,string,string,string,string,string,string,string,string),bytes32)": "infinite",
						"at(uint256,bytes32)": "infinite",
						"atAddress(address,bytes32)": "infinite",
						"destroy()": "30045",
						"findIdByAddress(address,bytes32)": "infinite",
						"getLength(bytes32)": "infinite",
						"hide(uint256,bytes32)": "infinite",
						"owner()": "2346",
						"setCategory(uint256,bytes32,uint256)": "infinite",
						"setEmail(uint256,bytes32,string)": "infinite",
						"setGithub(uint256,bytes32,string)": "infinite",
						"setId(uint256,bytes32,uint256)": "infinite",
						"setIdCardNumber(uint256,bytes32,uint256)": "infinite",
						"setLinkedin(uint256,bytes32,string)": "infinite",
						"setName(uint256,bytes32,string)": "infinite",
						"setPassword(uint256,bytes32,string)": "infinite",
						"setPhone(uint256,bytes32,string)": "infinite",
						"setProfessional(uint256,bytes32,string)": "infinite",
						"setSourceImage(uint256,bytes32,string)": "infinite",
						"setUser(uint256,bytes32,address)": "infinite",
						"transferOwnership(address)": "28476"
					}
				},
				"methodIdentifiers": {
					"add((uint256,uint256,uint256,address,string,string,string,string,string,string,string,string),bytes32)": "7dcd61bd",
					"at(uint256,bytes32)": "c78a6741",
					"atAddress(address,bytes32)": "236df93c",
					"destroy()": "83197ef0",
					"findIdByAddress(address,bytes32)": "d32a04c7",
					"getLength(bytes32)": "fd82e9dd",
					"hide(uint256,bytes32)": "b615c00a",
					"owner()": "8da5cb5b",
					"setCategory(uint256,bytes32,uint256)": "294b4b6b",
					"setEmail(uint256,bytes32,string)": "29cd6311",
					"setGithub(uint256,bytes32,string)": "d2af71a6",
					"setId(uint256,bytes32,uint256)": "8827b05f",
					"setIdCardNumber(uint256,bytes32,uint256)": "11a89a5f",
					"setLinkedin(uint256,bytes32,string)": "d45c8abf",
					"setName(uint256,bytes32,string)": "413896e4",
					"setPassword(uint256,bytes32,string)": "2c3ce919",
					"setPhone(uint256,bytes32,string)": "d49cb146",
					"setProfessional(uint256,bytes32,string)": "e3f34371",
					"setSourceImage(uint256,bytes32,string)": "800f2234",
					"setUser(uint256,bytes32,address)": "2e22eafe",
					"transferOwnership(address)": "f2fde38b"
				}
			},
			"storageLayout": {
				"storage": [
					{
						"astId": 4,
						"contract": "database/ListEmployee.sol:ListEmployee",
						"label": "_owner",
						"offset": 0,
						"slot": "0",
						"type": "t_address"
					},
					{
						"astId": 134,
						"contract": "database/ListEmployee.sol:ListEmployee",
						"label": "list",
						"offset": 0,
						"slot": "1",
						"type": "t_mapping(t_uint256,t_struct(Profile)731_storage)"
					},
					{
						"astId": 137,
						"contract": "database/ListEmployee.sol:ListEmployee",
						"label": "autoIncrement",
						"offset": 0,
						"slot": "2",
						"type": "t_uint256"
					}
				],
				"types": {
					"t_address": {
						"encoding": "inplace",
						"label": "address",
						"numberOfBytes": "20"
					},
					"t_mapping(t_uint256,t_struct(Profile)731_storage)": {
						"encoding": "mapping",
						"key": "t_uint256",
						"label": "mapping(uint256 => struct Profile)",
						"numberOfBytes": "32",
						"value": "t_struct(Profile)731_storage"
					},
					"t_string_storage": {
						"encoding": "bytes",
						"label": "string",
						"numberOfBytes": "32"
					},
					"t_struct(Profile)731_storage": {
						"encoding": "inplace",
						"label": "struct Profile",
						"members": [
							{
								"astId": 708,
								"contract": "database/ListEmployee.sol:ListEmployee",
								"label": "catergory",
								"offset": 0,
								"slot": "0",
								"type": "t_uint256"
							},
							{
								"astId": 710,
								"contract": "database/ListEmployee.sol:ListEmployee",
								"label": "id",
								"offset": 0,
								"slot": "1",
								"type": "t_uint256"
							},
							{
								"astId": 712,
								"contract": "database/ListEmployee.sol:ListEmployee",
								"label": "idCardNumber",
								"offset": 0,
								"slot": "2",
								"type": "t_uint256"
							},
							{
								"astId": 714,
								"contract": "database/ListEmployee.sol:ListEmployee",
								"label": "user",
								"offset": 0,
								"slot": "3",
								"type": "t_address"
							},
							{
								"astId": 716,
								"contract": "database/ListEmployee.sol:ListEmployee",
								"label": "name",
								"offset": 0,
								"slot": "4",
								"type": "t_string_storage"
							},
							{
								"astId": 718,
								"contract": "database/ListEmployee.sol:ListEmployee",
								"label": "phone",
								"offset": 0,
								"slot": "5",
								"type": "t_string_storage"
							},
							{
								"astId": 720,
								"contract": "database/ListEmployee.sol:ListEmployee",
								"label": "professional",
								"offset": 0,
								"slot": "6",
								"type": "t_string_storage"
							},
							{
								"astId": 722,
								"contract": "database/ListEmployee.sol:ListEmployee",
								"label": "email",
								"offset": 0,
								"slot": "7",
								"type": "t_string_storage"
							},
							{
								"astId": 724,
								"contract": "database/ListEmployee.sol:ListEmployee",
								"label": "github",
								"offset": 0,
								"slot": "8",
								"type": "t_string_storage"
							},
							{
								"astId": 726,
								"contract": "database/ListEmployee.sol:ListEmployee",
								"label": "linkedin",
								"offset": 0,
								"slot": "9",
								"type": "t_string_storage"
							},
							{
								"astId": 728,
								"contract": "database/ListEmployee.sol:ListEmployee",
								"label": "sourceImage",
								"offset": 0,
								"slot": "10",
								"type": "t_string_storage"
							},
							{
								"astId": 730,
								"contract": "database/ListEmployee.sol:ListEmployee",
								"label": "password",
								"offset": 0,
								"slot": "11",
								"type": "t_string_storage"
							}
						],
						"numberOfBytes": "384"
					},
					"t_uint256": {
						"encoding": "inplace",
						"label": "uint256",
						"numberOfBytes": "32"
					}
				}
			},
			"userdoc": {
				"kind": "user",
				"methods": {},
				"version": 1
			}
		}
	}
}