{
	"database/ListBusiness.sol": {
		"ListBusiness": {
			"abi": [
				{
					"inputs": [],
					"stateMutability": "nonpayable",
					"type": "constructor"
				},
				{
					"anonymous": false,
					"inputs": [
						{
							"components": [
								{
									"internalType": "uint256",
									"name": "catergory",
									"type": "uint256"
								},
								{
									"internalType": "uint256",
									"name": "id",
									"type": "uint256"
								},
								{
									"internalType": "address",
									"name": "user",
									"type": "address"
								},
								{
									"internalType": "string",
									"name": "name",
									"type": "string"
								},
								{
									"internalType": "string",
									"name": "phone",
									"type": "string"
								},
								{
									"internalType": "string",
									"name": "professional",
									"type": "string"
								},
								{
									"internalType": "string",
									"name": "email",
									"type": "string"
								},
								{
									"internalType": "string",
									"name": "github",
									"type": "string"
								},
								{
									"internalType": "string",
									"name": "linkedin",
									"type": "string"
								},
								{
									"internalType": "string",
									"name": "sourceImage",
									"type": "string"
								},
								{
									"internalType": "string",
									"name": "password",
									"type": "string"
								}
							],
							"indexed": false,
							"internalType": "struct Profile",
							"name": "item",
							"type": "tuple"
						}
					],
					"name": "Add",
					"type": "event"
				},
				{
					"anonymous": false,
					"inputs": [
						{
							"indexed": true,
							"internalType": "address",
							"name": "previousOwner",
							"type": "address"
						},
						{
							"indexed": true,
							"internalType": "address",
							"name": "newOwner",
							"type": "address"
						}
					],
					"name": "OwnershipTransferred",
					"type": "event"
				},
				{
					"anonymous": false,
					"inputs": [
						{
							"components": [
								{
									"internalType": "uint256",
									"name": "catergory",
									"type": "uint256"
								},
								{
									"internalType": "uint256",
									"name": "id",
									"type": "uint256"
								},
								{
									"internalType": "address",
									"name": "user",
									"type": "address"
								},
								{
									"internalType": "string",
									"name": "name",
									"type": "string"
								},
								{
									"internalType": "string",
									"name": "phone",
									"type": "string"
								},
								{
									"internalType": "string",
									"name": "professional",
									"type": "string"
								},
								{
									"internalType": "string",
									"name": "email",
									"type": "string"
								},
								{
									"internalType": "string",
									"name": "github",
									"type": "string"
								},
								{
									"internalType": "string",
									"name": "linkedin",
									"type": "string"
								},
								{
									"internalType": "string",
									"name": "sourceImage",
									"type": "string"
								},
								{
									"internalType": "string",
									"name": "password",
									"type": "string"
								}
							],
							"indexed": false,
							"internalType": "struct Profile",
							"name": "item",
							"type": "tuple"
						}
					],
					"name": "Remove",
					"type": "event"
				},
				{
					"inputs": [
						{
							"components": [
								{
									"internalType": "uint256",
									"name": "catergory",
									"type": "uint256"
								},
								{
									"internalType": "uint256",
									"name": "id",
									"type": "uint256"
								},
								{
									"internalType": "address",
									"name": "user",
									"type": "address"
								},
								{
									"internalType": "string",
									"name": "name",
									"type": "string"
								},
								{
									"internalType": "string",
									"name": "phone",
									"type": "string"
								},
								{
									"internalType": "string",
									"name": "professional",
									"type": "string"
								},
								{
									"internalType": "string",
									"name": "email",
									"type": "string"
								},
								{
									"internalType": "string",
									"name": "github",
									"type": "string"
								},
								{
									"internalType": "string",
									"name": "linkedin",
									"type": "string"
								},
								{
									"internalType": "string",
									"name": "sourceImage",
									"type": "string"
								},
								{
									"internalType": "string",
									"name": "password",
									"type": "string"
								}
							],
							"internalType": "struct Profile",
							"name": "item",
							"type": "tuple"
						},
						{
							"internalType": "bytes32",
							"name": "secret",
							"type": "bytes32"
						}
					],
					"name": "add",
					"outputs": [
						{
							"internalType": "bool",
							"name": "",
							"type": "bool"
						}
					],
					"stateMutability": "nonpayable",
					"type": "function"
				},
				{
					"inputs": [
						{
							"internalType": "uint256",
							"name": "index",
							"type": "uint256"
						},
						{
							"internalType": "bytes32",
							"name": "secret",
							"type": "bytes32"
						}
					],
					"name": "at",
					"outputs": [
						{
							"components": [
								{
									"internalType": "uint256",
									"name": "catergory",
									"type": "uint256"
								},
								{
									"internalType": "uint256",
									"name": "id",
									"type": "uint256"
								},
								{
									"internalType": "address",
									"name": "user",
									"type": "address"
								},
								{
									"internalType": "string",
									"name": "name",
									"type": "string"
								},
								{
									"internalType": "string",
									"name": "phone",
									"type": "string"
								},
								{
									"internalType": "string",
									"name": "professional",
									"type": "string"
								},
								{
									"internalType": "string",
									"name": "email",
									"type": "string"
								},
								{
									"internalType": "string",
									"name": "github",
									"type": "string"
								},
								{
									"internalType": "string",
									"name": "linkedin",
									"type": "string"
								},
								{
									"internalType": "string",
									"name": "sourceImage",
									"type": "string"
								},
								{
									"internalType": "string",
									"name": "password",
									"type": "string"
								}
							],
							"internalType": "struct Profile",
							"name": "",
							"type": "tuple"
						}
					],
					"stateMutability": "view",
					"type": "function"
				},
				{
					"inputs": [
						{
							"internalType": "address",
							"name": "value",
							"type": "address"
						},
						{
							"internalType": "bytes32",
							"name": "secret",
							"type": "bytes32"
						}
					],
					"name": "atAddress",
					"outputs": [
						{
							"components": [
								{
									"internalType": "uint256",
									"name": "catergory",
									"type": "uint256"
								},
								{
									"internalType": "uint256",
									"name": "id",
									"type": "uint256"
								},
								{
									"internalType": "address",
									"name": "user",
									"type": "address"
								},
								{
									"internalType": "string",
									"name": "name",
									"type": "string"
								},
								{
									"internalType": "string",
									"name": "phone",
									"type": "string"
								},
								{
									"internalType": "string",
									"name": "professional",
									"type": "string"
								},
								{
									"internalType": "string",
									"name": "email",
									"type": "string"
								},
								{
									"internalType": "string",
									"name": "github",
									"type": "string"
								},
								{
									"internalType": "string",
									"name": "linkedin",
									"type": "string"
								},
								{
									"internalType": "string",
									"name": "sourceImage",
									"type": "string"
								},
								{
									"internalType": "string",
									"name": "password",
									"type": "string"
								}
							],
							"internalType": "struct Profile",
							"name": "",
							"type": "tuple"
						}
					],
					"stateMutability": "view",
					"type": "function"
				},
				{
					"inputs": [],
					"name": "destroy",
					"outputs": [],
					"stateMutability": "nonpayable",
					"type": "function"
				},
				{
					"inputs": [
						{
							"internalType": "address",
							"name": "value",
							"type": "address"
						},
						{
							"internalType": "bytes32",
							"name": "secret",
							"type": "bytes32"
						}
					],
					"name": "findIdByAddress",
					"outputs": [
						{
							"internalType": "uint256",
							"name": "",
							"type": "uint256"
						}
					],
					"stateMutability": "view",
					"type": "function"
				},
				{
					"inputs": [
						{
							"internalType": "bytes32",
							"name": "secret",
							"type": "bytes32"
						}
					],
					"name": "getLength",
					"outputs": [
						{
							"internalType": "uint256",
							"name": "",
							"type": "uint256"
						}
					],
					"stateMutability": "view",
					"type": "function"
				},
				{
					"inputs": [
						{
							"internalType": "uint256",
							"name": "index",
							"type": "uint256"
						},
						{
							"internalType": "bytes32",
							"name": "secret",
							"type": "bytes32"
						}
					],
					"name": "hide",
					"outputs": [
						{
							"internalType": "bool",
							"name": "",
							"type": "bool"
						}
					],
					"stateMutability": "nonpayable",
					"type": "function"
				},
				{
					"inputs": [],
					"name": "owner",
					"outputs": [
						{
							"internalType": "address",
							"name": "",
							"type": "address"
						}
					],
					"stateMutability": "view",
					"type": "function"
				},
				{
					"inputs": [
						{
							"internalType": "uint256",
							"name": "index",
							"type": "uint256"
						},
						{
							"internalType": "bytes32",
							"name": "secret",
							"type": "bytes32"
						},
						{
							"internalType": "uint256",
							"name": "value",
							"type": "uint256"
						}
					],
					"name": "setCategory",
					"outputs": [
						{
							"internalType": "bool",
							"name": "",
							"type": "bool"
						}
					],
					"stateMutability": "nonpayable",
					"type": "function"
				},
				{
					"inputs": [
						{
							"internalType": "uint256",
							"name": "index",
							"type": "uint256"
						},
						{
							"internalType": "bytes32",
							"name": "secret",
							"type": "bytes32"
						},
						{
							"internalType": "string",
							"name": "value",
							"type": "string"
						}
					],
					"name": "setEmail",
					"outputs": [
						{
							"internalType": "bool",
							"name": "",
							"type": "bool"
						}
					],
					"stateMutability": "nonpayable",
					"type": "function"
				},
				{
					"inputs": [
						{
							"internalType": "uint256",
							"name": "index",
							"type": "uint256"
						},
						{
							"internalType": "bytes32",
							"name": "secret",
							"type": "bytes32"
						},
						{
							"internalType": "string",
							"name": "value",
							"type": "string"
						}
					],
					"name": "setGithub",
					"outputs": [
						{
							"internalType": "bool",
							"name": "",
							"type": "bool"
						}
					],
					"stateMutability": "nonpayable",
					"type": "function"
				},
				{
					"inputs": [
						{
							"internalType": "uint256",
							"name": "index",
							"type": "uint256"
						},
						{
							"internalType": "bytes32",
							"name": "secret",
							"type": "bytes32"
						},
						{
							"internalType": "uint256",
							"name": "value",
							"type": "uint256"
						}
					],
					"name": "setId",
					"outputs": [
						{
							"internalType": "bool",
							"name": "",
							"type": "bool"
						}
					],
					"stateMutability": "nonpayable",
					"type": "function"
				},
				{
					"inputs": [
						{
							"internalType": "uint256",
							"name": "index",
							"type": "uint256"
						},
						{
							"internalType": "bytes32",
							"name": "secret",
							"type": "bytes32"
						},
						{
							"internalType": "string",
							"name": "value",
							"type": "string"
						}
					],
					"name": "setLinkedin",
					"outputs": [
						{
							"internalType": "bool",
							"name": "",
							"type": "bool"
						}
					],
					"stateMutability": "nonpayable",
					"type": "function"
				},
				{
					"inputs": [
						{
							"internalType": "uint256",
							"name": "index",
							"type": "uint256"
						},
						{
							"internalType": "bytes32",
							"name": "secret",
							"type": "bytes32"
						},
						{
							"internalType": "string",
							"name": "value",
							"type": "string"
						}
					],
					"name": "setName",
					"outputs": [
						{
							"internalType": "bool",
							"name": "",
							"type": "bool"
						}
					],
					"stateMutability": "nonpayable",
					"type": "function"
				},
				{
					"inputs": [
						{
							"internalType": "uint256",
							"name": "index",
							"type": "uint256"
						},
						{
							"internalType": "bytes32",
							"name": "secret",
							"type": "bytes32"
						},
						{
							"internalType": "string",
							"name": "value",
							"type": "string"
						}
					],
					"name": "setPassword",
					"outputs": [
						{
							"internalType": "bool",
							"name": "",
							"type": "bool"
						}
					],
					"stateMutability": "nonpayable",
					"type": "function"
				},
				{
					"inputs": [
						{
							"internalType": "uint256",
							"name": "index",
							"type": "uint256"
						},
						{
							"internalType": "bytes32",
							"name": "secret",
							"type": "bytes32"
						},
						{
							"internalType": "string",
							"name": "value",
							"type": "string"
						}
					],
					"name": "setPhone",
					"outputs": [
						{
							"internalType": "bool",
							"name": "",
							"type": "bool"
						}
					],
					"stateMutability": "nonpayable",
					"type": "function"
				},
				{
					"inputs": [
						{
							"internalType": "uint256",
							"name": "index",
							"type": "uint256"
						},
						{
							"internalType": "bytes32",
							"name": "secret",
							"type": "bytes32"
						},
						{
							"internalType": "string",
							"name": "value",
							"type": "string"
						}
					],
					"name": "setProfessional",
					"outputs": [
						{
							"internalType": "bool",
							"name": "",
							"type": "bool"
						}
					],
					"stateMutability": "nonpayable",
					"type": "function"
				},
				{
					"inputs": [
						{
							"internalType": "uint256",
							"name": "index",
							"type": "uint256"
						},
						{
							"internalType": "bytes32",
							"name": "secret",
							"type": "bytes32"
						},
						{
							"internalType": "string",
							"name": "value",
							"type": "string"
						}
					],
					"name": "setSourceImage",
					"outputs": [
						{
							"internalType": "bool",
							"name": "",
							"type": "bool"
						}
					],
					"stateMutability": "nonpayable",
					"type": "function"
				},
				{
					"inputs": [
						{
							"internalType": "uint256",
							"name": "index",
							"type": "uint256"
						},
						{
							"internalType": "bytes32",
							"name": "secret",
							"type": "bytes32"
						},
						{
							"internalType": "address",
							"name": "value",
							"type": "address"
						}
					],
					"name": "setUser",
					"outputs": [
						{
							"internalType": "bool",
							"name": "",
							"type": "bool"
						}
					],
					"stateMutability": "nonpayable",
					"type": "function"
				},
				{
					"inputs": [
						{
							"internalType": "address",
							"name": "newOwner",
							"type": "address"
						}
					],
					"name": "transferOwnership",
					"outputs": [],
					"stateMutability": "nonpayable",
					"type": "function"
				}
			],
			"devdoc": {
				"kind": "dev",
				"methods": {
					"owner()": {
						"details": "Returns the address of the current owner."
					},
					"transferOwnership(address)": {
						"details": "Transfers ownership of the contract to a new account (`newOwner`). Can only be called by the current owner."
					}
				},
				"version": 1
			},
			"evm": {
				"assembly": "    /* \"database/ListBusiness.sol\":237:8427  contract ListBusiness is Ownable {... */\n  mstore(0x40, 0x80)\n    /* \"database/ListBusiness.sol\":354:355  0 */\n  0x00\n    /* \"database/ListBusiness.sol\":322:355  uint256 private autoIncrement = 0 */\n  0x02\n  sstore\n    /* \"database/ListBusiness.sol\":362:388  constructor() Ownable() {} */\n  callvalue\n  dup1\n  iszero\n  tag_1\n  jumpi\n  0x00\n  dup1\n  revert\ntag_1:\n  pop\n    /* \"abstract/Ownable.sol\":932:942  msg.sender */\n  caller\n    /* \"abstract/Ownable.sol\":923:929  _owner */\n  0x00\n  dup1\n    /* \"abstract/Ownable.sol\":923:942  _owner = msg.sender */\n  0x0100\n  exp\n  dup2\n  sload\n  dup2\n  0xffffffffffffffffffffffffffffffffffffffff\n  mul\n  not\n  and\n  swap1\n  dup4\n  0xffffffffffffffffffffffffffffffffffffffff\n  and\n  mul\n  or\n  swap1\n  sstore\n  pop\n    /* \"database/ListBusiness.sol\":237:8427  contract ListBusiness is Ownable {... */\n  dataSize(sub_0)\n  dup1\n  dataOffset(sub_0)\n  0x00\n  codecopy\n  0x00\n  return\nstop\n\nsub_0: assembly {\n        /* \"database/ListBusiness.sol\":237:8427  contract ListBusiness is Ownable {... */\n      mstore(0x40, 0x80)\n      callvalue\n      dup1\n      iszero\n      tag_1\n      jumpi\n      0x00\n      dup1\n      revert\n    tag_1:\n      pop\n      jumpi(tag_2, lt(calldatasize, 0x04))\n      shr(0xe0, calldataload(0x00))\n      dup1\n      0x8da5cb5b\n      gt\n      tag_23\n      jumpi\n      dup1\n      0xd45c8abf\n      gt\n      tag_24\n      jumpi\n      dup1\n      0xd45c8abf\n      eq\n      tag_18\n      jumpi\n      dup1\n      0xd49cb146\n      eq\n      tag_19\n      jumpi\n      dup1\n      0xe3f34371\n      eq\n      tag_20\n      jumpi\n      dup1\n      0xf2fde38b\n      eq\n      tag_21\n      jumpi\n      dup1\n      0xfd82e9dd\n      eq\n      tag_22\n      jumpi\n      jump(tag_2)\n    tag_24:\n      dup1\n      0x8da5cb5b\n      eq\n      tag_13\n      jumpi\n      dup1\n      0xb615c00a\n      eq\n      tag_14\n      jumpi\n      dup1\n      0xc78a6741\n      eq\n      tag_15\n      jumpi\n      dup1\n      0xd2af71a6\n      eq\n      tag_16\n      jumpi\n      dup1\n      0xd32a04c7\n      eq\n      tag_17\n      jumpi\n      jump(tag_2)\n    tag_23:\n      dup1\n      0x2e22eafe\n      gt\n      tag_25\n      jumpi\n      dup1\n      0x2e22eafe\n      eq\n      tag_8\n      jumpi\n      dup1\n      0x413896e4\n      eq\n      tag_9\n      jumpi\n      dup1\n      0x800f2234\n      eq\n      tag_10\n      jumpi\n      dup1\n      0x83197ef0\n      eq\n      tag_11\n      jumpi\n      dup1\n      0x8827b05f\n      eq\n      tag_12\n      jumpi\n      jump(tag_2)\n    tag_25:\n      dup1\n      0x04a28c07\n      eq\n      tag_3\n      jumpi\n      dup1\n      0x236df93c\n      eq\n      tag_4\n      jumpi\n      dup1\n      0x294b4b6b\n      eq\n      tag_5\n      jumpi\n      dup1\n      0x29cd6311\n      eq\n      tag_6\n      jumpi\n      dup1\n      0x2c3ce919\n      eq\n      tag_7\n      jumpi\n    tag_2:\n      0x00\n      dup1\n      revert\n        /* \"database/ListBusiness.sol\":1000:1271  function add(Profile memory item, bytes32 secret)... */\n    tag_3:\n      tag_26\n      0x04\n      dup1\n      calldatasize\n      sub\n      dup2\n      add\n      swap1\n      tag_27\n      swap2\n      swap1\n      tag_28\n      jump\t// in\n    tag_27:\n      tag_29\n      jump\t// in\n    tag_26:\n      mload(0x40)\n      tag_30\n      swap2\n      swap1\n      tag_31\n      jump\t// in\n    tag_30:\n      mload(0x40)\n      dup1\n      swap2\n      sub\n      swap1\n      return\n        /* \"database/ListBusiness.sol\":1866:2215  function atAddress(address value, bytes32 secret)... */\n    tag_4:\n      tag_32\n      0x04\n      dup1\n      calldatasize\n      sub\n      dup2\n      add\n      swap1\n      tag_33\n      swap2\n      swap1\n      tag_34\n      jump\t// in\n    tag_33:\n      tag_35\n      jump\t// in\n    tag_32:\n      mload(0x40)\n      tag_36\n      swap2\n      swap1\n      tag_37\n      jump\t// in\n    tag_36:\n      mload(0x40)\n      dup1\n      swap2\n      sub\n      swap1\n      return\n        /* \"database/ListBusiness.sol\":3025:3254  function setCategory(... */\n    tag_5:\n      tag_38\n      0x04\n      dup1\n      calldatasize\n      sub\n      dup2\n      add\n      swap1\n      tag_39\n      swap2\n      swap1\n      tag_40\n      jump\t// in\n    tag_39:\n      tag_41\n      jump\t// in\n    tag_38:\n      mload(0x40)\n      tag_42\n      swap2\n      swap1\n      tag_31\n      jump\t// in\n    tag_42:\n      mload(0x40)\n      dup1\n      swap2\n      sub\n      swap1\n      return\n        /* \"database/ListBusiness.sol\":4422:4650  function setEmail(... */\n    tag_6:\n      tag_43\n      0x04\n      dup1\n      calldatasize\n      sub\n      dup2\n      add\n      swap1\n      tag_44\n      swap2\n      swap1\n      tag_45\n      jump\t// in\n    tag_44:\n      tag_46\n      jump\t// in\n    tag_43:\n      mload(0x40)\n      tag_47\n      swap2\n      swap1\n      tag_31\n      jump\t// in\n    tag_47:\n      mload(0x40)\n      dup1\n      swap2\n      sub\n      swap1\n      return\n        /* \"database/ListBusiness.sol\":5378:5612  function setPassword(... */\n    tag_7:\n      tag_48\n      0x04\n      dup1\n      calldatasize\n      sub\n      dup2\n      add\n      swap1\n      tag_49\n      swap2\n      swap1\n      tag_45\n      jump\t// in\n    tag_49:\n      tag_50\n      jump\t// in\n    tag_48:\n      mload(0x40)\n      tag_51\n      swap2\n      swap1\n      tag_31\n      jump\t// in\n    tag_51:\n      mload(0x40)\n      dup1\n      swap2\n      sub\n      swap1\n      return\n        /* \"database/ListBusiness.sol\":3482:3702  function setUser(... */\n    tag_8:\n      tag_52\n      0x04\n      dup1\n      calldatasize\n      sub\n      dup2\n      add\n      swap1\n      tag_53\n      swap2\n      swap1\n      tag_54\n      jump\t// in\n    tag_53:\n      tag_55\n      jump\t// in\n    tag_52:\n      mload(0x40)\n      tag_56\n      swap2\n      swap1\n      tag_31\n      jump\t// in\n    tag_56:\n      mload(0x40)\n      dup1\n      swap2\n      sub\n      swap1\n      return\n        /* \"database/ListBusiness.sol\":3708:3934  function setName(... */\n    tag_9:\n      tag_57\n      0x04\n      dup1\n      calldatasize\n      sub\n      dup2\n      add\n      swap1\n      tag_58\n      swap2\n      swap1\n      tag_45\n      jump\t// in\n    tag_58:\n      tag_59\n      jump\t// in\n    tag_57:\n      mload(0x40)\n      tag_60\n      swap2\n      swap1\n      tag_31\n      jump\t// in\n    tag_60:\n      mload(0x40)\n      dup1\n      swap2\n      sub\n      swap1\n      return\n        /* \"database/ListBusiness.sol\":5132:5372  function setSourceImage(... */\n    tag_10:\n      tag_61\n      0x04\n      dup1\n      calldatasize\n      sub\n      dup2\n      add\n      swap1\n      tag_62\n      swap2\n      swap1\n      tag_45\n      jump\t// in\n    tag_62:\n      tag_63\n      jump\t// in\n    tag_61:\n      mload(0x40)\n      tag_64\n      swap2\n      swap1\n      tag_31\n      jump\t// in\n    tag_64:\n      mload(0x40)\n      dup1\n      swap2\n      sub\n      swap1\n      return\n        /* \"abstract/Ownable.sol\":2642:2731  function destroy() public onlyOwner {... */\n    tag_11:\n      tag_65\n      tag_66\n      jump\t// in\n    tag_65:\n      stop\n        /* \"database/ListBusiness.sol\":3260:3476  function setId(... */\n    tag_12:\n      tag_67\n      0x04\n      dup1\n      calldatasize\n      sub\n      dup2\n      add\n      swap1\n      tag_68\n      swap2\n      swap1\n      tag_40\n      jump\t// in\n    tag_68:\n      tag_69\n      jump\t// in\n    tag_67:\n      mload(0x40)\n      tag_70\n      swap2\n      swap1\n      tag_31\n      jump\t// in\n    tag_70:\n      mload(0x40)\n      dup1\n      swap2\n      sub\n      swap1\n      return\n        /* \"abstract/Ownable.sol\":1175:1260  function owner() public view virtual returns (address) {... */\n    tag_13:\n      tag_71\n      tag_72\n      jump\t// in\n    tag_71:\n      mload(0x40)\n      tag_73\n      swap2\n      swap1\n      tag_74\n      jump\t// in\n    tag_73:\n      mload(0x40)\n      dup1\n      swap2\n      sub\n      swap1\n      return\n        /* \"database/ListBusiness.sol\":2499:2930  function hide(uint256 index, bytes32 secret)... */\n    tag_14:\n      tag_75\n      0x04\n      dup1\n      calldatasize\n      sub\n      dup2\n      add\n      swap1\n      tag_76\n      swap2\n      swap1\n      tag_77\n      jump\t// in\n    tag_76:\n      tag_78\n      jump\t// in\n    tag_75:\n      mload(0x40)\n      tag_79\n      swap2\n      swap1\n      tag_31\n      jump\t// in\n    tag_79:\n      mload(0x40)\n      dup1\n      swap2\n      sub\n      swap1\n      return\n        /* \"database/ListBusiness.sol\":1277:1559  function at(uint256 index, bytes32 secret)... */\n    tag_15:\n      tag_80\n      0x04\n      dup1\n      calldatasize\n      sub\n      dup2\n      add\n      swap1\n      tag_81\n      swap2\n      swap1\n      tag_77\n      jump\t// in\n    tag_81:\n      tag_82\n      jump\t// in\n    tag_80:\n      mload(0x40)\n      tag_83\n      swap2\n      swap1\n      tag_37\n      jump\t// in\n    tag_83:\n      mload(0x40)\n      dup1\n      swap2\n      sub\n      swap1\n      return\n        /* \"database/ListBusiness.sol\":4656:4886  function setGithub(... */\n    tag_16:\n      tag_84\n      0x04\n      dup1\n      calldatasize\n      sub\n      dup2\n      add\n      swap1\n      tag_85\n      swap2\n      swap1\n      tag_45\n      jump\t// in\n    tag_85:\n      tag_86\n      jump\t// in\n    tag_84:\n      mload(0x40)\n      tag_87\n      swap2\n      swap1\n      tag_31\n      jump\t// in\n    tag_87:\n      mload(0x40)\n      dup1\n      swap2\n      sub\n      swap1\n      return\n        /* \"database/ListBusiness.sol\":1565:1860  function findIdByAddress(address value, bytes32 secret)... */\n    tag_17:\n      tag_88\n      0x04\n      dup1\n      calldatasize\n      sub\n      dup2\n      add\n      swap1\n      tag_89\n      swap2\n      swap1\n      tag_34\n      jump\t// in\n    tag_89:\n      tag_90\n      jump\t// in\n    tag_88:\n      mload(0x40)\n      tag_91\n      swap2\n      swap1\n      tag_92\n      jump\t// in\n    tag_91:\n      mload(0x40)\n      dup1\n      swap2\n      sub\n      swap1\n      return\n        /* \"database/ListBusiness.sol\":4892:5126  function setLinkedin(... */\n    tag_18:\n      tag_93\n      0x04\n      dup1\n      calldatasize\n      sub\n      dup2\n      add\n      swap1\n      tag_94\n      swap2\n      swap1\n      tag_45\n      jump\t// in\n    tag_94:\n      tag_95\n      jump\t// in\n    tag_93:\n      mload(0x40)\n      tag_96\n      swap2\n      swap1\n      tag_31\n      jump\t// in\n    tag_96:\n      mload(0x40)\n      dup1\n      swap2\n      sub\n      swap1\n      return\n        /* \"database/ListBusiness.sol\":3940:4168  function setPhone(... */\n    tag_19:\n      tag_97\n      0x04\n      dup1\n      calldatasize\n      sub\n      dup2\n      add\n      swap1\n      tag_98\n      swap2\n      swap1\n      tag_45\n      jump\t// in\n    tag_98:\n      tag_99\n      jump\t// in\n    tag_97:\n      mload(0x40)\n      tag_100\n      swap2\n      swap1\n      tag_31\n      jump\t// in\n    tag_100:\n      mload(0x40)\n      dup1\n      swap2\n      sub\n      swap1\n      return\n        /* \"database/ListBusiness.sol\":4174:4416  function setProfessional(... */\n    tag_20:\n      tag_101\n      0x04\n      dup1\n      calldatasize\n      sub\n      dup2\n      add\n      swap1\n      tag_102\n      swap2\n      swap1\n      tag_45\n      jump\t// in\n    tag_102:\n      tag_103\n      jump\t// in\n    tag_101:\n      mload(0x40)\n      tag_104\n      swap2\n      swap1\n      tag_31\n      jump\t// in\n    tag_104:\n      mload(0x40)\n      dup1\n      swap2\n      sub\n      swap1\n      return\n        /* \"abstract/Ownable.sol\":2063:2295  function transferOwnership(address newOwner) public virtual onlyOwner {... */\n    tag_21:\n      tag_105\n      0x04\n      dup1\n      calldatasize\n      sub\n      dup2\n      add\n      swap1\n      tag_106\n      swap2\n      swap1\n      tag_107\n      jump\t// in\n    tag_106:\n      tag_108\n      jump\t// in\n    tag_105:\n      stop\n        /* \"database/ListBusiness.sol\":831:994  function getLength(bytes32 secret)... */\n    tag_22:\n      tag_109\n      0x04\n      dup1\n      calldatasize\n      sub\n      dup2\n      add\n      swap1\n      tag_110\n      swap2\n      swap1\n      tag_111\n      jump\t// in\n    tag_110:\n      tag_112\n      jump\t// in\n    tag_109:\n      mload(0x40)\n      tag_113\n      swap2\n      swap1\n      tag_92\n      jump\t// in\n    tag_113:\n      mload(0x40)\n      dup1\n      swap2\n      sub\n      swap1\n      return\n        /* \"database/ListBusiness.sol\":1000:1271  function add(Profile memory item, bytes32 secret)... */\n    tag_29:\n        /* \"database/ListBusiness.sol\":1115:1119  bool */\n      0x00\n        /* \"database/ListBusiness.sol\":1090:1096  secret */\n      dup2\n        /* \"constant/SecretKey.sol\":232:298  0x8e1604a838d0f1a9b2cda14a099e4ceb08e966cc6e05e8296f67b02d61a79f09 */\n      0x8e1604a838d0f1a9b2cda14a099e4ceb08e966cc6e05e8296f67b02d61a79f09\n        /* \"database/ListBusiness.sol\":538:550  DATABASE_KEY */\n      0x00\n      shl\n        /* \"database/ListBusiness.sol\":529:534  value */\n      dup2\n        /* \"database/ListBusiness.sol\":529:550  value == DATABASE_KEY */\n      eq\n        /* \"database/ListBusiness.sol\":508:615  require(... */\n      tag_115\n      jumpi\n      mload(0x40)\n      0x08c379a000000000000000000000000000000000000000000000000000000000\n      dup2\n      mstore\n      0x04\n      add\n      tag_116\n      swap1\n      tag_117\n      jump\t// in\n    tag_116:\n      mload(0x40)\n      dup1\n      swap2\n      sub\n      swap1\n      revert\n    tag_115:\n        /* \"database/ListBusiness.sol\":1135:1148  autoIncrement */\n      0x02\n      0x00\n        /* \"database/ListBusiness.sol\":1135:1150  autoIncrement++ */\n      dup2\n      sload\n      dup1\n      swap3\n      swap2\n      swap1\n      tag_119\n      swap1\n      tag_120\n      jump\t// in\n    tag_119:\n      swap2\n      swap1\n      pop\n      sstore\n      pop\n        /* \"database/ListBusiness.sol\":1170:1183  autoIncrement */\n      sload(0x02)\n        /* \"database/ListBusiness.sol\":1160:1164  item */\n      dup5\n        /* \"database/ListBusiness.sol\":1160:1167  item.id */\n      0x20\n      add\n        /* \"database/ListBusiness.sol\":1160:1183  item.id = autoIncrement */\n      dup2\n      dup2\n      mstore\n      pop\n      pop\n        /* \"database/ListBusiness.sol\":1215:1219  item */\n      dup4\n        /* \"database/ListBusiness.sol\":1193:1197  list */\n      0x01\n        /* \"database/ListBusiness.sol\":1193:1212  list[autoIncrement] */\n      0x00\n        /* \"database/ListBusiness.sol\":1198:1211  autoIncrement */\n      sload(0x02)\n        /* \"database/ListBusiness.sol\":1193:1212  list[autoIncrement] */\n      dup2\n      mstore\n      0x20\n      add\n      swap1\n      dup2\n      mstore\n      0x20\n      add\n      0x00\n      keccak256\n        /* \"database/ListBusiness.sol\":1193:1219  list[autoIncrement] = item */\n      0x00\n      dup3\n      add\n      mload\n      dup2\n      0x00\n      add\n      sstore\n      0x20\n      dup3\n      add\n      mload\n      dup2\n      0x01\n      add\n      sstore\n      0x40\n      dup3\n      add\n      mload\n      dup2\n      0x02\n      add\n      exp(0x0100, 0x00)\n      dup2\n      sload\n      dup2\n      0xffffffffffffffffffffffffffffffffffffffff\n      mul\n      not\n      and\n      swap1\n      dup4\n      0xffffffffffffffffffffffffffffffffffffffff\n      and\n      mul\n      or\n      swap1\n      sstore\n      pop\n      0x60\n      dup3\n      add\n      mload\n      dup2\n      0x03\n      add\n      swap1\n      dup2\n      tag_121\n      swap2\n      swap1\n      tag_122\n      jump\t// in\n    tag_121:\n      pop\n      0x80\n      dup3\n      add\n      mload\n      dup2\n      0x04\n      add\n      swap1\n      dup2\n      tag_123\n      swap2\n      swap1\n      tag_122\n      jump\t// in\n    tag_123:\n      pop\n      0xa0\n      dup3\n      add\n      mload\n      dup2\n      0x05\n      add\n      swap1\n      dup2\n      tag_124\n      swap2\n      swap1\n      tag_122\n      jump\t// in\n    tag_124:\n      pop\n      0xc0\n      dup3\n      add\n      mload\n      dup2\n      0x06\n      add\n      swap1\n      dup2\n      tag_125\n      swap2\n      swap1\n      tag_122\n      jump\t// in\n    tag_125:\n      pop\n      0xe0\n      dup3\n      add\n      mload\n      dup2\n      0x07\n      add\n      swap1\n      dup2\n      tag_126\n      swap2\n      swap1\n      tag_122\n      jump\t// in\n    tag_126:\n      pop\n      0x0100\n      dup3\n      add\n      mload\n      dup2\n      0x08\n      add\n      swap1\n      dup2\n      tag_127\n      swap2\n      swap1\n      tag_122\n      jump\t// in\n    tag_127:\n      pop\n      0x0120\n      dup3\n      add\n      mload\n      dup2\n      0x09\n      add\n      swap1\n      dup2\n      tag_128\n      swap2\n      swap1\n      tag_122\n      jump\t// in\n    tag_128:\n      pop\n      0x0140\n      dup3\n      add\n      mload\n      dup2\n      0x0a\n      add\n      swap1\n      dup2\n      tag_129\n      swap2\n      swap1\n      tag_122\n      jump\t// in\n    tag_129:\n      pop\n      swap1\n      pop\n      pop\n        /* \"database/ListBusiness.sol\":1234:1243  Add(item) */\n      0xf1c85255584806819bcf2d77a175d3ec22e4d0e596c27fcddc47379dededb756\n        /* \"database/ListBusiness.sol\":1238:1242  item */\n      dup5\n        /* \"database/ListBusiness.sol\":1234:1243  Add(item) */\n      mload(0x40)\n      tag_130\n      swap2\n      swap1\n      tag_37\n      jump\t// in\n    tag_130:\n      mload(0x40)\n      dup1\n      swap2\n      sub\n      swap1\n      log1\n        /* \"database/ListBusiness.sol\":1260:1264  true */\n      0x01\n        /* \"database/ListBusiness.sol\":1253:1264  return true */\n      swap2\n      pop\n        /* \"database/ListBusiness.sol\":1000:1271  function add(Profile memory item, bytes32 secret)... */\n      pop\n      swap3\n      swap2\n      pop\n      pop\n      jump\t// out\n        /* \"database/ListBusiness.sol\":1866:2215  function atAddress(address value, bytes32 secret)... */\n    tag_35:\n        /* \"database/ListBusiness.sol\":1994:2008  Profile memory */\n      tag_131\n      tag_132\n      jump\t// in\n    tag_131:\n        /* \"database/ListBusiness.sol\":1969:1975  secret */\n      dup2\n        /* \"constant/SecretKey.sol\":232:298  0x8e1604a838d0f1a9b2cda14a099e4ceb08e966cc6e05e8296f67b02d61a79f09 */\n      0x8e1604a838d0f1a9b2cda14a099e4ceb08e966cc6e05e8296f67b02d61a79f09\n        /* \"database/ListBusiness.sol\":538:550  DATABASE_KEY */\n      0x00\n      shl\n        /* \"database/ListBusiness.sol\":529:534  value */\n      dup2\n        /* \"database/ListBusiness.sol\":529:550  value == DATABASE_KEY */\n      eq\n        /* \"database/ListBusiness.sol\":508:615  require(... */\n      tag_134\n      jumpi\n      mload(0x40)\n      0x08c379a000000000000000000000000000000000000000000000000000000000\n      dup2\n      mstore\n      0x04\n      add\n      tag_135\n      swap1\n      tag_117\n      jump\t// in\n    tag_135:\n      mload(0x40)\n      dup1\n      swap2\n      sub\n      swap1\n      revert\n    tag_134:\n        /* \"database/ListBusiness.sol\":2029:2038  uint256 i */\n      0x00\n        /* \"database/ListBusiness.sol\":2041:2042  1 */\n      0x01\n        /* \"database/ListBusiness.sol\":2029:2042  uint256 i = 1 */\n      swap1\n      pop\n        /* \"database/ListBusiness.sol\":2024:2135  for (uint256 i = 1; i <= autoIncrement; i++) {... */\n    tag_137:\n        /* \"database/ListBusiness.sol\":2049:2062  autoIncrement */\n      sload(0x02)\n        /* \"database/ListBusiness.sol\":2044:2045  i */\n      dup2\n        /* \"database/ListBusiness.sol\":2044:2062  i <= autoIncrement */\n      gt\n        /* \"database/ListBusiness.sol\":2024:2135  for (uint256 i = 1; i <= autoIncrement; i++) {... */\n      tag_138\n      jumpi\n        /* \"database/ListBusiness.sol\":2103:2108  value */\n      dup5\n        /* \"database/ListBusiness.sol\":2087:2108  list[i].user == value */\n      0xffffffffffffffffffffffffffffffffffffffff\n      and\n        /* \"database/ListBusiness.sol\":2087:2091  list */\n      0x01\n        /* \"database/ListBusiness.sol\":2087:2094  list[i] */\n      0x00\n        /* \"database/ListBusiness.sol\":2092:2093  i */\n      dup4\n        /* \"database/ListBusiness.sol\":2087:2094  list[i] */\n      dup2\n      mstore\n      0x20\n      add\n      swap1\n      dup2\n      mstore\n      0x20\n      add\n      0x00\n      keccak256\n        /* \"database/ListBusiness.sol\":2087:2099  list[i].user */\n      0x02\n      add\n      0x00\n      swap1\n      sload\n      swap1\n      0x0100\n      exp\n      swap1\n      div\n      0xffffffffffffffffffffffffffffffffffffffff\n      and\n        /* \"database/ListBusiness.sol\":2087:2108  list[i].user == value */\n      0xffffffffffffffffffffffffffffffffffffffff\n      and\n      sub\n        /* \"database/ListBusiness.sol\":2083:2124  if (list[i].user == value) return list[i] */\n      tag_140\n      jumpi\n        /* \"database/ListBusiness.sol\":2117:2121  list */\n      0x01\n        /* \"database/ListBusiness.sol\":2117:2124  list[i] */\n      0x00\n        /* \"database/ListBusiness.sol\":2122:2123  i */\n      dup3\n        /* \"database/ListBusiness.sol\":2117:2124  list[i] */\n      dup2\n      mstore\n      0x20\n      add\n      swap1\n      dup2\n      mstore\n      0x20\n      add\n      0x00\n      keccak256\n        /* \"database/ListBusiness.sol\":2110:2124  return list[i] */\n      mload(0x40)\n      dup1\n      0x0160\n      add\n      0x40\n      mstore\n      swap1\n      dup2\n      0x00\n      dup3\n      add\n      sload\n      dup2\n      mstore\n      0x20\n      add\n      0x01\n      dup3\n      add\n      sload\n      dup2\n      mstore\n      0x20\n      add\n      0x02\n      dup3\n      add\n      0x00\n      swap1\n      sload\n      swap1\n      0x0100\n      exp\n      swap1\n      div\n      0xffffffffffffffffffffffffffffffffffffffff\n      and\n      0xffffffffffffffffffffffffffffffffffffffff\n      and\n      0xffffffffffffffffffffffffffffffffffffffff\n      and\n      dup2\n      mstore\n      0x20\n      add\n      0x03\n      dup3\n      add\n      dup1\n      sload\n      tag_141\n      swap1\n      tag_142\n      jump\t// in\n    tag_141:\n      dup1\n      0x1f\n      add\n      0x20\n      dup1\n      swap2\n      div\n      mul\n      0x20\n      add\n      mload(0x40)\n      swap1\n      dup2\n      add\n      0x40\n      mstore\n      dup1\n      swap3\n      swap2\n      swap1\n      dup2\n      dup2\n      mstore\n      0x20\n      add\n      dup3\n      dup1\n      sload\n      tag_143\n      swap1\n      tag_142\n      jump\t// in\n    tag_143:\n      dup1\n      iszero\n      tag_144\n      jumpi\n      dup1\n      0x1f\n      lt\n      tag_145\n      jumpi\n      0x0100\n      dup1\n      dup4\n      sload\n      div\n      mul\n      dup4\n      mstore\n      swap2\n      0x20\n      add\n      swap2\n      jump(tag_144)\n    tag_145:\n      dup3\n      add\n      swap2\n      swap1\n      0x00\n      mstore\n      keccak256(0x00, 0x20)\n      swap1\n    tag_146:\n      dup2\n      sload\n      dup2\n      mstore\n      swap1\n      0x01\n      add\n      swap1\n      0x20\n      add\n      dup1\n      dup4\n      gt\n      tag_146\n      jumpi\n      dup3\n      swap1\n      sub\n      0x1f\n      and\n      dup3\n      add\n      swap2\n    tag_144:\n      pop\n      pop\n      pop\n      pop\n      pop\n      dup2\n      mstore\n      0x20\n      add\n      0x04\n      dup3\n      add\n      dup1\n      sload\n      tag_147\n      swap1\n      tag_142\n      jump\t// in\n    tag_147:\n      dup1\n      0x1f\n      add\n      0x20\n      dup1\n      swap2\n      div\n      mul\n      0x20\n      add\n      mload(0x40)\n      swap1\n      dup2\n      add\n      0x40\n      mstore\n      dup1\n      swap3\n      swap2\n      swap1\n      dup2\n      dup2\n      mstore\n      0x20\n      add\n      dup3\n      dup1\n      sload\n      tag_148\n      swap1\n      tag_142\n      jump\t// in\n    tag_148:\n      dup1\n      iszero\n      tag_149\n      jumpi\n      dup1\n      0x1f\n      lt\n      tag_150\n      jumpi\n      0x0100\n      dup1\n      dup4\n      sload\n      div\n      mul\n      dup4\n      mstore\n      swap2\n      0x20\n      add\n      swap2\n      jump(tag_149)\n    tag_150:\n      dup3\n      add\n      swap2\n      swap1\n      0x00\n      mstore\n      keccak256(0x00, 0x20)\n      swap1\n    tag_151:\n      dup2\n      sload\n      dup2\n      mstore\n      swap1\n      0x01\n      add\n      swap1\n      0x20\n      add\n      dup1\n      dup4\n      gt\n      tag_151\n      jumpi\n      dup3\n      swap1\n      sub\n      0x1f\n      and\n      dup3\n      add\n      swap2\n    tag_149:\n      pop\n      pop\n      pop\n      pop\n      pop\n      dup2\n      mstore\n      0x20\n      add\n      0x05\n      dup3\n      add\n      dup1\n      sload\n      tag_152\n      swap1\n      tag_142\n      jump\t// in\n    tag_152:\n      dup1\n      0x1f\n      add\n      0x20\n      dup1\n      swap2\n      div\n      mul\n      0x20\n      add\n      mload(0x40)\n      swap1\n      dup2\n      add\n      0x40\n      mstore\n      dup1\n      swap3\n      swap2\n      swap1\n      dup2\n      dup2\n      mstore\n      0x20\n      add\n      dup3\n      dup1\n      sload\n      tag_153\n      swap1\n      tag_142\n      jump\t// in\n    tag_153:\n      dup1\n      iszero\n      tag_154\n      jumpi\n      dup1\n      0x1f\n      lt\n      tag_155\n      jumpi\n      0x0100\n      dup1\n      dup4\n      sload\n      div\n      mul\n      dup4\n      mstore\n      swap2\n      0x20\n      add\n      swap2\n      jump(tag_154)\n    tag_155:\n      dup3\n      add\n      swap2\n      swap1\n      0x00\n      mstore\n      keccak256(0x00, 0x20)\n      swap1\n    tag_156:\n      dup2\n      sload\n      dup2\n      mstore\n      swap1\n      0x01\n      add\n      swap1\n      0x20\n      add\n      dup1\n      dup4\n      gt\n      tag_156\n      jumpi\n      dup3\n      swap1\n      sub\n      0x1f\n      and\n      dup3\n      add\n      swap2\n    tag_154:\n      pop\n      pop\n      pop\n      pop\n      pop\n      dup2\n      mstore\n      0x20\n      add\n      0x06\n      dup3\n      add\n      dup1\n      sload\n      tag_157\n      swap1\n      tag_142\n      jump\t// in\n    tag_157:\n      dup1\n      0x1f\n      add\n      0x20\n      dup1\n      swap2\n      div\n      mul\n      0x20\n      add\n      mload(0x40)\n      swap1\n      dup2\n      add\n      0x40\n      mstore\n      dup1\n      swap3\n      swap2\n      swap1\n      dup2\n      dup2\n      mstore\n      0x20\n      add\n      dup3\n      dup1\n      sload\n      tag_158\n      swap1\n      tag_142\n      jump\t// in\n    tag_158:\n      dup1\n      iszero\n      tag_159\n      jumpi\n      dup1\n      0x1f\n      lt\n      tag_160\n      jumpi\n      0x0100\n      dup1\n      dup4\n      sload\n      div\n      mul\n      dup4\n      mstore\n      swap2\n      0x20\n      add\n      swap2\n      jump(tag_159)\n    tag_160:\n      dup3\n      add\n      swap2\n      swap1\n      0x00\n      mstore\n      keccak256(0x00, 0x20)\n      swap1\n    tag_161:\n      dup2\n      sload\n      dup2\n      mstore\n      swap1\n      0x01\n      add\n      swap1\n      0x20\n      add\n      dup1\n      dup4\n      gt\n      tag_161\n      jumpi\n      dup3\n      swap1\n      sub\n      0x1f\n      and\n      dup3\n      add\n      swap2\n    tag_159:\n      pop\n      pop\n      pop\n      pop\n      pop\n      dup2\n      mstore\n      0x20\n      add\n      0x07\n      dup3\n      add\n      dup1\n      sload\n      tag_162\n      swap1\n      tag_142\n      jump\t// in\n    tag_162:\n      dup1\n      0x1f\n      add\n      0x20\n      dup1\n      swap2\n      div\n      mul\n      0x20\n      add\n      mload(0x40)\n      swap1\n      dup2\n      add\n      0x40\n      mstore\n      dup1\n      swap3\n      swap2\n      swap1\n      dup2\n      dup2\n      mstore\n      0x20\n      add\n      dup3\n      dup1\n      sload\n      tag_163\n      swap1\n      tag_142\n      jump\t// in\n    tag_163:\n      dup1\n      iszero\n      tag_164\n      jumpi\n      dup1\n      0x1f\n      lt\n      tag_165\n      jumpi\n      0x0100\n      dup1\n      dup4\n      sload\n      div\n      mul\n      dup4\n      mstore\n      swap2\n      0x20\n      add\n      swap2\n      jump(tag_164)\n    tag_165:\n      dup3\n      add\n      swap2\n      swap1\n      0x00\n      mstore\n      keccak256(0x00, 0x20)\n      swap1\n    tag_166:\n      dup2\n      sload\n      dup2\n      mstore\n      swap1\n      0x01\n      add\n      swap1\n      0x20\n      add\n      dup1\n      dup4\n      gt\n      tag_166\n      jumpi\n      dup3\n      swap1\n      sub\n      0x1f\n      and\n      dup3\n      add\n      swap2\n    tag_164:\n      pop\n      pop\n      pop\n      pop\n      pop\n      dup2\n      mstore\n      0x20\n      add\n      0x08\n      dup3\n      add\n      dup1\n      sload\n      tag_167\n      swap1\n      tag_142\n      jump\t// in\n    tag_167:\n      dup1\n      0x1f\n      add\n      0x20\n      dup1\n      swap2\n      div\n      mul\n      0x20\n      add\n      mload(0x40)\n      swap1\n      dup2\n      add\n      0x40\n      mstore\n      dup1\n      swap3\n      swap2\n      swap1\n      dup2\n      dup2\n      mstore\n      0x20\n      add\n      dup3\n      dup1\n      sload\n      tag_168\n      swap1\n      tag_142\n      jump\t// in\n    tag_168:\n      dup1\n      iszero\n      tag_169\n      jumpi\n      dup1\n      0x1f\n      lt\n      tag_170\n      jumpi\n      0x0100\n      dup1\n      dup4\n      sload\n      div\n      mul\n      dup4\n      mstore\n      swap2\n      0x20\n      add\n      swap2\n      jump(tag_169)\n    tag_170:\n      dup3\n      add\n      swap2\n      swap1\n      0x00\n      mstore\n      keccak256(0x00, 0x20)\n      swap1\n    tag_171:\n      dup2\n      sload\n      dup2\n      mstore\n      swap1\n      0x01\n      add\n      swap1\n      0x20\n      add\n      dup1\n      dup4\n      gt\n      tag_171\n      jumpi\n      dup3\n      swap1\n      sub\n      0x1f\n      and\n      dup3\n      add\n      swap2\n    tag_169:\n      pop\n      pop\n      pop\n      pop\n      pop\n      dup2\n      mstore\n      0x20\n      add\n      0x09\n      dup3\n      add\n      dup1\n      sload\n      tag_172\n      swap1\n      tag_142\n      jump\t// in\n    tag_172:\n      dup1\n      0x1f\n      add\n      0x20\n      dup1\n      swap2\n      div\n      mul\n      0x20\n      add\n      mload(0x40)\n      swap1\n      dup2\n      add\n      0x40\n      mstore\n      dup1\n      swap3\n      swap2\n      swap1\n      dup2\n      dup2\n      mstore\n      0x20\n      add\n      dup3\n      dup1\n      sload\n      tag_173\n      swap1\n      tag_142\n      jump\t// in\n    tag_173:\n      dup1\n      iszero\n      tag_174\n      jumpi\n      dup1\n      0x1f\n      lt\n      tag_175\n      jumpi\n      0x0100\n      dup1\n      dup4\n      sload\n      div\n      mul\n      dup4\n      mstore\n      swap2\n      0x20\n      add\n      swap2\n      jump(tag_174)\n    tag_175:\n      dup3\n      add\n      swap2\n      swap1\n      0x00\n      mstore\n      keccak256(0x00, 0x20)\n      swap1\n    tag_176:\n      dup2\n      sload\n      dup2\n      mstore\n      swap1\n      0x01\n      add\n      swap1\n      0x20\n      add\n      dup1\n      dup4\n      gt\n      tag_176\n      jumpi\n      dup3\n      swap1\n      sub\n      0x1f\n      and\n      dup3\n      add\n      swap2\n    tag_174:\n      pop\n      pop\n      pop\n      pop\n      pop\n      dup2\n      mstore\n      0x20\n      add\n      0x0a\n      dup3\n      add\n      dup1\n      sload\n      tag_177\n      swap1\n      tag_142\n      jump\t// in\n    tag_177:\n      dup1\n      0x1f\n      add\n      0x20\n      dup1\n      swap2\n      div\n      mul\n      0x20\n      add\n      mload(0x40)\n      swap1\n      dup2\n      add\n      0x40\n      mstore\n      dup1\n      swap3\n      swap2\n      swap1\n      dup2\n      dup2\n      mstore\n      0x20\n      add\n      dup3\n      dup1\n      sload\n      tag_178\n      swap1\n      tag_142\n      jump\t// in\n    tag_178:\n      dup1\n      iszero\n      tag_179\n      jumpi\n      dup1\n      0x1f\n      lt\n      tag_180\n      jumpi\n      0x0100\n      dup1\n      dup4\n      sload\n      div\n      mul\n      dup4\n      mstore\n      swap2\n      0x20\n      add\n      swap2\n      jump(tag_179)\n    tag_180:\n      dup3\n      add\n      swap2\n      swap1\n      0x00\n      mstore\n      keccak256(0x00, 0x20)\n      swap1\n    tag_181:\n      dup2\n      sload\n      dup2\n      mstore\n      swap1\n      0x01\n      add\n      swap1\n      0x20\n      add\n      dup1\n      dup4\n      gt\n      tag_181\n      jumpi\n      dup3\n      swap1\n      sub\n      0x1f\n      and\n      dup3\n      add\n      swap2\n    tag_179:\n      pop\n      pop\n      pop\n      pop\n      pop\n      dup2\n      mstore\n      pop\n      pop\n      swap3\n      pop\n      pop\n      jump(tag_136)\n        /* \"database/ListBusiness.sol\":2083:2124  if (list[i].user == value) return list[i] */\n    tag_140:\n        /* \"database/ListBusiness.sol\":2064:2067  i++ */\n      dup1\n      dup1\n      tag_182\n      swap1\n      tag_120\n      jump\t// in\n    tag_182:\n      swap2\n      pop\n      pop\n        /* \"database/ListBusiness.sol\":2024:2135  for (uint256 i = 1; i <= autoIncrement; i++) {... */\n      jump(tag_137)\n    tag_138:\n      pop\n        /* \"database/ListBusiness.sol\":2151:2208  Profile(0, 0, address(0), \"\", \"\", \"\", \"\", \"\", \"\", \"\", \"\") */\n      mload(0x40)\n      dup1\n      0x0160\n      add\n      0x40\n      mstore\n      dup1\n        /* \"database/ListBusiness.sol\":2159:2160  0 */\n      0x00\n        /* \"database/ListBusiness.sol\":2151:2208  Profile(0, 0, address(0), \"\", \"\", \"\", \"\", \"\", \"\", \"\", \"\") */\n      dup2\n      mstore\n      0x20\n      add\n        /* \"database/ListBusiness.sol\":2162:2163  0 */\n      0x00\n        /* \"database/ListBusiness.sol\":2151:2208  Profile(0, 0, address(0), \"\", \"\", \"\", \"\", \"\", \"\", \"\", \"\") */\n      dup2\n      mstore\n      0x20\n      add\n        /* \"database/ListBusiness.sol\":2173:2174  0 */\n      0x00\n        /* \"database/ListBusiness.sol\":2151:2208  Profile(0, 0, address(0), \"\", \"\", \"\", \"\", \"\", \"\", \"\", \"\") */\n      0xffffffffffffffffffffffffffffffffffffffff\n      and\n      dup2\n      mstore\n      0x20\n      add\n      mload(0x40)\n      dup1\n      0x20\n      add\n      0x40\n      mstore\n      dup1\n      0x00\n      dup2\n      mstore\n      pop\n      dup2\n      mstore\n      0x20\n      add\n      mload(0x40)\n      dup1\n      0x20\n      add\n      0x40\n      mstore\n      dup1\n      0x00\n      dup2\n      mstore\n      pop\n      dup2\n      mstore\n      0x20\n      add\n      mload(0x40)\n      dup1\n      0x20\n      add\n      0x40\n      mstore\n      dup1\n      0x00\n      dup2\n      mstore\n      pop\n      dup2\n      mstore\n      0x20\n      add\n      mload(0x40)\n      dup1\n      0x20\n      add\n      0x40\n      mstore\n      dup1\n      0x00\n      dup2\n      mstore\n      pop\n      dup2\n      mstore\n      0x20\n      add\n      mload(0x40)\n      dup1\n      0x20\n      add\n      0x40\n      mstore\n      dup1\n      0x00\n      dup2\n      mstore\n      pop\n      dup2\n      mstore\n      0x20\n      add\n      mload(0x40)\n      dup1\n      0x20\n      add\n      0x40\n      mstore\n      dup1\n      0x00\n      dup2\n      mstore\n      pop\n      dup2\n      mstore\n      0x20\n      add\n      mload(0x40)\n      dup1\n      0x20\n      add\n      0x40\n      mstore\n      dup1\n      0x00\n      dup2\n      mstore\n      pop\n      dup2\n      mstore\n      0x20\n      add\n      mload(0x40)\n      dup1\n      0x20\n      add\n      0x40\n      mstore\n      dup1\n      0x00\n      dup2\n      mstore\n      pop\n      dup2\n      mstore\n      pop\n        /* \"database/ListBusiness.sol\":2144:2208  return Profile(0, 0, address(0), \"\", \"\", \"\", \"\", \"\", \"\", \"\", \"\") */\n      swap2\n      pop\n        /* \"database/ListBusiness.sol\":625:626  _ */\n    tag_136:\n        /* \"database/ListBusiness.sol\":1866:2215  function atAddress(address value, bytes32 secret)... */\n      pop\n      swap3\n      swap2\n      pop\n      pop\n      jump\t// out\n        /* \"database/ListBusiness.sol\":3025:3254  function setCategory(... */\n    tag_41:\n        /* \"database/ListBusiness.sol\":3181:3185  bool */\n      0x00\n        /* \"database/ListBusiness.sol\":3146:3152  secret */\n      dup3\n        /* \"constant/SecretKey.sol\":232:298  0x8e1604a838d0f1a9b2cda14a099e4ceb08e966cc6e05e8296f67b02d61a79f09 */\n      0x8e1604a838d0f1a9b2cda14a099e4ceb08e966cc6e05e8296f67b02d61a79f09\n        /* \"database/ListBusiness.sol\":538:550  DATABASE_KEY */\n      0x00\n      shl\n        /* \"database/ListBusiness.sol\":529:534  value */\n      dup2\n        /* \"database/ListBusiness.sol\":529:550  value == DATABASE_KEY */\n      eq\n        /* \"database/ListBusiness.sol\":508:615  require(... */\n      tag_184\n      jumpi\n      mload(0x40)\n      0x08c379a000000000000000000000000000000000000000000000000000000000\n      dup2\n      mstore\n      0x04\n      add\n      tag_185\n      swap1\n      tag_117\n      jump\t// in\n    tag_185:\n      mload(0x40)\n      dup1\n      swap2\n      sub\n      swap1\n      revert\n    tag_184:\n        /* \"database/ListBusiness.sol\":3165:3170  index */\n      dup5\n        /* \"database/ListBusiness.sol\":711:716  index */\n      dup1\n        /* \"database/ListBusiness.sol\":706:707  1 */\n      0x01\n        /* \"database/ListBusiness.sol\":706:716  1 <= index */\n      gt\n      iszero\n        /* \"database/ListBusiness.sol\":705:745  (1 <= index) && (index <= autoIncrement) */\n      dup1\n      iszero\n      tag_187\n      jumpi\n      pop\n        /* \"database/ListBusiness.sol\":731:744  autoIncrement */\n      sload(0x02)\n        /* \"database/ListBusiness.sol\":722:727  index */\n      dup2\n        /* \"database/ListBusiness.sol\":722:744  index <= autoIncrement */\n      gt\n      iszero\n        /* \"database/ListBusiness.sol\":705:745  (1 <= index) && (index <= autoIncrement) */\n    tag_187:\n        /* \"database/ListBusiness.sol\":684:807  require(... */\n      tag_188\n      jumpi\n      mload(0x40)\n      0x08c379a000000000000000000000000000000000000000000000000000000000\n      dup2\n      mstore\n      0x04\n      add\n      tag_189\n      swap1\n      tag_190\n      jump\t// in\n    tag_189:\n      mload(0x40)\n      dup1\n      swap2\n      sub\n      swap1\n      revert\n    tag_188:\n        /* \"database/ListBusiness.sol\":3221:3226  value */\n      dup4\n        /* \"database/ListBusiness.sol\":3197:3201  list */\n      0x01\n        /* \"database/ListBusiness.sol\":3197:3208  list[index] */\n      0x00\n        /* \"database/ListBusiness.sol\":3202:3207  index */\n      dup9\n        /* \"database/ListBusiness.sol\":3197:3208  list[index] */\n      dup2\n      mstore\n      0x20\n      add\n      swap1\n      dup2\n      mstore\n      0x20\n      add\n      0x00\n      keccak256\n        /* \"database/ListBusiness.sol\":3197:3218  list[index].catergory */\n      0x00\n      add\n        /* \"database/ListBusiness.sol\":3197:3226  list[index].catergory = value */\n      dup2\n      swap1\n      sstore\n      pop\n        /* \"database/ListBusiness.sol\":3243:3247  true */\n      0x01\n        /* \"database/ListBusiness.sol\":3236:3247  return true */\n      swap3\n      pop\n        /* \"database/ListBusiness.sol\":625:626  _ */\n      pop\n        /* \"database/ListBusiness.sol\":3025:3254  function setCategory(... */\n      pop\n      swap4\n      swap3\n      pop\n      pop\n      pop\n      jump\t// out\n        /* \"database/ListBusiness.sol\":4422:4650  function setEmail(... */\n    tag_46:\n        /* \"database/ListBusiness.sol\":4581:4585  bool */\n      0x00\n        /* \"database/ListBusiness.sol\":4546:4552  secret */\n      dup3\n        /* \"constant/SecretKey.sol\":232:298  0x8e1604a838d0f1a9b2cda14a099e4ceb08e966cc6e05e8296f67b02d61a79f09 */\n      0x8e1604a838d0f1a9b2cda14a099e4ceb08e966cc6e05e8296f67b02d61a79f09\n        /* \"database/ListBusiness.sol\":538:550  DATABASE_KEY */\n      0x00\n      shl\n        /* \"database/ListBusiness.sol\":529:534  value */\n      dup2\n        /* \"database/ListBusiness.sol\":529:550  value == DATABASE_KEY */\n      eq\n        /* \"database/ListBusiness.sol\":508:615  require(... */\n      tag_193\n      jumpi\n      mload(0x40)\n      0x08c379a000000000000000000000000000000000000000000000000000000000\n      dup2\n      mstore\n      0x04\n      add\n      tag_194\n      swap1\n      tag_117\n      jump\t// in\n    tag_194:\n      mload(0x40)\n      dup1\n      swap2\n      sub\n      swap1\n      revert\n    tag_193:\n        /* \"database/ListBusiness.sol\":4565:4570  index */\n      dup5\n        /* \"database/ListBusiness.sol\":711:716  index */\n      dup1\n        /* \"database/ListBusiness.sol\":706:707  1 */\n      0x01\n        /* \"database/ListBusiness.sol\":706:716  1 <= index */\n      gt\n      iszero\n        /* \"database/ListBusiness.sol\":705:745  (1 <= index) && (index <= autoIncrement) */\n      dup1\n      iszero\n      tag_196\n      jumpi\n      pop\n        /* \"database/ListBusiness.sol\":731:744  autoIncrement */\n      sload(0x02)\n        /* \"database/ListBusiness.sol\":722:727  index */\n      dup2\n        /* \"database/ListBusiness.sol\":722:744  index <= autoIncrement */\n      gt\n      iszero\n        /* \"database/ListBusiness.sol\":705:745  (1 <= index) && (index <= autoIncrement) */\n    tag_196:\n        /* \"database/ListBusiness.sol\":684:807  require(... */\n      tag_197\n      jumpi\n      mload(0x40)\n      0x08c379a000000000000000000000000000000000000000000000000000000000\n      dup2\n      mstore\n      0x04\n      add\n      tag_198\n      swap1\n      tag_190\n      jump\t// in\n    tag_198:\n      mload(0x40)\n      dup1\n      swap2\n      sub\n      swap1\n      revert\n    tag_197:\n        /* \"database/ListBusiness.sol\":4617:4622  value */\n      dup4\n        /* \"database/ListBusiness.sol\":4597:4601  list */\n      0x01\n        /* \"database/ListBusiness.sol\":4597:4608  list[index] */\n      0x00\n        /* \"database/ListBusiness.sol\":4602:4607  index */\n      dup9\n        /* \"database/ListBusiness.sol\":4597:4608  list[index] */\n      dup2\n      mstore\n      0x20\n      add\n      swap1\n      dup2\n      mstore\n      0x20\n      add\n      0x00\n      keccak256\n        /* \"database/ListBusiness.sol\":4597:4614  list[index].email */\n      0x06\n      add\n        /* \"database/ListBusiness.sol\":4597:4622  list[index].email = value */\n      swap1\n      dup2\n      tag_200\n      swap2\n      swap1\n      tag_122\n      jump\t// in\n    tag_200:\n      pop\n        /* \"database/ListBusiness.sol\":4639:4643  true */\n      0x01\n        /* \"database/ListBusiness.sol\":4632:4643  return true */\n      swap3\n      pop\n        /* \"database/ListBusiness.sol\":625:626  _ */\n      pop\n        /* \"database/ListBusiness.sol\":4422:4650  function setEmail(... */\n      pop\n      swap4\n      swap3\n      pop\n      pop\n      pop\n      jump\t// out\n        /* \"database/ListBusiness.sol\":5378:5612  function setPassword(... */\n    tag_50:\n        /* \"database/ListBusiness.sol\":5540:5544  bool */\n      0x00\n        /* \"database/ListBusiness.sol\":5505:5511  secret */\n      dup3\n        /* \"constant/SecretKey.sol\":232:298  0x8e1604a838d0f1a9b2cda14a099e4ceb08e966cc6e05e8296f67b02d61a79f09 */\n      0x8e1604a838d0f1a9b2cda14a099e4ceb08e966cc6e05e8296f67b02d61a79f09\n        /* \"database/ListBusiness.sol\":538:550  DATABASE_KEY */\n      0x00\n      shl\n        /* \"database/ListBusiness.sol\":529:534  value */\n      dup2\n        /* \"database/ListBusiness.sol\":529:550  value == DATABASE_KEY */\n      eq\n        /* \"database/ListBusiness.sol\":508:615  require(... */\n      tag_202\n      jumpi\n      mload(0x40)\n      0x08c379a000000000000000000000000000000000000000000000000000000000\n      dup2\n      mstore\n      0x04\n      add\n      tag_203\n      swap1\n      tag_117\n      jump\t// in\n    tag_203:\n      mload(0x40)\n      dup1\n      swap2\n      sub\n      swap1\n      revert\n    tag_202:\n        /* \"database/ListBusiness.sol\":5524:5529  index */\n      dup5\n        /* \"database/ListBusiness.sol\":711:716  index */\n      dup1\n        /* \"database/ListBusiness.sol\":706:707  1 */\n      0x01\n        /* \"database/ListBusiness.sol\":706:716  1 <= index */\n      gt\n      iszero\n        /* \"database/ListBusiness.sol\":705:745  (1 <= index) && (index <= autoIncrement) */\n      dup1\n      iszero\n      tag_205\n      jumpi\n      pop\n        /* \"database/ListBusiness.sol\":731:744  autoIncrement */\n      sload(0x02)\n        /* \"database/ListBusiness.sol\":722:727  index */\n      dup2\n        /* \"database/ListBusiness.sol\":722:744  index <= autoIncrement */\n      gt\n      iszero\n        /* \"database/ListBusiness.sol\":705:745  (1 <= index) && (index <= autoIncrement) */\n    tag_205:\n        /* \"database/ListBusiness.sol\":684:807  require(... */\n      tag_206\n      jumpi\n      mload(0x40)\n      0x08c379a000000000000000000000000000000000000000000000000000000000\n      dup2\n      mstore\n      0x04\n      add\n      tag_207\n      swap1\n      tag_190\n      jump\t// in\n    tag_207:\n      mload(0x40)\n      dup1\n      swap2\n      sub\n      swap1\n      revert\n    tag_206:\n        /* \"database/ListBusiness.sol\":5579:5584  value */\n      dup4\n        /* \"database/ListBusiness.sol\":5556:5560  list */\n      0x01\n        /* \"database/ListBusiness.sol\":5556:5567  list[index] */\n      0x00\n        /* \"database/ListBusiness.sol\":5561:5566  index */\n      dup9\n        /* \"database/ListBusiness.sol\":5556:5567  list[index] */\n      dup2\n      mstore\n      0x20\n      add\n      swap1\n      dup2\n      mstore\n      0x20\n      add\n      0x00\n      keccak256\n        /* \"database/ListBusiness.sol\":5556:5576  list[index].password */\n      0x0a\n      add\n        /* \"database/ListBusiness.sol\":5556:5584  list[index].password = value */\n      swap1\n      dup2\n      tag_209\n      swap2\n      swap1\n      tag_122\n      jump\t// in\n    tag_209:\n      pop\n        /* \"database/ListBusiness.sol\":5601:5605  true */\n      0x01\n        /* \"database/ListBusiness.sol\":5594:5605  return true */\n      swap3\n      pop\n        /* \"database/ListBusiness.sol\":625:626  _ */\n      pop\n        /* \"database/ListBusiness.sol\":5378:5612  function setPassword(... */\n      pop\n      swap4\n      swap3\n      pop\n      pop\n      pop\n      jump\t// out\n        /* \"database/ListBusiness.sol\":3482:3702  function setUser(... */\n    tag_55:\n        /* \"database/ListBusiness.sol\":3634:3638  bool */\n      0x00\n        /* \"database/ListBusiness.sol\":3599:3605  secret */\n      dup3\n        /* \"constant/SecretKey.sol\":232:298  0x8e1604a838d0f1a9b2cda14a099e4ceb08e966cc6e05e8296f67b02d61a79f09 */\n      0x8e1604a838d0f1a9b2cda14a099e4ceb08e966cc6e05e8296f67b02d61a79f09\n        /* \"database/ListBusiness.sol\":538:550  DATABASE_KEY */\n      0x00\n      shl\n        /* \"database/ListBusiness.sol\":529:534  value */\n      dup2\n        /* \"database/ListBusiness.sol\":529:550  value == DATABASE_KEY */\n      eq\n        /* \"database/ListBusiness.sol\":508:615  require(... */\n      tag_211\n      jumpi\n      mload(0x40)\n      0x08c379a000000000000000000000000000000000000000000000000000000000\n      dup2\n      mstore\n      0x04\n      add\n      tag_212\n      swap1\n      tag_117\n      jump\t// in\n    tag_212:\n      mload(0x40)\n      dup1\n      swap2\n      sub\n      swap1\n      revert\n    tag_211:\n        /* \"database/ListBusiness.sol\":3618:3623  index */\n      dup5\n        /* \"database/ListBusiness.sol\":711:716  index */\n      dup1\n        /* \"database/ListBusiness.sol\":706:707  1 */\n      0x01\n        /* \"database/ListBusiness.sol\":706:716  1 <= index */\n      gt\n      iszero\n        /* \"database/ListBusiness.sol\":705:745  (1 <= index) && (index <= autoIncrement) */\n      dup1\n      iszero\n      tag_214\n      jumpi\n      pop\n        /* \"database/ListBusiness.sol\":731:744  autoIncrement */\n      sload(0x02)\n        /* \"database/ListBusiness.sol\":722:727  index */\n      dup2\n        /* \"database/ListBusiness.sol\":722:744  index <= autoIncrement */\n      gt\n      iszero\n        /* \"database/ListBusiness.sol\":705:745  (1 <= index) && (index <= autoIncrement) */\n    tag_214:\n        /* \"database/ListBusiness.sol\":684:807  require(... */\n      tag_215\n      jumpi\n      mload(0x40)\n      0x08c379a000000000000000000000000000000000000000000000000000000000\n      dup2\n      mstore\n      0x04\n      add\n      tag_216\n      swap1\n      tag_190\n      jump\t// in\n    tag_216:\n      mload(0x40)\n      dup1\n      swap2\n      sub\n      swap1\n      revert\n    tag_215:\n        /* \"database/ListBusiness.sol\":3669:3674  value */\n      dup4\n        /* \"database/ListBusiness.sol\":3650:3654  list */\n      0x01\n        /* \"database/ListBusiness.sol\":3650:3661  list[index] */\n      0x00\n        /* \"database/ListBusiness.sol\":3655:3660  index */\n      dup9\n        /* \"database/ListBusiness.sol\":3650:3661  list[index] */\n      dup2\n      mstore\n      0x20\n      add\n      swap1\n      dup2\n      mstore\n      0x20\n      add\n      0x00\n      keccak256\n        /* \"database/ListBusiness.sol\":3650:3666  list[index].user */\n      0x02\n      add\n      0x00\n        /* \"database/ListBusiness.sol\":3650:3674  list[index].user = value */\n      0x0100\n      exp\n      dup2\n      sload\n      dup2\n      0xffffffffffffffffffffffffffffffffffffffff\n      mul\n      not\n      and\n      swap1\n      dup4\n      0xffffffffffffffffffffffffffffffffffffffff\n      and\n      mul\n      or\n      swap1\n      sstore\n      pop\n        /* \"database/ListBusiness.sol\":3691:3695  true */\n      0x01\n        /* \"database/ListBusiness.sol\":3684:3695  return true */\n      swap3\n      pop\n        /* \"database/ListBusiness.sol\":625:626  _ */\n      pop\n        /* \"database/ListBusiness.sol\":3482:3702  function setUser(... */\n      pop\n      swap4\n      swap3\n      pop\n      pop\n      pop\n      jump\t// out\n        /* \"database/ListBusiness.sol\":3708:3934  function setName(... */\n    tag_59:\n        /* \"database/ListBusiness.sol\":3866:3870  bool */\n      0x00\n        /* \"database/ListBusiness.sol\":3831:3837  secret */\n      dup3\n        /* \"constant/SecretKey.sol\":232:298  0x8e1604a838d0f1a9b2cda14a099e4ceb08e966cc6e05e8296f67b02d61a79f09 */\n      0x8e1604a838d0f1a9b2cda14a099e4ceb08e966cc6e05e8296f67b02d61a79f09\n        /* \"database/ListBusiness.sol\":538:550  DATABASE_KEY */\n      0x00\n      shl\n        /* \"database/ListBusiness.sol\":529:534  value */\n      dup2\n        /* \"database/ListBusiness.sol\":529:550  value == DATABASE_KEY */\n      eq\n        /* \"database/ListBusiness.sol\":508:615  require(... */\n      tag_219\n      jumpi\n      mload(0x40)\n      0x08c379a000000000000000000000000000000000000000000000000000000000\n      dup2\n      mstore\n      0x04\n      add\n      tag_220\n      swap1\n      tag_117\n      jump\t// in\n    tag_220:\n      mload(0x40)\n      dup1\n      swap2\n      sub\n      swap1\n      revert\n    tag_219:\n        /* \"database/ListBusiness.sol\":3850:3855  index */\n      dup5\n        /* \"database/ListBusiness.sol\":711:716  index */\n      dup1\n        /* \"database/ListBusiness.sol\":706:707  1 */\n      0x01\n        /* \"database/ListBusiness.sol\":706:716  1 <= index */\n      gt\n      iszero\n        /* \"database/ListBusiness.sol\":705:745  (1 <= index) && (index <= autoIncrement) */\n      dup1\n      iszero\n      tag_222\n      jumpi\n      pop\n        /* \"database/ListBusiness.sol\":731:744  autoIncrement */\n      sload(0x02)\n        /* \"database/ListBusiness.sol\":722:727  index */\n      dup2\n        /* \"database/ListBusiness.sol\":722:744  index <= autoIncrement */\n      gt\n      iszero\n        /* \"database/ListBusiness.sol\":705:745  (1 <= index) && (index <= autoIncrement) */\n    tag_222:\n        /* \"database/ListBusiness.sol\":684:807  require(... */\n      tag_223\n      jumpi\n      mload(0x40)\n      0x08c379a000000000000000000000000000000000000000000000000000000000\n      dup2\n      mstore\n      0x04\n      add\n      tag_224\n      swap1\n      tag_190\n      jump\t// in\n    tag_224:\n      mload(0x40)\n      dup1\n      swap2\n      sub\n      swap1\n      revert\n    tag_223:\n        /* \"database/ListBusiness.sol\":3901:3906  value */\n      dup4\n        /* \"database/ListBusiness.sol\":3882:3886  list */\n      0x01\n        /* \"database/ListBusiness.sol\":3882:3893  list[index] */\n      0x00\n        /* \"database/ListBusiness.sol\":3887:3892  index */\n      dup9\n        /* \"database/ListBusiness.sol\":3882:3893  list[index] */\n      dup2\n      mstore\n      0x20\n      add\n      swap1\n      dup2\n      mstore\n      0x20\n      add\n      0x00\n      keccak256\n        /* \"database/ListBusiness.sol\":3882:3898  list[index].name */\n      0x03\n      add\n        /* \"database/ListBusiness.sol\":3882:3906  list[index].name = value */\n      swap1\n      dup2\n      tag_226\n      swap2\n      swap1\n      tag_122\n      jump\t// in\n    tag_226:\n      pop\n        /* \"database/ListBusiness.sol\":3923:3927  true */\n      0x01\n        /* \"database/ListBusiness.sol\":3916:3927  return true */\n      swap3\n      pop\n        /* \"database/ListBusiness.sol\":625:626  _ */\n      pop\n        /* \"database/ListBusiness.sol\":3708:3934  function setName(... */\n      pop\n      swap4\n      swap3\n      pop\n      pop\n      pop\n      jump\t// out\n        /* \"database/ListBusiness.sol\":5132:5372  function setSourceImage(... */\n    tag_63:\n        /* \"database/ListBusiness.sol\":5297:5301  bool */\n      0x00\n        /* \"database/ListBusiness.sol\":5262:5268  secret */\n      dup3\n        /* \"constant/SecretKey.sol\":232:298  0x8e1604a838d0f1a9b2cda14a099e4ceb08e966cc6e05e8296f67b02d61a79f09 */\n      0x8e1604a838d0f1a9b2cda14a099e4ceb08e966cc6e05e8296f67b02d61a79f09\n        /* \"database/ListBusiness.sol\":538:550  DATABASE_KEY */\n      0x00\n      shl\n        /* \"database/ListBusiness.sol\":529:534  value */\n      dup2\n        /* \"database/ListBusiness.sol\":529:550  value == DATABASE_KEY */\n      eq\n        /* \"database/ListBusiness.sol\":508:615  require(... */\n      tag_228\n      jumpi\n      mload(0x40)\n      0x08c379a000000000000000000000000000000000000000000000000000000000\n      dup2\n      mstore\n      0x04\n      add\n      tag_229\n      swap1\n      tag_117\n      jump\t// in\n    tag_229:\n      mload(0x40)\n      dup1\n      swap2\n      sub\n      swap1\n      revert\n    tag_228:\n        /* \"database/ListBusiness.sol\":5281:5286  index */\n      dup5\n        /* \"database/ListBusiness.sol\":711:716  index */\n      dup1\n        /* \"database/ListBusiness.sol\":706:707  1 */\n      0x01\n        /* \"database/ListBusiness.sol\":706:716  1 <= index */\n      gt\n      iszero\n        /* \"database/ListBusiness.sol\":705:745  (1 <= index) && (index <= autoIncrement) */\n      dup1\n      iszero\n      tag_231\n      jumpi\n      pop\n        /* \"database/ListBusiness.sol\":731:744  autoIncrement */\n      sload(0x02)\n        /* \"database/ListBusiness.sol\":722:727  index */\n      dup2\n        /* \"database/ListBusiness.sol\":722:744  index <= autoIncrement */\n      gt\n      iszero\n        /* \"database/ListBusiness.sol\":705:745  (1 <= index) && (index <= autoIncrement) */\n    tag_231:\n        /* \"database/ListBusiness.sol\":684:807  require(... */\n      tag_232\n      jumpi\n      mload(0x40)\n      0x08c379a000000000000000000000000000000000000000000000000000000000\n      dup2\n      mstore\n      0x04\n      add\n      tag_233\n      swap1\n      tag_190\n      jump\t// in\n    tag_233:\n      mload(0x40)\n      dup1\n      swap2\n      sub\n      swap1\n      revert\n    tag_232:\n        /* \"database/ListBusiness.sol\":5339:5344  value */\n      dup4\n        /* \"database/ListBusiness.sol\":5313:5317  list */\n      0x01\n        /* \"database/ListBusiness.sol\":5313:5324  list[index] */\n      0x00\n        /* \"database/ListBusiness.sol\":5318:5323  index */\n      dup9\n        /* \"database/ListBusiness.sol\":5313:5324  list[index] */\n      dup2\n      mstore\n      0x20\n      add\n      swap1\n      dup2\n      mstore\n      0x20\n      add\n      0x00\n      keccak256\n        /* \"database/ListBusiness.sol\":5313:5336  list[index].sourceImage */\n      0x09\n      add\n        /* \"database/ListBusiness.sol\":5313:5344  list[index].sourceImage = value */\n      swap1\n      dup2\n      tag_235\n      swap2\n      swap1\n      tag_122\n      jump\t// in\n    tag_235:\n      pop\n        /* \"database/ListBusiness.sol\":5361:5365  true */\n      0x01\n        /* \"database/ListBusiness.sol\":5354:5365  return true */\n      swap3\n      pop\n        /* \"database/ListBusiness.sol\":625:626  _ */\n      pop\n        /* \"database/ListBusiness.sol\":5132:5372  function setSourceImage(... */\n      pop\n      swap4\n      swap3\n      pop\n      pop\n      pop\n      jump\t// out\n        /* \"abstract/Ownable.sol\":2642:2731  function destroy() public onlyOwner {... */\n    tag_66:\n        /* \"abstract/Ownable.sol\":1068:1081  _checkOwner() */\n      tag_237\n        /* \"abstract/Ownable.sol\":1068:1079  _checkOwner */\n      tag_238\n        /* \"abstract/Ownable.sol\":1068:1081  _checkOwner() */\n      jump\t// in\n    tag_237:\n        /* \"abstract/Ownable.sol\":2717:2721  this */\n      address\n        /* \"abstract/Ownable.sol\":2688:2724  selfdestruct(payable(address(this))) */\n      0xffffffffffffffffffffffffffffffffffffffff\n      and\n      selfdestruct\n        /* \"database/ListBusiness.sol\":3260:3476  function setId(... */\n    tag_69:\n        /* \"database/ListBusiness.sol\":3410:3414  bool */\n      0x00\n        /* \"database/ListBusiness.sol\":3375:3381  secret */\n      dup3\n        /* \"constant/SecretKey.sol\":232:298  0x8e1604a838d0f1a9b2cda14a099e4ceb08e966cc6e05e8296f67b02d61a79f09 */\n      0x8e1604a838d0f1a9b2cda14a099e4ceb08e966cc6e05e8296f67b02d61a79f09\n        /* \"database/ListBusiness.sol\":538:550  DATABASE_KEY */\n      0x00\n      shl\n        /* \"database/ListBusiness.sol\":529:534  value */\n      dup2\n        /* \"database/ListBusiness.sol\":529:550  value == DATABASE_KEY */\n      eq\n        /* \"database/ListBusiness.sol\":508:615  require(... */\n      tag_241\n      jumpi\n      mload(0x40)\n      0x08c379a000000000000000000000000000000000000000000000000000000000\n      dup2\n      mstore\n      0x04\n      add\n      tag_242\n      swap1\n      tag_117\n      jump\t// in\n    tag_242:\n      mload(0x40)\n      dup1\n      swap2\n      sub\n      swap1\n      revert\n    tag_241:\n        /* \"database/ListBusiness.sol\":3394:3399  index */\n      dup5\n        /* \"database/ListBusiness.sol\":711:716  index */\n      dup1\n        /* \"database/ListBusiness.sol\":706:707  1 */\n      0x01\n        /* \"database/ListBusiness.sol\":706:716  1 <= index */\n      gt\n      iszero\n        /* \"database/ListBusiness.sol\":705:745  (1 <= index) && (index <= autoIncrement) */\n      dup1\n      iszero\n      tag_244\n      jumpi\n      pop\n        /* \"database/ListBusiness.sol\":731:744  autoIncrement */\n      sload(0x02)\n        /* \"database/ListBusiness.sol\":722:727  index */\n      dup2\n        /* \"database/ListBusiness.sol\":722:744  index <= autoIncrement */\n      gt\n      iszero\n        /* \"database/ListBusiness.sol\":705:745  (1 <= index) && (index <= autoIncrement) */\n    tag_244:\n        /* \"database/ListBusiness.sol\":684:807  require(... */\n      tag_245\n      jumpi\n      mload(0x40)\n      0x08c379a000000000000000000000000000000000000000000000000000000000\n      dup2\n      mstore\n      0x04\n      add\n      tag_246\n      swap1\n      tag_190\n      jump\t// in\n    tag_246:\n      mload(0x40)\n      dup1\n      swap2\n      sub\n      swap1\n      revert\n    tag_245:\n        /* \"database/ListBusiness.sol\":3443:3448  value */\n      dup4\n        /* \"database/ListBusiness.sol\":3426:3430  list */\n      0x01\n        /* \"database/ListBusiness.sol\":3426:3437  list[index] */\n      0x00\n        /* \"database/ListBusiness.sol\":3431:3436  index */\n      dup9\n        /* \"database/ListBusiness.sol\":3426:3437  list[index] */\n      dup2\n      mstore\n      0x20\n      add\n      swap1\n      dup2\n      mstore\n      0x20\n      add\n      0x00\n      keccak256\n        /* \"database/ListBusiness.sol\":3426:3440  list[index].id */\n      0x01\n      add\n        /* \"database/ListBusiness.sol\":3426:3448  list[index].id = value */\n      dup2\n      swap1\n      sstore\n      pop\n        /* \"database/ListBusiness.sol\":3465:3469  true */\n      0x01\n        /* \"database/ListBusiness.sol\":3458:3469  return true */\n      swap3\n      pop\n        /* \"database/ListBusiness.sol\":625:626  _ */\n      pop\n        /* \"database/ListBusiness.sol\":3260:3476  function setId(... */\n      pop\n      swap4\n      swap3\n      pop\n      pop\n      pop\n      jump\t// out\n        /* \"abstract/Ownable.sol\":1175:1260  function owner() public view virtual returns (address) {... */\n    tag_72:\n        /* \"abstract/Ownable.sol\":1221:1228  address */\n      0x00\n        /* \"abstract/Ownable.sol\":1247:1253  _owner */\n      dup1\n      0x00\n      swap1\n      sload\n      swap1\n      0x0100\n      exp\n      swap1\n      div\n      0xffffffffffffffffffffffffffffffffffffffff\n      and\n        /* \"abstract/Ownable.sol\":1240:1253  return _owner */\n      swap1\n      pop\n        /* \"abstract/Ownable.sol\":1175:1260  function owner() public view virtual returns (address) {... */\n      swap1\n      jump\t// out\n        /* \"database/ListBusiness.sol\":2499:2930  function hide(uint256 index, bytes32 secret)... */\n    tag_78:\n        /* \"database/ListBusiness.sol\":2635:2639  bool */\n      0x00\n        /* \"database/ListBusiness.sol\":2584:2590  secret */\n      dup2\n        /* \"constant/SecretKey.sol\":232:298  0x8e1604a838d0f1a9b2cda14a099e4ceb08e966cc6e05e8296f67b02d61a79f09 */\n      0x8e1604a838d0f1a9b2cda14a099e4ceb08e966cc6e05e8296f67b02d61a79f09\n        /* \"database/ListBusiness.sol\":538:550  DATABASE_KEY */\n      0x00\n      shl\n        /* \"database/ListBusiness.sol\":529:534  value */\n      dup2\n        /* \"database/ListBusiness.sol\":529:550  value == DATABASE_KEY */\n      eq\n        /* \"database/ListBusiness.sol\":508:615  require(... */\n      tag_250\n      jumpi\n      mload(0x40)\n      0x08c379a000000000000000000000000000000000000000000000000000000000\n      dup2\n      mstore\n      0x04\n      add\n      tag_251\n      swap1\n      tag_117\n      jump\t// in\n    tag_251:\n      mload(0x40)\n      dup1\n      swap2\n      sub\n      swap1\n      revert\n    tag_250:\n        /* \"database/ListBusiness.sol\":2611:2616  index */\n      dup4\n        /* \"database/ListBusiness.sol\":711:716  index */\n      dup1\n        /* \"database/ListBusiness.sol\":706:707  1 */\n      0x01\n        /* \"database/ListBusiness.sol\":706:716  1 <= index */\n      gt\n      iszero\n        /* \"database/ListBusiness.sol\":705:745  (1 <= index) && (index <= autoIncrement) */\n      dup1\n      iszero\n      tag_253\n      jumpi\n      pop\n        /* \"database/ListBusiness.sol\":731:744  autoIncrement */\n      sload(0x02)\n        /* \"database/ListBusiness.sol\":722:727  index */\n      dup2\n        /* \"database/ListBusiness.sol\":722:744  index <= autoIncrement */\n      gt\n      iszero\n        /* \"database/ListBusiness.sol\":705:745  (1 <= index) && (index <= autoIncrement) */\n    tag_253:\n        /* \"database/ListBusiness.sol\":684:807  require(... */\n      tag_254\n      jumpi\n      mload(0x40)\n      0x08c379a000000000000000000000000000000000000000000000000000000000\n      dup2\n      mstore\n      0x04\n      add\n      tag_255\n      swap1\n      tag_190\n      jump\t// in\n    tag_255:\n      mload(0x40)\n      dup1\n      swap2\n      sub\n      swap1\n      revert\n    tag_254:\n        /* \"database/ListBusiness.sol\":2655:2673  Profile memory gap */\n      0x00\n        /* \"database/ListBusiness.sol\":2676:2875  Profile(... */\n      mload(0x40)\n      dup1\n      0x0160\n      add\n      0x40\n      mstore\n      dup1\n        /* \"database/ListBusiness.sol\":2697:2698  0 */\n      0x00\n        /* \"database/ListBusiness.sol\":2676:2875  Profile(... */\n      dup2\n      mstore\n      0x20\n      add\n        /* \"database/ListBusiness.sol\":2712:2713  0 */\n      0x00\n        /* \"database/ListBusiness.sol\":2676:2875  Profile(... */\n      dup2\n      mstore\n      0x20\n      add\n        /* \"database/ListBusiness.sol\":2735:2736  0 */\n      0x00\n        /* \"database/ListBusiness.sol\":2676:2875  Profile(... */\n      0xffffffffffffffffffffffffffffffffffffffff\n      and\n      dup2\n      mstore\n      0x20\n      add\n      mload(0x40)\n      dup1\n      0x20\n      add\n      0x40\n      mstore\n      dup1\n      0x00\n      dup2\n      mstore\n      pop\n      dup2\n      mstore\n      0x20\n      add\n      mload(0x40)\n      dup1\n      0x20\n      add\n      0x40\n      mstore\n      dup1\n      0x00\n      dup2\n      mstore\n      pop\n      dup2\n      mstore\n      0x20\n      add\n      mload(0x40)\n      dup1\n      0x20\n      add\n      0x40\n      mstore\n      dup1\n      0x00\n      dup2\n      mstore\n      pop\n      dup2\n      mstore\n      0x20\n      add\n      mload(0x40)\n      dup1\n      0x20\n      add\n      0x40\n      mstore\n      dup1\n      0x00\n      dup2\n      mstore\n      pop\n      dup2\n      mstore\n      0x20\n      add\n      mload(0x40)\n      dup1\n      0x20\n      add\n      0x40\n      mstore\n      dup1\n      0x00\n      dup2\n      mstore\n      pop\n      dup2\n      mstore\n      0x20\n      add\n      mload(0x40)\n      dup1\n      0x20\n      add\n      0x40\n      mstore\n      dup1\n      0x00\n      dup2\n      mstore\n      pop\n      dup2\n      mstore\n      0x20\n      add\n      mload(0x40)\n      dup1\n      0x20\n      add\n      0x40\n      mstore\n      dup1\n      0x00\n      dup2\n      mstore\n      pop\n      dup2\n      mstore\n      0x20\n      add\n      mload(0x40)\n      dup1\n      0x20\n      add\n      0x40\n      mstore\n      dup1\n      0x00\n      dup2\n      mstore\n      pop\n      dup2\n      mstore\n      pop\n        /* \"database/ListBusiness.sol\":2655:2875  Profile memory gap = Profile(... */\n      swap1\n      pop\n        /* \"database/ListBusiness.sol\":2899:2902  gap */\n      dup1\n        /* \"database/ListBusiness.sol\":2885:2889  list */\n      0x01\n        /* \"database/ListBusiness.sol\":2885:2896  list[index] */\n      0x00\n        /* \"database/ListBusiness.sol\":2890:2895  index */\n      dup9\n        /* \"database/ListBusiness.sol\":2885:2896  list[index] */\n      dup2\n      mstore\n      0x20\n      add\n      swap1\n      dup2\n      mstore\n      0x20\n      add\n      0x00\n      keccak256\n        /* \"database/ListBusiness.sol\":2885:2902  list[index] = gap */\n      0x00\n      dup3\n      add\n      mload\n      dup2\n      0x00\n      add\n      sstore\n      0x20\n      dup3\n      add\n      mload\n      dup2\n      0x01\n      add\n      sstore\n      0x40\n      dup3\n      add\n      mload\n      dup2\n      0x02\n      add\n      exp(0x0100, 0x00)\n      dup2\n      sload\n      dup2\n      0xffffffffffffffffffffffffffffffffffffffff\n      mul\n      not\n      and\n      swap1\n      dup4\n      0xffffffffffffffffffffffffffffffffffffffff\n      and\n      mul\n      or\n      swap1\n      sstore\n      pop\n      0x60\n      dup3\n      add\n      mload\n      dup2\n      0x03\n      add\n      swap1\n      dup2\n      tag_257\n      swap2\n      swap1\n      tag_122\n      jump\t// in\n    tag_257:\n      pop\n      0x80\n      dup3\n      add\n      mload\n      dup2\n      0x04\n      add\n      swap1\n      dup2\n      tag_258\n      swap2\n      swap1\n      tag_122\n      jump\t// in\n    tag_258:\n      pop\n      0xa0\n      dup3\n      add\n      mload\n      dup2\n      0x05\n      add\n      swap1\n      dup2\n      tag_259\n      swap2\n      swap1\n      tag_122\n      jump\t// in\n    tag_259:\n      pop\n      0xc0\n      dup3\n      add\n      mload\n      dup2\n      0x06\n      add\n      swap1\n      dup2\n      tag_260\n      swap2\n      swap1\n      tag_122\n      jump\t// in\n    tag_260:\n      pop\n      0xe0\n      dup3\n      add\n      mload\n      dup2\n      0x07\n      add\n      swap1\n      dup2\n      tag_261\n      swap2\n      swap1\n      tag_122\n      jump\t// in\n    tag_261:\n      pop\n      0x0100\n      dup3\n      add\n      mload\n      dup2\n      0x08\n      add\n      swap1\n      dup2\n      tag_262\n      swap2\n      swap1\n      tag_122\n      jump\t// in\n    tag_262:\n      pop\n      0x0120\n      dup3\n      add\n      mload\n      dup2\n      0x09\n      add\n      swap1\n      dup2\n      tag_263\n      swap2\n      swap1\n      tag_122\n      jump\t// in\n    tag_263:\n      pop\n      0x0140\n      dup3\n      add\n      mload\n      dup2\n      0x0a\n      add\n      swap1\n      dup2\n      tag_264\n      swap2\n      swap1\n      tag_122\n      jump\t// in\n    tag_264:\n      pop\n      swap1\n      pop\n      pop\n        /* \"database/ListBusiness.sol\":2919:2923  true */\n      0x01\n        /* \"database/ListBusiness.sol\":2912:2923  return true */\n      swap4\n      pop\n      pop\n        /* \"database/ListBusiness.sol\":625:626  _ */\n      pop\n        /* \"database/ListBusiness.sol\":2499:2930  function hide(uint256 index, bytes32 secret)... */\n      pop\n      swap3\n      swap2\n      pop\n      pop\n      jump\t// out\n        /* \"database/ListBusiness.sol\":1277:1559  function at(uint256 index, bytes32 secret)... */\n    tag_82:\n        /* \"database/ListBusiness.sol\":1424:1438  Profile memory */\n      tag_265\n      tag_132\n      jump\t// in\n    tag_265:\n        /* \"database/ListBusiness.sol\":1373:1379  secret */\n      dup2\n        /* \"constant/SecretKey.sol\":232:298  0x8e1604a838d0f1a9b2cda14a099e4ceb08e966cc6e05e8296f67b02d61a79f09 */\n      0x8e1604a838d0f1a9b2cda14a099e4ceb08e966cc6e05e8296f67b02d61a79f09\n        /* \"database/ListBusiness.sol\":538:550  DATABASE_KEY */\n      0x00\n      shl\n        /* \"database/ListBusiness.sol\":529:534  value */\n      dup2\n        /* \"database/ListBusiness.sol\":529:550  value == DATABASE_KEY */\n      eq\n        /* \"database/ListBusiness.sol\":508:615  require(... */\n      tag_267\n      jumpi\n      mload(0x40)\n      0x08c379a000000000000000000000000000000000000000000000000000000000\n      dup2\n      mstore\n      0x04\n      add\n      tag_268\n      swap1\n      tag_117\n      jump\t// in\n    tag_268:\n      mload(0x40)\n      dup1\n      swap2\n      sub\n      swap1\n      revert\n    tag_267:\n        /* \"database/ListBusiness.sol\":1400:1405  index */\n      dup4\n        /* \"database/ListBusiness.sol\":711:716  index */\n      dup1\n        /* \"database/ListBusiness.sol\":706:707  1 */\n      0x01\n        /* \"database/ListBusiness.sol\":706:716  1 <= index */\n      gt\n      iszero\n        /* \"database/ListBusiness.sol\":705:745  (1 <= index) && (index <= autoIncrement) */\n      dup1\n      iszero\n      tag_270\n      jumpi\n      pop\n        /* \"database/ListBusiness.sol\":731:744  autoIncrement */\n      sload(0x02)\n        /* \"database/ListBusiness.sol\":722:727  index */\n      dup2\n        /* \"database/ListBusiness.sol\":722:744  index <= autoIncrement */\n      gt\n      iszero\n        /* \"database/ListBusiness.sol\":705:745  (1 <= index) && (index <= autoIncrement) */\n    tag_270:\n        /* \"database/ListBusiness.sol\":684:807  require(... */\n      tag_271\n      jumpi\n      mload(0x40)\n      0x08c379a000000000000000000000000000000000000000000000000000000000\n      dup2\n      mstore\n      0x04\n      add\n      tag_272\n      swap1\n      tag_190\n      jump\t// in\n    tag_272:\n      mload(0x40)\n      dup1\n      swap2\n      sub\n      swap1\n      revert\n    tag_271:\n        /* \"database/ListBusiness.sol\":1541:1545  list */\n      0x01\n        /* \"database/ListBusiness.sol\":1541:1552  list[index] */\n      0x00\n        /* \"database/ListBusiness.sol\":1546:1551  index */\n      dup7\n        /* \"database/ListBusiness.sol\":1541:1552  list[index] */\n      dup2\n      mstore\n      0x20\n      add\n      swap1\n      dup2\n      mstore\n      0x20\n      add\n      0x00\n      keccak256\n        /* \"database/ListBusiness.sol\":1534:1552  return list[index] */\n      mload(0x40)\n      dup1\n      0x0160\n      add\n      0x40\n      mstore\n      swap1\n      dup2\n      0x00\n      dup3\n      add\n      sload\n      dup2\n      mstore\n      0x20\n      add\n      0x01\n      dup3\n      add\n      sload\n      dup2\n      mstore\n      0x20\n      add\n      0x02\n      dup3\n      add\n      0x00\n      swap1\n      sload\n      swap1\n      0x0100\n      exp\n      swap1\n      div\n      0xffffffffffffffffffffffffffffffffffffffff\n      and\n      0xffffffffffffffffffffffffffffffffffffffff\n      and\n      0xffffffffffffffffffffffffffffffffffffffff\n      and\n      dup2\n      mstore\n      0x20\n      add\n      0x03\n      dup3\n      add\n      dup1\n      sload\n      tag_274\n      swap1\n      tag_142\n      jump\t// in\n    tag_274:\n      dup1\n      0x1f\n      add\n      0x20\n      dup1\n      swap2\n      div\n      mul\n      0x20\n      add\n      mload(0x40)\n      swap1\n      dup2\n      add\n      0x40\n      mstore\n      dup1\n      swap3\n      swap2\n      swap1\n      dup2\n      dup2\n      mstore\n      0x20\n      add\n      dup3\n      dup1\n      sload\n      tag_275\n      swap1\n      tag_142\n      jump\t// in\n    tag_275:\n      dup1\n      iszero\n      tag_276\n      jumpi\n      dup1\n      0x1f\n      lt\n      tag_277\n      jumpi\n      0x0100\n      dup1\n      dup4\n      sload\n      div\n      mul\n      dup4\n      mstore\n      swap2\n      0x20\n      add\n      swap2\n      jump(tag_276)\n    tag_277:\n      dup3\n      add\n      swap2\n      swap1\n      0x00\n      mstore\n      keccak256(0x00, 0x20)\n      swap1\n    tag_278:\n      dup2\n      sload\n      dup2\n      mstore\n      swap1\n      0x01\n      add\n      swap1\n      0x20\n      add\n      dup1\n      dup4\n      gt\n      tag_278\n      jumpi\n      dup3\n      swap1\n      sub\n      0x1f\n      and\n      dup3\n      add\n      swap2\n    tag_276:\n      pop\n      pop\n      pop\n      pop\n      pop\n      dup2\n      mstore\n      0x20\n      add\n      0x04\n      dup3\n      add\n      dup1\n      sload\n      tag_279\n      swap1\n      tag_142\n      jump\t// in\n    tag_279:\n      dup1\n      0x1f\n      add\n      0x20\n      dup1\n      swap2\n      div\n      mul\n      0x20\n      add\n      mload(0x40)\n      swap1\n      dup2\n      add\n      0x40\n      mstore\n      dup1\n      swap3\n      swap2\n      swap1\n      dup2\n      dup2\n      mstore\n      0x20\n      add\n      dup3\n      dup1\n      sload\n      tag_280\n      swap1\n      tag_142\n      jump\t// in\n    tag_280:\n      dup1\n      iszero\n      tag_281\n      jumpi\n      dup1\n      0x1f\n      lt\n      tag_282\n      jumpi\n      0x0100\n      dup1\n      dup4\n      sload\n      div\n      mul\n      dup4\n      mstore\n      swap2\n      0x20\n      add\n      swap2\n      jump(tag_281)\n    tag_282:\n      dup3\n      add\n      swap2\n      swap1\n      0x00\n      mstore\n      keccak256(0x00, 0x20)\n      swap1\n    tag_283:\n      dup2\n      sload\n      dup2\n      mstore\n      swap1\n      0x01\n      add\n      swap1\n      0x20\n      add\n      dup1\n      dup4\n      gt\n      tag_283\n      jumpi\n      dup3\n      swap1\n      sub\n      0x1f\n      and\n      dup3\n      add\n      swap2\n    tag_281:\n      pop\n      pop\n      pop\n      pop\n      pop\n      dup2\n      mstore\n      0x20\n      add\n      0x05\n      dup3\n      add\n      dup1\n      sload\n      tag_284\n      swap1\n      tag_142\n      jump\t// in\n    tag_284:\n      dup1\n      0x1f\n      add\n      0x20\n      dup1\n      swap2\n      div\n      mul\n      0x20\n      add\n      mload(0x40)\n      swap1\n      dup2\n      add\n      0x40\n      mstore\n      dup1\n      swap3\n      swap2\n      swap1\n      dup2\n      dup2\n      mstore\n      0x20\n      add\n      dup3\n      dup1\n      sload\n      tag_285\n      swap1\n      tag_142\n      jump\t// in\n    tag_285:\n      dup1\n      iszero\n      tag_286\n      jumpi\n      dup1\n      0x1f\n      lt\n      tag_287\n      jumpi\n      0x0100\n      dup1\n      dup4\n      sload\n      div\n      mul\n      dup4\n      mstore\n      swap2\n      0x20\n      add\n      swap2\n      jump(tag_286)\n    tag_287:\n      dup3\n      add\n      swap2\n      swap1\n      0x00\n      mstore\n      keccak256(0x00, 0x20)\n      swap1\n    tag_288:\n      dup2\n      sload\n      dup2\n      mstore\n      swap1\n      0x01\n      add\n      swap1\n      0x20\n      add\n      dup1\n      dup4\n      gt\n      tag_288\n      jumpi\n      dup3\n      swap1\n      sub\n      0x1f\n      and\n      dup3\n      add\n      swap2\n    tag_286:\n      pop\n      pop\n      pop\n      pop\n      pop\n      dup2\n      mstore\n      0x20\n      add\n      0x06\n      dup3\n      add\n      dup1\n      sload\n      tag_289\n      swap1\n      tag_142\n      jump\t// in\n    tag_289:\n      dup1\n      0x1f\n      add\n      0x20\n      dup1\n      swap2\n      div\n      mul\n      0x20\n      add\n      mload(0x40)\n      swap1\n      dup2\n      add\n      0x40\n      mstore\n      dup1\n      swap3\n      swap2\n      swap1\n      dup2\n      dup2\n      mstore\n      0x20\n      add\n      dup3\n      dup1\n      sload\n      tag_290\n      swap1\n      tag_142\n      jump\t// in\n    tag_290:\n      dup1\n      iszero\n      tag_291\n      jumpi\n      dup1\n      0x1f\n      lt\n      tag_292\n      jumpi\n      0x0100\n      dup1\n      dup4\n      sload\n      div\n      mul\n      dup4\n      mstore\n      swap2\n      0x20\n      add\n      swap2\n      jump(tag_291)\n    tag_292:\n      dup3\n      add\n      swap2\n      swap1\n      0x00\n      mstore\n      keccak256(0x00, 0x20)\n      swap1\n    tag_293:\n      dup2\n      sload\n      dup2\n      mstore\n      swap1\n      0x01\n      add\n      swap1\n      0x20\n      add\n      dup1\n      dup4\n      gt\n      tag_293\n      jumpi\n      dup3\n      swap1\n      sub\n      0x1f\n      and\n      dup3\n      add\n      swap2\n    tag_291:\n      pop\n      pop\n      pop\n      pop\n      pop\n      dup2\n      mstore\n      0x20\n      add\n      0x07\n      dup3\n      add\n      dup1\n      sload\n      tag_294\n      swap1\n      tag_142\n      jump\t// in\n    tag_294:\n      dup1\n      0x1f\n      add\n      0x20\n      dup1\n      swap2\n      div\n      mul\n      0x20\n      add\n      mload(0x40)\n      swap1\n      dup2\n      add\n      0x40\n      mstore\n      dup1\n      swap3\n      swap2\n      swap1\n      dup2\n      dup2\n      mstore\n      0x20\n      add\n      dup3\n      dup1\n      sload\n      tag_295\n      swap1\n      tag_142\n      jump\t// in\n    tag_295:\n      dup1\n      iszero\n      tag_296\n      jumpi\n      dup1\n      0x1f\n      lt\n      tag_297\n      jumpi\n      0x0100\n      dup1\n      dup4\n      sload\n      div\n      mul\n      dup4\n      mstore\n      swap2\n      0x20\n      add\n      swap2\n      jump(tag_296)\n    tag_297:\n      dup3\n      add\n      swap2\n      swap1\n      0x00\n      mstore\n      keccak256(0x00, 0x20)\n      swap1\n    tag_298:\n      dup2\n      sload\n      dup2\n      mstore\n      swap1\n      0x01\n      add\n      swap1\n      0x20\n      add\n      dup1\n      dup4\n      gt\n      tag_298\n      jumpi\n      dup3\n      swap1\n      sub\n      0x1f\n      and\n      dup3\n      add\n      swap2\n    tag_296:\n      pop\n      pop\n      pop\n      pop\n      pop\n      dup2\n      mstore\n      0x20\n      add\n      0x08\n      dup3\n      add\n      dup1\n      sload\n      tag_299\n      swap1\n      tag_142\n      jump\t// in\n    tag_299:\n      dup1\n      0x1f\n      add\n      0x20\n      dup1\n      swap2\n      div\n      mul\n      0x20\n      add\n      mload(0x40)\n      swap1\n      dup2\n      add\n      0x40\n      mstore\n      dup1\n      swap3\n      swap2\n      swap1\n      dup2\n      dup2\n      mstore\n      0x20\n      add\n      dup3\n      dup1\n      sload\n      tag_300\n      swap1\n      tag_142\n      jump\t// in\n    tag_300:\n      dup1\n      iszero\n      tag_301\n      jumpi\n      dup1\n      0x1f\n      lt\n      tag_302\n      jumpi\n      0x0100\n      dup1\n      dup4\n      sload\n      div\n      mul\n      dup4\n      mstore\n      swap2\n      0x20\n      add\n      swap2\n      jump(tag_301)\n    tag_302:\n      dup3\n      add\n      swap2\n      swap1\n      0x00\n      mstore\n      keccak256(0x00, 0x20)\n      swap1\n    tag_303:\n      dup2\n      sload\n      dup2\n      mstore\n      swap1\n      0x01\n      add\n      swap1\n      0x20\n      add\n      dup1\n      dup4\n      gt\n      tag_303\n      jumpi\n      dup3\n      swap1\n      sub\n      0x1f\n      and\n      dup3\n      add\n      swap2\n    tag_301:\n      pop\n      pop\n      pop\n      pop\n      pop\n      dup2\n      mstore\n      0x20\n      add\n      0x09\n      dup3\n      add\n      dup1\n      sload\n      tag_304\n      swap1\n      tag_142\n      jump\t// in\n    tag_304:\n      dup1\n      0x1f\n      add\n      0x20\n      dup1\n      swap2\n      div\n      mul\n      0x20\n      add\n      mload(0x40)\n      swap1\n      dup2\n      add\n      0x40\n      mstore\n      dup1\n      swap3\n      swap2\n      swap1\n      dup2\n      dup2\n      mstore\n      0x20\n      add\n      dup3\n      dup1\n      sload\n      tag_305\n      swap1\n      tag_142\n      jump\t// in\n    tag_305:\n      dup1\n      iszero\n      tag_306\n      jumpi\n      dup1\n      0x1f\n      lt\n      tag_307\n      jumpi\n      0x0100\n      dup1\n      dup4\n      sload\n      div\n      mul\n      dup4\n      mstore\n      swap2\n      0x20\n      add\n      swap2\n      jump(tag_306)\n    tag_307:\n      dup3\n      add\n      swap2\n      swap1\n      0x00\n      mstore\n      keccak256(0x00, 0x20)\n      swap1\n    tag_308:\n      dup2\n      sload\n      dup2\n      mstore\n      swap1\n      0x01\n      add\n      swap1\n      0x20\n      add\n      dup1\n      dup4\n      gt\n      tag_308\n      jumpi\n      dup3\n      swap1\n      sub\n      0x1f\n      and\n      dup3\n      add\n      swap2\n    tag_306:\n      pop\n      pop\n      pop\n      pop\n      pop\n      dup2\n      mstore\n      0x20\n      add\n      0x0a\n      dup3\n      add\n      dup1\n      sload\n      tag_309\n      swap1\n      tag_142\n      jump\t// in\n    tag_309:\n      dup1\n      0x1f\n      add\n      0x20\n      dup1\n      swap2\n      div\n      mul\n      0x20\n      add\n      mload(0x40)\n      swap1\n      dup2\n      add\n      0x40\n      mstore\n      dup1\n      swap3\n      swap2\n      swap1\n      dup2\n      dup2\n      mstore\n      0x20\n      add\n      dup3\n      dup1\n      sload\n      tag_310\n      swap1\n      tag_142\n      jump\t// in\n    tag_310:\n      dup1\n      iszero\n      tag_311\n      jumpi\n      dup1\n      0x1f\n      lt\n      tag_312\n      jumpi\n      0x0100\n      dup1\n      dup4\n      sload\n      div\n      mul\n      dup4\n      mstore\n      swap2\n      0x20\n      add\n      swap2\n      jump(tag_311)\n    tag_312:\n      dup3\n      add\n      swap2\n      swap1\n      0x00\n      mstore\n      keccak256(0x00, 0x20)\n      swap1\n    tag_313:\n      dup2\n      sload\n      dup2\n      mstore\n      swap1\n      0x01\n      add\n      swap1\n      0x20\n      add\n      dup1\n      dup4\n      gt\n      tag_313\n      jumpi\n      dup3\n      swap1\n      sub\n      0x1f\n      and\n      dup3\n      add\n      swap2\n    tag_311:\n      pop\n      pop\n      pop\n      pop\n      pop\n      dup2\n      mstore\n      pop\n      pop\n      swap3\n      pop\n        /* \"database/ListBusiness.sol\":625:626  _ */\n      pop\n        /* \"database/ListBusiness.sol\":1277:1559  function at(uint256 index, bytes32 secret)... */\n      pop\n      swap3\n      swap2\n      pop\n      pop\n      jump\t// out\n        /* \"database/ListBusiness.sol\":4656:4886  function setGithub(... */\n    tag_86:\n        /* \"database/ListBusiness.sol\":4816:4820  bool */\n      0x00\n        /* \"database/ListBusiness.sol\":4781:4787  secret */\n      dup3\n        /* \"constant/SecretKey.sol\":232:298  0x8e1604a838d0f1a9b2cda14a099e4ceb08e966cc6e05e8296f67b02d61a79f09 */\n      0x8e1604a838d0f1a9b2cda14a099e4ceb08e966cc6e05e8296f67b02d61a79f09\n        /* \"database/ListBusiness.sol\":538:550  DATABASE_KEY */\n      0x00\n      shl\n        /* \"database/ListBusiness.sol\":529:534  value */\n      dup2\n        /* \"database/ListBusiness.sol\":529:550  value == DATABASE_KEY */\n      eq\n        /* \"database/ListBusiness.sol\":508:615  require(... */\n      tag_315\n      jumpi\n      mload(0x40)\n      0x08c379a000000000000000000000000000000000000000000000000000000000\n      dup2\n      mstore\n      0x04\n      add\n      tag_316\n      swap1\n      tag_117\n      jump\t// in\n    tag_316:\n      mload(0x40)\n      dup1\n      swap2\n      sub\n      swap1\n      revert\n    tag_315:\n        /* \"database/ListBusiness.sol\":4800:4805  index */\n      dup5\n        /* \"database/ListBusiness.sol\":711:716  index */\n      dup1\n        /* \"database/ListBusiness.sol\":706:707  1 */\n      0x01\n        /* \"database/ListBusiness.sol\":706:716  1 <= index */\n      gt\n      iszero\n        /* \"database/ListBusiness.sol\":705:745  (1 <= index) && (index <= autoIncrement) */\n      dup1\n      iszero\n      tag_318\n      jumpi\n      pop\n        /* \"database/ListBusiness.sol\":731:744  autoIncrement */\n      sload(0x02)\n        /* \"database/ListBusiness.sol\":722:727  index */\n      dup2\n        /* \"database/ListBusiness.sol\":722:744  index <= autoIncrement */\n      gt\n      iszero\n        /* \"database/ListBusiness.sol\":705:745  (1 <= index) && (index <= autoIncrement) */\n    tag_318:\n        /* \"database/ListBusiness.sol\":684:807  require(... */\n      tag_319\n      jumpi\n      mload(0x40)\n      0x08c379a000000000000000000000000000000000000000000000000000000000\n      dup2\n      mstore\n      0x04\n      add\n      tag_320\n      swap1\n      tag_190\n      jump\t// in\n    tag_320:\n      mload(0x40)\n      dup1\n      swap2\n      sub\n      swap1\n      revert\n    tag_319:\n        /* \"database/ListBusiness.sol\":4853:4858  value */\n      dup4\n        /* \"database/ListBusiness.sol\":4832:4836  list */\n      0x01\n        /* \"database/ListBusiness.sol\":4832:4843  list[index] */\n      0x00\n        /* \"database/ListBusiness.sol\":4837:4842  index */\n      dup9\n        /* \"database/ListBusiness.sol\":4832:4843  list[index] */\n      dup2\n      mstore\n      0x20\n      add\n      swap1\n      dup2\n      mstore\n      0x20\n      add\n      0x00\n      keccak256\n        /* \"database/ListBusiness.sol\":4832:4850  list[index].github */\n      0x07\n      add\n        /* \"database/ListBusiness.sol\":4832:4858  list[index].github = value */\n      swap1\n      dup2\n      tag_322\n      swap2\n      swap1\n      tag_122\n      jump\t// in\n    tag_322:\n      pop\n        /* \"database/ListBusiness.sol\":4875:4879  true */\n      0x01\n        /* \"database/ListBusiness.sol\":4868:4879  return true */\n      swap3\n      pop\n        /* \"database/ListBusiness.sol\":625:626  _ */\n      pop\n        /* \"database/ListBusiness.sol\":4656:4886  function setGithub(... */\n      pop\n      swap4\n      swap3\n      pop\n      pop\n      pop\n      jump\t// out\n        /* \"database/ListBusiness.sol\":1565:1860  function findIdByAddress(address value, bytes32 secret)... */\n    tag_90:\n        /* \"database/ListBusiness.sol\":1699:1706  uint256 */\n      0x00\n        /* \"database/ListBusiness.sol\":1674:1680  secret */\n      dup2\n        /* \"constant/SecretKey.sol\":232:298  0x8e1604a838d0f1a9b2cda14a099e4ceb08e966cc6e05e8296f67b02d61a79f09 */\n      0x8e1604a838d0f1a9b2cda14a099e4ceb08e966cc6e05e8296f67b02d61a79f09\n        /* \"database/ListBusiness.sol\":538:550  DATABASE_KEY */\n      0x00\n      shl\n        /* \"database/ListBusiness.sol\":529:534  value */\n      dup2\n        /* \"database/ListBusiness.sol\":529:550  value == DATABASE_KEY */\n      eq\n        /* \"database/ListBusiness.sol\":508:615  require(... */\n      tag_324\n      jumpi\n      mload(0x40)\n      0x08c379a000000000000000000000000000000000000000000000000000000000\n      dup2\n      mstore\n      0x04\n      add\n      tag_325\n      swap1\n      tag_117\n      jump\t// in\n    tag_325:\n      mload(0x40)\n      dup1\n      swap2\n      sub\n      swap1\n      revert\n    tag_324:\n        /* \"database/ListBusiness.sol\":1727:1736  uint256 i */\n      0x00\n        /* \"database/ListBusiness.sol\":1739:1740  1 */\n      0x01\n        /* \"database/ListBusiness.sol\":1727:1740  uint256 i = 1 */\n      swap1\n      pop\n        /* \"database/ListBusiness.sol\":1722:1836  for (uint256 i = 1; i <= autoIncrement; i++) {... */\n    tag_327:\n        /* \"database/ListBusiness.sol\":1747:1760  autoIncrement */\n      sload(0x02)\n        /* \"database/ListBusiness.sol\":1742:1743  i */\n      dup2\n        /* \"database/ListBusiness.sol\":1742:1760  i <= autoIncrement */\n      gt\n        /* \"database/ListBusiness.sol\":1722:1836  for (uint256 i = 1; i <= autoIncrement; i++) {... */\n      tag_328\n      jumpi\n        /* \"database/ListBusiness.sol\":1801:1806  value */\n      dup5\n        /* \"database/ListBusiness.sol\":1785:1806  list[i].user == value */\n      0xffffffffffffffffffffffffffffffffffffffff\n      and\n        /* \"database/ListBusiness.sol\":1785:1789  list */\n      0x01\n        /* \"database/ListBusiness.sol\":1785:1792  list[i] */\n      0x00\n        /* \"database/ListBusiness.sol\":1790:1791  i */\n      dup4\n        /* \"database/ListBusiness.sol\":1785:1792  list[i] */\n      dup2\n      mstore\n      0x20\n      add\n      swap1\n      dup2\n      mstore\n      0x20\n      add\n      0x00\n      keccak256\n        /* \"database/ListBusiness.sol\":1785:1797  list[i].user */\n      0x02\n      add\n      0x00\n      swap1\n      sload\n      swap1\n      0x0100\n      exp\n      swap1\n      div\n      0xffffffffffffffffffffffffffffffffffffffff\n      and\n        /* \"database/ListBusiness.sol\":1785:1806  list[i].user == value */\n      0xffffffffffffffffffffffffffffffffffffffff\n      and\n      sub\n        /* \"database/ListBusiness.sol\":1781:1825  if (list[i].user == value) return list[i].id */\n      tag_330\n      jumpi\n        /* \"database/ListBusiness.sol\":1815:1819  list */\n      0x01\n        /* \"database/ListBusiness.sol\":1815:1822  list[i] */\n      0x00\n        /* \"database/ListBusiness.sol\":1820:1821  i */\n      dup3\n        /* \"database/ListBusiness.sol\":1815:1822  list[i] */\n      dup2\n      mstore\n      0x20\n      add\n      swap1\n      dup2\n      mstore\n      0x20\n      add\n      0x00\n      keccak256\n        /* \"database/ListBusiness.sol\":1815:1825  list[i].id */\n      0x01\n      add\n      sload\n        /* \"database/ListBusiness.sol\":1808:1825  return list[i].id */\n      swap3\n      pop\n      pop\n      jump(tag_326)\n        /* \"database/ListBusiness.sol\":1781:1825  if (list[i].user == value) return list[i].id */\n    tag_330:\n        /* \"database/ListBusiness.sol\":1762:1765  i++ */\n      dup1\n      dup1\n      tag_331\n      swap1\n      tag_120\n      jump\t// in\n    tag_331:\n      swap2\n      pop\n      pop\n        /* \"database/ListBusiness.sol\":1722:1836  for (uint256 i = 1; i <= autoIncrement; i++) {... */\n      jump(tag_327)\n    tag_328:\n      pop\n        /* \"database/ListBusiness.sol\":1852:1853  0 */\n      0x00\n        /* \"database/ListBusiness.sol\":1845:1853  return 0 */\n      swap2\n      pop\n        /* \"database/ListBusiness.sol\":625:626  _ */\n    tag_326:\n        /* \"database/ListBusiness.sol\":1565:1860  function findIdByAddress(address value, bytes32 secret)... */\n      pop\n      swap3\n      swap2\n      pop\n      pop\n      jump\t// out\n        /* \"database/ListBusiness.sol\":4892:5126  function setLinkedin(... */\n    tag_95:\n        /* \"database/ListBusiness.sol\":5054:5058  bool */\n      0x00\n        /* \"database/ListBusiness.sol\":5019:5025  secret */\n      dup3\n        /* \"constant/SecretKey.sol\":232:298  0x8e1604a838d0f1a9b2cda14a099e4ceb08e966cc6e05e8296f67b02d61a79f09 */\n      0x8e1604a838d0f1a9b2cda14a099e4ceb08e966cc6e05e8296f67b02d61a79f09\n        /* \"database/ListBusiness.sol\":538:550  DATABASE_KEY */\n      0x00\n      shl\n        /* \"database/ListBusiness.sol\":529:534  value */\n      dup2\n        /* \"database/ListBusiness.sol\":529:550  value == DATABASE_KEY */\n      eq\n        /* \"database/ListBusiness.sol\":508:615  require(... */\n      tag_333\n      jumpi\n      mload(0x40)\n      0x08c379a000000000000000000000000000000000000000000000000000000000\n      dup2\n      mstore\n      0x04\n      add\n      tag_334\n      swap1\n      tag_117\n      jump\t// in\n    tag_334:\n      mload(0x40)\n      dup1\n      swap2\n      sub\n      swap1\n      revert\n    tag_333:\n        /* \"database/ListBusiness.sol\":5038:5043  index */\n      dup5\n        /* \"database/ListBusiness.sol\":711:716  index */\n      dup1\n        /* \"database/ListBusiness.sol\":706:707  1 */\n      0x01\n        /* \"database/ListBusiness.sol\":706:716  1 <= index */\n      gt\n      iszero\n        /* \"database/ListBusiness.sol\":705:745  (1 <= index) && (index <= autoIncrement) */\n      dup1\n      iszero\n      tag_336\n      jumpi\n      pop\n        /* \"database/ListBusiness.sol\":731:744  autoIncrement */\n      sload(0x02)\n        /* \"database/ListBusiness.sol\":722:727  index */\n      dup2\n        /* \"database/ListBusiness.sol\":722:744  index <= autoIncrement */\n      gt\n      iszero\n        /* \"database/ListBusiness.sol\":705:745  (1 <= index) && (index <= autoIncrement) */\n    tag_336:\n        /* \"database/ListBusiness.sol\":684:807  require(... */\n      tag_337\n      jumpi\n      mload(0x40)\n      0x08c379a000000000000000000000000000000000000000000000000000000000\n      dup2\n      mstore\n      0x04\n      add\n      tag_338\n      swap1\n      tag_190\n      jump\t// in\n    tag_338:\n      mload(0x40)\n      dup1\n      swap2\n      sub\n      swap1\n      revert\n    tag_337:\n        /* \"database/ListBusiness.sol\":5093:5098  value */\n      dup4\n        /* \"database/ListBusiness.sol\":5070:5074  list */\n      0x01\n        /* \"database/ListBusiness.sol\":5070:5081  list[index] */\n      0x00\n        /* \"database/ListBusiness.sol\":5075:5080  index */\n      dup9\n        /* \"database/ListBusiness.sol\":5070:5081  list[index] */\n      dup2\n      mstore\n      0x20\n      add\n      swap1\n      dup2\n      mstore\n      0x20\n      add\n      0x00\n      keccak256\n        /* \"database/ListBusiness.sol\":5070:5090  list[index].linkedin */\n      0x08\n      add\n        /* \"database/ListBusiness.sol\":5070:5098  list[index].linkedin = value */\n      swap1\n      dup2\n      tag_340\n      swap2\n      swap1\n      tag_122\n      jump\t// in\n    tag_340:\n      pop\n        /* \"database/ListBusiness.sol\":5115:5119  true */\n      0x01\n        /* \"database/ListBusiness.sol\":5108:5119  return true */\n      swap3\n      pop\n        /* \"database/ListBusiness.sol\":625:626  _ */\n      pop\n        /* \"database/ListBusiness.sol\":4892:5126  function setLinkedin(... */\n      pop\n      swap4\n      swap3\n      pop\n      pop\n      pop\n      jump\t// out\n        /* \"database/ListBusiness.sol\":3940:4168  function setPhone(... */\n    tag_99:\n        /* \"database/ListBusiness.sol\":4099:4103  bool */\n      0x00\n        /* \"database/ListBusiness.sol\":4064:4070  secret */\n      dup3\n        /* \"constant/SecretKey.sol\":232:298  0x8e1604a838d0f1a9b2cda14a099e4ceb08e966cc6e05e8296f67b02d61a79f09 */\n      0x8e1604a838d0f1a9b2cda14a099e4ceb08e966cc6e05e8296f67b02d61a79f09\n        /* \"database/ListBusiness.sol\":538:550  DATABASE_KEY */\n      0x00\n      shl\n        /* \"database/ListBusiness.sol\":529:534  value */\n      dup2\n        /* \"database/ListBusiness.sol\":529:550  value == DATABASE_KEY */\n      eq\n        /* \"database/ListBusiness.sol\":508:615  require(... */\n      tag_342\n      jumpi\n      mload(0x40)\n      0x08c379a000000000000000000000000000000000000000000000000000000000\n      dup2\n      mstore\n      0x04\n      add\n      tag_343\n      swap1\n      tag_117\n      jump\t// in\n    tag_343:\n      mload(0x40)\n      dup1\n      swap2\n      sub\n      swap1\n      revert\n    tag_342:\n        /* \"database/ListBusiness.sol\":4083:4088  index */\n      dup5\n        /* \"database/ListBusiness.sol\":711:716  index */\n      dup1\n        /* \"database/ListBusiness.sol\":706:707  1 */\n      0x01\n        /* \"database/ListBusiness.sol\":706:716  1 <= index */\n      gt\n      iszero\n        /* \"database/ListBusiness.sol\":705:745  (1 <= index) && (index <= autoIncrement) */\n      dup1\n      iszero\n      tag_345\n      jumpi\n      pop\n        /* \"database/ListBusiness.sol\":731:744  autoIncrement */\n      sload(0x02)\n        /* \"database/ListBusiness.sol\":722:727  index */\n      dup2\n        /* \"database/ListBusiness.sol\":722:744  index <= autoIncrement */\n      gt\n      iszero\n        /* \"database/ListBusiness.sol\":705:745  (1 <= index) && (index <= autoIncrement) */\n    tag_345:\n        /* \"database/ListBusiness.sol\":684:807  require(... */\n      tag_346\n      jumpi\n      mload(0x40)\n      0x08c379a000000000000000000000000000000000000000000000000000000000\n      dup2\n      mstore\n      0x04\n      add\n      tag_347\n      swap1\n      tag_190\n      jump\t// in\n    tag_347:\n      mload(0x40)\n      dup1\n      swap2\n      sub\n      swap1\n      revert\n    tag_346:\n        /* \"database/ListBusiness.sol\":4135:4140  value */\n      dup4\n        /* \"database/ListBusiness.sol\":4115:4119  list */\n      0x01\n        /* \"database/ListBusiness.sol\":4115:4126  list[index] */\n      0x00\n        /* \"database/ListBusiness.sol\":4120:4125  index */\n      dup9\n        /* \"database/ListBusiness.sol\":4115:4126  list[index] */\n      dup2\n      mstore\n      0x20\n      add\n      swap1\n      dup2\n      mstore\n      0x20\n      add\n      0x00\n      keccak256\n        /* \"database/ListBusiness.sol\":4115:4132  list[index].phone */\n      0x04\n      add\n        /* \"database/ListBusiness.sol\":4115:4140  list[index].phone = value */\n      swap1\n      dup2\n      tag_349\n      swap2\n      swap1\n      tag_122\n      jump\t// in\n    tag_349:\n      pop\n        /* \"database/ListBusiness.sol\":4157:4161  true */\n      0x01\n        /* \"database/ListBusiness.sol\":4150:4161  return true */\n      swap3\n      pop\n        /* \"database/ListBusiness.sol\":625:626  _ */\n      pop\n        /* \"database/ListBusiness.sol\":3940:4168  function setPhone(... */\n      pop\n      swap4\n      swap3\n      pop\n      pop\n      pop\n      jump\t// out\n        /* \"database/ListBusiness.sol\":4174:4416  function setProfessional(... */\n    tag_103:\n        /* \"database/ListBusiness.sol\":4340:4344  bool */\n      0x00\n        /* \"database/ListBusiness.sol\":4305:4311  secret */\n      dup3\n        /* \"constant/SecretKey.sol\":232:298  0x8e1604a838d0f1a9b2cda14a099e4ceb08e966cc6e05e8296f67b02d61a79f09 */\n      0x8e1604a838d0f1a9b2cda14a099e4ceb08e966cc6e05e8296f67b02d61a79f09\n        /* \"database/ListBusiness.sol\":538:550  DATABASE_KEY */\n      0x00\n      shl\n        /* \"database/ListBusiness.sol\":529:534  value */\n      dup2\n        /* \"database/ListBusiness.sol\":529:550  value == DATABASE_KEY */\n      eq\n        /* \"database/ListBusiness.sol\":508:615  require(... */\n      tag_351\n      jumpi\n      mload(0x40)\n      0x08c379a000000000000000000000000000000000000000000000000000000000\n      dup2\n      mstore\n      0x04\n      add\n      tag_352\n      swap1\n      tag_117\n      jump\t// in\n    tag_352:\n      mload(0x40)\n      dup1\n      swap2\n      sub\n      swap1\n      revert\n    tag_351:\n        /* \"database/ListBusiness.sol\":4324:4329  index */\n      dup5\n        /* \"database/ListBusiness.sol\":711:716  index */\n      dup1\n        /* \"database/ListBusiness.sol\":706:707  1 */\n      0x01\n        /* \"database/ListBusiness.sol\":706:716  1 <= index */\n      gt\n      iszero\n        /* \"database/ListBusiness.sol\":705:745  (1 <= index) && (index <= autoIncrement) */\n      dup1\n      iszero\n      tag_354\n      jumpi\n      pop\n        /* \"database/ListBusiness.sol\":731:744  autoIncrement */\n      sload(0x02)\n        /* \"database/ListBusiness.sol\":722:727  index */\n      dup2\n        /* \"database/ListBusiness.sol\":722:744  index <= autoIncrement */\n      gt\n      iszero\n        /* \"database/ListBusiness.sol\":705:745  (1 <= index) && (index <= autoIncrement) */\n    tag_354:\n        /* \"database/ListBusiness.sol\":684:807  require(... */\n      tag_355\n      jumpi\n      mload(0x40)\n      0x08c379a000000000000000000000000000000000000000000000000000000000\n      dup2\n      mstore\n      0x04\n      add\n      tag_356\n      swap1\n      tag_190\n      jump\t// in\n    tag_356:\n      mload(0x40)\n      dup1\n      swap2\n      sub\n      swap1\n      revert\n    tag_355:\n        /* \"database/ListBusiness.sol\":4383:4388  value */\n      dup4\n        /* \"database/ListBusiness.sol\":4356:4360  list */\n      0x01\n        /* \"database/ListBusiness.sol\":4356:4367  list[index] */\n      0x00\n        /* \"database/ListBusiness.sol\":4361:4366  index */\n      dup9\n        /* \"database/ListBusiness.sol\":4356:4367  list[index] */\n      dup2\n      mstore\n      0x20\n      add\n      swap1\n      dup2\n      mstore\n      0x20\n      add\n      0x00\n      keccak256\n        /* \"database/ListBusiness.sol\":4356:4380  list[index].professional */\n      0x05\n      add\n        /* \"database/ListBusiness.sol\":4356:4388  list[index].professional = value */\n      swap1\n      dup2\n      tag_358\n      swap2\n      swap1\n      tag_122\n      jump\t// in\n    tag_358:\n      pop\n        /* \"database/ListBusiness.sol\":4405:4409  true */\n      0x01\n        /* \"database/ListBusiness.sol\":4398:4409  return true */\n      swap3\n      pop\n        /* \"database/ListBusiness.sol\":625:626  _ */\n      pop\n        /* \"database/ListBusiness.sol\":4174:4416  function setProfessional(... */\n      pop\n      swap4\n      swap3\n      pop\n      pop\n      pop\n      jump\t// out\n        /* \"abstract/Ownable.sol\":2063:2295  function transferOwnership(address newOwner) public virtual onlyOwner {... */\n    tag_108:\n        /* \"abstract/Ownable.sol\":1068:1081  _checkOwner() */\n      tag_360\n        /* \"abstract/Ownable.sol\":1068:1079  _checkOwner */\n      tag_238\n        /* \"abstract/Ownable.sol\":1068:1081  _checkOwner() */\n      jump\t// in\n    tag_360:\n        /* \"abstract/Ownable.sol\":2184:2185  0 */\n      0x00\n        /* \"abstract/Ownable.sol\":2164:2186  newOwner != address(0) */\n      0xffffffffffffffffffffffffffffffffffffffff\n      and\n        /* \"abstract/Ownable.sol\":2164:2172  newOwner */\n      dup2\n        /* \"abstract/Ownable.sol\":2164:2186  newOwner != address(0) */\n      0xffffffffffffffffffffffffffffffffffffffff\n      and\n      sub\n        /* \"abstract/Ownable.sol\":2143:2250  require(... */\n      tag_362\n      jumpi\n      mload(0x40)\n      0x08c379a000000000000000000000000000000000000000000000000000000000\n      dup2\n      mstore\n      0x04\n      add\n      tag_363\n      swap1\n      tag_364\n      jump\t// in\n    tag_363:\n      mload(0x40)\n      dup1\n      swap2\n      sub\n      swap1\n      revert\n    tag_362:\n        /* \"abstract/Ownable.sol\":2260:2288  _transferOwnership(newOwner) */\n      tag_365\n        /* \"abstract/Ownable.sol\":2279:2287  newOwner */\n      dup2\n        /* \"abstract/Ownable.sol\":2260:2278  _transferOwnership */\n      tag_366\n        /* \"abstract/Ownable.sol\":2260:2288  _transferOwnership(newOwner) */\n      jump\t// in\n    tag_365:\n        /* \"abstract/Ownable.sol\":2063:2295  function transferOwnership(address newOwner) public virtual onlyOwner {... */\n      pop\n      jump\t// out\n        /* \"database/ListBusiness.sol\":831:994  function getLength(bytes32 secret)... */\n    tag_112:\n        /* \"database/ListBusiness.sol\":944:951  uint256 */\n      0x00\n        /* \"database/ListBusiness.sol\":919:925  secret */\n      dup2\n        /* \"constant/SecretKey.sol\":232:298  0x8e1604a838d0f1a9b2cda14a099e4ceb08e966cc6e05e8296f67b02d61a79f09 */\n      0x8e1604a838d0f1a9b2cda14a099e4ceb08e966cc6e05e8296f67b02d61a79f09\n        /* \"database/ListBusiness.sol\":538:550  DATABASE_KEY */\n      0x00\n      shl\n        /* \"database/ListBusiness.sol\":529:534  value */\n      dup2\n        /* \"database/ListBusiness.sol\":529:550  value == DATABASE_KEY */\n      eq\n        /* \"database/ListBusiness.sol\":508:615  require(... */\n      tag_368\n      jumpi\n      mload(0x40)\n      0x08c379a000000000000000000000000000000000000000000000000000000000\n      dup2\n      mstore\n      0x04\n      add\n      tag_369\n      swap1\n      tag_117\n      jump\t// in\n    tag_369:\n      mload(0x40)\n      dup1\n      swap2\n      sub\n      swap1\n      revert\n    tag_368:\n        /* \"database/ListBusiness.sol\":974:987  autoIncrement */\n      sload(0x02)\n        /* \"database/ListBusiness.sol\":967:987  return autoIncrement */\n      swap2\n      pop\n        /* \"database/ListBusiness.sol\":831:994  function getLength(bytes32 secret)... */\n      pop\n      swap2\n      swap1\n      pop\n      jump\t// out\n        /* \"abstract/Ownable.sol\":1333:1461  function _checkOwner() internal view virtual {... */\n    tag_238:\n        /* \"abstract/Ownable.sol\":1407:1417  msg.sender */\n      caller\n        /* \"abstract/Ownable.sol\":1396:1417  owner() == msg.sender */\n      0xffffffffffffffffffffffffffffffffffffffff\n      and\n        /* \"abstract/Ownable.sol\":1396:1403  owner() */\n      tag_372\n        /* \"abstract/Ownable.sol\":1396:1401  owner */\n      tag_72\n        /* \"abstract/Ownable.sol\":1396:1403  owner() */\n      jump\t// in\n    tag_372:\n        /* \"abstract/Ownable.sol\":1396:1417  owner() == msg.sender */\n      0xffffffffffffffffffffffffffffffffffffffff\n      and\n      eq\n        /* \"abstract/Ownable.sol\":1388:1454  require(owner() == msg.sender, \"Ownable: caller is not the owner\") */\n      tag_373\n      jumpi\n      mload(0x40)\n      0x08c379a000000000000000000000000000000000000000000000000000000000\n      dup2\n      mstore\n      0x04\n      add\n      tag_374\n      swap1\n      tag_375\n      jump\t// in\n    tag_374:\n      mload(0x40)\n      dup1\n      swap2\n      sub\n      swap1\n      revert\n    tag_373:\n        /* \"abstract/Ownable.sol\":1333:1461  function _checkOwner() internal view virtual {... */\n      jump\t// out\n        /* \"abstract/Ownable.sol\":2449:2636  function _transferOwnership(address newOwner) internal virtual {... */\n    tag_366:\n        /* \"abstract/Ownable.sol\":2522:2538  address oldOwner */\n      0x00\n        /* \"abstract/Ownable.sol\":2541:2547  _owner */\n      dup1\n      0x00\n      swap1\n      sload\n      swap1\n      0x0100\n      exp\n      swap1\n      div\n      0xffffffffffffffffffffffffffffffffffffffff\n      and\n        /* \"abstract/Ownable.sol\":2522:2547  address oldOwner = _owner */\n      swap1\n      pop\n        /* \"abstract/Ownable.sol\":2566:2574  newOwner */\n      dup2\n        /* \"abstract/Ownable.sol\":2557:2563  _owner */\n      0x00\n      dup1\n        /* \"abstract/Ownable.sol\":2557:2574  _owner = newOwner */\n      0x0100\n      exp\n      dup2\n      sload\n      dup2\n      0xffffffffffffffffffffffffffffffffffffffff\n      mul\n      not\n      and\n      swap1\n      dup4\n      0xffffffffffffffffffffffffffffffffffffffff\n      and\n      mul\n      or\n      swap1\n      sstore\n      pop\n        /* \"abstract/Ownable.sol\":2620:2628  newOwner */\n      dup2\n        /* \"abstract/Ownable.sol\":2589:2629  OwnershipTransferred(oldOwner, newOwner) */\n      0xffffffffffffffffffffffffffffffffffffffff\n      and\n        /* \"abstract/Ownable.sol\":2610:2618  oldOwner */\n      dup2\n        /* \"abstract/Ownable.sol\":2589:2629  OwnershipTransferred(oldOwner, newOwner) */\n      0xffffffffffffffffffffffffffffffffffffffff\n      and\n      0x8be0079c531659141344cd1fd0a4f28419497f9722a3daafe3b4186f6b6457e0\n      mload(0x40)\n      mload(0x40)\n      dup1\n      swap2\n      sub\n      swap1\n      log3\n        /* \"abstract/Ownable.sol\":2512:2636  {... */\n      pop\n        /* \"abstract/Ownable.sol\":2449:2636  function _transferOwnership(address newOwner) internal virtual {... */\n      pop\n      jump\t// out\n    tag_132:\n      mload(0x40)\n      dup1\n      0x0160\n      add\n      0x40\n      mstore\n      dup1\n      0x00\n      dup2\n      mstore\n      0x20\n      add\n      0x00\n      dup2\n      mstore\n      0x20\n      add\n      and(0xffffffffffffffffffffffffffffffffffffffff, 0x00)\n      dup2\n      mstore\n      0x20\n      add\n      0x60\n      dup2\n      mstore\n      0x20\n      add\n      0x60\n      dup2\n      mstore\n      0x20\n      add\n      0x60\n      dup2\n      mstore\n      0x20\n      add\n      0x60\n      dup2\n      mstore\n      0x20\n      add\n      0x60\n      dup2\n      mstore\n      0x20\n      add\n      0x60\n      dup2\n      mstore\n      0x20\n      add\n      0x60\n      dup2\n      mstore\n      0x20\n      add\n      0x60\n      dup2\n      mstore\n      pop\n      swap1\n      jump\t// out\n        /* \"#utility.yul\":7:82   */\n    tag_377:\n        /* \"#utility.yul\":40:46   */\n      0x00\n        /* \"#utility.yul\":73:75   */\n      0x40\n        /* \"#utility.yul\":67:76   */\n      mload\n        /* \"#utility.yul\":57:76   */\n      swap1\n      pop\n        /* \"#utility.yul\":7:82   */\n      swap1\n      jump\t// out\n        /* \"#utility.yul\":88:205   */\n    tag_378:\n        /* \"#utility.yul\":197:198   */\n      0x00\n        /* \"#utility.yul\":194:195   */\n      dup1\n        /* \"#utility.yul\":187:199   */\n      revert\n        /* \"#utility.yul\":211:328   */\n    tag_379:\n        /* \"#utility.yul\":320:321   */\n      0x00\n        /* \"#utility.yul\":317:318   */\n      dup1\n        /* \"#utility.yul\":310:322   */\n      revert\n        /* \"#utility.yul\":334:451   */\n    tag_380:\n        /* \"#utility.yul\":443:444   */\n      0x00\n        /* \"#utility.yul\":440:441   */\n      dup1\n        /* \"#utility.yul\":433:445   */\n      revert\n        /* \"#utility.yul\":457:559   */\n    tag_381:\n        /* \"#utility.yul\":498:504   */\n      0x00\n        /* \"#utility.yul\":549:551   */\n      0x1f\n        /* \"#utility.yul\":545:552   */\n      not\n        /* \"#utility.yul\":540:542   */\n      0x1f\n        /* \"#utility.yul\":533:538   */\n      dup4\n        /* \"#utility.yul\":529:543   */\n      add\n        /* \"#utility.yul\":525:553   */\n      and\n        /* \"#utility.yul\":515:553   */\n      swap1\n      pop\n        /* \"#utility.yul\":457:559   */\n      swap2\n      swap1\n      pop\n      jump\t// out\n        /* \"#utility.yul\":565:745   */\n    tag_382:\n        /* \"#utility.yul\":613:690   */\n      0x4e487b7100000000000000000000000000000000000000000000000000000000\n        /* \"#utility.yul\":610:611   */\n      0x00\n        /* \"#utility.yul\":603:691   */\n      mstore\n        /* \"#utility.yul\":710:714   */\n      0x41\n        /* \"#utility.yul\":707:708   */\n      0x04\n        /* \"#utility.yul\":700:715   */\n      mstore\n        /* \"#utility.yul\":734:738   */\n      0x24\n        /* \"#utility.yul\":731:732   */\n      0x00\n        /* \"#utility.yul\":724:739   */\n      revert\n        /* \"#utility.yul\":751:1032   */\n    tag_383:\n        /* \"#utility.yul\":834:861   */\n      tag_448\n        /* \"#utility.yul\":856:860   */\n      dup3\n        /* \"#utility.yul\":834:861   */\n      tag_381\n      jump\t// in\n    tag_448:\n        /* \"#utility.yul\":826:832   */\n      dup2\n        /* \"#utility.yul\":822:862   */\n      add\n        /* \"#utility.yul\":964:970   */\n      dup2\n        /* \"#utility.yul\":952:962   */\n      dup2\n        /* \"#utility.yul\":949:971   */\n      lt\n        /* \"#utility.yul\":928:946   */\n      0xffffffffffffffff\n        /* \"#utility.yul\":916:926   */\n      dup3\n        /* \"#utility.yul\":913:947   */\n      gt\n        /* \"#utility.yul\":910:972   */\n      or\n        /* \"#utility.yul\":907:995   */\n      iszero\n      tag_449\n      jumpi\n        /* \"#utility.yul\":975:993   */\n      tag_450\n      tag_382\n      jump\t// in\n    tag_450:\n        /* \"#utility.yul\":907:995   */\n    tag_449:\n        /* \"#utility.yul\":1015:1025   */\n      dup1\n        /* \"#utility.yul\":1011:1013   */\n      0x40\n        /* \"#utility.yul\":1004:1026   */\n      mstore\n        /* \"#utility.yul\":794:1032   */\n      pop\n        /* \"#utility.yul\":751:1032   */\n      pop\n      pop\n      jump\t// out\n        /* \"#utility.yul\":1038:1167   */\n    tag_384:\n        /* \"#utility.yul\":1072:1078   */\n      0x00\n        /* \"#utility.yul\":1099:1119   */\n      tag_452\n      tag_377\n      jump\t// in\n    tag_452:\n        /* \"#utility.yul\":1089:1119   */\n      swap1\n      pop\n        /* \"#utility.yul\":1128:1161   */\n      tag_453\n        /* \"#utility.yul\":1156:1160   */\n      dup3\n        /* \"#utility.yul\":1148:1154   */\n      dup3\n        /* \"#utility.yul\":1128:1161   */\n      tag_383\n      jump\t// in\n    tag_453:\n        /* \"#utility.yul\":1038:1167   */\n      swap2\n      swap1\n      pop\n      jump\t// out\n        /* \"#utility.yul\":1173:1290   */\n    tag_385:\n        /* \"#utility.yul\":1282:1283   */\n      0x00\n        /* \"#utility.yul\":1279:1280   */\n      dup1\n        /* \"#utility.yul\":1272:1284   */\n      revert\n        /* \"#utility.yul\":1296:1373   */\n    tag_386:\n        /* \"#utility.yul\":1333:1340   */\n      0x00\n        /* \"#utility.yul\":1362:1367   */\n      dup2\n        /* \"#utility.yul\":1351:1367   */\n      swap1\n      pop\n        /* \"#utility.yul\":1296:1373   */\n      swap2\n      swap1\n      pop\n      jump\t// out\n        /* \"#utility.yul\":1379:1501   */\n    tag_387:\n        /* \"#utility.yul\":1452:1476   */\n      tag_457\n        /* \"#utility.yul\":1470:1475   */\n      dup2\n        /* \"#utility.yul\":1452:1476   */\n      tag_386\n      jump\t// in\n    tag_457:\n        /* \"#utility.yul\":1445:1450   */\n      dup2\n        /* \"#utility.yul\":1442:1477   */\n      eq\n        /* \"#utility.yul\":1432:1495   */\n      tag_458\n      jumpi\n        /* \"#utility.yul\":1491:1492   */\n      0x00\n        /* \"#utility.yul\":1488:1489   */\n      dup1\n        /* \"#utility.yul\":1481:1493   */\n      revert\n        /* \"#utility.yul\":1432:1495   */\n    tag_458:\n        /* \"#utility.yul\":1379:1501   */\n      pop\n      jump\t// out\n        /* \"#utility.yul\":1507:1646   */\n    tag_388:\n        /* \"#utility.yul\":1553:1558   */\n      0x00\n        /* \"#utility.yul\":1591:1597   */\n      dup2\n        /* \"#utility.yul\":1578:1598   */\n      calldataload\n        /* \"#utility.yul\":1569:1598   */\n      swap1\n      pop\n        /* \"#utility.yul\":1607:1640   */\n      tag_460\n        /* \"#utility.yul\":1634:1639   */\n      dup2\n        /* \"#utility.yul\":1607:1640   */\n      tag_387\n      jump\t// in\n    tag_460:\n        /* \"#utility.yul\":1507:1646   */\n      swap3\n      swap2\n      pop\n      pop\n      jump\t// out\n        /* \"#utility.yul\":1652:1778   */\n    tag_389:\n        /* \"#utility.yul\":1689:1696   */\n      0x00\n        /* \"#utility.yul\":1729:1771   */\n      0xffffffffffffffffffffffffffffffffffffffff\n        /* \"#utility.yul\":1722:1727   */\n      dup3\n        /* \"#utility.yul\":1718:1772   */\n      and\n        /* \"#utility.yul\":1707:1772   */\n      swap1\n      pop\n        /* \"#utility.yul\":1652:1778   */\n      swap2\n      swap1\n      pop\n      jump\t// out\n        /* \"#utility.yul\":1784:1880   */\n    tag_390:\n        /* \"#utility.yul\":1821:1828   */\n      0x00\n        /* \"#utility.yul\":1850:1874   */\n      tag_463\n        /* \"#utility.yul\":1868:1873   */\n      dup3\n        /* \"#utility.yul\":1850:1874   */\n      tag_389\n      jump\t// in\n    tag_463:\n        /* \"#utility.yul\":1839:1874   */\n      swap1\n      pop\n        /* \"#utility.yul\":1784:1880   */\n      swap2\n      swap1\n      pop\n      jump\t// out\n        /* \"#utility.yul\":1886:2008   */\n    tag_391:\n        /* \"#utility.yul\":1959:1983   */\n      tag_465\n        /* \"#utility.yul\":1977:1982   */\n      dup2\n        /* \"#utility.yul\":1959:1983   */\n      tag_390\n      jump\t// in\n    tag_465:\n        /* \"#utility.yul\":1952:1957   */\n      dup2\n        /* \"#utility.yul\":1949:1984   */\n      eq\n        /* \"#utility.yul\":1939:2002   */\n      tag_466\n      jumpi\n        /* \"#utility.yul\":1998:1999   */\n      0x00\n        /* \"#utility.yul\":1995:1996   */\n      dup1\n        /* \"#utility.yul\":1988:2000   */\n      revert\n        /* \"#utility.yul\":1939:2002   */\n    tag_466:\n        /* \"#utility.yul\":1886:2008   */\n      pop\n      jump\t// out\n        /* \"#utility.yul\":2014:2153   */\n    tag_392:\n        /* \"#utility.yul\":2060:2065   */\n      0x00\n        /* \"#utility.yul\":2098:2104   */\n      dup2\n        /* \"#utility.yul\":2085:2105   */\n      calldataload\n        /* \"#utility.yul\":2076:2105   */\n      swap1\n      pop\n        /* \"#utility.yul\":2114:2147   */\n      tag_468\n        /* \"#utility.yul\":2141:2146   */\n      dup2\n        /* \"#utility.yul\":2114:2147   */\n      tag_391\n      jump\t// in\n    tag_468:\n        /* \"#utility.yul\":2014:2153   */\n      swap3\n      swap2\n      pop\n      pop\n      jump\t// out\n        /* \"#utility.yul\":2159:2276   */\n    tag_393:\n        /* \"#utility.yul\":2268:2269   */\n      0x00\n        /* \"#utility.yul\":2265:2266   */\n      dup1\n        /* \"#utility.yul\":2258:2270   */\n      revert\n        /* \"#utility.yul\":2282:2399   */\n    tag_394:\n        /* \"#utility.yul\":2391:2392   */\n      0x00\n        /* \"#utility.yul\":2388:2389   */\n      dup1\n        /* \"#utility.yul\":2381:2393   */\n      revert\n        /* \"#utility.yul\":2405:2713   */\n    tag_395:\n        /* \"#utility.yul\":2467:2471   */\n      0x00\n        /* \"#utility.yul\":2557:2575   */\n      0xffffffffffffffff\n        /* \"#utility.yul\":2549:2555   */\n      dup3\n        /* \"#utility.yul\":2546:2576   */\n      gt\n        /* \"#utility.yul\":2543:2599   */\n      iszero\n      tag_472\n      jumpi\n        /* \"#utility.yul\":2579:2597   */\n      tag_473\n      tag_382\n      jump\t// in\n    tag_473:\n        /* \"#utility.yul\":2543:2599   */\n    tag_472:\n        /* \"#utility.yul\":2617:2646   */\n      tag_474\n        /* \"#utility.yul\":2639:2645   */\n      dup3\n        /* \"#utility.yul\":2617:2646   */\n      tag_381\n      jump\t// in\n    tag_474:\n        /* \"#utility.yul\":2609:2646   */\n      swap1\n      pop\n        /* \"#utility.yul\":2701:2705   */\n      0x20\n        /* \"#utility.yul\":2695:2699   */\n      dup2\n        /* \"#utility.yul\":2691:2706   */\n      add\n        /* \"#utility.yul\":2683:2706   */\n      swap1\n      pop\n        /* \"#utility.yul\":2405:2713   */\n      swap2\n      swap1\n      pop\n      jump\t// out\n        /* \"#utility.yul\":2719:2865   */\n    tag_396:\n        /* \"#utility.yul\":2816:2822   */\n      dup3\n        /* \"#utility.yul\":2811:2814   */\n      dup2\n        /* \"#utility.yul\":2806:2809   */\n      dup4\n        /* \"#utility.yul\":2793:2823   */\n      calldatacopy\n        /* \"#utility.yul\":2857:2858   */\n      0x00\n        /* \"#utility.yul\":2848:2854   */\n      dup4\n        /* \"#utility.yul\":2843:2846   */\n      dup4\n        /* \"#utility.yul\":2839:2855   */\n      add\n        /* \"#utility.yul\":2832:2859   */\n      mstore\n        /* \"#utility.yul\":2719:2865   */\n      pop\n      pop\n      pop\n      jump\t// out\n        /* \"#utility.yul\":2871:3296   */\n    tag_397:\n        /* \"#utility.yul\":2949:2954   */\n      0x00\n        /* \"#utility.yul\":2974:3040   */\n      tag_477\n        /* \"#utility.yul\":2990:3039   */\n      tag_478\n        /* \"#utility.yul\":3032:3038   */\n      dup5\n        /* \"#utility.yul\":2990:3039   */\n      tag_395\n      jump\t// in\n    tag_478:\n        /* \"#utility.yul\":2974:3040   */\n      tag_384\n      jump\t// in\n    tag_477:\n        /* \"#utility.yul\":2965:3040   */\n      swap1\n      pop\n        /* \"#utility.yul\":3063:3069   */\n      dup3\n        /* \"#utility.yul\":3056:3061   */\n      dup2\n        /* \"#utility.yul\":3049:3070   */\n      mstore\n        /* \"#utility.yul\":3101:3105   */\n      0x20\n        /* \"#utility.yul\":3094:3099   */\n      dup2\n        /* \"#utility.yul\":3090:3106   */\n      add\n        /* \"#utility.yul\":3139:3142   */\n      dup5\n        /* \"#utility.yul\":3130:3136   */\n      dup5\n        /* \"#utility.yul\":3125:3128   */\n      dup5\n        /* \"#utility.yul\":3121:3137   */\n      add\n        /* \"#utility.yul\":3118:3143   */\n      gt\n        /* \"#utility.yul\":3115:3227   */\n      iszero\n      tag_479\n      jumpi\n        /* \"#utility.yul\":3146:3225   */\n      tag_480\n      tag_394\n      jump\t// in\n    tag_480:\n        /* \"#utility.yul\":3115:3227   */\n    tag_479:\n        /* \"#utility.yul\":3236:3290   */\n      tag_481\n        /* \"#utility.yul\":3283:3289   */\n      dup5\n        /* \"#utility.yul\":3278:3281   */\n      dup3\n        /* \"#utility.yul\":3273:3276   */\n      dup6\n        /* \"#utility.yul\":3236:3290   */\n      tag_396\n      jump\t// in\n    tag_481:\n        /* \"#utility.yul\":2955:3296   */\n      pop\n        /* \"#utility.yul\":2871:3296   */\n      swap4\n      swap3\n      pop\n      pop\n      pop\n      jump\t// out\n        /* \"#utility.yul\":3316:3656   */\n    tag_398:\n        /* \"#utility.yul\":3372:3377   */\n      0x00\n        /* \"#utility.yul\":3421:3424   */\n      dup3\n        /* \"#utility.yul\":3414:3418   */\n      0x1f\n        /* \"#utility.yul\":3406:3412   */\n      dup4\n        /* \"#utility.yul\":3402:3419   */\n      add\n        /* \"#utility.yul\":3398:3425   */\n      slt\n        /* \"#utility.yul\":3388:3510   */\n      tag_483\n      jumpi\n        /* \"#utility.yul\":3429:3508   */\n      tag_484\n      tag_393\n      jump\t// in\n    tag_484:\n        /* \"#utility.yul\":3388:3510   */\n    tag_483:\n        /* \"#utility.yul\":3546:3552   */\n      dup2\n        /* \"#utility.yul\":3533:3553   */\n      calldataload\n        /* \"#utility.yul\":3571:3650   */\n      tag_485\n        /* \"#utility.yul\":3646:3649   */\n      dup5\n        /* \"#utility.yul\":3638:3644   */\n      dup3\n        /* \"#utility.yul\":3631:3635   */\n      0x20\n        /* \"#utility.yul\":3623:3629   */\n      dup7\n        /* \"#utility.yul\":3619:3636   */\n      add\n        /* \"#utility.yul\":3571:3650   */\n      tag_397\n      jump\t// in\n    tag_485:\n        /* \"#utility.yul\":3562:3650   */\n      swap2\n      pop\n        /* \"#utility.yul\":3378:3656   */\n      pop\n        /* \"#utility.yul\":3316:3656   */\n      swap3\n      swap2\n      pop\n      pop\n      jump\t// out\n        /* \"#utility.yul\":3684:7113   */\n    tag_399:\n        /* \"#utility.yul\":3757:3762   */\n      0x00\n        /* \"#utility.yul\":3801:3807   */\n      0x0160\n        /* \"#utility.yul\":3789:3798   */\n      dup3\n        /* \"#utility.yul\":3784:3787   */\n      dup5\n        /* \"#utility.yul\":3780:3799   */\n      sub\n        /* \"#utility.yul\":3776:3808   */\n      slt\n        /* \"#utility.yul\":3773:3892   */\n      iszero\n      tag_487\n      jumpi\n        /* \"#utility.yul\":3811:3890   */\n      tag_488\n      tag_380\n      jump\t// in\n    tag_488:\n        /* \"#utility.yul\":3773:3892   */\n    tag_487:\n        /* \"#utility.yul\":3910:3933   */\n      tag_489\n        /* \"#utility.yul\":3926:3932   */\n      0x0160\n        /* \"#utility.yul\":3910:3933   */\n      tag_384\n      jump\t// in\n    tag_489:\n        /* \"#utility.yul\":3901:3933   */\n      swap1\n      pop\n        /* \"#utility.yul\":3997:3998   */\n      0x00\n        /* \"#utility.yul\":4037:4086   */\n      tag_490\n        /* \"#utility.yul\":4082:4085   */\n      dup5\n        /* \"#utility.yul\":4073:4079   */\n      dup3\n        /* \"#utility.yul\":4062:4071   */\n      dup6\n        /* \"#utility.yul\":4058:4080   */\n      add\n        /* \"#utility.yul\":4037:4086   */\n      tag_388\n      jump\t// in\n    tag_490:\n        /* \"#utility.yul\":4030:4034   */\n      0x00\n        /* \"#utility.yul\":4023:4028   */\n      dup4\n        /* \"#utility.yul\":4019:4035   */\n      add\n        /* \"#utility.yul\":4012:4087   */\n      mstore\n        /* \"#utility.yul\":3943:4098   */\n      pop\n        /* \"#utility.yul\":4155:4157   */\n      0x20\n        /* \"#utility.yul\":4196:4245   */\n      tag_491\n        /* \"#utility.yul\":4241:4244   */\n      dup5\n        /* \"#utility.yul\":4232:4238   */\n      dup3\n        /* \"#utility.yul\":4221:4230   */\n      dup6\n        /* \"#utility.yul\":4217:4239   */\n      add\n        /* \"#utility.yul\":4196:4245   */\n      tag_388\n      jump\t// in\n    tag_491:\n        /* \"#utility.yul\":4189:4193   */\n      0x20\n        /* \"#utility.yul\":4182:4187   */\n      dup4\n        /* \"#utility.yul\":4178:4194   */\n      add\n        /* \"#utility.yul\":4171:4246   */\n      mstore\n        /* \"#utility.yul\":4108:4257   */\n      pop\n        /* \"#utility.yul\":4316:4318   */\n      0x40\n        /* \"#utility.yul\":4357:4406   */\n      tag_492\n        /* \"#utility.yul\":4402:4405   */\n      dup5\n        /* \"#utility.yul\":4393:4399   */\n      dup3\n        /* \"#utility.yul\":4382:4391   */\n      dup6\n        /* \"#utility.yul\":4378:4400   */\n      add\n        /* \"#utility.yul\":4357:4406   */\n      tag_392\n      jump\t// in\n    tag_492:\n        /* \"#utility.yul\":4350:4354   */\n      0x40\n        /* \"#utility.yul\":4343:4348   */\n      dup4\n        /* \"#utility.yul\":4339:4355   */\n      add\n        /* \"#utility.yul\":4332:4407   */\n      mstore\n        /* \"#utility.yul\":4267:4418   */\n      pop\n        /* \"#utility.yul\":4505:4507   */\n      0x60\n        /* \"#utility.yul\":4494:4503   */\n      dup3\n        /* \"#utility.yul\":4490:4508   */\n      add\n        /* \"#utility.yul\":4477:4509   */\n      calldataload\n        /* \"#utility.yul\":4536:4554   */\n      0xffffffffffffffff\n        /* \"#utility.yul\":4528:4534   */\n      dup2\n        /* \"#utility.yul\":4525:4555   */\n      gt\n        /* \"#utility.yul\":4522:4639   */\n      iszero\n      tag_493\n      jumpi\n        /* \"#utility.yul\":4558:4637   */\n      tag_494\n      tag_385\n      jump\t// in\n    tag_494:\n        /* \"#utility.yul\":4522:4639   */\n    tag_493:\n        /* \"#utility.yul\":4678:4737   */\n      tag_495\n        /* \"#utility.yul\":4733:4736   */\n      dup5\n        /* \"#utility.yul\":4724:4730   */\n      dup3\n        /* \"#utility.yul\":4713:4722   */\n      dup6\n        /* \"#utility.yul\":4709:4731   */\n      add\n        /* \"#utility.yul\":4678:4737   */\n      tag_398\n      jump\t// in\n    tag_495:\n        /* \"#utility.yul\":4671:4675   */\n      0x60\n        /* \"#utility.yul\":4664:4669   */\n      dup4\n        /* \"#utility.yul\":4660:4676   */\n      add\n        /* \"#utility.yul\":4653:4738   */\n      mstore\n        /* \"#utility.yul\":4428:4749   */\n      pop\n        /* \"#utility.yul\":4837:4840   */\n      0x80\n        /* \"#utility.yul\":4826:4835   */\n      dup3\n        /* \"#utility.yul\":4822:4841   */\n      add\n        /* \"#utility.yul\":4809:4842   */\n      calldataload\n        /* \"#utility.yul\":4869:4887   */\n      0xffffffffffffffff\n        /* \"#utility.yul\":4861:4867   */\n      dup2\n        /* \"#utility.yul\":4858:4888   */\n      gt\n        /* \"#utility.yul\":4855:4972   */\n      iszero\n      tag_496\n      jumpi\n        /* \"#utility.yul\":4891:4970   */\n      tag_497\n      tag_385\n      jump\t// in\n    tag_497:\n        /* \"#utility.yul\":4855:4972   */\n    tag_496:\n        /* \"#utility.yul\":5011:5070   */\n      tag_498\n        /* \"#utility.yul\":5066:5069   */\n      dup5\n        /* \"#utility.yul\":5057:5063   */\n      dup3\n        /* \"#utility.yul\":5046:5055   */\n      dup6\n        /* \"#utility.yul\":5042:5064   */\n      add\n        /* \"#utility.yul\":5011:5070   */\n      tag_398\n      jump\t// in\n    tag_498:\n        /* \"#utility.yul\":5004:5008   */\n      0x80\n        /* \"#utility.yul\":4997:5002   */\n      dup4\n        /* \"#utility.yul\":4993:5009   */\n      add\n        /* \"#utility.yul\":4986:5071   */\n      mstore\n        /* \"#utility.yul\":4759:5082   */\n      pop\n        /* \"#utility.yul\":5177:5180   */\n      0xa0\n        /* \"#utility.yul\":5166:5175   */\n      dup3\n        /* \"#utility.yul\":5162:5181   */\n      add\n        /* \"#utility.yul\":5149:5182   */\n      calldataload\n        /* \"#utility.yul\":5209:5227   */\n      0xffffffffffffffff\n        /* \"#utility.yul\":5201:5207   */\n      dup2\n        /* \"#utility.yul\":5198:5228   */\n      gt\n        /* \"#utility.yul\":5195:5312   */\n      iszero\n      tag_499\n      jumpi\n        /* \"#utility.yul\":5231:5310   */\n      tag_500\n      tag_385\n      jump\t// in\n    tag_500:\n        /* \"#utility.yul\":5195:5312   */\n    tag_499:\n        /* \"#utility.yul\":5351:5410   */\n      tag_501\n        /* \"#utility.yul\":5406:5409   */\n      dup5\n        /* \"#utility.yul\":5397:5403   */\n      dup3\n        /* \"#utility.yul\":5386:5395   */\n      dup6\n        /* \"#utility.yul\":5382:5404   */\n      add\n        /* \"#utility.yul\":5351:5410   */\n      tag_398\n      jump\t// in\n    tag_501:\n        /* \"#utility.yul\":5344:5348   */\n      0xa0\n        /* \"#utility.yul\":5337:5342   */\n      dup4\n        /* \"#utility.yul\":5333:5349   */\n      add\n        /* \"#utility.yul\":5326:5411   */\n      mstore\n        /* \"#utility.yul\":5092:5422   */\n      pop\n        /* \"#utility.yul\":5510:5513   */\n      0xc0\n        /* \"#utility.yul\":5499:5508   */\n      dup3\n        /* \"#utility.yul\":5495:5514   */\n      add\n        /* \"#utility.yul\":5482:5515   */\n      calldataload\n        /* \"#utility.yul\":5542:5560   */\n      0xffffffffffffffff\n        /* \"#utility.yul\":5534:5540   */\n      dup2\n        /* \"#utility.yul\":5531:5561   */\n      gt\n        /* \"#utility.yul\":5528:5645   */\n      iszero\n      tag_502\n      jumpi\n        /* \"#utility.yul\":5564:5643   */\n      tag_503\n      tag_385\n      jump\t// in\n    tag_503:\n        /* \"#utility.yul\":5528:5645   */\n    tag_502:\n        /* \"#utility.yul\":5684:5743   */\n      tag_504\n        /* \"#utility.yul\":5739:5742   */\n      dup5\n        /* \"#utility.yul\":5730:5736   */\n      dup3\n        /* \"#utility.yul\":5719:5728   */\n      dup6\n        /* \"#utility.yul\":5715:5737   */\n      add\n        /* \"#utility.yul\":5684:5743   */\n      tag_398\n      jump\t// in\n    tag_504:\n        /* \"#utility.yul\":5677:5681   */\n      0xc0\n        /* \"#utility.yul\":5670:5675   */\n      dup4\n        /* \"#utility.yul\":5666:5682   */\n      add\n        /* \"#utility.yul\":5659:5744   */\n      mstore\n        /* \"#utility.yul\":5432:5755   */\n      pop\n        /* \"#utility.yul\":5844:5847   */\n      0xe0\n        /* \"#utility.yul\":5833:5842   */\n      dup3\n        /* \"#utility.yul\":5829:5848   */\n      add\n        /* \"#utility.yul\":5816:5849   */\n      calldataload\n        /* \"#utility.yul\":5876:5894   */\n      0xffffffffffffffff\n        /* \"#utility.yul\":5868:5874   */\n      dup2\n        /* \"#utility.yul\":5865:5895   */\n      gt\n        /* \"#utility.yul\":5862:5979   */\n      iszero\n      tag_505\n      jumpi\n        /* \"#utility.yul\":5898:5977   */\n      tag_506\n      tag_385\n      jump\t// in\n    tag_506:\n        /* \"#utility.yul\":5862:5979   */\n    tag_505:\n        /* \"#utility.yul\":6018:6077   */\n      tag_507\n        /* \"#utility.yul\":6073:6076   */\n      dup5\n        /* \"#utility.yul\":6064:6070   */\n      dup3\n        /* \"#utility.yul\":6053:6062   */\n      dup6\n        /* \"#utility.yul\":6049:6071   */\n      add\n        /* \"#utility.yul\":6018:6077   */\n      tag_398\n      jump\t// in\n    tag_507:\n        /* \"#utility.yul\":6011:6015   */\n      0xe0\n        /* \"#utility.yul\":6004:6009   */\n      dup4\n        /* \"#utility.yul\":6000:6016   */\n      add\n        /* \"#utility.yul\":5993:6078   */\n      mstore\n        /* \"#utility.yul\":5765:6089   */\n      pop\n        /* \"#utility.yul\":6180:6183   */\n      0x0100\n        /* \"#utility.yul\":6169:6178   */\n      dup3\n        /* \"#utility.yul\":6165:6184   */\n      add\n        /* \"#utility.yul\":6152:6185   */\n      calldataload\n        /* \"#utility.yul\":6212:6230   */\n      0xffffffffffffffff\n        /* \"#utility.yul\":6204:6210   */\n      dup2\n        /* \"#utility.yul\":6201:6231   */\n      gt\n        /* \"#utility.yul\":6198:6315   */\n      iszero\n      tag_508\n      jumpi\n        /* \"#utility.yul\":6234:6313   */\n      tag_509\n      tag_385\n      jump\t// in\n    tag_509:\n        /* \"#utility.yul\":6198:6315   */\n    tag_508:\n        /* \"#utility.yul\":6356:6415   */\n      tag_510\n        /* \"#utility.yul\":6411:6414   */\n      dup5\n        /* \"#utility.yul\":6402:6408   */\n      dup3\n        /* \"#utility.yul\":6391:6400   */\n      dup6\n        /* \"#utility.yul\":6387:6409   */\n      add\n        /* \"#utility.yul\":6356:6415   */\n      tag_398\n      jump\t// in\n    tag_510:\n        /* \"#utility.yul\":6347:6353   */\n      0x0100\n        /* \"#utility.yul\":6340:6345   */\n      dup4\n        /* \"#utility.yul\":6336:6354   */\n      add\n        /* \"#utility.yul\":6329:6416   */\n      mstore\n        /* \"#utility.yul\":6099:6427   */\n      pop\n        /* \"#utility.yul\":6521:6524   */\n      0x0120\n        /* \"#utility.yul\":6510:6519   */\n      dup3\n        /* \"#utility.yul\":6506:6525   */\n      add\n        /* \"#utility.yul\":6493:6526   */\n      calldataload\n        /* \"#utility.yul\":6553:6571   */\n      0xffffffffffffffff\n        /* \"#utility.yul\":6545:6551   */\n      dup2\n        /* \"#utility.yul\":6542:6572   */\n      gt\n        /* \"#utility.yul\":6539:6656   */\n      iszero\n      tag_511\n      jumpi\n        /* \"#utility.yul\":6575:6654   */\n      tag_512\n      tag_385\n      jump\t// in\n    tag_512:\n        /* \"#utility.yul\":6539:6656   */\n    tag_511:\n        /* \"#utility.yul\":6697:6756   */\n      tag_513\n        /* \"#utility.yul\":6752:6755   */\n      dup5\n        /* \"#utility.yul\":6743:6749   */\n      dup3\n        /* \"#utility.yul\":6732:6741   */\n      dup6\n        /* \"#utility.yul\":6728:6750   */\n      add\n        /* \"#utility.yul\":6697:6756   */\n      tag_398\n      jump\t// in\n    tag_513:\n        /* \"#utility.yul\":6688:6694   */\n      0x0120\n        /* \"#utility.yul\":6681:6686   */\n      dup4\n        /* \"#utility.yul\":6677:6695   */\n      add\n        /* \"#utility.yul\":6670:6757   */\n      mstore\n        /* \"#utility.yul\":6437:6768   */\n      pop\n        /* \"#utility.yul\":6859:6862   */\n      0x0140\n        /* \"#utility.yul\":6848:6857   */\n      dup3\n        /* \"#utility.yul\":6844:6863   */\n      add\n        /* \"#utility.yul\":6831:6864   */\n      calldataload\n        /* \"#utility.yul\":6891:6909   */\n      0xffffffffffffffff\n        /* \"#utility.yul\":6883:6889   */\n      dup2\n        /* \"#utility.yul\":6880:6910   */\n      gt\n        /* \"#utility.yul\":6877:6994   */\n      iszero\n      tag_514\n      jumpi\n        /* \"#utility.yul\":6913:6992   */\n      tag_515\n      tag_385\n      jump\t// in\n    tag_515:\n        /* \"#utility.yul\":6877:6994   */\n    tag_514:\n        /* \"#utility.yul\":7035:7094   */\n      tag_516\n        /* \"#utility.yul\":7090:7093   */\n      dup5\n        /* \"#utility.yul\":7081:7087   */\n      dup3\n        /* \"#utility.yul\":7070:7079   */\n      dup6\n        /* \"#utility.yul\":7066:7088   */\n      add\n        /* \"#utility.yul\":7035:7094   */\n      tag_398\n      jump\t// in\n    tag_516:\n        /* \"#utility.yul\":7026:7032   */\n      0x0140\n        /* \"#utility.yul\":7019:7024   */\n      dup4\n        /* \"#utility.yul\":7015:7033   */\n      add\n        /* \"#utility.yul\":7008:7095   */\n      mstore\n        /* \"#utility.yul\":6778:7106   */\n      pop\n        /* \"#utility.yul\":3684:7113   */\n      swap3\n      swap2\n      pop\n      pop\n      jump\t// out\n        /* \"#utility.yul\":7119:7196   */\n    tag_400:\n        /* \"#utility.yul\":7156:7163   */\n      0x00\n        /* \"#utility.yul\":7185:7190   */\n      dup2\n        /* \"#utility.yul\":7174:7190   */\n      swap1\n      pop\n        /* \"#utility.yul\":7119:7196   */\n      swap2\n      swap1\n      pop\n      jump\t// out\n        /* \"#utility.yul\":7202:7324   */\n    tag_401:\n        /* \"#utility.yul\":7275:7299   */\n      tag_519\n        /* \"#utility.yul\":7293:7298   */\n      dup2\n        /* \"#utility.yul\":7275:7299   */\n      tag_400\n      jump\t// in\n    tag_519:\n        /* \"#utility.yul\":7268:7273   */\n      dup2\n        /* \"#utility.yul\":7265:7300   */\n      eq\n        /* \"#utility.yul\":7255:7318   */\n      tag_520\n      jumpi\n        /* \"#utility.yul\":7314:7315   */\n      0x00\n        /* \"#utility.yul\":7311:7312   */\n      dup1\n        /* \"#utility.yul\":7304:7316   */\n      revert\n        /* \"#utility.yul\":7255:7318   */\n    tag_520:\n        /* \"#utility.yul\":7202:7324   */\n      pop\n      jump\t// out\n        /* \"#utility.yul\":7330:7469   */\n    tag_402:\n        /* \"#utility.yul\":7376:7381   */\n      0x00\n        /* \"#utility.yul\":7414:7420   */\n      dup2\n        /* \"#utility.yul\":7401:7421   */\n      calldataload\n        /* \"#utility.yul\":7392:7421   */\n      swap1\n      pop\n        /* \"#utility.yul\":7430:7463   */\n      tag_522\n        /* \"#utility.yul\":7457:7462   */\n      dup2\n        /* \"#utility.yul\":7430:7463   */\n      tag_401\n      jump\t// in\n    tag_522:\n        /* \"#utility.yul\":7330:7469   */\n      swap3\n      swap2\n      pop\n      pop\n      jump\t// out\n        /* \"#utility.yul\":7475:8157   */\n    tag_28:\n        /* \"#utility.yul\":7567:7573   */\n      0x00\n        /* \"#utility.yul\":7575:7581   */\n      dup1\n        /* \"#utility.yul\":7624:7626   */\n      0x40\n        /* \"#utility.yul\":7612:7621   */\n      dup4\n        /* \"#utility.yul\":7603:7610   */\n      dup6\n        /* \"#utility.yul\":7599:7622   */\n      sub\n        /* \"#utility.yul\":7595:7627   */\n      slt\n        /* \"#utility.yul\":7592:7711   */\n      iszero\n      tag_524\n      jumpi\n        /* \"#utility.yul\":7630:7709   */\n      tag_525\n      tag_378\n      jump\t// in\n    tag_525:\n        /* \"#utility.yul\":7592:7711   */\n    tag_524:\n        /* \"#utility.yul\":7778:7779   */\n      0x00\n        /* \"#utility.yul\":7767:7776   */\n      dup4\n        /* \"#utility.yul\":7763:7780   */\n      add\n        /* \"#utility.yul\":7750:7781   */\n      calldataload\n        /* \"#utility.yul\":7808:7826   */\n      0xffffffffffffffff\n        /* \"#utility.yul\":7800:7806   */\n      dup2\n        /* \"#utility.yul\":7797:7827   */\n      gt\n        /* \"#utility.yul\":7794:7911   */\n      iszero\n      tag_526\n      jumpi\n        /* \"#utility.yul\":7830:7909   */\n      tag_527\n      tag_379\n      jump\t// in\n    tag_527:\n        /* \"#utility.yul\":7794:7911   */\n    tag_526:\n        /* \"#utility.yul\":7935:8012   */\n      tag_528\n        /* \"#utility.yul\":8004:8011   */\n      dup6\n        /* \"#utility.yul\":7995:8001   */\n      dup3\n        /* \"#utility.yul\":7984:7993   */\n      dup7\n        /* \"#utility.yul\":7980:8002   */\n      add\n        /* \"#utility.yul\":7935:8012   */\n      tag_399\n      jump\t// in\n    tag_528:\n        /* \"#utility.yul\":7925:8012   */\n      swap3\n      pop\n        /* \"#utility.yul\":7721:8022   */\n      pop\n        /* \"#utility.yul\":8061:8063   */\n      0x20\n        /* \"#utility.yul\":8087:8140   */\n      tag_529\n        /* \"#utility.yul\":8132:8139   */\n      dup6\n        /* \"#utility.yul\":8123:8129   */\n      dup3\n        /* \"#utility.yul\":8112:8121   */\n      dup7\n        /* \"#utility.yul\":8108:8130   */\n      add\n        /* \"#utility.yul\":8087:8140   */\n      tag_402\n      jump\t// in\n    tag_529:\n        /* \"#utility.yul\":8077:8140   */\n      swap2\n      pop\n        /* \"#utility.yul\":8032:8150   */\n      pop\n        /* \"#utility.yul\":7475:8157   */\n      swap3\n      pop\n      swap3\n      swap1\n      pop\n      jump\t// out\n        /* \"#utility.yul\":8163:8253   */\n    tag_403:\n        /* \"#utility.yul\":8197:8204   */\n      0x00\n        /* \"#utility.yul\":8240:8245   */\n      dup2\n        /* \"#utility.yul\":8233:8246   */\n      iszero\n        /* \"#utility.yul\":8226:8247   */\n      iszero\n        /* \"#utility.yul\":8215:8247   */\n      swap1\n      pop\n        /* \"#utility.yul\":8163:8253   */\n      swap2\n      swap1\n      pop\n      jump\t// out\n        /* \"#utility.yul\":8259:8368   */\n    tag_404:\n        /* \"#utility.yul\":8340:8361   */\n      tag_532\n        /* \"#utility.yul\":8355:8360   */\n      dup2\n        /* \"#utility.yul\":8340:8361   */\n      tag_403\n      jump\t// in\n    tag_532:\n        /* \"#utility.yul\":8335:8338   */\n      dup3\n        /* \"#utility.yul\":8328:8362   */\n      mstore\n        /* \"#utility.yul\":8259:8368   */\n      pop\n      pop\n      jump\t// out\n        /* \"#utility.yul\":8374:8584   */\n    tag_31:\n        /* \"#utility.yul\":8461:8465   */\n      0x00\n        /* \"#utility.yul\":8499:8501   */\n      0x20\n        /* \"#utility.yul\":8488:8497   */\n      dup3\n        /* \"#utility.yul\":8484:8502   */\n      add\n        /* \"#utility.yul\":8476:8502   */\n      swap1\n      pop\n        /* \"#utility.yul\":8512:8577   */\n      tag_534\n        /* \"#utility.yul\":8574:8575   */\n      0x00\n        /* \"#utility.yul\":8563:8572   */\n      dup4\n        /* \"#utility.yul\":8559:8576   */\n      add\n        /* \"#utility.yul\":8550:8556   */\n      dup5\n        /* \"#utility.yul\":8512:8577   */\n      tag_404\n      jump\t// in\n    tag_534:\n        /* \"#utility.yul\":8374:8584   */\n      swap3\n      swap2\n      pop\n      pop\n      jump\t// out\n        /* \"#utility.yul\":8590:9064   */\n    tag_34:\n        /* \"#utility.yul\":8658:8664   */\n      0x00\n        /* \"#utility.yul\":8666:8672   */\n      dup1\n        /* \"#utility.yul\":8715:8717   */\n      0x40\n        /* \"#utility.yul\":8703:8712   */\n      dup4\n        /* \"#utility.yul\":8694:8701   */\n      dup6\n        /* \"#utility.yul\":8690:8713   */\n      sub\n        /* \"#utility.yul\":8686:8718   */\n      slt\n        /* \"#utility.yul\":8683:8802   */\n      iszero\n      tag_536\n      jumpi\n        /* \"#utility.yul\":8721:8800   */\n      tag_537\n      tag_378\n      jump\t// in\n    tag_537:\n        /* \"#utility.yul\":8683:8802   */\n    tag_536:\n        /* \"#utility.yul\":8841:8842   */\n      0x00\n        /* \"#utility.yul\":8866:8919   */\n      tag_538\n        /* \"#utility.yul\":8911:8918   */\n      dup6\n        /* \"#utility.yul\":8902:8908   */\n      dup3\n        /* \"#utility.yul\":8891:8900   */\n      dup7\n        /* \"#utility.yul\":8887:8909   */\n      add\n        /* \"#utility.yul\":8866:8919   */\n      tag_392\n      jump\t// in\n    tag_538:\n        /* \"#utility.yul\":8856:8919   */\n      swap3\n      pop\n        /* \"#utility.yul\":8812:8929   */\n      pop\n        /* \"#utility.yul\":8968:8970   */\n      0x20\n        /* \"#utility.yul\":8994:9047   */\n      tag_539\n        /* \"#utility.yul\":9039:9046   */\n      dup6\n        /* \"#utility.yul\":9030:9036   */\n      dup3\n        /* \"#utility.yul\":9019:9028   */\n      dup7\n        /* \"#utility.yul\":9015:9037   */\n      add\n        /* \"#utility.yul\":8994:9047   */\n      tag_402\n      jump\t// in\n    tag_539:\n        /* \"#utility.yul\":8984:9047   */\n      swap2\n      pop\n        /* \"#utility.yul\":8939:9057   */\n      pop\n        /* \"#utility.yul\":8590:9064   */\n      swap3\n      pop\n      swap3\n      swap1\n      pop\n      jump\t// out\n        /* \"#utility.yul\":9070:9178   */\n    tag_405:\n        /* \"#utility.yul\":9147:9171   */\n      tag_541\n        /* \"#utility.yul\":9165:9170   */\n      dup2\n        /* \"#utility.yul\":9147:9171   */\n      tag_386\n      jump\t// in\n    tag_541:\n        /* \"#utility.yul\":9142:9145   */\n      dup3\n        /* \"#utility.yul\":9135:9172   */\n      mstore\n        /* \"#utility.yul\":9070:9178   */\n      pop\n      pop\n      jump\t// out\n        /* \"#utility.yul\":9184:9292   */\n    tag_406:\n        /* \"#utility.yul\":9261:9285   */\n      tag_543\n        /* \"#utility.yul\":9279:9284   */\n      dup2\n        /* \"#utility.yul\":9261:9285   */\n      tag_390\n      jump\t// in\n    tag_543:\n        /* \"#utility.yul\":9256:9259   */\n      dup3\n        /* \"#utility.yul\":9249:9286   */\n      mstore\n        /* \"#utility.yul\":9184:9292   */\n      pop\n      pop\n      jump\t// out\n        /* \"#utility.yul\":9298:9397   */\n    tag_407:\n        /* \"#utility.yul\":9350:9356   */\n      0x00\n        /* \"#utility.yul\":9384:9389   */\n      dup2\n        /* \"#utility.yul\":9378:9390   */\n      mload\n        /* \"#utility.yul\":9368:9390   */\n      swap1\n      pop\n        /* \"#utility.yul\":9298:9397   */\n      swap2\n      swap1\n      pop\n      jump\t// out\n        /* \"#utility.yul\":9403:9562   */\n    tag_408:\n        /* \"#utility.yul\":9477:9488   */\n      0x00\n        /* \"#utility.yul\":9511:9517   */\n      dup3\n        /* \"#utility.yul\":9506:9509   */\n      dup3\n        /* \"#utility.yul\":9499:9518   */\n      mstore\n        /* \"#utility.yul\":9551:9555   */\n      0x20\n        /* \"#utility.yul\":9546:9549   */\n      dup3\n        /* \"#utility.yul\":9542:9556   */\n      add\n        /* \"#utility.yul\":9527:9556   */\n      swap1\n      pop\n        /* \"#utility.yul\":9403:9562   */\n      swap3\n      swap2\n      pop\n      pop\n      jump\t// out\n        /* \"#utility.yul\":9568:9814   */\n    tag_409:\n        /* \"#utility.yul\":9649:9650   */\n      0x00\n        /* \"#utility.yul\":9659:9772   */\n    tag_547:\n        /* \"#utility.yul\":9673:9679   */\n      dup4\n        /* \"#utility.yul\":9670:9671   */\n      dup2\n        /* \"#utility.yul\":9667:9680   */\n      lt\n        /* \"#utility.yul\":9659:9772   */\n      iszero\n      tag_549\n      jumpi\n        /* \"#utility.yul\":9758:9759   */\n      dup1\n        /* \"#utility.yul\":9753:9756   */\n      dup3\n        /* \"#utility.yul\":9749:9760   */\n      add\n        /* \"#utility.yul\":9743:9761   */\n      mload\n        /* \"#utility.yul\":9739:9740   */\n      dup2\n        /* \"#utility.yul\":9734:9737   */\n      dup5\n        /* \"#utility.yul\":9730:9741   */\n      add\n        /* \"#utility.yul\":9723:9762   */\n      mstore\n        /* \"#utility.yul\":9695:9697   */\n      0x20\n        /* \"#utility.yul\":9692:9693   */\n      dup2\n        /* \"#utility.yul\":9688:9698   */\n      add\n        /* \"#utility.yul\":9683:9698   */\n      swap1\n      pop\n        /* \"#utility.yul\":9659:9772   */\n      jump(tag_547)\n    tag_549:\n        /* \"#utility.yul\":9806:9807   */\n      0x00\n        /* \"#utility.yul\":9797:9803   */\n      dup5\n        /* \"#utility.yul\":9792:9795   */\n      dup5\n        /* \"#utility.yul\":9788:9804   */\n      add\n        /* \"#utility.yul\":9781:9808   */\n      mstore\n        /* \"#utility.yul\":9630:9814   */\n      pop\n        /* \"#utility.yul\":9568:9814   */\n      pop\n      pop\n      pop\n      jump\t// out\n        /* \"#utility.yul\":9820:10177   */\n    tag_410:\n        /* \"#utility.yul\":9898:9901   */\n      0x00\n        /* \"#utility.yul\":9926:9965   */\n      tag_551\n        /* \"#utility.yul\":9959:9964   */\n      dup3\n        /* \"#utility.yul\":9926:9965   */\n      tag_407\n      jump\t// in\n    tag_551:\n        /* \"#utility.yul\":9981:10042   */\n      tag_552\n        /* \"#utility.yul\":10035:10041   */\n      dup2\n        /* \"#utility.yul\":10030:10033   */\n      dup6\n        /* \"#utility.yul\":9981:10042   */\n      tag_408\n      jump\t// in\n    tag_552:\n        /* \"#utility.yul\":9974:10042   */\n      swap4\n      pop\n        /* \"#utility.yul\":10051:10116   */\n      tag_553\n        /* \"#utility.yul\":10109:10115   */\n      dup2\n        /* \"#utility.yul\":10104:10107   */\n      dup6\n        /* \"#utility.yul\":10097:10101   */\n      0x20\n        /* \"#utility.yul\":10090:10095   */\n      dup7\n        /* \"#utility.yul\":10086:10102   */\n      add\n        /* \"#utility.yul\":10051:10116   */\n      tag_409\n      jump\t// in\n    tag_553:\n        /* \"#utility.yul\":10141:10170   */\n      tag_554\n        /* \"#utility.yul\":10163:10169   */\n      dup2\n        /* \"#utility.yul\":10141:10170   */\n      tag_381\n      jump\t// in\n    tag_554:\n        /* \"#utility.yul\":10136:10139   */\n      dup5\n        /* \"#utility.yul\":10132:10171   */\n      add\n        /* \"#utility.yul\":10125:10171   */\n      swap2\n      pop\n        /* \"#utility.yul\":9902:10177   */\n      pop\n        /* \"#utility.yul\":9820:10177   */\n      swap3\n      swap2\n      pop\n      pop\n      jump\t// out\n        /* \"#utility.yul\":10223:12934   */\n    tag_411:\n        /* \"#utility.yul\":10340:10343   */\n      0x00\n        /* \"#utility.yul\":10376:10382   */\n      0x0160\n        /* \"#utility.yul\":10371:10374   */\n      dup4\n        /* \"#utility.yul\":10367:10383   */\n      add\n        /* \"#utility.yul\":10470:10474   */\n      0x00\n        /* \"#utility.yul\":10463:10468   */\n      dup4\n        /* \"#utility.yul\":10459:10475   */\n      add\n        /* \"#utility.yul\":10453:10476   */\n      mload\n        /* \"#utility.yul\":10489:10552   */\n      tag_556\n        /* \"#utility.yul\":10546:10550   */\n      0x00\n        /* \"#utility.yul\":10541:10544   */\n      dup7\n        /* \"#utility.yul\":10537:10551   */\n      add\n        /* \"#utility.yul\":10523:10535   */\n      dup3\n        /* \"#utility.yul\":10489:10552   */\n      tag_405\n      jump\t// in\n    tag_556:\n        /* \"#utility.yul\":10393:10562   */\n      pop\n        /* \"#utility.yul\":10642:10646   */\n      0x20\n        /* \"#utility.yul\":10635:10640   */\n      dup4\n        /* \"#utility.yul\":10631:10647   */\n      add\n        /* \"#utility.yul\":10625:10648   */\n      mload\n        /* \"#utility.yul\":10661:10724   */\n      tag_557\n        /* \"#utility.yul\":10718:10722   */\n      0x20\n        /* \"#utility.yul\":10713:10716   */\n      dup7\n        /* \"#utility.yul\":10709:10723   */\n      add\n        /* \"#utility.yul\":10695:10707   */\n      dup3\n        /* \"#utility.yul\":10661:10724   */\n      tag_405\n      jump\t// in\n    tag_557:\n        /* \"#utility.yul\":10572:10734   */\n      pop\n        /* \"#utility.yul\":10816:10820   */\n      0x40\n        /* \"#utility.yul\":10809:10814   */\n      dup4\n        /* \"#utility.yul\":10805:10821   */\n      add\n        /* \"#utility.yul\":10799:10822   */\n      mload\n        /* \"#utility.yul\":10835:10898   */\n      tag_558\n        /* \"#utility.yul\":10892:10896   */\n      0x40\n        /* \"#utility.yul\":10887:10890   */\n      dup7\n        /* \"#utility.yul\":10883:10897   */\n      add\n        /* \"#utility.yul\":10869:10881   */\n      dup3\n        /* \"#utility.yul\":10835:10898   */\n      tag_406\n      jump\t// in\n    tag_558:\n        /* \"#utility.yul\":10744:10908   */\n      pop\n        /* \"#utility.yul\":10990:10994   */\n      0x60\n        /* \"#utility.yul\":10983:10988   */\n      dup4\n        /* \"#utility.yul\":10979:10995   */\n      add\n        /* \"#utility.yul\":10973:10996   */\n      mload\n        /* \"#utility.yul\":11043:11046   */\n      dup5\n        /* \"#utility.yul\":11037:11041   */\n      dup3\n        /* \"#utility.yul\":11033:11047   */\n      sub\n        /* \"#utility.yul\":11026:11030   */\n      0x60\n        /* \"#utility.yul\":11021:11024   */\n      dup7\n        /* \"#utility.yul\":11017:11031   */\n      add\n        /* \"#utility.yul\":11010:11048   */\n      mstore\n        /* \"#utility.yul\":11069:11142   */\n      tag_559\n        /* \"#utility.yul\":11137:11141   */\n      dup3\n        /* \"#utility.yul\":11123:11135   */\n      dup3\n        /* \"#utility.yul\":11069:11142   */\n      tag_410\n      jump\t// in\n    tag_559:\n        /* \"#utility.yul\":11061:11142   */\n      swap2\n      pop\n        /* \"#utility.yul\":10918:11153   */\n      pop\n        /* \"#utility.yul\":11236:11240   */\n      0x80\n        /* \"#utility.yul\":11229:11234   */\n      dup4\n        /* \"#utility.yul\":11225:11241   */\n      add\n        /* \"#utility.yul\":11219:11242   */\n      mload\n        /* \"#utility.yul\":11289:11292   */\n      dup5\n        /* \"#utility.yul\":11283:11287   */\n      dup3\n        /* \"#utility.yul\":11279:11293   */\n      sub\n        /* \"#utility.yul\":11272:11276   */\n      0x80\n        /* \"#utility.yul\":11267:11270   */\n      dup7\n        /* \"#utility.yul\":11263:11277   */\n      add\n        /* \"#utility.yul\":11256:11294   */\n      mstore\n        /* \"#utility.yul\":11315:11388   */\n      tag_560\n        /* \"#utility.yul\":11383:11387   */\n      dup3\n        /* \"#utility.yul\":11369:11381   */\n      dup3\n        /* \"#utility.yul\":11315:11388   */\n      tag_410\n      jump\t// in\n    tag_560:\n        /* \"#utility.yul\":11307:11388   */\n      swap2\n      pop\n        /* \"#utility.yul\":11163:11399   */\n      pop\n        /* \"#utility.yul\":11489:11493   */\n      0xa0\n        /* \"#utility.yul\":11482:11487   */\n      dup4\n        /* \"#utility.yul\":11478:11494   */\n      add\n        /* \"#utility.yul\":11472:11495   */\n      mload\n        /* \"#utility.yul\":11542:11545   */\n      dup5\n        /* \"#utility.yul\":11536:11540   */\n      dup3\n        /* \"#utility.yul\":11532:11546   */\n      sub\n        /* \"#utility.yul\":11525:11529   */\n      0xa0\n        /* \"#utility.yul\":11520:11523   */\n      dup7\n        /* \"#utility.yul\":11516:11530   */\n      add\n        /* \"#utility.yul\":11509:11547   */\n      mstore\n        /* \"#utility.yul\":11568:11641   */\n      tag_561\n        /* \"#utility.yul\":11636:11640   */\n      dup3\n        /* \"#utility.yul\":11622:11634   */\n      dup3\n        /* \"#utility.yul\":11568:11641   */\n      tag_410\n      jump\t// in\n    tag_561:\n        /* \"#utility.yul\":11560:11641   */\n      swap2\n      pop\n        /* \"#utility.yul\":11409:11652   */\n      pop\n        /* \"#utility.yul\":11735:11739   */\n      0xc0\n        /* \"#utility.yul\":11728:11733   */\n      dup4\n        /* \"#utility.yul\":11724:11740   */\n      add\n        /* \"#utility.yul\":11718:11741   */\n      mload\n        /* \"#utility.yul\":11788:11791   */\n      dup5\n        /* \"#utility.yul\":11782:11786   */\n      dup3\n        /* \"#utility.yul\":11778:11792   */\n      sub\n        /* \"#utility.yul\":11771:11775   */\n      0xc0\n        /* \"#utility.yul\":11766:11769   */\n      dup7\n        /* \"#utility.yul\":11762:11776   */\n      add\n        /* \"#utility.yul\":11755:11793   */\n      mstore\n        /* \"#utility.yul\":11814:11887   */\n      tag_562\n        /* \"#utility.yul\":11882:11886   */\n      dup3\n        /* \"#utility.yul\":11868:11880   */\n      dup3\n        /* \"#utility.yul\":11814:11887   */\n      tag_410\n      jump\t// in\n    tag_562:\n        /* \"#utility.yul\":11806:11887   */\n      swap2\n      pop\n        /* \"#utility.yul\":11662:11898   */\n      pop\n        /* \"#utility.yul\":11982:11986   */\n      0xe0\n        /* \"#utility.yul\":11975:11980   */\n      dup4\n        /* \"#utility.yul\":11971:11987   */\n      add\n        /* \"#utility.yul\":11965:11988   */\n      mload\n        /* \"#utility.yul\":12035:12038   */\n      dup5\n        /* \"#utility.yul\":12029:12033   */\n      dup3\n        /* \"#utility.yul\":12025:12039   */\n      sub\n        /* \"#utility.yul\":12018:12022   */\n      0xe0\n        /* \"#utility.yul\":12013:12016   */\n      dup7\n        /* \"#utility.yul\":12009:12023   */\n      add\n        /* \"#utility.yul\":12002:12040   */\n      mstore\n        /* \"#utility.yul\":12061:12134   */\n      tag_563\n        /* \"#utility.yul\":12129:12133   */\n      dup3\n        /* \"#utility.yul\":12115:12127   */\n      dup3\n        /* \"#utility.yul\":12061:12134   */\n      tag_410\n      jump\t// in\n    tag_563:\n        /* \"#utility.yul\":12053:12134   */\n      swap2\n      pop\n        /* \"#utility.yul\":11908:12145   */\n      pop\n        /* \"#utility.yul\":12231:12237   */\n      0x0100\n        /* \"#utility.yul\":12224:12229   */\n      dup4\n        /* \"#utility.yul\":12220:12238   */\n      add\n        /* \"#utility.yul\":12214:12239   */\n      mload\n        /* \"#utility.yul\":12288:12291   */\n      dup5\n        /* \"#utility.yul\":12282:12286   */\n      dup3\n        /* \"#utility.yul\":12278:12292   */\n      sub\n        /* \"#utility.yul\":12269:12275   */\n      0x0100\n        /* \"#utility.yul\":12264:12267   */\n      dup7\n        /* \"#utility.yul\":12260:12276   */\n      add\n        /* \"#utility.yul\":12253:12293   */\n      mstore\n        /* \"#utility.yul\":12314:12387   */\n      tag_564\n        /* \"#utility.yul\":12382:12386   */\n      dup3\n        /* \"#utility.yul\":12368:12380   */\n      dup3\n        /* \"#utility.yul\":12314:12387   */\n      tag_410\n      jump\t// in\n    tag_564:\n        /* \"#utility.yul\":12306:12387   */\n      swap2\n      pop\n        /* \"#utility.yul\":12155:12398   */\n      pop\n        /* \"#utility.yul\":12487:12493   */\n      0x0120\n        /* \"#utility.yul\":12480:12485   */\n      dup4\n        /* \"#utility.yul\":12476:12494   */\n      add\n        /* \"#utility.yul\":12470:12495   */\n      mload\n        /* \"#utility.yul\":12544:12547   */\n      dup5\n        /* \"#utility.yul\":12538:12542   */\n      dup3\n        /* \"#utility.yul\":12534:12548   */\n      sub\n        /* \"#utility.yul\":12525:12531   */\n      0x0120\n        /* \"#utility.yul\":12520:12523   */\n      dup7\n        /* \"#utility.yul\":12516:12532   */\n      add\n        /* \"#utility.yul\":12509:12549   */\n      mstore\n        /* \"#utility.yul\":12570:12643   */\n      tag_565\n        /* \"#utility.yul\":12638:12642   */\n      dup3\n        /* \"#utility.yul\":12624:12636   */\n      dup3\n        /* \"#utility.yul\":12570:12643   */\n      tag_410\n      jump\t// in\n    tag_565:\n        /* \"#utility.yul\":12562:12643   */\n      swap2\n      pop\n        /* \"#utility.yul\":12408:12654   */\n      pop\n        /* \"#utility.yul\":12740:12746   */\n      0x0140\n        /* \"#utility.yul\":12733:12738   */\n      dup4\n        /* \"#utility.yul\":12729:12747   */\n      add\n        /* \"#utility.yul\":12723:12748   */\n      mload\n        /* \"#utility.yul\":12797:12800   */\n      dup5\n        /* \"#utility.yul\":12791:12795   */\n      dup3\n        /* \"#utility.yul\":12787:12801   */\n      sub\n        /* \"#utility.yul\":12778:12784   */\n      0x0140\n        /* \"#utility.yul\":12773:12776   */\n      dup7\n        /* \"#utility.yul\":12769:12785   */\n      add\n        /* \"#utility.yul\":12762:12802   */\n      mstore\n        /* \"#utility.yul\":12823:12896   */\n      tag_566\n        /* \"#utility.yul\":12891:12895   */\n      dup3\n        /* \"#utility.yul\":12877:12889   */\n      dup3\n        /* \"#utility.yul\":12823:12896   */\n      tag_410\n      jump\t// in\n    tag_566:\n        /* \"#utility.yul\":12815:12896   */\n      swap2\n      pop\n        /* \"#utility.yul\":12664:12907   */\n      pop\n        /* \"#utility.yul\":12924:12928   */\n      dup1\n        /* \"#utility.yul\":12917:12928   */\n      swap2\n      pop\n        /* \"#utility.yul\":10345:12934   */\n      pop\n        /* \"#utility.yul\":10223:12934   */\n      swap3\n      swap2\n      pop\n      pop\n      jump\t// out\n        /* \"#utility.yul\":12940:13309   */\n    tag_37:\n        /* \"#utility.yul\":13081:13085   */\n      0x00\n        /* \"#utility.yul\":13119:13121   */\n      0x20\n        /* \"#utility.yul\":13108:13117   */\n      dup3\n        /* \"#utility.yul\":13104:13122   */\n      add\n        /* \"#utility.yul\":13096:13122   */\n      swap1\n      pop\n        /* \"#utility.yul\":13168:13177   */\n      dup2\n        /* \"#utility.yul\":13162:13166   */\n      dup2\n        /* \"#utility.yul\":13158:13178   */\n      sub\n        /* \"#utility.yul\":13154:13155   */\n      0x00\n        /* \"#utility.yul\":13143:13152   */\n      dup4\n        /* \"#utility.yul\":13139:13156   */\n      add\n        /* \"#utility.yul\":13132:13179   */\n      mstore\n        /* \"#utility.yul\":13196:13302   */\n      tag_568\n        /* \"#utility.yul\":13297:13301   */\n      dup2\n        /* \"#utility.yul\":13288:13294   */\n      dup5\n        /* \"#utility.yul\":13196:13302   */\n      tag_411\n      jump\t// in\n    tag_568:\n        /* \"#utility.yul\":13188:13302   */\n      swap1\n      pop\n        /* \"#utility.yul\":12940:13309   */\n      swap3\n      swap2\n      pop\n      pop\n      jump\t// out\n        /* \"#utility.yul\":13315:13934   */\n    tag_40:\n        /* \"#utility.yul\":13392:13398   */\n      0x00\n        /* \"#utility.yul\":13400:13406   */\n      dup1\n        /* \"#utility.yul\":13408:13414   */\n      0x00\n        /* \"#utility.yul\":13457:13459   */\n      0x60\n        /* \"#utility.yul\":13445:13454   */\n      dup5\n        /* \"#utility.yul\":13436:13443   */\n      dup7\n        /* \"#utility.yul\":13432:13455   */\n      sub\n        /* \"#utility.yul\":13428:13460   */\n      slt\n        /* \"#utility.yul\":13425:13544   */\n      iszero\n      tag_570\n      jumpi\n        /* \"#utility.yul\":13463:13542   */\n      tag_571\n      tag_378\n      jump\t// in\n    tag_571:\n        /* \"#utility.yul\":13425:13544   */\n    tag_570:\n        /* \"#utility.yul\":13583:13584   */\n      0x00\n        /* \"#utility.yul\":13608:13661   */\n      tag_572\n        /* \"#utility.yul\":13653:13660   */\n      dup7\n        /* \"#utility.yul\":13644:13650   */\n      dup3\n        /* \"#utility.yul\":13633:13642   */\n      dup8\n        /* \"#utility.yul\":13629:13651   */\n      add\n        /* \"#utility.yul\":13608:13661   */\n      tag_388\n      jump\t// in\n    tag_572:\n        /* \"#utility.yul\":13598:13661   */\n      swap4\n      pop\n        /* \"#utility.yul\":13554:13671   */\n      pop\n        /* \"#utility.yul\":13710:13712   */\n      0x20\n        /* \"#utility.yul\":13736:13789   */\n      tag_573\n        /* \"#utility.yul\":13781:13788   */\n      dup7\n        /* \"#utility.yul\":13772:13778   */\n      dup3\n        /* \"#utility.yul\":13761:13770   */\n      dup8\n        /* \"#utility.yul\":13757:13779   */\n      add\n        /* \"#utility.yul\":13736:13789   */\n      tag_402\n      jump\t// in\n    tag_573:\n        /* \"#utility.yul\":13726:13789   */\n      swap3\n      pop\n        /* \"#utility.yul\":13681:13799   */\n      pop\n        /* \"#utility.yul\":13838:13840   */\n      0x40\n        /* \"#utility.yul\":13864:13917   */\n      tag_574\n        /* \"#utility.yul\":13909:13916   */\n      dup7\n        /* \"#utility.yul\":13900:13906   */\n      dup3\n        /* \"#utility.yul\":13889:13898   */\n      dup8\n        /* \"#utility.yul\":13885:13907   */\n      add\n        /* \"#utility.yul\":13864:13917   */\n      tag_388\n      jump\t// in\n    tag_574:\n        /* \"#utility.yul\":13854:13917   */\n      swap2\n      pop\n        /* \"#utility.yul\":13809:13927   */\n      pop\n        /* \"#utility.yul\":13315:13934   */\n      swap3\n      pop\n      swap3\n      pop\n      swap3\n      jump\t// out\n        /* \"#utility.yul\":13940:14739   */\n    tag_45:\n        /* \"#utility.yul\":14027:14033   */\n      0x00\n        /* \"#utility.yul\":14035:14041   */\n      dup1\n        /* \"#utility.yul\":14043:14049   */\n      0x00\n        /* \"#utility.yul\":14092:14094   */\n      0x60\n        /* \"#utility.yul\":14080:14089   */\n      dup5\n        /* \"#utility.yul\":14071:14078   */\n      dup7\n        /* \"#utility.yul\":14067:14090   */\n      sub\n        /* \"#utility.yul\":14063:14095   */\n      slt\n        /* \"#utility.yul\":14060:14179   */\n      iszero\n      tag_576\n      jumpi\n        /* \"#utility.yul\":14098:14177   */\n      tag_577\n      tag_378\n      jump\t// in\n    tag_577:\n        /* \"#utility.yul\":14060:14179   */\n    tag_576:\n        /* \"#utility.yul\":14218:14219   */\n      0x00\n        /* \"#utility.yul\":14243:14296   */\n      tag_578\n        /* \"#utility.yul\":14288:14295   */\n      dup7\n        /* \"#utility.yul\":14279:14285   */\n      dup3\n        /* \"#utility.yul\":14268:14277   */\n      dup8\n        /* \"#utility.yul\":14264:14286   */\n      add\n        /* \"#utility.yul\":14243:14296   */\n      tag_388\n      jump\t// in\n    tag_578:\n        /* \"#utility.yul\":14233:14296   */\n      swap4\n      pop\n        /* \"#utility.yul\":14189:14306   */\n      pop\n        /* \"#utility.yul\":14345:14347   */\n      0x20\n        /* \"#utility.yul\":14371:14424   */\n      tag_579\n        /* \"#utility.yul\":14416:14423   */\n      dup7\n        /* \"#utility.yul\":14407:14413   */\n      dup3\n        /* \"#utility.yul\":14396:14405   */\n      dup8\n        /* \"#utility.yul\":14392:14414   */\n      add\n        /* \"#utility.yul\":14371:14424   */\n      tag_402\n      jump\t// in\n    tag_579:\n        /* \"#utility.yul\":14361:14424   */\n      swap3\n      pop\n        /* \"#utility.yul\":14316:14434   */\n      pop\n        /* \"#utility.yul\":14501:14503   */\n      0x40\n        /* \"#utility.yul\":14490:14499   */\n      dup5\n        /* \"#utility.yul\":14486:14504   */\n      add\n        /* \"#utility.yul\":14473:14505   */\n      calldataload\n        /* \"#utility.yul\":14532:14550   */\n      0xffffffffffffffff\n        /* \"#utility.yul\":14524:14530   */\n      dup2\n        /* \"#utility.yul\":14521:14551   */\n      gt\n        /* \"#utility.yul\":14518:14635   */\n      iszero\n      tag_580\n      jumpi\n        /* \"#utility.yul\":14554:14633   */\n      tag_581\n      tag_379\n      jump\t// in\n    tag_581:\n        /* \"#utility.yul\":14518:14635   */\n    tag_580:\n        /* \"#utility.yul\":14659:14722   */\n      tag_582\n        /* \"#utility.yul\":14714:14721   */\n      dup7\n        /* \"#utility.yul\":14705:14711   */\n      dup3\n        /* \"#utility.yul\":14694:14703   */\n      dup8\n        /* \"#utility.yul\":14690:14712   */\n      add\n        /* \"#utility.yul\":14659:14722   */\n      tag_398\n      jump\t// in\n    tag_582:\n        /* \"#utility.yul\":14649:14722   */\n      swap2\n      pop\n        /* \"#utility.yul\":14444:14732   */\n      pop\n        /* \"#utility.yul\":13940:14739   */\n      swap3\n      pop\n      swap3\n      pop\n      swap3\n      jump\t// out\n        /* \"#utility.yul\":14745:15364   */\n    tag_54:\n        /* \"#utility.yul\":14822:14828   */\n      0x00\n        /* \"#utility.yul\":14830:14836   */\n      dup1\n        /* \"#utility.yul\":14838:14844   */\n      0x00\n        /* \"#utility.yul\":14887:14889   */\n      0x60\n        /* \"#utility.yul\":14875:14884   */\n      dup5\n        /* \"#utility.yul\":14866:14873   */\n      dup7\n        /* \"#utility.yul\":14862:14885   */\n      sub\n        /* \"#utility.yul\":14858:14890   */\n      slt\n        /* \"#utility.yul\":14855:14974   */\n      iszero\n      tag_584\n      jumpi\n        /* \"#utility.yul\":14893:14972   */\n      tag_585\n      tag_378\n      jump\t// in\n    tag_585:\n        /* \"#utility.yul\":14855:14974   */\n    tag_584:\n        /* \"#utility.yul\":15013:15014   */\n      0x00\n        /* \"#utility.yul\":15038:15091   */\n      tag_586\n        /* \"#utility.yul\":15083:15090   */\n      dup7\n        /* \"#utility.yul\":15074:15080   */\n      dup3\n        /* \"#utility.yul\":15063:15072   */\n      dup8\n        /* \"#utility.yul\":15059:15081   */\n      add\n        /* \"#utility.yul\":15038:15091   */\n      tag_388\n      jump\t// in\n    tag_586:\n        /* \"#utility.yul\":15028:15091   */\n      swap4\n      pop\n        /* \"#utility.yul\":14984:15101   */\n      pop\n        /* \"#utility.yul\":15140:15142   */\n      0x20\n        /* \"#utility.yul\":15166:15219   */\n      tag_587\n        /* \"#utility.yul\":15211:15218   */\n      dup7\n        /* \"#utility.yul\":15202:15208   */\n      dup3\n        /* \"#utility.yul\":15191:15200   */\n      dup8\n        /* \"#utility.yul\":15187:15209   */\n      add\n        /* \"#utility.yul\":15166:15219   */\n      tag_402\n      jump\t// in\n    tag_587:\n        /* \"#utility.yul\":15156:15219   */\n      swap3\n      pop\n        /* \"#utility.yul\":15111:15229   */\n      pop\n        /* \"#utility.yul\":15268:15270   */\n      0x40\n        /* \"#utility.yul\":15294:15347   */\n      tag_588\n        /* \"#utility.yul\":15339:15346   */\n      dup7\n        /* \"#utility.yul\":15330:15336   */\n      dup3\n        /* \"#utility.yul\":15319:15328   */\n      dup8\n        /* \"#utility.yul\":15315:15337   */\n      add\n        /* \"#utility.yul\":15294:15347   */\n      tag_392\n      jump\t// in\n    tag_588:\n        /* \"#utility.yul\":15284:15347   */\n      swap2\n      pop\n        /* \"#utility.yul\":15239:15357   */\n      pop\n        /* \"#utility.yul\":14745:15364   */\n      swap3\n      pop\n      swap3\n      pop\n      swap3\n      jump\t// out\n        /* \"#utility.yul\":15370:15488   */\n    tag_412:\n        /* \"#utility.yul\":15457:15481   */\n      tag_590\n        /* \"#utility.yul\":15475:15480   */\n      dup2\n        /* \"#utility.yul\":15457:15481   */\n      tag_390\n      jump\t// in\n    tag_590:\n        /* \"#utility.yul\":15452:15455   */\n      dup3\n        /* \"#utility.yul\":15445:15482   */\n      mstore\n        /* \"#utility.yul\":15370:15488   */\n      pop\n      pop\n      jump\t// out\n        /* \"#utility.yul\":15494:15716   */\n    tag_74:\n        /* \"#utility.yul\":15587:15591   */\n      0x00\n        /* \"#utility.yul\":15625:15627   */\n      0x20\n        /* \"#utility.yul\":15614:15623   */\n      dup3\n        /* \"#utility.yul\":15610:15628   */\n      add\n        /* \"#utility.yul\":15602:15628   */\n      swap1\n      pop\n        /* \"#utility.yul\":15638:15709   */\n      tag_592\n        /* \"#utility.yul\":15706:15707   */\n      0x00\n        /* \"#utility.yul\":15695:15704   */\n      dup4\n        /* \"#utility.yul\":15691:15708   */\n      add\n        /* \"#utility.yul\":15682:15688   */\n      dup5\n        /* \"#utility.yul\":15638:15709   */\n      tag_412\n      jump\t// in\n    tag_592:\n        /* \"#utility.yul\":15494:15716   */\n      swap3\n      swap2\n      pop\n      pop\n      jump\t// out\n        /* \"#utility.yul\":15722:16196   */\n    tag_77:\n        /* \"#utility.yul\":15790:15796   */\n      0x00\n        /* \"#utility.yul\":15798:15804   */\n      dup1\n        /* \"#utility.yul\":15847:15849   */\n      0x40\n        /* \"#utility.yul\":15835:15844   */\n      dup4\n        /* \"#utility.yul\":15826:15833   */\n      dup6\n        /* \"#utility.yul\":15822:15845   */\n      sub\n        /* \"#utility.yul\":15818:15850   */\n      slt\n        /* \"#utility.yul\":15815:15934   */\n      iszero\n      tag_594\n      jumpi\n        /* \"#utility.yul\":15853:15932   */\n      tag_595\n      tag_378\n      jump\t// in\n    tag_595:\n        /* \"#utility.yul\":15815:15934   */\n    tag_594:\n        /* \"#utility.yul\":15973:15974   */\n      0x00\n        /* \"#utility.yul\":15998:16051   */\n      tag_596\n        /* \"#utility.yul\":16043:16050   */\n      dup6\n        /* \"#utility.yul\":16034:16040   */\n      dup3\n        /* \"#utility.yul\":16023:16032   */\n      dup7\n        /* \"#utility.yul\":16019:16041   */\n      add\n        /* \"#utility.yul\":15998:16051   */\n      tag_388\n      jump\t// in\n    tag_596:\n        /* \"#utility.yul\":15988:16051   */\n      swap3\n      pop\n        /* \"#utility.yul\":15944:16061   */\n      pop\n        /* \"#utility.yul\":16100:16102   */\n      0x20\n        /* \"#utility.yul\":16126:16179   */\n      tag_597\n        /* \"#utility.yul\":16171:16178   */\n      dup6\n        /* \"#utility.yul\":16162:16168   */\n      dup3\n        /* \"#utility.yul\":16151:16160   */\n      dup7\n        /* \"#utility.yul\":16147:16169   */\n      add\n        /* \"#utility.yul\":16126:16179   */\n      tag_402\n      jump\t// in\n    tag_597:\n        /* \"#utility.yul\":16116:16179   */\n      swap2\n      pop\n        /* \"#utility.yul\":16071:16189   */\n      pop\n        /* \"#utility.yul\":15722:16196   */\n      swap3\n      pop\n      swap3\n      swap1\n      pop\n      jump\t// out\n        /* \"#utility.yul\":16202:16320   */\n    tag_413:\n        /* \"#utility.yul\":16289:16313   */\n      tag_599\n        /* \"#utility.yul\":16307:16312   */\n      dup2\n        /* \"#utility.yul\":16289:16313   */\n      tag_386\n      jump\t// in\n    tag_599:\n        /* \"#utility.yul\":16284:16287   */\n      dup3\n        /* \"#utility.yul\":16277:16314   */\n      mstore\n        /* \"#utility.yul\":16202:16320   */\n      pop\n      pop\n      jump\t// out\n        /* \"#utility.yul\":16326:16548   */\n    tag_92:\n        /* \"#utility.yul\":16419:16423   */\n      0x00\n        /* \"#utility.yul\":16457:16459   */\n      0x20\n        /* \"#utility.yul\":16446:16455   */\n      dup3\n        /* \"#utility.yul\":16442:16460   */\n      add\n        /* \"#utility.yul\":16434:16460   */\n      swap1\n      pop\n        /* \"#utility.yul\":16470:16541   */\n      tag_601\n        /* \"#utility.yul\":16538:16539   */\n      0x00\n        /* \"#utility.yul\":16527:16536   */\n      dup4\n        /* \"#utility.yul\":16523:16540   */\n      add\n        /* \"#utility.yul\":16514:16520   */\n      dup5\n        /* \"#utility.yul\":16470:16541   */\n      tag_413\n      jump\t// in\n    tag_601:\n        /* \"#utility.yul\":16326:16548   */\n      swap3\n      swap2\n      pop\n      pop\n      jump\t// out\n        /* \"#utility.yul\":16554:16883   */\n    tag_107:\n        /* \"#utility.yul\":16613:16619   */\n      0x00\n        /* \"#utility.yul\":16662:16664   */\n      0x20\n        /* \"#utility.yul\":16650:16659   */\n      dup3\n        /* \"#utility.yul\":16641:16648   */\n      dup5\n        /* \"#utility.yul\":16637:16660   */\n      sub\n        /* \"#utility.yul\":16633:16665   */\n      slt\n        /* \"#utility.yul\":16630:16749   */\n      iszero\n      tag_603\n      jumpi\n        /* \"#utility.yul\":16668:16747   */\n      tag_604\n      tag_378\n      jump\t// in\n    tag_604:\n        /* \"#utility.yul\":16630:16749   */\n    tag_603:\n        /* \"#utility.yul\":16788:16789   */\n      0x00\n        /* \"#utility.yul\":16813:16866   */\n      tag_605\n        /* \"#utility.yul\":16858:16865   */\n      dup5\n        /* \"#utility.yul\":16849:16855   */\n      dup3\n        /* \"#utility.yul\":16838:16847   */\n      dup6\n        /* \"#utility.yul\":16834:16856   */\n      add\n        /* \"#utility.yul\":16813:16866   */\n      tag_392\n      jump\t// in\n    tag_605:\n        /* \"#utility.yul\":16803:16866   */\n      swap2\n      pop\n        /* \"#utility.yul\":16759:16876   */\n      pop\n        /* \"#utility.yul\":16554:16883   */\n      swap3\n      swap2\n      pop\n      pop\n      jump\t// out\n        /* \"#utility.yul\":16889:17218   */\n    tag_111:\n        /* \"#utility.yul\":16948:16954   */\n      0x00\n        /* \"#utility.yul\":16997:16999   */\n      0x20\n        /* \"#utility.yul\":16985:16994   */\n      dup3\n        /* \"#utility.yul\":16976:16983   */\n      dup5\n        /* \"#utility.yul\":16972:16995   */\n      sub\n        /* \"#utility.yul\":16968:17000   */\n      slt\n        /* \"#utility.yul\":16965:17084   */\n      iszero\n      tag_607\n      jumpi\n        /* \"#utility.yul\":17003:17082   */\n      tag_608\n      tag_378\n      jump\t// in\n    tag_608:\n        /* \"#utility.yul\":16965:17084   */\n    tag_607:\n        /* \"#utility.yul\":17123:17124   */\n      0x00\n        /* \"#utility.yul\":17148:17201   */\n      tag_609\n        /* \"#utility.yul\":17193:17200   */\n      dup5\n        /* \"#utility.yul\":17184:17190   */\n      dup3\n        /* \"#utility.yul\":17173:17182   */\n      dup6\n        /* \"#utility.yul\":17169:17191   */\n      add\n        /* \"#utility.yul\":17148:17201   */\n      tag_402\n      jump\t// in\n    tag_609:\n        /* \"#utility.yul\":17138:17201   */\n      swap2\n      pop\n        /* \"#utility.yul\":17094:17211   */\n      pop\n        /* \"#utility.yul\":16889:17218   */\n      swap3\n      swap2\n      pop\n      pop\n      jump\t// out\n        /* \"#utility.yul\":17224:17393   */\n    tag_414:\n        /* \"#utility.yul\":17308:17319   */\n      0x00\n        /* \"#utility.yul\":17342:17348   */\n      dup3\n        /* \"#utility.yul\":17337:17340   */\n      dup3\n        /* \"#utility.yul\":17330:17349   */\n      mstore\n        /* \"#utility.yul\":17382:17386   */\n      0x20\n        /* \"#utility.yul\":17377:17380   */\n      dup3\n        /* \"#utility.yul\":17373:17387   */\n      add\n        /* \"#utility.yul\":17358:17387   */\n      swap1\n      pop\n        /* \"#utility.yul\":17224:17393   */\n      swap3\n      swap2\n      pop\n      pop\n      jump\t// out\n        /* \"#utility.yul\":17399:17625   */\n    tag_415:\n        /* \"#utility.yul\":17539:17573   */\n      0x4461746162617365204c697374427573696e6573733a20536563726574206b65\n        /* \"#utility.yul\":17535:17536   */\n      0x00\n        /* \"#utility.yul\":17527:17533   */\n      dup3\n        /* \"#utility.yul\":17523:17537   */\n      add\n        /* \"#utility.yul\":17516:17574   */\n      mstore\n        /* \"#utility.yul\":17608:17617   */\n      0x79206572726f7200000000000000000000000000000000000000000000000000\n        /* \"#utility.yul\":17603:17605   */\n      0x20\n        /* \"#utility.yul\":17595:17601   */\n      dup3\n        /* \"#utility.yul\":17591:17606   */\n      add\n        /* \"#utility.yul\":17584:17618   */\n      mstore\n        /* \"#utility.yul\":17399:17625   */\n      pop\n      jump\t// out\n        /* \"#utility.yul\":17631:17997   */\n    tag_416:\n        /* \"#utility.yul\":17773:17776   */\n      0x00\n        /* \"#utility.yul\":17794:17861   */\n      tag_613\n        /* \"#utility.yul\":17858:17860   */\n      0x27\n        /* \"#utility.yul\":17853:17856   */\n      dup4\n        /* \"#utility.yul\":17794:17861   */\n      tag_414\n      jump\t// in\n    tag_613:\n        /* \"#utility.yul\":17787:17861   */\n      swap2\n      pop\n        /* \"#utility.yul\":17870:17963   */\n      tag_614\n        /* \"#utility.yul\":17959:17962   */\n      dup3\n        /* \"#utility.yul\":17870:17963   */\n      tag_415\n      jump\t// in\n    tag_614:\n        /* \"#utility.yul\":17988:17990   */\n      0x40\n        /* \"#utility.yul\":17983:17986   */\n      dup3\n        /* \"#utility.yul\":17979:17991   */\n      add\n        /* \"#utility.yul\":17972:17991   */\n      swap1\n      pop\n        /* \"#utility.yul\":17631:17997   */\n      swap2\n      swap1\n      pop\n      jump\t// out\n        /* \"#utility.yul\":18003:18422   */\n    tag_117:\n        /* \"#utility.yul\":18169:18173   */\n      0x00\n        /* \"#utility.yul\":18207:18209   */\n      0x20\n        /* \"#utility.yul\":18196:18205   */\n      dup3\n        /* \"#utility.yul\":18192:18210   */\n      add\n        /* \"#utility.yul\":18184:18210   */\n      swap1\n      pop\n        /* \"#utility.yul\":18256:18265   */\n      dup2\n        /* \"#utility.yul\":18250:18254   */\n      dup2\n        /* \"#utility.yul\":18246:18266   */\n      sub\n        /* \"#utility.yul\":18242:18243   */\n      0x00\n        /* \"#utility.yul\":18231:18240   */\n      dup4\n        /* \"#utility.yul\":18227:18244   */\n      add\n        /* \"#utility.yul\":18220:18267   */\n      mstore\n        /* \"#utility.yul\":18284:18415   */\n      tag_616\n        /* \"#utility.yul\":18410:18414   */\n      dup2\n        /* \"#utility.yul\":18284:18415   */\n      tag_416\n      jump\t// in\n    tag_616:\n        /* \"#utility.yul\":18276:18415   */\n      swap1\n      pop\n        /* \"#utility.yul\":18003:18422   */\n      swap2\n      swap1\n      pop\n      jump\t// out\n        /* \"#utility.yul\":18428:18608   */\n    tag_417:\n        /* \"#utility.yul\":18476:18553   */\n      0x4e487b7100000000000000000000000000000000000000000000000000000000\n        /* \"#utility.yul\":18473:18474   */\n      0x00\n        /* \"#utility.yul\":18466:18554   */\n      mstore\n        /* \"#utility.yul\":18573:18577   */\n      0x11\n        /* \"#utility.yul\":18570:18571   */\n      0x04\n        /* \"#utility.yul\":18563:18578   */\n      mstore\n        /* \"#utility.yul\":18597:18601   */\n      0x24\n        /* \"#utility.yul\":18594:18595   */\n      0x00\n        /* \"#utility.yul\":18587:18602   */\n      revert\n        /* \"#utility.yul\":18614:18847   */\n    tag_120:\n        /* \"#utility.yul\":18653:18656   */\n      0x00\n        /* \"#utility.yul\":18676:18700   */\n      tag_619\n        /* \"#utility.yul\":18694:18699   */\n      dup3\n        /* \"#utility.yul\":18676:18700   */\n      tag_386\n      jump\t// in\n    tag_619:\n        /* \"#utility.yul\":18667:18700   */\n      swap2\n      pop\n        /* \"#utility.yul\":18722:18788   */\n      0xffffffffffffffffffffffffffffffffffffffffffffffffffffffffffffffff\n        /* \"#utility.yul\":18715:18720   */\n      dup3\n        /* \"#utility.yul\":18712:18789   */\n      sub\n        /* \"#utility.yul\":18709:18812   */\n      tag_620\n      jumpi\n        /* \"#utility.yul\":18792:18810   */\n      tag_621\n      tag_417\n      jump\t// in\n    tag_621:\n        /* \"#utility.yul\":18709:18812   */\n    tag_620:\n        /* \"#utility.yul\":18839:18840   */\n      0x01\n        /* \"#utility.yul\":18832:18837   */\n      dup3\n        /* \"#utility.yul\":18828:18841   */\n      add\n        /* \"#utility.yul\":18821:18841   */\n      swap1\n      pop\n        /* \"#utility.yul\":18614:18847   */\n      swap2\n      swap1\n      pop\n      jump\t// out\n        /* \"#utility.yul\":18853:19033   */\n    tag_418:\n        /* \"#utility.yul\":18901:18978   */\n      0x4e487b7100000000000000000000000000000000000000000000000000000000\n        /* \"#utility.yul\":18898:18899   */\n      0x00\n        /* \"#utility.yul\":18891:18979   */\n      mstore\n        /* \"#utility.yul\":18998:19002   */\n      0x22\n        /* \"#utility.yul\":18995:18996   */\n      0x04\n        /* \"#utility.yul\":18988:19003   */\n      mstore\n        /* \"#utility.yul\":19022:19026   */\n      0x24\n        /* \"#utility.yul\":19019:19020   */\n      0x00\n        /* \"#utility.yul\":19012:19027   */\n      revert\n        /* \"#utility.yul\":19039:19359   */\n    tag_142:\n        /* \"#utility.yul\":19083:19089   */\n      0x00\n        /* \"#utility.yul\":19120:19121   */\n      0x02\n        /* \"#utility.yul\":19114:19118   */\n      dup3\n        /* \"#utility.yul\":19110:19122   */\n      div\n        /* \"#utility.yul\":19100:19122   */\n      swap1\n      pop\n        /* \"#utility.yul\":19167:19168   */\n      0x01\n        /* \"#utility.yul\":19161:19165   */\n      dup3\n        /* \"#utility.yul\":19157:19169   */\n      and\n        /* \"#utility.yul\":19188:19206   */\n      dup1\n        /* \"#utility.yul\":19178:19259   */\n      tag_624\n      jumpi\n        /* \"#utility.yul\":19244:19248   */\n      0x7f\n        /* \"#utility.yul\":19236:19242   */\n      dup3\n        /* \"#utility.yul\":19232:19249   */\n      and\n        /* \"#utility.yul\":19222:19249   */\n      swap2\n      pop\n        /* \"#utility.yul\":19178:19259   */\n    tag_624:\n        /* \"#utility.yul\":19306:19308   */\n      0x20\n        /* \"#utility.yul\":19298:19304   */\n      dup3\n        /* \"#utility.yul\":19295:19309   */\n      lt\n        /* \"#utility.yul\":19275:19293   */\n      dup2\n        /* \"#utility.yul\":19272:19310   */\n      sub\n        /* \"#utility.yul\":19269:19353   */\n      tag_625\n      jumpi\n        /* \"#utility.yul\":19325:19343   */\n      tag_626\n      tag_418\n      jump\t// in\n    tag_626:\n        /* \"#utility.yul\":19269:19353   */\n    tag_625:\n        /* \"#utility.yul\":19090:19359   */\n      pop\n        /* \"#utility.yul\":19039:19359   */\n      swap2\n      swap1\n      pop\n      jump\t// out\n        /* \"#utility.yul\":19365:19506   */\n    tag_419:\n        /* \"#utility.yul\":19414:19418   */\n      0x00\n        /* \"#utility.yul\":19437:19440   */\n      dup2\n        /* \"#utility.yul\":19429:19440   */\n      swap1\n      pop\n        /* \"#utility.yul\":19460:19463   */\n      dup2\n        /* \"#utility.yul\":19457:19458   */\n      0x00\n        /* \"#utility.yul\":19450:19464   */\n      mstore\n        /* \"#utility.yul\":19494:19498   */\n      0x20\n        /* \"#utility.yul\":19491:19492   */\n      0x00\n        /* \"#utility.yul\":19481:19499   */\n      keccak256\n        /* \"#utility.yul\":19473:19499   */\n      swap1\n      pop\n        /* \"#utility.yul\":19365:19506   */\n      swap2\n      swap1\n      pop\n      jump\t// out\n        /* \"#utility.yul\":19512:19605   */\n    tag_420:\n        /* \"#utility.yul\":19549:19555   */\n      0x00\n        /* \"#utility.yul\":19596:19598   */\n      0x20\n        /* \"#utility.yul\":19591:19593   */\n      0x1f\n        /* \"#utility.yul\":19584:19589   */\n      dup4\n        /* \"#utility.yul\":19580:19594   */\n      add\n        /* \"#utility.yul\":19576:19599   */\n      div\n        /* \"#utility.yul\":19566:19599   */\n      swap1\n      pop\n        /* \"#utility.yul\":19512:19605   */\n      swap2\n      swap1\n      pop\n      jump\t// out\n        /* \"#utility.yul\":19611:19718   */\n    tag_421:\n        /* \"#utility.yul\":19655:19663   */\n      0x00\n        /* \"#utility.yul\":19705:19710   */\n      dup3\n        /* \"#utility.yul\":19699:19703   */\n      dup3\n        /* \"#utility.yul\":19695:19711   */\n      shl\n        /* \"#utility.yul\":19674:19711   */\n      swap1\n      pop\n        /* \"#utility.yul\":19611:19718   */\n      swap3\n      swap2\n      pop\n      pop\n      jump\t// out\n        /* \"#utility.yul\":19724:20117   */\n    tag_422:\n        /* \"#utility.yul\":19793:19799   */\n      0x00\n        /* \"#utility.yul\":19843:19844   */\n      0x08\n        /* \"#utility.yul\":19831:19841   */\n      dup4\n        /* \"#utility.yul\":19827:19845   */\n      mul\n        /* \"#utility.yul\":19866:19963   */\n      tag_631\n        /* \"#utility.yul\":19896:19962   */\n      0xffffffffffffffffffffffffffffffffffffffffffffffffffffffffffffffff\n        /* \"#utility.yul\":19885:19894   */\n      dup3\n        /* \"#utility.yul\":19866:19963   */\n      tag_421\n      jump\t// in\n    tag_631:\n        /* \"#utility.yul\":19984:20023   */\n      tag_632\n        /* \"#utility.yul\":20014:20022   */\n      dup7\n        /* \"#utility.yul\":20003:20012   */\n      dup4\n        /* \"#utility.yul\":19984:20023   */\n      tag_421\n      jump\t// in\n    tag_632:\n        /* \"#utility.yul\":19972:20023   */\n      swap6\n      pop\n        /* \"#utility.yul\":20056:20060   */\n      dup1\n        /* \"#utility.yul\":20052:20061   */\n      not\n        /* \"#utility.yul\":20045:20050   */\n      dup5\n        /* \"#utility.yul\":20041:20062   */\n      and\n        /* \"#utility.yul\":20032:20062   */\n      swap4\n      pop\n        /* \"#utility.yul\":20105:20109   */\n      dup1\n        /* \"#utility.yul\":20095:20103   */\n      dup7\n        /* \"#utility.yul\":20091:20110   */\n      and\n        /* \"#utility.yul\":20084:20089   */\n      dup5\n        /* \"#utility.yul\":20081:20111   */\n      or\n        /* \"#utility.yul\":20071:20111   */\n      swap3\n      pop\n        /* \"#utility.yul\":19800:20117   */\n      pop\n      pop\n        /* \"#utility.yul\":19724:20117   */\n      swap4\n      swap3\n      pop\n      pop\n      pop\n      jump\t// out\n        /* \"#utility.yul\":20123:20183   */\n    tag_423:\n        /* \"#utility.yul\":20151:20154   */\n      0x00\n        /* \"#utility.yul\":20172:20177   */\n      dup2\n        /* \"#utility.yul\":20165:20177   */\n      swap1\n      pop\n        /* \"#utility.yul\":20123:20183   */\n      swap2\n      swap1\n      pop\n      jump\t// out\n        /* \"#utility.yul\":20189:20331   */\n    tag_424:\n        /* \"#utility.yul\":20239:20248   */\n      0x00\n        /* \"#utility.yul\":20272:20325   */\n      tag_635\n        /* \"#utility.yul\":20290:20324   */\n      tag_636\n        /* \"#utility.yul\":20299:20323   */\n      tag_637\n        /* \"#utility.yul\":20317:20322   */\n      dup5\n        /* \"#utility.yul\":20299:20323   */\n      tag_386\n      jump\t// in\n    tag_637:\n        /* \"#utility.yul\":20290:20324   */\n      tag_423\n      jump\t// in\n    tag_636:\n        /* \"#utility.yul\":20272:20325   */\n      tag_386\n      jump\t// in\n    tag_635:\n        /* \"#utility.yul\":20259:20325   */\n      swap1\n      pop\n        /* \"#utility.yul\":20189:20331   */\n      swap2\n      swap1\n      pop\n      jump\t// out\n        /* \"#utility.yul\":20337:20412   */\n    tag_425:\n        /* \"#utility.yul\":20380:20383   */\n      0x00\n        /* \"#utility.yul\":20401:20406   */\n      dup2\n        /* \"#utility.yul\":20394:20406   */\n      swap1\n      pop\n        /* \"#utility.yul\":20337:20412   */\n      swap2\n      swap1\n      pop\n      jump\t// out\n        /* \"#utility.yul\":20418:20687   */\n    tag_426:\n        /* \"#utility.yul\":20528:20567   */\n      tag_640\n        /* \"#utility.yul\":20559:20566   */\n      dup4\n        /* \"#utility.yul\":20528:20567   */\n      tag_424\n      jump\t// in\n    tag_640:\n        /* \"#utility.yul\":20589:20680   */\n      tag_641\n        /* \"#utility.yul\":20638:20679   */\n      tag_642\n        /* \"#utility.yul\":20662:20678   */\n      dup3\n        /* \"#utility.yul\":20638:20679   */\n      tag_425\n      jump\t// in\n    tag_642:\n        /* \"#utility.yul\":20630:20636   */\n      dup5\n        /* \"#utility.yul\":20623:20627   */\n      dup5\n        /* \"#utility.yul\":20617:20628   */\n      sload\n        /* \"#utility.yul\":20589:20680   */\n      tag_422\n      jump\t// in\n    tag_641:\n        /* \"#utility.yul\":20583:20587   */\n      dup3\n        /* \"#utility.yul\":20576:20681   */\n      sstore\n        /* \"#utility.yul\":20494:20687   */\n      pop\n        /* \"#utility.yul\":20418:20687   */\n      pop\n      pop\n      pop\n      jump\t// out\n        /* \"#utility.yul\":20693:20766   */\n    tag_427:\n        /* \"#utility.yul\":20738:20741   */\n      0x00\n        /* \"#utility.yul\":20693:20766   */\n      swap1\n      jump\t// out\n        /* \"#utility.yul\":20772:20961   */\n    tag_428:\n        /* \"#utility.yul\":20849:20881   */\n      tag_645\n      tag_427\n      jump\t// in\n    tag_645:\n        /* \"#utility.yul\":20890:20955   */\n      tag_646\n        /* \"#utility.yul\":20948:20954   */\n      dup2\n        /* \"#utility.yul\":20940:20946   */\n      dup5\n        /* \"#utility.yul\":20934:20938   */\n      dup5\n        /* \"#utility.yul\":20890:20955   */\n      tag_426\n      jump\t// in\n    tag_646:\n        /* \"#utility.yul\":20825:20961   */\n      pop\n        /* \"#utility.yul\":20772:20961   */\n      pop\n      pop\n      jump\t// out\n        /* \"#utility.yul\":20967:21153   */\n    tag_429:\n        /* \"#utility.yul\":21027:21147   */\n    tag_648:\n        /* \"#utility.yul\":21044:21047   */\n      dup2\n        /* \"#utility.yul\":21037:21042   */\n      dup2\n        /* \"#utility.yul\":21034:21048   */\n      lt\n        /* \"#utility.yul\":21027:21147   */\n      iszero\n      tag_650\n      jumpi\n        /* \"#utility.yul\":21098:21137   */\n      tag_651\n        /* \"#utility.yul\":21135:21136   */\n      0x00\n        /* \"#utility.yul\":21128:21133   */\n      dup3\n        /* \"#utility.yul\":21098:21137   */\n      tag_428\n      jump\t// in\n    tag_651:\n        /* \"#utility.yul\":21071:21072   */\n      0x01\n        /* \"#utility.yul\":21064:21069   */\n      dup2\n        /* \"#utility.yul\":21060:21073   */\n      add\n        /* \"#utility.yul\":21051:21073   */\n      swap1\n      pop\n        /* \"#utility.yul\":21027:21147   */\n      jump(tag_648)\n    tag_650:\n        /* \"#utility.yul\":20967:21153   */\n      pop\n      pop\n      jump\t// out\n        /* \"#utility.yul\":21159:21702   */\n    tag_430:\n        /* \"#utility.yul\":21260:21262   */\n      0x1f\n        /* \"#utility.yul\":21255:21258   */\n      dup3\n        /* \"#utility.yul\":21252:21263   */\n      gt\n        /* \"#utility.yul\":21249:21695   */\n      iszero\n      tag_653\n      jumpi\n        /* \"#utility.yul\":21294:21332   */\n      tag_654\n        /* \"#utility.yul\":21326:21331   */\n      dup2\n        /* \"#utility.yul\":21294:21332   */\n      tag_419\n      jump\t// in\n    tag_654:\n        /* \"#utility.yul\":21378:21407   */\n      tag_655\n        /* \"#utility.yul\":21396:21406   */\n      dup5\n        /* \"#utility.yul\":21378:21407   */\n      tag_420\n      jump\t// in\n    tag_655:\n        /* \"#utility.yul\":21368:21376   */\n      dup2\n        /* \"#utility.yul\":21364:21408   */\n      add\n        /* \"#utility.yul\":21561:21563   */\n      0x20\n        /* \"#utility.yul\":21549:21559   */\n      dup6\n        /* \"#utility.yul\":21546:21564   */\n      lt\n        /* \"#utility.yul\":21543:21592   */\n      iszero\n      tag_656\n      jumpi\n        /* \"#utility.yul\":21582:21590   */\n      dup2\n        /* \"#utility.yul\":21567:21590   */\n      swap1\n      pop\n        /* \"#utility.yul\":21543:21592   */\n    tag_656:\n        /* \"#utility.yul\":21605:21685   */\n      tag_657\n        /* \"#utility.yul\":21661:21683   */\n      tag_658\n        /* \"#utility.yul\":21679:21682   */\n      dup6\n        /* \"#utility.yul\":21661:21683   */\n      tag_420\n      jump\t// in\n    tag_658:\n        /* \"#utility.yul\":21651:21659   */\n      dup4\n        /* \"#utility.yul\":21647:21684   */\n      add\n        /* \"#utility.yul\":21634:21645   */\n      dup3\n        /* \"#utility.yul\":21605:21685   */\n      tag_429\n      jump\t// in\n    tag_657:\n        /* \"#utility.yul\":21264:21695   */\n      pop\n      pop\n        /* \"#utility.yul\":21249:21695   */\n    tag_653:\n        /* \"#utility.yul\":21159:21702   */\n      pop\n      pop\n      pop\n      jump\t// out\n        /* \"#utility.yul\":21708:21825   */\n    tag_431:\n        /* \"#utility.yul\":21762:21770   */\n      0x00\n        /* \"#utility.yul\":21812:21817   */\n      dup3\n        /* \"#utility.yul\":21806:21810   */\n      dup3\n        /* \"#utility.yul\":21802:21818   */\n      shr\n        /* \"#utility.yul\":21781:21818   */\n      swap1\n      pop\n        /* \"#utility.yul\":21708:21825   */\n      swap3\n      swap2\n      pop\n      pop\n      jump\t// out\n        /* \"#utility.yul\":21831:22000   */\n    tag_432:\n        /* \"#utility.yul\":21875:21881   */\n      0x00\n        /* \"#utility.yul\":21908:21959   */\n      tag_661\n        /* \"#utility.yul\":21956:21957   */\n      0x00\n        /* \"#utility.yul\":21952:21958   */\n      not\n        /* \"#utility.yul\":21944:21949   */\n      dup5\n        /* \"#utility.yul\":21941:21942   */\n      0x08\n        /* \"#utility.yul\":21937:21950   */\n      mul\n        /* \"#utility.yul\":21908:21959   */\n      tag_431\n      jump\t// in\n    tag_661:\n        /* \"#utility.yul\":21904:21960   */\n      not\n        /* \"#utility.yul\":21989:21993   */\n      dup1\n        /* \"#utility.yul\":21983:21987   */\n      dup4\n        /* \"#utility.yul\":21979:21994   */\n      and\n        /* \"#utility.yul\":21969:21994   */\n      swap2\n      pop\n        /* \"#utility.yul\":21882:22000   */\n      pop\n        /* \"#utility.yul\":21831:22000   */\n      swap3\n      swap2\n      pop\n      pop\n      jump\t// out\n        /* \"#utility.yul\":22005:22300   */\n    tag_433:\n        /* \"#utility.yul\":22081:22085   */\n      0x00\n        /* \"#utility.yul\":22227:22256   */\n      tag_663\n        /* \"#utility.yul\":22252:22255   */\n      dup4\n        /* \"#utility.yul\":22246:22250   */\n      dup4\n        /* \"#utility.yul\":22227:22256   */\n      tag_432\n      jump\t// in\n    tag_663:\n        /* \"#utility.yul\":22219:22256   */\n      swap2\n      pop\n        /* \"#utility.yul\":22289:22292   */\n      dup3\n        /* \"#utility.yul\":22286:22287   */\n      0x02\n        /* \"#utility.yul\":22282:22293   */\n      mul\n        /* \"#utility.yul\":22276:22280   */\n      dup3\n        /* \"#utility.yul\":22273:22294   */\n      or\n        /* \"#utility.yul\":22265:22294   */\n      swap1\n      pop\n        /* \"#utility.yul\":22005:22300   */\n      swap3\n      swap2\n      pop\n      pop\n      jump\t// out\n        /* \"#utility.yul\":22305:23700   */\n    tag_122:\n        /* \"#utility.yul\":22422:22459   */\n      tag_665\n        /* \"#utility.yul\":22455:22458   */\n      dup3\n        /* \"#utility.yul\":22422:22459   */\n      tag_407\n      jump\t// in\n    tag_665:\n        /* \"#utility.yul\":22524:22542   */\n      0xffffffffffffffff\n        /* \"#utility.yul\":22516:22522   */\n      dup2\n        /* \"#utility.yul\":22513:22543   */\n      gt\n        /* \"#utility.yul\":22510:22566   */\n      iszero\n      tag_666\n      jumpi\n        /* \"#utility.yul\":22546:22564   */\n      tag_667\n      tag_382\n      jump\t// in\n    tag_667:\n        /* \"#utility.yul\":22510:22566   */\n    tag_666:\n        /* \"#utility.yul\":22590:22628   */\n      tag_668\n        /* \"#utility.yul\":22622:22626   */\n      dup3\n        /* \"#utility.yul\":22616:22627   */\n      sload\n        /* \"#utility.yul\":22590:22628   */\n      tag_142\n      jump\t// in\n    tag_668:\n        /* \"#utility.yul\":22675:22742   */\n      tag_669\n        /* \"#utility.yul\":22735:22741   */\n      dup3\n        /* \"#utility.yul\":22727:22733   */\n      dup3\n        /* \"#utility.yul\":22721:22725   */\n      dup6\n        /* \"#utility.yul\":22675:22742   */\n      tag_430\n      jump\t// in\n    tag_669:\n        /* \"#utility.yul\":22769:22770   */\n      0x00\n        /* \"#utility.yul\":22793:22797   */\n      0x20\n        /* \"#utility.yul\":22780:22797   */\n      swap1\n      pop\n        /* \"#utility.yul\":22825:22827   */\n      0x1f\n        /* \"#utility.yul\":22817:22823   */\n      dup4\n        /* \"#utility.yul\":22814:22828   */\n      gt\n        /* \"#utility.yul\":22842:22843   */\n      0x01\n        /* \"#utility.yul\":22837:23455   */\n      dup2\n      eq\n      tag_671\n      jumpi\n        /* \"#utility.yul\":23499:23500   */\n      0x00\n        /* \"#utility.yul\":23516:23522   */\n      dup5\n        /* \"#utility.yul\":23513:23590   */\n      iszero\n      tag_672\n      jumpi\n        /* \"#utility.yul\":23565:23574   */\n      dup3\n        /* \"#utility.yul\":23560:23563   */\n      dup8\n        /* \"#utility.yul\":23556:23575   */\n      add\n        /* \"#utility.yul\":23550:23576   */\n      mload\n        /* \"#utility.yul\":23541:23576   */\n      swap1\n      pop\n        /* \"#utility.yul\":23513:23590   */\n    tag_672:\n        /* \"#utility.yul\":23616:23683   */\n      tag_673\n        /* \"#utility.yul\":23676:23682   */\n      dup6\n        /* \"#utility.yul\":23669:23674   */\n      dup3\n        /* \"#utility.yul\":23616:23683   */\n      tag_433\n      jump\t// in\n    tag_673:\n        /* \"#utility.yul\":23610:23614   */\n      dup7\n        /* \"#utility.yul\":23603:23684   */\n      sstore\n        /* \"#utility.yul\":23472:23694   */\n      pop\n        /* \"#utility.yul\":22807:23694   */\n      jump(tag_670)\n        /* \"#utility.yul\":22837:23455   */\n    tag_671:\n        /* \"#utility.yul\":22889:22893   */\n      0x1f\n        /* \"#utility.yul\":22885:22894   */\n      not\n        /* \"#utility.yul\":22877:22883   */\n      dup5\n        /* \"#utility.yul\":22873:22895   */\n      and\n        /* \"#utility.yul\":22923:22960   */\n      tag_674\n        /* \"#utility.yul\":22955:22959   */\n      dup7\n        /* \"#utility.yul\":22923:22960   */\n      tag_419\n      jump\t// in\n    tag_674:\n        /* \"#utility.yul\":22982:22983   */\n      0x00\n        /* \"#utility.yul\":22996:23204   */\n    tag_675:\n        /* \"#utility.yul\":23010:23017   */\n      dup3\n        /* \"#utility.yul\":23007:23008   */\n      dup2\n        /* \"#utility.yul\":23004:23018   */\n      lt\n        /* \"#utility.yul\":22996:23204   */\n      iszero\n      tag_677\n      jumpi\n        /* \"#utility.yul\":23089:23098   */\n      dup5\n        /* \"#utility.yul\":23084:23087   */\n      dup10\n        /* \"#utility.yul\":23080:23099   */\n      add\n        /* \"#utility.yul\":23074:23100   */\n      mload\n        /* \"#utility.yul\":23066:23072   */\n      dup3\n        /* \"#utility.yul\":23059:23101   */\n      sstore\n        /* \"#utility.yul\":23140:23141   */\n      0x01\n        /* \"#utility.yul\":23132:23138   */\n      dup3\n        /* \"#utility.yul\":23128:23142   */\n      add\n        /* \"#utility.yul\":23118:23142   */\n      swap2\n      pop\n        /* \"#utility.yul\":23187:23189   */\n      0x20\n        /* \"#utility.yul\":23176:23185   */\n      dup6\n        /* \"#utility.yul\":23172:23190   */\n      add\n        /* \"#utility.yul\":23159:23190   */\n      swap5\n      pop\n        /* \"#utility.yul\":23033:23037   */\n      0x20\n        /* \"#utility.yul\":23030:23031   */\n      dup2\n        /* \"#utility.yul\":23026:23038   */\n      add\n        /* \"#utility.yul\":23021:23038   */\n      swap1\n      pop\n        /* \"#utility.yul\":22996:23204   */\n      jump(tag_675)\n    tag_677:\n        /* \"#utility.yul\":23232:23238   */\n      dup7\n        /* \"#utility.yul\":23223:23230   */\n      dup4\n        /* \"#utility.yul\":23220:23239   */\n      lt\n        /* \"#utility.yul\":23217:23396   */\n      iszero\n      tag_678\n      jumpi\n        /* \"#utility.yul\":23290:23299   */\n      dup5\n        /* \"#utility.yul\":23285:23288   */\n      dup10\n        /* \"#utility.yul\":23281:23300   */\n      add\n        /* \"#utility.yul\":23275:23301   */\n      mload\n        /* \"#utility.yul\":23333:23381   */\n      tag_679\n        /* \"#utility.yul\":23375:23379   */\n      0x1f\n        /* \"#utility.yul\":23367:23373   */\n      dup10\n        /* \"#utility.yul\":23363:23380   */\n      and\n        /* \"#utility.yul\":23352:23361   */\n      dup3\n        /* \"#utility.yul\":23333:23381   */\n      tag_432\n      jump\t// in\n    tag_679:\n        /* \"#utility.yul\":23325:23331   */\n      dup4\n        /* \"#utility.yul\":23318:23382   */\n      sstore\n        /* \"#utility.yul\":23240:23396   */\n      pop\n        /* \"#utility.yul\":23217:23396   */\n    tag_678:\n        /* \"#utility.yul\":23442:23443   */\n      0x01\n        /* \"#utility.yul\":23438:23439   */\n      0x02\n        /* \"#utility.yul\":23430:23436   */\n      dup9\n        /* \"#utility.yul\":23426:23440   */\n      mul\n        /* \"#utility.yul\":23422:23444   */\n      add\n        /* \"#utility.yul\":23416:23420   */\n      dup9\n        /* \"#utility.yul\":23409:23445   */\n      sstore\n        /* \"#utility.yul\":22844:23455   */\n      pop\n      pop\n      pop\n        /* \"#utility.yul\":22807:23694   */\n    tag_670:\n      pop\n        /* \"#utility.yul\":22397:23700   */\n      pop\n      pop\n      pop\n        /* \"#utility.yul\":22305:23700   */\n      pop\n      pop\n      jump\t// out\n        /* \"#utility.yul\":23706:23929   */\n    tag_434:\n        /* \"#utility.yul\":23846:23880   */\n      0x4461746162617365204c697374427573696e6573733a20496e76616c69642069\n        /* \"#utility.yul\":23842:23843   */\n      0x00\n        /* \"#utility.yul\":23834:23840   */\n      dup3\n        /* \"#utility.yul\":23830:23844   */\n      add\n        /* \"#utility.yul\":23823:23881   */\n      mstore\n        /* \"#utility.yul\":23915:23921   */\n      0x6e64657800000000000000000000000000000000000000000000000000000000\n        /* \"#utility.yul\":23910:23912   */\n      0x20\n        /* \"#utility.yul\":23902:23908   */\n      dup3\n        /* \"#utility.yul\":23898:23913   */\n      add\n        /* \"#utility.yul\":23891:23922   */\n      mstore\n        /* \"#utility.yul\":23706:23929   */\n      pop\n      jump\t// out\n        /* \"#utility.yul\":23935:24301   */\n    tag_435:\n        /* \"#utility.yul\":24077:24080   */\n      0x00\n        /* \"#utility.yul\":24098:24165   */\n      tag_682\n        /* \"#utility.yul\":24162:24164   */\n      0x24\n        /* \"#utility.yul\":24157:24160   */\n      dup4\n        /* \"#utility.yul\":24098:24165   */\n      tag_414\n      jump\t// in\n    tag_682:\n        /* \"#utility.yul\":24091:24165   */\n      swap2\n      pop\n        /* \"#utility.yul\":24174:24267   */\n      tag_683\n        /* \"#utility.yul\":24263:24266   */\n      dup3\n        /* \"#utility.yul\":24174:24267   */\n      tag_434\n      jump\t// in\n    tag_683:\n        /* \"#utility.yul\":24292:24294   */\n      0x40\n        /* \"#utility.yul\":24287:24290   */\n      dup3\n        /* \"#utility.yul\":24283:24295   */\n      add\n        /* \"#utility.yul\":24276:24295   */\n      swap1\n      pop\n        /* \"#utility.yul\":23935:24301   */\n      swap2\n      swap1\n      pop\n      jump\t// out\n        /* \"#utility.yul\":24307:24726   */\n    tag_190:\n        /* \"#utility.yul\":24473:24477   */\n      0x00\n        /* \"#utility.yul\":24511:24513   */\n      0x20\n        /* \"#utility.yul\":24500:24509   */\n      dup3\n        /* \"#utility.yul\":24496:24514   */\n      add\n        /* \"#utility.yul\":24488:24514   */\n      swap1\n      pop\n        /* \"#utility.yul\":24560:24569   */\n      dup2\n        /* \"#utility.yul\":24554:24558   */\n      dup2\n        /* \"#utility.yul\":24550:24570   */\n      sub\n        /* \"#utility.yul\":24546:24547   */\n      0x00\n        /* \"#utility.yul\":24535:24544   */\n      dup4\n        /* \"#utility.yul\":24531:24548   */\n      add\n        /* \"#utility.yul\":24524:24571   */\n      mstore\n        /* \"#utility.yul\":24588:24719   */\n      tag_685\n        /* \"#utility.yul\":24714:24718   */\n      dup2\n        /* \"#utility.yul\":24588:24719   */\n      tag_435\n      jump\t// in\n    tag_685:\n        /* \"#utility.yul\":24580:24719   */\n      swap1\n      pop\n        /* \"#utility.yul\":24307:24726   */\n      swap2\n      swap1\n      pop\n      jump\t// out\n        /* \"#utility.yul\":24732:24957   */\n    tag_436:\n        /* \"#utility.yul\":24872:24906   */\n      0x4f776e61626c653a206e6577206f776e657220697320746865207a65726f2061\n        /* \"#utility.yul\":24868:24869   */\n      0x00\n        /* \"#utility.yul\":24860:24866   */\n      dup3\n        /* \"#utility.yul\":24856:24870   */\n      add\n        /* \"#utility.yul\":24849:24907   */\n      mstore\n        /* \"#utility.yul\":24941:24949   */\n      0x6464726573730000000000000000000000000000000000000000000000000000\n        /* \"#utility.yul\":24936:24938   */\n      0x20\n        /* \"#utility.yul\":24928:24934   */\n      dup3\n        /* \"#utility.yul\":24924:24939   */\n      add\n        /* \"#utility.yul\":24917:24950   */\n      mstore\n        /* \"#utility.yul\":24732:24957   */\n      pop\n      jump\t// out\n        /* \"#utility.yul\":24963:25329   */\n    tag_437:\n        /* \"#utility.yul\":25105:25108   */\n      0x00\n        /* \"#utility.yul\":25126:25193   */\n      tag_688\n        /* \"#utility.yul\":25190:25192   */\n      0x26\n        /* \"#utility.yul\":25185:25188   */\n      dup4\n        /* \"#utility.yul\":25126:25193   */\n      tag_414\n      jump\t// in\n    tag_688:\n        /* \"#utility.yul\":25119:25193   */\n      swap2\n      pop\n        /* \"#utility.yul\":25202:25295   */\n      tag_689\n        /* \"#utility.yul\":25291:25294   */\n      dup3\n        /* \"#utility.yul\":25202:25295   */\n      tag_436\n      jump\t// in\n    tag_689:\n        /* \"#utility.yul\":25320:25322   */\n      0x40\n        /* \"#utility.yul\":25315:25318   */\n      dup3\n        /* \"#utility.yul\":25311:25323   */\n      add\n        /* \"#utility.yul\":25304:25323   */\n      swap1\n      pop\n        /* \"#utility.yul\":24963:25329   */\n      swap2\n      swap1\n      pop\n      jump\t// out\n        /* \"#utility.yul\":25335:25754   */\n    tag_364:\n        /* \"#utility.yul\":25501:25505   */\n      0x00\n        /* \"#utility.yul\":25539:25541   */\n      0x20\n        /* \"#utility.yul\":25528:25537   */\n      dup3\n        /* \"#utility.yul\":25524:25542   */\n      add\n        /* \"#utility.yul\":25516:25542   */\n      swap1\n      pop\n        /* \"#utility.yul\":25588:25597   */\n      dup2\n        /* \"#utility.yul\":25582:25586   */\n      dup2\n        /* \"#utility.yul\":25578:25598   */\n      sub\n        /* \"#utility.yul\":25574:25575   */\n      0x00\n        /* \"#utility.yul\":25563:25572   */\n      dup4\n        /* \"#utility.yul\":25559:25576   */\n      add\n        /* \"#utility.yul\":25552:25599   */\n      mstore\n        /* \"#utility.yul\":25616:25747   */\n      tag_691\n        /* \"#utility.yul\":25742:25746   */\n      dup2\n        /* \"#utility.yul\":25616:25747   */\n      tag_437\n      jump\t// in\n    tag_691:\n        /* \"#utility.yul\":25608:25747   */\n      swap1\n      pop\n        /* \"#utility.yul\":25335:25754   */\n      swap2\n      swap1\n      pop\n      jump\t// out\n        /* \"#utility.yul\":25760:25942   */\n    tag_438:\n        /* \"#utility.yul\":25900:25934   */\n      0x4f776e61626c653a2063616c6c6572206973206e6f7420746865206f776e6572\n        /* \"#utility.yul\":25896:25897   */\n      0x00\n        /* \"#utility.yul\":25888:25894   */\n      dup3\n        /* \"#utility.yul\":25884:25898   */\n      add\n        /* \"#utility.yul\":25877:25935   */\n      mstore\n        /* \"#utility.yul\":25760:25942   */\n      pop\n      jump\t// out\n        /* \"#utility.yul\":25948:26314   */\n    tag_439:\n        /* \"#utility.yul\":26090:26093   */\n      0x00\n        /* \"#utility.yul\":26111:26178   */\n      tag_694\n        /* \"#utility.yul\":26175:26177   */\n      0x20\n        /* \"#utility.yul\":26170:26173   */\n      dup4\n        /* \"#utility.yul\":26111:26178   */\n      tag_414\n      jump\t// in\n    tag_694:\n        /* \"#utility.yul\":26104:26178   */\n      swap2\n      pop\n        /* \"#utility.yul\":26187:26280   */\n      tag_695\n        /* \"#utility.yul\":26276:26279   */\n      dup3\n        /* \"#utility.yul\":26187:26280   */\n      tag_438\n      jump\t// in\n    tag_695:\n        /* \"#utility.yul\":26305:26307   */\n      0x20\n        /* \"#utility.yul\":26300:26303   */\n      dup3\n        /* \"#utility.yul\":26296:26308   */\n      add\n        /* \"#utility.yul\":26289:26308   */\n      swap1\n      pop\n        /* \"#utility.yul\":25948:26314   */\n      swap2\n      swap1\n      pop\n      jump\t// out\n        /* \"#utility.yul\":26320:26739   */\n    tag_375:\n        /* \"#utility.yul\":26486:26490   */\n      0x00\n        /* \"#utility.yul\":26524:26526   */\n      0x20\n        /* \"#utility.yul\":26513:26522   */\n      dup3\n        /* \"#utility.yul\":26509:26527   */\n      add\n        /* \"#utility.yul\":26501:26527   */\n      swap1\n      pop\n        /* \"#utility.yul\":26573:26582   */\n      dup2\n        /* \"#utility.yul\":26567:26571   */\n      dup2\n        /* \"#utility.yul\":26563:26583   */\n      sub\n        /* \"#utility.yul\":26559:26560   */\n      0x00\n        /* \"#utility.yul\":26548:26557   */\n      dup4\n        /* \"#utility.yul\":26544:26561   */\n      add\n        /* \"#utility.yul\":26537:26584   */\n      mstore\n        /* \"#utility.yul\":26601:26732   */\n      tag_697\n        /* \"#utility.yul\":26727:26731   */\n      dup2\n        /* \"#utility.yul\":26601:26732   */\n      tag_439\n      jump\t// in\n    tag_697:\n        /* \"#utility.yul\":26593:26732   */\n      swap1\n      pop\n        /* \"#utility.yul\":26320:26739   */\n      swap2\n      swap1\n      pop\n      jump\t// out\n\n    auxdata: 0xa26469706673582212209a23a3934b01184a2639699c90cdfb6e2fcff3036b45742f74b9def48ac1494e64736f6c63430008100033\n}\n",
				"bytecode": {
					"linkReferences": {},
					"object": "6080604052600060025534801561001557600080fd5b50336000806101000a81548173ffffffffffffffffffffffffffffffffffffffff021916908373ffffffffffffffffffffffffffffffffffffffff160217905550613329806100656000396000f3fe608060405234801561001057600080fd5b506004361061012c5760003560e01c80638da5cb5b116100ad578063d45c8abf11610071578063d45c8abf146103c9578063d49cb146146103f9578063e3f3437114610429578063f2fde38b14610459578063fd82e9dd146104755761012c565b80638da5cb5b146102eb578063b615c00a14610309578063c78a674114610339578063d2af71a614610369578063d32a04c7146103995761012c565b80632e22eafe116100f45780632e22eafe14610221578063413896e414610251578063800f22341461028157806383197ef0146102b15780638827b05f146102bb5761012c565b806304a28c0714610131578063236df93c14610161578063294b4b6b1461019157806329cd6311146101c15780632c3ce919146101f1575b600080fd5b61014b600480360381019061014691906128b7565b6104a5565b604051610158919061292e565b60405180910390f35b61017b60048036038101906101769190612949565b61069a565b6040516101889190612b46565b60405180910390f35b6101ab60048036038101906101a69190612b68565b610d9d565b6040516101b8919061292e565b60405180910390f35b6101db60048036038101906101d69190612bbb565b610e80565b6040516101e8919061292e565b60405180910390f35b61020b60048036038101906102069190612bbb565b610f6c565b604051610218919061292e565b60405180910390f35b61023b60048036038101906102369190612c2a565b611058565b604051610248919061292e565b60405180910390f35b61026b60048036038101906102669190612bbb565b611175565b604051610278919061292e565b60405180910390f35b61029b60048036038101906102969190612bbb565b611261565b6040516102a8919061292e565b60405180910390f35b6102b961134d565b005b6102d560048036038101906102d09190612b68565b61136e565b6040516102e2919061292e565b60405180910390f35b6102f3611451565b6040516103009190612c8c565b60405180910390f35b610323600480360381019061031e9190612ca7565b61147a565b604051610330919061292e565b60405180910390f35b610353600480360381019061034e9190612ca7565b611748565b6040516103609190612b46565b60405180910390f35b610383600480360381019061037e9190612bbb565b611d2c565b604051610390919061292e565b60405180910390f35b6103b360048036038101906103ae9190612949565b611e18565b6040516103c09190612cf6565b60405180910390f35b6103e360048036038101906103de9190612bbb565b611f38565b6040516103f0919061292e565b60405180910390f35b610413600480360381019061040e9190612bbb565b612024565b604051610420919061292e565b60405180910390f35b610443600480360381019061043e9190612bbb565b612110565b604051610450919061292e565b60405180910390f35b610473600480360381019061046e9190612d11565b6121fc565b005b61048f600480360381019061048a9190612d3e565b61227f565b60405161049c9190612cf6565b60405180910390f35b6000817f8e1604a838d0f1a9b2cda14a099e4ceb08e966cc6e05e8296f67b02d61a79f0960001b811461050d576040517f08c379a000000000000000000000000000000000000000000000000000000000815260040161050490612dee565b60405180910390fd5b6002600081548092919061052090612e3d565b919050555060025484602001818152505083600160006002548152602001908152602001600020600082015181600001556020820151816001015560408201518160020160006101000a81548173ffffffffffffffffffffffffffffffffffffffff021916908373ffffffffffffffffffffffffffffffffffffffff16021790555060608201518160030190816105b79190613091565b5060808201518160040190816105cd9190613091565b5060a08201518160050190816105e39190613091565b5060c08201518160060190816105f99190613091565b5060e082015181600701908161060f9190613091565b506101008201518160080190816106269190613091565b5061012082015181600901908161063d9190613091565b5061014082015181600a0190816106549190613091565b509050507ff1c85255584806819bcf2d77a175d3ec22e4d0e596c27fcddc47379dededb756846040516106879190612b46565b60405180910390a1600191505092915050565b6106a261242d565b817f8e1604a838d0f1a9b2cda14a099e4ceb08e966cc6e05e8296f67b02d61a79f0960001b8114610708576040517f08c379a00000000000000000000000000000000000000000000000000000000081526004016106ff90612dee565b60405180910390fd5b6000600190505b6002548111610cb5578473ffffffffffffffffffffffffffffffffffffffff166001600083815260200190815260200160002060020160009054906101000a900473ffffffffffffffffffffffffffffffffffffffff1673ffffffffffffffffffffffffffffffffffffffff1603610ca257600160008281526020019081526020016000206040518061016001604052908160008201548152602001600182015481526020016002820160009054906101000a900473ffffffffffffffffffffffffffffffffffffffff1673ffffffffffffffffffffffffffffffffffffffff1673ffffffffffffffffffffffffffffffffffffffff16815260200160038201805461081a90612eb4565b80601f016020809104026020016040519081016040528092919081815260200182805461084690612eb4565b80156108935780601f1061086857610100808354040283529160200191610893565b820191906000526020600020905b81548152906001019060200180831161087657829003601f168201915b505050505081526020016004820180546108ac90612eb4565b80601f01602080910402602001604051908101604052809291908181526020018280546108d890612eb4565b80156109255780601f106108fa57610100808354040283529160200191610925565b820191906000526020600020905b81548152906001019060200180831161090857829003601f168201915b5050505050815260200160058201805461093e90612eb4565b80601f016020809104026020016040519081016040528092919081815260200182805461096a90612eb4565b80156109b75780601f1061098c576101008083540402835291602001916109b7565b820191906000526020600020905b81548152906001019060200180831161099a57829003601f168201915b505050505081526020016006820180546109d090612eb4565b80601f01602080910402602001604051908101604052809291908181526020018280546109fc90612eb4565b8015610a495780601f10610a1e57610100808354040283529160200191610a49565b820191906000526020600020905b815481529060010190602001808311610a2c57829003601f168201915b50505050508152602001600782018054610a6290612eb4565b80601f0160208091040260200160405190810160405280929190818152602001828054610a8e90612eb4565b8015610adb5780601f10610ab057610100808354040283529160200191610adb565b820191906000526020600020905b815481529060010190602001808311610abe57829003601f168201915b50505050508152602001600882018054610af490612eb4565b80601f0160208091040260200160405190810160405280929190818152602001828054610b2090612eb4565b8015610b6d5780601f10610b4257610100808354040283529160200191610b6d565b820191906000526020600020905b815481529060010190602001808311610b5057829003601f168201915b50505050508152602001600982018054610b8690612eb4565b80601f0160208091040260200160405190810160405280929190818152602001828054610bb290612eb4565b8015610bff5780601f10610bd457610100808354040283529160200191610bff565b820191906000526020600020905b815481529060010190602001808311610be257829003601f168201915b50505050508152602001600a82018054610c1890612eb4565b80601f0160208091040260200160405190810160405280929190818152602001828054610c4490612eb4565b8015610c915780601f10610c6657610100808354040283529160200191610c91565b820191906000526020600020905b815481529060010190602001808311610c7457829003601f168201915b505050505081525050925050610d96565b8080610cad90612e3d565b91505061070f565b506040518061016001604052806000815260200160008152602001600073ffffffffffffffffffffffffffffffffffffffff1681526020016040518060200160405280600081525081526020016040518060200160405280600081525081526020016040518060200160405280600081525081526020016040518060200160405280600081525081526020016040518060200160405280600081525081526020016040518060200160405280600081525081526020016040518060200160405280600081525081526020016040518060200160405280600081525081525091505b5092915050565b6000827f8e1604a838d0f1a9b2cda14a099e4ceb08e966cc6e05e8296f67b02d61a79f0960001b8114610e05576040517f08c379a0000000000000000000000000000000000000000000000000000000008152600401610dfc90612dee565b60405180910390fd5b8480600111158015610e1957506002548111155b610e58576040517f08c379a0000000000000000000000000000000000000000000000000000000008152600401610e4f906131d5565b60405180910390fd5b8360016000888152602001908152602001600020600001819055506001925050509392505050565b6000827f8e1604a838d0f1a9b2cda14a099e4ceb08e966cc6e05e8296f67b02d61a79f0960001b8114610ee8576040517f08c379a0000000000000000000000000000000000000000000000000000000008152600401610edf90612dee565b60405180910390fd5b8480600111158015610efc57506002548111155b610f3b576040517f08c379a0000000000000000000000000000000000000000000000000000000008152600401610f32906131d5565b60405180910390fd5b83600160008881526020019081526020016000206006019081610f5e9190613091565b506001925050509392505050565b6000827f8e1604a838d0f1a9b2cda14a099e4ceb08e966cc6e05e8296f67b02d61a79f0960001b8114610fd4576040517f08c379a0000000000000000000000000000000000000000000000000000000008152600401610fcb90612dee565b60405180910390fd5b8480600111158015610fe857506002548111155b611027576040517f08c379a000000000000000000000000000000000000000000000000000000000815260040161101e906131d5565b60405180910390fd5b8360016000888152602001908152602001600020600a01908161104a9190613091565b506001925050509392505050565b6000827f8e1604a838d0f1a9b2cda14a099e4ceb08e966cc6e05e8296f67b02d61a79f0960001b81146110c0576040517f08c379a00000000000000000000000000000000000000000000000000000000081526004016110b790612dee565b60405180910390fd5b84806001111580156110d457506002548111155b611113576040517f08c379a000000000000000000000000000000000000000000000000000000000815260040161110a906131d5565b60405180910390fd5b836001600088815260200190815260200160002060020160006101000a81548173ffffffffffffffffffffffffffffffffffffffff021916908373ffffffffffffffffffffffffffffffffffffffff1602179055506001925050509392505050565b6000827f8e1604a838d0f1a9b2cda14a099e4ceb08e966cc6e05e8296f67b02d61a79f0960001b81146111dd576040517f08c379a00000000000000000000000000000000000000000000000000000000081526004016111d490612dee565b60405180910390fd5b84806001111580156111f157506002548111155b611230576040517f08c379a0000000000000000000000000000000000000000000000000000000008152600401611227906131d5565b60405180910390fd5b836001600088815260200190815260200160002060030190816112539190613091565b506001925050509392505050565b6000827f8e1604a838d0f1a9b2cda14a099e4ceb08e966cc6e05e8296f67b02d61a79f0960001b81146112c9576040517f08c379a00000000000000000000000000000000000000000000000000000000081526004016112c090612dee565b60405180910390fd5b84806001111580156112dd57506002548111155b61131c576040517f08c379a0000000000000000000000000000000000000000000000000000000008152600401611313906131d5565b60405180910390fd5b8360016000888152602001908152602001600020600901908161133f9190613091565b506001925050509392505050565b6113556122f2565b3073ffffffffffffffffffffffffffffffffffffffff16ff5b6000827f8e1604a838d0f1a9b2cda14a099e4ceb08e966cc6e05e8296f67b02d61a79f0960001b81146113d6576040517f08c379a00000000000000000000000000000000000000000000000000000000081526004016113cd90612dee565b60405180910390fd5b84806001111580156113ea57506002548111155b611429576040517f08c379a0000000000000000000000000000000000000000000000000000000008152600401611420906131d5565b60405180910390fd5b8360016000888152602001908152602001600020600101819055506001925050509392505050565b60008060009054906101000a900473ffffffffffffffffffffffffffffffffffffffff16905090565b6000817f8e1604a838d0f1a9b2cda14a099e4ceb08e966cc6e05e8296f67b02d61a79f0960001b81146114e2576040517f08c379a00000000000000000000000000000000000000000000000000000000081526004016114d990612dee565b60405180910390fd5b83806001111580156114f657506002548111155b611535576040517f08c379a000000000000000000000000000000000000000000000000000000000815260040161152c906131d5565b60405180910390fd5b60006040518061016001604052806000815260200160008152602001600073ffffffffffffffffffffffffffffffffffffffff1681526020016040518060200160405280600081525081526020016040518060200160405280600081525081526020016040518060200160405280600081525081526020016040518060200160405280600081525081526020016040518060200160405280600081525081526020016040518060200160405280600081525081526020016040518060200160405280600081525081526020016040518060200160405280600081525081525090508060016000888152602001908152602001600020600082015181600001556020820151816001015560408201518160020160006101000a81548173ffffffffffffffffffffffffffffffffffffffff021916908373ffffffffffffffffffffffffffffffffffffffff160217905550606082015181600301908161169a9190613091565b5060808201518160040190816116b09190613091565b5060a08201518160050190816116c69190613091565b5060c08201518160060190816116dc9190613091565b5060e08201518160070190816116f29190613091565b506101008201518160080190816117099190613091565b506101208201518160090190816117209190613091565b5061014082015181600a0190816117379190613091565b509050506001935050505092915050565b61175061242d565b817f8e1604a838d0f1a9b2cda14a099e4ceb08e966cc6e05e8296f67b02d61a79f0960001b81146117b6576040517f08c379a00000000000000000000000000000000000000000000000000000000081526004016117ad90612dee565b60405180910390fd5b83806001111580156117ca57506002548111155b611809576040517f08c379a0000000000000000000000000000000000000000000000000000000008152600401611800906131d5565b60405180910390fd5b600160008681526020019081526020016000206040518061016001604052908160008201548152602001600182015481526020016002820160009054906101000a900473ffffffffffffffffffffffffffffffffffffffff1673ffffffffffffffffffffffffffffffffffffffff1673ffffffffffffffffffffffffffffffffffffffff1681526020016003820180546118a290612eb4565b80601f01602080910402602001604051908101604052809291908181526020018280546118ce90612eb4565b801561191b5780601f106118f05761010080835404028352916020019161191b565b820191906000526020600020905b8154815290600101906020018083116118fe57829003601f168201915b5050505050815260200160048201805461193490612eb4565b80601f016020809104026020016040519081016040528092919081815260200182805461196090612eb4565b80156119ad5780601f10611982576101008083540402835291602001916119ad565b820191906000526020600020905b81548152906001019060200180831161199057829003601f168201915b505050505081526020016005820180546119c690612eb4565b80601f01602080910402602001604051908101604052809291908181526020018280546119f290612eb4565b8015611a3f5780601f10611a1457610100808354040283529160200191611a3f565b820191906000526020600020905b815481529060010190602001808311611a2257829003601f168201915b50505050508152602001600682018054611a5890612eb4565b80601f0160208091040260200160405190810160405280929190818152602001828054611a8490612eb4565b8015611ad15780601f10611aa657610100808354040283529160200191611ad1565b820191906000526020600020905b815481529060010190602001808311611ab457829003601f168201915b50505050508152602001600782018054611aea90612eb4565b80601f0160208091040260200160405190810160405280929190818152602001828054611b1690612eb4565b8015611b635780601f10611b3857610100808354040283529160200191611b63565b820191906000526020600020905b815481529060010190602001808311611b4657829003601f168201915b50505050508152602001600882018054611b7c90612eb4565b80601f0160208091040260200160405190810160405280929190818152602001828054611ba890612eb4565b8015611bf55780601f10611bca57610100808354040283529160200191611bf5565b820191906000526020600020905b815481529060010190602001808311611bd857829003601f168201915b50505050508152602001600982018054611c0e90612eb4565b80601f0160208091040260200160405190810160405280929190818152602001828054611c3a90612eb4565b8015611c875780601f10611c5c57610100808354040283529160200191611c87565b820191906000526020600020905b815481529060010190602001808311611c6a57829003601f168201915b50505050508152602001600a82018054611ca090612eb4565b80601f0160208091040260200160405190810160405280929190818152602001828054611ccc90612eb4565b8015611d195780601f10611cee57610100808354040283529160200191611d19565b820191906000526020600020905b815481529060010190602001808311611cfc57829003601f168201915b5050505050815250509250505092915050565b6000827f8e1604a838d0f1a9b2cda14a099e4ceb08e966cc6e05e8296f67b02d61a79f0960001b8114611d94576040517f08c379a0000000000000000000000000000000000000000000000000000000008152600401611d8b90612dee565b60405180910390fd5b8480600111158015611da857506002548111155b611de7576040517f08c379a0000000000000000000000000000000000000000000000000000000008152600401611dde906131d5565b60405180910390fd5b83600160008881526020019081526020016000206007019081611e0a9190613091565b506001925050509392505050565b6000817f8e1604a838d0f1a9b2cda14a099e4ceb08e966cc6e05e8296f67b02d61a79f0960001b8114611e80576040517f08c379a0000000000000000000000000000000000000000000000000000000008152600401611e7790612dee565b60405180910390fd5b6000600190505b6002548111611f2b578473ffffffffffffffffffffffffffffffffffffffff166001600083815260200190815260200160002060020160009054906101000a900473ffffffffffffffffffffffffffffffffffffffff1673ffffffffffffffffffffffffffffffffffffffff1603611f18576001600082815260200190815260200160002060010154925050611f31565b8080611f2390612e3d565b915050611e87565b50600091505b5092915050565b6000827f8e1604a838d0f1a9b2cda14a099e4ceb08e966cc6e05e8296f67b02d61a79f0960001b8114611fa0576040517f08c379a0000000000000000000000000000000000000000000000000000000008152600401611f9790612dee565b60405180910390fd5b8480600111158015611fb457506002548111155b611ff3576040517f08c379a0000000000000000000000000000000000000000000000000000000008152600401611fea906131d5565b60405180910390fd5b836001600088815260200190815260200160002060080190816120169190613091565b506001925050509392505050565b6000827f8e1604a838d0f1a9b2cda14a099e4ceb08e966cc6e05e8296f67b02d61a79f0960001b811461208c576040517f08c379a000000000000000000000000000000000000000000000000000000000815260040161208390612dee565b60405180910390fd5b84806001111580156120a057506002548111155b6120df576040517f08c379a00000000000000000000000000000000000000000000000000000000081526004016120d6906131d5565b60405180910390fd5b836001600088815260200190815260200160002060040190816121029190613091565b506001925050509392505050565b6000827f8e1604a838d0f1a9b2cda14a099e4ceb08e966cc6e05e8296f67b02d61a79f0960001b8114612178576040517f08c379a000000000000000000000000000000000000000000000000000000000815260040161216f90612dee565b60405180910390fd5b848060011115801561218c57506002548111155b6121cb576040517f08c379a00000000000000000000000000000000000000000000000000000000081526004016121c2906131d5565b60405180910390fd5b836001600088815260200190815260200160002060050190816121ee9190613091565b506001925050509392505050565b6122046122f2565b600073ffffffffffffffffffffffffffffffffffffffff168173ffffffffffffffffffffffffffffffffffffffff1603612273576040517f08c379a000000000000000000000000000000000000000000000000000000000815260040161226a90613267565b60405180910390fd5b61227c81612369565b50565b6000817f8e1604a838d0f1a9b2cda14a099e4ceb08e966cc6e05e8296f67b02d61a79f0960001b81146122e7576040517f08c379a00000000000000000000000000000000000000000000000000000000081526004016122de90612dee565b60405180910390fd5b600254915050919050565b3373ffffffffffffffffffffffffffffffffffffffff16612311611451565b73ffffffffffffffffffffffffffffffffffffffff1614612367576040517f08c379a000000000000000000000000000000000000000000000000000000000815260040161235e906132d3565b60405180910390fd5b565b60008060009054906101000a900473ffffffffffffffffffffffffffffffffffffffff169050816000806101000a81548173ffffffffffffffffffffffffffffffffffffffff021916908373ffffffffffffffffffffffffffffffffffffffff1602179055508173ffffffffffffffffffffffffffffffffffffffff168173ffffffffffffffffffffffffffffffffffffffff167f8be0079c531659141344cd1fd0a4f28419497f9722a3daafe3b4186f6b6457e060405160405180910390a35050565b6040518061016001604052806000815260200160008152602001600073ffffffffffffffffffffffffffffffffffffffff16815260200160608152602001606081526020016060815260200160608152602001606081526020016060815260200160608152602001606081525090565b6000604051905090565b600080fd5b600080fd5b600080fd5b6000601f19601f8301169050919050565b7f4e487b7100000000000000000000000000000000000000000000000000000000600052604160045260246000fd5b6124ff826124b6565b810181811067ffffffffffffffff8211171561251e5761251d6124c7565b5b80604052505050565b600061253161249d565b905061253d82826124f6565b919050565b600080fd5b6000819050919050565b61255a81612547565b811461256557600080fd5b50565b60008135905061257781612551565b92915050565b600073ffffffffffffffffffffffffffffffffffffffff82169050919050565b60006125a88261257d565b9050919050565b6125b88161259d565b81146125c357600080fd5b50565b6000813590506125d5816125af565b92915050565b600080fd5b600080fd5b600067ffffffffffffffff821115612600576125ff6124c7565b5b612609826124b6565b9050602081019050919050565b82818337600083830152505050565b6000612638612633846125e5565b612527565b905082815260208101848484011115612654576126536125e0565b5b61265f848285612616565b509392505050565b600082601f83011261267c5761267b6125db565b5b813561268c848260208601612625565b91505092915050565b600061016082840312156126ac576126ab6124b1565b5b6126b7610160612527565b905060006126c784828501612568565b60008301525060206126db84828501612568565b60208301525060406126ef848285016125c6565b604083015250606082013567ffffffffffffffff81111561271357612712612542565b5b61271f84828501612667565b606083015250608082013567ffffffffffffffff81111561274357612742612542565b5b61274f84828501612667565b60808301525060a082013567ffffffffffffffff81111561277357612772612542565b5b61277f84828501612667565b60a08301525060c082013567ffffffffffffffff8111156127a3576127a2612542565b5b6127af84828501612667565b60c08301525060e082013567ffffffffffffffff8111156127d3576127d2612542565b5b6127df84828501612667565b60e08301525061010082013567ffffffffffffffff81111561280457612803612542565b5b61281084828501612667565b6101008301525061012082013567ffffffffffffffff81111561283657612835612542565b5b61284284828501612667565b6101208301525061014082013567ffffffffffffffff81111561286857612867612542565b5b61287484828501612667565b6101408301525092915050565b6000819050919050565b61289481612881565b811461289f57600080fd5b50565b6000813590506128b18161288b565b92915050565b600080604083850312156128ce576128cd6124a7565b5b600083013567ffffffffffffffff8111156128ec576128eb6124ac565b5b6128f885828601612695565b9250506020612909858286016128a2565b9150509250929050565b60008115159050919050565b61292881612913565b82525050565b6000602082019050612943600083018461291f565b92915050565b600080604083850312156129605761295f6124a7565b5b600061296e858286016125c6565b925050602061297f858286016128a2565b9150509250929050565b61299281612547565b82525050565b6129a18161259d565b82525050565b600081519050919050565b600082825260208201905092915050565b60005b838110156129e15780820151818401526020810190506129c6565b60008484015250505050565b60006129f8826129a7565b612a0281856129b2565b9350612a128185602086016129c3565b612a1b816124b6565b840191505092915050565b600061016083016000830151612a3f6000860182612989565b506020830151612a526020860182612989565b506040830151612a656040860182612998565b5060608301518482036060860152612a7d82826129ed565b91505060808301518482036080860152612a9782826129ed565b91505060a083015184820360a0860152612ab182826129ed565b91505060c083015184820360c0860152612acb82826129ed565b91505060e083015184820360e0860152612ae582826129ed565b915050610100830151848203610100860152612b0182826129ed565b915050610120830151848203610120860152612b1d82826129ed565b915050610140830151848203610140860152612b3982826129ed565b9150508091505092915050565b60006020820190508181036000830152612b608184612a26565b905092915050565b600080600060608486031215612b8157612b806124a7565b5b6000612b8f86828701612568565b9350506020612ba0868287016128a2565b9250506040612bb186828701612568565b9150509250925092565b600080600060608486031215612bd457612bd36124a7565b5b6000612be286828701612568565b9350506020612bf3868287016128a2565b925050604084013567ffffffffffffffff811115612c1457612c136124ac565b5b612c2086828701612667565b9150509250925092565b600080600060608486031215612c4357612c426124a7565b5b6000612c5186828701612568565b9350506020612c62868287016128a2565b9250506040612c73868287016125c6565b9150509250925092565b612c868161259d565b82525050565b6000602082019050612ca16000830184612c7d565b92915050565b60008060408385031215612cbe57612cbd6124a7565b5b6000612ccc85828601612568565b9250506020612cdd858286016128a2565b9150509250929050565b612cf081612547565b82525050565b6000602082019050612d0b6000830184612ce7565b92915050565b600060208284031215612d2757612d266124a7565b5b6000612d35848285016125c6565b91505092915050565b600060208284031215612d5457612d536124a7565b5b6000612d62848285016128a2565b91505092915050565b600082825260208201905092915050565b7f4461746162617365204c697374427573696e6573733a20536563726574206b6560008201527f79206572726f7200000000000000000000000000000000000000000000000000602082015250565b6000612dd8602783612d6b565b9150612de382612d7c565b604082019050919050565b60006020820190508181036000830152612e0781612dcb565b9050919050565b7f4e487b7100000000000000000000000000000000000000000000000000000000600052601160045260246000fd5b6000612e4882612547565b91507fffffffffffffffffffffffffffffffffffffffffffffffffffffffffffffffff8203612e7a57612e79612e0e565b5b600182019050919050565b7f4e487b7100000000000000000000000000000000000000000000000000000000600052602260045260246000fd5b60006002820490506001821680612ecc57607f821691505b602082108103612edf57612ede612e85565b5b50919050565b60008190508160005260206000209050919050565b60006020601f8301049050919050565b600082821b905092915050565b600060088302612f477fffffffffffffffffffffffffffffffffffffffffffffffffffffffffffffffff82612f0a565b612f518683612f0a565b95508019841693508086168417925050509392505050565b6000819050919050565b6000612f8e612f89612f8484612547565b612f69565b612547565b9050919050565b6000819050919050565b612fa883612f73565b612fbc612fb482612f95565b848454612f17565b825550505050565b600090565b612fd1612fc4565b612fdc818484612f9f565b505050565b5b8181101561300057612ff5600082612fc9565b600181019050612fe2565b5050565b601f8211156130455761301681612ee5565b61301f84612efa565b8101602085101561302e578190505b61304261303a85612efa565b830182612fe1565b50505b505050565b600082821c905092915050565b60006130686000198460080261304a565b1980831691505092915050565b60006130818383613057565b9150826002028217905092915050565b61309a826129a7565b67ffffffffffffffff8111156130b3576130b26124c7565b5b6130bd8254612eb4565b6130c8828285613004565b600060209050601f8311600181146130fb57600084156130e9578287015190505b6130f38582613075565b86555061315b565b601f19841661310986612ee5565b60005b828110156131315784890151825560018201915060208501945060208101905061310c565b8683101561314e578489015161314a601f891682613057565b8355505b6001600288020188555050505b505050505050565b7f4461746162617365204c697374427573696e6573733a20496e76616c6964206960008201527f6e64657800000000000000000000000000000000000000000000000000000000602082015250565b60006131bf602483612d6b565b91506131ca82613163565b604082019050919050565b600060208201905081810360008301526131ee816131b2565b9050919050565b7f4f776e61626c653a206e6577206f776e657220697320746865207a65726f206160008201527f6464726573730000000000000000000000000000000000000000000000000000602082015250565b6000613251602683612d6b565b915061325c826131f5565b604082019050919050565b6000602082019050818103600083015261328081613244565b9050919050565b7f4f776e61626c653a2063616c6c6572206973206e6f7420746865206f776e6572600082015250565b60006132bd602083612d6b565b91506132c882613287565b602082019050919050565b600060208201905081810360008301526132ec816132b0565b905091905056fea26469706673582212209a23a3934b01184a2639699c90cdfb6e2fcff3036b45742f74b9def48ac1494e64736f6c63430008100033",
					"opcodes": "PUSH1 0x80 PUSH1 0x40 MSTORE PUSH1 0x0 PUSH1 0x2 SSTORE CALLVALUE DUP1 ISZERO PUSH2 0x15 JUMPI PUSH1 0x0 DUP1 REVERT JUMPDEST POP CALLER PUSH1 0x0 DUP1 PUSH2 0x100 EXP DUP2 SLOAD DUP2 PUSH20 0xFFFFFFFFFFFFFFFFFFFFFFFFFFFFFFFFFFFFFFFF MUL NOT AND SWAP1 DUP4 PUSH20 0xFFFFFFFFFFFFFFFFFFFFFFFFFFFFFFFFFFFFFFFF AND MUL OR SWAP1 SSTORE POP PUSH2 0x3329 DUP1 PUSH2 0x65 PUSH1 0x0 CODECOPY PUSH1 0x0 RETURN INVALID PUSH1 0x80 PUSH1 0x40 MSTORE CALLVALUE DUP1 ISZERO PUSH2 0x10 JUMPI PUSH1 0x0 DUP1 REVERT JUMPDEST POP PUSH1 0x4 CALLDATASIZE LT PUSH2 0x12C JUMPI PUSH1 0x0 CALLDATALOAD PUSH1 0xE0 SHR DUP1 PUSH4 0x8DA5CB5B GT PUSH2 0xAD JUMPI DUP1 PUSH4 0xD45C8ABF GT PUSH2 0x71 JUMPI DUP1 PUSH4 0xD45C8ABF EQ PUSH2 0x3C9 JUMPI DUP1 PUSH4 0xD49CB146 EQ PUSH2 0x3F9 JUMPI DUP1 PUSH4 0xE3F34371 EQ PUSH2 0x429 JUMPI DUP1 PUSH4 0xF2FDE38B EQ PUSH2 0x459 JUMPI DUP1 PUSH4 0xFD82E9DD EQ PUSH2 0x475 JUMPI PUSH2 0x12C JUMP JUMPDEST DUP1 PUSH4 0x8DA5CB5B EQ PUSH2 0x2EB JUMPI DUP1 PUSH4 0xB615C00A EQ PUSH2 0x309 JUMPI DUP1 PUSH4 0xC78A6741 EQ PUSH2 0x339 JUMPI DUP1 PUSH4 0xD2AF71A6 EQ PUSH2 0x369 JUMPI DUP1 PUSH4 0xD32A04C7 EQ PUSH2 0x399 JUMPI PUSH2 0x12C JUMP JUMPDEST DUP1 PUSH4 0x2E22EAFE GT PUSH2 0xF4 JUMPI DUP1 PUSH4 0x2E22EAFE EQ PUSH2 0x221 JUMPI DUP1 PUSH4 0x413896E4 EQ PUSH2 0x251 JUMPI DUP1 PUSH4 0x800F2234 EQ PUSH2 0x281 JUMPI DUP1 PUSH4 0x83197EF0 EQ PUSH2 0x2B1 JUMPI DUP1 PUSH4 0x8827B05F EQ PUSH2 0x2BB JUMPI PUSH2 0x12C JUMP JUMPDEST DUP1 PUSH4 0x4A28C07 EQ PUSH2 0x131 JUMPI DUP1 PUSH4 0x236DF93C EQ PUSH2 0x161 JUMPI DUP1 PUSH4 0x294B4B6B EQ PUSH2 0x191 JUMPI DUP1 PUSH4 0x29CD6311 EQ PUSH2 0x1C1 JUMPI DUP1 PUSH4 0x2C3CE919 EQ PUSH2 0x1F1 JUMPI JUMPDEST PUSH1 0x0 DUP1 REVERT JUMPDEST PUSH2 0x14B PUSH1 0x4 DUP1 CALLDATASIZE SUB DUP2 ADD SWAP1 PUSH2 0x146 SWAP2 SWAP1 PUSH2 0x28B7 JUMP JUMPDEST PUSH2 0x4A5 JUMP JUMPDEST PUSH1 0x40 MLOAD PUSH2 0x158 SWAP2 SWAP1 PUSH2 0x292E JUMP JUMPDEST PUSH1 0x40 MLOAD DUP1 SWAP2 SUB SWAP1 RETURN JUMPDEST PUSH2 0x17B PUSH1 0x4 DUP1 CALLDATASIZE SUB DUP2 ADD SWAP1 PUSH2 0x176 SWAP2 SWAP1 PUSH2 0x2949 JUMP JUMPDEST PUSH2 0x69A JUMP JUMPDEST PUSH1 0x40 MLOAD PUSH2 0x188 SWAP2 SWAP1 PUSH2 0x2B46 JUMP JUMPDEST PUSH1 0x40 MLOAD DUP1 SWAP2 SUB SWAP1 RETURN JUMPDEST PUSH2 0x1AB PUSH1 0x4 DUP1 CALLDATASIZE SUB DUP2 ADD SWAP1 PUSH2 0x1A6 SWAP2 SWAP1 PUSH2 0x2B68 JUMP JUMPDEST PUSH2 0xD9D JUMP JUMPDEST PUSH1 0x40 MLOAD PUSH2 0x1B8 SWAP2 SWAP1 PUSH2 0x292E JUMP JUMPDEST PUSH1 0x40 MLOAD DUP1 SWAP2 SUB SWAP1 RETURN JUMPDEST PUSH2 0x1DB PUSH1 0x4 DUP1 CALLDATASIZE SUB DUP2 ADD SWAP1 PUSH2 0x1D6 SWAP2 SWAP1 PUSH2 0x2BBB JUMP JUMPDEST PUSH2 0xE80 JUMP JUMPDEST PUSH1 0x40 MLOAD PUSH2 0x1E8 SWAP2 SWAP1 PUSH2 0x292E JUMP JUMPDEST PUSH1 0x40 MLOAD DUP1 SWAP2 SUB SWAP1 RETURN JUMPDEST PUSH2 0x20B PUSH1 0x4 DUP1 CALLDATASIZE SUB DUP2 ADD SWAP1 PUSH2 0x206 SWAP2 SWAP1 PUSH2 0x2BBB JUMP JUMPDEST PUSH2 0xF6C JUMP JUMPDEST PUSH1 0x40 MLOAD PUSH2 0x218 SWAP2 SWAP1 PUSH2 0x292E JUMP JUMPDEST PUSH1 0x40 MLOAD DUP1 SWAP2 SUB SWAP1 RETURN JUMPDEST PUSH2 0x23B PUSH1 0x4 DUP1 CALLDATASIZE SUB DUP2 ADD SWAP1 PUSH2 0x236 SWAP2 SWAP1 PUSH2 0x2C2A JUMP JUMPDEST PUSH2 0x1058 JUMP JUMPDEST PUSH1 0x40 MLOAD PUSH2 0x248 SWAP2 SWAP1 PUSH2 0x292E JUMP JUMPDEST PUSH1 0x40 MLOAD DUP1 SWAP2 SUB SWAP1 RETURN JUMPDEST PUSH2 0x26B PUSH1 0x4 DUP1 CALLDATASIZE SUB DUP2 ADD SWAP1 PUSH2 0x266 SWAP2 SWAP1 PUSH2 0x2BBB JUMP JUMPDEST PUSH2 0x1175 JUMP JUMPDEST PUSH1 0x40 MLOAD PUSH2 0x278 SWAP2 SWAP1 PUSH2 0x292E JUMP JUMPDEST PUSH1 0x40 MLOAD DUP1 SWAP2 SUB SWAP1 RETURN JUMPDEST PUSH2 0x29B PUSH1 0x4 DUP1 CALLDATASIZE SUB DUP2 ADD SWAP1 PUSH2 0x296 SWAP2 SWAP1 PUSH2 0x2BBB JUMP JUMPDEST PUSH2 0x1261 JUMP JUMPDEST PUSH1 0x40 MLOAD PUSH2 0x2A8 SWAP2 SWAP1 PUSH2 0x292E JUMP JUMPDEST PUSH1 0x40 MLOAD DUP1 SWAP2 SUB SWAP1 RETURN JUMPDEST PUSH2 0x2B9 PUSH2 0x134D JUMP JUMPDEST STOP JUMPDEST PUSH2 0x2D5 PUSH1 0x4 DUP1 CALLDATASIZE SUB DUP2 ADD SWAP1 PUSH2 0x2D0 SWAP2 SWAP1 PUSH2 0x2B68 JUMP JUMPDEST PUSH2 0x136E JUMP JUMPDEST PUSH1 0x40 MLOAD PUSH2 0x2E2 SWAP2 SWAP1 PUSH2 0x292E JUMP JUMPDEST PUSH1 0x40 MLOAD DUP1 SWAP2 SUB SWAP1 RETURN JUMPDEST PUSH2 0x2F3 PUSH2 0x1451 JUMP JUMPDEST PUSH1 0x40 MLOAD PUSH2 0x300 SWAP2 SWAP1 PUSH2 0x2C8C JUMP JUMPDEST PUSH1 0x40 MLOAD DUP1 SWAP2 SUB SWAP1 RETURN JUMPDEST PUSH2 0x323 PUSH1 0x4 DUP1 CALLDATASIZE SUB DUP2 ADD SWAP1 PUSH2 0x31E SWAP2 SWAP1 PUSH2 0x2CA7 JUMP JUMPDEST PUSH2 0x147A JUMP JUMPDEST PUSH1 0x40 MLOAD PUSH2 0x330 SWAP2 SWAP1 PUSH2 0x292E JUMP JUMPDEST PUSH1 0x40 MLOAD DUP1 SWAP2 SUB SWAP1 RETURN JUMPDEST PUSH2 0x353 PUSH1 0x4 DUP1 CALLDATASIZE SUB DUP2 ADD SWAP1 PUSH2 0x34E SWAP2 SWAP1 PUSH2 0x2CA7 JUMP JUMPDEST PUSH2 0x1748 JUMP JUMPDEST PUSH1 0x40 MLOAD PUSH2 0x360 SWAP2 SWAP1 PUSH2 0x2B46 JUMP JUMPDEST PUSH1 0x40 MLOAD DUP1 SWAP2 SUB SWAP1 RETURN JUMPDEST PUSH2 0x383 PUSH1 0x4 DUP1 CALLDATASIZE SUB DUP2 ADD SWAP1 PUSH2 0x37E SWAP2 SWAP1 PUSH2 0x2BBB JUMP JUMPDEST PUSH2 0x1D2C JUMP JUMPDEST PUSH1 0x40 MLOAD PUSH2 0x390 SWAP2 SWAP1 PUSH2 0x292E JUMP JUMPDEST PUSH1 0x40 MLOAD DUP1 SWAP2 SUB SWAP1 RETURN JUMPDEST PUSH2 0x3B3 PUSH1 0x4 DUP1 CALLDATASIZE SUB DUP2 ADD SWAP1 PUSH2 0x3AE SWAP2 SWAP1 PUSH2 0x2949 JUMP JUMPDEST PUSH2 0x1E18 JUMP JUMPDEST PUSH1 0x40 MLOAD PUSH2 0x3C0 SWAP2 SWAP1 PUSH2 0x2CF6 JUMP JUMPDEST PUSH1 0x40 MLOAD DUP1 SWAP2 SUB SWAP1 RETURN JUMPDEST PUSH2 0x3E3 PUSH1 0x4 DUP1 CALLDATASIZE SUB DUP2 ADD SWAP1 PUSH2 0x3DE SWAP2 SWAP1 PUSH2 0x2BBB JUMP JUMPDEST PUSH2 0x1F38 JUMP JUMPDEST PUSH1 0x40 MLOAD PUSH2 0x3F0 SWAP2 SWAP1 PUSH2 0x292E JUMP JUMPDEST PUSH1 0x40 MLOAD DUP1 SWAP2 SUB SWAP1 RETURN JUMPDEST PUSH2 0x413 PUSH1 0x4 DUP1 CALLDATASIZE SUB DUP2 ADD SWAP1 PUSH2 0x40E SWAP2 SWAP1 PUSH2 0x2BBB JUMP JUMPDEST PUSH2 0x2024 JUMP JUMPDEST PUSH1 0x40 MLOAD PUSH2 0x420 SWAP2 SWAP1 PUSH2 0x292E JUMP JUMPDEST PUSH1 0x40 MLOAD DUP1 SWAP2 SUB SWAP1 RETURN JUMPDEST PUSH2 0x443 PUSH1 0x4 DUP1 CALLDATASIZE SUB DUP2 ADD SWAP1 PUSH2 0x43E SWAP2 SWAP1 PUSH2 0x2BBB JUMP JUMPDEST PUSH2 0x2110 JUMP JUMPDEST PUSH1 0x40 MLOAD PUSH2 0x450 SWAP2 SWAP1 PUSH2 0x292E JUMP JUMPDEST PUSH1 0x40 MLOAD DUP1 SWAP2 SUB SWAP1 RETURN JUMPDEST PUSH2 0x473 PUSH1 0x4 DUP1 CALLDATASIZE SUB DUP2 ADD SWAP1 PUSH2 0x46E SWAP2 SWAP1 PUSH2 0x2D11 JUMP JUMPDEST PUSH2 0x21FC JUMP JUMPDEST STOP JUMPDEST PUSH2 0x48F PUSH1 0x4 DUP1 CALLDATASIZE SUB DUP2 ADD SWAP1 PUSH2 0x48A SWAP2 SWAP1 PUSH2 0x2D3E JUMP JUMPDEST PUSH2 0x227F JUMP JUMPDEST PUSH1 0x40 MLOAD PUSH2 0x49C SWAP2 SWAP1 PUSH2 0x2CF6 JUMP JUMPDEST PUSH1 0x40 MLOAD DUP1 SWAP2 SUB SWAP1 RETURN JUMPDEST PUSH1 0x0 DUP2 PUSH32 0x8E1604A838D0F1A9B2CDA14A099E4CEB08E966CC6E05E8296F67B02D61A79F09 PUSH1 0x0 SHL DUP2 EQ PUSH2 0x50D JUMPI PUSH1 0x40 MLOAD PUSH32 0x8C379A000000000000000000000000000000000000000000000000000000000 DUP2 MSTORE PUSH1 0x4 ADD PUSH2 0x504 SWAP1 PUSH2 0x2DEE JUMP JUMPDEST PUSH1 0x40 MLOAD DUP1 SWAP2 SUB SWAP1 REVERT JUMPDEST PUSH1 0x2 PUSH1 0x0 DUP2 SLOAD DUP1 SWAP3 SWAP2 SWAP1 PUSH2 0x520 SWAP1 PUSH2 0x2E3D JUMP JUMPDEST SWAP2 SWAP1 POP SSTORE POP PUSH1 0x2 SLOAD DUP5 PUSH1 0x20 ADD DUP2 DUP2 MSTORE POP POP DUP4 PUSH1 0x1 PUSH1 0x0 PUSH1 0x2 SLOAD DUP2 MSTORE PUSH1 0x20 ADD SWAP1 DUP2 MSTORE PUSH1 0x20 ADD PUSH1 0x0 KECCAK256 PUSH1 0x0 DUP3 ADD MLOAD DUP2 PUSH1 0x0 ADD SSTORE PUSH1 0x20 DUP3 ADD MLOAD DUP2 PUSH1 0x1 ADD SSTORE PUSH1 0x40 DUP3 ADD MLOAD DUP2 PUSH1 0x2 ADD PUSH1 0x0 PUSH2 0x100 EXP DUP2 SLOAD DUP2 PUSH20 0xFFFFFFFFFFFFFFFFFFFFFFFFFFFFFFFFFFFFFFFF MUL NOT AND SWAP1 DUP4 PUSH20 0xFFFFFFFFFFFFFFFFFFFFFFFFFFFFFFFFFFFFFFFF AND MUL OR SWAP1 SSTORE POP PUSH1 0x60 DUP3 ADD MLOAD DUP2 PUSH1 0x3 ADD SWAP1 DUP2 PUSH2 0x5B7 SWAP2 SWAP1 PUSH2 0x3091 JUMP JUMPDEST POP PUSH1 0x80 DUP3 ADD MLOAD DUP2 PUSH1 0x4 ADD SWAP1 DUP2 PUSH2 0x5CD SWAP2 SWAP1 PUSH2 0x3091 JUMP JUMPDEST POP PUSH1 0xA0 DUP3 ADD MLOAD DUP2 PUSH1 0x5 ADD SWAP1 DUP2 PUSH2 0x5E3 SWAP2 SWAP1 PUSH2 0x3091 JUMP JUMPDEST POP PUSH1 0xC0 DUP3 ADD MLOAD DUP2 PUSH1 0x6 ADD SWAP1 DUP2 PUSH2 0x5F9 SWAP2 SWAP1 PUSH2 0x3091 JUMP JUMPDEST POP PUSH1 0xE0 DUP3 ADD MLOAD DUP2 PUSH1 0x7 ADD SWAP1 DUP2 PUSH2 0x60F SWAP2 SWAP1 PUSH2 0x3091 JUMP JUMPDEST POP PUSH2 0x100 DUP3 ADD MLOAD DUP2 PUSH1 0x8 ADD SWAP1 DUP2 PUSH2 0x626 SWAP2 SWAP1 PUSH2 0x3091 JUMP JUMPDEST POP PUSH2 0x120 DUP3 ADD MLOAD DUP2 PUSH1 0x9 ADD SWAP1 DUP2 PUSH2 0x63D SWAP2 SWAP1 PUSH2 0x3091 JUMP JUMPDEST POP PUSH2 0x140 DUP3 ADD MLOAD DUP2 PUSH1 0xA ADD SWAP1 DUP2 PUSH2 0x654 SWAP2 SWAP1 PUSH2 0x3091 JUMP JUMPDEST POP SWAP1 POP POP PUSH32 0xF1C85255584806819BCF2D77A175D3EC22E4D0E596C27FCDDC47379DEDEDB756 DUP5 PUSH1 0x40 MLOAD PUSH2 0x687 SWAP2 SWAP1 PUSH2 0x2B46 JUMP JUMPDEST PUSH1 0x40 MLOAD DUP1 SWAP2 SUB SWAP1 LOG1 PUSH1 0x1 SWAP2 POP POP SWAP3 SWAP2 POP POP JUMP JUMPDEST PUSH2 0x6A2 PUSH2 0x242D JUMP JUMPDEST DUP2 PUSH32 0x8E1604A838D0F1A9B2CDA14A099E4CEB08E966CC6E05E8296F67B02D61A79F09 PUSH1 0x0 SHL DUP2 EQ PUSH2 0x708 JUMPI PUSH1 0x40 MLOAD PUSH32 0x8C379A000000000000000000000000000000000000000000000000000000000 DUP2 MSTORE PUSH1 0x4 ADD PUSH2 0x6FF SWAP1 PUSH2 0x2DEE JUMP JUMPDEST PUSH1 0x40 MLOAD DUP1 SWAP2 SUB SWAP1 REVERT JUMPDEST PUSH1 0x0 PUSH1 0x1 SWAP1 POP JUMPDEST PUSH1 0x2 SLOAD DUP2 GT PUSH2 0xCB5 JUMPI DUP5 PUSH20 0xFFFFFFFFFFFFFFFFFFFFFFFFFFFFFFFFFFFFFFFF AND PUSH1 0x1 PUSH1 0x0 DUP4 DUP2 MSTORE PUSH1 0x20 ADD SWAP1 DUP2 MSTORE PUSH1 0x20 ADD PUSH1 0x0 KECCAK256 PUSH1 0x2 ADD PUSH1 0x0 SWAP1 SLOAD SWAP1 PUSH2 0x100 EXP SWAP1 DIV PUSH20 0xFFFFFFFFFFFFFFFFFFFFFFFFFFFFFFFFFFFFFFFF AND PUSH20 0xFFFFFFFFFFFFFFFFFFFFFFFFFFFFFFFFFFFFFFFF AND SUB PUSH2 0xCA2 JUMPI PUSH1 0x1 PUSH1 0x0 DUP3 DUP2 MSTORE PUSH1 0x20 ADD SWAP1 DUP2 MSTORE PUSH1 0x20 ADD PUSH1 0x0 KECCAK256 PUSH1 0x40 MLOAD DUP1 PUSH2 0x160 ADD PUSH1 0x40 MSTORE SWAP1 DUP2 PUSH1 0x0 DUP3 ADD SLOAD DUP2 MSTORE PUSH1 0x20 ADD PUSH1 0x1 DUP3 ADD SLOAD DUP2 MSTORE PUSH1 0x20 ADD PUSH1 0x2 DUP3 ADD PUSH1 0x0 SWAP1 SLOAD SWAP1 PUSH2 0x100 EXP SWAP1 DIV PUSH20 0xFFFFFFFFFFFFFFFFFFFFFFFFFFFFFFFFFFFFFFFF AND PUSH20 0xFFFFFFFFFFFFFFFFFFFFFFFFFFFFFFFFFFFFFFFF AND PUSH20 0xFFFFFFFFFFFFFFFFFFFFFFFFFFFFFFFFFFFFFFFF AND DUP2 MSTORE PUSH1 0x20 ADD PUSH1 0x3 DUP3 ADD DUP1 SLOAD PUSH2 0x81A SWAP1 PUSH2 0x2EB4 JUMP JUMPDEST DUP1 PUSH1 0x1F ADD PUSH1 0x20 DUP1 SWAP2 DIV MUL PUSH1 0x20 ADD PUSH1 0x40 MLOAD SWAP1 DUP2 ADD PUSH1 0x40 MSTORE DUP1 SWAP3 SWAP2 SWAP1 DUP2 DUP2 MSTORE PUSH1 0x20 ADD DUP3 DUP1 SLOAD PUSH2 0x846 SWAP1 PUSH2 0x2EB4 JUMP JUMPDEST DUP1 ISZERO PUSH2 0x893 JUMPI DUP1 PUSH1 0x1F LT PUSH2 0x868 JUMPI PUSH2 0x100 DUP1 DUP4 SLOAD DIV MUL DUP4 MSTORE SWAP2 PUSH1 0x20 ADD SWAP2 PUSH2 0x893 JUMP JUMPDEST DUP3 ADD SWAP2 SWAP1 PUSH1 0x0 MSTORE PUSH1 0x20 PUSH1 0x0 KECCAK256 SWAP1 JUMPDEST DUP2 SLOAD DUP2 MSTORE SWAP1 PUSH1 0x1 ADD SWAP1 PUSH1 0x20 ADD DUP1 DUP4 GT PUSH2 0x876 JUMPI DUP3 SWAP1 SUB PUSH1 0x1F AND DUP3 ADD SWAP2 JUMPDEST POP POP POP POP POP DUP2 MSTORE PUSH1 0x20 ADD PUSH1 0x4 DUP3 ADD DUP1 SLOAD PUSH2 0x8AC SWAP1 PUSH2 0x2EB4 JUMP JUMPDEST DUP1 PUSH1 0x1F ADD PUSH1 0x20 DUP1 SWAP2 DIV MUL PUSH1 0x20 ADD PUSH1 0x40 MLOAD SWAP1 DUP2 ADD PUSH1 0x40 MSTORE DUP1 SWAP3 SWAP2 SWAP1 DUP2 DUP2 MSTORE PUSH1 0x20 ADD DUP3 DUP1 SLOAD PUSH2 0x8D8 SWAP1 PUSH2 0x2EB4 JUMP JUMPDEST DUP1 ISZERO PUSH2 0x925 JUMPI DUP1 PUSH1 0x1F LT PUSH2 0x8FA JUMPI PUSH2 0x100 DUP1 DUP4 SLOAD DIV MUL DUP4 MSTORE SWAP2 PUSH1 0x20 ADD SWAP2 PUSH2 0x925 JUMP JUMPDEST DUP3 ADD SWAP2 SWAP1 PUSH1 0x0 MSTORE PUSH1 0x20 PUSH1 0x0 KECCAK256 SWAP1 JUMPDEST DUP2 SLOAD DUP2 MSTORE SWAP1 PUSH1 0x1 ADD SWAP1 PUSH1 0x20 ADD DUP1 DUP4 GT PUSH2 0x908 JUMPI DUP3 SWAP1 SUB PUSH1 0x1F AND DUP3 ADD SWAP2 JUMPDEST POP POP POP POP POP DUP2 MSTORE PUSH1 0x20 ADD PUSH1 0x5 DUP3 ADD DUP1 SLOAD PUSH2 0x93E SWAP1 PUSH2 0x2EB4 JUMP JUMPDEST DUP1 PUSH1 0x1F ADD PUSH1 0x20 DUP1 SWAP2 DIV MUL PUSH1 0x20 ADD PUSH1 0x40 MLOAD SWAP1 DUP2 ADD PUSH1 0x40 MSTORE DUP1 SWAP3 SWAP2 SWAP1 DUP2 DUP2 MSTORE PUSH1 0x20 ADD DUP3 DUP1 SLOAD PUSH2 0x96A SWAP1 PUSH2 0x2EB4 JUMP JUMPDEST DUP1 ISZERO PUSH2 0x9B7 JUMPI DUP1 PUSH1 0x1F LT PUSH2 0x98C JUMPI PUSH2 0x100 DUP1 DUP4 SLOAD DIV MUL DUP4 MSTORE SWAP2 PUSH1 0x20 ADD SWAP2 PUSH2 0x9B7 JUMP JUMPDEST DUP3 ADD SWAP2 SWAP1 PUSH1 0x0 MSTORE PUSH1 0x20 PUSH1 0x0 KECCAK256 SWAP1 JUMPDEST DUP2 SLOAD DUP2 MSTORE SWAP1 PUSH1 0x1 ADD SWAP1 PUSH1 0x20 ADD DUP1 DUP4 GT PUSH2 0x99A JUMPI DUP3 SWAP1 SUB PUSH1 0x1F AND DUP3 ADD SWAP2 JUMPDEST POP POP POP POP POP DUP2 MSTORE PUSH1 0x20 ADD PUSH1 0x6 DUP3 ADD DUP1 SLOAD PUSH2 0x9D0 SWAP1 PUSH2 0x2EB4 JUMP JUMPDEST DUP1 PUSH1 0x1F ADD PUSH1 0x20 DUP1 SWAP2 DIV MUL PUSH1 0x20 ADD PUSH1 0x40 MLOAD SWAP1 DUP2 ADD PUSH1 0x40 MSTORE DUP1 SWAP3 SWAP2 SWAP1 DUP2 DUP2 MSTORE PUSH1 0x20 ADD DUP3 DUP1 SLOAD PUSH2 0x9FC SWAP1 PUSH2 0x2EB4 JUMP JUMPDEST DUP1 ISZERO PUSH2 0xA49 JUMPI DUP1 PUSH1 0x1F LT PUSH2 0xA1E JUMPI PUSH2 0x100 DUP1 DUP4 SLOAD DIV MUL DUP4 MSTORE SWAP2 PUSH1 0x20 ADD SWAP2 PUSH2 0xA49 JUMP JUMPDEST DUP3 ADD SWAP2 SWAP1 PUSH1 0x0 MSTORE PUSH1 0x20 PUSH1 0x0 KECCAK256 SWAP1 JUMPDEST DUP2 SLOAD DUP2 MSTORE SWAP1 PUSH1 0x1 ADD SWAP1 PUSH1 0x20 ADD DUP1 DUP4 GT PUSH2 0xA2C JUMPI DUP3 SWAP1 SUB PUSH1 0x1F AND DUP3 ADD SWAP2 JUMPDEST POP POP POP POP POP DUP2 MSTORE PUSH1 0x20 ADD PUSH1 0x7 DUP3 ADD DUP1 SLOAD PUSH2 0xA62 SWAP1 PUSH2 0x2EB4 JUMP JUMPDEST DUP1 PUSH1 0x1F ADD PUSH1 0x20 DUP1 SWAP2 DIV MUL PUSH1 0x20 ADD PUSH1 0x40 MLOAD SWAP1 DUP2 ADD PUSH1 0x40 MSTORE DUP1 SWAP3 SWAP2 SWAP1 DUP2 DUP2 MSTORE PUSH1 0x20 ADD DUP3 DUP1 SLOAD PUSH2 0xA8E SWAP1 PUSH2 0x2EB4 JUMP JUMPDEST DUP1 ISZERO PUSH2 0xADB JUMPI DUP1 PUSH1 0x1F LT PUSH2 0xAB0 JUMPI PUSH2 0x100 DUP1 DUP4 SLOAD DIV MUL DUP4 MSTORE SWAP2 PUSH1 0x20 ADD SWAP2 PUSH2 0xADB JUMP JUMPDEST DUP3 ADD SWAP2 SWAP1 PUSH1 0x0 MSTORE PUSH1 0x20 PUSH1 0x0 KECCAK256 SWAP1 JUMPDEST DUP2 SLOAD DUP2 MSTORE SWAP1 PUSH1 0x1 ADD SWAP1 PUSH1 0x20 ADD DUP1 DUP4 GT PUSH2 0xABE JUMPI DUP3 SWAP1 SUB PUSH1 0x1F AND DUP3 ADD SWAP2 JUMPDEST POP POP POP POP POP DUP2 MSTORE PUSH1 0x20 ADD PUSH1 0x8 DUP3 ADD DUP1 SLOAD PUSH2 0xAF4 SWAP1 PUSH2 0x2EB4 JUMP JUMPDEST DUP1 PUSH1 0x1F ADD PUSH1 0x20 DUP1 SWAP2 DIV MUL PUSH1 0x20 ADD PUSH1 0x40 MLOAD SWAP1 DUP2 ADD PUSH1 0x40 MSTORE DUP1 SWAP3 SWAP2 SWAP1 DUP2 DUP2 MSTORE PUSH1 0x20 ADD DUP3 DUP1 SLOAD PUSH2 0xB20 SWAP1 PUSH2 0x2EB4 JUMP JUMPDEST DUP1 ISZERO PUSH2 0xB6D JUMPI DUP1 PUSH1 0x1F LT PUSH2 0xB42 JUMPI PUSH2 0x100 DUP1 DUP4 SLOAD DIV MUL DUP4 MSTORE SWAP2 PUSH1 0x20 ADD SWAP2 PUSH2 0xB6D JUMP JUMPDEST DUP3 ADD SWAP2 SWAP1 PUSH1 0x0 MSTORE PUSH1 0x20 PUSH1 0x0 KECCAK256 SWAP1 JUMPDEST DUP2 SLOAD DUP2 MSTORE SWAP1 PUSH1 0x1 ADD SWAP1 PUSH1 0x20 ADD DUP1 DUP4 GT PUSH2 0xB50 JUMPI DUP3 SWAP1 SUB PUSH1 0x1F AND DUP3 ADD SWAP2 JUMPDEST POP POP POP POP POP DUP2 MSTORE PUSH1 0x20 ADD PUSH1 0x9 DUP3 ADD DUP1 SLOAD PUSH2 0xB86 SWAP1 PUSH2 0x2EB4 JUMP JUMPDEST DUP1 PUSH1 0x1F ADD PUSH1 0x20 DUP1 SWAP2 DIV MUL PUSH1 0x20 ADD PUSH1 0x40 MLOAD SWAP1 DUP2 ADD PUSH1 0x40 MSTORE DUP1 SWAP3 SWAP2 SWAP1 DUP2 DUP2 MSTORE PUSH1 0x20 ADD DUP3 DUP1 SLOAD PUSH2 0xBB2 SWAP1 PUSH2 0x2EB4 JUMP JUMPDEST DUP1 ISZERO PUSH2 0xBFF JUMPI DUP1 PUSH1 0x1F LT PUSH2 0xBD4 JUMPI PUSH2 0x100 DUP1 DUP4 SLOAD DIV MUL DUP4 MSTORE SWAP2 PUSH1 0x20 ADD SWAP2 PUSH2 0xBFF JUMP JUMPDEST DUP3 ADD SWAP2 SWAP1 PUSH1 0x0 MSTORE PUSH1 0x20 PUSH1 0x0 KECCAK256 SWAP1 JUMPDEST DUP2 SLOAD DUP2 MSTORE SWAP1 PUSH1 0x1 ADD SWAP1 PUSH1 0x20 ADD DUP1 DUP4 GT PUSH2 0xBE2 JUMPI DUP3 SWAP1 SUB PUSH1 0x1F AND DUP3 ADD SWAP2 JUMPDEST POP POP POP POP POP DUP2 MSTORE PUSH1 0x20 ADD PUSH1 0xA DUP3 ADD DUP1 SLOAD PUSH2 0xC18 SWAP1 PUSH2 0x2EB4 JUMP JUMPDEST DUP1 PUSH1 0x1F ADD PUSH1 0x20 DUP1 SWAP2 DIV MUL PUSH1 0x20 ADD PUSH1 0x40 MLOAD SWAP1 DUP2 ADD PUSH1 0x40 MSTORE DUP1 SWAP3 SWAP2 SWAP1 DUP2 DUP2 MSTORE PUSH1 0x20 ADD DUP3 DUP1 SLOAD PUSH2 0xC44 SWAP1 PUSH2 0x2EB4 JUMP JUMPDEST DUP1 ISZERO PUSH2 0xC91 JUMPI DUP1 PUSH1 0x1F LT PUSH2 0xC66 JUMPI PUSH2 0x100 DUP1 DUP4 SLOAD DIV MUL DUP4 MSTORE SWAP2 PUSH1 0x20 ADD SWAP2 PUSH2 0xC91 JUMP JUMPDEST DUP3 ADD SWAP2 SWAP1 PUSH1 0x0 MSTORE PUSH1 0x20 PUSH1 0x0 KECCAK256 SWAP1 JUMPDEST DUP2 SLOAD DUP2 MSTORE SWAP1 PUSH1 0x1 ADD SWAP1 PUSH1 0x20 ADD DUP1 DUP4 GT PUSH2 0xC74 JUMPI DUP3 SWAP1 SUB PUSH1 0x1F AND DUP3 ADD SWAP2 JUMPDEST POP POP POP POP POP DUP2 MSTORE POP POP SWAP3 POP POP PUSH2 0xD96 JUMP JUMPDEST DUP1 DUP1 PUSH2 0xCAD SWAP1 PUSH2 0x2E3D JUMP JUMPDEST SWAP2 POP POP PUSH2 0x70F JUMP JUMPDEST POP PUSH1 0x40 MLOAD DUP1 PUSH2 0x160 ADD PUSH1 0x40 MSTORE DUP1 PUSH1 0x0 DUP2 MSTORE PUSH1 0x20 ADD PUSH1 0x0 DUP2 MSTORE PUSH1 0x20 ADD PUSH1 0x0 PUSH20 0xFFFFFFFFFFFFFFFFFFFFFFFFFFFFFFFFFFFFFFFF AND DUP2 MSTORE PUSH1 0x20 ADD PUSH1 0x40 MLOAD DUP1 PUSH1 0x20 ADD PUSH1 0x40 MSTORE DUP1 PUSH1 0x0 DUP2 MSTORE POP DUP2 MSTORE PUSH1 0x20 ADD PUSH1 0x40 MLOAD DUP1 PUSH1 0x20 ADD PUSH1 0x40 MSTORE DUP1 PUSH1 0x0 DUP2 MSTORE POP DUP2 MSTORE PUSH1 0x20 ADD PUSH1 0x40 MLOAD DUP1 PUSH1 0x20 ADD PUSH1 0x40 MSTORE DUP1 PUSH1 0x0 DUP2 MSTORE POP DUP2 MSTORE PUSH1 0x20 ADD PUSH1 0x40 MLOAD DUP1 PUSH1 0x20 ADD PUSH1 0x40 MSTORE DUP1 PUSH1 0x0 DUP2 MSTORE POP DUP2 MSTORE PUSH1 0x20 ADD PUSH1 0x40 MLOAD DUP1 PUSH1 0x20 ADD PUSH1 0x40 MSTORE DUP1 PUSH1 0x0 DUP2 MSTORE POP DUP2 MSTORE PUSH1 0x20 ADD PUSH1 0x40 MLOAD DUP1 PUSH1 0x20 ADD PUSH1 0x40 MSTORE DUP1 PUSH1 0x0 DUP2 MSTORE POP DUP2 MSTORE PUSH1 0x20 ADD PUSH1 0x40 MLOAD DUP1 PUSH1 0x20 ADD PUSH1 0x40 MSTORE DUP1 PUSH1 0x0 DUP2 MSTORE POP DUP2 MSTORE PUSH1 0x20 ADD PUSH1 0x40 MLOAD DUP1 PUSH1 0x20 ADD PUSH1 0x40 MSTORE DUP1 PUSH1 0x0 DUP2 MSTORE POP DUP2 MSTORE POP SWAP2 POP JUMPDEST POP SWAP3 SWAP2 POP POP JUMP JUMPDEST PUSH1 0x0 DUP3 PUSH32 0x8E1604A838D0F1A9B2CDA14A099E4CEB08E966CC6E05E8296F67B02D61A79F09 PUSH1 0x0 SHL DUP2 EQ PUSH2 0xE05 JUMPI PUSH1 0x40 MLOAD PUSH32 0x8C379A000000000000000000000000000000000000000000000000000000000 DUP2 MSTORE PUSH1 0x4 ADD PUSH2 0xDFC SWAP1 PUSH2 0x2DEE JUMP JUMPDEST PUSH1 0x40 MLOAD DUP1 SWAP2 SUB SWAP1 REVERT JUMPDEST DUP5 DUP1 PUSH1 0x1 GT ISZERO DUP1 ISZERO PUSH2 0xE19 JUMPI POP PUSH1 0x2 SLOAD DUP2 GT ISZERO JUMPDEST PUSH2 0xE58 JUMPI PUSH1 0x40 MLOAD PUSH32 0x8C379A000000000000000000000000000000000000000000000000000000000 DUP2 MSTORE PUSH1 0x4 ADD PUSH2 0xE4F SWAP1 PUSH2 0x31D5 JUMP JUMPDEST PUSH1 0x40 MLOAD DUP1 SWAP2 SUB SWAP1 REVERT JUMPDEST DUP4 PUSH1 0x1 PUSH1 0x0 DUP9 DUP2 MSTORE PUSH1 0x20 ADD SWAP1 DUP2 MSTORE PUSH1 0x20 ADD PUSH1 0x0 KECCAK256 PUSH1 0x0 ADD DUP2 SWAP1 SSTORE POP PUSH1 0x1 SWAP3 POP POP POP SWAP4 SWAP3 POP POP POP JUMP JUMPDEST PUSH1 0x0 DUP3 PUSH32 0x8E1604A838D0F1A9B2CDA14A099E4CEB08E966CC6E05E8296F67B02D61A79F09 PUSH1 0x0 SHL DUP2 EQ PUSH2 0xEE8 JUMPI PUSH1 0x40 MLOAD PUSH32 0x8C379A000000000000000000000000000000000000000000000000000000000 DUP2 MSTORE PUSH1 0x4 ADD PUSH2 0xEDF SWAP1 PUSH2 0x2DEE JUMP JUMPDEST PUSH1 0x40 MLOAD DUP1 SWAP2 SUB SWAP1 REVERT JUMPDEST DUP5 DUP1 PUSH1 0x1 GT ISZERO DUP1 ISZERO PUSH2 0xEFC JUMPI POP PUSH1 0x2 SLOAD DUP2 GT ISZERO JUMPDEST PUSH2 0xF3B JUMPI PUSH1 0x40 MLOAD PUSH32 0x8C379A000000000000000000000000000000000000000000000000000000000 DUP2 MSTORE PUSH1 0x4 ADD PUSH2 0xF32 SWAP1 PUSH2 0x31D5 JUMP JUMPDEST PUSH1 0x40 MLOAD DUP1 SWAP2 SUB SWAP1 REVERT JUMPDEST DUP4 PUSH1 0x1 PUSH1 0x0 DUP9 DUP2 MSTORE PUSH1 0x20 ADD SWAP1 DUP2 MSTORE PUSH1 0x20 ADD PUSH1 0x0 KECCAK256 PUSH1 0x6 ADD SWAP1 DUP2 PUSH2 0xF5E SWAP2 SWAP1 PUSH2 0x3091 JUMP JUMPDEST POP PUSH1 0x1 SWAP3 POP POP POP SWAP4 SWAP3 POP POP POP JUMP JUMPDEST PUSH1 0x0 DUP3 PUSH32 0x8E1604A838D0F1A9B2CDA14A099E4CEB08E966CC6E05E8296F67B02D61A79F09 PUSH1 0x0 SHL DUP2 EQ PUSH2 0xFD4 JUMPI PUSH1 0x40 MLOAD PUSH32 0x8C379A000000000000000000000000000000000000000000000000000000000 DUP2 MSTORE PUSH1 0x4 ADD PUSH2 0xFCB SWAP1 PUSH2 0x2DEE JUMP JUMPDEST PUSH1 0x40 MLOAD DUP1 SWAP2 SUB SWAP1 REVERT JUMPDEST DUP5 DUP1 PUSH1 0x1 GT ISZERO DUP1 ISZERO PUSH2 0xFE8 JUMPI POP PUSH1 0x2 SLOAD DUP2 GT ISZERO JUMPDEST PUSH2 0x1027 JUMPI PUSH1 0x40 MLOAD PUSH32 0x8C379A000000000000000000000000000000000000000000000000000000000 DUP2 MSTORE PUSH1 0x4 ADD PUSH2 0x101E SWAP1 PUSH2 0x31D5 JUMP JUMPDEST PUSH1 0x40 MLOAD DUP1 SWAP2 SUB SWAP1 REVERT JUMPDEST DUP4 PUSH1 0x1 PUSH1 0x0 DUP9 DUP2 MSTORE PUSH1 0x20 ADD SWAP1 DUP2 MSTORE PUSH1 0x20 ADD PUSH1 0x0 KECCAK256 PUSH1 0xA ADD SWAP1 DUP2 PUSH2 0x104A SWAP2 SWAP1 PUSH2 0x3091 JUMP JUMPDEST POP PUSH1 0x1 SWAP3 POP POP POP SWAP4 SWAP3 POP POP POP JUMP JUMPDEST PUSH1 0x0 DUP3 PUSH32 0x8E1604A838D0F1A9B2CDA14A099E4CEB08E966CC6E05E8296F67B02D61A79F09 PUSH1 0x0 SHL DUP2 EQ PUSH2 0x10C0 JUMPI PUSH1 0x40 MLOAD PUSH32 0x8C379A000000000000000000000000000000000000000000000000000000000 DUP2 MSTORE PUSH1 0x4 ADD PUSH2 0x10B7 SWAP1 PUSH2 0x2DEE JUMP JUMPDEST PUSH1 0x40 MLOAD DUP1 SWAP2 SUB SWAP1 REVERT JUMPDEST DUP5 DUP1 PUSH1 0x1 GT ISZERO DUP1 ISZERO PUSH2 0x10D4 JUMPI POP PUSH1 0x2 SLOAD DUP2 GT ISZERO JUMPDEST PUSH2 0x1113 JUMPI PUSH1 0x40 MLOAD PUSH32 0x8C379A000000000000000000000000000000000000000000000000000000000 DUP2 MSTORE PUSH1 0x4 ADD PUSH2 0x110A SWAP1 PUSH2 0x31D5 JUMP JUMPDEST PUSH1 0x40 MLOAD DUP1 SWAP2 SUB SWAP1 REVERT JUMPDEST DUP4 PUSH1 0x1 PUSH1 0x0 DUP9 DUP2 MSTORE PUSH1 0x20 ADD SWAP1 DUP2 MSTORE PUSH1 0x20 ADD PUSH1 0x0 KECCAK256 PUSH1 0x2 ADD PUSH1 0x0 PUSH2 0x100 EXP DUP2 SLOAD DUP2 PUSH20 0xFFFFFFFFFFFFFFFFFFFFFFFFFFFFFFFFFFFFFFFF MUL NOT AND SWAP1 DUP4 PUSH20 0xFFFFFFFFFFFFFFFFFFFFFFFFFFFFFFFFFFFFFFFF AND MUL OR SWAP1 SSTORE POP PUSH1 0x1 SWAP3 POP POP POP SWAP4 SWAP3 POP POP POP JUMP JUMPDEST PUSH1 0x0 DUP3 PUSH32 0x8E1604A838D0F1A9B2CDA14A099E4CEB08E966CC6E05E8296F67B02D61A79F09 PUSH1 0x0 SHL DUP2 EQ PUSH2 0x11DD JUMPI PUSH1 0x40 MLOAD PUSH32 0x8C379A000000000000000000000000000000000000000000000000000000000 DUP2 MSTORE PUSH1 0x4 ADD PUSH2 0x11D4 SWAP1 PUSH2 0x2DEE JUMP JUMPDEST PUSH1 0x40 MLOAD DUP1 SWAP2 SUB SWAP1 REVERT JUMPDEST DUP5 DUP1 PUSH1 0x1 GT ISZERO DUP1 ISZERO PUSH2 0x11F1 JUMPI POP PUSH1 0x2 SLOAD DUP2 GT ISZERO JUMPDEST PUSH2 0x1230 JUMPI PUSH1 0x40 MLOAD PUSH32 0x8C379A000000000000000000000000000000000000000000000000000000000 DUP2 MSTORE PUSH1 0x4 ADD PUSH2 0x1227 SWAP1 PUSH2 0x31D5 JUMP JUMPDEST PUSH1 0x40 MLOAD DUP1 SWAP2 SUB SWAP1 REVERT JUMPDEST DUP4 PUSH1 0x1 PUSH1 0x0 DUP9 DUP2 MSTORE PUSH1 0x20 ADD SWAP1 DUP2 MSTORE PUSH1 0x20 ADD PUSH1 0x0 KECCAK256 PUSH1 0x3 ADD SWAP1 DUP2 PUSH2 0x1253 SWAP2 SWAP1 PUSH2 0x3091 JUMP JUMPDEST POP PUSH1 0x1 SWAP3 POP POP POP SWAP4 SWAP3 POP POP POP JUMP JUMPDEST PUSH1 0x0 DUP3 PUSH32 0x8E1604A838D0F1A9B2CDA14A099E4CEB08E966CC6E05E8296F67B02D61A79F09 PUSH1 0x0 SHL DUP2 EQ PUSH2 0x12C9 JUMPI PUSH1 0x40 MLOAD PUSH32 0x8C379A000000000000000000000000000000000000000000000000000000000 DUP2 MSTORE PUSH1 0x4 ADD PUSH2 0x12C0 SWAP1 PUSH2 0x2DEE JUMP JUMPDEST PUSH1 0x40 MLOAD DUP1 SWAP2 SUB SWAP1 REVERT JUMPDEST DUP5 DUP1 PUSH1 0x1 GT ISZERO DUP1 ISZERO PUSH2 0x12DD JUMPI POP PUSH1 0x2 SLOAD DUP2 GT ISZERO JUMPDEST PUSH2 0x131C JUMPI PUSH1 0x40 MLOAD PUSH32 0x8C379A000000000000000000000000000000000000000000000000000000000 DUP2 MSTORE PUSH1 0x4 ADD PUSH2 0x1313 SWAP1 PUSH2 0x31D5 JUMP JUMPDEST PUSH1 0x40 MLOAD DUP1 SWAP2 SUB SWAP1 REVERT JUMPDEST DUP4 PUSH1 0x1 PUSH1 0x0 DUP9 DUP2 MSTORE PUSH1 0x20 ADD SWAP1 DUP2 MSTORE PUSH1 0x20 ADD PUSH1 0x0 KECCAK256 PUSH1 0x9 ADD SWAP1 DUP2 PUSH2 0x133F SWAP2 SWAP1 PUSH2 0x3091 JUMP JUMPDEST POP PUSH1 0x1 SWAP3 POP POP POP SWAP4 SWAP3 POP POP POP JUMP JUMPDEST PUSH2 0x1355 PUSH2 0x22F2 JUMP JUMPDEST ADDRESS PUSH20 0xFFFFFFFFFFFFFFFFFFFFFFFFFFFFFFFFFFFFFFFF AND SELFDESTRUCT JUMPDEST PUSH1 0x0 DUP3 PUSH32 0x8E1604A838D0F1A9B2CDA14A099E4CEB08E966CC6E05E8296F67B02D61A79F09 PUSH1 0x0 SHL DUP2 EQ PUSH2 0x13D6 JUMPI PUSH1 0x40 MLOAD PUSH32 0x8C379A000000000000000000000000000000000000000000000000000000000 DUP2 MSTORE PUSH1 0x4 ADD PUSH2 0x13CD SWAP1 PUSH2 0x2DEE JUMP JUMPDEST PUSH1 0x40 MLOAD DUP1 SWAP2 SUB SWAP1 REVERT JUMPDEST DUP5 DUP1 PUSH1 0x1 GT ISZERO DUP1 ISZERO PUSH2 0x13EA JUMPI POP PUSH1 0x2 SLOAD DUP2 GT ISZERO JUMPDEST PUSH2 0x1429 JUMPI PUSH1 0x40 MLOAD PUSH32 0x8C379A000000000000000000000000000000000000000000000000000000000 DUP2 MSTORE PUSH1 0x4 ADD PUSH2 0x1420 SWAP1 PUSH2 0x31D5 JUMP JUMPDEST PUSH1 0x40 MLOAD DUP1 SWAP2 SUB SWAP1 REVERT JUMPDEST DUP4 PUSH1 0x1 PUSH1 0x0 DUP9 DUP2 MSTORE PUSH1 0x20 ADD SWAP1 DUP2 MSTORE PUSH1 0x20 ADD PUSH1 0x0 KECCAK256 PUSH1 0x1 ADD DUP2 SWAP1 SSTORE POP PUSH1 0x1 SWAP3 POP POP POP SWAP4 SWAP3 POP POP POP JUMP JUMPDEST PUSH1 0x0 DUP1 PUSH1 0x0 SWAP1 SLOAD SWAP1 PUSH2 0x100 EXP SWAP1 DIV PUSH20 0xFFFFFFFFFFFFFFFFFFFFFFFFFFFFFFFFFFFFFFFF AND SWAP1 POP SWAP1 JUMP JUMPDEST PUSH1 0x0 DUP2 PUSH32 0x8E1604A838D0F1A9B2CDA14A099E4CEB08E966CC6E05E8296F67B02D61A79F09 PUSH1 0x0 SHL DUP2 EQ PUSH2 0x14E2 JUMPI PUSH1 0x40 MLOAD PUSH32 0x8C379A000000000000000000000000000000000000000000000000000000000 DUP2 MSTORE PUSH1 0x4 ADD PUSH2 0x14D9 SWAP1 PUSH2 0x2DEE JUMP JUMPDEST PUSH1 0x40 MLOAD DUP1 SWAP2 SUB SWAP1 REVERT JUMPDEST DUP4 DUP1 PUSH1 0x1 GT ISZERO DUP1 ISZERO PUSH2 0x14F6 JUMPI POP PUSH1 0x2 SLOAD DUP2 GT ISZERO JUMPDEST PUSH2 0x1535 JUMPI PUSH1 0x40 MLOAD PUSH32 0x8C379A000000000000000000000000000000000000000000000000000000000 DUP2 MSTORE PUSH1 0x4 ADD PUSH2 0x152C SWAP1 PUSH2 0x31D5 JUMP JUMPDEST PUSH1 0x40 MLOAD DUP1 SWAP2 SUB SWAP1 REVERT JUMPDEST PUSH1 0x0 PUSH1 0x40 MLOAD DUP1 PUSH2 0x160 ADD PUSH1 0x40 MSTORE DUP1 PUSH1 0x0 DUP2 MSTORE PUSH1 0x20 ADD PUSH1 0x0 DUP2 MSTORE PUSH1 0x20 ADD PUSH1 0x0 PUSH20 0xFFFFFFFFFFFFFFFFFFFFFFFFFFFFFFFFFFFFFFFF AND DUP2 MSTORE PUSH1 0x20 ADD PUSH1 0x40 MLOAD DUP1 PUSH1 0x20 ADD PUSH1 0x40 MSTORE DUP1 PUSH1 0x0 DUP2 MSTORE POP DUP2 MSTORE PUSH1 0x20 ADD PUSH1 0x40 MLOAD DUP1 PUSH1 0x20 ADD PUSH1 0x40 MSTORE DUP1 PUSH1 0x0 DUP2 MSTORE POP DUP2 MSTORE PUSH1 0x20 ADD PUSH1 0x40 MLOAD DUP1 PUSH1 0x20 ADD PUSH1 0x40 MSTORE DUP1 PUSH1 0x0 DUP2 MSTORE POP DUP2 MSTORE PUSH1 0x20 ADD PUSH1 0x40 MLOAD DUP1 PUSH1 0x20 ADD PUSH1 0x40 MSTORE DUP1 PUSH1 0x0 DUP2 MSTORE POP DUP2 MSTORE PUSH1 0x20 ADD PUSH1 0x40 MLOAD DUP1 PUSH1 0x20 ADD PUSH1 0x40 MSTORE DUP1 PUSH1 0x0 DUP2 MSTORE POP DUP2 MSTORE PUSH1 0x20 ADD PUSH1 0x40 MLOAD DUP1 PUSH1 0x20 ADD PUSH1 0x40 MSTORE DUP1 PUSH1 0x0 DUP2 MSTORE POP DUP2 MSTORE PUSH1 0x20 ADD PUSH1 0x40 MLOAD DUP1 PUSH1 0x20 ADD PUSH1 0x40 MSTORE DUP1 PUSH1 0x0 DUP2 MSTORE POP DUP2 MSTORE PUSH1 0x20 ADD PUSH1 0x40 MLOAD DUP1 PUSH1 0x20 ADD PUSH1 0x40 MSTORE DUP1 PUSH1 0x0 DUP2 MSTORE POP DUP2 MSTORE POP SWAP1 POP DUP1 PUSH1 0x1 PUSH1 0x0 DUP9 DUP2 MSTORE PUSH1 0x20 ADD SWAP1 DUP2 MSTORE PUSH1 0x20 ADD PUSH1 0x0 KECCAK256 PUSH1 0x0 DUP3 ADD MLOAD DUP2 PUSH1 0x0 ADD SSTORE PUSH1 0x20 DUP3 ADD MLOAD DUP2 PUSH1 0x1 ADD SSTORE PUSH1 0x40 DUP3 ADD MLOAD DUP2 PUSH1 0x2 ADD PUSH1 0x0 PUSH2 0x100 EXP DUP2 SLOAD DUP2 PUSH20 0xFFFFFFFFFFFFFFFFFFFFFFFFFFFFFFFFFFFFFFFF MUL NOT AND SWAP1 DUP4 PUSH20 0xFFFFFFFFFFFFFFFFFFFFFFFFFFFFFFFFFFFFFFFF AND MUL OR SWAP1 SSTORE POP PUSH1 0x60 DUP3 ADD MLOAD DUP2 PUSH1 0x3 ADD SWAP1 DUP2 PUSH2 0x169A SWAP2 SWAP1 PUSH2 0x3091 JUMP JUMPDEST POP PUSH1 0x80 DUP3 ADD MLOAD DUP2 PUSH1 0x4 ADD SWAP1 DUP2 PUSH2 0x16B0 SWAP2 SWAP1 PUSH2 0x3091 JUMP JUMPDEST POP PUSH1 0xA0 DUP3 ADD MLOAD DUP2 PUSH1 0x5 ADD SWAP1 DUP2 PUSH2 0x16C6 SWAP2 SWAP1 PUSH2 0x3091 JUMP JUMPDEST POP PUSH1 0xC0 DUP3 ADD MLOAD DUP2 PUSH1 0x6 ADD SWAP1 DUP2 PUSH2 0x16DC SWAP2 SWAP1 PUSH2 0x3091 JUMP JUMPDEST POP PUSH1 0xE0 DUP3 ADD MLOAD DUP2 PUSH1 0x7 ADD SWAP1 DUP2 PUSH2 0x16F2 SWAP2 SWAP1 PUSH2 0x3091 JUMP JUMPDEST POP PUSH2 0x100 DUP3 ADD MLOAD DUP2 PUSH1 0x8 ADD SWAP1 DUP2 PUSH2 0x1709 SWAP2 SWAP1 PUSH2 0x3091 JUMP JUMPDEST POP PUSH2 0x120 DUP3 ADD MLOAD DUP2 PUSH1 0x9 ADD SWAP1 DUP2 PUSH2 0x1720 SWAP2 SWAP1 PUSH2 0x3091 JUMP JUMPDEST POP PUSH2 0x140 DUP3 ADD MLOAD DUP2 PUSH1 0xA ADD SWAP1 DUP2 PUSH2 0x1737 SWAP2 SWAP1 PUSH2 0x3091 JUMP JUMPDEST POP SWAP1 POP POP PUSH1 0x1 SWAP4 POP POP POP POP SWAP3 SWAP2 POP POP JUMP JUMPDEST PUSH2 0x1750 PUSH2 0x242D JUMP JUMPDEST DUP2 PUSH32 0x8E1604A838D0F1A9B2CDA14A099E4CEB08E966CC6E05E8296F67B02D61A79F09 PUSH1 0x0 SHL DUP2 EQ PUSH2 0x17B6 JUMPI PUSH1 0x40 MLOAD PUSH32 0x8C379A000000000000000000000000000000000000000000000000000000000 DUP2 MSTORE PUSH1 0x4 ADD PUSH2 0x17AD SWAP1 PUSH2 0x2DEE JUMP JUMPDEST PUSH1 0x40 MLOAD DUP1 SWAP2 SUB SWAP1 REVERT JUMPDEST DUP4 DUP1 PUSH1 0x1 GT ISZERO DUP1 ISZERO PUSH2 0x17CA JUMPI POP PUSH1 0x2 SLOAD DUP2 GT ISZERO JUMPDEST PUSH2 0x1809 JUMPI PUSH1 0x40 MLOAD PUSH32 0x8C379A000000000000000000000000000000000000000000000000000000000 DUP2 MSTORE PUSH1 0x4 ADD PUSH2 0x1800 SWAP1 PUSH2 0x31D5 JUMP JUMPDEST PUSH1 0x40 MLOAD DUP1 SWAP2 SUB SWAP1 REVERT JUMPDEST PUSH1 0x1 PUSH1 0x0 DUP7 DUP2 MSTORE PUSH1 0x20 ADD SWAP1 DUP2 MSTORE PUSH1 0x20 ADD PUSH1 0x0 KECCAK256 PUSH1 0x40 MLOAD DUP1 PUSH2 0x160 ADD PUSH1 0x40 MSTORE SWAP1 DUP2 PUSH1 0x0 DUP3 ADD SLOAD DUP2 MSTORE PUSH1 0x20 ADD PUSH1 0x1 DUP3 ADD SLOAD DUP2 MSTORE PUSH1 0x20 ADD PUSH1 0x2 DUP3 ADD PUSH1 0x0 SWAP1 SLOAD SWAP1 PUSH2 0x100 EXP SWAP1 DIV PUSH20 0xFFFFFFFFFFFFFFFFFFFFFFFFFFFFFFFFFFFFFFFF AND PUSH20 0xFFFFFFFFFFFFFFFFFFFFFFFFFFFFFFFFFFFFFFFF AND PUSH20 0xFFFFFFFFFFFFFFFFFFFFFFFFFFFFFFFFFFFFFFFF AND DUP2 MSTORE PUSH1 0x20 ADD PUSH1 0x3 DUP3 ADD DUP1 SLOAD PUSH2 0x18A2 SWAP1 PUSH2 0x2EB4 JUMP JUMPDEST DUP1 PUSH1 0x1F ADD PUSH1 0x20 DUP1 SWAP2 DIV MUL PUSH1 0x20 ADD PUSH1 0x40 MLOAD SWAP1 DUP2 ADD PUSH1 0x40 MSTORE DUP1 SWAP3 SWAP2 SWAP1 DUP2 DUP2 MSTORE PUSH1 0x20 ADD DUP3 DUP1 SLOAD PUSH2 0x18CE SWAP1 PUSH2 0x2EB4 JUMP JUMPDEST DUP1 ISZERO PUSH2 0x191B JUMPI DUP1 PUSH1 0x1F LT PUSH2 0x18F0 JUMPI PUSH2 0x100 DUP1 DUP4 SLOAD DIV MUL DUP4 MSTORE SWAP2 PUSH1 0x20 ADD SWAP2 PUSH2 0x191B JUMP JUMPDEST DUP3 ADD SWAP2 SWAP1 PUSH1 0x0 MSTORE PUSH1 0x20 PUSH1 0x0 KECCAK256 SWAP1 JUMPDEST DUP2 SLOAD DUP2 MSTORE SWAP1 PUSH1 0x1 ADD SWAP1 PUSH1 0x20 ADD DUP1 DUP4 GT PUSH2 0x18FE JUMPI DUP3 SWAP1 SUB PUSH1 0x1F AND DUP3 ADD SWAP2 JUMPDEST POP POP POP POP POP DUP2 MSTORE PUSH1 0x20 ADD PUSH1 0x4 DUP3 ADD DUP1 SLOAD PUSH2 0x1934 SWAP1 PUSH2 0x2EB4 JUMP JUMPDEST DUP1 PUSH1 0x1F ADD PUSH1 0x20 DUP1 SWAP2 DIV MUL PUSH1 0x20 ADD PUSH1 0x40 MLOAD SWAP1 DUP2 ADD PUSH1 0x40 MSTORE DUP1 SWAP3 SWAP2 SWAP1 DUP2 DUP2 MSTORE PUSH1 0x20 ADD DUP3 DUP1 SLOAD PUSH2 0x1960 SWAP1 PUSH2 0x2EB4 JUMP JUMPDEST DUP1 ISZERO PUSH2 0x19AD JUMPI DUP1 PUSH1 0x1F LT PUSH2 0x1982 JUMPI PUSH2 0x100 DUP1 DUP4 SLOAD DIV MUL DUP4 MSTORE SWAP2 PUSH1 0x20 ADD SWAP2 PUSH2 0x19AD JUMP JUMPDEST DUP3 ADD SWAP2 SWAP1 PUSH1 0x0 MSTORE PUSH1 0x20 PUSH1 0x0 KECCAK256 SWAP1 JUMPDEST DUP2 SLOAD DUP2 MSTORE SWAP1 PUSH1 0x1 ADD SWAP1 PUSH1 0x20 ADD DUP1 DUP4 GT PUSH2 0x1990 JUMPI DUP3 SWAP1 SUB PUSH1 0x1F AND DUP3 ADD SWAP2 JUMPDEST POP POP POP POP POP DUP2 MSTORE PUSH1 0x20 ADD PUSH1 0x5 DUP3 ADD DUP1 SLOAD PUSH2 0x19C6 SWAP1 PUSH2 0x2EB4 JUMP JUMPDEST DUP1 PUSH1 0x1F ADD PUSH1 0x20 DUP1 SWAP2 DIV MUL PUSH1 0x20 ADD PUSH1 0x40 MLOAD SWAP1 DUP2 ADD PUSH1 0x40 MSTORE DUP1 SWAP3 SWAP2 SWAP1 DUP2 DUP2 MSTORE PUSH1 0x20 ADD DUP3 DUP1 SLOAD PUSH2 0x19F2 SWAP1 PUSH2 0x2EB4 JUMP JUMPDEST DUP1 ISZERO PUSH2 0x1A3F JUMPI DUP1 PUSH1 0x1F LT PUSH2 0x1A14 JUMPI PUSH2 0x100 DUP1 DUP4 SLOAD DIV MUL DUP4 MSTORE SWAP2 PUSH1 0x20 ADD SWAP2 PUSH2 0x1A3F JUMP JUMPDEST DUP3 ADD SWAP2 SWAP1 PUSH1 0x0 MSTORE PUSH1 0x20 PUSH1 0x0 KECCAK256 SWAP1 JUMPDEST DUP2 SLOAD DUP2 MSTORE SWAP1 PUSH1 0x1 ADD SWAP1 PUSH1 0x20 ADD DUP1 DUP4 GT PUSH2 0x1A22 JUMPI DUP3 SWAP1 SUB PUSH1 0x1F AND DUP3 ADD SWAP2 JUMPDEST POP POP POP POP POP DUP2 MSTORE PUSH1 0x20 ADD PUSH1 0x6 DUP3 ADD DUP1 SLOAD PUSH2 0x1A58 SWAP1 PUSH2 0x2EB4 JUMP JUMPDEST DUP1 PUSH1 0x1F ADD PUSH1 0x20 DUP1 SWAP2 DIV MUL PUSH1 0x20 ADD PUSH1 0x40 MLOAD SWAP1 DUP2 ADD PUSH1 0x40 MSTORE DUP1 SWAP3 SWAP2 SWAP1 DUP2 DUP2 MSTORE PUSH1 0x20 ADD DUP3 DUP1 SLOAD PUSH2 0x1A84 SWAP1 PUSH2 0x2EB4 JUMP JUMPDEST DUP1 ISZERO PUSH2 0x1AD1 JUMPI DUP1 PUSH1 0x1F LT PUSH2 0x1AA6 JUMPI PUSH2 0x100 DUP1 DUP4 SLOAD DIV MUL DUP4 MSTORE SWAP2 PUSH1 0x20 ADD SWAP2 PUSH2 0x1AD1 JUMP JUMPDEST DUP3 ADD SWAP2 SWAP1 PUSH1 0x0 MSTORE PUSH1 0x20 PUSH1 0x0 KECCAK256 SWAP1 JUMPDEST DUP2 SLOAD DUP2 MSTORE SWAP1 PUSH1 0x1 ADD SWAP1 PUSH1 0x20 ADD DUP1 DUP4 GT PUSH2 0x1AB4 JUMPI DUP3 SWAP1 SUB PUSH1 0x1F AND DUP3 ADD SWAP2 JUMPDEST POP POP POP POP POP DUP2 MSTORE PUSH1 0x20 ADD PUSH1 0x7 DUP3 ADD DUP1 SLOAD PUSH2 0x1AEA SWAP1 PUSH2 0x2EB4 JUMP JUMPDEST DUP1 PUSH1 0x1F ADD PUSH1 0x20 DUP1 SWAP2 DIV MUL PUSH1 0x20 ADD PUSH1 0x40 MLOAD SWAP1 DUP2 ADD PUSH1 0x40 MSTORE DUP1 SWAP3 SWAP2 SWAP1 DUP2 DUP2 MSTORE PUSH1 0x20 ADD DUP3 DUP1 SLOAD PUSH2 0x1B16 SWAP1 PUSH2 0x2EB4 JUMP JUMPDEST DUP1 ISZERO PUSH2 0x1B63 JUMPI DUP1 PUSH1 0x1F LT PUSH2 0x1B38 JUMPI PUSH2 0x100 DUP1 DUP4 SLOAD DIV MUL DUP4 MSTORE SWAP2 PUSH1 0x20 ADD SWAP2 PUSH2 0x1B63 JUMP JUMPDEST DUP3 ADD SWAP2 SWAP1 PUSH1 0x0 MSTORE PUSH1 0x20 PUSH1 0x0 KECCAK256 SWAP1 JUMPDEST DUP2 SLOAD DUP2 MSTORE SWAP1 PUSH1 0x1 ADD SWAP1 PUSH1 0x20 ADD DUP1 DUP4 GT PUSH2 0x1B46 JUMPI DUP3 SWAP1 SUB PUSH1 0x1F AND DUP3 ADD SWAP2 JUMPDEST POP POP POP POP POP DUP2 MSTORE PUSH1 0x20 ADD PUSH1 0x8 DUP3 ADD DUP1 SLOAD PUSH2 0x1B7C SWAP1 PUSH2 0x2EB4 JUMP JUMPDEST DUP1 PUSH1 0x1F ADD PUSH1 0x20 DUP1 SWAP2 DIV MUL PUSH1 0x20 ADD PUSH1 0x40 MLOAD SWAP1 DUP2 ADD PUSH1 0x40 MSTORE DUP1 SWAP3 SWAP2 SWAP1 DUP2 DUP2 MSTORE PUSH1 0x20 ADD DUP3 DUP1 SLOAD PUSH2 0x1BA8 SWAP1 PUSH2 0x2EB4 JUMP JUMPDEST DUP1 ISZERO PUSH2 0x1BF5 JUMPI DUP1 PUSH1 0x1F LT PUSH2 0x1BCA JUMPI PUSH2 0x100 DUP1 DUP4 SLOAD DIV MUL DUP4 MSTORE SWAP2 PUSH1 0x20 ADD SWAP2 PUSH2 0x1BF5 JUMP JUMPDEST DUP3 ADD SWAP2 SWAP1 PUSH1 0x0 MSTORE PUSH1 0x20 PUSH1 0x0 KECCAK256 SWAP1 JUMPDEST DUP2 SLOAD DUP2 MSTORE SWAP1 PUSH1 0x1 ADD SWAP1 PUSH1 0x20 ADD DUP1 DUP4 GT PUSH2 0x1BD8 JUMPI DUP3 SWAP1 SUB PUSH1 0x1F AND DUP3 ADD SWAP2 JUMPDEST POP POP POP POP POP DUP2 MSTORE PUSH1 0x20 ADD PUSH1 0x9 DUP3 ADD DUP1 SLOAD PUSH2 0x1C0E SWAP1 PUSH2 0x2EB4 JUMP JUMPDEST DUP1 PUSH1 0x1F ADD PUSH1 0x20 DUP1 SWAP2 DIV MUL PUSH1 0x20 ADD PUSH1 0x40 MLOAD SWAP1 DUP2 ADD PUSH1 0x40 MSTORE DUP1 SWAP3 SWAP2 SWAP1 DUP2 DUP2 MSTORE PUSH1 0x20 ADD DUP3 DUP1 SLOAD PUSH2 0x1C3A SWAP1 PUSH2 0x2EB4 JUMP JUMPDEST DUP1 ISZERO PUSH2 0x1C87 JUMPI DUP1 PUSH1 0x1F LT PUSH2 0x1C5C JUMPI PUSH2 0x100 DUP1 DUP4 SLOAD DIV MUL DUP4 MSTORE SWAP2 PUSH1 0x20 ADD SWAP2 PUSH2 0x1C87 JUMP JUMPDEST DUP3 ADD SWAP2 SWAP1 PUSH1 0x0 MSTORE PUSH1 0x20 PUSH1 0x0 KECCAK256 SWAP1 JUMPDEST DUP2 SLOAD DUP2 MSTORE SWAP1 PUSH1 0x1 ADD SWAP1 PUSH1 0x20 ADD DUP1 DUP4 GT PUSH2 0x1C6A JUMPI DUP3 SWAP1 SUB PUSH1 0x1F AND DUP3 ADD SWAP2 JUMPDEST POP POP POP POP POP DUP2 MSTORE PUSH1 0x20 ADD PUSH1 0xA DUP3 ADD DUP1 SLOAD PUSH2 0x1CA0 SWAP1 PUSH2 0x2EB4 JUMP JUMPDEST DUP1 PUSH1 0x1F ADD PUSH1 0x20 DUP1 SWAP2 DIV MUL PUSH1 0x20 ADD PUSH1 0x40 MLOAD SWAP1 DUP2 ADD PUSH1 0x40 MSTORE DUP1 SWAP3 SWAP2 SWAP1 DUP2 DUP2 MSTORE PUSH1 0x20 ADD DUP3 DUP1 SLOAD PUSH2 0x1CCC SWAP1 PUSH2 0x2EB4 JUMP JUMPDEST DUP1 ISZERO PUSH2 0x1D19 JUMPI DUP1 PUSH1 0x1F LT PUSH2 0x1CEE JUMPI PUSH2 0x100 DUP1 DUP4 SLOAD DIV MUL DUP4 MSTORE SWAP2 PUSH1 0x20 ADD SWAP2 PUSH2 0x1D19 JUMP JUMPDEST DUP3 ADD SWAP2 SWAP1 PUSH1 0x0 MSTORE PUSH1 0x20 PUSH1 0x0 KECCAK256 SWAP1 JUMPDEST DUP2 SLOAD DUP2 MSTORE SWAP1 PUSH1 0x1 ADD SWAP1 PUSH1 0x20 ADD DUP1 DUP4 GT PUSH2 0x1CFC JUMPI DUP3 SWAP1 SUB PUSH1 0x1F AND DUP3 ADD SWAP2 JUMPDEST POP POP POP POP POP DUP2 MSTORE POP POP SWAP3 POP POP POP SWAP3 SWAP2 POP POP JUMP JUMPDEST PUSH1 0x0 DUP3 PUSH32 0x8E1604A838D0F1A9B2CDA14A099E4CEB08E966CC6E05E8296F67B02D61A79F09 PUSH1 0x0 SHL DUP2 EQ PUSH2 0x1D94 JUMPI PUSH1 0x40 MLOAD PUSH32 0x8C379A000000000000000000000000000000000000000000000000000000000 DUP2 MSTORE PUSH1 0x4 ADD PUSH2 0x1D8B SWAP1 PUSH2 0x2DEE JUMP JUMPDEST PUSH1 0x40 MLOAD DUP1 SWAP2 SUB SWAP1 REVERT JUMPDEST DUP5 DUP1 PUSH1 0x1 GT ISZERO DUP1 ISZERO PUSH2 0x1DA8 JUMPI POP PUSH1 0x2 SLOAD DUP2 GT ISZERO JUMPDEST PUSH2 0x1DE7 JUMPI PUSH1 0x40 MLOAD PUSH32 0x8C379A000000000000000000000000000000000000000000000000000000000 DUP2 MSTORE PUSH1 0x4 ADD PUSH2 0x1DDE SWAP1 PUSH2 0x31D5 JUMP JUMPDEST PUSH1 0x40 MLOAD DUP1 SWAP2 SUB SWAP1 REVERT JUMPDEST DUP4 PUSH1 0x1 PUSH1 0x0 DUP9 DUP2 MSTORE PUSH1 0x20 ADD SWAP1 DUP2 MSTORE PUSH1 0x20 ADD PUSH1 0x0 KECCAK256 PUSH1 0x7 ADD SWAP1 DUP2 PUSH2 0x1E0A SWAP2 SWAP1 PUSH2 0x3091 JUMP JUMPDEST POP PUSH1 0x1 SWAP3 POP POP POP SWAP4 SWAP3 POP POP POP JUMP JUMPDEST PUSH1 0x0 DUP2 PUSH32 0x8E1604A838D0F1A9B2CDA14A099E4CEB08E966CC6E05E8296F67B02D61A79F09 PUSH1 0x0 SHL DUP2 EQ PUSH2 0x1E80 JUMPI PUSH1 0x40 MLOAD PUSH32 0x8C379A000000000000000000000000000000000000000000000000000000000 DUP2 MSTORE PUSH1 0x4 ADD PUSH2 0x1E77 SWAP1 PUSH2 0x2DEE JUMP JUMPDEST PUSH1 0x40 MLOAD DUP1 SWAP2 SUB SWAP1 REVERT JUMPDEST PUSH1 0x0 PUSH1 0x1 SWAP1 POP JUMPDEST PUSH1 0x2 SLOAD DUP2 GT PUSH2 0x1F2B JUMPI DUP5 PUSH20 0xFFFFFFFFFFFFFFFFFFFFFFFFFFFFFFFFFFFFFFFF AND PUSH1 0x1 PUSH1 0x0 DUP4 DUP2 MSTORE PUSH1 0x20 ADD SWAP1 DUP2 MSTORE PUSH1 0x20 ADD PUSH1 0x0 KECCAK256 PUSH1 0x2 ADD PUSH1 0x0 SWAP1 SLOAD SWAP1 PUSH2 0x100 EXP SWAP1 DIV PUSH20 0xFFFFFFFFFFFFFFFFFFFFFFFFFFFFFFFFFFFFFFFF AND PUSH20 0xFFFFFFFFFFFFFFFFFFFFFFFFFFFFFFFFFFFFFFFF AND SUB PUSH2 0x1F18 JUMPI PUSH1 0x1 PUSH1 0x0 DUP3 DUP2 MSTORE PUSH1 0x20 ADD SWAP1 DUP2 MSTORE PUSH1 0x20 ADD PUSH1 0x0 KECCAK256 PUSH1 0x1 ADD SLOAD SWAP3 POP POP PUSH2 0x1F31 JUMP JUMPDEST DUP1 DUP1 PUSH2 0x1F23 SWAP1 PUSH2 0x2E3D JUMP JUMPDEST SWAP2 POP POP PUSH2 0x1E87 JUMP JUMPDEST POP PUSH1 0x0 SWAP2 POP JUMPDEST POP SWAP3 SWAP2 POP POP JUMP JUMPDEST PUSH1 0x0 DUP3 PUSH32 0x8E1604A838D0F1A9B2CDA14A099E4CEB08E966CC6E05E8296F67B02D61A79F09 PUSH1 0x0 SHL DUP2 EQ PUSH2 0x1FA0 JUMPI PUSH1 0x40 MLOAD PUSH32 0x8C379A000000000000000000000000000000000000000000000000000000000 DUP2 MSTORE PUSH1 0x4 ADD PUSH2 0x1F97 SWAP1 PUSH2 0x2DEE JUMP JUMPDEST PUSH1 0x40 MLOAD DUP1 SWAP2 SUB SWAP1 REVERT JUMPDEST DUP5 DUP1 PUSH1 0x1 GT ISZERO DUP1 ISZERO PUSH2 0x1FB4 JUMPI POP PUSH1 0x2 SLOAD DUP2 GT ISZERO JUMPDEST PUSH2 0x1FF3 JUMPI PUSH1 0x40 MLOAD PUSH32 0x8C379A000000000000000000000000000000000000000000000000000000000 DUP2 MSTORE PUSH1 0x4 ADD PUSH2 0x1FEA SWAP1 PUSH2 0x31D5 JUMP JUMPDEST PUSH1 0x40 MLOAD DUP1 SWAP2 SUB SWAP1 REVERT JUMPDEST DUP4 PUSH1 0x1 PUSH1 0x0 DUP9 DUP2 MSTORE PUSH1 0x20 ADD SWAP1 DUP2 MSTORE PUSH1 0x20 ADD PUSH1 0x0 KECCAK256 PUSH1 0x8 ADD SWAP1 DUP2 PUSH2 0x2016 SWAP2 SWAP1 PUSH2 0x3091 JUMP JUMPDEST POP PUSH1 0x1 SWAP3 POP POP POP SWAP4 SWAP3 POP POP POP JUMP JUMPDEST PUSH1 0x0 DUP3 PUSH32 0x8E1604A838D0F1A9B2CDA14A099E4CEB08E966CC6E05E8296F67B02D61A79F09 PUSH1 0x0 SHL DUP2 EQ PUSH2 0x208C JUMPI PUSH1 0x40 MLOAD PUSH32 0x8C379A000000000000000000000000000000000000000000000000000000000 DUP2 MSTORE PUSH1 0x4 ADD PUSH2 0x2083 SWAP1 PUSH2 0x2DEE JUMP JUMPDEST PUSH1 0x40 MLOAD DUP1 SWAP2 SUB SWAP1 REVERT JUMPDEST DUP5 DUP1 PUSH1 0x1 GT ISZERO DUP1 ISZERO PUSH2 0x20A0 JUMPI POP PUSH1 0x2 SLOAD DUP2 GT ISZERO JUMPDEST PUSH2 0x20DF JUMPI PUSH1 0x40 MLOAD PUSH32 0x8C379A000000000000000000000000000000000000000000000000000000000 DUP2 MSTORE PUSH1 0x4 ADD PUSH2 0x20D6 SWAP1 PUSH2 0x31D5 JUMP JUMPDEST PUSH1 0x40 MLOAD DUP1 SWAP2 SUB SWAP1 REVERT JUMPDEST DUP4 PUSH1 0x1 PUSH1 0x0 DUP9 DUP2 MSTORE PUSH1 0x20 ADD SWAP1 DUP2 MSTORE PUSH1 0x20 ADD PUSH1 0x0 KECCAK256 PUSH1 0x4 ADD SWAP1 DUP2 PUSH2 0x2102 SWAP2 SWAP1 PUSH2 0x3091 JUMP JUMPDEST POP PUSH1 0x1 SWAP3 POP POP POP SWAP4 SWAP3 POP POP POP JUMP JUMPDEST PUSH1 0x0 DUP3 PUSH32 0x8E1604A838D0F1A9B2CDA14A099E4CEB08E966CC6E05E8296F67B02D61A79F09 PUSH1 0x0 SHL DUP2 EQ PUSH2 0x2178 JUMPI PUSH1 0x40 MLOAD PUSH32 0x8C379A000000000000000000000000000000000000000000000000000000000 DUP2 MSTORE PUSH1 0x4 ADD PUSH2 0x216F SWAP1 PUSH2 0x2DEE JUMP JUMPDEST PUSH1 0x40 MLOAD DUP1 SWAP2 SUB SWAP1 REVERT JUMPDEST DUP5 DUP1 PUSH1 0x1 GT ISZERO DUP1 ISZERO PUSH2 0x218C JUMPI POP PUSH1 0x2 SLOAD DUP2 GT ISZERO JUMPDEST PUSH2 0x21CB JUMPI PUSH1 0x40 MLOAD PUSH32 0x8C379A000000000000000000000000000000000000000000000000000000000 DUP2 MSTORE PUSH1 0x4 ADD PUSH2 0x21C2 SWAP1 PUSH2 0x31D5 JUMP JUMPDEST PUSH1 0x40 MLOAD DUP1 SWAP2 SUB SWAP1 REVERT JUMPDEST DUP4 PUSH1 0x1 PUSH1 0x0 DUP9 DUP2 MSTORE PUSH1 0x20 ADD SWAP1 DUP2 MSTORE PUSH1 0x20 ADD PUSH1 0x0 KECCAK256 PUSH1 0x5 ADD SWAP1 DUP2 PUSH2 0x21EE SWAP2 SWAP1 PUSH2 0x3091 JUMP JUMPDEST POP PUSH1 0x1 SWAP3 POP POP POP SWAP4 SWAP3 POP POP POP JUMP JUMPDEST PUSH2 0x2204 PUSH2 0x22F2 JUMP JUMPDEST PUSH1 0x0 PUSH20 0xFFFFFFFFFFFFFFFFFFFFFFFFFFFFFFFFFFFFFFFF AND DUP2 PUSH20 0xFFFFFFFFFFFFFFFFFFFFFFFFFFFFFFFFFFFFFFFF AND SUB PUSH2 0x2273 JUMPI PUSH1 0x40 MLOAD PUSH32 0x8C379A000000000000000000000000000000000000000000000000000000000 DUP2 MSTORE PUSH1 0x4 ADD PUSH2 0x226A SWAP1 PUSH2 0x3267 JUMP JUMPDEST PUSH1 0x40 MLOAD DUP1 SWAP2 SUB SWAP1 REVERT JUMPDEST PUSH2 0x227C DUP2 PUSH2 0x2369 JUMP JUMPDEST POP JUMP JUMPDEST PUSH1 0x0 DUP2 PUSH32 0x8E1604A838D0F1A9B2CDA14A099E4CEB08E966CC6E05E8296F67B02D61A79F09 PUSH1 0x0 SHL DUP2 EQ PUSH2 0x22E7 JUMPI PUSH1 0x40 MLOAD PUSH32 0x8C379A000000000000000000000000000000000000000000000000000000000 DUP2 MSTORE PUSH1 0x4 ADD PUSH2 0x22DE SWAP1 PUSH2 0x2DEE JUMP JUMPDEST PUSH1 0x40 MLOAD DUP1 SWAP2 SUB SWAP1 REVERT JUMPDEST PUSH1 0x2 SLOAD SWAP2 POP POP SWAP2 SWAP1 POP JUMP JUMPDEST CALLER PUSH20 0xFFFFFFFFFFFFFFFFFFFFFFFFFFFFFFFFFFFFFFFF AND PUSH2 0x2311 PUSH2 0x1451 JUMP JUMPDEST PUSH20 0xFFFFFFFFFFFFFFFFFFFFFFFFFFFFFFFFFFFFFFFF AND EQ PUSH2 0x2367 JUMPI PUSH1 0x40 MLOAD PUSH32 0x8C379A000000000000000000000000000000000000000000000000000000000 DUP2 MSTORE PUSH1 0x4 ADD PUSH2 0x235E SWAP1 PUSH2 0x32D3 JUMP JUMPDEST PUSH1 0x40 MLOAD DUP1 SWAP2 SUB SWAP1 REVERT JUMPDEST JUMP JUMPDEST PUSH1 0x0 DUP1 PUSH1 0x0 SWAP1 SLOAD SWAP1 PUSH2 0x100 EXP SWAP1 DIV PUSH20 0xFFFFFFFFFFFFFFFFFFFFFFFFFFFFFFFFFFFFFFFF AND SWAP1 POP DUP2 PUSH1 0x0 DUP1 PUSH2 0x100 EXP DUP2 SLOAD DUP2 PUSH20 0xFFFFFFFFFFFFFFFFFFFFFFFFFFFFFFFFFFFFFFFF MUL NOT AND SWAP1 DUP4 PUSH20 0xFFFFFFFFFFFFFFFFFFFFFFFFFFFFFFFFFFFFFFFF AND MUL OR SWAP1 SSTORE POP DUP2 PUSH20 0xFFFFFFFFFFFFFFFFFFFFFFFFFFFFFFFFFFFFFFFF AND DUP2 PUSH20 0xFFFFFFFFFFFFFFFFFFFFFFFFFFFFFFFFFFFFFFFF AND PUSH32 0x8BE0079C531659141344CD1FD0A4F28419497F9722A3DAAFE3B4186F6B6457E0 PUSH1 0x40 MLOAD PUSH1 0x40 MLOAD DUP1 SWAP2 SUB SWAP1 LOG3 POP POP JUMP JUMPDEST PUSH1 0x40 MLOAD DUP1 PUSH2 0x160 ADD PUSH1 0x40 MSTORE DUP1 PUSH1 0x0 DUP2 MSTORE PUSH1 0x20 ADD PUSH1 0x0 DUP2 MSTORE PUSH1 0x20 ADD PUSH1 0x0 PUSH20 0xFFFFFFFFFFFFFFFFFFFFFFFFFFFFFFFFFFFFFFFF AND DUP2 MSTORE PUSH1 0x20 ADD PUSH1 0x60 DUP2 MSTORE PUSH1 0x20 ADD PUSH1 0x60 DUP2 MSTORE PUSH1 0x20 ADD PUSH1 0x60 DUP2 MSTORE PUSH1 0x20 ADD PUSH1 0x60 DUP2 MSTORE PUSH1 0x20 ADD PUSH1 0x60 DUP2 MSTORE PUSH1 0x20 ADD PUSH1 0x60 DUP2 MSTORE PUSH1 0x20 ADD PUSH1 0x60 DUP2 MSTORE PUSH1 0x20 ADD PUSH1 0x60 DUP2 MSTORE POP SWAP1 JUMP JUMPDEST PUSH1 0x0 PUSH1 0x40 MLOAD SWAP1 POP SWAP1 JUMP JUMPDEST PUSH1 0x0 DUP1 REVERT JUMPDEST PUSH1 0x0 DUP1 REVERT JUMPDEST PUSH1 0x0 DUP1 REVERT JUMPDEST PUSH1 0x0 PUSH1 0x1F NOT PUSH1 0x1F DUP4 ADD AND SWAP1 POP SWAP2 SWAP1 POP JUMP JUMPDEST PUSH32 0x4E487B7100000000000000000000000000000000000000000000000000000000 PUSH1 0x0 MSTORE PUSH1 0x41 PUSH1 0x4 MSTORE PUSH1 0x24 PUSH1 0x0 REVERT JUMPDEST PUSH2 0x24FF DUP3 PUSH2 0x24B6 JUMP JUMPDEST DUP2 ADD DUP2 DUP2 LT PUSH8 0xFFFFFFFFFFFFFFFF DUP3 GT OR ISZERO PUSH2 0x251E JUMPI PUSH2 0x251D PUSH2 0x24C7 JUMP JUMPDEST JUMPDEST DUP1 PUSH1 0x40 MSTORE POP POP POP JUMP JUMPDEST PUSH1 0x0 PUSH2 0x2531 PUSH2 0x249D JUMP JUMPDEST SWAP1 POP PUSH2 0x253D DUP3 DUP3 PUSH2 0x24F6 JUMP JUMPDEST SWAP2 SWAP1 POP JUMP JUMPDEST PUSH1 0x0 DUP1 REVERT JUMPDEST PUSH1 0x0 DUP2 SWAP1 POP SWAP2 SWAP1 POP JUMP JUMPDEST PUSH2 0x255A DUP2 PUSH2 0x2547 JUMP JUMPDEST DUP2 EQ PUSH2 0x2565 JUMPI PUSH1 0x0 DUP1 REVERT JUMPDEST POP JUMP JUMPDEST PUSH1 0x0 DUP2 CALLDATALOAD SWAP1 POP PUSH2 0x2577 DUP2 PUSH2 0x2551 JUMP JUMPDEST SWAP3 SWAP2 POP POP JUMP JUMPDEST PUSH1 0x0 PUSH20 0xFFFFFFFFFFFFFFFFFFFFFFFFFFFFFFFFFFFFFFFF DUP3 AND SWAP1 POP SWAP2 SWAP1 POP JUMP JUMPDEST PUSH1 0x0 PUSH2 0x25A8 DUP3 PUSH2 0x257D JUMP JUMPDEST SWAP1 POP SWAP2 SWAP1 POP JUMP JUMPDEST PUSH2 0x25B8 DUP2 PUSH2 0x259D JUMP JUMPDEST DUP2 EQ PUSH2 0x25C3 JUMPI PUSH1 0x0 DUP1 REVERT JUMPDEST POP JUMP JUMPDEST PUSH1 0x0 DUP2 CALLDATALOAD SWAP1 POP PUSH2 0x25D5 DUP2 PUSH2 0x25AF JUMP JUMPDEST SWAP3 SWAP2 POP POP JUMP JUMPDEST PUSH1 0x0 DUP1 REVERT JUMPDEST PUSH1 0x0 DUP1 REVERT JUMPDEST PUSH1 0x0 PUSH8 0xFFFFFFFFFFFFFFFF DUP3 GT ISZERO PUSH2 0x2600 JUMPI PUSH2 0x25FF PUSH2 0x24C7 JUMP JUMPDEST JUMPDEST PUSH2 0x2609 DUP3 PUSH2 0x24B6 JUMP JUMPDEST SWAP1 POP PUSH1 0x20 DUP2 ADD SWAP1 POP SWAP2 SWAP1 POP JUMP JUMPDEST DUP3 DUP2 DUP4 CALLDATACOPY PUSH1 0x0 DUP4 DUP4 ADD MSTORE POP POP POP JUMP JUMPDEST PUSH1 0x0 PUSH2 0x2638 PUSH2 0x2633 DUP5 PUSH2 0x25E5 JUMP JUMPDEST PUSH2 0x2527 JUMP JUMPDEST SWAP1 POP DUP3 DUP2 MSTORE PUSH1 0x20 DUP2 ADD DUP5 DUP5 DUP5 ADD GT ISZERO PUSH2 0x2654 JUMPI PUSH2 0x2653 PUSH2 0x25E0 JUMP JUMPDEST JUMPDEST PUSH2 0x265F DUP5 DUP3 DUP6 PUSH2 0x2616 JUMP JUMPDEST POP SWAP4 SWAP3 POP POP POP JUMP JUMPDEST PUSH1 0x0 DUP3 PUSH1 0x1F DUP4 ADD SLT PUSH2 0x267C JUMPI PUSH2 0x267B PUSH2 0x25DB JUMP JUMPDEST JUMPDEST DUP2 CALLDATALOAD PUSH2 0x268C DUP5 DUP3 PUSH1 0x20 DUP7 ADD PUSH2 0x2625 JUMP JUMPDEST SWAP2 POP POP SWAP3 SWAP2 POP POP JUMP JUMPDEST PUSH1 0x0 PUSH2 0x160 DUP3 DUP5 SUB SLT ISZERO PUSH2 0x26AC JUMPI PUSH2 0x26AB PUSH2 0x24B1 JUMP JUMPDEST JUMPDEST PUSH2 0x26B7 PUSH2 0x160 PUSH2 0x2527 JUMP JUMPDEST SWAP1 POP PUSH1 0x0 PUSH2 0x26C7 DUP5 DUP3 DUP6 ADD PUSH2 0x2568 JUMP JUMPDEST PUSH1 0x0 DUP4 ADD MSTORE POP PUSH1 0x20 PUSH2 0x26DB DUP5 DUP3 DUP6 ADD PUSH2 0x2568 JUMP JUMPDEST PUSH1 0x20 DUP4 ADD MSTORE POP PUSH1 0x40 PUSH2 0x26EF DUP5 DUP3 DUP6 ADD PUSH2 0x25C6 JUMP JUMPDEST PUSH1 0x40 DUP4 ADD MSTORE POP PUSH1 0x60 DUP3 ADD CALLDATALOAD PUSH8 0xFFFFFFFFFFFFFFFF DUP2 GT ISZERO PUSH2 0x2713 JUMPI PUSH2 0x2712 PUSH2 0x2542 JUMP JUMPDEST JUMPDEST PUSH2 0x271F DUP5 DUP3 DUP6 ADD PUSH2 0x2667 JUMP JUMPDEST PUSH1 0x60 DUP4 ADD MSTORE POP PUSH1 0x80 DUP3 ADD CALLDATALOAD PUSH8 0xFFFFFFFFFFFFFFFF DUP2 GT ISZERO PUSH2 0x2743 JUMPI PUSH2 0x2742 PUSH2 0x2542 JUMP JUMPDEST JUMPDEST PUSH2 0x274F DUP5 DUP3 DUP6 ADD PUSH2 0x2667 JUMP JUMPDEST PUSH1 0x80 DUP4 ADD MSTORE POP PUSH1 0xA0 DUP3 ADD CALLDATALOAD PUSH8 0xFFFFFFFFFFFFFFFF DUP2 GT ISZERO PUSH2 0x2773 JUMPI PUSH2 0x2772 PUSH2 0x2542 JUMP JUMPDEST JUMPDEST PUSH2 0x277F DUP5 DUP3 DUP6 ADD PUSH2 0x2667 JUMP JUMPDEST PUSH1 0xA0 DUP4 ADD MSTORE POP PUSH1 0xC0 DUP3 ADD CALLDATALOAD PUSH8 0xFFFFFFFFFFFFFFFF DUP2 GT ISZERO PUSH2 0x27A3 JUMPI PUSH2 0x27A2 PUSH2 0x2542 JUMP JUMPDEST JUMPDEST PUSH2 0x27AF DUP5 DUP3 DUP6 ADD PUSH2 0x2667 JUMP JUMPDEST PUSH1 0xC0 DUP4 ADD MSTORE POP PUSH1 0xE0 DUP3 ADD CALLDATALOAD PUSH8 0xFFFFFFFFFFFFFFFF DUP2 GT ISZERO PUSH2 0x27D3 JUMPI PUSH2 0x27D2 PUSH2 0x2542 JUMP JUMPDEST JUMPDEST PUSH2 0x27DF DUP5 DUP3 DUP6 ADD PUSH2 0x2667 JUMP JUMPDEST PUSH1 0xE0 DUP4 ADD MSTORE POP PUSH2 0x100 DUP3 ADD CALLDATALOAD PUSH8 0xFFFFFFFFFFFFFFFF DUP2 GT ISZERO PUSH2 0x2804 JUMPI PUSH2 0x2803 PUSH2 0x2542 JUMP JUMPDEST JUMPDEST PUSH2 0x2810 DUP5 DUP3 DUP6 ADD PUSH2 0x2667 JUMP JUMPDEST PUSH2 0x100 DUP4 ADD MSTORE POP PUSH2 0x120 DUP3 ADD CALLDATALOAD PUSH8 0xFFFFFFFFFFFFFFFF DUP2 GT ISZERO PUSH2 0x2836 JUMPI PUSH2 0x2835 PUSH2 0x2542 JUMP JUMPDEST JUMPDEST PUSH2 0x2842 DUP5 DUP3 DUP6 ADD PUSH2 0x2667 JUMP JUMPDEST PUSH2 0x120 DUP4 ADD MSTORE POP PUSH2 0x140 DUP3 ADD CALLDATALOAD PUSH8 0xFFFFFFFFFFFFFFFF DUP2 GT ISZERO PUSH2 0x2868 JUMPI PUSH2 0x2867 PUSH2 0x2542 JUMP JUMPDEST JUMPDEST PUSH2 0x2874 DUP5 DUP3 DUP6 ADD PUSH2 0x2667 JUMP JUMPDEST PUSH2 0x140 DUP4 ADD MSTORE POP SWAP3 SWAP2 POP POP JUMP JUMPDEST PUSH1 0x0 DUP2 SWAP1 POP SWAP2 SWAP1 POP JUMP JUMPDEST PUSH2 0x2894 DUP2 PUSH2 0x2881 JUMP JUMPDEST DUP2 EQ PUSH2 0x289F JUMPI PUSH1 0x0 DUP1 REVERT JUMPDEST POP JUMP JUMPDEST PUSH1 0x0 DUP2 CALLDATALOAD SWAP1 POP PUSH2 0x28B1 DUP2 PUSH2 0x288B JUMP JUMPDEST SWAP3 SWAP2 POP POP JUMP JUMPDEST PUSH1 0x0 DUP1 PUSH1 0x40 DUP4 DUP6 SUB SLT ISZERO PUSH2 0x28CE JUMPI PUSH2 0x28CD PUSH2 0x24A7 JUMP JUMPDEST JUMPDEST PUSH1 0x0 DUP4 ADD CALLDATALOAD PUSH8 0xFFFFFFFFFFFFFFFF DUP2 GT ISZERO PUSH2 0x28EC JUMPI PUSH2 0x28EB PUSH2 0x24AC JUMP JUMPDEST JUMPDEST PUSH2 0x28F8 DUP6 DUP3 DUP7 ADD PUSH2 0x2695 JUMP JUMPDEST SWAP3 POP POP PUSH1 0x20 PUSH2 0x2909 DUP6 DUP3 DUP7 ADD PUSH2 0x28A2 JUMP JUMPDEST SWAP2 POP POP SWAP3 POP SWAP3 SWAP1 POP JUMP JUMPDEST PUSH1 0x0 DUP2 ISZERO ISZERO SWAP1 POP SWAP2 SWAP1 POP JUMP JUMPDEST PUSH2 0x2928 DUP2 PUSH2 0x2913 JUMP JUMPDEST DUP3 MSTORE POP POP JUMP JUMPDEST PUSH1 0x0 PUSH1 0x20 DUP3 ADD SWAP1 POP PUSH2 0x2943 PUSH1 0x0 DUP4 ADD DUP5 PUSH2 0x291F JUMP JUMPDEST SWAP3 SWAP2 POP POP JUMP JUMPDEST PUSH1 0x0 DUP1 PUSH1 0x40 DUP4 DUP6 SUB SLT ISZERO PUSH2 0x2960 JUMPI PUSH2 0x295F PUSH2 0x24A7 JUMP JUMPDEST JUMPDEST PUSH1 0x0 PUSH2 0x296E DUP6 DUP3 DUP7 ADD PUSH2 0x25C6 JUMP JUMPDEST SWAP3 POP POP PUSH1 0x20 PUSH2 0x297F DUP6 DUP3 DUP7 ADD PUSH2 0x28A2 JUMP JUMPDEST SWAP2 POP POP SWAP3 POP SWAP3 SWAP1 POP JUMP JUMPDEST PUSH2 0x2992 DUP2 PUSH2 0x2547 JUMP JUMPDEST DUP3 MSTORE POP POP JUMP JUMPDEST PUSH2 0x29A1 DUP2 PUSH2 0x259D JUMP JUMPDEST DUP3 MSTORE POP POP JUMP JUMPDEST PUSH1 0x0 DUP2 MLOAD SWAP1 POP SWAP2 SWAP1 POP JUMP JUMPDEST PUSH1 0x0 DUP3 DUP3 MSTORE PUSH1 0x20 DUP3 ADD SWAP1 POP SWAP3 SWAP2 POP POP JUMP JUMPDEST PUSH1 0x0 JUMPDEST DUP4 DUP2 LT ISZERO PUSH2 0x29E1 JUMPI DUP1 DUP3 ADD MLOAD DUP2 DUP5 ADD MSTORE PUSH1 0x20 DUP2 ADD SWAP1 POP PUSH2 0x29C6 JUMP JUMPDEST PUSH1 0x0 DUP5 DUP5 ADD MSTORE POP POP POP POP JUMP JUMPDEST PUSH1 0x0 PUSH2 0x29F8 DUP3 PUSH2 0x29A7 JUMP JUMPDEST PUSH2 0x2A02 DUP2 DUP6 PUSH2 0x29B2 JUMP JUMPDEST SWAP4 POP PUSH2 0x2A12 DUP2 DUP6 PUSH1 0x20 DUP7 ADD PUSH2 0x29C3 JUMP JUMPDEST PUSH2 0x2A1B DUP2 PUSH2 0x24B6 JUMP JUMPDEST DUP5 ADD SWAP2 POP POP SWAP3 SWAP2 POP POP JUMP JUMPDEST PUSH1 0x0 PUSH2 0x160 DUP4 ADD PUSH1 0x0 DUP4 ADD MLOAD PUSH2 0x2A3F PUSH1 0x0 DUP7 ADD DUP3 PUSH2 0x2989 JUMP JUMPDEST POP PUSH1 0x20 DUP4 ADD MLOAD PUSH2 0x2A52 PUSH1 0x20 DUP7 ADD DUP3 PUSH2 0x2989 JUMP JUMPDEST POP PUSH1 0x40 DUP4 ADD MLOAD PUSH2 0x2A65 PUSH1 0x40 DUP7 ADD DUP3 PUSH2 0x2998 JUMP JUMPDEST POP PUSH1 0x60 DUP4 ADD MLOAD DUP5 DUP3 SUB PUSH1 0x60 DUP7 ADD MSTORE PUSH2 0x2A7D DUP3 DUP3 PUSH2 0x29ED JUMP JUMPDEST SWAP2 POP POP PUSH1 0x80 DUP4 ADD MLOAD DUP5 DUP3 SUB PUSH1 0x80 DUP7 ADD MSTORE PUSH2 0x2A97 DUP3 DUP3 PUSH2 0x29ED JUMP JUMPDEST SWAP2 POP POP PUSH1 0xA0 DUP4 ADD MLOAD DUP5 DUP3 SUB PUSH1 0xA0 DUP7 ADD MSTORE PUSH2 0x2AB1 DUP3 DUP3 PUSH2 0x29ED JUMP JUMPDEST SWAP2 POP POP PUSH1 0xC0 DUP4 ADD MLOAD DUP5 DUP3 SUB PUSH1 0xC0 DUP7 ADD MSTORE PUSH2 0x2ACB DUP3 DUP3 PUSH2 0x29ED JUMP JUMPDEST SWAP2 POP POP PUSH1 0xE0 DUP4 ADD MLOAD DUP5 DUP3 SUB PUSH1 0xE0 DUP7 ADD MSTORE PUSH2 0x2AE5 DUP3 DUP3 PUSH2 0x29ED JUMP JUMPDEST SWAP2 POP POP PUSH2 0x100 DUP4 ADD MLOAD DUP5 DUP3 SUB PUSH2 0x100 DUP7 ADD MSTORE PUSH2 0x2B01 DUP3 DUP3 PUSH2 0x29ED JUMP JUMPDEST SWAP2 POP POP PUSH2 0x120 DUP4 ADD MLOAD DUP5 DUP3 SUB PUSH2 0x120 DUP7 ADD MSTORE PUSH2 0x2B1D DUP3 DUP3 PUSH2 0x29ED JUMP JUMPDEST SWAP2 POP POP PUSH2 0x140 DUP4 ADD MLOAD DUP5 DUP3 SUB PUSH2 0x140 DUP7 ADD MSTORE PUSH2 0x2B39 DUP3 DUP3 PUSH2 0x29ED JUMP JUMPDEST SWAP2 POP POP DUP1 SWAP2 POP POP SWAP3 SWAP2 POP POP JUMP JUMPDEST PUSH1 0x0 PUSH1 0x20 DUP3 ADD SWAP1 POP DUP2 DUP2 SUB PUSH1 0x0 DUP4 ADD MSTORE PUSH2 0x2B60 DUP2 DUP5 PUSH2 0x2A26 JUMP JUMPDEST SWAP1 POP SWAP3 SWAP2 POP POP JUMP JUMPDEST PUSH1 0x0 DUP1 PUSH1 0x0 PUSH1 0x60 DUP5 DUP7 SUB SLT ISZERO PUSH2 0x2B81 JUMPI PUSH2 0x2B80 PUSH2 0x24A7 JUMP JUMPDEST JUMPDEST PUSH1 0x0 PUSH2 0x2B8F DUP7 DUP3 DUP8 ADD PUSH2 0x2568 JUMP JUMPDEST SWAP4 POP POP PUSH1 0x20 PUSH2 0x2BA0 DUP7 DUP3 DUP8 ADD PUSH2 0x28A2 JUMP JUMPDEST SWAP3 POP POP PUSH1 0x40 PUSH2 0x2BB1 DUP7 DUP3 DUP8 ADD PUSH2 0x2568 JUMP JUMPDEST SWAP2 POP POP SWAP3 POP SWAP3 POP SWAP3 JUMP JUMPDEST PUSH1 0x0 DUP1 PUSH1 0x0 PUSH1 0x60 DUP5 DUP7 SUB SLT ISZERO PUSH2 0x2BD4 JUMPI PUSH2 0x2BD3 PUSH2 0x24A7 JUMP JUMPDEST JUMPDEST PUSH1 0x0 PUSH2 0x2BE2 DUP7 DUP3 DUP8 ADD PUSH2 0x2568 JUMP JUMPDEST SWAP4 POP POP PUSH1 0x20 PUSH2 0x2BF3 DUP7 DUP3 DUP8 ADD PUSH2 0x28A2 JUMP JUMPDEST SWAP3 POP POP PUSH1 0x40 DUP5 ADD CALLDATALOAD PUSH8 0xFFFFFFFFFFFFFFFF DUP2 GT ISZERO PUSH2 0x2C14 JUMPI PUSH2 0x2C13 PUSH2 0x24AC JUMP JUMPDEST JUMPDEST PUSH2 0x2C20 DUP7 DUP3 DUP8 ADD PUSH2 0x2667 JUMP JUMPDEST SWAP2 POP POP SWAP3 POP SWAP3 POP SWAP3 JUMP JUMPDEST PUSH1 0x0 DUP1 PUSH1 0x0 PUSH1 0x60 DUP5 DUP7 SUB SLT ISZERO PUSH2 0x2C43 JUMPI PUSH2 0x2C42 PUSH2 0x24A7 JUMP JUMPDEST JUMPDEST PUSH1 0x0 PUSH2 0x2C51 DUP7 DUP3 DUP8 ADD PUSH2 0x2568 JUMP JUMPDEST SWAP4 POP POP PUSH1 0x20 PUSH2 0x2C62 DUP7 DUP3 DUP8 ADD PUSH2 0x28A2 JUMP JUMPDEST SWAP3 POP POP PUSH1 0x40 PUSH2 0x2C73 DUP7 DUP3 DUP8 ADD PUSH2 0x25C6 JUMP JUMPDEST SWAP2 POP POP SWAP3 POP SWAP3 POP SWAP3 JUMP JUMPDEST PUSH2 0x2C86 DUP2 PUSH2 0x259D JUMP JUMPDEST DUP3 MSTORE POP POP JUMP JUMPDEST PUSH1 0x0 PUSH1 0x20 DUP3 ADD SWAP1 POP PUSH2 0x2CA1 PUSH1 0x0 DUP4 ADD DUP5 PUSH2 0x2C7D JUMP JUMPDEST SWAP3 SWAP2 POP POP JUMP JUMPDEST PUSH1 0x0 DUP1 PUSH1 0x40 DUP4 DUP6 SUB SLT ISZERO PUSH2 0x2CBE JUMPI PUSH2 0x2CBD PUSH2 0x24A7 JUMP JUMPDEST JUMPDEST PUSH1 0x0 PUSH2 0x2CCC DUP6 DUP3 DUP7 ADD PUSH2 0x2568 JUMP JUMPDEST SWAP3 POP POP PUSH1 0x20 PUSH2 0x2CDD DUP6 DUP3 DUP7 ADD PUSH2 0x28A2 JUMP JUMPDEST SWAP2 POP POP SWAP3 POP SWAP3 SWAP1 POP JUMP JUMPDEST PUSH2 0x2CF0 DUP2 PUSH2 0x2547 JUMP JUMPDEST DUP3 MSTORE POP POP JUMP JUMPDEST PUSH1 0x0 PUSH1 0x20 DUP3 ADD SWAP1 POP PUSH2 0x2D0B PUSH1 0x0 DUP4 ADD DUP5 PUSH2 0x2CE7 JUMP JUMPDEST SWAP3 SWAP2 POP POP JUMP JUMPDEST PUSH1 0x0 PUSH1 0x20 DUP3 DUP5 SUB SLT ISZERO PUSH2 0x2D27 JUMPI PUSH2 0x2D26 PUSH2 0x24A7 JUMP JUMPDEST JUMPDEST PUSH1 0x0 PUSH2 0x2D35 DUP5 DUP3 DUP6 ADD PUSH2 0x25C6 JUMP JUMPDEST SWAP2 POP POP SWAP3 SWAP2 POP POP JUMP JUMPDEST PUSH1 0x0 PUSH1 0x20 DUP3 DUP5 SUB SLT ISZERO PUSH2 0x2D54 JUMPI PUSH2 0x2D53 PUSH2 0x24A7 JUMP JUMPDEST JUMPDEST PUSH1 0x0 PUSH2 0x2D62 DUP5 DUP3 DUP6 ADD PUSH2 0x28A2 JUMP JUMPDEST SWAP2 POP POP SWAP3 SWAP2 POP POP JUMP JUMPDEST PUSH1 0x0 DUP3 DUP3 MSTORE PUSH1 0x20 DUP3 ADD SWAP1 POP SWAP3 SWAP2 POP POP JUMP JUMPDEST PUSH32 0x4461746162617365204C697374427573696E6573733A20536563726574206B65 PUSH1 0x0 DUP3 ADD MSTORE PUSH32 0x79206572726F7200000000000000000000000000000000000000000000000000 PUSH1 0x20 DUP3 ADD MSTORE POP JUMP JUMPDEST PUSH1 0x0 PUSH2 0x2DD8 PUSH1 0x27 DUP4 PUSH2 0x2D6B JUMP JUMPDEST SWAP2 POP PUSH2 0x2DE3 DUP3 PUSH2 0x2D7C JUMP JUMPDEST PUSH1 0x40 DUP3 ADD SWAP1 POP SWAP2 SWAP1 POP JUMP JUMPDEST PUSH1 0x0 PUSH1 0x20 DUP3 ADD SWAP1 POP DUP2 DUP2 SUB PUSH1 0x0 DUP4 ADD MSTORE PUSH2 0x2E07 DUP2 PUSH2 0x2DCB JUMP JUMPDEST SWAP1 POP SWAP2 SWAP1 POP JUMP JUMPDEST PUSH32 0x4E487B7100000000000000000000000000000000000000000000000000000000 PUSH1 0x0 MSTORE PUSH1 0x11 PUSH1 0x4 MSTORE PUSH1 0x24 PUSH1 0x0 REVERT JUMPDEST PUSH1 0x0 PUSH2 0x2E48 DUP3 PUSH2 0x2547 JUMP JUMPDEST SWAP2 POP PUSH32 0xFFFFFFFFFFFFFFFFFFFFFFFFFFFFFFFFFFFFFFFFFFFFFFFFFFFFFFFFFFFFFFFF DUP3 SUB PUSH2 0x2E7A JUMPI PUSH2 0x2E79 PUSH2 0x2E0E JUMP JUMPDEST JUMPDEST PUSH1 0x1 DUP3 ADD SWAP1 POP SWAP2 SWAP1 POP JUMP JUMPDEST PUSH32 0x4E487B7100000000000000000000000000000000000000000000000000000000 PUSH1 0x0 MSTORE PUSH1 0x22 PUSH1 0x4 MSTORE PUSH1 0x24 PUSH1 0x0 REVERT JUMPDEST PUSH1 0x0 PUSH1 0x2 DUP3 DIV SWAP1 POP PUSH1 0x1 DUP3 AND DUP1 PUSH2 0x2ECC JUMPI PUSH1 0x7F DUP3 AND SWAP2 POP JUMPDEST PUSH1 0x20 DUP3 LT DUP2 SUB PUSH2 0x2EDF JUMPI PUSH2 0x2EDE PUSH2 0x2E85 JUMP JUMPDEST JUMPDEST POP SWAP2 SWAP1 POP JUMP JUMPDEST PUSH1 0x0 DUP2 SWAP1 POP DUP2 PUSH1 0x0 MSTORE PUSH1 0x20 PUSH1 0x0 KECCAK256 SWAP1 POP SWAP2 SWAP1 POP JUMP JUMPDEST PUSH1 0x0 PUSH1 0x20 PUSH1 0x1F DUP4 ADD DIV SWAP1 POP SWAP2 SWAP1 POP JUMP JUMPDEST PUSH1 0x0 DUP3 DUP3 SHL SWAP1 POP SWAP3 SWAP2 POP POP JUMP JUMPDEST PUSH1 0x0 PUSH1 0x8 DUP4 MUL PUSH2 0x2F47 PUSH32 0xFFFFFFFFFFFFFFFFFFFFFFFFFFFFFFFFFFFFFFFFFFFFFFFFFFFFFFFFFFFFFFFF DUP3 PUSH2 0x2F0A JUMP JUMPDEST PUSH2 0x2F51 DUP7 DUP4 PUSH2 0x2F0A JUMP JUMPDEST SWAP6 POP DUP1 NOT DUP5 AND SWAP4 POP DUP1 DUP7 AND DUP5 OR SWAP3 POP POP POP SWAP4 SWAP3 POP POP POP JUMP JUMPDEST PUSH1 0x0 DUP2 SWAP1 POP SWAP2 SWAP1 POP JUMP JUMPDEST PUSH1 0x0 PUSH2 0x2F8E PUSH2 0x2F89 PUSH2 0x2F84 DUP5 PUSH2 0x2547 JUMP JUMPDEST PUSH2 0x2F69 JUMP JUMPDEST PUSH2 0x2547 JUMP JUMPDEST SWAP1 POP SWAP2 SWAP1 POP JUMP JUMPDEST PUSH1 0x0 DUP2 SWAP1 POP SWAP2 SWAP1 POP JUMP JUMPDEST PUSH2 0x2FA8 DUP4 PUSH2 0x2F73 JUMP JUMPDEST PUSH2 0x2FBC PUSH2 0x2FB4 DUP3 PUSH2 0x2F95 JUMP JUMPDEST DUP5 DUP5 SLOAD PUSH2 0x2F17 JUMP JUMPDEST DUP3 SSTORE POP POP POP POP JUMP JUMPDEST PUSH1 0x0 SWAP1 JUMP JUMPDEST PUSH2 0x2FD1 PUSH2 0x2FC4 JUMP JUMPDEST PUSH2 0x2FDC DUP2 DUP5 DUP5 PUSH2 0x2F9F JUMP JUMPDEST POP POP POP JUMP JUMPDEST JUMPDEST DUP2 DUP2 LT ISZERO PUSH2 0x3000 JUMPI PUSH2 0x2FF5 PUSH1 0x0 DUP3 PUSH2 0x2FC9 JUMP JUMPDEST PUSH1 0x1 DUP2 ADD SWAP1 POP PUSH2 0x2FE2 JUMP JUMPDEST POP POP JUMP JUMPDEST PUSH1 0x1F DUP3 GT ISZERO PUSH2 0x3045 JUMPI PUSH2 0x3016 DUP2 PUSH2 0x2EE5 JUMP JUMPDEST PUSH2 0x301F DUP5 PUSH2 0x2EFA JUMP JUMPDEST DUP2 ADD PUSH1 0x20 DUP6 LT ISZERO PUSH2 0x302E JUMPI DUP2 SWAP1 POP JUMPDEST PUSH2 0x3042 PUSH2 0x303A DUP6 PUSH2 0x2EFA JUMP JUMPDEST DUP4 ADD DUP3 PUSH2 0x2FE1 JUMP JUMPDEST POP POP JUMPDEST POP POP POP JUMP JUMPDEST PUSH1 0x0 DUP3 DUP3 SHR SWAP1 POP SWAP3 SWAP2 POP POP JUMP JUMPDEST PUSH1 0x0 PUSH2 0x3068 PUSH1 0x0 NOT DUP5 PUSH1 0x8 MUL PUSH2 0x304A JUMP JUMPDEST NOT DUP1 DUP4 AND SWAP2 POP POP SWAP3 SWAP2 POP POP JUMP JUMPDEST PUSH1 0x0 PUSH2 0x3081 DUP4 DUP4 PUSH2 0x3057 JUMP JUMPDEST SWAP2 POP DUP3 PUSH1 0x2 MUL DUP3 OR SWAP1 POP SWAP3 SWAP2 POP POP JUMP JUMPDEST PUSH2 0x309A DUP3 PUSH2 0x29A7 JUMP JUMPDEST PUSH8 0xFFFFFFFFFFFFFFFF DUP2 GT ISZERO PUSH2 0x30B3 JUMPI PUSH2 0x30B2 PUSH2 0x24C7 JUMP JUMPDEST JUMPDEST PUSH2 0x30BD DUP3 SLOAD PUSH2 0x2EB4 JUMP JUMPDEST PUSH2 0x30C8 DUP3 DUP3 DUP6 PUSH2 0x3004 JUMP JUMPDEST PUSH1 0x0 PUSH1 0x20 SWAP1 POP PUSH1 0x1F DUP4 GT PUSH1 0x1 DUP2 EQ PUSH2 0x30FB JUMPI PUSH1 0x0 DUP5 ISZERO PUSH2 0x30E9 JUMPI DUP3 DUP8 ADD MLOAD SWAP1 POP JUMPDEST PUSH2 0x30F3 DUP6 DUP3 PUSH2 0x3075 JUMP JUMPDEST DUP7 SSTORE POP PUSH2 0x315B JUMP JUMPDEST PUSH1 0x1F NOT DUP5 AND PUSH2 0x3109 DUP7 PUSH2 0x2EE5 JUMP JUMPDEST PUSH1 0x0 JUMPDEST DUP3 DUP2 LT ISZERO PUSH2 0x3131 JUMPI DUP5 DUP10 ADD MLOAD DUP3 SSTORE PUSH1 0x1 DUP3 ADD SWAP2 POP PUSH1 0x20 DUP6 ADD SWAP5 POP PUSH1 0x20 DUP2 ADD SWAP1 POP PUSH2 0x310C JUMP JUMPDEST DUP7 DUP4 LT ISZERO PUSH2 0x314E JUMPI DUP5 DUP10 ADD MLOAD PUSH2 0x314A PUSH1 0x1F DUP10 AND DUP3 PUSH2 0x3057 JUMP JUMPDEST DUP4 SSTORE POP JUMPDEST PUSH1 0x1 PUSH1 0x2 DUP9 MUL ADD DUP9 SSTORE POP POP POP JUMPDEST POP POP POP POP POP POP JUMP JUMPDEST PUSH32 0x4461746162617365204C697374427573696E6573733A20496E76616C69642069 PUSH1 0x0 DUP3 ADD MSTORE PUSH32 0x6E64657800000000000000000000000000000000000000000000000000000000 PUSH1 0x20 DUP3 ADD MSTORE POP JUMP JUMPDEST PUSH1 0x0 PUSH2 0x31BF PUSH1 0x24 DUP4 PUSH2 0x2D6B JUMP JUMPDEST SWAP2 POP PUSH2 0x31CA DUP3 PUSH2 0x3163 JUMP JUMPDEST PUSH1 0x40 DUP3 ADD SWAP1 POP SWAP2 SWAP1 POP JUMP JUMPDEST PUSH1 0x0 PUSH1 0x20 DUP3 ADD SWAP1 POP DUP2 DUP2 SUB PUSH1 0x0 DUP4 ADD MSTORE PUSH2 0x31EE DUP2 PUSH2 0x31B2 JUMP JUMPDEST SWAP1 POP SWAP2 SWAP1 POP JUMP JUMPDEST PUSH32 0x4F776E61626C653A206E6577206F776E657220697320746865207A65726F2061 PUSH1 0x0 DUP3 ADD MSTORE PUSH32 0x6464726573730000000000000000000000000000000000000000000000000000 PUSH1 0x20 DUP3 ADD MSTORE POP JUMP JUMPDEST PUSH1 0x0 PUSH2 0x3251 PUSH1 0x26 DUP4 PUSH2 0x2D6B JUMP JUMPDEST SWAP2 POP PUSH2 0x325C DUP3 PUSH2 0x31F5 JUMP JUMPDEST PUSH1 0x40 DUP3 ADD SWAP1 POP SWAP2 SWAP1 POP JUMP JUMPDEST PUSH1 0x0 PUSH1 0x20 DUP3 ADD SWAP1 POP DUP2 DUP2 SUB PUSH1 0x0 DUP4 ADD MSTORE PUSH2 0x3280 DUP2 PUSH2 0x3244 JUMP JUMPDEST SWAP1 POP SWAP2 SWAP1 POP JUMP JUMPDEST PUSH32 0x4F776E61626C653A2063616C6C6572206973206E6F7420746865206F776E6572 PUSH1 0x0 DUP3 ADD MSTORE POP JUMP JUMPDEST PUSH1 0x0 PUSH2 0x32BD PUSH1 0x20 DUP4 PUSH2 0x2D6B JUMP JUMPDEST SWAP2 POP PUSH2 0x32C8 DUP3 PUSH2 0x3287 JUMP JUMPDEST PUSH1 0x20 DUP3 ADD SWAP1 POP SWAP2 SWAP1 POP JUMP JUMPDEST PUSH1 0x0 PUSH1 0x20 DUP3 ADD SWAP1 POP DUP2 DUP2 SUB PUSH1 0x0 DUP4 ADD MSTORE PUSH2 0x32EC DUP2 PUSH2 0x32B0 JUMP JUMPDEST SWAP1 POP SWAP2 SWAP1 POP JUMP INVALID LOG2 PUSH5 0x6970667358 0x22 SLT KECCAK256 SWAP11 0x23 LOG3 SWAP4 0x4B ADD XOR 0x4A 0x26 CODECOPY PUSH10 0x9C90CDFB6E2FCFF3036B GASLIMIT PUSH21 0x2F74B9DEF48AC1494E64736F6C6343000810003300 "
				},
				"gasEstimates": {
					"creation": {
						"codeDepositCost": "2619400",
						"executionCost": "32111",
						"totalCost": "2651511"
					},
					"external": {
						"add((uint256,uint256,address,string,string,string,string,string,string,string,string),bytes32)": "infinite",
						"at(uint256,bytes32)": "infinite",
						"atAddress(address,bytes32)": "infinite",
						"destroy()": "30061",
						"findIdByAddress(address,bytes32)": "infinite",
						"getLength(bytes32)": "2846",
						"hide(uint256,bytes32)": "infinite",
						"owner()": "2545",
						"setCategory(uint256,bytes32,uint256)": "infinite",
						"setEmail(uint256,bytes32,string)": "infinite",
						"setGithub(uint256,bytes32,string)": "infinite",
						"setId(uint256,bytes32,uint256)": "infinite",
						"setLinkedin(uint256,bytes32,string)": "infinite",
						"setName(uint256,bytes32,string)": "infinite",
						"setPassword(uint256,bytes32,string)": "infinite",
						"setPhone(uint256,bytes32,string)": "infinite",
						"setProfessional(uint256,bytes32,string)": "infinite",
						"setSourceImage(uint256,bytes32,string)": "infinite",
						"setUser(uint256,bytes32,address)": "27573",
						"transferOwnership(address)": "30797"
					}
				},
				"methodIdentifiers": {
					"add((uint256,uint256,address,string,string,string,string,string,string,string,string),bytes32)": "04a28c07",
					"at(uint256,bytes32)": "c78a6741",
					"atAddress(address,bytes32)": "236df93c",
					"destroy()": "83197ef0",
					"findIdByAddress(address,bytes32)": "d32a04c7",
					"getLength(bytes32)": "fd82e9dd",
					"hide(uint256,bytes32)": "b615c00a",
					"owner()": "8da5cb5b",
					"setCategory(uint256,bytes32,uint256)": "294b4b6b",
					"setEmail(uint256,bytes32,string)": "29cd6311",
					"setGithub(uint256,bytes32,string)": "d2af71a6",
					"setId(uint256,bytes32,uint256)": "8827b05f",
					"setLinkedin(uint256,bytes32,string)": "d45c8abf",
					"setName(uint256,bytes32,string)": "413896e4",
					"setPassword(uint256,bytes32,string)": "2c3ce919",
					"setPhone(uint256,bytes32,string)": "d49cb146",
					"setProfessional(uint256,bytes32,string)": "e3f34371",
					"setSourceImage(uint256,bytes32,string)": "800f2234",
					"setUser(uint256,bytes32,address)": "2e22eafe",
					"transferOwnership(address)": "f2fde38b"
				}
			},
			"storageLayout": {
				"storage": [
					{
						"astId": 4,
						"contract": "database/ListBusiness.sol:ListBusiness",
						"label": "_owner",
						"offset": 0,
						"slot": "0",
						"type": "t_address"
					},
					{
						"astId": 134,
						"contract": "database/ListBusiness.sol:ListBusiness",
						"label": "list",
						"offset": 0,
						"slot": "1",
						"type": "t_mapping(t_uint256,t_struct(Profile)714_storage)"
					},
					{
						"astId": 137,
						"contract": "database/ListBusiness.sol:ListBusiness",
						"label": "autoIncrement",
						"offset": 0,
						"slot": "2",
						"type": "t_uint256"
					}
				],
				"types": {
					"t_address": {
						"encoding": "inplace",
						"label": "address",
						"numberOfBytes": "20"
					},
					"t_mapping(t_uint256,t_struct(Profile)714_storage)": {
						"encoding": "mapping",
						"key": "t_uint256",
						"label": "mapping(uint256 => struct Profile)",
						"numberOfBytes": "32",
						"value": "t_struct(Profile)714_storage"
					},
					"t_string_storage": {
						"encoding": "bytes",
						"label": "string",
						"numberOfBytes": "32"
					},
					"t_struct(Profile)714_storage": {
						"encoding": "inplace",
						"label": "struct Profile",
						"members": [
							{
								"astId": 693,
								"contract": "database/ListBusiness.sol:ListBusiness",
								"label": "catergory",
								"offset": 0,
								"slot": "0",
								"type": "t_uint256"
							},
							{
								"astId": 695,
								"contract": "database/ListBusiness.sol:ListBusiness",
								"label": "id",
								"offset": 0,
								"slot": "1",
								"type": "t_uint256"
							},
							{
								"astId": 697,
								"contract": "database/ListBusiness.sol:ListBusiness",
								"label": "user",
								"offset": 0,
								"slot": "2",
								"type": "t_address"
							},
							{
								"astId": 699,
								"contract": "database/ListBusiness.sol:ListBusiness",
								"label": "name",
								"offset": 0,
								"slot": "3",
								"type": "t_string_storage"
							},
							{
								"astId": 701,
								"contract": "database/ListBusiness.sol:ListBusiness",
								"label": "phone",
								"offset": 0,
								"slot": "4",
								"type": "t_string_storage"
							},
							{
								"astId": 703,
								"contract": "database/ListBusiness.sol:ListBusiness",
								"label": "professional",
								"offset": 0,
								"slot": "5",
								"type": "t_string_storage"
							},
							{
								"astId": 705,
								"contract": "database/ListBusiness.sol:ListBusiness",
								"label": "email",
								"offset": 0,
								"slot": "6",
								"type": "t_string_storage"
							},
							{
								"astId": 707,
								"contract": "database/ListBusiness.sol:ListBusiness",
								"label": "github",
								"offset": 0,
								"slot": "7",
								"type": "t_string_storage"
							},
							{
								"astId": 709,
								"contract": "database/ListBusiness.sol:ListBusiness",
								"label": "linkedin",
								"offset": 0,
								"slot": "8",
								"type": "t_string_storage"
							},
							{
								"astId": 711,
								"contract": "database/ListBusiness.sol:ListBusiness",
								"label": "sourceImage",
								"offset": 0,
								"slot": "9",
								"type": "t_string_storage"
							},
							{
								"astId": 713,
								"contract": "database/ListBusiness.sol:ListBusiness",
								"label": "password",
								"offset": 0,
								"slot": "10",
								"type": "t_string_storage"
							}
						],
						"numberOfBytes": "352"
					},
					"t_uint256": {
						"encoding": "inplace",
						"label": "uint256",
						"numberOfBytes": "32"
					}
				}
			},
			"userdoc": {
				"kind": "user",
				"methods": {},
				"version": 1
			}
		}
	}
}