{
	"database/ListEmployee.sol": {
		"ListEmployee": {
			"abi": [
				{
					"inputs": [],
					"stateMutability": "nonpayable",
					"type": "constructor"
				},
				{
					"anonymous": false,
					"inputs": [
						{
							"components": [
								{
									"internalType": "uint256",
									"name": "catergory",
									"type": "uint256"
								},
								{
									"internalType": "uint256",
									"name": "id",
									"type": "uint256"
								},
								{
									"internalType": "uint256",
									"name": "idCardNumber",
									"type": "uint256"
								},
								{
									"internalType": "address",
									"name": "user",
									"type": "address"
								},
								{
									"internalType": "string",
									"name": "name",
									"type": "string"
								},
								{
									"internalType": "string",
									"name": "phone",
									"type": "string"
								},
								{
									"internalType": "string",
									"name": "professional",
									"type": "string"
								},
								{
									"internalType": "string",
									"name": "email",
									"type": "string"
								},
								{
									"internalType": "string",
									"name": "github",
									"type": "string"
								},
								{
									"internalType": "string",
									"name": "linkedin",
									"type": "string"
								},
								{
									"internalType": "string",
									"name": "sourceImage",
									"type": "string"
								},
								{
									"internalType": "string",
									"name": "password",
									"type": "string"
								}
							],
							"indexed": false,
							"internalType": "struct Profile",
							"name": "item",
							"type": "tuple"
						}
					],
					"name": "Add",
					"type": "event"
				},
				{
					"anonymous": false,
					"inputs": [
						{
							"indexed": true,
							"internalType": "address",
							"name": "previousOwner",
							"type": "address"
						},
						{
							"indexed": true,
							"internalType": "address",
							"name": "newOwner",
							"type": "address"
						}
					],
					"name": "OwnershipTransferred",
					"type": "event"
				},
				{
					"anonymous": false,
					"inputs": [
						{
							"components": [
								{
									"internalType": "uint256",
									"name": "catergory",
									"type": "uint256"
								},
								{
									"internalType": "uint256",
									"name": "id",
									"type": "uint256"
								},
								{
									"internalType": "uint256",
									"name": "idCardNumber",
									"type": "uint256"
								},
								{
									"internalType": "address",
									"name": "user",
									"type": "address"
								},
								{
									"internalType": "string",
									"name": "name",
									"type": "string"
								},
								{
									"internalType": "string",
									"name": "phone",
									"type": "string"
								},
								{
									"internalType": "string",
									"name": "professional",
									"type": "string"
								},
								{
									"internalType": "string",
									"name": "email",
									"type": "string"
								},
								{
									"internalType": "string",
									"name": "github",
									"type": "string"
								},
								{
									"internalType": "string",
									"name": "linkedin",
									"type": "string"
								},
								{
									"internalType": "string",
									"name": "sourceImage",
									"type": "string"
								},
								{
									"internalType": "string",
									"name": "password",
									"type": "string"
								}
							],
							"indexed": false,
							"internalType": "struct Profile",
							"name": "item",
							"type": "tuple"
						}
					],
					"name": "Remove",
					"type": "event"
				},
				{
					"inputs": [
						{
							"components": [
								{
									"internalType": "uint256",
									"name": "catergory",
									"type": "uint256"
								},
								{
									"internalType": "uint256",
									"name": "id",
									"type": "uint256"
								},
								{
									"internalType": "uint256",
									"name": "idCardNumber",
									"type": "uint256"
								},
								{
									"internalType": "address",
									"name": "user",
									"type": "address"
								},
								{
									"internalType": "string",
									"name": "name",
									"type": "string"
								},
								{
									"internalType": "string",
									"name": "phone",
									"type": "string"
								},
								{
									"internalType": "string",
									"name": "professional",
									"type": "string"
								},
								{
									"internalType": "string",
									"name": "email",
									"type": "string"
								},
								{
									"internalType": "string",
									"name": "github",
									"type": "string"
								},
								{
									"internalType": "string",
									"name": "linkedin",
									"type": "string"
								},
								{
									"internalType": "string",
									"name": "sourceImage",
									"type": "string"
								},
								{
									"internalType": "string",
									"name": "password",
									"type": "string"
								}
							],
							"internalType": "struct Profile",
							"name": "item",
							"type": "tuple"
						},
						{
							"internalType": "bytes32",
							"name": "secret",
							"type": "bytes32"
						}
					],
					"name": "add",
					"outputs": [
						{
							"internalType": "uint256",
							"name": "",
							"type": "uint256"
						}
					],
					"stateMutability": "nonpayable",
					"type": "function"
				},
				{
					"inputs": [
						{
							"internalType": "uint256",
							"name": "index",
							"type": "uint256"
						},
						{
							"internalType": "bytes32",
							"name": "secret",
							"type": "bytes32"
						}
					],
					"name": "at",
					"outputs": [
						{
							"components": [
								{
									"internalType": "uint256",
									"name": "catergory",
									"type": "uint256"
								},
								{
									"internalType": "uint256",
									"name": "id",
									"type": "uint256"
								},
								{
									"internalType": "uint256",
									"name": "idCardNumber",
									"type": "uint256"
								},
								{
									"internalType": "address",
									"name": "user",
									"type": "address"
								},
								{
									"internalType": "string",
									"name": "name",
									"type": "string"
								},
								{
									"internalType": "string",
									"name": "phone",
									"type": "string"
								},
								{
									"internalType": "string",
									"name": "professional",
									"type": "string"
								},
								{
									"internalType": "string",
									"name": "email",
									"type": "string"
								},
								{
									"internalType": "string",
									"name": "github",
									"type": "string"
								},
								{
									"internalType": "string",
									"name": "linkedin",
									"type": "string"
								},
								{
									"internalType": "string",
									"name": "sourceImage",
									"type": "string"
								},
								{
									"internalType": "string",
									"name": "password",
									"type": "string"
								}
							],
							"internalType": "struct Profile",
							"name": "",
							"type": "tuple"
						}
					],
					"stateMutability": "view",
					"type": "function"
				},
				{
					"inputs": [
						{
							"internalType": "address",
							"name": "value",
							"type": "address"
						},
						{
							"internalType": "bytes32",
							"name": "secret",
							"type": "bytes32"
						}
					],
					"name": "atAddress",
					"outputs": [
						{
							"components": [
								{
									"internalType": "uint256",
									"name": "catergory",
									"type": "uint256"
								},
								{
									"internalType": "uint256",
									"name": "id",
									"type": "uint256"
								},
								{
									"internalType": "uint256",
									"name": "idCardNumber",
									"type": "uint256"
								},
								{
									"internalType": "address",
									"name": "user",
									"type": "address"
								},
								{
									"internalType": "string",
									"name": "name",
									"type": "string"
								},
								{
									"internalType": "string",
									"name": "phone",
									"type": "string"
								},
								{
									"internalType": "string",
									"name": "professional",
									"type": "string"
								},
								{
									"internalType": "string",
									"name": "email",
									"type": "string"
								},
								{
									"internalType": "string",
									"name": "github",
									"type": "string"
								},
								{
									"internalType": "string",
									"name": "linkedin",
									"type": "string"
								},
								{
									"internalType": "string",
									"name": "sourceImage",
									"type": "string"
								},
								{
									"internalType": "string",
									"name": "password",
									"type": "string"
								}
							],
							"internalType": "struct Profile",
							"name": "",
							"type": "tuple"
						}
					],
					"stateMutability": "view",
					"type": "function"
				},
				{
					"inputs": [],
					"name": "destroy",
					"outputs": [],
					"stateMutability": "nonpayable",
					"type": "function"
				},
				{
					"inputs": [
						{
							"internalType": "address",
							"name": "value",
							"type": "address"
						},
						{
							"internalType": "bytes32",
							"name": "secret",
							"type": "bytes32"
						}
					],
					"name": "findIdByAddress",
					"outputs": [
						{
							"internalType": "uint256",
							"name": "",
							"type": "uint256"
						}
					],
					"stateMutability": "view",
					"type": "function"
				},
				{
					"inputs": [
						{
							"internalType": "bytes32",
							"name": "secret",
							"type": "bytes32"
						}
					],
					"name": "getLength",
					"outputs": [
						{
							"internalType": "uint256",
							"name": "",
							"type": "uint256"
						}
					],
					"stateMutability": "view",
					"type": "function"
				},
				{
					"inputs": [
						{
							"internalType": "uint256",
							"name": "index",
							"type": "uint256"
						},
						{
							"internalType": "bytes32",
							"name": "secret",
							"type": "bytes32"
						}
					],
					"name": "hide",
					"outputs": [
						{
							"internalType": "bool",
							"name": "",
							"type": "bool"
						}
					],
					"stateMutability": "nonpayable",
					"type": "function"
				},
				{
					"inputs": [],
					"name": "owner",
					"outputs": [
						{
							"internalType": "address",
							"name": "",
							"type": "address"
						}
					],
					"stateMutability": "view",
					"type": "function"
				},
				{
					"inputs": [
						{
							"internalType": "uint256",
							"name": "index",
							"type": "uint256"
						},
						{
							"internalType": "bytes32",
							"name": "secret",
							"type": "bytes32"
						},
						{
							"internalType": "uint256",
							"name": "value",
							"type": "uint256"
						}
					],
					"name": "setCategory",
					"outputs": [
						{
							"internalType": "bool",
							"name": "",
							"type": "bool"
						}
					],
					"stateMutability": "nonpayable",
					"type": "function"
				},
				{
					"inputs": [
						{
							"internalType": "uint256",
							"name": "index",
							"type": "uint256"
						},
						{
							"internalType": "bytes32",
							"name": "secret",
							"type": "bytes32"
						},
						{
							"internalType": "string",
							"name": "value",
							"type": "string"
						}
					],
					"name": "setEmail",
					"outputs": [
						{
							"internalType": "bool",
							"name": "",
							"type": "bool"
						}
					],
					"stateMutability": "nonpayable",
					"type": "function"
				},
				{
					"inputs": [
						{
							"internalType": "uint256",
							"name": "index",
							"type": "uint256"
						},
						{
							"internalType": "bytes32",
							"name": "secret",
							"type": "bytes32"
						},
						{
							"internalType": "string",
							"name": "value",
							"type": "string"
						}
					],
					"name": "setGithub",
					"outputs": [
						{
							"internalType": "bool",
							"name": "",
							"type": "bool"
						}
					],
					"stateMutability": "nonpayable",
					"type": "function"
				},
				{
					"inputs": [
						{
							"internalType": "uint256",
							"name": "index",
							"type": "uint256"
						},
						{
							"internalType": "bytes32",
							"name": "secret",
							"type": "bytes32"
						},
						{
							"internalType": "uint256",
							"name": "value",
							"type": "uint256"
						}
					],
					"name": "setId",
					"outputs": [
						{
							"internalType": "bool",
							"name": "",
							"type": "bool"
						}
					],
					"stateMutability": "nonpayable",
					"type": "function"
				},
				{
					"inputs": [
						{
							"internalType": "uint256",
							"name": "index",
							"type": "uint256"
						},
						{
							"internalType": "bytes32",
							"name": "secret",
							"type": "bytes32"
						},
						{
							"internalType": "uint256",
							"name": "value",
							"type": "uint256"
						}
					],
					"name": "setIdCardNumber",
					"outputs": [
						{
							"internalType": "bool",
							"name": "",
							"type": "bool"
						}
					],
					"stateMutability": "nonpayable",
					"type": "function"
				},
				{
					"inputs": [
						{
							"internalType": "uint256",
							"name": "index",
							"type": "uint256"
						},
						{
							"internalType": "bytes32",
							"name": "secret",
							"type": "bytes32"
						},
						{
							"internalType": "string",
							"name": "value",
							"type": "string"
						}
					],
					"name": "setLinkedin",
					"outputs": [
						{
							"internalType": "bool",
							"name": "",
							"type": "bool"
						}
					],
					"stateMutability": "nonpayable",
					"type": "function"
				},
				{
					"inputs": [
						{
							"internalType": "uint256",
							"name": "index",
							"type": "uint256"
						},
						{
							"internalType": "bytes32",
							"name": "secret",
							"type": "bytes32"
						},
						{
							"internalType": "string",
							"name": "value",
							"type": "string"
						}
					],
					"name": "setName",
					"outputs": [
						{
							"internalType": "bool",
							"name": "",
							"type": "bool"
						}
					],
					"stateMutability": "nonpayable",
					"type": "function"
				},
				{
					"inputs": [
						{
							"internalType": "uint256",
							"name": "index",
							"type": "uint256"
						},
						{
							"internalType": "bytes32",
							"name": "secret",
							"type": "bytes32"
						},
						{
							"internalType": "string",
							"name": "value",
							"type": "string"
						}
					],
					"name": "setPassword",
					"outputs": [
						{
							"internalType": "bool",
							"name": "",
							"type": "bool"
						}
					],
					"stateMutability": "nonpayable",
					"type": "function"
				},
				{
					"inputs": [
						{
							"internalType": "uint256",
							"name": "index",
							"type": "uint256"
						},
						{
							"internalType": "bytes32",
							"name": "secret",
							"type": "bytes32"
						},
						{
							"internalType": "string",
							"name": "value",
							"type": "string"
						}
					],
					"name": "setPhone",
					"outputs": [
						{
							"internalType": "bool",
							"name": "",
							"type": "bool"
						}
					],
					"stateMutability": "nonpayable",
					"type": "function"
				},
				{
					"inputs": [
						{
							"internalType": "uint256",
							"name": "index",
							"type": "uint256"
						},
						{
							"internalType": "bytes32",
							"name": "secret",
							"type": "bytes32"
						},
						{
							"internalType": "string",
							"name": "value",
							"type": "string"
						}
					],
					"name": "setProfessional",
					"outputs": [
						{
							"internalType": "bool",
							"name": "",
							"type": "bool"
						}
					],
					"stateMutability": "nonpayable",
					"type": "function"
				},
				{
					"inputs": [
						{
							"internalType": "uint256",
							"name": "index",
							"type": "uint256"
						},
						{
							"internalType": "bytes32",
							"name": "secret",
							"type": "bytes32"
						},
						{
							"internalType": "string",
							"name": "value",
							"type": "string"
						}
					],
					"name": "setSourceImage",
					"outputs": [
						{
							"internalType": "bool",
							"name": "",
							"type": "bool"
						}
					],
					"stateMutability": "nonpayable",
					"type": "function"
				},
				{
					"inputs": [
						{
							"internalType": "uint256",
							"name": "index",
							"type": "uint256"
						},
						{
							"internalType": "bytes32",
							"name": "secret",
							"type": "bytes32"
						},
						{
							"internalType": "address",
							"name": "value",
							"type": "address"
						}
					],
					"name": "setUser",
					"outputs": [
						{
							"internalType": "bool",
							"name": "",
							"type": "bool"
						}
					],
					"stateMutability": "nonpayable",
					"type": "function"
				},
				{
					"inputs": [
						{
							"internalType": "address",
							"name": "newOwner",
							"type": "address"
						}
					],
					"name": "transferOwnership",
					"outputs": [],
					"stateMutability": "nonpayable",
					"type": "function"
				}
			],
			"devdoc": {
				"kind": "dev",
				"methods": {
					"owner()": {
						"details": "Returns the address of the current owner."
					},
					"transferOwnership(address)": {
						"details": "Transfers ownership of the contract to a new account (`newOwner`). Can only be called by the current owner."
					}
				},
				"version": 1
			},
			"evm": {
				"assembly": "    /* \"database/ListEmployee.sol\":237:5941  contract ListEmployee is Ownable {... */\n  mstore(0x40, 0x80)\n    /* \"database/ListEmployee.sol\":354:355  0 */\n  0x00\n    /* \"database/ListEmployee.sol\":322:355  uint256 private autoIncrement = 0 */\n  0x02\n  sstore\n    /* \"database/ListEmployee.sol\":362:388  constructor() Ownable() {} */\n  callvalue\n  dup1\n  iszero\n  tag_1\n  jumpi\n  0x00\n  dup1\n  revert\ntag_1:\n  pop\n    /* \"abstract/Ownable.sol\":923:929  _owner */\n  0x00\n    /* \"abstract/Ownable.sol\":923:942  _owner = msg.sender */\n  dup1\n  sload\n  not(sub(shl(0xa0, 0x01), 0x01))\n  and\n    /* \"abstract/Ownable.sol\":932:942  msg.sender */\n  caller\n    /* \"abstract/Ownable.sol\":923:942  _owner = msg.sender */\n  or\n  swap1\n  sstore\n    /* \"database/ListEmployee.sol\":237:5941  contract ListEmployee is Ownable {... */\n  dataSize(sub_0)\n  dup1\n  dataOffset(sub_0)\n  0x00\n  codecopy\n  0x00\n  return\nstop\n\nsub_0: assembly {\n        /* \"database/ListEmployee.sol\":237:5941  contract ListEmployee is Ownable {... */\n      mstore(0x40, 0x80)\n      callvalue\n      dup1\n      iszero\n      tag_1\n      jumpi\n      0x00\n      dup1\n      revert\n    tag_1:\n      pop\n      jumpi(tag_2, lt(calldatasize, 0x04))\n      shr(0xe0, calldataload(0x00))\n      dup1\n      0x8827b05f\n      gt\n      tag_24\n      jumpi\n      dup1\n      0xd32a04c7\n      gt\n      tag_25\n      jumpi\n      dup1\n      0xd32a04c7\n      eq\n      tag_18\n      jumpi\n      dup1\n      0xd45c8abf\n      eq\n      tag_19\n      jumpi\n      dup1\n      0xd49cb146\n      eq\n      tag_20\n      jumpi\n      dup1\n      0xe3f34371\n      eq\n      tag_21\n      jumpi\n      dup1\n      0xf2fde38b\n      eq\n      tag_22\n      jumpi\n      dup1\n      0xfd82e9dd\n      eq\n      tag_23\n      jumpi\n      0x00\n      dup1\n      revert\n    tag_25:\n      dup1\n      0x8827b05f\n      eq\n      tag_13\n      jumpi\n      dup1\n      0x8da5cb5b\n      eq\n      tag_14\n      jumpi\n      dup1\n      0xb615c00a\n      eq\n      tag_15\n      jumpi\n      dup1\n      0xc78a6741\n      eq\n      tag_16\n      jumpi\n      dup1\n      0xd2af71a6\n      eq\n      tag_17\n      jumpi\n      0x00\n      dup1\n      revert\n    tag_24:\n      dup1\n      0x2e22eafe\n      gt\n      tag_26\n      jumpi\n      dup1\n      0x2e22eafe\n      eq\n      tag_8\n      jumpi\n      dup1\n      0x413896e4\n      eq\n      tag_9\n      jumpi\n      dup1\n      0x7dcd61bd\n      eq\n      tag_10\n      jumpi\n      dup1\n      0x800f2234\n      eq\n      tag_11\n      jumpi\n      dup1\n      0x83197ef0\n      eq\n      tag_12\n      jumpi\n      0x00\n      dup1\n      revert\n    tag_26:\n      dup1\n      0x11a89a5f\n      eq\n      tag_3\n      jumpi\n      dup1\n      0x236df93c\n      eq\n      tag_4\n      jumpi\n      dup1\n      0x294b4b6b\n      eq\n      tag_5\n      jumpi\n      dup1\n      0x29cd6311\n      eq\n      tag_6\n      jumpi\n      dup1\n      0x2c3ce919\n      eq\n      tag_7\n      jumpi\n    tag_2:\n      0x00\n      dup1\n      revert\n        /* \"database/ListEmployee.sol\":3567:3803  function setIdCardNumber(... */\n    tag_3:\n      tag_27\n      tag_28\n      calldatasize\n      0x04\n      tag_29\n      jump\t// in\n    tag_28:\n      tag_30\n      jump\t// in\n    tag_27:\n      mload(0x40)\n        /* \"#utility.yul\":500:514   */\n      swap1\n      iszero\n        /* \"#utility.yul\":493:515   */\n      iszero\n        /* \"#utility.yul\":475:516   */\n      dup2\n      mstore\n        /* \"#utility.yul\":463:465   */\n      0x20\n        /* \"#utility.yul\":448:466   */\n      add\n        /* \"database/ListEmployee.sol\":3567:3803  function setIdCardNumber(... */\n    tag_31:\n      mload(0x40)\n      dup1\n      swap2\n      sub\n      swap1\n      return\n        /* \"database/ListEmployee.sol\":1872:2285  function atAddress(address value, bytes32 secret)... */\n    tag_4:\n      tag_33\n      tag_34\n      calldatasize\n      0x04\n      tag_35\n      jump\t// in\n    tag_34:\n      tag_36\n      jump\t// in\n    tag_33:\n      mload(0x40)\n      tag_31\n      swap2\n      swap1\n      tag_38\n      jump\t// in\n        /* \"database/ListEmployee.sol\":3110:3339  function setCategory(... */\n    tag_5:\n      tag_27\n      tag_40\n      calldatasize\n      0x04\n      tag_29\n      jump\t// in\n    tag_40:\n      tag_41\n      jump\t// in\n        /* \"database/ListEmployee.sol\":4749:4977  function setEmail(... */\n    tag_6:\n      tag_27\n      tag_44\n      calldatasize\n      0x04\n      tag_45\n      jump\t// in\n    tag_44:\n      tag_46\n      jump\t// in\n        /* \"database/ListEmployee.sol\":5705:5939  function setPassword(... */\n    tag_7:\n      tag_27\n      tag_49\n      calldatasize\n      0x04\n      tag_45\n      jump\t// in\n    tag_49:\n      tag_50\n      jump\t// in\n        /* \"database/ListEmployee.sol\":3809:4029  function setUser(... */\n    tag_8:\n      tag_27\n      tag_53\n      calldatasize\n      0x04\n      tag_54\n      jump\t// in\n    tag_53:\n      tag_55\n      jump\t// in\n        /* \"database/ListEmployee.sol\":4035:4261  function setName(... */\n    tag_9:\n      tag_27\n      tag_58\n      calldatasize\n      0x04\n      tag_45\n      jump\t// in\n    tag_58:\n      tag_59\n      jump\t// in\n        /* \"database/ListEmployee.sol\":1000:1277  function add(Profile memory item, bytes32 secret)... */\n    tag_10:\n      tag_61\n      tag_62\n      calldatasize\n      0x04\n      tag_63\n      jump\t// in\n    tag_62:\n      tag_64\n      jump\t// in\n    tag_61:\n      mload(0x40)\n        /* \"#utility.yul\":7847:7872   */\n      swap1\n      dup2\n      mstore\n        /* \"#utility.yul\":7835:7837   */\n      0x20\n        /* \"#utility.yul\":7820:7838   */\n      add\n        /* \"database/ListEmployee.sol\":1000:1277  function add(Profile memory item, bytes32 secret)... */\n      tag_31\n        /* \"#utility.yul\":7701:7878   */\n      jump\n        /* \"database/ListEmployee.sol\":5459:5699  function setSourceImage(... */\n    tag_11:\n      tag_27\n      tag_68\n      calldatasize\n      0x04\n      tag_45\n      jump\t// in\n    tag_68:\n      tag_69\n      jump\t// in\n        /* \"abstract/Ownable.sol\":2642:2731  function destroy() public onlyOwner {... */\n    tag_12:\n      tag_71\n      tag_72\n      jump\t// in\n    tag_71:\n      stop\n        /* \"database/ListEmployee.sol\":3345:3561  function setId(... */\n    tag_13:\n      tag_27\n      tag_74\n      calldatasize\n      0x04\n      tag_29\n      jump\t// in\n    tag_74:\n      tag_75\n      jump\t// in\n        /* \"abstract/Ownable.sol\":1175:1260  function owner() public view virtual returns (address) {... */\n    tag_14:\n        /* \"abstract/Ownable.sol\":1221:1228  address */\n      0x00\n        /* \"abstract/Ownable.sol\":1247:1253  _owner */\n      sload\n        /* \"abstract/Ownable.sol\":1175:1260  function owner() public view virtual returns (address) {... */\n      mload(0x40)\n      sub(shl(0xa0, 0x01), 0x01)\n        /* \"abstract/Ownable.sol\":1247:1253  _owner */\n      swap1\n      swap2\n      and\n        /* \"#utility.yul\":8029:8080   */\n      dup2\n      mstore\n        /* \"#utility.yul\":8017:8019   */\n      0x20\n        /* \"#utility.yul\":8002:8020   */\n      add\n        /* \"abstract/Ownable.sol\":1175:1260  function owner() public view virtual returns (address) {... */\n      tag_31\n        /* \"#utility.yul\":7883:8086   */\n      jump\n        /* \"database/ListEmployee.sol\":2569:3015  function hide(uint256 index, bytes32 secret)... */\n    tag_15:\n      tag_27\n      tag_82\n      calldatasize\n      0x04\n      tag_83\n      jump\t// in\n    tag_82:\n      tag_84\n      jump\t// in\n        /* \"database/ListEmployee.sol\":1283:1565  function at(uint256 index, bytes32 secret)... */\n    tag_16:\n      tag_33\n      tag_87\n      calldatasize\n      0x04\n      tag_83\n      jump\t// in\n    tag_87:\n      tag_88\n      jump\t// in\n        /* \"database/ListEmployee.sol\":4983:5213  function setGithub(... */\n    tag_17:\n      tag_27\n      tag_91\n      calldatasize\n      0x04\n      tag_45\n      jump\t// in\n    tag_91:\n      tag_92\n      jump\t// in\n        /* \"database/ListEmployee.sol\":1571:1866  function findIdByAddress(address value, bytes32 secret)... */\n    tag_18:\n      tag_61\n      tag_95\n      calldatasize\n      0x04\n      tag_35\n      jump\t// in\n    tag_95:\n      tag_96\n      jump\t// in\n        /* \"database/ListEmployee.sol\":5219:5453  function setLinkedin(... */\n    tag_19:\n      tag_27\n      tag_99\n      calldatasize\n      0x04\n      tag_45\n      jump\t// in\n    tag_99:\n      tag_100\n      jump\t// in\n        /* \"database/ListEmployee.sol\":4267:4495  function setPhone(... */\n    tag_20:\n      tag_27\n      tag_103\n      calldatasize\n      0x04\n      tag_45\n      jump\t// in\n    tag_103:\n      tag_104\n      jump\t// in\n        /* \"database/ListEmployee.sol\":4501:4743  function setProfessional(... */\n    tag_21:\n      tag_27\n      tag_107\n      calldatasize\n      0x04\n      tag_45\n      jump\t// in\n    tag_107:\n      tag_108\n      jump\t// in\n        /* \"abstract/Ownable.sol\":2063:2295  function transferOwnership(address newOwner) public virtual onlyOwner {... */\n    tag_22:\n      tag_71\n      tag_111\n      calldatasize\n      0x04\n      tag_112\n      jump\t// in\n    tag_111:\n      tag_113\n      jump\t// in\n        /* \"database/ListEmployee.sol\":831:994  function getLength(bytes32 secret)... */\n    tag_23:\n      tag_61\n      tag_115\n      calldatasize\n      0x04\n      tag_116\n      jump\t// in\n    tag_115:\n      tag_117\n      jump\t// in\n        /* \"database/ListEmployee.sol\":3567:3803  function setIdCardNumber(... */\n    tag_30:\n        /* \"database/ListEmployee.sol\":3727:3731  bool */\n      0x00\n        /* \"database/ListEmployee.sol\":3692:3698  secret */\n      dup3\n      0x00\n      dup1\n      mload\n      0x20\n      data_98ee57057fe0a523e70b51608fd55a37ff53d47c3b8dac495a5f45d45157392f\n      dup4\n      codecopy\n      dup2\n      mload\n      swap2\n      mstore\n        /* \"database/ListEmployee.sol\":529:550  value == DATABASE_KEY */\n      dup2\n      eq\n        /* \"database/ListEmployee.sol\":508:615  require(... */\n      tag_120\n      jumpi\n      mload(0x40)\n      shl(0xe5, 0x461bcd)\n      dup2\n      mstore\n      0x04\n      add\n      tag_121\n      swap1\n      tag_122\n      jump\t// in\n    tag_121:\n      mload(0x40)\n      dup1\n      swap2\n      sub\n      swap1\n      revert\n    tag_120:\n        /* \"database/ListEmployee.sol\":3711:3716  index */\n      dup5\n        /* \"database/ListEmployee.sol\":711:716  index */\n      dup1\n        /* \"database/ListEmployee.sol\":706:707  1 */\n      0x01\n        /* \"database/ListEmployee.sol\":706:716  1 <= index */\n      gt\n      iszero\n        /* \"database/ListEmployee.sol\":705:745  (1 <= index) && (index <= autoIncrement) */\n      dup1\n      iszero\n      tag_124\n      jumpi\n      pop\n        /* \"database/ListEmployee.sol\":731:744  autoIncrement */\n      sload(0x02)\n        /* \"database/ListEmployee.sol\":722:727  index */\n      dup2\n        /* \"database/ListEmployee.sol\":722:744  index <= autoIncrement */\n      gt\n      iszero\n        /* \"database/ListEmployee.sol\":705:745  (1 <= index) && (index <= autoIncrement) */\n    tag_124:\n        /* \"database/ListEmployee.sol\":684:807  require(... */\n      tag_125\n      jumpi\n      mload(0x40)\n      shl(0xe5, 0x461bcd)\n      dup2\n      mstore\n      0x04\n      add\n      tag_121\n      swap1\n      tag_127\n      jump\t// in\n    tag_125:\n      pop\n      pop\n      pop\n        /* \"database/ListEmployee.sol\":3743:3754  list[index] */\n      0x00\n      swap3\n      dup4\n      mstore\n        /* \"database/ListEmployee.sol\":3743:3747  list */\n      0x01\n        /* \"database/ListEmployee.sol\":3743:3754  list[index] */\n      0x20\n      dup2\n      swap1\n      mstore\n      0x40\n      swap1\n      swap4\n      keccak256\n        /* \"database/ListEmployee.sol\":3743:3767  list[index].idCardNumber */\n      0x02\n      add\n        /* \"database/ListEmployee.sol\":3743:3775  list[index].idCardNumber = value */\n      sstore\n      pop\n        /* \"database/ListEmployee.sol\":3743:3747  list */\n      swap1\n        /* \"database/ListEmployee.sol\":3567:3803  function setIdCardNumber(... */\n      jump\t// out\n        /* \"database/ListEmployee.sol\":1872:2285  function atAddress(address value, bytes32 secret)... */\n    tag_36:\n        /* \"database/ListEmployee.sol\":2000:2014  Profile memory */\n      tag_129\n      tag_130\n      jump\t// in\n    tag_129:\n        /* \"database/ListEmployee.sol\":1975:1981  secret */\n      dup2\n      0x00\n      dup1\n      mload\n      0x20\n      data_98ee57057fe0a523e70b51608fd55a37ff53d47c3b8dac495a5f45d45157392f\n      dup4\n      codecopy\n      dup2\n      mload\n      swap2\n      mstore\n        /* \"database/ListEmployee.sol\":529:550  value == DATABASE_KEY */\n      dup2\n      eq\n        /* \"database/ListEmployee.sol\":508:615  require(... */\n      tag_132\n      jumpi\n      mload(0x40)\n      shl(0xe5, 0x461bcd)\n      dup2\n      mstore\n      0x04\n      add\n      tag_121\n      swap1\n      tag_122\n      jump\t// in\n    tag_132:\n        /* \"database/ListEmployee.sol\":2047:2048  1 */\n      0x01\n        /* \"database/ListEmployee.sol\":2030:2141  for (uint256 i = 1; i <= autoIncrement; i++) {... */\n    tag_135:\n        /* \"database/ListEmployee.sol\":2055:2068  autoIncrement */\n      sload(0x02)\n        /* \"database/ListEmployee.sol\":2050:2051  i */\n      dup2\n        /* \"database/ListEmployee.sol\":2050:2068  i <= autoIncrement */\n      gt\n        /* \"database/ListEmployee.sol\":2030:2141  for (uint256 i = 1; i <= autoIncrement; i++) {... */\n      tag_136\n      jumpi\n        /* \"database/ListEmployee.sol\":2093:2100  list[i] */\n      0x00\n      dup2\n      dup2\n      mstore\n        /* \"database/ListEmployee.sol\":2093:2097  list */\n      0x01\n        /* \"database/ListEmployee.sol\":2093:2100  list[i] */\n      0x20\n      mstore\n      0x40\n      swap1\n      keccak256\n        /* \"database/ListEmployee.sol\":2093:2105  list[i].user */\n      0x03\n      add\n      sload\n      sub(shl(0xa0, 0x01), 0x01)\n        /* \"database/ListEmployee.sol\":2093:2114  list[i].user == value */\n      dup1\n      dup8\n      and\n        /* \"database/ListEmployee.sol\":2093:2105  list[i].user */\n      swap2\n      and\n        /* \"database/ListEmployee.sol\":2093:2114  list[i].user == value */\n      sub\n        /* \"database/ListEmployee.sol\":2089:2130  if (list[i].user == value) return list[i] */\n      tag_138\n      jumpi\n        /* \"database/ListEmployee.sol\":2123:2130  list[i] */\n      0x00\n      dup2\n      dup2\n      mstore\n        /* \"database/ListEmployee.sol\":2123:2127  list */\n      0x01\n        /* \"database/ListEmployee.sol\":2123:2130  list[i] */\n      0x20\n      dup2\n      dup2\n      mstore\n      0x40\n      swap3\n      dup4\n      swap1\n      keccak256\n        /* \"database/ListEmployee.sol\":2116:2130  return list[i] */\n      dup4\n      mload\n      0x0180\n      dup2\n      add\n      dup6\n      mstore\n      dup2\n      sload\n      dup2\n      mstore\n      swap3\n      dup2\n      add\n      sload\n      swap2\n      dup4\n      add\n      swap2\n      swap1\n      swap2\n      mstore\n      0x02\n      dup2\n      add\n      sload\n      swap3\n      dup3\n      add\n      swap3\n      swap1\n      swap3\n      mstore\n      0x03\n      dup3\n      add\n      sload\n      sub(shl(0xa0, 0x01), 0x01)\n      and\n      0x60\n      dup3\n      add\n      mstore\n      0x04\n      dup3\n      add\n      dup1\n      sload\n      swap2\n      swap3\n        /* \"database/ListEmployee.sol\":2123:2130  list[i] */\n      swap2\n        /* \"database/ListEmployee.sol\":2116:2130  return list[i] */\n      0x80\n      dup5\n      add\n      swap2\n      swap1\n      tag_139\n      swap1\n      tag_140\n      jump\t// in\n    tag_139:\n      dup1\n      0x1f\n      add\n      0x20\n      dup1\n      swap2\n      div\n      mul\n      0x20\n      add\n      mload(0x40)\n      swap1\n      dup2\n      add\n      0x40\n      mstore\n      dup1\n      swap3\n      swap2\n      swap1\n      dup2\n      dup2\n      mstore\n      0x20\n      add\n      dup3\n      dup1\n      sload\n      tag_141\n      swap1\n      tag_140\n      jump\t// in\n    tag_141:\n      dup1\n      iszero\n      tag_142\n      jumpi\n      dup1\n      0x1f\n      lt\n      tag_143\n      jumpi\n      0x0100\n      dup1\n      dup4\n      sload\n      div\n      mul\n      dup4\n      mstore\n      swap2\n      0x20\n      add\n      swap2\n      jump(tag_142)\n    tag_143:\n      dup3\n      add\n      swap2\n      swap1\n      0x00\n      mstore\n      keccak256(0x00, 0x20)\n      swap1\n    tag_144:\n      dup2\n      sload\n      dup2\n      mstore\n      swap1\n      0x01\n      add\n      swap1\n      0x20\n      add\n      dup1\n      dup4\n      gt\n      tag_144\n      jumpi\n      dup3\n      swap1\n      sub\n      0x1f\n      and\n      dup3\n      add\n      swap2\n    tag_142:\n      pop\n      pop\n      pop\n      pop\n      pop\n      dup2\n      mstore\n      0x20\n      add\n      0x05\n      dup3\n      add\n      dup1\n      sload\n      tag_145\n      swap1\n      tag_140\n      jump\t// in\n    tag_145:\n      dup1\n      0x1f\n      add\n      0x20\n      dup1\n      swap2\n      div\n      mul\n      0x20\n      add\n      mload(0x40)\n      swap1\n      dup2\n      add\n      0x40\n      mstore\n      dup1\n      swap3\n      swap2\n      swap1\n      dup2\n      dup2\n      mstore\n      0x20\n      add\n      dup3\n      dup1\n      sload\n      tag_146\n      swap1\n      tag_140\n      jump\t// in\n    tag_146:\n      dup1\n      iszero\n      tag_147\n      jumpi\n      dup1\n      0x1f\n      lt\n      tag_148\n      jumpi\n      0x0100\n      dup1\n      dup4\n      sload\n      div\n      mul\n      dup4\n      mstore\n      swap2\n      0x20\n      add\n      swap2\n      jump(tag_147)\n    tag_148:\n      dup3\n      add\n      swap2\n      swap1\n      0x00\n      mstore\n      keccak256(0x00, 0x20)\n      swap1\n    tag_149:\n      dup2\n      sload\n      dup2\n      mstore\n      swap1\n      0x01\n      add\n      swap1\n      0x20\n      add\n      dup1\n      dup4\n      gt\n      tag_149\n      jumpi\n      dup3\n      swap1\n      sub\n      0x1f\n      and\n      dup3\n      add\n      swap2\n    tag_147:\n      pop\n      pop\n      pop\n      pop\n      pop\n      dup2\n      mstore\n      0x20\n      add\n      0x06\n      dup3\n      add\n      dup1\n      sload\n      tag_150\n      swap1\n      tag_140\n      jump\t// in\n    tag_150:\n      dup1\n      0x1f\n      add\n      0x20\n      dup1\n      swap2\n      div\n      mul\n      0x20\n      add\n      mload(0x40)\n      swap1\n      dup2\n      add\n      0x40\n      mstore\n      dup1\n      swap3\n      swap2\n      swap1\n      dup2\n      dup2\n      mstore\n      0x20\n      add\n      dup3\n      dup1\n      sload\n      tag_151\n      swap1\n      tag_140\n      jump\t// in\n    tag_151:\n      dup1\n      iszero\n      tag_152\n      jumpi\n      dup1\n      0x1f\n      lt\n      tag_153\n      jumpi\n      0x0100\n      dup1\n      dup4\n      sload\n      div\n      mul\n      dup4\n      mstore\n      swap2\n      0x20\n      add\n      swap2\n      jump(tag_152)\n    tag_153:\n      dup3\n      add\n      swap2\n      swap1\n      0x00\n      mstore\n      keccak256(0x00, 0x20)\n      swap1\n    tag_154:\n      dup2\n      sload\n      dup2\n      mstore\n      swap1\n      0x01\n      add\n      swap1\n      0x20\n      add\n      dup1\n      dup4\n      gt\n      tag_154\n      jumpi\n      dup3\n      swap1\n      sub\n      0x1f\n      and\n      dup3\n      add\n      swap2\n    tag_152:\n      pop\n      pop\n      pop\n      pop\n      pop\n      dup2\n      mstore\n      0x20\n      add\n      0x07\n      dup3\n      add\n      dup1\n      sload\n      tag_155\n      swap1\n      tag_140\n      jump\t// in\n    tag_155:\n      dup1\n      0x1f\n      add\n      0x20\n      dup1\n      swap2\n      div\n      mul\n      0x20\n      add\n      mload(0x40)\n      swap1\n      dup2\n      add\n      0x40\n      mstore\n      dup1\n      swap3\n      swap2\n      swap1\n      dup2\n      dup2\n      mstore\n      0x20\n      add\n      dup3\n      dup1\n      sload\n      tag_156\n      swap1\n      tag_140\n      jump\t// in\n    tag_156:\n      dup1\n      iszero\n      tag_157\n      jumpi\n      dup1\n      0x1f\n      lt\n      tag_158\n      jumpi\n      0x0100\n      dup1\n      dup4\n      sload\n      div\n      mul\n      dup4\n      mstore\n      swap2\n      0x20\n      add\n      swap2\n      jump(tag_157)\n    tag_158:\n      dup3\n      add\n      swap2\n      swap1\n      0x00\n      mstore\n      keccak256(0x00, 0x20)\n      swap1\n    tag_159:\n      dup2\n      sload\n      dup2\n      mstore\n      swap1\n      0x01\n      add\n      swap1\n      0x20\n      add\n      dup1\n      dup4\n      gt\n      tag_159\n      jumpi\n      dup3\n      swap1\n      sub\n      0x1f\n      and\n      dup3\n      add\n      swap2\n    tag_157:\n      pop\n      pop\n      pop\n      pop\n      pop\n      dup2\n      mstore\n      0x20\n      add\n      0x08\n      dup3\n      add\n      dup1\n      sload\n      tag_160\n      swap1\n      tag_140\n      jump\t// in\n    tag_160:\n      dup1\n      0x1f\n      add\n      0x20\n      dup1\n      swap2\n      div\n      mul\n      0x20\n      add\n      mload(0x40)\n      swap1\n      dup2\n      add\n      0x40\n      mstore\n      dup1\n      swap3\n      swap2\n      swap1\n      dup2\n      dup2\n      mstore\n      0x20\n      add\n      dup3\n      dup1\n      sload\n      tag_161\n      swap1\n      tag_140\n      jump\t// in\n    tag_161:\n      dup1\n      iszero\n      tag_162\n      jumpi\n      dup1\n      0x1f\n      lt\n      tag_163\n      jumpi\n      0x0100\n      dup1\n      dup4\n      sload\n      div\n      mul\n      dup4\n      mstore\n      swap2\n      0x20\n      add\n      swap2\n      jump(tag_162)\n    tag_163:\n      dup3\n      add\n      swap2\n      swap1\n      0x00\n      mstore\n      keccak256(0x00, 0x20)\n      swap1\n    tag_164:\n      dup2\n      sload\n      dup2\n      mstore\n      swap1\n      0x01\n      add\n      swap1\n      0x20\n      add\n      dup1\n      dup4\n      gt\n      tag_164\n      jumpi\n      dup3\n      swap1\n      sub\n      0x1f\n      and\n      dup3\n      add\n      swap2\n    tag_162:\n      pop\n      pop\n      pop\n      pop\n      pop\n      dup2\n      mstore\n      0x20\n      add\n      0x09\n      dup3\n      add\n      dup1\n      sload\n      tag_165\n      swap1\n      tag_140\n      jump\t// in\n    tag_165:\n      dup1\n      0x1f\n      add\n      0x20\n      dup1\n      swap2\n      div\n      mul\n      0x20\n      add\n      mload(0x40)\n      swap1\n      dup2\n      add\n      0x40\n      mstore\n      dup1\n      swap3\n      swap2\n      swap1\n      dup2\n      dup2\n      mstore\n      0x20\n      add\n      dup3\n      dup1\n      sload\n      tag_166\n      swap1\n      tag_140\n      jump\t// in\n    tag_166:\n      dup1\n      iszero\n      tag_167\n      jumpi\n      dup1\n      0x1f\n      lt\n      tag_168\n      jumpi\n      0x0100\n      dup1\n      dup4\n      sload\n      div\n      mul\n      dup4\n      mstore\n      swap2\n      0x20\n      add\n      swap2\n      jump(tag_167)\n    tag_168:\n      dup3\n      add\n      swap2\n      swap1\n      0x00\n      mstore\n      keccak256(0x00, 0x20)\n      swap1\n    tag_169:\n      dup2\n      sload\n      dup2\n      mstore\n      swap1\n      0x01\n      add\n      swap1\n      0x20\n      add\n      dup1\n      dup4\n      gt\n      tag_169\n      jumpi\n      dup3\n      swap1\n      sub\n      0x1f\n      and\n      dup3\n      add\n      swap2\n    tag_167:\n      pop\n      pop\n      pop\n      pop\n      pop\n      dup2\n      mstore\n      0x20\n      add\n      0x0a\n      dup3\n      add\n      dup1\n      sload\n      tag_170\n      swap1\n      tag_140\n      jump\t// in\n    tag_170:\n      dup1\n      0x1f\n      add\n      0x20\n      dup1\n      swap2\n      div\n      mul\n      0x20\n      add\n      mload(0x40)\n      swap1\n      dup2\n      add\n      0x40\n      mstore\n      dup1\n      swap3\n      swap2\n      swap1\n      dup2\n      dup2\n      mstore\n      0x20\n      add\n      dup3\n      dup1\n      sload\n      tag_171\n      swap1\n      tag_140\n      jump\t// in\n    tag_171:\n      dup1\n      iszero\n      tag_172\n      jumpi\n      dup1\n      0x1f\n      lt\n      tag_173\n      jumpi\n      0x0100\n      dup1\n      dup4\n      sload\n      div\n      mul\n      dup4\n      mstore\n      swap2\n      0x20\n      add\n      swap2\n      jump(tag_172)\n    tag_173:\n      dup3\n      add\n      swap2\n      swap1\n      0x00\n      mstore\n      keccak256(0x00, 0x20)\n      swap1\n    tag_174:\n      dup2\n      sload\n      dup2\n      mstore\n      swap1\n      0x01\n      add\n      swap1\n      0x20\n      add\n      dup1\n      dup4\n      gt\n      tag_174\n      jumpi\n      dup3\n      swap1\n      sub\n      0x1f\n      and\n      dup3\n      add\n      swap2\n    tag_172:\n      pop\n      pop\n      pop\n      pop\n      pop\n      dup2\n      mstore\n      0x20\n      add\n      0x0b\n      dup3\n      add\n      dup1\n      sload\n      tag_175\n      swap1\n      tag_140\n      jump\t// in\n    tag_175:\n      dup1\n      0x1f\n      add\n      0x20\n      dup1\n      swap2\n      div\n      mul\n      0x20\n      add\n      mload(0x40)\n      swap1\n      dup2\n      add\n      0x40\n      mstore\n      dup1\n      swap3\n      swap2\n      swap1\n      dup2\n      dup2\n      mstore\n      0x20\n      add\n      dup3\n      dup1\n      sload\n      tag_176\n      swap1\n      tag_140\n      jump\t// in\n    tag_176:\n      dup1\n      iszero\n      tag_177\n      jumpi\n      dup1\n      0x1f\n      lt\n      tag_178\n      jumpi\n      0x0100\n      dup1\n      dup4\n      sload\n      div\n      mul\n      dup4\n      mstore\n      swap2\n      0x20\n      add\n      swap2\n      jump(tag_177)\n    tag_178:\n      dup3\n      add\n      swap2\n      swap1\n      0x00\n      mstore\n      keccak256(0x00, 0x20)\n      swap1\n    tag_179:\n      dup2\n      sload\n      dup2\n      mstore\n      swap1\n      0x01\n      add\n      swap1\n      0x20\n      add\n      dup1\n      dup4\n      gt\n      tag_179\n      jumpi\n      dup3\n      swap1\n      sub\n      0x1f\n      and\n      dup3\n      add\n      swap2\n    tag_177:\n      pop\n      pop\n      pop\n      pop\n      pop\n      dup2\n      mstore\n      pop\n      pop\n      swap3\n      pop\n      pop\n      jump(tag_134)\n        /* \"database/ListEmployee.sol\":2089:2130  if (list[i].user == value) return list[i] */\n    tag_138:\n        /* \"database/ListEmployee.sol\":2070:2073  i++ */\n      dup1\n      tag_180\n      dup2\n      tag_181\n      jump\t// in\n    tag_180:\n      swap2\n      pop\n      pop\n        /* \"database/ListEmployee.sol\":2030:2141  for (uint256 i = 1; i <= autoIncrement; i++) {... */\n      jump(tag_135)\n    tag_136:\n      pop\n        /* \"database/ListEmployee.sol\":2157:2217  Profile(0, 0, 0, address(0), \"\", \"\", \"\", \"\", \"\", \"\", \"\", \"\") */\n      0x40\n      dup1\n      mload\n      0x0180\n      dup2\n      add\n      dup3\n      mstore\n      0x00\n      dup1\n      dup3\n      mstore\n      0x20\n      dup1\n      dup4\n      add\n      dup3\n      swap1\n      mstore\n      dup3\n      dup5\n      add\n      dup3\n      swap1\n      mstore\n      0x60\n      dup4\n      add\n      dup3\n      swap1\n      mstore\n      dup4\n      mload\n      dup1\n      dup3\n      add\n      dup6\n      mstore\n      dup3\n      dup2\n      mstore\n      0x80\n      dup5\n      add\n      mstore\n      dup4\n      mload\n      dup1\n      dup3\n      add\n      dup6\n      mstore\n      dup3\n      dup2\n      mstore\n      0xa0\n      dup5\n      add\n      mstore\n      dup4\n      mload\n      dup1\n      dup3\n      add\n      dup6\n      mstore\n      dup3\n      dup2\n      mstore\n      0xc0\n      dup5\n      add\n      mstore\n      dup4\n      mload\n      dup1\n      dup3\n      add\n      dup6\n      mstore\n      dup3\n      dup2\n      mstore\n      0xe0\n      dup5\n      add\n      mstore\n      dup4\n      mload\n      dup1\n      dup3\n      add\n      dup6\n      mstore\n      dup3\n      dup2\n      mstore\n      0x0100\n      dup5\n      add\n      mstore\n      dup4\n      mload\n      dup1\n      dup3\n      add\n      dup6\n      mstore\n      dup3\n      dup2\n      mstore\n      0x0120\n      dup5\n      add\n      mstore\n      dup4\n      mload\n      dup1\n      dup3\n      add\n      dup6\n      mstore\n      dup3\n      dup2\n      mstore\n      0x0140\n      dup5\n      add\n      mstore\n      dup4\n      mload\n      swap1\n      dup2\n      add\n      swap1\n      swap4\n      mstore\n      dup3\n      mstore\n      0x0160\n      dup2\n      add\n      swap2\n      swap1\n      swap2\n      mstore\n      swap2\n      pop\n        /* \"database/ListEmployee.sol\":625:626  _ */\n    tag_134:\n        /* \"database/ListEmployee.sol\":1872:2285  function atAddress(address value, bytes32 secret)... */\n      pop\n      swap3\n      swap2\n      pop\n      pop\n      jump\t// out\n        /* \"database/ListEmployee.sol\":3110:3339  function setCategory(... */\n    tag_41:\n        /* \"database/ListEmployee.sol\":3266:3270  bool */\n      0x00\n        /* \"database/ListEmployee.sol\":3231:3237  secret */\n      dup3\n      0x00\n      dup1\n      mload\n      0x20\n      data_98ee57057fe0a523e70b51608fd55a37ff53d47c3b8dac495a5f45d45157392f\n      dup4\n      codecopy\n      dup2\n      mload\n      swap2\n      mstore\n        /* \"database/ListEmployee.sol\":529:550  value == DATABASE_KEY */\n      dup2\n      eq\n        /* \"database/ListEmployee.sol\":508:615  require(... */\n      tag_183\n      jumpi\n      mload(0x40)\n      shl(0xe5, 0x461bcd)\n      dup2\n      mstore\n      0x04\n      add\n      tag_121\n      swap1\n      tag_122\n      jump\t// in\n    tag_183:\n        /* \"database/ListEmployee.sol\":3250:3255  index */\n      dup5\n        /* \"database/ListEmployee.sol\":711:716  index */\n      dup1\n        /* \"database/ListEmployee.sol\":706:707  1 */\n      0x01\n        /* \"database/ListEmployee.sol\":706:716  1 <= index */\n      gt\n      iszero\n        /* \"database/ListEmployee.sol\":705:745  (1 <= index) && (index <= autoIncrement) */\n      dup1\n      iszero\n      tag_186\n      jumpi\n      pop\n        /* \"database/ListEmployee.sol\":731:744  autoIncrement */\n      sload(0x02)\n        /* \"database/ListEmployee.sol\":722:727  index */\n      dup2\n        /* \"database/ListEmployee.sol\":722:744  index <= autoIncrement */\n      gt\n      iszero\n        /* \"database/ListEmployee.sol\":705:745  (1 <= index) && (index <= autoIncrement) */\n    tag_186:\n        /* \"database/ListEmployee.sol\":684:807  require(... */\n      tag_187\n      jumpi\n      mload(0x40)\n      shl(0xe5, 0x461bcd)\n      dup2\n      mstore\n      0x04\n      add\n      tag_121\n      swap1\n      tag_127\n      jump\t// in\n    tag_187:\n      pop\n      pop\n      pop\n        /* \"database/ListEmployee.sol\":3282:3293  list[index] */\n      0x00\n      swap3\n      dup4\n      mstore\n        /* \"database/ListEmployee.sol\":3282:3286  list */\n      0x01\n        /* \"database/ListEmployee.sol\":3282:3293  list[index] */\n      0x20\n      dup2\n      swap1\n      mstore\n      0x40\n      swap1\n      swap4\n      keccak256\n        /* \"database/ListEmployee.sol\":3282:3311  list[index].catergory = value */\n      sstore\n      pop\n        /* \"database/ListEmployee.sol\":3282:3286  list */\n      swap1\n        /* \"database/ListEmployee.sol\":3110:3339  function setCategory(... */\n      jump\t// out\n        /* \"database/ListEmployee.sol\":4749:4977  function setEmail(... */\n    tag_46:\n        /* \"database/ListEmployee.sol\":4908:4912  bool */\n      0x00\n        /* \"database/ListEmployee.sol\":4873:4879  secret */\n      dup3\n      0x00\n      dup1\n      mload\n      0x20\n      data_98ee57057fe0a523e70b51608fd55a37ff53d47c3b8dac495a5f45d45157392f\n      dup4\n      codecopy\n      dup2\n      mload\n      swap2\n      mstore\n        /* \"database/ListEmployee.sol\":529:550  value == DATABASE_KEY */\n      dup2\n      eq\n        /* \"database/ListEmployee.sol\":508:615  require(... */\n      tag_191\n      jumpi\n      mload(0x40)\n      shl(0xe5, 0x461bcd)\n      dup2\n      mstore\n      0x04\n      add\n      tag_121\n      swap1\n      tag_122\n      jump\t// in\n    tag_191:\n        /* \"database/ListEmployee.sol\":4892:4897  index */\n      dup5\n        /* \"database/ListEmployee.sol\":711:716  index */\n      dup1\n        /* \"database/ListEmployee.sol\":706:707  1 */\n      0x01\n        /* \"database/ListEmployee.sol\":706:716  1 <= index */\n      gt\n      iszero\n        /* \"database/ListEmployee.sol\":705:745  (1 <= index) && (index <= autoIncrement) */\n      dup1\n      iszero\n      tag_194\n      jumpi\n      pop\n        /* \"database/ListEmployee.sol\":731:744  autoIncrement */\n      sload(0x02)\n        /* \"database/ListEmployee.sol\":722:727  index */\n      dup2\n        /* \"database/ListEmployee.sol\":722:744  index <= autoIncrement */\n      gt\n      iszero\n        /* \"database/ListEmployee.sol\":705:745  (1 <= index) && (index <= autoIncrement) */\n    tag_194:\n        /* \"database/ListEmployee.sol\":684:807  require(... */\n      tag_195\n      jumpi\n      mload(0x40)\n      shl(0xe5, 0x461bcd)\n      dup2\n      mstore\n      0x04\n      add\n      tag_121\n      swap1\n      tag_127\n      jump\t// in\n    tag_195:\n        /* \"database/ListEmployee.sol\":4924:4935  list[index] */\n      0x00\n      dup7\n      dup2\n      mstore\n        /* \"database/ListEmployee.sol\":4924:4928  list */\n      0x01\n        /* \"database/ListEmployee.sol\":4924:4935  list[index] */\n      0x20\n      mstore\n      0x40\n      swap1\n      keccak256\n        /* \"database/ListEmployee.sol\":4924:4941  list[index].email */\n      0x07\n      add\n        /* \"database/ListEmployee.sol\":4924:4949  list[index].email = value */\n      tag_198\n        /* \"database/ListEmployee.sol\":4944:4949  value */\n      dup6\n        /* \"database/ListEmployee.sol\":4924:4941  list[index].email */\n      dup3\n        /* \"database/ListEmployee.sol\":4924:4949  list[index].email = value */\n      tag_199\n      jump\t// in\n    tag_198:\n      pop\n        /* \"database/ListEmployee.sol\":4966:4970  true */\n      0x01\n      swap7\n        /* \"database/ListEmployee.sol\":4749:4977  function setEmail(... */\n      swap6\n      pop\n      pop\n      pop\n      pop\n      pop\n      pop\n      jump\t// out\n        /* \"database/ListEmployee.sol\":5705:5939  function setPassword(... */\n    tag_50:\n        /* \"database/ListEmployee.sol\":5867:5871  bool */\n      0x00\n        /* \"database/ListEmployee.sol\":5832:5838  secret */\n      dup3\n      0x00\n      dup1\n      mload\n      0x20\n      data_98ee57057fe0a523e70b51608fd55a37ff53d47c3b8dac495a5f45d45157392f\n      dup4\n      codecopy\n      dup2\n      mload\n      swap2\n      mstore\n        /* \"database/ListEmployee.sol\":529:550  value == DATABASE_KEY */\n      dup2\n      eq\n        /* \"database/ListEmployee.sol\":508:615  require(... */\n      tag_201\n      jumpi\n      mload(0x40)\n      shl(0xe5, 0x461bcd)\n      dup2\n      mstore\n      0x04\n      add\n      tag_121\n      swap1\n      tag_122\n      jump\t// in\n    tag_201:\n        /* \"database/ListEmployee.sol\":5851:5856  index */\n      dup5\n        /* \"database/ListEmployee.sol\":711:716  index */\n      dup1\n        /* \"database/ListEmployee.sol\":706:707  1 */\n      0x01\n        /* \"database/ListEmployee.sol\":706:716  1 <= index */\n      gt\n      iszero\n        /* \"database/ListEmployee.sol\":705:745  (1 <= index) && (index <= autoIncrement) */\n      dup1\n      iszero\n      tag_204\n      jumpi\n      pop\n        /* \"database/ListEmployee.sol\":731:744  autoIncrement */\n      sload(0x02)\n        /* \"database/ListEmployee.sol\":722:727  index */\n      dup2\n        /* \"database/ListEmployee.sol\":722:744  index <= autoIncrement */\n      gt\n      iszero\n        /* \"database/ListEmployee.sol\":705:745  (1 <= index) && (index <= autoIncrement) */\n    tag_204:\n        /* \"database/ListEmployee.sol\":684:807  require(... */\n      tag_205\n      jumpi\n      mload(0x40)\n      shl(0xe5, 0x461bcd)\n      dup2\n      mstore\n      0x04\n      add\n      tag_121\n      swap1\n      tag_127\n      jump\t// in\n    tag_205:\n        /* \"database/ListEmployee.sol\":5883:5894  list[index] */\n      0x00\n      dup7\n      dup2\n      mstore\n        /* \"database/ListEmployee.sol\":5883:5887  list */\n      0x01\n        /* \"database/ListEmployee.sol\":5883:5894  list[index] */\n      0x20\n      mstore\n      0x40\n      swap1\n      keccak256\n        /* \"database/ListEmployee.sol\":5883:5903  list[index].password */\n      0x0b\n      add\n        /* \"database/ListEmployee.sol\":5883:5911  list[index].password = value */\n      tag_198\n        /* \"database/ListEmployee.sol\":5906:5911  value */\n      dup6\n        /* \"database/ListEmployee.sol\":5883:5903  list[index].password */\n      dup3\n        /* \"database/ListEmployee.sol\":5883:5911  list[index].password = value */\n      tag_199\n      jump\t// in\n        /* \"database/ListEmployee.sol\":3809:4029  function setUser(... */\n    tag_55:\n        /* \"database/ListEmployee.sol\":3961:3965  bool */\n      0x00\n        /* \"database/ListEmployee.sol\":3926:3932  secret */\n      dup3\n      0x00\n      dup1\n      mload\n      0x20\n      data_98ee57057fe0a523e70b51608fd55a37ff53d47c3b8dac495a5f45d45157392f\n      dup4\n      codecopy\n      dup2\n      mload\n      swap2\n      mstore\n        /* \"database/ListEmployee.sol\":529:550  value == DATABASE_KEY */\n      dup2\n      eq\n        /* \"database/ListEmployee.sol\":508:615  require(... */\n      tag_210\n      jumpi\n      mload(0x40)\n      shl(0xe5, 0x461bcd)\n      dup2\n      mstore\n      0x04\n      add\n      tag_121\n      swap1\n      tag_122\n      jump\t// in\n    tag_210:\n        /* \"database/ListEmployee.sol\":3945:3950  index */\n      dup5\n        /* \"database/ListEmployee.sol\":711:716  index */\n      dup1\n        /* \"database/ListEmployee.sol\":706:707  1 */\n      0x01\n        /* \"database/ListEmployee.sol\":706:716  1 <= index */\n      gt\n      iszero\n        /* \"database/ListEmployee.sol\":705:745  (1 <= index) && (index <= autoIncrement) */\n      dup1\n      iszero\n      tag_213\n      jumpi\n      pop\n        /* \"database/ListEmployee.sol\":731:744  autoIncrement */\n      sload(0x02)\n        /* \"database/ListEmployee.sol\":722:727  index */\n      dup2\n        /* \"database/ListEmployee.sol\":722:744  index <= autoIncrement */\n      gt\n      iszero\n        /* \"database/ListEmployee.sol\":705:745  (1 <= index) && (index <= autoIncrement) */\n    tag_213:\n        /* \"database/ListEmployee.sol\":684:807  require(... */\n      tag_214\n      jumpi\n      mload(0x40)\n      shl(0xe5, 0x461bcd)\n      dup2\n      mstore\n      0x04\n      add\n      tag_121\n      swap1\n      tag_127\n      jump\t// in\n    tag_214:\n      pop\n      pop\n      pop\n        /* \"database/ListEmployee.sol\":3977:3988  list[index] */\n      0x00\n      swap3\n      dup4\n      mstore\n        /* \"database/ListEmployee.sol\":3977:3981  list */\n      0x01\n        /* \"database/ListEmployee.sol\":3977:3988  list[index] */\n      0x20\n      dup2\n      swap1\n      mstore\n      0x40\n      swap1\n      swap4\n      keccak256\n        /* \"database/ListEmployee.sol\":3977:3993  list[index].user */\n      0x03\n      add\n        /* \"database/ListEmployee.sol\":3977:4001  list[index].user = value */\n      dup1\n      sload\n      not(sub(shl(0xa0, 0x01), 0x01))\n      and\n      sub(shl(0xa0, 0x01), 0x01)\n      swap3\n      swap1\n      swap3\n      and\n      swap2\n      swap1\n      swap2\n      or\n      swap1\n      sstore\n      pop\n        /* \"database/ListEmployee.sol\":3977:3981  list */\n      swap1\n        /* \"database/ListEmployee.sol\":3809:4029  function setUser(... */\n      jump\t// out\n        /* \"database/ListEmployee.sol\":4035:4261  function setName(... */\n    tag_59:\n        /* \"database/ListEmployee.sol\":4193:4197  bool */\n      0x00\n        /* \"database/ListEmployee.sol\":4158:4164  secret */\n      dup3\n      0x00\n      dup1\n      mload\n      0x20\n      data_98ee57057fe0a523e70b51608fd55a37ff53d47c3b8dac495a5f45d45157392f\n      dup4\n      codecopy\n      dup2\n      mload\n      swap2\n      mstore\n        /* \"database/ListEmployee.sol\":529:550  value == DATABASE_KEY */\n      dup2\n      eq\n        /* \"database/ListEmployee.sol\":508:615  require(... */\n      tag_218\n      jumpi\n      mload(0x40)\n      shl(0xe5, 0x461bcd)\n      dup2\n      mstore\n      0x04\n      add\n      tag_121\n      swap1\n      tag_122\n      jump\t// in\n    tag_218:\n        /* \"database/ListEmployee.sol\":4177:4182  index */\n      dup5\n        /* \"database/ListEmployee.sol\":711:716  index */\n      dup1\n        /* \"database/ListEmployee.sol\":706:707  1 */\n      0x01\n        /* \"database/ListEmployee.sol\":706:716  1 <= index */\n      gt\n      iszero\n        /* \"database/ListEmployee.sol\":705:745  (1 <= index) && (index <= autoIncrement) */\n      dup1\n      iszero\n      tag_221\n      jumpi\n      pop\n        /* \"database/ListEmployee.sol\":731:744  autoIncrement */\n      sload(0x02)\n        /* \"database/ListEmployee.sol\":722:727  index */\n      dup2\n        /* \"database/ListEmployee.sol\":722:744  index <= autoIncrement */\n      gt\n      iszero\n        /* \"database/ListEmployee.sol\":705:745  (1 <= index) && (index <= autoIncrement) */\n    tag_221:\n        /* \"database/ListEmployee.sol\":684:807  require(... */\n      tag_222\n      jumpi\n      mload(0x40)\n      shl(0xe5, 0x461bcd)\n      dup2\n      mstore\n      0x04\n      add\n      tag_121\n      swap1\n      tag_127\n      jump\t// in\n    tag_222:\n        /* \"database/ListEmployee.sol\":4209:4220  list[index] */\n      0x00\n      dup7\n      dup2\n      mstore\n        /* \"database/ListEmployee.sol\":4209:4213  list */\n      0x01\n        /* \"database/ListEmployee.sol\":4209:4220  list[index] */\n      0x20\n      mstore\n      0x40\n      swap1\n      keccak256\n        /* \"database/ListEmployee.sol\":4209:4225  list[index].name */\n      0x04\n      add\n        /* \"database/ListEmployee.sol\":4209:4233  list[index].name = value */\n      tag_198\n        /* \"database/ListEmployee.sol\":4228:4233  value */\n      dup6\n        /* \"database/ListEmployee.sol\":4209:4225  list[index].name */\n      dup3\n        /* \"database/ListEmployee.sol\":4209:4233  list[index].name = value */\n      tag_199\n      jump\t// in\n        /* \"database/ListEmployee.sol\":1000:1277  function add(Profile memory item, bytes32 secret)... */\n    tag_64:\n        /* \"database/ListEmployee.sol\":1115:1122  uint256 */\n      0x00\n        /* \"database/ListEmployee.sol\":1090:1096  secret */\n      dup2\n      0x00\n      dup1\n      mload\n      0x20\n      data_98ee57057fe0a523e70b51608fd55a37ff53d47c3b8dac495a5f45d45157392f\n      dup4\n      codecopy\n      dup2\n      mload\n      swap2\n      mstore\n        /* \"database/ListEmployee.sol\":529:550  value == DATABASE_KEY */\n      dup2\n      eq\n        /* \"database/ListEmployee.sol\":508:615  require(... */\n      tag_227\n      jumpi\n      mload(0x40)\n      shl(0xe5, 0x461bcd)\n      dup2\n      mstore\n      0x04\n      add\n      tag_121\n      swap1\n      tag_122\n      jump\t// in\n    tag_227:\n        /* \"database/ListEmployee.sol\":1138:1151  autoIncrement */\n      0x02\n        /* \"database/ListEmployee.sol\":1138:1153  autoIncrement++ */\n      dup1\n      sload\n      swap1\n        /* \"database/ListEmployee.sol\":1138:1151  autoIncrement */\n      0x00\n        /* \"database/ListEmployee.sol\":1138:1153  autoIncrement++ */\n      tag_230\n      dup4\n      tag_181\n      jump\t// in\n    tag_230:\n      swap1\n      swap2\n      sstore\n      pop\n      pop\n        /* \"database/ListEmployee.sol\":1173:1186  autoIncrement */\n      0x02\n      dup1\n      sload\n        /* \"database/ListEmployee.sol\":1163:1170  item.id */\n      0x20\n      dup7\n      dup2\n      add\n        /* \"database/ListEmployee.sol\":1163:1186  item.id = autoIncrement */\n      dup3\n      dup2\n      mstore\n        /* \"database/ListEmployee.sol\":1196:1215  list[autoIncrement] */\n      0x00\n      swap3\n      dup4\n      mstore\n        /* \"database/ListEmployee.sol\":1196:1200  list */\n      0x01\n        /* \"database/ListEmployee.sol\":1196:1215  list[autoIncrement] */\n      swap2\n      dup3\n      swap1\n      mstore\n      0x40\n      swap3\n      dup4\n      swap1\n      keccak256\n        /* \"database/ListEmployee.sol\":1196:1222  list[autoIncrement] = item */\n      dup9\n      mload\n      dup2\n      sstore\n      swap1\n      mload\n      swap2\n      dup2\n      add\n      swap2\n      swap1\n      swap2\n      sstore\n      swap1\n      dup7\n      add\n      mload\n      swap2\n      dup2\n      add\n      swap2\n      swap1\n      swap2\n      sstore\n      0x60\n      dup6\n      add\n      mload\n      0x03\n      dup3\n      add\n      dup1\n      sload\n      not(sub(shl(0xa0, 0x01), 0x01))\n      and\n      sub(shl(0xa0, 0x01), 0x01)\n      swap1\n      swap3\n      and\n      swap2\n      swap1\n      swap2\n      or\n      swap1\n      sstore\n      0x80\n      dup6\n      add\n      mload\n        /* \"database/ListEmployee.sol\":1163:1170  item.id */\n      dup6\n      swap2\n        /* \"database/ListEmployee.sol\":1196:1215  list[autoIncrement] */\n      swap1\n        /* \"database/ListEmployee.sol\":1196:1222  list[autoIncrement] = item */\n      0x04\n      dup3\n      add\n      swap1\n      tag_231\n      swap1\n      dup3\n      tag_199\n      jump\t// in\n    tag_231:\n      pop\n      0xa0\n      dup3\n      add\n      mload\n      0x05\n      dup3\n      add\n      swap1\n      tag_232\n      swap1\n      dup3\n      tag_199\n      jump\t// in\n    tag_232:\n      pop\n      0xc0\n      dup3\n      add\n      mload\n      0x06\n      dup3\n      add\n      swap1\n      tag_233\n      swap1\n      dup3\n      tag_199\n      jump\t// in\n    tag_233:\n      pop\n      0xe0\n      dup3\n      add\n      mload\n      0x07\n      dup3\n      add\n      swap1\n      tag_234\n      swap1\n      dup3\n      tag_199\n      jump\t// in\n    tag_234:\n      pop\n      0x0100\n      dup3\n      add\n      mload\n      0x08\n      dup3\n      add\n      swap1\n      tag_235\n      swap1\n      dup3\n      tag_199\n      jump\t// in\n    tag_235:\n      pop\n      0x0120\n      dup3\n      add\n      mload\n      0x09\n      dup3\n      add\n      swap1\n      tag_236\n      swap1\n      dup3\n      tag_199\n      jump\t// in\n    tag_236:\n      pop\n      0x0140\n      dup3\n      add\n      mload\n      0x0a\n      dup3\n      add\n      swap1\n      tag_237\n      swap1\n      dup3\n      tag_199\n      jump\t// in\n    tag_237:\n      pop\n      0x0160\n      dup3\n      add\n      mload\n      0x0b\n      dup3\n      add\n      swap1\n      tag_238\n      swap1\n      dup3\n      tag_199\n      jump\t// in\n    tag_238:\n      pop\n      swap1\n      pop\n      pop\n        /* \"database/ListEmployee.sol\":1237:1246  Add(item) */\n      0x909ad77f22e0c92af47eb3f445c01071af38cca1b24a4204c243f9d6421568f4\n        /* \"database/ListEmployee.sol\":1241:1245  item */\n      dup5\n        /* \"database/ListEmployee.sol\":1237:1246  Add(item) */\n      mload(0x40)\n      tag_239\n      swap2\n      swap1\n      tag_38\n      jump\t// in\n    tag_239:\n      mload(0x40)\n      dup1\n      swap2\n      sub\n      swap1\n      log1\n      pop\n      pop\n      pop\n        /* \"database/ListEmployee.sol\":1263:1270  item.id */\n      0x20\n      add\n      mload\n      swap1\n        /* \"database/ListEmployee.sol\":1000:1277  function add(Profile memory item, bytes32 secret)... */\n      jump\t// out\n        /* \"database/ListEmployee.sol\":5459:5699  function setSourceImage(... */\n    tag_69:\n        /* \"database/ListEmployee.sol\":5624:5628  bool */\n      0x00\n        /* \"database/ListEmployee.sol\":5589:5595  secret */\n      dup3\n      0x00\n      dup1\n      mload\n      0x20\n      data_98ee57057fe0a523e70b51608fd55a37ff53d47c3b8dac495a5f45d45157392f\n      dup4\n      codecopy\n      dup2\n      mload\n      swap2\n      mstore\n        /* \"database/ListEmployee.sol\":529:550  value == DATABASE_KEY */\n      dup2\n      eq\n        /* \"database/ListEmployee.sol\":508:615  require(... */\n      tag_241\n      jumpi\n      mload(0x40)\n      shl(0xe5, 0x461bcd)\n      dup2\n      mstore\n      0x04\n      add\n      tag_121\n      swap1\n      tag_122\n      jump\t// in\n    tag_241:\n        /* \"database/ListEmployee.sol\":5608:5613  index */\n      dup5\n        /* \"database/ListEmployee.sol\":711:716  index */\n      dup1\n        /* \"database/ListEmployee.sol\":706:707  1 */\n      0x01\n        /* \"database/ListEmployee.sol\":706:716  1 <= index */\n      gt\n      iszero\n        /* \"database/ListEmployee.sol\":705:745  (1 <= index) && (index <= autoIncrement) */\n      dup1\n      iszero\n      tag_244\n      jumpi\n      pop\n        /* \"database/ListEmployee.sol\":731:744  autoIncrement */\n      sload(0x02)\n        /* \"database/ListEmployee.sol\":722:727  index */\n      dup2\n        /* \"database/ListEmployee.sol\":722:744  index <= autoIncrement */\n      gt\n      iszero\n        /* \"database/ListEmployee.sol\":705:745  (1 <= index) && (index <= autoIncrement) */\n    tag_244:\n        /* \"database/ListEmployee.sol\":684:807  require(... */\n      tag_245\n      jumpi\n      mload(0x40)\n      shl(0xe5, 0x461bcd)\n      dup2\n      mstore\n      0x04\n      add\n      tag_121\n      swap1\n      tag_127\n      jump\t// in\n    tag_245:\n        /* \"database/ListEmployee.sol\":5640:5651  list[index] */\n      0x00\n      dup7\n      dup2\n      mstore\n        /* \"database/ListEmployee.sol\":5640:5644  list */\n      0x01\n        /* \"database/ListEmployee.sol\":5640:5651  list[index] */\n      0x20\n      mstore\n      0x40\n      swap1\n      keccak256\n        /* \"database/ListEmployee.sol\":5640:5663  list[index].sourceImage */\n      0x0a\n      add\n        /* \"database/ListEmployee.sol\":5640:5671  list[index].sourceImage = value */\n      tag_198\n        /* \"database/ListEmployee.sol\":5666:5671  value */\n      dup6\n        /* \"database/ListEmployee.sol\":5640:5663  list[index].sourceImage */\n      dup3\n        /* \"database/ListEmployee.sol\":5640:5671  list[index].sourceImage = value */\n      tag_199\n      jump\t// in\n        /* \"abstract/Ownable.sol\":2642:2731  function destroy() public onlyOwner {... */\n    tag_72:\n        /* \"abstract/Ownable.sol\":1068:1081  _checkOwner() */\n      tag_250\n        /* \"abstract/Ownable.sol\":1068:1079  _checkOwner */\n      tag_251\n        /* \"abstract/Ownable.sol\":1068:1081  _checkOwner() */\n      jump\t// in\n    tag_250:\n        /* \"abstract/Ownable.sol\":2717:2721  this */\n      address\n        /* \"abstract/Ownable.sol\":2688:2724  selfdestruct(payable(address(this))) */\n      selfdestruct\n        /* \"database/ListEmployee.sol\":3345:3561  function setId(... */\n    tag_75:\n        /* \"database/ListEmployee.sol\":3495:3499  bool */\n      0x00\n        /* \"database/ListEmployee.sol\":3460:3466  secret */\n      dup3\n      0x00\n      dup1\n      mload\n      0x20\n      data_98ee57057fe0a523e70b51608fd55a37ff53d47c3b8dac495a5f45d45157392f\n      dup4\n      codecopy\n      dup2\n      mload\n      swap2\n      mstore\n        /* \"database/ListEmployee.sol\":529:550  value == DATABASE_KEY */\n      dup2\n      eq\n        /* \"database/ListEmployee.sol\":508:615  require(... */\n      tag_254\n      jumpi\n      mload(0x40)\n      shl(0xe5, 0x461bcd)\n      dup2\n      mstore\n      0x04\n      add\n      tag_121\n      swap1\n      tag_122\n      jump\t// in\n    tag_254:\n        /* \"database/ListEmployee.sol\":3479:3484  index */\n      dup5\n        /* \"database/ListEmployee.sol\":711:716  index */\n      dup1\n        /* \"database/ListEmployee.sol\":706:707  1 */\n      0x01\n        /* \"database/ListEmployee.sol\":706:716  1 <= index */\n      gt\n      iszero\n        /* \"database/ListEmployee.sol\":705:745  (1 <= index) && (index <= autoIncrement) */\n      dup1\n      iszero\n      tag_257\n      jumpi\n      pop\n        /* \"database/ListEmployee.sol\":731:744  autoIncrement */\n      sload(0x02)\n        /* \"database/ListEmployee.sol\":722:727  index */\n      dup2\n        /* \"database/ListEmployee.sol\":722:744  index <= autoIncrement */\n      gt\n      iszero\n        /* \"database/ListEmployee.sol\":705:745  (1 <= index) && (index <= autoIncrement) */\n    tag_257:\n        /* \"database/ListEmployee.sol\":684:807  require(... */\n      tag_258\n      jumpi\n      mload(0x40)\n      shl(0xe5, 0x461bcd)\n      dup2\n      mstore\n      0x04\n      add\n      tag_121\n      swap1\n      tag_127\n      jump\t// in\n    tag_258:\n      pop\n      pop\n      pop\n        /* \"database/ListEmployee.sol\":3511:3522  list[index] */\n      0x00\n      swap3\n      dup4\n      mstore\n        /* \"database/ListEmployee.sol\":3511:3515  list */\n      0x01\n        /* \"database/ListEmployee.sol\":3511:3522  list[index] */\n      0x20\n      dup2\n      swap1\n      mstore\n      0x40\n      swap1\n      swap4\n      keccak256\n        /* \"database/ListEmployee.sol\":3511:3525  list[index].id */\n      dup4\n      add\n        /* \"database/ListEmployee.sol\":3511:3533  list[index].id = value */\n      sstore\n      pop\n        /* \"database/ListEmployee.sol\":3511:3515  list */\n      swap1\n        /* \"database/ListEmployee.sol\":3345:3561  function setId(... */\n      jump\t// out\n        /* \"database/ListEmployee.sol\":2569:3015  function hide(uint256 index, bytes32 secret)... */\n    tag_84:\n        /* \"database/ListEmployee.sol\":2705:2709  bool */\n      0x00\n        /* \"database/ListEmployee.sol\":2654:2660  secret */\n      dup2\n      0x00\n      dup1\n      mload\n      0x20\n      data_98ee57057fe0a523e70b51608fd55a37ff53d47c3b8dac495a5f45d45157392f\n      dup4\n      codecopy\n      dup2\n      mload\n      swap2\n      mstore\n        /* \"database/ListEmployee.sol\":529:550  value == DATABASE_KEY */\n      dup2\n      eq\n        /* \"database/ListEmployee.sol\":508:615  require(... */\n      tag_263\n      jumpi\n      mload(0x40)\n      shl(0xe5, 0x461bcd)\n      dup2\n      mstore\n      0x04\n      add\n      tag_121\n      swap1\n      tag_122\n      jump\t// in\n    tag_263:\n        /* \"database/ListEmployee.sol\":2681:2686  index */\n      dup4\n        /* \"database/ListEmployee.sol\":711:716  index */\n      dup1\n        /* \"database/ListEmployee.sol\":706:707  1 */\n      0x01\n        /* \"database/ListEmployee.sol\":706:716  1 <= index */\n      gt\n      iszero\n        /* \"database/ListEmployee.sol\":705:745  (1 <= index) && (index <= autoIncrement) */\n      dup1\n      iszero\n      tag_266\n      jumpi\n      pop\n        /* \"database/ListEmployee.sol\":731:744  autoIncrement */\n      sload(0x02)\n        /* \"database/ListEmployee.sol\":722:727  index */\n      dup2\n        /* \"database/ListEmployee.sol\":722:744  index <= autoIncrement */\n      gt\n      iszero\n        /* \"database/ListEmployee.sol\":705:745  (1 <= index) && (index <= autoIncrement) */\n    tag_266:\n        /* \"database/ListEmployee.sol\":684:807  require(... */\n      tag_267\n      jumpi\n      mload(0x40)\n      shl(0xe5, 0x461bcd)\n      dup2\n      mstore\n      0x04\n      add\n      tag_121\n      swap1\n      tag_127\n      jump\t// in\n    tag_267:\n        /* \"database/ListEmployee.sol\":2746:2960  Profile(... */\n      0x40\n      dup1\n      mload\n      0x0180\n      dup2\n      add\n      dup3\n      mstore\n      0x00\n      dup1\n      dup3\n      mstore\n      0x20\n      dup1\n      dup4\n      add\n      dup3\n      dup2\n      mstore\n      dup4\n      dup6\n      add\n      dup4\n      dup2\n      mstore\n      0x60\n      dup6\n      add\n      dup5\n      dup2\n      mstore\n      dup7\n      mload\n      dup1\n      dup6\n      add\n      dup9\n      mstore\n      dup6\n      dup2\n      mstore\n      0x80\n      dup8\n      add\n      swap1\n      dup2\n      mstore\n      dup8\n      mload\n      dup1\n      dup7\n      add\n      dup10\n      mstore\n      dup7\n      dup2\n      mstore\n      0xa0\n      dup9\n      add\n      mstore\n      dup8\n      mload\n      dup1\n      dup7\n      add\n      dup10\n      mstore\n      dup7\n      dup2\n      mstore\n      0xc0\n      dup9\n      add\n      mstore\n      dup8\n      mload\n      dup1\n      dup7\n      add\n      dup10\n      mstore\n      dup7\n      dup2\n      mstore\n      0xe0\n      dup9\n      add\n      mstore\n      dup8\n      mload\n      dup1\n      dup7\n      add\n      dup10\n      mstore\n      dup7\n      dup2\n      mstore\n      0x0100\n      dup9\n      add\n      mstore\n      dup8\n      mload\n      dup1\n      dup7\n      add\n      dup10\n      mstore\n      dup7\n      dup2\n      mstore\n      0x0120\n      dup9\n      add\n      mstore\n      dup8\n      mload\n      dup1\n      dup7\n      add\n      dup10\n      mstore\n      dup7\n      dup2\n      mstore\n      0x0140\n      dup9\n      add\n      mstore\n      dup8\n      mload\n      dup1\n      dup7\n      add\n      dup10\n      mstore\n      dup7\n      dup2\n      mstore\n      0x0160\n      dup9\n      add\n      mstore\n        /* \"database/ListEmployee.sol\":2970:2981  list[index] */\n      dup13\n      dup7\n      mstore\n        /* \"database/ListEmployee.sol\":2970:2974  list */\n      0x01\n        /* \"database/ListEmployee.sol\":2970:2981  list[index] */\n      swap5\n      dup6\n      swap1\n      mstore\n      swap7\n      swap1\n      swap5\n      keccak256\n        /* \"database/ListEmployee.sol\":2970:2987  list[index] = gap */\n      dup6\n      mload\n      dup2\n      sstore\n      swap2\n      mload\n      swap3\n      dup3\n      add\n      swap3\n      swap1\n      swap3\n      sstore\n      swap1\n      mload\n      0x02\n      dup3\n      add\n      sstore\n      swap1\n      mload\n      0x03\n      dup3\n      add\n      dup1\n      sload\n      not(sub(shl(0xa0, 0x01), 0x01))\n      and\n      sub(shl(0xa0, 0x01), 0x01)\n      swap1\n      swap3\n      and\n      swap2\n      swap1\n      swap2\n      or\n      swap1\n      sstore\n      swap2\n      mload\n        /* \"database/ListEmployee.sol\":2746:2960  Profile(... */\n      swap1\n      swap2\n      dup3\n      swap2\n        /* \"database/ListEmployee.sol\":2970:2987  list[index] = gap */\n      0x04\n      dup3\n      add\n      swap1\n      tag_270\n      swap1\n      dup3\n      tag_199\n      jump\t// in\n    tag_270:\n      pop\n      0xa0\n      dup3\n      add\n      mload\n      0x05\n      dup3\n      add\n      swap1\n      tag_271\n      swap1\n      dup3\n      tag_199\n      jump\t// in\n    tag_271:\n      pop\n      0xc0\n      dup3\n      add\n      mload\n      0x06\n      dup3\n      add\n      swap1\n      tag_272\n      swap1\n      dup3\n      tag_199\n      jump\t// in\n    tag_272:\n      pop\n      0xe0\n      dup3\n      add\n      mload\n      0x07\n      dup3\n      add\n      swap1\n      tag_273\n      swap1\n      dup3\n      tag_199\n      jump\t// in\n    tag_273:\n      pop\n      0x0100\n      dup3\n      add\n      mload\n      0x08\n      dup3\n      add\n      swap1\n      tag_274\n      swap1\n      dup3\n      tag_199\n      jump\t// in\n    tag_274:\n      pop\n      0x0120\n      dup3\n      add\n      mload\n      0x09\n      dup3\n      add\n      swap1\n      tag_275\n      swap1\n      dup3\n      tag_199\n      jump\t// in\n    tag_275:\n      pop\n      0x0140\n      dup3\n      add\n      mload\n      0x0a\n      dup3\n      add\n      swap1\n      tag_276\n      swap1\n      dup3\n      tag_199\n      jump\t// in\n    tag_276:\n      pop\n      0x0160\n      dup3\n      add\n      mload\n      0x0b\n      dup3\n      add\n      swap1\n      tag_277\n      swap1\n      dup3\n      tag_199\n      jump\t// in\n    tag_277:\n      pop\n        /* \"database/ListEmployee.sol\":3004:3008  true */\n      0x01\n      swap9\n        /* \"database/ListEmployee.sol\":2569:3015  function hide(uint256 index, bytes32 secret)... */\n      swap8\n      pop\n      pop\n      pop\n      pop\n      pop\n      pop\n      pop\n      pop\n      jump\t// out\n        /* \"database/ListEmployee.sol\":1283:1565  function at(uint256 index, bytes32 secret)... */\n    tag_88:\n        /* \"database/ListEmployee.sol\":1430:1444  Profile memory */\n      tag_278\n      tag_130\n      jump\t// in\n    tag_278:\n        /* \"database/ListEmployee.sol\":1379:1385  secret */\n      dup2\n      0x00\n      dup1\n      mload\n      0x20\n      data_98ee57057fe0a523e70b51608fd55a37ff53d47c3b8dac495a5f45d45157392f\n      dup4\n      codecopy\n      dup2\n      mload\n      swap2\n      mstore\n        /* \"database/ListEmployee.sol\":529:550  value == DATABASE_KEY */\n      dup2\n      eq\n        /* \"database/ListEmployee.sol\":508:615  require(... */\n      tag_280\n      jumpi\n      mload(0x40)\n      shl(0xe5, 0x461bcd)\n      dup2\n      mstore\n      0x04\n      add\n      tag_121\n      swap1\n      tag_122\n      jump\t// in\n    tag_280:\n        /* \"database/ListEmployee.sol\":1406:1411  index */\n      dup4\n        /* \"database/ListEmployee.sol\":711:716  index */\n      dup1\n        /* \"database/ListEmployee.sol\":706:707  1 */\n      0x01\n        /* \"database/ListEmployee.sol\":706:716  1 <= index */\n      gt\n      iszero\n        /* \"database/ListEmployee.sol\":705:745  (1 <= index) && (index <= autoIncrement) */\n      dup1\n      iszero\n      tag_283\n      jumpi\n      pop\n        /* \"database/ListEmployee.sol\":731:744  autoIncrement */\n      sload(0x02)\n        /* \"database/ListEmployee.sol\":722:727  index */\n      dup2\n        /* \"database/ListEmployee.sol\":722:744  index <= autoIncrement */\n      gt\n      iszero\n        /* \"database/ListEmployee.sol\":705:745  (1 <= index) && (index <= autoIncrement) */\n    tag_283:\n        /* \"database/ListEmployee.sol\":684:807  require(... */\n      tag_284\n      jumpi\n      mload(0x40)\n      shl(0xe5, 0x461bcd)\n      dup2\n      mstore\n      0x04\n      add\n      tag_121\n      swap1\n      tag_127\n      jump\t// in\n    tag_284:\n        /* \"database/ListEmployee.sol\":1547:1558  list[index] */\n      0x00\n      dup6\n      dup2\n      mstore\n        /* \"database/ListEmployee.sol\":1547:1551  list */\n      0x01\n        /* \"database/ListEmployee.sol\":1547:1558  list[index] */\n      0x20\n      dup2\n      dup2\n      mstore\n      0x40\n      swap3\n      dup4\n      swap1\n      keccak256\n        /* \"database/ListEmployee.sol\":1540:1558  return list[index] */\n      dup4\n      mload\n      0x0180\n      dup2\n      add\n      dup6\n      mstore\n      dup2\n      sload\n      dup2\n      mstore\n      swap3\n      dup2\n      add\n      sload\n      swap2\n      dup4\n      add\n      swap2\n      swap1\n      swap2\n      mstore\n      0x02\n      dup2\n      add\n      sload\n      swap3\n      dup3\n      add\n      swap3\n      swap1\n      swap3\n      mstore\n      0x03\n      dup3\n      add\n      sload\n      sub(shl(0xa0, 0x01), 0x01)\n      and\n      0x60\n      dup3\n      add\n      mstore\n      0x04\n      dup3\n      add\n      dup1\n      sload\n      swap2\n      swap3\n        /* \"database/ListEmployee.sol\":1547:1558  list[index] */\n      swap2\n        /* \"database/ListEmployee.sol\":1540:1558  return list[index] */\n      0x80\n      dup5\n      add\n      swap2\n      swap1\n      tag_287\n      swap1\n      tag_140\n      jump\t// in\n    tag_287:\n      dup1\n      0x1f\n      add\n      0x20\n      dup1\n      swap2\n      div\n      mul\n      0x20\n      add\n      mload(0x40)\n      swap1\n      dup2\n      add\n      0x40\n      mstore\n      dup1\n      swap3\n      swap2\n      swap1\n      dup2\n      dup2\n      mstore\n      0x20\n      add\n      dup3\n      dup1\n      sload\n      tag_288\n      swap1\n      tag_140\n      jump\t// in\n    tag_288:\n      dup1\n      iszero\n      tag_289\n      jumpi\n      dup1\n      0x1f\n      lt\n      tag_290\n      jumpi\n      0x0100\n      dup1\n      dup4\n      sload\n      div\n      mul\n      dup4\n      mstore\n      swap2\n      0x20\n      add\n      swap2\n      jump(tag_289)\n    tag_290:\n      dup3\n      add\n      swap2\n      swap1\n      0x00\n      mstore\n      keccak256(0x00, 0x20)\n      swap1\n    tag_291:\n      dup2\n      sload\n      dup2\n      mstore\n      swap1\n      0x01\n      add\n      swap1\n      0x20\n      add\n      dup1\n      dup4\n      gt\n      tag_291\n      jumpi\n      dup3\n      swap1\n      sub\n      0x1f\n      and\n      dup3\n      add\n      swap2\n    tag_289:\n      pop\n      pop\n      pop\n      pop\n      pop\n      dup2\n      mstore\n      0x20\n      add\n      0x05\n      dup3\n      add\n      dup1\n      sload\n      tag_292\n      swap1\n      tag_140\n      jump\t// in\n    tag_292:\n      dup1\n      0x1f\n      add\n      0x20\n      dup1\n      swap2\n      div\n      mul\n      0x20\n      add\n      mload(0x40)\n      swap1\n      dup2\n      add\n      0x40\n      mstore\n      dup1\n      swap3\n      swap2\n      swap1\n      dup2\n      dup2\n      mstore\n      0x20\n      add\n      dup3\n      dup1\n      sload\n      tag_293\n      swap1\n      tag_140\n      jump\t// in\n    tag_293:\n      dup1\n      iszero\n      tag_294\n      jumpi\n      dup1\n      0x1f\n      lt\n      tag_295\n      jumpi\n      0x0100\n      dup1\n      dup4\n      sload\n      div\n      mul\n      dup4\n      mstore\n      swap2\n      0x20\n      add\n      swap2\n      jump(tag_294)\n    tag_295:\n      dup3\n      add\n      swap2\n      swap1\n      0x00\n      mstore\n      keccak256(0x00, 0x20)\n      swap1\n    tag_296:\n      dup2\n      sload\n      dup2\n      mstore\n      swap1\n      0x01\n      add\n      swap1\n      0x20\n      add\n      dup1\n      dup4\n      gt\n      tag_296\n      jumpi\n      dup3\n      swap1\n      sub\n      0x1f\n      and\n      dup3\n      add\n      swap2\n    tag_294:\n      pop\n      pop\n      pop\n      pop\n      pop\n      dup2\n      mstore\n      0x20\n      add\n      0x06\n      dup3\n      add\n      dup1\n      sload\n      tag_297\n      swap1\n      tag_140\n      jump\t// in\n    tag_297:\n      dup1\n      0x1f\n      add\n      0x20\n      dup1\n      swap2\n      div\n      mul\n      0x20\n      add\n      mload(0x40)\n      swap1\n      dup2\n      add\n      0x40\n      mstore\n      dup1\n      swap3\n      swap2\n      swap1\n      dup2\n      dup2\n      mstore\n      0x20\n      add\n      dup3\n      dup1\n      sload\n      tag_298\n      swap1\n      tag_140\n      jump\t// in\n    tag_298:\n      dup1\n      iszero\n      tag_299\n      jumpi\n      dup1\n      0x1f\n      lt\n      tag_300\n      jumpi\n      0x0100\n      dup1\n      dup4\n      sload\n      div\n      mul\n      dup4\n      mstore\n      swap2\n      0x20\n      add\n      swap2\n      jump(tag_299)\n    tag_300:\n      dup3\n      add\n      swap2\n      swap1\n      0x00\n      mstore\n      keccak256(0x00, 0x20)\n      swap1\n    tag_301:\n      dup2\n      sload\n      dup2\n      mstore\n      swap1\n      0x01\n      add\n      swap1\n      0x20\n      add\n      dup1\n      dup4\n      gt\n      tag_301\n      jumpi\n      dup3\n      swap1\n      sub\n      0x1f\n      and\n      dup3\n      add\n      swap2\n    tag_299:\n      pop\n      pop\n      pop\n      pop\n      pop\n      dup2\n      mstore\n      0x20\n      add\n      0x07\n      dup3\n      add\n      dup1\n      sload\n      tag_302\n      swap1\n      tag_140\n      jump\t// in\n    tag_302:\n      dup1\n      0x1f\n      add\n      0x20\n      dup1\n      swap2\n      div\n      mul\n      0x20\n      add\n      mload(0x40)\n      swap1\n      dup2\n      add\n      0x40\n      mstore\n      dup1\n      swap3\n      swap2\n      swap1\n      dup2\n      dup2\n      mstore\n      0x20\n      add\n      dup3\n      dup1\n      sload\n      tag_303\n      swap1\n      tag_140\n      jump\t// in\n    tag_303:\n      dup1\n      iszero\n      tag_304\n      jumpi\n      dup1\n      0x1f\n      lt\n      tag_305\n      jumpi\n      0x0100\n      dup1\n      dup4\n      sload\n      div\n      mul\n      dup4\n      mstore\n      swap2\n      0x20\n      add\n      swap2\n      jump(tag_304)\n    tag_305:\n      dup3\n      add\n      swap2\n      swap1\n      0x00\n      mstore\n      keccak256(0x00, 0x20)\n      swap1\n    tag_306:\n      dup2\n      sload\n      dup2\n      mstore\n      swap1\n      0x01\n      add\n      swap1\n      0x20\n      add\n      dup1\n      dup4\n      gt\n      tag_306\n      jumpi\n      dup3\n      swap1\n      sub\n      0x1f\n      and\n      dup3\n      add\n      swap2\n    tag_304:\n      pop\n      pop\n      pop\n      pop\n      pop\n      dup2\n      mstore\n      0x20\n      add\n      0x08\n      dup3\n      add\n      dup1\n      sload\n      tag_307\n      swap1\n      tag_140\n      jump\t// in\n    tag_307:\n      dup1\n      0x1f\n      add\n      0x20\n      dup1\n      swap2\n      div\n      mul\n      0x20\n      add\n      mload(0x40)\n      swap1\n      dup2\n      add\n      0x40\n      mstore\n      dup1\n      swap3\n      swap2\n      swap1\n      dup2\n      dup2\n      mstore\n      0x20\n      add\n      dup3\n      dup1\n      sload\n      tag_308\n      swap1\n      tag_140\n      jump\t// in\n    tag_308:\n      dup1\n      iszero\n      tag_309\n      jumpi\n      dup1\n      0x1f\n      lt\n      tag_310\n      jumpi\n      0x0100\n      dup1\n      dup4\n      sload\n      div\n      mul\n      dup4\n      mstore\n      swap2\n      0x20\n      add\n      swap2\n      jump(tag_309)\n    tag_310:\n      dup3\n      add\n      swap2\n      swap1\n      0x00\n      mstore\n      keccak256(0x00, 0x20)\n      swap1\n    tag_311:\n      dup2\n      sload\n      dup2\n      mstore\n      swap1\n      0x01\n      add\n      swap1\n      0x20\n      add\n      dup1\n      dup4\n      gt\n      tag_311\n      jumpi\n      dup3\n      swap1\n      sub\n      0x1f\n      and\n      dup3\n      add\n      swap2\n    tag_309:\n      pop\n      pop\n      pop\n      pop\n      pop\n      dup2\n      mstore\n      0x20\n      add\n      0x09\n      dup3\n      add\n      dup1\n      sload\n      tag_312\n      swap1\n      tag_140\n      jump\t// in\n    tag_312:\n      dup1\n      0x1f\n      add\n      0x20\n      dup1\n      swap2\n      div\n      mul\n      0x20\n      add\n      mload(0x40)\n      swap1\n      dup2\n      add\n      0x40\n      mstore\n      dup1\n      swap3\n      swap2\n      swap1\n      dup2\n      dup2\n      mstore\n      0x20\n      add\n      dup3\n      dup1\n      sload\n      tag_313\n      swap1\n      tag_140\n      jump\t// in\n    tag_313:\n      dup1\n      iszero\n      tag_314\n      jumpi\n      dup1\n      0x1f\n      lt\n      tag_315\n      jumpi\n      0x0100\n      dup1\n      dup4\n      sload\n      div\n      mul\n      dup4\n      mstore\n      swap2\n      0x20\n      add\n      swap2\n      jump(tag_314)\n    tag_315:\n      dup3\n      add\n      swap2\n      swap1\n      0x00\n      mstore\n      keccak256(0x00, 0x20)\n      swap1\n    tag_316:\n      dup2\n      sload\n      dup2\n      mstore\n      swap1\n      0x01\n      add\n      swap1\n      0x20\n      add\n      dup1\n      dup4\n      gt\n      tag_316\n      jumpi\n      dup3\n      swap1\n      sub\n      0x1f\n      and\n      dup3\n      add\n      swap2\n    tag_314:\n      pop\n      pop\n      pop\n      pop\n      pop\n      dup2\n      mstore\n      0x20\n      add\n      0x0a\n      dup3\n      add\n      dup1\n      sload\n      tag_317\n      swap1\n      tag_140\n      jump\t// in\n    tag_317:\n      dup1\n      0x1f\n      add\n      0x20\n      dup1\n      swap2\n      div\n      mul\n      0x20\n      add\n      mload(0x40)\n      swap1\n      dup2\n      add\n      0x40\n      mstore\n      dup1\n      swap3\n      swap2\n      swap1\n      dup2\n      dup2\n      mstore\n      0x20\n      add\n      dup3\n      dup1\n      sload\n      tag_318\n      swap1\n      tag_140\n      jump\t// in\n    tag_318:\n      dup1\n      iszero\n      tag_319\n      jumpi\n      dup1\n      0x1f\n      lt\n      tag_320\n      jumpi\n      0x0100\n      dup1\n      dup4\n      sload\n      div\n      mul\n      dup4\n      mstore\n      swap2\n      0x20\n      add\n      swap2\n      jump(tag_319)\n    tag_320:\n      dup3\n      add\n      swap2\n      swap1\n      0x00\n      mstore\n      keccak256(0x00, 0x20)\n      swap1\n    tag_321:\n      dup2\n      sload\n      dup2\n      mstore\n      swap1\n      0x01\n      add\n      swap1\n      0x20\n      add\n      dup1\n      dup4\n      gt\n      tag_321\n      jumpi\n      dup3\n      swap1\n      sub\n      0x1f\n      and\n      dup3\n      add\n      swap2\n    tag_319:\n      pop\n      pop\n      pop\n      pop\n      pop\n      dup2\n      mstore\n      0x20\n      add\n      0x0b\n      dup3\n      add\n      dup1\n      sload\n      tag_322\n      swap1\n      tag_140\n      jump\t// in\n    tag_322:\n      dup1\n      0x1f\n      add\n      0x20\n      dup1\n      swap2\n      div\n      mul\n      0x20\n      add\n      mload(0x40)\n      swap1\n      dup2\n      add\n      0x40\n      mstore\n      dup1\n      swap3\n      swap2\n      swap1\n      dup2\n      dup2\n      mstore\n      0x20\n      add\n      dup3\n      dup1\n      sload\n      tag_323\n      swap1\n      tag_140\n      jump\t// in\n    tag_323:\n      dup1\n      iszero\n      tag_324\n      jumpi\n      dup1\n      0x1f\n      lt\n      tag_325\n      jumpi\n      0x0100\n      dup1\n      dup4\n      sload\n      div\n      mul\n      dup4\n      mstore\n      swap2\n      0x20\n      add\n      swap2\n      jump(tag_324)\n    tag_325:\n      dup3\n      add\n      swap2\n      swap1\n      0x00\n      mstore\n      keccak256(0x00, 0x20)\n      swap1\n    tag_326:\n      dup2\n      sload\n      dup2\n      mstore\n      swap1\n      0x01\n      add\n      swap1\n      0x20\n      add\n      dup1\n      dup4\n      gt\n      tag_326\n      jumpi\n      dup3\n      swap1\n      sub\n      0x1f\n      and\n      dup3\n      add\n      swap2\n    tag_324:\n      pop\n      pop\n      pop\n      pop\n      pop\n      dup2\n      mstore\n      pop\n      pop\n      swap3\n      pop\n        /* \"database/ListEmployee.sol\":625:626  _ */\n      pop\n        /* \"database/ListEmployee.sol\":1283:1565  function at(uint256 index, bytes32 secret)... */\n      pop\n      swap3\n      swap2\n      pop\n      pop\n      jump\t// out\n        /* \"database/ListEmployee.sol\":4983:5213  function setGithub(... */\n    tag_92:\n        /* \"database/ListEmployee.sol\":5143:5147  bool */\n      0x00\n        /* \"database/ListEmployee.sol\":5108:5114  secret */\n      dup3\n      0x00\n      dup1\n      mload\n      0x20\n      data_98ee57057fe0a523e70b51608fd55a37ff53d47c3b8dac495a5f45d45157392f\n      dup4\n      codecopy\n      dup2\n      mload\n      swap2\n      mstore\n        /* \"database/ListEmployee.sol\":529:550  value == DATABASE_KEY */\n      dup2\n      eq\n        /* \"database/ListEmployee.sol\":508:615  require(... */\n      tag_328\n      jumpi\n      mload(0x40)\n      shl(0xe5, 0x461bcd)\n      dup2\n      mstore\n      0x04\n      add\n      tag_121\n      swap1\n      tag_122\n      jump\t// in\n    tag_328:\n        /* \"database/ListEmployee.sol\":5127:5132  index */\n      dup5\n        /* \"database/ListEmployee.sol\":711:716  index */\n      dup1\n        /* \"database/ListEmployee.sol\":706:707  1 */\n      0x01\n        /* \"database/ListEmployee.sol\":706:716  1 <= index */\n      gt\n      iszero\n        /* \"database/ListEmployee.sol\":705:745  (1 <= index) && (index <= autoIncrement) */\n      dup1\n      iszero\n      tag_331\n      jumpi\n      pop\n        /* \"database/ListEmployee.sol\":731:744  autoIncrement */\n      sload(0x02)\n        /* \"database/ListEmployee.sol\":722:727  index */\n      dup2\n        /* \"database/ListEmployee.sol\":722:744  index <= autoIncrement */\n      gt\n      iszero\n        /* \"database/ListEmployee.sol\":705:745  (1 <= index) && (index <= autoIncrement) */\n    tag_331:\n        /* \"database/ListEmployee.sol\":684:807  require(... */\n      tag_332\n      jumpi\n      mload(0x40)\n      shl(0xe5, 0x461bcd)\n      dup2\n      mstore\n      0x04\n      add\n      tag_121\n      swap1\n      tag_127\n      jump\t// in\n    tag_332:\n        /* \"database/ListEmployee.sol\":5159:5170  list[index] */\n      0x00\n      dup7\n      dup2\n      mstore\n        /* \"database/ListEmployee.sol\":5159:5163  list */\n      0x01\n        /* \"database/ListEmployee.sol\":5159:5170  list[index] */\n      0x20\n      mstore\n      0x40\n      swap1\n      keccak256\n        /* \"database/ListEmployee.sol\":5159:5177  list[index].github */\n      0x08\n      add\n        /* \"database/ListEmployee.sol\":5159:5185  list[index].github = value */\n      tag_198\n        /* \"database/ListEmployee.sol\":5180:5185  value */\n      dup6\n        /* \"database/ListEmployee.sol\":5159:5177  list[index].github */\n      dup3\n        /* \"database/ListEmployee.sol\":5159:5185  list[index].github = value */\n      tag_199\n      jump\t// in\n        /* \"database/ListEmployee.sol\":1571:1866  function findIdByAddress(address value, bytes32 secret)... */\n    tag_96:\n        /* \"database/ListEmployee.sol\":1705:1712  uint256 */\n      0x00\n        /* \"database/ListEmployee.sol\":1680:1686  secret */\n      dup2\n      0x00\n      dup1\n      mload\n      0x20\n      data_98ee57057fe0a523e70b51608fd55a37ff53d47c3b8dac495a5f45d45157392f\n      dup4\n      codecopy\n      dup2\n      mload\n      swap2\n      mstore\n        /* \"database/ListEmployee.sol\":529:550  value == DATABASE_KEY */\n      dup2\n      eq\n        /* \"database/ListEmployee.sol\":508:615  require(... */\n      tag_337\n      jumpi\n      mload(0x40)\n      shl(0xe5, 0x461bcd)\n      dup2\n      mstore\n      0x04\n      add\n      tag_121\n      swap1\n      tag_122\n      jump\t// in\n    tag_337:\n        /* \"database/ListEmployee.sol\":1745:1746  1 */\n      0x01\n        /* \"database/ListEmployee.sol\":1728:1842  for (uint256 i = 1; i <= autoIncrement; i++) {... */\n    tag_340:\n        /* \"database/ListEmployee.sol\":1753:1766  autoIncrement */\n      sload(0x02)\n        /* \"database/ListEmployee.sol\":1748:1749  i */\n      dup2\n        /* \"database/ListEmployee.sol\":1748:1766  i <= autoIncrement */\n      gt\n        /* \"database/ListEmployee.sol\":1728:1842  for (uint256 i = 1; i <= autoIncrement; i++) {... */\n      tag_341\n      jumpi\n        /* \"database/ListEmployee.sol\":1791:1798  list[i] */\n      0x00\n      dup2\n      dup2\n      mstore\n        /* \"database/ListEmployee.sol\":1791:1795  list */\n      0x01\n        /* \"database/ListEmployee.sol\":1791:1798  list[i] */\n      0x20\n      mstore\n      0x40\n      swap1\n      keccak256\n        /* \"database/ListEmployee.sol\":1791:1803  list[i].user */\n      0x03\n      add\n      sload\n      sub(shl(0xa0, 0x01), 0x01)\n        /* \"database/ListEmployee.sol\":1791:1812  list[i].user == value */\n      dup1\n      dup8\n      and\n        /* \"database/ListEmployee.sol\":1791:1803  list[i].user */\n      swap2\n      and\n        /* \"database/ListEmployee.sol\":1791:1812  list[i].user == value */\n      sub\n        /* \"database/ListEmployee.sol\":1787:1831  if (list[i].user == value) return list[i].id */\n      tag_343\n      jumpi\n        /* \"database/ListEmployee.sol\":1821:1828  list[i] */\n      0x00\n      swap1\n      dup2\n      mstore\n        /* \"database/ListEmployee.sol\":1821:1825  list */\n      0x01\n        /* \"database/ListEmployee.sol\":1821:1828  list[i] */\n      0x20\n      dup2\n      swap1\n      mstore\n      0x40\n      swap1\n      swap2\n      keccak256\n        /* \"database/ListEmployee.sol\":1821:1831  list[i].id */\n      add\n      sload\n      swap2\n      pop\n        /* \"database/ListEmployee.sol\":1814:1831  return list[i].id */\n      jump(tag_134)\n        /* \"database/ListEmployee.sol\":1787:1831  if (list[i].user == value) return list[i].id */\n    tag_343:\n        /* \"database/ListEmployee.sol\":1768:1771  i++ */\n      dup1\n      tag_344\n      dup2\n      tag_181\n      jump\t// in\n    tag_344:\n      swap2\n      pop\n      pop\n        /* \"database/ListEmployee.sol\":1728:1842  for (uint256 i = 1; i <= autoIncrement; i++) {... */\n      jump(tag_340)\n    tag_341:\n      pop\n        /* \"database/ListEmployee.sol\":1858:1859  0 */\n      0x00\n      swap5\n        /* \"database/ListEmployee.sol\":1571:1866  function findIdByAddress(address value, bytes32 secret)... */\n      swap4\n      pop\n      pop\n      pop\n      pop\n      jump\t// out\n        /* \"database/ListEmployee.sol\":5219:5453  function setLinkedin(... */\n    tag_100:\n        /* \"database/ListEmployee.sol\":5381:5385  bool */\n      0x00\n        /* \"database/ListEmployee.sol\":5346:5352  secret */\n      dup3\n      0x00\n      dup1\n      mload\n      0x20\n      data_98ee57057fe0a523e70b51608fd55a37ff53d47c3b8dac495a5f45d45157392f\n      dup4\n      codecopy\n      dup2\n      mload\n      swap2\n      mstore\n        /* \"database/ListEmployee.sol\":529:550  value == DATABASE_KEY */\n      dup2\n      eq\n        /* \"database/ListEmployee.sol\":508:615  require(... */\n      tag_346\n      jumpi\n      mload(0x40)\n      shl(0xe5, 0x461bcd)\n      dup2\n      mstore\n      0x04\n      add\n      tag_121\n      swap1\n      tag_122\n      jump\t// in\n    tag_346:\n        /* \"database/ListEmployee.sol\":5365:5370  index */\n      dup5\n        /* \"database/ListEmployee.sol\":711:716  index */\n      dup1\n        /* \"database/ListEmployee.sol\":706:707  1 */\n      0x01\n        /* \"database/ListEmployee.sol\":706:716  1 <= index */\n      gt\n      iszero\n        /* \"database/ListEmployee.sol\":705:745  (1 <= index) && (index <= autoIncrement) */\n      dup1\n      iszero\n      tag_349\n      jumpi\n      pop\n        /* \"database/ListEmployee.sol\":731:744  autoIncrement */\n      sload(0x02)\n        /* \"database/ListEmployee.sol\":722:727  index */\n      dup2\n        /* \"database/ListEmployee.sol\":722:744  index <= autoIncrement */\n      gt\n      iszero\n        /* \"database/ListEmployee.sol\":705:745  (1 <= index) && (index <= autoIncrement) */\n    tag_349:\n        /* \"database/ListEmployee.sol\":684:807  require(... */\n      tag_350\n      jumpi\n      mload(0x40)\n      shl(0xe5, 0x461bcd)\n      dup2\n      mstore\n      0x04\n      add\n      tag_121\n      swap1\n      tag_127\n      jump\t// in\n    tag_350:\n        /* \"database/ListEmployee.sol\":5397:5408  list[index] */\n      0x00\n      dup7\n      dup2\n      mstore\n        /* \"database/ListEmployee.sol\":5397:5401  list */\n      0x01\n        /* \"database/ListEmployee.sol\":5397:5408  list[index] */\n      0x20\n      mstore\n      0x40\n      swap1\n      keccak256\n        /* \"database/ListEmployee.sol\":5397:5417  list[index].linkedin */\n      0x09\n      add\n        /* \"database/ListEmployee.sol\":5397:5425  list[index].linkedin = value */\n      tag_198\n        /* \"database/ListEmployee.sol\":5420:5425  value */\n      dup6\n        /* \"database/ListEmployee.sol\":5397:5417  list[index].linkedin */\n      dup3\n        /* \"database/ListEmployee.sol\":5397:5425  list[index].linkedin = value */\n      tag_199\n      jump\t// in\n        /* \"database/ListEmployee.sol\":4267:4495  function setPhone(... */\n    tag_104:\n        /* \"database/ListEmployee.sol\":4426:4430  bool */\n      0x00\n        /* \"database/ListEmployee.sol\":4391:4397  secret */\n      dup3\n      0x00\n      dup1\n      mload\n      0x20\n      data_98ee57057fe0a523e70b51608fd55a37ff53d47c3b8dac495a5f45d45157392f\n      dup4\n      codecopy\n      dup2\n      mload\n      swap2\n      mstore\n        /* \"database/ListEmployee.sol\":529:550  value == DATABASE_KEY */\n      dup2\n      eq\n        /* \"database/ListEmployee.sol\":508:615  require(... */\n      tag_355\n      jumpi\n      mload(0x40)\n      shl(0xe5, 0x461bcd)\n      dup2\n      mstore\n      0x04\n      add\n      tag_121\n      swap1\n      tag_122\n      jump\t// in\n    tag_355:\n        /* \"database/ListEmployee.sol\":4410:4415  index */\n      dup5\n        /* \"database/ListEmployee.sol\":711:716  index */\n      dup1\n        /* \"database/ListEmployee.sol\":706:707  1 */\n      0x01\n        /* \"database/ListEmployee.sol\":706:716  1 <= index */\n      gt\n      iszero\n        /* \"database/ListEmployee.sol\":705:745  (1 <= index) && (index <= autoIncrement) */\n      dup1\n      iszero\n      tag_358\n      jumpi\n      pop\n        /* \"database/ListEmployee.sol\":731:744  autoIncrement */\n      sload(0x02)\n        /* \"database/ListEmployee.sol\":722:727  index */\n      dup2\n        /* \"database/ListEmployee.sol\":722:744  index <= autoIncrement */\n      gt\n      iszero\n        /* \"database/ListEmployee.sol\":705:745  (1 <= index) && (index <= autoIncrement) */\n    tag_358:\n        /* \"database/ListEmployee.sol\":684:807  require(... */\n      tag_359\n      jumpi\n      mload(0x40)\n      shl(0xe5, 0x461bcd)\n      dup2\n      mstore\n      0x04\n      add\n      tag_121\n      swap1\n      tag_127\n      jump\t// in\n    tag_359:\n        /* \"database/ListEmployee.sol\":4442:4453  list[index] */\n      0x00\n      dup7\n      dup2\n      mstore\n        /* \"database/ListEmployee.sol\":4442:4446  list */\n      0x01\n        /* \"database/ListEmployee.sol\":4442:4453  list[index] */\n      0x20\n      mstore\n      0x40\n      swap1\n      keccak256\n        /* \"database/ListEmployee.sol\":4442:4459  list[index].phone */\n      0x05\n      add\n        /* \"database/ListEmployee.sol\":4442:4467  list[index].phone = value */\n      tag_198\n        /* \"database/ListEmployee.sol\":4462:4467  value */\n      dup6\n        /* \"database/ListEmployee.sol\":4442:4459  list[index].phone */\n      dup3\n        /* \"database/ListEmployee.sol\":4442:4467  list[index].phone = value */\n      tag_199\n      jump\t// in\n        /* \"database/ListEmployee.sol\":4501:4743  function setProfessional(... */\n    tag_108:\n        /* \"database/ListEmployee.sol\":4667:4671  bool */\n      0x00\n        /* \"database/ListEmployee.sol\":4632:4638  secret */\n      dup3\n      0x00\n      dup1\n      mload\n      0x20\n      data_98ee57057fe0a523e70b51608fd55a37ff53d47c3b8dac495a5f45d45157392f\n      dup4\n      codecopy\n      dup2\n      mload\n      swap2\n      mstore\n        /* \"database/ListEmployee.sol\":529:550  value == DATABASE_KEY */\n      dup2\n      eq\n        /* \"database/ListEmployee.sol\":508:615  require(... */\n      tag_364\n      jumpi\n      mload(0x40)\n      shl(0xe5, 0x461bcd)\n      dup2\n      mstore\n      0x04\n      add\n      tag_121\n      swap1\n      tag_122\n      jump\t// in\n    tag_364:\n        /* \"database/ListEmployee.sol\":4651:4656  index */\n      dup5\n        /* \"database/ListEmployee.sol\":711:716  index */\n      dup1\n        /* \"database/ListEmployee.sol\":706:707  1 */\n      0x01\n        /* \"database/ListEmployee.sol\":706:716  1 <= index */\n      gt\n      iszero\n        /* \"database/ListEmployee.sol\":705:745  (1 <= index) && (index <= autoIncrement) */\n      dup1\n      iszero\n      tag_367\n      jumpi\n      pop\n        /* \"database/ListEmployee.sol\":731:744  autoIncrement */\n      sload(0x02)\n        /* \"database/ListEmployee.sol\":722:727  index */\n      dup2\n        /* \"database/ListEmployee.sol\":722:744  index <= autoIncrement */\n      gt\n      iszero\n        /* \"database/ListEmployee.sol\":705:745  (1 <= index) && (index <= autoIncrement) */\n    tag_367:\n        /* \"database/ListEmployee.sol\":684:807  require(... */\n      tag_368\n      jumpi\n      mload(0x40)\n      shl(0xe5, 0x461bcd)\n      dup2\n      mstore\n      0x04\n      add\n      tag_121\n      swap1\n      tag_127\n      jump\t// in\n    tag_368:\n        /* \"database/ListEmployee.sol\":4683:4694  list[index] */\n      0x00\n      dup7\n      dup2\n      mstore\n        /* \"database/ListEmployee.sol\":4683:4687  list */\n      0x01\n        /* \"database/ListEmployee.sol\":4683:4694  list[index] */\n      0x20\n      mstore\n      0x40\n      swap1\n      keccak256\n        /* \"database/ListEmployee.sol\":4683:4707  list[index].professional */\n      0x06\n      add\n        /* \"database/ListEmployee.sol\":4683:4715  list[index].professional = value */\n      tag_198\n        /* \"database/ListEmployee.sol\":4710:4715  value */\n      dup6\n        /* \"database/ListEmployee.sol\":4683:4707  list[index].professional */\n      dup3\n        /* \"database/ListEmployee.sol\":4683:4715  list[index].professional = value */\n      tag_199\n      jump\t// in\n        /* \"abstract/Ownable.sol\":2063:2295  function transferOwnership(address newOwner) public virtual onlyOwner {... */\n    tag_113:\n        /* \"abstract/Ownable.sol\":1068:1081  _checkOwner() */\n      tag_373\n        /* \"abstract/Ownable.sol\":1068:1079  _checkOwner */\n      tag_251\n        /* \"abstract/Ownable.sol\":1068:1081  _checkOwner() */\n      jump\t// in\n    tag_373:\n      sub(shl(0xa0, 0x01), 0x01)\n        /* \"abstract/Ownable.sol\":2164:2186  newOwner != address(0) */\n      dup2\n      and\n        /* \"abstract/Ownable.sol\":2143:2250  require(... */\n      tag_375\n      jumpi\n      mload(0x40)\n      shl(0xe5, 0x461bcd)\n      dup2\n      mstore\n        /* \"#utility.yul\":12561:12563   */\n      0x20\n        /* \"abstract/Ownable.sol\":2143:2250  require(... */\n      0x04\n      dup3\n      add\n        /* \"#utility.yul\":12543:12564   */\n      mstore\n        /* \"#utility.yul\":12600:12602   */\n      0x26\n        /* \"#utility.yul\":12580:12598   */\n      0x24\n      dup3\n      add\n        /* \"#utility.yul\":12573:12603   */\n      mstore\n        /* \"#utility.yul\":12639:12673   */\n      0x4f776e61626c653a206e6577206f776e657220697320746865207a65726f2061\n        /* \"#utility.yul\":12619:12637   */\n      0x44\n      dup3\n      add\n        /* \"#utility.yul\":12612:12674   */\n      mstore\n      shl(0xd0, 0x646472657373)\n        /* \"#utility.yul\":12690:12708   */\n      0x64\n      dup3\n      add\n        /* \"#utility.yul\":12683:12719   */\n      mstore\n        /* \"#utility.yul\":12736:12755   */\n      0x84\n      add\n        /* \"abstract/Ownable.sol\":2143:2250  require(... */\n      tag_121\n        /* \"#utility.yul\":12359:12761   */\n      jump\n        /* \"abstract/Ownable.sol\":2143:2250  require(... */\n    tag_375:\n        /* \"abstract/Ownable.sol\":2260:2288  _transferOwnership(newOwner) */\n      tag_378\n        /* \"abstract/Ownable.sol\":2279:2287  newOwner */\n      dup2\n        /* \"abstract/Ownable.sol\":2260:2278  _transferOwnership */\n      tag_379\n        /* \"abstract/Ownable.sol\":2260:2288  _transferOwnership(newOwner) */\n      jump\t// in\n    tag_378:\n        /* \"abstract/Ownable.sol\":2063:2295  function transferOwnership(address newOwner) public virtual onlyOwner {... */\n      pop\n      jump\t// out\n        /* \"database/ListEmployee.sol\":831:994  function getLength(bytes32 secret)... */\n    tag_117:\n        /* \"database/ListEmployee.sol\":944:951  uint256 */\n      0x00\n        /* \"database/ListEmployee.sol\":919:925  secret */\n      dup2\n      0x00\n      dup1\n      mload\n      0x20\n      data_98ee57057fe0a523e70b51608fd55a37ff53d47c3b8dac495a5f45d45157392f\n      dup4\n      codecopy\n      dup2\n      mload\n      swap2\n      mstore\n        /* \"database/ListEmployee.sol\":529:550  value == DATABASE_KEY */\n      dup2\n      eq\n        /* \"database/ListEmployee.sol\":508:615  require(... */\n      tag_381\n      jumpi\n      mload(0x40)\n      shl(0xe5, 0x461bcd)\n      dup2\n      mstore\n      0x04\n      add\n      tag_121\n      swap1\n      tag_122\n      jump\t// in\n    tag_381:\n        /* \"database/ListEmployee.sol\":974:987  autoIncrement */\n      sload(0x02)\n        /* \"database/ListEmployee.sol\":967:987  return autoIncrement */\n      swap2\n      pop\n        /* \"database/ListEmployee.sol\":625:626  _ */\n    tag_383:\n        /* \"database/ListEmployee.sol\":831:994  function getLength(bytes32 secret)... */\n      pop\n      swap2\n      swap1\n      pop\n      jump\t// out\n        /* \"abstract/Ownable.sol\":1333:1461  function _checkOwner() internal view virtual {... */\n    tag_251:\n        /* \"abstract/Ownable.sol\":1407:1417  msg.sender */\n      caller\n        /* \"abstract/Ownable.sol\":1396:1403  owner() */\n      tag_385\n        /* \"abstract/Ownable.sol\":1221:1228  address */\n      0x00\n        /* \"abstract/Ownable.sol\":1247:1253  _owner */\n      sload\n      sub(shl(0xa0, 0x01), 0x01)\n      and\n      swap1\n        /* \"abstract/Ownable.sol\":1175:1260  function owner() public view virtual returns (address) {... */\n      jump\n        /* \"abstract/Ownable.sol\":1396:1403  owner() */\n    tag_385:\n      sub(shl(0xa0, 0x01), 0x01)\n        /* \"abstract/Ownable.sol\":1396:1417  owner() == msg.sender */\n      and\n      eq\n        /* \"abstract/Ownable.sol\":1388:1454  require(owner() == msg.sender, \"Ownable: caller is not the owner\") */\n      tag_386\n      jumpi\n      mload(0x40)\n      shl(0xe5, 0x461bcd)\n      dup2\n      mstore\n        /* \"#utility.yul\":12968:12970   */\n      0x20\n        /* \"abstract/Ownable.sol\":1388:1454  require(owner() == msg.sender, \"Ownable: caller is not the owner\") */\n      0x04\n      dup3\n      add\n        /* \"#utility.yul\":12950:12971   */\n      dup2\n      swap1\n      mstore\n        /* \"#utility.yul\":12987:13005   */\n      0x24\n      dup3\n      add\n        /* \"#utility.yul\":12980:13010   */\n      mstore\n        /* \"#utility.yul\":13046:13080   */\n      0x4f776e61626c653a2063616c6c6572206973206e6f7420746865206f776e6572\n        /* \"#utility.yul\":13026:13044   */\n      0x44\n      dup3\n      add\n        /* \"#utility.yul\":13019:13081   */\n      mstore\n        /* \"#utility.yul\":13098:13116   */\n      0x64\n      add\n        /* \"abstract/Ownable.sol\":1388:1454  require(owner() == msg.sender, \"Ownable: caller is not the owner\") */\n      tag_121\n        /* \"#utility.yul\":12766:13122   */\n      jump\n        /* \"abstract/Ownable.sol\":1388:1454  require(owner() == msg.sender, \"Ownable: caller is not the owner\") */\n    tag_386:\n        /* \"abstract/Ownable.sol\":1333:1461  function _checkOwner() internal view virtual {... */\n      jump\t// out\n        /* \"abstract/Ownable.sol\":2449:2636  function _transferOwnership(address newOwner) internal virtual {... */\n    tag_379:\n        /* \"abstract/Ownable.sol\":2522:2538  address oldOwner */\n      0x00\n        /* \"abstract/Ownable.sol\":2541:2547  _owner */\n      dup1\n      sload\n      sub(shl(0xa0, 0x01), 0x01)\n        /* \"abstract/Ownable.sol\":2557:2574  _owner = newOwner */\n      dup4\n      dup2\n      and\n      not(sub(shl(0xa0, 0x01), 0x01))\n      dup4\n      and\n      dup2\n      or\n      dup5\n      sstore\n        /* \"abstract/Ownable.sol\":2589:2629  OwnershipTransferred(oldOwner, newOwner) */\n      mload(0x40)\n        /* \"abstract/Ownable.sol\":2541:2547  _owner */\n      swap2\n      swap1\n      swap3\n      and\n      swap3\n      dup4\n      swap2\n        /* \"abstract/Ownable.sol\":2589:2629  OwnershipTransferred(oldOwner, newOwner) */\n      0x8be0079c531659141344cd1fd0a4f28419497f9722a3daafe3b4186f6b6457e0\n      swap2\n        /* \"abstract/Ownable.sol\":2522:2538  address oldOwner */\n      swap1\n        /* \"abstract/Ownable.sol\":2589:2629  OwnershipTransferred(oldOwner, newOwner) */\n      log3\n        /* \"abstract/Ownable.sol\":2512:2636  {... */\n      pop\n        /* \"abstract/Ownable.sol\":2449:2636  function _transferOwnership(address newOwner) internal virtual {... */\n      pop\n      jump\t// out\n    tag_130:\n      mload(0x40)\n      dup1\n      0x0180\n      add\n      0x40\n      mstore\n      dup1\n      0x00\n      dup2\n      mstore\n      0x20\n      add\n      0x00\n      dup2\n      mstore\n      0x20\n      add\n      0x00\n      dup2\n      mstore\n      0x20\n      add\n      and(sub(shl(0xa0, 0x01), 0x01), 0x00)\n      dup2\n      mstore\n      0x20\n      add\n      0x60\n      dup2\n      mstore\n      0x20\n      add\n      0x60\n      dup2\n      mstore\n      0x20\n      add\n      0x60\n      dup2\n      mstore\n      0x20\n      add\n      0x60\n      dup2\n      mstore\n      0x20\n      add\n      0x60\n      dup2\n      mstore\n      0x20\n      add\n      0x60\n      dup2\n      mstore\n      0x20\n      add\n      0x60\n      dup2\n      mstore\n      0x20\n      add\n      0x60\n      dup2\n      mstore\n      pop\n      swap1\n      jump\t// out\n        /* \"#utility.yul\":14:330   */\n    tag_29:\n        /* \"#utility.yul\":91:97   */\n      0x00\n        /* \"#utility.yul\":99:105   */\n      dup1\n        /* \"#utility.yul\":107:113   */\n      0x00\n        /* \"#utility.yul\":160:162   */\n      0x60\n        /* \"#utility.yul\":148:157   */\n      dup5\n        /* \"#utility.yul\":139:146   */\n      dup7\n        /* \"#utility.yul\":135:158   */\n      sub\n        /* \"#utility.yul\":131:163   */\n      slt\n        /* \"#utility.yul\":128:180   */\n      iszero\n      tag_401\n      jumpi\n        /* \"#utility.yul\":176:177   */\n      0x00\n        /* \"#utility.yul\":173:174   */\n      dup1\n        /* \"#utility.yul\":166:178   */\n      revert\n        /* \"#utility.yul\":128:180   */\n    tag_401:\n      pop\n      pop\n        /* \"#utility.yul\":199:222   */\n      dup2\n      calldataload\n      swap4\n        /* \"#utility.yul\":269:271   */\n      0x20\n        /* \"#utility.yul\":254:272   */\n      dup4\n      add\n        /* \"#utility.yul\":241:273   */\n      calldataload\n      swap4\n      pop\n        /* \"#utility.yul\":320:322   */\n      0x40\n        /* \"#utility.yul\":305:323   */\n      swap1\n      swap3\n      add\n        /* \"#utility.yul\":292:324   */\n      calldataload\n      swap2\n        /* \"#utility.yul\":14:330   */\n      swap1\n      pop\n      jump\t// out\n        /* \"#utility.yul\":527:700   */\n    tag_390:\n        /* \"#utility.yul\":595:615   */\n      dup1\n      calldataload\n      sub(shl(0xa0, 0x01), 0x01)\n        /* \"#utility.yul\":644:675   */\n      dup2\n      and\n        /* \"#utility.yul\":634:676   */\n      dup2\n      eq\n        /* \"#utility.yul\":624:694   */\n      tag_404\n      jumpi\n        /* \"#utility.yul\":690:691   */\n      0x00\n        /* \"#utility.yul\":687:688   */\n      dup1\n        /* \"#utility.yul\":680:692   */\n      revert\n        /* \"#utility.yul\":624:694   */\n    tag_404:\n        /* \"#utility.yul\":527:700   */\n      swap2\n      swap1\n      pop\n      jump\t// out\n        /* \"#utility.yul\":705:959   */\n    tag_35:\n        /* \"#utility.yul\":773:779   */\n      0x00\n        /* \"#utility.yul\":781:787   */\n      dup1\n        /* \"#utility.yul\":834:836   */\n      0x40\n        /* \"#utility.yul\":822:831   */\n      dup4\n        /* \"#utility.yul\":813:820   */\n      dup6\n        /* \"#utility.yul\":809:832   */\n      sub\n        /* \"#utility.yul\":805:837   */\n      slt\n        /* \"#utility.yul\":802:854   */\n      iszero\n      tag_406\n      jumpi\n        /* \"#utility.yul\":850:851   */\n      0x00\n        /* \"#utility.yul\":847:848   */\n      dup1\n        /* \"#utility.yul\":840:852   */\n      revert\n        /* \"#utility.yul\":802:854   */\n    tag_406:\n        /* \"#utility.yul\":873:902   */\n      tag_407\n        /* \"#utility.yul\":892:901   */\n      dup4\n        /* \"#utility.yul\":873:902   */\n      tag_390\n      jump\t// in\n    tag_407:\n        /* \"#utility.yul\":863:902   */\n      swap5\n        /* \"#utility.yul\":949:951   */\n      0x20\n        /* \"#utility.yul\":934:952   */\n      swap4\n      swap1\n      swap4\n      add\n        /* \"#utility.yul\":921:953   */\n      calldataload\n      swap4\n      pop\n      pop\n      pop\n        /* \"#utility.yul\":705:959   */\n      jump\t// out\n        /* \"#utility.yul\":1073:1496   */\n    tag_392:\n        /* \"#utility.yul\":1115:1118   */\n      0x00\n        /* \"#utility.yul\":1153:1158   */\n      dup2\n        /* \"#utility.yul\":1147:1159   */\n      mload\n        /* \"#utility.yul\":1180:1186   */\n      dup1\n        /* \"#utility.yul\":1175:1178   */\n      dup5\n        /* \"#utility.yul\":1168:1187   */\n      mstore\n        /* \"#utility.yul\":1205:1206   */\n      0x00\n        /* \"#utility.yul\":1215:1377   */\n    tag_410:\n        /* \"#utility.yul\":1229:1235   */\n      dup2\n        /* \"#utility.yul\":1226:1227   */\n      dup2\n        /* \"#utility.yul\":1223:1236   */\n      lt\n        /* \"#utility.yul\":1215:1377   */\n      iszero\n      tag_412\n      jumpi\n        /* \"#utility.yul\":1291:1295   */\n      0x20\n        /* \"#utility.yul\":1347:1360   */\n      dup2\n      dup6\n      add\n        /* \"#utility.yul\":1343:1365   */\n      dup2\n      add\n        /* \"#utility.yul\":1337:1366   */\n      mload\n        /* \"#utility.yul\":1319:1330   */\n      dup7\n      dup4\n      add\n        /* \"#utility.yul\":1315:1335   */\n      dup3\n      add\n        /* \"#utility.yul\":1308:1367   */\n      mstore\n        /* \"#utility.yul\":1244:1256   */\n      add\n        /* \"#utility.yul\":1215:1377   */\n      jump(tag_410)\n    tag_412:\n        /* \"#utility.yul\":1219:1222   */\n      pop\n        /* \"#utility.yul\":1422:1423   */\n      0x00\n        /* \"#utility.yul\":1415:1419   */\n      0x20\n        /* \"#utility.yul\":1406:1412   */\n      dup3\n        /* \"#utility.yul\":1401:1404   */\n      dup7\n        /* \"#utility.yul\":1397:1413   */\n      add\n        /* \"#utility.yul\":1393:1420   */\n      add\n        /* \"#utility.yul\":1386:1424   */\n      mstore\n        /* \"#utility.yul\":1485:1489   */\n      0x20\n        /* \"#utility.yul\":1478:1480   */\n      0x1f\n        /* \"#utility.yul\":1474:1481   */\n      not\n        /* \"#utility.yul\":1469:1471   */\n      0x1f\n        /* \"#utility.yul\":1461:1467   */\n      dup4\n        /* \"#utility.yul\":1457:1472   */\n      add\n        /* \"#utility.yul\":1453:1482   */\n      and\n        /* \"#utility.yul\":1448:1451   */\n      dup6\n        /* \"#utility.yul\":1444:1483   */\n      add\n        /* \"#utility.yul\":1440:1490   */\n      add\n        /* \"#utility.yul\":1433:1490   */\n      swap2\n      pop\n      pop\n        /* \"#utility.yul\":1073:1496   */\n      swap3\n      swap2\n      pop\n      pop\n      jump\t// out\n        /* \"#utility.yul\":1501:3572   */\n    tag_38:\n        /* \"#utility.yul\":1678:1680   */\n      0x20\n        /* \"#utility.yul\":1667:1676   */\n      dup2\n        /* \"#utility.yul\":1660:1681   */\n      mstore\n        /* \"#utility.yul\":1723:1729   */\n      dup2\n        /* \"#utility.yul\":1717:1730   */\n      mload\n        /* \"#utility.yul\":1712:1714   */\n      0x20\n        /* \"#utility.yul\":1701:1710   */\n      dup3\n        /* \"#utility.yul\":1697:1715   */\n      add\n        /* \"#utility.yul\":1690:1731   */\n      mstore\n        /* \"#utility.yul\":1785:1787   */\n      0x20\n        /* \"#utility.yul\":1777:1783   */\n      dup3\n        /* \"#utility.yul\":1773:1788   */\n      add\n        /* \"#utility.yul\":1767:1789   */\n      mload\n        /* \"#utility.yul\":1762:1764   */\n      0x40\n        /* \"#utility.yul\":1751:1760   */\n      dup3\n        /* \"#utility.yul\":1747:1765   */\n      add\n        /* \"#utility.yul\":1740:1790   */\n      mstore\n        /* \"#utility.yul\":1844:1846   */\n      0x40\n        /* \"#utility.yul\":1836:1842   */\n      dup3\n        /* \"#utility.yul\":1832:1847   */\n      add\n        /* \"#utility.yul\":1826:1848   */\n      mload\n        /* \"#utility.yul\":1821:1823   */\n      0x60\n        /* \"#utility.yul\":1810:1819   */\n      dup3\n        /* \"#utility.yul\":1806:1824   */\n      add\n        /* \"#utility.yul\":1799:1849   */\n      mstore\n        /* \"#utility.yul\":1641:1645   */\n      0x00\n        /* \"#utility.yul\":1896:1898   */\n      0x60\n        /* \"#utility.yul\":1888:1894   */\n      dup4\n        /* \"#utility.yul\":1884:1899   */\n      add\n        /* \"#utility.yul\":1878:1900   */\n      mload\n        /* \"#utility.yul\":1909:1962   */\n      tag_414\n        /* \"#utility.yul\":1957:1960   */\n      0x80\n        /* \"#utility.yul\":1946:1955   */\n      dup5\n        /* \"#utility.yul\":1942:1961   */\n      add\n        /* \"#utility.yul\":1928:1940   */\n      dup3\n      sub(shl(0xa0, 0x01), 0x01)\n        /* \"#utility.yul\":1030:1061   */\n      and\n        /* \"#utility.yul\":1018:1062   */\n      swap1\n      mstore\n        /* \"#utility.yul\":964:1068   */\n      jump\n        /* \"#utility.yul\":1909:1962   */\n    tag_414:\n      pop\n        /* \"#utility.yul\":2011:2014   */\n      0x80\n        /* \"#utility.yul\":2003:2009   */\n      dup4\n        /* \"#utility.yul\":1999:2015   */\n      add\n        /* \"#utility.yul\":1993:2016   */\n      mload\n        /* \"#utility.yul\":2035:2041   */\n      0x0180\n        /* \"#utility.yul\":2078:2080   */\n      dup1\n        /* \"#utility.yul\":2072:2075   */\n      0xa0\n        /* \"#utility.yul\":2061:2070   */\n      dup6\n        /* \"#utility.yul\":2057:2076   */\n      add\n        /* \"#utility.yul\":2050:2081   */\n      mstore\n        /* \"#utility.yul\":2104:2158   */\n      tag_415\n        /* \"#utility.yul\":2153:2156   */\n      0x01a0\n        /* \"#utility.yul\":2142:2151   */\n      dup6\n        /* \"#utility.yul\":2138:2157   */\n      add\n        /* \"#utility.yul\":2122:2136   */\n      dup4\n        /* \"#utility.yul\":2104:2158   */\n      tag_392\n      jump\t// in\n    tag_415:\n        /* \"#utility.yul\":2090:2158   */\n      swap2\n      pop\n        /* \"#utility.yul\":2207:2210   */\n      0xa0\n        /* \"#utility.yul\":2199:2205   */\n      dup6\n        /* \"#utility.yul\":2195:2211   */\n      add\n        /* \"#utility.yul\":2189:2212   */\n      mload\n        /* \"#utility.yul\":2235:2237   */\n      0x1f\n        /* \"#utility.yul\":2231:2238   */\n      not\n        /* \"#utility.yul\":2303:2305   */\n      dup1\n        /* \"#utility.yul\":2291:2300   */\n      dup7\n        /* \"#utility.yul\":2283:2289   */\n      dup6\n        /* \"#utility.yul\":2279:2301   */\n      sub\n        /* \"#utility.yul\":2275:2306   */\n      add\n        /* \"#utility.yul\":2269:2272   */\n      0xc0\n        /* \"#utility.yul\":2258:2267   */\n      dup8\n        /* \"#utility.yul\":2254:2273   */\n      add\n        /* \"#utility.yul\":2247:2307   */\n      mstore\n        /* \"#utility.yul\":2330:2371   */\n      tag_416\n        /* \"#utility.yul\":2364:2370   */\n      dup5\n        /* \"#utility.yul\":2348:2362   */\n      dup4\n        /* \"#utility.yul\":2330:2371   */\n      tag_392\n      jump\t// in\n    tag_416:\n        /* \"#utility.yul\":2316:2371   */\n      swap4\n      pop\n        /* \"#utility.yul\":2420:2423   */\n      0xc0\n        /* \"#utility.yul\":2412:2418   */\n      dup8\n        /* \"#utility.yul\":2408:2424   */\n      add\n        /* \"#utility.yul\":2402:2425   */\n      mload\n        /* \"#utility.yul\":2380:2425   */\n      swap2\n      pop\n        /* \"#utility.yul\":2490:2492   */\n      dup1\n        /* \"#utility.yul\":2478:2487   */\n      dup7\n        /* \"#utility.yul\":2470:2476   */\n      dup6\n        /* \"#utility.yul\":2466:2488   */\n      sub\n        /* \"#utility.yul\":2462:2493   */\n      add\n        /* \"#utility.yul\":2456:2459   */\n      0xe0\n        /* \"#utility.yul\":2445:2454   */\n      dup8\n        /* \"#utility.yul\":2441:2460   */\n      add\n        /* \"#utility.yul\":2434:2494   */\n      mstore\n        /* \"#utility.yul\":2517:2558   */\n      tag_417\n        /* \"#utility.yul\":2551:2557   */\n      dup5\n        /* \"#utility.yul\":2535:2549   */\n      dup4\n        /* \"#utility.yul\":2517:2558   */\n      tag_392\n      jump\t// in\n    tag_417:\n        /* \"#utility.yul\":2503:2558   */\n      swap4\n      pop\n        /* \"#utility.yul\":2607:2610   */\n      0xe0\n        /* \"#utility.yul\":2599:2605   */\n      dup8\n        /* \"#utility.yul\":2595:2611   */\n      add\n        /* \"#utility.yul\":2589:2612   */\n      mload\n        /* \"#utility.yul\":2567:2612   */\n      swap2\n      pop\n        /* \"#utility.yul\":2631:2634   */\n      0x0100\n        /* \"#utility.yul\":2698:2700   */\n      dup2\n        /* \"#utility.yul\":2686:2695   */\n      dup8\n        /* \"#utility.yul\":2678:2684   */\n      dup7\n        /* \"#utility.yul\":2674:2696   */\n      sub\n        /* \"#utility.yul\":2670:2701   */\n      add\n        /* \"#utility.yul\":2665:2667   */\n      dup2\n        /* \"#utility.yul\":2654:2663   */\n      dup9\n        /* \"#utility.yul\":2650:2668   */\n      add\n        /* \"#utility.yul\":2643:2702   */\n      mstore\n        /* \"#utility.yul\":2725:2766   */\n      tag_418\n        /* \"#utility.yul\":2759:2765   */\n      dup6\n        /* \"#utility.yul\":2743:2757   */\n      dup5\n        /* \"#utility.yul\":2725:2766   */\n      tag_392\n      jump\t// in\n    tag_418:\n        /* \"#utility.yul\":2711:2766   */\n      swap5\n      pop\n        /* \"#utility.yul\":2815:2817   */\n      dup1\n        /* \"#utility.yul\":2807:2813   */\n      dup9\n        /* \"#utility.yul\":2803:2818   */\n      add\n        /* \"#utility.yul\":2797:2819   */\n      mload\n        /* \"#utility.yul\":2775:2819   */\n      swap3\n      pop\n      pop\n        /* \"#utility.yul\":2838:2841   */\n      0x0120\n        /* \"#utility.yul\":2905:2907   */\n      dup2\n        /* \"#utility.yul\":2893:2902   */\n      dup8\n        /* \"#utility.yul\":2885:2891   */\n      dup7\n        /* \"#utility.yul\":2881:2903   */\n      sub\n        /* \"#utility.yul\":2877:2908   */\n      add\n        /* \"#utility.yul\":2872:2874   */\n      dup2\n        /* \"#utility.yul\":2861:2870   */\n      dup9\n        /* \"#utility.yul\":2857:2875   */\n      add\n        /* \"#utility.yul\":2850:2909   */\n      mstore\n        /* \"#utility.yul\":2932:2973   */\n      tag_419\n        /* \"#utility.yul\":2966:2972   */\n      dup6\n        /* \"#utility.yul\":2950:2964   */\n      dup5\n        /* \"#utility.yul\":2932:2973   */\n      tag_392\n      jump\t// in\n    tag_419:\n        /* \"#utility.yul\":2918:2973   */\n      swap5\n      pop\n        /* \"#utility.yul\":3022:3024   */\n      dup1\n        /* \"#utility.yul\":3014:3020   */\n      dup9\n        /* \"#utility.yul\":3010:3025   */\n      add\n        /* \"#utility.yul\":3004:3026   */\n      mload\n        /* \"#utility.yul\":2982:3026   */\n      swap3\n      pop\n      pop\n        /* \"#utility.yul\":3045:3048   */\n      0x0140\n        /* \"#utility.yul\":3112:3114   */\n      dup2\n        /* \"#utility.yul\":3100:3109   */\n      dup8\n        /* \"#utility.yul\":3092:3098   */\n      dup7\n        /* \"#utility.yul\":3088:3110   */\n      sub\n        /* \"#utility.yul\":3084:3115   */\n      add\n        /* \"#utility.yul\":3079:3081   */\n      dup2\n        /* \"#utility.yul\":3068:3077   */\n      dup9\n        /* \"#utility.yul\":3064:3082   */\n      add\n        /* \"#utility.yul\":3057:3116   */\n      mstore\n        /* \"#utility.yul\":3139:3180   */\n      tag_420\n        /* \"#utility.yul\":3173:3179   */\n      dup6\n        /* \"#utility.yul\":3157:3171   */\n      dup5\n        /* \"#utility.yul\":3139:3180   */\n      tag_392\n      jump\t// in\n    tag_420:\n        /* \"#utility.yul\":3125:3180   */\n      swap5\n      pop\n        /* \"#utility.yul\":3229:3231   */\n      dup1\n        /* \"#utility.yul\":3221:3227   */\n      dup9\n        /* \"#utility.yul\":3217:3232   */\n      add\n        /* \"#utility.yul\":3211:3233   */\n      mload\n        /* \"#utility.yul\":3189:3233   */\n      swap3\n      pop\n      pop\n        /* \"#utility.yul\":3252:3255   */\n      0x0160\n        /* \"#utility.yul\":3319:3321   */\n      dup2\n        /* \"#utility.yul\":3307:3316   */\n      dup8\n        /* \"#utility.yul\":3299:3305   */\n      dup7\n        /* \"#utility.yul\":3295:3317   */\n      sub\n        /* \"#utility.yul\":3291:3322   */\n      add\n        /* \"#utility.yul\":3286:3288   */\n      dup2\n        /* \"#utility.yul\":3275:3284   */\n      dup9\n        /* \"#utility.yul\":3271:3289   */\n      add\n        /* \"#utility.yul\":3264:3323   */\n      mstore\n        /* \"#utility.yul\":3346:3387   */\n      tag_421\n        /* \"#utility.yul\":3380:3386   */\n      dup6\n        /* \"#utility.yul\":3364:3378   */\n      dup5\n        /* \"#utility.yul\":3346:3387   */\n      tag_392\n      jump\t// in\n    tag_421:\n        /* \"#utility.yul\":3424:3439   */\n      swap1\n      dup9\n      add\n        /* \"#utility.yul\":3418:3440   */\n      mload\n        /* \"#utility.yul\":3480:3502   */\n      dup8\n      dup3\n      sub\n        /* \"#utility.yul\":3476:3507   */\n      swap1\n      swap3\n      add\n        /* \"#utility.yul\":3456:3474   */\n      dup5\n      dup9\n      add\n        /* \"#utility.yul\":3449:3508   */\n      mstore\n        /* \"#utility.yul\":3332:3387   */\n      swap4\n      pop\n        /* \"#utility.yul\":3418:3440   */\n      swap1\n      pop\n        /* \"#utility.yul\":3525:3566   */\n      tag_422\n        /* \"#utility.yul\":3332:3387   */\n      dup4\n        /* \"#utility.yul\":3418:3440   */\n      dup3\n        /* \"#utility.yul\":3525:3566   */\n      tag_392\n      jump\t// in\n    tag_422:\n        /* \"#utility.yul\":3517:3566   */\n      swap7\n        /* \"#utility.yul\":1501:3572   */\n      swap6\n      pop\n      pop\n      pop\n      pop\n      pop\n      pop\n      jump\t// out\n        /* \"#utility.yul\":3577:3704   */\n    tag_393:\n        /* \"#utility.yul\":3638:3648   */\n      0x4e487b71\n        /* \"#utility.yul\":3633:3636   */\n      0xe0\n        /* \"#utility.yul\":3629:3649   */\n      shl\n        /* \"#utility.yul\":3626:3627   */\n      0x00\n        /* \"#utility.yul\":3619:3650   */\n      mstore\n        /* \"#utility.yul\":3669:3673   */\n      0x41\n        /* \"#utility.yul\":3666:3667   */\n      0x04\n        /* \"#utility.yul\":3659:3674   */\n      mstore\n        /* \"#utility.yul\":3693:3697   */\n      0x24\n        /* \"#utility.yul\":3690:3691   */\n      0x00\n        /* \"#utility.yul\":3683:3698   */\n      revert\n        /* \"#utility.yul\":3709:3959   */\n    tag_394:\n        /* \"#utility.yul\":3776:3778   */\n      0x40\n        /* \"#utility.yul\":3770:3779   */\n      mload\n        /* \"#utility.yul\":3818:3824   */\n      0x0180\n        /* \"#utility.yul\":3806:3825   */\n      dup2\n      add\n        /* \"#utility.yul\":3855:3873   */\n      0xffffffffffffffff\n        /* \"#utility.yul\":3840:3874   */\n      dup2\n      gt\n        /* \"#utility.yul\":3876:3898   */\n      dup3\n      dup3\n      lt\n        /* \"#utility.yul\":3837:3899   */\n      or\n        /* \"#utility.yul\":3834:3922   */\n      iszero\n      tag_426\n      jumpi\n        /* \"#utility.yul\":3902:3920   */\n      tag_426\n      tag_393\n      jump\t// in\n    tag_426:\n        /* \"#utility.yul\":3938:3940   */\n      0x40\n        /* \"#utility.yul\":3931:3953   */\n      mstore\n        /* \"#utility.yul\":3709:3959   */\n      swap1\n      jump\t// out\n        /* \"#utility.yul\":3964:4683   */\n    tag_395:\n        /* \"#utility.yul\":4007:4012   */\n      0x00\n        /* \"#utility.yul\":4060:4063   */\n      dup3\n        /* \"#utility.yul\":4053:4057   */\n      0x1f\n        /* \"#utility.yul\":4045:4051   */\n      dup4\n        /* \"#utility.yul\":4041:4058   */\n      add\n        /* \"#utility.yul\":4037:4064   */\n      slt\n        /* \"#utility.yul\":4027:4082   */\n      tag_428\n      jumpi\n        /* \"#utility.yul\":4078:4079   */\n      0x00\n        /* \"#utility.yul\":4075:4076   */\n      dup1\n        /* \"#utility.yul\":4068:4080   */\n      revert\n        /* \"#utility.yul\":4027:4082   */\n    tag_428:\n        /* \"#utility.yul\":4114:4120   */\n      dup2\n        /* \"#utility.yul\":4101:4121   */\n      calldataload\n        /* \"#utility.yul\":4140:4158   */\n      0xffffffffffffffff\n        /* \"#utility.yul\":4177:4179   */\n      dup1\n        /* \"#utility.yul\":4173:4175   */\n      dup3\n        /* \"#utility.yul\":4170:4180   */\n      gt\n        /* \"#utility.yul\":4167:4203   */\n      iszero\n      tag_430\n      jumpi\n        /* \"#utility.yul\":4183:4201   */\n      tag_430\n      tag_393\n      jump\t// in\n    tag_430:\n        /* \"#utility.yul\":4258:4260   */\n      0x40\n        /* \"#utility.yul\":4252:4261   */\n      mload\n        /* \"#utility.yul\":4226:4228   */\n      0x1f\n        /* \"#utility.yul\":4312:4325   */\n      dup4\n      add\n      not(0x1f)\n        /* \"#utility.yul\":4308:4330   */\n      swap1\n      dup2\n      and\n        /* \"#utility.yul\":4332:4334   */\n      0x3f\n        /* \"#utility.yul\":4304:4335   */\n      add\n        /* \"#utility.yul\":4300:4340   */\n      and\n        /* \"#utility.yul\":4288:4341   */\n      dup2\n      add\n      swap1\n        /* \"#utility.yul\":4356:4374   */\n      dup3\n      dup3\n      gt\n        /* \"#utility.yul\":4376:4398   */\n      dup2\n      dup4\n      lt\n        /* \"#utility.yul\":4353:4399   */\n      or\n        /* \"#utility.yul\":4350:4422   */\n      iszero\n      tag_432\n      jumpi\n        /* \"#utility.yul\":4402:4420   */\n      tag_432\n      tag_393\n      jump\t// in\n    tag_432:\n        /* \"#utility.yul\":4442:4452   */\n      dup2\n        /* \"#utility.yul\":4438:4440   */\n      0x40\n        /* \"#utility.yul\":4431:4453   */\n      mstore\n        /* \"#utility.yul\":4477:4479   */\n      dup4\n        /* \"#utility.yul\":4469:4475   */\n      dup2\n        /* \"#utility.yul\":4462:4480   */\n      mstore\n        /* \"#utility.yul\":4523:4526   */\n      dup7\n        /* \"#utility.yul\":4516:4520   */\n      0x20\n        /* \"#utility.yul\":4511:4513   */\n      dup6\n        /* \"#utility.yul\":4503:4509   */\n      dup9\n        /* \"#utility.yul\":4499:4514   */\n      add\n        /* \"#utility.yul\":4495:4521   */\n      add\n        /* \"#utility.yul\":4492:4527   */\n      gt\n        /* \"#utility.yul\":4489:4544   */\n      iszero\n      tag_433\n      jumpi\n        /* \"#utility.yul\":4540:4541   */\n      0x00\n        /* \"#utility.yul\":4537:4538   */\n      dup1\n        /* \"#utility.yul\":4530:4542   */\n      revert\n        /* \"#utility.yul\":4489:4544   */\n    tag_433:\n        /* \"#utility.yul\":4604:4606   */\n      dup4\n        /* \"#utility.yul\":4597:4601   */\n      0x20\n        /* \"#utility.yul\":4589:4595   */\n      dup8\n        /* \"#utility.yul\":4585:4602   */\n      add\n        /* \"#utility.yul\":4578:4582   */\n      0x20\n        /* \"#utility.yul\":4570:4576   */\n      dup4\n        /* \"#utility.yul\":4566:4583   */\n      add\n        /* \"#utility.yul\":4553:4607   */\n      calldatacopy\n        /* \"#utility.yul\":4651:4652   */\n      0x00\n        /* \"#utility.yul\":4644:4648   */\n      0x20\n        /* \"#utility.yul\":4639:4641   */\n      dup6\n        /* \"#utility.yul\":4631:4637   */\n      dup4\n        /* \"#utility.yul\":4627:4642   */\n      add\n        /* \"#utility.yul\":4623:4649   */\n      add\n        /* \"#utility.yul\":4616:4653   */\n      mstore\n        /* \"#utility.yul\":4671:4677   */\n      dup1\n        /* \"#utility.yul\":4662:4677   */\n      swap5\n      pop\n      pop\n      pop\n      pop\n      pop\n        /* \"#utility.yul\":3964:4683   */\n      swap3\n      swap2\n      pop\n      pop\n      jump\t// out\n        /* \"#utility.yul\":4688:5146   */\n    tag_45:\n        /* \"#utility.yul\":4775:4781   */\n      0x00\n        /* \"#utility.yul\":4783:4789   */\n      dup1\n        /* \"#utility.yul\":4791:4797   */\n      0x00\n        /* \"#utility.yul\":4844:4846   */\n      0x60\n        /* \"#utility.yul\":4832:4841   */\n      dup5\n        /* \"#utility.yul\":4823:4830   */\n      dup7\n        /* \"#utility.yul\":4819:4842   */\n      sub\n        /* \"#utility.yul\":4815:4847   */\n      slt\n        /* \"#utility.yul\":4812:4864   */\n      iszero\n      tag_435\n      jumpi\n        /* \"#utility.yul\":4860:4861   */\n      0x00\n        /* \"#utility.yul\":4857:4858   */\n      dup1\n        /* \"#utility.yul\":4850:4862   */\n      revert\n        /* \"#utility.yul\":4812:4864   */\n    tag_435:\n        /* \"#utility.yul\":4896:4905   */\n      dup4\n        /* \"#utility.yul\":4883:4906   */\n      calldataload\n        /* \"#utility.yul\":4873:4906   */\n      swap3\n      pop\n        /* \"#utility.yul\":4953:4955   */\n      0x20\n        /* \"#utility.yul\":4942:4951   */\n      dup5\n        /* \"#utility.yul\":4938:4956   */\n      add\n        /* \"#utility.yul\":4925:4957   */\n      calldataload\n        /* \"#utility.yul\":4915:4957   */\n      swap2\n      pop\n        /* \"#utility.yul\":5008:5010   */\n      0x40\n        /* \"#utility.yul\":4997:5006   */\n      dup5\n        /* \"#utility.yul\":4993:5011   */\n      add\n        /* \"#utility.yul\":4980:5012   */\n      calldataload\n        /* \"#utility.yul\":5035:5053   */\n      0xffffffffffffffff\n        /* \"#utility.yul\":5027:5033   */\n      dup2\n        /* \"#utility.yul\":5024:5054   */\n      gt\n        /* \"#utility.yul\":5021:5071   */\n      iszero\n      tag_436\n      jumpi\n        /* \"#utility.yul\":5067:5068   */\n      0x00\n        /* \"#utility.yul\":5064:5065   */\n      dup1\n        /* \"#utility.yul\":5057:5069   */\n      revert\n        /* \"#utility.yul\":5021:5071   */\n    tag_436:\n        /* \"#utility.yul\":5090:5140   */\n      tag_437\n        /* \"#utility.yul\":5132:5139   */\n      dup7\n        /* \"#utility.yul\":5123:5129   */\n      dup3\n        /* \"#utility.yul\":5112:5121   */\n      dup8\n        /* \"#utility.yul\":5108:5130   */\n      add\n        /* \"#utility.yul\":5090:5140   */\n      tag_395\n      jump\t// in\n    tag_437:\n        /* \"#utility.yul\":5080:5140   */\n      swap2\n      pop\n      pop\n        /* \"#utility.yul\":4688:5146   */\n      swap3\n      pop\n      swap3\n      pop\n      swap3\n      jump\t// out\n        /* \"#utility.yul\":5151:5473   */\n    tag_54:\n        /* \"#utility.yul\":5228:5234   */\n      0x00\n        /* \"#utility.yul\":5236:5242   */\n      dup1\n        /* \"#utility.yul\":5244:5250   */\n      0x00\n        /* \"#utility.yul\":5297:5299   */\n      0x60\n        /* \"#utility.yul\":5285:5294   */\n      dup5\n        /* \"#utility.yul\":5276:5283   */\n      dup7\n        /* \"#utility.yul\":5272:5295   */\n      sub\n        /* \"#utility.yul\":5268:5300   */\n      slt\n        /* \"#utility.yul\":5265:5317   */\n      iszero\n      tag_439\n      jumpi\n        /* \"#utility.yul\":5313:5314   */\n      0x00\n        /* \"#utility.yul\":5310:5311   */\n      dup1\n        /* \"#utility.yul\":5303:5315   */\n      revert\n        /* \"#utility.yul\":5265:5317   */\n    tag_439:\n        /* \"#utility.yul\":5349:5358   */\n      dup4\n        /* \"#utility.yul\":5336:5359   */\n      calldataload\n        /* \"#utility.yul\":5326:5359   */\n      swap3\n      pop\n        /* \"#utility.yul\":5406:5408   */\n      0x20\n        /* \"#utility.yul\":5395:5404   */\n      dup5\n        /* \"#utility.yul\":5391:5409   */\n      add\n        /* \"#utility.yul\":5378:5410   */\n      calldataload\n        /* \"#utility.yul\":5368:5410   */\n      swap2\n      pop\n        /* \"#utility.yul\":5429:5467   */\n      tag_440\n        /* \"#utility.yul\":5463:5465   */\n      0x40\n        /* \"#utility.yul\":5452:5461   */\n      dup6\n        /* \"#utility.yul\":5448:5466   */\n      add\n        /* \"#utility.yul\":5429:5467   */\n      tag_390\n      jump\t// in\n    tag_440:\n        /* \"#utility.yul\":5419:5467   */\n      swap1\n      pop\n        /* \"#utility.yul\":5151:5473   */\n      swap3\n      pop\n      swap3\n      pop\n      swap3\n      jump\t// out\n        /* \"#utility.yul\":5478:7696   */\n    tag_63:\n        /* \"#utility.yul\":5570:5576   */\n      0x00\n        /* \"#utility.yul\":5578:5584   */\n      dup1\n        /* \"#utility.yul\":5631:5633   */\n      0x40\n        /* \"#utility.yul\":5619:5628   */\n      dup4\n        /* \"#utility.yul\":5610:5617   */\n      dup6\n        /* \"#utility.yul\":5606:5629   */\n      sub\n        /* \"#utility.yul\":5602:5634   */\n      slt\n        /* \"#utility.yul\":5599:5651   */\n      iszero\n      tag_442\n      jumpi\n        /* \"#utility.yul\":5647:5648   */\n      0x00\n        /* \"#utility.yul\":5644:5645   */\n      dup1\n        /* \"#utility.yul\":5637:5649   */\n      revert\n        /* \"#utility.yul\":5599:5651   */\n    tag_442:\n        /* \"#utility.yul\":5687:5696   */\n      dup3\n        /* \"#utility.yul\":5674:5697   */\n      calldataload\n        /* \"#utility.yul\":5716:5734   */\n      0xffffffffffffffff\n        /* \"#utility.yul\":5757:5759   */\n      dup1\n        /* \"#utility.yul\":5749:5755   */\n      dup3\n        /* \"#utility.yul\":5746:5760   */\n      gt\n        /* \"#utility.yul\":5743:5777   */\n      iszero\n      tag_443\n      jumpi\n        /* \"#utility.yul\":5773:5774   */\n      0x00\n        /* \"#utility.yul\":5770:5771   */\n      dup1\n        /* \"#utility.yul\":5763:5775   */\n      revert\n        /* \"#utility.yul\":5743:5777   */\n    tag_443:\n        /* \"#utility.yul\":5796:5818   */\n      swap1\n      dup5\n      add\n      swap1\n        /* \"#utility.yul\":5852:5858   */\n      0x0180\n        /* \"#utility.yul\":5834:5850   */\n      dup3\n      dup8\n      sub\n        /* \"#utility.yul\":5830:5859   */\n      slt\n        /* \"#utility.yul\":5827:5876   */\n      iszero\n      tag_444\n      jumpi\n        /* \"#utility.yul\":5872:5873   */\n      0x00\n        /* \"#utility.yul\":5869:5870   */\n      dup1\n        /* \"#utility.yul\":5862:5874   */\n      revert\n        /* \"#utility.yul\":5827:5876   */\n    tag_444:\n        /* \"#utility.yul\":5898:5915   */\n      tag_445\n      tag_394\n      jump\t// in\n    tag_445:\n        /* \"#utility.yul\":5951:5953   */\n      dup3\n        /* \"#utility.yul\":5938:5954   */\n      calldataload\n        /* \"#utility.yul\":5931:5936   */\n      dup2\n        /* \"#utility.yul\":5924:5955   */\n      mstore\n        /* \"#utility.yul\":6008:6010   */\n      0x20\n        /* \"#utility.yul\":6004:6006   */\n      dup4\n        /* \"#utility.yul\":6000:6011   */\n      add\n        /* \"#utility.yul\":5987:6012   */\n      calldataload\n        /* \"#utility.yul\":5982:5984   */\n      0x20\n        /* \"#utility.yul\":5975:5980   */\n      dup3\n        /* \"#utility.yul\":5971:5985   */\n      add\n        /* \"#utility.yul\":5964:6013   */\n      mstore\n        /* \"#utility.yul\":6066:6068   */\n      0x40\n        /* \"#utility.yul\":6062:6064   */\n      dup4\n        /* \"#utility.yul\":6058:6069   */\n      add\n        /* \"#utility.yul\":6045:6070   */\n      calldataload\n        /* \"#utility.yul\":6040:6042   */\n      0x40\n        /* \"#utility.yul\":6033:6038   */\n      dup3\n        /* \"#utility.yul\":6029:6043   */\n      add\n        /* \"#utility.yul\":6022:6071   */\n      mstore\n        /* \"#utility.yul\":6103:6134   */\n      tag_446\n        /* \"#utility.yul\":6130:6132   */\n      0x60\n        /* \"#utility.yul\":6126:6128   */\n      dup5\n        /* \"#utility.yul\":6122:6133   */\n      add\n        /* \"#utility.yul\":6103:6134   */\n      tag_390\n      jump\t// in\n    tag_446:\n        /* \"#utility.yul\":6098:6100   */\n      0x60\n        /* \"#utility.yul\":6091:6096   */\n      dup3\n        /* \"#utility.yul\":6087:6101   */\n      add\n        /* \"#utility.yul\":6080:6135   */\n      mstore\n        /* \"#utility.yul\":6181:6184   */\n      0x80\n        /* \"#utility.yul\":6177:6179   */\n      dup4\n        /* \"#utility.yul\":6173:6185   */\n      add\n        /* \"#utility.yul\":6160:6186   */\n      calldataload\n        /* \"#utility.yul\":6211:6213   */\n      dup3\n        /* \"#utility.yul\":6201:6209   */\n      dup2\n        /* \"#utility.yul\":6198:6214   */\n      gt\n        /* \"#utility.yul\":6195:6231   */\n      iszero\n      tag_447\n      jumpi\n        /* \"#utility.yul\":6227:6228   */\n      0x00\n        /* \"#utility.yul\":6224:6225   */\n      dup1\n        /* \"#utility.yul\":6217:6229   */\n      revert\n        /* \"#utility.yul\":6195:6231   */\n    tag_447:\n        /* \"#utility.yul\":6264:6309   */\n      tag_448\n        /* \"#utility.yul\":6301:6308   */\n      dup9\n        /* \"#utility.yul\":6290:6298   */\n      dup3\n        /* \"#utility.yul\":6286:6288   */\n      dup7\n        /* \"#utility.yul\":6282:6299   */\n      add\n        /* \"#utility.yul\":6264:6309   */\n      tag_395\n      jump\t// in\n    tag_448:\n        /* \"#utility.yul\":6258:6261   */\n      0x80\n        /* \"#utility.yul\":6251:6256   */\n      dup4\n        /* \"#utility.yul\":6247:6262   */\n      add\n        /* \"#utility.yul\":6240:6310   */\n      mstore\n      pop\n        /* \"#utility.yul\":6356:6359   */\n      0xa0\n        /* \"#utility.yul\":6352:6354   */\n      dup4\n        /* \"#utility.yul\":6348:6360   */\n      add\n        /* \"#utility.yul\":6335:6361   */\n      calldataload\n        /* \"#utility.yul\":6386:6388   */\n      dup3\n        /* \"#utility.yul\":6376:6384   */\n      dup2\n        /* \"#utility.yul\":6373:6389   */\n      gt\n        /* \"#utility.yul\":6370:6406   */\n      iszero\n      tag_449\n      jumpi\n        /* \"#utility.yul\":6402:6403   */\n      0x00\n        /* \"#utility.yul\":6399:6400   */\n      dup1\n        /* \"#utility.yul\":6392:6404   */\n      revert\n        /* \"#utility.yul\":6370:6406   */\n    tag_449:\n        /* \"#utility.yul\":6439:6484   */\n      tag_450\n        /* \"#utility.yul\":6476:6483   */\n      dup9\n        /* \"#utility.yul\":6465:6473   */\n      dup3\n        /* \"#utility.yul\":6461:6463   */\n      dup7\n        /* \"#utility.yul\":6457:6474   */\n      add\n        /* \"#utility.yul\":6439:6484   */\n      tag_395\n      jump\t// in\n    tag_450:\n        /* \"#utility.yul\":6433:6436   */\n      0xa0\n        /* \"#utility.yul\":6426:6431   */\n      dup4\n        /* \"#utility.yul\":6422:6437   */\n      add\n        /* \"#utility.yul\":6415:6485   */\n      mstore\n      pop\n        /* \"#utility.yul\":6531:6534   */\n      0xc0\n        /* \"#utility.yul\":6527:6529   */\n      dup4\n        /* \"#utility.yul\":6523:6535   */\n      add\n        /* \"#utility.yul\":6510:6536   */\n      calldataload\n        /* \"#utility.yul\":6561:6563   */\n      dup3\n        /* \"#utility.yul\":6551:6559   */\n      dup2\n        /* \"#utility.yul\":6548:6564   */\n      gt\n        /* \"#utility.yul\":6545:6581   */\n      iszero\n      tag_451\n      jumpi\n        /* \"#utility.yul\":6577:6578   */\n      0x00\n        /* \"#utility.yul\":6574:6575   */\n      dup1\n        /* \"#utility.yul\":6567:6579   */\n      revert\n        /* \"#utility.yul\":6545:6581   */\n    tag_451:\n        /* \"#utility.yul\":6614:6659   */\n      tag_452\n        /* \"#utility.yul\":6651:6658   */\n      dup9\n        /* \"#utility.yul\":6640:6648   */\n      dup3\n        /* \"#utility.yul\":6636:6638   */\n      dup7\n        /* \"#utility.yul\":6632:6649   */\n      add\n        /* \"#utility.yul\":6614:6659   */\n      tag_395\n      jump\t// in\n    tag_452:\n        /* \"#utility.yul\":6608:6611   */\n      0xc0\n        /* \"#utility.yul\":6601:6606   */\n      dup4\n        /* \"#utility.yul\":6597:6612   */\n      add\n        /* \"#utility.yul\":6590:6660   */\n      mstore\n      pop\n        /* \"#utility.yul\":6706:6709   */\n      0xe0\n        /* \"#utility.yul\":6702:6704   */\n      dup4\n        /* \"#utility.yul\":6698:6710   */\n      add\n        /* \"#utility.yul\":6685:6711   */\n      calldataload\n        /* \"#utility.yul\":6736:6738   */\n      dup3\n        /* \"#utility.yul\":6726:6734   */\n      dup2\n        /* \"#utility.yul\":6723:6739   */\n      gt\n        /* \"#utility.yul\":6720:6756   */\n      iszero\n      tag_453\n      jumpi\n        /* \"#utility.yul\":6752:6753   */\n      0x00\n        /* \"#utility.yul\":6749:6750   */\n      dup1\n        /* \"#utility.yul\":6742:6754   */\n      revert\n        /* \"#utility.yul\":6720:6756   */\n    tag_453:\n        /* \"#utility.yul\":6789:6834   */\n      tag_454\n        /* \"#utility.yul\":6826:6833   */\n      dup9\n        /* \"#utility.yul\":6815:6823   */\n      dup3\n        /* \"#utility.yul\":6811:6813   */\n      dup7\n        /* \"#utility.yul\":6807:6824   */\n      add\n        /* \"#utility.yul\":6789:6834   */\n      tag_395\n      jump\t// in\n    tag_454:\n        /* \"#utility.yul\":6783:6786   */\n      0xe0\n        /* \"#utility.yul\":6776:6781   */\n      dup4\n        /* \"#utility.yul\":6772:6787   */\n      add\n        /* \"#utility.yul\":6765:6835   */\n      mstore\n      pop\n        /* \"#utility.yul\":6854:6857   */\n      0x0100\n        /* \"#utility.yul\":6903:6905   */\n      dup1\n        /* \"#utility.yul\":6899:6901   */\n      dup5\n        /* \"#utility.yul\":6895:6906   */\n      add\n        /* \"#utility.yul\":6882:6907   */\n      calldataload\n        /* \"#utility.yul\":6932:6934   */\n      dup4\n        /* \"#utility.yul\":6922:6930   */\n      dup2\n        /* \"#utility.yul\":6919:6935   */\n      gt\n        /* \"#utility.yul\":6916:6952   */\n      iszero\n      tag_455\n      jumpi\n        /* \"#utility.yul\":6948:6949   */\n      0x00\n        /* \"#utility.yul\":6945:6946   */\n      dup1\n        /* \"#utility.yul\":6938:6950   */\n      revert\n        /* \"#utility.yul\":6916:6952   */\n    tag_455:\n        /* \"#utility.yul\":6984:7029   */\n      tag_456\n        /* \"#utility.yul\":7021:7028   */\n      dup10\n        /* \"#utility.yul\":7010:7018   */\n      dup3\n        /* \"#utility.yul\":7006:7008   */\n      dup8\n        /* \"#utility.yul\":7002:7019   */\n      add\n        /* \"#utility.yul\":6984:7029   */\n      tag_395\n      jump\t// in\n    tag_456:\n        /* \"#utility.yul\":6979:6981   */\n      dup3\n        /* \"#utility.yul\":6972:6977   */\n      dup5\n        /* \"#utility.yul\":6968:6982   */\n      add\n        /* \"#utility.yul\":6961:7030   */\n      mstore\n      pop\n      pop\n        /* \"#utility.yul\":7049:7052   */\n      0x0120\n        /* \"#utility.yul\":7098:7100   */\n      dup1\n        /* \"#utility.yul\":7094:7096   */\n      dup5\n        /* \"#utility.yul\":7090:7101   */\n      add\n        /* \"#utility.yul\":7077:7102   */\n      calldataload\n        /* \"#utility.yul\":7127:7129   */\n      dup4\n        /* \"#utility.yul\":7117:7125   */\n      dup2\n        /* \"#utility.yul\":7114:7130   */\n      gt\n        /* \"#utility.yul\":7111:7147   */\n      iszero\n      tag_457\n      jumpi\n        /* \"#utility.yul\":7143:7144   */\n      0x00\n        /* \"#utility.yul\":7140:7141   */\n      dup1\n        /* \"#utility.yul\":7133:7145   */\n      revert\n        /* \"#utility.yul\":7111:7147   */\n    tag_457:\n        /* \"#utility.yul\":7179:7224   */\n      tag_458\n        /* \"#utility.yul\":7216:7223   */\n      dup10\n        /* \"#utility.yul\":7205:7213   */\n      dup3\n        /* \"#utility.yul\":7201:7203   */\n      dup8\n        /* \"#utility.yul\":7197:7214   */\n      add\n        /* \"#utility.yul\":7179:7224   */\n      tag_395\n      jump\t// in\n    tag_458:\n        /* \"#utility.yul\":7174:7176   */\n      dup3\n        /* \"#utility.yul\":7167:7172   */\n      dup5\n        /* \"#utility.yul\":7163:7177   */\n      add\n        /* \"#utility.yul\":7156:7225   */\n      mstore\n      pop\n      pop\n        /* \"#utility.yul\":7244:7247   */\n      0x0140\n        /* \"#utility.yul\":7293:7295   */\n      dup1\n        /* \"#utility.yul\":7289:7291   */\n      dup5\n        /* \"#utility.yul\":7285:7296   */\n      add\n        /* \"#utility.yul\":7272:7297   */\n      calldataload\n        /* \"#utility.yul\":7322:7324   */\n      dup4\n        /* \"#utility.yul\":7312:7320   */\n      dup2\n        /* \"#utility.yul\":7309:7325   */\n      gt\n        /* \"#utility.yul\":7306:7342   */\n      iszero\n      tag_459\n      jumpi\n        /* \"#utility.yul\":7338:7339   */\n      0x00\n        /* \"#utility.yul\":7335:7336   */\n      dup1\n        /* \"#utility.yul\":7328:7340   */\n      revert\n        /* \"#utility.yul\":7306:7342   */\n    tag_459:\n        /* \"#utility.yul\":7374:7419   */\n      tag_460\n        /* \"#utility.yul\":7411:7418   */\n      dup10\n        /* \"#utility.yul\":7400:7408   */\n      dup3\n        /* \"#utility.yul\":7396:7398   */\n      dup8\n        /* \"#utility.yul\":7392:7409   */\n      add\n        /* \"#utility.yul\":7374:7419   */\n      tag_395\n      jump\t// in\n    tag_460:\n        /* \"#utility.yul\":7369:7371   */\n      dup3\n        /* \"#utility.yul\":7362:7367   */\n      dup5\n        /* \"#utility.yul\":7358:7372   */\n      add\n        /* \"#utility.yul\":7351:7420   */\n      mstore\n      pop\n      pop\n        /* \"#utility.yul\":7439:7442   */\n      0x0160\n        /* \"#utility.yul\":7488:7490   */\n      dup1\n        /* \"#utility.yul\":7484:7486   */\n      dup5\n        /* \"#utility.yul\":7480:7491   */\n      add\n        /* \"#utility.yul\":7467:7492   */\n      calldataload\n        /* \"#utility.yul\":7517:7519   */\n      dup4\n        /* \"#utility.yul\":7507:7515   */\n      dup2\n        /* \"#utility.yul\":7504:7520   */\n      gt\n        /* \"#utility.yul\":7501:7537   */\n      iszero\n      tag_461\n      jumpi\n        /* \"#utility.yul\":7533:7534   */\n      0x00\n        /* \"#utility.yul\":7530:7531   */\n      dup1\n        /* \"#utility.yul\":7523:7535   */\n      revert\n        /* \"#utility.yul\":7501:7537   */\n    tag_461:\n        /* \"#utility.yul\":7569:7614   */\n      tag_462\n        /* \"#utility.yul\":7606:7613   */\n      dup10\n        /* \"#utility.yul\":7595:7603   */\n      dup3\n        /* \"#utility.yul\":7591:7593   */\n      dup8\n        /* \"#utility.yul\":7587:7604   */\n      add\n        /* \"#utility.yul\":7569:7614   */\n      tag_395\n      jump\t// in\n    tag_462:\n        /* \"#utility.yul\":7553:7567   */\n      swap2\n      dup4\n      add\n        /* \"#utility.yul\":7546:7615   */\n      swap2\n      swap1\n      swap2\n      mstore\n      pop\n        /* \"#utility.yul\":7557:7562   */\n      swap7\n        /* \"#utility.yul\":7686:7688   */\n      0x20\n        /* \"#utility.yul\":7671:7689   */\n      swap6\n      swap1\n      swap6\n      add\n        /* \"#utility.yul\":7658:7690   */\n      calldataload\n      swap6\n      pop\n      pop\n      pop\n      pop\n      pop\n        /* \"#utility.yul\":5478:7696   */\n      jump\t// out\n        /* \"#utility.yul\":8091:8339   */\n    tag_83:\n        /* \"#utility.yul\":8159:8165   */\n      0x00\n        /* \"#utility.yul\":8167:8173   */\n      dup1\n        /* \"#utility.yul\":8220:8222   */\n      0x40\n        /* \"#utility.yul\":8208:8217   */\n      dup4\n        /* \"#utility.yul\":8199:8206   */\n      dup6\n        /* \"#utility.yul\":8195:8218   */\n      sub\n        /* \"#utility.yul\":8191:8223   */\n      slt\n        /* \"#utility.yul\":8188:8240   */\n      iszero\n      tag_466\n      jumpi\n        /* \"#utility.yul\":8236:8237   */\n      0x00\n        /* \"#utility.yul\":8233:8234   */\n      dup1\n        /* \"#utility.yul\":8226:8238   */\n      revert\n        /* \"#utility.yul\":8188:8240   */\n    tag_466:\n      pop\n      pop\n        /* \"#utility.yul\":8259:8282   */\n      dup1\n      calldataload\n      swap3\n        /* \"#utility.yul\":8329:8331   */\n      0x20\n        /* \"#utility.yul\":8314:8332   */\n      swap1\n      swap2\n      add\n        /* \"#utility.yul\":8301:8333   */\n      calldataload\n      swap2\n      pop\n        /* \"#utility.yul\":8091:8339   */\n      jump\t// out\n        /* \"#utility.yul\":8344:8530   */\n    tag_112:\n        /* \"#utility.yul\":8403:8409   */\n      0x00\n        /* \"#utility.yul\":8456:8458   */\n      0x20\n        /* \"#utility.yul\":8444:8453   */\n      dup3\n        /* \"#utility.yul\":8435:8442   */\n      dup5\n        /* \"#utility.yul\":8431:8454   */\n      sub\n        /* \"#utility.yul\":8427:8459   */\n      slt\n        /* \"#utility.yul\":8424:8476   */\n      iszero\n      tag_468\n      jumpi\n        /* \"#utility.yul\":8472:8473   */\n      0x00\n        /* \"#utility.yul\":8469:8470   */\n      dup1\n        /* \"#utility.yul\":8462:8474   */\n      revert\n        /* \"#utility.yul\":8424:8476   */\n    tag_468:\n        /* \"#utility.yul\":8495:8524   */\n      tag_469\n        /* \"#utility.yul\":8514:8523   */\n      dup3\n        /* \"#utility.yul\":8495:8524   */\n      tag_390\n      jump\t// in\n    tag_469:\n        /* \"#utility.yul\":8485:8524   */\n      swap4\n        /* \"#utility.yul\":8344:8530   */\n      swap3\n      pop\n      pop\n      pop\n      jump\t// out\n        /* \"#utility.yul\":8535:8715   */\n    tag_116:\n        /* \"#utility.yul\":8594:8600   */\n      0x00\n        /* \"#utility.yul\":8647:8649   */\n      0x20\n        /* \"#utility.yul\":8635:8644   */\n      dup3\n        /* \"#utility.yul\":8626:8633   */\n      dup5\n        /* \"#utility.yul\":8622:8645   */\n      sub\n        /* \"#utility.yul\":8618:8650   */\n      slt\n        /* \"#utility.yul\":8615:8667   */\n      iszero\n      tag_471\n      jumpi\n        /* \"#utility.yul\":8663:8664   */\n      0x00\n        /* \"#utility.yul\":8660:8661   */\n      dup1\n        /* \"#utility.yul\":8653:8665   */\n      revert\n        /* \"#utility.yul\":8615:8667   */\n    tag_471:\n      pop\n        /* \"#utility.yul\":8686:8709   */\n      calldataload\n      swap2\n        /* \"#utility.yul\":8535:8715   */\n      swap1\n      pop\n      jump\t// out\n        /* \"#utility.yul\":8720:9123   */\n    tag_122:\n        /* \"#utility.yul\":8922:8924   */\n      0x20\n        /* \"#utility.yul\":8904:8925   */\n      dup1\n      dup3\n      mstore\n        /* \"#utility.yul\":8961:8963   */\n      0x27\n        /* \"#utility.yul\":8941:8959   */\n      swap1\n      dup3\n      add\n        /* \"#utility.yul\":8934:8964   */\n      mstore\n        /* \"#utility.yul\":9000:9034   */\n      0x4461746162617365204c697374456d706c6f7965653a20536563726574206b65\n        /* \"#utility.yul\":8995:8997   */\n      0x40\n        /* \"#utility.yul\":8980:8998   */\n      dup3\n      add\n        /* \"#utility.yul\":8973:9035   */\n      mstore\n      shl(0xc9, 0x3c9032b93937b9)\n        /* \"#utility.yul\":9066:9068   */\n      0x60\n        /* \"#utility.yul\":9051:9069   */\n      dup3\n      add\n        /* \"#utility.yul\":9044:9081   */\n      mstore\n        /* \"#utility.yul\":9113:9116   */\n      0x80\n        /* \"#utility.yul\":9098:9117   */\n      add\n      swap1\n        /* \"#utility.yul\":8720:9123   */\n      jump\t// out\n        /* \"#utility.yul\":9128:9528   */\n    tag_127:\n        /* \"#utility.yul\":9330:9332   */\n      0x20\n        /* \"#utility.yul\":9312:9333   */\n      dup1\n      dup3\n      mstore\n        /* \"#utility.yul\":9369:9371   */\n      0x24\n        /* \"#utility.yul\":9349:9367   */\n      swap1\n      dup3\n      add\n        /* \"#utility.yul\":9342:9372   */\n      mstore\n        /* \"#utility.yul\":9408:9442   */\n      0x4461746162617365204c697374456d706c6f7965653a20496e76616c69642069\n        /* \"#utility.yul\":9403:9405   */\n      0x40\n        /* \"#utility.yul\":9388:9406   */\n      dup3\n      add\n        /* \"#utility.yul\":9381:9443   */\n      mstore\n      shl(0xe3, 0x0dcc8caf)\n        /* \"#utility.yul\":9474:9476   */\n      0x60\n        /* \"#utility.yul\":9459:9477   */\n      dup3\n      add\n        /* \"#utility.yul\":9452:9486   */\n      mstore\n        /* \"#utility.yul\":9518:9521   */\n      0x80\n        /* \"#utility.yul\":9503:9522   */\n      add\n      swap1\n        /* \"#utility.yul\":9128:9528   */\n      jump\t// out\n        /* \"#utility.yul\":9533:9913   */\n    tag_140:\n        /* \"#utility.yul\":9612:9613   */\n      0x01\n        /* \"#utility.yul\":9608:9620   */\n      dup2\n      dup2\n      shr\n      swap1\n        /* \"#utility.yul\":9655:9667   */\n      dup3\n      and\n      dup1\n        /* \"#utility.yul\":9676:9737   */\n      tag_475\n      jumpi\n        /* \"#utility.yul\":9730:9734   */\n      0x7f\n        /* \"#utility.yul\":9722:9728   */\n      dup3\n        /* \"#utility.yul\":9718:9735   */\n      and\n        /* \"#utility.yul\":9708:9735   */\n      swap2\n      pop\n        /* \"#utility.yul\":9676:9737   */\n    tag_475:\n        /* \"#utility.yul\":9783:9785   */\n      0x20\n        /* \"#utility.yul\":9775:9781   */\n      dup3\n        /* \"#utility.yul\":9772:9786   */\n      lt\n        /* \"#utility.yul\":9752:9770   */\n      dup2\n        /* \"#utility.yul\":9749:9787   */\n      sub\n        /* \"#utility.yul\":9746:9907   */\n      tag_383\n      jumpi\n        /* \"#utility.yul\":9829:9839   */\n      0x4e487b71\n        /* \"#utility.yul\":9824:9827   */\n      0xe0\n        /* \"#utility.yul\":9820:9840   */\n      shl\n        /* \"#utility.yul\":9817:9818   */\n      0x00\n        /* \"#utility.yul\":9810:9841   */\n      mstore\n        /* \"#utility.yul\":9864:9868   */\n      0x22\n        /* \"#utility.yul\":9861:9862   */\n      0x04\n        /* \"#utility.yul\":9854:9869   */\n      mstore\n        /* \"#utility.yul\":9892:9896   */\n      0x24\n        /* \"#utility.yul\":9889:9890   */\n      0x00\n        /* \"#utility.yul\":9882:9897   */\n      revert\n        /* \"#utility.yul\":9918:10150   */\n    tag_181:\n        /* \"#utility.yul\":9957:9960   */\n      0x00\n        /* \"#utility.yul\":9978:9995   */\n      0x01\n      dup3\n      add\n        /* \"#utility.yul\":9975:10115   */\n      tag_478\n      jumpi\n        /* \"#utility.yul\":10037:10047   */\n      0x4e487b71\n        /* \"#utility.yul\":10032:10035   */\n      0xe0\n        /* \"#utility.yul\":10028:10048   */\n      shl\n        /* \"#utility.yul\":10025:10026   */\n      0x00\n        /* \"#utility.yul\":10018:10049   */\n      mstore\n        /* \"#utility.yul\":10072:10076   */\n      0x11\n        /* \"#utility.yul\":10069:10070   */\n      0x04\n        /* \"#utility.yul\":10062:10077   */\n      mstore\n        /* \"#utility.yul\":10100:10104   */\n      0x24\n        /* \"#utility.yul\":10097:10098   */\n      0x00\n        /* \"#utility.yul\":10090:10105   */\n      revert\n        /* \"#utility.yul\":9975:10115   */\n    tag_478:\n      pop\n        /* \"#utility.yul\":10142:10143   */\n      0x01\n        /* \"#utility.yul\":10131:10144   */\n      add\n      swap1\n        /* \"#utility.yul\":9918:10150   */\n      jump\t// out\n        /* \"#utility.yul\":10281:10826   */\n    tag_397:\n        /* \"#utility.yul\":10383:10385   */\n      0x1f\n        /* \"#utility.yul\":10378:10381   */\n      dup3\n        /* \"#utility.yul\":10375:10386   */\n      gt\n        /* \"#utility.yul\":10372:10820   */\n      iszero\n      tag_481\n      jumpi\n        /* \"#utility.yul\":10419:10420   */\n      0x00\n        /* \"#utility.yul\":10444:10449   */\n      dup2\n        /* \"#utility.yul\":10440:10442   */\n      dup2\n        /* \"#utility.yul\":10433:10450   */\n      mstore\n        /* \"#utility.yul\":10489:10493   */\n      0x20\n        /* \"#utility.yul\":10485:10487   */\n      dup2\n        /* \"#utility.yul\":10475:10494   */\n      keccak256\n        /* \"#utility.yul\":10559:10561   */\n      0x1f\n        /* \"#utility.yul\":10547:10557   */\n      dup6\n        /* \"#utility.yul\":10543:10562   */\n      add\n        /* \"#utility.yul\":10540:10541   */\n      0x05\n        /* \"#utility.yul\":10536:10563   */\n      shr\n        /* \"#utility.yul\":10530:10534   */\n      dup2\n        /* \"#utility.yul\":10526:10564   */\n      add\n        /* \"#utility.yul\":10595:10599   */\n      0x20\n        /* \"#utility.yul\":10583:10593   */\n      dup7\n        /* \"#utility.yul\":10580:10600   */\n      lt\n        /* \"#utility.yul\":10577:10624   */\n      iszero\n      tag_482\n      jumpi\n      pop\n        /* \"#utility.yul\":10618:10622   */\n      dup1\n        /* \"#utility.yul\":10577:10624   */\n    tag_482:\n        /* \"#utility.yul\":10673:10675   */\n      0x1f\n        /* \"#utility.yul\":10668:10671   */\n      dup6\n        /* \"#utility.yul\":10664:10676   */\n      add\n        /* \"#utility.yul\":10661:10662   */\n      0x05\n        /* \"#utility.yul\":10657:10677   */\n      shr\n        /* \"#utility.yul\":10651:10655   */\n      dup3\n        /* \"#utility.yul\":10647:10678   */\n      add\n        /* \"#utility.yul\":10637:10678   */\n      swap2\n      pop\n        /* \"#utility.yul\":10728:10810   */\n    tag_483:\n        /* \"#utility.yul\":10746:10748   */\n      dup2\n        /* \"#utility.yul\":10739:10744   */\n      dup2\n        /* \"#utility.yul\":10736:10749   */\n      lt\n        /* \"#utility.yul\":10728:10810   */\n      iszero\n      tag_485\n      jumpi\n        /* \"#utility.yul\":10791:10808   */\n      dup3\n      dup2\n      sstore\n        /* \"#utility.yul\":10772:10773   */\n      0x01\n        /* \"#utility.yul\":10761:10774   */\n      add\n        /* \"#utility.yul\":10728:10810   */\n      jump(tag_483)\n    tag_485:\n        /* \"#utility.yul\":10732:10735   */\n      pop\n      pop\n      pop\n        /* \"#utility.yul\":10372:10820   */\n    tag_481:\n        /* \"#utility.yul\":10281:10826   */\n      pop\n      pop\n      pop\n      jump\t// out\n        /* \"#utility.yul\":11002:12354   */\n    tag_199:\n        /* \"#utility.yul\":11128:11131   */\n      dup2\n        /* \"#utility.yul\":11122:11132   */\n      mload\n        /* \"#utility.yul\":11155:11173   */\n      0xffffffffffffffff\n        /* \"#utility.yul\":11147:11153   */\n      dup2\n        /* \"#utility.yul\":11144:11174   */\n      gt\n        /* \"#utility.yul\":11141:11197   */\n      iszero\n      tag_489\n      jumpi\n        /* \"#utility.yul\":11177:11195   */\n      tag_489\n      tag_393\n      jump\t// in\n    tag_489:\n        /* \"#utility.yul\":11206:11303   */\n      tag_490\n        /* \"#utility.yul\":11296:11302   */\n      dup2\n        /* \"#utility.yul\":11256:11294   */\n      tag_491\n        /* \"#utility.yul\":11288:11292   */\n      dup5\n        /* \"#utility.yul\":11282:11293   */\n      sload\n        /* \"#utility.yul\":11256:11294   */\n      tag_140\n      jump\t// in\n    tag_491:\n        /* \"#utility.yul\":11250:11254   */\n      dup5\n        /* \"#utility.yul\":11206:11303   */\n      tag_397\n      jump\t// in\n    tag_490:\n        /* \"#utility.yul\":11358:11362   */\n      0x20\n      dup1\n        /* \"#utility.yul\":11422:11424   */\n      0x1f\n        /* \"#utility.yul\":11411:11425   */\n      dup4\n      gt\n        /* \"#utility.yul\":11439:11440   */\n      0x01\n        /* \"#utility.yul\":11434:12097   */\n      dup2\n      eq\n      tag_493\n      jumpi\n        /* \"#utility.yul\":12141:12142   */\n      0x00\n        /* \"#utility.yul\":12158:12164   */\n      dup5\n        /* \"#utility.yul\":12155:12244   */\n      iszero\n      tag_494\n      jumpi\n      pop\n        /* \"#utility.yul\":12210:12229   */\n      dup6\n      dup4\n      add\n        /* \"#utility.yul\":12204:12230   */\n      mload\n        /* \"#utility.yul\":12155:12244   */\n    tag_494:\n      not(0x00)\n        /* \"#utility.yul\":10959:10960   */\n      0x03\n        /* \"#utility.yul\":10955:10966   */\n      dup7\n      swap1\n      shl\n        /* \"#utility.yul\":10951:10975   */\n      shr\n        /* \"#utility.yul\":10947:10976   */\n      not\n        /* \"#utility.yul\":10937:10977   */\n      and\n        /* \"#utility.yul\":10983:10984   */\n      0x01\n        /* \"#utility.yul\":10979:10990   */\n      dup6\n      swap1\n      shl\n        /* \"#utility.yul\":10934:10991   */\n      or\n        /* \"#utility.yul\":12257:12338   */\n      dup6\n      sstore\n        /* \"#utility.yul\":11404:12348   */\n      jump(tag_485)\n        /* \"#utility.yul\":11434:12097   */\n    tag_493:\n        /* \"#utility.yul\":10228:10229   */\n      0x00\n        /* \"#utility.yul\":10221:10235   */\n      dup6\n      dup2\n      mstore\n        /* \"#utility.yul\":10265:10269   */\n      0x20\n        /* \"#utility.yul\":10252:10270   */\n      dup2\n      keccak256\n      not(0x1f)\n        /* \"#utility.yul\":11470:11490   */\n      dup7\n      and\n      swap2\n        /* \"#utility.yul\":11588:11824   */\n    tag_497:\n        /* \"#utility.yul\":11602:11609   */\n      dup3\n        /* \"#utility.yul\":11599:11600   */\n      dup2\n        /* \"#utility.yul\":11596:11610   */\n      lt\n        /* \"#utility.yul\":11588:11824   */\n      iszero\n      tag_499\n      jumpi\n        /* \"#utility.yul\":11691:11710   */\n      dup9\n      dup7\n      add\n        /* \"#utility.yul\":11685:11711   */\n      mload\n        /* \"#utility.yul\":11670:11712   */\n      dup3\n      sstore\n        /* \"#utility.yul\":11783:11810   */\n      swap5\n      dup5\n      add\n      swap5\n        /* \"#utility.yul\":11751:11752   */\n      0x01\n        /* \"#utility.yul\":11739:11753   */\n      swap1\n      swap2\n      add\n      swap1\n        /* \"#utility.yul\":11618:11637   */\n      dup5\n      add\n        /* \"#utility.yul\":11588:11824   */\n      jump(tag_497)\n    tag_499:\n        /* \"#utility.yul\":11592:11595   */\n      pop\n        /* \"#utility.yul\":11852:11858   */\n      dup6\n        /* \"#utility.yul\":11843:11850   */\n      dup3\n        /* \"#utility.yul\":11840:11859   */\n      lt\n        /* \"#utility.yul\":11837:12038   */\n      iszero\n      tag_500\n      jumpi\n        /* \"#utility.yul\":11913:11932   */\n      dup8\n      dup6\n      add\n        /* \"#utility.yul\":11907:11933   */\n      mload\n      not(0x00)\n        /* \"#utility.yul\":11996:11997   */\n      0x03\n        /* \"#utility.yul\":11992:12006   */\n      dup9\n      swap1\n      shl\n        /* \"#utility.yul\":12008:12011   */\n      0xf8\n        /* \"#utility.yul\":11988:12012   */\n      and\n        /* \"#utility.yul\":11984:12021   */\n      shr\n        /* \"#utility.yul\":11980:12022   */\n      not\n        /* \"#utility.yul\":11965:12023   */\n      and\n        /* \"#utility.yul\":11950:12024   */\n      dup2\n      sstore\n        /* \"#utility.yul\":11837:12038   */\n    tag_500:\n      pop\n      pop\n      pop\n      pop\n      pop\n        /* \"#utility.yul\":12084:12085   */\n      0x01\n        /* \"#utility.yul\":12068:12082   */\n      swap1\n      dup2\n      shl\n        /* \"#utility.yul\":12064:12086   */\n      add\n        /* \"#utility.yul\":12051:12087   */\n      swap1\n      sstore\n      pop\n        /* \"#utility.yul\":11002:12354   */\n      jump\t// out\n    stop\n    data_98ee57057fe0a523e70b51608fd55a37ff53d47c3b8dac495a5f45d45157392f 8e1604a838d0f1a9b2cda14a099e4ceb08e966cc6e05e8296f67b02d61a79f09\n\n    auxdata: 0xa2646970667358221220d387eb399daf3df15a55dc547b03c9b0109e89359f428a027508160f68c2fbda64736f6c63430008100033\n}\n",
				"bytecode": {
					"linkReferences": {},
					"object": "6080604052600060025534801561001557600080fd5b50600080546001600160a01b031916331790556121f5806100376000396000f3fe608060405234801561001057600080fd5b50600436106101375760003560e01c80638827b05f116100b8578063d32a04c71161007c578063d32a04c714610288578063d45c8abf1461029b578063d49cb146146102ae578063e3f34371146102c1578063f2fde38b146102d4578063fd82e9dd146102e757600080fd5b80638827b05f146102215780638da5cb5b14610234578063b615c00a1461024f578063c78a674114610262578063d2af71a61461027557600080fd5b80632e22eafe116100ff5780632e22eafe146101bd578063413896e4146101d05780637dcd61bd146101e3578063800f22341461020457806383197ef01461021757600080fd5b806311a89a5f1461013c578063236df93c14610164578063294b4b6b1461018457806329cd6311146101975780632c3ce919146101aa575b600080fd5b61014f61014a366004611a63565b6102fa565b60405190151581526020015b60405180910390f35b610177610172366004611aab565b61037f565b60405161015b9190611b1b565b61014f610192366004611a63565b61098f565b61014f6101a5366004611d1d565b610a08565b61014f6101b8366004611d1d565b610a90565b61014f6101cb366004611d6d565b610b0b565b61014f6101de366004611d1d565b610ba4565b6101f66101f1366004611da2565b610c1f565b60405190815260200161015b565b61014f610212366004611d1d565b610db2565b61021f610e2d565b005b61014f61022f366004611a63565b610e38565b6000546040516001600160a01b03909116815260200161015b565b61014f61025d366004611f4d565b610eb3565b610177610270366004611f4d565b6110b5565b61014f610283366004611d1d565b611606565b6101f6610296366004611aab565b611681565b61014f6102a9366004611d1d565b611718565b61014f6102bc366004611d1d565b611793565b61014f6102cf366004611d1d565b61180e565b61021f6102e2366004611f6f565b611889565b6101f66102f5366004611f91565b611902565b6000826000805160206121a083398151915281146103335760405162461bcd60e51b815260040161032a90611faa565b60405180910390fd5b848060011115801561034757506002548111155b6103635760405162461bcd60e51b815260040161032a90611ff1565b5050506000928352600160208190526040909320600201555090565b6103876119f9565b816000805160206121a083398151915281146103b55760405162461bcd60e51b815260040161032a90611faa565b60015b60025481116108e0576000818152600160205260409020600301546001600160a01b038087169116036108ce5760008181526001602081815260409283902083516101808101855281548152928101549183019190915260028101549282019290925260038201546001600160a01b0316606082015260048201805491929160808401919061044690612035565b80601f016020809104026020016040519081016040528092919081815260200182805461047290612035565b80156104bf5780601f10610494576101008083540402835291602001916104bf565b820191906000526020600020905b8154815290600101906020018083116104a257829003601f168201915b505050505081526020016005820180546104d890612035565b80601f016020809104026020016040519081016040528092919081815260200182805461050490612035565b80156105515780601f1061052657610100808354040283529160200191610551565b820191906000526020600020905b81548152906001019060200180831161053457829003601f168201915b5050505050815260200160068201805461056a90612035565b80601f016020809104026020016040519081016040528092919081815260200182805461059690612035565b80156105e35780601f106105b8576101008083540402835291602001916105e3565b820191906000526020600020905b8154815290600101906020018083116105c657829003601f168201915b505050505081526020016007820180546105fc90612035565b80601f016020809104026020016040519081016040528092919081815260200182805461062890612035565b80156106755780601f1061064a57610100808354040283529160200191610675565b820191906000526020600020905b81548152906001019060200180831161065857829003601f168201915b5050505050815260200160088201805461068e90612035565b80601f01602080910402602001604051908101604052809291908181526020018280546106ba90612035565b80156107075780601f106106dc57610100808354040283529160200191610707565b820191906000526020600020905b8154815290600101906020018083116106ea57829003601f168201915b5050505050815260200160098201805461072090612035565b80601f016020809104026020016040519081016040528092919081815260200182805461074c90612035565b80156107995780601f1061076e57610100808354040283529160200191610799565b820191906000526020600020905b81548152906001019060200180831161077c57829003601f168201915b50505050508152602001600a820180546107b290612035565b80601f01602080910402602001604051908101604052809291908181526020018280546107de90612035565b801561082b5780601f106108005761010080835404028352916020019161082b565b820191906000526020600020905b81548152906001019060200180831161080e57829003601f168201915b50505050508152602001600b8201805461084490612035565b80601f016020809104026020016040519081016040528092919081815260200182805461087090612035565b80156108bd5780601f10610892576101008083540402835291602001916108bd565b820191906000526020600020905b8154815290600101906020018083116108a057829003601f168201915b505050505081525050925050610988565b806108d881612069565b9150506103b8565b50604080516101808101825260008082526020808301829052828401829052606083018290528351808201855282815260808401528351808201855282815260a08401528351808201855282815260c08401528351808201855282815260e08401528351808201855282815261010084015283518082018552828152610120840152835180820185528281526101408401528351908101909352825261016081019190915291505b5092915050565b6000826000805160206121a083398151915281146109bf5760405162461bcd60e51b815260040161032a90611faa565b84806001111580156109d357506002548111155b6109ef5760405162461bcd60e51b815260040161032a90611ff1565b5050506000928352600160208190526040909320555090565b6000826000805160206121a08339815191528114610a385760405162461bcd60e51b815260040161032a90611faa565b8480600111158015610a4c57506002548111155b610a685760405162461bcd60e51b815260040161032a90611ff1565b6000868152600160205260409020600701610a8385826120df565b5060019695505050505050565b6000826000805160206121a08339815191528114610ac05760405162461bcd60e51b815260040161032a90611faa565b8480600111158015610ad457506002548111155b610af05760405162461bcd60e51b815260040161032a90611ff1565b6000868152600160205260409020600b01610a8385826120df565b6000826000805160206121a08339815191528114610b3b5760405162461bcd60e51b815260040161032a90611faa565b8480600111158015610b4f57506002548111155b610b6b5760405162461bcd60e51b815260040161032a90611ff1565b505050600092835260016020819052604090932060030180546001600160a01b0319166001600160a01b03929092169190911790555090565b6000826000805160206121a08339815191528114610bd45760405162461bcd60e51b815260040161032a90611faa565b8480600111158015610be857506002548111155b610c045760405162461bcd60e51b815260040161032a90611ff1565b6000868152600160205260409020600401610a8385826120df565b6000816000805160206121a08339815191528114610c4f5760405162461bcd60e51b815260040161032a90611faa565b60028054906000610c5f83612069565b9091555050600280546020868101828152600092835260019182905260409283902088518155905191810191909155908601519181019190915560608501516003820180546001600160a01b0319166001600160a01b0390921691909117905560808501518591906004820190610cd690826120df565b5060a08201516005820190610ceb90826120df565b5060c08201516006820190610d0090826120df565b5060e08201516007820190610d1590826120df565b506101008201516008820190610d2b90826120df565b506101208201516009820190610d4190826120df565b50610140820151600a820190610d5790826120df565b50610160820151600b820190610d6d90826120df565b509050507f909ad77f22e0c92af47eb3f445c01071af38cca1b24a4204c243f9d6421568f484604051610da09190611b1b565b60405180910390a15050506020015190565b6000826000805160206121a08339815191528114610de25760405162461bcd60e51b815260040161032a90611faa565b8480600111158015610df657506002548111155b610e125760405162461bcd60e51b815260040161032a90611ff1565b6000868152600160205260409020600a01610a8385826120df565b610e3561193e565b30ff5b6000826000805160206121a08339815191528114610e685760405162461bcd60e51b815260040161032a90611faa565b8480600111158015610e7c57506002548111155b610e985760405162461bcd60e51b815260040161032a90611ff1565b50505060009283526001602081905260409093208301555090565b6000816000805160206121a08339815191528114610ee35760405162461bcd60e51b815260040161032a90611faa565b8380600111158015610ef757506002548111155b610f135760405162461bcd60e51b815260040161032a90611ff1565b6040805161018081018252600080825260208083018281528385018381526060850184815286518085018852858152608087019081528751808601895286815260a08801528751808601895286815260c08801528751808601895286815260e0880152875180860189528681526101008801528751808601895286815261012088015287518086018952868152610140880152875180860189528681526101608801528c865260019485905296909420855181559151928201929092559051600282015590516003820180546001600160a01b0319166001600160a01b03909216919091179055915190918291600482019061100f90826120df565b5060a0820151600582019061102490826120df565b5060c0820151600682019061103990826120df565b5060e0820151600782019061104e90826120df565b50610100820151600882019061106490826120df565b50610120820151600982019061107a90826120df565b50610140820151600a82019061109090826120df565b50610160820151600b8201906110a690826120df565b50600198975050505050505050565b6110bd6119f9565b816000805160206121a083398151915281146110eb5760405162461bcd60e51b815260040161032a90611faa565b83806001111580156110ff57506002548111155b61111b5760405162461bcd60e51b815260040161032a90611ff1565b60008581526001602081815260409283902083516101808101855281548152928101549183019190915260028101549282019290925260038201546001600160a01b0316606082015260048201805491929160808401919061117c90612035565b80601f01602080910402602001604051908101604052809291908181526020018280546111a890612035565b80156111f55780601f106111ca576101008083540402835291602001916111f5565b820191906000526020600020905b8154815290600101906020018083116111d857829003601f168201915b5050505050815260200160058201805461120e90612035565b80601f016020809104026020016040519081016040528092919081815260200182805461123a90612035565b80156112875780601f1061125c57610100808354040283529160200191611287565b820191906000526020600020905b81548152906001019060200180831161126a57829003601f168201915b505050505081526020016006820180546112a090612035565b80601f01602080910402602001604051908101604052809291908181526020018280546112cc90612035565b80156113195780601f106112ee57610100808354040283529160200191611319565b820191906000526020600020905b8154815290600101906020018083116112fc57829003601f168201915b5050505050815260200160078201805461133290612035565b80601f016020809104026020016040519081016040528092919081815260200182805461135e90612035565b80156113ab5780601f10611380576101008083540402835291602001916113ab565b820191906000526020600020905b81548152906001019060200180831161138e57829003601f168201915b505050505081526020016008820180546113c490612035565b80601f01602080910402602001604051908101604052809291908181526020018280546113f090612035565b801561143d5780601f106114125761010080835404028352916020019161143d565b820191906000526020600020905b81548152906001019060200180831161142057829003601f168201915b5050505050815260200160098201805461145690612035565b80601f016020809104026020016040519081016040528092919081815260200182805461148290612035565b80156114cf5780601f106114a4576101008083540402835291602001916114cf565b820191906000526020600020905b8154815290600101906020018083116114b257829003601f168201915b50505050508152602001600a820180546114e890612035565b80601f016020809104026020016040519081016040528092919081815260200182805461151490612035565b80156115615780601f1061153657610100808354040283529160200191611561565b820191906000526020600020905b81548152906001019060200180831161154457829003601f168201915b50505050508152602001600b8201805461157a90612035565b80601f01602080910402602001604051908101604052809291908181526020018280546115a690612035565b80156115f35780601f106115c8576101008083540402835291602001916115f3565b820191906000526020600020905b8154815290600101906020018083116115d657829003601f168201915b5050505050815250509250505092915050565b6000826000805160206121a083398151915281146116365760405162461bcd60e51b815260040161032a90611faa565b848060011115801561164a57506002548111155b6116665760405162461bcd60e51b815260040161032a90611ff1565b6000868152600160205260409020600801610a8385826120df565b6000816000805160206121a083398151915281146116b15760405162461bcd60e51b815260040161032a90611faa565b60015b600254811161170d576000818152600160205260409020600301546001600160a01b038087169116036116fb57600090815260016020819052604090912001549150610988565b8061170581612069565b9150506116b4565b506000949350505050565b6000826000805160206121a083398151915281146117485760405162461bcd60e51b815260040161032a90611faa565b848060011115801561175c57506002548111155b6117785760405162461bcd60e51b815260040161032a90611ff1565b6000868152600160205260409020600901610a8385826120df565b6000826000805160206121a083398151915281146117c35760405162461bcd60e51b815260040161032a90611faa565b84806001111580156117d757506002548111155b6117f35760405162461bcd60e51b815260040161032a90611ff1565b6000868152600160205260409020600501610a8385826120df565b6000826000805160206121a0833981519152811461183e5760405162461bcd60e51b815260040161032a90611faa565b848060011115801561185257506002548111155b61186e5760405162461bcd60e51b815260040161032a90611ff1565b6000868152600160205260409020600601610a8385826120df565b61189161193e565b6001600160a01b0381166118f65760405162461bcd60e51b815260206004820152602660248201527f4f776e61626c653a206e6577206f776e657220697320746865207a65726f206160448201526564647265737360d01b606482015260840161032a565b6118ff816119a9565b50565b6000816000805160206121a083398151915281146119325760405162461bcd60e51b815260040161032a90611faa565b60025491505b50919050565b336119516000546001600160a01b031690565b6001600160a01b0316146119a75760405162461bcd60e51b815260206004820181905260248201527f4f776e61626c653a2063616c6c6572206973206e6f7420746865206f776e6572604482015260640161032a565b565b600080546001600160a01b038381166001600160a01b0319831681178455604051919092169283917f8be0079c531659141344cd1fd0a4f28419497f9722a3daafe3b4186f6b6457e09190a35050565b60405180610180016040528060008152602001600081526020016000815260200160006001600160a01b0316815260200160608152602001606081526020016060815260200160608152602001606081526020016060815260200160608152602001606081525090565b600080600060608486031215611a7857600080fd5b505081359360208301359350604090920135919050565b80356001600160a01b0381168114611aa657600080fd5b919050565b60008060408385031215611abe57600080fd5b611ac783611a8f565b946020939093013593505050565b6000815180845260005b81811015611afb57602081850181015186830182015201611adf565b506000602082860101526020601f19601f83011685010191505092915050565b6020815281516020820152602082015160408201526040820151606082015260006060830151611b5660808401826001600160a01b03169052565b5060808301516101808060a0850152611b736101a0850183611ad5565b915060a0850151601f19808685030160c0870152611b918483611ad5565b935060c08701519150808685030160e0870152611bae8483611ad5565b935060e08701519150610100818786030181880152611bcd8584611ad5565b945080880151925050610120818786030181880152611bec8584611ad5565b945080880151925050610140818786030181880152611c0b8584611ad5565b945080880151925050610160818786030181880152611c2a8584611ad5565b908801518782039092018488015293509050611c468382611ad5565b9695505050505050565b634e487b7160e01b600052604160045260246000fd5b604051610180810167ffffffffffffffff81118282101715611c8a57611c8a611c50565b60405290565b600082601f830112611ca157600080fd5b813567ffffffffffffffff80821115611cbc57611cbc611c50565b604051601f8301601f19908116603f01168101908282118183101715611ce457611ce4611c50565b81604052838152866020858801011115611cfd57600080fd5b836020870160208301376000602085830101528094505050505092915050565b600080600060608486031215611d3257600080fd5b8335925060208401359150604084013567ffffffffffffffff811115611d5757600080fd5b611d6386828701611c90565b9150509250925092565b600080600060608486031215611d8257600080fd5b8335925060208401359150611d9960408501611a8f565b90509250925092565b60008060408385031215611db557600080fd5b823567ffffffffffffffff80821115611dcd57600080fd5b908401906101808287031215611de257600080fd5b611dea611c66565b823581526020830135602082015260408301356040820152611e0e60608401611a8f565b6060820152608083013582811115611e2557600080fd5b611e3188828601611c90565b60808301525060a083013582811115611e4957600080fd5b611e5588828601611c90565b60a08301525060c083013582811115611e6d57600080fd5b611e7988828601611c90565b60c08301525060e083013582811115611e9157600080fd5b611e9d88828601611c90565b60e0830152506101008084013583811115611eb757600080fd5b611ec389828701611c90565b8284015250506101208084013583811115611edd57600080fd5b611ee989828701611c90565b8284015250506101408084013583811115611f0357600080fd5b611f0f89828701611c90565b8284015250506101608084013583811115611f2957600080fd5b611f3589828701611c90565b91830191909152509660209590950135955050505050565b60008060408385031215611f6057600080fd5b50508035926020909101359150565b600060208284031215611f8157600080fd5b611f8a82611a8f565b9392505050565b600060208284031215611fa357600080fd5b5035919050565b60208082526027908201527f4461746162617365204c697374456d706c6f7965653a20536563726574206b656040820152663c9032b93937b960c91b606082015260800190565b60208082526024908201527f4461746162617365204c697374456d706c6f7965653a20496e76616c696420696040820152630dcc8caf60e31b606082015260800190565b600181811c9082168061204957607f821691505b60208210810361193857634e487b7160e01b600052602260045260246000fd5b60006001820161208957634e487b7160e01b600052601160045260246000fd5b5060010190565b601f8211156120da57600081815260208120601f850160051c810160208610156120b75750805b601f850160051c820191505b818110156120d6578281556001016120c3565b5050505b505050565b815167ffffffffffffffff8111156120f9576120f9611c50565b61210d816121078454612035565b84612090565b602080601f831160018114612142576000841561212a5750858301515b600019600386901b1c1916600185901b1785556120d6565b600085815260208120601f198616915b8281101561217157888601518255948401946001909101908401612152565b508582101561218f5787850151600019600388901b60f8161c191681555b5050505050600190811b0190555056fe8e1604a838d0f1a9b2cda14a099e4ceb08e966cc6e05e8296f67b02d61a79f09a2646970667358221220d387eb399daf3df15a55dc547b03c9b0109e89359f428a027508160f68c2fbda64736f6c63430008100033",
					"opcodes": "PUSH1 0x80 PUSH1 0x40 MSTORE PUSH1 0x0 PUSH1 0x2 SSTORE CALLVALUE DUP1 ISZERO PUSH2 0x15 JUMPI PUSH1 0x0 DUP1 REVERT JUMPDEST POP PUSH1 0x0 DUP1 SLOAD PUSH1 0x1 PUSH1 0x1 PUSH1 0xA0 SHL SUB NOT AND CALLER OR SWAP1 SSTORE PUSH2 0x21F5 DUP1 PUSH2 0x37 PUSH1 0x0 CODECOPY PUSH1 0x0 RETURN INVALID PUSH1 0x80 PUSH1 0x40 MSTORE CALLVALUE DUP1 ISZERO PUSH2 0x10 JUMPI PUSH1 0x0 DUP1 REVERT JUMPDEST POP PUSH1 0x4 CALLDATASIZE LT PUSH2 0x137 JUMPI PUSH1 0x0 CALLDATALOAD PUSH1 0xE0 SHR DUP1 PUSH4 0x8827B05F GT PUSH2 0xB8 JUMPI DUP1 PUSH4 0xD32A04C7 GT PUSH2 0x7C JUMPI DUP1 PUSH4 0xD32A04C7 EQ PUSH2 0x288 JUMPI DUP1 PUSH4 0xD45C8ABF EQ PUSH2 0x29B JUMPI DUP1 PUSH4 0xD49CB146 EQ PUSH2 0x2AE JUMPI DUP1 PUSH4 0xE3F34371 EQ PUSH2 0x2C1 JUMPI DUP1 PUSH4 0xF2FDE38B EQ PUSH2 0x2D4 JUMPI DUP1 PUSH4 0xFD82E9DD EQ PUSH2 0x2E7 JUMPI PUSH1 0x0 DUP1 REVERT JUMPDEST DUP1 PUSH4 0x8827B05F EQ PUSH2 0x221 JUMPI DUP1 PUSH4 0x8DA5CB5B EQ PUSH2 0x234 JUMPI DUP1 PUSH4 0xB615C00A EQ PUSH2 0x24F JUMPI DUP1 PUSH4 0xC78A6741 EQ PUSH2 0x262 JUMPI DUP1 PUSH4 0xD2AF71A6 EQ PUSH2 0x275 JUMPI PUSH1 0x0 DUP1 REVERT JUMPDEST DUP1 PUSH4 0x2E22EAFE GT PUSH2 0xFF JUMPI DUP1 PUSH4 0x2E22EAFE EQ PUSH2 0x1BD JUMPI DUP1 PUSH4 0x413896E4 EQ PUSH2 0x1D0 JUMPI DUP1 PUSH4 0x7DCD61BD EQ PUSH2 0x1E3 JUMPI DUP1 PUSH4 0x800F2234 EQ PUSH2 0x204 JUMPI DUP1 PUSH4 0x83197EF0 EQ PUSH2 0x217 JUMPI PUSH1 0x0 DUP1 REVERT JUMPDEST DUP1 PUSH4 0x11A89A5F EQ PUSH2 0x13C JUMPI DUP1 PUSH4 0x236DF93C EQ PUSH2 0x164 JUMPI DUP1 PUSH4 0x294B4B6B EQ PUSH2 0x184 JUMPI DUP1 PUSH4 0x29CD6311 EQ PUSH2 0x197 JUMPI DUP1 PUSH4 0x2C3CE919 EQ PUSH2 0x1AA JUMPI JUMPDEST PUSH1 0x0 DUP1 REVERT JUMPDEST PUSH2 0x14F PUSH2 0x14A CALLDATASIZE PUSH1 0x4 PUSH2 0x1A63 JUMP JUMPDEST PUSH2 0x2FA JUMP JUMPDEST PUSH1 0x40 MLOAD SWAP1 ISZERO ISZERO DUP2 MSTORE PUSH1 0x20 ADD JUMPDEST PUSH1 0x40 MLOAD DUP1 SWAP2 SUB SWAP1 RETURN JUMPDEST PUSH2 0x177 PUSH2 0x172 CALLDATASIZE PUSH1 0x4 PUSH2 0x1AAB JUMP JUMPDEST PUSH2 0x37F JUMP JUMPDEST PUSH1 0x40 MLOAD PUSH2 0x15B SWAP2 SWAP1 PUSH2 0x1B1B JUMP JUMPDEST PUSH2 0x14F PUSH2 0x192 CALLDATASIZE PUSH1 0x4 PUSH2 0x1A63 JUMP JUMPDEST PUSH2 0x98F JUMP JUMPDEST PUSH2 0x14F PUSH2 0x1A5 CALLDATASIZE PUSH1 0x4 PUSH2 0x1D1D JUMP JUMPDEST PUSH2 0xA08 JUMP JUMPDEST PUSH2 0x14F PUSH2 0x1B8 CALLDATASIZE PUSH1 0x4 PUSH2 0x1D1D JUMP JUMPDEST PUSH2 0xA90 JUMP JUMPDEST PUSH2 0x14F PUSH2 0x1CB CALLDATASIZE PUSH1 0x4 PUSH2 0x1D6D JUMP JUMPDEST PUSH2 0xB0B JUMP JUMPDEST PUSH2 0x14F PUSH2 0x1DE CALLDATASIZE PUSH1 0x4 PUSH2 0x1D1D JUMP JUMPDEST PUSH2 0xBA4 JUMP JUMPDEST PUSH2 0x1F6 PUSH2 0x1F1 CALLDATASIZE PUSH1 0x4 PUSH2 0x1DA2 JUMP JUMPDEST PUSH2 0xC1F JUMP JUMPDEST PUSH1 0x40 MLOAD SWAP1 DUP2 MSTORE PUSH1 0x20 ADD PUSH2 0x15B JUMP JUMPDEST PUSH2 0x14F PUSH2 0x212 CALLDATASIZE PUSH1 0x4 PUSH2 0x1D1D JUMP JUMPDEST PUSH2 0xDB2 JUMP JUMPDEST PUSH2 0x21F PUSH2 0xE2D JUMP JUMPDEST STOP JUMPDEST PUSH2 0x14F PUSH2 0x22F CALLDATASIZE PUSH1 0x4 PUSH2 0x1A63 JUMP JUMPDEST PUSH2 0xE38 JUMP JUMPDEST PUSH1 0x0 SLOAD PUSH1 0x40 MLOAD PUSH1 0x1 PUSH1 0x1 PUSH1 0xA0 SHL SUB SWAP1 SWAP2 AND DUP2 MSTORE PUSH1 0x20 ADD PUSH2 0x15B JUMP JUMPDEST PUSH2 0x14F PUSH2 0x25D CALLDATASIZE PUSH1 0x4 PUSH2 0x1F4D JUMP JUMPDEST PUSH2 0xEB3 JUMP JUMPDEST PUSH2 0x177 PUSH2 0x270 CALLDATASIZE PUSH1 0x4 PUSH2 0x1F4D JUMP JUMPDEST PUSH2 0x10B5 JUMP JUMPDEST PUSH2 0x14F PUSH2 0x283 CALLDATASIZE PUSH1 0x4 PUSH2 0x1D1D JUMP JUMPDEST PUSH2 0x1606 JUMP JUMPDEST PUSH2 0x1F6 PUSH2 0x296 CALLDATASIZE PUSH1 0x4 PUSH2 0x1AAB JUMP JUMPDEST PUSH2 0x1681 JUMP JUMPDEST PUSH2 0x14F PUSH2 0x2A9 CALLDATASIZE PUSH1 0x4 PUSH2 0x1D1D JUMP JUMPDEST PUSH2 0x1718 JUMP JUMPDEST PUSH2 0x14F PUSH2 0x2BC CALLDATASIZE PUSH1 0x4 PUSH2 0x1D1D JUMP JUMPDEST PUSH2 0x1793 JUMP JUMPDEST PUSH2 0x14F PUSH2 0x2CF CALLDATASIZE PUSH1 0x4 PUSH2 0x1D1D JUMP JUMPDEST PUSH2 0x180E JUMP JUMPDEST PUSH2 0x21F PUSH2 0x2E2 CALLDATASIZE PUSH1 0x4 PUSH2 0x1F6F JUMP JUMPDEST PUSH2 0x1889 JUMP JUMPDEST PUSH2 0x1F6 PUSH2 0x2F5 CALLDATASIZE PUSH1 0x4 PUSH2 0x1F91 JUMP JUMPDEST PUSH2 0x1902 JUMP JUMPDEST PUSH1 0x0 DUP3 PUSH1 0x0 DUP1 MLOAD PUSH1 0x20 PUSH2 0x21A0 DUP4 CODECOPY DUP2 MLOAD SWAP2 MSTORE DUP2 EQ PUSH2 0x333 JUMPI PUSH1 0x40 MLOAD PUSH3 0x461BCD PUSH1 0xE5 SHL DUP2 MSTORE PUSH1 0x4 ADD PUSH2 0x32A SWAP1 PUSH2 0x1FAA JUMP JUMPDEST PUSH1 0x40 MLOAD DUP1 SWAP2 SUB SWAP1 REVERT JUMPDEST DUP5 DUP1 PUSH1 0x1 GT ISZERO DUP1 ISZERO PUSH2 0x347 JUMPI POP PUSH1 0x2 SLOAD DUP2 GT ISZERO JUMPDEST PUSH2 0x363 JUMPI PUSH1 0x40 MLOAD PUSH3 0x461BCD PUSH1 0xE5 SHL DUP2 MSTORE PUSH1 0x4 ADD PUSH2 0x32A SWAP1 PUSH2 0x1FF1 JUMP JUMPDEST POP POP POP PUSH1 0x0 SWAP3 DUP4 MSTORE PUSH1 0x1 PUSH1 0x20 DUP2 SWAP1 MSTORE PUSH1 0x40 SWAP1 SWAP4 KECCAK256 PUSH1 0x2 ADD SSTORE POP SWAP1 JUMP JUMPDEST PUSH2 0x387 PUSH2 0x19F9 JUMP JUMPDEST DUP2 PUSH1 0x0 DUP1 MLOAD PUSH1 0x20 PUSH2 0x21A0 DUP4 CODECOPY DUP2 MLOAD SWAP2 MSTORE DUP2 EQ PUSH2 0x3B5 JUMPI PUSH1 0x40 MLOAD PUSH3 0x461BCD PUSH1 0xE5 SHL DUP2 MSTORE PUSH1 0x4 ADD PUSH2 0x32A SWAP1 PUSH2 0x1FAA JUMP JUMPDEST PUSH1 0x1 JUMPDEST PUSH1 0x2 SLOAD DUP2 GT PUSH2 0x8E0 JUMPI PUSH1 0x0 DUP2 DUP2 MSTORE PUSH1 0x1 PUSH1 0x20 MSTORE PUSH1 0x40 SWAP1 KECCAK256 PUSH1 0x3 ADD SLOAD PUSH1 0x1 PUSH1 0x1 PUSH1 0xA0 SHL SUB DUP1 DUP8 AND SWAP2 AND SUB PUSH2 0x8CE JUMPI PUSH1 0x0 DUP2 DUP2 MSTORE PUSH1 0x1 PUSH1 0x20 DUP2 DUP2 MSTORE PUSH1 0x40 SWAP3 DUP4 SWAP1 KECCAK256 DUP4 MLOAD PUSH2 0x180 DUP2 ADD DUP6 MSTORE DUP2 SLOAD DUP2 MSTORE SWAP3 DUP2 ADD SLOAD SWAP2 DUP4 ADD SWAP2 SWAP1 SWAP2 MSTORE PUSH1 0x2 DUP2 ADD SLOAD SWAP3 DUP3 ADD SWAP3 SWAP1 SWAP3 MSTORE PUSH1 0x3 DUP3 ADD SLOAD PUSH1 0x1 PUSH1 0x1 PUSH1 0xA0 SHL SUB AND PUSH1 0x60 DUP3 ADD MSTORE PUSH1 0x4 DUP3 ADD DUP1 SLOAD SWAP2 SWAP3 SWAP2 PUSH1 0x80 DUP5 ADD SWAP2 SWAP1 PUSH2 0x446 SWAP1 PUSH2 0x2035 JUMP JUMPDEST DUP1 PUSH1 0x1F ADD PUSH1 0x20 DUP1 SWAP2 DIV MUL PUSH1 0x20 ADD PUSH1 0x40 MLOAD SWAP1 DUP2 ADD PUSH1 0x40 MSTORE DUP1 SWAP3 SWAP2 SWAP1 DUP2 DUP2 MSTORE PUSH1 0x20 ADD DUP3 DUP1 SLOAD PUSH2 0x472 SWAP1 PUSH2 0x2035 JUMP JUMPDEST DUP1 ISZERO PUSH2 0x4BF JUMPI DUP1 PUSH1 0x1F LT PUSH2 0x494 JUMPI PUSH2 0x100 DUP1 DUP4 SLOAD DIV MUL DUP4 MSTORE SWAP2 PUSH1 0x20 ADD SWAP2 PUSH2 0x4BF JUMP JUMPDEST DUP3 ADD SWAP2 SWAP1 PUSH1 0x0 MSTORE PUSH1 0x20 PUSH1 0x0 KECCAK256 SWAP1 JUMPDEST DUP2 SLOAD DUP2 MSTORE SWAP1 PUSH1 0x1 ADD SWAP1 PUSH1 0x20 ADD DUP1 DUP4 GT PUSH2 0x4A2 JUMPI DUP3 SWAP1 SUB PUSH1 0x1F AND DUP3 ADD SWAP2 JUMPDEST POP POP POP POP POP DUP2 MSTORE PUSH1 0x20 ADD PUSH1 0x5 DUP3 ADD DUP1 SLOAD PUSH2 0x4D8 SWAP1 PUSH2 0x2035 JUMP JUMPDEST DUP1 PUSH1 0x1F ADD PUSH1 0x20 DUP1 SWAP2 DIV MUL PUSH1 0x20 ADD PUSH1 0x40 MLOAD SWAP1 DUP2 ADD PUSH1 0x40 MSTORE DUP1 SWAP3 SWAP2 SWAP1 DUP2 DUP2 MSTORE PUSH1 0x20 ADD DUP3 DUP1 SLOAD PUSH2 0x504 SWAP1 PUSH2 0x2035 JUMP JUMPDEST DUP1 ISZERO PUSH2 0x551 JUMPI DUP1 PUSH1 0x1F LT PUSH2 0x526 JUMPI PUSH2 0x100 DUP1 DUP4 SLOAD DIV MUL DUP4 MSTORE SWAP2 PUSH1 0x20 ADD SWAP2 PUSH2 0x551 JUMP JUMPDEST DUP3 ADD SWAP2 SWAP1 PUSH1 0x0 MSTORE PUSH1 0x20 PUSH1 0x0 KECCAK256 SWAP1 JUMPDEST DUP2 SLOAD DUP2 MSTORE SWAP1 PUSH1 0x1 ADD SWAP1 PUSH1 0x20 ADD DUP1 DUP4 GT PUSH2 0x534 JUMPI DUP3 SWAP1 SUB PUSH1 0x1F AND DUP3 ADD SWAP2 JUMPDEST POP POP POP POP POP DUP2 MSTORE PUSH1 0x20 ADD PUSH1 0x6 DUP3 ADD DUP1 SLOAD PUSH2 0x56A SWAP1 PUSH2 0x2035 JUMP JUMPDEST DUP1 PUSH1 0x1F ADD PUSH1 0x20 DUP1 SWAP2 DIV MUL PUSH1 0x20 ADD PUSH1 0x40 MLOAD SWAP1 DUP2 ADD PUSH1 0x40 MSTORE DUP1 SWAP3 SWAP2 SWAP1 DUP2 DUP2 MSTORE PUSH1 0x20 ADD DUP3 DUP1 SLOAD PUSH2 0x596 SWAP1 PUSH2 0x2035 JUMP JUMPDEST DUP1 ISZERO PUSH2 0x5E3 JUMPI DUP1 PUSH1 0x1F LT PUSH2 0x5B8 JUMPI PUSH2 0x100 DUP1 DUP4 SLOAD DIV MUL DUP4 MSTORE SWAP2 PUSH1 0x20 ADD SWAP2 PUSH2 0x5E3 JUMP JUMPDEST DUP3 ADD SWAP2 SWAP1 PUSH1 0x0 MSTORE PUSH1 0x20 PUSH1 0x0 KECCAK256 SWAP1 JUMPDEST DUP2 SLOAD DUP2 MSTORE SWAP1 PUSH1 0x1 ADD SWAP1 PUSH1 0x20 ADD DUP1 DUP4 GT PUSH2 0x5C6 JUMPI DUP3 SWAP1 SUB PUSH1 0x1F AND DUP3 ADD SWAP2 JUMPDEST POP POP POP POP POP DUP2 MSTORE PUSH1 0x20 ADD PUSH1 0x7 DUP3 ADD DUP1 SLOAD PUSH2 0x5FC SWAP1 PUSH2 0x2035 JUMP JUMPDEST DUP1 PUSH1 0x1F ADD PUSH1 0x20 DUP1 SWAP2 DIV MUL PUSH1 0x20 ADD PUSH1 0x40 MLOAD SWAP1 DUP2 ADD PUSH1 0x40 MSTORE DUP1 SWAP3 SWAP2 SWAP1 DUP2 DUP2 MSTORE PUSH1 0x20 ADD DUP3 DUP1 SLOAD PUSH2 0x628 SWAP1 PUSH2 0x2035 JUMP JUMPDEST DUP1 ISZERO PUSH2 0x675 JUMPI DUP1 PUSH1 0x1F LT PUSH2 0x64A JUMPI PUSH2 0x100 DUP1 DUP4 SLOAD DIV MUL DUP4 MSTORE SWAP2 PUSH1 0x20 ADD SWAP2 PUSH2 0x675 JUMP JUMPDEST DUP3 ADD SWAP2 SWAP1 PUSH1 0x0 MSTORE PUSH1 0x20 PUSH1 0x0 KECCAK256 SWAP1 JUMPDEST DUP2 SLOAD DUP2 MSTORE SWAP1 PUSH1 0x1 ADD SWAP1 PUSH1 0x20 ADD DUP1 DUP4 GT PUSH2 0x658 JUMPI DUP3 SWAP1 SUB PUSH1 0x1F AND DUP3 ADD SWAP2 JUMPDEST POP POP POP POP POP DUP2 MSTORE PUSH1 0x20 ADD PUSH1 0x8 DUP3 ADD DUP1 SLOAD PUSH2 0x68E SWAP1 PUSH2 0x2035 JUMP JUMPDEST DUP1 PUSH1 0x1F ADD PUSH1 0x20 DUP1 SWAP2 DIV MUL PUSH1 0x20 ADD PUSH1 0x40 MLOAD SWAP1 DUP2 ADD PUSH1 0x40 MSTORE DUP1 SWAP3 SWAP2 SWAP1 DUP2 DUP2 MSTORE PUSH1 0x20 ADD DUP3 DUP1 SLOAD PUSH2 0x6BA SWAP1 PUSH2 0x2035 JUMP JUMPDEST DUP1 ISZERO PUSH2 0x707 JUMPI DUP1 PUSH1 0x1F LT PUSH2 0x6DC JUMPI PUSH2 0x100 DUP1 DUP4 SLOAD DIV MUL DUP4 MSTORE SWAP2 PUSH1 0x20 ADD SWAP2 PUSH2 0x707 JUMP JUMPDEST DUP3 ADD SWAP2 SWAP1 PUSH1 0x0 MSTORE PUSH1 0x20 PUSH1 0x0 KECCAK256 SWAP1 JUMPDEST DUP2 SLOAD DUP2 MSTORE SWAP1 PUSH1 0x1 ADD SWAP1 PUSH1 0x20 ADD DUP1 DUP4 GT PUSH2 0x6EA JUMPI DUP3 SWAP1 SUB PUSH1 0x1F AND DUP3 ADD SWAP2 JUMPDEST POP POP POP POP POP DUP2 MSTORE PUSH1 0x20 ADD PUSH1 0x9 DUP3 ADD DUP1 SLOAD PUSH2 0x720 SWAP1 PUSH2 0x2035 JUMP JUMPDEST DUP1 PUSH1 0x1F ADD PUSH1 0x20 DUP1 SWAP2 DIV MUL PUSH1 0x20 ADD PUSH1 0x40 MLOAD SWAP1 DUP2 ADD PUSH1 0x40 MSTORE DUP1 SWAP3 SWAP2 SWAP1 DUP2 DUP2 MSTORE PUSH1 0x20 ADD DUP3 DUP1 SLOAD PUSH2 0x74C SWAP1 PUSH2 0x2035 JUMP JUMPDEST DUP1 ISZERO PUSH2 0x799 JUMPI DUP1 PUSH1 0x1F LT PUSH2 0x76E JUMPI PUSH2 0x100 DUP1 DUP4 SLOAD DIV MUL DUP4 MSTORE SWAP2 PUSH1 0x20 ADD SWAP2 PUSH2 0x799 JUMP JUMPDEST DUP3 ADD SWAP2 SWAP1 PUSH1 0x0 MSTORE PUSH1 0x20 PUSH1 0x0 KECCAK256 SWAP1 JUMPDEST DUP2 SLOAD DUP2 MSTORE SWAP1 PUSH1 0x1 ADD SWAP1 PUSH1 0x20 ADD DUP1 DUP4 GT PUSH2 0x77C JUMPI DUP3 SWAP1 SUB PUSH1 0x1F AND DUP3 ADD SWAP2 JUMPDEST POP POP POP POP POP DUP2 MSTORE PUSH1 0x20 ADD PUSH1 0xA DUP3 ADD DUP1 SLOAD PUSH2 0x7B2 SWAP1 PUSH2 0x2035 JUMP JUMPDEST DUP1 PUSH1 0x1F ADD PUSH1 0x20 DUP1 SWAP2 DIV MUL PUSH1 0x20 ADD PUSH1 0x40 MLOAD SWAP1 DUP2 ADD PUSH1 0x40 MSTORE DUP1 SWAP3 SWAP2 SWAP1 DUP2 DUP2 MSTORE PUSH1 0x20 ADD DUP3 DUP1 SLOAD PUSH2 0x7DE SWAP1 PUSH2 0x2035 JUMP JUMPDEST DUP1 ISZERO PUSH2 0x82B JUMPI DUP1 PUSH1 0x1F LT PUSH2 0x800 JUMPI PUSH2 0x100 DUP1 DUP4 SLOAD DIV MUL DUP4 MSTORE SWAP2 PUSH1 0x20 ADD SWAP2 PUSH2 0x82B JUMP JUMPDEST DUP3 ADD SWAP2 SWAP1 PUSH1 0x0 MSTORE PUSH1 0x20 PUSH1 0x0 KECCAK256 SWAP1 JUMPDEST DUP2 SLOAD DUP2 MSTORE SWAP1 PUSH1 0x1 ADD SWAP1 PUSH1 0x20 ADD DUP1 DUP4 GT PUSH2 0x80E JUMPI DUP3 SWAP1 SUB PUSH1 0x1F AND DUP3 ADD SWAP2 JUMPDEST POP POP POP POP POP DUP2 MSTORE PUSH1 0x20 ADD PUSH1 0xB DUP3 ADD DUP1 SLOAD PUSH2 0x844 SWAP1 PUSH2 0x2035 JUMP JUMPDEST DUP1 PUSH1 0x1F ADD PUSH1 0x20 DUP1 SWAP2 DIV MUL PUSH1 0x20 ADD PUSH1 0x40 MLOAD SWAP1 DUP2 ADD PUSH1 0x40 MSTORE DUP1 SWAP3 SWAP2 SWAP1 DUP2 DUP2 MSTORE PUSH1 0x20 ADD DUP3 DUP1 SLOAD PUSH2 0x870 SWAP1 PUSH2 0x2035 JUMP JUMPDEST DUP1 ISZERO PUSH2 0x8BD JUMPI DUP1 PUSH1 0x1F LT PUSH2 0x892 JUMPI PUSH2 0x100 DUP1 DUP4 SLOAD DIV MUL DUP4 MSTORE SWAP2 PUSH1 0x20 ADD SWAP2 PUSH2 0x8BD JUMP JUMPDEST DUP3 ADD SWAP2 SWAP1 PUSH1 0x0 MSTORE PUSH1 0x20 PUSH1 0x0 KECCAK256 SWAP1 JUMPDEST DUP2 SLOAD DUP2 MSTORE SWAP1 PUSH1 0x1 ADD SWAP1 PUSH1 0x20 ADD DUP1 DUP4 GT PUSH2 0x8A0 JUMPI DUP3 SWAP1 SUB PUSH1 0x1F AND DUP3 ADD SWAP2 JUMPDEST POP POP POP POP POP DUP2 MSTORE POP POP SWAP3 POP POP PUSH2 0x988 JUMP JUMPDEST DUP1 PUSH2 0x8D8 DUP2 PUSH2 0x2069 JUMP JUMPDEST SWAP2 POP POP PUSH2 0x3B8 JUMP JUMPDEST POP PUSH1 0x40 DUP1 MLOAD PUSH2 0x180 DUP2 ADD DUP3 MSTORE PUSH1 0x0 DUP1 DUP3 MSTORE PUSH1 0x20 DUP1 DUP4 ADD DUP3 SWAP1 MSTORE DUP3 DUP5 ADD DUP3 SWAP1 MSTORE PUSH1 0x60 DUP4 ADD DUP3 SWAP1 MSTORE DUP4 MLOAD DUP1 DUP3 ADD DUP6 MSTORE DUP3 DUP2 MSTORE PUSH1 0x80 DUP5 ADD MSTORE DUP4 MLOAD DUP1 DUP3 ADD DUP6 MSTORE DUP3 DUP2 MSTORE PUSH1 0xA0 DUP5 ADD MSTORE DUP4 MLOAD DUP1 DUP3 ADD DUP6 MSTORE DUP3 DUP2 MSTORE PUSH1 0xC0 DUP5 ADD MSTORE DUP4 MLOAD DUP1 DUP3 ADD DUP6 MSTORE DUP3 DUP2 MSTORE PUSH1 0xE0 DUP5 ADD MSTORE DUP4 MLOAD DUP1 DUP3 ADD DUP6 MSTORE DUP3 DUP2 MSTORE PUSH2 0x100 DUP5 ADD MSTORE DUP4 MLOAD DUP1 DUP3 ADD DUP6 MSTORE DUP3 DUP2 MSTORE PUSH2 0x120 DUP5 ADD MSTORE DUP4 MLOAD DUP1 DUP3 ADD DUP6 MSTORE DUP3 DUP2 MSTORE PUSH2 0x140 DUP5 ADD MSTORE DUP4 MLOAD SWAP1 DUP2 ADD SWAP1 SWAP4 MSTORE DUP3 MSTORE PUSH2 0x160 DUP2 ADD SWAP2 SWAP1 SWAP2 MSTORE SWAP2 POP JUMPDEST POP SWAP3 SWAP2 POP POP JUMP JUMPDEST PUSH1 0x0 DUP3 PUSH1 0x0 DUP1 MLOAD PUSH1 0x20 PUSH2 0x21A0 DUP4 CODECOPY DUP2 MLOAD SWAP2 MSTORE DUP2 EQ PUSH2 0x9BF JUMPI PUSH1 0x40 MLOAD PUSH3 0x461BCD PUSH1 0xE5 SHL DUP2 MSTORE PUSH1 0x4 ADD PUSH2 0x32A SWAP1 PUSH2 0x1FAA JUMP JUMPDEST DUP5 DUP1 PUSH1 0x1 GT ISZERO DUP1 ISZERO PUSH2 0x9D3 JUMPI POP PUSH1 0x2 SLOAD DUP2 GT ISZERO JUMPDEST PUSH2 0x9EF JUMPI PUSH1 0x40 MLOAD PUSH3 0x461BCD PUSH1 0xE5 SHL DUP2 MSTORE PUSH1 0x4 ADD PUSH2 0x32A SWAP1 PUSH2 0x1FF1 JUMP JUMPDEST POP POP POP PUSH1 0x0 SWAP3 DUP4 MSTORE PUSH1 0x1 PUSH1 0x20 DUP2 SWAP1 MSTORE PUSH1 0x40 SWAP1 SWAP4 KECCAK256 SSTORE POP SWAP1 JUMP JUMPDEST PUSH1 0x0 DUP3 PUSH1 0x0 DUP1 MLOAD PUSH1 0x20 PUSH2 0x21A0 DUP4 CODECOPY DUP2 MLOAD SWAP2 MSTORE DUP2 EQ PUSH2 0xA38 JUMPI PUSH1 0x40 MLOAD PUSH3 0x461BCD PUSH1 0xE5 SHL DUP2 MSTORE PUSH1 0x4 ADD PUSH2 0x32A SWAP1 PUSH2 0x1FAA JUMP JUMPDEST DUP5 DUP1 PUSH1 0x1 GT ISZERO DUP1 ISZERO PUSH2 0xA4C JUMPI POP PUSH1 0x2 SLOAD DUP2 GT ISZERO JUMPDEST PUSH2 0xA68 JUMPI PUSH1 0x40 MLOAD PUSH3 0x461BCD PUSH1 0xE5 SHL DUP2 MSTORE PUSH1 0x4 ADD PUSH2 0x32A SWAP1 PUSH2 0x1FF1 JUMP JUMPDEST PUSH1 0x0 DUP7 DUP2 MSTORE PUSH1 0x1 PUSH1 0x20 MSTORE PUSH1 0x40 SWAP1 KECCAK256 PUSH1 0x7 ADD PUSH2 0xA83 DUP6 DUP3 PUSH2 0x20DF JUMP JUMPDEST POP PUSH1 0x1 SWAP7 SWAP6 POP POP POP POP POP POP JUMP JUMPDEST PUSH1 0x0 DUP3 PUSH1 0x0 DUP1 MLOAD PUSH1 0x20 PUSH2 0x21A0 DUP4 CODECOPY DUP2 MLOAD SWAP2 MSTORE DUP2 EQ PUSH2 0xAC0 JUMPI PUSH1 0x40 MLOAD PUSH3 0x461BCD PUSH1 0xE5 SHL DUP2 MSTORE PUSH1 0x4 ADD PUSH2 0x32A SWAP1 PUSH2 0x1FAA JUMP JUMPDEST DUP5 DUP1 PUSH1 0x1 GT ISZERO DUP1 ISZERO PUSH2 0xAD4 JUMPI POP PUSH1 0x2 SLOAD DUP2 GT ISZERO JUMPDEST PUSH2 0xAF0 JUMPI PUSH1 0x40 MLOAD PUSH3 0x461BCD PUSH1 0xE5 SHL DUP2 MSTORE PUSH1 0x4 ADD PUSH2 0x32A SWAP1 PUSH2 0x1FF1 JUMP JUMPDEST PUSH1 0x0 DUP7 DUP2 MSTORE PUSH1 0x1 PUSH1 0x20 MSTORE PUSH1 0x40 SWAP1 KECCAK256 PUSH1 0xB ADD PUSH2 0xA83 DUP6 DUP3 PUSH2 0x20DF JUMP JUMPDEST PUSH1 0x0 DUP3 PUSH1 0x0 DUP1 MLOAD PUSH1 0x20 PUSH2 0x21A0 DUP4 CODECOPY DUP2 MLOAD SWAP2 MSTORE DUP2 EQ PUSH2 0xB3B JUMPI PUSH1 0x40 MLOAD PUSH3 0x461BCD PUSH1 0xE5 SHL DUP2 MSTORE PUSH1 0x4 ADD PUSH2 0x32A SWAP1 PUSH2 0x1FAA JUMP JUMPDEST DUP5 DUP1 PUSH1 0x1 GT ISZERO DUP1 ISZERO PUSH2 0xB4F JUMPI POP PUSH1 0x2 SLOAD DUP2 GT ISZERO JUMPDEST PUSH2 0xB6B JUMPI PUSH1 0x40 MLOAD PUSH3 0x461BCD PUSH1 0xE5 SHL DUP2 MSTORE PUSH1 0x4 ADD PUSH2 0x32A SWAP1 PUSH2 0x1FF1 JUMP JUMPDEST POP POP POP PUSH1 0x0 SWAP3 DUP4 MSTORE PUSH1 0x1 PUSH1 0x20 DUP2 SWAP1 MSTORE PUSH1 0x40 SWAP1 SWAP4 KECCAK256 PUSH1 0x3 ADD DUP1 SLOAD PUSH1 0x1 PUSH1 0x1 PUSH1 0xA0 SHL SUB NOT AND PUSH1 0x1 PUSH1 0x1 PUSH1 0xA0 SHL SUB SWAP3 SWAP1 SWAP3 AND SWAP2 SWAP1 SWAP2 OR SWAP1 SSTORE POP SWAP1 JUMP JUMPDEST PUSH1 0x0 DUP3 PUSH1 0x0 DUP1 MLOAD PUSH1 0x20 PUSH2 0x21A0 DUP4 CODECOPY DUP2 MLOAD SWAP2 MSTORE DUP2 EQ PUSH2 0xBD4 JUMPI PUSH1 0x40 MLOAD PUSH3 0x461BCD PUSH1 0xE5 SHL DUP2 MSTORE PUSH1 0x4 ADD PUSH2 0x32A SWAP1 PUSH2 0x1FAA JUMP JUMPDEST DUP5 DUP1 PUSH1 0x1 GT ISZERO DUP1 ISZERO PUSH2 0xBE8 JUMPI POP PUSH1 0x2 SLOAD DUP2 GT ISZERO JUMPDEST PUSH2 0xC04 JUMPI PUSH1 0x40 MLOAD PUSH3 0x461BCD PUSH1 0xE5 SHL DUP2 MSTORE PUSH1 0x4 ADD PUSH2 0x32A SWAP1 PUSH2 0x1FF1 JUMP JUMPDEST PUSH1 0x0 DUP7 DUP2 MSTORE PUSH1 0x1 PUSH1 0x20 MSTORE PUSH1 0x40 SWAP1 KECCAK256 PUSH1 0x4 ADD PUSH2 0xA83 DUP6 DUP3 PUSH2 0x20DF JUMP JUMPDEST PUSH1 0x0 DUP2 PUSH1 0x0 DUP1 MLOAD PUSH1 0x20 PUSH2 0x21A0 DUP4 CODECOPY DUP2 MLOAD SWAP2 MSTORE DUP2 EQ PUSH2 0xC4F JUMPI PUSH1 0x40 MLOAD PUSH3 0x461BCD PUSH1 0xE5 SHL DUP2 MSTORE PUSH1 0x4 ADD PUSH2 0x32A SWAP1 PUSH2 0x1FAA JUMP JUMPDEST PUSH1 0x2 DUP1 SLOAD SWAP1 PUSH1 0x0 PUSH2 0xC5F DUP4 PUSH2 0x2069 JUMP JUMPDEST SWAP1 SWAP2 SSTORE POP POP PUSH1 0x2 DUP1 SLOAD PUSH1 0x20 DUP7 DUP2 ADD DUP3 DUP2 MSTORE PUSH1 0x0 SWAP3 DUP4 MSTORE PUSH1 0x1 SWAP2 DUP3 SWAP1 MSTORE PUSH1 0x40 SWAP3 DUP4 SWAP1 KECCAK256 DUP9 MLOAD DUP2 SSTORE SWAP1 MLOAD SWAP2 DUP2 ADD SWAP2 SWAP1 SWAP2 SSTORE SWAP1 DUP7 ADD MLOAD SWAP2 DUP2 ADD SWAP2 SWAP1 SWAP2 SSTORE PUSH1 0x60 DUP6 ADD MLOAD PUSH1 0x3 DUP3 ADD DUP1 SLOAD PUSH1 0x1 PUSH1 0x1 PUSH1 0xA0 SHL SUB NOT AND PUSH1 0x1 PUSH1 0x1 PUSH1 0xA0 SHL SUB SWAP1 SWAP3 AND SWAP2 SWAP1 SWAP2 OR SWAP1 SSTORE PUSH1 0x80 DUP6 ADD MLOAD DUP6 SWAP2 SWAP1 PUSH1 0x4 DUP3 ADD SWAP1 PUSH2 0xCD6 SWAP1 DUP3 PUSH2 0x20DF JUMP JUMPDEST POP PUSH1 0xA0 DUP3 ADD MLOAD PUSH1 0x5 DUP3 ADD SWAP1 PUSH2 0xCEB SWAP1 DUP3 PUSH2 0x20DF JUMP JUMPDEST POP PUSH1 0xC0 DUP3 ADD MLOAD PUSH1 0x6 DUP3 ADD SWAP1 PUSH2 0xD00 SWAP1 DUP3 PUSH2 0x20DF JUMP JUMPDEST POP PUSH1 0xE0 DUP3 ADD MLOAD PUSH1 0x7 DUP3 ADD SWAP1 PUSH2 0xD15 SWAP1 DUP3 PUSH2 0x20DF JUMP JUMPDEST POP PUSH2 0x100 DUP3 ADD MLOAD PUSH1 0x8 DUP3 ADD SWAP1 PUSH2 0xD2B SWAP1 DUP3 PUSH2 0x20DF JUMP JUMPDEST POP PUSH2 0x120 DUP3 ADD MLOAD PUSH1 0x9 DUP3 ADD SWAP1 PUSH2 0xD41 SWAP1 DUP3 PUSH2 0x20DF JUMP JUMPDEST POP PUSH2 0x140 DUP3 ADD MLOAD PUSH1 0xA DUP3 ADD SWAP1 PUSH2 0xD57 SWAP1 DUP3 PUSH2 0x20DF JUMP JUMPDEST POP PUSH2 0x160 DUP3 ADD MLOAD PUSH1 0xB DUP3 ADD SWAP1 PUSH2 0xD6D SWAP1 DUP3 PUSH2 0x20DF JUMP JUMPDEST POP SWAP1 POP POP PUSH32 0x909AD77F22E0C92AF47EB3F445C01071AF38CCA1B24A4204C243F9D6421568F4 DUP5 PUSH1 0x40 MLOAD PUSH2 0xDA0 SWAP2 SWAP1 PUSH2 0x1B1B JUMP JUMPDEST PUSH1 0x40 MLOAD DUP1 SWAP2 SUB SWAP1 LOG1 POP POP POP PUSH1 0x20 ADD MLOAD SWAP1 JUMP JUMPDEST PUSH1 0x0 DUP3 PUSH1 0x0 DUP1 MLOAD PUSH1 0x20 PUSH2 0x21A0 DUP4 CODECOPY DUP2 MLOAD SWAP2 MSTORE DUP2 EQ PUSH2 0xDE2 JUMPI PUSH1 0x40 MLOAD PUSH3 0x461BCD PUSH1 0xE5 SHL DUP2 MSTORE PUSH1 0x4 ADD PUSH2 0x32A SWAP1 PUSH2 0x1FAA JUMP JUMPDEST DUP5 DUP1 PUSH1 0x1 GT ISZERO DUP1 ISZERO PUSH2 0xDF6 JUMPI POP PUSH1 0x2 SLOAD DUP2 GT ISZERO JUMPDEST PUSH2 0xE12 JUMPI PUSH1 0x40 MLOAD PUSH3 0x461BCD PUSH1 0xE5 SHL DUP2 MSTORE PUSH1 0x4 ADD PUSH2 0x32A SWAP1 PUSH2 0x1FF1 JUMP JUMPDEST PUSH1 0x0 DUP7 DUP2 MSTORE PUSH1 0x1 PUSH1 0x20 MSTORE PUSH1 0x40 SWAP1 KECCAK256 PUSH1 0xA ADD PUSH2 0xA83 DUP6 DUP3 PUSH2 0x20DF JUMP JUMPDEST PUSH2 0xE35 PUSH2 0x193E JUMP JUMPDEST ADDRESS SELFDESTRUCT JUMPDEST PUSH1 0x0 DUP3 PUSH1 0x0 DUP1 MLOAD PUSH1 0x20 PUSH2 0x21A0 DUP4 CODECOPY DUP2 MLOAD SWAP2 MSTORE DUP2 EQ PUSH2 0xE68 JUMPI PUSH1 0x40 MLOAD PUSH3 0x461BCD PUSH1 0xE5 SHL DUP2 MSTORE PUSH1 0x4 ADD PUSH2 0x32A SWAP1 PUSH2 0x1FAA JUMP JUMPDEST DUP5 DUP1 PUSH1 0x1 GT ISZERO DUP1 ISZERO PUSH2 0xE7C JUMPI POP PUSH1 0x2 SLOAD DUP2 GT ISZERO JUMPDEST PUSH2 0xE98 JUMPI PUSH1 0x40 MLOAD PUSH3 0x461BCD PUSH1 0xE5 SHL DUP2 MSTORE PUSH1 0x4 ADD PUSH2 0x32A SWAP1 PUSH2 0x1FF1 JUMP JUMPDEST POP POP POP PUSH1 0x0 SWAP3 DUP4 MSTORE PUSH1 0x1 PUSH1 0x20 DUP2 SWAP1 MSTORE PUSH1 0x40 SWAP1 SWAP4 KECCAK256 DUP4 ADD SSTORE POP SWAP1 JUMP JUMPDEST PUSH1 0x0 DUP2 PUSH1 0x0 DUP1 MLOAD PUSH1 0x20 PUSH2 0x21A0 DUP4 CODECOPY DUP2 MLOAD SWAP2 MSTORE DUP2 EQ PUSH2 0xEE3 JUMPI PUSH1 0x40 MLOAD PUSH3 0x461BCD PUSH1 0xE5 SHL DUP2 MSTORE PUSH1 0x4 ADD PUSH2 0x32A SWAP1 PUSH2 0x1FAA JUMP JUMPDEST DUP4 DUP1 PUSH1 0x1 GT ISZERO DUP1 ISZERO PUSH2 0xEF7 JUMPI POP PUSH1 0x2 SLOAD DUP2 GT ISZERO JUMPDEST PUSH2 0xF13 JUMPI PUSH1 0x40 MLOAD PUSH3 0x461BCD PUSH1 0xE5 SHL DUP2 MSTORE PUSH1 0x4 ADD PUSH2 0x32A SWAP1 PUSH2 0x1FF1 JUMP JUMPDEST PUSH1 0x40 DUP1 MLOAD PUSH2 0x180 DUP2 ADD DUP3 MSTORE PUSH1 0x0 DUP1 DUP3 MSTORE PUSH1 0x20 DUP1 DUP4 ADD DUP3 DUP2 MSTORE DUP4 DUP6 ADD DUP4 DUP2 MSTORE PUSH1 0x60 DUP6 ADD DUP5 DUP2 MSTORE DUP7 MLOAD DUP1 DUP6 ADD DUP9 MSTORE DUP6 DUP2 MSTORE PUSH1 0x80 DUP8 ADD SWAP1 DUP2 MSTORE DUP8 MLOAD DUP1 DUP7 ADD DUP10 MSTORE DUP7 DUP2 MSTORE PUSH1 0xA0 DUP9 ADD MSTORE DUP8 MLOAD DUP1 DUP7 ADD DUP10 MSTORE DUP7 DUP2 MSTORE PUSH1 0xC0 DUP9 ADD MSTORE DUP8 MLOAD DUP1 DUP7 ADD DUP10 MSTORE DUP7 DUP2 MSTORE PUSH1 0xE0 DUP9 ADD MSTORE DUP8 MLOAD DUP1 DUP7 ADD DUP10 MSTORE DUP7 DUP2 MSTORE PUSH2 0x100 DUP9 ADD MSTORE DUP8 MLOAD DUP1 DUP7 ADD DUP10 MSTORE DUP7 DUP2 MSTORE PUSH2 0x120 DUP9 ADD MSTORE DUP8 MLOAD DUP1 DUP7 ADD DUP10 MSTORE DUP7 DUP2 MSTORE PUSH2 0x140 DUP9 ADD MSTORE DUP8 MLOAD DUP1 DUP7 ADD DUP10 MSTORE DUP7 DUP2 MSTORE PUSH2 0x160 DUP9 ADD MSTORE DUP13 DUP7 MSTORE PUSH1 0x1 SWAP5 DUP6 SWAP1 MSTORE SWAP7 SWAP1 SWAP5 KECCAK256 DUP6 MLOAD DUP2 SSTORE SWAP2 MLOAD SWAP3 DUP3 ADD SWAP3 SWAP1 SWAP3 SSTORE SWAP1 MLOAD PUSH1 0x2 DUP3 ADD SSTORE SWAP1 MLOAD PUSH1 0x3 DUP3 ADD DUP1 SLOAD PUSH1 0x1 PUSH1 0x1 PUSH1 0xA0 SHL SUB NOT AND PUSH1 0x1 PUSH1 0x1 PUSH1 0xA0 SHL SUB SWAP1 SWAP3 AND SWAP2 SWAP1 SWAP2 OR SWAP1 SSTORE SWAP2 MLOAD SWAP1 SWAP2 DUP3 SWAP2 PUSH1 0x4 DUP3 ADD SWAP1 PUSH2 0x100F SWAP1 DUP3 PUSH2 0x20DF JUMP JUMPDEST POP PUSH1 0xA0 DUP3 ADD MLOAD PUSH1 0x5 DUP3 ADD SWAP1 PUSH2 0x1024 SWAP1 DUP3 PUSH2 0x20DF JUMP JUMPDEST POP PUSH1 0xC0 DUP3 ADD MLOAD PUSH1 0x6 DUP3 ADD SWAP1 PUSH2 0x1039 SWAP1 DUP3 PUSH2 0x20DF JUMP JUMPDEST POP PUSH1 0xE0 DUP3 ADD MLOAD PUSH1 0x7 DUP3 ADD SWAP1 PUSH2 0x104E SWAP1 DUP3 PUSH2 0x20DF JUMP JUMPDEST POP PUSH2 0x100 DUP3 ADD MLOAD PUSH1 0x8 DUP3 ADD SWAP1 PUSH2 0x1064 SWAP1 DUP3 PUSH2 0x20DF JUMP JUMPDEST POP PUSH2 0x120 DUP3 ADD MLOAD PUSH1 0x9 DUP3 ADD SWAP1 PUSH2 0x107A SWAP1 DUP3 PUSH2 0x20DF JUMP JUMPDEST POP PUSH2 0x140 DUP3 ADD MLOAD PUSH1 0xA DUP3 ADD SWAP1 PUSH2 0x1090 SWAP1 DUP3 PUSH2 0x20DF JUMP JUMPDEST POP PUSH2 0x160 DUP3 ADD MLOAD PUSH1 0xB DUP3 ADD SWAP1 PUSH2 0x10A6 SWAP1 DUP3 PUSH2 0x20DF JUMP JUMPDEST POP PUSH1 0x1 SWAP9 SWAP8 POP POP POP POP POP POP POP POP JUMP JUMPDEST PUSH2 0x10BD PUSH2 0x19F9 JUMP JUMPDEST DUP2 PUSH1 0x0 DUP1 MLOAD PUSH1 0x20 PUSH2 0x21A0 DUP4 CODECOPY DUP2 MLOAD SWAP2 MSTORE DUP2 EQ PUSH2 0x10EB JUMPI PUSH1 0x40 MLOAD PUSH3 0x461BCD PUSH1 0xE5 SHL DUP2 MSTORE PUSH1 0x4 ADD PUSH2 0x32A SWAP1 PUSH2 0x1FAA JUMP JUMPDEST DUP4 DUP1 PUSH1 0x1 GT ISZERO DUP1 ISZERO PUSH2 0x10FF JUMPI POP PUSH1 0x2 SLOAD DUP2 GT ISZERO JUMPDEST PUSH2 0x111B JUMPI PUSH1 0x40 MLOAD PUSH3 0x461BCD PUSH1 0xE5 SHL DUP2 MSTORE PUSH1 0x4 ADD PUSH2 0x32A SWAP1 PUSH2 0x1FF1 JUMP JUMPDEST PUSH1 0x0 DUP6 DUP2 MSTORE PUSH1 0x1 PUSH1 0x20 DUP2 DUP2 MSTORE PUSH1 0x40 SWAP3 DUP4 SWAP1 KECCAK256 DUP4 MLOAD PUSH2 0x180 DUP2 ADD DUP6 MSTORE DUP2 SLOAD DUP2 MSTORE SWAP3 DUP2 ADD SLOAD SWAP2 DUP4 ADD SWAP2 SWAP1 SWAP2 MSTORE PUSH1 0x2 DUP2 ADD SLOAD SWAP3 DUP3 ADD SWAP3 SWAP1 SWAP3 MSTORE PUSH1 0x3 DUP3 ADD SLOAD PUSH1 0x1 PUSH1 0x1 PUSH1 0xA0 SHL SUB AND PUSH1 0x60 DUP3 ADD MSTORE PUSH1 0x4 DUP3 ADD DUP1 SLOAD SWAP2 SWAP3 SWAP2 PUSH1 0x80 DUP5 ADD SWAP2 SWAP1 PUSH2 0x117C SWAP1 PUSH2 0x2035 JUMP JUMPDEST DUP1 PUSH1 0x1F ADD PUSH1 0x20 DUP1 SWAP2 DIV MUL PUSH1 0x20 ADD PUSH1 0x40 MLOAD SWAP1 DUP2 ADD PUSH1 0x40 MSTORE DUP1 SWAP3 SWAP2 SWAP1 DUP2 DUP2 MSTORE PUSH1 0x20 ADD DUP3 DUP1 SLOAD PUSH2 0x11A8 SWAP1 PUSH2 0x2035 JUMP JUMPDEST DUP1 ISZERO PUSH2 0x11F5 JUMPI DUP1 PUSH1 0x1F LT PUSH2 0x11CA JUMPI PUSH2 0x100 DUP1 DUP4 SLOAD DIV MUL DUP4 MSTORE SWAP2 PUSH1 0x20 ADD SWAP2 PUSH2 0x11F5 JUMP JUMPDEST DUP3 ADD SWAP2 SWAP1 PUSH1 0x0 MSTORE PUSH1 0x20 PUSH1 0x0 KECCAK256 SWAP1 JUMPDEST DUP2 SLOAD DUP2 MSTORE SWAP1 PUSH1 0x1 ADD SWAP1 PUSH1 0x20 ADD DUP1 DUP4 GT PUSH2 0x11D8 JUMPI DUP3 SWAP1 SUB PUSH1 0x1F AND DUP3 ADD SWAP2 JUMPDEST POP POP POP POP POP DUP2 MSTORE PUSH1 0x20 ADD PUSH1 0x5 DUP3 ADD DUP1 SLOAD PUSH2 0x120E SWAP1 PUSH2 0x2035 JUMP JUMPDEST DUP1 PUSH1 0x1F ADD PUSH1 0x20 DUP1 SWAP2 DIV MUL PUSH1 0x20 ADD PUSH1 0x40 MLOAD SWAP1 DUP2 ADD PUSH1 0x40 MSTORE DUP1 SWAP3 SWAP2 SWAP1 DUP2 DUP2 MSTORE PUSH1 0x20 ADD DUP3 DUP1 SLOAD PUSH2 0x123A SWAP1 PUSH2 0x2035 JUMP JUMPDEST DUP1 ISZERO PUSH2 0x1287 JUMPI DUP1 PUSH1 0x1F LT PUSH2 0x125C JUMPI PUSH2 0x100 DUP1 DUP4 SLOAD DIV MUL DUP4 MSTORE SWAP2 PUSH1 0x20 ADD SWAP2 PUSH2 0x1287 JUMP JUMPDEST DUP3 ADD SWAP2 SWAP1 PUSH1 0x0 MSTORE PUSH1 0x20 PUSH1 0x0 KECCAK256 SWAP1 JUMPDEST DUP2 SLOAD DUP2 MSTORE SWAP1 PUSH1 0x1 ADD SWAP1 PUSH1 0x20 ADD DUP1 DUP4 GT PUSH2 0x126A JUMPI DUP3 SWAP1 SUB PUSH1 0x1F AND DUP3 ADD SWAP2 JUMPDEST POP POP POP POP POP DUP2 MSTORE PUSH1 0x20 ADD PUSH1 0x6 DUP3 ADD DUP1 SLOAD PUSH2 0x12A0 SWAP1 PUSH2 0x2035 JUMP JUMPDEST DUP1 PUSH1 0x1F ADD PUSH1 0x20 DUP1 SWAP2 DIV MUL PUSH1 0x20 ADD PUSH1 0x40 MLOAD SWAP1 DUP2 ADD PUSH1 0x40 MSTORE DUP1 SWAP3 SWAP2 SWAP1 DUP2 DUP2 MSTORE PUSH1 0x20 ADD DUP3 DUP1 SLOAD PUSH2 0x12CC SWAP1 PUSH2 0x2035 JUMP JUMPDEST DUP1 ISZERO PUSH2 0x1319 JUMPI DUP1 PUSH1 0x1F LT PUSH2 0x12EE JUMPI PUSH2 0x100 DUP1 DUP4 SLOAD DIV MUL DUP4 MSTORE SWAP2 PUSH1 0x20 ADD SWAP2 PUSH2 0x1319 JUMP JUMPDEST DUP3 ADD SWAP2 SWAP1 PUSH1 0x0 MSTORE PUSH1 0x20 PUSH1 0x0 KECCAK256 SWAP1 JUMPDEST DUP2 SLOAD DUP2 MSTORE SWAP1 PUSH1 0x1 ADD SWAP1 PUSH1 0x20 ADD DUP1 DUP4 GT PUSH2 0x12FC JUMPI DUP3 SWAP1 SUB PUSH1 0x1F AND DUP3 ADD SWAP2 JUMPDEST POP POP POP POP POP DUP2 MSTORE PUSH1 0x20 ADD PUSH1 0x7 DUP3 ADD DUP1 SLOAD PUSH2 0x1332 SWAP1 PUSH2 0x2035 JUMP JUMPDEST DUP1 PUSH1 0x1F ADD PUSH1 0x20 DUP1 SWAP2 DIV MUL PUSH1 0x20 ADD PUSH1 0x40 MLOAD SWAP1 DUP2 ADD PUSH1 0x40 MSTORE DUP1 SWAP3 SWAP2 SWAP1 DUP2 DUP2 MSTORE PUSH1 0x20 ADD DUP3 DUP1 SLOAD PUSH2 0x135E SWAP1 PUSH2 0x2035 JUMP JUMPDEST DUP1 ISZERO PUSH2 0x13AB JUMPI DUP1 PUSH1 0x1F LT PUSH2 0x1380 JUMPI PUSH2 0x100 DUP1 DUP4 SLOAD DIV MUL DUP4 MSTORE SWAP2 PUSH1 0x20 ADD SWAP2 PUSH2 0x13AB JUMP JUMPDEST DUP3 ADD SWAP2 SWAP1 PUSH1 0x0 MSTORE PUSH1 0x20 PUSH1 0x0 KECCAK256 SWAP1 JUMPDEST DUP2 SLOAD DUP2 MSTORE SWAP1 PUSH1 0x1 ADD SWAP1 PUSH1 0x20 ADD DUP1 DUP4 GT PUSH2 0x138E JUMPI DUP3 SWAP1 SUB PUSH1 0x1F AND DUP3 ADD SWAP2 JUMPDEST POP POP POP POP POP DUP2 MSTORE PUSH1 0x20 ADD PUSH1 0x8 DUP3 ADD DUP1 SLOAD PUSH2 0x13C4 SWAP1 PUSH2 0x2035 JUMP JUMPDEST DUP1 PUSH1 0x1F ADD PUSH1 0x20 DUP1 SWAP2 DIV MUL PUSH1 0x20 ADD PUSH1 0x40 MLOAD SWAP1 DUP2 ADD PUSH1 0x40 MSTORE DUP1 SWAP3 SWAP2 SWAP1 DUP2 DUP2 MSTORE PUSH1 0x20 ADD DUP3 DUP1 SLOAD PUSH2 0x13F0 SWAP1 PUSH2 0x2035 JUMP JUMPDEST DUP1 ISZERO PUSH2 0x143D JUMPI DUP1 PUSH1 0x1F LT PUSH2 0x1412 JUMPI PUSH2 0x100 DUP1 DUP4 SLOAD DIV MUL DUP4 MSTORE SWAP2 PUSH1 0x20 ADD SWAP2 PUSH2 0x143D JUMP JUMPDEST DUP3 ADD SWAP2 SWAP1 PUSH1 0x0 MSTORE PUSH1 0x20 PUSH1 0x0 KECCAK256 SWAP1 JUMPDEST DUP2 SLOAD DUP2 MSTORE SWAP1 PUSH1 0x1 ADD SWAP1 PUSH1 0x20 ADD DUP1 DUP4 GT PUSH2 0x1420 JUMPI DUP3 SWAP1 SUB PUSH1 0x1F AND DUP3 ADD SWAP2 JUMPDEST POP POP POP POP POP DUP2 MSTORE PUSH1 0x20 ADD PUSH1 0x9 DUP3 ADD DUP1 SLOAD PUSH2 0x1456 SWAP1 PUSH2 0x2035 JUMP JUMPDEST DUP1 PUSH1 0x1F ADD PUSH1 0x20 DUP1 SWAP2 DIV MUL PUSH1 0x20 ADD PUSH1 0x40 MLOAD SWAP1 DUP2 ADD PUSH1 0x40 MSTORE DUP1 SWAP3 SWAP2 SWAP1 DUP2 DUP2 MSTORE PUSH1 0x20 ADD DUP3 DUP1 SLOAD PUSH2 0x1482 SWAP1 PUSH2 0x2035 JUMP JUMPDEST DUP1 ISZERO PUSH2 0x14CF JUMPI DUP1 PUSH1 0x1F LT PUSH2 0x14A4 JUMPI PUSH2 0x100 DUP1 DUP4 SLOAD DIV MUL DUP4 MSTORE SWAP2 PUSH1 0x20 ADD SWAP2 PUSH2 0x14CF JUMP JUMPDEST DUP3 ADD SWAP2 SWAP1 PUSH1 0x0 MSTORE PUSH1 0x20 PUSH1 0x0 KECCAK256 SWAP1 JUMPDEST DUP2 SLOAD DUP2 MSTORE SWAP1 PUSH1 0x1 ADD SWAP1 PUSH1 0x20 ADD DUP1 DUP4 GT PUSH2 0x14B2 JUMPI DUP3 SWAP1 SUB PUSH1 0x1F AND DUP3 ADD SWAP2 JUMPDEST POP POP POP POP POP DUP2 MSTORE PUSH1 0x20 ADD PUSH1 0xA DUP3 ADD DUP1 SLOAD PUSH2 0x14E8 SWAP1 PUSH2 0x2035 JUMP JUMPDEST DUP1 PUSH1 0x1F ADD PUSH1 0x20 DUP1 SWAP2 DIV MUL PUSH1 0x20 ADD PUSH1 0x40 MLOAD SWAP1 DUP2 ADD PUSH1 0x40 MSTORE DUP1 SWAP3 SWAP2 SWAP1 DUP2 DUP2 MSTORE PUSH1 0x20 ADD DUP3 DUP1 SLOAD PUSH2 0x1514 SWAP1 PUSH2 0x2035 JUMP JUMPDEST DUP1 ISZERO PUSH2 0x1561 JUMPI DUP1 PUSH1 0x1F LT PUSH2 0x1536 JUMPI PUSH2 0x100 DUP1 DUP4 SLOAD DIV MUL DUP4 MSTORE SWAP2 PUSH1 0x20 ADD SWAP2 PUSH2 0x1561 JUMP JUMPDEST DUP3 ADD SWAP2 SWAP1 PUSH1 0x0 MSTORE PUSH1 0x20 PUSH1 0x0 KECCAK256 SWAP1 JUMPDEST DUP2 SLOAD DUP2 MSTORE SWAP1 PUSH1 0x1 ADD SWAP1 PUSH1 0x20 ADD DUP1 DUP4 GT PUSH2 0x1544 JUMPI DUP3 SWAP1 SUB PUSH1 0x1F AND DUP3 ADD SWAP2 JUMPDEST POP POP POP POP POP DUP2 MSTORE PUSH1 0x20 ADD PUSH1 0xB DUP3 ADD DUP1 SLOAD PUSH2 0x157A SWAP1 PUSH2 0x2035 JUMP JUMPDEST DUP1 PUSH1 0x1F ADD PUSH1 0x20 DUP1 SWAP2 DIV MUL PUSH1 0x20 ADD PUSH1 0x40 MLOAD SWAP1 DUP2 ADD PUSH1 0x40 MSTORE DUP1 SWAP3 SWAP2 SWAP1 DUP2 DUP2 MSTORE PUSH1 0x20 ADD DUP3 DUP1 SLOAD PUSH2 0x15A6 SWAP1 PUSH2 0x2035 JUMP JUMPDEST DUP1 ISZERO PUSH2 0x15F3 JUMPI DUP1 PUSH1 0x1F LT PUSH2 0x15C8 JUMPI PUSH2 0x100 DUP1 DUP4 SLOAD DIV MUL DUP4 MSTORE SWAP2 PUSH1 0x20 ADD SWAP2 PUSH2 0x15F3 JUMP JUMPDEST DUP3 ADD SWAP2 SWAP1 PUSH1 0x0 MSTORE PUSH1 0x20 PUSH1 0x0 KECCAK256 SWAP1 JUMPDEST DUP2 SLOAD DUP2 MSTORE SWAP1 PUSH1 0x1 ADD SWAP1 PUSH1 0x20 ADD DUP1 DUP4 GT PUSH2 0x15D6 JUMPI DUP3 SWAP1 SUB PUSH1 0x1F AND DUP3 ADD SWAP2 JUMPDEST POP POP POP POP POP DUP2 MSTORE POP POP SWAP3 POP POP POP SWAP3 SWAP2 POP POP JUMP JUMPDEST PUSH1 0x0 DUP3 PUSH1 0x0 DUP1 MLOAD PUSH1 0x20 PUSH2 0x21A0 DUP4 CODECOPY DUP2 MLOAD SWAP2 MSTORE DUP2 EQ PUSH2 0x1636 JUMPI PUSH1 0x40 MLOAD PUSH3 0x461BCD PUSH1 0xE5 SHL DUP2 MSTORE PUSH1 0x4 ADD PUSH2 0x32A SWAP1 PUSH2 0x1FAA JUMP JUMPDEST DUP5 DUP1 PUSH1 0x1 GT ISZERO DUP1 ISZERO PUSH2 0x164A JUMPI POP PUSH1 0x2 SLOAD DUP2 GT ISZERO JUMPDEST PUSH2 0x1666 JUMPI PUSH1 0x40 MLOAD PUSH3 0x461BCD PUSH1 0xE5 SHL DUP2 MSTORE PUSH1 0x4 ADD PUSH2 0x32A SWAP1 PUSH2 0x1FF1 JUMP JUMPDEST PUSH1 0x0 DUP7 DUP2 MSTORE PUSH1 0x1 PUSH1 0x20 MSTORE PUSH1 0x40 SWAP1 KECCAK256 PUSH1 0x8 ADD PUSH2 0xA83 DUP6 DUP3 PUSH2 0x20DF JUMP JUMPDEST PUSH1 0x0 DUP2 PUSH1 0x0 DUP1 MLOAD PUSH1 0x20 PUSH2 0x21A0 DUP4 CODECOPY DUP2 MLOAD SWAP2 MSTORE DUP2 EQ PUSH2 0x16B1 JUMPI PUSH1 0x40 MLOAD PUSH3 0x461BCD PUSH1 0xE5 SHL DUP2 MSTORE PUSH1 0x4 ADD PUSH2 0x32A SWAP1 PUSH2 0x1FAA JUMP JUMPDEST PUSH1 0x1 JUMPDEST PUSH1 0x2 SLOAD DUP2 GT PUSH2 0x170D JUMPI PUSH1 0x0 DUP2 DUP2 MSTORE PUSH1 0x1 PUSH1 0x20 MSTORE PUSH1 0x40 SWAP1 KECCAK256 PUSH1 0x3 ADD SLOAD PUSH1 0x1 PUSH1 0x1 PUSH1 0xA0 SHL SUB DUP1 DUP8 AND SWAP2 AND SUB PUSH2 0x16FB JUMPI PUSH1 0x0 SWAP1 DUP2 MSTORE PUSH1 0x1 PUSH1 0x20 DUP2 SWAP1 MSTORE PUSH1 0x40 SWAP1 SWAP2 KECCAK256 ADD SLOAD SWAP2 POP PUSH2 0x988 JUMP JUMPDEST DUP1 PUSH2 0x1705 DUP2 PUSH2 0x2069 JUMP JUMPDEST SWAP2 POP POP PUSH2 0x16B4 JUMP JUMPDEST POP PUSH1 0x0 SWAP5 SWAP4 POP POP POP POP JUMP JUMPDEST PUSH1 0x0 DUP3 PUSH1 0x0 DUP1 MLOAD PUSH1 0x20 PUSH2 0x21A0 DUP4 CODECOPY DUP2 MLOAD SWAP2 MSTORE DUP2 EQ PUSH2 0x1748 JUMPI PUSH1 0x40 MLOAD PUSH3 0x461BCD PUSH1 0xE5 SHL DUP2 MSTORE PUSH1 0x4 ADD PUSH2 0x32A SWAP1 PUSH2 0x1FAA JUMP JUMPDEST DUP5 DUP1 PUSH1 0x1 GT ISZERO DUP1 ISZERO PUSH2 0x175C JUMPI POP PUSH1 0x2 SLOAD DUP2 GT ISZERO JUMPDEST PUSH2 0x1778 JUMPI PUSH1 0x40 MLOAD PUSH3 0x461BCD PUSH1 0xE5 SHL DUP2 MSTORE PUSH1 0x4 ADD PUSH2 0x32A SWAP1 PUSH2 0x1FF1 JUMP JUMPDEST PUSH1 0x0 DUP7 DUP2 MSTORE PUSH1 0x1 PUSH1 0x20 MSTORE PUSH1 0x40 SWAP1 KECCAK256 PUSH1 0x9 ADD PUSH2 0xA83 DUP6 DUP3 PUSH2 0x20DF JUMP JUMPDEST PUSH1 0x0 DUP3 PUSH1 0x0 DUP1 MLOAD PUSH1 0x20 PUSH2 0x21A0 DUP4 CODECOPY DUP2 MLOAD SWAP2 MSTORE DUP2 EQ PUSH2 0x17C3 JUMPI PUSH1 0x40 MLOAD PUSH3 0x461BCD PUSH1 0xE5 SHL DUP2 MSTORE PUSH1 0x4 ADD PUSH2 0x32A SWAP1 PUSH2 0x1FAA JUMP JUMPDEST DUP5 DUP1 PUSH1 0x1 GT ISZERO DUP1 ISZERO PUSH2 0x17D7 JUMPI POP PUSH1 0x2 SLOAD DUP2 GT ISZERO JUMPDEST PUSH2 0x17F3 JUMPI PUSH1 0x40 MLOAD PUSH3 0x461BCD PUSH1 0xE5 SHL DUP2 MSTORE PUSH1 0x4 ADD PUSH2 0x32A SWAP1 PUSH2 0x1FF1 JUMP JUMPDEST PUSH1 0x0 DUP7 DUP2 MSTORE PUSH1 0x1 PUSH1 0x20 MSTORE PUSH1 0x40 SWAP1 KECCAK256 PUSH1 0x5 ADD PUSH2 0xA83 DUP6 DUP3 PUSH2 0x20DF JUMP JUMPDEST PUSH1 0x0 DUP3 PUSH1 0x0 DUP1 MLOAD PUSH1 0x20 PUSH2 0x21A0 DUP4 CODECOPY DUP2 MLOAD SWAP2 MSTORE DUP2 EQ PUSH2 0x183E JUMPI PUSH1 0x40 MLOAD PUSH3 0x461BCD PUSH1 0xE5 SHL DUP2 MSTORE PUSH1 0x4 ADD PUSH2 0x32A SWAP1 PUSH2 0x1FAA JUMP JUMPDEST DUP5 DUP1 PUSH1 0x1 GT ISZERO DUP1 ISZERO PUSH2 0x1852 JUMPI POP PUSH1 0x2 SLOAD DUP2 GT ISZERO JUMPDEST PUSH2 0x186E JUMPI PUSH1 0x40 MLOAD PUSH3 0x461BCD PUSH1 0xE5 SHL DUP2 MSTORE PUSH1 0x4 ADD PUSH2 0x32A SWAP1 PUSH2 0x1FF1 JUMP JUMPDEST PUSH1 0x0 DUP7 DUP2 MSTORE PUSH1 0x1 PUSH1 0x20 MSTORE PUSH1 0x40 SWAP1 KECCAK256 PUSH1 0x6 ADD PUSH2 0xA83 DUP6 DUP3 PUSH2 0x20DF JUMP JUMPDEST PUSH2 0x1891 PUSH2 0x193E JUMP JUMPDEST PUSH1 0x1 PUSH1 0x1 PUSH1 0xA0 SHL SUB DUP2 AND PUSH2 0x18F6 JUMPI PUSH1 0x40 MLOAD PUSH3 0x461BCD PUSH1 0xE5 SHL DUP2 MSTORE PUSH1 0x20 PUSH1 0x4 DUP3 ADD MSTORE PUSH1 0x26 PUSH1 0x24 DUP3 ADD MSTORE PUSH32 0x4F776E61626C653A206E6577206F776E657220697320746865207A65726F2061 PUSH1 0x44 DUP3 ADD MSTORE PUSH6 0x646472657373 PUSH1 0xD0 SHL PUSH1 0x64 DUP3 ADD MSTORE PUSH1 0x84 ADD PUSH2 0x32A JUMP JUMPDEST PUSH2 0x18FF DUP2 PUSH2 0x19A9 JUMP JUMPDEST POP JUMP JUMPDEST PUSH1 0x0 DUP2 PUSH1 0x0 DUP1 MLOAD PUSH1 0x20 PUSH2 0x21A0 DUP4 CODECOPY DUP2 MLOAD SWAP2 MSTORE DUP2 EQ PUSH2 0x1932 JUMPI PUSH1 0x40 MLOAD PUSH3 0x461BCD PUSH1 0xE5 SHL DUP2 MSTORE PUSH1 0x4 ADD PUSH2 0x32A SWAP1 PUSH2 0x1FAA JUMP JUMPDEST PUSH1 0x2 SLOAD SWAP2 POP JUMPDEST POP SWAP2 SWAP1 POP JUMP JUMPDEST CALLER PUSH2 0x1951 PUSH1 0x0 SLOAD PUSH1 0x1 PUSH1 0x1 PUSH1 0xA0 SHL SUB AND SWAP1 JUMP JUMPDEST PUSH1 0x1 PUSH1 0x1 PUSH1 0xA0 SHL SUB AND EQ PUSH2 0x19A7 JUMPI PUSH1 0x40 MLOAD PUSH3 0x461BCD PUSH1 0xE5 SHL DUP2 MSTORE PUSH1 0x20 PUSH1 0x4 DUP3 ADD DUP2 SWAP1 MSTORE PUSH1 0x24 DUP3 ADD MSTORE PUSH32 0x4F776E61626C653A2063616C6C6572206973206E6F7420746865206F776E6572 PUSH1 0x44 DUP3 ADD MSTORE PUSH1 0x64 ADD PUSH2 0x32A JUMP JUMPDEST JUMP JUMPDEST PUSH1 0x0 DUP1 SLOAD PUSH1 0x1 PUSH1 0x1 PUSH1 0xA0 SHL SUB DUP4 DUP2 AND PUSH1 0x1 PUSH1 0x1 PUSH1 0xA0 SHL SUB NOT DUP4 AND DUP2 OR DUP5 SSTORE PUSH1 0x40 MLOAD SWAP2 SWAP1 SWAP3 AND SWAP3 DUP4 SWAP2 PUSH32 0x8BE0079C531659141344CD1FD0A4F28419497F9722A3DAAFE3B4186F6B6457E0 SWAP2 SWAP1 LOG3 POP POP JUMP JUMPDEST PUSH1 0x40 MLOAD DUP1 PUSH2 0x180 ADD PUSH1 0x40 MSTORE DUP1 PUSH1 0x0 DUP2 MSTORE PUSH1 0x20 ADD PUSH1 0x0 DUP2 MSTORE PUSH1 0x20 ADD PUSH1 0x0 DUP2 MSTORE PUSH1 0x20 ADD PUSH1 0x0 PUSH1 0x1 PUSH1 0x1 PUSH1 0xA0 SHL SUB AND DUP2 MSTORE PUSH1 0x20 ADD PUSH1 0x60 DUP2 MSTORE PUSH1 0x20 ADD PUSH1 0x60 DUP2 MSTORE PUSH1 0x20 ADD PUSH1 0x60 DUP2 MSTORE PUSH1 0x20 ADD PUSH1 0x60 DUP2 MSTORE PUSH1 0x20 ADD PUSH1 0x60 DUP2 MSTORE PUSH1 0x20 ADD PUSH1 0x60 DUP2 MSTORE PUSH1 0x20 ADD PUSH1 0x60 DUP2 MSTORE PUSH1 0x20 ADD PUSH1 0x60 DUP2 MSTORE POP SWAP1 JUMP JUMPDEST PUSH1 0x0 DUP1 PUSH1 0x0 PUSH1 0x60 DUP5 DUP7 SUB SLT ISZERO PUSH2 0x1A78 JUMPI PUSH1 0x0 DUP1 REVERT JUMPDEST POP POP DUP2 CALLDATALOAD SWAP4 PUSH1 0x20 DUP4 ADD CALLDATALOAD SWAP4 POP PUSH1 0x40 SWAP1 SWAP3 ADD CALLDATALOAD SWAP2 SWAP1 POP JUMP JUMPDEST DUP1 CALLDATALOAD PUSH1 0x1 PUSH1 0x1 PUSH1 0xA0 SHL SUB DUP2 AND DUP2 EQ PUSH2 0x1AA6 JUMPI PUSH1 0x0 DUP1 REVERT JUMPDEST SWAP2 SWAP1 POP JUMP JUMPDEST PUSH1 0x0 DUP1 PUSH1 0x40 DUP4 DUP6 SUB SLT ISZERO PUSH2 0x1ABE JUMPI PUSH1 0x0 DUP1 REVERT JUMPDEST PUSH2 0x1AC7 DUP4 PUSH2 0x1A8F JUMP JUMPDEST SWAP5 PUSH1 0x20 SWAP4 SWAP1 SWAP4 ADD CALLDATALOAD SWAP4 POP POP POP JUMP JUMPDEST PUSH1 0x0 DUP2 MLOAD DUP1 DUP5 MSTORE PUSH1 0x0 JUMPDEST DUP2 DUP2 LT ISZERO PUSH2 0x1AFB JUMPI PUSH1 0x20 DUP2 DUP6 ADD DUP2 ADD MLOAD DUP7 DUP4 ADD DUP3 ADD MSTORE ADD PUSH2 0x1ADF JUMP JUMPDEST POP PUSH1 0x0 PUSH1 0x20 DUP3 DUP7 ADD ADD MSTORE PUSH1 0x20 PUSH1 0x1F NOT PUSH1 0x1F DUP4 ADD AND DUP6 ADD ADD SWAP2 POP POP SWAP3 SWAP2 POP POP JUMP JUMPDEST PUSH1 0x20 DUP2 MSTORE DUP2 MLOAD PUSH1 0x20 DUP3 ADD MSTORE PUSH1 0x20 DUP3 ADD MLOAD PUSH1 0x40 DUP3 ADD MSTORE PUSH1 0x40 DUP3 ADD MLOAD PUSH1 0x60 DUP3 ADD MSTORE PUSH1 0x0 PUSH1 0x60 DUP4 ADD MLOAD PUSH2 0x1B56 PUSH1 0x80 DUP5 ADD DUP3 PUSH1 0x1 PUSH1 0x1 PUSH1 0xA0 SHL SUB AND SWAP1 MSTORE JUMP JUMPDEST POP PUSH1 0x80 DUP4 ADD MLOAD PUSH2 0x180 DUP1 PUSH1 0xA0 DUP6 ADD MSTORE PUSH2 0x1B73 PUSH2 0x1A0 DUP6 ADD DUP4 PUSH2 0x1AD5 JUMP JUMPDEST SWAP2 POP PUSH1 0xA0 DUP6 ADD MLOAD PUSH1 0x1F NOT DUP1 DUP7 DUP6 SUB ADD PUSH1 0xC0 DUP8 ADD MSTORE PUSH2 0x1B91 DUP5 DUP4 PUSH2 0x1AD5 JUMP JUMPDEST SWAP4 POP PUSH1 0xC0 DUP8 ADD MLOAD SWAP2 POP DUP1 DUP7 DUP6 SUB ADD PUSH1 0xE0 DUP8 ADD MSTORE PUSH2 0x1BAE DUP5 DUP4 PUSH2 0x1AD5 JUMP JUMPDEST SWAP4 POP PUSH1 0xE0 DUP8 ADD MLOAD SWAP2 POP PUSH2 0x100 DUP2 DUP8 DUP7 SUB ADD DUP2 DUP9 ADD MSTORE PUSH2 0x1BCD DUP6 DUP5 PUSH2 0x1AD5 JUMP JUMPDEST SWAP5 POP DUP1 DUP9 ADD MLOAD SWAP3 POP POP PUSH2 0x120 DUP2 DUP8 DUP7 SUB ADD DUP2 DUP9 ADD MSTORE PUSH2 0x1BEC DUP6 DUP5 PUSH2 0x1AD5 JUMP JUMPDEST SWAP5 POP DUP1 DUP9 ADD MLOAD SWAP3 POP POP PUSH2 0x140 DUP2 DUP8 DUP7 SUB ADD DUP2 DUP9 ADD MSTORE PUSH2 0x1C0B DUP6 DUP5 PUSH2 0x1AD5 JUMP JUMPDEST SWAP5 POP DUP1 DUP9 ADD MLOAD SWAP3 POP POP PUSH2 0x160 DUP2 DUP8 DUP7 SUB ADD DUP2 DUP9 ADD MSTORE PUSH2 0x1C2A DUP6 DUP5 PUSH2 0x1AD5 JUMP JUMPDEST SWAP1 DUP9 ADD MLOAD DUP8 DUP3 SUB SWAP1 SWAP3 ADD DUP5 DUP9 ADD MSTORE SWAP4 POP SWAP1 POP PUSH2 0x1C46 DUP4 DUP3 PUSH2 0x1AD5 JUMP JUMPDEST SWAP7 SWAP6 POP POP POP POP POP POP JUMP JUMPDEST PUSH4 0x4E487B71 PUSH1 0xE0 SHL PUSH1 0x0 MSTORE PUSH1 0x41 PUSH1 0x4 MSTORE PUSH1 0x24 PUSH1 0x0 REVERT JUMPDEST PUSH1 0x40 MLOAD PUSH2 0x180 DUP2 ADD PUSH8 0xFFFFFFFFFFFFFFFF DUP2 GT DUP3 DUP3 LT OR ISZERO PUSH2 0x1C8A JUMPI PUSH2 0x1C8A PUSH2 0x1C50 JUMP JUMPDEST PUSH1 0x40 MSTORE SWAP1 JUMP JUMPDEST PUSH1 0x0 DUP3 PUSH1 0x1F DUP4 ADD SLT PUSH2 0x1CA1 JUMPI PUSH1 0x0 DUP1 REVERT JUMPDEST DUP2 CALLDATALOAD PUSH8 0xFFFFFFFFFFFFFFFF DUP1 DUP3 GT ISZERO PUSH2 0x1CBC JUMPI PUSH2 0x1CBC PUSH2 0x1C50 JUMP JUMPDEST PUSH1 0x40 MLOAD PUSH1 0x1F DUP4 ADD PUSH1 0x1F NOT SWAP1 DUP2 AND PUSH1 0x3F ADD AND DUP2 ADD SWAP1 DUP3 DUP3 GT DUP2 DUP4 LT OR ISZERO PUSH2 0x1CE4 JUMPI PUSH2 0x1CE4 PUSH2 0x1C50 JUMP JUMPDEST DUP2 PUSH1 0x40 MSTORE DUP4 DUP2 MSTORE DUP7 PUSH1 0x20 DUP6 DUP9 ADD ADD GT ISZERO PUSH2 0x1CFD JUMPI PUSH1 0x0 DUP1 REVERT JUMPDEST DUP4 PUSH1 0x20 DUP8 ADD PUSH1 0x20 DUP4 ADD CALLDATACOPY PUSH1 0x0 PUSH1 0x20 DUP6 DUP4 ADD ADD MSTORE DUP1 SWAP5 POP POP POP POP POP SWAP3 SWAP2 POP POP JUMP JUMPDEST PUSH1 0x0 DUP1 PUSH1 0x0 PUSH1 0x60 DUP5 DUP7 SUB SLT ISZERO PUSH2 0x1D32 JUMPI PUSH1 0x0 DUP1 REVERT JUMPDEST DUP4 CALLDATALOAD SWAP3 POP PUSH1 0x20 DUP5 ADD CALLDATALOAD SWAP2 POP PUSH1 0x40 DUP5 ADD CALLDATALOAD PUSH8 0xFFFFFFFFFFFFFFFF DUP2 GT ISZERO PUSH2 0x1D57 JUMPI PUSH1 0x0 DUP1 REVERT JUMPDEST PUSH2 0x1D63 DUP7 DUP3 DUP8 ADD PUSH2 0x1C90 JUMP JUMPDEST SWAP2 POP POP SWAP3 POP SWAP3 POP SWAP3 JUMP JUMPDEST PUSH1 0x0 DUP1 PUSH1 0x0 PUSH1 0x60 DUP5 DUP7 SUB SLT ISZERO PUSH2 0x1D82 JUMPI PUSH1 0x0 DUP1 REVERT JUMPDEST DUP4 CALLDATALOAD SWAP3 POP PUSH1 0x20 DUP5 ADD CALLDATALOAD SWAP2 POP PUSH2 0x1D99 PUSH1 0x40 DUP6 ADD PUSH2 0x1A8F JUMP JUMPDEST SWAP1 POP SWAP3 POP SWAP3 POP SWAP3 JUMP JUMPDEST PUSH1 0x0 DUP1 PUSH1 0x40 DUP4 DUP6 SUB SLT ISZERO PUSH2 0x1DB5 JUMPI PUSH1 0x0 DUP1 REVERT JUMPDEST DUP3 CALLDATALOAD PUSH8 0xFFFFFFFFFFFFFFFF DUP1 DUP3 GT ISZERO PUSH2 0x1DCD JUMPI PUSH1 0x0 DUP1 REVERT JUMPDEST SWAP1 DUP5 ADD SWAP1 PUSH2 0x180 DUP3 DUP8 SUB SLT ISZERO PUSH2 0x1DE2 JUMPI PUSH1 0x0 DUP1 REVERT JUMPDEST PUSH2 0x1DEA PUSH2 0x1C66 JUMP JUMPDEST DUP3 CALLDATALOAD DUP2 MSTORE PUSH1 0x20 DUP4 ADD CALLDATALOAD PUSH1 0x20 DUP3 ADD MSTORE PUSH1 0x40 DUP4 ADD CALLDATALOAD PUSH1 0x40 DUP3 ADD MSTORE PUSH2 0x1E0E PUSH1 0x60 DUP5 ADD PUSH2 0x1A8F JUMP JUMPDEST PUSH1 0x60 DUP3 ADD MSTORE PUSH1 0x80 DUP4 ADD CALLDATALOAD DUP3 DUP2 GT ISZERO PUSH2 0x1E25 JUMPI PUSH1 0x0 DUP1 REVERT JUMPDEST PUSH2 0x1E31 DUP9 DUP3 DUP7 ADD PUSH2 0x1C90 JUMP JUMPDEST PUSH1 0x80 DUP4 ADD MSTORE POP PUSH1 0xA0 DUP4 ADD CALLDATALOAD DUP3 DUP2 GT ISZERO PUSH2 0x1E49 JUMPI PUSH1 0x0 DUP1 REVERT JUMPDEST PUSH2 0x1E55 DUP9 DUP3 DUP7 ADD PUSH2 0x1C90 JUMP JUMPDEST PUSH1 0xA0 DUP4 ADD MSTORE POP PUSH1 0xC0 DUP4 ADD CALLDATALOAD DUP3 DUP2 GT ISZERO PUSH2 0x1E6D JUMPI PUSH1 0x0 DUP1 REVERT JUMPDEST PUSH2 0x1E79 DUP9 DUP3 DUP7 ADD PUSH2 0x1C90 JUMP JUMPDEST PUSH1 0xC0 DUP4 ADD MSTORE POP PUSH1 0xE0 DUP4 ADD CALLDATALOAD DUP3 DUP2 GT ISZERO PUSH2 0x1E91 JUMPI PUSH1 0x0 DUP1 REVERT JUMPDEST PUSH2 0x1E9D DUP9 DUP3 DUP7 ADD PUSH2 0x1C90 JUMP JUMPDEST PUSH1 0xE0 DUP4 ADD MSTORE POP PUSH2 0x100 DUP1 DUP5 ADD CALLDATALOAD DUP4 DUP2 GT ISZERO PUSH2 0x1EB7 JUMPI PUSH1 0x0 DUP1 REVERT JUMPDEST PUSH2 0x1EC3 DUP10 DUP3 DUP8 ADD PUSH2 0x1C90 JUMP JUMPDEST DUP3 DUP5 ADD MSTORE POP POP PUSH2 0x120 DUP1 DUP5 ADD CALLDATALOAD DUP4 DUP2 GT ISZERO PUSH2 0x1EDD JUMPI PUSH1 0x0 DUP1 REVERT JUMPDEST PUSH2 0x1EE9 DUP10 DUP3 DUP8 ADD PUSH2 0x1C90 JUMP JUMPDEST DUP3 DUP5 ADD MSTORE POP POP PUSH2 0x140 DUP1 DUP5 ADD CALLDATALOAD DUP4 DUP2 GT ISZERO PUSH2 0x1F03 JUMPI PUSH1 0x0 DUP1 REVERT JUMPDEST PUSH2 0x1F0F DUP10 DUP3 DUP8 ADD PUSH2 0x1C90 JUMP JUMPDEST DUP3 DUP5 ADD MSTORE POP POP PUSH2 0x160 DUP1 DUP5 ADD CALLDATALOAD DUP4 DUP2 GT ISZERO PUSH2 0x1F29 JUMPI PUSH1 0x0 DUP1 REVERT JUMPDEST PUSH2 0x1F35 DUP10 DUP3 DUP8 ADD PUSH2 0x1C90 JUMP JUMPDEST SWAP2 DUP4 ADD SWAP2 SWAP1 SWAP2 MSTORE POP SWAP7 PUSH1 0x20 SWAP6 SWAP1 SWAP6 ADD CALLDATALOAD SWAP6 POP POP POP POP POP JUMP JUMPDEST PUSH1 0x0 DUP1 PUSH1 0x40 DUP4 DUP6 SUB SLT ISZERO PUSH2 0x1F60 JUMPI PUSH1 0x0 DUP1 REVERT JUMPDEST POP POP DUP1 CALLDATALOAD SWAP3 PUSH1 0x20 SWAP1 SWAP2 ADD CALLDATALOAD SWAP2 POP JUMP JUMPDEST PUSH1 0x0 PUSH1 0x20 DUP3 DUP5 SUB SLT ISZERO PUSH2 0x1F81 JUMPI PUSH1 0x0 DUP1 REVERT JUMPDEST PUSH2 0x1F8A DUP3 PUSH2 0x1A8F JUMP JUMPDEST SWAP4 SWAP3 POP POP POP JUMP JUMPDEST PUSH1 0x0 PUSH1 0x20 DUP3 DUP5 SUB SLT ISZERO PUSH2 0x1FA3 JUMPI PUSH1 0x0 DUP1 REVERT JUMPDEST POP CALLDATALOAD SWAP2 SWAP1 POP JUMP JUMPDEST PUSH1 0x20 DUP1 DUP3 MSTORE PUSH1 0x27 SWAP1 DUP3 ADD MSTORE PUSH32 0x4461746162617365204C697374456D706C6F7965653A20536563726574206B65 PUSH1 0x40 DUP3 ADD MSTORE PUSH7 0x3C9032B93937B9 PUSH1 0xC9 SHL PUSH1 0x60 DUP3 ADD MSTORE PUSH1 0x80 ADD SWAP1 JUMP JUMPDEST PUSH1 0x20 DUP1 DUP3 MSTORE PUSH1 0x24 SWAP1 DUP3 ADD MSTORE PUSH32 0x4461746162617365204C697374456D706C6F7965653A20496E76616C69642069 PUSH1 0x40 DUP3 ADD MSTORE PUSH4 0xDCC8CAF PUSH1 0xE3 SHL PUSH1 0x60 DUP3 ADD MSTORE PUSH1 0x80 ADD SWAP1 JUMP JUMPDEST PUSH1 0x1 DUP2 DUP2 SHR SWAP1 DUP3 AND DUP1 PUSH2 0x2049 JUMPI PUSH1 0x7F DUP3 AND SWAP2 POP JUMPDEST PUSH1 0x20 DUP3 LT DUP2 SUB PUSH2 0x1938 JUMPI PUSH4 0x4E487B71 PUSH1 0xE0 SHL PUSH1 0x0 MSTORE PUSH1 0x22 PUSH1 0x4 MSTORE PUSH1 0x24 PUSH1 0x0 REVERT JUMPDEST PUSH1 0x0 PUSH1 0x1 DUP3 ADD PUSH2 0x2089 JUMPI PUSH4 0x4E487B71 PUSH1 0xE0 SHL PUSH1 0x0 MSTORE PUSH1 0x11 PUSH1 0x4 MSTORE PUSH1 0x24 PUSH1 0x0 REVERT JUMPDEST POP PUSH1 0x1 ADD SWAP1 JUMP JUMPDEST PUSH1 0x1F DUP3 GT ISZERO PUSH2 0x20DA JUMPI PUSH1 0x0 DUP2 DUP2 MSTORE PUSH1 0x20 DUP2 KECCAK256 PUSH1 0x1F DUP6 ADD PUSH1 0x5 SHR DUP2 ADD PUSH1 0x20 DUP7 LT ISZERO PUSH2 0x20B7 JUMPI POP DUP1 JUMPDEST PUSH1 0x1F DUP6 ADD PUSH1 0x5 SHR DUP3 ADD SWAP2 POP JUMPDEST DUP2 DUP2 LT ISZERO PUSH2 0x20D6 JUMPI DUP3 DUP2 SSTORE PUSH1 0x1 ADD PUSH2 0x20C3 JUMP JUMPDEST POP POP POP JUMPDEST POP POP POP JUMP JUMPDEST DUP2 MLOAD PUSH8 0xFFFFFFFFFFFFFFFF DUP2 GT ISZERO PUSH2 0x20F9 JUMPI PUSH2 0x20F9 PUSH2 0x1C50 JUMP JUMPDEST PUSH2 0x210D DUP2 PUSH2 0x2107 DUP5 SLOAD PUSH2 0x2035 JUMP JUMPDEST DUP5 PUSH2 0x2090 JUMP JUMPDEST PUSH1 0x20 DUP1 PUSH1 0x1F DUP4 GT PUSH1 0x1 DUP2 EQ PUSH2 0x2142 JUMPI PUSH1 0x0 DUP5 ISZERO PUSH2 0x212A JUMPI POP DUP6 DUP4 ADD MLOAD JUMPDEST PUSH1 0x0 NOT PUSH1 0x3 DUP7 SWAP1 SHL SHR NOT AND PUSH1 0x1 DUP6 SWAP1 SHL OR DUP6 SSTORE PUSH2 0x20D6 JUMP JUMPDEST PUSH1 0x0 DUP6 DUP2 MSTORE PUSH1 0x20 DUP2 KECCAK256 PUSH1 0x1F NOT DUP7 AND SWAP2 JUMPDEST DUP3 DUP2 LT ISZERO PUSH2 0x2171 JUMPI DUP9 DUP7 ADD MLOAD DUP3 SSTORE SWAP5 DUP5 ADD SWAP5 PUSH1 0x1 SWAP1 SWAP2 ADD SWAP1 DUP5 ADD PUSH2 0x2152 JUMP JUMPDEST POP DUP6 DUP3 LT ISZERO PUSH2 0x218F JUMPI DUP8 DUP6 ADD MLOAD PUSH1 0x0 NOT PUSH1 0x3 DUP9 SWAP1 SHL PUSH1 0xF8 AND SHR NOT AND DUP2 SSTORE JUMPDEST POP POP POP POP POP PUSH1 0x1 SWAP1 DUP2 SHL ADD SWAP1 SSTORE POP JUMP INVALID DUP15 AND DIV 0xA8 CODESIZE 0xD0 CALL 0xA9 0xB2 0xCD LOG1 0x4A MULMOD SWAP15 0x4C 0xEB ADDMOD 0xE9 PUSH7 0xCC6E05E8296F67 0xB0 0x2D PUSH2 0xA79F MULMOD LOG2 PUSH5 0x6970667358 0x22 SLT KECCAK256 0xD3 DUP8 0xEB CODECOPY SWAP14 0xAF RETURNDATASIZE CALL GAS SSTORE 0xDC SLOAD PUSH28 0x3C9B0109E89359F428A027508160F68C2FBDA64736F6C6343000810 STOP CALLER "
				},
				"gasEstimates": {
					"creation": {
						"codeDepositCost": "1738600",
						"executionCost": "31068",
						"totalCost": "1769668"
					},
					"external": {
						"add((uint256,uint256,uint256,address,string,string,string,string,string,string,string,string),bytes32)": "infinite",
						"at(uint256,bytes32)": "infinite",
						"atAddress(address,bytes32)": "infinite",
						"destroy()": "30045",
						"findIdByAddress(address,bytes32)": "infinite",
						"getLength(bytes32)": "infinite",
						"hide(uint256,bytes32)": "infinite",
						"owner()": "2346",
						"setCategory(uint256,bytes32,uint256)": "infinite",
						"setEmail(uint256,bytes32,string)": "infinite",
						"setGithub(uint256,bytes32,string)": "infinite",
						"setId(uint256,bytes32,uint256)": "infinite",
						"setIdCardNumber(uint256,bytes32,uint256)": "infinite",
						"setLinkedin(uint256,bytes32,string)": "infinite",
						"setName(uint256,bytes32,string)": "infinite",
						"setPassword(uint256,bytes32,string)": "infinite",
						"setPhone(uint256,bytes32,string)": "infinite",
						"setProfessional(uint256,bytes32,string)": "infinite",
						"setSourceImage(uint256,bytes32,string)": "infinite",
						"setUser(uint256,bytes32,address)": "infinite",
						"transferOwnership(address)": "28476"
					}
				},
				"methodIdentifiers": {
					"add((uint256,uint256,uint256,address,string,string,string,string,string,string,string,string),bytes32)": "7dcd61bd",
					"at(uint256,bytes32)": "c78a6741",
					"atAddress(address,bytes32)": "236df93c",
					"destroy()": "83197ef0",
					"findIdByAddress(address,bytes32)": "d32a04c7",
					"getLength(bytes32)": "fd82e9dd",
					"hide(uint256,bytes32)": "b615c00a",
					"owner()": "8da5cb5b",
					"setCategory(uint256,bytes32,uint256)": "294b4b6b",
					"setEmail(uint256,bytes32,string)": "29cd6311",
					"setGithub(uint256,bytes32,string)": "d2af71a6",
					"setId(uint256,bytes32,uint256)": "8827b05f",
					"setIdCardNumber(uint256,bytes32,uint256)": "11a89a5f",
					"setLinkedin(uint256,bytes32,string)": "d45c8abf",
					"setName(uint256,bytes32,string)": "413896e4",
					"setPassword(uint256,bytes32,string)": "2c3ce919",
					"setPhone(uint256,bytes32,string)": "d49cb146",
					"setProfessional(uint256,bytes32,string)": "e3f34371",
					"setSourceImage(uint256,bytes32,string)": "800f2234",
					"setUser(uint256,bytes32,address)": "2e22eafe",
					"transferOwnership(address)": "f2fde38b"
				}
			},
			"storageLayout": {
				"storage": [
					{
						"astId": 4,
						"contract": "database/ListEmployee.sol:ListEmployee",
						"label": "_owner",
						"offset": 0,
						"slot": "0",
						"type": "t_address"
					},
					{
						"astId": 134,
						"contract": "database/ListEmployee.sol:ListEmployee",
						"label": "list",
						"offset": 0,
						"slot": "1",
						"type": "t_mapping(t_uint256,t_struct(Profile)746_storage)"
					},
					{
						"astId": 137,
						"contract": "database/ListEmployee.sol:ListEmployee",
						"label": "autoIncrement",
						"offset": 0,
						"slot": "2",
						"type": "t_uint256"
					}
				],
				"types": {
					"t_address": {
						"encoding": "inplace",
						"label": "address",
						"numberOfBytes": "20"
					},
					"t_mapping(t_uint256,t_struct(Profile)746_storage)": {
						"encoding": "mapping",
						"key": "t_uint256",
						"label": "mapping(uint256 => struct Profile)",
						"numberOfBytes": "32",
						"value": "t_struct(Profile)746_storage"
					},
					"t_string_storage": {
						"encoding": "bytes",
						"label": "string",
						"numberOfBytes": "32"
					},
					"t_struct(Profile)746_storage": {
						"encoding": "inplace",
						"label": "struct Profile",
						"members": [
							{
								"astId": 723,
								"contract": "database/ListEmployee.sol:ListEmployee",
								"label": "catergory",
								"offset": 0,
								"slot": "0",
								"type": "t_uint256"
							},
							{
								"astId": 725,
								"contract": "database/ListEmployee.sol:ListEmployee",
								"label": "id",
								"offset": 0,
								"slot": "1",
								"type": "t_uint256"
							},
							{
								"astId": 727,
								"contract": "database/ListEmployee.sol:ListEmployee",
								"label": "idCardNumber",
								"offset": 0,
								"slot": "2",
								"type": "t_uint256"
							},
							{
								"astId": 729,
								"contract": "database/ListEmployee.sol:ListEmployee",
								"label": "user",
								"offset": 0,
								"slot": "3",
								"type": "t_address"
							},
							{
								"astId": 731,
								"contract": "database/ListEmployee.sol:ListEmployee",
								"label": "name",
								"offset": 0,
								"slot": "4",
								"type": "t_string_storage"
							},
							{
								"astId": 733,
								"contract": "database/ListEmployee.sol:ListEmployee",
								"label": "phone",
								"offset": 0,
								"slot": "5",
								"type": "t_string_storage"
							},
							{
								"astId": 735,
								"contract": "database/ListEmployee.sol:ListEmployee",
								"label": "professional",
								"offset": 0,
								"slot": "6",
								"type": "t_string_storage"
							},
							{
								"astId": 737,
								"contract": "database/ListEmployee.sol:ListEmployee",
								"label": "email",
								"offset": 0,
								"slot": "7",
								"type": "t_string_storage"
							},
							{
								"astId": 739,
								"contract": "database/ListEmployee.sol:ListEmployee",
								"label": "github",
								"offset": 0,
								"slot": "8",
								"type": "t_string_storage"
							},
							{
								"astId": 741,
								"contract": "database/ListEmployee.sol:ListEmployee",
								"label": "linkedin",
								"offset": 0,
								"slot": "9",
								"type": "t_string_storage"
							},
							{
								"astId": 743,
								"contract": "database/ListEmployee.sol:ListEmployee",
								"label": "sourceImage",
								"offset": 0,
								"slot": "10",
								"type": "t_string_storage"
							},
							{
								"astId": 745,
								"contract": "database/ListEmployee.sol:ListEmployee",
								"label": "password",
								"offset": 0,
								"slot": "11",
								"type": "t_string_storage"
							}
						],
						"numberOfBytes": "384"
					},
					"t_uint256": {
						"encoding": "inplace",
						"label": "uint256",
						"numberOfBytes": "32"
					}
				}
			},
			"userdoc": {
				"kind": "user",
				"methods": {},
				"version": 1
			}
		}
	}
}