{
	"database/ListBusiness.sol": {
		"ListBusiness": {
			"abi": [
				{
					"inputs": [],
					"stateMutability": "nonpayable",
					"type": "constructor"
				},
				{
					"anonymous": false,
					"inputs": [
						{
							"components": [
								{
									"internalType": "uint256",
									"name": "catergory",
									"type": "uint256"
								},
								{
									"internalType": "uint256",
									"name": "id",
									"type": "uint256"
								},
								{
									"internalType": "address",
									"name": "user",
									"type": "address"
								},
								{
									"internalType": "string",
									"name": "name",
									"type": "string"
								},
								{
									"internalType": "string",
									"name": "phone",
									"type": "string"
								},
								{
									"internalType": "string",
									"name": "professional",
									"type": "string"
								},
								{
									"internalType": "string",
									"name": "email",
									"type": "string"
								},
								{
									"internalType": "string",
									"name": "github",
									"type": "string"
								},
								{
									"internalType": "string",
									"name": "linkedin",
									"type": "string"
								},
								{
									"internalType": "string",
									"name": "sourceImage",
									"type": "string"
								},
								{
									"internalType": "string",
									"name": "password",
									"type": "string"
								}
							],
							"indexed": false,
							"internalType": "struct Profile",
							"name": "item",
							"type": "tuple"
						}
					],
					"name": "Add",
					"type": "event"
				},
				{
					"anonymous": false,
					"inputs": [
						{
							"indexed": true,
							"internalType": "address",
							"name": "previousOwner",
							"type": "address"
						},
						{
							"indexed": true,
							"internalType": "address",
							"name": "newOwner",
							"type": "address"
						}
					],
					"name": "OwnershipTransferred",
					"type": "event"
				},
				{
					"anonymous": false,
					"inputs": [
						{
							"components": [
								{
									"internalType": "uint256",
									"name": "catergory",
									"type": "uint256"
								},
								{
									"internalType": "uint256",
									"name": "id",
									"type": "uint256"
								},
								{
									"internalType": "address",
									"name": "user",
									"type": "address"
								},
								{
									"internalType": "string",
									"name": "name",
									"type": "string"
								},
								{
									"internalType": "string",
									"name": "phone",
									"type": "string"
								},
								{
									"internalType": "string",
									"name": "professional",
									"type": "string"
								},
								{
									"internalType": "string",
									"name": "email",
									"type": "string"
								},
								{
									"internalType": "string",
									"name": "github",
									"type": "string"
								},
								{
									"internalType": "string",
									"name": "linkedin",
									"type": "string"
								},
								{
									"internalType": "string",
									"name": "sourceImage",
									"type": "string"
								},
								{
									"internalType": "string",
									"name": "password",
									"type": "string"
								}
							],
							"indexed": false,
							"internalType": "struct Profile",
							"name": "item",
							"type": "tuple"
						}
					],
					"name": "Remove",
					"type": "event"
				},
				{
					"inputs": [
						{
							"components": [
								{
									"internalType": "uint256",
									"name": "catergory",
									"type": "uint256"
								},
								{
									"internalType": "uint256",
									"name": "id",
									"type": "uint256"
								},
								{
									"internalType": "address",
									"name": "user",
									"type": "address"
								},
								{
									"internalType": "string",
									"name": "name",
									"type": "string"
								},
								{
									"internalType": "string",
									"name": "phone",
									"type": "string"
								},
								{
									"internalType": "string",
									"name": "professional",
									"type": "string"
								},
								{
									"internalType": "string",
									"name": "email",
									"type": "string"
								},
								{
									"internalType": "string",
									"name": "github",
									"type": "string"
								},
								{
									"internalType": "string",
									"name": "linkedin",
									"type": "string"
								},
								{
									"internalType": "string",
									"name": "sourceImage",
									"type": "string"
								},
								{
									"internalType": "string",
									"name": "password",
									"type": "string"
								}
							],
							"internalType": "struct Profile",
							"name": "item",
							"type": "tuple"
						},
						{
							"internalType": "bytes32",
							"name": "secret",
							"type": "bytes32"
						}
					],
					"name": "add",
					"outputs": [
						{
							"internalType": "bool",
							"name": "",
							"type": "bool"
						}
					],
					"stateMutability": "nonpayable",
					"type": "function"
				},
				{
					"inputs": [
						{
							"internalType": "uint256",
							"name": "index",
							"type": "uint256"
						},
						{
							"internalType": "bytes32",
							"name": "secret",
							"type": "bytes32"
						}
					],
					"name": "at",
					"outputs": [
						{
							"components": [
								{
									"internalType": "uint256",
									"name": "catergory",
									"type": "uint256"
								},
								{
									"internalType": "uint256",
									"name": "id",
									"type": "uint256"
								},
								{
									"internalType": "address",
									"name": "user",
									"type": "address"
								},
								{
									"internalType": "string",
									"name": "name",
									"type": "string"
								},
								{
									"internalType": "string",
									"name": "phone",
									"type": "string"
								},
								{
									"internalType": "string",
									"name": "professional",
									"type": "string"
								},
								{
									"internalType": "string",
									"name": "email",
									"type": "string"
								},
								{
									"internalType": "string",
									"name": "github",
									"type": "string"
								},
								{
									"internalType": "string",
									"name": "linkedin",
									"type": "string"
								},
								{
									"internalType": "string",
									"name": "sourceImage",
									"type": "string"
								},
								{
									"internalType": "string",
									"name": "password",
									"type": "string"
								}
							],
							"internalType": "struct Profile",
							"name": "",
							"type": "tuple"
						}
					],
					"stateMutability": "view",
					"type": "function"
				},
				{
					"inputs": [
						{
							"internalType": "address",
							"name": "value",
							"type": "address"
						},
						{
							"internalType": "bytes32",
							"name": "secret",
							"type": "bytes32"
						}
					],
					"name": "atAddress",
					"outputs": [
						{
							"components": [
								{
									"internalType": "uint256",
									"name": "catergory",
									"type": "uint256"
								},
								{
									"internalType": "uint256",
									"name": "id",
									"type": "uint256"
								},
								{
									"internalType": "address",
									"name": "user",
									"type": "address"
								},
								{
									"internalType": "string",
									"name": "name",
									"type": "string"
								},
								{
									"internalType": "string",
									"name": "phone",
									"type": "string"
								},
								{
									"internalType": "string",
									"name": "professional",
									"type": "string"
								},
								{
									"internalType": "string",
									"name": "email",
									"type": "string"
								},
								{
									"internalType": "string",
									"name": "github",
									"type": "string"
								},
								{
									"internalType": "string",
									"name": "linkedin",
									"type": "string"
								},
								{
									"internalType": "string",
									"name": "sourceImage",
									"type": "string"
								},
								{
									"internalType": "string",
									"name": "password",
									"type": "string"
								}
							],
							"internalType": "struct Profile",
							"name": "",
							"type": "tuple"
						}
					],
					"stateMutability": "view",
					"type": "function"
				},
				{
					"inputs": [],
					"name": "destroy",
					"outputs": [],
					"stateMutability": "nonpayable",
					"type": "function"
				},
				{
					"inputs": [
						{
							"internalType": "address",
							"name": "value",
							"type": "address"
						},
						{
							"internalType": "bytes32",
							"name": "secret",
							"type": "bytes32"
						}
					],
					"name": "findIdByAddress",
					"outputs": [
						{
							"internalType": "uint256",
							"name": "",
							"type": "uint256"
						}
					],
					"stateMutability": "view",
					"type": "function"
				},
				{
					"inputs": [
						{
							"internalType": "bytes32",
							"name": "secret",
							"type": "bytes32"
						}
					],
					"name": "getLength",
					"outputs": [
						{
							"internalType": "uint256",
							"name": "",
							"type": "uint256"
						}
					],
					"stateMutability": "view",
					"type": "function"
				},
				{
					"inputs": [
						{
							"internalType": "uint256",
							"name": "index",
							"type": "uint256"
						},
						{
							"internalType": "bytes32",
							"name": "secret",
							"type": "bytes32"
						}
					],
					"name": "hide",
					"outputs": [
						{
							"internalType": "bool",
							"name": "",
							"type": "bool"
						}
					],
					"stateMutability": "nonpayable",
					"type": "function"
				},
				{
					"inputs": [],
					"name": "owner",
					"outputs": [
						{
							"internalType": "address",
							"name": "",
							"type": "address"
						}
					],
					"stateMutability": "view",
					"type": "function"
				},
				{
					"inputs": [
						{
							"internalType": "uint256",
							"name": "index",
							"type": "uint256"
						},
						{
							"internalType": "bytes32",
							"name": "secret",
							"type": "bytes32"
						},
						{
							"internalType": "uint256",
							"name": "value",
							"type": "uint256"
						}
					],
					"name": "setCategory",
					"outputs": [
						{
							"internalType": "bool",
							"name": "",
							"type": "bool"
						}
					],
					"stateMutability": "nonpayable",
					"type": "function"
				},
				{
					"inputs": [
						{
							"internalType": "uint256",
							"name": "index",
							"type": "uint256"
						},
						{
							"internalType": "bytes32",
							"name": "secret",
							"type": "bytes32"
						},
						{
							"internalType": "string",
							"name": "value",
							"type": "string"
						}
					],
					"name": "setEmail",
					"outputs": [
						{
							"internalType": "bool",
							"name": "",
							"type": "bool"
						}
					],
					"stateMutability": "nonpayable",
					"type": "function"
				},
				{
					"inputs": [
						{
							"internalType": "uint256",
							"name": "index",
							"type": "uint256"
						},
						{
							"internalType": "bytes32",
							"name": "secret",
							"type": "bytes32"
						},
						{
							"internalType": "string",
							"name": "value",
							"type": "string"
						}
					],
					"name": "setGithub",
					"outputs": [
						{
							"internalType": "bool",
							"name": "",
							"type": "bool"
						}
					],
					"stateMutability": "nonpayable",
					"type": "function"
				},
				{
					"inputs": [
						{
							"internalType": "uint256",
							"name": "index",
							"type": "uint256"
						},
						{
							"internalType": "bytes32",
							"name": "secret",
							"type": "bytes32"
						},
						{
							"internalType": "uint256",
							"name": "value",
							"type": "uint256"
						}
					],
					"name": "setId",
					"outputs": [
						{
							"internalType": "bool",
							"name": "",
							"type": "bool"
						}
					],
					"stateMutability": "nonpayable",
					"type": "function"
				},
				{
					"inputs": [
						{
							"internalType": "uint256",
							"name": "index",
							"type": "uint256"
						},
						{
							"internalType": "bytes32",
							"name": "secret",
							"type": "bytes32"
						},
						{
							"internalType": "string",
							"name": "value",
							"type": "string"
						}
					],
					"name": "setLinkedin",
					"outputs": [
						{
							"internalType": "bool",
							"name": "",
							"type": "bool"
						}
					],
					"stateMutability": "nonpayable",
					"type": "function"
				},
				{
					"inputs": [
						{
							"internalType": "uint256",
							"name": "index",
							"type": "uint256"
						},
						{
							"internalType": "bytes32",
							"name": "secret",
							"type": "bytes32"
						},
						{
							"internalType": "string",
							"name": "value",
							"type": "string"
						}
					],
					"name": "setName",
					"outputs": [
						{
							"internalType": "bool",
							"name": "",
							"type": "bool"
						}
					],
					"stateMutability": "nonpayable",
					"type": "function"
				},
				{
					"inputs": [
						{
							"internalType": "uint256",
							"name": "index",
							"type": "uint256"
						},
						{
							"internalType": "bytes32",
							"name": "secret",
							"type": "bytes32"
						},
						{
							"internalType": "string",
							"name": "value",
							"type": "string"
						}
					],
					"name": "setPassword",
					"outputs": [
						{
							"internalType": "bool",
							"name": "",
							"type": "bool"
						}
					],
					"stateMutability": "nonpayable",
					"type": "function"
				},
				{
					"inputs": [
						{
							"internalType": "uint256",
							"name": "index",
							"type": "uint256"
						},
						{
							"internalType": "bytes32",
							"name": "secret",
							"type": "bytes32"
						},
						{
							"internalType": "string",
							"name": "value",
							"type": "string"
						}
					],
					"name": "setPhone",
					"outputs": [
						{
							"internalType": "bool",
							"name": "",
							"type": "bool"
						}
					],
					"stateMutability": "nonpayable",
					"type": "function"
				},
				{
					"inputs": [
						{
							"internalType": "uint256",
							"name": "index",
							"type": "uint256"
						},
						{
							"internalType": "bytes32",
							"name": "secret",
							"type": "bytes32"
						},
						{
							"internalType": "string",
							"name": "value",
							"type": "string"
						}
					],
					"name": "setProfessional",
					"outputs": [
						{
							"internalType": "bool",
							"name": "",
							"type": "bool"
						}
					],
					"stateMutability": "nonpayable",
					"type": "function"
				},
				{
					"inputs": [
						{
							"internalType": "uint256",
							"name": "index",
							"type": "uint256"
						},
						{
							"internalType": "bytes32",
							"name": "secret",
							"type": "bytes32"
						},
						{
							"internalType": "string",
							"name": "value",
							"type": "string"
						}
					],
					"name": "setSourceImage",
					"outputs": [
						{
							"internalType": "bool",
							"name": "",
							"type": "bool"
						}
					],
					"stateMutability": "nonpayable",
					"type": "function"
				},
				{
					"inputs": [
						{
							"internalType": "uint256",
							"name": "index",
							"type": "uint256"
						},
						{
							"internalType": "bytes32",
							"name": "secret",
							"type": "bytes32"
						},
						{
							"internalType": "address",
							"name": "value",
							"type": "address"
						}
					],
					"name": "setUser",
					"outputs": [
						{
							"internalType": "bool",
							"name": "",
							"type": "bool"
						}
					],
					"stateMutability": "nonpayable",
					"type": "function"
				},
				{
					"inputs": [
						{
							"internalType": "address",
							"name": "newOwner",
							"type": "address"
						}
					],
					"name": "transferOwnership",
					"outputs": [],
					"stateMutability": "nonpayable",
					"type": "function"
				}
			],
			"devdoc": {
				"kind": "dev",
				"methods": {
					"owner()": {
						"details": "Returns the address of the current owner."
					},
					"transferOwnership(address)": {
						"details": "Transfers ownership of the contract to a new account (`newOwner`). Can only be called by the current owner."
					}
				},
				"version": 1
			},
			"evm": {
				"assembly": "    /* \"database/ListBusiness.sol\":237:8411  contract ListBusiness is Ownable {... */\n  mstore(0x40, 0x80)\n    /* \"database/ListBusiness.sol\":354:355  0 */\n  0x00\n    /* \"database/ListBusiness.sol\":322:355  uint256 private autoIncrement = 0 */\n  0x02\n  sstore\n    /* \"database/ListBusiness.sol\":362:388  constructor() Ownable() {} */\n  callvalue\n  dup1\n  iszero\n  tag_1\n  jumpi\n  0x00\n  dup1\n  revert\ntag_1:\n  pop\n    /* \"abstract/Ownable.sol\":923:929  _owner */\n  0x00\n    /* \"abstract/Ownable.sol\":923:942  _owner = msg.sender */\n  dup1\n  sload\n  not(sub(shl(0xa0, 0x01), 0x01))\n  and\n    /* \"abstract/Ownable.sol\":932:942  msg.sender */\n  caller\n    /* \"abstract/Ownable.sol\":923:942  _owner = msg.sender */\n  or\n  swap1\n  sstore\n    /* \"database/ListBusiness.sol\":237:8411  contract ListBusiness is Ownable {... */\n  dataSize(sub_0)\n  dup1\n  dataOffset(sub_0)\n  0x00\n  codecopy\n  0x00\n  return\nstop\n\nsub_0: assembly {\n        /* \"database/ListBusiness.sol\":237:8411  contract ListBusiness is Ownable {... */\n      mstore(0x40, 0x80)\n      callvalue\n      dup1\n      iszero\n      tag_1\n      jumpi\n      0x00\n      dup1\n      revert\n    tag_1:\n      pop\n      jumpi(tag_2, lt(calldatasize, 0x04))\n      shr(0xe0, calldataload(0x00))\n      dup1\n      0x8da5cb5b\n      gt\n      tag_23\n      jumpi\n      dup1\n      0xd45c8abf\n      gt\n      tag_24\n      jumpi\n      dup1\n      0xd45c8abf\n      eq\n      tag_18\n      jumpi\n      dup1\n      0xd49cb146\n      eq\n      tag_19\n      jumpi\n      dup1\n      0xe3f34371\n      eq\n      tag_20\n      jumpi\n      dup1\n      0xf2fde38b\n      eq\n      tag_21\n      jumpi\n      dup1\n      0xfd82e9dd\n      eq\n      tag_22\n      jumpi\n      0x00\n      dup1\n      revert\n    tag_24:\n      dup1\n      0x8da5cb5b\n      eq\n      tag_13\n      jumpi\n      dup1\n      0xb615c00a\n      eq\n      tag_14\n      jumpi\n      dup1\n      0xc78a6741\n      eq\n      tag_15\n      jumpi\n      dup1\n      0xd2af71a6\n      eq\n      tag_16\n      jumpi\n      dup1\n      0xd32a04c7\n      eq\n      tag_17\n      jumpi\n      0x00\n      dup1\n      revert\n    tag_23:\n      dup1\n      0x2e22eafe\n      gt\n      tag_25\n      jumpi\n      dup1\n      0x2e22eafe\n      eq\n      tag_8\n      jumpi\n      dup1\n      0x413896e4\n      eq\n      tag_9\n      jumpi\n      dup1\n      0x800f2234\n      eq\n      tag_10\n      jumpi\n      dup1\n      0x83197ef0\n      eq\n      tag_11\n      jumpi\n      dup1\n      0x8827b05f\n      eq\n      tag_12\n      jumpi\n      0x00\n      dup1\n      revert\n    tag_25:\n      dup1\n      0x04a28c07\n      eq\n      tag_3\n      jumpi\n      dup1\n      0x236df93c\n      eq\n      tag_4\n      jumpi\n      dup1\n      0x294b4b6b\n      eq\n      tag_5\n      jumpi\n      dup1\n      0x29cd6311\n      eq\n      tag_6\n      jumpi\n      dup1\n      0x2c3ce919\n      eq\n      tag_7\n      jumpi\n    tag_2:\n      0x00\n      dup1\n      revert\n        /* \"database/ListBusiness.sol\":1000:1271  function add(Profile memory item, bytes32 secret)... */\n    tag_3:\n      tag_26\n      tag_27\n      calldatasize\n      0x04\n      tag_28\n      jump\t// in\n    tag_27:\n      tag_29\n      jump\t// in\n    tag_26:\n      mload(0x40)\n        /* \"#utility.yul\":3611:3625   */\n      swap1\n      iszero\n        /* \"#utility.yul\":3604:3626   */\n      iszero\n        /* \"#utility.yul\":3586:3627   */\n      dup2\n      mstore\n        /* \"#utility.yul\":3574:3576   */\n      0x20\n        /* \"#utility.yul\":3559:3577   */\n      add\n        /* \"database/ListBusiness.sol\":1000:1271  function add(Profile memory item, bytes32 secret)... */\n    tag_30:\n      mload(0x40)\n      dup1\n      swap2\n      sub\n      swap1\n      return\n        /* \"database/ListBusiness.sol\":1866:2199  function atAddress(address value, bytes32 secret)... */\n    tag_4:\n      tag_32\n      tag_33\n      calldatasize\n      0x04\n      tag_34\n      jump\t// in\n    tag_33:\n      tag_35\n      jump\t// in\n    tag_32:\n      mload(0x40)\n      tag_30\n      swap2\n      swap1\n      tag_37\n      jump\t// in\n        /* \"database/ListBusiness.sol\":3009:3238  function setCategory(... */\n    tag_5:\n      tag_26\n      tag_39\n      calldatasize\n      0x04\n      tag_40\n      jump\t// in\n    tag_39:\n      tag_41\n      jump\t// in\n        /* \"database/ListBusiness.sol\":4406:4634  function setEmail(... */\n    tag_6:\n      tag_26\n      tag_44\n      calldatasize\n      0x04\n      tag_45\n      jump\t// in\n    tag_44:\n      tag_46\n      jump\t// in\n        /* \"database/ListBusiness.sol\":5362:5596  function setPassword(... */\n    tag_7:\n      tag_26\n      tag_49\n      calldatasize\n      0x04\n      tag_45\n      jump\t// in\n    tag_49:\n      tag_50\n      jump\t// in\n        /* \"database/ListBusiness.sol\":3466:3686  function setUser(... */\n    tag_8:\n      tag_26\n      tag_53\n      calldatasize\n      0x04\n      tag_54\n      jump\t// in\n    tag_53:\n      tag_55\n      jump\t// in\n        /* \"database/ListBusiness.sol\":3692:3918  function setName(... */\n    tag_9:\n      tag_26\n      tag_58\n      calldatasize\n      0x04\n      tag_45\n      jump\t// in\n    tag_58:\n      tag_59\n      jump\t// in\n        /* \"database/ListBusiness.sol\":5116:5356  function setSourceImage(... */\n    tag_10:\n      tag_26\n      tag_62\n      calldatasize\n      0x04\n      tag_45\n      jump\t// in\n    tag_62:\n      tag_63\n      jump\t// in\n        /* \"abstract/Ownable.sol\":2642:2731  function destroy() public onlyOwner {... */\n    tag_11:\n      tag_65\n      tag_66\n      jump\t// in\n    tag_65:\n      stop\n        /* \"database/ListBusiness.sol\":3244:3460  function setId(... */\n    tag_12:\n      tag_26\n      tag_68\n      calldatasize\n      0x04\n      tag_40\n      jump\t// in\n    tag_68:\n      tag_69\n      jump\t// in\n        /* \"abstract/Ownable.sol\":1175:1260  function owner() public view virtual returns (address) {... */\n    tag_13:\n        /* \"abstract/Ownable.sol\":1221:1228  address */\n      0x00\n        /* \"abstract/Ownable.sol\":1247:1253  _owner */\n      sload\n        /* \"abstract/Ownable.sol\":1175:1260  function owner() public view virtual returns (address) {... */\n      mload(0x40)\n      sub(shl(0xa0, 0x01), 0x01)\n        /* \"abstract/Ownable.sol\":1247:1253  _owner */\n      swap1\n      swap2\n      and\n        /* \"#utility.yul\":7686:7737   */\n      dup2\n      mstore\n        /* \"#utility.yul\":7674:7676   */\n      0x20\n        /* \"#utility.yul\":7659:7677   */\n      add\n        /* \"abstract/Ownable.sol\":1175:1260  function owner() public view virtual returns (address) {... */\n      tag_30\n        /* \"#utility.yul\":7540:7743   */\n      jump\n        /* \"database/ListBusiness.sol\":2483:2914  function hide(uint256 index, bytes32 secret)... */\n    tag_14:\n      tag_26\n      tag_76\n      calldatasize\n      0x04\n      tag_77\n      jump\t// in\n    tag_76:\n      tag_78\n      jump\t// in\n        /* \"database/ListBusiness.sol\":1277:1559  function at(uint256 index, bytes32 secret)... */\n    tag_15:\n      tag_32\n      tag_81\n      calldatasize\n      0x04\n      tag_77\n      jump\t// in\n    tag_81:\n      tag_82\n      jump\t// in\n        /* \"database/ListBusiness.sol\":4640:4870  function setGithub(... */\n    tag_16:\n      tag_26\n      tag_85\n      calldatasize\n      0x04\n      tag_45\n      jump\t// in\n    tag_85:\n      tag_86\n      jump\t// in\n        /* \"database/ListBusiness.sol\":1565:1860  function findIdByAddress(address value, bytes32 secret)... */\n    tag_17:\n      tag_88\n      tag_89\n      calldatasize\n      0x04\n      tag_34\n      jump\t// in\n    tag_89:\n      tag_90\n      jump\t// in\n    tag_88:\n      mload(0x40)\n        /* \"#utility.yul\":8147:8172   */\n      swap1\n      dup2\n      mstore\n        /* \"#utility.yul\":8135:8137   */\n      0x20\n        /* \"#utility.yul\":8120:8138   */\n      add\n        /* \"database/ListBusiness.sol\":1565:1860  function findIdByAddress(address value, bytes32 secret)... */\n      tag_30\n        /* \"#utility.yul\":8001:8178   */\n      jump\n        /* \"database/ListBusiness.sol\":4876:5110  function setLinkedin(... */\n    tag_18:\n      tag_26\n      tag_94\n      calldatasize\n      0x04\n      tag_45\n      jump\t// in\n    tag_94:\n      tag_95\n      jump\t// in\n        /* \"database/ListBusiness.sol\":3924:4152  function setPhone(... */\n    tag_19:\n      tag_26\n      tag_98\n      calldatasize\n      0x04\n      tag_45\n      jump\t// in\n    tag_98:\n      tag_99\n      jump\t// in\n        /* \"database/ListBusiness.sol\":4158:4400  function setProfessional(... */\n    tag_20:\n      tag_26\n      tag_102\n      calldatasize\n      0x04\n      tag_45\n      jump\t// in\n    tag_102:\n      tag_103\n      jump\t// in\n        /* \"abstract/Ownable.sol\":2063:2295  function transferOwnership(address newOwner) public virtual onlyOwner {... */\n    tag_21:\n      tag_65\n      tag_106\n      calldatasize\n      0x04\n      tag_107\n      jump\t// in\n    tag_106:\n      tag_108\n      jump\t// in\n        /* \"database/ListBusiness.sol\":831:994  function getLength(bytes32 secret)... */\n    tag_22:\n      tag_88\n      tag_110\n      calldatasize\n      0x04\n      tag_111\n      jump\t// in\n    tag_110:\n      tag_112\n      jump\t// in\n        /* \"database/ListBusiness.sol\":1000:1271  function add(Profile memory item, bytes32 secret)... */\n    tag_29:\n        /* \"database/ListBusiness.sol\":1115:1119  bool */\n      0x00\n        /* \"database/ListBusiness.sol\":1090:1096  secret */\n      dup2\n      0x00\n      dup1\n      mload\n      0x20\n      data_98ee57057fe0a523e70b51608fd55a37ff53d47c3b8dac495a5f45d45157392f\n      dup4\n      codecopy\n      dup2\n      mload\n      swap2\n      mstore\n        /* \"database/ListBusiness.sol\":529:550  value == DATABASE_KEY */\n      dup2\n      eq\n        /* \"database/ListBusiness.sol\":508:615  require(... */\n      tag_115\n      jumpi\n      mload(0x40)\n      shl(0xe5, 0x461bcd)\n      dup2\n      mstore\n      0x04\n      add\n      tag_116\n      swap1\n      tag_117\n      jump\t// in\n    tag_116:\n      mload(0x40)\n      dup1\n      swap2\n      sub\n      swap1\n      revert\n    tag_115:\n        /* \"database/ListBusiness.sol\":1135:1148  autoIncrement */\n      0x02\n        /* \"database/ListBusiness.sol\":1135:1150  autoIncrement++ */\n      dup1\n      sload\n      swap1\n        /* \"database/ListBusiness.sol\":1135:1148  autoIncrement */\n      0x00\n        /* \"database/ListBusiness.sol\":1135:1150  autoIncrement++ */\n      tag_119\n      dup4\n      tag_120\n      jump\t// in\n    tag_119:\n      swap1\n      swap2\n      sstore\n      pop\n      pop\n        /* \"database/ListBusiness.sol\":1170:1183  autoIncrement */\n      0x02\n      dup1\n      sload\n        /* \"database/ListBusiness.sol\":1160:1167  item.id */\n      0x20\n      dup7\n      dup2\n      add\n        /* \"database/ListBusiness.sol\":1160:1183  item.id = autoIncrement */\n      dup3\n      dup2\n      mstore\n        /* \"database/ListBusiness.sol\":1193:1212  list[autoIncrement] */\n      0x00\n      swap3\n      dup4\n      mstore\n        /* \"database/ListBusiness.sol\":1193:1197  list */\n      0x01\n        /* \"database/ListBusiness.sol\":1193:1212  list[autoIncrement] */\n      swap2\n      dup3\n      swap1\n      mstore\n      0x40\n      swap3\n      dup4\n      swap1\n      keccak256\n        /* \"database/ListBusiness.sol\":1193:1219  list[autoIncrement] = item */\n      dup9\n      mload\n      dup2\n      sstore\n      swap1\n      mload\n      swap2\n      dup2\n      add\n      swap2\n      swap1\n      swap2\n      sstore\n      swap1\n      dup7\n      add\n      mload\n      swap2\n      dup2\n      add\n      dup1\n      sload\n      not(sub(shl(0xa0, 0x01), 0x01))\n      and\n      sub(shl(0xa0, 0x01), 0x01)\n      swap1\n      swap4\n      and\n      swap3\n      swap1\n      swap3\n      or\n      swap1\n      swap2\n      sstore\n      0x60\n      dup6\n      add\n      mload\n        /* \"database/ListBusiness.sol\":1160:1167  item.id */\n      dup6\n      swap2\n        /* \"database/ListBusiness.sol\":1193:1212  list[autoIncrement] */\n      swap1\n        /* \"database/ListBusiness.sol\":1193:1219  list[autoIncrement] = item */\n      0x03\n      dup3\n      add\n      swap1\n      tag_121\n      swap1\n      dup3\n      tag_122\n      jump\t// in\n    tag_121:\n      pop\n      0x80\n      dup3\n      add\n      mload\n      0x04\n      dup3\n      add\n      swap1\n      tag_123\n      swap1\n      dup3\n      tag_122\n      jump\t// in\n    tag_123:\n      pop\n      0xa0\n      dup3\n      add\n      mload\n      0x05\n      dup3\n      add\n      swap1\n      tag_124\n      swap1\n      dup3\n      tag_122\n      jump\t// in\n    tag_124:\n      pop\n      0xc0\n      dup3\n      add\n      mload\n      0x06\n      dup3\n      add\n      swap1\n      tag_125\n      swap1\n      dup3\n      tag_122\n      jump\t// in\n    tag_125:\n      pop\n      0xe0\n      dup3\n      add\n      mload\n      0x07\n      dup3\n      add\n      swap1\n      tag_126\n      swap1\n      dup3\n      tag_122\n      jump\t// in\n    tag_126:\n      pop\n      0x0100\n      dup3\n      add\n      mload\n      0x08\n      dup3\n      add\n      swap1\n      tag_127\n      swap1\n      dup3\n      tag_122\n      jump\t// in\n    tag_127:\n      pop\n      0x0120\n      dup3\n      add\n      mload\n      0x09\n      dup3\n      add\n      swap1\n      tag_128\n      swap1\n      dup3\n      tag_122\n      jump\t// in\n    tag_128:\n      pop\n      0x0140\n      dup3\n      add\n      mload\n      0x0a\n      dup3\n      add\n      swap1\n      tag_129\n      swap1\n      dup3\n      tag_122\n      jump\t// in\n    tag_129:\n      pop\n      swap1\n      pop\n      pop\n        /* \"database/ListBusiness.sol\":1234:1243  Add(item) */\n      0xf1c85255584806819bcf2d77a175d3ec22e4d0e596c27fcddc47379dededb756\n        /* \"database/ListBusiness.sol\":1238:1242  item */\n      dup5\n        /* \"database/ListBusiness.sol\":1234:1243  Add(item) */\n      mload(0x40)\n      tag_130\n      swap2\n      swap1\n      tag_37\n      jump\t// in\n    tag_130:\n      mload(0x40)\n      dup1\n      swap2\n      sub\n      swap1\n      log1\n        /* \"database/ListBusiness.sol\":1260:1264  true */\n      0x01\n        /* \"database/ListBusiness.sol\":1253:1264  return true */\n      swap2\n      pop\n        /* \"database/ListBusiness.sol\":625:626  _ */\n    tag_118:\n        /* \"database/ListBusiness.sol\":1000:1271  function add(Profile memory item, bytes32 secret)... */\n      pop\n      swap3\n      swap2\n      pop\n      pop\n      jump\t// out\n        /* \"database/ListBusiness.sol\":1866:2199  function atAddress(address value, bytes32 secret)... */\n    tag_35:\n        /* \"database/ListBusiness.sol\":1994:2008  Profile memory */\n      tag_131\n      tag_132\n      jump\t// in\n    tag_131:\n        /* \"database/ListBusiness.sol\":1969:1975  secret */\n      dup2\n      0x00\n      dup1\n      mload\n      0x20\n      data_98ee57057fe0a523e70b51608fd55a37ff53d47c3b8dac495a5f45d45157392f\n      dup4\n      codecopy\n      dup2\n      mload\n      swap2\n      mstore\n        /* \"database/ListBusiness.sol\":529:550  value == DATABASE_KEY */\n      dup2\n      eq\n        /* \"database/ListBusiness.sol\":508:615  require(... */\n      tag_134\n      jumpi\n      mload(0x40)\n      shl(0xe5, 0x461bcd)\n      dup2\n      mstore\n      0x04\n      add\n      tag_116\n      swap1\n      tag_117\n      jump\t// in\n    tag_134:\n        /* \"database/ListBusiness.sol\":2041:2042  1 */\n      0x01\n        /* \"database/ListBusiness.sol\":2024:2135  for (uint256 i = 1; i <= autoIncrement; i++) {... */\n    tag_137:\n        /* \"database/ListBusiness.sol\":2049:2062  autoIncrement */\n      sload(0x02)\n        /* \"database/ListBusiness.sol\":2044:2045  i */\n      dup2\n        /* \"database/ListBusiness.sol\":2044:2062  i <= autoIncrement */\n      gt\n        /* \"database/ListBusiness.sol\":2024:2135  for (uint256 i = 1; i <= autoIncrement; i++) {... */\n      tag_138\n      jumpi\n        /* \"database/ListBusiness.sol\":2087:2094  list[i] */\n      0x00\n      dup2\n      dup2\n      mstore\n        /* \"database/ListBusiness.sol\":2087:2091  list */\n      0x01\n        /* \"database/ListBusiness.sol\":2087:2094  list[i] */\n      0x20\n      mstore\n      0x40\n      swap1\n      keccak256\n        /* \"database/ListBusiness.sol\":2087:2099  list[i].user */\n      0x02\n      add\n      sload\n      sub(shl(0xa0, 0x01), 0x01)\n        /* \"database/ListBusiness.sol\":2087:2108  list[i].user == value */\n      dup1\n      dup8\n      and\n        /* \"database/ListBusiness.sol\":2087:2099  list[i].user */\n      swap2\n      and\n        /* \"database/ListBusiness.sol\":2087:2108  list[i].user == value */\n      sub\n        /* \"database/ListBusiness.sol\":2083:2124  if (list[i].user == value) return list[i] */\n      tag_140\n      jumpi\n        /* \"database/ListBusiness.sol\":2117:2124  list[i] */\n      0x00\n      dup2\n      dup2\n      mstore\n        /* \"database/ListBusiness.sol\":2117:2121  list */\n      0x01\n        /* \"database/ListBusiness.sol\":2117:2124  list[i] */\n      0x20\n      dup2\n      dup2\n      mstore\n      0x40\n      swap3\n      dup4\n      swap1\n      keccak256\n        /* \"database/ListBusiness.sol\":2110:2124  return list[i] */\n      dup4\n      mload\n      0x0160\n      dup2\n      add\n      dup6\n      mstore\n      dup2\n      sload\n      dup2\n      mstore\n      swap3\n      dup2\n      add\n      sload\n      swap2\n      dup4\n      add\n      swap2\n      swap1\n      swap2\n      mstore\n      0x02\n      dup2\n      add\n      sload\n      sub(shl(0xa0, 0x01), 0x01)\n      and\n      swap3\n      dup3\n      add\n      swap3\n      swap1\n      swap3\n      mstore\n      0x03\n      dup3\n      add\n      dup1\n      sload\n      swap2\n      swap3\n        /* \"database/ListBusiness.sol\":2117:2124  list[i] */\n      swap2\n        /* \"database/ListBusiness.sol\":2110:2124  return list[i] */\n      0x60\n      dup5\n      add\n      swap2\n      swap1\n      tag_141\n      swap1\n      tag_142\n      jump\t// in\n    tag_141:\n      dup1\n      0x1f\n      add\n      0x20\n      dup1\n      swap2\n      div\n      mul\n      0x20\n      add\n      mload(0x40)\n      swap1\n      dup2\n      add\n      0x40\n      mstore\n      dup1\n      swap3\n      swap2\n      swap1\n      dup2\n      dup2\n      mstore\n      0x20\n      add\n      dup3\n      dup1\n      sload\n      tag_143\n      swap1\n      tag_142\n      jump\t// in\n    tag_143:\n      dup1\n      iszero\n      tag_144\n      jumpi\n      dup1\n      0x1f\n      lt\n      tag_145\n      jumpi\n      0x0100\n      dup1\n      dup4\n      sload\n      div\n      mul\n      dup4\n      mstore\n      swap2\n      0x20\n      add\n      swap2\n      jump(tag_144)\n    tag_145:\n      dup3\n      add\n      swap2\n      swap1\n      0x00\n      mstore\n      keccak256(0x00, 0x20)\n      swap1\n    tag_146:\n      dup2\n      sload\n      dup2\n      mstore\n      swap1\n      0x01\n      add\n      swap1\n      0x20\n      add\n      dup1\n      dup4\n      gt\n      tag_146\n      jumpi\n      dup3\n      swap1\n      sub\n      0x1f\n      and\n      dup3\n      add\n      swap2\n    tag_144:\n      pop\n      pop\n      pop\n      pop\n      pop\n      dup2\n      mstore\n      0x20\n      add\n      0x04\n      dup3\n      add\n      dup1\n      sload\n      tag_147\n      swap1\n      tag_142\n      jump\t// in\n    tag_147:\n      dup1\n      0x1f\n      add\n      0x20\n      dup1\n      swap2\n      div\n      mul\n      0x20\n      add\n      mload(0x40)\n      swap1\n      dup2\n      add\n      0x40\n      mstore\n      dup1\n      swap3\n      swap2\n      swap1\n      dup2\n      dup2\n      mstore\n      0x20\n      add\n      dup3\n      dup1\n      sload\n      tag_148\n      swap1\n      tag_142\n      jump\t// in\n    tag_148:\n      dup1\n      iszero\n      tag_149\n      jumpi\n      dup1\n      0x1f\n      lt\n      tag_150\n      jumpi\n      0x0100\n      dup1\n      dup4\n      sload\n      div\n      mul\n      dup4\n      mstore\n      swap2\n      0x20\n      add\n      swap2\n      jump(tag_149)\n    tag_150:\n      dup3\n      add\n      swap2\n      swap1\n      0x00\n      mstore\n      keccak256(0x00, 0x20)\n      swap1\n    tag_151:\n      dup2\n      sload\n      dup2\n      mstore\n      swap1\n      0x01\n      add\n      swap1\n      0x20\n      add\n      dup1\n      dup4\n      gt\n      tag_151\n      jumpi\n      dup3\n      swap1\n      sub\n      0x1f\n      and\n      dup3\n      add\n      swap2\n    tag_149:\n      pop\n      pop\n      pop\n      pop\n      pop\n      dup2\n      mstore\n      0x20\n      add\n      0x05\n      dup3\n      add\n      dup1\n      sload\n      tag_152\n      swap1\n      tag_142\n      jump\t// in\n    tag_152:\n      dup1\n      0x1f\n      add\n      0x20\n      dup1\n      swap2\n      div\n      mul\n      0x20\n      add\n      mload(0x40)\n      swap1\n      dup2\n      add\n      0x40\n      mstore\n      dup1\n      swap3\n      swap2\n      swap1\n      dup2\n      dup2\n      mstore\n      0x20\n      add\n      dup3\n      dup1\n      sload\n      tag_153\n      swap1\n      tag_142\n      jump\t// in\n    tag_153:\n      dup1\n      iszero\n      tag_154\n      jumpi\n      dup1\n      0x1f\n      lt\n      tag_155\n      jumpi\n      0x0100\n      dup1\n      dup4\n      sload\n      div\n      mul\n      dup4\n      mstore\n      swap2\n      0x20\n      add\n      swap2\n      jump(tag_154)\n    tag_155:\n      dup3\n      add\n      swap2\n      swap1\n      0x00\n      mstore\n      keccak256(0x00, 0x20)\n      swap1\n    tag_156:\n      dup2\n      sload\n      dup2\n      mstore\n      swap1\n      0x01\n      add\n      swap1\n      0x20\n      add\n      dup1\n      dup4\n      gt\n      tag_156\n      jumpi\n      dup3\n      swap1\n      sub\n      0x1f\n      and\n      dup3\n      add\n      swap2\n    tag_154:\n      pop\n      pop\n      pop\n      pop\n      pop\n      dup2\n      mstore\n      0x20\n      add\n      0x06\n      dup3\n      add\n      dup1\n      sload\n      tag_157\n      swap1\n      tag_142\n      jump\t// in\n    tag_157:\n      dup1\n      0x1f\n      add\n      0x20\n      dup1\n      swap2\n      div\n      mul\n      0x20\n      add\n      mload(0x40)\n      swap1\n      dup2\n      add\n      0x40\n      mstore\n      dup1\n      swap3\n      swap2\n      swap1\n      dup2\n      dup2\n      mstore\n      0x20\n      add\n      dup3\n      dup1\n      sload\n      tag_158\n      swap1\n      tag_142\n      jump\t// in\n    tag_158:\n      dup1\n      iszero\n      tag_159\n      jumpi\n      dup1\n      0x1f\n      lt\n      tag_160\n      jumpi\n      0x0100\n      dup1\n      dup4\n      sload\n      div\n      mul\n      dup4\n      mstore\n      swap2\n      0x20\n      add\n      swap2\n      jump(tag_159)\n    tag_160:\n      dup3\n      add\n      swap2\n      swap1\n      0x00\n      mstore\n      keccak256(0x00, 0x20)\n      swap1\n    tag_161:\n      dup2\n      sload\n      dup2\n      mstore\n      swap1\n      0x01\n      add\n      swap1\n      0x20\n      add\n      dup1\n      dup4\n      gt\n      tag_161\n      jumpi\n      dup3\n      swap1\n      sub\n      0x1f\n      and\n      dup3\n      add\n      swap2\n    tag_159:\n      pop\n      pop\n      pop\n      pop\n      pop\n      dup2\n      mstore\n      0x20\n      add\n      0x07\n      dup3\n      add\n      dup1\n      sload\n      tag_162\n      swap1\n      tag_142\n      jump\t// in\n    tag_162:\n      dup1\n      0x1f\n      add\n      0x20\n      dup1\n      swap2\n      div\n      mul\n      0x20\n      add\n      mload(0x40)\n      swap1\n      dup2\n      add\n      0x40\n      mstore\n      dup1\n      swap3\n      swap2\n      swap1\n      dup2\n      dup2\n      mstore\n      0x20\n      add\n      dup3\n      dup1\n      sload\n      tag_163\n      swap1\n      tag_142\n      jump\t// in\n    tag_163:\n      dup1\n      iszero\n      tag_164\n      jumpi\n      dup1\n      0x1f\n      lt\n      tag_165\n      jumpi\n      0x0100\n      dup1\n      dup4\n      sload\n      div\n      mul\n      dup4\n      mstore\n      swap2\n      0x20\n      add\n      swap2\n      jump(tag_164)\n    tag_165:\n      dup3\n      add\n      swap2\n      swap1\n      0x00\n      mstore\n      keccak256(0x00, 0x20)\n      swap1\n    tag_166:\n      dup2\n      sload\n      dup2\n      mstore\n      swap1\n      0x01\n      add\n      swap1\n      0x20\n      add\n      dup1\n      dup4\n      gt\n      tag_166\n      jumpi\n      dup3\n      swap1\n      sub\n      0x1f\n      and\n      dup3\n      add\n      swap2\n    tag_164:\n      pop\n      pop\n      pop\n      pop\n      pop\n      dup2\n      mstore\n      0x20\n      add\n      0x08\n      dup3\n      add\n      dup1\n      sload\n      tag_167\n      swap1\n      tag_142\n      jump\t// in\n    tag_167:\n      dup1\n      0x1f\n      add\n      0x20\n      dup1\n      swap2\n      div\n      mul\n      0x20\n      add\n      mload(0x40)\n      swap1\n      dup2\n      add\n      0x40\n      mstore\n      dup1\n      swap3\n      swap2\n      swap1\n      dup2\n      dup2\n      mstore\n      0x20\n      add\n      dup3\n      dup1\n      sload\n      tag_168\n      swap1\n      tag_142\n      jump\t// in\n    tag_168:\n      dup1\n      iszero\n      tag_169\n      jumpi\n      dup1\n      0x1f\n      lt\n      tag_170\n      jumpi\n      0x0100\n      dup1\n      dup4\n      sload\n      div\n      mul\n      dup4\n      mstore\n      swap2\n      0x20\n      add\n      swap2\n      jump(tag_169)\n    tag_170:\n      dup3\n      add\n      swap2\n      swap1\n      0x00\n      mstore\n      keccak256(0x00, 0x20)\n      swap1\n    tag_171:\n      dup2\n      sload\n      dup2\n      mstore\n      swap1\n      0x01\n      add\n      swap1\n      0x20\n      add\n      dup1\n      dup4\n      gt\n      tag_171\n      jumpi\n      dup3\n      swap1\n      sub\n      0x1f\n      and\n      dup3\n      add\n      swap2\n    tag_169:\n      pop\n      pop\n      pop\n      pop\n      pop\n      dup2\n      mstore\n      0x20\n      add\n      0x09\n      dup3\n      add\n      dup1\n      sload\n      tag_172\n      swap1\n      tag_142\n      jump\t// in\n    tag_172:\n      dup1\n      0x1f\n      add\n      0x20\n      dup1\n      swap2\n      div\n      mul\n      0x20\n      add\n      mload(0x40)\n      swap1\n      dup2\n      add\n      0x40\n      mstore\n      dup1\n      swap3\n      swap2\n      swap1\n      dup2\n      dup2\n      mstore\n      0x20\n      add\n      dup3\n      dup1\n      sload\n      tag_173\n      swap1\n      tag_142\n      jump\t// in\n    tag_173:\n      dup1\n      iszero\n      tag_174\n      jumpi\n      dup1\n      0x1f\n      lt\n      tag_175\n      jumpi\n      0x0100\n      dup1\n      dup4\n      sload\n      div\n      mul\n      dup4\n      mstore\n      swap2\n      0x20\n      add\n      swap2\n      jump(tag_174)\n    tag_175:\n      dup3\n      add\n      swap2\n      swap1\n      0x00\n      mstore\n      keccak256(0x00, 0x20)\n      swap1\n    tag_176:\n      dup2\n      sload\n      dup2\n      mstore\n      swap1\n      0x01\n      add\n      swap1\n      0x20\n      add\n      dup1\n      dup4\n      gt\n      tag_176\n      jumpi\n      dup3\n      swap1\n      sub\n      0x1f\n      and\n      dup3\n      add\n      swap2\n    tag_174:\n      pop\n      pop\n      pop\n      pop\n      pop\n      dup2\n      mstore\n      0x20\n      add\n      0x0a\n      dup3\n      add\n      dup1\n      sload\n      tag_177\n      swap1\n      tag_142\n      jump\t// in\n    tag_177:\n      dup1\n      0x1f\n      add\n      0x20\n      dup1\n      swap2\n      div\n      mul\n      0x20\n      add\n      mload(0x40)\n      swap1\n      dup2\n      add\n      0x40\n      mstore\n      dup1\n      swap3\n      swap2\n      swap1\n      dup2\n      dup2\n      mstore\n      0x20\n      add\n      dup3\n      dup1\n      sload\n      tag_178\n      swap1\n      tag_142\n      jump\t// in\n    tag_178:\n      dup1\n      iszero\n      tag_179\n      jumpi\n      dup1\n      0x1f\n      lt\n      tag_180\n      jumpi\n      0x0100\n      dup1\n      dup4\n      sload\n      div\n      mul\n      dup4\n      mstore\n      swap2\n      0x20\n      add\n      swap2\n      jump(tag_179)\n    tag_180:\n      dup3\n      add\n      swap2\n      swap1\n      0x00\n      mstore\n      keccak256(0x00, 0x20)\n      swap1\n    tag_181:\n      dup2\n      sload\n      dup2\n      mstore\n      swap1\n      0x01\n      add\n      swap1\n      0x20\n      add\n      dup1\n      dup4\n      gt\n      tag_181\n      jumpi\n      dup3\n      swap1\n      sub\n      0x1f\n      and\n      dup3\n      add\n      swap2\n    tag_179:\n      pop\n      pop\n      pop\n      pop\n      pop\n      dup2\n      mstore\n      pop\n      pop\n      swap3\n      pop\n      pop\n      jump(tag_118)\n        /* \"database/ListBusiness.sol\":2083:2124  if (list[i].user == value) return list[i] */\n    tag_140:\n        /* \"database/ListBusiness.sol\":2064:2067  i++ */\n      dup1\n      tag_182\n      dup2\n      tag_120\n      jump\t// in\n    tag_182:\n      swap2\n      pop\n      pop\n        /* \"database/ListBusiness.sol\":2024:2135  for (uint256 i = 1; i <= autoIncrement; i++) {... */\n      jump(tag_137)\n    tag_138:\n      pop\n        /* \"database/ListBusiness.sol\":2144:2192  revert(\"Database ListBusiness: Invalid address\") */\n      mload(0x40)\n      shl(0xe5, 0x461bcd)\n      dup2\n      mstore\n        /* \"#utility.yul\":11995:11997   */\n      0x20\n        /* \"database/ListBusiness.sol\":2144:2192  revert(\"Database ListBusiness: Invalid address\") */\n      0x04\n      dup3\n      add\n        /* \"#utility.yul\":11977:11998   */\n      mstore\n        /* \"#utility.yul\":12034:12036   */\n      0x26\n        /* \"#utility.yul\":12014:12032   */\n      0x24\n      dup3\n      add\n        /* \"#utility.yul\":12007:12037   */\n      mstore\n        /* \"#utility.yul\":12073:12107   */\n      0x4461746162617365204c697374427573696e6573733a20496e76616c69642061\n        /* \"#utility.yul\":12053:12071   */\n      0x44\n      dup3\n      add\n        /* \"#utility.yul\":12046:12108   */\n      mstore\n      shl(0xd0, 0x646472657373)\n        /* \"#utility.yul\":12124:12142   */\n      0x64\n      dup3\n      add\n        /* \"#utility.yul\":12117:12153   */\n      mstore\n        /* \"#utility.yul\":12170:12189   */\n      0x84\n      add\n        /* \"database/ListBusiness.sol\":2144:2192  revert(\"Database ListBusiness: Invalid address\") */\n      tag_116\n        /* \"#utility.yul\":11793:12195   */\n      jump\n        /* \"database/ListBusiness.sol\":3009:3238  function setCategory(... */\n    tag_41:\n        /* \"database/ListBusiness.sol\":3165:3169  bool */\n      0x00\n        /* \"database/ListBusiness.sol\":3130:3136  secret */\n      dup3\n      0x00\n      dup1\n      mload\n      0x20\n      data_98ee57057fe0a523e70b51608fd55a37ff53d47c3b8dac495a5f45d45157392f\n      dup4\n      codecopy\n      dup2\n      mload\n      swap2\n      mstore\n        /* \"database/ListBusiness.sol\":529:550  value == DATABASE_KEY */\n      dup2\n      eq\n        /* \"database/ListBusiness.sol\":508:615  require(... */\n      tag_186\n      jumpi\n      mload(0x40)\n      shl(0xe5, 0x461bcd)\n      dup2\n      mstore\n      0x04\n      add\n      tag_116\n      swap1\n      tag_117\n      jump\t// in\n    tag_186:\n        /* \"database/ListBusiness.sol\":3149:3154  index */\n      dup5\n        /* \"database/ListBusiness.sol\":711:716  index */\n      dup1\n        /* \"database/ListBusiness.sol\":706:707  1 */\n      0x01\n        /* \"database/ListBusiness.sol\":706:716  1 <= index */\n      gt\n      iszero\n        /* \"database/ListBusiness.sol\":705:745  (1 <= index) && (index <= autoIncrement) */\n      dup1\n      iszero\n      tag_189\n      jumpi\n      pop\n        /* \"database/ListBusiness.sol\":731:744  autoIncrement */\n      sload(0x02)\n        /* \"database/ListBusiness.sol\":722:727  index */\n      dup2\n        /* \"database/ListBusiness.sol\":722:744  index <= autoIncrement */\n      gt\n      iszero\n        /* \"database/ListBusiness.sol\":705:745  (1 <= index) && (index <= autoIncrement) */\n    tag_189:\n        /* \"database/ListBusiness.sol\":684:807  require(... */\n      tag_190\n      jumpi\n      mload(0x40)\n      shl(0xe5, 0x461bcd)\n      dup2\n      mstore\n      0x04\n      add\n      tag_116\n      swap1\n      tag_192\n      jump\t// in\n    tag_190:\n      pop\n      pop\n      pop\n        /* \"database/ListBusiness.sol\":3181:3192  list[index] */\n      0x00\n      swap3\n      dup4\n      mstore\n        /* \"database/ListBusiness.sol\":3181:3185  list */\n      0x01\n        /* \"database/ListBusiness.sol\":3181:3192  list[index] */\n      0x20\n      dup2\n      swap1\n      mstore\n      0x40\n      swap1\n      swap4\n      keccak256\n        /* \"database/ListBusiness.sol\":3181:3210  list[index].catergory = value */\n      sstore\n      pop\n        /* \"database/ListBusiness.sol\":3181:3185  list */\n      swap1\n        /* \"database/ListBusiness.sol\":3009:3238  function setCategory(... */\n      jump\t// out\n        /* \"database/ListBusiness.sol\":4406:4634  function setEmail(... */\n    tag_46:\n        /* \"database/ListBusiness.sol\":4565:4569  bool */\n      0x00\n        /* \"database/ListBusiness.sol\":4530:4536  secret */\n      dup3\n      0x00\n      dup1\n      mload\n      0x20\n      data_98ee57057fe0a523e70b51608fd55a37ff53d47c3b8dac495a5f45d45157392f\n      dup4\n      codecopy\n      dup2\n      mload\n      swap2\n      mstore\n        /* \"database/ListBusiness.sol\":529:550  value == DATABASE_KEY */\n      dup2\n      eq\n        /* \"database/ListBusiness.sol\":508:615  require(... */\n      tag_195\n      jumpi\n      mload(0x40)\n      shl(0xe5, 0x461bcd)\n      dup2\n      mstore\n      0x04\n      add\n      tag_116\n      swap1\n      tag_117\n      jump\t// in\n    tag_195:\n        /* \"database/ListBusiness.sol\":4549:4554  index */\n      dup5\n        /* \"database/ListBusiness.sol\":711:716  index */\n      dup1\n        /* \"database/ListBusiness.sol\":706:707  1 */\n      0x01\n        /* \"database/ListBusiness.sol\":706:716  1 <= index */\n      gt\n      iszero\n        /* \"database/ListBusiness.sol\":705:745  (1 <= index) && (index <= autoIncrement) */\n      dup1\n      iszero\n      tag_198\n      jumpi\n      pop\n        /* \"database/ListBusiness.sol\":731:744  autoIncrement */\n      sload(0x02)\n        /* \"database/ListBusiness.sol\":722:727  index */\n      dup2\n        /* \"database/ListBusiness.sol\":722:744  index <= autoIncrement */\n      gt\n      iszero\n        /* \"database/ListBusiness.sol\":705:745  (1 <= index) && (index <= autoIncrement) */\n    tag_198:\n        /* \"database/ListBusiness.sol\":684:807  require(... */\n      tag_199\n      jumpi\n      mload(0x40)\n      shl(0xe5, 0x461bcd)\n      dup2\n      mstore\n      0x04\n      add\n      tag_116\n      swap1\n      tag_192\n      jump\t// in\n    tag_199:\n        /* \"database/ListBusiness.sol\":4581:4592  list[index] */\n      0x00\n      dup7\n      dup2\n      mstore\n        /* \"database/ListBusiness.sol\":4581:4585  list */\n      0x01\n        /* \"database/ListBusiness.sol\":4581:4592  list[index] */\n      0x20\n      mstore\n      0x40\n      swap1\n      keccak256\n        /* \"database/ListBusiness.sol\":4581:4598  list[index].email */\n      0x06\n      add\n        /* \"database/ListBusiness.sol\":4581:4606  list[index].email = value */\n      tag_202\n        /* \"database/ListBusiness.sol\":4601:4606  value */\n      dup6\n        /* \"database/ListBusiness.sol\":4581:4598  list[index].email */\n      dup3\n        /* \"database/ListBusiness.sol\":4581:4606  list[index].email = value */\n      tag_122\n      jump\t// in\n    tag_202:\n      pop\n        /* \"database/ListBusiness.sol\":4623:4627  true */\n      0x01\n      swap7\n        /* \"database/ListBusiness.sol\":4406:4634  function setEmail(... */\n      swap6\n      pop\n      pop\n      pop\n      pop\n      pop\n      pop\n      jump\t// out\n        /* \"database/ListBusiness.sol\":5362:5596  function setPassword(... */\n    tag_50:\n        /* \"database/ListBusiness.sol\":5524:5528  bool */\n      0x00\n        /* \"database/ListBusiness.sol\":5489:5495  secret */\n      dup3\n      0x00\n      dup1\n      mload\n      0x20\n      data_98ee57057fe0a523e70b51608fd55a37ff53d47c3b8dac495a5f45d45157392f\n      dup4\n      codecopy\n      dup2\n      mload\n      swap2\n      mstore\n        /* \"database/ListBusiness.sol\":529:550  value == DATABASE_KEY */\n      dup2\n      eq\n        /* \"database/ListBusiness.sol\":508:615  require(... */\n      tag_204\n      jumpi\n      mload(0x40)\n      shl(0xe5, 0x461bcd)\n      dup2\n      mstore\n      0x04\n      add\n      tag_116\n      swap1\n      tag_117\n      jump\t// in\n    tag_204:\n        /* \"database/ListBusiness.sol\":5508:5513  index */\n      dup5\n        /* \"database/ListBusiness.sol\":711:716  index */\n      dup1\n        /* \"database/ListBusiness.sol\":706:707  1 */\n      0x01\n        /* \"database/ListBusiness.sol\":706:716  1 <= index */\n      gt\n      iszero\n        /* \"database/ListBusiness.sol\":705:745  (1 <= index) && (index <= autoIncrement) */\n      dup1\n      iszero\n      tag_207\n      jumpi\n      pop\n        /* \"database/ListBusiness.sol\":731:744  autoIncrement */\n      sload(0x02)\n        /* \"database/ListBusiness.sol\":722:727  index */\n      dup2\n        /* \"database/ListBusiness.sol\":722:744  index <= autoIncrement */\n      gt\n      iszero\n        /* \"database/ListBusiness.sol\":705:745  (1 <= index) && (index <= autoIncrement) */\n    tag_207:\n        /* \"database/ListBusiness.sol\":684:807  require(... */\n      tag_208\n      jumpi\n      mload(0x40)\n      shl(0xe5, 0x461bcd)\n      dup2\n      mstore\n      0x04\n      add\n      tag_116\n      swap1\n      tag_192\n      jump\t// in\n    tag_208:\n        /* \"database/ListBusiness.sol\":5540:5551  list[index] */\n      0x00\n      dup7\n      dup2\n      mstore\n        /* \"database/ListBusiness.sol\":5540:5544  list */\n      0x01\n        /* \"database/ListBusiness.sol\":5540:5551  list[index] */\n      0x20\n      mstore\n      0x40\n      swap1\n      keccak256\n        /* \"database/ListBusiness.sol\":5540:5560  list[index].password */\n      0x0a\n      add\n        /* \"database/ListBusiness.sol\":5540:5568  list[index].password = value */\n      tag_202\n        /* \"database/ListBusiness.sol\":5563:5568  value */\n      dup6\n        /* \"database/ListBusiness.sol\":5540:5560  list[index].password */\n      dup3\n        /* \"database/ListBusiness.sol\":5540:5568  list[index].password = value */\n      tag_122\n      jump\t// in\n        /* \"database/ListBusiness.sol\":3466:3686  function setUser(... */\n    tag_55:\n        /* \"database/ListBusiness.sol\":3618:3622  bool */\n      0x00\n        /* \"database/ListBusiness.sol\":3583:3589  secret */\n      dup3\n      0x00\n      dup1\n      mload\n      0x20\n      data_98ee57057fe0a523e70b51608fd55a37ff53d47c3b8dac495a5f45d45157392f\n      dup4\n      codecopy\n      dup2\n      mload\n      swap2\n      mstore\n        /* \"database/ListBusiness.sol\":529:550  value == DATABASE_KEY */\n      dup2\n      eq\n        /* \"database/ListBusiness.sol\":508:615  require(... */\n      tag_213\n      jumpi\n      mload(0x40)\n      shl(0xe5, 0x461bcd)\n      dup2\n      mstore\n      0x04\n      add\n      tag_116\n      swap1\n      tag_117\n      jump\t// in\n    tag_213:\n        /* \"database/ListBusiness.sol\":3602:3607  index */\n      dup5\n        /* \"database/ListBusiness.sol\":711:716  index */\n      dup1\n        /* \"database/ListBusiness.sol\":706:707  1 */\n      0x01\n        /* \"database/ListBusiness.sol\":706:716  1 <= index */\n      gt\n      iszero\n        /* \"database/ListBusiness.sol\":705:745  (1 <= index) && (index <= autoIncrement) */\n      dup1\n      iszero\n      tag_216\n      jumpi\n      pop\n        /* \"database/ListBusiness.sol\":731:744  autoIncrement */\n      sload(0x02)\n        /* \"database/ListBusiness.sol\":722:727  index */\n      dup2\n        /* \"database/ListBusiness.sol\":722:744  index <= autoIncrement */\n      gt\n      iszero\n        /* \"database/ListBusiness.sol\":705:745  (1 <= index) && (index <= autoIncrement) */\n    tag_216:\n        /* \"database/ListBusiness.sol\":684:807  require(... */\n      tag_217\n      jumpi\n      mload(0x40)\n      shl(0xe5, 0x461bcd)\n      dup2\n      mstore\n      0x04\n      add\n      tag_116\n      swap1\n      tag_192\n      jump\t// in\n    tag_217:\n      pop\n      pop\n      pop\n        /* \"database/ListBusiness.sol\":3634:3645  list[index] */\n      0x00\n      swap3\n      dup4\n      mstore\n        /* \"database/ListBusiness.sol\":3634:3638  list */\n      0x01\n        /* \"database/ListBusiness.sol\":3634:3645  list[index] */\n      0x20\n      dup2\n      swap1\n      mstore\n      0x40\n      swap1\n      swap4\n      keccak256\n        /* \"database/ListBusiness.sol\":3634:3650  list[index].user */\n      0x02\n      add\n        /* \"database/ListBusiness.sol\":3634:3658  list[index].user = value */\n      dup1\n      sload\n      not(sub(shl(0xa0, 0x01), 0x01))\n      and\n      sub(shl(0xa0, 0x01), 0x01)\n      swap3\n      swap1\n      swap3\n      and\n      swap2\n      swap1\n      swap2\n      or\n      swap1\n      sstore\n      pop\n        /* \"database/ListBusiness.sol\":3634:3638  list */\n      swap1\n        /* \"database/ListBusiness.sol\":3466:3686  function setUser(... */\n      jump\t// out\n        /* \"database/ListBusiness.sol\":3692:3918  function setName(... */\n    tag_59:\n        /* \"database/ListBusiness.sol\":3850:3854  bool */\n      0x00\n        /* \"database/ListBusiness.sol\":3815:3821  secret */\n      dup3\n      0x00\n      dup1\n      mload\n      0x20\n      data_98ee57057fe0a523e70b51608fd55a37ff53d47c3b8dac495a5f45d45157392f\n      dup4\n      codecopy\n      dup2\n      mload\n      swap2\n      mstore\n        /* \"database/ListBusiness.sol\":529:550  value == DATABASE_KEY */\n      dup2\n      eq\n        /* \"database/ListBusiness.sol\":508:615  require(... */\n      tag_221\n      jumpi\n      mload(0x40)\n      shl(0xe5, 0x461bcd)\n      dup2\n      mstore\n      0x04\n      add\n      tag_116\n      swap1\n      tag_117\n      jump\t// in\n    tag_221:\n        /* \"database/ListBusiness.sol\":3834:3839  index */\n      dup5\n        /* \"database/ListBusiness.sol\":711:716  index */\n      dup1\n        /* \"database/ListBusiness.sol\":706:707  1 */\n      0x01\n        /* \"database/ListBusiness.sol\":706:716  1 <= index */\n      gt\n      iszero\n        /* \"database/ListBusiness.sol\":705:745  (1 <= index) && (index <= autoIncrement) */\n      dup1\n      iszero\n      tag_224\n      jumpi\n      pop\n        /* \"database/ListBusiness.sol\":731:744  autoIncrement */\n      sload(0x02)\n        /* \"database/ListBusiness.sol\":722:727  index */\n      dup2\n        /* \"database/ListBusiness.sol\":722:744  index <= autoIncrement */\n      gt\n      iszero\n        /* \"database/ListBusiness.sol\":705:745  (1 <= index) && (index <= autoIncrement) */\n    tag_224:\n        /* \"database/ListBusiness.sol\":684:807  require(... */\n      tag_225\n      jumpi\n      mload(0x40)\n      shl(0xe5, 0x461bcd)\n      dup2\n      mstore\n      0x04\n      add\n      tag_116\n      swap1\n      tag_192\n      jump\t// in\n    tag_225:\n        /* \"database/ListBusiness.sol\":3866:3877  list[index] */\n      0x00\n      dup7\n      dup2\n      mstore\n        /* \"database/ListBusiness.sol\":3866:3870  list */\n      0x01\n        /* \"database/ListBusiness.sol\":3866:3877  list[index] */\n      0x20\n      mstore\n      0x40\n      swap1\n      keccak256\n        /* \"database/ListBusiness.sol\":3866:3882  list[index].name */\n      0x03\n      add\n        /* \"database/ListBusiness.sol\":3866:3890  list[index].name = value */\n      tag_202\n        /* \"database/ListBusiness.sol\":3885:3890  value */\n      dup6\n        /* \"database/ListBusiness.sol\":3866:3882  list[index].name */\n      dup3\n        /* \"database/ListBusiness.sol\":3866:3890  list[index].name = value */\n      tag_122\n      jump\t// in\n        /* \"database/ListBusiness.sol\":5116:5356  function setSourceImage(... */\n    tag_63:\n        /* \"database/ListBusiness.sol\":5281:5285  bool */\n      0x00\n        /* \"database/ListBusiness.sol\":5246:5252  secret */\n      dup3\n      0x00\n      dup1\n      mload\n      0x20\n      data_98ee57057fe0a523e70b51608fd55a37ff53d47c3b8dac495a5f45d45157392f\n      dup4\n      codecopy\n      dup2\n      mload\n      swap2\n      mstore\n        /* \"database/ListBusiness.sol\":529:550  value == DATABASE_KEY */\n      dup2\n      eq\n        /* \"database/ListBusiness.sol\":508:615  require(... */\n      tag_230\n      jumpi\n      mload(0x40)\n      shl(0xe5, 0x461bcd)\n      dup2\n      mstore\n      0x04\n      add\n      tag_116\n      swap1\n      tag_117\n      jump\t// in\n    tag_230:\n        /* \"database/ListBusiness.sol\":5265:5270  index */\n      dup5\n        /* \"database/ListBusiness.sol\":711:716  index */\n      dup1\n        /* \"database/ListBusiness.sol\":706:707  1 */\n      0x01\n        /* \"database/ListBusiness.sol\":706:716  1 <= index */\n      gt\n      iszero\n        /* \"database/ListBusiness.sol\":705:745  (1 <= index) && (index <= autoIncrement) */\n      dup1\n      iszero\n      tag_233\n      jumpi\n      pop\n        /* \"database/ListBusiness.sol\":731:744  autoIncrement */\n      sload(0x02)\n        /* \"database/ListBusiness.sol\":722:727  index */\n      dup2\n        /* \"database/ListBusiness.sol\":722:744  index <= autoIncrement */\n      gt\n      iszero\n        /* \"database/ListBusiness.sol\":705:745  (1 <= index) && (index <= autoIncrement) */\n    tag_233:\n        /* \"database/ListBusiness.sol\":684:807  require(... */\n      tag_234\n      jumpi\n      mload(0x40)\n      shl(0xe5, 0x461bcd)\n      dup2\n      mstore\n      0x04\n      add\n      tag_116\n      swap1\n      tag_192\n      jump\t// in\n    tag_234:\n        /* \"database/ListBusiness.sol\":5297:5308  list[index] */\n      0x00\n      dup7\n      dup2\n      mstore\n        /* \"database/ListBusiness.sol\":5297:5301  list */\n      0x01\n        /* \"database/ListBusiness.sol\":5297:5308  list[index] */\n      0x20\n      mstore\n      0x40\n      swap1\n      keccak256\n        /* \"database/ListBusiness.sol\":5297:5320  list[index].sourceImage */\n      0x09\n      add\n        /* \"database/ListBusiness.sol\":5297:5328  list[index].sourceImage = value */\n      tag_202\n        /* \"database/ListBusiness.sol\":5323:5328  value */\n      dup6\n        /* \"database/ListBusiness.sol\":5297:5320  list[index].sourceImage */\n      dup3\n        /* \"database/ListBusiness.sol\":5297:5328  list[index].sourceImage = value */\n      tag_122\n      jump\t// in\n        /* \"abstract/Ownable.sol\":2642:2731  function destroy() public onlyOwner {... */\n    tag_66:\n        /* \"abstract/Ownable.sol\":1068:1081  _checkOwner() */\n      tag_239\n        /* \"abstract/Ownable.sol\":1068:1079  _checkOwner */\n      tag_240\n        /* \"abstract/Ownable.sol\":1068:1081  _checkOwner() */\n      jump\t// in\n    tag_239:\n        /* \"abstract/Ownable.sol\":2717:2721  this */\n      address\n        /* \"abstract/Ownable.sol\":2688:2724  selfdestruct(payable(address(this))) */\n      selfdestruct\n        /* \"database/ListBusiness.sol\":3244:3460  function setId(... */\n    tag_69:\n        /* \"database/ListBusiness.sol\":3394:3398  bool */\n      0x00\n        /* \"database/ListBusiness.sol\":3359:3365  secret */\n      dup3\n      0x00\n      dup1\n      mload\n      0x20\n      data_98ee57057fe0a523e70b51608fd55a37ff53d47c3b8dac495a5f45d45157392f\n      dup4\n      codecopy\n      dup2\n      mload\n      swap2\n      mstore\n        /* \"database/ListBusiness.sol\":529:550  value == DATABASE_KEY */\n      dup2\n      eq\n        /* \"database/ListBusiness.sol\":508:615  require(... */\n      tag_243\n      jumpi\n      mload(0x40)\n      shl(0xe5, 0x461bcd)\n      dup2\n      mstore\n      0x04\n      add\n      tag_116\n      swap1\n      tag_117\n      jump\t// in\n    tag_243:\n        /* \"database/ListBusiness.sol\":3378:3383  index */\n      dup5\n        /* \"database/ListBusiness.sol\":711:716  index */\n      dup1\n        /* \"database/ListBusiness.sol\":706:707  1 */\n      0x01\n        /* \"database/ListBusiness.sol\":706:716  1 <= index */\n      gt\n      iszero\n        /* \"database/ListBusiness.sol\":705:745  (1 <= index) && (index <= autoIncrement) */\n      dup1\n      iszero\n      tag_246\n      jumpi\n      pop\n        /* \"database/ListBusiness.sol\":731:744  autoIncrement */\n      sload(0x02)\n        /* \"database/ListBusiness.sol\":722:727  index */\n      dup2\n        /* \"database/ListBusiness.sol\":722:744  index <= autoIncrement */\n      gt\n      iszero\n        /* \"database/ListBusiness.sol\":705:745  (1 <= index) && (index <= autoIncrement) */\n    tag_246:\n        /* \"database/ListBusiness.sol\":684:807  require(... */\n      tag_247\n      jumpi\n      mload(0x40)\n      shl(0xe5, 0x461bcd)\n      dup2\n      mstore\n      0x04\n      add\n      tag_116\n      swap1\n      tag_192\n      jump\t// in\n    tag_247:\n      pop\n      pop\n      pop\n        /* \"database/ListBusiness.sol\":3410:3421  list[index] */\n      0x00\n      swap3\n      dup4\n      mstore\n        /* \"database/ListBusiness.sol\":3410:3414  list */\n      0x01\n        /* \"database/ListBusiness.sol\":3410:3421  list[index] */\n      0x20\n      dup2\n      swap1\n      mstore\n      0x40\n      swap1\n      swap4\n      keccak256\n        /* \"database/ListBusiness.sol\":3410:3424  list[index].id */\n      dup4\n      add\n        /* \"database/ListBusiness.sol\":3410:3432  list[index].id = value */\n      sstore\n      pop\n        /* \"database/ListBusiness.sol\":3410:3414  list */\n      swap1\n        /* \"database/ListBusiness.sol\":3244:3460  function setId(... */\n      jump\t// out\n        /* \"database/ListBusiness.sol\":2483:2914  function hide(uint256 index, bytes32 secret)... */\n    tag_78:\n        /* \"database/ListBusiness.sol\":2619:2623  bool */\n      0x00\n        /* \"database/ListBusiness.sol\":2568:2574  secret */\n      dup2\n      0x00\n      dup1\n      mload\n      0x20\n      data_98ee57057fe0a523e70b51608fd55a37ff53d47c3b8dac495a5f45d45157392f\n      dup4\n      codecopy\n      dup2\n      mload\n      swap2\n      mstore\n        /* \"database/ListBusiness.sol\":529:550  value == DATABASE_KEY */\n      dup2\n      eq\n        /* \"database/ListBusiness.sol\":508:615  require(... */\n      tag_252\n      jumpi\n      mload(0x40)\n      shl(0xe5, 0x461bcd)\n      dup2\n      mstore\n      0x04\n      add\n      tag_116\n      swap1\n      tag_117\n      jump\t// in\n    tag_252:\n        /* \"database/ListBusiness.sol\":2595:2600  index */\n      dup4\n        /* \"database/ListBusiness.sol\":711:716  index */\n      dup1\n        /* \"database/ListBusiness.sol\":706:707  1 */\n      0x01\n        /* \"database/ListBusiness.sol\":706:716  1 <= index */\n      gt\n      iszero\n        /* \"database/ListBusiness.sol\":705:745  (1 <= index) && (index <= autoIncrement) */\n      dup1\n      iszero\n      tag_255\n      jumpi\n      pop\n        /* \"database/ListBusiness.sol\":731:744  autoIncrement */\n      sload(0x02)\n        /* \"database/ListBusiness.sol\":722:727  index */\n      dup2\n        /* \"database/ListBusiness.sol\":722:744  index <= autoIncrement */\n      gt\n      iszero\n        /* \"database/ListBusiness.sol\":705:745  (1 <= index) && (index <= autoIncrement) */\n    tag_255:\n        /* \"database/ListBusiness.sol\":684:807  require(... */\n      tag_256\n      jumpi\n      mload(0x40)\n      shl(0xe5, 0x461bcd)\n      dup2\n      mstore\n      0x04\n      add\n      tag_116\n      swap1\n      tag_192\n      jump\t// in\n    tag_256:\n        /* \"database/ListBusiness.sol\":2660:2859  Profile(... */\n      0x40\n      dup1\n      mload\n      0x0160\n      dup2\n      add\n      dup3\n      mstore\n      0x00\n      dup1\n      dup3\n      mstore\n      0x20\n      dup1\n      dup4\n      add\n      dup3\n      dup2\n      mstore\n      dup4\n      dup6\n      add\n      dup4\n      dup2\n      mstore\n      dup6\n      mload\n      dup1\n      dup5\n      add\n      dup8\n      mstore\n      dup5\n      dup2\n      mstore\n      0x60\n      dup7\n      add\n      swap1\n      dup2\n      mstore\n      dup7\n      mload\n      dup1\n      dup6\n      add\n      dup9\n      mstore\n      dup6\n      dup2\n      mstore\n      0x80\n      dup8\n      add\n      mstore\n      dup7\n      mload\n      dup1\n      dup6\n      add\n      dup9\n      mstore\n      dup6\n      dup2\n      mstore\n      0xa0\n      dup8\n      add\n      mstore\n      dup7\n      mload\n      dup1\n      dup6\n      add\n      dup9\n      mstore\n      dup6\n      dup2\n      mstore\n      0xc0\n      dup8\n      add\n      mstore\n      dup7\n      mload\n      dup1\n      dup6\n      add\n      dup9\n      mstore\n      dup6\n      dup2\n      mstore\n      0xe0\n      dup8\n      add\n      mstore\n      dup7\n      mload\n      dup1\n      dup6\n      add\n      dup9\n      mstore\n      dup6\n      dup2\n      mstore\n      0x0100\n      dup8\n      add\n      mstore\n      dup7\n      mload\n      dup1\n      dup6\n      add\n      dup9\n      mstore\n      dup6\n      dup2\n      mstore\n      0x0120\n      dup8\n      add\n      mstore\n      dup7\n      mload\n      dup1\n      dup6\n      add\n      dup9\n      mstore\n      dup6\n      dup2\n      mstore\n      0x0140\n      dup8\n      add\n      mstore\n        /* \"database/ListBusiness.sol\":2869:2880  list[index] */\n      dup12\n      dup6\n      mstore\n        /* \"database/ListBusiness.sol\":2869:2873  list */\n      0x01\n        /* \"database/ListBusiness.sol\":2869:2880  list[index] */\n      swap4\n      dup5\n      swap1\n      mstore\n      swap6\n      swap1\n      swap4\n      keccak256\n        /* \"database/ListBusiness.sol\":2869:2886  list[index] = gap */\n      dup5\n      mload\n      dup2\n      sstore\n      swap1\n      mload\n      swap2\n      dup2\n      add\n      swap2\n      swap1\n      swap2\n      sstore\n      swap1\n      mload\n      0x02\n      dup3\n      add\n      dup1\n      sload\n      not(sub(shl(0xa0, 0x01), 0x01))\n      and\n      sub(shl(0xa0, 0x01), 0x01)\n      swap1\n      swap3\n      and\n      swap2\n      swap1\n      swap2\n      or\n      swap1\n      sstore\n      swap2\n      mload\n        /* \"database/ListBusiness.sol\":2660:2859  Profile(... */\n      swap1\n      swap2\n      dup3\n      swap2\n        /* \"database/ListBusiness.sol\":2869:2886  list[index] = gap */\n      0x03\n      dup3\n      add\n      swap1\n      tag_259\n      swap1\n      dup3\n      tag_122\n      jump\t// in\n    tag_259:\n      pop\n      0x80\n      dup3\n      add\n      mload\n      0x04\n      dup3\n      add\n      swap1\n      tag_260\n      swap1\n      dup3\n      tag_122\n      jump\t// in\n    tag_260:\n      pop\n      0xa0\n      dup3\n      add\n      mload\n      0x05\n      dup3\n      add\n      swap1\n      tag_261\n      swap1\n      dup3\n      tag_122\n      jump\t// in\n    tag_261:\n      pop\n      0xc0\n      dup3\n      add\n      mload\n      0x06\n      dup3\n      add\n      swap1\n      tag_262\n      swap1\n      dup3\n      tag_122\n      jump\t// in\n    tag_262:\n      pop\n      0xe0\n      dup3\n      add\n      mload\n      0x07\n      dup3\n      add\n      swap1\n      tag_263\n      swap1\n      dup3\n      tag_122\n      jump\t// in\n    tag_263:\n      pop\n      0x0100\n      dup3\n      add\n      mload\n      0x08\n      dup3\n      add\n      swap1\n      tag_264\n      swap1\n      dup3\n      tag_122\n      jump\t// in\n    tag_264:\n      pop\n      0x0120\n      dup3\n      add\n      mload\n      0x09\n      dup3\n      add\n      swap1\n      tag_265\n      swap1\n      dup3\n      tag_122\n      jump\t// in\n    tag_265:\n      pop\n      0x0140\n      dup3\n      add\n      mload\n      0x0a\n      dup3\n      add\n      swap1\n      tag_266\n      swap1\n      dup3\n      tag_122\n      jump\t// in\n    tag_266:\n      pop\n        /* \"database/ListBusiness.sol\":2903:2907  true */\n      0x01\n      swap9\n        /* \"database/ListBusiness.sol\":2483:2914  function hide(uint256 index, bytes32 secret)... */\n      swap8\n      pop\n      pop\n      pop\n      pop\n      pop\n      pop\n      pop\n      pop\n      jump\t// out\n        /* \"database/ListBusiness.sol\":1277:1559  function at(uint256 index, bytes32 secret)... */\n    tag_82:\n        /* \"database/ListBusiness.sol\":1424:1438  Profile memory */\n      tag_267\n      tag_132\n      jump\t// in\n    tag_267:\n        /* \"database/ListBusiness.sol\":1373:1379  secret */\n      dup2\n      0x00\n      dup1\n      mload\n      0x20\n      data_98ee57057fe0a523e70b51608fd55a37ff53d47c3b8dac495a5f45d45157392f\n      dup4\n      codecopy\n      dup2\n      mload\n      swap2\n      mstore\n        /* \"database/ListBusiness.sol\":529:550  value == DATABASE_KEY */\n      dup2\n      eq\n        /* \"database/ListBusiness.sol\":508:615  require(... */\n      tag_269\n      jumpi\n      mload(0x40)\n      shl(0xe5, 0x461bcd)\n      dup2\n      mstore\n      0x04\n      add\n      tag_116\n      swap1\n      tag_117\n      jump\t// in\n    tag_269:\n        /* \"database/ListBusiness.sol\":1400:1405  index */\n      dup4\n        /* \"database/ListBusiness.sol\":711:716  index */\n      dup1\n        /* \"database/ListBusiness.sol\":706:707  1 */\n      0x01\n        /* \"database/ListBusiness.sol\":706:716  1 <= index */\n      gt\n      iszero\n        /* \"database/ListBusiness.sol\":705:745  (1 <= index) && (index <= autoIncrement) */\n      dup1\n      iszero\n      tag_272\n      jumpi\n      pop\n        /* \"database/ListBusiness.sol\":731:744  autoIncrement */\n      sload(0x02)\n        /* \"database/ListBusiness.sol\":722:727  index */\n      dup2\n        /* \"database/ListBusiness.sol\":722:744  index <= autoIncrement */\n      gt\n      iszero\n        /* \"database/ListBusiness.sol\":705:745  (1 <= index) && (index <= autoIncrement) */\n    tag_272:\n        /* \"database/ListBusiness.sol\":684:807  require(... */\n      tag_273\n      jumpi\n      mload(0x40)\n      shl(0xe5, 0x461bcd)\n      dup2\n      mstore\n      0x04\n      add\n      tag_116\n      swap1\n      tag_192\n      jump\t// in\n    tag_273:\n        /* \"database/ListBusiness.sol\":1541:1552  list[index] */\n      0x00\n      dup6\n      dup2\n      mstore\n        /* \"database/ListBusiness.sol\":1541:1545  list */\n      0x01\n        /* \"database/ListBusiness.sol\":1541:1552  list[index] */\n      0x20\n      dup2\n      dup2\n      mstore\n      0x40\n      swap3\n      dup4\n      swap1\n      keccak256\n        /* \"database/ListBusiness.sol\":1534:1552  return list[index] */\n      dup4\n      mload\n      0x0160\n      dup2\n      add\n      dup6\n      mstore\n      dup2\n      sload\n      dup2\n      mstore\n      swap3\n      dup2\n      add\n      sload\n      swap2\n      dup4\n      add\n      swap2\n      swap1\n      swap2\n      mstore\n      0x02\n      dup2\n      add\n      sload\n      sub(shl(0xa0, 0x01), 0x01)\n      and\n      swap3\n      dup3\n      add\n      swap3\n      swap1\n      swap3\n      mstore\n      0x03\n      dup3\n      add\n      dup1\n      sload\n      swap2\n      swap3\n        /* \"database/ListBusiness.sol\":1541:1552  list[index] */\n      swap2\n        /* \"database/ListBusiness.sol\":1534:1552  return list[index] */\n      0x60\n      dup5\n      add\n      swap2\n      swap1\n      tag_276\n      swap1\n      tag_142\n      jump\t// in\n    tag_276:\n      dup1\n      0x1f\n      add\n      0x20\n      dup1\n      swap2\n      div\n      mul\n      0x20\n      add\n      mload(0x40)\n      swap1\n      dup2\n      add\n      0x40\n      mstore\n      dup1\n      swap3\n      swap2\n      swap1\n      dup2\n      dup2\n      mstore\n      0x20\n      add\n      dup3\n      dup1\n      sload\n      tag_277\n      swap1\n      tag_142\n      jump\t// in\n    tag_277:\n      dup1\n      iszero\n      tag_278\n      jumpi\n      dup1\n      0x1f\n      lt\n      tag_279\n      jumpi\n      0x0100\n      dup1\n      dup4\n      sload\n      div\n      mul\n      dup4\n      mstore\n      swap2\n      0x20\n      add\n      swap2\n      jump(tag_278)\n    tag_279:\n      dup3\n      add\n      swap2\n      swap1\n      0x00\n      mstore\n      keccak256(0x00, 0x20)\n      swap1\n    tag_280:\n      dup2\n      sload\n      dup2\n      mstore\n      swap1\n      0x01\n      add\n      swap1\n      0x20\n      add\n      dup1\n      dup4\n      gt\n      tag_280\n      jumpi\n      dup3\n      swap1\n      sub\n      0x1f\n      and\n      dup3\n      add\n      swap2\n    tag_278:\n      pop\n      pop\n      pop\n      pop\n      pop\n      dup2\n      mstore\n      0x20\n      add\n      0x04\n      dup3\n      add\n      dup1\n      sload\n      tag_281\n      swap1\n      tag_142\n      jump\t// in\n    tag_281:\n      dup1\n      0x1f\n      add\n      0x20\n      dup1\n      swap2\n      div\n      mul\n      0x20\n      add\n      mload(0x40)\n      swap1\n      dup2\n      add\n      0x40\n      mstore\n      dup1\n      swap3\n      swap2\n      swap1\n      dup2\n      dup2\n      mstore\n      0x20\n      add\n      dup3\n      dup1\n      sload\n      tag_282\n      swap1\n      tag_142\n      jump\t// in\n    tag_282:\n      dup1\n      iszero\n      tag_283\n      jumpi\n      dup1\n      0x1f\n      lt\n      tag_284\n      jumpi\n      0x0100\n      dup1\n      dup4\n      sload\n      div\n      mul\n      dup4\n      mstore\n      swap2\n      0x20\n      add\n      swap2\n      jump(tag_283)\n    tag_284:\n      dup3\n      add\n      swap2\n      swap1\n      0x00\n      mstore\n      keccak256(0x00, 0x20)\n      swap1\n    tag_285:\n      dup2\n      sload\n      dup2\n      mstore\n      swap1\n      0x01\n      add\n      swap1\n      0x20\n      add\n      dup1\n      dup4\n      gt\n      tag_285\n      jumpi\n      dup3\n      swap1\n      sub\n      0x1f\n      and\n      dup3\n      add\n      swap2\n    tag_283:\n      pop\n      pop\n      pop\n      pop\n      pop\n      dup2\n      mstore\n      0x20\n      add\n      0x05\n      dup3\n      add\n      dup1\n      sload\n      tag_286\n      swap1\n      tag_142\n      jump\t// in\n    tag_286:\n      dup1\n      0x1f\n      add\n      0x20\n      dup1\n      swap2\n      div\n      mul\n      0x20\n      add\n      mload(0x40)\n      swap1\n      dup2\n      add\n      0x40\n      mstore\n      dup1\n      swap3\n      swap2\n      swap1\n      dup2\n      dup2\n      mstore\n      0x20\n      add\n      dup3\n      dup1\n      sload\n      tag_287\n      swap1\n      tag_142\n      jump\t// in\n    tag_287:\n      dup1\n      iszero\n      tag_288\n      jumpi\n      dup1\n      0x1f\n      lt\n      tag_289\n      jumpi\n      0x0100\n      dup1\n      dup4\n      sload\n      div\n      mul\n      dup4\n      mstore\n      swap2\n      0x20\n      add\n      swap2\n      jump(tag_288)\n    tag_289:\n      dup3\n      add\n      swap2\n      swap1\n      0x00\n      mstore\n      keccak256(0x00, 0x20)\n      swap1\n    tag_290:\n      dup2\n      sload\n      dup2\n      mstore\n      swap1\n      0x01\n      add\n      swap1\n      0x20\n      add\n      dup1\n      dup4\n      gt\n      tag_290\n      jumpi\n      dup3\n      swap1\n      sub\n      0x1f\n      and\n      dup3\n      add\n      swap2\n    tag_288:\n      pop\n      pop\n      pop\n      pop\n      pop\n      dup2\n      mstore\n      0x20\n      add\n      0x06\n      dup3\n      add\n      dup1\n      sload\n      tag_291\n      swap1\n      tag_142\n      jump\t// in\n    tag_291:\n      dup1\n      0x1f\n      add\n      0x20\n      dup1\n      swap2\n      div\n      mul\n      0x20\n      add\n      mload(0x40)\n      swap1\n      dup2\n      add\n      0x40\n      mstore\n      dup1\n      swap3\n      swap2\n      swap1\n      dup2\n      dup2\n      mstore\n      0x20\n      add\n      dup3\n      dup1\n      sload\n      tag_292\n      swap1\n      tag_142\n      jump\t// in\n    tag_292:\n      dup1\n      iszero\n      tag_293\n      jumpi\n      dup1\n      0x1f\n      lt\n      tag_294\n      jumpi\n      0x0100\n      dup1\n      dup4\n      sload\n      div\n      mul\n      dup4\n      mstore\n      swap2\n      0x20\n      add\n      swap2\n      jump(tag_293)\n    tag_294:\n      dup3\n      add\n      swap2\n      swap1\n      0x00\n      mstore\n      keccak256(0x00, 0x20)\n      swap1\n    tag_295:\n      dup2\n      sload\n      dup2\n      mstore\n      swap1\n      0x01\n      add\n      swap1\n      0x20\n      add\n      dup1\n      dup4\n      gt\n      tag_295\n      jumpi\n      dup3\n      swap1\n      sub\n      0x1f\n      and\n      dup3\n      add\n      swap2\n    tag_293:\n      pop\n      pop\n      pop\n      pop\n      pop\n      dup2\n      mstore\n      0x20\n      add\n      0x07\n      dup3\n      add\n      dup1\n      sload\n      tag_296\n      swap1\n      tag_142\n      jump\t// in\n    tag_296:\n      dup1\n      0x1f\n      add\n      0x20\n      dup1\n      swap2\n      div\n      mul\n      0x20\n      add\n      mload(0x40)\n      swap1\n      dup2\n      add\n      0x40\n      mstore\n      dup1\n      swap3\n      swap2\n      swap1\n      dup2\n      dup2\n      mstore\n      0x20\n      add\n      dup3\n      dup1\n      sload\n      tag_297\n      swap1\n      tag_142\n      jump\t// in\n    tag_297:\n      dup1\n      iszero\n      tag_298\n      jumpi\n      dup1\n      0x1f\n      lt\n      tag_299\n      jumpi\n      0x0100\n      dup1\n      dup4\n      sload\n      div\n      mul\n      dup4\n      mstore\n      swap2\n      0x20\n      add\n      swap2\n      jump(tag_298)\n    tag_299:\n      dup3\n      add\n      swap2\n      swap1\n      0x00\n      mstore\n      keccak256(0x00, 0x20)\n      swap1\n    tag_300:\n      dup2\n      sload\n      dup2\n      mstore\n      swap1\n      0x01\n      add\n      swap1\n      0x20\n      add\n      dup1\n      dup4\n      gt\n      tag_300\n      jumpi\n      dup3\n      swap1\n      sub\n      0x1f\n      and\n      dup3\n      add\n      swap2\n    tag_298:\n      pop\n      pop\n      pop\n      pop\n      pop\n      dup2\n      mstore\n      0x20\n      add\n      0x08\n      dup3\n      add\n      dup1\n      sload\n      tag_301\n      swap1\n      tag_142\n      jump\t// in\n    tag_301:\n      dup1\n      0x1f\n      add\n      0x20\n      dup1\n      swap2\n      div\n      mul\n      0x20\n      add\n      mload(0x40)\n      swap1\n      dup2\n      add\n      0x40\n      mstore\n      dup1\n      swap3\n      swap2\n      swap1\n      dup2\n      dup2\n      mstore\n      0x20\n      add\n      dup3\n      dup1\n      sload\n      tag_302\n      swap1\n      tag_142\n      jump\t// in\n    tag_302:\n      dup1\n      iszero\n      tag_303\n      jumpi\n      dup1\n      0x1f\n      lt\n      tag_304\n      jumpi\n      0x0100\n      dup1\n      dup4\n      sload\n      div\n      mul\n      dup4\n      mstore\n      swap2\n      0x20\n      add\n      swap2\n      jump(tag_303)\n    tag_304:\n      dup3\n      add\n      swap2\n      swap1\n      0x00\n      mstore\n      keccak256(0x00, 0x20)\n      swap1\n    tag_305:\n      dup2\n      sload\n      dup2\n      mstore\n      swap1\n      0x01\n      add\n      swap1\n      0x20\n      add\n      dup1\n      dup4\n      gt\n      tag_305\n      jumpi\n      dup3\n      swap1\n      sub\n      0x1f\n      and\n      dup3\n      add\n      swap2\n    tag_303:\n      pop\n      pop\n      pop\n      pop\n      pop\n      dup2\n      mstore\n      0x20\n      add\n      0x09\n      dup3\n      add\n      dup1\n      sload\n      tag_306\n      swap1\n      tag_142\n      jump\t// in\n    tag_306:\n      dup1\n      0x1f\n      add\n      0x20\n      dup1\n      swap2\n      div\n      mul\n      0x20\n      add\n      mload(0x40)\n      swap1\n      dup2\n      add\n      0x40\n      mstore\n      dup1\n      swap3\n      swap2\n      swap1\n      dup2\n      dup2\n      mstore\n      0x20\n      add\n      dup3\n      dup1\n      sload\n      tag_307\n      swap1\n      tag_142\n      jump\t// in\n    tag_307:\n      dup1\n      iszero\n      tag_308\n      jumpi\n      dup1\n      0x1f\n      lt\n      tag_309\n      jumpi\n      0x0100\n      dup1\n      dup4\n      sload\n      div\n      mul\n      dup4\n      mstore\n      swap2\n      0x20\n      add\n      swap2\n      jump(tag_308)\n    tag_309:\n      dup3\n      add\n      swap2\n      swap1\n      0x00\n      mstore\n      keccak256(0x00, 0x20)\n      swap1\n    tag_310:\n      dup2\n      sload\n      dup2\n      mstore\n      swap1\n      0x01\n      add\n      swap1\n      0x20\n      add\n      dup1\n      dup4\n      gt\n      tag_310\n      jumpi\n      dup3\n      swap1\n      sub\n      0x1f\n      and\n      dup3\n      add\n      swap2\n    tag_308:\n      pop\n      pop\n      pop\n      pop\n      pop\n      dup2\n      mstore\n      0x20\n      add\n      0x0a\n      dup3\n      add\n      dup1\n      sload\n      tag_311\n      swap1\n      tag_142\n      jump\t// in\n    tag_311:\n      dup1\n      0x1f\n      add\n      0x20\n      dup1\n      swap2\n      div\n      mul\n      0x20\n      add\n      mload(0x40)\n      swap1\n      dup2\n      add\n      0x40\n      mstore\n      dup1\n      swap3\n      swap2\n      swap1\n      dup2\n      dup2\n      mstore\n      0x20\n      add\n      dup3\n      dup1\n      sload\n      tag_312\n      swap1\n      tag_142\n      jump\t// in\n    tag_312:\n      dup1\n      iszero\n      tag_313\n      jumpi\n      dup1\n      0x1f\n      lt\n      tag_314\n      jumpi\n      0x0100\n      dup1\n      dup4\n      sload\n      div\n      mul\n      dup4\n      mstore\n      swap2\n      0x20\n      add\n      swap2\n      jump(tag_313)\n    tag_314:\n      dup3\n      add\n      swap2\n      swap1\n      0x00\n      mstore\n      keccak256(0x00, 0x20)\n      swap1\n    tag_315:\n      dup2\n      sload\n      dup2\n      mstore\n      swap1\n      0x01\n      add\n      swap1\n      0x20\n      add\n      dup1\n      dup4\n      gt\n      tag_315\n      jumpi\n      dup3\n      swap1\n      sub\n      0x1f\n      and\n      dup3\n      add\n      swap2\n    tag_313:\n      pop\n      pop\n      pop\n      pop\n      pop\n      dup2\n      mstore\n      pop\n      pop\n      swap3\n      pop\n        /* \"database/ListBusiness.sol\":625:626  _ */\n      pop\n        /* \"database/ListBusiness.sol\":1277:1559  function at(uint256 index, bytes32 secret)... */\n      pop\n      swap3\n      swap2\n      pop\n      pop\n      jump\t// out\n        /* \"database/ListBusiness.sol\":4640:4870  function setGithub(... */\n    tag_86:\n        /* \"database/ListBusiness.sol\":4800:4804  bool */\n      0x00\n        /* \"database/ListBusiness.sol\":4765:4771  secret */\n      dup3\n      0x00\n      dup1\n      mload\n      0x20\n      data_98ee57057fe0a523e70b51608fd55a37ff53d47c3b8dac495a5f45d45157392f\n      dup4\n      codecopy\n      dup2\n      mload\n      swap2\n      mstore\n        /* \"database/ListBusiness.sol\":529:550  value == DATABASE_KEY */\n      dup2\n      eq\n        /* \"database/ListBusiness.sol\":508:615  require(... */\n      tag_317\n      jumpi\n      mload(0x40)\n      shl(0xe5, 0x461bcd)\n      dup2\n      mstore\n      0x04\n      add\n      tag_116\n      swap1\n      tag_117\n      jump\t// in\n    tag_317:\n        /* \"database/ListBusiness.sol\":4784:4789  index */\n      dup5\n        /* \"database/ListBusiness.sol\":711:716  index */\n      dup1\n        /* \"database/ListBusiness.sol\":706:707  1 */\n      0x01\n        /* \"database/ListBusiness.sol\":706:716  1 <= index */\n      gt\n      iszero\n        /* \"database/ListBusiness.sol\":705:745  (1 <= index) && (index <= autoIncrement) */\n      dup1\n      iszero\n      tag_320\n      jumpi\n      pop\n        /* \"database/ListBusiness.sol\":731:744  autoIncrement */\n      sload(0x02)\n        /* \"database/ListBusiness.sol\":722:727  index */\n      dup2\n        /* \"database/ListBusiness.sol\":722:744  index <= autoIncrement */\n      gt\n      iszero\n        /* \"database/ListBusiness.sol\":705:745  (1 <= index) && (index <= autoIncrement) */\n    tag_320:\n        /* \"database/ListBusiness.sol\":684:807  require(... */\n      tag_321\n      jumpi\n      mload(0x40)\n      shl(0xe5, 0x461bcd)\n      dup2\n      mstore\n      0x04\n      add\n      tag_116\n      swap1\n      tag_192\n      jump\t// in\n    tag_321:\n        /* \"database/ListBusiness.sol\":4816:4827  list[index] */\n      0x00\n      dup7\n      dup2\n      mstore\n        /* \"database/ListBusiness.sol\":4816:4820  list */\n      0x01\n        /* \"database/ListBusiness.sol\":4816:4827  list[index] */\n      0x20\n      mstore\n      0x40\n      swap1\n      keccak256\n        /* \"database/ListBusiness.sol\":4816:4834  list[index].github */\n      0x07\n      add\n        /* \"database/ListBusiness.sol\":4816:4842  list[index].github = value */\n      tag_202\n        /* \"database/ListBusiness.sol\":4837:4842  value */\n      dup6\n        /* \"database/ListBusiness.sol\":4816:4834  list[index].github */\n      dup3\n        /* \"database/ListBusiness.sol\":4816:4842  list[index].github = value */\n      tag_122\n      jump\t// in\n        /* \"database/ListBusiness.sol\":1565:1860  function findIdByAddress(address value, bytes32 secret)... */\n    tag_90:\n        /* \"database/ListBusiness.sol\":1699:1706  uint256 */\n      0x00\n        /* \"database/ListBusiness.sol\":1674:1680  secret */\n      dup2\n      0x00\n      dup1\n      mload\n      0x20\n      data_98ee57057fe0a523e70b51608fd55a37ff53d47c3b8dac495a5f45d45157392f\n      dup4\n      codecopy\n      dup2\n      mload\n      swap2\n      mstore\n        /* \"database/ListBusiness.sol\":529:550  value == DATABASE_KEY */\n      dup2\n      eq\n        /* \"database/ListBusiness.sol\":508:615  require(... */\n      tag_326\n      jumpi\n      mload(0x40)\n      shl(0xe5, 0x461bcd)\n      dup2\n      mstore\n      0x04\n      add\n      tag_116\n      swap1\n      tag_117\n      jump\t// in\n    tag_326:\n        /* \"database/ListBusiness.sol\":1739:1740  1 */\n      0x01\n        /* \"database/ListBusiness.sol\":1722:1836  for (uint256 i = 1; i <= autoIncrement; i++) {... */\n    tag_329:\n        /* \"database/ListBusiness.sol\":1747:1760  autoIncrement */\n      sload(0x02)\n        /* \"database/ListBusiness.sol\":1742:1743  i */\n      dup2\n        /* \"database/ListBusiness.sol\":1742:1760  i <= autoIncrement */\n      gt\n        /* \"database/ListBusiness.sol\":1722:1836  for (uint256 i = 1; i <= autoIncrement; i++) {... */\n      tag_330\n      jumpi\n        /* \"database/ListBusiness.sol\":1785:1792  list[i] */\n      0x00\n      dup2\n      dup2\n      mstore\n        /* \"database/ListBusiness.sol\":1785:1789  list */\n      0x01\n        /* \"database/ListBusiness.sol\":1785:1792  list[i] */\n      0x20\n      mstore\n      0x40\n      swap1\n      keccak256\n        /* \"database/ListBusiness.sol\":1785:1797  list[i].user */\n      0x02\n      add\n      sload\n      sub(shl(0xa0, 0x01), 0x01)\n        /* \"database/ListBusiness.sol\":1785:1806  list[i].user == value */\n      dup1\n      dup8\n      and\n        /* \"database/ListBusiness.sol\":1785:1797  list[i].user */\n      swap2\n      and\n        /* \"database/ListBusiness.sol\":1785:1806  list[i].user == value */\n      sub\n        /* \"database/ListBusiness.sol\":1781:1825  if (list[i].user == value) return list[i].id */\n      tag_332\n      jumpi\n        /* \"database/ListBusiness.sol\":1815:1822  list[i] */\n      0x00\n      swap1\n      dup2\n      mstore\n        /* \"database/ListBusiness.sol\":1815:1819  list */\n      0x01\n        /* \"database/ListBusiness.sol\":1815:1822  list[i] */\n      0x20\n      dup2\n      swap1\n      mstore\n      0x40\n      swap1\n      swap2\n      keccak256\n        /* \"database/ListBusiness.sol\":1815:1825  list[i].id */\n      add\n      sload\n      swap2\n      pop\n        /* \"database/ListBusiness.sol\":1808:1825  return list[i].id */\n      jump(tag_118)\n        /* \"database/ListBusiness.sol\":1781:1825  if (list[i].user == value) return list[i].id */\n    tag_332:\n        /* \"database/ListBusiness.sol\":1762:1765  i++ */\n      dup1\n      tag_333\n      dup2\n      tag_120\n      jump\t// in\n    tag_333:\n      swap2\n      pop\n      pop\n        /* \"database/ListBusiness.sol\":1722:1836  for (uint256 i = 1; i <= autoIncrement; i++) {... */\n      jump(tag_329)\n    tag_330:\n      pop\n        /* \"database/ListBusiness.sol\":1852:1853  0 */\n      0x00\n      swap5\n        /* \"database/ListBusiness.sol\":1565:1860  function findIdByAddress(address value, bytes32 secret)... */\n      swap4\n      pop\n      pop\n      pop\n      pop\n      jump\t// out\n        /* \"database/ListBusiness.sol\":4876:5110  function setLinkedin(... */\n    tag_95:\n        /* \"database/ListBusiness.sol\":5038:5042  bool */\n      0x00\n        /* \"database/ListBusiness.sol\":5003:5009  secret */\n      dup3\n      0x00\n      dup1\n      mload\n      0x20\n      data_98ee57057fe0a523e70b51608fd55a37ff53d47c3b8dac495a5f45d45157392f\n      dup4\n      codecopy\n      dup2\n      mload\n      swap2\n      mstore\n        /* \"database/ListBusiness.sol\":529:550  value == DATABASE_KEY */\n      dup2\n      eq\n        /* \"database/ListBusiness.sol\":508:615  require(... */\n      tag_335\n      jumpi\n      mload(0x40)\n      shl(0xe5, 0x461bcd)\n      dup2\n      mstore\n      0x04\n      add\n      tag_116\n      swap1\n      tag_117\n      jump\t// in\n    tag_335:\n        /* \"database/ListBusiness.sol\":5022:5027  index */\n      dup5\n        /* \"database/ListBusiness.sol\":711:716  index */\n      dup1\n        /* \"database/ListBusiness.sol\":706:707  1 */\n      0x01\n        /* \"database/ListBusiness.sol\":706:716  1 <= index */\n      gt\n      iszero\n        /* \"database/ListBusiness.sol\":705:745  (1 <= index) && (index <= autoIncrement) */\n      dup1\n      iszero\n      tag_338\n      jumpi\n      pop\n        /* \"database/ListBusiness.sol\":731:744  autoIncrement */\n      sload(0x02)\n        /* \"database/ListBusiness.sol\":722:727  index */\n      dup2\n        /* \"database/ListBusiness.sol\":722:744  index <= autoIncrement */\n      gt\n      iszero\n        /* \"database/ListBusiness.sol\":705:745  (1 <= index) && (index <= autoIncrement) */\n    tag_338:\n        /* \"database/ListBusiness.sol\":684:807  require(... */\n      tag_339\n      jumpi\n      mload(0x40)\n      shl(0xe5, 0x461bcd)\n      dup2\n      mstore\n      0x04\n      add\n      tag_116\n      swap1\n      tag_192\n      jump\t// in\n    tag_339:\n        /* \"database/ListBusiness.sol\":5054:5065  list[index] */\n      0x00\n      dup7\n      dup2\n      mstore\n        /* \"database/ListBusiness.sol\":5054:5058  list */\n      0x01\n        /* \"database/ListBusiness.sol\":5054:5065  list[index] */\n      0x20\n      mstore\n      0x40\n      swap1\n      keccak256\n        /* \"database/ListBusiness.sol\":5054:5074  list[index].linkedin */\n      0x08\n      add\n        /* \"database/ListBusiness.sol\":5054:5082  list[index].linkedin = value */\n      tag_202\n        /* \"database/ListBusiness.sol\":5077:5082  value */\n      dup6\n        /* \"database/ListBusiness.sol\":5054:5074  list[index].linkedin */\n      dup3\n        /* \"database/ListBusiness.sol\":5054:5082  list[index].linkedin = value */\n      tag_122\n      jump\t// in\n        /* \"database/ListBusiness.sol\":3924:4152  function setPhone(... */\n    tag_99:\n        /* \"database/ListBusiness.sol\":4083:4087  bool */\n      0x00\n        /* \"database/ListBusiness.sol\":4048:4054  secret */\n      dup3\n      0x00\n      dup1\n      mload\n      0x20\n      data_98ee57057fe0a523e70b51608fd55a37ff53d47c3b8dac495a5f45d45157392f\n      dup4\n      codecopy\n      dup2\n      mload\n      swap2\n      mstore\n        /* \"database/ListBusiness.sol\":529:550  value == DATABASE_KEY */\n      dup2\n      eq\n        /* \"database/ListBusiness.sol\":508:615  require(... */\n      tag_344\n      jumpi\n      mload(0x40)\n      shl(0xe5, 0x461bcd)\n      dup2\n      mstore\n      0x04\n      add\n      tag_116\n      swap1\n      tag_117\n      jump\t// in\n    tag_344:\n        /* \"database/ListBusiness.sol\":4067:4072  index */\n      dup5\n        /* \"database/ListBusiness.sol\":711:716  index */\n      dup1\n        /* \"database/ListBusiness.sol\":706:707  1 */\n      0x01\n        /* \"database/ListBusiness.sol\":706:716  1 <= index */\n      gt\n      iszero\n        /* \"database/ListBusiness.sol\":705:745  (1 <= index) && (index <= autoIncrement) */\n      dup1\n      iszero\n      tag_347\n      jumpi\n      pop\n        /* \"database/ListBusiness.sol\":731:744  autoIncrement */\n      sload(0x02)\n        /* \"database/ListBusiness.sol\":722:727  index */\n      dup2\n        /* \"database/ListBusiness.sol\":722:744  index <= autoIncrement */\n      gt\n      iszero\n        /* \"database/ListBusiness.sol\":705:745  (1 <= index) && (index <= autoIncrement) */\n    tag_347:\n        /* \"database/ListBusiness.sol\":684:807  require(... */\n      tag_348\n      jumpi\n      mload(0x40)\n      shl(0xe5, 0x461bcd)\n      dup2\n      mstore\n      0x04\n      add\n      tag_116\n      swap1\n      tag_192\n      jump\t// in\n    tag_348:\n        /* \"database/ListBusiness.sol\":4099:4110  list[index] */\n      0x00\n      dup7\n      dup2\n      mstore\n        /* \"database/ListBusiness.sol\":4099:4103  list */\n      0x01\n        /* \"database/ListBusiness.sol\":4099:4110  list[index] */\n      0x20\n      mstore\n      0x40\n      swap1\n      keccak256\n        /* \"database/ListBusiness.sol\":4099:4116  list[index].phone */\n      0x04\n      add\n        /* \"database/ListBusiness.sol\":4099:4124  list[index].phone = value */\n      tag_202\n        /* \"database/ListBusiness.sol\":4119:4124  value */\n      dup6\n        /* \"database/ListBusiness.sol\":4099:4116  list[index].phone */\n      dup3\n        /* \"database/ListBusiness.sol\":4099:4124  list[index].phone = value */\n      tag_122\n      jump\t// in\n        /* \"database/ListBusiness.sol\":4158:4400  function setProfessional(... */\n    tag_103:\n        /* \"database/ListBusiness.sol\":4324:4328  bool */\n      0x00\n        /* \"database/ListBusiness.sol\":4289:4295  secret */\n      dup3\n      0x00\n      dup1\n      mload\n      0x20\n      data_98ee57057fe0a523e70b51608fd55a37ff53d47c3b8dac495a5f45d45157392f\n      dup4\n      codecopy\n      dup2\n      mload\n      swap2\n      mstore\n        /* \"database/ListBusiness.sol\":529:550  value == DATABASE_KEY */\n      dup2\n      eq\n        /* \"database/ListBusiness.sol\":508:615  require(... */\n      tag_353\n      jumpi\n      mload(0x40)\n      shl(0xe5, 0x461bcd)\n      dup2\n      mstore\n      0x04\n      add\n      tag_116\n      swap1\n      tag_117\n      jump\t// in\n    tag_353:\n        /* \"database/ListBusiness.sol\":4308:4313  index */\n      dup5\n        /* \"database/ListBusiness.sol\":711:716  index */\n      dup1\n        /* \"database/ListBusiness.sol\":706:707  1 */\n      0x01\n        /* \"database/ListBusiness.sol\":706:716  1 <= index */\n      gt\n      iszero\n        /* \"database/ListBusiness.sol\":705:745  (1 <= index) && (index <= autoIncrement) */\n      dup1\n      iszero\n      tag_356\n      jumpi\n      pop\n        /* \"database/ListBusiness.sol\":731:744  autoIncrement */\n      sload(0x02)\n        /* \"database/ListBusiness.sol\":722:727  index */\n      dup2\n        /* \"database/ListBusiness.sol\":722:744  index <= autoIncrement */\n      gt\n      iszero\n        /* \"database/ListBusiness.sol\":705:745  (1 <= index) && (index <= autoIncrement) */\n    tag_356:\n        /* \"database/ListBusiness.sol\":684:807  require(... */\n      tag_357\n      jumpi\n      mload(0x40)\n      shl(0xe5, 0x461bcd)\n      dup2\n      mstore\n      0x04\n      add\n      tag_116\n      swap1\n      tag_192\n      jump\t// in\n    tag_357:\n        /* \"database/ListBusiness.sol\":4340:4351  list[index] */\n      0x00\n      dup7\n      dup2\n      mstore\n        /* \"database/ListBusiness.sol\":4340:4344  list */\n      0x01\n        /* \"database/ListBusiness.sol\":4340:4351  list[index] */\n      0x20\n      mstore\n      0x40\n      swap1\n      keccak256\n        /* \"database/ListBusiness.sol\":4340:4364  list[index].professional */\n      0x05\n      add\n        /* \"database/ListBusiness.sol\":4340:4372  list[index].professional = value */\n      tag_202\n        /* \"database/ListBusiness.sol\":4367:4372  value */\n      dup6\n        /* \"database/ListBusiness.sol\":4340:4364  list[index].professional */\n      dup3\n        /* \"database/ListBusiness.sol\":4340:4372  list[index].professional = value */\n      tag_122\n      jump\t// in\n        /* \"abstract/Ownable.sol\":2063:2295  function transferOwnership(address newOwner) public virtual onlyOwner {... */\n    tag_108:\n        /* \"abstract/Ownable.sol\":1068:1081  _checkOwner() */\n      tag_362\n        /* \"abstract/Ownable.sol\":1068:1079  _checkOwner */\n      tag_240\n        /* \"abstract/Ownable.sol\":1068:1081  _checkOwner() */\n      jump\t// in\n    tag_362:\n      sub(shl(0xa0, 0x01), 0x01)\n        /* \"abstract/Ownable.sol\":2164:2186  newOwner != address(0) */\n      dup2\n      and\n        /* \"abstract/Ownable.sol\":2143:2250  require(... */\n      tag_364\n      jumpi\n      mload(0x40)\n      shl(0xe5, 0x461bcd)\n      dup2\n      mstore\n        /* \"#utility.yul\":12807:12809   */\n      0x20\n        /* \"abstract/Ownable.sol\":2143:2250  require(... */\n      0x04\n      dup3\n      add\n        /* \"#utility.yul\":12789:12810   */\n      mstore\n        /* \"#utility.yul\":12846:12848   */\n      0x26\n        /* \"#utility.yul\":12826:12844   */\n      0x24\n      dup3\n      add\n        /* \"#utility.yul\":12819:12849   */\n      mstore\n        /* \"#utility.yul\":12885:12919   */\n      0x4f776e61626c653a206e6577206f776e657220697320746865207a65726f2061\n        /* \"#utility.yul\":12865:12883   */\n      0x44\n      dup3\n      add\n        /* \"#utility.yul\":12858:12920   */\n      mstore\n      shl(0xd0, 0x646472657373)\n        /* \"#utility.yul\":12936:12954   */\n      0x64\n      dup3\n      add\n        /* \"#utility.yul\":12929:12965   */\n      mstore\n        /* \"#utility.yul\":12982:13001   */\n      0x84\n      add\n        /* \"abstract/Ownable.sol\":2143:2250  require(... */\n      tag_116\n        /* \"#utility.yul\":12605:13007   */\n      jump\n        /* \"abstract/Ownable.sol\":2143:2250  require(... */\n    tag_364:\n        /* \"abstract/Ownable.sol\":2260:2288  _transferOwnership(newOwner) */\n      tag_367\n        /* \"abstract/Ownable.sol\":2279:2287  newOwner */\n      dup2\n        /* \"abstract/Ownable.sol\":2260:2278  _transferOwnership */\n      tag_368\n        /* \"abstract/Ownable.sol\":2260:2288  _transferOwnership(newOwner) */\n      jump\t// in\n    tag_367:\n        /* \"abstract/Ownable.sol\":2063:2295  function transferOwnership(address newOwner) public virtual onlyOwner {... */\n      pop\n      jump\t// out\n        /* \"database/ListBusiness.sol\":831:994  function getLength(bytes32 secret)... */\n    tag_112:\n        /* \"database/ListBusiness.sol\":944:951  uint256 */\n      0x00\n        /* \"database/ListBusiness.sol\":919:925  secret */\n      dup2\n      0x00\n      dup1\n      mload\n      0x20\n      data_98ee57057fe0a523e70b51608fd55a37ff53d47c3b8dac495a5f45d45157392f\n      dup4\n      codecopy\n      dup2\n      mload\n      swap2\n      mstore\n        /* \"database/ListBusiness.sol\":529:550  value == DATABASE_KEY */\n      dup2\n      eq\n        /* \"database/ListBusiness.sol\":508:615  require(... */\n      tag_370\n      jumpi\n      mload(0x40)\n      shl(0xe5, 0x461bcd)\n      dup2\n      mstore\n      0x04\n      add\n      tag_116\n      swap1\n      tag_117\n      jump\t// in\n    tag_370:\n        /* \"database/ListBusiness.sol\":974:987  autoIncrement */\n      sload(0x02)\n        /* \"database/ListBusiness.sol\":967:987  return autoIncrement */\n      swap2\n      pop\n        /* \"database/ListBusiness.sol\":625:626  _ */\n    tag_372:\n        /* \"database/ListBusiness.sol\":831:994  function getLength(bytes32 secret)... */\n      pop\n      swap2\n      swap1\n      pop\n      jump\t// out\n        /* \"abstract/Ownable.sol\":1333:1461  function _checkOwner() internal view virtual {... */\n    tag_240:\n        /* \"abstract/Ownable.sol\":1407:1417  msg.sender */\n      caller\n        /* \"abstract/Ownable.sol\":1396:1403  owner() */\n      tag_374\n        /* \"abstract/Ownable.sol\":1221:1228  address */\n      0x00\n        /* \"abstract/Ownable.sol\":1247:1253  _owner */\n      sload\n      sub(shl(0xa0, 0x01), 0x01)\n      and\n      swap1\n        /* \"abstract/Ownable.sol\":1175:1260  function owner() public view virtual returns (address) {... */\n      jump\n        /* \"abstract/Ownable.sol\":1396:1403  owner() */\n    tag_374:\n      sub(shl(0xa0, 0x01), 0x01)\n        /* \"abstract/Ownable.sol\":1396:1417  owner() == msg.sender */\n      and\n      eq\n        /* \"abstract/Ownable.sol\":1388:1454  require(owner() == msg.sender, \"Ownable: caller is not the owner\") */\n      tag_375\n      jumpi\n      mload(0x40)\n      shl(0xe5, 0x461bcd)\n      dup2\n      mstore\n        /* \"#utility.yul\":13214:13216   */\n      0x20\n        /* \"abstract/Ownable.sol\":1388:1454  require(owner() == msg.sender, \"Ownable: caller is not the owner\") */\n      0x04\n      dup3\n      add\n        /* \"#utility.yul\":13196:13217   */\n      dup2\n      swap1\n      mstore\n        /* \"#utility.yul\":13233:13251   */\n      0x24\n      dup3\n      add\n        /* \"#utility.yul\":13226:13256   */\n      mstore\n        /* \"#utility.yul\":13292:13326   */\n      0x4f776e61626c653a2063616c6c6572206973206e6f7420746865206f776e6572\n        /* \"#utility.yul\":13272:13290   */\n      0x44\n      dup3\n      add\n        /* \"#utility.yul\":13265:13327   */\n      mstore\n        /* \"#utility.yul\":13344:13362   */\n      0x64\n      add\n        /* \"abstract/Ownable.sol\":1388:1454  require(owner() == msg.sender, \"Ownable: caller is not the owner\") */\n      tag_116\n        /* \"#utility.yul\":13012:13368   */\n      jump\n        /* \"abstract/Ownable.sol\":1388:1454  require(owner() == msg.sender, \"Ownable: caller is not the owner\") */\n    tag_375:\n        /* \"abstract/Ownable.sol\":1333:1461  function _checkOwner() internal view virtual {... */\n      jump\t// out\n        /* \"abstract/Ownable.sol\":2449:2636  function _transferOwnership(address newOwner) internal virtual {... */\n    tag_368:\n        /* \"abstract/Ownable.sol\":2522:2538  address oldOwner */\n      0x00\n        /* \"abstract/Ownable.sol\":2541:2547  _owner */\n      dup1\n      sload\n      sub(shl(0xa0, 0x01), 0x01)\n        /* \"abstract/Ownable.sol\":2557:2574  _owner = newOwner */\n      dup4\n      dup2\n      and\n      not(sub(shl(0xa0, 0x01), 0x01))\n      dup4\n      and\n      dup2\n      or\n      dup5\n      sstore\n        /* \"abstract/Ownable.sol\":2589:2629  OwnershipTransferred(oldOwner, newOwner) */\n      mload(0x40)\n        /* \"abstract/Ownable.sol\":2541:2547  _owner */\n      swap2\n      swap1\n      swap3\n      and\n      swap3\n      dup4\n      swap2\n        /* \"abstract/Ownable.sol\":2589:2629  OwnershipTransferred(oldOwner, newOwner) */\n      0x8be0079c531659141344cd1fd0a4f28419497f9722a3daafe3b4186f6b6457e0\n      swap2\n        /* \"abstract/Ownable.sol\":2522:2538  address oldOwner */\n      swap1\n        /* \"abstract/Ownable.sol\":2589:2629  OwnershipTransferred(oldOwner, newOwner) */\n      log3\n        /* \"abstract/Ownable.sol\":2512:2636  {... */\n      pop\n        /* \"abstract/Ownable.sol\":2449:2636  function _transferOwnership(address newOwner) internal virtual {... */\n      pop\n      jump\t// out\n    tag_132:\n      mload(0x40)\n      dup1\n      0x0160\n      add\n      0x40\n      mstore\n      dup1\n      0x00\n      dup2\n      mstore\n      0x20\n      add\n      0x00\n      dup2\n      mstore\n      0x20\n      add\n      and(sub(shl(0xa0, 0x01), 0x01), 0x00)\n      dup2\n      mstore\n      0x20\n      add\n      0x60\n      dup2\n      mstore\n      0x20\n      add\n      0x60\n      dup2\n      mstore\n      0x20\n      add\n      0x60\n      dup2\n      mstore\n      0x20\n      add\n      0x60\n      dup2\n      mstore\n      0x20\n      add\n      0x60\n      dup2\n      mstore\n      0x20\n      add\n      0x60\n      dup2\n      mstore\n      0x20\n      add\n      0x60\n      dup2\n      mstore\n      0x20\n      add\n      0x60\n      dup2\n      mstore\n      pop\n      swap1\n      jump\t// out\n        /* \"#utility.yul\":14:141   */\n    tag_379:\n        /* \"#utility.yul\":75:85   */\n      0x4e487b71\n        /* \"#utility.yul\":70:73   */\n      0xe0\n        /* \"#utility.yul\":66:86   */\n      shl\n        /* \"#utility.yul\":63:64   */\n      0x00\n        /* \"#utility.yul\":56:87   */\n      mstore\n        /* \"#utility.yul\":106:110   */\n      0x41\n        /* \"#utility.yul\":103:104   */\n      0x04\n        /* \"#utility.yul\":96:111   */\n      mstore\n        /* \"#utility.yul\":130:134   */\n      0x24\n        /* \"#utility.yul\":127:128   */\n      0x00\n        /* \"#utility.yul\":120:135   */\n      revert\n        /* \"#utility.yul\":146:396   */\n    tag_380:\n        /* \"#utility.yul\":213:215   */\n      0x40\n        /* \"#utility.yul\":207:216   */\n      mload\n        /* \"#utility.yul\":255:261   */\n      0x0160\n        /* \"#utility.yul\":243:262   */\n      dup2\n      add\n        /* \"#utility.yul\":292:310   */\n      0xffffffffffffffff\n        /* \"#utility.yul\":277:311   */\n      dup2\n      gt\n        /* \"#utility.yul\":313:335   */\n      dup3\n      dup3\n      lt\n        /* \"#utility.yul\":274:336   */\n      or\n        /* \"#utility.yul\":271:359   */\n      iszero\n      tag_392\n      jumpi\n        /* \"#utility.yul\":339:357   */\n      tag_392\n      tag_379\n      jump\t// in\n    tag_392:\n        /* \"#utility.yul\":375:377   */\n      0x40\n        /* \"#utility.yul\":368:390   */\n      mstore\n        /* \"#utility.yul\":146:396   */\n      swap1\n      jump\t// out\n        /* \"#utility.yul\":401:574   */\n    tag_381:\n        /* \"#utility.yul\":469:489   */\n      dup1\n      calldataload\n      sub(shl(0xa0, 0x01), 0x01)\n        /* \"#utility.yul\":518:549   */\n      dup2\n      and\n        /* \"#utility.yul\":508:550   */\n      dup2\n      eq\n        /* \"#utility.yul\":498:568   */\n      tag_394\n      jumpi\n        /* \"#utility.yul\":564:565   */\n      0x00\n        /* \"#utility.yul\":561:562   */\n      dup1\n        /* \"#utility.yul\":554:566   */\n      revert\n        /* \"#utility.yul\":498:568   */\n    tag_394:\n        /* \"#utility.yul\":401:574   */\n      swap2\n      swap1\n      pop\n      jump\t// out\n        /* \"#utility.yul\":579:1298   */\n    tag_382:\n        /* \"#utility.yul\":622:627   */\n      0x00\n        /* \"#utility.yul\":675:678   */\n      dup3\n        /* \"#utility.yul\":668:672   */\n      0x1f\n        /* \"#utility.yul\":660:666   */\n      dup4\n        /* \"#utility.yul\":656:673   */\n      add\n        /* \"#utility.yul\":652:679   */\n      slt\n        /* \"#utility.yul\":642:697   */\n      tag_396\n      jumpi\n        /* \"#utility.yul\":693:694   */\n      0x00\n        /* \"#utility.yul\":690:691   */\n      dup1\n        /* \"#utility.yul\":683:695   */\n      revert\n        /* \"#utility.yul\":642:697   */\n    tag_396:\n        /* \"#utility.yul\":729:735   */\n      dup2\n        /* \"#utility.yul\":716:736   */\n      calldataload\n        /* \"#utility.yul\":755:773   */\n      0xffffffffffffffff\n        /* \"#utility.yul\":792:794   */\n      dup1\n        /* \"#utility.yul\":788:790   */\n      dup3\n        /* \"#utility.yul\":785:795   */\n      gt\n        /* \"#utility.yul\":782:818   */\n      iszero\n      tag_398\n      jumpi\n        /* \"#utility.yul\":798:816   */\n      tag_398\n      tag_379\n      jump\t// in\n    tag_398:\n        /* \"#utility.yul\":873:875   */\n      0x40\n        /* \"#utility.yul\":867:876   */\n      mload\n        /* \"#utility.yul\":841:843   */\n      0x1f\n        /* \"#utility.yul\":927:940   */\n      dup4\n      add\n      not(0x1f)\n        /* \"#utility.yul\":923:945   */\n      swap1\n      dup2\n      and\n        /* \"#utility.yul\":947:949   */\n      0x3f\n        /* \"#utility.yul\":919:950   */\n      add\n        /* \"#utility.yul\":915:955   */\n      and\n        /* \"#utility.yul\":903:956   */\n      dup2\n      add\n      swap1\n        /* \"#utility.yul\":971:989   */\n      dup3\n      dup3\n      gt\n        /* \"#utility.yul\":991:1013   */\n      dup2\n      dup4\n      lt\n        /* \"#utility.yul\":968:1014   */\n      or\n        /* \"#utility.yul\":965:1037   */\n      iszero\n      tag_400\n      jumpi\n        /* \"#utility.yul\":1017:1035   */\n      tag_400\n      tag_379\n      jump\t// in\n    tag_400:\n        /* \"#utility.yul\":1057:1067   */\n      dup2\n        /* \"#utility.yul\":1053:1055   */\n      0x40\n        /* \"#utility.yul\":1046:1068   */\n      mstore\n        /* \"#utility.yul\":1092:1094   */\n      dup4\n        /* \"#utility.yul\":1084:1090   */\n      dup2\n        /* \"#utility.yul\":1077:1095   */\n      mstore\n        /* \"#utility.yul\":1138:1141   */\n      dup7\n        /* \"#utility.yul\":1131:1135   */\n      0x20\n        /* \"#utility.yul\":1126:1128   */\n      dup6\n        /* \"#utility.yul\":1118:1124   */\n      dup9\n        /* \"#utility.yul\":1114:1129   */\n      add\n        /* \"#utility.yul\":1110:1136   */\n      add\n        /* \"#utility.yul\":1107:1142   */\n      gt\n        /* \"#utility.yul\":1104:1159   */\n      iszero\n      tag_401\n      jumpi\n        /* \"#utility.yul\":1155:1156   */\n      0x00\n        /* \"#utility.yul\":1152:1153   */\n      dup1\n        /* \"#utility.yul\":1145:1157   */\n      revert\n        /* \"#utility.yul\":1104:1159   */\n    tag_401:\n        /* \"#utility.yul\":1219:1221   */\n      dup4\n        /* \"#utility.yul\":1212:1216   */\n      0x20\n        /* \"#utility.yul\":1204:1210   */\n      dup8\n        /* \"#utility.yul\":1200:1217   */\n      add\n        /* \"#utility.yul\":1193:1197   */\n      0x20\n        /* \"#utility.yul\":1185:1191   */\n      dup4\n        /* \"#utility.yul\":1181:1198   */\n      add\n        /* \"#utility.yul\":1168:1222   */\n      calldatacopy\n        /* \"#utility.yul\":1266:1267   */\n      0x00\n        /* \"#utility.yul\":1259:1263   */\n      0x20\n        /* \"#utility.yul\":1254:1256   */\n      dup6\n        /* \"#utility.yul\":1246:1252   */\n      dup4\n        /* \"#utility.yul\":1242:1257   */\n      add\n        /* \"#utility.yul\":1238:1264   */\n      add\n        /* \"#utility.yul\":1231:1268   */\n      mstore\n        /* \"#utility.yul\":1286:1292   */\n      dup1\n        /* \"#utility.yul\":1277:1292   */\n      swap5\n      pop\n      pop\n      pop\n      pop\n      pop\n        /* \"#utility.yul\":579:1298   */\n      swap3\n      swap2\n      pop\n      pop\n      jump\t// out\n        /* \"#utility.yul\":1303:3441   */\n    tag_28:\n        /* \"#utility.yul\":1395:1401   */\n      0x00\n        /* \"#utility.yul\":1403:1409   */\n      dup1\n        /* \"#utility.yul\":1456:1458   */\n      0x40\n        /* \"#utility.yul\":1444:1453   */\n      dup4\n        /* \"#utility.yul\":1435:1442   */\n      dup6\n        /* \"#utility.yul\":1431:1454   */\n      sub\n        /* \"#utility.yul\":1427:1459   */\n      slt\n        /* \"#utility.yul\":1424:1476   */\n      iszero\n      tag_403\n      jumpi\n        /* \"#utility.yul\":1472:1473   */\n      0x00\n        /* \"#utility.yul\":1469:1470   */\n      dup1\n        /* \"#utility.yul\":1462:1474   */\n      revert\n        /* \"#utility.yul\":1424:1476   */\n    tag_403:\n        /* \"#utility.yul\":1512:1521   */\n      dup3\n        /* \"#utility.yul\":1499:1522   */\n      calldataload\n        /* \"#utility.yul\":1541:1559   */\n      0xffffffffffffffff\n        /* \"#utility.yul\":1582:1584   */\n      dup1\n        /* \"#utility.yul\":1574:1580   */\n      dup3\n        /* \"#utility.yul\":1571:1585   */\n      gt\n        /* \"#utility.yul\":1568:1602   */\n      iszero\n      tag_404\n      jumpi\n        /* \"#utility.yul\":1598:1599   */\n      0x00\n        /* \"#utility.yul\":1595:1596   */\n      dup1\n        /* \"#utility.yul\":1588:1600   */\n      revert\n        /* \"#utility.yul\":1568:1602   */\n    tag_404:\n        /* \"#utility.yul\":1621:1643   */\n      swap1\n      dup5\n      add\n      swap1\n        /* \"#utility.yul\":1677:1683   */\n      0x0160\n        /* \"#utility.yul\":1659:1675   */\n      dup3\n      dup8\n      sub\n        /* \"#utility.yul\":1655:1684   */\n      slt\n        /* \"#utility.yul\":1652:1701   */\n      iszero\n      tag_405\n      jumpi\n        /* \"#utility.yul\":1697:1698   */\n      0x00\n        /* \"#utility.yul\":1694:1695   */\n      dup1\n        /* \"#utility.yul\":1687:1699   */\n      revert\n        /* \"#utility.yul\":1652:1701   */\n    tag_405:\n        /* \"#utility.yul\":1723:1740   */\n      tag_406\n      tag_380\n      jump\t// in\n    tag_406:\n        /* \"#utility.yul\":1776:1778   */\n      dup3\n        /* \"#utility.yul\":1763:1779   */\n      calldataload\n        /* \"#utility.yul\":1756:1761   */\n      dup2\n        /* \"#utility.yul\":1749:1780   */\n      mstore\n        /* \"#utility.yul\":1833:1835   */\n      0x20\n        /* \"#utility.yul\":1829:1831   */\n      dup4\n        /* \"#utility.yul\":1825:1836   */\n      add\n        /* \"#utility.yul\":1812:1837   */\n      calldataload\n        /* \"#utility.yul\":1807:1809   */\n      0x20\n        /* \"#utility.yul\":1800:1805   */\n      dup3\n        /* \"#utility.yul\":1796:1810   */\n      add\n        /* \"#utility.yul\":1789:1838   */\n      mstore\n        /* \"#utility.yul\":1870:1901   */\n      tag_407\n        /* \"#utility.yul\":1897:1899   */\n      0x40\n        /* \"#utility.yul\":1893:1895   */\n      dup5\n        /* \"#utility.yul\":1889:1900   */\n      add\n        /* \"#utility.yul\":1870:1901   */\n      tag_381\n      jump\t// in\n    tag_407:\n        /* \"#utility.yul\":1865:1867   */\n      0x40\n        /* \"#utility.yul\":1858:1863   */\n      dup3\n        /* \"#utility.yul\":1854:1868   */\n      add\n        /* \"#utility.yul\":1847:1902   */\n      mstore\n        /* \"#utility.yul\":1948:1950   */\n      0x60\n        /* \"#utility.yul\":1944:1946   */\n      dup4\n        /* \"#utility.yul\":1940:1951   */\n      add\n        /* \"#utility.yul\":1927:1952   */\n      calldataload\n        /* \"#utility.yul\":1977:1979   */\n      dup3\n        /* \"#utility.yul\":1967:1975   */\n      dup2\n        /* \"#utility.yul\":1964:1980   */\n      gt\n        /* \"#utility.yul\":1961:1997   */\n      iszero\n      tag_408\n      jumpi\n        /* \"#utility.yul\":1993:1994   */\n      0x00\n        /* \"#utility.yul\":1990:1991   */\n      dup1\n        /* \"#utility.yul\":1983:1995   */\n      revert\n        /* \"#utility.yul\":1961:1997   */\n    tag_408:\n        /* \"#utility.yul\":2029:2074   */\n      tag_409\n        /* \"#utility.yul\":2066:2073   */\n      dup9\n        /* \"#utility.yul\":2055:2063   */\n      dup3\n        /* \"#utility.yul\":2051:2053   */\n      dup7\n        /* \"#utility.yul\":2047:2064   */\n      add\n        /* \"#utility.yul\":2029:2074   */\n      tag_382\n      jump\t// in\n    tag_409:\n        /* \"#utility.yul\":2024:2026   */\n      0x60\n        /* \"#utility.yul\":2017:2022   */\n      dup4\n        /* \"#utility.yul\":2013:2027   */\n      add\n        /* \"#utility.yul\":2006:2075   */\n      mstore\n      pop\n        /* \"#utility.yul\":2121:2124   */\n      0x80\n        /* \"#utility.yul\":2117:2119   */\n      dup4\n        /* \"#utility.yul\":2113:2125   */\n      add\n        /* \"#utility.yul\":2100:2126   */\n      calldataload\n        /* \"#utility.yul\":2151:2153   */\n      dup3\n        /* \"#utility.yul\":2141:2149   */\n      dup2\n        /* \"#utility.yul\":2138:2154   */\n      gt\n        /* \"#utility.yul\":2135:2171   */\n      iszero\n      tag_410\n      jumpi\n        /* \"#utility.yul\":2167:2168   */\n      0x00\n        /* \"#utility.yul\":2164:2165   */\n      dup1\n        /* \"#utility.yul\":2157:2169   */\n      revert\n        /* \"#utility.yul\":2135:2171   */\n    tag_410:\n        /* \"#utility.yul\":2204:2249   */\n      tag_411\n        /* \"#utility.yul\":2241:2248   */\n      dup9\n        /* \"#utility.yul\":2230:2238   */\n      dup3\n        /* \"#utility.yul\":2226:2228   */\n      dup7\n        /* \"#utility.yul\":2222:2239   */\n      add\n        /* \"#utility.yul\":2204:2249   */\n      tag_382\n      jump\t// in\n    tag_411:\n        /* \"#utility.yul\":2198:2201   */\n      0x80\n        /* \"#utility.yul\":2191:2196   */\n      dup4\n        /* \"#utility.yul\":2187:2202   */\n      add\n        /* \"#utility.yul\":2180:2250   */\n      mstore\n      pop\n        /* \"#utility.yul\":2296:2299   */\n      0xa0\n        /* \"#utility.yul\":2292:2294   */\n      dup4\n        /* \"#utility.yul\":2288:2300   */\n      add\n        /* \"#utility.yul\":2275:2301   */\n      calldataload\n        /* \"#utility.yul\":2326:2328   */\n      dup3\n        /* \"#utility.yul\":2316:2324   */\n      dup2\n        /* \"#utility.yul\":2313:2329   */\n      gt\n        /* \"#utility.yul\":2310:2346   */\n      iszero\n      tag_412\n      jumpi\n        /* \"#utility.yul\":2342:2343   */\n      0x00\n        /* \"#utility.yul\":2339:2340   */\n      dup1\n        /* \"#utility.yul\":2332:2344   */\n      revert\n        /* \"#utility.yul\":2310:2346   */\n    tag_412:\n        /* \"#utility.yul\":2379:2424   */\n      tag_413\n        /* \"#utility.yul\":2416:2423   */\n      dup9\n        /* \"#utility.yul\":2405:2413   */\n      dup3\n        /* \"#utility.yul\":2401:2403   */\n      dup7\n        /* \"#utility.yul\":2397:2414   */\n      add\n        /* \"#utility.yul\":2379:2424   */\n      tag_382\n      jump\t// in\n    tag_413:\n        /* \"#utility.yul\":2373:2376   */\n      0xa0\n        /* \"#utility.yul\":2366:2371   */\n      dup4\n        /* \"#utility.yul\":2362:2377   */\n      add\n        /* \"#utility.yul\":2355:2425   */\n      mstore\n      pop\n        /* \"#utility.yul\":2471:2474   */\n      0xc0\n        /* \"#utility.yul\":2467:2469   */\n      dup4\n        /* \"#utility.yul\":2463:2475   */\n      add\n        /* \"#utility.yul\":2450:2476   */\n      calldataload\n        /* \"#utility.yul\":2501:2503   */\n      dup3\n        /* \"#utility.yul\":2491:2499   */\n      dup2\n        /* \"#utility.yul\":2488:2504   */\n      gt\n        /* \"#utility.yul\":2485:2521   */\n      iszero\n      tag_414\n      jumpi\n        /* \"#utility.yul\":2517:2518   */\n      0x00\n        /* \"#utility.yul\":2514:2515   */\n      dup1\n        /* \"#utility.yul\":2507:2519   */\n      revert\n        /* \"#utility.yul\":2485:2521   */\n    tag_414:\n        /* \"#utility.yul\":2554:2599   */\n      tag_415\n        /* \"#utility.yul\":2591:2598   */\n      dup9\n        /* \"#utility.yul\":2580:2588   */\n      dup3\n        /* \"#utility.yul\":2576:2578   */\n      dup7\n        /* \"#utility.yul\":2572:2589   */\n      add\n        /* \"#utility.yul\":2554:2599   */\n      tag_382\n      jump\t// in\n    tag_415:\n        /* \"#utility.yul\":2548:2551   */\n      0xc0\n        /* \"#utility.yul\":2541:2546   */\n      dup4\n        /* \"#utility.yul\":2537:2552   */\n      add\n        /* \"#utility.yul\":2530:2600   */\n      mstore\n      pop\n        /* \"#utility.yul\":2646:2649   */\n      0xe0\n        /* \"#utility.yul\":2642:2644   */\n      dup4\n        /* \"#utility.yul\":2638:2650   */\n      add\n        /* \"#utility.yul\":2625:2651   */\n      calldataload\n        /* \"#utility.yul\":2676:2678   */\n      dup3\n        /* \"#utility.yul\":2666:2674   */\n      dup2\n        /* \"#utility.yul\":2663:2679   */\n      gt\n        /* \"#utility.yul\":2660:2696   */\n      iszero\n      tag_416\n      jumpi\n        /* \"#utility.yul\":2692:2693   */\n      0x00\n        /* \"#utility.yul\":2689:2690   */\n      dup1\n        /* \"#utility.yul\":2682:2694   */\n      revert\n        /* \"#utility.yul\":2660:2696   */\n    tag_416:\n        /* \"#utility.yul\":2729:2774   */\n      tag_417\n        /* \"#utility.yul\":2766:2773   */\n      dup9\n        /* \"#utility.yul\":2755:2763   */\n      dup3\n        /* \"#utility.yul\":2751:2753   */\n      dup7\n        /* \"#utility.yul\":2747:2764   */\n      add\n        /* \"#utility.yul\":2729:2774   */\n      tag_382\n      jump\t// in\n    tag_417:\n        /* \"#utility.yul\":2723:2726   */\n      0xe0\n        /* \"#utility.yul\":2716:2721   */\n      dup4\n        /* \"#utility.yul\":2712:2727   */\n      add\n        /* \"#utility.yul\":2705:2775   */\n      mstore\n      pop\n        /* \"#utility.yul\":2794:2797   */\n      0x0100\n        /* \"#utility.yul\":2843:2845   */\n      dup1\n        /* \"#utility.yul\":2839:2841   */\n      dup5\n        /* \"#utility.yul\":2835:2846   */\n      add\n        /* \"#utility.yul\":2822:2847   */\n      calldataload\n        /* \"#utility.yul\":2872:2874   */\n      dup4\n        /* \"#utility.yul\":2862:2870   */\n      dup2\n        /* \"#utility.yul\":2859:2875   */\n      gt\n        /* \"#utility.yul\":2856:2892   */\n      iszero\n      tag_418\n      jumpi\n        /* \"#utility.yul\":2888:2889   */\n      0x00\n        /* \"#utility.yul\":2885:2886   */\n      dup1\n        /* \"#utility.yul\":2878:2890   */\n      revert\n        /* \"#utility.yul\":2856:2892   */\n    tag_418:\n        /* \"#utility.yul\":2924:2969   */\n      tag_419\n        /* \"#utility.yul\":2961:2968   */\n      dup10\n        /* \"#utility.yul\":2950:2958   */\n      dup3\n        /* \"#utility.yul\":2946:2948   */\n      dup8\n        /* \"#utility.yul\":2942:2959   */\n      add\n        /* \"#utility.yul\":2924:2969   */\n      tag_382\n      jump\t// in\n    tag_419:\n        /* \"#utility.yul\":2919:2921   */\n      dup3\n        /* \"#utility.yul\":2912:2917   */\n      dup5\n        /* \"#utility.yul\":2908:2922   */\n      add\n        /* \"#utility.yul\":2901:2970   */\n      mstore\n      pop\n      pop\n        /* \"#utility.yul\":2989:2992   */\n      0x0120\n        /* \"#utility.yul\":3038:3040   */\n      dup1\n        /* \"#utility.yul\":3034:3036   */\n      dup5\n        /* \"#utility.yul\":3030:3041   */\n      add\n        /* \"#utility.yul\":3017:3042   */\n      calldataload\n        /* \"#utility.yul\":3067:3069   */\n      dup4\n        /* \"#utility.yul\":3057:3065   */\n      dup2\n        /* \"#utility.yul\":3054:3070   */\n      gt\n        /* \"#utility.yul\":3051:3087   */\n      iszero\n      tag_420\n      jumpi\n        /* \"#utility.yul\":3083:3084   */\n      0x00\n        /* \"#utility.yul\":3080:3081   */\n      dup1\n        /* \"#utility.yul\":3073:3085   */\n      revert\n        /* \"#utility.yul\":3051:3087   */\n    tag_420:\n        /* \"#utility.yul\":3119:3164   */\n      tag_421\n        /* \"#utility.yul\":3156:3163   */\n      dup10\n        /* \"#utility.yul\":3145:3153   */\n      dup3\n        /* \"#utility.yul\":3141:3143   */\n      dup8\n        /* \"#utility.yul\":3137:3154   */\n      add\n        /* \"#utility.yul\":3119:3164   */\n      tag_382\n      jump\t// in\n    tag_421:\n        /* \"#utility.yul\":3114:3116   */\n      dup3\n        /* \"#utility.yul\":3107:3112   */\n      dup5\n        /* \"#utility.yul\":3103:3117   */\n      add\n        /* \"#utility.yul\":3096:3165   */\n      mstore\n      pop\n      pop\n        /* \"#utility.yul\":3184:3187   */\n      0x0140\n        /* \"#utility.yul\":3233:3235   */\n      dup1\n        /* \"#utility.yul\":3229:3231   */\n      dup5\n        /* \"#utility.yul\":3225:3236   */\n      add\n        /* \"#utility.yul\":3212:3237   */\n      calldataload\n        /* \"#utility.yul\":3262:3264   */\n      dup4\n        /* \"#utility.yul\":3252:3260   */\n      dup2\n        /* \"#utility.yul\":3249:3265   */\n      gt\n        /* \"#utility.yul\":3246:3282   */\n      iszero\n      tag_422\n      jumpi\n        /* \"#utility.yul\":3278:3279   */\n      0x00\n        /* \"#utility.yul\":3275:3276   */\n      dup1\n        /* \"#utility.yul\":3268:3280   */\n      revert\n        /* \"#utility.yul\":3246:3282   */\n    tag_422:\n        /* \"#utility.yul\":3314:3359   */\n      tag_423\n        /* \"#utility.yul\":3351:3358   */\n      dup10\n        /* \"#utility.yul\":3340:3348   */\n      dup3\n        /* \"#utility.yul\":3336:3338   */\n      dup8\n        /* \"#utility.yul\":3332:3349   */\n      add\n        /* \"#utility.yul\":3314:3359   */\n      tag_382\n      jump\t// in\n    tag_423:\n        /* \"#utility.yul\":3298:3312   */\n      swap2\n      dup4\n      add\n        /* \"#utility.yul\":3291:3360   */\n      swap2\n      swap1\n      swap2\n      mstore\n      pop\n        /* \"#utility.yul\":3302:3307   */\n      swap7\n        /* \"#utility.yul\":3431:3433   */\n      0x20\n        /* \"#utility.yul\":3416:3434   */\n      swap6\n      swap1\n      swap6\n      add\n        /* \"#utility.yul\":3403:3435   */\n      calldataload\n      swap6\n      pop\n      pop\n      pop\n      pop\n      pop\n        /* \"#utility.yul\":1303:3441   */\n      jump\t// out\n        /* \"#utility.yul\":3638:3892   */\n    tag_34:\n        /* \"#utility.yul\":3706:3712   */\n      0x00\n        /* \"#utility.yul\":3714:3720   */\n      dup1\n        /* \"#utility.yul\":3767:3769   */\n      0x40\n        /* \"#utility.yul\":3755:3764   */\n      dup4\n        /* \"#utility.yul\":3746:3753   */\n      dup6\n        /* \"#utility.yul\":3742:3765   */\n      sub\n        /* \"#utility.yul\":3738:3770   */\n      slt\n        /* \"#utility.yul\":3735:3787   */\n      iszero\n      tag_426\n      jumpi\n        /* \"#utility.yul\":3783:3784   */\n      0x00\n        /* \"#utility.yul\":3780:3781   */\n      dup1\n        /* \"#utility.yul\":3773:3785   */\n      revert\n        /* \"#utility.yul\":3735:3787   */\n    tag_426:\n        /* \"#utility.yul\":3806:3835   */\n      tag_427\n        /* \"#utility.yul\":3825:3834   */\n      dup4\n        /* \"#utility.yul\":3806:3835   */\n      tag_381\n      jump\t// in\n    tag_427:\n        /* \"#utility.yul\":3796:3835   */\n      swap5\n        /* \"#utility.yul\":3882:3884   */\n      0x20\n        /* \"#utility.yul\":3867:3885   */\n      swap4\n      swap1\n      swap4\n      add\n        /* \"#utility.yul\":3854:3886   */\n      calldataload\n      swap4\n      pop\n      pop\n      pop\n        /* \"#utility.yul\":3638:3892   */\n      jump\t// out\n        /* \"#utility.yul\":4006:4429   */\n    tag_384:\n        /* \"#utility.yul\":4048:4051   */\n      0x00\n        /* \"#utility.yul\":4086:4091   */\n      dup2\n        /* \"#utility.yul\":4080:4092   */\n      mload\n        /* \"#utility.yul\":4113:4119   */\n      dup1\n        /* \"#utility.yul\":4108:4111   */\n      dup5\n        /* \"#utility.yul\":4101:4120   */\n      mstore\n        /* \"#utility.yul\":4138:4139   */\n      0x00\n        /* \"#utility.yul\":4148:4310   */\n    tag_430:\n        /* \"#utility.yul\":4162:4168   */\n      dup2\n        /* \"#utility.yul\":4159:4160   */\n      dup2\n        /* \"#utility.yul\":4156:4169   */\n      lt\n        /* \"#utility.yul\":4148:4310   */\n      iszero\n      tag_432\n      jumpi\n        /* \"#utility.yul\":4224:4228   */\n      0x20\n        /* \"#utility.yul\":4280:4293   */\n      dup2\n      dup6\n      add\n        /* \"#utility.yul\":4276:4298   */\n      dup2\n      add\n        /* \"#utility.yul\":4270:4299   */\n      mload\n        /* \"#utility.yul\":4252:4263   */\n      dup7\n      dup4\n      add\n        /* \"#utility.yul\":4248:4268   */\n      dup3\n      add\n        /* \"#utility.yul\":4241:4300   */\n      mstore\n        /* \"#utility.yul\":4177:4189   */\n      add\n        /* \"#utility.yul\":4148:4310   */\n      jump(tag_430)\n    tag_432:\n        /* \"#utility.yul\":4152:4155   */\n      pop\n        /* \"#utility.yul\":4355:4356   */\n      0x00\n        /* \"#utility.yul\":4348:4352   */\n      0x20\n        /* \"#utility.yul\":4339:4345   */\n      dup3\n        /* \"#utility.yul\":4334:4337   */\n      dup7\n        /* \"#utility.yul\":4330:4346   */\n      add\n        /* \"#utility.yul\":4326:4353   */\n      add\n        /* \"#utility.yul\":4319:4357   */\n      mstore\n        /* \"#utility.yul\":4418:4422   */\n      0x20\n        /* \"#utility.yul\":4411:4413   */\n      0x1f\n        /* \"#utility.yul\":4407:4414   */\n      not\n        /* \"#utility.yul\":4402:4404   */\n      0x1f\n        /* \"#utility.yul\":4394:4400   */\n      dup4\n        /* \"#utility.yul\":4390:4405   */\n      add\n        /* \"#utility.yul\":4386:4415   */\n      and\n        /* \"#utility.yul\":4381:4384   */\n      dup6\n        /* \"#utility.yul\":4377:4416   */\n      add\n        /* \"#utility.yul\":4373:4423   */\n      add\n        /* \"#utility.yul\":4366:4423   */\n      swap2\n      pop\n      pop\n        /* \"#utility.yul\":4006:4429   */\n      swap3\n      swap2\n      pop\n      pop\n      jump\t// out\n        /* \"#utility.yul\":4434:6424   */\n    tag_37:\n        /* \"#utility.yul\":4611:4613   */\n      0x20\n        /* \"#utility.yul\":4600:4609   */\n      dup2\n        /* \"#utility.yul\":4593:4614   */\n      mstore\n        /* \"#utility.yul\":4656:4662   */\n      dup2\n        /* \"#utility.yul\":4650:4663   */\n      mload\n        /* \"#utility.yul\":4645:4647   */\n      0x20\n        /* \"#utility.yul\":4634:4643   */\n      dup3\n        /* \"#utility.yul\":4630:4648   */\n      add\n        /* \"#utility.yul\":4623:4664   */\n      mstore\n        /* \"#utility.yul\":4718:4720   */\n      0x20\n        /* \"#utility.yul\":4710:4716   */\n      dup3\n        /* \"#utility.yul\":4706:4721   */\n      add\n        /* \"#utility.yul\":4700:4722   */\n      mload\n        /* \"#utility.yul\":4695:4697   */\n      0x40\n        /* \"#utility.yul\":4684:4693   */\n      dup3\n        /* \"#utility.yul\":4680:4698   */\n      add\n        /* \"#utility.yul\":4673:4723   */\n      mstore\n        /* \"#utility.yul\":4574:4578   */\n      0x00\n        /* \"#utility.yul\":4770:4772   */\n      0x40\n        /* \"#utility.yul\":4762:4768   */\n      dup4\n        /* \"#utility.yul\":4758:4773   */\n      add\n        /* \"#utility.yul\":4752:4774   */\n      mload\n        /* \"#utility.yul\":4783:4835   */\n      tag_434\n        /* \"#utility.yul\":4831:4833   */\n      0x60\n        /* \"#utility.yul\":4820:4829   */\n      dup5\n        /* \"#utility.yul\":4816:4834   */\n      add\n        /* \"#utility.yul\":4802:4814   */\n      dup3\n      sub(shl(0xa0, 0x01), 0x01)\n        /* \"#utility.yul\":3963:3994   */\n      and\n        /* \"#utility.yul\":3951:3995   */\n      swap1\n      mstore\n        /* \"#utility.yul\":3897:4001   */\n      jump\n        /* \"#utility.yul\":4783:4835   */\n    tag_434:\n      pop\n        /* \"#utility.yul\":4884:4886   */\n      0x60\n        /* \"#utility.yul\":4876:4882   */\n      dup4\n        /* \"#utility.yul\":4872:4887   */\n      add\n        /* \"#utility.yul\":4866:4888   */\n      mload\n        /* \"#utility.yul\":4907:4913   */\n      0x0160\n        /* \"#utility.yul\":4950:4952   */\n      dup1\n        /* \"#utility.yul\":4944:4947   */\n      0x80\n        /* \"#utility.yul\":4933:4942   */\n      dup6\n        /* \"#utility.yul\":4929:4948   */\n      add\n        /* \"#utility.yul\":4922:4953   */\n      mstore\n        /* \"#utility.yul\":4976:5030   */\n      tag_435\n        /* \"#utility.yul\":5025:5028   */\n      0x0180\n        /* \"#utility.yul\":5014:5023   */\n      dup6\n        /* \"#utility.yul\":5010:5029   */\n      add\n        /* \"#utility.yul\":4994:5008   */\n      dup4\n        /* \"#utility.yul\":4976:5030   */\n      tag_384\n      jump\t// in\n    tag_435:\n        /* \"#utility.yul\":4962:5030   */\n      swap2\n      pop\n        /* \"#utility.yul\":5079:5082   */\n      0x80\n        /* \"#utility.yul\":5071:5077   */\n      dup6\n        /* \"#utility.yul\":5067:5083   */\n      add\n        /* \"#utility.yul\":5061:5084   */\n      mload\n        /* \"#utility.yul\":5107:5109   */\n      0x1f\n        /* \"#utility.yul\":5103:5110   */\n      not\n        /* \"#utility.yul\":5175:5177   */\n      dup1\n        /* \"#utility.yul\":5163:5172   */\n      dup7\n        /* \"#utility.yul\":5155:5161   */\n      dup6\n        /* \"#utility.yul\":5151:5173   */\n      sub\n        /* \"#utility.yul\":5147:5178   */\n      add\n        /* \"#utility.yul\":5141:5144   */\n      0xa0\n        /* \"#utility.yul\":5130:5139   */\n      dup8\n        /* \"#utility.yul\":5126:5145   */\n      add\n        /* \"#utility.yul\":5119:5179   */\n      mstore\n        /* \"#utility.yul\":5202:5243   */\n      tag_436\n        /* \"#utility.yul\":5236:5242   */\n      dup5\n        /* \"#utility.yul\":5220:5234   */\n      dup4\n        /* \"#utility.yul\":5202:5243   */\n      tag_384\n      jump\t// in\n    tag_436:\n        /* \"#utility.yul\":5188:5243   */\n      swap4\n      pop\n        /* \"#utility.yul\":5292:5295   */\n      0xa0\n        /* \"#utility.yul\":5284:5290   */\n      dup8\n        /* \"#utility.yul\":5280:5296   */\n      add\n        /* \"#utility.yul\":5274:5297   */\n      mload\n        /* \"#utility.yul\":5252:5297   */\n      swap2\n      pop\n        /* \"#utility.yul\":5362:5364   */\n      dup1\n        /* \"#utility.yul\":5350:5359   */\n      dup7\n        /* \"#utility.yul\":5342:5348   */\n      dup6\n        /* \"#utility.yul\":5338:5360   */\n      sub\n        /* \"#utility.yul\":5334:5365   */\n      add\n        /* \"#utility.yul\":5328:5331   */\n      0xc0\n        /* \"#utility.yul\":5317:5326   */\n      dup8\n        /* \"#utility.yul\":5313:5332   */\n      add\n        /* \"#utility.yul\":5306:5366   */\n      mstore\n        /* \"#utility.yul\":5389:5430   */\n      tag_437\n        /* \"#utility.yul\":5423:5429   */\n      dup5\n        /* \"#utility.yul\":5407:5421   */\n      dup4\n        /* \"#utility.yul\":5389:5430   */\n      tag_384\n      jump\t// in\n    tag_437:\n        /* \"#utility.yul\":5375:5430   */\n      swap4\n      pop\n        /* \"#utility.yul\":5479:5482   */\n      0xc0\n        /* \"#utility.yul\":5471:5477   */\n      dup8\n        /* \"#utility.yul\":5467:5483   */\n      add\n        /* \"#utility.yul\":5461:5484   */\n      mload\n        /* \"#utility.yul\":5439:5484   */\n      swap2\n      pop\n        /* \"#utility.yul\":5549:5551   */\n      dup1\n        /* \"#utility.yul\":5537:5546   */\n      dup7\n        /* \"#utility.yul\":5529:5535   */\n      dup6\n        /* \"#utility.yul\":5525:5547   */\n      sub\n        /* \"#utility.yul\":5521:5552   */\n      add\n        /* \"#utility.yul\":5515:5518   */\n      0xe0\n        /* \"#utility.yul\":5504:5513   */\n      dup8\n        /* \"#utility.yul\":5500:5519   */\n      add\n        /* \"#utility.yul\":5493:5553   */\n      mstore\n        /* \"#utility.yul\":5576:5617   */\n      tag_438\n        /* \"#utility.yul\":5610:5616   */\n      dup5\n        /* \"#utility.yul\":5594:5608   */\n      dup4\n        /* \"#utility.yul\":5576:5617   */\n      tag_384\n      jump\t// in\n    tag_438:\n        /* \"#utility.yul\":5562:5617   */\n      swap4\n      pop\n        /* \"#utility.yul\":5666:5669   */\n      0xe0\n        /* \"#utility.yul\":5658:5664   */\n      dup8\n        /* \"#utility.yul\":5654:5670   */\n      add\n        /* \"#utility.yul\":5648:5671   */\n      mload\n        /* \"#utility.yul\":5626:5671   */\n      swap2\n      pop\n        /* \"#utility.yul\":5690:5693   */\n      0x0100\n        /* \"#utility.yul\":5757:5759   */\n      dup2\n        /* \"#utility.yul\":5745:5754   */\n      dup8\n        /* \"#utility.yul\":5737:5743   */\n      dup7\n        /* \"#utility.yul\":5733:5755   */\n      sub\n        /* \"#utility.yul\":5729:5760   */\n      add\n        /* \"#utility.yul\":5724:5726   */\n      dup2\n        /* \"#utility.yul\":5713:5722   */\n      dup9\n        /* \"#utility.yul\":5709:5727   */\n      add\n        /* \"#utility.yul\":5702:5761   */\n      mstore\n        /* \"#utility.yul\":5784:5825   */\n      tag_439\n        /* \"#utility.yul\":5818:5824   */\n      dup6\n        /* \"#utility.yul\":5802:5816   */\n      dup5\n        /* \"#utility.yul\":5784:5825   */\n      tag_384\n      jump\t// in\n    tag_439:\n        /* \"#utility.yul\":5770:5825   */\n      swap5\n      pop\n        /* \"#utility.yul\":5874:5876   */\n      dup1\n        /* \"#utility.yul\":5866:5872   */\n      dup9\n        /* \"#utility.yul\":5862:5877   */\n      add\n        /* \"#utility.yul\":5856:5878   */\n      mload\n        /* \"#utility.yul\":5834:5878   */\n      swap3\n      pop\n      pop\n        /* \"#utility.yul\":5897:5900   */\n      0x0120\n        /* \"#utility.yul\":5964:5966   */\n      dup2\n        /* \"#utility.yul\":5952:5961   */\n      dup8\n        /* \"#utility.yul\":5944:5950   */\n      dup7\n        /* \"#utility.yul\":5940:5962   */\n      sub\n        /* \"#utility.yul\":5936:5967   */\n      add\n        /* \"#utility.yul\":5931:5933   */\n      dup2\n        /* \"#utility.yul\":5920:5929   */\n      dup9\n        /* \"#utility.yul\":5916:5934   */\n      add\n        /* \"#utility.yul\":5909:5968   */\n      mstore\n        /* \"#utility.yul\":5991:6032   */\n      tag_440\n        /* \"#utility.yul\":6025:6031   */\n      dup6\n        /* \"#utility.yul\":6009:6023   */\n      dup5\n        /* \"#utility.yul\":5991:6032   */\n      tag_384\n      jump\t// in\n    tag_440:\n        /* \"#utility.yul\":5977:6032   */\n      swap5\n      pop\n        /* \"#utility.yul\":6081:6083   */\n      dup1\n        /* \"#utility.yul\":6073:6079   */\n      dup9\n        /* \"#utility.yul\":6069:6084   */\n      add\n        /* \"#utility.yul\":6063:6085   */\n      mload\n        /* \"#utility.yul\":6041:6085   */\n      swap3\n      pop\n      pop\n        /* \"#utility.yul\":6104:6107   */\n      0x0140\n        /* \"#utility.yul\":6171:6173   */\n      dup2\n        /* \"#utility.yul\":6159:6168   */\n      dup8\n        /* \"#utility.yul\":6151:6157   */\n      dup7\n        /* \"#utility.yul\":6147:6169   */\n      sub\n        /* \"#utility.yul\":6143:6174   */\n      add\n        /* \"#utility.yul\":6138:6140   */\n      dup2\n        /* \"#utility.yul\":6127:6136   */\n      dup9\n        /* \"#utility.yul\":6123:6141   */\n      add\n        /* \"#utility.yul\":6116:6175   */\n      mstore\n        /* \"#utility.yul\":6198:6239   */\n      tag_441\n        /* \"#utility.yul\":6232:6238   */\n      dup6\n        /* \"#utility.yul\":6216:6230   */\n      dup5\n        /* \"#utility.yul\":6198:6239   */\n      tag_384\n      jump\t// in\n    tag_441:\n        /* \"#utility.yul\":6276:6291   */\n      swap1\n      dup9\n      add\n        /* \"#utility.yul\":6270:6292   */\n      mload\n        /* \"#utility.yul\":6332:6354   */\n      dup8\n      dup3\n      sub\n        /* \"#utility.yul\":6328:6359   */\n      swap1\n      swap3\n      add\n        /* \"#utility.yul\":6308:6326   */\n      dup5\n      dup9\n      add\n        /* \"#utility.yul\":6301:6360   */\n      mstore\n        /* \"#utility.yul\":6184:6239   */\n      swap4\n      pop\n        /* \"#utility.yul\":6270:6292   */\n      swap1\n      pop\n        /* \"#utility.yul\":6377:6418   */\n      tag_442\n        /* \"#utility.yul\":6184:6239   */\n      dup4\n        /* \"#utility.yul\":6270:6292   */\n      dup3\n        /* \"#utility.yul\":6377:6418   */\n      tag_384\n      jump\t// in\n    tag_442:\n        /* \"#utility.yul\":6369:6418   */\n      swap7\n        /* \"#utility.yul\":4434:6424   */\n      swap6\n      pop\n      pop\n      pop\n      pop\n      pop\n      pop\n      jump\t// out\n        /* \"#utility.yul\":6429:6745   */\n    tag_40:\n        /* \"#utility.yul\":6506:6512   */\n      0x00\n        /* \"#utility.yul\":6514:6520   */\n      dup1\n        /* \"#utility.yul\":6522:6528   */\n      0x00\n        /* \"#utility.yul\":6575:6577   */\n      0x60\n        /* \"#utility.yul\":6563:6572   */\n      dup5\n        /* \"#utility.yul\":6554:6561   */\n      dup7\n        /* \"#utility.yul\":6550:6573   */\n      sub\n        /* \"#utility.yul\":6546:6578   */\n      slt\n        /* \"#utility.yul\":6543:6595   */\n      iszero\n      tag_444\n      jumpi\n        /* \"#utility.yul\":6591:6592   */\n      0x00\n        /* \"#utility.yul\":6588:6589   */\n      dup1\n        /* \"#utility.yul\":6581:6593   */\n      revert\n        /* \"#utility.yul\":6543:6595   */\n    tag_444:\n      pop\n      pop\n        /* \"#utility.yul\":6614:6637   */\n      dup2\n      calldataload\n      swap4\n        /* \"#utility.yul\":6684:6686   */\n      0x20\n        /* \"#utility.yul\":6669:6687   */\n      dup4\n      add\n        /* \"#utility.yul\":6656:6688   */\n      calldataload\n      swap4\n      pop\n        /* \"#utility.yul\":6735:6737   */\n      0x40\n        /* \"#utility.yul\":6720:6738   */\n      swap1\n      swap3\n      add\n        /* \"#utility.yul\":6707:6739   */\n      calldataload\n      swap2\n        /* \"#utility.yul\":6429:6745   */\n      swap1\n      pop\n      jump\t// out\n        /* \"#utility.yul\":6750:7208   */\n    tag_45:\n        /* \"#utility.yul\":6837:6843   */\n      0x00\n        /* \"#utility.yul\":6845:6851   */\n      dup1\n        /* \"#utility.yul\":6853:6859   */\n      0x00\n        /* \"#utility.yul\":6906:6908   */\n      0x60\n        /* \"#utility.yul\":6894:6903   */\n      dup5\n        /* \"#utility.yul\":6885:6892   */\n      dup7\n        /* \"#utility.yul\":6881:6904   */\n      sub\n        /* \"#utility.yul\":6877:6909   */\n      slt\n        /* \"#utility.yul\":6874:6926   */\n      iszero\n      tag_446\n      jumpi\n        /* \"#utility.yul\":6922:6923   */\n      0x00\n        /* \"#utility.yul\":6919:6920   */\n      dup1\n        /* \"#utility.yul\":6912:6924   */\n      revert\n        /* \"#utility.yul\":6874:6926   */\n    tag_446:\n        /* \"#utility.yul\":6958:6967   */\n      dup4\n        /* \"#utility.yul\":6945:6968   */\n      calldataload\n        /* \"#utility.yul\":6935:6968   */\n      swap3\n      pop\n        /* \"#utility.yul\":7015:7017   */\n      0x20\n        /* \"#utility.yul\":7004:7013   */\n      dup5\n        /* \"#utility.yul\":7000:7018   */\n      add\n        /* \"#utility.yul\":6987:7019   */\n      calldataload\n        /* \"#utility.yul\":6977:7019   */\n      swap2\n      pop\n        /* \"#utility.yul\":7070:7072   */\n      0x40\n        /* \"#utility.yul\":7059:7068   */\n      dup5\n        /* \"#utility.yul\":7055:7073   */\n      add\n        /* \"#utility.yul\":7042:7074   */\n      calldataload\n        /* \"#utility.yul\":7097:7115   */\n      0xffffffffffffffff\n        /* \"#utility.yul\":7089:7095   */\n      dup2\n        /* \"#utility.yul\":7086:7116   */\n      gt\n        /* \"#utility.yul\":7083:7133   */\n      iszero\n      tag_447\n      jumpi\n        /* \"#utility.yul\":7129:7130   */\n      0x00\n        /* \"#utility.yul\":7126:7127   */\n      dup1\n        /* \"#utility.yul\":7119:7131   */\n      revert\n        /* \"#utility.yul\":7083:7133   */\n    tag_447:\n        /* \"#utility.yul\":7152:7202   */\n      tag_448\n        /* \"#utility.yul\":7194:7201   */\n      dup7\n        /* \"#utility.yul\":7185:7191   */\n      dup3\n        /* \"#utility.yul\":7174:7183   */\n      dup8\n        /* \"#utility.yul\":7170:7192   */\n      add\n        /* \"#utility.yul\":7152:7202   */\n      tag_382\n      jump\t// in\n    tag_448:\n        /* \"#utility.yul\":7142:7202   */\n      swap2\n      pop\n      pop\n        /* \"#utility.yul\":6750:7208   */\n      swap3\n      pop\n      swap3\n      pop\n      swap3\n      jump\t// out\n        /* \"#utility.yul\":7213:7535   */\n    tag_54:\n        /* \"#utility.yul\":7290:7296   */\n      0x00\n        /* \"#utility.yul\":7298:7304   */\n      dup1\n        /* \"#utility.yul\":7306:7312   */\n      0x00\n        /* \"#utility.yul\":7359:7361   */\n      0x60\n        /* \"#utility.yul\":7347:7356   */\n      dup5\n        /* \"#utility.yul\":7338:7345   */\n      dup7\n        /* \"#utility.yul\":7334:7357   */\n      sub\n        /* \"#utility.yul\":7330:7362   */\n      slt\n        /* \"#utility.yul\":7327:7379   */\n      iszero\n      tag_450\n      jumpi\n        /* \"#utility.yul\":7375:7376   */\n      0x00\n        /* \"#utility.yul\":7372:7373   */\n      dup1\n        /* \"#utility.yul\":7365:7377   */\n      revert\n        /* \"#utility.yul\":7327:7379   */\n    tag_450:\n        /* \"#utility.yul\":7411:7420   */\n      dup4\n        /* \"#utility.yul\":7398:7421   */\n      calldataload\n        /* \"#utility.yul\":7388:7421   */\n      swap3\n      pop\n        /* \"#utility.yul\":7468:7470   */\n      0x20\n        /* \"#utility.yul\":7457:7466   */\n      dup5\n        /* \"#utility.yul\":7453:7471   */\n      add\n        /* \"#utility.yul\":7440:7472   */\n      calldataload\n        /* \"#utility.yul\":7430:7472   */\n      swap2\n      pop\n        /* \"#utility.yul\":7491:7529   */\n      tag_451\n        /* \"#utility.yul\":7525:7527   */\n      0x40\n        /* \"#utility.yul\":7514:7523   */\n      dup6\n        /* \"#utility.yul\":7510:7528   */\n      add\n        /* \"#utility.yul\":7491:7529   */\n      tag_381\n      jump\t// in\n    tag_451:\n        /* \"#utility.yul\":7481:7529   */\n      swap1\n      pop\n        /* \"#utility.yul\":7213:7535   */\n      swap3\n      pop\n      swap3\n      pop\n      swap3\n      jump\t// out\n        /* \"#utility.yul\":7748:7996   */\n    tag_77:\n        /* \"#utility.yul\":7816:7822   */\n      0x00\n        /* \"#utility.yul\":7824:7830   */\n      dup1\n        /* \"#utility.yul\":7877:7879   */\n      0x40\n        /* \"#utility.yul\":7865:7874   */\n      dup4\n        /* \"#utility.yul\":7856:7863   */\n      dup6\n        /* \"#utility.yul\":7852:7875   */\n      sub\n        /* \"#utility.yul\":7848:7880   */\n      slt\n        /* \"#utility.yul\":7845:7897   */\n      iszero\n      tag_454\n      jumpi\n        /* \"#utility.yul\":7893:7894   */\n      0x00\n        /* \"#utility.yul\":7890:7891   */\n      dup1\n        /* \"#utility.yul\":7883:7895   */\n      revert\n        /* \"#utility.yul\":7845:7897   */\n    tag_454:\n      pop\n      pop\n        /* \"#utility.yul\":7916:7939   */\n      dup1\n      calldataload\n      swap3\n        /* \"#utility.yul\":7986:7988   */\n      0x20\n        /* \"#utility.yul\":7971:7989   */\n      swap1\n      swap2\n      add\n        /* \"#utility.yul\":7958:7990   */\n      calldataload\n      swap2\n      pop\n        /* \"#utility.yul\":7748:7996   */\n      jump\t// out\n        /* \"#utility.yul\":8183:8369   */\n    tag_107:\n        /* \"#utility.yul\":8242:8248   */\n      0x00\n        /* \"#utility.yul\":8295:8297   */\n      0x20\n        /* \"#utility.yul\":8283:8292   */\n      dup3\n        /* \"#utility.yul\":8274:8281   */\n      dup5\n        /* \"#utility.yul\":8270:8293   */\n      sub\n        /* \"#utility.yul\":8266:8298   */\n      slt\n        /* \"#utility.yul\":8263:8315   */\n      iszero\n      tag_457\n      jumpi\n        /* \"#utility.yul\":8311:8312   */\n      0x00\n        /* \"#utility.yul\":8308:8309   */\n      dup1\n        /* \"#utility.yul\":8301:8313   */\n      revert\n        /* \"#utility.yul\":8263:8315   */\n    tag_457:\n        /* \"#utility.yul\":8334:8363   */\n      tag_458\n        /* \"#utility.yul\":8353:8362   */\n      dup3\n        /* \"#utility.yul\":8334:8363   */\n      tag_381\n      jump\t// in\n    tag_458:\n        /* \"#utility.yul\":8324:8363   */\n      swap4\n        /* \"#utility.yul\":8183:8369   */\n      swap3\n      pop\n      pop\n      pop\n      jump\t// out\n        /* \"#utility.yul\":8374:8554   */\n    tag_111:\n        /* \"#utility.yul\":8433:8439   */\n      0x00\n        /* \"#utility.yul\":8486:8488   */\n      0x20\n        /* \"#utility.yul\":8474:8483   */\n      dup3\n        /* \"#utility.yul\":8465:8472   */\n      dup5\n        /* \"#utility.yul\":8461:8484   */\n      sub\n        /* \"#utility.yul\":8457:8489   */\n      slt\n        /* \"#utility.yul\":8454:8506   */\n      iszero\n      tag_460\n      jumpi\n        /* \"#utility.yul\":8502:8503   */\n      0x00\n        /* \"#utility.yul\":8499:8500   */\n      dup1\n        /* \"#utility.yul\":8492:8504   */\n      revert\n        /* \"#utility.yul\":8454:8506   */\n    tag_460:\n      pop\n        /* \"#utility.yul\":8525:8548   */\n      calldataload\n      swap2\n        /* \"#utility.yul\":8374:8554   */\n      swap1\n      pop\n      jump\t// out\n        /* \"#utility.yul\":8559:8962   */\n    tag_117:\n        /* \"#utility.yul\":8761:8763   */\n      0x20\n        /* \"#utility.yul\":8743:8764   */\n      dup1\n      dup3\n      mstore\n        /* \"#utility.yul\":8800:8802   */\n      0x27\n        /* \"#utility.yul\":8780:8798   */\n      swap1\n      dup3\n      add\n        /* \"#utility.yul\":8773:8803   */\n      mstore\n        /* \"#utility.yul\":8839:8873   */\n      0x4461746162617365204c697374427573696e6573733a20536563726574206b65\n        /* \"#utility.yul\":8834:8836   */\n      0x40\n        /* \"#utility.yul\":8819:8837   */\n      dup3\n      add\n        /* \"#utility.yul\":8812:8874   */\n      mstore\n      shl(0xc9, 0x3c9032b93937b9)\n        /* \"#utility.yul\":8905:8907   */\n      0x60\n        /* \"#utility.yul\":8890:8908   */\n      dup3\n      add\n        /* \"#utility.yul\":8883:8920   */\n      mstore\n        /* \"#utility.yul\":8952:8955   */\n      0x80\n        /* \"#utility.yul\":8937:8956   */\n      add\n      swap1\n        /* \"#utility.yul\":8559:8962   */\n      jump\t// out\n        /* \"#utility.yul\":8967:9199   */\n    tag_120:\n        /* \"#utility.yul\":9006:9009   */\n      0x00\n        /* \"#utility.yul\":9027:9044   */\n      0x01\n      dup3\n      add\n        /* \"#utility.yul\":9024:9164   */\n      tag_463\n      jumpi\n        /* \"#utility.yul\":9086:9096   */\n      0x4e487b71\n        /* \"#utility.yul\":9081:9084   */\n      0xe0\n        /* \"#utility.yul\":9077:9097   */\n      shl\n        /* \"#utility.yul\":9074:9075   */\n      0x00\n        /* \"#utility.yul\":9067:9098   */\n      mstore\n        /* \"#utility.yul\":9121:9125   */\n      0x11\n        /* \"#utility.yul\":9118:9119   */\n      0x04\n        /* \"#utility.yul\":9111:9126   */\n      mstore\n        /* \"#utility.yul\":9149:9153   */\n      0x24\n        /* \"#utility.yul\":9146:9147   */\n      0x00\n        /* \"#utility.yul\":9139:9154   */\n      revert\n        /* \"#utility.yul\":9024:9164   */\n    tag_463:\n      pop\n        /* \"#utility.yul\":9191:9192   */\n      0x01\n        /* \"#utility.yul\":9180:9193   */\n      add\n      swap1\n        /* \"#utility.yul\":8967:9199   */\n      jump\t// out\n        /* \"#utility.yul\":9204:9584   */\n    tag_142:\n        /* \"#utility.yul\":9283:9284   */\n      0x01\n        /* \"#utility.yul\":9279:9291   */\n      dup2\n      dup2\n      shr\n      swap1\n        /* \"#utility.yul\":9326:9338   */\n      dup3\n      and\n      dup1\n        /* \"#utility.yul\":9347:9408   */\n      tag_465\n      jumpi\n        /* \"#utility.yul\":9401:9405   */\n      0x7f\n        /* \"#utility.yul\":9393:9399   */\n      dup3\n        /* \"#utility.yul\":9389:9406   */\n      and\n        /* \"#utility.yul\":9379:9406   */\n      swap2\n      pop\n        /* \"#utility.yul\":9347:9408   */\n    tag_465:\n        /* \"#utility.yul\":9454:9456   */\n      0x20\n        /* \"#utility.yul\":9446:9452   */\n      dup3\n        /* \"#utility.yul\":9443:9457   */\n      lt\n        /* \"#utility.yul\":9423:9441   */\n      dup2\n        /* \"#utility.yul\":9420:9458   */\n      sub\n        /* \"#utility.yul\":9417:9578   */\n      tag_372\n      jumpi\n        /* \"#utility.yul\":9500:9510   */\n      0x4e487b71\n        /* \"#utility.yul\":9495:9498   */\n      0xe0\n        /* \"#utility.yul\":9491:9511   */\n      shl\n        /* \"#utility.yul\":9488:9489   */\n      0x00\n        /* \"#utility.yul\":9481:9512   */\n      mstore\n        /* \"#utility.yul\":9535:9539   */\n      0x22\n        /* \"#utility.yul\":9532:9533   */\n      0x04\n        /* \"#utility.yul\":9525:9540   */\n      mstore\n        /* \"#utility.yul\":9563:9567   */\n      0x24\n        /* \"#utility.yul\":9560:9561   */\n      0x00\n        /* \"#utility.yul\":9553:9568   */\n      revert\n        /* \"#utility.yul\":9715:10260   */\n    tag_386:\n        /* \"#utility.yul\":9817:9819   */\n      0x1f\n        /* \"#utility.yul\":9812:9815   */\n      dup3\n        /* \"#utility.yul\":9809:9820   */\n      gt\n        /* \"#utility.yul\":9806:10254   */\n      iszero\n      tag_469\n      jumpi\n        /* \"#utility.yul\":9853:9854   */\n      0x00\n        /* \"#utility.yul\":9878:9883   */\n      dup2\n        /* \"#utility.yul\":9874:9876   */\n      dup2\n        /* \"#utility.yul\":9867:9884   */\n      mstore\n        /* \"#utility.yul\":9923:9927   */\n      0x20\n        /* \"#utility.yul\":9919:9921   */\n      dup2\n        /* \"#utility.yul\":9909:9928   */\n      keccak256\n        /* \"#utility.yul\":9993:9995   */\n      0x1f\n        /* \"#utility.yul\":9981:9991   */\n      dup6\n        /* \"#utility.yul\":9977:9996   */\n      add\n        /* \"#utility.yul\":9974:9975   */\n      0x05\n        /* \"#utility.yul\":9970:9997   */\n      shr\n        /* \"#utility.yul\":9964:9968   */\n      dup2\n        /* \"#utility.yul\":9960:9998   */\n      add\n        /* \"#utility.yul\":10029:10033   */\n      0x20\n        /* \"#utility.yul\":10017:10027   */\n      dup7\n        /* \"#utility.yul\":10014:10034   */\n      lt\n        /* \"#utility.yul\":10011:10058   */\n      iszero\n      tag_470\n      jumpi\n      pop\n        /* \"#utility.yul\":10052:10056   */\n      dup1\n        /* \"#utility.yul\":10011:10058   */\n    tag_470:\n        /* \"#utility.yul\":10107:10109   */\n      0x1f\n        /* \"#utility.yul\":10102:10105   */\n      dup6\n        /* \"#utility.yul\":10098:10110   */\n      add\n        /* \"#utility.yul\":10095:10096   */\n      0x05\n        /* \"#utility.yul\":10091:10111   */\n      shr\n        /* \"#utility.yul\":10085:10089   */\n      dup3\n        /* \"#utility.yul\":10081:10112   */\n      add\n        /* \"#utility.yul\":10071:10112   */\n      swap2\n      pop\n        /* \"#utility.yul\":10162:10244   */\n    tag_471:\n        /* \"#utility.yul\":10180:10182   */\n      dup2\n        /* \"#utility.yul\":10173:10178   */\n      dup2\n        /* \"#utility.yul\":10170:10183   */\n      lt\n        /* \"#utility.yul\":10162:10244   */\n      iszero\n      tag_473\n      jumpi\n        /* \"#utility.yul\":10225:10242   */\n      dup3\n      dup2\n      sstore\n        /* \"#utility.yul\":10206:10207   */\n      0x01\n        /* \"#utility.yul\":10195:10208   */\n      add\n        /* \"#utility.yul\":10162:10244   */\n      jump(tag_471)\n    tag_473:\n        /* \"#utility.yul\":10166:10169   */\n      pop\n      pop\n      pop\n        /* \"#utility.yul\":9806:10254   */\n    tag_469:\n        /* \"#utility.yul\":9715:10260   */\n      pop\n      pop\n      pop\n      jump\t// out\n        /* \"#utility.yul\":10436:11788   */\n    tag_122:\n        /* \"#utility.yul\":10562:10565   */\n      dup2\n        /* \"#utility.yul\":10556:10566   */\n      mload\n        /* \"#utility.yul\":10589:10607   */\n      0xffffffffffffffff\n        /* \"#utility.yul\":10581:10587   */\n      dup2\n        /* \"#utility.yul\":10578:10608   */\n      gt\n        /* \"#utility.yul\":10575:10631   */\n      iszero\n      tag_477\n      jumpi\n        /* \"#utility.yul\":10611:10629   */\n      tag_477\n      tag_379\n      jump\t// in\n    tag_477:\n        /* \"#utility.yul\":10640:10737   */\n      tag_478\n        /* \"#utility.yul\":10730:10736   */\n      dup2\n        /* \"#utility.yul\":10690:10728   */\n      tag_479\n        /* \"#utility.yul\":10722:10726   */\n      dup5\n        /* \"#utility.yul\":10716:10727   */\n      sload\n        /* \"#utility.yul\":10690:10728   */\n      tag_142\n      jump\t// in\n    tag_479:\n        /* \"#utility.yul\":10684:10688   */\n      dup5\n        /* \"#utility.yul\":10640:10737   */\n      tag_386\n      jump\t// in\n    tag_478:\n        /* \"#utility.yul\":10792:10796   */\n      0x20\n      dup1\n        /* \"#utility.yul\":10856:10858   */\n      0x1f\n        /* \"#utility.yul\":10845:10859   */\n      dup4\n      gt\n        /* \"#utility.yul\":10873:10874   */\n      0x01\n        /* \"#utility.yul\":10868:11531   */\n      dup2\n      eq\n      tag_481\n      jumpi\n        /* \"#utility.yul\":11575:11576   */\n      0x00\n        /* \"#utility.yul\":11592:11598   */\n      dup5\n        /* \"#utility.yul\":11589:11678   */\n      iszero\n      tag_482\n      jumpi\n      pop\n        /* \"#utility.yul\":11644:11663   */\n      dup6\n      dup4\n      add\n        /* \"#utility.yul\":11638:11664   */\n      mload\n        /* \"#utility.yul\":11589:11678   */\n    tag_482:\n      not(0x00)\n        /* \"#utility.yul\":10393:10394   */\n      0x03\n        /* \"#utility.yul\":10389:10400   */\n      dup7\n      swap1\n      shl\n        /* \"#utility.yul\":10385:10409   */\n      shr\n        /* \"#utility.yul\":10381:10410   */\n      not\n        /* \"#utility.yul\":10371:10411   */\n      and\n        /* \"#utility.yul\":10417:10418   */\n      0x01\n        /* \"#utility.yul\":10413:10424   */\n      dup6\n      swap1\n      shl\n        /* \"#utility.yul\":10368:10425   */\n      or\n        /* \"#utility.yul\":11691:11772   */\n      dup6\n      sstore\n        /* \"#utility.yul\":10838:11782   */\n      jump(tag_473)\n        /* \"#utility.yul\":10868:11531   */\n    tag_481:\n        /* \"#utility.yul\":9662:9663   */\n      0x00\n        /* \"#utility.yul\":9655:9669   */\n      dup6\n      dup2\n      mstore\n        /* \"#utility.yul\":9699:9703   */\n      0x20\n        /* \"#utility.yul\":9686:9704   */\n      dup2\n      keccak256\n      not(0x1f)\n        /* \"#utility.yul\":10904:10924   */\n      dup7\n      and\n      swap2\n        /* \"#utility.yul\":11022:11258   */\n    tag_485:\n        /* \"#utility.yul\":11036:11043   */\n      dup3\n        /* \"#utility.yul\":11033:11034   */\n      dup2\n        /* \"#utility.yul\":11030:11044   */\n      lt\n        /* \"#utility.yul\":11022:11258   */\n      iszero\n      tag_487\n      jumpi\n        /* \"#utility.yul\":11125:11144   */\n      dup9\n      dup7\n      add\n        /* \"#utility.yul\":11119:11145   */\n      mload\n        /* \"#utility.yul\":11104:11146   */\n      dup3\n      sstore\n        /* \"#utility.yul\":11217:11244   */\n      swap5\n      dup5\n      add\n      swap5\n        /* \"#utility.yul\":11185:11186   */\n      0x01\n        /* \"#utility.yul\":11173:11187   */\n      swap1\n      swap2\n      add\n      swap1\n        /* \"#utility.yul\":11052:11071   */\n      dup5\n      add\n        /* \"#utility.yul\":11022:11258   */\n      jump(tag_485)\n    tag_487:\n        /* \"#utility.yul\":11026:11029   */\n      pop\n        /* \"#utility.yul\":11286:11292   */\n      dup6\n        /* \"#utility.yul\":11277:11284   */\n      dup3\n        /* \"#utility.yul\":11274:11293   */\n      lt\n        /* \"#utility.yul\":11271:11472   */\n      iszero\n      tag_488\n      jumpi\n        /* \"#utility.yul\":11347:11366   */\n      dup8\n      dup6\n      add\n        /* \"#utility.yul\":11341:11367   */\n      mload\n      not(0x00)\n        /* \"#utility.yul\":11430:11431   */\n      0x03\n        /* \"#utility.yul\":11426:11440   */\n      dup9\n      swap1\n      shl\n        /* \"#utility.yul\":11442:11445   */\n      0xf8\n        /* \"#utility.yul\":11422:11446   */\n      and\n        /* \"#utility.yul\":11418:11455   */\n      shr\n        /* \"#utility.yul\":11414:11456   */\n      not\n        /* \"#utility.yul\":11399:11457   */\n      and\n        /* \"#utility.yul\":11384:11458   */\n      dup2\n      sstore\n        /* \"#utility.yul\":11271:11472   */\n    tag_488:\n      pop\n      pop\n      pop\n      pop\n      pop\n        /* \"#utility.yul\":11518:11519   */\n      0x01\n        /* \"#utility.yul\":11502:11516   */\n      swap1\n      dup2\n      shl\n        /* \"#utility.yul\":11498:11520   */\n      add\n        /* \"#utility.yul\":11485:11521   */\n      swap1\n      sstore\n      pop\n        /* \"#utility.yul\":10436:11788   */\n      jump\t// out\n        /* \"#utility.yul\":12200:12600   */\n    tag_192:\n        /* \"#utility.yul\":12402:12404   */\n      0x20\n        /* \"#utility.yul\":12384:12405   */\n      dup1\n      dup3\n      mstore\n        /* \"#utility.yul\":12441:12443   */\n      0x24\n        /* \"#utility.yul\":12421:12439   */\n      swap1\n      dup3\n      add\n        /* \"#utility.yul\":12414:12444   */\n      mstore\n        /* \"#utility.yul\":12480:12514   */\n      0x4461746162617365204c697374427573696e6573733a20496e76616c69642069\n        /* \"#utility.yul\":12475:12477   */\n      0x40\n        /* \"#utility.yul\":12460:12478   */\n      dup3\n      add\n        /* \"#utility.yul\":12453:12515   */\n      mstore\n      shl(0xe3, 0x0dcc8caf)\n        /* \"#utility.yul\":12546:12548   */\n      0x60\n        /* \"#utility.yul\":12531:12549   */\n      dup3\n      add\n        /* \"#utility.yul\":12524:12558   */\n      mstore\n        /* \"#utility.yul\":12590:12593   */\n      0x80\n        /* \"#utility.yul\":12575:12594   */\n      add\n      swap1\n        /* \"#utility.yul\":12200:12600   */\n      jump\t// out\n    stop\n    data_98ee57057fe0a523e70b51608fd55a37ff53d47c3b8dac495a5f45d45157392f 8e1604a838d0f1a9b2cda14a099e4ceb08e966cc6e05e8296f67b02d61a79f09\n\n    auxdata: 0xa2646970667358221220007a4e5c31322a7abcc113545c7ad9e59d00a38bf8b97b133fc5f40b53e1451964736f6c63430008100033\n}\n",
				"bytecode": {
					"linkReferences": {},
					"object": "6080604052600060025534801561001557600080fd5b50600080546001600160a01b031916331790556120b6806100376000396000f3fe608060405234801561001057600080fd5b506004361061012c5760003560e01c80638da5cb5b116100ad578063d45c8abf11610071578063d45c8abf1461027d578063d49cb14614610290578063e3f34371146102a3578063f2fde38b146102b6578063fd82e9dd146102c957600080fd5b80638da5cb5b14610208578063b615c00a14610223578063c78a674114610236578063d2af71a614610249578063d32a04c71461025c57600080fd5b80632e22eafe116100f45780632e22eafe146101b2578063413896e4146101c5578063800f2234146101d857806383197ef0146101eb5780638827b05f146101f557600080fd5b806304a28c0714610131578063236df93c14610159578063294b4b6b1461017957806329cd63111461018c5780632c3ce9191461019f575b600080fd5b61014461013f366004611a25565b6102dc565b60405190151581526020015b60405180910390f35b61016c610167366004611bc4565b61046d565b6040516101509190611c34565b610144610187366004611d5d565b610a1c565b61014461019a366004611d89565b610a95565b6101446101ad366004611d89565b610b1d565b6101446101c0366004611dd9565b610b98565b6101446101d3366004611d89565b610c31565b6101446101e6366004611d89565b610cac565b6101f3610d27565b005b610144610203366004611d5d565b610d32565b6000546040516001600160a01b039091168152602001610150565b610144610231366004611e0e565b610dad565b61016c610244366004611e0e565b610f9f565b610144610257366004611d89565b6114e6565b61026f61026a366004611bc4565b611561565b604051908152602001610150565b61014461028b366004611d89565b6115f8565b61014461029e366004611d89565b611673565b6101446102b1366004611d89565b6116ee565b6101f36102c4366004611e30565b611769565b61026f6102d7366004611e52565b6117e2565b60008160008051602061206183398151915281146103155760405162461bcd60e51b815260040161030c90611e6b565b60405180910390fd5b6002805490600061032583611eb2565b90915550506002805460208681018281526000928352600191829052604092839020885181559051918101919091559086015191810180546001600160a01b0319166001600160a01b0390931692909217909155606085015185919060038201906103909082611f5c565b50608082015160048201906103a59082611f5c565b5060a082015160058201906103ba9082611f5c565b5060c082015160068201906103cf9082611f5c565b5060e082015160078201906103e49082611f5c565b5061010082015160088201906103fa9082611f5c565b5061012082015160098201906104109082611f5c565b50610140820151600a8201906104269082611f5c565b509050507ff1c85255584806819bcf2d77a175d3ec22e4d0e596c27fcddc47379dededb756846040516104599190611c34565b60405180910390a1600191505b5092915050565b6104756118d9565b8160008051602061206183398151915281146104a35760405162461bcd60e51b815260040161030c90611e6b565b60015b60025481116109c4576000818152600160205260409020600201546001600160a01b038087169116036109b25760008181526001602081815260409283902083516101608101855281548152928101549183019190915260028101546001600160a01b03169282019290925260038201805491929160608401919061052a90611ed9565b80601f016020809104026020016040519081016040528092919081815260200182805461055690611ed9565b80156105a35780601f10610578576101008083540402835291602001916105a3565b820191906000526020600020905b81548152906001019060200180831161058657829003601f168201915b505050505081526020016004820180546105bc90611ed9565b80601f01602080910402602001604051908101604052809291908181526020018280546105e890611ed9565b80156106355780601f1061060a57610100808354040283529160200191610635565b820191906000526020600020905b81548152906001019060200180831161061857829003601f168201915b5050505050815260200160058201805461064e90611ed9565b80601f016020809104026020016040519081016040528092919081815260200182805461067a90611ed9565b80156106c75780601f1061069c576101008083540402835291602001916106c7565b820191906000526020600020905b8154815290600101906020018083116106aa57829003601f168201915b505050505081526020016006820180546106e090611ed9565b80601f016020809104026020016040519081016040528092919081815260200182805461070c90611ed9565b80156107595780601f1061072e57610100808354040283529160200191610759565b820191906000526020600020905b81548152906001019060200180831161073c57829003601f168201915b5050505050815260200160078201805461077290611ed9565b80601f016020809104026020016040519081016040528092919081815260200182805461079e90611ed9565b80156107eb5780601f106107c0576101008083540402835291602001916107eb565b820191906000526020600020905b8154815290600101906020018083116107ce57829003601f168201915b5050505050815260200160088201805461080490611ed9565b80601f016020809104026020016040519081016040528092919081815260200182805461083090611ed9565b801561087d5780601f106108525761010080835404028352916020019161087d565b820191906000526020600020905b81548152906001019060200180831161086057829003601f168201915b5050505050815260200160098201805461089690611ed9565b80601f01602080910402602001604051908101604052809291908181526020018280546108c290611ed9565b801561090f5780601f106108e45761010080835404028352916020019161090f565b820191906000526020600020905b8154815290600101906020018083116108f257829003601f168201915b50505050508152602001600a8201805461092890611ed9565b80601f016020809104026020016040519081016040528092919081815260200182805461095490611ed9565b80156109a15780601f10610976576101008083540402835291602001916109a1565b820191906000526020600020905b81548152906001019060200180831161098457829003601f168201915b505050505081525050925050610466565b806109bc81611eb2565b9150506104a6565b5060405162461bcd60e51b815260206004820152602660248201527f4461746162617365204c697374427573696e6573733a20496e76616c6964206160448201526564647265737360d01b606482015260840161030c565b6000826000805160206120618339815191528114610a4c5760405162461bcd60e51b815260040161030c90611e6b565b8480600111158015610a6057506002548111155b610a7c5760405162461bcd60e51b815260040161030c9061201c565b5050506000928352600160208190526040909320555090565b6000826000805160206120618339815191528114610ac55760405162461bcd60e51b815260040161030c90611e6b565b8480600111158015610ad957506002548111155b610af55760405162461bcd60e51b815260040161030c9061201c565b6000868152600160205260409020600601610b108582611f5c565b5060019695505050505050565b6000826000805160206120618339815191528114610b4d5760405162461bcd60e51b815260040161030c90611e6b565b8480600111158015610b6157506002548111155b610b7d5760405162461bcd60e51b815260040161030c9061201c565b6000868152600160205260409020600a01610b108582611f5c565b6000826000805160206120618339815191528114610bc85760405162461bcd60e51b815260040161030c90611e6b565b8480600111158015610bdc57506002548111155b610bf85760405162461bcd60e51b815260040161030c9061201c565b505050600092835260016020819052604090932060020180546001600160a01b0319166001600160a01b03929092169190911790555090565b6000826000805160206120618339815191528114610c615760405162461bcd60e51b815260040161030c90611e6b565b8480600111158015610c7557506002548111155b610c915760405162461bcd60e51b815260040161030c9061201c565b6000868152600160205260409020600301610b108582611f5c565b6000826000805160206120618339815191528114610cdc5760405162461bcd60e51b815260040161030c90611e6b565b8480600111158015610cf057506002548111155b610d0c5760405162461bcd60e51b815260040161030c9061201c565b6000868152600160205260409020600901610b108582611f5c565b610d2f61181e565b30ff5b6000826000805160206120618339815191528114610d625760405162461bcd60e51b815260040161030c90611e6b565b8480600111158015610d7657506002548111155b610d925760405162461bcd60e51b815260040161030c9061201c565b50505060009283526001602081905260409093208301555090565b6000816000805160206120618339815191528114610ddd5760405162461bcd60e51b815260040161030c90611e6b565b8380600111158015610df157506002548111155b610e0d5760405162461bcd60e51b815260040161030c9061201c565b60408051610160810182526000808252602080830182815283850183815285518084018752848152606086019081528651808501885285815260808701528651808501885285815260a08701528651808501885285815260c08701528651808501885285815260e08701528651808501885285815261010087015286518085018852858152610120870152865180850188528581526101408701528b8552600193849052959093208451815590519181019190915590516002820180546001600160a01b0319166001600160a01b039092169190911790559151909182916003820190610efa9082611f5c565b5060808201516004820190610f0f9082611f5c565b5060a08201516005820190610f249082611f5c565b5060c08201516006820190610f399082611f5c565b5060e08201516007820190610f4e9082611f5c565b506101008201516008820190610f649082611f5c565b506101208201516009820190610f7a9082611f5c565b50610140820151600a820190610f909082611f5c565b50600198975050505050505050565b610fa76118d9565b816000805160206120618339815191528114610fd55760405162461bcd60e51b815260040161030c90611e6b565b8380600111158015610fe957506002548111155b6110055760405162461bcd60e51b815260040161030c9061201c565b60008581526001602081815260409283902083516101608101855281548152928101549183019190915260028101546001600160a01b03169282019290925260038201805491929160608401919061105c90611ed9565b80601f016020809104026020016040519081016040528092919081815260200182805461108890611ed9565b80156110d55780601f106110aa576101008083540402835291602001916110d5565b820191906000526020600020905b8154815290600101906020018083116110b857829003601f168201915b505050505081526020016004820180546110ee90611ed9565b80601f016020809104026020016040519081016040528092919081815260200182805461111a90611ed9565b80156111675780601f1061113c57610100808354040283529160200191611167565b820191906000526020600020905b81548152906001019060200180831161114a57829003601f168201915b5050505050815260200160058201805461118090611ed9565b80601f01602080910402602001604051908101604052809291908181526020018280546111ac90611ed9565b80156111f95780601f106111ce576101008083540402835291602001916111f9565b820191906000526020600020905b8154815290600101906020018083116111dc57829003601f168201915b5050505050815260200160068201805461121290611ed9565b80601f016020809104026020016040519081016040528092919081815260200182805461123e90611ed9565b801561128b5780601f106112605761010080835404028352916020019161128b565b820191906000526020600020905b81548152906001019060200180831161126e57829003601f168201915b505050505081526020016007820180546112a490611ed9565b80601f01602080910402602001604051908101604052809291908181526020018280546112d090611ed9565b801561131d5780601f106112f25761010080835404028352916020019161131d565b820191906000526020600020905b81548152906001019060200180831161130057829003601f168201915b5050505050815260200160088201805461133690611ed9565b80601f016020809104026020016040519081016040528092919081815260200182805461136290611ed9565b80156113af5780601f10611384576101008083540402835291602001916113af565b820191906000526020600020905b81548152906001019060200180831161139257829003601f168201915b505050505081526020016009820180546113c890611ed9565b80601f01602080910402602001604051908101604052809291908181526020018280546113f490611ed9565b80156114415780601f1061141657610100808354040283529160200191611441565b820191906000526020600020905b81548152906001019060200180831161142457829003601f168201915b50505050508152602001600a8201805461145a90611ed9565b80601f016020809104026020016040519081016040528092919081815260200182805461148690611ed9565b80156114d35780601f106114a8576101008083540402835291602001916114d3565b820191906000526020600020905b8154815290600101906020018083116114b657829003601f168201915b5050505050815250509250505092915050565b60008260008051602061206183398151915281146115165760405162461bcd60e51b815260040161030c90611e6b565b848060011115801561152a57506002548111155b6115465760405162461bcd60e51b815260040161030c9061201c565b6000868152600160205260409020600701610b108582611f5c565b60008160008051602061206183398151915281146115915760405162461bcd60e51b815260040161030c90611e6b565b60015b60025481116115ed576000818152600160205260409020600201546001600160a01b038087169116036115db57600090815260016020819052604090912001549150610466565b806115e581611eb2565b915050611594565b506000949350505050565b60008260008051602061206183398151915281146116285760405162461bcd60e51b815260040161030c90611e6b565b848060011115801561163c57506002548111155b6116585760405162461bcd60e51b815260040161030c9061201c565b6000868152600160205260409020600801610b108582611f5c565b60008260008051602061206183398151915281146116a35760405162461bcd60e51b815260040161030c90611e6b565b84806001111580156116b757506002548111155b6116d35760405162461bcd60e51b815260040161030c9061201c565b6000868152600160205260409020600401610b108582611f5c565b600082600080516020612061833981519152811461171e5760405162461bcd60e51b815260040161030c90611e6b565b848060011115801561173257506002548111155b61174e5760405162461bcd60e51b815260040161030c9061201c565b6000868152600160205260409020600501610b108582611f5c565b61177161181e565b6001600160a01b0381166117d65760405162461bcd60e51b815260206004820152602660248201527f4f776e61626c653a206e6577206f776e657220697320746865207a65726f206160448201526564647265737360d01b606482015260840161030c565b6117df81611889565b50565b60008160008051602061206183398151915281146118125760405162461bcd60e51b815260040161030c90611e6b565b60025491505b50919050565b336118316000546001600160a01b031690565b6001600160a01b0316146118875760405162461bcd60e51b815260206004820181905260248201527f4f776e61626c653a2063616c6c6572206973206e6f7420746865206f776e6572604482015260640161030c565b565b600080546001600160a01b038381166001600160a01b0319831681178455604051919092169283917f8be0079c531659141344cd1fd0a4f28419497f9722a3daafe3b4186f6b6457e09190a35050565b604051806101600160405280600081526020016000815260200160006001600160a01b0316815260200160608152602001606081526020016060815260200160608152602001606081526020016060815260200160608152602001606081525090565b634e487b7160e01b600052604160045260246000fd5b604051610160810167ffffffffffffffff811182821017156119765761197661193c565b60405290565b80356001600160a01b038116811461199357600080fd5b919050565b600082601f8301126119a957600080fd5b813567ffffffffffffffff808211156119c4576119c461193c565b604051601f8301601f19908116603f011681019082821181831017156119ec576119ec61193c565b81604052838152866020858801011115611a0557600080fd5b836020870160208301376000602085830101528094505050505092915050565b60008060408385031215611a3857600080fd5b823567ffffffffffffffff80821115611a5057600080fd5b908401906101608287031215611a6557600080fd5b611a6d611952565b8235815260208301356020820152611a876040840161197c565b6040820152606083013582811115611a9e57600080fd5b611aaa88828601611998565b606083015250608083013582811115611ac257600080fd5b611ace88828601611998565b60808301525060a083013582811115611ae657600080fd5b611af288828601611998565b60a08301525060c083013582811115611b0a57600080fd5b611b1688828601611998565b60c08301525060e083013582811115611b2e57600080fd5b611b3a88828601611998565b60e0830152506101008084013583811115611b5457600080fd5b611b6089828701611998565b8284015250506101208084013583811115611b7a57600080fd5b611b8689828701611998565b8284015250506101408084013583811115611ba057600080fd5b611bac89828701611998565b91830191909152509660209590950135955050505050565b60008060408385031215611bd757600080fd5b611be08361197c565b946020939093013593505050565b6000815180845260005b81811015611c1457602081850181015186830182015201611bf8565b506000602082860101526020601f19601f83011685010191505092915050565b60208152815160208201526020820151604082015260006040830151611c6560608401826001600160a01b03169052565b506060830151610160806080850152611c82610180850183611bee565b91506080850151601f19808685030160a0870152611ca08483611bee565b935060a08701519150808685030160c0870152611cbd8483611bee565b935060c08701519150808685030160e0870152611cda8483611bee565b935060e08701519150610100818786030181880152611cf98584611bee565b945080880151925050610120818786030181880152611d188584611bee565b945080880151925050610140818786030181880152611d378584611bee565b908801518782039092018488015293509050611d538382611bee565b9695505050505050565b600080600060608486031215611d7257600080fd5b505081359360208301359350604090920135919050565b600080600060608486031215611d9e57600080fd5b8335925060208401359150604084013567ffffffffffffffff811115611dc357600080fd5b611dcf86828701611998565b9150509250925092565b600080600060608486031215611dee57600080fd5b8335925060208401359150611e056040850161197c565b90509250925092565b60008060408385031215611e2157600080fd5b50508035926020909101359150565b600060208284031215611e4257600080fd5b611e4b8261197c565b9392505050565b600060208284031215611e6457600080fd5b5035919050565b60208082526027908201527f4461746162617365204c697374427573696e6573733a20536563726574206b656040820152663c9032b93937b960c91b606082015260800190565b600060018201611ed257634e487b7160e01b600052601160045260246000fd5b5060010190565b600181811c90821680611eed57607f821691505b60208210810361181857634e487b7160e01b600052602260045260246000fd5b601f821115611f5757600081815260208120601f850160051c81016020861015611f345750805b601f850160051c820191505b81811015611f5357828155600101611f40565b5050505b505050565b815167ffffffffffffffff811115611f7657611f7661193c565b611f8a81611f848454611ed9565b84611f0d565b602080601f831160018114611fbf5760008415611fa75750858301515b600019600386901b1c1916600185901b178555611f53565b600085815260208120601f198616915b82811015611fee57888601518255948401946001909101908401611fcf565b508582101561200c5787850151600019600388901b60f8161c191681555b5050505050600190811b01905550565b60208082526024908201527f4461746162617365204c697374427573696e6573733a20496e76616c696420696040820152630dcc8caf60e31b60608201526080019056fe8e1604a838d0f1a9b2cda14a099e4ceb08e966cc6e05e8296f67b02d61a79f09a2646970667358221220007a4e5c31322a7abcc113545c7ad9e59d00a38bf8b97b133fc5f40b53e1451964736f6c63430008100033",
					"opcodes": "PUSH1 0x80 PUSH1 0x40 MSTORE PUSH1 0x0 PUSH1 0x2 SSTORE CALLVALUE DUP1 ISZERO PUSH2 0x15 JUMPI PUSH1 0x0 DUP1 REVERT JUMPDEST POP PUSH1 0x0 DUP1 SLOAD PUSH1 0x1 PUSH1 0x1 PUSH1 0xA0 SHL SUB NOT AND CALLER OR SWAP1 SSTORE PUSH2 0x20B6 DUP1 PUSH2 0x37 PUSH1 0x0 CODECOPY PUSH1 0x0 RETURN INVALID PUSH1 0x80 PUSH1 0x40 MSTORE CALLVALUE DUP1 ISZERO PUSH2 0x10 JUMPI PUSH1 0x0 DUP1 REVERT JUMPDEST POP PUSH1 0x4 CALLDATASIZE LT PUSH2 0x12C JUMPI PUSH1 0x0 CALLDATALOAD PUSH1 0xE0 SHR DUP1 PUSH4 0x8DA5CB5B GT PUSH2 0xAD JUMPI DUP1 PUSH4 0xD45C8ABF GT PUSH2 0x71 JUMPI DUP1 PUSH4 0xD45C8ABF EQ PUSH2 0x27D JUMPI DUP1 PUSH4 0xD49CB146 EQ PUSH2 0x290 JUMPI DUP1 PUSH4 0xE3F34371 EQ PUSH2 0x2A3 JUMPI DUP1 PUSH4 0xF2FDE38B EQ PUSH2 0x2B6 JUMPI DUP1 PUSH4 0xFD82E9DD EQ PUSH2 0x2C9 JUMPI PUSH1 0x0 DUP1 REVERT JUMPDEST DUP1 PUSH4 0x8DA5CB5B EQ PUSH2 0x208 JUMPI DUP1 PUSH4 0xB615C00A EQ PUSH2 0x223 JUMPI DUP1 PUSH4 0xC78A6741 EQ PUSH2 0x236 JUMPI DUP1 PUSH4 0xD2AF71A6 EQ PUSH2 0x249 JUMPI DUP1 PUSH4 0xD32A04C7 EQ PUSH2 0x25C JUMPI PUSH1 0x0 DUP1 REVERT JUMPDEST DUP1 PUSH4 0x2E22EAFE GT PUSH2 0xF4 JUMPI DUP1 PUSH4 0x2E22EAFE EQ PUSH2 0x1B2 JUMPI DUP1 PUSH4 0x413896E4 EQ PUSH2 0x1C5 JUMPI DUP1 PUSH4 0x800F2234 EQ PUSH2 0x1D8 JUMPI DUP1 PUSH4 0x83197EF0 EQ PUSH2 0x1EB JUMPI DUP1 PUSH4 0x8827B05F EQ PUSH2 0x1F5 JUMPI PUSH1 0x0 DUP1 REVERT JUMPDEST DUP1 PUSH4 0x4A28C07 EQ PUSH2 0x131 JUMPI DUP1 PUSH4 0x236DF93C EQ PUSH2 0x159 JUMPI DUP1 PUSH4 0x294B4B6B EQ PUSH2 0x179 JUMPI DUP1 PUSH4 0x29CD6311 EQ PUSH2 0x18C JUMPI DUP1 PUSH4 0x2C3CE919 EQ PUSH2 0x19F JUMPI JUMPDEST PUSH1 0x0 DUP1 REVERT JUMPDEST PUSH2 0x144 PUSH2 0x13F CALLDATASIZE PUSH1 0x4 PUSH2 0x1A25 JUMP JUMPDEST PUSH2 0x2DC JUMP JUMPDEST PUSH1 0x40 MLOAD SWAP1 ISZERO ISZERO DUP2 MSTORE PUSH1 0x20 ADD JUMPDEST PUSH1 0x40 MLOAD DUP1 SWAP2 SUB SWAP1 RETURN JUMPDEST PUSH2 0x16C PUSH2 0x167 CALLDATASIZE PUSH1 0x4 PUSH2 0x1BC4 JUMP JUMPDEST PUSH2 0x46D JUMP JUMPDEST PUSH1 0x40 MLOAD PUSH2 0x150 SWAP2 SWAP1 PUSH2 0x1C34 JUMP JUMPDEST PUSH2 0x144 PUSH2 0x187 CALLDATASIZE PUSH1 0x4 PUSH2 0x1D5D JUMP JUMPDEST PUSH2 0xA1C JUMP JUMPDEST PUSH2 0x144 PUSH2 0x19A CALLDATASIZE PUSH1 0x4 PUSH2 0x1D89 JUMP JUMPDEST PUSH2 0xA95 JUMP JUMPDEST PUSH2 0x144 PUSH2 0x1AD CALLDATASIZE PUSH1 0x4 PUSH2 0x1D89 JUMP JUMPDEST PUSH2 0xB1D JUMP JUMPDEST PUSH2 0x144 PUSH2 0x1C0 CALLDATASIZE PUSH1 0x4 PUSH2 0x1DD9 JUMP JUMPDEST PUSH2 0xB98 JUMP JUMPDEST PUSH2 0x144 PUSH2 0x1D3 CALLDATASIZE PUSH1 0x4 PUSH2 0x1D89 JUMP JUMPDEST PUSH2 0xC31 JUMP JUMPDEST PUSH2 0x144 PUSH2 0x1E6 CALLDATASIZE PUSH1 0x4 PUSH2 0x1D89 JUMP JUMPDEST PUSH2 0xCAC JUMP JUMPDEST PUSH2 0x1F3 PUSH2 0xD27 JUMP JUMPDEST STOP JUMPDEST PUSH2 0x144 PUSH2 0x203 CALLDATASIZE PUSH1 0x4 PUSH2 0x1D5D JUMP JUMPDEST PUSH2 0xD32 JUMP JUMPDEST PUSH1 0x0 SLOAD PUSH1 0x40 MLOAD PUSH1 0x1 PUSH1 0x1 PUSH1 0xA0 SHL SUB SWAP1 SWAP2 AND DUP2 MSTORE PUSH1 0x20 ADD PUSH2 0x150 JUMP JUMPDEST PUSH2 0x144 PUSH2 0x231 CALLDATASIZE PUSH1 0x4 PUSH2 0x1E0E JUMP JUMPDEST PUSH2 0xDAD JUMP JUMPDEST PUSH2 0x16C PUSH2 0x244 CALLDATASIZE PUSH1 0x4 PUSH2 0x1E0E JUMP JUMPDEST PUSH2 0xF9F JUMP JUMPDEST PUSH2 0x144 PUSH2 0x257 CALLDATASIZE PUSH1 0x4 PUSH2 0x1D89 JUMP JUMPDEST PUSH2 0x14E6 JUMP JUMPDEST PUSH2 0x26F PUSH2 0x26A CALLDATASIZE PUSH1 0x4 PUSH2 0x1BC4 JUMP JUMPDEST PUSH2 0x1561 JUMP JUMPDEST PUSH1 0x40 MLOAD SWAP1 DUP2 MSTORE PUSH1 0x20 ADD PUSH2 0x150 JUMP JUMPDEST PUSH2 0x144 PUSH2 0x28B CALLDATASIZE PUSH1 0x4 PUSH2 0x1D89 JUMP JUMPDEST PUSH2 0x15F8 JUMP JUMPDEST PUSH2 0x144 PUSH2 0x29E CALLDATASIZE PUSH1 0x4 PUSH2 0x1D89 JUMP JUMPDEST PUSH2 0x1673 JUMP JUMPDEST PUSH2 0x144 PUSH2 0x2B1 CALLDATASIZE PUSH1 0x4 PUSH2 0x1D89 JUMP JUMPDEST PUSH2 0x16EE JUMP JUMPDEST PUSH2 0x1F3 PUSH2 0x2C4 CALLDATASIZE PUSH1 0x4 PUSH2 0x1E30 JUMP JUMPDEST PUSH2 0x1769 JUMP JUMPDEST PUSH2 0x26F PUSH2 0x2D7 CALLDATASIZE PUSH1 0x4 PUSH2 0x1E52 JUMP JUMPDEST PUSH2 0x17E2 JUMP JUMPDEST PUSH1 0x0 DUP2 PUSH1 0x0 DUP1 MLOAD PUSH1 0x20 PUSH2 0x2061 DUP4 CODECOPY DUP2 MLOAD SWAP2 MSTORE DUP2 EQ PUSH2 0x315 JUMPI PUSH1 0x40 MLOAD PUSH3 0x461BCD PUSH1 0xE5 SHL DUP2 MSTORE PUSH1 0x4 ADD PUSH2 0x30C SWAP1 PUSH2 0x1E6B JUMP JUMPDEST PUSH1 0x40 MLOAD DUP1 SWAP2 SUB SWAP1 REVERT JUMPDEST PUSH1 0x2 DUP1 SLOAD SWAP1 PUSH1 0x0 PUSH2 0x325 DUP4 PUSH2 0x1EB2 JUMP JUMPDEST SWAP1 SWAP2 SSTORE POP POP PUSH1 0x2 DUP1 SLOAD PUSH1 0x20 DUP7 DUP2 ADD DUP3 DUP2 MSTORE PUSH1 0x0 SWAP3 DUP4 MSTORE PUSH1 0x1 SWAP2 DUP3 SWAP1 MSTORE PUSH1 0x40 SWAP3 DUP4 SWAP1 KECCAK256 DUP9 MLOAD DUP2 SSTORE SWAP1 MLOAD SWAP2 DUP2 ADD SWAP2 SWAP1 SWAP2 SSTORE SWAP1 DUP7 ADD MLOAD SWAP2 DUP2 ADD DUP1 SLOAD PUSH1 0x1 PUSH1 0x1 PUSH1 0xA0 SHL SUB NOT AND PUSH1 0x1 PUSH1 0x1 PUSH1 0xA0 SHL SUB SWAP1 SWAP4 AND SWAP3 SWAP1 SWAP3 OR SWAP1 SWAP2 SSTORE PUSH1 0x60 DUP6 ADD MLOAD DUP6 SWAP2 SWAP1 PUSH1 0x3 DUP3 ADD SWAP1 PUSH2 0x390 SWAP1 DUP3 PUSH2 0x1F5C JUMP JUMPDEST POP PUSH1 0x80 DUP3 ADD MLOAD PUSH1 0x4 DUP3 ADD SWAP1 PUSH2 0x3A5 SWAP1 DUP3 PUSH2 0x1F5C JUMP JUMPDEST POP PUSH1 0xA0 DUP3 ADD MLOAD PUSH1 0x5 DUP3 ADD SWAP1 PUSH2 0x3BA SWAP1 DUP3 PUSH2 0x1F5C JUMP JUMPDEST POP PUSH1 0xC0 DUP3 ADD MLOAD PUSH1 0x6 DUP3 ADD SWAP1 PUSH2 0x3CF SWAP1 DUP3 PUSH2 0x1F5C JUMP JUMPDEST POP PUSH1 0xE0 DUP3 ADD MLOAD PUSH1 0x7 DUP3 ADD SWAP1 PUSH2 0x3E4 SWAP1 DUP3 PUSH2 0x1F5C JUMP JUMPDEST POP PUSH2 0x100 DUP3 ADD MLOAD PUSH1 0x8 DUP3 ADD SWAP1 PUSH2 0x3FA SWAP1 DUP3 PUSH2 0x1F5C JUMP JUMPDEST POP PUSH2 0x120 DUP3 ADD MLOAD PUSH1 0x9 DUP3 ADD SWAP1 PUSH2 0x410 SWAP1 DUP3 PUSH2 0x1F5C JUMP JUMPDEST POP PUSH2 0x140 DUP3 ADD MLOAD PUSH1 0xA DUP3 ADD SWAP1 PUSH2 0x426 SWAP1 DUP3 PUSH2 0x1F5C JUMP JUMPDEST POP SWAP1 POP POP PUSH32 0xF1C85255584806819BCF2D77A175D3EC22E4D0E596C27FCDDC47379DEDEDB756 DUP5 PUSH1 0x40 MLOAD PUSH2 0x459 SWAP2 SWAP1 PUSH2 0x1C34 JUMP JUMPDEST PUSH1 0x40 MLOAD DUP1 SWAP2 SUB SWAP1 LOG1 PUSH1 0x1 SWAP2 POP JUMPDEST POP SWAP3 SWAP2 POP POP JUMP JUMPDEST PUSH2 0x475 PUSH2 0x18D9 JUMP JUMPDEST DUP2 PUSH1 0x0 DUP1 MLOAD PUSH1 0x20 PUSH2 0x2061 DUP4 CODECOPY DUP2 MLOAD SWAP2 MSTORE DUP2 EQ PUSH2 0x4A3 JUMPI PUSH1 0x40 MLOAD PUSH3 0x461BCD PUSH1 0xE5 SHL DUP2 MSTORE PUSH1 0x4 ADD PUSH2 0x30C SWAP1 PUSH2 0x1E6B JUMP JUMPDEST PUSH1 0x1 JUMPDEST PUSH1 0x2 SLOAD DUP2 GT PUSH2 0x9C4 JUMPI PUSH1 0x0 DUP2 DUP2 MSTORE PUSH1 0x1 PUSH1 0x20 MSTORE PUSH1 0x40 SWAP1 KECCAK256 PUSH1 0x2 ADD SLOAD PUSH1 0x1 PUSH1 0x1 PUSH1 0xA0 SHL SUB DUP1 DUP8 AND SWAP2 AND SUB PUSH2 0x9B2 JUMPI PUSH1 0x0 DUP2 DUP2 MSTORE PUSH1 0x1 PUSH1 0x20 DUP2 DUP2 MSTORE PUSH1 0x40 SWAP3 DUP4 SWAP1 KECCAK256 DUP4 MLOAD PUSH2 0x160 DUP2 ADD DUP6 MSTORE DUP2 SLOAD DUP2 MSTORE SWAP3 DUP2 ADD SLOAD SWAP2 DUP4 ADD SWAP2 SWAP1 SWAP2 MSTORE PUSH1 0x2 DUP2 ADD SLOAD PUSH1 0x1 PUSH1 0x1 PUSH1 0xA0 SHL SUB AND SWAP3 DUP3 ADD SWAP3 SWAP1 SWAP3 MSTORE PUSH1 0x3 DUP3 ADD DUP1 SLOAD SWAP2 SWAP3 SWAP2 PUSH1 0x60 DUP5 ADD SWAP2 SWAP1 PUSH2 0x52A SWAP1 PUSH2 0x1ED9 JUMP JUMPDEST DUP1 PUSH1 0x1F ADD PUSH1 0x20 DUP1 SWAP2 DIV MUL PUSH1 0x20 ADD PUSH1 0x40 MLOAD SWAP1 DUP2 ADD PUSH1 0x40 MSTORE DUP1 SWAP3 SWAP2 SWAP1 DUP2 DUP2 MSTORE PUSH1 0x20 ADD DUP3 DUP1 SLOAD PUSH2 0x556 SWAP1 PUSH2 0x1ED9 JUMP JUMPDEST DUP1 ISZERO PUSH2 0x5A3 JUMPI DUP1 PUSH1 0x1F LT PUSH2 0x578 JUMPI PUSH2 0x100 DUP1 DUP4 SLOAD DIV MUL DUP4 MSTORE SWAP2 PUSH1 0x20 ADD SWAP2 PUSH2 0x5A3 JUMP JUMPDEST DUP3 ADD SWAP2 SWAP1 PUSH1 0x0 MSTORE PUSH1 0x20 PUSH1 0x0 KECCAK256 SWAP1 JUMPDEST DUP2 SLOAD DUP2 MSTORE SWAP1 PUSH1 0x1 ADD SWAP1 PUSH1 0x20 ADD DUP1 DUP4 GT PUSH2 0x586 JUMPI DUP3 SWAP1 SUB PUSH1 0x1F AND DUP3 ADD SWAP2 JUMPDEST POP POP POP POP POP DUP2 MSTORE PUSH1 0x20 ADD PUSH1 0x4 DUP3 ADD DUP1 SLOAD PUSH2 0x5BC SWAP1 PUSH2 0x1ED9 JUMP JUMPDEST DUP1 PUSH1 0x1F ADD PUSH1 0x20 DUP1 SWAP2 DIV MUL PUSH1 0x20 ADD PUSH1 0x40 MLOAD SWAP1 DUP2 ADD PUSH1 0x40 MSTORE DUP1 SWAP3 SWAP2 SWAP1 DUP2 DUP2 MSTORE PUSH1 0x20 ADD DUP3 DUP1 SLOAD PUSH2 0x5E8 SWAP1 PUSH2 0x1ED9 JUMP JUMPDEST DUP1 ISZERO PUSH2 0x635 JUMPI DUP1 PUSH1 0x1F LT PUSH2 0x60A JUMPI PUSH2 0x100 DUP1 DUP4 SLOAD DIV MUL DUP4 MSTORE SWAP2 PUSH1 0x20 ADD SWAP2 PUSH2 0x635 JUMP JUMPDEST DUP3 ADD SWAP2 SWAP1 PUSH1 0x0 MSTORE PUSH1 0x20 PUSH1 0x0 KECCAK256 SWAP1 JUMPDEST DUP2 SLOAD DUP2 MSTORE SWAP1 PUSH1 0x1 ADD SWAP1 PUSH1 0x20 ADD DUP1 DUP4 GT PUSH2 0x618 JUMPI DUP3 SWAP1 SUB PUSH1 0x1F AND DUP3 ADD SWAP2 JUMPDEST POP POP POP POP POP DUP2 MSTORE PUSH1 0x20 ADD PUSH1 0x5 DUP3 ADD DUP1 SLOAD PUSH2 0x64E SWAP1 PUSH2 0x1ED9 JUMP JUMPDEST DUP1 PUSH1 0x1F ADD PUSH1 0x20 DUP1 SWAP2 DIV MUL PUSH1 0x20 ADD PUSH1 0x40 MLOAD SWAP1 DUP2 ADD PUSH1 0x40 MSTORE DUP1 SWAP3 SWAP2 SWAP1 DUP2 DUP2 MSTORE PUSH1 0x20 ADD DUP3 DUP1 SLOAD PUSH2 0x67A SWAP1 PUSH2 0x1ED9 JUMP JUMPDEST DUP1 ISZERO PUSH2 0x6C7 JUMPI DUP1 PUSH1 0x1F LT PUSH2 0x69C JUMPI PUSH2 0x100 DUP1 DUP4 SLOAD DIV MUL DUP4 MSTORE SWAP2 PUSH1 0x20 ADD SWAP2 PUSH2 0x6C7 JUMP JUMPDEST DUP3 ADD SWAP2 SWAP1 PUSH1 0x0 MSTORE PUSH1 0x20 PUSH1 0x0 KECCAK256 SWAP1 JUMPDEST DUP2 SLOAD DUP2 MSTORE SWAP1 PUSH1 0x1 ADD SWAP1 PUSH1 0x20 ADD DUP1 DUP4 GT PUSH2 0x6AA JUMPI DUP3 SWAP1 SUB PUSH1 0x1F AND DUP3 ADD SWAP2 JUMPDEST POP POP POP POP POP DUP2 MSTORE PUSH1 0x20 ADD PUSH1 0x6 DUP3 ADD DUP1 SLOAD PUSH2 0x6E0 SWAP1 PUSH2 0x1ED9 JUMP JUMPDEST DUP1 PUSH1 0x1F ADD PUSH1 0x20 DUP1 SWAP2 DIV MUL PUSH1 0x20 ADD PUSH1 0x40 MLOAD SWAP1 DUP2 ADD PUSH1 0x40 MSTORE DUP1 SWAP3 SWAP2 SWAP1 DUP2 DUP2 MSTORE PUSH1 0x20 ADD DUP3 DUP1 SLOAD PUSH2 0x70C SWAP1 PUSH2 0x1ED9 JUMP JUMPDEST DUP1 ISZERO PUSH2 0x759 JUMPI DUP1 PUSH1 0x1F LT PUSH2 0x72E JUMPI PUSH2 0x100 DUP1 DUP4 SLOAD DIV MUL DUP4 MSTORE SWAP2 PUSH1 0x20 ADD SWAP2 PUSH2 0x759 JUMP JUMPDEST DUP3 ADD SWAP2 SWAP1 PUSH1 0x0 MSTORE PUSH1 0x20 PUSH1 0x0 KECCAK256 SWAP1 JUMPDEST DUP2 SLOAD DUP2 MSTORE SWAP1 PUSH1 0x1 ADD SWAP1 PUSH1 0x20 ADD DUP1 DUP4 GT PUSH2 0x73C JUMPI DUP3 SWAP1 SUB PUSH1 0x1F AND DUP3 ADD SWAP2 JUMPDEST POP POP POP POP POP DUP2 MSTORE PUSH1 0x20 ADD PUSH1 0x7 DUP3 ADD DUP1 SLOAD PUSH2 0x772 SWAP1 PUSH2 0x1ED9 JUMP JUMPDEST DUP1 PUSH1 0x1F ADD PUSH1 0x20 DUP1 SWAP2 DIV MUL PUSH1 0x20 ADD PUSH1 0x40 MLOAD SWAP1 DUP2 ADD PUSH1 0x40 MSTORE DUP1 SWAP3 SWAP2 SWAP1 DUP2 DUP2 MSTORE PUSH1 0x20 ADD DUP3 DUP1 SLOAD PUSH2 0x79E SWAP1 PUSH2 0x1ED9 JUMP JUMPDEST DUP1 ISZERO PUSH2 0x7EB JUMPI DUP1 PUSH1 0x1F LT PUSH2 0x7C0 JUMPI PUSH2 0x100 DUP1 DUP4 SLOAD DIV MUL DUP4 MSTORE SWAP2 PUSH1 0x20 ADD SWAP2 PUSH2 0x7EB JUMP JUMPDEST DUP3 ADD SWAP2 SWAP1 PUSH1 0x0 MSTORE PUSH1 0x20 PUSH1 0x0 KECCAK256 SWAP1 JUMPDEST DUP2 SLOAD DUP2 MSTORE SWAP1 PUSH1 0x1 ADD SWAP1 PUSH1 0x20 ADD DUP1 DUP4 GT PUSH2 0x7CE JUMPI DUP3 SWAP1 SUB PUSH1 0x1F AND DUP3 ADD SWAP2 JUMPDEST POP POP POP POP POP DUP2 MSTORE PUSH1 0x20 ADD PUSH1 0x8 DUP3 ADD DUP1 SLOAD PUSH2 0x804 SWAP1 PUSH2 0x1ED9 JUMP JUMPDEST DUP1 PUSH1 0x1F ADD PUSH1 0x20 DUP1 SWAP2 DIV MUL PUSH1 0x20 ADD PUSH1 0x40 MLOAD SWAP1 DUP2 ADD PUSH1 0x40 MSTORE DUP1 SWAP3 SWAP2 SWAP1 DUP2 DUP2 MSTORE PUSH1 0x20 ADD DUP3 DUP1 SLOAD PUSH2 0x830 SWAP1 PUSH2 0x1ED9 JUMP JUMPDEST DUP1 ISZERO PUSH2 0x87D JUMPI DUP1 PUSH1 0x1F LT PUSH2 0x852 JUMPI PUSH2 0x100 DUP1 DUP4 SLOAD DIV MUL DUP4 MSTORE SWAP2 PUSH1 0x20 ADD SWAP2 PUSH2 0x87D JUMP JUMPDEST DUP3 ADD SWAP2 SWAP1 PUSH1 0x0 MSTORE PUSH1 0x20 PUSH1 0x0 KECCAK256 SWAP1 JUMPDEST DUP2 SLOAD DUP2 MSTORE SWAP1 PUSH1 0x1 ADD SWAP1 PUSH1 0x20 ADD DUP1 DUP4 GT PUSH2 0x860 JUMPI DUP3 SWAP1 SUB PUSH1 0x1F AND DUP3 ADD SWAP2 JUMPDEST POP POP POP POP POP DUP2 MSTORE PUSH1 0x20 ADD PUSH1 0x9 DUP3 ADD DUP1 SLOAD PUSH2 0x896 SWAP1 PUSH2 0x1ED9 JUMP JUMPDEST DUP1 PUSH1 0x1F ADD PUSH1 0x20 DUP1 SWAP2 DIV MUL PUSH1 0x20 ADD PUSH1 0x40 MLOAD SWAP1 DUP2 ADD PUSH1 0x40 MSTORE DUP1 SWAP3 SWAP2 SWAP1 DUP2 DUP2 MSTORE PUSH1 0x20 ADD DUP3 DUP1 SLOAD PUSH2 0x8C2 SWAP1 PUSH2 0x1ED9 JUMP JUMPDEST DUP1 ISZERO PUSH2 0x90F JUMPI DUP1 PUSH1 0x1F LT PUSH2 0x8E4 JUMPI PUSH2 0x100 DUP1 DUP4 SLOAD DIV MUL DUP4 MSTORE SWAP2 PUSH1 0x20 ADD SWAP2 PUSH2 0x90F JUMP JUMPDEST DUP3 ADD SWAP2 SWAP1 PUSH1 0x0 MSTORE PUSH1 0x20 PUSH1 0x0 KECCAK256 SWAP1 JUMPDEST DUP2 SLOAD DUP2 MSTORE SWAP1 PUSH1 0x1 ADD SWAP1 PUSH1 0x20 ADD DUP1 DUP4 GT PUSH2 0x8F2 JUMPI DUP3 SWAP1 SUB PUSH1 0x1F AND DUP3 ADD SWAP2 JUMPDEST POP POP POP POP POP DUP2 MSTORE PUSH1 0x20 ADD PUSH1 0xA DUP3 ADD DUP1 SLOAD PUSH2 0x928 SWAP1 PUSH2 0x1ED9 JUMP JUMPDEST DUP1 PUSH1 0x1F ADD PUSH1 0x20 DUP1 SWAP2 DIV MUL PUSH1 0x20 ADD PUSH1 0x40 MLOAD SWAP1 DUP2 ADD PUSH1 0x40 MSTORE DUP1 SWAP3 SWAP2 SWAP1 DUP2 DUP2 MSTORE PUSH1 0x20 ADD DUP3 DUP1 SLOAD PUSH2 0x954 SWAP1 PUSH2 0x1ED9 JUMP JUMPDEST DUP1 ISZERO PUSH2 0x9A1 JUMPI DUP1 PUSH1 0x1F LT PUSH2 0x976 JUMPI PUSH2 0x100 DUP1 DUP4 SLOAD DIV MUL DUP4 MSTORE SWAP2 PUSH1 0x20 ADD SWAP2 PUSH2 0x9A1 JUMP JUMPDEST DUP3 ADD SWAP2 SWAP1 PUSH1 0x0 MSTORE PUSH1 0x20 PUSH1 0x0 KECCAK256 SWAP1 JUMPDEST DUP2 SLOAD DUP2 MSTORE SWAP1 PUSH1 0x1 ADD SWAP1 PUSH1 0x20 ADD DUP1 DUP4 GT PUSH2 0x984 JUMPI DUP3 SWAP1 SUB PUSH1 0x1F AND DUP3 ADD SWAP2 JUMPDEST POP POP POP POP POP DUP2 MSTORE POP POP SWAP3 POP POP PUSH2 0x466 JUMP JUMPDEST DUP1 PUSH2 0x9BC DUP2 PUSH2 0x1EB2 JUMP JUMPDEST SWAP2 POP POP PUSH2 0x4A6 JUMP JUMPDEST POP PUSH1 0x40 MLOAD PUSH3 0x461BCD PUSH1 0xE5 SHL DUP2 MSTORE PUSH1 0x20 PUSH1 0x4 DUP3 ADD MSTORE PUSH1 0x26 PUSH1 0x24 DUP3 ADD MSTORE PUSH32 0x4461746162617365204C697374427573696E6573733A20496E76616C69642061 PUSH1 0x44 DUP3 ADD MSTORE PUSH6 0x646472657373 PUSH1 0xD0 SHL PUSH1 0x64 DUP3 ADD MSTORE PUSH1 0x84 ADD PUSH2 0x30C JUMP JUMPDEST PUSH1 0x0 DUP3 PUSH1 0x0 DUP1 MLOAD PUSH1 0x20 PUSH2 0x2061 DUP4 CODECOPY DUP2 MLOAD SWAP2 MSTORE DUP2 EQ PUSH2 0xA4C JUMPI PUSH1 0x40 MLOAD PUSH3 0x461BCD PUSH1 0xE5 SHL DUP2 MSTORE PUSH1 0x4 ADD PUSH2 0x30C SWAP1 PUSH2 0x1E6B JUMP JUMPDEST DUP5 DUP1 PUSH1 0x1 GT ISZERO DUP1 ISZERO PUSH2 0xA60 JUMPI POP PUSH1 0x2 SLOAD DUP2 GT ISZERO JUMPDEST PUSH2 0xA7C JUMPI PUSH1 0x40 MLOAD PUSH3 0x461BCD PUSH1 0xE5 SHL DUP2 MSTORE PUSH1 0x4 ADD PUSH2 0x30C SWAP1 PUSH2 0x201C JUMP JUMPDEST POP POP POP PUSH1 0x0 SWAP3 DUP4 MSTORE PUSH1 0x1 PUSH1 0x20 DUP2 SWAP1 MSTORE PUSH1 0x40 SWAP1 SWAP4 KECCAK256 SSTORE POP SWAP1 JUMP JUMPDEST PUSH1 0x0 DUP3 PUSH1 0x0 DUP1 MLOAD PUSH1 0x20 PUSH2 0x2061 DUP4 CODECOPY DUP2 MLOAD SWAP2 MSTORE DUP2 EQ PUSH2 0xAC5 JUMPI PUSH1 0x40 MLOAD PUSH3 0x461BCD PUSH1 0xE5 SHL DUP2 MSTORE PUSH1 0x4 ADD PUSH2 0x30C SWAP1 PUSH2 0x1E6B JUMP JUMPDEST DUP5 DUP1 PUSH1 0x1 GT ISZERO DUP1 ISZERO PUSH2 0xAD9 JUMPI POP PUSH1 0x2 SLOAD DUP2 GT ISZERO JUMPDEST PUSH2 0xAF5 JUMPI PUSH1 0x40 MLOAD PUSH3 0x461BCD PUSH1 0xE5 SHL DUP2 MSTORE PUSH1 0x4 ADD PUSH2 0x30C SWAP1 PUSH2 0x201C JUMP JUMPDEST PUSH1 0x0 DUP7 DUP2 MSTORE PUSH1 0x1 PUSH1 0x20 MSTORE PUSH1 0x40 SWAP1 KECCAK256 PUSH1 0x6 ADD PUSH2 0xB10 DUP6 DUP3 PUSH2 0x1F5C JUMP JUMPDEST POP PUSH1 0x1 SWAP7 SWAP6 POP POP POP POP POP POP JUMP JUMPDEST PUSH1 0x0 DUP3 PUSH1 0x0 DUP1 MLOAD PUSH1 0x20 PUSH2 0x2061 DUP4 CODECOPY DUP2 MLOAD SWAP2 MSTORE DUP2 EQ PUSH2 0xB4D JUMPI PUSH1 0x40 MLOAD PUSH3 0x461BCD PUSH1 0xE5 SHL DUP2 MSTORE PUSH1 0x4 ADD PUSH2 0x30C SWAP1 PUSH2 0x1E6B JUMP JUMPDEST DUP5 DUP1 PUSH1 0x1 GT ISZERO DUP1 ISZERO PUSH2 0xB61 JUMPI POP PUSH1 0x2 SLOAD DUP2 GT ISZERO JUMPDEST PUSH2 0xB7D JUMPI PUSH1 0x40 MLOAD PUSH3 0x461BCD PUSH1 0xE5 SHL DUP2 MSTORE PUSH1 0x4 ADD PUSH2 0x30C SWAP1 PUSH2 0x201C JUMP JUMPDEST PUSH1 0x0 DUP7 DUP2 MSTORE PUSH1 0x1 PUSH1 0x20 MSTORE PUSH1 0x40 SWAP1 KECCAK256 PUSH1 0xA ADD PUSH2 0xB10 DUP6 DUP3 PUSH2 0x1F5C JUMP JUMPDEST PUSH1 0x0 DUP3 PUSH1 0x0 DUP1 MLOAD PUSH1 0x20 PUSH2 0x2061 DUP4 CODECOPY DUP2 MLOAD SWAP2 MSTORE DUP2 EQ PUSH2 0xBC8 JUMPI PUSH1 0x40 MLOAD PUSH3 0x461BCD PUSH1 0xE5 SHL DUP2 MSTORE PUSH1 0x4 ADD PUSH2 0x30C SWAP1 PUSH2 0x1E6B JUMP JUMPDEST DUP5 DUP1 PUSH1 0x1 GT ISZERO DUP1 ISZERO PUSH2 0xBDC JUMPI POP PUSH1 0x2 SLOAD DUP2 GT ISZERO JUMPDEST PUSH2 0xBF8 JUMPI PUSH1 0x40 MLOAD PUSH3 0x461BCD PUSH1 0xE5 SHL DUP2 MSTORE PUSH1 0x4 ADD PUSH2 0x30C SWAP1 PUSH2 0x201C JUMP JUMPDEST POP POP POP PUSH1 0x0 SWAP3 DUP4 MSTORE PUSH1 0x1 PUSH1 0x20 DUP2 SWAP1 MSTORE PUSH1 0x40 SWAP1 SWAP4 KECCAK256 PUSH1 0x2 ADD DUP1 SLOAD PUSH1 0x1 PUSH1 0x1 PUSH1 0xA0 SHL SUB NOT AND PUSH1 0x1 PUSH1 0x1 PUSH1 0xA0 SHL SUB SWAP3 SWAP1 SWAP3 AND SWAP2 SWAP1 SWAP2 OR SWAP1 SSTORE POP SWAP1 JUMP JUMPDEST PUSH1 0x0 DUP3 PUSH1 0x0 DUP1 MLOAD PUSH1 0x20 PUSH2 0x2061 DUP4 CODECOPY DUP2 MLOAD SWAP2 MSTORE DUP2 EQ PUSH2 0xC61 JUMPI PUSH1 0x40 MLOAD PUSH3 0x461BCD PUSH1 0xE5 SHL DUP2 MSTORE PUSH1 0x4 ADD PUSH2 0x30C SWAP1 PUSH2 0x1E6B JUMP JUMPDEST DUP5 DUP1 PUSH1 0x1 GT ISZERO DUP1 ISZERO PUSH2 0xC75 JUMPI POP PUSH1 0x2 SLOAD DUP2 GT ISZERO JUMPDEST PUSH2 0xC91 JUMPI PUSH1 0x40 MLOAD PUSH3 0x461BCD PUSH1 0xE5 SHL DUP2 MSTORE PUSH1 0x4 ADD PUSH2 0x30C SWAP1 PUSH2 0x201C JUMP JUMPDEST PUSH1 0x0 DUP7 DUP2 MSTORE PUSH1 0x1 PUSH1 0x20 MSTORE PUSH1 0x40 SWAP1 KECCAK256 PUSH1 0x3 ADD PUSH2 0xB10 DUP6 DUP3 PUSH2 0x1F5C JUMP JUMPDEST PUSH1 0x0 DUP3 PUSH1 0x0 DUP1 MLOAD PUSH1 0x20 PUSH2 0x2061 DUP4 CODECOPY DUP2 MLOAD SWAP2 MSTORE DUP2 EQ PUSH2 0xCDC JUMPI PUSH1 0x40 MLOAD PUSH3 0x461BCD PUSH1 0xE5 SHL DUP2 MSTORE PUSH1 0x4 ADD PUSH2 0x30C SWAP1 PUSH2 0x1E6B JUMP JUMPDEST DUP5 DUP1 PUSH1 0x1 GT ISZERO DUP1 ISZERO PUSH2 0xCF0 JUMPI POP PUSH1 0x2 SLOAD DUP2 GT ISZERO JUMPDEST PUSH2 0xD0C JUMPI PUSH1 0x40 MLOAD PUSH3 0x461BCD PUSH1 0xE5 SHL DUP2 MSTORE PUSH1 0x4 ADD PUSH2 0x30C SWAP1 PUSH2 0x201C JUMP JUMPDEST PUSH1 0x0 DUP7 DUP2 MSTORE PUSH1 0x1 PUSH1 0x20 MSTORE PUSH1 0x40 SWAP1 KECCAK256 PUSH1 0x9 ADD PUSH2 0xB10 DUP6 DUP3 PUSH2 0x1F5C JUMP JUMPDEST PUSH2 0xD2F PUSH2 0x181E JUMP JUMPDEST ADDRESS SELFDESTRUCT JUMPDEST PUSH1 0x0 DUP3 PUSH1 0x0 DUP1 MLOAD PUSH1 0x20 PUSH2 0x2061 DUP4 CODECOPY DUP2 MLOAD SWAP2 MSTORE DUP2 EQ PUSH2 0xD62 JUMPI PUSH1 0x40 MLOAD PUSH3 0x461BCD PUSH1 0xE5 SHL DUP2 MSTORE PUSH1 0x4 ADD PUSH2 0x30C SWAP1 PUSH2 0x1E6B JUMP JUMPDEST DUP5 DUP1 PUSH1 0x1 GT ISZERO DUP1 ISZERO PUSH2 0xD76 JUMPI POP PUSH1 0x2 SLOAD DUP2 GT ISZERO JUMPDEST PUSH2 0xD92 JUMPI PUSH1 0x40 MLOAD PUSH3 0x461BCD PUSH1 0xE5 SHL DUP2 MSTORE PUSH1 0x4 ADD PUSH2 0x30C SWAP1 PUSH2 0x201C JUMP JUMPDEST POP POP POP PUSH1 0x0 SWAP3 DUP4 MSTORE PUSH1 0x1 PUSH1 0x20 DUP2 SWAP1 MSTORE PUSH1 0x40 SWAP1 SWAP4 KECCAK256 DUP4 ADD SSTORE POP SWAP1 JUMP JUMPDEST PUSH1 0x0 DUP2 PUSH1 0x0 DUP1 MLOAD PUSH1 0x20 PUSH2 0x2061 DUP4 CODECOPY DUP2 MLOAD SWAP2 MSTORE DUP2 EQ PUSH2 0xDDD JUMPI PUSH1 0x40 MLOAD PUSH3 0x461BCD PUSH1 0xE5 SHL DUP2 MSTORE PUSH1 0x4 ADD PUSH2 0x30C SWAP1 PUSH2 0x1E6B JUMP JUMPDEST DUP4 DUP1 PUSH1 0x1 GT ISZERO DUP1 ISZERO PUSH2 0xDF1 JUMPI POP PUSH1 0x2 SLOAD DUP2 GT ISZERO JUMPDEST PUSH2 0xE0D JUMPI PUSH1 0x40 MLOAD PUSH3 0x461BCD PUSH1 0xE5 SHL DUP2 MSTORE PUSH1 0x4 ADD PUSH2 0x30C SWAP1 PUSH2 0x201C JUMP JUMPDEST PUSH1 0x40 DUP1 MLOAD PUSH2 0x160 DUP2 ADD DUP3 MSTORE PUSH1 0x0 DUP1 DUP3 MSTORE PUSH1 0x20 DUP1 DUP4 ADD DUP3 DUP2 MSTORE DUP4 DUP6 ADD DUP4 DUP2 MSTORE DUP6 MLOAD DUP1 DUP5 ADD DUP8 MSTORE DUP5 DUP2 MSTORE PUSH1 0x60 DUP7 ADD SWAP1 DUP2 MSTORE DUP7 MLOAD DUP1 DUP6 ADD DUP9 MSTORE DUP6 DUP2 MSTORE PUSH1 0x80 DUP8 ADD MSTORE DUP7 MLOAD DUP1 DUP6 ADD DUP9 MSTORE DUP6 DUP2 MSTORE PUSH1 0xA0 DUP8 ADD MSTORE DUP7 MLOAD DUP1 DUP6 ADD DUP9 MSTORE DUP6 DUP2 MSTORE PUSH1 0xC0 DUP8 ADD MSTORE DUP7 MLOAD DUP1 DUP6 ADD DUP9 MSTORE DUP6 DUP2 MSTORE PUSH1 0xE0 DUP8 ADD MSTORE DUP7 MLOAD DUP1 DUP6 ADD DUP9 MSTORE DUP6 DUP2 MSTORE PUSH2 0x100 DUP8 ADD MSTORE DUP7 MLOAD DUP1 DUP6 ADD DUP9 MSTORE DUP6 DUP2 MSTORE PUSH2 0x120 DUP8 ADD MSTORE DUP7 MLOAD DUP1 DUP6 ADD DUP9 MSTORE DUP6 DUP2 MSTORE PUSH2 0x140 DUP8 ADD MSTORE DUP12 DUP6 MSTORE PUSH1 0x1 SWAP4 DUP5 SWAP1 MSTORE SWAP6 SWAP1 SWAP4 KECCAK256 DUP5 MLOAD DUP2 SSTORE SWAP1 MLOAD SWAP2 DUP2 ADD SWAP2 SWAP1 SWAP2 SSTORE SWAP1 MLOAD PUSH1 0x2 DUP3 ADD DUP1 SLOAD PUSH1 0x1 PUSH1 0x1 PUSH1 0xA0 SHL SUB NOT AND PUSH1 0x1 PUSH1 0x1 PUSH1 0xA0 SHL SUB SWAP1 SWAP3 AND SWAP2 SWAP1 SWAP2 OR SWAP1 SSTORE SWAP2 MLOAD SWAP1 SWAP2 DUP3 SWAP2 PUSH1 0x3 DUP3 ADD SWAP1 PUSH2 0xEFA SWAP1 DUP3 PUSH2 0x1F5C JUMP JUMPDEST POP PUSH1 0x80 DUP3 ADD MLOAD PUSH1 0x4 DUP3 ADD SWAP1 PUSH2 0xF0F SWAP1 DUP3 PUSH2 0x1F5C JUMP JUMPDEST POP PUSH1 0xA0 DUP3 ADD MLOAD PUSH1 0x5 DUP3 ADD SWAP1 PUSH2 0xF24 SWAP1 DUP3 PUSH2 0x1F5C JUMP JUMPDEST POP PUSH1 0xC0 DUP3 ADD MLOAD PUSH1 0x6 DUP3 ADD SWAP1 PUSH2 0xF39 SWAP1 DUP3 PUSH2 0x1F5C JUMP JUMPDEST POP PUSH1 0xE0 DUP3 ADD MLOAD PUSH1 0x7 DUP3 ADD SWAP1 PUSH2 0xF4E SWAP1 DUP3 PUSH2 0x1F5C JUMP JUMPDEST POP PUSH2 0x100 DUP3 ADD MLOAD PUSH1 0x8 DUP3 ADD SWAP1 PUSH2 0xF64 SWAP1 DUP3 PUSH2 0x1F5C JUMP JUMPDEST POP PUSH2 0x120 DUP3 ADD MLOAD PUSH1 0x9 DUP3 ADD SWAP1 PUSH2 0xF7A SWAP1 DUP3 PUSH2 0x1F5C JUMP JUMPDEST POP PUSH2 0x140 DUP3 ADD MLOAD PUSH1 0xA DUP3 ADD SWAP1 PUSH2 0xF90 SWAP1 DUP3 PUSH2 0x1F5C JUMP JUMPDEST POP PUSH1 0x1 SWAP9 SWAP8 POP POP POP POP POP POP POP POP JUMP JUMPDEST PUSH2 0xFA7 PUSH2 0x18D9 JUMP JUMPDEST DUP2 PUSH1 0x0 DUP1 MLOAD PUSH1 0x20 PUSH2 0x2061 DUP4 CODECOPY DUP2 MLOAD SWAP2 MSTORE DUP2 EQ PUSH2 0xFD5 JUMPI PUSH1 0x40 MLOAD PUSH3 0x461BCD PUSH1 0xE5 SHL DUP2 MSTORE PUSH1 0x4 ADD PUSH2 0x30C SWAP1 PUSH2 0x1E6B JUMP JUMPDEST DUP4 DUP1 PUSH1 0x1 GT ISZERO DUP1 ISZERO PUSH2 0xFE9 JUMPI POP PUSH1 0x2 SLOAD DUP2 GT ISZERO JUMPDEST PUSH2 0x1005 JUMPI PUSH1 0x40 MLOAD PUSH3 0x461BCD PUSH1 0xE5 SHL DUP2 MSTORE PUSH1 0x4 ADD PUSH2 0x30C SWAP1 PUSH2 0x201C JUMP JUMPDEST PUSH1 0x0 DUP6 DUP2 MSTORE PUSH1 0x1 PUSH1 0x20 DUP2 DUP2 MSTORE PUSH1 0x40 SWAP3 DUP4 SWAP1 KECCAK256 DUP4 MLOAD PUSH2 0x160 DUP2 ADD DUP6 MSTORE DUP2 SLOAD DUP2 MSTORE SWAP3 DUP2 ADD SLOAD SWAP2 DUP4 ADD SWAP2 SWAP1 SWAP2 MSTORE PUSH1 0x2 DUP2 ADD SLOAD PUSH1 0x1 PUSH1 0x1 PUSH1 0xA0 SHL SUB AND SWAP3 DUP3 ADD SWAP3 SWAP1 SWAP3 MSTORE PUSH1 0x3 DUP3 ADD DUP1 SLOAD SWAP2 SWAP3 SWAP2 PUSH1 0x60 DUP5 ADD SWAP2 SWAP1 PUSH2 0x105C SWAP1 PUSH2 0x1ED9 JUMP JUMPDEST DUP1 PUSH1 0x1F ADD PUSH1 0x20 DUP1 SWAP2 DIV MUL PUSH1 0x20 ADD PUSH1 0x40 MLOAD SWAP1 DUP2 ADD PUSH1 0x40 MSTORE DUP1 SWAP3 SWAP2 SWAP1 DUP2 DUP2 MSTORE PUSH1 0x20 ADD DUP3 DUP1 SLOAD PUSH2 0x1088 SWAP1 PUSH2 0x1ED9 JUMP JUMPDEST DUP1 ISZERO PUSH2 0x10D5 JUMPI DUP1 PUSH1 0x1F LT PUSH2 0x10AA JUMPI PUSH2 0x100 DUP1 DUP4 SLOAD DIV MUL DUP4 MSTORE SWAP2 PUSH1 0x20 ADD SWAP2 PUSH2 0x10D5 JUMP JUMPDEST DUP3 ADD SWAP2 SWAP1 PUSH1 0x0 MSTORE PUSH1 0x20 PUSH1 0x0 KECCAK256 SWAP1 JUMPDEST DUP2 SLOAD DUP2 MSTORE SWAP1 PUSH1 0x1 ADD SWAP1 PUSH1 0x20 ADD DUP1 DUP4 GT PUSH2 0x10B8 JUMPI DUP3 SWAP1 SUB PUSH1 0x1F AND DUP3 ADD SWAP2 JUMPDEST POP POP POP POP POP DUP2 MSTORE PUSH1 0x20 ADD PUSH1 0x4 DUP3 ADD DUP1 SLOAD PUSH2 0x10EE SWAP1 PUSH2 0x1ED9 JUMP JUMPDEST DUP1 PUSH1 0x1F ADD PUSH1 0x20 DUP1 SWAP2 DIV MUL PUSH1 0x20 ADD PUSH1 0x40 MLOAD SWAP1 DUP2 ADD PUSH1 0x40 MSTORE DUP1 SWAP3 SWAP2 SWAP1 DUP2 DUP2 MSTORE PUSH1 0x20 ADD DUP3 DUP1 SLOAD PUSH2 0x111A SWAP1 PUSH2 0x1ED9 JUMP JUMPDEST DUP1 ISZERO PUSH2 0x1167 JUMPI DUP1 PUSH1 0x1F LT PUSH2 0x113C JUMPI PUSH2 0x100 DUP1 DUP4 SLOAD DIV MUL DUP4 MSTORE SWAP2 PUSH1 0x20 ADD SWAP2 PUSH2 0x1167 JUMP JUMPDEST DUP3 ADD SWAP2 SWAP1 PUSH1 0x0 MSTORE PUSH1 0x20 PUSH1 0x0 KECCAK256 SWAP1 JUMPDEST DUP2 SLOAD DUP2 MSTORE SWAP1 PUSH1 0x1 ADD SWAP1 PUSH1 0x20 ADD DUP1 DUP4 GT PUSH2 0x114A JUMPI DUP3 SWAP1 SUB PUSH1 0x1F AND DUP3 ADD SWAP2 JUMPDEST POP POP POP POP POP DUP2 MSTORE PUSH1 0x20 ADD PUSH1 0x5 DUP3 ADD DUP1 SLOAD PUSH2 0x1180 SWAP1 PUSH2 0x1ED9 JUMP JUMPDEST DUP1 PUSH1 0x1F ADD PUSH1 0x20 DUP1 SWAP2 DIV MUL PUSH1 0x20 ADD PUSH1 0x40 MLOAD SWAP1 DUP2 ADD PUSH1 0x40 MSTORE DUP1 SWAP3 SWAP2 SWAP1 DUP2 DUP2 MSTORE PUSH1 0x20 ADD DUP3 DUP1 SLOAD PUSH2 0x11AC SWAP1 PUSH2 0x1ED9 JUMP JUMPDEST DUP1 ISZERO PUSH2 0x11F9 JUMPI DUP1 PUSH1 0x1F LT PUSH2 0x11CE JUMPI PUSH2 0x100 DUP1 DUP4 SLOAD DIV MUL DUP4 MSTORE SWAP2 PUSH1 0x20 ADD SWAP2 PUSH2 0x11F9 JUMP JUMPDEST DUP3 ADD SWAP2 SWAP1 PUSH1 0x0 MSTORE PUSH1 0x20 PUSH1 0x0 KECCAK256 SWAP1 JUMPDEST DUP2 SLOAD DUP2 MSTORE SWAP1 PUSH1 0x1 ADD SWAP1 PUSH1 0x20 ADD DUP1 DUP4 GT PUSH2 0x11DC JUMPI DUP3 SWAP1 SUB PUSH1 0x1F AND DUP3 ADD SWAP2 JUMPDEST POP POP POP POP POP DUP2 MSTORE PUSH1 0x20 ADD PUSH1 0x6 DUP3 ADD DUP1 SLOAD PUSH2 0x1212 SWAP1 PUSH2 0x1ED9 JUMP JUMPDEST DUP1 PUSH1 0x1F ADD PUSH1 0x20 DUP1 SWAP2 DIV MUL PUSH1 0x20 ADD PUSH1 0x40 MLOAD SWAP1 DUP2 ADD PUSH1 0x40 MSTORE DUP1 SWAP3 SWAP2 SWAP1 DUP2 DUP2 MSTORE PUSH1 0x20 ADD DUP3 DUP1 SLOAD PUSH2 0x123E SWAP1 PUSH2 0x1ED9 JUMP JUMPDEST DUP1 ISZERO PUSH2 0x128B JUMPI DUP1 PUSH1 0x1F LT PUSH2 0x1260 JUMPI PUSH2 0x100 DUP1 DUP4 SLOAD DIV MUL DUP4 MSTORE SWAP2 PUSH1 0x20 ADD SWAP2 PUSH2 0x128B JUMP JUMPDEST DUP3 ADD SWAP2 SWAP1 PUSH1 0x0 MSTORE PUSH1 0x20 PUSH1 0x0 KECCAK256 SWAP1 JUMPDEST DUP2 SLOAD DUP2 MSTORE SWAP1 PUSH1 0x1 ADD SWAP1 PUSH1 0x20 ADD DUP1 DUP4 GT PUSH2 0x126E JUMPI DUP3 SWAP1 SUB PUSH1 0x1F AND DUP3 ADD SWAP2 JUMPDEST POP POP POP POP POP DUP2 MSTORE PUSH1 0x20 ADD PUSH1 0x7 DUP3 ADD DUP1 SLOAD PUSH2 0x12A4 SWAP1 PUSH2 0x1ED9 JUMP JUMPDEST DUP1 PUSH1 0x1F ADD PUSH1 0x20 DUP1 SWAP2 DIV MUL PUSH1 0x20 ADD PUSH1 0x40 MLOAD SWAP1 DUP2 ADD PUSH1 0x40 MSTORE DUP1 SWAP3 SWAP2 SWAP1 DUP2 DUP2 MSTORE PUSH1 0x20 ADD DUP3 DUP1 SLOAD PUSH2 0x12D0 SWAP1 PUSH2 0x1ED9 JUMP JUMPDEST DUP1 ISZERO PUSH2 0x131D JUMPI DUP1 PUSH1 0x1F LT PUSH2 0x12F2 JUMPI PUSH2 0x100 DUP1 DUP4 SLOAD DIV MUL DUP4 MSTORE SWAP2 PUSH1 0x20 ADD SWAP2 PUSH2 0x131D JUMP JUMPDEST DUP3 ADD SWAP2 SWAP1 PUSH1 0x0 MSTORE PUSH1 0x20 PUSH1 0x0 KECCAK256 SWAP1 JUMPDEST DUP2 SLOAD DUP2 MSTORE SWAP1 PUSH1 0x1 ADD SWAP1 PUSH1 0x20 ADD DUP1 DUP4 GT PUSH2 0x1300 JUMPI DUP3 SWAP1 SUB PUSH1 0x1F AND DUP3 ADD SWAP2 JUMPDEST POP POP POP POP POP DUP2 MSTORE PUSH1 0x20 ADD PUSH1 0x8 DUP3 ADD DUP1 SLOAD PUSH2 0x1336 SWAP1 PUSH2 0x1ED9 JUMP JUMPDEST DUP1 PUSH1 0x1F ADD PUSH1 0x20 DUP1 SWAP2 DIV MUL PUSH1 0x20 ADD PUSH1 0x40 MLOAD SWAP1 DUP2 ADD PUSH1 0x40 MSTORE DUP1 SWAP3 SWAP2 SWAP1 DUP2 DUP2 MSTORE PUSH1 0x20 ADD DUP3 DUP1 SLOAD PUSH2 0x1362 SWAP1 PUSH2 0x1ED9 JUMP JUMPDEST DUP1 ISZERO PUSH2 0x13AF JUMPI DUP1 PUSH1 0x1F LT PUSH2 0x1384 JUMPI PUSH2 0x100 DUP1 DUP4 SLOAD DIV MUL DUP4 MSTORE SWAP2 PUSH1 0x20 ADD SWAP2 PUSH2 0x13AF JUMP JUMPDEST DUP3 ADD SWAP2 SWAP1 PUSH1 0x0 MSTORE PUSH1 0x20 PUSH1 0x0 KECCAK256 SWAP1 JUMPDEST DUP2 SLOAD DUP2 MSTORE SWAP1 PUSH1 0x1 ADD SWAP1 PUSH1 0x20 ADD DUP1 DUP4 GT PUSH2 0x1392 JUMPI DUP3 SWAP1 SUB PUSH1 0x1F AND DUP3 ADD SWAP2 JUMPDEST POP POP POP POP POP DUP2 MSTORE PUSH1 0x20 ADD PUSH1 0x9 DUP3 ADD DUP1 SLOAD PUSH2 0x13C8 SWAP1 PUSH2 0x1ED9 JUMP JUMPDEST DUP1 PUSH1 0x1F ADD PUSH1 0x20 DUP1 SWAP2 DIV MUL PUSH1 0x20 ADD PUSH1 0x40 MLOAD SWAP1 DUP2 ADD PUSH1 0x40 MSTORE DUP1 SWAP3 SWAP2 SWAP1 DUP2 DUP2 MSTORE PUSH1 0x20 ADD DUP3 DUP1 SLOAD PUSH2 0x13F4 SWAP1 PUSH2 0x1ED9 JUMP JUMPDEST DUP1 ISZERO PUSH2 0x1441 JUMPI DUP1 PUSH1 0x1F LT PUSH2 0x1416 JUMPI PUSH2 0x100 DUP1 DUP4 SLOAD DIV MUL DUP4 MSTORE SWAP2 PUSH1 0x20 ADD SWAP2 PUSH2 0x1441 JUMP JUMPDEST DUP3 ADD SWAP2 SWAP1 PUSH1 0x0 MSTORE PUSH1 0x20 PUSH1 0x0 KECCAK256 SWAP1 JUMPDEST DUP2 SLOAD DUP2 MSTORE SWAP1 PUSH1 0x1 ADD SWAP1 PUSH1 0x20 ADD DUP1 DUP4 GT PUSH2 0x1424 JUMPI DUP3 SWAP1 SUB PUSH1 0x1F AND DUP3 ADD SWAP2 JUMPDEST POP POP POP POP POP DUP2 MSTORE PUSH1 0x20 ADD PUSH1 0xA DUP3 ADD DUP1 SLOAD PUSH2 0x145A SWAP1 PUSH2 0x1ED9 JUMP JUMPDEST DUP1 PUSH1 0x1F ADD PUSH1 0x20 DUP1 SWAP2 DIV MUL PUSH1 0x20 ADD PUSH1 0x40 MLOAD SWAP1 DUP2 ADD PUSH1 0x40 MSTORE DUP1 SWAP3 SWAP2 SWAP1 DUP2 DUP2 MSTORE PUSH1 0x20 ADD DUP3 DUP1 SLOAD PUSH2 0x1486 SWAP1 PUSH2 0x1ED9 JUMP JUMPDEST DUP1 ISZERO PUSH2 0x14D3 JUMPI DUP1 PUSH1 0x1F LT PUSH2 0x14A8 JUMPI PUSH2 0x100 DUP1 DUP4 SLOAD DIV MUL DUP4 MSTORE SWAP2 PUSH1 0x20 ADD SWAP2 PUSH2 0x14D3 JUMP JUMPDEST DUP3 ADD SWAP2 SWAP1 PUSH1 0x0 MSTORE PUSH1 0x20 PUSH1 0x0 KECCAK256 SWAP1 JUMPDEST DUP2 SLOAD DUP2 MSTORE SWAP1 PUSH1 0x1 ADD SWAP1 PUSH1 0x20 ADD DUP1 DUP4 GT PUSH2 0x14B6 JUMPI DUP3 SWAP1 SUB PUSH1 0x1F AND DUP3 ADD SWAP2 JUMPDEST POP POP POP POP POP DUP2 MSTORE POP POP SWAP3 POP POP POP SWAP3 SWAP2 POP POP JUMP JUMPDEST PUSH1 0x0 DUP3 PUSH1 0x0 DUP1 MLOAD PUSH1 0x20 PUSH2 0x2061 DUP4 CODECOPY DUP2 MLOAD SWAP2 MSTORE DUP2 EQ PUSH2 0x1516 JUMPI PUSH1 0x40 MLOAD PUSH3 0x461BCD PUSH1 0xE5 SHL DUP2 MSTORE PUSH1 0x4 ADD PUSH2 0x30C SWAP1 PUSH2 0x1E6B JUMP JUMPDEST DUP5 DUP1 PUSH1 0x1 GT ISZERO DUP1 ISZERO PUSH2 0x152A JUMPI POP PUSH1 0x2 SLOAD DUP2 GT ISZERO JUMPDEST PUSH2 0x1546 JUMPI PUSH1 0x40 MLOAD PUSH3 0x461BCD PUSH1 0xE5 SHL DUP2 MSTORE PUSH1 0x4 ADD PUSH2 0x30C SWAP1 PUSH2 0x201C JUMP JUMPDEST PUSH1 0x0 DUP7 DUP2 MSTORE PUSH1 0x1 PUSH1 0x20 MSTORE PUSH1 0x40 SWAP1 KECCAK256 PUSH1 0x7 ADD PUSH2 0xB10 DUP6 DUP3 PUSH2 0x1F5C JUMP JUMPDEST PUSH1 0x0 DUP2 PUSH1 0x0 DUP1 MLOAD PUSH1 0x20 PUSH2 0x2061 DUP4 CODECOPY DUP2 MLOAD SWAP2 MSTORE DUP2 EQ PUSH2 0x1591 JUMPI PUSH1 0x40 MLOAD PUSH3 0x461BCD PUSH1 0xE5 SHL DUP2 MSTORE PUSH1 0x4 ADD PUSH2 0x30C SWAP1 PUSH2 0x1E6B JUMP JUMPDEST PUSH1 0x1 JUMPDEST PUSH1 0x2 SLOAD DUP2 GT PUSH2 0x15ED JUMPI PUSH1 0x0 DUP2 DUP2 MSTORE PUSH1 0x1 PUSH1 0x20 MSTORE PUSH1 0x40 SWAP1 KECCAK256 PUSH1 0x2 ADD SLOAD PUSH1 0x1 PUSH1 0x1 PUSH1 0xA0 SHL SUB DUP1 DUP8 AND SWAP2 AND SUB PUSH2 0x15DB JUMPI PUSH1 0x0 SWAP1 DUP2 MSTORE PUSH1 0x1 PUSH1 0x20 DUP2 SWAP1 MSTORE PUSH1 0x40 SWAP1 SWAP2 KECCAK256 ADD SLOAD SWAP2 POP PUSH2 0x466 JUMP JUMPDEST DUP1 PUSH2 0x15E5 DUP2 PUSH2 0x1EB2 JUMP JUMPDEST SWAP2 POP POP PUSH2 0x1594 JUMP JUMPDEST POP PUSH1 0x0 SWAP5 SWAP4 POP POP POP POP JUMP JUMPDEST PUSH1 0x0 DUP3 PUSH1 0x0 DUP1 MLOAD PUSH1 0x20 PUSH2 0x2061 DUP4 CODECOPY DUP2 MLOAD SWAP2 MSTORE DUP2 EQ PUSH2 0x1628 JUMPI PUSH1 0x40 MLOAD PUSH3 0x461BCD PUSH1 0xE5 SHL DUP2 MSTORE PUSH1 0x4 ADD PUSH2 0x30C SWAP1 PUSH2 0x1E6B JUMP JUMPDEST DUP5 DUP1 PUSH1 0x1 GT ISZERO DUP1 ISZERO PUSH2 0x163C JUMPI POP PUSH1 0x2 SLOAD DUP2 GT ISZERO JUMPDEST PUSH2 0x1658 JUMPI PUSH1 0x40 MLOAD PUSH3 0x461BCD PUSH1 0xE5 SHL DUP2 MSTORE PUSH1 0x4 ADD PUSH2 0x30C SWAP1 PUSH2 0x201C JUMP JUMPDEST PUSH1 0x0 DUP7 DUP2 MSTORE PUSH1 0x1 PUSH1 0x20 MSTORE PUSH1 0x40 SWAP1 KECCAK256 PUSH1 0x8 ADD PUSH2 0xB10 DUP6 DUP3 PUSH2 0x1F5C JUMP JUMPDEST PUSH1 0x0 DUP3 PUSH1 0x0 DUP1 MLOAD PUSH1 0x20 PUSH2 0x2061 DUP4 CODECOPY DUP2 MLOAD SWAP2 MSTORE DUP2 EQ PUSH2 0x16A3 JUMPI PUSH1 0x40 MLOAD PUSH3 0x461BCD PUSH1 0xE5 SHL DUP2 MSTORE PUSH1 0x4 ADD PUSH2 0x30C SWAP1 PUSH2 0x1E6B JUMP JUMPDEST DUP5 DUP1 PUSH1 0x1 GT ISZERO DUP1 ISZERO PUSH2 0x16B7 JUMPI POP PUSH1 0x2 SLOAD DUP2 GT ISZERO JUMPDEST PUSH2 0x16D3 JUMPI PUSH1 0x40 MLOAD PUSH3 0x461BCD PUSH1 0xE5 SHL DUP2 MSTORE PUSH1 0x4 ADD PUSH2 0x30C SWAP1 PUSH2 0x201C JUMP JUMPDEST PUSH1 0x0 DUP7 DUP2 MSTORE PUSH1 0x1 PUSH1 0x20 MSTORE PUSH1 0x40 SWAP1 KECCAK256 PUSH1 0x4 ADD PUSH2 0xB10 DUP6 DUP3 PUSH2 0x1F5C JUMP JUMPDEST PUSH1 0x0 DUP3 PUSH1 0x0 DUP1 MLOAD PUSH1 0x20 PUSH2 0x2061 DUP4 CODECOPY DUP2 MLOAD SWAP2 MSTORE DUP2 EQ PUSH2 0x171E JUMPI PUSH1 0x40 MLOAD PUSH3 0x461BCD PUSH1 0xE5 SHL DUP2 MSTORE PUSH1 0x4 ADD PUSH2 0x30C SWAP1 PUSH2 0x1E6B JUMP JUMPDEST DUP5 DUP1 PUSH1 0x1 GT ISZERO DUP1 ISZERO PUSH2 0x1732 JUMPI POP PUSH1 0x2 SLOAD DUP2 GT ISZERO JUMPDEST PUSH2 0x174E JUMPI PUSH1 0x40 MLOAD PUSH3 0x461BCD PUSH1 0xE5 SHL DUP2 MSTORE PUSH1 0x4 ADD PUSH2 0x30C SWAP1 PUSH2 0x201C JUMP JUMPDEST PUSH1 0x0 DUP7 DUP2 MSTORE PUSH1 0x1 PUSH1 0x20 MSTORE PUSH1 0x40 SWAP1 KECCAK256 PUSH1 0x5 ADD PUSH2 0xB10 DUP6 DUP3 PUSH2 0x1F5C JUMP JUMPDEST PUSH2 0x1771 PUSH2 0x181E JUMP JUMPDEST PUSH1 0x1 PUSH1 0x1 PUSH1 0xA0 SHL SUB DUP2 AND PUSH2 0x17D6 JUMPI PUSH1 0x40 MLOAD PUSH3 0x461BCD PUSH1 0xE5 SHL DUP2 MSTORE PUSH1 0x20 PUSH1 0x4 DUP3 ADD MSTORE PUSH1 0x26 PUSH1 0x24 DUP3 ADD MSTORE PUSH32 0x4F776E61626C653A206E6577206F776E657220697320746865207A65726F2061 PUSH1 0x44 DUP3 ADD MSTORE PUSH6 0x646472657373 PUSH1 0xD0 SHL PUSH1 0x64 DUP3 ADD MSTORE PUSH1 0x84 ADD PUSH2 0x30C JUMP JUMPDEST PUSH2 0x17DF DUP2 PUSH2 0x1889 JUMP JUMPDEST POP JUMP JUMPDEST PUSH1 0x0 DUP2 PUSH1 0x0 DUP1 MLOAD PUSH1 0x20 PUSH2 0x2061 DUP4 CODECOPY DUP2 MLOAD SWAP2 MSTORE DUP2 EQ PUSH2 0x1812 JUMPI PUSH1 0x40 MLOAD PUSH3 0x461BCD PUSH1 0xE5 SHL DUP2 MSTORE PUSH1 0x4 ADD PUSH2 0x30C SWAP1 PUSH2 0x1E6B JUMP JUMPDEST PUSH1 0x2 SLOAD SWAP2 POP JUMPDEST POP SWAP2 SWAP1 POP JUMP JUMPDEST CALLER PUSH2 0x1831 PUSH1 0x0 SLOAD PUSH1 0x1 PUSH1 0x1 PUSH1 0xA0 SHL SUB AND SWAP1 JUMP JUMPDEST PUSH1 0x1 PUSH1 0x1 PUSH1 0xA0 SHL SUB AND EQ PUSH2 0x1887 JUMPI PUSH1 0x40 MLOAD PUSH3 0x461BCD PUSH1 0xE5 SHL DUP2 MSTORE PUSH1 0x20 PUSH1 0x4 DUP3 ADD DUP2 SWAP1 MSTORE PUSH1 0x24 DUP3 ADD MSTORE PUSH32 0x4F776E61626C653A2063616C6C6572206973206E6F7420746865206F776E6572 PUSH1 0x44 DUP3 ADD MSTORE PUSH1 0x64 ADD PUSH2 0x30C JUMP JUMPDEST JUMP JUMPDEST PUSH1 0x0 DUP1 SLOAD PUSH1 0x1 PUSH1 0x1 PUSH1 0xA0 SHL SUB DUP4 DUP2 AND PUSH1 0x1 PUSH1 0x1 PUSH1 0xA0 SHL SUB NOT DUP4 AND DUP2 OR DUP5 SSTORE PUSH1 0x40 MLOAD SWAP2 SWAP1 SWAP3 AND SWAP3 DUP4 SWAP2 PUSH32 0x8BE0079C531659141344CD1FD0A4F28419497F9722A3DAAFE3B4186F6B6457E0 SWAP2 SWAP1 LOG3 POP POP JUMP JUMPDEST PUSH1 0x40 MLOAD DUP1 PUSH2 0x160 ADD PUSH1 0x40 MSTORE DUP1 PUSH1 0x0 DUP2 MSTORE PUSH1 0x20 ADD PUSH1 0x0 DUP2 MSTORE PUSH1 0x20 ADD PUSH1 0x0 PUSH1 0x1 PUSH1 0x1 PUSH1 0xA0 SHL SUB AND DUP2 MSTORE PUSH1 0x20 ADD PUSH1 0x60 DUP2 MSTORE PUSH1 0x20 ADD PUSH1 0x60 DUP2 MSTORE PUSH1 0x20 ADD PUSH1 0x60 DUP2 MSTORE PUSH1 0x20 ADD PUSH1 0x60 DUP2 MSTORE PUSH1 0x20 ADD PUSH1 0x60 DUP2 MSTORE PUSH1 0x20 ADD PUSH1 0x60 DUP2 MSTORE PUSH1 0x20 ADD PUSH1 0x60 DUP2 MSTORE PUSH1 0x20 ADD PUSH1 0x60 DUP2 MSTORE POP SWAP1 JUMP JUMPDEST PUSH4 0x4E487B71 PUSH1 0xE0 SHL PUSH1 0x0 MSTORE PUSH1 0x41 PUSH1 0x4 MSTORE PUSH1 0x24 PUSH1 0x0 REVERT JUMPDEST PUSH1 0x40 MLOAD PUSH2 0x160 DUP2 ADD PUSH8 0xFFFFFFFFFFFFFFFF DUP2 GT DUP3 DUP3 LT OR ISZERO PUSH2 0x1976 JUMPI PUSH2 0x1976 PUSH2 0x193C JUMP JUMPDEST PUSH1 0x40 MSTORE SWAP1 JUMP JUMPDEST DUP1 CALLDATALOAD PUSH1 0x1 PUSH1 0x1 PUSH1 0xA0 SHL SUB DUP2 AND DUP2 EQ PUSH2 0x1993 JUMPI PUSH1 0x0 DUP1 REVERT JUMPDEST SWAP2 SWAP1 POP JUMP JUMPDEST PUSH1 0x0 DUP3 PUSH1 0x1F DUP4 ADD SLT PUSH2 0x19A9 JUMPI PUSH1 0x0 DUP1 REVERT JUMPDEST DUP2 CALLDATALOAD PUSH8 0xFFFFFFFFFFFFFFFF DUP1 DUP3 GT ISZERO PUSH2 0x19C4 JUMPI PUSH2 0x19C4 PUSH2 0x193C JUMP JUMPDEST PUSH1 0x40 MLOAD PUSH1 0x1F DUP4 ADD PUSH1 0x1F NOT SWAP1 DUP2 AND PUSH1 0x3F ADD AND DUP2 ADD SWAP1 DUP3 DUP3 GT DUP2 DUP4 LT OR ISZERO PUSH2 0x19EC JUMPI PUSH2 0x19EC PUSH2 0x193C JUMP JUMPDEST DUP2 PUSH1 0x40 MSTORE DUP4 DUP2 MSTORE DUP7 PUSH1 0x20 DUP6 DUP9 ADD ADD GT ISZERO PUSH2 0x1A05 JUMPI PUSH1 0x0 DUP1 REVERT JUMPDEST DUP4 PUSH1 0x20 DUP8 ADD PUSH1 0x20 DUP4 ADD CALLDATACOPY PUSH1 0x0 PUSH1 0x20 DUP6 DUP4 ADD ADD MSTORE DUP1 SWAP5 POP POP POP POP POP SWAP3 SWAP2 POP POP JUMP JUMPDEST PUSH1 0x0 DUP1 PUSH1 0x40 DUP4 DUP6 SUB SLT ISZERO PUSH2 0x1A38 JUMPI PUSH1 0x0 DUP1 REVERT JUMPDEST DUP3 CALLDATALOAD PUSH8 0xFFFFFFFFFFFFFFFF DUP1 DUP3 GT ISZERO PUSH2 0x1A50 JUMPI PUSH1 0x0 DUP1 REVERT JUMPDEST SWAP1 DUP5 ADD SWAP1 PUSH2 0x160 DUP3 DUP8 SUB SLT ISZERO PUSH2 0x1A65 JUMPI PUSH1 0x0 DUP1 REVERT JUMPDEST PUSH2 0x1A6D PUSH2 0x1952 JUMP JUMPDEST DUP3 CALLDATALOAD DUP2 MSTORE PUSH1 0x20 DUP4 ADD CALLDATALOAD PUSH1 0x20 DUP3 ADD MSTORE PUSH2 0x1A87 PUSH1 0x40 DUP5 ADD PUSH2 0x197C JUMP JUMPDEST PUSH1 0x40 DUP3 ADD MSTORE PUSH1 0x60 DUP4 ADD CALLDATALOAD DUP3 DUP2 GT ISZERO PUSH2 0x1A9E JUMPI PUSH1 0x0 DUP1 REVERT JUMPDEST PUSH2 0x1AAA DUP9 DUP3 DUP7 ADD PUSH2 0x1998 JUMP JUMPDEST PUSH1 0x60 DUP4 ADD MSTORE POP PUSH1 0x80 DUP4 ADD CALLDATALOAD DUP3 DUP2 GT ISZERO PUSH2 0x1AC2 JUMPI PUSH1 0x0 DUP1 REVERT JUMPDEST PUSH2 0x1ACE DUP9 DUP3 DUP7 ADD PUSH2 0x1998 JUMP JUMPDEST PUSH1 0x80 DUP4 ADD MSTORE POP PUSH1 0xA0 DUP4 ADD CALLDATALOAD DUP3 DUP2 GT ISZERO PUSH2 0x1AE6 JUMPI PUSH1 0x0 DUP1 REVERT JUMPDEST PUSH2 0x1AF2 DUP9 DUP3 DUP7 ADD PUSH2 0x1998 JUMP JUMPDEST PUSH1 0xA0 DUP4 ADD MSTORE POP PUSH1 0xC0 DUP4 ADD CALLDATALOAD DUP3 DUP2 GT ISZERO PUSH2 0x1B0A JUMPI PUSH1 0x0 DUP1 REVERT JUMPDEST PUSH2 0x1B16 DUP9 DUP3 DUP7 ADD PUSH2 0x1998 JUMP JUMPDEST PUSH1 0xC0 DUP4 ADD MSTORE POP PUSH1 0xE0 DUP4 ADD CALLDATALOAD DUP3 DUP2 GT ISZERO PUSH2 0x1B2E JUMPI PUSH1 0x0 DUP1 REVERT JUMPDEST PUSH2 0x1B3A DUP9 DUP3 DUP7 ADD PUSH2 0x1998 JUMP JUMPDEST PUSH1 0xE0 DUP4 ADD MSTORE POP PUSH2 0x100 DUP1 DUP5 ADD CALLDATALOAD DUP4 DUP2 GT ISZERO PUSH2 0x1B54 JUMPI PUSH1 0x0 DUP1 REVERT JUMPDEST PUSH2 0x1B60 DUP10 DUP3 DUP8 ADD PUSH2 0x1998 JUMP JUMPDEST DUP3 DUP5 ADD MSTORE POP POP PUSH2 0x120 DUP1 DUP5 ADD CALLDATALOAD DUP4 DUP2 GT ISZERO PUSH2 0x1B7A JUMPI PUSH1 0x0 DUP1 REVERT JUMPDEST PUSH2 0x1B86 DUP10 DUP3 DUP8 ADD PUSH2 0x1998 JUMP JUMPDEST DUP3 DUP5 ADD MSTORE POP POP PUSH2 0x140 DUP1 DUP5 ADD CALLDATALOAD DUP4 DUP2 GT ISZERO PUSH2 0x1BA0 JUMPI PUSH1 0x0 DUP1 REVERT JUMPDEST PUSH2 0x1BAC DUP10 DUP3 DUP8 ADD PUSH2 0x1998 JUMP JUMPDEST SWAP2 DUP4 ADD SWAP2 SWAP1 SWAP2 MSTORE POP SWAP7 PUSH1 0x20 SWAP6 SWAP1 SWAP6 ADD CALLDATALOAD SWAP6 POP POP POP POP POP JUMP JUMPDEST PUSH1 0x0 DUP1 PUSH1 0x40 DUP4 DUP6 SUB SLT ISZERO PUSH2 0x1BD7 JUMPI PUSH1 0x0 DUP1 REVERT JUMPDEST PUSH2 0x1BE0 DUP4 PUSH2 0x197C JUMP JUMPDEST SWAP5 PUSH1 0x20 SWAP4 SWAP1 SWAP4 ADD CALLDATALOAD SWAP4 POP POP POP JUMP JUMPDEST PUSH1 0x0 DUP2 MLOAD DUP1 DUP5 MSTORE PUSH1 0x0 JUMPDEST DUP2 DUP2 LT ISZERO PUSH2 0x1C14 JUMPI PUSH1 0x20 DUP2 DUP6 ADD DUP2 ADD MLOAD DUP7 DUP4 ADD DUP3 ADD MSTORE ADD PUSH2 0x1BF8 JUMP JUMPDEST POP PUSH1 0x0 PUSH1 0x20 DUP3 DUP7 ADD ADD MSTORE PUSH1 0x20 PUSH1 0x1F NOT PUSH1 0x1F DUP4 ADD AND DUP6 ADD ADD SWAP2 POP POP SWAP3 SWAP2 POP POP JUMP JUMPDEST PUSH1 0x20 DUP2 MSTORE DUP2 MLOAD PUSH1 0x20 DUP3 ADD MSTORE PUSH1 0x20 DUP3 ADD MLOAD PUSH1 0x40 DUP3 ADD MSTORE PUSH1 0x0 PUSH1 0x40 DUP4 ADD MLOAD PUSH2 0x1C65 PUSH1 0x60 DUP5 ADD DUP3 PUSH1 0x1 PUSH1 0x1 PUSH1 0xA0 SHL SUB AND SWAP1 MSTORE JUMP JUMPDEST POP PUSH1 0x60 DUP4 ADD MLOAD PUSH2 0x160 DUP1 PUSH1 0x80 DUP6 ADD MSTORE PUSH2 0x1C82 PUSH2 0x180 DUP6 ADD DUP4 PUSH2 0x1BEE JUMP JUMPDEST SWAP2 POP PUSH1 0x80 DUP6 ADD MLOAD PUSH1 0x1F NOT DUP1 DUP7 DUP6 SUB ADD PUSH1 0xA0 DUP8 ADD MSTORE PUSH2 0x1CA0 DUP5 DUP4 PUSH2 0x1BEE JUMP JUMPDEST SWAP4 POP PUSH1 0xA0 DUP8 ADD MLOAD SWAP2 POP DUP1 DUP7 DUP6 SUB ADD PUSH1 0xC0 DUP8 ADD MSTORE PUSH2 0x1CBD DUP5 DUP4 PUSH2 0x1BEE JUMP JUMPDEST SWAP4 POP PUSH1 0xC0 DUP8 ADD MLOAD SWAP2 POP DUP1 DUP7 DUP6 SUB ADD PUSH1 0xE0 DUP8 ADD MSTORE PUSH2 0x1CDA DUP5 DUP4 PUSH2 0x1BEE JUMP JUMPDEST SWAP4 POP PUSH1 0xE0 DUP8 ADD MLOAD SWAP2 POP PUSH2 0x100 DUP2 DUP8 DUP7 SUB ADD DUP2 DUP9 ADD MSTORE PUSH2 0x1CF9 DUP6 DUP5 PUSH2 0x1BEE JUMP JUMPDEST SWAP5 POP DUP1 DUP9 ADD MLOAD SWAP3 POP POP PUSH2 0x120 DUP2 DUP8 DUP7 SUB ADD DUP2 DUP9 ADD MSTORE PUSH2 0x1D18 DUP6 DUP5 PUSH2 0x1BEE JUMP JUMPDEST SWAP5 POP DUP1 DUP9 ADD MLOAD SWAP3 POP POP PUSH2 0x140 DUP2 DUP8 DUP7 SUB ADD DUP2 DUP9 ADD MSTORE PUSH2 0x1D37 DUP6 DUP5 PUSH2 0x1BEE JUMP JUMPDEST SWAP1 DUP9 ADD MLOAD DUP8 DUP3 SUB SWAP1 SWAP3 ADD DUP5 DUP9 ADD MSTORE SWAP4 POP SWAP1 POP PUSH2 0x1D53 DUP4 DUP3 PUSH2 0x1BEE JUMP JUMPDEST SWAP7 SWAP6 POP POP POP POP POP POP JUMP JUMPDEST PUSH1 0x0 DUP1 PUSH1 0x0 PUSH1 0x60 DUP5 DUP7 SUB SLT ISZERO PUSH2 0x1D72 JUMPI PUSH1 0x0 DUP1 REVERT JUMPDEST POP POP DUP2 CALLDATALOAD SWAP4 PUSH1 0x20 DUP4 ADD CALLDATALOAD SWAP4 POP PUSH1 0x40 SWAP1 SWAP3 ADD CALLDATALOAD SWAP2 SWAP1 POP JUMP JUMPDEST PUSH1 0x0 DUP1 PUSH1 0x0 PUSH1 0x60 DUP5 DUP7 SUB SLT ISZERO PUSH2 0x1D9E JUMPI PUSH1 0x0 DUP1 REVERT JUMPDEST DUP4 CALLDATALOAD SWAP3 POP PUSH1 0x20 DUP5 ADD CALLDATALOAD SWAP2 POP PUSH1 0x40 DUP5 ADD CALLDATALOAD PUSH8 0xFFFFFFFFFFFFFFFF DUP2 GT ISZERO PUSH2 0x1DC3 JUMPI PUSH1 0x0 DUP1 REVERT JUMPDEST PUSH2 0x1DCF DUP7 DUP3 DUP8 ADD PUSH2 0x1998 JUMP JUMPDEST SWAP2 POP POP SWAP3 POP SWAP3 POP SWAP3 JUMP JUMPDEST PUSH1 0x0 DUP1 PUSH1 0x0 PUSH1 0x60 DUP5 DUP7 SUB SLT ISZERO PUSH2 0x1DEE JUMPI PUSH1 0x0 DUP1 REVERT JUMPDEST DUP4 CALLDATALOAD SWAP3 POP PUSH1 0x20 DUP5 ADD CALLDATALOAD SWAP2 POP PUSH2 0x1E05 PUSH1 0x40 DUP6 ADD PUSH2 0x197C JUMP JUMPDEST SWAP1 POP SWAP3 POP SWAP3 POP SWAP3 JUMP JUMPDEST PUSH1 0x0 DUP1 PUSH1 0x40 DUP4 DUP6 SUB SLT ISZERO PUSH2 0x1E21 JUMPI PUSH1 0x0 DUP1 REVERT JUMPDEST POP POP DUP1 CALLDATALOAD SWAP3 PUSH1 0x20 SWAP1 SWAP2 ADD CALLDATALOAD SWAP2 POP JUMP JUMPDEST PUSH1 0x0 PUSH1 0x20 DUP3 DUP5 SUB SLT ISZERO PUSH2 0x1E42 JUMPI PUSH1 0x0 DUP1 REVERT JUMPDEST PUSH2 0x1E4B DUP3 PUSH2 0x197C JUMP JUMPDEST SWAP4 SWAP3 POP POP POP JUMP JUMPDEST PUSH1 0x0 PUSH1 0x20 DUP3 DUP5 SUB SLT ISZERO PUSH2 0x1E64 JUMPI PUSH1 0x0 DUP1 REVERT JUMPDEST POP CALLDATALOAD SWAP2 SWAP1 POP JUMP JUMPDEST PUSH1 0x20 DUP1 DUP3 MSTORE PUSH1 0x27 SWAP1 DUP3 ADD MSTORE PUSH32 0x4461746162617365204C697374427573696E6573733A20536563726574206B65 PUSH1 0x40 DUP3 ADD MSTORE PUSH7 0x3C9032B93937B9 PUSH1 0xC9 SHL PUSH1 0x60 DUP3 ADD MSTORE PUSH1 0x80 ADD SWAP1 JUMP JUMPDEST PUSH1 0x0 PUSH1 0x1 DUP3 ADD PUSH2 0x1ED2 JUMPI PUSH4 0x4E487B71 PUSH1 0xE0 SHL PUSH1 0x0 MSTORE PUSH1 0x11 PUSH1 0x4 MSTORE PUSH1 0x24 PUSH1 0x0 REVERT JUMPDEST POP PUSH1 0x1 ADD SWAP1 JUMP JUMPDEST PUSH1 0x1 DUP2 DUP2 SHR SWAP1 DUP3 AND DUP1 PUSH2 0x1EED JUMPI PUSH1 0x7F DUP3 AND SWAP2 POP JUMPDEST PUSH1 0x20 DUP3 LT DUP2 SUB PUSH2 0x1818 JUMPI PUSH4 0x4E487B71 PUSH1 0xE0 SHL PUSH1 0x0 MSTORE PUSH1 0x22 PUSH1 0x4 MSTORE PUSH1 0x24 PUSH1 0x0 REVERT JUMPDEST PUSH1 0x1F DUP3 GT ISZERO PUSH2 0x1F57 JUMPI PUSH1 0x0 DUP2 DUP2 MSTORE PUSH1 0x20 DUP2 KECCAK256 PUSH1 0x1F DUP6 ADD PUSH1 0x5 SHR DUP2 ADD PUSH1 0x20 DUP7 LT ISZERO PUSH2 0x1F34 JUMPI POP DUP1 JUMPDEST PUSH1 0x1F DUP6 ADD PUSH1 0x5 SHR DUP3 ADD SWAP2 POP JUMPDEST DUP2 DUP2 LT ISZERO PUSH2 0x1F53 JUMPI DUP3 DUP2 SSTORE PUSH1 0x1 ADD PUSH2 0x1F40 JUMP JUMPDEST POP POP POP JUMPDEST POP POP POP JUMP JUMPDEST DUP2 MLOAD PUSH8 0xFFFFFFFFFFFFFFFF DUP2 GT ISZERO PUSH2 0x1F76 JUMPI PUSH2 0x1F76 PUSH2 0x193C JUMP JUMPDEST PUSH2 0x1F8A DUP2 PUSH2 0x1F84 DUP5 SLOAD PUSH2 0x1ED9 JUMP JUMPDEST DUP5 PUSH2 0x1F0D JUMP JUMPDEST PUSH1 0x20 DUP1 PUSH1 0x1F DUP4 GT PUSH1 0x1 DUP2 EQ PUSH2 0x1FBF JUMPI PUSH1 0x0 DUP5 ISZERO PUSH2 0x1FA7 JUMPI POP DUP6 DUP4 ADD MLOAD JUMPDEST PUSH1 0x0 NOT PUSH1 0x3 DUP7 SWAP1 SHL SHR NOT AND PUSH1 0x1 DUP6 SWAP1 SHL OR DUP6 SSTORE PUSH2 0x1F53 JUMP JUMPDEST PUSH1 0x0 DUP6 DUP2 MSTORE PUSH1 0x20 DUP2 KECCAK256 PUSH1 0x1F NOT DUP7 AND SWAP2 JUMPDEST DUP3 DUP2 LT ISZERO PUSH2 0x1FEE JUMPI DUP9 DUP7 ADD MLOAD DUP3 SSTORE SWAP5 DUP5 ADD SWAP5 PUSH1 0x1 SWAP1 SWAP2 ADD SWAP1 DUP5 ADD PUSH2 0x1FCF JUMP JUMPDEST POP DUP6 DUP3 LT ISZERO PUSH2 0x200C JUMPI DUP8 DUP6 ADD MLOAD PUSH1 0x0 NOT PUSH1 0x3 DUP9 SWAP1 SHL PUSH1 0xF8 AND SHR NOT AND DUP2 SSTORE JUMPDEST POP POP POP POP POP PUSH1 0x1 SWAP1 DUP2 SHL ADD SWAP1 SSTORE POP JUMP JUMPDEST PUSH1 0x20 DUP1 DUP3 MSTORE PUSH1 0x24 SWAP1 DUP3 ADD MSTORE PUSH32 0x4461746162617365204C697374427573696E6573733A20496E76616C69642069 PUSH1 0x40 DUP3 ADD MSTORE PUSH4 0xDCC8CAF PUSH1 0xE3 SHL PUSH1 0x60 DUP3 ADD MSTORE PUSH1 0x80 ADD SWAP1 JUMP INVALID DUP15 AND DIV 0xA8 CODESIZE 0xD0 CALL 0xA9 0xB2 0xCD LOG1 0x4A MULMOD SWAP15 0x4C 0xEB ADDMOD 0xE9 PUSH7 0xCC6E05E8296F67 0xB0 0x2D PUSH2 0xA79F MULMOD LOG2 PUSH5 0x6970667358 0x22 SLT KECCAK256 STOP PUSH27 0x4E5C31322A7ABCC113545C7AD9E59D00A38BF8B97B133FC5F40B53 0xE1 GASLIMIT NOT PUSH5 0x736F6C6343 STOP ADDMOD LT STOP CALLER "
				},
				"gasEstimates": {
					"creation": {
						"codeDepositCost": "1674800",
						"executionCost": "30998",
						"totalCost": "1705798"
					},
					"external": {
						"add((uint256,uint256,address,string,string,string,string,string,string,string,string),bytes32)": "infinite",
						"at(uint256,bytes32)": "infinite",
						"atAddress(address,bytes32)": "infinite",
						"destroy()": "30023",
						"findIdByAddress(address,bytes32)": "infinite",
						"getLength(bytes32)": "infinite",
						"hide(uint256,bytes32)": "infinite",
						"owner()": "2324",
						"setCategory(uint256,bytes32,uint256)": "infinite",
						"setEmail(uint256,bytes32,string)": "infinite",
						"setGithub(uint256,bytes32,string)": "infinite",
						"setId(uint256,bytes32,uint256)": "infinite",
						"setLinkedin(uint256,bytes32,string)": "infinite",
						"setName(uint256,bytes32,string)": "infinite",
						"setPassword(uint256,bytes32,string)": "infinite",
						"setPhone(uint256,bytes32,string)": "infinite",
						"setProfessional(uint256,bytes32,string)": "infinite",
						"setSourceImage(uint256,bytes32,string)": "infinite",
						"setUser(uint256,bytes32,address)": "infinite",
						"transferOwnership(address)": "28454"
					}
				},
				"methodIdentifiers": {
					"add((uint256,uint256,address,string,string,string,string,string,string,string,string),bytes32)": "04a28c07",
					"at(uint256,bytes32)": "c78a6741",
					"atAddress(address,bytes32)": "236df93c",
					"destroy()": "83197ef0",
					"findIdByAddress(address,bytes32)": "d32a04c7",
					"getLength(bytes32)": "fd82e9dd",
					"hide(uint256,bytes32)": "b615c00a",
					"owner()": "8da5cb5b",
					"setCategory(uint256,bytes32,uint256)": "294b4b6b",
					"setEmail(uint256,bytes32,string)": "29cd6311",
					"setGithub(uint256,bytes32,string)": "d2af71a6",
					"setId(uint256,bytes32,uint256)": "8827b05f",
					"setLinkedin(uint256,bytes32,string)": "d45c8abf",
					"setName(uint256,bytes32,string)": "413896e4",
					"setPassword(uint256,bytes32,string)": "2c3ce919",
					"setPhone(uint256,bytes32,string)": "d49cb146",
					"setProfessional(uint256,bytes32,string)": "e3f34371",
					"setSourceImage(uint256,bytes32,string)": "800f2234",
					"setUser(uint256,bytes32,address)": "2e22eafe",
					"transferOwnership(address)": "f2fde38b"
				}
			},
			"storageLayout": {
				"storage": [
					{
						"astId": 4,
						"contract": "database/ListBusiness.sol:ListBusiness",
						"label": "_owner",
						"offset": 0,
						"slot": "0",
						"type": "t_address"
					},
					{
						"astId": 134,
						"contract": "database/ListBusiness.sol:ListBusiness",
						"label": "list",
						"offset": 0,
						"slot": "1",
						"type": "t_mapping(t_uint256,t_struct(Profile)701_storage)"
					},
					{
						"astId": 137,
						"contract": "database/ListBusiness.sol:ListBusiness",
						"label": "autoIncrement",
						"offset": 0,
						"slot": "2",
						"type": "t_uint256"
					}
				],
				"types": {
					"t_address": {
						"encoding": "inplace",
						"label": "address",
						"numberOfBytes": "20"
					},
					"t_mapping(t_uint256,t_struct(Profile)701_storage)": {
						"encoding": "mapping",
						"key": "t_uint256",
						"label": "mapping(uint256 => struct Profile)",
						"numberOfBytes": "32",
						"value": "t_struct(Profile)701_storage"
					},
					"t_string_storage": {
						"encoding": "bytes",
						"label": "string",
						"numberOfBytes": "32"
					},
					"t_struct(Profile)701_storage": {
						"encoding": "inplace",
						"label": "struct Profile",
						"members": [
							{
								"astId": 680,
								"contract": "database/ListBusiness.sol:ListBusiness",
								"label": "catergory",
								"offset": 0,
								"slot": "0",
								"type": "t_uint256"
							},
							{
								"astId": 682,
								"contract": "database/ListBusiness.sol:ListBusiness",
								"label": "id",
								"offset": 0,
								"slot": "1",
								"type": "t_uint256"
							},
							{
								"astId": 684,
								"contract": "database/ListBusiness.sol:ListBusiness",
								"label": "user",
								"offset": 0,
								"slot": "2",
								"type": "t_address"
							},
							{
								"astId": 686,
								"contract": "database/ListBusiness.sol:ListBusiness",
								"label": "name",
								"offset": 0,
								"slot": "3",
								"type": "t_string_storage"
							},
							{
								"astId": 688,
								"contract": "database/ListBusiness.sol:ListBusiness",
								"label": "phone",
								"offset": 0,
								"slot": "4",
								"type": "t_string_storage"
							},
							{
								"astId": 690,
								"contract": "database/ListBusiness.sol:ListBusiness",
								"label": "professional",
								"offset": 0,
								"slot": "5",
								"type": "t_string_storage"
							},
							{
								"astId": 692,
								"contract": "database/ListBusiness.sol:ListBusiness",
								"label": "email",
								"offset": 0,
								"slot": "6",
								"type": "t_string_storage"
							},
							{
								"astId": 694,
								"contract": "database/ListBusiness.sol:ListBusiness",
								"label": "github",
								"offset": 0,
								"slot": "7",
								"type": "t_string_storage"
							},
							{
								"astId": 696,
								"contract": "database/ListBusiness.sol:ListBusiness",
								"label": "linkedin",
								"offset": 0,
								"slot": "8",
								"type": "t_string_storage"
							},
							{
								"astId": 698,
								"contract": "database/ListBusiness.sol:ListBusiness",
								"label": "sourceImage",
								"offset": 0,
								"slot": "9",
								"type": "t_string_storage"
							},
							{
								"astId": 700,
								"contract": "database/ListBusiness.sol:ListBusiness",
								"label": "password",
								"offset": 0,
								"slot": "10",
								"type": "t_string_storage"
							}
						],
						"numberOfBytes": "352"
					},
					"t_uint256": {
						"encoding": "inplace",
						"label": "uint256",
						"numberOfBytes": "32"
					}
				}
			},
			"userdoc": {
				"kind": "user",
				"methods": {},
				"version": 1
			}
		}
	}
}