{
	"database/business/igg/ListIIGSWResult.sol": {
		"ListIIGSWResult": {
			"abi": [
				{
					"inputs": [],
					"stateMutability": "nonpayable",
					"type": "constructor"
				},
				{
					"anonymous": false,
					"inputs": [
						{
							"components": [
								{
									"internalType": "uint256",
									"name": "id",
									"type": "uint256"
								},
								{
									"internalType": "uint256",
									"name": "businessId",
									"type": "uint256"
								},
								{
									"internalType": "uint256",
									"name": "employeeId",
									"type": "uint256"
								},
								{
									"internalType": "uint256",
									"name": "testDate",
									"type": "uint256"
								},
								{
									"internalType": "enum IIGShiftTest",
									"name": "shiftTest",
									"type": "uint8"
								},
								{
									"internalType": "uint256",
									"name": "expireDate",
									"type": "uint256"
								},
								{
									"internalType": "uint256",
									"name": "speakingScore",
									"type": "uint256"
								},
								{
									"internalType": "uint256",
									"name": "writingScore",
									"type": "uint256"
								},
								{
									"internalType": "uint256",
									"name": "time",
									"type": "uint256"
								}
							],
							"indexed": false,
							"internalType": "struct IIGSWResult",
							"name": "item",
							"type": "tuple"
						}
					],
					"name": "Add",
					"type": "event"
				},
				{
					"anonymous": false,
					"inputs": [
						{
							"indexed": true,
							"internalType": "address",
							"name": "previousOwner",
							"type": "address"
						},
						{
							"indexed": true,
							"internalType": "address",
							"name": "newOwner",
							"type": "address"
						}
					],
					"name": "OwnershipTransferred",
					"type": "event"
				},
				{
					"anonymous": false,
					"inputs": [
						{
							"components": [
								{
									"internalType": "uint256",
									"name": "id",
									"type": "uint256"
								},
								{
									"internalType": "uint256",
									"name": "businessId",
									"type": "uint256"
								},
								{
									"internalType": "uint256",
									"name": "employeeId",
									"type": "uint256"
								},
								{
									"internalType": "uint256",
									"name": "testDate",
									"type": "uint256"
								},
								{
									"internalType": "enum IIGShiftTest",
									"name": "shiftTest",
									"type": "uint8"
								},
								{
									"internalType": "uint256",
									"name": "expireDate",
									"type": "uint256"
								},
								{
									"internalType": "uint256",
									"name": "speakingScore",
									"type": "uint256"
								},
								{
									"internalType": "uint256",
									"name": "writingScore",
									"type": "uint256"
								},
								{
									"internalType": "uint256",
									"name": "time",
									"type": "uint256"
								}
							],
							"indexed": false,
							"internalType": "struct IIGSWResult",
							"name": "item",
							"type": "tuple"
						}
					],
					"name": "Remove",
					"type": "event"
				},
				{
					"inputs": [
						{
							"components": [
								{
									"internalType": "uint256",
									"name": "id",
									"type": "uint256"
								},
								{
									"internalType": "uint256",
									"name": "businessId",
									"type": "uint256"
								},
								{
									"internalType": "uint256",
									"name": "employeeId",
									"type": "uint256"
								},
								{
									"internalType": "uint256",
									"name": "testDate",
									"type": "uint256"
								},
								{
									"internalType": "enum IIGShiftTest",
									"name": "shiftTest",
									"type": "uint8"
								},
								{
									"internalType": "uint256",
									"name": "expireDate",
									"type": "uint256"
								},
								{
									"internalType": "uint256",
									"name": "speakingScore",
									"type": "uint256"
								},
								{
									"internalType": "uint256",
									"name": "writingScore",
									"type": "uint256"
								},
								{
									"internalType": "uint256",
									"name": "time",
									"type": "uint256"
								}
							],
							"internalType": "struct IIGSWResult",
							"name": "item",
							"type": "tuple"
						}
					],
					"name": "add",
					"outputs": [],
					"stateMutability": "nonpayable",
					"type": "function"
				},
				{
					"inputs": [],
					"name": "approve",
					"outputs": [],
					"stateMutability": "nonpayable",
					"type": "function"
				},
				{
					"inputs": [
						{
							"internalType": "uint256",
							"name": "index",
							"type": "uint256"
						}
					],
					"name": "at",
					"outputs": [
						{
							"components": [
								{
									"internalType": "uint256",
									"name": "id",
									"type": "uint256"
								},
								{
									"internalType": "uint256",
									"name": "businessId",
									"type": "uint256"
								},
								{
									"internalType": "uint256",
									"name": "employeeId",
									"type": "uint256"
								},
								{
									"internalType": "uint256",
									"name": "testDate",
									"type": "uint256"
								},
								{
									"internalType": "enum IIGShiftTest",
									"name": "shiftTest",
									"type": "uint8"
								},
								{
									"internalType": "uint256",
									"name": "expireDate",
									"type": "uint256"
								},
								{
									"internalType": "uint256",
									"name": "speakingScore",
									"type": "uint256"
								},
								{
									"internalType": "uint256",
									"name": "writingScore",
									"type": "uint256"
								},
								{
									"internalType": "uint256",
									"name": "time",
									"type": "uint256"
								}
							],
							"internalType": "struct IIGSWResult",
							"name": "",
							"type": "tuple"
						}
					],
					"stateMutability": "view",
					"type": "function"
				},
				{
					"inputs": [],
					"name": "destroy",
					"outputs": [],
					"stateMutability": "nonpayable",
					"type": "function"
				},
				{
					"inputs": [
						{
							"internalType": "uint256",
							"name": "",
							"type": "uint256"
						}
					],
					"name": "list",
					"outputs": [
						{
							"internalType": "uint256",
							"name": "id",
							"type": "uint256"
						},
						{
							"internalType": "uint256",
							"name": "businessId",
							"type": "uint256"
						},
						{
							"internalType": "uint256",
							"name": "employeeId",
							"type": "uint256"
						},
						{
							"internalType": "uint256",
							"name": "testDate",
							"type": "uint256"
						},
						{
							"internalType": "enum IIGShiftTest",
							"name": "shiftTest",
							"type": "uint8"
						},
						{
							"internalType": "uint256",
							"name": "expireDate",
							"type": "uint256"
						},
						{
							"internalType": "uint256",
							"name": "speakingScore",
							"type": "uint256"
						},
						{
							"internalType": "uint256",
							"name": "writingScore",
							"type": "uint256"
						},
						{
							"internalType": "uint256",
							"name": "time",
							"type": "uint256"
						}
					],
					"stateMutability": "view",
					"type": "function"
				},
				{
					"inputs": [],
					"name": "owner",
					"outputs": [
						{
							"internalType": "address",
							"name": "",
							"type": "address"
						}
					],
					"stateMutability": "view",
					"type": "function"
				},
				{
					"inputs": [
						{
							"internalType": "uint256",
							"name": "index",
							"type": "uint256"
						},
						{
							"internalType": "uint256",
							"name": "value",
							"type": "uint256"
						}
					],
					"name": "setBusinessId",
					"outputs": [],
					"stateMutability": "nonpayable",
					"type": "function"
				},
				{
					"inputs": [
						{
							"internalType": "uint256",
							"name": "index",
							"type": "uint256"
						},
						{
							"internalType": "uint256",
							"name": "value",
							"type": "uint256"
						}
					],
					"name": "setEmployeeId",
					"outputs": [],
					"stateMutability": "nonpayable",
					"type": "function"
				},
				{
					"inputs": [
						{
							"internalType": "uint256",
							"name": "index",
							"type": "uint256"
						},
						{
							"internalType": "uint256",
							"name": "value",
							"type": "uint256"
						}
					],
					"name": "setExprireDate",
					"outputs": [],
					"stateMutability": "nonpayable",
					"type": "function"
				},
				{
					"inputs": [
						{
							"internalType": "uint256",
							"name": "index",
							"type": "uint256"
						},
						{
							"internalType": "uint256",
							"name": "businessId",
							"type": "uint256"
						},
						{
							"internalType": "uint256",
							"name": "employeeId",
							"type": "uint256"
						},
						{
							"internalType": "uint256",
							"name": "testDate",
							"type": "uint256"
						},
						{
							"internalType": "enum IIGShiftTest",
							"name": "shiftTest",
							"type": "uint8"
						},
						{
							"internalType": "uint256",
							"name": "expireDate",
							"type": "uint256"
						},
						{
							"internalType": "uint256",
							"name": "speakingScore",
							"type": "uint256"
						},
						{
							"internalType": "uint256",
							"name": "writingScore",
							"type": "uint256"
						}
					],
					"name": "setRequest",
					"outputs": [],
					"stateMutability": "nonpayable",
					"type": "function"
				},
				{
					"inputs": [
						{
							"internalType": "uint256",
							"name": "index",
							"type": "uint256"
						},
						{
							"internalType": "enum IIGShiftTest",
							"name": "value",
							"type": "uint8"
						}
					],
					"name": "setShiftTest",
					"outputs": [],
					"stateMutability": "nonpayable",
					"type": "function"
				},
				{
					"inputs": [
						{
							"internalType": "uint256",
							"name": "index",
							"type": "uint256"
						},
						{
							"internalType": "uint256",
							"name": "value",
							"type": "uint256"
						}
					],
					"name": "setSpeakingScore",
					"outputs": [],
					"stateMutability": "nonpayable",
					"type": "function"
				},
				{
					"inputs": [
						{
							"internalType": "uint256",
							"name": "index",
							"type": "uint256"
						},
						{
							"internalType": "uint256",
							"name": "value",
							"type": "uint256"
						}
					],
					"name": "setTestDate",
					"outputs": [],
					"stateMutability": "nonpayable",
					"type": "function"
				},
				{
					"inputs": [
						{
							"internalType": "uint256",
							"name": "index",
							"type": "uint256"
						},
						{
							"internalType": "uint256",
							"name": "value",
							"type": "uint256"
						}
					],
					"name": "setWritingScore",
					"outputs": [],
					"stateMutability": "nonpayable",
					"type": "function"
				},
				{
					"inputs": [
						{
							"internalType": "address",
							"name": "newOwner",
							"type": "address"
						}
					],
					"name": "transferOwnership",
					"outputs": [],
					"stateMutability": "nonpayable",
					"type": "function"
				}
			],
			"devdoc": {
				"kind": "dev",
				"methods": {
					"owner()": {
						"details": "Returns the address of the current owner."
					},
					"transferOwnership(address)": {
						"details": "Transfers ownership of the contract to a new account (`newOwner`). Can only be called by the current owner."
					}
				},
				"version": 1
			},
			"evm": {
				"assembly": "    /* \"database/business/igg/ListIIGSWResult.sol\":221:2333  contract ListIIGSWResult is Permission {... */\n  mstore(0x40, 0x80)\n    /* \"database/business/igg/ListIIGSWResult.sol\":298:327  constructor() Permission() {} */\n  callvalue\n  dup1\n  iszero\n  tag_1\n  jumpi\n  0x00\n  dup1\n  revert\ntag_1:\n  pop\n    /* \"abstract/Ownable.sol\":1011:1021  msg.sender */\n  caller\n    /* \"abstract/Ownable.sol\":1002:1008  _owner */\n  0x00\n  dup1\n    /* \"abstract/Ownable.sol\":1002:1021  _owner = msg.sender */\n  0x0100\n  exp\n  dup2\n  sload\n  dup2\n  0xffffffffffffffffffffffffffffffffffffffff\n  mul\n  not\n  and\n  swap1\n  dup4\n  0xffffffffffffffffffffffffffffffffffffffff\n  and\n  mul\n  or\n  swap1\n  sstore\n  pop\n    /* \"database/business/igg/ListIIGSWResult.sol\":221:2333  contract ListIIGSWResult is Permission {... */\n  dataSize(sub_0)\n  dup1\n  dataOffset(sub_0)\n  0x00\n  codecopy\n  0x00\n  return\nstop\n\nsub_0: assembly {\n        /* \"database/business/igg/ListIIGSWResult.sol\":221:2333  contract ListIIGSWResult is Permission {... */\n      mstore(0x40, 0x80)\n      callvalue\n      dup1\n      iszero\n      tag_1\n      jumpi\n      0x00\n      dup1\n      revert\n    tag_1:\n      pop\n      jumpi(tag_2, lt(calldatasize, 0x04))\n      shr(0xe0, calldataload(0x00))\n      dup1\n      0x83197ef0\n      gt\n      tag_18\n      jumpi\n      dup1\n      0xe0886f90\n      gt\n      tag_19\n      jumpi\n      dup1\n      0xe0886f90\n      eq\n      tag_14\n      jumpi\n      dup1\n      0xe6a1b60f\n      eq\n      tag_15\n      jumpi\n      dup1\n      0xf2fde38b\n      eq\n      tag_16\n      jumpi\n      dup1\n      0xf7f6e9bb\n      eq\n      tag_17\n      jumpi\n      jump(tag_2)\n    tag_19:\n      dup1\n      0x83197ef0\n      eq\n      tag_10\n      jumpi\n      dup1\n      0x8da5cb5b\n      eq\n      tag_11\n      jumpi\n      dup1\n      0x8f89e6f2\n      eq\n      tag_12\n      jumpi\n      dup1\n      0xb34be8d3\n      eq\n      tag_13\n      jumpi\n      jump(tag_2)\n    tag_18:\n      dup1\n      0x77ea9d95\n      gt\n      tag_20\n      jumpi\n      dup1\n      0x77ea9d95\n      eq\n      tag_6\n      jumpi\n      dup1\n      0x7acc2158\n      eq\n      tag_7\n      jumpi\n      dup1\n      0x80c9419e\n      eq\n      tag_8\n      jumpi\n      dup1\n      0x81847fc4\n      eq\n      tag_9\n      jumpi\n      jump(tag_2)\n    tag_20:\n      dup1\n      0x12424e3f\n      eq\n      tag_3\n      jumpi\n      dup1\n      0x1d7d6896\n      eq\n      tag_4\n      jumpi\n      dup1\n      0x59761a5d\n      eq\n      tag_5\n      jumpi\n    tag_2:\n      0x00\n      dup1\n      revert\n        /* \"abstract/Permission.sol\":299:381  function approve() public onlyOwner {... */\n    tag_3:\n      tag_21\n      tag_22\n      jump\t// in\n    tag_21:\n      stop\n        /* \"database/business/igg/ListIIGSWResult.sol\":1324:1445  function setExprireDate(uint256 index, uint256 value) public onlyApproved {... */\n    tag_4:\n      tag_23\n      0x04\n      dup1\n      calldatasize\n      sub\n      dup2\n      add\n      swap1\n      tag_24\n      swap2\n      swap1\n      tag_25\n      jump\t// in\n    tag_24:\n      tag_26\n      jump\t// in\n    tag_23:\n      stop\n        /* \"database/business/igg/ListIIGSWResult.sol\":1451:1597  function setSpeakingScore(uint256 index, uint256 value)... */\n    tag_5:\n      tag_27\n      0x04\n      dup1\n      calldatasize\n      sub\n      dup2\n      add\n      swap1\n      tag_28\n      swap2\n      swap1\n      tag_25\n      jump\t// in\n    tag_28:\n      tag_29\n      jump\t// in\n    tag_27:\n      stop\n        /* \"database/business/igg/ListIIGSWResult.sol\":1053:1169  function setTestDate(uint256 index, uint256 value) public onlyApproved {... */\n    tag_6:\n      tag_30\n      0x04\n      dup1\n      calldatasize\n      sub\n      dup2\n      add\n      swap1\n      tag_31\n      swap2\n      swap1\n      tag_25\n      jump\t// in\n    tag_31:\n      tag_32\n      jump\t// in\n    tag_30:\n      stop\n        /* \"database/business/igg/ListIIGSWResult.sol\":1733:2331  function setRequest(... */\n    tag_7:\n      tag_33\n      0x04\n      dup1\n      calldatasize\n      sub\n      dup2\n      add\n      swap1\n      tag_34\n      swap2\n      swap1\n      tag_35\n      jump\t// in\n    tag_34:\n      tag_36\n      jump\t// in\n    tag_33:\n      stop\n        /* \"database/business/igg/ListIIGSWResult.sol\":266:291  IIGSWResult[] public list */\n    tag_8:\n      tag_37\n      0x04\n      dup1\n      calldatasize\n      sub\n      dup2\n      add\n      swap1\n      tag_38\n      swap2\n      swap1\n      tag_39\n      jump\t// in\n    tag_38:\n      tag_40\n      jump\t// in\n    tag_37:\n      mload(0x40)\n      tag_41\n      swap10\n      swap9\n      swap8\n      swap7\n      swap6\n      swap5\n      swap4\n      swap3\n      swap2\n      swap1\n      tag_42\n      jump\t// in\n    tag_41:\n      mload(0x40)\n      dup1\n      swap2\n      sub\n      swap1\n      return\n        /* \"database/business/igg/ListIIGSWResult.sol\":1175:1318  function setShiftTest(uint256 index, IIGShiftTest value)... */\n    tag_9:\n      tag_43\n      0x04\n      dup1\n      calldatasize\n      sub\n      dup2\n      add\n      swap1\n      tag_44\n      swap2\n      swap1\n      tag_45\n      jump\t// in\n    tag_44:\n      tag_46\n      jump\t// in\n    tag_43:\n      stop\n        /* \"abstract/Ownable.sol\":2720:2809  function destroy() public onlyOwner {... */\n    tag_10:\n      tag_47\n      tag_48\n      jump\t// in\n    tag_47:\n      stop\n        /* \"abstract/Ownable.sol\":1254:1339  function owner() public view virtual returns (address) {... */\n    tag_11:\n      tag_49\n      tag_50\n      jump\t// in\n    tag_49:\n      mload(0x40)\n      tag_51\n      swap2\n      swap1\n      tag_52\n      jump\t// in\n    tag_51:\n      mload(0x40)\n      dup1\n      swap2\n      sub\n      swap1\n      return\n        /* \"database/business/igg/ListIIGSWResult.sol\":403:548  function add(IIGSWResult memory item) public onlyApproved {... */\n    tag_12:\n      tag_53\n      0x04\n      dup1\n      calldatasize\n      sub\n      dup2\n      add\n      swap1\n      tag_54\n      swap2\n      swap1\n      tag_55\n      jump\t// in\n    tag_54:\n      tag_56\n      jump\t// in\n    tag_53:\n      stop\n        /* \"database/business/igg/ListIIGSWResult.sol\":1603:1727  function setWritingScore(uint256 index, uint256 value) public onlyApproved {... */\n    tag_13:\n      tag_57\n      0x04\n      dup1\n      calldatasize\n      sub\n      dup2\n      add\n      swap1\n      tag_58\n      swap2\n      swap1\n      tag_25\n      jump\t// in\n    tag_58:\n      tag_59\n      jump\t// in\n    tag_57:\n      stop\n        /* \"database/business/igg/ListIIGSWResult.sol\":554:706  function at(uint256 index)... */\n    tag_14:\n      tag_60\n      0x04\n      dup1\n      calldatasize\n      sub\n      dup2\n      add\n      swap1\n      tag_61\n      swap2\n      swap1\n      tag_39\n      jump\t// in\n    tag_61:\n      tag_62\n      jump\t// in\n    tag_60:\n      mload(0x40)\n      tag_63\n      swap2\n      swap1\n      tag_64\n      jump\t// in\n    tag_63:\n      mload(0x40)\n      dup1\n      swap2\n      sub\n      swap1\n      return\n        /* \"database/business/igg/ListIIGSWResult.sol\":927:1047  function setEmployeeId(uint256 index, uint256 value) public onlyApproved {... */\n    tag_15:\n      tag_65\n      0x04\n      dup1\n      calldatasize\n      sub\n      dup2\n      add\n      swap1\n      tag_66\n      swap2\n      swap1\n      tag_25\n      jump\t// in\n    tag_66:\n      tag_67\n      jump\t// in\n    tag_65:\n      stop\n        /* \"abstract/Ownable.sol\":2141:2373  function transferOwnership(address newOwner) public virtual onlyOwner {... */\n    tag_16:\n      tag_68\n      0x04\n      dup1\n      calldatasize\n      sub\n      dup2\n      add\n      swap1\n      tag_69\n      swap2\n      swap1\n      tag_70\n      jump\t// in\n    tag_69:\n      tag_71\n      jump\t// in\n    tag_68:\n      stop\n        /* \"database/business/igg/ListIIGSWResult.sol\":801:921  function setBusinessId(uint256 index, uint256 value) public onlyApproved {... */\n    tag_17:\n      tag_72\n      0x04\n      dup1\n      calldatasize\n      sub\n      dup2\n      add\n      swap1\n      tag_73\n      swap2\n      swap1\n      tag_25\n      jump\t// in\n    tag_73:\n      tag_74\n      jump\t// in\n    tag_72:\n      stop\n        /* \"abstract/Permission.sol\":299:381  function approve() public onlyOwner {... */\n    tag_22:\n        /* \"abstract/Ownable.sol\":1147:1160  _checkOwner() */\n      tag_76\n        /* \"abstract/Ownable.sol\":1147:1158  _checkOwner */\n      tag_77\n        /* \"abstract/Ownable.sol\":1147:1160  _checkOwner() */\n      jump\t// in\n    tag_76:\n        /* \"abstract/Permission.sol\":370:374  true */\n      0x01\n        /* \"abstract/Permission.sol\":345:353  approved */\n      dup1\n        /* \"abstract/Permission.sol\":345:367  approved[_msgSender()] */\n      0x00\n        /* \"abstract/Permission.sol\":354:366  _msgSender() */\n      tag_79\n        /* \"abstract/Permission.sol\":354:364  _msgSender */\n      tag_80\n        /* \"abstract/Permission.sol\":354:366  _msgSender() */\n      jump\t// in\n    tag_79:\n        /* \"abstract/Permission.sol\":345:367  approved[_msgSender()] */\n      0xffffffffffffffffffffffffffffffffffffffff\n      and\n      0xffffffffffffffffffffffffffffffffffffffff\n      and\n      dup2\n      mstore\n      0x20\n      add\n      swap1\n      dup2\n      mstore\n      0x20\n      add\n      0x00\n      keccak256\n      0x00\n        /* \"abstract/Permission.sol\":345:374  approved[_msgSender()] = true */\n      0x0100\n      exp\n      dup2\n      sload\n      dup2\n      0xff\n      mul\n      not\n      and\n      swap1\n      dup4\n      iszero\n      iszero\n      mul\n      or\n      swap1\n      sstore\n      pop\n        /* \"abstract/Permission.sol\":299:381  function approve() public onlyOwner {... */\n      jump\t// out\n        /* \"database/business/igg/ListIIGSWResult.sol\":1324:1445  function setExprireDate(uint256 index, uint256 value) public onlyApproved {... */\n    tag_26:\n        /* \"abstract/Permission.sol\":421:437  _checkApproved() */\n      tag_82\n        /* \"abstract/Permission.sol\":421:435  _checkApproved */\n      tag_83\n        /* \"abstract/Permission.sol\":421:437  _checkApproved() */\n      jump\t// in\n    tag_82:\n        /* \"database/business/igg/ListIIGSWResult.sol\":1433:1438  value */\n      dup1\n        /* \"database/business/igg/ListIIGSWResult.sol\":1408:1412  list */\n      0x02\n        /* \"database/business/igg/ListIIGSWResult.sol\":1413:1418  index */\n      dup4\n        /* \"database/business/igg/ListIIGSWResult.sol\":1408:1419  list[index] */\n      dup2\n      sload\n      dup2\n      lt\n      tag_85\n      jumpi\n      tag_86\n      tag_87\n      jump\t// in\n    tag_86:\n    tag_85:\n      swap1\n      0x00\n      mstore\n      keccak256(0x00, 0x20)\n      swap1\n      0x09\n      mul\n      add\n        /* \"database/business/igg/ListIIGSWResult.sol\":1408:1430  list[index].expireDate */\n      0x05\n      add\n        /* \"database/business/igg/ListIIGSWResult.sol\":1408:1438  list[index].expireDate = value */\n      dup2\n      swap1\n      sstore\n      pop\n        /* \"database/business/igg/ListIIGSWResult.sol\":1324:1445  function setExprireDate(uint256 index, uint256 value) public onlyApproved {... */\n      pop\n      pop\n      jump\t// out\n        /* \"database/business/igg/ListIIGSWResult.sol\":1451:1597  function setSpeakingScore(uint256 index, uint256 value)... */\n    tag_29:\n        /* \"abstract/Permission.sol\":421:437  _checkApproved() */\n      tag_90\n        /* \"abstract/Permission.sol\":421:435  _checkApproved */\n      tag_83\n        /* \"abstract/Permission.sol\":421:437  _checkApproved() */\n      jump\t// in\n    tag_90:\n        /* \"database/business/igg/ListIIGSWResult.sol\":1585:1590  value */\n      dup1\n        /* \"database/business/igg/ListIIGSWResult.sol\":1557:1561  list */\n      0x02\n        /* \"database/business/igg/ListIIGSWResult.sol\":1562:1567  index */\n      dup4\n        /* \"database/business/igg/ListIIGSWResult.sol\":1557:1568  list[index] */\n      dup2\n      sload\n      dup2\n      lt\n      tag_92\n      jumpi\n      tag_93\n      tag_87\n      jump\t// in\n    tag_93:\n    tag_92:\n      swap1\n      0x00\n      mstore\n      keccak256(0x00, 0x20)\n      swap1\n      0x09\n      mul\n      add\n        /* \"database/business/igg/ListIIGSWResult.sol\":1557:1582  list[index].speakingScore */\n      0x06\n      add\n        /* \"database/business/igg/ListIIGSWResult.sol\":1557:1590  list[index].speakingScore = value */\n      dup2\n      swap1\n      sstore\n      pop\n        /* \"database/business/igg/ListIIGSWResult.sol\":1451:1597  function setSpeakingScore(uint256 index, uint256 value)... */\n      pop\n      pop\n      jump\t// out\n        /* \"database/business/igg/ListIIGSWResult.sol\":1053:1169  function setTestDate(uint256 index, uint256 value) public onlyApproved {... */\n    tag_32:\n        /* \"abstract/Permission.sol\":421:437  _checkApproved() */\n      tag_96\n        /* \"abstract/Permission.sol\":421:435  _checkApproved */\n      tag_83\n        /* \"abstract/Permission.sol\":421:437  _checkApproved() */\n      jump\t// in\n    tag_96:\n        /* \"database/business/igg/ListIIGSWResult.sol\":1157:1162  value */\n      dup1\n        /* \"database/business/igg/ListIIGSWResult.sol\":1134:1138  list */\n      0x02\n        /* \"database/business/igg/ListIIGSWResult.sol\":1139:1144  index */\n      dup4\n        /* \"database/business/igg/ListIIGSWResult.sol\":1134:1145  list[index] */\n      dup2\n      sload\n      dup2\n      lt\n      tag_98\n      jumpi\n      tag_99\n      tag_87\n      jump\t// in\n    tag_99:\n    tag_98:\n      swap1\n      0x00\n      mstore\n      keccak256(0x00, 0x20)\n      swap1\n      0x09\n      mul\n      add\n        /* \"database/business/igg/ListIIGSWResult.sol\":1134:1154  list[index].testDate */\n      0x03\n      add\n        /* \"database/business/igg/ListIIGSWResult.sol\":1134:1162  list[index].testDate = value */\n      dup2\n      swap1\n      sstore\n      pop\n        /* \"database/business/igg/ListIIGSWResult.sol\":1053:1169  function setTestDate(uint256 index, uint256 value) public onlyApproved {... */\n      pop\n      pop\n      jump\t// out\n        /* \"database/business/igg/ListIIGSWResult.sol\":1733:2331  function setRequest(... */\n    tag_36:\n        /* \"abstract/Permission.sol\":421:437  _checkApproved() */\n      tag_102\n        /* \"abstract/Permission.sol\":421:435  _checkApproved */\n      tag_83\n        /* \"abstract/Permission.sol\":421:437  _checkApproved() */\n      jump\t// in\n    tag_102:\n        /* \"database/business/igg/ListIIGSWResult.sol\":2040:2050  businessId */\n      dup7\n        /* \"database/business/igg/ListIIGSWResult.sol\":2015:2019  list */\n      0x02\n        /* \"database/business/igg/ListIIGSWResult.sol\":2020:2025  index */\n      dup10\n        /* \"database/business/igg/ListIIGSWResult.sol\":2015:2026  list[index] */\n      dup2\n      sload\n      dup2\n      lt\n      tag_104\n      jumpi\n      tag_105\n      tag_87\n      jump\t// in\n    tag_105:\n    tag_104:\n      swap1\n      0x00\n      mstore\n      keccak256(0x00, 0x20)\n      swap1\n      0x09\n      mul\n      add\n        /* \"database/business/igg/ListIIGSWResult.sol\":2015:2037  list[index].businessId */\n      0x01\n      add\n        /* \"database/business/igg/ListIIGSWResult.sol\":2015:2050  list[index].businessId = businessId */\n      dup2\n      swap1\n      sstore\n      pop\n        /* \"database/business/igg/ListIIGSWResult.sol\":2085:2095  employeeId */\n      dup6\n        /* \"database/business/igg/ListIIGSWResult.sol\":2060:2064  list */\n      0x02\n        /* \"database/business/igg/ListIIGSWResult.sol\":2065:2070  index */\n      dup10\n        /* \"database/business/igg/ListIIGSWResult.sol\":2060:2071  list[index] */\n      dup2\n      sload\n      dup2\n      lt\n      tag_107\n      jumpi\n      tag_108\n      tag_87\n      jump\t// in\n    tag_108:\n    tag_107:\n      swap1\n      0x00\n      mstore\n      keccak256(0x00, 0x20)\n      swap1\n      0x09\n      mul\n      add\n        /* \"database/business/igg/ListIIGSWResult.sol\":2060:2082  list[index].employeeId */\n      0x02\n      add\n        /* \"database/business/igg/ListIIGSWResult.sol\":2060:2095  list[index].employeeId = employeeId */\n      dup2\n      swap1\n      sstore\n      pop\n        /* \"database/business/igg/ListIIGSWResult.sol\":2128:2136  testDate */\n      dup5\n        /* \"database/business/igg/ListIIGSWResult.sol\":2105:2109  list */\n      0x02\n        /* \"database/business/igg/ListIIGSWResult.sol\":2110:2115  index */\n      dup10\n        /* \"database/business/igg/ListIIGSWResult.sol\":2105:2116  list[index] */\n      dup2\n      sload\n      dup2\n      lt\n      tag_110\n      jumpi\n      tag_111\n      tag_87\n      jump\t// in\n    tag_111:\n    tag_110:\n      swap1\n      0x00\n      mstore\n      keccak256(0x00, 0x20)\n      swap1\n      0x09\n      mul\n      add\n        /* \"database/business/igg/ListIIGSWResult.sol\":2105:2125  list[index].testDate */\n      0x03\n      add\n        /* \"database/business/igg/ListIIGSWResult.sol\":2105:2136  list[index].testDate = testDate */\n      dup2\n      swap1\n      sstore\n      pop\n        /* \"database/business/igg/ListIIGSWResult.sol\":2170:2179  shiftTest */\n      dup4\n        /* \"database/business/igg/ListIIGSWResult.sol\":2146:2150  list */\n      0x02\n        /* \"database/business/igg/ListIIGSWResult.sol\":2151:2156  index */\n      dup10\n        /* \"database/business/igg/ListIIGSWResult.sol\":2146:2157  list[index] */\n      dup2\n      sload\n      dup2\n      lt\n      tag_113\n      jumpi\n      tag_114\n      tag_87\n      jump\t// in\n    tag_114:\n    tag_113:\n      swap1\n      0x00\n      mstore\n      keccak256(0x00, 0x20)\n      swap1\n      0x09\n      mul\n      add\n        /* \"database/business/igg/ListIIGSWResult.sol\":2146:2167  list[index].shiftTest */\n      0x04\n      add\n      0x00\n        /* \"database/business/igg/ListIIGSWResult.sol\":2146:2179  list[index].shiftTest = shiftTest */\n      0x0100\n      exp\n      dup2\n      sload\n      dup2\n      0xff\n      mul\n      not\n      and\n      swap1\n      dup4\n      0x04\n      dup2\n      gt\n      iszero\n      tag_116\n      jumpi\n      tag_117\n      tag_118\n      jump\t// in\n    tag_117:\n    tag_116:\n      mul\n      or\n      swap1\n      sstore\n      pop\n        /* \"database/business/igg/ListIIGSWResult.sol\":2214:2224  expireDate */\n      dup3\n        /* \"database/business/igg/ListIIGSWResult.sol\":2189:2193  list */\n      0x02\n        /* \"database/business/igg/ListIIGSWResult.sol\":2194:2199  index */\n      dup10\n        /* \"database/business/igg/ListIIGSWResult.sol\":2189:2200  list[index] */\n      dup2\n      sload\n      dup2\n      lt\n      tag_119\n      jumpi\n      tag_120\n      tag_87\n      jump\t// in\n    tag_120:\n    tag_119:\n      swap1\n      0x00\n      mstore\n      keccak256(0x00, 0x20)\n      swap1\n      0x09\n      mul\n      add\n        /* \"database/business/igg/ListIIGSWResult.sol\":2189:2211  list[index].expireDate */\n      0x05\n      add\n        /* \"database/business/igg/ListIIGSWResult.sol\":2189:2224  list[index].expireDate = expireDate */\n      dup2\n      swap1\n      sstore\n      pop\n        /* \"database/business/igg/ListIIGSWResult.sol\":2262:2275  speakingScore */\n      dup2\n        /* \"database/business/igg/ListIIGSWResult.sol\":2234:2238  list */\n      0x02\n        /* \"database/business/igg/ListIIGSWResult.sol\":2239:2244  index */\n      dup10\n        /* \"database/business/igg/ListIIGSWResult.sol\":2234:2245  list[index] */\n      dup2\n      sload\n      dup2\n      lt\n      tag_122\n      jumpi\n      tag_123\n      tag_87\n      jump\t// in\n    tag_123:\n    tag_122:\n      swap1\n      0x00\n      mstore\n      keccak256(0x00, 0x20)\n      swap1\n      0x09\n      mul\n      add\n        /* \"database/business/igg/ListIIGSWResult.sol\":2234:2259  list[index].speakingScore */\n      0x06\n      add\n        /* \"database/business/igg/ListIIGSWResult.sol\":2234:2275  list[index].speakingScore = speakingScore */\n      dup2\n      swap1\n      sstore\n      pop\n        /* \"database/business/igg/ListIIGSWResult.sol\":2312:2324  writingScore */\n      dup1\n        /* \"database/business/igg/ListIIGSWResult.sol\":2285:2289  list */\n      0x02\n        /* \"database/business/igg/ListIIGSWResult.sol\":2290:2295  index */\n      dup10\n        /* \"database/business/igg/ListIIGSWResult.sol\":2285:2296  list[index] */\n      dup2\n      sload\n      dup2\n      lt\n      tag_125\n      jumpi\n      tag_126\n      tag_87\n      jump\t// in\n    tag_126:\n    tag_125:\n      swap1\n      0x00\n      mstore\n      keccak256(0x00, 0x20)\n      swap1\n      0x09\n      mul\n      add\n        /* \"database/business/igg/ListIIGSWResult.sol\":2285:2309  list[index].writingScore */\n      0x07\n      add\n        /* \"database/business/igg/ListIIGSWResult.sol\":2285:2324  list[index].writingScore = writingScore */\n      dup2\n      swap1\n      sstore\n      pop\n        /* \"database/business/igg/ListIIGSWResult.sol\":1733:2331  function setRequest(... */\n      pop\n      pop\n      pop\n      pop\n      pop\n      pop\n      pop\n      pop\n      jump\t// out\n        /* \"database/business/igg/ListIIGSWResult.sol\":266:291  IIGSWResult[] public list */\n    tag_40:\n      0x02\n      dup2\n      dup2\n      sload\n      dup2\n      lt\n      tag_128\n      jumpi\n      0x00\n      dup1\n      revert\n    tag_128:\n      swap1\n      0x00\n      mstore\n      keccak256(0x00, 0x20)\n      swap1\n      0x09\n      mul\n      add\n      0x00\n      swap2\n      pop\n      swap1\n      pop\n      dup1\n      0x00\n      add\n      sload\n      swap1\n      dup1\n      0x01\n      add\n      sload\n      swap1\n      dup1\n      0x02\n      add\n      sload\n      swap1\n      dup1\n      0x03\n      add\n      sload\n      swap1\n      dup1\n      0x04\n      add\n      0x00\n      swap1\n      sload\n      swap1\n      0x0100\n      exp\n      swap1\n      div\n      0xff\n      and\n      swap1\n      dup1\n      0x05\n      add\n      sload\n      swap1\n      dup1\n      0x06\n      add\n      sload\n      swap1\n      dup1\n      0x07\n      add\n      sload\n      swap1\n      dup1\n      0x08\n      add\n      sload\n      swap1\n      pop\n      dup10\n      jump\t// out\n        /* \"database/business/igg/ListIIGSWResult.sol\":1175:1318  function setShiftTest(uint256 index, IIGShiftTest value)... */\n    tag_46:\n        /* \"abstract/Permission.sol\":421:437  _checkApproved() */\n      tag_131\n        /* \"abstract/Permission.sol\":421:435  _checkApproved */\n      tag_83\n        /* \"abstract/Permission.sol\":421:437  _checkApproved() */\n      jump\t// in\n    tag_131:\n        /* \"database/business/igg/ListIIGSWResult.sol\":1306:1311  value */\n      dup1\n        /* \"database/business/igg/ListIIGSWResult.sol\":1282:1286  list */\n      0x02\n        /* \"database/business/igg/ListIIGSWResult.sol\":1287:1292  index */\n      dup4\n        /* \"database/business/igg/ListIIGSWResult.sol\":1282:1293  list[index] */\n      dup2\n      sload\n      dup2\n      lt\n      tag_133\n      jumpi\n      tag_134\n      tag_87\n      jump\t// in\n    tag_134:\n    tag_133:\n      swap1\n      0x00\n      mstore\n      keccak256(0x00, 0x20)\n      swap1\n      0x09\n      mul\n      add\n        /* \"database/business/igg/ListIIGSWResult.sol\":1282:1303  list[index].shiftTest */\n      0x04\n      add\n      0x00\n        /* \"database/business/igg/ListIIGSWResult.sol\":1282:1311  list[index].shiftTest = value */\n      0x0100\n      exp\n      dup2\n      sload\n      dup2\n      0xff\n      mul\n      not\n      and\n      swap1\n      dup4\n      0x04\n      dup2\n      gt\n      iszero\n      tag_136\n      jumpi\n      tag_137\n      tag_118\n      jump\t// in\n    tag_137:\n    tag_136:\n      mul\n      or\n      swap1\n      sstore\n      pop\n        /* \"database/business/igg/ListIIGSWResult.sol\":1175:1318  function setShiftTest(uint256 index, IIGShiftTest value)... */\n      pop\n      pop\n      jump\t// out\n        /* \"abstract/Ownable.sol\":2720:2809  function destroy() public onlyOwner {... */\n    tag_48:\n        /* \"abstract/Ownable.sol\":1147:1160  _checkOwner() */\n      tag_139\n        /* \"abstract/Ownable.sol\":1147:1158  _checkOwner */\n      tag_77\n        /* \"abstract/Ownable.sol\":1147:1160  _checkOwner() */\n      jump\t// in\n    tag_139:\n        /* \"abstract/Ownable.sol\":2795:2799  this */\n      address\n        /* \"abstract/Ownable.sol\":2766:2802  selfdestruct(payable(address(this))) */\n      0xffffffffffffffffffffffffffffffffffffffff\n      and\n      selfdestruct\n        /* \"abstract/Ownable.sol\":1254:1339  function owner() public view virtual returns (address) {... */\n    tag_50:\n        /* \"abstract/Ownable.sol\":1300:1307  address */\n      0x00\n        /* \"abstract/Ownable.sol\":1326:1332  _owner */\n      dup1\n      0x00\n      swap1\n      sload\n      swap1\n      0x0100\n      exp\n      swap1\n      div\n      0xffffffffffffffffffffffffffffffffffffffff\n      and\n        /* \"abstract/Ownable.sol\":1319:1332  return _owner */\n      swap1\n      pop\n        /* \"abstract/Ownable.sol\":1254:1339  function owner() public view virtual returns (address) {... */\n      swap1\n      jump\t// out\n        /* \"database/business/igg/ListIIGSWResult.sol\":403:548  function add(IIGSWResult memory item) public onlyApproved {... */\n    tag_56:\n        /* \"abstract/Permission.sol\":421:437  _checkApproved() */\n      tag_143\n        /* \"abstract/Permission.sol\":421:435  _checkApproved */\n      tag_83\n        /* \"abstract/Permission.sol\":421:437  _checkApproved() */\n      jump\t// in\n    tag_143:\n        /* \"database/business/igg/ListIIGSWResult.sol\":481:485  list */\n      0x02\n        /* \"database/business/igg/ListIIGSWResult.sol\":481:492  list.length */\n      dup1\n      sload\n      swap1\n      pop\n        /* \"database/business/igg/ListIIGSWResult.sol\":471:475  item */\n      dup2\n        /* \"database/business/igg/ListIIGSWResult.sol\":471:478  item.id */\n      0x00\n      add\n        /* \"database/business/igg/ListIIGSWResult.sol\":471:492  item.id = list.length */\n      dup2\n      dup2\n      mstore\n      pop\n      pop\n        /* \"database/business/igg/ListIIGSWResult.sol\":502:506  list */\n      0x02\n        /* \"database/business/igg/ListIIGSWResult.sol\":512:516  item */\n      dup2\n        /* \"database/business/igg/ListIIGSWResult.sol\":502:517  list.push(item) */\n      swap1\n      dup1\n      0x01\n      dup2\n      sload\n      add\n      dup1\n      dup3\n      sstore\n      dup1\n      swap2\n      pop\n      pop\n      0x01\n      swap1\n      sub\n      swap1\n      0x00\n      mstore\n      keccak256(0x00, 0x20)\n      swap1\n      0x09\n      mul\n      add\n      0x00\n      swap1\n      swap2\n      swap1\n      swap2\n      swap1\n      swap2\n      pop\n      0x00\n      dup3\n      add\n      mload\n      dup2\n      0x00\n      add\n      sstore\n      0x20\n      dup3\n      add\n      mload\n      dup2\n      0x01\n      add\n      sstore\n      0x40\n      dup3\n      add\n      mload\n      dup2\n      0x02\n      add\n      sstore\n      0x60\n      dup3\n      add\n      mload\n      dup2\n      0x03\n      add\n      sstore\n      0x80\n      dup3\n      add\n      mload\n      dup2\n      0x04\n      add\n      exp(0x0100, 0x00)\n      dup2\n      sload\n      dup2\n      0xff\n      mul\n      not\n      and\n      swap1\n      dup4\n      0x04\n      dup2\n      gt\n      iszero\n      tag_146\n      jumpi\n      tag_147\n      tag_118\n      jump\t// in\n    tag_147:\n    tag_146:\n      mul\n      or\n      swap1\n      sstore\n      pop\n      0xa0\n      dup3\n      add\n      mload\n      dup2\n      0x05\n      add\n      sstore\n      0xc0\n      dup3\n      add\n      mload\n      dup2\n      0x06\n      add\n      sstore\n      0xe0\n      dup3\n      add\n      mload\n      dup2\n      0x07\n      add\n      sstore\n      0x0100\n      dup3\n      add\n      mload\n      dup2\n      0x08\n      add\n      sstore\n      pop\n      pop\n        /* \"database/business/igg/ListIIGSWResult.sol\":532:541  Add(item) */\n      0x1a3f6b5b0d083fb190ce90a540487b96ba479b4eabe94d95fb0c629f33088b92\n        /* \"database/business/igg/ListIIGSWResult.sol\":536:540  item */\n      dup2\n        /* \"database/business/igg/ListIIGSWResult.sol\":532:541  Add(item) */\n      mload(0x40)\n      tag_148\n      swap2\n      swap1\n      tag_64\n      jump\t// in\n    tag_148:\n      mload(0x40)\n      dup1\n      swap2\n      sub\n      swap1\n      log1\n        /* \"database/business/igg/ListIIGSWResult.sol\":403:548  function add(IIGSWResult memory item) public onlyApproved {... */\n      pop\n      jump\t// out\n        /* \"database/business/igg/ListIIGSWResult.sol\":1603:1727  function setWritingScore(uint256 index, uint256 value) public onlyApproved {... */\n    tag_59:\n        /* \"abstract/Permission.sol\":421:437  _checkApproved() */\n      tag_150\n        /* \"abstract/Permission.sol\":421:435  _checkApproved */\n      tag_83\n        /* \"abstract/Permission.sol\":421:437  _checkApproved() */\n      jump\t// in\n    tag_150:\n        /* \"database/business/igg/ListIIGSWResult.sol\":1715:1720  value */\n      dup1\n        /* \"database/business/igg/ListIIGSWResult.sol\":1688:1692  list */\n      0x02\n        /* \"database/business/igg/ListIIGSWResult.sol\":1693:1698  index */\n      dup4\n        /* \"database/business/igg/ListIIGSWResult.sol\":1688:1699  list[index] */\n      dup2\n      sload\n      dup2\n      lt\n      tag_152\n      jumpi\n      tag_153\n      tag_87\n      jump\t// in\n    tag_153:\n    tag_152:\n      swap1\n      0x00\n      mstore\n      keccak256(0x00, 0x20)\n      swap1\n      0x09\n      mul\n      add\n        /* \"database/business/igg/ListIIGSWResult.sol\":1688:1712  list[index].writingScore */\n      0x07\n      add\n        /* \"database/business/igg/ListIIGSWResult.sol\":1688:1720  list[index].writingScore = value */\n      dup2\n      swap1\n      sstore\n      pop\n        /* \"database/business/igg/ListIIGSWResult.sol\":1603:1727  function setWritingScore(uint256 index, uint256 value) public onlyApproved {... */\n      pop\n      pop\n      jump\t// out\n        /* \"database/business/igg/ListIIGSWResult.sol\":554:706  function at(uint256 index)... */\n    tag_62:\n        /* \"database/business/igg/ListIIGSWResult.sol\":647:665  IIGSWResult memory */\n      tag_155\n      tag_156\n      jump\t// in\n    tag_155:\n        /* \"abstract/Permission.sol\":421:437  _checkApproved() */\n      tag_158\n        /* \"abstract/Permission.sol\":421:435  _checkApproved */\n      tag_83\n        /* \"abstract/Permission.sol\":421:437  _checkApproved() */\n      jump\t// in\n    tag_158:\n        /* \"database/business/igg/ListIIGSWResult.sol\":688:692  list */\n      0x02\n        /* \"database/business/igg/ListIIGSWResult.sol\":693:698  index */\n      dup3\n        /* \"database/business/igg/ListIIGSWResult.sol\":688:699  list[index] */\n      dup2\n      sload\n      dup2\n      lt\n      tag_160\n      jumpi\n      tag_161\n      tag_87\n      jump\t// in\n    tag_161:\n    tag_160:\n      swap1\n      0x00\n      mstore\n      keccak256(0x00, 0x20)\n      swap1\n      0x09\n      mul\n      add\n        /* \"database/business/igg/ListIIGSWResult.sol\":681:699  return list[index] */\n      mload(0x40)\n      dup1\n      0x0120\n      add\n      0x40\n      mstore\n      swap1\n      dup2\n      0x00\n      dup3\n      add\n      sload\n      dup2\n      mstore\n      0x20\n      add\n      0x01\n      dup3\n      add\n      sload\n      dup2\n      mstore\n      0x20\n      add\n      0x02\n      dup3\n      add\n      sload\n      dup2\n      mstore\n      0x20\n      add\n      0x03\n      dup3\n      add\n      sload\n      dup2\n      mstore\n      0x20\n      add\n      0x04\n      dup3\n      add\n      0x00\n      swap1\n      sload\n      swap1\n      0x0100\n      exp\n      swap1\n      div\n      0xff\n      and\n      0x04\n      dup2\n      gt\n      iszero\n      tag_163\n      jumpi\n      tag_164\n      tag_118\n      jump\t// in\n    tag_164:\n    tag_163:\n      0x04\n      dup2\n      gt\n      iszero\n      tag_165\n      jumpi\n      tag_166\n      tag_118\n      jump\t// in\n    tag_166:\n    tag_165:\n      dup2\n      mstore\n      0x20\n      add\n      0x05\n      dup3\n      add\n      sload\n      dup2\n      mstore\n      0x20\n      add\n      0x06\n      dup3\n      add\n      sload\n      dup2\n      mstore\n      0x20\n      add\n      0x07\n      dup3\n      add\n      sload\n      dup2\n      mstore\n      0x20\n      add\n      0x08\n      dup3\n      add\n      sload\n      dup2\n      mstore\n      pop\n      pop\n      swap1\n      pop\n        /* \"database/business/igg/ListIIGSWResult.sol\":554:706  function at(uint256 index)... */\n      swap2\n      swap1\n      pop\n      jump\t// out\n        /* \"database/business/igg/ListIIGSWResult.sol\":927:1047  function setEmployeeId(uint256 index, uint256 value) public onlyApproved {... */\n    tag_67:\n        /* \"abstract/Permission.sol\":421:437  _checkApproved() */\n      tag_168\n        /* \"abstract/Permission.sol\":421:435  _checkApproved */\n      tag_83\n        /* \"abstract/Permission.sol\":421:437  _checkApproved() */\n      jump\t// in\n    tag_168:\n        /* \"database/business/igg/ListIIGSWResult.sol\":1035:1040  value */\n      dup1\n        /* \"database/business/igg/ListIIGSWResult.sol\":1010:1014  list */\n      0x02\n        /* \"database/business/igg/ListIIGSWResult.sol\":1015:1020  index */\n      dup4\n        /* \"database/business/igg/ListIIGSWResult.sol\":1010:1021  list[index] */\n      dup2\n      sload\n      dup2\n      lt\n      tag_170\n      jumpi\n      tag_171\n      tag_87\n      jump\t// in\n    tag_171:\n    tag_170:\n      swap1\n      0x00\n      mstore\n      keccak256(0x00, 0x20)\n      swap1\n      0x09\n      mul\n      add\n        /* \"database/business/igg/ListIIGSWResult.sol\":1010:1032  list[index].employeeId */\n      0x02\n      add\n        /* \"database/business/igg/ListIIGSWResult.sol\":1010:1040  list[index].employeeId = value */\n      dup2\n      swap1\n      sstore\n      pop\n        /* \"database/business/igg/ListIIGSWResult.sol\":927:1047  function setEmployeeId(uint256 index, uint256 value) public onlyApproved {... */\n      pop\n      pop\n      jump\t// out\n        /* \"abstract/Ownable.sol\":2141:2373  function transferOwnership(address newOwner) public virtual onlyOwner {... */\n    tag_71:\n        /* \"abstract/Ownable.sol\":1147:1160  _checkOwner() */\n      tag_174\n        /* \"abstract/Ownable.sol\":1147:1158  _checkOwner */\n      tag_77\n        /* \"abstract/Ownable.sol\":1147:1160  _checkOwner() */\n      jump\t// in\n    tag_174:\n        /* \"abstract/Ownable.sol\":2262:2263  0 */\n      0x00\n        /* \"abstract/Ownable.sol\":2242:2264  newOwner != address(0) */\n      0xffffffffffffffffffffffffffffffffffffffff\n      and\n        /* \"abstract/Ownable.sol\":2242:2250  newOwner */\n      dup2\n        /* \"abstract/Ownable.sol\":2242:2264  newOwner != address(0) */\n      0xffffffffffffffffffffffffffffffffffffffff\n      and\n      sub\n        /* \"abstract/Ownable.sol\":2221:2328  require(... */\n      tag_176\n      jumpi\n      mload(0x40)\n      0x08c379a000000000000000000000000000000000000000000000000000000000\n      dup2\n      mstore\n      0x04\n      add\n      tag_177\n      swap1\n      tag_178\n      jump\t// in\n    tag_177:\n      mload(0x40)\n      dup1\n      swap2\n      sub\n      swap1\n      revert\n    tag_176:\n        /* \"abstract/Ownable.sol\":2338:2366  _transferOwnership(newOwner) */\n      tag_179\n        /* \"abstract/Ownable.sol\":2357:2365  newOwner */\n      dup2\n        /* \"abstract/Ownable.sol\":2338:2356  _transferOwnership */\n      tag_180\n        /* \"abstract/Ownable.sol\":2338:2366  _transferOwnership(newOwner) */\n      jump\t// in\n    tag_179:\n        /* \"abstract/Ownable.sol\":2141:2373  function transferOwnership(address newOwner) public virtual onlyOwner {... */\n      pop\n      jump\t// out\n        /* \"database/business/igg/ListIIGSWResult.sol\":801:921  function setBusinessId(uint256 index, uint256 value) public onlyApproved {... */\n    tag_74:\n        /* \"abstract/Permission.sol\":421:437  _checkApproved() */\n      tag_182\n        /* \"abstract/Permission.sol\":421:435  _checkApproved */\n      tag_83\n        /* \"abstract/Permission.sol\":421:437  _checkApproved() */\n      jump\t// in\n    tag_182:\n        /* \"database/business/igg/ListIIGSWResult.sol\":909:914  value */\n      dup1\n        /* \"database/business/igg/ListIIGSWResult.sol\":884:888  list */\n      0x02\n        /* \"database/business/igg/ListIIGSWResult.sol\":889:894  index */\n      dup4\n        /* \"database/business/igg/ListIIGSWResult.sol\":884:895  list[index] */\n      dup2\n      sload\n      dup2\n      lt\n      tag_184\n      jumpi\n      tag_185\n      tag_87\n      jump\t// in\n    tag_185:\n    tag_184:\n      swap1\n      0x00\n      mstore\n      keccak256(0x00, 0x20)\n      swap1\n      0x09\n      mul\n      add\n        /* \"database/business/igg/ListIIGSWResult.sol\":884:906  list[index].businessId */\n      0x01\n      add\n        /* \"database/business/igg/ListIIGSWResult.sol\":884:914  list[index].businessId = value */\n      dup2\n      swap1\n      sstore\n      pop\n        /* \"database/business/igg/ListIIGSWResult.sol\":801:921  function setBusinessId(uint256 index, uint256 value) public onlyApproved {... */\n      pop\n      pop\n      jump\t// out\n        /* \"abstract/Ownable.sol\":1412:1540  function _checkOwner() internal view virtual {... */\n    tag_77:\n        /* \"abstract/Ownable.sol\":1486:1496  msg.sender */\n      caller\n        /* \"abstract/Ownable.sol\":1475:1496  owner() == msg.sender */\n      0xffffffffffffffffffffffffffffffffffffffff\n      and\n        /* \"abstract/Ownable.sol\":1475:1482  owner() */\n      tag_188\n        /* \"abstract/Ownable.sol\":1475:1480  owner */\n      tag_50\n        /* \"abstract/Ownable.sol\":1475:1482  owner() */\n      jump\t// in\n    tag_188:\n        /* \"abstract/Ownable.sol\":1475:1496  owner() == msg.sender */\n      0xffffffffffffffffffffffffffffffffffffffff\n      and\n      eq\n        /* \"abstract/Ownable.sol\":1467:1533  require(owner() == msg.sender, \"Ownable: caller is not the owner\") */\n      tag_189\n      jumpi\n      mload(0x40)\n      0x08c379a000000000000000000000000000000000000000000000000000000000\n      dup2\n      mstore\n      0x04\n      add\n      tag_190\n      swap1\n      tag_191\n      jump\t// in\n    tag_190:\n      mload(0x40)\n      dup1\n      swap2\n      sub\n      swap1\n      revert\n    tag_189:\n        /* \"abstract/Ownable.sol\":1412:1540  function _checkOwner() internal view virtual {... */\n      jump\t// out\n        /* \"@openzeppelin/contracts/utils/Context.sol\":640:736  function _msgSender() internal view virtual returns (address) {... */\n    tag_80:\n        /* \"@openzeppelin/contracts/utils/Context.sol\":693:700  address */\n      0x00\n        /* \"@openzeppelin/contracts/utils/Context.sol\":719:729  msg.sender */\n      caller\n        /* \"@openzeppelin/contracts/utils/Context.sol\":712:729  return msg.sender */\n      swap1\n      pop\n        /* \"@openzeppelin/contracts/utils/Context.sol\":640:736  function _msgSender() internal view virtual returns (address) {... */\n      swap1\n      jump\t// out\n        /* \"abstract/Permission.sol\":461:639  function _checkApproved() internal view {... */\n    tag_83:\n        /* \"abstract/Permission.sol\":532:540  approved */\n      0x01\n        /* \"abstract/Permission.sol\":532:554  approved[_msgSender()] */\n      0x00\n        /* \"abstract/Permission.sol\":541:553  _msgSender() */\n      tag_194\n        /* \"abstract/Permission.sol\":541:551  _msgSender */\n      tag_80\n        /* \"abstract/Permission.sol\":541:553  _msgSender() */\n      jump\t// in\n    tag_194:\n        /* \"abstract/Permission.sol\":532:554  approved[_msgSender()] */\n      0xffffffffffffffffffffffffffffffffffffffff\n      and\n      0xffffffffffffffffffffffffffffffffffffffff\n      and\n      dup2\n      mstore\n      0x20\n      add\n      swap1\n      dup2\n      mstore\n      0x20\n      add\n      0x00\n      keccak256\n      0x00\n      swap1\n      sload\n      swap1\n      0x0100\n      exp\n      swap1\n      div\n      0xff\n      and\n        /* \"abstract/Permission.sol\":532:581  approved[_msgSender()] || _msgSender() == owner() */\n      dup1\n      tag_195\n      jumpi\n      pop\n        /* \"abstract/Permission.sol\":574:581  owner() */\n      tag_196\n        /* \"abstract/Permission.sol\":574:579  owner */\n      tag_50\n        /* \"abstract/Permission.sol\":574:581  owner() */\n      jump\t// in\n    tag_196:\n        /* \"abstract/Permission.sol\":558:581  _msgSender() == owner() */\n      0xffffffffffffffffffffffffffffffffffffffff\n      and\n        /* \"abstract/Permission.sol\":558:570  _msgSender() */\n      tag_197\n        /* \"abstract/Permission.sol\":558:568  _msgSender */\n      tag_80\n        /* \"abstract/Permission.sol\":558:570  _msgSender() */\n      jump\t// in\n    tag_197:\n        /* \"abstract/Permission.sol\":558:581  _msgSender() == owner() */\n      0xffffffffffffffffffffffffffffffffffffffff\n      and\n      eq\n        /* \"abstract/Permission.sol\":532:581  approved[_msgSender()] || _msgSender() == owner() */\n    tag_195:\n        /* \"abstract/Permission.sol\":511:632  require(... */\n      tag_198\n      jumpi\n      mload(0x40)\n      0x08c379a000000000000000000000000000000000000000000000000000000000\n      dup2\n      mstore\n      0x04\n      add\n      tag_199\n      swap1\n      tag_200\n      jump\t// in\n    tag_199:\n      mload(0x40)\n      dup1\n      swap2\n      sub\n      swap1\n      revert\n    tag_198:\n        /* \"abstract/Permission.sol\":461:639  function _checkApproved() internal view {... */\n      jump\t// out\n        /* \"abstract/Ownable.sol\":2527:2714  function _transferOwnership(address newOwner) internal virtual {... */\n    tag_180:\n        /* \"abstract/Ownable.sol\":2600:2616  address oldOwner */\n      0x00\n        /* \"abstract/Ownable.sol\":2619:2625  _owner */\n      dup1\n      0x00\n      swap1\n      sload\n      swap1\n      0x0100\n      exp\n      swap1\n      div\n      0xffffffffffffffffffffffffffffffffffffffff\n      and\n        /* \"abstract/Ownable.sol\":2600:2625  address oldOwner = _owner */\n      swap1\n      pop\n        /* \"abstract/Ownable.sol\":2644:2652  newOwner */\n      dup2\n        /* \"abstract/Ownable.sol\":2635:2641  _owner */\n      0x00\n      dup1\n        /* \"abstract/Ownable.sol\":2635:2652  _owner = newOwner */\n      0x0100\n      exp\n      dup2\n      sload\n      dup2\n      0xffffffffffffffffffffffffffffffffffffffff\n      mul\n      not\n      and\n      swap1\n      dup4\n      0xffffffffffffffffffffffffffffffffffffffff\n      and\n      mul\n      or\n      swap1\n      sstore\n      pop\n        /* \"abstract/Ownable.sol\":2698:2706  newOwner */\n      dup2\n        /* \"abstract/Ownable.sol\":2667:2707  OwnershipTransferred(oldOwner, newOwner) */\n      0xffffffffffffffffffffffffffffffffffffffff\n      and\n        /* \"abstract/Ownable.sol\":2688:2696  oldOwner */\n      dup2\n        /* \"abstract/Ownable.sol\":2667:2707  OwnershipTransferred(oldOwner, newOwner) */\n      0xffffffffffffffffffffffffffffffffffffffff\n      and\n      0x8be0079c531659141344cd1fd0a4f28419497f9722a3daafe3b4186f6b6457e0\n      mload(0x40)\n      mload(0x40)\n      dup1\n      swap2\n      sub\n      swap1\n      log3\n        /* \"abstract/Ownable.sol\":2590:2714  {... */\n      pop\n        /* \"abstract/Ownable.sol\":2527:2714  function _transferOwnership(address newOwner) internal virtual {... */\n      pop\n      jump\t// out\n    tag_156:\n      mload(0x40)\n      dup1\n      0x0120\n      add\n      0x40\n      mstore\n      dup1\n      0x00\n      dup2\n      mstore\n      0x20\n      add\n      0x00\n      dup2\n      mstore\n      0x20\n      add\n      0x00\n      dup2\n      mstore\n      0x20\n      add\n      0x00\n      dup2\n      mstore\n      0x20\n      add\n      0x00\n      0x04\n      dup2\n      gt\n      iszero\n      tag_202\n      jumpi\n      tag_203\n      tag_118\n      jump\t// in\n    tag_203:\n    tag_202:\n      dup2\n      mstore\n      0x20\n      add\n      0x00\n      dup2\n      mstore\n      0x20\n      add\n      0x00\n      dup2\n      mstore\n      0x20\n      add\n      0x00\n      dup2\n      mstore\n      0x20\n      add\n      0x00\n      dup2\n      mstore\n      pop\n      swap1\n      jump\t// out\n        /* \"#utility.yul\":7:82   */\n    tag_204:\n        /* \"#utility.yul\":40:46   */\n      0x00\n        /* \"#utility.yul\":73:75   */\n      0x40\n        /* \"#utility.yul\":67:76   */\n      mload\n        /* \"#utility.yul\":57:76   */\n      swap1\n      pop\n        /* \"#utility.yul\":7:82   */\n      swap1\n      jump\t// out\n        /* \"#utility.yul\":88:205   */\n    tag_205:\n        /* \"#utility.yul\":197:198   */\n      0x00\n        /* \"#utility.yul\":194:195   */\n      dup1\n        /* \"#utility.yul\":187:199   */\n      revert\n        /* \"#utility.yul\":334:411   */\n    tag_207:\n        /* \"#utility.yul\":371:378   */\n      0x00\n        /* \"#utility.yul\":400:405   */\n      dup2\n        /* \"#utility.yul\":389:405   */\n      swap1\n      pop\n        /* \"#utility.yul\":334:411   */\n      swap2\n      swap1\n      pop\n      jump\t// out\n        /* \"#utility.yul\":417:539   */\n    tag_208:\n        /* \"#utility.yul\":490:514   */\n      tag_245\n        /* \"#utility.yul\":508:513   */\n      dup2\n        /* \"#utility.yul\":490:514   */\n      tag_207\n      jump\t// in\n    tag_245:\n        /* \"#utility.yul\":483:488   */\n      dup2\n        /* \"#utility.yul\":480:515   */\n      eq\n        /* \"#utility.yul\":470:533   */\n      tag_246\n      jumpi\n        /* \"#utility.yul\":529:530   */\n      0x00\n        /* \"#utility.yul\":526:527   */\n      dup1\n        /* \"#utility.yul\":519:531   */\n      revert\n        /* \"#utility.yul\":470:533   */\n    tag_246:\n        /* \"#utility.yul\":417:539   */\n      pop\n      jump\t// out\n        /* \"#utility.yul\":545:684   */\n    tag_209:\n        /* \"#utility.yul\":591:596   */\n      0x00\n        /* \"#utility.yul\":629:635   */\n      dup2\n        /* \"#utility.yul\":616:636   */\n      calldataload\n        /* \"#utility.yul\":607:636   */\n      swap1\n      pop\n        /* \"#utility.yul\":645:678   */\n      tag_248\n        /* \"#utility.yul\":672:677   */\n      dup2\n        /* \"#utility.yul\":645:678   */\n      tag_208\n      jump\t// in\n    tag_248:\n        /* \"#utility.yul\":545:684   */\n      swap3\n      swap2\n      pop\n      pop\n      jump\t// out\n        /* \"#utility.yul\":690:1164   */\n    tag_25:\n        /* \"#utility.yul\":758:764   */\n      0x00\n        /* \"#utility.yul\":766:772   */\n      dup1\n        /* \"#utility.yul\":815:817   */\n      0x40\n        /* \"#utility.yul\":803:812   */\n      dup4\n        /* \"#utility.yul\":794:801   */\n      dup6\n        /* \"#utility.yul\":790:813   */\n      sub\n        /* \"#utility.yul\":786:818   */\n      slt\n        /* \"#utility.yul\":783:902   */\n      iszero\n      tag_250\n      jumpi\n        /* \"#utility.yul\":821:900   */\n      tag_251\n      tag_205\n      jump\t// in\n    tag_251:\n        /* \"#utility.yul\":783:902   */\n    tag_250:\n        /* \"#utility.yul\":941:942   */\n      0x00\n        /* \"#utility.yul\":966:1019   */\n      tag_252\n        /* \"#utility.yul\":1011:1018   */\n      dup6\n        /* \"#utility.yul\":1002:1008   */\n      dup3\n        /* \"#utility.yul\":991:1000   */\n      dup7\n        /* \"#utility.yul\":987:1009   */\n      add\n        /* \"#utility.yul\":966:1019   */\n      tag_209\n      jump\t// in\n    tag_252:\n        /* \"#utility.yul\":956:1019   */\n      swap3\n      pop\n        /* \"#utility.yul\":912:1029   */\n      pop\n        /* \"#utility.yul\":1068:1070   */\n      0x20\n        /* \"#utility.yul\":1094:1147   */\n      tag_253\n        /* \"#utility.yul\":1139:1146   */\n      dup6\n        /* \"#utility.yul\":1130:1136   */\n      dup3\n        /* \"#utility.yul\":1119:1128   */\n      dup7\n        /* \"#utility.yul\":1115:1137   */\n      add\n        /* \"#utility.yul\":1094:1147   */\n      tag_209\n      jump\t// in\n    tag_253:\n        /* \"#utility.yul\":1084:1147   */\n      swap2\n      pop\n        /* \"#utility.yul\":1039:1157   */\n      pop\n        /* \"#utility.yul\":690:1164   */\n      swap3\n      pop\n      swap3\n      swap1\n      pop\n      jump\t// out\n        /* \"#utility.yul\":1170:1285   */\n    tag_210:\n        /* \"#utility.yul\":1259:1260   */\n      0x05\n        /* \"#utility.yul\":1252:1257   */\n      dup2\n        /* \"#utility.yul\":1249:1261   */\n      lt\n        /* \"#utility.yul\":1239:1279   */\n      tag_255\n      jumpi\n        /* \"#utility.yul\":1275:1276   */\n      0x00\n        /* \"#utility.yul\":1272:1273   */\n      dup1\n        /* \"#utility.yul\":1265:1277   */\n      revert\n        /* \"#utility.yul\":1239:1279   */\n    tag_255:\n        /* \"#utility.yul\":1170:1285   */\n      pop\n      jump\t// out\n        /* \"#utility.yul\":1291:1462   */\n    tag_211:\n        /* \"#utility.yul\":1353:1358   */\n      0x00\n        /* \"#utility.yul\":1391:1397   */\n      dup2\n        /* \"#utility.yul\":1378:1398   */\n      calldataload\n        /* \"#utility.yul\":1369:1398   */\n      swap1\n      pop\n        /* \"#utility.yul\":1407:1456   */\n      tag_257\n        /* \"#utility.yul\":1450:1455   */\n      dup2\n        /* \"#utility.yul\":1407:1456   */\n      tag_210\n      jump\t// in\n    tag_257:\n        /* \"#utility.yul\":1291:1462   */\n      swap3\n      swap2\n      pop\n      pop\n      jump\t// out\n        /* \"#utility.yul\":1468:2849   */\n    tag_35:\n        /* \"#utility.yul\":1606:1612   */\n      0x00\n        /* \"#utility.yul\":1614:1620   */\n      dup1\n        /* \"#utility.yul\":1622:1628   */\n      0x00\n        /* \"#utility.yul\":1630:1636   */\n      dup1\n        /* \"#utility.yul\":1638:1644   */\n      0x00\n        /* \"#utility.yul\":1646:1652   */\n      dup1\n        /* \"#utility.yul\":1654:1660   */\n      0x00\n        /* \"#utility.yul\":1662:1668   */\n      dup1\n        /* \"#utility.yul\":1711:1714   */\n      0x0100\n        /* \"#utility.yul\":1699:1708   */\n      dup10\n        /* \"#utility.yul\":1690:1697   */\n      dup12\n        /* \"#utility.yul\":1686:1709   */\n      sub\n        /* \"#utility.yul\":1682:1715   */\n      slt\n        /* \"#utility.yul\":1679:1799   */\n      iszero\n      tag_259\n      jumpi\n        /* \"#utility.yul\":1718:1797   */\n      tag_260\n      tag_205\n      jump\t// in\n    tag_260:\n        /* \"#utility.yul\":1679:1799   */\n    tag_259:\n        /* \"#utility.yul\":1838:1839   */\n      0x00\n        /* \"#utility.yul\":1863:1916   */\n      tag_261\n        /* \"#utility.yul\":1908:1915   */\n      dup12\n        /* \"#utility.yul\":1899:1905   */\n      dup3\n        /* \"#utility.yul\":1888:1897   */\n      dup13\n        /* \"#utility.yul\":1884:1906   */\n      add\n        /* \"#utility.yul\":1863:1916   */\n      tag_209\n      jump\t// in\n    tag_261:\n        /* \"#utility.yul\":1853:1916   */\n      swap9\n      pop\n        /* \"#utility.yul\":1809:1926   */\n      pop\n        /* \"#utility.yul\":1965:1967   */\n      0x20\n        /* \"#utility.yul\":1991:2044   */\n      tag_262\n        /* \"#utility.yul\":2036:2043   */\n      dup12\n        /* \"#utility.yul\":2027:2033   */\n      dup3\n        /* \"#utility.yul\":2016:2025   */\n      dup13\n        /* \"#utility.yul\":2012:2034   */\n      add\n        /* \"#utility.yul\":1991:2044   */\n      tag_209\n      jump\t// in\n    tag_262:\n        /* \"#utility.yul\":1981:2044   */\n      swap8\n      pop\n        /* \"#utility.yul\":1936:2054   */\n      pop\n        /* \"#utility.yul\":2093:2095   */\n      0x40\n        /* \"#utility.yul\":2119:2172   */\n      tag_263\n        /* \"#utility.yul\":2164:2171   */\n      dup12\n        /* \"#utility.yul\":2155:2161   */\n      dup3\n        /* \"#utility.yul\":2144:2153   */\n      dup13\n        /* \"#utility.yul\":2140:2162   */\n      add\n        /* \"#utility.yul\":2119:2172   */\n      tag_209\n      jump\t// in\n    tag_263:\n        /* \"#utility.yul\":2109:2172   */\n      swap7\n      pop\n        /* \"#utility.yul\":2064:2182   */\n      pop\n        /* \"#utility.yul\":2221:2223   */\n      0x60\n        /* \"#utility.yul\":2247:2300   */\n      tag_264\n        /* \"#utility.yul\":2292:2299   */\n      dup12\n        /* \"#utility.yul\":2283:2289   */\n      dup3\n        /* \"#utility.yul\":2272:2281   */\n      dup13\n        /* \"#utility.yul\":2268:2290   */\n      add\n        /* \"#utility.yul\":2247:2300   */\n      tag_209\n      jump\t// in\n    tag_264:\n        /* \"#utility.yul\":2237:2300   */\n      swap6\n      pop\n        /* \"#utility.yul\":2192:2310   */\n      pop\n        /* \"#utility.yul\":2349:2352   */\n      0x80\n        /* \"#utility.yul\":2376:2445   */\n      tag_265\n        /* \"#utility.yul\":2437:2444   */\n      dup12\n        /* \"#utility.yul\":2428:2434   */\n      dup3\n        /* \"#utility.yul\":2417:2426   */\n      dup13\n        /* \"#utility.yul\":2413:2435   */\n      add\n        /* \"#utility.yul\":2376:2445   */\n      tag_211\n      jump\t// in\n    tag_265:\n        /* \"#utility.yul\":2366:2445   */\n      swap5\n      pop\n        /* \"#utility.yul\":2320:2455   */\n      pop\n        /* \"#utility.yul\":2494:2497   */\n      0xa0\n        /* \"#utility.yul\":2521:2574   */\n      tag_266\n        /* \"#utility.yul\":2566:2573   */\n      dup12\n        /* \"#utility.yul\":2557:2563   */\n      dup3\n        /* \"#utility.yul\":2546:2555   */\n      dup13\n        /* \"#utility.yul\":2542:2564   */\n      add\n        /* \"#utility.yul\":2521:2574   */\n      tag_209\n      jump\t// in\n    tag_266:\n        /* \"#utility.yul\":2511:2574   */\n      swap4\n      pop\n        /* \"#utility.yul\":2465:2584   */\n      pop\n        /* \"#utility.yul\":2623:2626   */\n      0xc0\n        /* \"#utility.yul\":2650:2703   */\n      tag_267\n        /* \"#utility.yul\":2695:2702   */\n      dup12\n        /* \"#utility.yul\":2686:2692   */\n      dup3\n        /* \"#utility.yul\":2675:2684   */\n      dup13\n        /* \"#utility.yul\":2671:2693   */\n      add\n        /* \"#utility.yul\":2650:2703   */\n      tag_209\n      jump\t// in\n    tag_267:\n        /* \"#utility.yul\":2640:2703   */\n      swap3\n      pop\n        /* \"#utility.yul\":2594:2713   */\n      pop\n        /* \"#utility.yul\":2752:2755   */\n      0xe0\n        /* \"#utility.yul\":2779:2832   */\n      tag_268\n        /* \"#utility.yul\":2824:2831   */\n      dup12\n        /* \"#utility.yul\":2815:2821   */\n      dup3\n        /* \"#utility.yul\":2804:2813   */\n      dup13\n        /* \"#utility.yul\":2800:2822   */\n      add\n        /* \"#utility.yul\":2779:2832   */\n      tag_209\n      jump\t// in\n    tag_268:\n        /* \"#utility.yul\":2769:2832   */\n      swap2\n      pop\n        /* \"#utility.yul\":2723:2842   */\n      pop\n        /* \"#utility.yul\":1468:2849   */\n      swap3\n      swap6\n      swap9\n      pop\n      swap3\n      swap6\n      swap9\n      swap1\n      swap4\n      swap7\n      pop\n      jump\t// out\n        /* \"#utility.yul\":2855:3184   */\n    tag_39:\n        /* \"#utility.yul\":2914:2920   */\n      0x00\n        /* \"#utility.yul\":2963:2965   */\n      0x20\n        /* \"#utility.yul\":2951:2960   */\n      dup3\n        /* \"#utility.yul\":2942:2949   */\n      dup5\n        /* \"#utility.yul\":2938:2961   */\n      sub\n        /* \"#utility.yul\":2934:2966   */\n      slt\n        /* \"#utility.yul\":2931:3050   */\n      iszero\n      tag_270\n      jumpi\n        /* \"#utility.yul\":2969:3048   */\n      tag_271\n      tag_205\n      jump\t// in\n    tag_271:\n        /* \"#utility.yul\":2931:3050   */\n    tag_270:\n        /* \"#utility.yul\":3089:3090   */\n      0x00\n        /* \"#utility.yul\":3114:3167   */\n      tag_272\n        /* \"#utility.yul\":3159:3166   */\n      dup5\n        /* \"#utility.yul\":3150:3156   */\n      dup3\n        /* \"#utility.yul\":3139:3148   */\n      dup6\n        /* \"#utility.yul\":3135:3157   */\n      add\n        /* \"#utility.yul\":3114:3167   */\n      tag_209\n      jump\t// in\n    tag_272:\n        /* \"#utility.yul\":3104:3167   */\n      swap2\n      pop\n        /* \"#utility.yul\":3060:3177   */\n      pop\n        /* \"#utility.yul\":2855:3184   */\n      swap3\n      swap2\n      pop\n      pop\n      jump\t// out\n        /* \"#utility.yul\":3190:3308   */\n    tag_212:\n        /* \"#utility.yul\":3277:3301   */\n      tag_274\n        /* \"#utility.yul\":3295:3300   */\n      dup2\n        /* \"#utility.yul\":3277:3301   */\n      tag_207\n      jump\t// in\n    tag_274:\n        /* \"#utility.yul\":3272:3275   */\n      dup3\n        /* \"#utility.yul\":3265:3302   */\n      mstore\n        /* \"#utility.yul\":3190:3308   */\n      pop\n      pop\n      jump\t// out\n        /* \"#utility.yul\":3314:3494   */\n    tag_118:\n        /* \"#utility.yul\":3362:3439   */\n      0x4e487b7100000000000000000000000000000000000000000000000000000000\n        /* \"#utility.yul\":3359:3360   */\n      0x00\n        /* \"#utility.yul\":3352:3440   */\n      mstore\n        /* \"#utility.yul\":3459:3463   */\n      0x21\n        /* \"#utility.yul\":3456:3457   */\n      0x04\n        /* \"#utility.yul\":3449:3464   */\n      mstore\n        /* \"#utility.yul\":3483:3487   */\n      0x24\n        /* \"#utility.yul\":3480:3481   */\n      0x00\n        /* \"#utility.yul\":3473:3488   */\n      revert\n        /* \"#utility.yul\":3500:3621   */\n    tag_213:\n        /* \"#utility.yul\":3589:3590   */\n      0x05\n        /* \"#utility.yul\":3582:3587   */\n      dup2\n        /* \"#utility.yul\":3579:3591   */\n      lt\n        /* \"#utility.yul\":3569:3615   */\n      tag_277\n      jumpi\n        /* \"#utility.yul\":3595:3613   */\n      tag_278\n      tag_118\n      jump\t// in\n    tag_278:\n        /* \"#utility.yul\":3569:3615   */\n    tag_277:\n        /* \"#utility.yul\":3500:3621   */\n      pop\n      jump\t// out\n        /* \"#utility.yul\":3627:3770   */\n    tag_214:\n        /* \"#utility.yul\":3680:3687   */\n      0x00\n        /* \"#utility.yul\":3709:3714   */\n      dup2\n        /* \"#utility.yul\":3698:3714   */\n      swap1\n      pop\n        /* \"#utility.yul\":3715:3764   */\n      tag_280\n        /* \"#utility.yul\":3758:3763   */\n      dup3\n        /* \"#utility.yul\":3715:3764   */\n      tag_213\n      jump\t// in\n    tag_280:\n        /* \"#utility.yul\":3627:3770   */\n      swap2\n      swap1\n      pop\n      jump\t// out\n        /* \"#utility.yul\":3776:3919   */\n    tag_215:\n        /* \"#utility.yul\":3840:3849   */\n      0x00\n        /* \"#utility.yul\":3873:3913   */\n      tag_282\n        /* \"#utility.yul\":3907:3912   */\n      dup3\n        /* \"#utility.yul\":3873:3913   */\n      tag_214\n      jump\t// in\n    tag_282:\n        /* \"#utility.yul\":3860:3913   */\n      swap1\n      pop\n        /* \"#utility.yul\":3776:3919   */\n      swap2\n      swap1\n      pop\n      jump\t// out\n        /* \"#utility.yul\":3925:4084   */\n    tag_216:\n        /* \"#utility.yul\":4026:4077   */\n      tag_284\n        /* \"#utility.yul\":4071:4076   */\n      dup2\n        /* \"#utility.yul\":4026:4077   */\n      tag_215\n      jump\t// in\n    tag_284:\n        /* \"#utility.yul\":4021:4024   */\n      dup3\n        /* \"#utility.yul\":4014:4078   */\n      mstore\n        /* \"#utility.yul\":3925:4084   */\n      pop\n      pop\n      jump\t// out\n        /* \"#utility.yul\":4090:5226   */\n    tag_42:\n        /* \"#utility.yul\":4421:4425   */\n      0x00\n        /* \"#utility.yul\":4459:4462   */\n      0x0120\n        /* \"#utility.yul\":4448:4457   */\n      dup3\n        /* \"#utility.yul\":4444:4463   */\n      add\n        /* \"#utility.yul\":4436:4463   */\n      swap1\n      pop\n        /* \"#utility.yul\":4473:4544   */\n      tag_286\n        /* \"#utility.yul\":4541:4542   */\n      0x00\n        /* \"#utility.yul\":4530:4539   */\n      dup4\n        /* \"#utility.yul\":4526:4543   */\n      add\n        /* \"#utility.yul\":4517:4523   */\n      dup13\n        /* \"#utility.yul\":4473:4544   */\n      tag_212\n      jump\t// in\n    tag_286:\n        /* \"#utility.yul\":4554:4626   */\n      tag_287\n        /* \"#utility.yul\":4622:4624   */\n      0x20\n        /* \"#utility.yul\":4611:4620   */\n      dup4\n        /* \"#utility.yul\":4607:4625   */\n      add\n        /* \"#utility.yul\":4598:4604   */\n      dup12\n        /* \"#utility.yul\":4554:4626   */\n      tag_212\n      jump\t// in\n    tag_287:\n        /* \"#utility.yul\":4636:4708   */\n      tag_288\n        /* \"#utility.yul\":4704:4706   */\n      0x40\n        /* \"#utility.yul\":4693:4702   */\n      dup4\n        /* \"#utility.yul\":4689:4707   */\n      add\n        /* \"#utility.yul\":4680:4686   */\n      dup11\n        /* \"#utility.yul\":4636:4708   */\n      tag_212\n      jump\t// in\n    tag_288:\n        /* \"#utility.yul\":4718:4790   */\n      tag_289\n        /* \"#utility.yul\":4786:4788   */\n      0x60\n        /* \"#utility.yul\":4775:4784   */\n      dup4\n        /* \"#utility.yul\":4771:4789   */\n      add\n        /* \"#utility.yul\":4762:4768   */\n      dup10\n        /* \"#utility.yul\":4718:4790   */\n      tag_212\n      jump\t// in\n    tag_289:\n        /* \"#utility.yul\":4800:4887   */\n      tag_290\n        /* \"#utility.yul\":4882:4885   */\n      0x80\n        /* \"#utility.yul\":4871:4880   */\n      dup4\n        /* \"#utility.yul\":4867:4886   */\n      add\n        /* \"#utility.yul\":4858:4864   */\n      dup9\n        /* \"#utility.yul\":4800:4887   */\n      tag_216\n      jump\t// in\n    tag_290:\n        /* \"#utility.yul\":4897:4970   */\n      tag_291\n        /* \"#utility.yul\":4965:4968   */\n      0xa0\n        /* \"#utility.yul\":4954:4963   */\n      dup4\n        /* \"#utility.yul\":4950:4969   */\n      add\n        /* \"#utility.yul\":4941:4947   */\n      dup8\n        /* \"#utility.yul\":4897:4970   */\n      tag_212\n      jump\t// in\n    tag_291:\n        /* \"#utility.yul\":4980:5053   */\n      tag_292\n        /* \"#utility.yul\":5048:5051   */\n      0xc0\n        /* \"#utility.yul\":5037:5046   */\n      dup4\n        /* \"#utility.yul\":5033:5052   */\n      add\n        /* \"#utility.yul\":5024:5030   */\n      dup7\n        /* \"#utility.yul\":4980:5053   */\n      tag_212\n      jump\t// in\n    tag_292:\n        /* \"#utility.yul\":5063:5136   */\n      tag_293\n        /* \"#utility.yul\":5131:5134   */\n      0xe0\n        /* \"#utility.yul\":5120:5129   */\n      dup4\n        /* \"#utility.yul\":5116:5135   */\n      add\n        /* \"#utility.yul\":5107:5113   */\n      dup6\n        /* \"#utility.yul\":5063:5136   */\n      tag_212\n      jump\t// in\n    tag_293:\n        /* \"#utility.yul\":5146:5219   */\n      tag_294\n        /* \"#utility.yul\":5214:5217   */\n      0x0100\n        /* \"#utility.yul\":5203:5212   */\n      dup4\n        /* \"#utility.yul\":5199:5218   */\n      add\n        /* \"#utility.yul\":5190:5196   */\n      dup5\n        /* \"#utility.yul\":5146:5219   */\n      tag_212\n      jump\t// in\n    tag_294:\n        /* \"#utility.yul\":4090:5226   */\n      swap11\n      swap10\n      pop\n      pop\n      pop\n      pop\n      pop\n      pop\n      pop\n      pop\n      pop\n      pop\n      jump\t// out\n        /* \"#utility.yul\":5232:5738   */\n    tag_45:\n        /* \"#utility.yul\":5316:5322   */\n      0x00\n        /* \"#utility.yul\":5324:5330   */\n      dup1\n        /* \"#utility.yul\":5373:5375   */\n      0x40\n        /* \"#utility.yul\":5361:5370   */\n      dup4\n        /* \"#utility.yul\":5352:5359   */\n      dup6\n        /* \"#utility.yul\":5348:5371   */\n      sub\n        /* \"#utility.yul\":5344:5376   */\n      slt\n        /* \"#utility.yul\":5341:5460   */\n      iszero\n      tag_296\n      jumpi\n        /* \"#utility.yul\":5379:5458   */\n      tag_297\n      tag_205\n      jump\t// in\n    tag_297:\n        /* \"#utility.yul\":5341:5460   */\n    tag_296:\n        /* \"#utility.yul\":5499:5500   */\n      0x00\n        /* \"#utility.yul\":5524:5577   */\n      tag_298\n        /* \"#utility.yul\":5569:5576   */\n      dup6\n        /* \"#utility.yul\":5560:5566   */\n      dup3\n        /* \"#utility.yul\":5549:5558   */\n      dup7\n        /* \"#utility.yul\":5545:5567   */\n      add\n        /* \"#utility.yul\":5524:5577   */\n      tag_209\n      jump\t// in\n    tag_298:\n        /* \"#utility.yul\":5514:5577   */\n      swap3\n      pop\n        /* \"#utility.yul\":5470:5587   */\n      pop\n        /* \"#utility.yul\":5626:5628   */\n      0x20\n        /* \"#utility.yul\":5652:5721   */\n      tag_299\n        /* \"#utility.yul\":5713:5720   */\n      dup6\n        /* \"#utility.yul\":5704:5710   */\n      dup3\n        /* \"#utility.yul\":5693:5702   */\n      dup7\n        /* \"#utility.yul\":5689:5711   */\n      add\n        /* \"#utility.yul\":5652:5721   */\n      tag_211\n      jump\t// in\n    tag_299:\n        /* \"#utility.yul\":5642:5721   */\n      swap2\n      pop\n        /* \"#utility.yul\":5597:5731   */\n      pop\n        /* \"#utility.yul\":5232:5738   */\n      swap3\n      pop\n      swap3\n      swap1\n      pop\n      jump\t// out\n        /* \"#utility.yul\":5744:5870   */\n    tag_217:\n        /* \"#utility.yul\":5781:5788   */\n      0x00\n        /* \"#utility.yul\":5821:5863   */\n      0xffffffffffffffffffffffffffffffffffffffff\n        /* \"#utility.yul\":5814:5819   */\n      dup3\n        /* \"#utility.yul\":5810:5864   */\n      and\n        /* \"#utility.yul\":5799:5864   */\n      swap1\n      pop\n        /* \"#utility.yul\":5744:5870   */\n      swap2\n      swap1\n      pop\n      jump\t// out\n        /* \"#utility.yul\":5876:5972   */\n    tag_218:\n        /* \"#utility.yul\":5913:5920   */\n      0x00\n        /* \"#utility.yul\":5942:5966   */\n      tag_302\n        /* \"#utility.yul\":5960:5965   */\n      dup3\n        /* \"#utility.yul\":5942:5966   */\n      tag_217\n      jump\t// in\n    tag_302:\n        /* \"#utility.yul\":5931:5966   */\n      swap1\n      pop\n        /* \"#utility.yul\":5876:5972   */\n      swap2\n      swap1\n      pop\n      jump\t// out\n        /* \"#utility.yul\":5978:6096   */\n    tag_219:\n        /* \"#utility.yul\":6065:6089   */\n      tag_304\n        /* \"#utility.yul\":6083:6088   */\n      dup2\n        /* \"#utility.yul\":6065:6089   */\n      tag_218\n      jump\t// in\n    tag_304:\n        /* \"#utility.yul\":6060:6063   */\n      dup3\n        /* \"#utility.yul\":6053:6090   */\n      mstore\n        /* \"#utility.yul\":5978:6096   */\n      pop\n      pop\n      jump\t// out\n        /* \"#utility.yul\":6102:6324   */\n    tag_52:\n        /* \"#utility.yul\":6195:6199   */\n      0x00\n        /* \"#utility.yul\":6233:6235   */\n      0x20\n        /* \"#utility.yul\":6222:6231   */\n      dup3\n        /* \"#utility.yul\":6218:6236   */\n      add\n        /* \"#utility.yul\":6210:6236   */\n      swap1\n      pop\n        /* \"#utility.yul\":6246:6317   */\n      tag_306\n        /* \"#utility.yul\":6314:6315   */\n      0x00\n        /* \"#utility.yul\":6303:6312   */\n      dup4\n        /* \"#utility.yul\":6299:6316   */\n      add\n        /* \"#utility.yul\":6290:6296   */\n      dup5\n        /* \"#utility.yul\":6246:6317   */\n      tag_219\n      jump\t// in\n    tag_306:\n        /* \"#utility.yul\":6102:6324   */\n      swap3\n      swap2\n      pop\n      pop\n      jump\t// out\n        /* \"#utility.yul\":6330:6447   */\n    tag_220:\n        /* \"#utility.yul\":6439:6440   */\n      0x00\n        /* \"#utility.yul\":6436:6437   */\n      dup1\n        /* \"#utility.yul\":6429:6441   */\n      revert\n        /* \"#utility.yul\":6453:6555   */\n    tag_221:\n        /* \"#utility.yul\":6494:6500   */\n      0x00\n        /* \"#utility.yul\":6545:6547   */\n      0x1f\n        /* \"#utility.yul\":6541:6548   */\n      not\n        /* \"#utility.yul\":6536:6538   */\n      0x1f\n        /* \"#utility.yul\":6529:6534   */\n      dup4\n        /* \"#utility.yul\":6525:6539   */\n      add\n        /* \"#utility.yul\":6521:6549   */\n      and\n        /* \"#utility.yul\":6511:6549   */\n      swap1\n      pop\n        /* \"#utility.yul\":6453:6555   */\n      swap2\n      swap1\n      pop\n      jump\t// out\n        /* \"#utility.yul\":6561:6741   */\n    tag_222:\n        /* \"#utility.yul\":6609:6686   */\n      0x4e487b7100000000000000000000000000000000000000000000000000000000\n        /* \"#utility.yul\":6606:6607   */\n      0x00\n        /* \"#utility.yul\":6599:6687   */\n      mstore\n        /* \"#utility.yul\":6706:6710   */\n      0x41\n        /* \"#utility.yul\":6703:6704   */\n      0x04\n        /* \"#utility.yul\":6696:6711   */\n      mstore\n        /* \"#utility.yul\":6730:6734   */\n      0x24\n        /* \"#utility.yul\":6727:6728   */\n      0x00\n        /* \"#utility.yul\":6720:6735   */\n      revert\n        /* \"#utility.yul\":6747:7028   */\n    tag_223:\n        /* \"#utility.yul\":6830:6857   */\n      tag_311\n        /* \"#utility.yul\":6852:6856   */\n      dup3\n        /* \"#utility.yul\":6830:6857   */\n      tag_221\n      jump\t// in\n    tag_311:\n        /* \"#utility.yul\":6822:6828   */\n      dup2\n        /* \"#utility.yul\":6818:6858   */\n      add\n        /* \"#utility.yul\":6960:6966   */\n      dup2\n        /* \"#utility.yul\":6948:6958   */\n      dup2\n        /* \"#utility.yul\":6945:6967   */\n      lt\n        /* \"#utility.yul\":6924:6942   */\n      0xffffffffffffffff\n        /* \"#utility.yul\":6912:6922   */\n      dup3\n        /* \"#utility.yul\":6909:6943   */\n      gt\n        /* \"#utility.yul\":6906:6968   */\n      or\n        /* \"#utility.yul\":6903:6991   */\n      iszero\n      tag_312\n      jumpi\n        /* \"#utility.yul\":6971:6989   */\n      tag_313\n      tag_222\n      jump\t// in\n    tag_313:\n        /* \"#utility.yul\":6903:6991   */\n    tag_312:\n        /* \"#utility.yul\":7011:7021   */\n      dup1\n        /* \"#utility.yul\":7007:7009   */\n      0x40\n        /* \"#utility.yul\":7000:7022   */\n      mstore\n        /* \"#utility.yul\":6790:7028   */\n      pop\n        /* \"#utility.yul\":6747:7028   */\n      pop\n      pop\n      jump\t// out\n        /* \"#utility.yul\":7034:7163   */\n    tag_224:\n        /* \"#utility.yul\":7068:7074   */\n      0x00\n        /* \"#utility.yul\":7095:7115   */\n      tag_315\n      tag_204\n      jump\t// in\n    tag_315:\n        /* \"#utility.yul\":7085:7115   */\n      swap1\n      pop\n        /* \"#utility.yul\":7124:7157   */\n      tag_316\n        /* \"#utility.yul\":7152:7156   */\n      dup3\n        /* \"#utility.yul\":7144:7150   */\n      dup3\n        /* \"#utility.yul\":7124:7157   */\n      tag_223\n      jump\t// in\n    tag_316:\n        /* \"#utility.yul\":7034:7163   */\n      swap2\n      swap1\n      pop\n      jump\t// out\n        /* \"#utility.yul\":7318:9091   */\n    tag_226:\n        /* \"#utility.yul\":7395:7400   */\n      0x00\n        /* \"#utility.yul\":7439:7445   */\n      0x0120\n        /* \"#utility.yul\":7427:7436   */\n      dup3\n        /* \"#utility.yul\":7422:7425   */\n      dup5\n        /* \"#utility.yul\":7418:7437   */\n      sub\n        /* \"#utility.yul\":7414:7446   */\n      slt\n        /* \"#utility.yul\":7411:7530   */\n      iszero\n      tag_319\n      jumpi\n        /* \"#utility.yul\":7449:7528   */\n      tag_320\n      tag_220\n      jump\t// in\n    tag_320:\n        /* \"#utility.yul\":7411:7530   */\n    tag_319:\n        /* \"#utility.yul\":7548:7571   */\n      tag_321\n        /* \"#utility.yul\":7564:7570   */\n      0x0120\n        /* \"#utility.yul\":7548:7571   */\n      tag_224\n      jump\t// in\n    tag_321:\n        /* \"#utility.yul\":7539:7571   */\n      swap1\n      pop\n        /* \"#utility.yul\":7628:7629   */\n      0x00\n        /* \"#utility.yul\":7668:7717   */\n      tag_322\n        /* \"#utility.yul\":7713:7716   */\n      dup5\n        /* \"#utility.yul\":7704:7710   */\n      dup3\n        /* \"#utility.yul\":7693:7702   */\n      dup6\n        /* \"#utility.yul\":7689:7711   */\n      add\n        /* \"#utility.yul\":7668:7717   */\n      tag_209\n      jump\t// in\n    tag_322:\n        /* \"#utility.yul\":7661:7665   */\n      0x00\n        /* \"#utility.yul\":7654:7659   */\n      dup4\n        /* \"#utility.yul\":7650:7666   */\n      add\n        /* \"#utility.yul\":7643:7718   */\n      mstore\n        /* \"#utility.yul\":7581:7729   */\n      pop\n        /* \"#utility.yul\":7794:7796   */\n      0x20\n        /* \"#utility.yul\":7835:7884   */\n      tag_323\n        /* \"#utility.yul\":7880:7883   */\n      dup5\n        /* \"#utility.yul\":7871:7877   */\n      dup3\n        /* \"#utility.yul\":7860:7869   */\n      dup6\n        /* \"#utility.yul\":7856:7878   */\n      add\n        /* \"#utility.yul\":7835:7884   */\n      tag_209\n      jump\t// in\n    tag_323:\n        /* \"#utility.yul\":7828:7832   */\n      0x20\n        /* \"#utility.yul\":7821:7826   */\n      dup4\n        /* \"#utility.yul\":7817:7833   */\n      add\n        /* \"#utility.yul\":7810:7885   */\n      mstore\n        /* \"#utility.yul\":7739:7896   */\n      pop\n        /* \"#utility.yul\":7961:7963   */\n      0x40\n        /* \"#utility.yul\":8002:8051   */\n      tag_324\n        /* \"#utility.yul\":8047:8050   */\n      dup5\n        /* \"#utility.yul\":8038:8044   */\n      dup3\n        /* \"#utility.yul\":8027:8036   */\n      dup6\n        /* \"#utility.yul\":8023:8045   */\n      add\n        /* \"#utility.yul\":8002:8051   */\n      tag_209\n      jump\t// in\n    tag_324:\n        /* \"#utility.yul\":7995:7999   */\n      0x40\n        /* \"#utility.yul\":7988:7993   */\n      dup4\n        /* \"#utility.yul\":7984:8000   */\n      add\n        /* \"#utility.yul\":7977:8052   */\n      mstore\n        /* \"#utility.yul\":7906:8063   */\n      pop\n        /* \"#utility.yul\":8126:8128   */\n      0x60\n        /* \"#utility.yul\":8167:8216   */\n      tag_325\n        /* \"#utility.yul\":8212:8215   */\n      dup5\n        /* \"#utility.yul\":8203:8209   */\n      dup3\n        /* \"#utility.yul\":8192:8201   */\n      dup6\n        /* \"#utility.yul\":8188:8210   */\n      add\n        /* \"#utility.yul\":8167:8216   */\n      tag_209\n      jump\t// in\n    tag_325:\n        /* \"#utility.yul\":8160:8164   */\n      0x60\n        /* \"#utility.yul\":8153:8158   */\n      dup4\n        /* \"#utility.yul\":8149:8165   */\n      add\n        /* \"#utility.yul\":8142:8217   */\n      mstore\n        /* \"#utility.yul\":8073:8228   */\n      pop\n        /* \"#utility.yul\":8292:8295   */\n      0x80\n        /* \"#utility.yul\":8334:8399   */\n      tag_326\n        /* \"#utility.yul\":8395:8398   */\n      dup5\n        /* \"#utility.yul\":8386:8392   */\n      dup3\n        /* \"#utility.yul\":8375:8384   */\n      dup6\n        /* \"#utility.yul\":8371:8393   */\n      add\n        /* \"#utility.yul\":8334:8399   */\n      tag_211\n      jump\t// in\n    tag_326:\n        /* \"#utility.yul\":8327:8331   */\n      0x80\n        /* \"#utility.yul\":8320:8325   */\n      dup4\n        /* \"#utility.yul\":8316:8332   */\n      add\n        /* \"#utility.yul\":8309:8400   */\n      mstore\n        /* \"#utility.yul\":8238:8411   */\n      pop\n        /* \"#utility.yul\":8476:8479   */\n      0xa0\n        /* \"#utility.yul\":8518:8567   */\n      tag_327\n        /* \"#utility.yul\":8563:8566   */\n      dup5\n        /* \"#utility.yul\":8554:8560   */\n      dup3\n        /* \"#utility.yul\":8543:8552   */\n      dup6\n        /* \"#utility.yul\":8539:8561   */\n      add\n        /* \"#utility.yul\":8518:8567   */\n      tag_209\n      jump\t// in\n    tag_327:\n        /* \"#utility.yul\":8511:8515   */\n      0xa0\n        /* \"#utility.yul\":8504:8509   */\n      dup4\n        /* \"#utility.yul\":8500:8516   */\n      add\n        /* \"#utility.yul\":8493:8568   */\n      mstore\n        /* \"#utility.yul\":8421:8579   */\n      pop\n        /* \"#utility.yul\":8647:8650   */\n      0xc0\n        /* \"#utility.yul\":8689:8738   */\n      tag_328\n        /* \"#utility.yul\":8734:8737   */\n      dup5\n        /* \"#utility.yul\":8725:8731   */\n      dup3\n        /* \"#utility.yul\":8714:8723   */\n      dup6\n        /* \"#utility.yul\":8710:8732   */\n      add\n        /* \"#utility.yul\":8689:8738   */\n      tag_209\n      jump\t// in\n    tag_328:\n        /* \"#utility.yul\":8682:8686   */\n      0xc0\n        /* \"#utility.yul\":8675:8680   */\n      dup4\n        /* \"#utility.yul\":8671:8687   */\n      add\n        /* \"#utility.yul\":8664:8739   */\n      mstore\n        /* \"#utility.yul\":8589:8750   */\n      pop\n        /* \"#utility.yul\":8817:8820   */\n      0xe0\n        /* \"#utility.yul\":8859:8908   */\n      tag_329\n        /* \"#utility.yul\":8904:8907   */\n      dup5\n        /* \"#utility.yul\":8895:8901   */\n      dup3\n        /* \"#utility.yul\":8884:8893   */\n      dup6\n        /* \"#utility.yul\":8880:8902   */\n      add\n        /* \"#utility.yul\":8859:8908   */\n      tag_209\n      jump\t// in\n    tag_329:\n        /* \"#utility.yul\":8852:8856   */\n      0xe0\n        /* \"#utility.yul\":8845:8850   */\n      dup4\n        /* \"#utility.yul\":8841:8857   */\n      add\n        /* \"#utility.yul\":8834:8909   */\n      mstore\n        /* \"#utility.yul\":8760:8920   */\n      pop\n        /* \"#utility.yul\":8979:8982   */\n      0x0100\n        /* \"#utility.yul\":9023:9072   */\n      tag_330\n        /* \"#utility.yul\":9068:9071   */\n      dup5\n        /* \"#utility.yul\":9059:9065   */\n      dup3\n        /* \"#utility.yul\":9048:9057   */\n      dup6\n        /* \"#utility.yul\":9044:9066   */\n      add\n        /* \"#utility.yul\":9023:9072   */\n      tag_209\n      jump\t// in\n    tag_330:\n        /* \"#utility.yul\":9014:9020   */\n      0x0100\n        /* \"#utility.yul\":9007:9012   */\n      dup4\n        /* \"#utility.yul\":9003:9021   */\n      add\n        /* \"#utility.yul\":8996:9073   */\n      mstore\n        /* \"#utility.yul\":8930:9084   */\n      pop\n        /* \"#utility.yul\":7318:9091   */\n      swap3\n      swap2\n      pop\n      pop\n      jump\t// out\n        /* \"#utility.yul\":9097:9483   */\n    tag_55:\n        /* \"#utility.yul\":9184:9190   */\n      0x00\n        /* \"#utility.yul\":9233:9236   */\n      0x0120\n        /* \"#utility.yul\":9221:9230   */\n      dup3\n        /* \"#utility.yul\":9212:9219   */\n      dup5\n        /* \"#utility.yul\":9208:9231   */\n      sub\n        /* \"#utility.yul\":9204:9237   */\n      slt\n        /* \"#utility.yul\":9201:9321   */\n      iszero\n      tag_332\n      jumpi\n        /* \"#utility.yul\":9240:9319   */\n      tag_333\n      tag_205\n      jump\t// in\n    tag_333:\n        /* \"#utility.yul\":9201:9321   */\n    tag_332:\n        /* \"#utility.yul\":9360:9361   */\n      0x00\n        /* \"#utility.yul\":9385:9466   */\n      tag_334\n        /* \"#utility.yul\":9458:9465   */\n      dup5\n        /* \"#utility.yul\":9449:9455   */\n      dup3\n        /* \"#utility.yul\":9438:9447   */\n      dup6\n        /* \"#utility.yul\":9434:9456   */\n      add\n        /* \"#utility.yul\":9385:9466   */\n      tag_226\n      jump\t// in\n    tag_334:\n        /* \"#utility.yul\":9375:9466   */\n      swap2\n      pop\n        /* \"#utility.yul\":9331:9476   */\n      pop\n        /* \"#utility.yul\":9097:9483   */\n      swap3\n      swap2\n      pop\n      pop\n      jump\t// out\n        /* \"#utility.yul\":9489:9597   */\n    tag_227:\n        /* \"#utility.yul\":9566:9590   */\n      tag_336\n        /* \"#utility.yul\":9584:9589   */\n      dup2\n        /* \"#utility.yul\":9566:9590   */\n      tag_207\n      jump\t// in\n    tag_336:\n        /* \"#utility.yul\":9561:9564   */\n      dup3\n        /* \"#utility.yul\":9554:9591   */\n      mstore\n        /* \"#utility.yul\":9489:9597   */\n      pop\n      pop\n      jump\t// out\n        /* \"#utility.yul\":9603:9752   */\n    tag_228:\n        /* \"#utility.yul\":9694:9745   */\n      tag_338\n        /* \"#utility.yul\":9739:9744   */\n      dup2\n        /* \"#utility.yul\":9694:9745   */\n      tag_215\n      jump\t// in\n    tag_338:\n        /* \"#utility.yul\":9689:9692   */\n      dup3\n        /* \"#utility.yul\":9682:9746   */\n      mstore\n        /* \"#utility.yul\":9603:9752   */\n      pop\n      pop\n      jump\t// out\n        /* \"#utility.yul\":9806:11599   */\n    tag_229:\n        /* \"#utility.yul\":9959:9965   */\n      0x0120\n        /* \"#utility.yul\":9954:9957   */\n      dup3\n        /* \"#utility.yul\":9950:9966   */\n      add\n        /* \"#utility.yul\":10046:10050   */\n      0x00\n        /* \"#utility.yul\":10039:10044   */\n      dup3\n        /* \"#utility.yul\":10035:10051   */\n      add\n        /* \"#utility.yul\":10029:10052   */\n      mload\n        /* \"#utility.yul\":10065:10128   */\n      tag_340\n        /* \"#utility.yul\":10122:10126   */\n      0x00\n        /* \"#utility.yul\":10117:10120   */\n      dup6\n        /* \"#utility.yul\":10113:10127   */\n      add\n        /* \"#utility.yul\":10099:10111   */\n      dup3\n        /* \"#utility.yul\":10065:10128   */\n      tag_227\n      jump\t// in\n    tag_340:\n        /* \"#utility.yul\":9976:10138   */\n      pop\n        /* \"#utility.yul\":10226:10230   */\n      0x20\n        /* \"#utility.yul\":10219:10224   */\n      dup3\n        /* \"#utility.yul\":10215:10231   */\n      add\n        /* \"#utility.yul\":10209:10232   */\n      mload\n        /* \"#utility.yul\":10245:10308   */\n      tag_341\n        /* \"#utility.yul\":10302:10306   */\n      0x20\n        /* \"#utility.yul\":10297:10300   */\n      dup6\n        /* \"#utility.yul\":10293:10307   */\n      add\n        /* \"#utility.yul\":10279:10291   */\n      dup3\n        /* \"#utility.yul\":10245:10308   */\n      tag_227\n      jump\t// in\n    tag_341:\n        /* \"#utility.yul\":10148:10318   */\n      pop\n        /* \"#utility.yul\":10406:10410   */\n      0x40\n        /* \"#utility.yul\":10399:10404   */\n      dup3\n        /* \"#utility.yul\":10395:10411   */\n      add\n        /* \"#utility.yul\":10389:10412   */\n      mload\n        /* \"#utility.yul\":10425:10488   */\n      tag_342\n        /* \"#utility.yul\":10482:10486   */\n      0x40\n        /* \"#utility.yul\":10477:10480   */\n      dup6\n        /* \"#utility.yul\":10473:10487   */\n      add\n        /* \"#utility.yul\":10459:10471   */\n      dup3\n        /* \"#utility.yul\":10425:10488   */\n      tag_227\n      jump\t// in\n    tag_342:\n        /* \"#utility.yul\":10328:10498   */\n      pop\n        /* \"#utility.yul\":10584:10588   */\n      0x60\n        /* \"#utility.yul\":10577:10582   */\n      dup3\n        /* \"#utility.yul\":10573:10589   */\n      add\n        /* \"#utility.yul\":10567:10590   */\n      mload\n        /* \"#utility.yul\":10603:10666   */\n      tag_343\n        /* \"#utility.yul\":10660:10664   */\n      0x60\n        /* \"#utility.yul\":10655:10658   */\n      dup6\n        /* \"#utility.yul\":10651:10665   */\n      add\n        /* \"#utility.yul\":10637:10649   */\n      dup3\n        /* \"#utility.yul\":10603:10666   */\n      tag_227\n      jump\t// in\n    tag_343:\n        /* \"#utility.yul\":10508:10676   */\n      pop\n        /* \"#utility.yul\":10763:10767   */\n      0x80\n        /* \"#utility.yul\":10756:10761   */\n      dup3\n        /* \"#utility.yul\":10752:10768   */\n      add\n        /* \"#utility.yul\":10746:10769   */\n      mload\n        /* \"#utility.yul\":10782:10859   */\n      tag_344\n        /* \"#utility.yul\":10853:10857   */\n      0x80\n        /* \"#utility.yul\":10848:10851   */\n      dup6\n        /* \"#utility.yul\":10844:10858   */\n      add\n        /* \"#utility.yul\":10830:10842   */\n      dup3\n        /* \"#utility.yul\":10782:10859   */\n      tag_228\n      jump\t// in\n    tag_344:\n        /* \"#utility.yul\":10686:10869   */\n      pop\n        /* \"#utility.yul\":10957:10961   */\n      0xa0\n        /* \"#utility.yul\":10950:10955   */\n      dup3\n        /* \"#utility.yul\":10946:10962   */\n      add\n        /* \"#utility.yul\":10940:10963   */\n      mload\n        /* \"#utility.yul\":10976:11039   */\n      tag_345\n        /* \"#utility.yul\":11033:11037   */\n      0xa0\n        /* \"#utility.yul\":11028:11031   */\n      dup6\n        /* \"#utility.yul\":11024:11038   */\n      add\n        /* \"#utility.yul\":11010:11022   */\n      dup3\n        /* \"#utility.yul\":10976:11039   */\n      tag_227\n      jump\t// in\n    tag_345:\n        /* \"#utility.yul\":10879:11049   */\n      pop\n        /* \"#utility.yul\":11140:11144   */\n      0xc0\n        /* \"#utility.yul\":11133:11138   */\n      dup3\n        /* \"#utility.yul\":11129:11145   */\n      add\n        /* \"#utility.yul\":11123:11146   */\n      mload\n        /* \"#utility.yul\":11159:11222   */\n      tag_346\n        /* \"#utility.yul\":11216:11220   */\n      0xc0\n        /* \"#utility.yul\":11211:11214   */\n      dup6\n        /* \"#utility.yul\":11207:11221   */\n      add\n        /* \"#utility.yul\":11193:11205   */\n      dup3\n        /* \"#utility.yul\":11159:11222   */\n      tag_227\n      jump\t// in\n    tag_346:\n        /* \"#utility.yul\":11059:11232   */\n      pop\n        /* \"#utility.yul\":11322:11326   */\n      0xe0\n        /* \"#utility.yul\":11315:11320   */\n      dup3\n        /* \"#utility.yul\":11311:11327   */\n      add\n        /* \"#utility.yul\":11305:11328   */\n      mload\n        /* \"#utility.yul\":11341:11404   */\n      tag_347\n        /* \"#utility.yul\":11398:11402   */\n      0xe0\n        /* \"#utility.yul\":11393:11396   */\n      dup6\n        /* \"#utility.yul\":11389:11403   */\n      add\n        /* \"#utility.yul\":11375:11387   */\n      dup3\n        /* \"#utility.yul\":11341:11404   */\n      tag_227\n      jump\t// in\n    tag_347:\n        /* \"#utility.yul\":11242:11414   */\n      pop\n        /* \"#utility.yul\":11496:11502   */\n      0x0100\n        /* \"#utility.yul\":11489:11494   */\n      dup3\n        /* \"#utility.yul\":11485:11503   */\n      add\n        /* \"#utility.yul\":11479:11504   */\n      mload\n        /* \"#utility.yul\":11517:11582   */\n      tag_348\n        /* \"#utility.yul\":11574:11580   */\n      0x0100\n        /* \"#utility.yul\":11569:11572   */\n      dup6\n        /* \"#utility.yul\":11565:11581   */\n      add\n        /* \"#utility.yul\":11551:11563   */\n      dup3\n        /* \"#utility.yul\":11517:11582   */\n      tag_227\n      jump\t// in\n    tag_348:\n        /* \"#utility.yul\":11424:11592   */\n      pop\n        /* \"#utility.yul\":9928:11599   */\n      pop\n        /* \"#utility.yul\":9806:11599   */\n      pop\n      pop\n      jump\t// out\n        /* \"#utility.yul\":11605:11940   */\n    tag_64:\n        /* \"#utility.yul\":11754:11758   */\n      0x00\n        /* \"#utility.yul\":11792:11795   */\n      0x0120\n        /* \"#utility.yul\":11781:11790   */\n      dup3\n        /* \"#utility.yul\":11777:11796   */\n      add\n        /* \"#utility.yul\":11769:11796   */\n      swap1\n      pop\n        /* \"#utility.yul\":11806:11933   */\n      tag_350\n        /* \"#utility.yul\":11930:11931   */\n      0x00\n        /* \"#utility.yul\":11919:11928   */\n      dup4\n        /* \"#utility.yul\":11915:11932   */\n      add\n        /* \"#utility.yul\":11906:11912   */\n      dup5\n        /* \"#utility.yul\":11806:11933   */\n      tag_229\n      jump\t// in\n    tag_350:\n        /* \"#utility.yul\":11605:11940   */\n      swap3\n      swap2\n      pop\n      pop\n      jump\t// out\n        /* \"#utility.yul\":11946:12068   */\n    tag_230:\n        /* \"#utility.yul\":12019:12043   */\n      tag_352\n        /* \"#utility.yul\":12037:12042   */\n      dup2\n        /* \"#utility.yul\":12019:12043   */\n      tag_218\n      jump\t// in\n    tag_352:\n        /* \"#utility.yul\":12012:12017   */\n      dup2\n        /* \"#utility.yul\":12009:12044   */\n      eq\n        /* \"#utility.yul\":11999:12062   */\n      tag_353\n      jumpi\n        /* \"#utility.yul\":12058:12059   */\n      0x00\n        /* \"#utility.yul\":12055:12056   */\n      dup1\n        /* \"#utility.yul\":12048:12060   */\n      revert\n        /* \"#utility.yul\":11999:12062   */\n    tag_353:\n        /* \"#utility.yul\":11946:12068   */\n      pop\n      jump\t// out\n        /* \"#utility.yul\":12074:12213   */\n    tag_231:\n        /* \"#utility.yul\":12120:12125   */\n      0x00\n        /* \"#utility.yul\":12158:12164   */\n      dup2\n        /* \"#utility.yul\":12145:12165   */\n      calldataload\n        /* \"#utility.yul\":12136:12165   */\n      swap1\n      pop\n        /* \"#utility.yul\":12174:12207   */\n      tag_355\n        /* \"#utility.yul\":12201:12206   */\n      dup2\n        /* \"#utility.yul\":12174:12207   */\n      tag_230\n      jump\t// in\n    tag_355:\n        /* \"#utility.yul\":12074:12213   */\n      swap3\n      swap2\n      pop\n      pop\n      jump\t// out\n        /* \"#utility.yul\":12219:12548   */\n    tag_70:\n        /* \"#utility.yul\":12278:12284   */\n      0x00\n        /* \"#utility.yul\":12327:12329   */\n      0x20\n        /* \"#utility.yul\":12315:12324   */\n      dup3\n        /* \"#utility.yul\":12306:12313   */\n      dup5\n        /* \"#utility.yul\":12302:12325   */\n      sub\n        /* \"#utility.yul\":12298:12330   */\n      slt\n        /* \"#utility.yul\":12295:12414   */\n      iszero\n      tag_357\n      jumpi\n        /* \"#utility.yul\":12333:12412   */\n      tag_358\n      tag_205\n      jump\t// in\n    tag_358:\n        /* \"#utility.yul\":12295:12414   */\n    tag_357:\n        /* \"#utility.yul\":12453:12454   */\n      0x00\n        /* \"#utility.yul\":12478:12531   */\n      tag_359\n        /* \"#utility.yul\":12523:12530   */\n      dup5\n        /* \"#utility.yul\":12514:12520   */\n      dup3\n        /* \"#utility.yul\":12503:12512   */\n      dup6\n        /* \"#utility.yul\":12499:12521   */\n      add\n        /* \"#utility.yul\":12478:12531   */\n      tag_231\n      jump\t// in\n    tag_359:\n        /* \"#utility.yul\":12468:12531   */\n      swap2\n      pop\n        /* \"#utility.yul\":12424:12541   */\n      pop\n        /* \"#utility.yul\":12219:12548   */\n      swap3\n      swap2\n      pop\n      pop\n      jump\t// out\n        /* \"#utility.yul\":12554:12734   */\n    tag_87:\n        /* \"#utility.yul\":12602:12679   */\n      0x4e487b7100000000000000000000000000000000000000000000000000000000\n        /* \"#utility.yul\":12599:12600   */\n      0x00\n        /* \"#utility.yul\":12592:12680   */\n      mstore\n        /* \"#utility.yul\":12699:12703   */\n      0x32\n        /* \"#utility.yul\":12696:12697   */\n      0x04\n        /* \"#utility.yul\":12689:12704   */\n      mstore\n        /* \"#utility.yul\":12723:12727   */\n      0x24\n        /* \"#utility.yul\":12720:12721   */\n      0x00\n        /* \"#utility.yul\":12713:12728   */\n      revert\n        /* \"#utility.yul\":12740:12909   */\n    tag_232:\n        /* \"#utility.yul\":12824:12835   */\n      0x00\n        /* \"#utility.yul\":12858:12864   */\n      dup3\n        /* \"#utility.yul\":12853:12856   */\n      dup3\n        /* \"#utility.yul\":12846:12865   */\n      mstore\n        /* \"#utility.yul\":12898:12902   */\n      0x20\n        /* \"#utility.yul\":12893:12896   */\n      dup3\n        /* \"#utility.yul\":12889:12903   */\n      add\n        /* \"#utility.yul\":12874:12903   */\n      swap1\n      pop\n        /* \"#utility.yul\":12740:12909   */\n      swap3\n      swap2\n      pop\n      pop\n      jump\t// out\n        /* \"#utility.yul\":12915:13140   */\n    tag_233:\n        /* \"#utility.yul\":13055:13089   */\n      0x4f776e61626c653a206e6577206f776e657220697320746865207a65726f2061\n        /* \"#utility.yul\":13051:13052   */\n      0x00\n        /* \"#utility.yul\":13043:13049   */\n      dup3\n        /* \"#utility.yul\":13039:13053   */\n      add\n        /* \"#utility.yul\":13032:13090   */\n      mstore\n        /* \"#utility.yul\":13124:13132   */\n      0x6464726573730000000000000000000000000000000000000000000000000000\n        /* \"#utility.yul\":13119:13121   */\n      0x20\n        /* \"#utility.yul\":13111:13117   */\n      dup3\n        /* \"#utility.yul\":13107:13122   */\n      add\n        /* \"#utility.yul\":13100:13133   */\n      mstore\n        /* \"#utility.yul\":12915:13140   */\n      pop\n      jump\t// out\n        /* \"#utility.yul\":13146:13512   */\n    tag_234:\n        /* \"#utility.yul\":13288:13291   */\n      0x00\n        /* \"#utility.yul\":13309:13376   */\n      tag_364\n        /* \"#utility.yul\":13373:13375   */\n      0x26\n        /* \"#utility.yul\":13368:13371   */\n      dup4\n        /* \"#utility.yul\":13309:13376   */\n      tag_232\n      jump\t// in\n    tag_364:\n        /* \"#utility.yul\":13302:13376   */\n      swap2\n      pop\n        /* \"#utility.yul\":13385:13478   */\n      tag_365\n        /* \"#utility.yul\":13474:13477   */\n      dup3\n        /* \"#utility.yul\":13385:13478   */\n      tag_233\n      jump\t// in\n    tag_365:\n        /* \"#utility.yul\":13503:13505   */\n      0x40\n        /* \"#utility.yul\":13498:13501   */\n      dup3\n        /* \"#utility.yul\":13494:13506   */\n      add\n        /* \"#utility.yul\":13487:13506   */\n      swap1\n      pop\n        /* \"#utility.yul\":13146:13512   */\n      swap2\n      swap1\n      pop\n      jump\t// out\n        /* \"#utility.yul\":13518:13937   */\n    tag_178:\n        /* \"#utility.yul\":13684:13688   */\n      0x00\n        /* \"#utility.yul\":13722:13724   */\n      0x20\n        /* \"#utility.yul\":13711:13720   */\n      dup3\n        /* \"#utility.yul\":13707:13725   */\n      add\n        /* \"#utility.yul\":13699:13725   */\n      swap1\n      pop\n        /* \"#utility.yul\":13771:13780   */\n      dup2\n        /* \"#utility.yul\":13765:13769   */\n      dup2\n        /* \"#utility.yul\":13761:13781   */\n      sub\n        /* \"#utility.yul\":13757:13758   */\n      0x00\n        /* \"#utility.yul\":13746:13755   */\n      dup4\n        /* \"#utility.yul\":13742:13759   */\n      add\n        /* \"#utility.yul\":13735:13782   */\n      mstore\n        /* \"#utility.yul\":13799:13930   */\n      tag_367\n        /* \"#utility.yul\":13925:13929   */\n      dup2\n        /* \"#utility.yul\":13799:13930   */\n      tag_234\n      jump\t// in\n    tag_367:\n        /* \"#utility.yul\":13791:13930   */\n      swap1\n      pop\n        /* \"#utility.yul\":13518:13937   */\n      swap2\n      swap1\n      pop\n      jump\t// out\n        /* \"#utility.yul\":13943:14125   */\n    tag_235:\n        /* \"#utility.yul\":14083:14117   */\n      0x4f776e61626c653a2063616c6c6572206973206e6f7420746865206f776e6572\n        /* \"#utility.yul\":14079:14080   */\n      0x00\n        /* \"#utility.yul\":14071:14077   */\n      dup3\n        /* \"#utility.yul\":14067:14081   */\n      add\n        /* \"#utility.yul\":14060:14118   */\n      mstore\n        /* \"#utility.yul\":13943:14125   */\n      pop\n      jump\t// out\n        /* \"#utility.yul\":14131:14497   */\n    tag_236:\n        /* \"#utility.yul\":14273:14276   */\n      0x00\n        /* \"#utility.yul\":14294:14361   */\n      tag_370\n        /* \"#utility.yul\":14358:14360   */\n      0x20\n        /* \"#utility.yul\":14353:14356   */\n      dup4\n        /* \"#utility.yul\":14294:14361   */\n      tag_232\n      jump\t// in\n    tag_370:\n        /* \"#utility.yul\":14287:14361   */\n      swap2\n      pop\n        /* \"#utility.yul\":14370:14463   */\n      tag_371\n        /* \"#utility.yul\":14459:14462   */\n      dup3\n        /* \"#utility.yul\":14370:14463   */\n      tag_235\n      jump\t// in\n    tag_371:\n        /* \"#utility.yul\":14488:14490   */\n      0x20\n        /* \"#utility.yul\":14483:14486   */\n      dup3\n        /* \"#utility.yul\":14479:14491   */\n      add\n        /* \"#utility.yul\":14472:14491   */\n      swap1\n      pop\n        /* \"#utility.yul\":14131:14497   */\n      swap2\n      swap1\n      pop\n      jump\t// out\n        /* \"#utility.yul\":14503:14922   */\n    tag_191:\n        /* \"#utility.yul\":14669:14673   */\n      0x00\n        /* \"#utility.yul\":14707:14709   */\n      0x20\n        /* \"#utility.yul\":14696:14705   */\n      dup3\n        /* \"#utility.yul\":14692:14710   */\n      add\n        /* \"#utility.yul\":14684:14710   */\n      swap1\n      pop\n        /* \"#utility.yul\":14756:14765   */\n      dup2\n        /* \"#utility.yul\":14750:14754   */\n      dup2\n        /* \"#utility.yul\":14746:14766   */\n      sub\n        /* \"#utility.yul\":14742:14743   */\n      0x00\n        /* \"#utility.yul\":14731:14740   */\n      dup4\n        /* \"#utility.yul\":14727:14744   */\n      add\n        /* \"#utility.yul\":14720:14767   */\n      mstore\n        /* \"#utility.yul\":14784:14915   */\n      tag_373\n        /* \"#utility.yul\":14910:14914   */\n      dup2\n        /* \"#utility.yul\":14784:14915   */\n      tag_236\n      jump\t// in\n    tag_373:\n        /* \"#utility.yul\":14776:14915   */\n      swap1\n      pop\n        /* \"#utility.yul\":14503:14922   */\n      swap2\n      swap1\n      pop\n      jump\t// out\n        /* \"#utility.yul\":14928:15103   */\n    tag_237:\n        /* \"#utility.yul\":15068:15095   */\n      0x5065726d697373696f6e3a206f6e6c7920617070726f76656400000000000000\n        /* \"#utility.yul\":15064:15065   */\n      0x00\n        /* \"#utility.yul\":15056:15062   */\n      dup3\n        /* \"#utility.yul\":15052:15066   */\n      add\n        /* \"#utility.yul\":15045:15096   */\n      mstore\n        /* \"#utility.yul\":14928:15103   */\n      pop\n      jump\t// out\n        /* \"#utility.yul\":15109:15475   */\n    tag_238:\n        /* \"#utility.yul\":15251:15254   */\n      0x00\n        /* \"#utility.yul\":15272:15339   */\n      tag_376\n        /* \"#utility.yul\":15336:15338   */\n      0x19\n        /* \"#utility.yul\":15331:15334   */\n      dup4\n        /* \"#utility.yul\":15272:15339   */\n      tag_232\n      jump\t// in\n    tag_376:\n        /* \"#utility.yul\":15265:15339   */\n      swap2\n      pop\n        /* \"#utility.yul\":15348:15441   */\n      tag_377\n        /* \"#utility.yul\":15437:15440   */\n      dup3\n        /* \"#utility.yul\":15348:15441   */\n      tag_237\n      jump\t// in\n    tag_377:\n        /* \"#utility.yul\":15466:15468   */\n      0x20\n        /* \"#utility.yul\":15461:15464   */\n      dup3\n        /* \"#utility.yul\":15457:15469   */\n      add\n        /* \"#utility.yul\":15450:15469   */\n      swap1\n      pop\n        /* \"#utility.yul\":15109:15475   */\n      swap2\n      swap1\n      pop\n      jump\t// out\n        /* \"#utility.yul\":15481:15900   */\n    tag_200:\n        /* \"#utility.yul\":15647:15651   */\n      0x00\n        /* \"#utility.yul\":15685:15687   */\n      0x20\n        /* \"#utility.yul\":15674:15683   */\n      dup3\n        /* \"#utility.yul\":15670:15688   */\n      add\n        /* \"#utility.yul\":15662:15688   */\n      swap1\n      pop\n        /* \"#utility.yul\":15734:15743   */\n      dup2\n        /* \"#utility.yul\":15728:15732   */\n      dup2\n        /* \"#utility.yul\":15724:15744   */\n      sub\n        /* \"#utility.yul\":15720:15721   */\n      0x00\n        /* \"#utility.yul\":15709:15718   */\n      dup4\n        /* \"#utility.yul\":15705:15722   */\n      add\n        /* \"#utility.yul\":15698:15745   */\n      mstore\n        /* \"#utility.yul\":15762:15893   */\n      tag_379\n        /* \"#utility.yul\":15888:15892   */\n      dup2\n        /* \"#utility.yul\":15762:15893   */\n      tag_238\n      jump\t// in\n    tag_379:\n        /* \"#utility.yul\":15754:15893   */\n      swap1\n      pop\n        /* \"#utility.yul\":15481:15900   */\n      swap2\n      swap1\n      pop\n      jump\t// out\n\n    auxdata: 0xa26469706673582212205f8c7f9c0ebe1fd966c5a98f3de7cc286fbb1b5519ba4f65918f577c48e79fce64736f6c63430008110033\n}\n",
				"bytecode": {
					"linkReferences": {},
					"object": "608060405234801561001057600080fd5b50336000806101000a81548173ffffffffffffffffffffffffffffffffffffffff021916908373ffffffffffffffffffffffffffffffffffffffff160217905550611393806100606000396000f3fe608060405234801561001057600080fd5b50600436106100f55760003560e01c806383197ef011610097578063e0886f9011610066578063e0886f9014610228578063e6a1b60f14610258578063f2fde38b14610274578063f7f6e9bb14610290576100f5565b806383197ef0146101c85780638da5cb5b146101d25780638f89e6f2146101f0578063b34be8d31461020c576100f5565b806377ea9d95116100d357806377ea9d951461013c5780637acc21581461015857806380c9419e1461017457806381847fc4146101ac576100f5565b806312424e3f146100fa5780631d7d68961461010457806359761a5d14610120575b600080fd5b6101026102ac565b005b61011e60048036038101906101199190610bd3565b610314565b005b61013a60048036038101906101359190610bd3565b61034a565b005b61015660048036038101906101519190610bd3565b610380565b005b610172600480360381019061016d9190610c38565b6103b6565b005b61018e60048036038101906101899190610cee565b610511565b6040516101a399989796959493929190610da1565b60405180910390f35b6101c660048036038101906101c19190610e2e565b61057c565b005b6101d06105d5565b005b6101da6105f6565b6040516101e79190610eaf565b60405180910390f35b61020a6004803603810190610205919061103b565b61061f565b005b61022660048036038101906102219190610bd3565b61071f565b005b610242600480360381019061023d9190610cee565b610755565b60405161024f919061113e565b60405180910390f35b610272600480360381019061026d9190610bd3565b610825565b005b61028e60048036038101906102899190611186565b61085b565b005b6102aa60048036038101906102a59190610bd3565b6108de565b005b6102b4610914565b60018060006102c161098b565b73ffffffffffffffffffffffffffffffffffffffff1673ffffffffffffffffffffffffffffffffffffffff16815260200190815260200160002060006101000a81548160ff021916908315150217905550565b61031c610993565b8060028381548110610331576103306111b3565b5b9060005260206000209060090201600501819055505050565b610352610993565b8060028381548110610367576103666111b3565b5b9060005260206000209060090201600601819055505050565b610388610993565b806002838154811061039d5761039c6111b3565b5b9060005260206000209060090201600301819055505050565b6103be610993565b86600289815481106103d3576103d26111b3565b5b90600052602060002090600902016001018190555085600289815481106103fd576103fc6111b3565b5b9060005260206000209060090201600201819055508460028981548110610427576104266111b3565b5b9060005260206000209060090201600301819055508360028981548110610451576104506111b3565b5b906000526020600020906009020160040160006101000a81548160ff0219169083600481111561048457610483610d2a565b5b0217905550826002898154811061049e5761049d6111b3565b5b90600052602060002090600902016005018190555081600289815481106104c8576104c76111b3565b5b90600052602060002090600902016006018190555080600289815481106104f2576104f16111b3565b5b9060005260206000209060090201600701819055505050505050505050565b6002818154811061052157600080fd5b90600052602060002090600902016000915090508060000154908060010154908060020154908060030154908060040160009054906101000a900460ff16908060050154908060060154908060070154908060080154905089565b610584610993565b8060028381548110610599576105986111b3565b5b906000526020600020906009020160040160006101000a81548160ff021916908360048111156105cc576105cb610d2a565b5b02179055505050565b6105dd610914565b3073ffffffffffffffffffffffffffffffffffffffff16ff5b60008060009054906101000a900473ffffffffffffffffffffffffffffffffffffffff16905090565b610627610993565b60028054905081600001818152505060028190806001815401808255809150506001900390600052602060002090600902016000909190919091506000820151816000015560208201518160010155604082015181600201556060820151816003015560808201518160040160006101000a81548160ff021916908360048111156106b5576106b4610d2a565b5b021790555060a0820151816005015560c0820151816006015560e08201518160070155610100820151816008015550507f1a3f6b5b0d083fb190ce90a540487b96ba479b4eabe94d95fb0c629f33088b9281604051610714919061113e565b60405180910390a150565b610727610993565b806002838154811061073c5761073b6111b3565b5b9060005260206000209060090201600701819055505050565b61075d610b30565b610765610993565b60028281548110610779576107786111b3565b5b906000526020600020906009020160405180610120016040529081600082015481526020016001820154815260200160028201548152602001600382015481526020016004820160009054906101000a900460ff1660048111156107e0576107df610d2a565b5b60048111156107f2576107f1610d2a565b5b81526020016005820154815260200160068201548152602001600782015481526020016008820154815250509050919050565b61082d610993565b8060028381548110610842576108416111b3565b5b9060005260206000209060090201600201819055505050565b610863610914565b600073ffffffffffffffffffffffffffffffffffffffff168173ffffffffffffffffffffffffffffffffffffffff16036108d2576040517f08c379a00000000000000000000000000000000000000000000000000000000081526004016108c990611265565b60405180910390fd5b6108db81610a6c565b50565b6108e6610993565b80600283815481106108fb576108fa6111b3565b5b9060005260206000209060090201600101819055505050565b3373ffffffffffffffffffffffffffffffffffffffff166109336105f6565b73ffffffffffffffffffffffffffffffffffffffff1614610989576040517f08c379a0000000000000000000000000000000000000000000000000000000008152600401610980906112d1565b60405180910390fd5b565b600033905090565b6001600061099f61098b565b73ffffffffffffffffffffffffffffffffffffffff1673ffffffffffffffffffffffffffffffffffffffff16815260200190815260200160002060009054906101000a900460ff1680610a2b57506109f56105f6565b73ffffffffffffffffffffffffffffffffffffffff16610a1361098b565b73ffffffffffffffffffffffffffffffffffffffff16145b610a6a576040517f08c379a0000000000000000000000000000000000000000000000000000000008152600401610a619061133d565b60405180910390fd5b565b60008060009054906101000a900473ffffffffffffffffffffffffffffffffffffffff169050816000806101000a81548173ffffffffffffffffffffffffffffffffffffffff021916908373ffffffffffffffffffffffffffffffffffffffff1602179055508173ffffffffffffffffffffffffffffffffffffffff168173ffffffffffffffffffffffffffffffffffffffff167f8be0079c531659141344cd1fd0a4f28419497f9722a3daafe3b4186f6b6457e060405160405180910390a35050565b6040518061012001604052806000815260200160008152602001600081526020016000815260200160006004811115610b6c57610b6b610d2a565b5b8152602001600081526020016000815260200160008152602001600081525090565b6000604051905090565b600080fd5b6000819050919050565b610bb081610b9d565b8114610bbb57600080fd5b50565b600081359050610bcd81610ba7565b92915050565b60008060408385031215610bea57610be9610b98565b5b6000610bf885828601610bbe565b9250506020610c0985828601610bbe565b9150509250929050565b60058110610c2057600080fd5b50565b600081359050610c3281610c13565b92915050565b600080600080600080600080610100898b031215610c5957610c58610b98565b5b6000610c678b828c01610bbe565b9850506020610c788b828c01610bbe565b9750506040610c898b828c01610bbe565b9650506060610c9a8b828c01610bbe565b9550506080610cab8b828c01610c23565b94505060a0610cbc8b828c01610bbe565b93505060c0610ccd8b828c01610bbe565b92505060e0610cde8b828c01610bbe565b9150509295985092959890939650565b600060208284031215610d0457610d03610b98565b5b6000610d1284828501610bbe565b91505092915050565b610d2481610b9d565b82525050565b7f4e487b7100000000000000000000000000000000000000000000000000000000600052602160045260246000fd5b60058110610d6a57610d69610d2a565b5b50565b6000819050610d7b82610d59565b919050565b6000610d8b82610d6d565b9050919050565b610d9b81610d80565b82525050565b600061012082019050610db7600083018c610d1b565b610dc4602083018b610d1b565b610dd1604083018a610d1b565b610dde6060830189610d1b565b610deb6080830188610d92565b610df860a0830187610d1b565b610e0560c0830186610d1b565b610e1260e0830185610d1b565b610e20610100830184610d1b565b9a9950505050505050505050565b60008060408385031215610e4557610e44610b98565b5b6000610e5385828601610bbe565b9250506020610e6485828601610c23565b9150509250929050565b600073ffffffffffffffffffffffffffffffffffffffff82169050919050565b6000610e9982610e6e565b9050919050565b610ea981610e8e565b82525050565b6000602082019050610ec46000830184610ea0565b92915050565b600080fd5b6000601f19601f8301169050919050565b7f4e487b7100000000000000000000000000000000000000000000000000000000600052604160045260246000fd5b610f1882610ecf565b810181811067ffffffffffffffff82111715610f3757610f36610ee0565b5b80604052505050565b6000610f4a610b8e565b9050610f568282610f0f565b919050565b60006101208284031215610f7257610f71610eca565b5b610f7d610120610f40565b90506000610f8d84828501610bbe565b6000830152506020610fa184828501610bbe565b6020830152506040610fb584828501610bbe565b6040830152506060610fc984828501610bbe565b6060830152506080610fdd84828501610c23565b60808301525060a0610ff184828501610bbe565b60a08301525060c061100584828501610bbe565b60c08301525060e061101984828501610bbe565b60e08301525061010061102e84828501610bbe565b6101008301525092915050565b6000610120828403121561105257611051610b98565b5b600061106084828501610f5b565b91505092915050565b61107281610b9d565b82525050565b61108181610d80565b82525050565b6101208201600082015161109e6000850182611069565b5060208201516110b16020850182611069565b5060408201516110c46040850182611069565b5060608201516110d76060850182611069565b5060808201516110ea6080850182611078565b5060a08201516110fd60a0850182611069565b5060c082015161111060c0850182611069565b5060e082015161112360e0850182611069565b50610100820151611138610100850182611069565b50505050565b6000610120820190506111546000830184611087565b92915050565b61116381610e8e565b811461116e57600080fd5b50565b6000813590506111808161115a565b92915050565b60006020828403121561119c5761119b610b98565b5b60006111aa84828501611171565b91505092915050565b7f4e487b7100000000000000000000000000000000000000000000000000000000600052603260045260246000fd5b600082825260208201905092915050565b7f4f776e61626c653a206e6577206f776e657220697320746865207a65726f206160008201527f6464726573730000000000000000000000000000000000000000000000000000602082015250565b600061124f6026836111e2565b915061125a826111f3565b604082019050919050565b6000602082019050818103600083015261127e81611242565b9050919050565b7f4f776e61626c653a2063616c6c6572206973206e6f7420746865206f776e6572600082015250565b60006112bb6020836111e2565b91506112c682611285565b602082019050919050565b600060208201905081810360008301526112ea816112ae565b9050919050565b7f5065726d697373696f6e3a206f6e6c7920617070726f76656400000000000000600082015250565b60006113276019836111e2565b9150611332826112f1565b602082019050919050565b600060208201905081810360008301526113568161131a565b905091905056fea26469706673582212205f8c7f9c0ebe1fd966c5a98f3de7cc286fbb1b5519ba4f65918f577c48e79fce64736f6c63430008110033",
					"opcodes": "PUSH1 0x80 PUSH1 0x40 MSTORE CALLVALUE DUP1 ISZERO PUSH2 0x10 JUMPI PUSH1 0x0 DUP1 REVERT JUMPDEST POP CALLER PUSH1 0x0 DUP1 PUSH2 0x100 EXP DUP2 SLOAD DUP2 PUSH20 0xFFFFFFFFFFFFFFFFFFFFFFFFFFFFFFFFFFFFFFFF MUL NOT AND SWAP1 DUP4 PUSH20 0xFFFFFFFFFFFFFFFFFFFFFFFFFFFFFFFFFFFFFFFF AND MUL OR SWAP1 SSTORE POP PUSH2 0x1393 DUP1 PUSH2 0x60 PUSH1 0x0 CODECOPY PUSH1 0x0 RETURN INVALID PUSH1 0x80 PUSH1 0x40 MSTORE CALLVALUE DUP1 ISZERO PUSH2 0x10 JUMPI PUSH1 0x0 DUP1 REVERT JUMPDEST POP PUSH1 0x4 CALLDATASIZE LT PUSH2 0xF5 JUMPI PUSH1 0x0 CALLDATALOAD PUSH1 0xE0 SHR DUP1 PUSH4 0x83197EF0 GT PUSH2 0x97 JUMPI DUP1 PUSH4 0xE0886F90 GT PUSH2 0x66 JUMPI DUP1 PUSH4 0xE0886F90 EQ PUSH2 0x228 JUMPI DUP1 PUSH4 0xE6A1B60F EQ PUSH2 0x258 JUMPI DUP1 PUSH4 0xF2FDE38B EQ PUSH2 0x274 JUMPI DUP1 PUSH4 0xF7F6E9BB EQ PUSH2 0x290 JUMPI PUSH2 0xF5 JUMP JUMPDEST DUP1 PUSH4 0x83197EF0 EQ PUSH2 0x1C8 JUMPI DUP1 PUSH4 0x8DA5CB5B EQ PUSH2 0x1D2 JUMPI DUP1 PUSH4 0x8F89E6F2 EQ PUSH2 0x1F0 JUMPI DUP1 PUSH4 0xB34BE8D3 EQ PUSH2 0x20C JUMPI PUSH2 0xF5 JUMP JUMPDEST DUP1 PUSH4 0x77EA9D95 GT PUSH2 0xD3 JUMPI DUP1 PUSH4 0x77EA9D95 EQ PUSH2 0x13C JUMPI DUP1 PUSH4 0x7ACC2158 EQ PUSH2 0x158 JUMPI DUP1 PUSH4 0x80C9419E EQ PUSH2 0x174 JUMPI DUP1 PUSH4 0x81847FC4 EQ PUSH2 0x1AC JUMPI PUSH2 0xF5 JUMP JUMPDEST DUP1 PUSH4 0x12424E3F EQ PUSH2 0xFA JUMPI DUP1 PUSH4 0x1D7D6896 EQ PUSH2 0x104 JUMPI DUP1 PUSH4 0x59761A5D EQ PUSH2 0x120 JUMPI JUMPDEST PUSH1 0x0 DUP1 REVERT JUMPDEST PUSH2 0x102 PUSH2 0x2AC JUMP JUMPDEST STOP JUMPDEST PUSH2 0x11E PUSH1 0x4 DUP1 CALLDATASIZE SUB DUP2 ADD SWAP1 PUSH2 0x119 SWAP2 SWAP1 PUSH2 0xBD3 JUMP JUMPDEST PUSH2 0x314 JUMP JUMPDEST STOP JUMPDEST PUSH2 0x13A PUSH1 0x4 DUP1 CALLDATASIZE SUB DUP2 ADD SWAP1 PUSH2 0x135 SWAP2 SWAP1 PUSH2 0xBD3 JUMP JUMPDEST PUSH2 0x34A JUMP JUMPDEST STOP JUMPDEST PUSH2 0x156 PUSH1 0x4 DUP1 CALLDATASIZE SUB DUP2 ADD SWAP1 PUSH2 0x151 SWAP2 SWAP1 PUSH2 0xBD3 JUMP JUMPDEST PUSH2 0x380 JUMP JUMPDEST STOP JUMPDEST PUSH2 0x172 PUSH1 0x4 DUP1 CALLDATASIZE SUB DUP2 ADD SWAP1 PUSH2 0x16D SWAP2 SWAP1 PUSH2 0xC38 JUMP JUMPDEST PUSH2 0x3B6 JUMP JUMPDEST STOP JUMPDEST PUSH2 0x18E PUSH1 0x4 DUP1 CALLDATASIZE SUB DUP2 ADD SWAP1 PUSH2 0x189 SWAP2 SWAP1 PUSH2 0xCEE JUMP JUMPDEST PUSH2 0x511 JUMP JUMPDEST PUSH1 0x40 MLOAD PUSH2 0x1A3 SWAP10 SWAP9 SWAP8 SWAP7 SWAP6 SWAP5 SWAP4 SWAP3 SWAP2 SWAP1 PUSH2 0xDA1 JUMP JUMPDEST PUSH1 0x40 MLOAD DUP1 SWAP2 SUB SWAP1 RETURN JUMPDEST PUSH2 0x1C6 PUSH1 0x4 DUP1 CALLDATASIZE SUB DUP2 ADD SWAP1 PUSH2 0x1C1 SWAP2 SWAP1 PUSH2 0xE2E JUMP JUMPDEST PUSH2 0x57C JUMP JUMPDEST STOP JUMPDEST PUSH2 0x1D0 PUSH2 0x5D5 JUMP JUMPDEST STOP JUMPDEST PUSH2 0x1DA PUSH2 0x5F6 JUMP JUMPDEST PUSH1 0x40 MLOAD PUSH2 0x1E7 SWAP2 SWAP1 PUSH2 0xEAF JUMP JUMPDEST PUSH1 0x40 MLOAD DUP1 SWAP2 SUB SWAP1 RETURN JUMPDEST PUSH2 0x20A PUSH1 0x4 DUP1 CALLDATASIZE SUB DUP2 ADD SWAP1 PUSH2 0x205 SWAP2 SWAP1 PUSH2 0x103B JUMP JUMPDEST PUSH2 0x61F JUMP JUMPDEST STOP JUMPDEST PUSH2 0x226 PUSH1 0x4 DUP1 CALLDATASIZE SUB DUP2 ADD SWAP1 PUSH2 0x221 SWAP2 SWAP1 PUSH2 0xBD3 JUMP JUMPDEST PUSH2 0x71F JUMP JUMPDEST STOP JUMPDEST PUSH2 0x242 PUSH1 0x4 DUP1 CALLDATASIZE SUB DUP2 ADD SWAP1 PUSH2 0x23D SWAP2 SWAP1 PUSH2 0xCEE JUMP JUMPDEST PUSH2 0x755 JUMP JUMPDEST PUSH1 0x40 MLOAD PUSH2 0x24F SWAP2 SWAP1 PUSH2 0x113E JUMP JUMPDEST PUSH1 0x40 MLOAD DUP1 SWAP2 SUB SWAP1 RETURN JUMPDEST PUSH2 0x272 PUSH1 0x4 DUP1 CALLDATASIZE SUB DUP2 ADD SWAP1 PUSH2 0x26D SWAP2 SWAP1 PUSH2 0xBD3 JUMP JUMPDEST PUSH2 0x825 JUMP JUMPDEST STOP JUMPDEST PUSH2 0x28E PUSH1 0x4 DUP1 CALLDATASIZE SUB DUP2 ADD SWAP1 PUSH2 0x289 SWAP2 SWAP1 PUSH2 0x1186 JUMP JUMPDEST PUSH2 0x85B JUMP JUMPDEST STOP JUMPDEST PUSH2 0x2AA PUSH1 0x4 DUP1 CALLDATASIZE SUB DUP2 ADD SWAP1 PUSH2 0x2A5 SWAP2 SWAP1 PUSH2 0xBD3 JUMP JUMPDEST PUSH2 0x8DE JUMP JUMPDEST STOP JUMPDEST PUSH2 0x2B4 PUSH2 0x914 JUMP JUMPDEST PUSH1 0x1 DUP1 PUSH1 0x0 PUSH2 0x2C1 PUSH2 0x98B JUMP JUMPDEST PUSH20 0xFFFFFFFFFFFFFFFFFFFFFFFFFFFFFFFFFFFFFFFF AND PUSH20 0xFFFFFFFFFFFFFFFFFFFFFFFFFFFFFFFFFFFFFFFF AND DUP2 MSTORE PUSH1 0x20 ADD SWAP1 DUP2 MSTORE PUSH1 0x20 ADD PUSH1 0x0 KECCAK256 PUSH1 0x0 PUSH2 0x100 EXP DUP2 SLOAD DUP2 PUSH1 0xFF MUL NOT AND SWAP1 DUP4 ISZERO ISZERO MUL OR SWAP1 SSTORE POP JUMP JUMPDEST PUSH2 0x31C PUSH2 0x993 JUMP JUMPDEST DUP1 PUSH1 0x2 DUP4 DUP2 SLOAD DUP2 LT PUSH2 0x331 JUMPI PUSH2 0x330 PUSH2 0x11B3 JUMP JUMPDEST JUMPDEST SWAP1 PUSH1 0x0 MSTORE PUSH1 0x20 PUSH1 0x0 KECCAK256 SWAP1 PUSH1 0x9 MUL ADD PUSH1 0x5 ADD DUP2 SWAP1 SSTORE POP POP POP JUMP JUMPDEST PUSH2 0x352 PUSH2 0x993 JUMP JUMPDEST DUP1 PUSH1 0x2 DUP4 DUP2 SLOAD DUP2 LT PUSH2 0x367 JUMPI PUSH2 0x366 PUSH2 0x11B3 JUMP JUMPDEST JUMPDEST SWAP1 PUSH1 0x0 MSTORE PUSH1 0x20 PUSH1 0x0 KECCAK256 SWAP1 PUSH1 0x9 MUL ADD PUSH1 0x6 ADD DUP2 SWAP1 SSTORE POP POP POP JUMP JUMPDEST PUSH2 0x388 PUSH2 0x993 JUMP JUMPDEST DUP1 PUSH1 0x2 DUP4 DUP2 SLOAD DUP2 LT PUSH2 0x39D JUMPI PUSH2 0x39C PUSH2 0x11B3 JUMP JUMPDEST JUMPDEST SWAP1 PUSH1 0x0 MSTORE PUSH1 0x20 PUSH1 0x0 KECCAK256 SWAP1 PUSH1 0x9 MUL ADD PUSH1 0x3 ADD DUP2 SWAP1 SSTORE POP POP POP JUMP JUMPDEST PUSH2 0x3BE PUSH2 0x993 JUMP JUMPDEST DUP7 PUSH1 0x2 DUP10 DUP2 SLOAD DUP2 LT PUSH2 0x3D3 JUMPI PUSH2 0x3D2 PUSH2 0x11B3 JUMP JUMPDEST JUMPDEST SWAP1 PUSH1 0x0 MSTORE PUSH1 0x20 PUSH1 0x0 KECCAK256 SWAP1 PUSH1 0x9 MUL ADD PUSH1 0x1 ADD DUP2 SWAP1 SSTORE POP DUP6 PUSH1 0x2 DUP10 DUP2 SLOAD DUP2 LT PUSH2 0x3FD JUMPI PUSH2 0x3FC PUSH2 0x11B3 JUMP JUMPDEST JUMPDEST SWAP1 PUSH1 0x0 MSTORE PUSH1 0x20 PUSH1 0x0 KECCAK256 SWAP1 PUSH1 0x9 MUL ADD PUSH1 0x2 ADD DUP2 SWAP1 SSTORE POP DUP5 PUSH1 0x2 DUP10 DUP2 SLOAD DUP2 LT PUSH2 0x427 JUMPI PUSH2 0x426 PUSH2 0x11B3 JUMP JUMPDEST JUMPDEST SWAP1 PUSH1 0x0 MSTORE PUSH1 0x20 PUSH1 0x0 KECCAK256 SWAP1 PUSH1 0x9 MUL ADD PUSH1 0x3 ADD DUP2 SWAP1 SSTORE POP DUP4 PUSH1 0x2 DUP10 DUP2 SLOAD DUP2 LT PUSH2 0x451 JUMPI PUSH2 0x450 PUSH2 0x11B3 JUMP JUMPDEST JUMPDEST SWAP1 PUSH1 0x0 MSTORE PUSH1 0x20 PUSH1 0x0 KECCAK256 SWAP1 PUSH1 0x9 MUL ADD PUSH1 0x4 ADD PUSH1 0x0 PUSH2 0x100 EXP DUP2 SLOAD DUP2 PUSH1 0xFF MUL NOT AND SWAP1 DUP4 PUSH1 0x4 DUP2 GT ISZERO PUSH2 0x484 JUMPI PUSH2 0x483 PUSH2 0xD2A JUMP JUMPDEST JUMPDEST MUL OR SWAP1 SSTORE POP DUP3 PUSH1 0x2 DUP10 DUP2 SLOAD DUP2 LT PUSH2 0x49E JUMPI PUSH2 0x49D PUSH2 0x11B3 JUMP JUMPDEST JUMPDEST SWAP1 PUSH1 0x0 MSTORE PUSH1 0x20 PUSH1 0x0 KECCAK256 SWAP1 PUSH1 0x9 MUL ADD PUSH1 0x5 ADD DUP2 SWAP1 SSTORE POP DUP2 PUSH1 0x2 DUP10 DUP2 SLOAD DUP2 LT PUSH2 0x4C8 JUMPI PUSH2 0x4C7 PUSH2 0x11B3 JUMP JUMPDEST JUMPDEST SWAP1 PUSH1 0x0 MSTORE PUSH1 0x20 PUSH1 0x0 KECCAK256 SWAP1 PUSH1 0x9 MUL ADD PUSH1 0x6 ADD DUP2 SWAP1 SSTORE POP DUP1 PUSH1 0x2 DUP10 DUP2 SLOAD DUP2 LT PUSH2 0x4F2 JUMPI PUSH2 0x4F1 PUSH2 0x11B3 JUMP JUMPDEST JUMPDEST SWAP1 PUSH1 0x0 MSTORE PUSH1 0x20 PUSH1 0x0 KECCAK256 SWAP1 PUSH1 0x9 MUL ADD PUSH1 0x7 ADD DUP2 SWAP1 SSTORE POP POP POP POP POP POP POP POP POP JUMP JUMPDEST PUSH1 0x2 DUP2 DUP2 SLOAD DUP2 LT PUSH2 0x521 JUMPI PUSH1 0x0 DUP1 REVERT JUMPDEST SWAP1 PUSH1 0x0 MSTORE PUSH1 0x20 PUSH1 0x0 KECCAK256 SWAP1 PUSH1 0x9 MUL ADD PUSH1 0x0 SWAP2 POP SWAP1 POP DUP1 PUSH1 0x0 ADD SLOAD SWAP1 DUP1 PUSH1 0x1 ADD SLOAD SWAP1 DUP1 PUSH1 0x2 ADD SLOAD SWAP1 DUP1 PUSH1 0x3 ADD SLOAD SWAP1 DUP1 PUSH1 0x4 ADD PUSH1 0x0 SWAP1 SLOAD SWAP1 PUSH2 0x100 EXP SWAP1 DIV PUSH1 0xFF AND SWAP1 DUP1 PUSH1 0x5 ADD SLOAD SWAP1 DUP1 PUSH1 0x6 ADD SLOAD SWAP1 DUP1 PUSH1 0x7 ADD SLOAD SWAP1 DUP1 PUSH1 0x8 ADD SLOAD SWAP1 POP DUP10 JUMP JUMPDEST PUSH2 0x584 PUSH2 0x993 JUMP JUMPDEST DUP1 PUSH1 0x2 DUP4 DUP2 SLOAD DUP2 LT PUSH2 0x599 JUMPI PUSH2 0x598 PUSH2 0x11B3 JUMP JUMPDEST JUMPDEST SWAP1 PUSH1 0x0 MSTORE PUSH1 0x20 PUSH1 0x0 KECCAK256 SWAP1 PUSH1 0x9 MUL ADD PUSH1 0x4 ADD PUSH1 0x0 PUSH2 0x100 EXP DUP2 SLOAD DUP2 PUSH1 0xFF MUL NOT AND SWAP1 DUP4 PUSH1 0x4 DUP2 GT ISZERO PUSH2 0x5CC JUMPI PUSH2 0x5CB PUSH2 0xD2A JUMP JUMPDEST JUMPDEST MUL OR SWAP1 SSTORE POP POP POP JUMP JUMPDEST PUSH2 0x5DD PUSH2 0x914 JUMP JUMPDEST ADDRESS PUSH20 0xFFFFFFFFFFFFFFFFFFFFFFFFFFFFFFFFFFFFFFFF AND SELFDESTRUCT JUMPDEST PUSH1 0x0 DUP1 PUSH1 0x0 SWAP1 SLOAD SWAP1 PUSH2 0x100 EXP SWAP1 DIV PUSH20 0xFFFFFFFFFFFFFFFFFFFFFFFFFFFFFFFFFFFFFFFF AND SWAP1 POP SWAP1 JUMP JUMPDEST PUSH2 0x627 PUSH2 0x993 JUMP JUMPDEST PUSH1 0x2 DUP1 SLOAD SWAP1 POP DUP2 PUSH1 0x0 ADD DUP2 DUP2 MSTORE POP POP PUSH1 0x2 DUP2 SWAP1 DUP1 PUSH1 0x1 DUP2 SLOAD ADD DUP1 DUP3 SSTORE DUP1 SWAP2 POP POP PUSH1 0x1 SWAP1 SUB SWAP1 PUSH1 0x0 MSTORE PUSH1 0x20 PUSH1 0x0 KECCAK256 SWAP1 PUSH1 0x9 MUL ADD PUSH1 0x0 SWAP1 SWAP2 SWAP1 SWAP2 SWAP1 SWAP2 POP PUSH1 0x0 DUP3 ADD MLOAD DUP2 PUSH1 0x0 ADD SSTORE PUSH1 0x20 DUP3 ADD MLOAD DUP2 PUSH1 0x1 ADD SSTORE PUSH1 0x40 DUP3 ADD MLOAD DUP2 PUSH1 0x2 ADD SSTORE PUSH1 0x60 DUP3 ADD MLOAD DUP2 PUSH1 0x3 ADD SSTORE PUSH1 0x80 DUP3 ADD MLOAD DUP2 PUSH1 0x4 ADD PUSH1 0x0 PUSH2 0x100 EXP DUP2 SLOAD DUP2 PUSH1 0xFF MUL NOT AND SWAP1 DUP4 PUSH1 0x4 DUP2 GT ISZERO PUSH2 0x6B5 JUMPI PUSH2 0x6B4 PUSH2 0xD2A JUMP JUMPDEST JUMPDEST MUL OR SWAP1 SSTORE POP PUSH1 0xA0 DUP3 ADD MLOAD DUP2 PUSH1 0x5 ADD SSTORE PUSH1 0xC0 DUP3 ADD MLOAD DUP2 PUSH1 0x6 ADD SSTORE PUSH1 0xE0 DUP3 ADD MLOAD DUP2 PUSH1 0x7 ADD SSTORE PUSH2 0x100 DUP3 ADD MLOAD DUP2 PUSH1 0x8 ADD SSTORE POP POP PUSH32 0x1A3F6B5B0D083FB190CE90A540487B96BA479B4EABE94D95FB0C629F33088B92 DUP2 PUSH1 0x40 MLOAD PUSH2 0x714 SWAP2 SWAP1 PUSH2 0x113E JUMP JUMPDEST PUSH1 0x40 MLOAD DUP1 SWAP2 SUB SWAP1 LOG1 POP JUMP JUMPDEST PUSH2 0x727 PUSH2 0x993 JUMP JUMPDEST DUP1 PUSH1 0x2 DUP4 DUP2 SLOAD DUP2 LT PUSH2 0x73C JUMPI PUSH2 0x73B PUSH2 0x11B3 JUMP JUMPDEST JUMPDEST SWAP1 PUSH1 0x0 MSTORE PUSH1 0x20 PUSH1 0x0 KECCAK256 SWAP1 PUSH1 0x9 MUL ADD PUSH1 0x7 ADD DUP2 SWAP1 SSTORE POP POP POP JUMP JUMPDEST PUSH2 0x75D PUSH2 0xB30 JUMP JUMPDEST PUSH2 0x765 PUSH2 0x993 JUMP JUMPDEST PUSH1 0x2 DUP3 DUP2 SLOAD DUP2 LT PUSH2 0x779 JUMPI PUSH2 0x778 PUSH2 0x11B3 JUMP JUMPDEST JUMPDEST SWAP1 PUSH1 0x0 MSTORE PUSH1 0x20 PUSH1 0x0 KECCAK256 SWAP1 PUSH1 0x9 MUL ADD PUSH1 0x40 MLOAD DUP1 PUSH2 0x120 ADD PUSH1 0x40 MSTORE SWAP1 DUP2 PUSH1 0x0 DUP3 ADD SLOAD DUP2 MSTORE PUSH1 0x20 ADD PUSH1 0x1 DUP3 ADD SLOAD DUP2 MSTORE PUSH1 0x20 ADD PUSH1 0x2 DUP3 ADD SLOAD DUP2 MSTORE PUSH1 0x20 ADD PUSH1 0x3 DUP3 ADD SLOAD DUP2 MSTORE PUSH1 0x20 ADD PUSH1 0x4 DUP3 ADD PUSH1 0x0 SWAP1 SLOAD SWAP1 PUSH2 0x100 EXP SWAP1 DIV PUSH1 0xFF AND PUSH1 0x4 DUP2 GT ISZERO PUSH2 0x7E0 JUMPI PUSH2 0x7DF PUSH2 0xD2A JUMP JUMPDEST JUMPDEST PUSH1 0x4 DUP2 GT ISZERO PUSH2 0x7F2 JUMPI PUSH2 0x7F1 PUSH2 0xD2A JUMP JUMPDEST JUMPDEST DUP2 MSTORE PUSH1 0x20 ADD PUSH1 0x5 DUP3 ADD SLOAD DUP2 MSTORE PUSH1 0x20 ADD PUSH1 0x6 DUP3 ADD SLOAD DUP2 MSTORE PUSH1 0x20 ADD PUSH1 0x7 DUP3 ADD SLOAD DUP2 MSTORE PUSH1 0x20 ADD PUSH1 0x8 DUP3 ADD SLOAD DUP2 MSTORE POP POP SWAP1 POP SWAP2 SWAP1 POP JUMP JUMPDEST PUSH2 0x82D PUSH2 0x993 JUMP JUMPDEST DUP1 PUSH1 0x2 DUP4 DUP2 SLOAD DUP2 LT PUSH2 0x842 JUMPI PUSH2 0x841 PUSH2 0x11B3 JUMP JUMPDEST JUMPDEST SWAP1 PUSH1 0x0 MSTORE PUSH1 0x20 PUSH1 0x0 KECCAK256 SWAP1 PUSH1 0x9 MUL ADD PUSH1 0x2 ADD DUP2 SWAP1 SSTORE POP POP POP JUMP JUMPDEST PUSH2 0x863 PUSH2 0x914 JUMP JUMPDEST PUSH1 0x0 PUSH20 0xFFFFFFFFFFFFFFFFFFFFFFFFFFFFFFFFFFFFFFFF AND DUP2 PUSH20 0xFFFFFFFFFFFFFFFFFFFFFFFFFFFFFFFFFFFFFFFF AND SUB PUSH2 0x8D2 JUMPI PUSH1 0x40 MLOAD PUSH32 0x8C379A000000000000000000000000000000000000000000000000000000000 DUP2 MSTORE PUSH1 0x4 ADD PUSH2 0x8C9 SWAP1 PUSH2 0x1265 JUMP JUMPDEST PUSH1 0x40 MLOAD DUP1 SWAP2 SUB SWAP1 REVERT JUMPDEST PUSH2 0x8DB DUP2 PUSH2 0xA6C JUMP JUMPDEST POP JUMP JUMPDEST PUSH2 0x8E6 PUSH2 0x993 JUMP JUMPDEST DUP1 PUSH1 0x2 DUP4 DUP2 SLOAD DUP2 LT PUSH2 0x8FB JUMPI PUSH2 0x8FA PUSH2 0x11B3 JUMP JUMPDEST JUMPDEST SWAP1 PUSH1 0x0 MSTORE PUSH1 0x20 PUSH1 0x0 KECCAK256 SWAP1 PUSH1 0x9 MUL ADD PUSH1 0x1 ADD DUP2 SWAP1 SSTORE POP POP POP JUMP JUMPDEST CALLER PUSH20 0xFFFFFFFFFFFFFFFFFFFFFFFFFFFFFFFFFFFFFFFF AND PUSH2 0x933 PUSH2 0x5F6 JUMP JUMPDEST PUSH20 0xFFFFFFFFFFFFFFFFFFFFFFFFFFFFFFFFFFFFFFFF AND EQ PUSH2 0x989 JUMPI PUSH1 0x40 MLOAD PUSH32 0x8C379A000000000000000000000000000000000000000000000000000000000 DUP2 MSTORE PUSH1 0x4 ADD PUSH2 0x980 SWAP1 PUSH2 0x12D1 JUMP JUMPDEST PUSH1 0x40 MLOAD DUP1 SWAP2 SUB SWAP1 REVERT JUMPDEST JUMP JUMPDEST PUSH1 0x0 CALLER SWAP1 POP SWAP1 JUMP JUMPDEST PUSH1 0x1 PUSH1 0x0 PUSH2 0x99F PUSH2 0x98B JUMP JUMPDEST PUSH20 0xFFFFFFFFFFFFFFFFFFFFFFFFFFFFFFFFFFFFFFFF AND PUSH20 0xFFFFFFFFFFFFFFFFFFFFFFFFFFFFFFFFFFFFFFFF AND DUP2 MSTORE PUSH1 0x20 ADD SWAP1 DUP2 MSTORE PUSH1 0x20 ADD PUSH1 0x0 KECCAK256 PUSH1 0x0 SWAP1 SLOAD SWAP1 PUSH2 0x100 EXP SWAP1 DIV PUSH1 0xFF AND DUP1 PUSH2 0xA2B JUMPI POP PUSH2 0x9F5 PUSH2 0x5F6 JUMP JUMPDEST PUSH20 0xFFFFFFFFFFFFFFFFFFFFFFFFFFFFFFFFFFFFFFFF AND PUSH2 0xA13 PUSH2 0x98B JUMP JUMPDEST PUSH20 0xFFFFFFFFFFFFFFFFFFFFFFFFFFFFFFFFFFFFFFFF AND EQ JUMPDEST PUSH2 0xA6A JUMPI PUSH1 0x40 MLOAD PUSH32 0x8C379A000000000000000000000000000000000000000000000000000000000 DUP2 MSTORE PUSH1 0x4 ADD PUSH2 0xA61 SWAP1 PUSH2 0x133D JUMP JUMPDEST PUSH1 0x40 MLOAD DUP1 SWAP2 SUB SWAP1 REVERT JUMPDEST JUMP JUMPDEST PUSH1 0x0 DUP1 PUSH1 0x0 SWAP1 SLOAD SWAP1 PUSH2 0x100 EXP SWAP1 DIV PUSH20 0xFFFFFFFFFFFFFFFFFFFFFFFFFFFFFFFFFFFFFFFF AND SWAP1 POP DUP2 PUSH1 0x0 DUP1 PUSH2 0x100 EXP DUP2 SLOAD DUP2 PUSH20 0xFFFFFFFFFFFFFFFFFFFFFFFFFFFFFFFFFFFFFFFF MUL NOT AND SWAP1 DUP4 PUSH20 0xFFFFFFFFFFFFFFFFFFFFFFFFFFFFFFFFFFFFFFFF AND MUL OR SWAP1 SSTORE POP DUP2 PUSH20 0xFFFFFFFFFFFFFFFFFFFFFFFFFFFFFFFFFFFFFFFF AND DUP2 PUSH20 0xFFFFFFFFFFFFFFFFFFFFFFFFFFFFFFFFFFFFFFFF AND PUSH32 0x8BE0079C531659141344CD1FD0A4F28419497F9722A3DAAFE3B4186F6B6457E0 PUSH1 0x40 MLOAD PUSH1 0x40 MLOAD DUP1 SWAP2 SUB SWAP1 LOG3 POP POP JUMP JUMPDEST PUSH1 0x40 MLOAD DUP1 PUSH2 0x120 ADD PUSH1 0x40 MSTORE DUP1 PUSH1 0x0 DUP2 MSTORE PUSH1 0x20 ADD PUSH1 0x0 DUP2 MSTORE PUSH1 0x20 ADD PUSH1 0x0 DUP2 MSTORE PUSH1 0x20 ADD PUSH1 0x0 DUP2 MSTORE PUSH1 0x20 ADD PUSH1 0x0 PUSH1 0x4 DUP2 GT ISZERO PUSH2 0xB6C JUMPI PUSH2 0xB6B PUSH2 0xD2A JUMP JUMPDEST JUMPDEST DUP2 MSTORE PUSH1 0x20 ADD PUSH1 0x0 DUP2 MSTORE PUSH1 0x20 ADD PUSH1 0x0 DUP2 MSTORE PUSH1 0x20 ADD PUSH1 0x0 DUP2 MSTORE PUSH1 0x20 ADD PUSH1 0x0 DUP2 MSTORE POP SWAP1 JUMP JUMPDEST PUSH1 0x0 PUSH1 0x40 MLOAD SWAP1 POP SWAP1 JUMP JUMPDEST PUSH1 0x0 DUP1 REVERT JUMPDEST PUSH1 0x0 DUP2 SWAP1 POP SWAP2 SWAP1 POP JUMP JUMPDEST PUSH2 0xBB0 DUP2 PUSH2 0xB9D JUMP JUMPDEST DUP2 EQ PUSH2 0xBBB JUMPI PUSH1 0x0 DUP1 REVERT JUMPDEST POP JUMP JUMPDEST PUSH1 0x0 DUP2 CALLDATALOAD SWAP1 POP PUSH2 0xBCD DUP2 PUSH2 0xBA7 JUMP JUMPDEST SWAP3 SWAP2 POP POP JUMP JUMPDEST PUSH1 0x0 DUP1 PUSH1 0x40 DUP4 DUP6 SUB SLT ISZERO PUSH2 0xBEA JUMPI PUSH2 0xBE9 PUSH2 0xB98 JUMP JUMPDEST JUMPDEST PUSH1 0x0 PUSH2 0xBF8 DUP6 DUP3 DUP7 ADD PUSH2 0xBBE JUMP JUMPDEST SWAP3 POP POP PUSH1 0x20 PUSH2 0xC09 DUP6 DUP3 DUP7 ADD PUSH2 0xBBE JUMP JUMPDEST SWAP2 POP POP SWAP3 POP SWAP3 SWAP1 POP JUMP JUMPDEST PUSH1 0x5 DUP2 LT PUSH2 0xC20 JUMPI PUSH1 0x0 DUP1 REVERT JUMPDEST POP JUMP JUMPDEST PUSH1 0x0 DUP2 CALLDATALOAD SWAP1 POP PUSH2 0xC32 DUP2 PUSH2 0xC13 JUMP JUMPDEST SWAP3 SWAP2 POP POP JUMP JUMPDEST PUSH1 0x0 DUP1 PUSH1 0x0 DUP1 PUSH1 0x0 DUP1 PUSH1 0x0 DUP1 PUSH2 0x100 DUP10 DUP12 SUB SLT ISZERO PUSH2 0xC59 JUMPI PUSH2 0xC58 PUSH2 0xB98 JUMP JUMPDEST JUMPDEST PUSH1 0x0 PUSH2 0xC67 DUP12 DUP3 DUP13 ADD PUSH2 0xBBE JUMP JUMPDEST SWAP9 POP POP PUSH1 0x20 PUSH2 0xC78 DUP12 DUP3 DUP13 ADD PUSH2 0xBBE JUMP JUMPDEST SWAP8 POP POP PUSH1 0x40 PUSH2 0xC89 DUP12 DUP3 DUP13 ADD PUSH2 0xBBE JUMP JUMPDEST SWAP7 POP POP PUSH1 0x60 PUSH2 0xC9A DUP12 DUP3 DUP13 ADD PUSH2 0xBBE JUMP JUMPDEST SWAP6 POP POP PUSH1 0x80 PUSH2 0xCAB DUP12 DUP3 DUP13 ADD PUSH2 0xC23 JUMP JUMPDEST SWAP5 POP POP PUSH1 0xA0 PUSH2 0xCBC DUP12 DUP3 DUP13 ADD PUSH2 0xBBE JUMP JUMPDEST SWAP4 POP POP PUSH1 0xC0 PUSH2 0xCCD DUP12 DUP3 DUP13 ADD PUSH2 0xBBE JUMP JUMPDEST SWAP3 POP POP PUSH1 0xE0 PUSH2 0xCDE DUP12 DUP3 DUP13 ADD PUSH2 0xBBE JUMP JUMPDEST SWAP2 POP POP SWAP3 SWAP6 SWAP9 POP SWAP3 SWAP6 SWAP9 SWAP1 SWAP4 SWAP7 POP JUMP JUMPDEST PUSH1 0x0 PUSH1 0x20 DUP3 DUP5 SUB SLT ISZERO PUSH2 0xD04 JUMPI PUSH2 0xD03 PUSH2 0xB98 JUMP JUMPDEST JUMPDEST PUSH1 0x0 PUSH2 0xD12 DUP5 DUP3 DUP6 ADD PUSH2 0xBBE JUMP JUMPDEST SWAP2 POP POP SWAP3 SWAP2 POP POP JUMP JUMPDEST PUSH2 0xD24 DUP2 PUSH2 0xB9D JUMP JUMPDEST DUP3 MSTORE POP POP JUMP JUMPDEST PUSH32 0x4E487B7100000000000000000000000000000000000000000000000000000000 PUSH1 0x0 MSTORE PUSH1 0x21 PUSH1 0x4 MSTORE PUSH1 0x24 PUSH1 0x0 REVERT JUMPDEST PUSH1 0x5 DUP2 LT PUSH2 0xD6A JUMPI PUSH2 0xD69 PUSH2 0xD2A JUMP JUMPDEST JUMPDEST POP JUMP JUMPDEST PUSH1 0x0 DUP2 SWAP1 POP PUSH2 0xD7B DUP3 PUSH2 0xD59 JUMP JUMPDEST SWAP2 SWAP1 POP JUMP JUMPDEST PUSH1 0x0 PUSH2 0xD8B DUP3 PUSH2 0xD6D JUMP JUMPDEST SWAP1 POP SWAP2 SWAP1 POP JUMP JUMPDEST PUSH2 0xD9B DUP2 PUSH2 0xD80 JUMP JUMPDEST DUP3 MSTORE POP POP JUMP JUMPDEST PUSH1 0x0 PUSH2 0x120 DUP3 ADD SWAP1 POP PUSH2 0xDB7 PUSH1 0x0 DUP4 ADD DUP13 PUSH2 0xD1B JUMP JUMPDEST PUSH2 0xDC4 PUSH1 0x20 DUP4 ADD DUP12 PUSH2 0xD1B JUMP JUMPDEST PUSH2 0xDD1 PUSH1 0x40 DUP4 ADD DUP11 PUSH2 0xD1B JUMP JUMPDEST PUSH2 0xDDE PUSH1 0x60 DUP4 ADD DUP10 PUSH2 0xD1B JUMP JUMPDEST PUSH2 0xDEB PUSH1 0x80 DUP4 ADD DUP9 PUSH2 0xD92 JUMP JUMPDEST PUSH2 0xDF8 PUSH1 0xA0 DUP4 ADD DUP8 PUSH2 0xD1B JUMP JUMPDEST PUSH2 0xE05 PUSH1 0xC0 DUP4 ADD DUP7 PUSH2 0xD1B JUMP JUMPDEST PUSH2 0xE12 PUSH1 0xE0 DUP4 ADD DUP6 PUSH2 0xD1B JUMP JUMPDEST PUSH2 0xE20 PUSH2 0x100 DUP4 ADD DUP5 PUSH2 0xD1B JUMP JUMPDEST SWAP11 SWAP10 POP POP POP POP POP POP POP POP POP POP JUMP JUMPDEST PUSH1 0x0 DUP1 PUSH1 0x40 DUP4 DUP6 SUB SLT ISZERO PUSH2 0xE45 JUMPI PUSH2 0xE44 PUSH2 0xB98 JUMP JUMPDEST JUMPDEST PUSH1 0x0 PUSH2 0xE53 DUP6 DUP3 DUP7 ADD PUSH2 0xBBE JUMP JUMPDEST SWAP3 POP POP PUSH1 0x20 PUSH2 0xE64 DUP6 DUP3 DUP7 ADD PUSH2 0xC23 JUMP JUMPDEST SWAP2 POP POP SWAP3 POP SWAP3 SWAP1 POP JUMP JUMPDEST PUSH1 0x0 PUSH20 0xFFFFFFFFFFFFFFFFFFFFFFFFFFFFFFFFFFFFFFFF DUP3 AND SWAP1 POP SWAP2 SWAP1 POP JUMP JUMPDEST PUSH1 0x0 PUSH2 0xE99 DUP3 PUSH2 0xE6E JUMP JUMPDEST SWAP1 POP SWAP2 SWAP1 POP JUMP JUMPDEST PUSH2 0xEA9 DUP2 PUSH2 0xE8E JUMP JUMPDEST DUP3 MSTORE POP POP JUMP JUMPDEST PUSH1 0x0 PUSH1 0x20 DUP3 ADD SWAP1 POP PUSH2 0xEC4 PUSH1 0x0 DUP4 ADD DUP5 PUSH2 0xEA0 JUMP JUMPDEST SWAP3 SWAP2 POP POP JUMP JUMPDEST PUSH1 0x0 DUP1 REVERT JUMPDEST PUSH1 0x0 PUSH1 0x1F NOT PUSH1 0x1F DUP4 ADD AND SWAP1 POP SWAP2 SWAP1 POP JUMP JUMPDEST PUSH32 0x4E487B7100000000000000000000000000000000000000000000000000000000 PUSH1 0x0 MSTORE PUSH1 0x41 PUSH1 0x4 MSTORE PUSH1 0x24 PUSH1 0x0 REVERT JUMPDEST PUSH2 0xF18 DUP3 PUSH2 0xECF JUMP JUMPDEST DUP2 ADD DUP2 DUP2 LT PUSH8 0xFFFFFFFFFFFFFFFF DUP3 GT OR ISZERO PUSH2 0xF37 JUMPI PUSH2 0xF36 PUSH2 0xEE0 JUMP JUMPDEST JUMPDEST DUP1 PUSH1 0x40 MSTORE POP POP POP JUMP JUMPDEST PUSH1 0x0 PUSH2 0xF4A PUSH2 0xB8E JUMP JUMPDEST SWAP1 POP PUSH2 0xF56 DUP3 DUP3 PUSH2 0xF0F JUMP JUMPDEST SWAP2 SWAP1 POP JUMP JUMPDEST PUSH1 0x0 PUSH2 0x120 DUP3 DUP5 SUB SLT ISZERO PUSH2 0xF72 JUMPI PUSH2 0xF71 PUSH2 0xECA JUMP JUMPDEST JUMPDEST PUSH2 0xF7D PUSH2 0x120 PUSH2 0xF40 JUMP JUMPDEST SWAP1 POP PUSH1 0x0 PUSH2 0xF8D DUP5 DUP3 DUP6 ADD PUSH2 0xBBE JUMP JUMPDEST PUSH1 0x0 DUP4 ADD MSTORE POP PUSH1 0x20 PUSH2 0xFA1 DUP5 DUP3 DUP6 ADD PUSH2 0xBBE JUMP JUMPDEST PUSH1 0x20 DUP4 ADD MSTORE POP PUSH1 0x40 PUSH2 0xFB5 DUP5 DUP3 DUP6 ADD PUSH2 0xBBE JUMP JUMPDEST PUSH1 0x40 DUP4 ADD MSTORE POP PUSH1 0x60 PUSH2 0xFC9 DUP5 DUP3 DUP6 ADD PUSH2 0xBBE JUMP JUMPDEST PUSH1 0x60 DUP4 ADD MSTORE POP PUSH1 0x80 PUSH2 0xFDD DUP5 DUP3 DUP6 ADD PUSH2 0xC23 JUMP JUMPDEST PUSH1 0x80 DUP4 ADD MSTORE POP PUSH1 0xA0 PUSH2 0xFF1 DUP5 DUP3 DUP6 ADD PUSH2 0xBBE JUMP JUMPDEST PUSH1 0xA0 DUP4 ADD MSTORE POP PUSH1 0xC0 PUSH2 0x1005 DUP5 DUP3 DUP6 ADD PUSH2 0xBBE JUMP JUMPDEST PUSH1 0xC0 DUP4 ADD MSTORE POP PUSH1 0xE0 PUSH2 0x1019 DUP5 DUP3 DUP6 ADD PUSH2 0xBBE JUMP JUMPDEST PUSH1 0xE0 DUP4 ADD MSTORE POP PUSH2 0x100 PUSH2 0x102E DUP5 DUP3 DUP6 ADD PUSH2 0xBBE JUMP JUMPDEST PUSH2 0x100 DUP4 ADD MSTORE POP SWAP3 SWAP2 POP POP JUMP JUMPDEST PUSH1 0x0 PUSH2 0x120 DUP3 DUP5 SUB SLT ISZERO PUSH2 0x1052 JUMPI PUSH2 0x1051 PUSH2 0xB98 JUMP JUMPDEST JUMPDEST PUSH1 0x0 PUSH2 0x1060 DUP5 DUP3 DUP6 ADD PUSH2 0xF5B JUMP JUMPDEST SWAP2 POP POP SWAP3 SWAP2 POP POP JUMP JUMPDEST PUSH2 0x1072 DUP2 PUSH2 0xB9D JUMP JUMPDEST DUP3 MSTORE POP POP JUMP JUMPDEST PUSH2 0x1081 DUP2 PUSH2 0xD80 JUMP JUMPDEST DUP3 MSTORE POP POP JUMP JUMPDEST PUSH2 0x120 DUP3 ADD PUSH1 0x0 DUP3 ADD MLOAD PUSH2 0x109E PUSH1 0x0 DUP6 ADD DUP3 PUSH2 0x1069 JUMP JUMPDEST POP PUSH1 0x20 DUP3 ADD MLOAD PUSH2 0x10B1 PUSH1 0x20 DUP6 ADD DUP3 PUSH2 0x1069 JUMP JUMPDEST POP PUSH1 0x40 DUP3 ADD MLOAD PUSH2 0x10C4 PUSH1 0x40 DUP6 ADD DUP3 PUSH2 0x1069 JUMP JUMPDEST POP PUSH1 0x60 DUP3 ADD MLOAD PUSH2 0x10D7 PUSH1 0x60 DUP6 ADD DUP3 PUSH2 0x1069 JUMP JUMPDEST POP PUSH1 0x80 DUP3 ADD MLOAD PUSH2 0x10EA PUSH1 0x80 DUP6 ADD DUP3 PUSH2 0x1078 JUMP JUMPDEST POP PUSH1 0xA0 DUP3 ADD MLOAD PUSH2 0x10FD PUSH1 0xA0 DUP6 ADD DUP3 PUSH2 0x1069 JUMP JUMPDEST POP PUSH1 0xC0 DUP3 ADD MLOAD PUSH2 0x1110 PUSH1 0xC0 DUP6 ADD DUP3 PUSH2 0x1069 JUMP JUMPDEST POP PUSH1 0xE0 DUP3 ADD MLOAD PUSH2 0x1123 PUSH1 0xE0 DUP6 ADD DUP3 PUSH2 0x1069 JUMP JUMPDEST POP PUSH2 0x100 DUP3 ADD MLOAD PUSH2 0x1138 PUSH2 0x100 DUP6 ADD DUP3 PUSH2 0x1069 JUMP JUMPDEST POP POP POP POP JUMP JUMPDEST PUSH1 0x0 PUSH2 0x120 DUP3 ADD SWAP1 POP PUSH2 0x1154 PUSH1 0x0 DUP4 ADD DUP5 PUSH2 0x1087 JUMP JUMPDEST SWAP3 SWAP2 POP POP JUMP JUMPDEST PUSH2 0x1163 DUP2 PUSH2 0xE8E JUMP JUMPDEST DUP2 EQ PUSH2 0x116E JUMPI PUSH1 0x0 DUP1 REVERT JUMPDEST POP JUMP JUMPDEST PUSH1 0x0 DUP2 CALLDATALOAD SWAP1 POP PUSH2 0x1180 DUP2 PUSH2 0x115A JUMP JUMPDEST SWAP3 SWAP2 POP POP JUMP JUMPDEST PUSH1 0x0 PUSH1 0x20 DUP3 DUP5 SUB SLT ISZERO PUSH2 0x119C JUMPI PUSH2 0x119B PUSH2 0xB98 JUMP JUMPDEST JUMPDEST PUSH1 0x0 PUSH2 0x11AA DUP5 DUP3 DUP6 ADD PUSH2 0x1171 JUMP JUMPDEST SWAP2 POP POP SWAP3 SWAP2 POP POP JUMP JUMPDEST PUSH32 0x4E487B7100000000000000000000000000000000000000000000000000000000 PUSH1 0x0 MSTORE PUSH1 0x32 PUSH1 0x4 MSTORE PUSH1 0x24 PUSH1 0x0 REVERT JUMPDEST PUSH1 0x0 DUP3 DUP3 MSTORE PUSH1 0x20 DUP3 ADD SWAP1 POP SWAP3 SWAP2 POP POP JUMP JUMPDEST PUSH32 0x4F776E61626C653A206E6577206F776E657220697320746865207A65726F2061 PUSH1 0x0 DUP3 ADD MSTORE PUSH32 0x6464726573730000000000000000000000000000000000000000000000000000 PUSH1 0x20 DUP3 ADD MSTORE POP JUMP JUMPDEST PUSH1 0x0 PUSH2 0x124F PUSH1 0x26 DUP4 PUSH2 0x11E2 JUMP JUMPDEST SWAP2 POP PUSH2 0x125A DUP3 PUSH2 0x11F3 JUMP JUMPDEST PUSH1 0x40 DUP3 ADD SWAP1 POP SWAP2 SWAP1 POP JUMP JUMPDEST PUSH1 0x0 PUSH1 0x20 DUP3 ADD SWAP1 POP DUP2 DUP2 SUB PUSH1 0x0 DUP4 ADD MSTORE PUSH2 0x127E DUP2 PUSH2 0x1242 JUMP JUMPDEST SWAP1 POP SWAP2 SWAP1 POP JUMP JUMPDEST PUSH32 0x4F776E61626C653A2063616C6C6572206973206E6F7420746865206F776E6572 PUSH1 0x0 DUP3 ADD MSTORE POP JUMP JUMPDEST PUSH1 0x0 PUSH2 0x12BB PUSH1 0x20 DUP4 PUSH2 0x11E2 JUMP JUMPDEST SWAP2 POP PUSH2 0x12C6 DUP3 PUSH2 0x1285 JUMP JUMPDEST PUSH1 0x20 DUP3 ADD SWAP1 POP SWAP2 SWAP1 POP JUMP JUMPDEST PUSH1 0x0 PUSH1 0x20 DUP3 ADD SWAP1 POP DUP2 DUP2 SUB PUSH1 0x0 DUP4 ADD MSTORE PUSH2 0x12EA DUP2 PUSH2 0x12AE JUMP JUMPDEST SWAP1 POP SWAP2 SWAP1 POP JUMP JUMPDEST PUSH32 0x5065726D697373696F6E3A206F6E6C7920617070726F76656400000000000000 PUSH1 0x0 DUP3 ADD MSTORE POP JUMP JUMPDEST PUSH1 0x0 PUSH2 0x1327 PUSH1 0x19 DUP4 PUSH2 0x11E2 JUMP JUMPDEST SWAP2 POP PUSH2 0x1332 DUP3 PUSH2 0x12F1 JUMP JUMPDEST PUSH1 0x20 DUP3 ADD SWAP1 POP SWAP2 SWAP1 POP JUMP JUMPDEST PUSH1 0x0 PUSH1 0x20 DUP3 ADD SWAP1 POP DUP2 DUP2 SUB PUSH1 0x0 DUP4 ADD MSTORE PUSH2 0x1356 DUP2 PUSH2 0x131A JUMP JUMPDEST SWAP1 POP SWAP2 SWAP1 POP JUMP INVALID LOG2 PUSH5 0x6970667358 0x22 SLT KECCAK256 0x5F DUP13 PUSH32 0x9C0EBE1FD966C5A98F3DE7CC286FBB1B5519BA4F65918F577C48E79FCE64736F PUSH13 0x63430008110033000000000000 "
				},
				"gasEstimates": {
					"creation": {
						"codeDepositCost": "1002200",
						"executionCost": "25307",
						"totalCost": "1027507"
					},
					"external": {
						"add((uint256,uint256,uint256,uint256,uint8,uint256,uint256,uint256,uint256))": "infinite",
						"approve()": "26788",
						"at(uint256)": "infinite",
						"destroy()": "29995",
						"list(uint256)": "infinite",
						"owner()": "2567",
						"setBusinessId(uint256,uint256)": "infinite",
						"setEmployeeId(uint256,uint256)": "infinite",
						"setExprireDate(uint256,uint256)": "infinite",
						"setRequest(uint256,uint256,uint256,uint256,uint8,uint256,uint256,uint256)": "infinite",
						"setShiftTest(uint256,uint8)": "infinite",
						"setSpeakingScore(uint256,uint256)": "infinite",
						"setTestDate(uint256,uint256)": "infinite",
						"setWritingScore(uint256,uint256)": "infinite",
						"transferOwnership(address)": "30775"
					}
				},
				"methodIdentifiers": {
					"add((uint256,uint256,uint256,uint256,uint8,uint256,uint256,uint256,uint256))": "8f89e6f2",
					"approve()": "12424e3f",
					"at(uint256)": "e0886f90",
					"destroy()": "83197ef0",
					"list(uint256)": "80c9419e",
					"owner()": "8da5cb5b",
					"setBusinessId(uint256,uint256)": "f7f6e9bb",
					"setEmployeeId(uint256,uint256)": "e6a1b60f",
					"setExprireDate(uint256,uint256)": "1d7d6896",
					"setRequest(uint256,uint256,uint256,uint256,uint8,uint256,uint256,uint256)": "7acc2158",
					"setShiftTest(uint256,uint8)": "81847fc4",
					"setSpeakingScore(uint256,uint256)": "59761a5d",
					"setTestDate(uint256,uint256)": "77ea9d95",
					"setWritingScore(uint256,uint256)": "b34be8d3",
					"transferOwnership(address)": "f2fde38b"
				}
			},
			"storageLayout": {
				"storage": [
					{
						"astId": 30,
						"contract": "database/business/igg/ListIIGSWResult.sol:ListIIGSWResult",
						"label": "_owner",
						"offset": 0,
						"slot": "0",
						"type": "t_address"
					},
					{
						"astId": 149,
						"contract": "database/business/igg/ListIIGSWResult.sol:ListIIGSWResult",
						"label": "approved",
						"offset": 0,
						"slot": "1",
						"type": "t_mapping(t_address,t_bool)"
					},
					{
						"astId": 207,
						"contract": "database/business/igg/ListIIGSWResult.sol:ListIIGSWResult",
						"label": "list",
						"offset": 0,
						"slot": "2",
						"type": "t_array(t_struct(IIGSWResult)505_storage)dyn_storage"
					}
				],
				"types": {
					"t_address": {
						"encoding": "inplace",
						"label": "address",
						"numberOfBytes": "20"
					},
					"t_array(t_struct(IIGSWResult)505_storage)dyn_storage": {
						"base": "t_struct(IIGSWResult)505_storage",
						"encoding": "dynamic_array",
						"label": "struct IIGSWResult[]",
						"numberOfBytes": "32"
					},
					"t_bool": {
						"encoding": "inplace",
						"label": "bool",
						"numberOfBytes": "1"
					},
					"t_enum(IIGShiftTest)465": {
						"encoding": "inplace",
						"label": "enum IIGShiftTest",
						"numberOfBytes": "1"
					},
					"t_mapping(t_address,t_bool)": {
						"encoding": "mapping",
						"key": "t_address",
						"label": "mapping(address => bool)",
						"numberOfBytes": "32",
						"value": "t_bool"
					},
					"t_struct(IIGSWResult)505_storage": {
						"encoding": "inplace",
						"label": "struct IIGSWResult",
						"members": [
							{
								"astId": 487,
								"contract": "database/business/igg/ListIIGSWResult.sol:ListIIGSWResult",
								"label": "id",
								"offset": 0,
								"slot": "0",
								"type": "t_uint256"
							},
							{
								"astId": 489,
								"contract": "database/business/igg/ListIIGSWResult.sol:ListIIGSWResult",
								"label": "businessId",
								"offset": 0,
								"slot": "1",
								"type": "t_uint256"
							},
							{
								"astId": 491,
								"contract": "database/business/igg/ListIIGSWResult.sol:ListIIGSWResult",
								"label": "employeeId",
								"offset": 0,
								"slot": "2",
								"type": "t_uint256"
							},
							{
								"astId": 493,
								"contract": "database/business/igg/ListIIGSWResult.sol:ListIIGSWResult",
								"label": "testDate",
								"offset": 0,
								"slot": "3",
								"type": "t_uint256"
							},
							{
								"astId": 496,
								"contract": "database/business/igg/ListIIGSWResult.sol:ListIIGSWResult",
								"label": "shiftTest",
								"offset": 0,
								"slot": "4",
								"type": "t_enum(IIGShiftTest)465"
							},
							{
								"astId": 498,
								"contract": "database/business/igg/ListIIGSWResult.sol:ListIIGSWResult",
								"label": "expireDate",
								"offset": 0,
								"slot": "5",
								"type": "t_uint256"
							},
							{
								"astId": 500,
								"contract": "database/business/igg/ListIIGSWResult.sol:ListIIGSWResult",
								"label": "speakingScore",
								"offset": 0,
								"slot": "6",
								"type": "t_uint256"
							},
							{
								"astId": 502,
								"contract": "database/business/igg/ListIIGSWResult.sol:ListIIGSWResult",
								"label": "writingScore",
								"offset": 0,
								"slot": "7",
								"type": "t_uint256"
							},
							{
								"astId": 504,
								"contract": "database/business/igg/ListIIGSWResult.sol:ListIIGSWResult",
								"label": "time",
								"offset": 0,
								"slot": "8",
								"type": "t_uint256"
							}
						],
						"numberOfBytes": "288"
					},
					"t_uint256": {
						"encoding": "inplace",
						"label": "uint256",
						"numberOfBytes": "32"
					}
				}
			},
			"userdoc": {
				"kind": "user",
				"methods": {},
				"version": 1
			}
		}
	}
}