{
	"database/business/post/ListBusinessPost.sol": {
		"ListBusinessPost": {
			"abi": [
				{
					"inputs": [],
					"stateMutability": "nonpayable",
					"type": "constructor"
				},
				{
					"anonymous": false,
					"inputs": [
						{
							"components": [
								{
									"internalType": "uint256",
									"name": "id",
									"type": "uint256"
								},
								{
									"internalType": "uint256",
									"name": "businessPostId",
									"type": "uint256"
								},
								{
									"internalType": "string",
									"name": "hashTag",
									"type": "string"
								},
								{
									"internalType": "uint256",
									"name": "time",
									"type": "uint256"
								},
								{
									"internalType": "string",
									"name": "content",
									"type": "string"
								},
								{
									"internalType": "string",
									"name": "imageSource",
									"type": "string"
								},
								{
									"internalType": "enum Status",
									"name": "status",
									"type": "uint8"
								}
							],
							"indexed": false,
							"internalType": "struct BusinessPost",
							"name": "item",
							"type": "tuple"
						}
					],
					"name": "Add",
					"type": "event"
				},
				{
					"anonymous": false,
					"inputs": [
						{
							"indexed": true,
							"internalType": "address",
							"name": "previousOwner",
							"type": "address"
						},
						{
							"indexed": true,
							"internalType": "address",
							"name": "newOwner",
							"type": "address"
						}
					],
					"name": "OwnershipTransferred",
					"type": "event"
				},
				{
					"anonymous": false,
					"inputs": [
						{
							"components": [
								{
									"internalType": "uint256",
									"name": "id",
									"type": "uint256"
								},
								{
									"internalType": "uint256",
									"name": "businessPostId",
									"type": "uint256"
								},
								{
									"internalType": "string",
									"name": "hashTag",
									"type": "string"
								},
								{
									"internalType": "uint256",
									"name": "time",
									"type": "uint256"
								},
								{
									"internalType": "string",
									"name": "content",
									"type": "string"
								},
								{
									"internalType": "string",
									"name": "imageSource",
									"type": "string"
								},
								{
									"internalType": "enum Status",
									"name": "status",
									"type": "uint8"
								}
							],
							"indexed": false,
							"internalType": "struct BusinessPost",
							"name": "item",
							"type": "tuple"
						}
					],
					"name": "Remove",
					"type": "event"
				},
				{
					"inputs": [
						{
							"components": [
								{
									"internalType": "uint256",
									"name": "id",
									"type": "uint256"
								},
								{
									"internalType": "uint256",
									"name": "businessPostId",
									"type": "uint256"
								},
								{
									"internalType": "string",
									"name": "hashTag",
									"type": "string"
								},
								{
									"internalType": "uint256",
									"name": "time",
									"type": "uint256"
								},
								{
									"internalType": "string",
									"name": "content",
									"type": "string"
								},
								{
									"internalType": "string",
									"name": "imageSource",
									"type": "string"
								},
								{
									"internalType": "enum Status",
									"name": "status",
									"type": "uint8"
								}
							],
							"internalType": "struct BusinessPost",
							"name": "item",
							"type": "tuple"
						},
						{
							"internalType": "bytes32",
							"name": "secret",
							"type": "bytes32"
						}
					],
					"name": "add",
					"outputs": [
						{
							"internalType": "uint256",
							"name": "",
							"type": "uint256"
						}
					],
					"stateMutability": "nonpayable",
					"type": "function"
				},
				{
					"inputs": [
						{
							"internalType": "uint256",
							"name": "index",
							"type": "uint256"
						},
						{
							"internalType": "bytes32",
							"name": "secret",
							"type": "bytes32"
						}
					],
					"name": "at",
					"outputs": [
						{
							"components": [
								{
									"internalType": "uint256",
									"name": "id",
									"type": "uint256"
								},
								{
									"internalType": "uint256",
									"name": "businessPostId",
									"type": "uint256"
								},
								{
									"internalType": "string",
									"name": "hashTag",
									"type": "string"
								},
								{
									"internalType": "uint256",
									"name": "time",
									"type": "uint256"
								},
								{
									"internalType": "string",
									"name": "content",
									"type": "string"
								},
								{
									"internalType": "string",
									"name": "imageSource",
									"type": "string"
								},
								{
									"internalType": "enum Status",
									"name": "status",
									"type": "uint8"
								}
							],
							"internalType": "struct BusinessPost",
							"name": "",
							"type": "tuple"
						}
					],
					"stateMutability": "view",
					"type": "function"
				},
				{
					"inputs": [],
					"name": "destroy",
					"outputs": [],
					"stateMutability": "nonpayable",
					"type": "function"
				},
				{
					"inputs": [
						{
							"internalType": "bytes32",
							"name": "secret",
							"type": "bytes32"
						}
					],
					"name": "getLength",
					"outputs": [
						{
							"internalType": "uint256",
							"name": "",
							"type": "uint256"
						}
					],
					"stateMutability": "view",
					"type": "function"
				},
				{
					"inputs": [
						{
							"internalType": "uint256",
							"name": "index",
							"type": "uint256"
						},
						{
							"internalType": "bytes32",
							"name": "secret",
							"type": "bytes32"
						}
					],
					"name": "hide",
					"outputs": [
						{
							"internalType": "bool",
							"name": "",
							"type": "bool"
						}
					],
					"stateMutability": "nonpayable",
					"type": "function"
				},
				{
					"inputs": [],
					"name": "owner",
					"outputs": [
						{
							"internalType": "address",
							"name": "",
							"type": "address"
						}
					],
					"stateMutability": "view",
					"type": "function"
				},
				{
					"inputs": [
						{
							"internalType": "address",
							"name": "newOwner",
							"type": "address"
						}
					],
					"name": "transferOwnership",
					"outputs": [],
					"stateMutability": "nonpayable",
					"type": "function"
				}
			],
			"devdoc": {
				"kind": "dev",
				"methods": {
					"owner()": {
						"details": "Returns the address of the current owner."
					},
					"transferOwnership(address)": {
						"details": "Transfers ownership of the contract to a new account (`newOwner`). Can only be called by the current owner."
					}
				},
				"version": 1
			},
			"evm": {
				"assembly": "    /* \"database/business/post/ListBusinessPost.sol\":269:4642  contract ListBusinessPost is Ownable {... */\n  mstore(0x40, 0x80)\n    /* \"database/business/post/ListBusinessPost.sol\":395:396  0 */\n  0x00\n    /* \"database/business/post/ListBusinessPost.sol\":363:396  uint256 private autoIncrement = 0 */\n  0x02\n  sstore\n    /* \"database/business/post/ListBusinessPost.sol\":403:429  constructor() Ownable() {} */\n  callvalue\n  dup1\n  iszero\n  tag_1\n  jumpi\n  0x00\n  dup1\n  revert\ntag_1:\n  pop\n    /* \"abstract/Ownable.sol\":923:929  _owner */\n  0x00\n    /* \"abstract/Ownable.sol\":923:942  _owner = msg.sender */\n  dup1\n  sload\n  not(sub(shl(0xa0, 0x01), 0x01))\n  and\n    /* \"abstract/Ownable.sol\":932:942  msg.sender */\n  caller\n    /* \"abstract/Ownable.sol\":923:942  _owner = msg.sender */\n  or\n  swap1\n  sstore\n    /* \"database/business/post/ListBusinessPost.sol\":269:4642  contract ListBusinessPost is Ownable {... */\n  dataSize(sub_0)\n  dup1\n  dataOffset(sub_0)\n  0x00\n  codecopy\n  0x00\n  return\nstop\n\nsub_0: assembly {\n        /* \"database/business/post/ListBusinessPost.sol\":269:4642  contract ListBusinessPost is Ownable {... */\n      mstore(0x40, 0x80)\n      callvalue\n      dup1\n      iszero\n      tag_1\n      jumpi\n      0x00\n      dup1\n      revert\n    tag_1:\n      pop\n      jumpi(tag_2, lt(calldatasize, 0x04))\n      shr(0xe0, calldataload(0x00))\n      dup1\n      0xb615c00a\n      gt\n      tag_10\n      jumpi\n      dup1\n      0xb615c00a\n      eq\n      tag_6\n      jumpi\n      dup1\n      0xc78a6741\n      eq\n      tag_7\n      jumpi\n      dup1\n      0xf2fde38b\n      eq\n      tag_8\n      jumpi\n      dup1\n      0xfd82e9dd\n      eq\n      tag_9\n      jumpi\n      0x00\n      dup1\n      revert\n    tag_10:\n      dup1\n      0x7f5b959f\n      eq\n      tag_3\n      jumpi\n      dup1\n      0x83197ef0\n      eq\n      tag_4\n      jumpi\n      dup1\n      0x8da5cb5b\n      eq\n      tag_5\n      jumpi\n    tag_2:\n      0x00\n      dup1\n      revert\n        /* \"database/business/post/ListBusinessPost.sol\":1059:1359  function add(BusinessPost memory item, bytes32 secret)... */\n    tag_3:\n      tag_11\n      tag_12\n      calldatasize\n      0x04\n      tag_13\n      jump\t// in\n    tag_12:\n      tag_14\n      jump\t// in\n    tag_11:\n      mload(0x40)\n        /* \"#utility.yul\":2696:2721   */\n      swap1\n      dup2\n      mstore\n        /* \"#utility.yul\":2684:2686   */\n      0x20\n        /* \"#utility.yul\":2669:2687   */\n      add\n        /* \"database/business/post/ListBusinessPost.sol\":1059:1359  function add(BusinessPost memory item, bytes32 secret)... */\n    tag_15:\n      mload(0x40)\n      dup1\n      swap2\n      sub\n      swap1\n      return\n        /* \"abstract/Ownable.sol\":2642:2731  function destroy() public onlyOwner {... */\n    tag_4:\n      tag_17\n      tag_18\n      jump\t// in\n    tag_17:\n      stop\n        /* \"abstract/Ownable.sol\":1175:1260  function owner() public view virtual returns (address) {... */\n    tag_5:\n        /* \"abstract/Ownable.sol\":1221:1228  address */\n      0x00\n        /* \"abstract/Ownable.sol\":1247:1253  _owner */\n      sload\n        /* \"abstract/Ownable.sol\":1175:1260  function owner() public view virtual returns (address) {... */\n      mload(0x40)\n      sub(shl(0xa0, 0x01), 0x01)\n        /* \"abstract/Ownable.sol\":1247:1253  _owner */\n      swap1\n      swap2\n      and\n        /* \"#utility.yul\":2878:2929   */\n      dup2\n      mstore\n        /* \"#utility.yul\":2866:2868   */\n      0x20\n        /* \"#utility.yul\":2851:2869   */\n      add\n        /* \"abstract/Ownable.sol\":1175:1260  function owner() public view virtual returns (address) {... */\n      tag_15\n        /* \"#utility.yul\":2732:2935   */\n      jump\n        /* \"database/business/post/ListBusinessPost.sol\":1578:1956  function hide(uint256 index, bytes32 secret)... */\n    tag_6:\n      tag_23\n      tag_24\n      calldatasize\n      0x04\n      tag_25\n      jump\t// in\n    tag_24:\n      tag_26\n      jump\t// in\n    tag_23:\n      mload(0x40)\n        /* \"#utility.yul\":3358:3372   */\n      swap1\n      iszero\n        /* \"#utility.yul\":3351:3373   */\n      iszero\n        /* \"#utility.yul\":3333:3374   */\n      dup2\n      mstore\n        /* \"#utility.yul\":3321:3323   */\n      0x20\n        /* \"#utility.yul\":3306:3324   */\n      add\n        /* \"database/business/post/ListBusinessPost.sol\":1578:1956  function hide(uint256 index, bytes32 secret)... */\n      tag_15\n        /* \"#utility.yul\":3193:3380   */\n      jump\n        /* \"database/business/post/ListBusinessPost.sol\":1365:1572  function at(uint256 index, bytes32 secret)... */\n    tag_7:\n      tag_29\n      tag_30\n      calldatasize\n      0x04\n      tag_25\n      jump\t// in\n    tag_30:\n      tag_31\n      jump\t// in\n    tag_29:\n      mload(0x40)\n      tag_15\n      swap2\n      swap1\n      tag_33\n      jump\t// in\n        /* \"abstract/Ownable.sol\":2063:2295  function transferOwnership(address newOwner) public virtual onlyOwner {... */\n    tag_8:\n      tag_17\n      tag_35\n      calldatasize\n      0x04\n      tag_36\n      jump\t// in\n    tag_35:\n      tag_37\n      jump\t// in\n        /* \"database/business/post/ListBusinessPost.sol\":890:1053  function getLength(bytes32 secret)... */\n    tag_9:\n      tag_11\n      tag_39\n      calldatasize\n      0x04\n      tag_40\n      jump\t// in\n    tag_39:\n      tag_41\n      jump\t// in\n        /* \"database/business/post/ListBusinessPost.sol\":1059:1359  function add(BusinessPost memory item, bytes32 secret)... */\n    tag_14:\n        /* \"database/business/post/ListBusinessPost.sol\":1179:1186  uint256 */\n      0x00\n        /* \"database/business/post/ListBusinessPost.sol\":1154:1160  secret */\n      dup2\n      0x00\n      dup1\n      mload\n      0x20\n      data_98ee57057fe0a523e70b51608fd55a37ff53d47c3b8dac495a5f45d45157392f\n      dup4\n      codecopy\n      dup2\n      mload\n      swap2\n      mstore\n        /* \"database/business/post/ListBusinessPost.sol\":580:601  value == DATABASE_KEY */\n      dup2\n      eq\n        /* \"database/business/post/ListBusinessPost.sol\":559:670  require(... */\n      tag_44\n      jumpi\n      mload(0x40)\n      shl(0xe5, 0x461bcd)\n      dup2\n      mstore\n      0x04\n      add\n      tag_45\n      swap1\n      tag_46\n      jump\t// in\n    tag_45:\n      mload(0x40)\n      dup1\n      swap2\n      sub\n      swap1\n      revert\n    tag_44:\n        /* \"database/business/post/ListBusinessPost.sol\":1202:1215  autoIncrement */\n      0x02\n        /* \"database/business/post/ListBusinessPost.sol\":1202:1217  autoIncrement++ */\n      dup1\n      sload\n      swap1\n        /* \"database/business/post/ListBusinessPost.sol\":1202:1215  autoIncrement */\n      0x00\n        /* \"database/business/post/ListBusinessPost.sol\":1202:1217  autoIncrement++ */\n      tag_48\n      dup4\n      tag_49\n      jump\t// in\n    tag_48:\n      swap1\n      swap2\n      sstore\n      pop\n      pop\n        /* \"database/business/post/ListBusinessPost.sol\":1249:1262  autoIncrement */\n      0x02\n      dup1\n      sload\n        /* \"database/business/post/ListBusinessPost.sol\":1227:1246  item.businessPostId */\n      0x20\n      dup1\n      dup8\n      add\n        /* \"database/business/post/ListBusinessPost.sol\":1227:1262  item.businessPostId = autoIncrement */\n      dup3\n      dup2\n      mstore\n        /* \"database/business/post/ListBusinessPost.sol\":1272:1291  list[autoIncrement] */\n      0x00\n      swap3\n      dup4\n      mstore\n        /* \"database/business/post/ListBusinessPost.sol\":1272:1276  list */\n      0x01\n        /* \"database/business/post/ListBusinessPost.sol\":1272:1291  list[autoIncrement] */\n      swap2\n      dup3\n      swap1\n      mstore\n      0x40\n      swap3\n      dup4\n      swap1\n      keccak256\n        /* \"database/business/post/ListBusinessPost.sol\":1272:1298  list[autoIncrement] = item */\n      dup9\n      mload\n      dup2\n      sstore\n      swap1\n      mload\n      swap2\n      dup2\n      add\n      swap2\n      swap1\n      swap2\n      sstore\n      swap1\n      dup7\n      add\n      mload\n        /* \"database/business/post/ListBusinessPost.sol\":1227:1231  item */\n      dup7\n      swap3\n        /* \"database/business/post/ListBusinessPost.sol\":1272:1298  list[autoIncrement] = item */\n      dup3\n      add\n      swap1\n      tag_50\n      swap1\n      dup3\n      tag_51\n      jump\t// in\n    tag_50:\n      pop\n      0x60\n      dup3\n      add\n      mload\n      0x03\n      dup3\n      add\n      sstore\n      0x80\n      dup3\n      add\n      mload\n      0x04\n      dup3\n      add\n      swap1\n      tag_52\n      swap1\n      dup3\n      tag_51\n      jump\t// in\n    tag_52:\n      pop\n      0xa0\n      dup3\n      add\n      mload\n      0x05\n      dup3\n      add\n      swap1\n      tag_53\n      swap1\n      dup3\n      tag_51\n      jump\t// in\n    tag_53:\n      pop\n      0xc0\n      dup3\n      add\n      mload\n      0x06\n      dup3\n      add\n      dup1\n      sload\n      not(0xff)\n      and\n      0x01\n      dup4\n      0x02\n      dup2\n      gt\n      iszero\n      tag_55\n      jumpi\n      tag_55\n      tag_56\n      jump\t// in\n    tag_55:\n      mul\n      or\n      swap1\n      sstore\n      pop\n      swap1\n      pop\n      pop\n        /* \"database/business/post/ListBusinessPost.sol\":1313:1322  Add(item) */\n      0xdefa5e8096305949c2310b579044e1a2c202d439c0d0ed509f4c025f622cb881\n        /* \"database/business/post/ListBusinessPost.sol\":1317:1321  item */\n      dup5\n        /* \"database/business/post/ListBusinessPost.sol\":1313:1322  Add(item) */\n      mload(0x40)\n      tag_57\n      swap2\n      swap1\n      tag_33\n      jump\t// in\n    tag_57:\n      mload(0x40)\n      dup1\n      swap2\n      sub\n      swap1\n      log1\n      pop\n      pop\n        /* \"database/business/post/ListBusinessPost.sol\":1339:1352  autoIncrement */\n      sload(0x02)\n      swap3\n        /* \"database/business/post/ListBusinessPost.sol\":1059:1359  function add(BusinessPost memory item, bytes32 secret)... */\n      swap2\n      pop\n      pop\n      jump\t// out\n        /* \"abstract/Ownable.sol\":2642:2731  function destroy() public onlyOwner {... */\n    tag_18:\n        /* \"abstract/Ownable.sol\":1068:1081  _checkOwner() */\n      tag_59\n        /* \"abstract/Ownable.sol\":1068:1079  _checkOwner */\n      tag_60\n        /* \"abstract/Ownable.sol\":1068:1081  _checkOwner() */\n      jump\t// in\n    tag_59:\n        /* \"abstract/Ownable.sol\":2717:2721  this */\n      address\n        /* \"abstract/Ownable.sol\":2688:2724  selfdestruct(payable(address(this))) */\n      selfdestruct\n        /* \"database/business/post/ListBusinessPost.sol\":1578:1956  function hide(uint256 index, bytes32 secret)... */\n    tag_26:\n        /* \"database/business/post/ListBusinessPost.sol\":1714:1718  bool */\n      0x00\n        /* \"database/business/post/ListBusinessPost.sol\":1663:1669  secret */\n      dup2\n      0x00\n      dup1\n      mload\n      0x20\n      data_98ee57057fe0a523e70b51608fd55a37ff53d47c3b8dac495a5f45d45157392f\n      dup4\n      codecopy\n      dup2\n      mload\n      swap2\n      mstore\n        /* \"database/business/post/ListBusinessPost.sol\":580:601  value == DATABASE_KEY */\n      dup2\n      eq\n        /* \"database/business/post/ListBusinessPost.sol\":559:670  require(... */\n      tag_64\n      jumpi\n      mload(0x40)\n      shl(0xe5, 0x461bcd)\n      dup2\n      mstore\n      0x04\n      add\n      tag_45\n      swap1\n      tag_46\n      jump\t// in\n    tag_64:\n        /* \"database/business/post/ListBusinessPost.sol\":1690:1695  index */\n      dup4\n        /* \"database/business/post/ListBusinessPost.sol\":766:771  index */\n      dup1\n        /* \"database/business/post/ListBusinessPost.sol\":761:762  1 */\n      0x01\n        /* \"database/business/post/ListBusinessPost.sol\":761:771  1 <= index */\n      gt\n      iszero\n        /* \"database/business/post/ListBusinessPost.sol\":760:800  (1 <= index) && (index <= autoIncrement) */\n      dup1\n      iszero\n      tag_67\n      jumpi\n      pop\n        /* \"database/business/post/ListBusinessPost.sol\":786:799  autoIncrement */\n      sload(0x02)\n        /* \"database/business/post/ListBusinessPost.sol\":777:782  index */\n      dup2\n        /* \"database/business/post/ListBusinessPost.sol\":777:799  index <= autoIncrement */\n      gt\n      iszero\n        /* \"database/business/post/ListBusinessPost.sol\":760:800  (1 <= index) && (index <= autoIncrement) */\n    tag_67:\n        /* \"database/business/post/ListBusinessPost.sol\":739:866  require(... */\n      tag_68\n      jumpi\n      mload(0x40)\n      shl(0xe5, 0x461bcd)\n      dup2\n      mstore\n      0x04\n      add\n      tag_45\n      swap1\n      tag_70\n      jump\t// in\n    tag_68:\n        /* \"database/business/post/ListBusinessPost.sol\":1760:1901  BusinessPost(... */\n      0x40\n      dup1\n      mload\n      0xe0\n      dup2\n      add\n      dup3\n      mstore\n      0x00\n      dup1\n      dup3\n      mstore\n      0x20\n      dup1\n      dup4\n      add\n      dup3\n      dup2\n      mstore\n      dup5\n      mload\n      dup1\n      dup4\n      add\n      dup7\n      mstore\n      dup4\n      dup2\n      mstore\n      dup5\n      dup7\n      add\n      swap1\n      dup2\n      mstore\n      0x60\n      dup6\n      add\n      dup5\n      swap1\n      mstore\n      dup6\n      mload\n      dup1\n      dup5\n      add\n      dup8\n      mstore\n      dup5\n      dup2\n      mstore\n      0x80\n      dup7\n      add\n      mstore\n      dup6\n      mload\n      dup1\n      dup5\n      add\n      dup8\n      mstore\n      dup5\n      dup2\n      mstore\n      0xa0\n      dup7\n      add\n      mstore\n        /* \"database/business/post/ListBusinessPost.sol\":1879:1891  Status.close */\n      0x02\n        /* \"database/business/post/ListBusinessPost.sol\":1760:1901  BusinessPost(... */\n      0xc0\n      dup7\n      add\n      dup2\n      swap1\n      mstore\n        /* \"database/business/post/ListBusinessPost.sol\":1911:1922  list[index] */\n      dup12\n      dup6\n      mstore\n        /* \"database/business/post/ListBusinessPost.sol\":1911:1915  list */\n      0x01\n        /* \"database/business/post/ListBusinessPost.sol\":1911:1922  list[index] */\n      swap4\n      dup5\n      swap1\n      mstore\n      swap6\n      swap1\n      swap4\n      keccak256\n        /* \"database/business/post/ListBusinessPost.sol\":1911:1928  list[index] = gap */\n      dup5\n      mload\n      dup2\n      sstore\n      swap1\n      mload\n      swap2\n      dup2\n      add\n      swap2\n      swap1\n      swap2\n      sstore\n      swap1\n      mload\n        /* \"database/business/post/ListBusinessPost.sol\":1760:1901  BusinessPost(... */\n      swap2\n      swap3\n      dup4\n      swap3\n        /* \"database/business/post/ListBusinessPost.sol\":1911:1928  list[index] = gap */\n      swap1\n      dup3\n      add\n      swap1\n      tag_74\n      swap1\n      dup3\n      tag_51\n      jump\t// in\n    tag_74:\n      pop\n      0x60\n      dup3\n      add\n      mload\n      0x03\n      dup3\n      add\n      sstore\n      0x80\n      dup3\n      add\n      mload\n      0x04\n      dup3\n      add\n      swap1\n      tag_75\n      swap1\n      dup3\n      tag_51\n      jump\t// in\n    tag_75:\n      pop\n      0xa0\n      dup3\n      add\n      mload\n      0x05\n      dup3\n      add\n      swap1\n      tag_76\n      swap1\n      dup3\n      tag_51\n      jump\t// in\n    tag_76:\n      pop\n      0xc0\n      dup3\n      add\n      mload\n      0x06\n      dup3\n      add\n      dup1\n      sload\n      not(0xff)\n      and\n      0x01\n      dup4\n      0x02\n      dup2\n      gt\n      iszero\n      tag_78\n      jumpi\n      tag_78\n      tag_56\n      jump\t// in\n    tag_78:\n      mul\n      or\n      swap1\n      sstore\n      pop\n        /* \"database/business/post/ListBusinessPost.sol\":1945:1949  true */\n      0x01\n      swap9\n        /* \"database/business/post/ListBusinessPost.sol\":1578:1956  function hide(uint256 index, bytes32 secret)... */\n      swap8\n      pop\n      pop\n      pop\n      pop\n      pop\n      pop\n      pop\n      pop\n      jump\t// out\n        /* \"database/business/post/ListBusinessPost.sol\":1365:1572  function at(uint256 index, bytes32 secret)... */\n    tag_31:\n        /* \"database/business/post/ListBusinessPost.sol\":1512:1531  BusinessPost memory */\n      tag_79\n      tag_80\n      jump\t// in\n    tag_79:\n        /* \"database/business/post/ListBusinessPost.sol\":1461:1467  secret */\n      dup2\n      0x00\n      dup1\n      mload\n      0x20\n      data_98ee57057fe0a523e70b51608fd55a37ff53d47c3b8dac495a5f45d45157392f\n      dup4\n      codecopy\n      dup2\n      mload\n      swap2\n      mstore\n        /* \"database/business/post/ListBusinessPost.sol\":580:601  value == DATABASE_KEY */\n      dup2\n      eq\n        /* \"database/business/post/ListBusinessPost.sol\":559:670  require(... */\n      tag_82\n      jumpi\n      mload(0x40)\n      shl(0xe5, 0x461bcd)\n      dup2\n      mstore\n      0x04\n      add\n      tag_45\n      swap1\n      tag_46\n      jump\t// in\n    tag_82:\n        /* \"database/business/post/ListBusinessPost.sol\":1488:1493  index */\n      dup4\n        /* \"database/business/post/ListBusinessPost.sol\":766:771  index */\n      dup1\n        /* \"database/business/post/ListBusinessPost.sol\":761:762  1 */\n      0x01\n        /* \"database/business/post/ListBusinessPost.sol\":761:771  1 <= index */\n      gt\n      iszero\n        /* \"database/business/post/ListBusinessPost.sol\":760:800  (1 <= index) && (index <= autoIncrement) */\n      dup1\n      iszero\n      tag_85\n      jumpi\n      pop\n        /* \"database/business/post/ListBusinessPost.sol\":786:799  autoIncrement */\n      sload(0x02)\n        /* \"database/business/post/ListBusinessPost.sol\":777:782  index */\n      dup2\n        /* \"database/business/post/ListBusinessPost.sol\":777:799  index <= autoIncrement */\n      gt\n      iszero\n        /* \"database/business/post/ListBusinessPost.sol\":760:800  (1 <= index) && (index <= autoIncrement) */\n    tag_85:\n        /* \"database/business/post/ListBusinessPost.sol\":739:866  require(... */\n      tag_86\n      jumpi\n      mload(0x40)\n      shl(0xe5, 0x461bcd)\n      dup2\n      mstore\n      0x04\n      add\n      tag_45\n      swap1\n      tag_70\n      jump\t// in\n    tag_86:\n        /* \"database/business/post/ListBusinessPost.sol\":1554:1558  list */\n      0x01\n        /* \"database/business/post/ListBusinessPost.sol\":1554:1565  list[index] */\n      0x00\n        /* \"database/business/post/ListBusinessPost.sol\":1559:1564  index */\n      dup7\n        /* \"database/business/post/ListBusinessPost.sol\":1554:1565  list[index] */\n      dup2\n      mstore\n      0x20\n      add\n      swap1\n      dup2\n      mstore\n      0x20\n      add\n      0x00\n      keccak256\n        /* \"database/business/post/ListBusinessPost.sol\":1547:1565  return list[index] */\n      mload(0x40)\n      dup1\n      0xe0\n      add\n      0x40\n      mstore\n      swap1\n      dup2\n      0x00\n      dup3\n      add\n      sload\n      dup2\n      mstore\n      0x20\n      add\n      0x01\n      dup3\n      add\n      sload\n      dup2\n      mstore\n      0x20\n      add\n      0x02\n      dup3\n      add\n      dup1\n      sload\n      tag_89\n      swap1\n      tag_90\n      jump\t// in\n    tag_89:\n      dup1\n      0x1f\n      add\n      0x20\n      dup1\n      swap2\n      div\n      mul\n      0x20\n      add\n      mload(0x40)\n      swap1\n      dup2\n      add\n      0x40\n      mstore\n      dup1\n      swap3\n      swap2\n      swap1\n      dup2\n      dup2\n      mstore\n      0x20\n      add\n      dup3\n      dup1\n      sload\n      tag_91\n      swap1\n      tag_90\n      jump\t// in\n    tag_91:\n      dup1\n      iszero\n      tag_92\n      jumpi\n      dup1\n      0x1f\n      lt\n      tag_93\n      jumpi\n      0x0100\n      dup1\n      dup4\n      sload\n      div\n      mul\n      dup4\n      mstore\n      swap2\n      0x20\n      add\n      swap2\n      jump(tag_92)\n    tag_93:\n      dup3\n      add\n      swap2\n      swap1\n      0x00\n      mstore\n      keccak256(0x00, 0x20)\n      swap1\n    tag_94:\n      dup2\n      sload\n      dup2\n      mstore\n      swap1\n      0x01\n      add\n      swap1\n      0x20\n      add\n      dup1\n      dup4\n      gt\n      tag_94\n      jumpi\n      dup3\n      swap1\n      sub\n      0x1f\n      and\n      dup3\n      add\n      swap2\n    tag_92:\n      pop\n      pop\n      pop\n      pop\n      pop\n      dup2\n      mstore\n      0x20\n      add\n      0x03\n      dup3\n      add\n      sload\n      dup2\n      mstore\n      0x20\n      add\n      0x04\n      dup3\n      add\n      dup1\n      sload\n      tag_95\n      swap1\n      tag_90\n      jump\t// in\n    tag_95:\n      dup1\n      0x1f\n      add\n      0x20\n      dup1\n      swap2\n      div\n      mul\n      0x20\n      add\n      mload(0x40)\n      swap1\n      dup2\n      add\n      0x40\n      mstore\n      dup1\n      swap3\n      swap2\n      swap1\n      dup2\n      dup2\n      mstore\n      0x20\n      add\n      dup3\n      dup1\n      sload\n      tag_96\n      swap1\n      tag_90\n      jump\t// in\n    tag_96:\n      dup1\n      iszero\n      tag_97\n      jumpi\n      dup1\n      0x1f\n      lt\n      tag_98\n      jumpi\n      0x0100\n      dup1\n      dup4\n      sload\n      div\n      mul\n      dup4\n      mstore\n      swap2\n      0x20\n      add\n      swap2\n      jump(tag_97)\n    tag_98:\n      dup3\n      add\n      swap2\n      swap1\n      0x00\n      mstore\n      keccak256(0x00, 0x20)\n      swap1\n    tag_99:\n      dup2\n      sload\n      dup2\n      mstore\n      swap1\n      0x01\n      add\n      swap1\n      0x20\n      add\n      dup1\n      dup4\n      gt\n      tag_99\n      jumpi\n      dup3\n      swap1\n      sub\n      0x1f\n      and\n      dup3\n      add\n      swap2\n    tag_97:\n      pop\n      pop\n      pop\n      pop\n      pop\n      dup2\n      mstore\n      0x20\n      add\n      0x05\n      dup3\n      add\n      dup1\n      sload\n      tag_100\n      swap1\n      tag_90\n      jump\t// in\n    tag_100:\n      dup1\n      0x1f\n      add\n      0x20\n      dup1\n      swap2\n      div\n      mul\n      0x20\n      add\n      mload(0x40)\n      swap1\n      dup2\n      add\n      0x40\n      mstore\n      dup1\n      swap3\n      swap2\n      swap1\n      dup2\n      dup2\n      mstore\n      0x20\n      add\n      dup3\n      dup1\n      sload\n      tag_101\n      swap1\n      tag_90\n      jump\t// in\n    tag_101:\n      dup1\n      iszero\n      tag_102\n      jumpi\n      dup1\n      0x1f\n      lt\n      tag_103\n      jumpi\n      0x0100\n      dup1\n      dup4\n      sload\n      div\n      mul\n      dup4\n      mstore\n      swap2\n      0x20\n      add\n      swap2\n      jump(tag_102)\n    tag_103:\n      dup3\n      add\n      swap2\n      swap1\n      0x00\n      mstore\n      keccak256(0x00, 0x20)\n      swap1\n    tag_104:\n      dup2\n      sload\n      dup2\n      mstore\n      swap1\n      0x01\n      add\n      swap1\n      0x20\n      add\n      dup1\n      dup4\n      gt\n      tag_104\n      jumpi\n      dup3\n      swap1\n      sub\n      0x1f\n      and\n      dup3\n      add\n      swap2\n    tag_102:\n      pop\n      pop\n      pop\n      swap2\n      dup4\n      mstore\n      pop\n      pop\n      0x06\n      dup3\n      add\n      sload\n      0x20\n      swap1\n      swap2\n      add\n      swap1\n      0xff\n      and\n      0x02\n      dup2\n      gt\n      iszero\n      tag_106\n      jumpi\n      tag_106\n      tag_56\n      jump\t// in\n    tag_106:\n      0x02\n      dup2\n      gt\n      iszero\n      tag_108\n      jumpi\n      tag_108\n      tag_56\n      jump\t// in\n    tag_108:\n      swap1\n      mstore\n      pop\n      swap6\n        /* \"database/business/post/ListBusinessPost.sol\":1365:1572  function at(uint256 index, bytes32 secret)... */\n      swap5\n      pop\n      pop\n      pop\n      pop\n      pop\n      jump\t// out\n        /* \"abstract/Ownable.sol\":2063:2295  function transferOwnership(address newOwner) public virtual onlyOwner {... */\n    tag_37:\n        /* \"abstract/Ownable.sol\":1068:1081  _checkOwner() */\n      tag_110\n        /* \"abstract/Ownable.sol\":1068:1079  _checkOwner */\n      tag_60\n        /* \"abstract/Ownable.sol\":1068:1081  _checkOwner() */\n      jump\t// in\n    tag_110:\n      sub(shl(0xa0, 0x01), 0x01)\n        /* \"abstract/Ownable.sol\":2164:2186  newOwner != address(0) */\n      dup2\n      and\n        /* \"abstract/Ownable.sol\":2143:2250  require(... */\n      tag_112\n      jumpi\n      mload(0x40)\n      shl(0xe5, 0x461bcd)\n      dup2\n      mstore\n        /* \"#utility.yul\":9498:9500   */\n      0x20\n        /* \"abstract/Ownable.sol\":2143:2250  require(... */\n      0x04\n      dup3\n      add\n        /* \"#utility.yul\":9480:9501   */\n      mstore\n        /* \"#utility.yul\":9537:9539   */\n      0x26\n        /* \"#utility.yul\":9517:9535   */\n      0x24\n      dup3\n      add\n        /* \"#utility.yul\":9510:9540   */\n      mstore\n        /* \"#utility.yul\":9576:9610   */\n      0x4f776e61626c653a206e6577206f776e657220697320746865207a65726f2061\n        /* \"#utility.yul\":9556:9574   */\n      0x44\n      dup3\n      add\n        /* \"#utility.yul\":9549:9611   */\n      mstore\n      shl(0xd0, 0x646472657373)\n        /* \"#utility.yul\":9627:9645   */\n      0x64\n      dup3\n      add\n        /* \"#utility.yul\":9620:9656   */\n      mstore\n        /* \"#utility.yul\":9673:9692   */\n      0x84\n      add\n        /* \"abstract/Ownable.sol\":2143:2250  require(... */\n      tag_45\n        /* \"#utility.yul\":9296:9698   */\n      jump\n        /* \"abstract/Ownable.sol\":2143:2250  require(... */\n    tag_112:\n        /* \"abstract/Ownable.sol\":2260:2288  _transferOwnership(newOwner) */\n      tag_115\n        /* \"abstract/Ownable.sol\":2279:2287  newOwner */\n      dup2\n        /* \"abstract/Ownable.sol\":2260:2278  _transferOwnership */\n      tag_116\n        /* \"abstract/Ownable.sol\":2260:2288  _transferOwnership(newOwner) */\n      jump\t// in\n    tag_115:\n        /* \"abstract/Ownable.sol\":2063:2295  function transferOwnership(address newOwner) public virtual onlyOwner {... */\n      pop\n      jump\t// out\n        /* \"database/business/post/ListBusinessPost.sol\":890:1053  function getLength(bytes32 secret)... */\n    tag_41:\n        /* \"database/business/post/ListBusinessPost.sol\":1003:1010  uint256 */\n      0x00\n        /* \"database/business/post/ListBusinessPost.sol\":978:984  secret */\n      dup2\n      0x00\n      dup1\n      mload\n      0x20\n      data_98ee57057fe0a523e70b51608fd55a37ff53d47c3b8dac495a5f45d45157392f\n      dup4\n      codecopy\n      dup2\n      mload\n      swap2\n      mstore\n        /* \"database/business/post/ListBusinessPost.sol\":580:601  value == DATABASE_KEY */\n      dup2\n      eq\n        /* \"database/business/post/ListBusinessPost.sol\":559:670  require(... */\n      tag_118\n      jumpi\n      mload(0x40)\n      shl(0xe5, 0x461bcd)\n      dup2\n      mstore\n      0x04\n      add\n      tag_45\n      swap1\n      tag_46\n      jump\t// in\n    tag_118:\n        /* \"database/business/post/ListBusinessPost.sol\":1033:1046  autoIncrement */\n      sload(0x02)\n        /* \"database/business/post/ListBusinessPost.sol\":1026:1046  return autoIncrement */\n      swap2\n      pop\n        /* \"database/business/post/ListBusinessPost.sol\":680:681  _ */\n    tag_120:\n        /* \"database/business/post/ListBusinessPost.sol\":890:1053  function getLength(bytes32 secret)... */\n      pop\n      swap2\n      swap1\n      pop\n      jump\t// out\n        /* \"abstract/Ownable.sol\":1333:1461  function _checkOwner() internal view virtual {... */\n    tag_60:\n        /* \"abstract/Ownable.sol\":1407:1417  msg.sender */\n      caller\n        /* \"abstract/Ownable.sol\":1396:1403  owner() */\n      tag_122\n        /* \"abstract/Ownable.sol\":1221:1228  address */\n      0x00\n        /* \"abstract/Ownable.sol\":1247:1253  _owner */\n      sload\n      sub(shl(0xa0, 0x01), 0x01)\n      and\n      swap1\n        /* \"abstract/Ownable.sol\":1175:1260  function owner() public view virtual returns (address) {... */\n      jump\n        /* \"abstract/Ownable.sol\":1396:1403  owner() */\n    tag_122:\n      sub(shl(0xa0, 0x01), 0x01)\n        /* \"abstract/Ownable.sol\":1396:1417  owner() == msg.sender */\n      and\n      eq\n        /* \"abstract/Ownable.sol\":1388:1454  require(owner() == msg.sender, \"Ownable: caller is not the owner\") */\n      tag_123\n      jumpi\n      mload(0x40)\n      shl(0xe5, 0x461bcd)\n      dup2\n      mstore\n        /* \"#utility.yul\":9905:9907   */\n      0x20\n        /* \"abstract/Ownable.sol\":1388:1454  require(owner() == msg.sender, \"Ownable: caller is not the owner\") */\n      0x04\n      dup3\n      add\n        /* \"#utility.yul\":9887:9908   */\n      dup2\n      swap1\n      mstore\n        /* \"#utility.yul\":9924:9942   */\n      0x24\n      dup3\n      add\n        /* \"#utility.yul\":9917:9947   */\n      mstore\n        /* \"#utility.yul\":9983:10017   */\n      0x4f776e61626c653a2063616c6c6572206973206e6f7420746865206f776e6572\n        /* \"#utility.yul\":9963:9981   */\n      0x44\n      dup3\n      add\n        /* \"#utility.yul\":9956:10018   */\n      mstore\n        /* \"#utility.yul\":10035:10053   */\n      0x64\n      add\n        /* \"abstract/Ownable.sol\":1388:1454  require(owner() == msg.sender, \"Ownable: caller is not the owner\") */\n      tag_45\n        /* \"#utility.yul\":9703:10059   */\n      jump\n        /* \"abstract/Ownable.sol\":1388:1454  require(owner() == msg.sender, \"Ownable: caller is not the owner\") */\n    tag_123:\n        /* \"abstract/Ownable.sol\":1333:1461  function _checkOwner() internal view virtual {... */\n      jump\t// out\n        /* \"abstract/Ownable.sol\":2449:2636  function _transferOwnership(address newOwner) internal virtual {... */\n    tag_116:\n        /* \"abstract/Ownable.sol\":2522:2538  address oldOwner */\n      0x00\n        /* \"abstract/Ownable.sol\":2541:2547  _owner */\n      dup1\n      sload\n      sub(shl(0xa0, 0x01), 0x01)\n        /* \"abstract/Ownable.sol\":2557:2574  _owner = newOwner */\n      dup4\n      dup2\n      and\n      not(sub(shl(0xa0, 0x01), 0x01))\n      dup4\n      and\n      dup2\n      or\n      dup5\n      sstore\n        /* \"abstract/Ownable.sol\":2589:2629  OwnershipTransferred(oldOwner, newOwner) */\n      mload(0x40)\n        /* \"abstract/Ownable.sol\":2541:2547  _owner */\n      swap2\n      swap1\n      swap3\n      and\n      swap3\n      dup4\n      swap2\n        /* \"abstract/Ownable.sol\":2589:2629  OwnershipTransferred(oldOwner, newOwner) */\n      0x8be0079c531659141344cd1fd0a4f28419497f9722a3daafe3b4186f6b6457e0\n      swap2\n        /* \"abstract/Ownable.sol\":2522:2538  address oldOwner */\n      swap1\n        /* \"abstract/Ownable.sol\":2589:2629  OwnershipTransferred(oldOwner, newOwner) */\n      log3\n        /* \"abstract/Ownable.sol\":2512:2636  {... */\n      pop\n        /* \"abstract/Ownable.sol\":2449:2636  function _transferOwnership(address newOwner) internal virtual {... */\n      pop\n      jump\t// out\n    tag_80:\n      mload(0x40)\n      dup1\n      0xe0\n      add\n      0x40\n      mstore\n      dup1\n      0x00\n      dup2\n      mstore\n      0x20\n      add\n      0x00\n      dup2\n      mstore\n      0x20\n      add\n      0x60\n      dup2\n      mstore\n      0x20\n      add\n      0x00\n      dup2\n      mstore\n      0x20\n      add\n      0x60\n      dup2\n      mstore\n      0x20\n      add\n      0x60\n      dup2\n      mstore\n      0x20\n      add\n      0x00\n      0x02\n      dup2\n      gt\n      iszero\n      tag_128\n      jumpi\n      tag_128\n      tag_56\n      jump\t// in\n    tag_128:\n      swap1\n      mstore\n      swap1\n      jump\t// out\n        /* \"#utility.yul\":14:141   */\n    tag_129:\n        /* \"#utility.yul\":75:85   */\n      0x4e487b71\n        /* \"#utility.yul\":70:73   */\n      0xe0\n        /* \"#utility.yul\":66:86   */\n      shl\n        /* \"#utility.yul\":63:64   */\n      0x00\n        /* \"#utility.yul\":56:87   */\n      mstore\n        /* \"#utility.yul\":106:110   */\n      0x41\n        /* \"#utility.yul\":103:104   */\n      0x04\n        /* \"#utility.yul\":96:111   */\n      mstore\n        /* \"#utility.yul\":130:134   */\n      0x24\n        /* \"#utility.yul\":127:128   */\n      0x00\n        /* \"#utility.yul\":120:135   */\n      revert\n        /* \"#utility.yul\":146:394   */\n    tag_130:\n        /* \"#utility.yul\":213:215   */\n      0x40\n        /* \"#utility.yul\":207:216   */\n      mload\n        /* \"#utility.yul\":255:259   */\n      0xe0\n        /* \"#utility.yul\":243:260   */\n      dup2\n      add\n        /* \"#utility.yul\":290:308   */\n      0xffffffffffffffff\n        /* \"#utility.yul\":275:309   */\n      dup2\n      gt\n        /* \"#utility.yul\":311:333   */\n      dup3\n      dup3\n      lt\n        /* \"#utility.yul\":272:334   */\n      or\n        /* \"#utility.yul\":269:357   */\n      iszero\n      tag_141\n      jumpi\n        /* \"#utility.yul\":337:355   */\n      tag_141\n      tag_129\n      jump\t// in\n    tag_141:\n        /* \"#utility.yul\":373:375   */\n      0x40\n        /* \"#utility.yul\":366:388   */\n      mstore\n        /* \"#utility.yul\":146:394   */\n      swap1\n      jump\t// out\n        /* \"#utility.yul\":399:1118   */\n    tag_131:\n        /* \"#utility.yul\":442:447   */\n      0x00\n        /* \"#utility.yul\":495:498   */\n      dup3\n        /* \"#utility.yul\":488:492   */\n      0x1f\n        /* \"#utility.yul\":480:486   */\n      dup4\n        /* \"#utility.yul\":476:493   */\n      add\n        /* \"#utility.yul\":472:499   */\n      slt\n        /* \"#utility.yul\":462:517   */\n      tag_143\n      jumpi\n        /* \"#utility.yul\":513:514   */\n      0x00\n        /* \"#utility.yul\":510:511   */\n      dup1\n        /* \"#utility.yul\":503:515   */\n      revert\n        /* \"#utility.yul\":462:517   */\n    tag_143:\n        /* \"#utility.yul\":549:555   */\n      dup2\n        /* \"#utility.yul\":536:556   */\n      calldataload\n        /* \"#utility.yul\":575:593   */\n      0xffffffffffffffff\n        /* \"#utility.yul\":612:614   */\n      dup1\n        /* \"#utility.yul\":608:610   */\n      dup3\n        /* \"#utility.yul\":605:615   */\n      gt\n        /* \"#utility.yul\":602:638   */\n      iszero\n      tag_145\n      jumpi\n        /* \"#utility.yul\":618:636   */\n      tag_145\n      tag_129\n      jump\t// in\n    tag_145:\n        /* \"#utility.yul\":693:695   */\n      0x40\n        /* \"#utility.yul\":687:696   */\n      mload\n        /* \"#utility.yul\":661:663   */\n      0x1f\n        /* \"#utility.yul\":747:760   */\n      dup4\n      add\n      not(0x1f)\n        /* \"#utility.yul\":743:765   */\n      swap1\n      dup2\n      and\n        /* \"#utility.yul\":767:769   */\n      0x3f\n        /* \"#utility.yul\":739:770   */\n      add\n        /* \"#utility.yul\":735:775   */\n      and\n        /* \"#utility.yul\":723:776   */\n      dup2\n      add\n      swap1\n        /* \"#utility.yul\":791:809   */\n      dup3\n      dup3\n      gt\n        /* \"#utility.yul\":811:833   */\n      dup2\n      dup4\n      lt\n        /* \"#utility.yul\":788:834   */\n      or\n        /* \"#utility.yul\":785:857   */\n      iszero\n      tag_147\n      jumpi\n        /* \"#utility.yul\":837:855   */\n      tag_147\n      tag_129\n      jump\t// in\n    tag_147:\n        /* \"#utility.yul\":877:887   */\n      dup2\n        /* \"#utility.yul\":873:875   */\n      0x40\n        /* \"#utility.yul\":866:888   */\n      mstore\n        /* \"#utility.yul\":912:914   */\n      dup4\n        /* \"#utility.yul\":904:910   */\n      dup2\n        /* \"#utility.yul\":897:915   */\n      mstore\n        /* \"#utility.yul\":958:961   */\n      dup7\n        /* \"#utility.yul\":951:955   */\n      0x20\n        /* \"#utility.yul\":946:948   */\n      dup6\n        /* \"#utility.yul\":938:944   */\n      dup9\n        /* \"#utility.yul\":934:949   */\n      add\n        /* \"#utility.yul\":930:956   */\n      add\n        /* \"#utility.yul\":927:962   */\n      gt\n        /* \"#utility.yul\":924:979   */\n      iszero\n      tag_148\n      jumpi\n        /* \"#utility.yul\":975:976   */\n      0x00\n        /* \"#utility.yul\":972:973   */\n      dup1\n        /* \"#utility.yul\":965:977   */\n      revert\n        /* \"#utility.yul\":924:979   */\n    tag_148:\n        /* \"#utility.yul\":1039:1041   */\n      dup4\n        /* \"#utility.yul\":1032:1036   */\n      0x20\n        /* \"#utility.yul\":1024:1030   */\n      dup8\n        /* \"#utility.yul\":1020:1037   */\n      add\n        /* \"#utility.yul\":1013:1017   */\n      0x20\n        /* \"#utility.yul\":1005:1011   */\n      dup4\n        /* \"#utility.yul\":1001:1018   */\n      add\n        /* \"#utility.yul\":988:1042   */\n      calldatacopy\n        /* \"#utility.yul\":1086:1087   */\n      0x00\n        /* \"#utility.yul\":1079:1083   */\n      0x20\n        /* \"#utility.yul\":1074:1076   */\n      dup6\n        /* \"#utility.yul\":1066:1072   */\n      dup4\n        /* \"#utility.yul\":1062:1077   */\n      add\n        /* \"#utility.yul\":1058:1084   */\n      add\n        /* \"#utility.yul\":1051:1088   */\n      mstore\n        /* \"#utility.yul\":1106:1112   */\n      dup1\n        /* \"#utility.yul\":1097:1112   */\n      swap5\n      pop\n      pop\n      pop\n      pop\n      pop\n        /* \"#utility.yul\":399:1118   */\n      swap3\n      swap2\n      pop\n      pop\n      jump\t// out\n        /* \"#utility.yul\":1123:1270   */\n    tag_132:\n        /* \"#utility.yul\":1195:1215   */\n      dup1\n      calldataload\n        /* \"#utility.yul\":1244:1245   */\n      0x03\n        /* \"#utility.yul\":1234:1246   */\n      dup2\n      lt\n        /* \"#utility.yul\":1224:1264   */\n      tag_150\n      jumpi\n        /* \"#utility.yul\":1260:1261   */\n      0x00\n        /* \"#utility.yul\":1257:1258   */\n      dup1\n        /* \"#utility.yul\":1250:1262   */\n      revert\n        /* \"#utility.yul\":1224:1264   */\n    tag_150:\n        /* \"#utility.yul\":1123:1270   */\n      swap2\n      swap1\n      pop\n      jump\t// out\n        /* \"#utility.yul\":1275:2545   */\n    tag_13:\n        /* \"#utility.yul\":1372:1378   */\n      0x00\n        /* \"#utility.yul\":1380:1386   */\n      dup1\n        /* \"#utility.yul\":1433:1435   */\n      0x40\n        /* \"#utility.yul\":1421:1430   */\n      dup4\n        /* \"#utility.yul\":1412:1419   */\n      dup6\n        /* \"#utility.yul\":1408:1431   */\n      sub\n        /* \"#utility.yul\":1404:1436   */\n      slt\n        /* \"#utility.yul\":1401:1453   */\n      iszero\n      tag_152\n      jumpi\n        /* \"#utility.yul\":1449:1450   */\n      0x00\n        /* \"#utility.yul\":1446:1447   */\n      dup1\n        /* \"#utility.yul\":1439:1451   */\n      revert\n        /* \"#utility.yul\":1401:1453   */\n    tag_152:\n        /* \"#utility.yul\":1489:1498   */\n      dup3\n        /* \"#utility.yul\":1476:1499   */\n      calldataload\n        /* \"#utility.yul\":1518:1536   */\n      0xffffffffffffffff\n        /* \"#utility.yul\":1559:1561   */\n      dup1\n        /* \"#utility.yul\":1551:1557   */\n      dup3\n        /* \"#utility.yul\":1548:1562   */\n      gt\n        /* \"#utility.yul\":1545:1579   */\n      iszero\n      tag_153\n      jumpi\n        /* \"#utility.yul\":1575:1576   */\n      0x00\n        /* \"#utility.yul\":1572:1573   */\n      dup1\n        /* \"#utility.yul\":1565:1577   */\n      revert\n        /* \"#utility.yul\":1545:1579   */\n    tag_153:\n        /* \"#utility.yul\":1598:1620   */\n      swap1\n      dup5\n      add\n      swap1\n        /* \"#utility.yul\":1654:1658   */\n      0xe0\n        /* \"#utility.yul\":1636:1652   */\n      dup3\n      dup8\n      sub\n        /* \"#utility.yul\":1632:1659   */\n      slt\n        /* \"#utility.yul\":1629:1676   */\n      iszero\n      tag_154\n      jumpi\n        /* \"#utility.yul\":1672:1673   */\n      0x00\n        /* \"#utility.yul\":1669:1670   */\n      dup1\n        /* \"#utility.yul\":1662:1674   */\n      revert\n        /* \"#utility.yul\":1629:1676   */\n    tag_154:\n        /* \"#utility.yul\":1698:1715   */\n      tag_155\n      tag_130\n      jump\t// in\n    tag_155:\n        /* \"#utility.yul\":1751:1753   */\n      dup3\n        /* \"#utility.yul\":1738:1754   */\n      calldataload\n        /* \"#utility.yul\":1731:1736   */\n      dup2\n        /* \"#utility.yul\":1724:1755   */\n      mstore\n        /* \"#utility.yul\":1808:1810   */\n      0x20\n        /* \"#utility.yul\":1804:1806   */\n      dup4\n        /* \"#utility.yul\":1800:1811   */\n      add\n        /* \"#utility.yul\":1787:1812   */\n      calldataload\n        /* \"#utility.yul\":1782:1784   */\n      0x20\n        /* \"#utility.yul\":1775:1780   */\n      dup3\n        /* \"#utility.yul\":1771:1785   */\n      add\n        /* \"#utility.yul\":1764:1813   */\n      mstore\n        /* \"#utility.yul\":1859:1861   */\n      0x40\n        /* \"#utility.yul\":1855:1857   */\n      dup4\n        /* \"#utility.yul\":1851:1862   */\n      add\n        /* \"#utility.yul\":1838:1863   */\n      calldataload\n        /* \"#utility.yul\":1888:1890   */\n      dup3\n        /* \"#utility.yul\":1878:1886   */\n      dup2\n        /* \"#utility.yul\":1875:1891   */\n      gt\n        /* \"#utility.yul\":1872:1908   */\n      iszero\n      tag_156\n      jumpi\n        /* \"#utility.yul\":1904:1905   */\n      0x00\n        /* \"#utility.yul\":1901:1902   */\n      dup1\n        /* \"#utility.yul\":1894:1906   */\n      revert\n        /* \"#utility.yul\":1872:1908   */\n    tag_156:\n        /* \"#utility.yul\":1940:1985   */\n      tag_157\n        /* \"#utility.yul\":1977:1984   */\n      dup9\n        /* \"#utility.yul\":1966:1974   */\n      dup3\n        /* \"#utility.yul\":1962:1964   */\n      dup7\n        /* \"#utility.yul\":1958:1975   */\n      add\n        /* \"#utility.yul\":1940:1985   */\n      tag_131\n      jump\t// in\n    tag_157:\n        /* \"#utility.yul\":1935:1937   */\n      0x40\n        /* \"#utility.yul\":1928:1933   */\n      dup4\n        /* \"#utility.yul\":1924:1938   */\n      add\n        /* \"#utility.yul\":1917:1986   */\n      mstore\n      pop\n        /* \"#utility.yul\":2039:2041   */\n      0x60\n        /* \"#utility.yul\":2035:2037   */\n      dup4\n        /* \"#utility.yul\":2031:2042   */\n      add\n        /* \"#utility.yul\":2018:2043   */\n      calldataload\n        /* \"#utility.yul\":2013:2015   */\n      0x60\n        /* \"#utility.yul\":2006:2011   */\n      dup3\n        /* \"#utility.yul\":2002:2016   */\n      add\n        /* \"#utility.yul\":1995:2044   */\n      mstore\n        /* \"#utility.yul\":2090:2093   */\n      0x80\n        /* \"#utility.yul\":2086:2088   */\n      dup4\n        /* \"#utility.yul\":2082:2094   */\n      add\n        /* \"#utility.yul\":2069:2095   */\n      calldataload\n        /* \"#utility.yul\":2120:2122   */\n      dup3\n        /* \"#utility.yul\":2110:2118   */\n      dup2\n        /* \"#utility.yul\":2107:2123   */\n      gt\n        /* \"#utility.yul\":2104:2140   */\n      iszero\n      tag_158\n      jumpi\n        /* \"#utility.yul\":2136:2137   */\n      0x00\n        /* \"#utility.yul\":2133:2134   */\n      dup1\n        /* \"#utility.yul\":2126:2138   */\n      revert\n        /* \"#utility.yul\":2104:2140   */\n    tag_158:\n        /* \"#utility.yul\":2173:2218   */\n      tag_159\n        /* \"#utility.yul\":2210:2217   */\n      dup9\n        /* \"#utility.yul\":2199:2207   */\n      dup3\n        /* \"#utility.yul\":2195:2197   */\n      dup7\n        /* \"#utility.yul\":2191:2208   */\n      add\n        /* \"#utility.yul\":2173:2218   */\n      tag_131\n      jump\t// in\n    tag_159:\n        /* \"#utility.yul\":2167:2170   */\n      0x80\n        /* \"#utility.yul\":2160:2165   */\n      dup4\n        /* \"#utility.yul\":2156:2171   */\n      add\n        /* \"#utility.yul\":2149:2219   */\n      mstore\n      pop\n        /* \"#utility.yul\":2265:2268   */\n      0xa0\n        /* \"#utility.yul\":2261:2263   */\n      dup4\n        /* \"#utility.yul\":2257:2269   */\n      add\n        /* \"#utility.yul\":2244:2270   */\n      calldataload\n        /* \"#utility.yul\":2295:2297   */\n      dup3\n        /* \"#utility.yul\":2285:2293   */\n      dup2\n        /* \"#utility.yul\":2282:2298   */\n      gt\n        /* \"#utility.yul\":2279:2315   */\n      iszero\n      tag_160\n      jumpi\n        /* \"#utility.yul\":2311:2312   */\n      0x00\n        /* \"#utility.yul\":2308:2309   */\n      dup1\n        /* \"#utility.yul\":2301:2313   */\n      revert\n        /* \"#utility.yul\":2279:2315   */\n    tag_160:\n        /* \"#utility.yul\":2348:2393   */\n      tag_161\n        /* \"#utility.yul\":2385:2392   */\n      dup9\n        /* \"#utility.yul\":2374:2382   */\n      dup3\n        /* \"#utility.yul\":2370:2372   */\n      dup7\n        /* \"#utility.yul\":2366:2383   */\n      add\n        /* \"#utility.yul\":2348:2393   */\n      tag_131\n      jump\t// in\n    tag_161:\n        /* \"#utility.yul\":2342:2345   */\n      0xa0\n        /* \"#utility.yul\":2335:2340   */\n      dup4\n        /* \"#utility.yul\":2331:2346   */\n      add\n        /* \"#utility.yul\":2324:2394   */\n      mstore\n      pop\n        /* \"#utility.yul\":2427:2463   */\n      tag_162\n        /* \"#utility.yul\":2458:2461   */\n      0xc0\n        /* \"#utility.yul\":2454:2456   */\n      dup5\n        /* \"#utility.yul\":2450:2462   */\n      add\n        /* \"#utility.yul\":2427:2463   */\n      tag_132\n      jump\t// in\n    tag_162:\n        /* \"#utility.yul\":2421:2424   */\n      0xc0\n        /* \"#utility.yul\":2410:2425   */\n      dup3\n      add\n        /* \"#utility.yul\":2403:2464   */\n      mstore\n        /* \"#utility.yul\":2414:2419   */\n      swap7\n        /* \"#utility.yul\":2535:2537   */\n      0x20\n        /* \"#utility.yul\":2520:2538   */\n      swap6\n      swap1\n      swap6\n      add\n        /* \"#utility.yul\":2507:2539   */\n      calldataload\n      swap6\n      pop\n      pop\n      pop\n      pop\n      pop\n        /* \"#utility.yul\":1275:2545   */\n      jump\t// out\n        /* \"#utility.yul\":2940:3188   */\n    tag_25:\n        /* \"#utility.yul\":3008:3014   */\n      0x00\n        /* \"#utility.yul\":3016:3022   */\n      dup1\n        /* \"#utility.yul\":3069:3071   */\n      0x40\n        /* \"#utility.yul\":3057:3066   */\n      dup4\n        /* \"#utility.yul\":3048:3055   */\n      dup6\n        /* \"#utility.yul\":3044:3067   */\n      sub\n        /* \"#utility.yul\":3040:3072   */\n      slt\n        /* \"#utility.yul\":3037:3089   */\n      iszero\n      tag_166\n      jumpi\n        /* \"#utility.yul\":3085:3086   */\n      0x00\n        /* \"#utility.yul\":3082:3083   */\n      dup1\n        /* \"#utility.yul\":3075:3087   */\n      revert\n        /* \"#utility.yul\":3037:3089   */\n    tag_166:\n      pop\n      pop\n        /* \"#utility.yul\":3108:3131   */\n      dup1\n      calldataload\n      swap3\n        /* \"#utility.yul\":3178:3180   */\n      0x20\n        /* \"#utility.yul\":3163:3181   */\n      swap1\n      swap2\n      add\n        /* \"#utility.yul\":3150:3182   */\n      calldataload\n      swap2\n      pop\n        /* \"#utility.yul\":2940:3188   */\n      jump\t// out\n        /* \"#utility.yul\":3385:3808   */\n    tag_133:\n        /* \"#utility.yul\":3427:3430   */\n      0x00\n        /* \"#utility.yul\":3465:3470   */\n      dup2\n        /* \"#utility.yul\":3459:3471   */\n      mload\n        /* \"#utility.yul\":3492:3498   */\n      dup1\n        /* \"#utility.yul\":3487:3490   */\n      dup5\n        /* \"#utility.yul\":3480:3499   */\n      mstore\n        /* \"#utility.yul\":3517:3518   */\n      0x00\n        /* \"#utility.yul\":3527:3689   */\n    tag_169:\n        /* \"#utility.yul\":3541:3547   */\n      dup2\n        /* \"#utility.yul\":3538:3539   */\n      dup2\n        /* \"#utility.yul\":3535:3548   */\n      lt\n        /* \"#utility.yul\":3527:3689   */\n      iszero\n      tag_171\n      jumpi\n        /* \"#utility.yul\":3603:3607   */\n      0x20\n        /* \"#utility.yul\":3659:3672   */\n      dup2\n      dup6\n      add\n        /* \"#utility.yul\":3655:3677   */\n      dup2\n      add\n        /* \"#utility.yul\":3649:3678   */\n      mload\n        /* \"#utility.yul\":3631:3642   */\n      dup7\n      dup4\n      add\n        /* \"#utility.yul\":3627:3647   */\n      dup3\n      add\n        /* \"#utility.yul\":3620:3679   */\n      mstore\n        /* \"#utility.yul\":3556:3568   */\n      add\n        /* \"#utility.yul\":3527:3689   */\n      jump(tag_169)\n    tag_171:\n        /* \"#utility.yul\":3531:3534   */\n      pop\n        /* \"#utility.yul\":3734:3735   */\n      0x00\n        /* \"#utility.yul\":3727:3731   */\n      0x20\n        /* \"#utility.yul\":3718:3724   */\n      dup3\n        /* \"#utility.yul\":3713:3716   */\n      dup7\n        /* \"#utility.yul\":3709:3725   */\n      add\n        /* \"#utility.yul\":3705:3732   */\n      add\n        /* \"#utility.yul\":3698:3736   */\n      mstore\n        /* \"#utility.yul\":3797:3801   */\n      0x20\n        /* \"#utility.yul\":3790:3792   */\n      0x1f\n        /* \"#utility.yul\":3786:3793   */\n      not\n        /* \"#utility.yul\":3781:3783   */\n      0x1f\n        /* \"#utility.yul\":3773:3779   */\n      dup4\n        /* \"#utility.yul\":3769:3784   */\n      add\n        /* \"#utility.yul\":3765:3794   */\n      and\n        /* \"#utility.yul\":3760:3763   */\n      dup6\n        /* \"#utility.yul\":3756:3795   */\n      add\n        /* \"#utility.yul\":3752:3802   */\n      add\n        /* \"#utility.yul\":3745:3802   */\n      swap2\n      pop\n      pop\n        /* \"#utility.yul\":3385:3808   */\n      swap3\n      swap2\n      pop\n      pop\n      jump\t// out\n        /* \"#utility.yul\":3813:3940   */\n    tag_56:\n        /* \"#utility.yul\":3874:3884   */\n      0x4e487b71\n        /* \"#utility.yul\":3869:3872   */\n      0xe0\n        /* \"#utility.yul\":3865:3885   */\n      shl\n        /* \"#utility.yul\":3862:3863   */\n      0x00\n        /* \"#utility.yul\":3855:3886   */\n      mstore\n        /* \"#utility.yul\":3905:3909   */\n      0x21\n        /* \"#utility.yul\":3902:3903   */\n      0x04\n        /* \"#utility.yul\":3895:3910   */\n      mstore\n        /* \"#utility.yul\":3929:3933   */\n      0x24\n        /* \"#utility.yul\":3926:3927   */\n      0x00\n        /* \"#utility.yul\":3919:3934   */\n      revert\n        /* \"#utility.yul\":3945:5168   */\n    tag_33:\n        /* \"#utility.yul\":4132:4134   */\n      0x20\n        /* \"#utility.yul\":4121:4130   */\n      dup2\n        /* \"#utility.yul\":4114:4135   */\n      mstore\n        /* \"#utility.yul\":4177:4183   */\n      dup2\n        /* \"#utility.yul\":4171:4184   */\n      mload\n        /* \"#utility.yul\":4166:4168   */\n      0x20\n        /* \"#utility.yul\":4155:4164   */\n      dup3\n        /* \"#utility.yul\":4151:4169   */\n      add\n        /* \"#utility.yul\":4144:4185   */\n      mstore\n        /* \"#utility.yul\":4239:4241   */\n      0x20\n        /* \"#utility.yul\":4231:4237   */\n      dup3\n        /* \"#utility.yul\":4227:4242   */\n      add\n        /* \"#utility.yul\":4221:4243   */\n      mload\n        /* \"#utility.yul\":4216:4218   */\n      0x40\n        /* \"#utility.yul\":4205:4214   */\n      dup3\n        /* \"#utility.yul\":4201:4219   */\n      add\n        /* \"#utility.yul\":4194:4244   */\n      mstore\n        /* \"#utility.yul\":4095:4099   */\n      0x00\n        /* \"#utility.yul\":4291:4293   */\n      0x40\n        /* \"#utility.yul\":4283:4289   */\n      dup4\n        /* \"#utility.yul\":4279:4294   */\n      add\n        /* \"#utility.yul\":4273:4295   */\n      mload\n        /* \"#utility.yul\":4331:4335   */\n      0xe0\n        /* \"#utility.yul\":4326:4328   */\n      0x60\n        /* \"#utility.yul\":4315:4324   */\n      dup5\n        /* \"#utility.yul\":4311:4329   */\n      add\n        /* \"#utility.yul\":4304:4336   */\n      mstore\n        /* \"#utility.yul\":4359:4411   */\n      tag_174\n        /* \"#utility.yul\":4406:4409   */\n      0x0100\n        /* \"#utility.yul\":4395:4404   */\n      dup5\n        /* \"#utility.yul\":4391:4410   */\n      add\n        /* \"#utility.yul\":4377:4389   */\n      dup3\n        /* \"#utility.yul\":4359:4411   */\n      tag_133\n      jump\t// in\n    tag_174:\n        /* \"#utility.yul\":4345:4411   */\n      swap1\n      pop\n        /* \"#utility.yul\":4466:4468   */\n      0x60\n        /* \"#utility.yul\":4458:4464   */\n      dup5\n        /* \"#utility.yul\":4454:4469   */\n      add\n        /* \"#utility.yul\":4448:4470   */\n      mload\n        /* \"#utility.yul\":4442:4445   */\n      0x80\n        /* \"#utility.yul\":4431:4440   */\n      dup5\n        /* \"#utility.yul\":4427:4446   */\n      add\n        /* \"#utility.yul\":4420:4471   */\n      mstore\n        /* \"#utility.yul\":4520:4523   */\n      0x80\n        /* \"#utility.yul\":4512:4518   */\n      dup5\n        /* \"#utility.yul\":4508:4524   */\n      add\n        /* \"#utility.yul\":4502:4525   */\n      mload\n        /* \"#utility.yul\":4548:4550   */\n      0x1f\n        /* \"#utility.yul\":4544:4551   */\n      not\n        /* \"#utility.yul\":4616:4618   */\n      dup1\n        /* \"#utility.yul\":4604:4613   */\n      dup6\n        /* \"#utility.yul\":4596:4602   */\n      dup5\n        /* \"#utility.yul\":4592:4614   */\n      sub\n        /* \"#utility.yul\":4588:4619   */\n      add\n        /* \"#utility.yul\":4582:4585   */\n      0xa0\n        /* \"#utility.yul\":4571:4580   */\n      dup7\n        /* \"#utility.yul\":4567:4586   */\n      add\n        /* \"#utility.yul\":4560:4620   */\n      mstore\n        /* \"#utility.yul\":4643:4684   */\n      tag_175\n        /* \"#utility.yul\":4677:4683   */\n      dup4\n        /* \"#utility.yul\":4661:4675   */\n      dup4\n        /* \"#utility.yul\":4643:4684   */\n      tag_133\n      jump\t// in\n    tag_175:\n        /* \"#utility.yul\":4629:4684   */\n      swap3\n      pop\n        /* \"#utility.yul\":4733:4736   */\n      0xa0\n        /* \"#utility.yul\":4725:4731   */\n      dup7\n        /* \"#utility.yul\":4721:4737   */\n      add\n        /* \"#utility.yul\":4715:4738   */\n      mload\n        /* \"#utility.yul\":4693:4738   */\n      swap2\n      pop\n        /* \"#utility.yul\":4803:4805   */\n      dup1\n        /* \"#utility.yul\":4791:4800   */\n      dup6\n        /* \"#utility.yul\":4783:4789   */\n      dup5\n        /* \"#utility.yul\":4779:4801   */\n      sub\n        /* \"#utility.yul\":4775:4806   */\n      add\n        /* \"#utility.yul\":4769:4772   */\n      0xc0\n        /* \"#utility.yul\":4758:4767   */\n      dup7\n        /* \"#utility.yul\":4754:4773   */\n      add\n        /* \"#utility.yul\":4747:4807   */\n      mstore\n      pop\n        /* \"#utility.yul\":4830:4871   */\n      tag_176\n        /* \"#utility.yul\":4864:4870   */\n      dup3\n        /* \"#utility.yul\":4848:4862   */\n      dup3\n        /* \"#utility.yul\":4830:4871   */\n      tag_133\n      jump\t// in\n    tag_176:\n        /* \"#utility.yul\":4816:4871   */\n      swap2\n      pop\n      pop\n        /* \"#utility.yul\":4920:4923   */\n      0xc0\n        /* \"#utility.yul\":4912:4918   */\n      dup5\n        /* \"#utility.yul\":4908:4924   */\n      add\n        /* \"#utility.yul\":4902:4925   */\n      mload\n        /* \"#utility.yul\":4963:4964   */\n      0x03\n        /* \"#utility.yul\":4947:4961   */\n      dup2\n        /* \"#utility.yul\":4944:4965   */\n      lt\n        /* \"#utility.yul\":4934:5086   */\n      tag_177\n      jumpi\n        /* \"#utility.yul\":5008:5018   */\n      0x4e487b71\n        /* \"#utility.yul\":5003:5006   */\n      0xe0\n        /* \"#utility.yul\":4999:5019   */\n      shl\n        /* \"#utility.yul\":4996:4997   */\n      0x00\n        /* \"#utility.yul\":4989:5020   */\n      mstore\n        /* \"#utility.yul\":5043:5047   */\n      0x21\n        /* \"#utility.yul\":5040:5041   */\n      0x04\n        /* \"#utility.yul\":5033:5048   */\n      mstore\n        /* \"#utility.yul\":5071:5075   */\n      0x24\n        /* \"#utility.yul\":5068:5069   */\n      0x00\n        /* \"#utility.yul\":5061:5076   */\n      revert\n        /* \"#utility.yul\":4934:5086   */\n    tag_177:\n        /* \"#utility.yul\":5117:5121   */\n      0xe0\n        /* \"#utility.yul\":5102:5122   */\n      swap4\n      swap1\n      swap4\n      add\n        /* \"#utility.yul\":5095:5139   */\n      swap3\n      swap1\n      swap3\n      mstore\n      pop\n        /* \"#utility.yul\":5156:5162   */\n      swap2\n        /* \"#utility.yul\":3945:5168   */\n      swap1\n      pop\n      jump\t// out\n        /* \"#utility.yul\":5173:5459   */\n    tag_36:\n        /* \"#utility.yul\":5232:5238   */\n      0x00\n        /* \"#utility.yul\":5285:5287   */\n      0x20\n        /* \"#utility.yul\":5273:5282   */\n      dup3\n        /* \"#utility.yul\":5264:5271   */\n      dup5\n        /* \"#utility.yul\":5260:5283   */\n      sub\n        /* \"#utility.yul\":5256:5288   */\n      slt\n        /* \"#utility.yul\":5253:5305   */\n      iszero\n      tag_179\n      jumpi\n        /* \"#utility.yul\":5301:5302   */\n      0x00\n        /* \"#utility.yul\":5298:5299   */\n      dup1\n        /* \"#utility.yul\":5291:5303   */\n      revert\n        /* \"#utility.yul\":5253:5305   */\n    tag_179:\n        /* \"#utility.yul\":5327:5350   */\n      dup2\n      calldataload\n      sub(shl(0xa0, 0x01), 0x01)\n        /* \"#utility.yul\":5379:5410   */\n      dup2\n      and\n        /* \"#utility.yul\":5369:5411   */\n      dup2\n      eq\n        /* \"#utility.yul\":5359:5429   */\n      tag_180\n      jumpi\n        /* \"#utility.yul\":5425:5426   */\n      0x00\n        /* \"#utility.yul\":5422:5423   */\n      dup1\n        /* \"#utility.yul\":5415:5427   */\n      revert\n        /* \"#utility.yul\":5359:5429   */\n    tag_180:\n        /* \"#utility.yul\":5448:5453   */\n      swap4\n        /* \"#utility.yul\":5173:5459   */\n      swap3\n      pop\n      pop\n      pop\n      jump\t// out\n        /* \"#utility.yul\":5464:5644   */\n    tag_40:\n        /* \"#utility.yul\":5523:5529   */\n      0x00\n        /* \"#utility.yul\":5576:5578   */\n      0x20\n        /* \"#utility.yul\":5564:5573   */\n      dup3\n        /* \"#utility.yul\":5555:5562   */\n      dup5\n        /* \"#utility.yul\":5551:5574   */\n      sub\n        /* \"#utility.yul\":5547:5579   */\n      slt\n        /* \"#utility.yul\":5544:5596   */\n      iszero\n      tag_182\n      jumpi\n        /* \"#utility.yul\":5592:5593   */\n      0x00\n        /* \"#utility.yul\":5589:5590   */\n      dup1\n        /* \"#utility.yul\":5582:5594   */\n      revert\n        /* \"#utility.yul\":5544:5596   */\n    tag_182:\n      pop\n        /* \"#utility.yul\":5615:5638   */\n      calldataload\n      swap2\n        /* \"#utility.yul\":5464:5644   */\n      swap1\n      pop\n      jump\t// out\n        /* \"#utility.yul\":5649:6056   */\n    tag_46:\n        /* \"#utility.yul\":5851:5853   */\n      0x20\n        /* \"#utility.yul\":5833:5854   */\n      dup1\n      dup3\n      mstore\n        /* \"#utility.yul\":5890:5892   */\n      0x2b\n        /* \"#utility.yul\":5870:5888   */\n      swap1\n      dup3\n      add\n        /* \"#utility.yul\":5863:5893   */\n      mstore\n        /* \"#utility.yul\":5929:5963   */\n      0x4461746162617365204c697374427573696e657373506f73743a205365637265\n        /* \"#utility.yul\":5924:5926   */\n      0x40\n        /* \"#utility.yul\":5909:5927   */\n      dup3\n      add\n        /* \"#utility.yul\":5902:5964   */\n      mstore\n      shl(0xa9, 0x3a1035b2bc9032b93937b9)\n        /* \"#utility.yul\":5995:5997   */\n      0x60\n        /* \"#utility.yul\":5980:5998   */\n      dup3\n      add\n        /* \"#utility.yul\":5973:6014   */\n      mstore\n        /* \"#utility.yul\":6046:6049   */\n      0x80\n        /* \"#utility.yul\":6031:6050   */\n      add\n      swap1\n        /* \"#utility.yul\":5649:6056   */\n      jump\t// out\n        /* \"#utility.yul\":6061:6293   */\n    tag_49:\n        /* \"#utility.yul\":6100:6103   */\n      0x00\n        /* \"#utility.yul\":6121:6138   */\n      0x01\n      dup3\n      add\n        /* \"#utility.yul\":6118:6258   */\n      tag_185\n      jumpi\n        /* \"#utility.yul\":6180:6190   */\n      0x4e487b71\n        /* \"#utility.yul\":6175:6178   */\n      0xe0\n        /* \"#utility.yul\":6171:6191   */\n      shl\n        /* \"#utility.yul\":6168:6169   */\n      0x00\n        /* \"#utility.yul\":6161:6192   */\n      mstore\n        /* \"#utility.yul\":6215:6219   */\n      0x11\n        /* \"#utility.yul\":6212:6213   */\n      0x04\n        /* \"#utility.yul\":6205:6220   */\n      mstore\n        /* \"#utility.yul\":6243:6247   */\n      0x24\n        /* \"#utility.yul\":6240:6241   */\n      0x00\n        /* \"#utility.yul\":6233:6248   */\n      revert\n        /* \"#utility.yul\":6118:6258   */\n    tag_185:\n      pop\n        /* \"#utility.yul\":6285:6286   */\n      0x01\n        /* \"#utility.yul\":6274:6287   */\n      add\n      swap1\n        /* \"#utility.yul\":6061:6293   */\n      jump\t// out\n        /* \"#utility.yul\":6298:6678   */\n    tag_90:\n        /* \"#utility.yul\":6377:6378   */\n      0x01\n        /* \"#utility.yul\":6373:6385   */\n      dup2\n      dup2\n      shr\n      swap1\n        /* \"#utility.yul\":6420:6432   */\n      dup3\n      and\n      dup1\n        /* \"#utility.yul\":6441:6502   */\n      tag_187\n      jumpi\n        /* \"#utility.yul\":6495:6499   */\n      0x7f\n        /* \"#utility.yul\":6487:6493   */\n      dup3\n        /* \"#utility.yul\":6483:6500   */\n      and\n        /* \"#utility.yul\":6473:6500   */\n      swap2\n      pop\n        /* \"#utility.yul\":6441:6502   */\n    tag_187:\n        /* \"#utility.yul\":6548:6550   */\n      0x20\n        /* \"#utility.yul\":6540:6546   */\n      dup3\n        /* \"#utility.yul\":6537:6551   */\n      lt\n        /* \"#utility.yul\":6517:6535   */\n      dup2\n        /* \"#utility.yul\":6514:6552   */\n      sub\n        /* \"#utility.yul\":6511:6672   */\n      tag_120\n      jumpi\n        /* \"#utility.yul\":6594:6604   */\n      0x4e487b71\n        /* \"#utility.yul\":6589:6592   */\n      0xe0\n        /* \"#utility.yul\":6585:6605   */\n      shl\n        /* \"#utility.yul\":6582:6583   */\n      0x00\n        /* \"#utility.yul\":6575:6606   */\n      mstore\n        /* \"#utility.yul\":6629:6633   */\n      0x22\n        /* \"#utility.yul\":6626:6627   */\n      0x04\n        /* \"#utility.yul\":6619:6634   */\n      mstore\n        /* \"#utility.yul\":6657:6661   */\n      0x24\n        /* \"#utility.yul\":6654:6655   */\n      0x00\n        /* \"#utility.yul\":6647:6662   */\n      revert\n        /* \"#utility.yul\":6809:7354   */\n    tag_135:\n        /* \"#utility.yul\":6911:6913   */\n      0x1f\n        /* \"#utility.yul\":6906:6909   */\n      dup3\n        /* \"#utility.yul\":6903:6914   */\n      gt\n        /* \"#utility.yul\":6900:7348   */\n      iszero\n      tag_191\n      jumpi\n        /* \"#utility.yul\":6947:6948   */\n      0x00\n        /* \"#utility.yul\":6972:6977   */\n      dup2\n        /* \"#utility.yul\":6968:6970   */\n      dup2\n        /* \"#utility.yul\":6961:6978   */\n      mstore\n        /* \"#utility.yul\":7017:7021   */\n      0x20\n        /* \"#utility.yul\":7013:7015   */\n      dup2\n        /* \"#utility.yul\":7003:7022   */\n      keccak256\n        /* \"#utility.yul\":7087:7089   */\n      0x1f\n        /* \"#utility.yul\":7075:7085   */\n      dup6\n        /* \"#utility.yul\":7071:7090   */\n      add\n        /* \"#utility.yul\":7068:7069   */\n      0x05\n        /* \"#utility.yul\":7064:7091   */\n      shr\n        /* \"#utility.yul\":7058:7062   */\n      dup2\n        /* \"#utility.yul\":7054:7092   */\n      add\n        /* \"#utility.yul\":7123:7127   */\n      0x20\n        /* \"#utility.yul\":7111:7121   */\n      dup7\n        /* \"#utility.yul\":7108:7128   */\n      lt\n        /* \"#utility.yul\":7105:7152   */\n      iszero\n      tag_192\n      jumpi\n      pop\n        /* \"#utility.yul\":7146:7150   */\n      dup1\n        /* \"#utility.yul\":7105:7152   */\n    tag_192:\n        /* \"#utility.yul\":7201:7203   */\n      0x1f\n        /* \"#utility.yul\":7196:7199   */\n      dup6\n        /* \"#utility.yul\":7192:7204   */\n      add\n        /* \"#utility.yul\":7189:7190   */\n      0x05\n        /* \"#utility.yul\":7185:7205   */\n      shr\n        /* \"#utility.yul\":7179:7183   */\n      dup3\n        /* \"#utility.yul\":7175:7206   */\n      add\n        /* \"#utility.yul\":7165:7206   */\n      swap2\n      pop\n        /* \"#utility.yul\":7256:7338   */\n    tag_193:\n        /* \"#utility.yul\":7274:7276   */\n      dup2\n        /* \"#utility.yul\":7267:7272   */\n      dup2\n        /* \"#utility.yul\":7264:7277   */\n      lt\n        /* \"#utility.yul\":7256:7338   */\n      iszero\n      tag_195\n      jumpi\n        /* \"#utility.yul\":7319:7336   */\n      dup3\n      dup2\n      sstore\n        /* \"#utility.yul\":7300:7301   */\n      0x01\n        /* \"#utility.yul\":7289:7302   */\n      add\n        /* \"#utility.yul\":7256:7338   */\n      jump(tag_193)\n    tag_195:\n        /* \"#utility.yul\":7260:7263   */\n      pop\n      pop\n      pop\n        /* \"#utility.yul\":6900:7348   */\n    tag_191:\n        /* \"#utility.yul\":6809:7354   */\n      pop\n      pop\n      pop\n      jump\t// out\n        /* \"#utility.yul\":7530:8882   */\n    tag_51:\n        /* \"#utility.yul\":7656:7659   */\n      dup2\n        /* \"#utility.yul\":7650:7660   */\n      mload\n        /* \"#utility.yul\":7683:7701   */\n      0xffffffffffffffff\n        /* \"#utility.yul\":7675:7681   */\n      dup2\n        /* \"#utility.yul\":7672:7702   */\n      gt\n        /* \"#utility.yul\":7669:7725   */\n      iszero\n      tag_199\n      jumpi\n        /* \"#utility.yul\":7705:7723   */\n      tag_199\n      tag_129\n      jump\t// in\n    tag_199:\n        /* \"#utility.yul\":7734:7831   */\n      tag_200\n        /* \"#utility.yul\":7824:7830   */\n      dup2\n        /* \"#utility.yul\":7784:7822   */\n      tag_201\n        /* \"#utility.yul\":7816:7820   */\n      dup5\n        /* \"#utility.yul\":7810:7821   */\n      sload\n        /* \"#utility.yul\":7784:7822   */\n      tag_90\n      jump\t// in\n    tag_201:\n        /* \"#utility.yul\":7778:7782   */\n      dup5\n        /* \"#utility.yul\":7734:7831   */\n      tag_135\n      jump\t// in\n    tag_200:\n        /* \"#utility.yul\":7886:7890   */\n      0x20\n      dup1\n        /* \"#utility.yul\":7950:7952   */\n      0x1f\n        /* \"#utility.yul\":7939:7953   */\n      dup4\n      gt\n        /* \"#utility.yul\":7967:7968   */\n      0x01\n        /* \"#utility.yul\":7962:8625   */\n      dup2\n      eq\n      tag_203\n      jumpi\n        /* \"#utility.yul\":8669:8670   */\n      0x00\n        /* \"#utility.yul\":8686:8692   */\n      dup5\n        /* \"#utility.yul\":8683:8772   */\n      iszero\n      tag_204\n      jumpi\n      pop\n        /* \"#utility.yul\":8738:8757   */\n      dup6\n      dup4\n      add\n        /* \"#utility.yul\":8732:8758   */\n      mload\n        /* \"#utility.yul\":8683:8772   */\n    tag_204:\n      not(0x00)\n        /* \"#utility.yul\":7487:7488   */\n      0x03\n        /* \"#utility.yul\":7483:7494   */\n      dup7\n      swap1\n      shl\n        /* \"#utility.yul\":7479:7503   */\n      shr\n        /* \"#utility.yul\":7475:7504   */\n      not\n        /* \"#utility.yul\":7465:7505   */\n      and\n        /* \"#utility.yul\":7511:7512   */\n      0x01\n        /* \"#utility.yul\":7507:7518   */\n      dup6\n      swap1\n      shl\n        /* \"#utility.yul\":7462:7519   */\n      or\n        /* \"#utility.yul\":8785:8866   */\n      dup6\n      sstore\n        /* \"#utility.yul\":7932:8876   */\n      jump(tag_195)\n        /* \"#utility.yul\":7962:8625   */\n    tag_203:\n        /* \"#utility.yul\":6756:6757   */\n      0x00\n        /* \"#utility.yul\":6749:6763   */\n      dup6\n      dup2\n      mstore\n        /* \"#utility.yul\":6793:6797   */\n      0x20\n        /* \"#utility.yul\":6780:6798   */\n      dup2\n      keccak256\n      not(0x1f)\n        /* \"#utility.yul\":7998:8018   */\n      dup7\n      and\n      swap2\n        /* \"#utility.yul\":8116:8352   */\n    tag_207:\n        /* \"#utility.yul\":8130:8137   */\n      dup3\n        /* \"#utility.yul\":8127:8128   */\n      dup2\n        /* \"#utility.yul\":8124:8138   */\n      lt\n        /* \"#utility.yul\":8116:8352   */\n      iszero\n      tag_209\n      jumpi\n        /* \"#utility.yul\":8219:8238   */\n      dup9\n      dup7\n      add\n        /* \"#utility.yul\":8213:8239   */\n      mload\n        /* \"#utility.yul\":8198:8240   */\n      dup3\n      sstore\n        /* \"#utility.yul\":8311:8338   */\n      swap5\n      dup5\n      add\n      swap5\n        /* \"#utility.yul\":8279:8280   */\n      0x01\n        /* \"#utility.yul\":8267:8281   */\n      swap1\n      swap2\n      add\n      swap1\n        /* \"#utility.yul\":8146:8165   */\n      dup5\n      add\n        /* \"#utility.yul\":8116:8352   */\n      jump(tag_207)\n    tag_209:\n        /* \"#utility.yul\":8120:8123   */\n      pop\n        /* \"#utility.yul\":8380:8386   */\n      dup6\n        /* \"#utility.yul\":8371:8378   */\n      dup3\n        /* \"#utility.yul\":8368:8387   */\n      lt\n        /* \"#utility.yul\":8365:8566   */\n      iszero\n      tag_210\n      jumpi\n        /* \"#utility.yul\":8441:8460   */\n      dup8\n      dup6\n      add\n        /* \"#utility.yul\":8435:8461   */\n      mload\n      not(0x00)\n        /* \"#utility.yul\":8524:8525   */\n      0x03\n        /* \"#utility.yul\":8520:8534   */\n      dup9\n      swap1\n      shl\n        /* \"#utility.yul\":8536:8539   */\n      0xf8\n        /* \"#utility.yul\":8516:8540   */\n      and\n        /* \"#utility.yul\":8512:8549   */\n      shr\n        /* \"#utility.yul\":8508:8550   */\n      not\n        /* \"#utility.yul\":8493:8551   */\n      and\n        /* \"#utility.yul\":8478:8552   */\n      dup2\n      sstore\n        /* \"#utility.yul\":8365:8566   */\n    tag_210:\n      pop\n      pop\n      pop\n      pop\n      pop\n        /* \"#utility.yul\":8612:8613   */\n      0x01\n        /* \"#utility.yul\":8596:8610   */\n      swap1\n      dup2\n      shl\n        /* \"#utility.yul\":8592:8614   */\n      add\n        /* \"#utility.yul\":8579:8615   */\n      swap1\n      sstore\n      pop\n        /* \"#utility.yul\":7530:8882   */\n      jump\t// out\n        /* \"#utility.yul\":8887:9291   */\n    tag_70:\n        /* \"#utility.yul\":9089:9091   */\n      0x20\n        /* \"#utility.yul\":9071:9092   */\n      dup1\n      dup3\n      mstore\n        /* \"#utility.yul\":9128:9130   */\n      0x28\n        /* \"#utility.yul\":9108:9126   */\n      swap1\n      dup3\n      add\n        /* \"#utility.yul\":9101:9131   */\n      mstore\n        /* \"#utility.yul\":9167:9201   */\n      0x4461746162617365204c697374427573696e657373506f73743a20496e76616c\n        /* \"#utility.yul\":9162:9164   */\n      0x40\n        /* \"#utility.yul\":9147:9165   */\n      dup3\n      add\n        /* \"#utility.yul\":9140:9202   */\n      mstore\n      shl(0xc3, 0x0d2c840d2dcc8caf)\n        /* \"#utility.yul\":9233:9235   */\n      0x60\n        /* \"#utility.yul\":9218:9236   */\n      dup3\n      add\n        /* \"#utility.yul\":9211:9249   */\n      mstore\n        /* \"#utility.yul\":9281:9284   */\n      0x80\n        /* \"#utility.yul\":9266:9285   */\n      add\n      swap1\n        /* \"#utility.yul\":8887:9291   */\n      jump\t// out\n    stop\n    data_98ee57057fe0a523e70b51608fd55a37ff53d47c3b8dac495a5f45d45157392f 8e1604a838d0f1a9b2cda14a099e4ceb08e966cc6e05e8296f67b02d61a79f09\n\n    auxdata: 0xa2646970667358221220a92c9cff6632060aba602eeb9c4f25ec3a31a4851f6028d620f1e136f8ee388f64736f6c63430008100033\n}\n",
				"bytecode": {
					"linkReferences": {},
					"object": "6080604052600060025534801561001557600080fd5b50600080546001600160a01b03191633179055610d9f806100376000396000f3fe608060405234801561001057600080fd5b506004361061007d5760003560e01c8063b615c00a1161005b578063b615c00a146100cd578063c78a6741146100f0578063f2fde38b14610110578063fd82e9dd1461012357600080fd5b80637f5b959f1461008257806383197ef0146100a85780638da5cb5b146100b2575b600080fd5b6100956100903660046108ec565b610136565b6040519081526020015b60405180910390f35b6100b0610263565b005b6000546040516001600160a01b03909116815260200161009f565b6100e06100db3660046109d8565b61026e565b604051901515815260200161009f565b6101036100fe3660046109d8565b6103bc565b60405161009f9190610a56565b6100b061011e366004610b03565b61064f565b610095610131366004610b33565b6106c8565b600081600080516020610d4a833981519152811461016f5760405162461bcd60e51b815260040161016690610b4c565b60405180910390fd5b6002805490600061017f83610b97565b90915550506002805460208087018281526000928352600191829052604092839020885181559051918101919091559086015186928201906101c19082610c41565b5060608201516003820155608082015160048201906101e09082610c41565b5060a082015160058201906101f59082610c41565b5060c082015160068201805460ff1916600183600281111561021957610219610a40565b02179055509050507fdefa5e8096305949c2310b579044e1a2c202d439c0d0ed509f4c025f622cb881846040516102509190610a56565b60405180910390a1505060025492915050565b61026b610704565b30ff5b600081600080516020610d4a833981519152811461029e5760405162461bcd60e51b815260040161016690610b4c565b83806001111580156102b257506002548111155b6102ce5760405162461bcd60e51b815260040161016690610d01565b6040805160e0810182526000808252602080830182815284518083018652838152848601908152606085018490528551808401875284815260808601528551808401875284815260a0860152600260c086018190528b85526001938490529590932084518155905191810191909155905191928392908201906103519082610c41565b5060608201516003820155608082015160048201906103709082610c41565b5060a082015160058201906103859082610c41565b5060c082015160068201805460ff191660018360028111156103a9576103a9610a40565b0217905550600198975050505050505050565b6103c46107bf565b81600080516020610d4a83398151915281146103f25760405162461bcd60e51b815260040161016690610b4c565b838060011115801561040657506002548111155b6104225760405162461bcd60e51b815260040161016690610d01565b600160008681526020019081526020016000206040518060e0016040529081600082015481526020016001820154815260200160028201805461046490610bbe565b80601f016020809104026020016040519081016040528092919081815260200182805461049090610bbe565b80156104dd5780601f106104b2576101008083540402835291602001916104dd565b820191906000526020600020905b8154815290600101906020018083116104c057829003601f168201915b505050505081526020016003820154815260200160048201805461050090610bbe565b80601f016020809104026020016040519081016040528092919081815260200182805461052c90610bbe565b80156105795780601f1061054e57610100808354040283529160200191610579565b820191906000526020600020905b81548152906001019060200180831161055c57829003601f168201915b5050505050815260200160058201805461059290610bbe565b80601f01602080910402602001604051908101604052809291908181526020018280546105be90610bbe565b801561060b5780601f106105e05761010080835404028352916020019161060b565b820191906000526020600020905b8154815290600101906020018083116105ee57829003601f168201915b5050509183525050600682015460209091019060ff16600281111561063257610632610a40565b600281111561064357610643610a40565b90525095945050505050565b610657610704565b6001600160a01b0381166106bc5760405162461bcd60e51b815260206004820152602660248201527f4f776e61626c653a206e6577206f776e657220697320746865207a65726f206160448201526564647265737360d01b6064820152608401610166565b6106c58161076f565b50565b600081600080516020610d4a83398151915281146106f85760405162461bcd60e51b815260040161016690610b4c565b60025491505b50919050565b336107176000546001600160a01b031690565b6001600160a01b03161461076d5760405162461bcd60e51b815260206004820181905260248201527f4f776e61626c653a2063616c6c6572206973206e6f7420746865206f776e65726044820152606401610166565b565b600080546001600160a01b038381166001600160a01b0319831681178455604051919092169283917f8be0079c531659141344cd1fd0a4f28419497f9722a3daafe3b4186f6b6457e09190a35050565b6040518060e001604052806000815260200160008152602001606081526020016000815260200160608152602001606081526020016000600281111561080757610807610a40565b905290565b634e487b7160e01b600052604160045260246000fd5b60405160e0810167ffffffffffffffff811182821017156108455761084561080c565b60405290565b600082601f83011261085c57600080fd5b813567ffffffffffffffff808211156108775761087761080c565b604051601f8301601f19908116603f0116810190828211818310171561089f5761089f61080c565b816040528381528660208588010111156108b857600080fd5b836020870160208301376000602085830101528094505050505092915050565b8035600381106108e757600080fd5b919050565b600080604083850312156108ff57600080fd5b823567ffffffffffffffff8082111561091757600080fd5b9084019060e0828703121561092b57600080fd5b610933610822565b823581526020830135602082015260408301358281111561095357600080fd5b61095f8882860161084b565b6040830152506060830135606082015260808301358281111561098157600080fd5b61098d8882860161084b565b60808301525060a0830135828111156109a557600080fd5b6109b18882860161084b565b60a0830152506109c360c084016108d8565b60c08201529660209590950135955050505050565b600080604083850312156109eb57600080fd5b50508035926020909101359150565b6000815180845260005b81811015610a2057602081850181015186830182015201610a04565b506000602082860101526020601f19601f83011685010191505092915050565b634e487b7160e01b600052602160045260246000fd5b6020815281516020820152602082015160408201526000604083015160e06060840152610a876101008401826109fa565b9050606084015160808401526080840151601f19808584030160a0860152610aaf83836109fa565b925060a08601519150808584030160c086015250610acd82826109fa565b91505060c084015160038110610af357634e487b7160e01b600052602160045260246000fd5b60e0939093019290925250919050565b600060208284031215610b1557600080fd5b81356001600160a01b0381168114610b2c57600080fd5b9392505050565b600060208284031215610b4557600080fd5b5035919050565b6020808252602b908201527f4461746162617365204c697374427573696e657373506f73743a20536563726560408201526a3a1035b2bc9032b93937b960a91b606082015260800190565b600060018201610bb757634e487b7160e01b600052601160045260246000fd5b5060010190565b600181811c90821680610bd257607f821691505b6020821081036106fe57634e487b7160e01b600052602260045260246000fd5b601f821115610c3c57600081815260208120601f850160051c81016020861015610c195750805b601f850160051c820191505b81811015610c3857828155600101610c25565b5050505b505050565b815167ffffffffffffffff811115610c5b57610c5b61080c565b610c6f81610c698454610bbe565b84610bf2565b602080601f831160018114610ca45760008415610c8c5750858301515b600019600386901b1c1916600185901b178555610c38565b600085815260208120601f198616915b82811015610cd357888601518255948401946001909101908401610cb4565b5085821015610cf15787850151600019600388901b60f8161c191681555b5050505050600190811b01905550565b60208082526028908201527f4461746162617365204c697374427573696e657373506f73743a20496e76616c6040820152670d2c840d2dcc8caf60c31b60608201526080019056fe8e1604a838d0f1a9b2cda14a099e4ceb08e966cc6e05e8296f67b02d61a79f09a2646970667358221220a92c9cff6632060aba602eeb9c4f25ec3a31a4851f6028d620f1e136f8ee388f64736f6c63430008100033",
					"opcodes": "PUSH1 0x80 PUSH1 0x40 MSTORE PUSH1 0x0 PUSH1 0x2 SSTORE CALLVALUE DUP1 ISZERO PUSH2 0x15 JUMPI PUSH1 0x0 DUP1 REVERT JUMPDEST POP PUSH1 0x0 DUP1 SLOAD PUSH1 0x1 PUSH1 0x1 PUSH1 0xA0 SHL SUB NOT AND CALLER OR SWAP1 SSTORE PUSH2 0xD9F DUP1 PUSH2 0x37 PUSH1 0x0 CODECOPY PUSH1 0x0 RETURN INVALID PUSH1 0x80 PUSH1 0x40 MSTORE CALLVALUE DUP1 ISZERO PUSH2 0x10 JUMPI PUSH1 0x0 DUP1 REVERT JUMPDEST POP PUSH1 0x4 CALLDATASIZE LT PUSH2 0x7D JUMPI PUSH1 0x0 CALLDATALOAD PUSH1 0xE0 SHR DUP1 PUSH4 0xB615C00A GT PUSH2 0x5B JUMPI DUP1 PUSH4 0xB615C00A EQ PUSH2 0xCD JUMPI DUP1 PUSH4 0xC78A6741 EQ PUSH2 0xF0 JUMPI DUP1 PUSH4 0xF2FDE38B EQ PUSH2 0x110 JUMPI DUP1 PUSH4 0xFD82E9DD EQ PUSH2 0x123 JUMPI PUSH1 0x0 DUP1 REVERT JUMPDEST DUP1 PUSH4 0x7F5B959F EQ PUSH2 0x82 JUMPI DUP1 PUSH4 0x83197EF0 EQ PUSH2 0xA8 JUMPI DUP1 PUSH4 0x8DA5CB5B EQ PUSH2 0xB2 JUMPI JUMPDEST PUSH1 0x0 DUP1 REVERT JUMPDEST PUSH2 0x95 PUSH2 0x90 CALLDATASIZE PUSH1 0x4 PUSH2 0x8EC JUMP JUMPDEST PUSH2 0x136 JUMP JUMPDEST PUSH1 0x40 MLOAD SWAP1 DUP2 MSTORE PUSH1 0x20 ADD JUMPDEST PUSH1 0x40 MLOAD DUP1 SWAP2 SUB SWAP1 RETURN JUMPDEST PUSH2 0xB0 PUSH2 0x263 JUMP JUMPDEST STOP JUMPDEST PUSH1 0x0 SLOAD PUSH1 0x40 MLOAD PUSH1 0x1 PUSH1 0x1 PUSH1 0xA0 SHL SUB SWAP1 SWAP2 AND DUP2 MSTORE PUSH1 0x20 ADD PUSH2 0x9F JUMP JUMPDEST PUSH2 0xE0 PUSH2 0xDB CALLDATASIZE PUSH1 0x4 PUSH2 0x9D8 JUMP JUMPDEST PUSH2 0x26E JUMP JUMPDEST PUSH1 0x40 MLOAD SWAP1 ISZERO ISZERO DUP2 MSTORE PUSH1 0x20 ADD PUSH2 0x9F JUMP JUMPDEST PUSH2 0x103 PUSH2 0xFE CALLDATASIZE PUSH1 0x4 PUSH2 0x9D8 JUMP JUMPDEST PUSH2 0x3BC JUMP JUMPDEST PUSH1 0x40 MLOAD PUSH2 0x9F SWAP2 SWAP1 PUSH2 0xA56 JUMP JUMPDEST PUSH2 0xB0 PUSH2 0x11E CALLDATASIZE PUSH1 0x4 PUSH2 0xB03 JUMP JUMPDEST PUSH2 0x64F JUMP JUMPDEST PUSH2 0x95 PUSH2 0x131 CALLDATASIZE PUSH1 0x4 PUSH2 0xB33 JUMP JUMPDEST PUSH2 0x6C8 JUMP JUMPDEST PUSH1 0x0 DUP2 PUSH1 0x0 DUP1 MLOAD PUSH1 0x20 PUSH2 0xD4A DUP4 CODECOPY DUP2 MLOAD SWAP2 MSTORE DUP2 EQ PUSH2 0x16F JUMPI PUSH1 0x40 MLOAD PUSH3 0x461BCD PUSH1 0xE5 SHL DUP2 MSTORE PUSH1 0x4 ADD PUSH2 0x166 SWAP1 PUSH2 0xB4C JUMP JUMPDEST PUSH1 0x40 MLOAD DUP1 SWAP2 SUB SWAP1 REVERT JUMPDEST PUSH1 0x2 DUP1 SLOAD SWAP1 PUSH1 0x0 PUSH2 0x17F DUP4 PUSH2 0xB97 JUMP JUMPDEST SWAP1 SWAP2 SSTORE POP POP PUSH1 0x2 DUP1 SLOAD PUSH1 0x20 DUP1 DUP8 ADD DUP3 DUP2 MSTORE PUSH1 0x0 SWAP3 DUP4 MSTORE PUSH1 0x1 SWAP2 DUP3 SWAP1 MSTORE PUSH1 0x40 SWAP3 DUP4 SWAP1 KECCAK256 DUP9 MLOAD DUP2 SSTORE SWAP1 MLOAD SWAP2 DUP2 ADD SWAP2 SWAP1 SWAP2 SSTORE SWAP1 DUP7 ADD MLOAD DUP7 SWAP3 DUP3 ADD SWAP1 PUSH2 0x1C1 SWAP1 DUP3 PUSH2 0xC41 JUMP JUMPDEST POP PUSH1 0x60 DUP3 ADD MLOAD PUSH1 0x3 DUP3 ADD SSTORE PUSH1 0x80 DUP3 ADD MLOAD PUSH1 0x4 DUP3 ADD SWAP1 PUSH2 0x1E0 SWAP1 DUP3 PUSH2 0xC41 JUMP JUMPDEST POP PUSH1 0xA0 DUP3 ADD MLOAD PUSH1 0x5 DUP3 ADD SWAP1 PUSH2 0x1F5 SWAP1 DUP3 PUSH2 0xC41 JUMP JUMPDEST POP PUSH1 0xC0 DUP3 ADD MLOAD PUSH1 0x6 DUP3 ADD DUP1 SLOAD PUSH1 0xFF NOT AND PUSH1 0x1 DUP4 PUSH1 0x2 DUP2 GT ISZERO PUSH2 0x219 JUMPI PUSH2 0x219 PUSH2 0xA40 JUMP JUMPDEST MUL OR SWAP1 SSTORE POP SWAP1 POP POP PUSH32 0xDEFA5E8096305949C2310B579044E1A2C202D439C0D0ED509F4C025F622CB881 DUP5 PUSH1 0x40 MLOAD PUSH2 0x250 SWAP2 SWAP1 PUSH2 0xA56 JUMP JUMPDEST PUSH1 0x40 MLOAD DUP1 SWAP2 SUB SWAP1 LOG1 POP POP PUSH1 0x2 SLOAD SWAP3 SWAP2 POP POP JUMP JUMPDEST PUSH2 0x26B PUSH2 0x704 JUMP JUMPDEST ADDRESS SELFDESTRUCT JUMPDEST PUSH1 0x0 DUP2 PUSH1 0x0 DUP1 MLOAD PUSH1 0x20 PUSH2 0xD4A DUP4 CODECOPY DUP2 MLOAD SWAP2 MSTORE DUP2 EQ PUSH2 0x29E JUMPI PUSH1 0x40 MLOAD PUSH3 0x461BCD PUSH1 0xE5 SHL DUP2 MSTORE PUSH1 0x4 ADD PUSH2 0x166 SWAP1 PUSH2 0xB4C JUMP JUMPDEST DUP4 DUP1 PUSH1 0x1 GT ISZERO DUP1 ISZERO PUSH2 0x2B2 JUMPI POP PUSH1 0x2 SLOAD DUP2 GT ISZERO JUMPDEST PUSH2 0x2CE JUMPI PUSH1 0x40 MLOAD PUSH3 0x461BCD PUSH1 0xE5 SHL DUP2 MSTORE PUSH1 0x4 ADD PUSH2 0x166 SWAP1 PUSH2 0xD01 JUMP JUMPDEST PUSH1 0x40 DUP1 MLOAD PUSH1 0xE0 DUP2 ADD DUP3 MSTORE PUSH1 0x0 DUP1 DUP3 MSTORE PUSH1 0x20 DUP1 DUP4 ADD DUP3 DUP2 MSTORE DUP5 MLOAD DUP1 DUP4 ADD DUP7 MSTORE DUP4 DUP2 MSTORE DUP5 DUP7 ADD SWAP1 DUP2 MSTORE PUSH1 0x60 DUP6 ADD DUP5 SWAP1 MSTORE DUP6 MLOAD DUP1 DUP5 ADD DUP8 MSTORE DUP5 DUP2 MSTORE PUSH1 0x80 DUP7 ADD MSTORE DUP6 MLOAD DUP1 DUP5 ADD DUP8 MSTORE DUP5 DUP2 MSTORE PUSH1 0xA0 DUP7 ADD MSTORE PUSH1 0x2 PUSH1 0xC0 DUP7 ADD DUP2 SWAP1 MSTORE DUP12 DUP6 MSTORE PUSH1 0x1 SWAP4 DUP5 SWAP1 MSTORE SWAP6 SWAP1 SWAP4 KECCAK256 DUP5 MLOAD DUP2 SSTORE SWAP1 MLOAD SWAP2 DUP2 ADD SWAP2 SWAP1 SWAP2 SSTORE SWAP1 MLOAD SWAP2 SWAP3 DUP4 SWAP3 SWAP1 DUP3 ADD SWAP1 PUSH2 0x351 SWAP1 DUP3 PUSH2 0xC41 JUMP JUMPDEST POP PUSH1 0x60 DUP3 ADD MLOAD PUSH1 0x3 DUP3 ADD SSTORE PUSH1 0x80 DUP3 ADD MLOAD PUSH1 0x4 DUP3 ADD SWAP1 PUSH2 0x370 SWAP1 DUP3 PUSH2 0xC41 JUMP JUMPDEST POP PUSH1 0xA0 DUP3 ADD MLOAD PUSH1 0x5 DUP3 ADD SWAP1 PUSH2 0x385 SWAP1 DUP3 PUSH2 0xC41 JUMP JUMPDEST POP PUSH1 0xC0 DUP3 ADD MLOAD PUSH1 0x6 DUP3 ADD DUP1 SLOAD PUSH1 0xFF NOT AND PUSH1 0x1 DUP4 PUSH1 0x2 DUP2 GT ISZERO PUSH2 0x3A9 JUMPI PUSH2 0x3A9 PUSH2 0xA40 JUMP JUMPDEST MUL OR SWAP1 SSTORE POP PUSH1 0x1 SWAP9 SWAP8 POP POP POP POP POP POP POP POP JUMP JUMPDEST PUSH2 0x3C4 PUSH2 0x7BF JUMP JUMPDEST DUP2 PUSH1 0x0 DUP1 MLOAD PUSH1 0x20 PUSH2 0xD4A DUP4 CODECOPY DUP2 MLOAD SWAP2 MSTORE DUP2 EQ PUSH2 0x3F2 JUMPI PUSH1 0x40 MLOAD PUSH3 0x461BCD PUSH1 0xE5 SHL DUP2 MSTORE PUSH1 0x4 ADD PUSH2 0x166 SWAP1 PUSH2 0xB4C JUMP JUMPDEST DUP4 DUP1 PUSH1 0x1 GT ISZERO DUP1 ISZERO PUSH2 0x406 JUMPI POP PUSH1 0x2 SLOAD DUP2 GT ISZERO JUMPDEST PUSH2 0x422 JUMPI PUSH1 0x40 MLOAD PUSH3 0x461BCD PUSH1 0xE5 SHL DUP2 MSTORE PUSH1 0x4 ADD PUSH2 0x166 SWAP1 PUSH2 0xD01 JUMP JUMPDEST PUSH1 0x1 PUSH1 0x0 DUP7 DUP2 MSTORE PUSH1 0x20 ADD SWAP1 DUP2 MSTORE PUSH1 0x20 ADD PUSH1 0x0 KECCAK256 PUSH1 0x40 MLOAD DUP1 PUSH1 0xE0 ADD PUSH1 0x40 MSTORE SWAP1 DUP2 PUSH1 0x0 DUP3 ADD SLOAD DUP2 MSTORE PUSH1 0x20 ADD PUSH1 0x1 DUP3 ADD SLOAD DUP2 MSTORE PUSH1 0x20 ADD PUSH1 0x2 DUP3 ADD DUP1 SLOAD PUSH2 0x464 SWAP1 PUSH2 0xBBE JUMP JUMPDEST DUP1 PUSH1 0x1F ADD PUSH1 0x20 DUP1 SWAP2 DIV MUL PUSH1 0x20 ADD PUSH1 0x40 MLOAD SWAP1 DUP2 ADD PUSH1 0x40 MSTORE DUP1 SWAP3 SWAP2 SWAP1 DUP2 DUP2 MSTORE PUSH1 0x20 ADD DUP3 DUP1 SLOAD PUSH2 0x490 SWAP1 PUSH2 0xBBE JUMP JUMPDEST DUP1 ISZERO PUSH2 0x4DD JUMPI DUP1 PUSH1 0x1F LT PUSH2 0x4B2 JUMPI PUSH2 0x100 DUP1 DUP4 SLOAD DIV MUL DUP4 MSTORE SWAP2 PUSH1 0x20 ADD SWAP2 PUSH2 0x4DD JUMP JUMPDEST DUP3 ADD SWAP2 SWAP1 PUSH1 0x0 MSTORE PUSH1 0x20 PUSH1 0x0 KECCAK256 SWAP1 JUMPDEST DUP2 SLOAD DUP2 MSTORE SWAP1 PUSH1 0x1 ADD SWAP1 PUSH1 0x20 ADD DUP1 DUP4 GT PUSH2 0x4C0 JUMPI DUP3 SWAP1 SUB PUSH1 0x1F AND DUP3 ADD SWAP2 JUMPDEST POP POP POP POP POP DUP2 MSTORE PUSH1 0x20 ADD PUSH1 0x3 DUP3 ADD SLOAD DUP2 MSTORE PUSH1 0x20 ADD PUSH1 0x4 DUP3 ADD DUP1 SLOAD PUSH2 0x500 SWAP1 PUSH2 0xBBE JUMP JUMPDEST DUP1 PUSH1 0x1F ADD PUSH1 0x20 DUP1 SWAP2 DIV MUL PUSH1 0x20 ADD PUSH1 0x40 MLOAD SWAP1 DUP2 ADD PUSH1 0x40 MSTORE DUP1 SWAP3 SWAP2 SWAP1 DUP2 DUP2 MSTORE PUSH1 0x20 ADD DUP3 DUP1 SLOAD PUSH2 0x52C SWAP1 PUSH2 0xBBE JUMP JUMPDEST DUP1 ISZERO PUSH2 0x579 JUMPI DUP1 PUSH1 0x1F LT PUSH2 0x54E JUMPI PUSH2 0x100 DUP1 DUP4 SLOAD DIV MUL DUP4 MSTORE SWAP2 PUSH1 0x20 ADD SWAP2 PUSH2 0x579 JUMP JUMPDEST DUP3 ADD SWAP2 SWAP1 PUSH1 0x0 MSTORE PUSH1 0x20 PUSH1 0x0 KECCAK256 SWAP1 JUMPDEST DUP2 SLOAD DUP2 MSTORE SWAP1 PUSH1 0x1 ADD SWAP1 PUSH1 0x20 ADD DUP1 DUP4 GT PUSH2 0x55C JUMPI DUP3 SWAP1 SUB PUSH1 0x1F AND DUP3 ADD SWAP2 JUMPDEST POP POP POP POP POP DUP2 MSTORE PUSH1 0x20 ADD PUSH1 0x5 DUP3 ADD DUP1 SLOAD PUSH2 0x592 SWAP1 PUSH2 0xBBE JUMP JUMPDEST DUP1 PUSH1 0x1F ADD PUSH1 0x20 DUP1 SWAP2 DIV MUL PUSH1 0x20 ADD PUSH1 0x40 MLOAD SWAP1 DUP2 ADD PUSH1 0x40 MSTORE DUP1 SWAP3 SWAP2 SWAP1 DUP2 DUP2 MSTORE PUSH1 0x20 ADD DUP3 DUP1 SLOAD PUSH2 0x5BE SWAP1 PUSH2 0xBBE JUMP JUMPDEST DUP1 ISZERO PUSH2 0x60B JUMPI DUP1 PUSH1 0x1F LT PUSH2 0x5E0 JUMPI PUSH2 0x100 DUP1 DUP4 SLOAD DIV MUL DUP4 MSTORE SWAP2 PUSH1 0x20 ADD SWAP2 PUSH2 0x60B JUMP JUMPDEST DUP3 ADD SWAP2 SWAP1 PUSH1 0x0 MSTORE PUSH1 0x20 PUSH1 0x0 KECCAK256 SWAP1 JUMPDEST DUP2 SLOAD DUP2 MSTORE SWAP1 PUSH1 0x1 ADD SWAP1 PUSH1 0x20 ADD DUP1 DUP4 GT PUSH2 0x5EE JUMPI DUP3 SWAP1 SUB PUSH1 0x1F AND DUP3 ADD SWAP2 JUMPDEST POP POP POP SWAP2 DUP4 MSTORE POP POP PUSH1 0x6 DUP3 ADD SLOAD PUSH1 0x20 SWAP1 SWAP2 ADD SWAP1 PUSH1 0xFF AND PUSH1 0x2 DUP2 GT ISZERO PUSH2 0x632 JUMPI PUSH2 0x632 PUSH2 0xA40 JUMP JUMPDEST PUSH1 0x2 DUP2 GT ISZERO PUSH2 0x643 JUMPI PUSH2 0x643 PUSH2 0xA40 JUMP JUMPDEST SWAP1 MSTORE POP SWAP6 SWAP5 POP POP POP POP POP JUMP JUMPDEST PUSH2 0x657 PUSH2 0x704 JUMP JUMPDEST PUSH1 0x1 PUSH1 0x1 PUSH1 0xA0 SHL SUB DUP2 AND PUSH2 0x6BC JUMPI PUSH1 0x40 MLOAD PUSH3 0x461BCD PUSH1 0xE5 SHL DUP2 MSTORE PUSH1 0x20 PUSH1 0x4 DUP3 ADD MSTORE PUSH1 0x26 PUSH1 0x24 DUP3 ADD MSTORE PUSH32 0x4F776E61626C653A206E6577206F776E657220697320746865207A65726F2061 PUSH1 0x44 DUP3 ADD MSTORE PUSH6 0x646472657373 PUSH1 0xD0 SHL PUSH1 0x64 DUP3 ADD MSTORE PUSH1 0x84 ADD PUSH2 0x166 JUMP JUMPDEST PUSH2 0x6C5 DUP2 PUSH2 0x76F JUMP JUMPDEST POP JUMP JUMPDEST PUSH1 0x0 DUP2 PUSH1 0x0 DUP1 MLOAD PUSH1 0x20 PUSH2 0xD4A DUP4 CODECOPY DUP2 MLOAD SWAP2 MSTORE DUP2 EQ PUSH2 0x6F8 JUMPI PUSH1 0x40 MLOAD PUSH3 0x461BCD PUSH1 0xE5 SHL DUP2 MSTORE PUSH1 0x4 ADD PUSH2 0x166 SWAP1 PUSH2 0xB4C JUMP JUMPDEST PUSH1 0x2 SLOAD SWAP2 POP JUMPDEST POP SWAP2 SWAP1 POP JUMP JUMPDEST CALLER PUSH2 0x717 PUSH1 0x0 SLOAD PUSH1 0x1 PUSH1 0x1 PUSH1 0xA0 SHL SUB AND SWAP1 JUMP JUMPDEST PUSH1 0x1 PUSH1 0x1 PUSH1 0xA0 SHL SUB AND EQ PUSH2 0x76D JUMPI PUSH1 0x40 MLOAD PUSH3 0x461BCD PUSH1 0xE5 SHL DUP2 MSTORE PUSH1 0x20 PUSH1 0x4 DUP3 ADD DUP2 SWAP1 MSTORE PUSH1 0x24 DUP3 ADD MSTORE PUSH32 0x4F776E61626C653A2063616C6C6572206973206E6F7420746865206F776E6572 PUSH1 0x44 DUP3 ADD MSTORE PUSH1 0x64 ADD PUSH2 0x166 JUMP JUMPDEST JUMP JUMPDEST PUSH1 0x0 DUP1 SLOAD PUSH1 0x1 PUSH1 0x1 PUSH1 0xA0 SHL SUB DUP4 DUP2 AND PUSH1 0x1 PUSH1 0x1 PUSH1 0xA0 SHL SUB NOT DUP4 AND DUP2 OR DUP5 SSTORE PUSH1 0x40 MLOAD SWAP2 SWAP1 SWAP3 AND SWAP3 DUP4 SWAP2 PUSH32 0x8BE0079C531659141344CD1FD0A4F28419497F9722A3DAAFE3B4186F6B6457E0 SWAP2 SWAP1 LOG3 POP POP JUMP JUMPDEST PUSH1 0x40 MLOAD DUP1 PUSH1 0xE0 ADD PUSH1 0x40 MSTORE DUP1 PUSH1 0x0 DUP2 MSTORE PUSH1 0x20 ADD PUSH1 0x0 DUP2 MSTORE PUSH1 0x20 ADD PUSH1 0x60 DUP2 MSTORE PUSH1 0x20 ADD PUSH1 0x0 DUP2 MSTORE PUSH1 0x20 ADD PUSH1 0x60 DUP2 MSTORE PUSH1 0x20 ADD PUSH1 0x60 DUP2 MSTORE PUSH1 0x20 ADD PUSH1 0x0 PUSH1 0x2 DUP2 GT ISZERO PUSH2 0x807 JUMPI PUSH2 0x807 PUSH2 0xA40 JUMP JUMPDEST SWAP1 MSTORE SWAP1 JUMP JUMPDEST PUSH4 0x4E487B71 PUSH1 0xE0 SHL PUSH1 0x0 MSTORE PUSH1 0x41 PUSH1 0x4 MSTORE PUSH1 0x24 PUSH1 0x0 REVERT JUMPDEST PUSH1 0x40 MLOAD PUSH1 0xE0 DUP2 ADD PUSH8 0xFFFFFFFFFFFFFFFF DUP2 GT DUP3 DUP3 LT OR ISZERO PUSH2 0x845 JUMPI PUSH2 0x845 PUSH2 0x80C JUMP JUMPDEST PUSH1 0x40 MSTORE SWAP1 JUMP JUMPDEST PUSH1 0x0 DUP3 PUSH1 0x1F DUP4 ADD SLT PUSH2 0x85C JUMPI PUSH1 0x0 DUP1 REVERT JUMPDEST DUP2 CALLDATALOAD PUSH8 0xFFFFFFFFFFFFFFFF DUP1 DUP3 GT ISZERO PUSH2 0x877 JUMPI PUSH2 0x877 PUSH2 0x80C JUMP JUMPDEST PUSH1 0x40 MLOAD PUSH1 0x1F DUP4 ADD PUSH1 0x1F NOT SWAP1 DUP2 AND PUSH1 0x3F ADD AND DUP2 ADD SWAP1 DUP3 DUP3 GT DUP2 DUP4 LT OR ISZERO PUSH2 0x89F JUMPI PUSH2 0x89F PUSH2 0x80C JUMP JUMPDEST DUP2 PUSH1 0x40 MSTORE DUP4 DUP2 MSTORE DUP7 PUSH1 0x20 DUP6 DUP9 ADD ADD GT ISZERO PUSH2 0x8B8 JUMPI PUSH1 0x0 DUP1 REVERT JUMPDEST DUP4 PUSH1 0x20 DUP8 ADD PUSH1 0x20 DUP4 ADD CALLDATACOPY PUSH1 0x0 PUSH1 0x20 DUP6 DUP4 ADD ADD MSTORE DUP1 SWAP5 POP POP POP POP POP SWAP3 SWAP2 POP POP JUMP JUMPDEST DUP1 CALLDATALOAD PUSH1 0x3 DUP2 LT PUSH2 0x8E7 JUMPI PUSH1 0x0 DUP1 REVERT JUMPDEST SWAP2 SWAP1 POP JUMP JUMPDEST PUSH1 0x0 DUP1 PUSH1 0x40 DUP4 DUP6 SUB SLT ISZERO PUSH2 0x8FF JUMPI PUSH1 0x0 DUP1 REVERT JUMPDEST DUP3 CALLDATALOAD PUSH8 0xFFFFFFFFFFFFFFFF DUP1 DUP3 GT ISZERO PUSH2 0x917 JUMPI PUSH1 0x0 DUP1 REVERT JUMPDEST SWAP1 DUP5 ADD SWAP1 PUSH1 0xE0 DUP3 DUP8 SUB SLT ISZERO PUSH2 0x92B JUMPI PUSH1 0x0 DUP1 REVERT JUMPDEST PUSH2 0x933 PUSH2 0x822 JUMP JUMPDEST DUP3 CALLDATALOAD DUP2 MSTORE PUSH1 0x20 DUP4 ADD CALLDATALOAD PUSH1 0x20 DUP3 ADD MSTORE PUSH1 0x40 DUP4 ADD CALLDATALOAD DUP3 DUP2 GT ISZERO PUSH2 0x953 JUMPI PUSH1 0x0 DUP1 REVERT JUMPDEST PUSH2 0x95F DUP9 DUP3 DUP7 ADD PUSH2 0x84B JUMP JUMPDEST PUSH1 0x40 DUP4 ADD MSTORE POP PUSH1 0x60 DUP4 ADD CALLDATALOAD PUSH1 0x60 DUP3 ADD MSTORE PUSH1 0x80 DUP4 ADD CALLDATALOAD DUP3 DUP2 GT ISZERO PUSH2 0x981 JUMPI PUSH1 0x0 DUP1 REVERT JUMPDEST PUSH2 0x98D DUP9 DUP3 DUP7 ADD PUSH2 0x84B JUMP JUMPDEST PUSH1 0x80 DUP4 ADD MSTORE POP PUSH1 0xA0 DUP4 ADD CALLDATALOAD DUP3 DUP2 GT ISZERO PUSH2 0x9A5 JUMPI PUSH1 0x0 DUP1 REVERT JUMPDEST PUSH2 0x9B1 DUP9 DUP3 DUP7 ADD PUSH2 0x84B JUMP JUMPDEST PUSH1 0xA0 DUP4 ADD MSTORE POP PUSH2 0x9C3 PUSH1 0xC0 DUP5 ADD PUSH2 0x8D8 JUMP JUMPDEST PUSH1 0xC0 DUP3 ADD MSTORE SWAP7 PUSH1 0x20 SWAP6 SWAP1 SWAP6 ADD CALLDATALOAD SWAP6 POP POP POP POP POP JUMP JUMPDEST PUSH1 0x0 DUP1 PUSH1 0x40 DUP4 DUP6 SUB SLT ISZERO PUSH2 0x9EB JUMPI PUSH1 0x0 DUP1 REVERT JUMPDEST POP POP DUP1 CALLDATALOAD SWAP3 PUSH1 0x20 SWAP1 SWAP2 ADD CALLDATALOAD SWAP2 POP JUMP JUMPDEST PUSH1 0x0 DUP2 MLOAD DUP1 DUP5 MSTORE PUSH1 0x0 JUMPDEST DUP2 DUP2 LT ISZERO PUSH2 0xA20 JUMPI PUSH1 0x20 DUP2 DUP6 ADD DUP2 ADD MLOAD DUP7 DUP4 ADD DUP3 ADD MSTORE ADD PUSH2 0xA04 JUMP JUMPDEST POP PUSH1 0x0 PUSH1 0x20 DUP3 DUP7 ADD ADD MSTORE PUSH1 0x20 PUSH1 0x1F NOT PUSH1 0x1F DUP4 ADD AND DUP6 ADD ADD SWAP2 POP POP SWAP3 SWAP2 POP POP JUMP JUMPDEST PUSH4 0x4E487B71 PUSH1 0xE0 SHL PUSH1 0x0 MSTORE PUSH1 0x21 PUSH1 0x4 MSTORE PUSH1 0x24 PUSH1 0x0 REVERT JUMPDEST PUSH1 0x20 DUP2 MSTORE DUP2 MLOAD PUSH1 0x20 DUP3 ADD MSTORE PUSH1 0x20 DUP3 ADD MLOAD PUSH1 0x40 DUP3 ADD MSTORE PUSH1 0x0 PUSH1 0x40 DUP4 ADD MLOAD PUSH1 0xE0 PUSH1 0x60 DUP5 ADD MSTORE PUSH2 0xA87 PUSH2 0x100 DUP5 ADD DUP3 PUSH2 0x9FA JUMP JUMPDEST SWAP1 POP PUSH1 0x60 DUP5 ADD MLOAD PUSH1 0x80 DUP5 ADD MSTORE PUSH1 0x80 DUP5 ADD MLOAD PUSH1 0x1F NOT DUP1 DUP6 DUP5 SUB ADD PUSH1 0xA0 DUP7 ADD MSTORE PUSH2 0xAAF DUP4 DUP4 PUSH2 0x9FA JUMP JUMPDEST SWAP3 POP PUSH1 0xA0 DUP7 ADD MLOAD SWAP2 POP DUP1 DUP6 DUP5 SUB ADD PUSH1 0xC0 DUP7 ADD MSTORE POP PUSH2 0xACD DUP3 DUP3 PUSH2 0x9FA JUMP JUMPDEST SWAP2 POP POP PUSH1 0xC0 DUP5 ADD MLOAD PUSH1 0x3 DUP2 LT PUSH2 0xAF3 JUMPI PUSH4 0x4E487B71 PUSH1 0xE0 SHL PUSH1 0x0 MSTORE PUSH1 0x21 PUSH1 0x4 MSTORE PUSH1 0x24 PUSH1 0x0 REVERT JUMPDEST PUSH1 0xE0 SWAP4 SWAP1 SWAP4 ADD SWAP3 SWAP1 SWAP3 MSTORE POP SWAP2 SWAP1 POP JUMP JUMPDEST PUSH1 0x0 PUSH1 0x20 DUP3 DUP5 SUB SLT ISZERO PUSH2 0xB15 JUMPI PUSH1 0x0 DUP1 REVERT JUMPDEST DUP2 CALLDATALOAD PUSH1 0x1 PUSH1 0x1 PUSH1 0xA0 SHL SUB DUP2 AND DUP2 EQ PUSH2 0xB2C JUMPI PUSH1 0x0 DUP1 REVERT JUMPDEST SWAP4 SWAP3 POP POP POP JUMP JUMPDEST PUSH1 0x0 PUSH1 0x20 DUP3 DUP5 SUB SLT ISZERO PUSH2 0xB45 JUMPI PUSH1 0x0 DUP1 REVERT JUMPDEST POP CALLDATALOAD SWAP2 SWAP1 POP JUMP JUMPDEST PUSH1 0x20 DUP1 DUP3 MSTORE PUSH1 0x2B SWAP1 DUP3 ADD MSTORE PUSH32 0x4461746162617365204C697374427573696E657373506F73743A205365637265 PUSH1 0x40 DUP3 ADD MSTORE PUSH11 0x3A1035B2BC9032B93937B9 PUSH1 0xA9 SHL PUSH1 0x60 DUP3 ADD MSTORE PUSH1 0x80 ADD SWAP1 JUMP JUMPDEST PUSH1 0x0 PUSH1 0x1 DUP3 ADD PUSH2 0xBB7 JUMPI PUSH4 0x4E487B71 PUSH1 0xE0 SHL PUSH1 0x0 MSTORE PUSH1 0x11 PUSH1 0x4 MSTORE PUSH1 0x24 PUSH1 0x0 REVERT JUMPDEST POP PUSH1 0x1 ADD SWAP1 JUMP JUMPDEST PUSH1 0x1 DUP2 DUP2 SHR SWAP1 DUP3 AND DUP1 PUSH2 0xBD2 JUMPI PUSH1 0x7F DUP3 AND SWAP2 POP JUMPDEST PUSH1 0x20 DUP3 LT DUP2 SUB PUSH2 0x6FE JUMPI PUSH4 0x4E487B71 PUSH1 0xE0 SHL PUSH1 0x0 MSTORE PUSH1 0x22 PUSH1 0x4 MSTORE PUSH1 0x24 PUSH1 0x0 REVERT JUMPDEST PUSH1 0x1F DUP3 GT ISZERO PUSH2 0xC3C JUMPI PUSH1 0x0 DUP2 DUP2 MSTORE PUSH1 0x20 DUP2 KECCAK256 PUSH1 0x1F DUP6 ADD PUSH1 0x5 SHR DUP2 ADD PUSH1 0x20 DUP7 LT ISZERO PUSH2 0xC19 JUMPI POP DUP1 JUMPDEST PUSH1 0x1F DUP6 ADD PUSH1 0x5 SHR DUP3 ADD SWAP2 POP JUMPDEST DUP2 DUP2 LT ISZERO PUSH2 0xC38 JUMPI DUP3 DUP2 SSTORE PUSH1 0x1 ADD PUSH2 0xC25 JUMP JUMPDEST POP POP POP JUMPDEST POP POP POP JUMP JUMPDEST DUP2 MLOAD PUSH8 0xFFFFFFFFFFFFFFFF DUP2 GT ISZERO PUSH2 0xC5B JUMPI PUSH2 0xC5B PUSH2 0x80C JUMP JUMPDEST PUSH2 0xC6F DUP2 PUSH2 0xC69 DUP5 SLOAD PUSH2 0xBBE JUMP JUMPDEST DUP5 PUSH2 0xBF2 JUMP JUMPDEST PUSH1 0x20 DUP1 PUSH1 0x1F DUP4 GT PUSH1 0x1 DUP2 EQ PUSH2 0xCA4 JUMPI PUSH1 0x0 DUP5 ISZERO PUSH2 0xC8C JUMPI POP DUP6 DUP4 ADD MLOAD JUMPDEST PUSH1 0x0 NOT PUSH1 0x3 DUP7 SWAP1 SHL SHR NOT AND PUSH1 0x1 DUP6 SWAP1 SHL OR DUP6 SSTORE PUSH2 0xC38 JUMP JUMPDEST PUSH1 0x0 DUP6 DUP2 MSTORE PUSH1 0x20 DUP2 KECCAK256 PUSH1 0x1F NOT DUP7 AND SWAP2 JUMPDEST DUP3 DUP2 LT ISZERO PUSH2 0xCD3 JUMPI DUP9 DUP7 ADD MLOAD DUP3 SSTORE SWAP5 DUP5 ADD SWAP5 PUSH1 0x1 SWAP1 SWAP2 ADD SWAP1 DUP5 ADD PUSH2 0xCB4 JUMP JUMPDEST POP DUP6 DUP3 LT ISZERO PUSH2 0xCF1 JUMPI DUP8 DUP6 ADD MLOAD PUSH1 0x0 NOT PUSH1 0x3 DUP9 SWAP1 SHL PUSH1 0xF8 AND SHR NOT AND DUP2 SSTORE JUMPDEST POP POP POP POP POP PUSH1 0x1 SWAP1 DUP2 SHL ADD SWAP1 SSTORE POP JUMP JUMPDEST PUSH1 0x20 DUP1 DUP3 MSTORE PUSH1 0x28 SWAP1 DUP3 ADD MSTORE PUSH32 0x4461746162617365204C697374427573696E657373506F73743A20496E76616C PUSH1 0x40 DUP3 ADD MSTORE PUSH8 0xD2C840D2DCC8CAF PUSH1 0xC3 SHL PUSH1 0x60 DUP3 ADD MSTORE PUSH1 0x80 ADD SWAP1 JUMP INVALID DUP15 AND DIV 0xA8 CODESIZE 0xD0 CALL 0xA9 0xB2 0xCD LOG1 0x4A MULMOD SWAP15 0x4C 0xEB ADDMOD 0xE9 PUSH7 0xCC6E05E8296F67 0xB0 0x2D PUSH2 0xA79F MULMOD LOG2 PUSH5 0x6970667358 0x22 SLT KECCAK256 0xA9 0x2C SWAP13 SELFDESTRUCT PUSH7 0x32060ABA602EEB SWAP13 0x4F 0x25 0xEC GASPRICE BALANCE LOG4 DUP6 0x1F PUSH1 0x28 0xD6 KECCAK256 CALL 0xE1 CALLDATASIZE 0xF8 0xEE CODESIZE DUP16 PUSH5 0x736F6C6343 STOP ADDMOD LT STOP CALLER "
				},
				"gasEstimates": {
					"creation": {
						"codeDepositCost": "697400",
						"executionCost": "29969",
						"totalCost": "727369"
					},
					"external": {
						"add((uint256,uint256,string,uint256,string,string,uint8),bytes32)": "infinite",
						"at(uint256,bytes32)": "infinite",
						"destroy()": "29957",
						"getLength(bytes32)": "infinite",
						"hide(uint256,bytes32)": "infinite",
						"owner()": "2346",
						"transferOwnership(address)": "28375"
					}
				},
				"methodIdentifiers": {
					"add((uint256,uint256,string,uint256,string,string,uint8),bytes32)": "7f5b959f",
					"at(uint256,bytes32)": "c78a6741",
					"destroy()": "83197ef0",
					"getLength(bytes32)": "fd82e9dd",
					"hide(uint256,bytes32)": "b615c00a",
					"owner()": "8da5cb5b",
					"transferOwnership(address)": "f2fde38b"
				}
			},
			"storageLayout": {
				"storage": [
					{
						"astId": 4,
						"contract": "database/business/post/ListBusinessPost.sol:ListBusinessPost",
						"label": "_owner",
						"offset": 0,
						"slot": "0",
						"type": "t_address"
					},
					{
						"astId": 135,
						"contract": "database/business/post/ListBusinessPost.sol:ListBusinessPost",
						"label": "list",
						"offset": 0,
						"slot": "1",
						"type": "t_mapping(t_uint256,t_struct(BusinessPost)316_storage)"
					},
					{
						"astId": 138,
						"contract": "database/business/post/ListBusinessPost.sol:ListBusinessPost",
						"label": "autoIncrement",
						"offset": 0,
						"slot": "2",
						"type": "t_uint256"
					}
				],
				"types": {
					"t_address": {
						"encoding": "inplace",
						"label": "address",
						"numberOfBytes": "20"
					},
					"t_enum(Status)300": {
						"encoding": "inplace",
						"label": "enum Status",
						"numberOfBytes": "1"
					},
					"t_mapping(t_uint256,t_struct(BusinessPost)316_storage)": {
						"encoding": "mapping",
						"key": "t_uint256",
						"label": "mapping(uint256 => struct BusinessPost)",
						"numberOfBytes": "32",
						"value": "t_struct(BusinessPost)316_storage"
					},
					"t_string_storage": {
						"encoding": "bytes",
						"label": "string",
						"numberOfBytes": "32"
					},
					"t_struct(BusinessPost)316_storage": {
						"encoding": "inplace",
						"label": "struct BusinessPost",
						"members": [
							{
								"astId": 302,
								"contract": "database/business/post/ListBusinessPost.sol:ListBusinessPost",
								"label": "id",
								"offset": 0,
								"slot": "0",
								"type": "t_uint256"
							},
							{
								"astId": 304,
								"contract": "database/business/post/ListBusinessPost.sol:ListBusinessPost",
								"label": "businessPostId",
								"offset": 0,
								"slot": "1",
								"type": "t_uint256"
							},
							{
								"astId": 306,
								"contract": "database/business/post/ListBusinessPost.sol:ListBusinessPost",
								"label": "hashTag",
								"offset": 0,
								"slot": "2",
								"type": "t_string_storage"
							},
							{
								"astId": 308,
								"contract": "database/business/post/ListBusinessPost.sol:ListBusinessPost",
								"label": "time",
								"offset": 0,
								"slot": "3",
								"type": "t_uint256"
							},
							{
								"astId": 310,
								"contract": "database/business/post/ListBusinessPost.sol:ListBusinessPost",
								"label": "content",
								"offset": 0,
								"slot": "4",
								"type": "t_string_storage"
							},
							{
								"astId": 312,
								"contract": "database/business/post/ListBusinessPost.sol:ListBusinessPost",
								"label": "imageSource",
								"offset": 0,
								"slot": "5",
								"type": "t_string_storage"
							},
							{
								"astId": 315,
								"contract": "database/business/post/ListBusinessPost.sol:ListBusinessPost",
								"label": "status",
								"offset": 0,
								"slot": "6",
								"type": "t_enum(Status)300"
							}
						],
						"numberOfBytes": "224"
					},
					"t_uint256": {
						"encoding": "inplace",
						"label": "uint256",
						"numberOfBytes": "32"
					}
				}
			},
			"userdoc": {
				"kind": "user",
				"methods": {},
				"version": 1
			}
		}
	}
}