{
	"database/business/post/ListBusinessPost.sol": {
		"ListBusinessPost": {
			"abi": [
				{
					"inputs": [],
					"stateMutability": "nonpayable",
					"type": "constructor"
				},
				{
					"anonymous": false,
					"inputs": [
						{
							"components": [
								{
									"internalType": "uint256",
									"name": "id",
									"type": "uint256"
								},
								{
									"internalType": "uint256",
									"name": "businessPostId",
									"type": "uint256"
								},
								{
									"internalType": "string",
									"name": "hashTag",
									"type": "string"
								},
								{
									"internalType": "uint256",
									"name": "time",
									"type": "uint256"
								},
								{
									"internalType": "string",
									"name": "content",
									"type": "string"
								},
								{
									"internalType": "string",
									"name": "imageSource",
									"type": "string"
								},
								{
									"internalType": "string",
									"name": "job",
									"type": "string"
								},
								{
									"internalType": "enum Status",
									"name": "status",
									"type": "uint8"
								}
							],
							"indexed": false,
							"internalType": "struct BusinessPost",
							"name": "item",
							"type": "tuple"
						}
					],
					"name": "Add",
					"type": "event"
				},
				{
					"anonymous": false,
					"inputs": [
						{
							"indexed": true,
							"internalType": "address",
							"name": "previousOwner",
							"type": "address"
						},
						{
							"indexed": true,
							"internalType": "address",
							"name": "newOwner",
							"type": "address"
						}
					],
					"name": "OwnershipTransferred",
					"type": "event"
				},
				{
					"anonymous": false,
					"inputs": [
						{
							"components": [
								{
									"internalType": "uint256",
									"name": "id",
									"type": "uint256"
								},
								{
									"internalType": "uint256",
									"name": "businessPostId",
									"type": "uint256"
								},
								{
									"internalType": "string",
									"name": "hashTag",
									"type": "string"
								},
								{
									"internalType": "uint256",
									"name": "time",
									"type": "uint256"
								},
								{
									"internalType": "string",
									"name": "content",
									"type": "string"
								},
								{
									"internalType": "string",
									"name": "imageSource",
									"type": "string"
								},
								{
									"internalType": "string",
									"name": "job",
									"type": "string"
								},
								{
									"internalType": "enum Status",
									"name": "status",
									"type": "uint8"
								}
							],
							"indexed": false,
							"internalType": "struct BusinessPost",
							"name": "item",
							"type": "tuple"
						}
					],
					"name": "Remove",
					"type": "event"
				},
				{
					"inputs": [
						{
							"components": [
								{
									"internalType": "uint256",
									"name": "id",
									"type": "uint256"
								},
								{
									"internalType": "uint256",
									"name": "businessPostId",
									"type": "uint256"
								},
								{
									"internalType": "string",
									"name": "hashTag",
									"type": "string"
								},
								{
									"internalType": "uint256",
									"name": "time",
									"type": "uint256"
								},
								{
									"internalType": "string",
									"name": "content",
									"type": "string"
								},
								{
									"internalType": "string",
									"name": "imageSource",
									"type": "string"
								},
								{
									"internalType": "string",
									"name": "job",
									"type": "string"
								},
								{
									"internalType": "enum Status",
									"name": "status",
									"type": "uint8"
								}
							],
							"internalType": "struct BusinessPost",
							"name": "item",
							"type": "tuple"
						},
						{
							"internalType": "bytes32",
							"name": "secret",
							"type": "bytes32"
						}
					],
					"name": "add",
					"outputs": [
						{
							"internalType": "uint256",
							"name": "",
							"type": "uint256"
						}
					],
					"stateMutability": "nonpayable",
					"type": "function"
				},
				{
					"inputs": [
						{
							"internalType": "uint256",
							"name": "index",
							"type": "uint256"
						},
						{
							"internalType": "bytes32",
							"name": "secret",
							"type": "bytes32"
						}
					],
					"name": "at",
					"outputs": [
						{
							"components": [
								{
									"internalType": "uint256",
									"name": "id",
									"type": "uint256"
								},
								{
									"internalType": "uint256",
									"name": "businessPostId",
									"type": "uint256"
								},
								{
									"internalType": "string",
									"name": "hashTag",
									"type": "string"
								},
								{
									"internalType": "uint256",
									"name": "time",
									"type": "uint256"
								},
								{
									"internalType": "string",
									"name": "content",
									"type": "string"
								},
								{
									"internalType": "string",
									"name": "imageSource",
									"type": "string"
								},
								{
									"internalType": "string",
									"name": "job",
									"type": "string"
								},
								{
									"internalType": "enum Status",
									"name": "status",
									"type": "uint8"
								}
							],
							"internalType": "struct BusinessPost",
							"name": "",
							"type": "tuple"
						}
					],
					"stateMutability": "view",
					"type": "function"
				},
				{
					"inputs": [],
					"name": "destroy",
					"outputs": [],
					"stateMutability": "nonpayable",
					"type": "function"
				},
				{
					"inputs": [
						{
							"internalType": "bytes32",
							"name": "secret",
							"type": "bytes32"
						}
					],
					"name": "getLength",
					"outputs": [
						{
							"internalType": "uint256",
							"name": "",
							"type": "uint256"
						}
					],
					"stateMutability": "view",
					"type": "function"
				},
				{
					"inputs": [
						{
							"internalType": "uint256",
							"name": "index",
							"type": "uint256"
						},
						{
							"internalType": "bytes32",
							"name": "secret",
							"type": "bytes32"
						}
					],
					"name": "hide",
					"outputs": [
						{
							"internalType": "bool",
							"name": "",
							"type": "bool"
						}
					],
					"stateMutability": "nonpayable",
					"type": "function"
				},
				{
					"inputs": [],
					"name": "owner",
					"outputs": [
						{
							"internalType": "address",
							"name": "",
							"type": "address"
						}
					],
					"stateMutability": "view",
					"type": "function"
				},
				{
					"inputs": [
						{
							"internalType": "uint256",
							"name": "index",
							"type": "uint256"
						},
						{
							"internalType": "bytes32",
							"name": "secret",
							"type": "bytes32"
						},
						{
							"internalType": "enum Status",
							"name": "value",
							"type": "uint8"
						}
					],
					"name": "setStatus",
					"outputs": [
						{
							"internalType": "bool",
							"name": "",
							"type": "bool"
						}
					],
					"stateMutability": "nonpayable",
					"type": "function"
				},
				{
					"inputs": [
						{
							"internalType": "address",
							"name": "newOwner",
							"type": "address"
						}
					],
					"name": "transferOwnership",
					"outputs": [],
					"stateMutability": "nonpayable",
					"type": "function"
				}
			],
			"devdoc": {
				"kind": "dev",
				"methods": {
					"owner()": {
						"details": "Returns the address of the current owner."
					},
					"transferOwnership(address)": {
						"details": "Transfers ownership of the contract to a new account (`newOwner`). Can only be called by the current owner."
					}
				},
				"version": 1
			},
			"evm": {
				"assembly": "    /* \"database/business/post/ListBusinessPost.sol\":269:2217  contract ListBusinessPost is Ownable {... */\n  mstore(0x40, 0x80)\n    /* \"database/business/post/ListBusinessPost.sol\":395:396  0 */\n  0x00\n    /* \"database/business/post/ListBusinessPost.sol\":363:396  uint256 private autoIncrement = 0 */\n  0x02\n  sstore\n    /* \"database/business/post/ListBusinessPost.sol\":403:429  constructor() Ownable() {} */\n  callvalue\n  dup1\n  iszero\n  tag_1\n  jumpi\n  0x00\n  dup1\n  revert\ntag_1:\n  pop\n    /* \"abstract/Ownable.sol\":923:929  _owner */\n  0x00\n    /* \"abstract/Ownable.sol\":923:942  _owner = msg.sender */\n  dup1\n  sload\n  not(sub(shl(0xa0, 0x01), 0x01))\n  and\n    /* \"abstract/Ownable.sol\":932:942  msg.sender */\n  caller\n    /* \"abstract/Ownable.sol\":923:942  _owner = msg.sender */\n  or\n  swap1\n  sstore\n    /* \"database/business/post/ListBusinessPost.sol\":269:2217  contract ListBusinessPost is Ownable {... */\n  dataSize(sub_0)\n  dup1\n  dataOffset(sub_0)\n  0x00\n  codecopy\n  0x00\n  return\nstop\n\nsub_0: assembly {\n        /* \"database/business/post/ListBusinessPost.sol\":269:2217  contract ListBusinessPost is Ownable {... */\n      mstore(0x40, 0x80)\n      callvalue\n      dup1\n      iszero\n      tag_1\n      jumpi\n      0x00\n      dup1\n      revert\n    tag_1:\n      pop\n      jumpi(tag_2, lt(calldatasize, 0x04))\n      shr(0xe0, calldataload(0x00))\n      dup1\n      0xb615c00a\n      gt\n      tag_11\n      jumpi\n      dup1\n      0xb615c00a\n      eq\n      tag_7\n      jumpi\n      dup1\n      0xc78a6741\n      eq\n      tag_8\n      jumpi\n      dup1\n      0xf2fde38b\n      eq\n      tag_9\n      jumpi\n      dup1\n      0xfd82e9dd\n      eq\n      tag_10\n      jumpi\n      0x00\n      dup1\n      revert\n    tag_11:\n      dup1\n      0x116f4a23\n      eq\n      tag_3\n      jumpi\n      dup1\n      0x4f71735b\n      eq\n      tag_4\n      jumpi\n      dup1\n      0x83197ef0\n      eq\n      tag_5\n      jumpi\n      dup1\n      0x8da5cb5b\n      eq\n      tag_6\n      jumpi\n    tag_2:\n      0x00\n      dup1\n      revert\n        /* \"database/business/post/ListBusinessPost.sol\":1059:1359  function add(BusinessPost memory item, bytes32 secret)... */\n    tag_3:\n      tag_12\n      tag_13\n      calldatasize\n      0x04\n      tag_14\n      jump\t// in\n    tag_13:\n      tag_15\n      jump\t// in\n    tag_12:\n      mload(0x40)\n        /* \"#utility.yul\":2875:2900   */\n      swap1\n      dup2\n      mstore\n        /* \"#utility.yul\":2863:2865   */\n      0x20\n        /* \"#utility.yul\":2848:2866   */\n      add\n        /* \"database/business/post/ListBusinessPost.sol\":1059:1359  function add(BusinessPost memory item, bytes32 secret)... */\n    tag_16:\n      mload(0x40)\n      dup1\n      swap2\n      sub\n      swap1\n      return\n        /* \"database/business/post/ListBusinessPost.sol\":1992:2215  function setStatus(... */\n    tag_4:\n      tag_18\n      tag_19\n      calldatasize\n      0x04\n      tag_20\n      jump\t// in\n    tag_19:\n      tag_21\n      jump\t// in\n    tag_18:\n      mload(0x40)\n        /* \"#utility.yul\":3417:3431   */\n      swap1\n      iszero\n        /* \"#utility.yul\":3410:3432   */\n      iszero\n        /* \"#utility.yul\":3392:3433   */\n      dup2\n      mstore\n        /* \"#utility.yul\":3380:3382   */\n      0x20\n        /* \"#utility.yul\":3365:3383   */\n      add\n        /* \"database/business/post/ListBusinessPost.sol\":1992:2215  function setStatus(... */\n      tag_16\n        /* \"#utility.yul\":3252:3439   */\n      jump\n        /* \"abstract/Ownable.sol\":2642:2731  function destroy() public onlyOwner {... */\n    tag_5:\n      tag_24\n      tag_25\n      jump\t// in\n    tag_24:\n      stop\n        /* \"abstract/Ownable.sol\":1175:1260  function owner() public view virtual returns (address) {... */\n    tag_6:\n        /* \"abstract/Ownable.sol\":1221:1228  address */\n      0x00\n        /* \"abstract/Ownable.sol\":1247:1253  _owner */\n      sload\n        /* \"abstract/Ownable.sol\":1175:1260  function owner() public view virtual returns (address) {... */\n      mload(0x40)\n      sub(shl(0xa0, 0x01), 0x01)\n        /* \"abstract/Ownable.sol\":1247:1253  _owner */\n      swap1\n      swap2\n      and\n        /* \"#utility.yul\":3590:3641   */\n      dup2\n      mstore\n        /* \"#utility.yul\":3578:3580   */\n      0x20\n        /* \"#utility.yul\":3563:3581   */\n      add\n        /* \"abstract/Ownable.sol\":1175:1260  function owner() public view virtual returns (address) {... */\n      tag_16\n        /* \"#utility.yul\":3444:3647   */\n      jump\n        /* \"database/business/post/ListBusinessPost.sol\":1578:1972  function hide(uint256 index, bytes32 secret)... */\n    tag_7:\n      tag_18\n      tag_31\n      calldatasize\n      0x04\n      tag_32\n      jump\t// in\n    tag_31:\n      tag_33\n      jump\t// in\n        /* \"database/business/post/ListBusinessPost.sol\":1365:1572  function at(uint256 index, bytes32 secret)... */\n    tag_8:\n      tag_35\n      tag_36\n      calldatasize\n      0x04\n      tag_32\n      jump\t// in\n    tag_36:\n      tag_37\n      jump\t// in\n    tag_35:\n      mload(0x40)\n      tag_16\n      swap2\n      swap1\n      tag_39\n      jump\t// in\n        /* \"abstract/Ownable.sol\":2063:2295  function transferOwnership(address newOwner) public virtual onlyOwner {... */\n    tag_9:\n      tag_24\n      tag_41\n      calldatasize\n      0x04\n      tag_42\n      jump\t// in\n    tag_41:\n      tag_43\n      jump\t// in\n        /* \"database/business/post/ListBusinessPost.sol\":890:1053  function getLength(bytes32 secret)... */\n    tag_10:\n      tag_12\n      tag_45\n      calldatasize\n      0x04\n      tag_46\n      jump\t// in\n    tag_45:\n      tag_47\n      jump\t// in\n        /* \"database/business/post/ListBusinessPost.sol\":1059:1359  function add(BusinessPost memory item, bytes32 secret)... */\n    tag_15:\n        /* \"database/business/post/ListBusinessPost.sol\":1179:1186  uint256 */\n      0x00\n        /* \"database/business/post/ListBusinessPost.sol\":1154:1160  secret */\n      dup2\n      0x00\n      dup1\n      mload\n      0x20\n      data_98ee57057fe0a523e70b51608fd55a37ff53d47c3b8dac495a5f45d45157392f\n      dup4\n      codecopy\n      dup2\n      mload\n      swap2\n      mstore\n        /* \"database/business/post/ListBusinessPost.sol\":580:601  value == DATABASE_KEY */\n      dup2\n      eq\n        /* \"database/business/post/ListBusinessPost.sol\":559:670  require(... */\n      tag_50\n      jumpi\n      mload(0x40)\n      shl(0xe5, 0x461bcd)\n      dup2\n      mstore\n      0x04\n      add\n      tag_51\n      swap1\n      tag_52\n      jump\t// in\n    tag_51:\n      mload(0x40)\n      dup1\n      swap2\n      sub\n      swap1\n      revert\n    tag_50:\n        /* \"database/business/post/ListBusinessPost.sol\":1202:1215  autoIncrement */\n      0x02\n        /* \"database/business/post/ListBusinessPost.sol\":1202:1217  autoIncrement++ */\n      dup1\n      sload\n      swap1\n        /* \"database/business/post/ListBusinessPost.sol\":1202:1215  autoIncrement */\n      0x00\n        /* \"database/business/post/ListBusinessPost.sol\":1202:1217  autoIncrement++ */\n      tag_54\n      dup4\n      tag_55\n      jump\t// in\n    tag_54:\n      swap1\n      swap2\n      sstore\n      pop\n      pop\n        /* \"database/business/post/ListBusinessPost.sol\":1249:1262  autoIncrement */\n      0x02\n      dup1\n      sload\n        /* \"database/business/post/ListBusinessPost.sol\":1227:1246  item.businessPostId */\n      0x20\n      dup1\n      dup8\n      add\n        /* \"database/business/post/ListBusinessPost.sol\":1227:1262  item.businessPostId = autoIncrement */\n      dup3\n      dup2\n      mstore\n        /* \"database/business/post/ListBusinessPost.sol\":1272:1291  list[autoIncrement] */\n      0x00\n      swap3\n      dup4\n      mstore\n        /* \"database/business/post/ListBusinessPost.sol\":1272:1276  list */\n      0x01\n        /* \"database/business/post/ListBusinessPost.sol\":1272:1291  list[autoIncrement] */\n      swap2\n      dup3\n      swap1\n      mstore\n      0x40\n      swap3\n      dup4\n      swap1\n      keccak256\n        /* \"database/business/post/ListBusinessPost.sol\":1272:1298  list[autoIncrement] = item */\n      dup9\n      mload\n      dup2\n      sstore\n      swap1\n      mload\n      swap2\n      dup2\n      add\n      swap2\n      swap1\n      swap2\n      sstore\n      swap1\n      dup7\n      add\n      mload\n        /* \"database/business/post/ListBusinessPost.sol\":1227:1231  item */\n      dup7\n      swap3\n        /* \"database/business/post/ListBusinessPost.sol\":1272:1298  list[autoIncrement] = item */\n      dup3\n      add\n      swap1\n      tag_56\n      swap1\n      dup3\n      tag_57\n      jump\t// in\n    tag_56:\n      pop\n      0x60\n      dup3\n      add\n      mload\n      0x03\n      dup3\n      add\n      sstore\n      0x80\n      dup3\n      add\n      mload\n      0x04\n      dup3\n      add\n      swap1\n      tag_58\n      swap1\n      dup3\n      tag_57\n      jump\t// in\n    tag_58:\n      pop\n      0xa0\n      dup3\n      add\n      mload\n      0x05\n      dup3\n      add\n      swap1\n      tag_59\n      swap1\n      dup3\n      tag_57\n      jump\t// in\n    tag_59:\n      pop\n      0xc0\n      dup3\n      add\n      mload\n      0x06\n      dup3\n      add\n      swap1\n      tag_60\n      swap1\n      dup3\n      tag_57\n      jump\t// in\n    tag_60:\n      pop\n      0xe0\n      dup3\n      add\n      mload\n      0x07\n      dup3\n      add\n      dup1\n      sload\n      not(0xff)\n      and\n      0x01\n      dup4\n      0x02\n      dup2\n      gt\n      iszero\n      tag_62\n      jumpi\n      tag_62\n      tag_63\n      jump\t// in\n    tag_62:\n      mul\n      or\n      swap1\n      sstore\n      pop\n      swap1\n      pop\n      pop\n        /* \"database/business/post/ListBusinessPost.sol\":1313:1322  Add(item) */\n      0x0d5ee3861e0240d8a6d08d64672bed790ae1b3bc668354ffbf817ae2db0f3533\n        /* \"database/business/post/ListBusinessPost.sol\":1317:1321  item */\n      dup5\n        /* \"database/business/post/ListBusinessPost.sol\":1313:1322  Add(item) */\n      mload(0x40)\n      tag_64\n      swap2\n      swap1\n      tag_39\n      jump\t// in\n    tag_64:\n      mload(0x40)\n      dup1\n      swap2\n      sub\n      swap1\n      log1\n      pop\n      pop\n        /* \"database/business/post/ListBusinessPost.sol\":1339:1352  autoIncrement */\n      sload(0x02)\n      swap3\n        /* \"database/business/post/ListBusinessPost.sol\":1059:1359  function add(BusinessPost memory item, bytes32 secret)... */\n      swap2\n      pop\n      pop\n      jump\t// out\n        /* \"database/business/post/ListBusinessPost.sol\":1992:2215  function setStatus(... */\n    tag_21:\n        /* \"database/business/post/ListBusinessPost.sol\":2145:2149  bool */\n      0x00\n        /* \"database/business/post/ListBusinessPost.sol\":2110:2116  secret */\n      dup3\n      0x00\n      dup1\n      mload\n      0x20\n      data_98ee57057fe0a523e70b51608fd55a37ff53d47c3b8dac495a5f45d45157392f\n      dup4\n      codecopy\n      dup2\n      mload\n      swap2\n      mstore\n        /* \"database/business/post/ListBusinessPost.sol\":580:601  value == DATABASE_KEY */\n      dup2\n      eq\n        /* \"database/business/post/ListBusinessPost.sol\":559:670  require(... */\n      tag_66\n      jumpi\n      mload(0x40)\n      shl(0xe5, 0x461bcd)\n      dup2\n      mstore\n      0x04\n      add\n      tag_51\n      swap1\n      tag_52\n      jump\t// in\n    tag_66:\n        /* \"database/business/post/ListBusinessPost.sol\":2129:2134  index */\n      dup5\n        /* \"database/business/post/ListBusinessPost.sol\":766:771  index */\n      dup1\n        /* \"database/business/post/ListBusinessPost.sol\":761:762  1 */\n      0x01\n        /* \"database/business/post/ListBusinessPost.sol\":761:771  1 <= index */\n      gt\n      iszero\n        /* \"database/business/post/ListBusinessPost.sol\":760:800  (1 <= index) && (index <= autoIncrement) */\n      dup1\n      iszero\n      tag_69\n      jumpi\n      pop\n        /* \"database/business/post/ListBusinessPost.sol\":786:799  autoIncrement */\n      sload(0x02)\n        /* \"database/business/post/ListBusinessPost.sol\":777:782  index */\n      dup2\n        /* \"database/business/post/ListBusinessPost.sol\":777:799  index <= autoIncrement */\n      gt\n      iszero\n        /* \"database/business/post/ListBusinessPost.sol\":760:800  (1 <= index) && (index <= autoIncrement) */\n    tag_69:\n        /* \"database/business/post/ListBusinessPost.sol\":739:866  require(... */\n      tag_70\n      jumpi\n      mload(0x40)\n      shl(0xe5, 0x461bcd)\n      dup2\n      mstore\n      0x04\n      add\n      tag_51\n      swap1\n      tag_72\n      jump\t// in\n    tag_70:\n        /* \"database/business/post/ListBusinessPost.sol\":2161:2172  list[index] */\n      0x00\n      dup7\n      dup2\n      mstore\n        /* \"database/business/post/ListBusinessPost.sol\":2161:2165  list */\n      0x01\n        /* \"database/business/post/ListBusinessPost.sol\":2161:2172  list[index] */\n      0x20\n      dup2\n      swap1\n      mstore\n      0x40\n      swap1\n      swap2\n      keccak256\n        /* \"database/business/post/ListBusinessPost.sol\":2161:2179  list[index].status */\n      0x07\n      add\n        /* \"database/business/post/ListBusinessPost.sol\":2161:2187  list[index].status = value */\n      dup1\n      sload\n        /* \"database/business/post/ListBusinessPost.sol\":2182:2187  value */\n      dup7\n      swap3\n      not(0xff)\n        /* \"database/business/post/ListBusinessPost.sol\":2161:2187  list[index].status = value */\n      swap1\n      swap2\n      and\n      swap1\n        /* \"database/business/post/ListBusinessPost.sol\":2182:2187  value */\n      dup4\n        /* \"database/business/post/ListBusinessPost.sol\":2161:2187  list[index].status = value */\n      0x02\n      dup2\n      gt\n      iszero\n      tag_75\n      jumpi\n      tag_75\n      tag_63\n      jump\t// in\n    tag_75:\n      mul\n      or\n      swap1\n      sstore\n      pop\n        /* \"database/business/post/ListBusinessPost.sol\":2204:2208  true */\n      0x01\n      swap7\n        /* \"database/business/post/ListBusinessPost.sol\":1992:2215  function setStatus(... */\n      swap6\n      pop\n      pop\n      pop\n      pop\n      pop\n      pop\n      jump\t// out\n        /* \"abstract/Ownable.sol\":2642:2731  function destroy() public onlyOwner {... */\n    tag_25:\n        /* \"abstract/Ownable.sol\":1068:1081  _checkOwner() */\n      tag_77\n        /* \"abstract/Ownable.sol\":1068:1079  _checkOwner */\n      tag_78\n        /* \"abstract/Ownable.sol\":1068:1081  _checkOwner() */\n      jump\t// in\n    tag_77:\n        /* \"abstract/Ownable.sol\":2717:2721  this */\n      address\n        /* \"abstract/Ownable.sol\":2688:2724  selfdestruct(payable(address(this))) */\n      selfdestruct\n        /* \"database/business/post/ListBusinessPost.sol\":1578:1972  function hide(uint256 index, bytes32 secret)... */\n    tag_33:\n        /* \"database/business/post/ListBusinessPost.sol\":1714:1718  bool */\n      0x00\n        /* \"database/business/post/ListBusinessPost.sol\":1663:1669  secret */\n      dup2\n      0x00\n      dup1\n      mload\n      0x20\n      data_98ee57057fe0a523e70b51608fd55a37ff53d47c3b8dac495a5f45d45157392f\n      dup4\n      codecopy\n      dup2\n      mload\n      swap2\n      mstore\n        /* \"database/business/post/ListBusinessPost.sol\":580:601  value == DATABASE_KEY */\n      dup2\n      eq\n        /* \"database/business/post/ListBusinessPost.sol\":559:670  require(... */\n      tag_82\n      jumpi\n      mload(0x40)\n      shl(0xe5, 0x461bcd)\n      dup2\n      mstore\n      0x04\n      add\n      tag_51\n      swap1\n      tag_52\n      jump\t// in\n    tag_82:\n        /* \"database/business/post/ListBusinessPost.sol\":1690:1695  index */\n      dup4\n        /* \"database/business/post/ListBusinessPost.sol\":766:771  index */\n      dup1\n        /* \"database/business/post/ListBusinessPost.sol\":761:762  1 */\n      0x01\n        /* \"database/business/post/ListBusinessPost.sol\":761:771  1 <= index */\n      gt\n      iszero\n        /* \"database/business/post/ListBusinessPost.sol\":760:800  (1 <= index) && (index <= autoIncrement) */\n      dup1\n      iszero\n      tag_85\n      jumpi\n      pop\n        /* \"database/business/post/ListBusinessPost.sol\":786:799  autoIncrement */\n      sload(0x02)\n        /* \"database/business/post/ListBusinessPost.sol\":777:782  index */\n      dup2\n        /* \"database/business/post/ListBusinessPost.sol\":777:799  index <= autoIncrement */\n      gt\n      iszero\n        /* \"database/business/post/ListBusinessPost.sol\":760:800  (1 <= index) && (index <= autoIncrement) */\n    tag_85:\n        /* \"database/business/post/ListBusinessPost.sol\":739:866  require(... */\n      tag_86\n      jumpi\n      mload(0x40)\n      shl(0xe5, 0x461bcd)\n      dup2\n      mstore\n      0x04\n      add\n      tag_51\n      swap1\n      tag_72\n      jump\t// in\n    tag_86:\n        /* \"database/business/post/ListBusinessPost.sol\":1760:1917  BusinessPost(... */\n      0x40\n      dup1\n      mload\n      0x0100\n      dup2\n      add\n      dup3\n      mstore\n      0x00\n      dup1\n      dup3\n      mstore\n      0x20\n      dup1\n      dup4\n      add\n      dup3\n      dup2\n      mstore\n      dup5\n      mload\n      dup1\n      dup4\n      add\n      dup7\n      mstore\n      dup4\n      dup2\n      mstore\n      dup5\n      dup7\n      add\n      swap1\n      dup2\n      mstore\n      0x60\n      dup6\n      add\n      dup5\n      swap1\n      mstore\n      dup6\n      mload\n      dup1\n      dup5\n      add\n      dup8\n      mstore\n      dup5\n      dup2\n      mstore\n      0x80\n      dup7\n      add\n      mstore\n      dup6\n      mload\n      dup1\n      dup5\n      add\n      dup8\n      mstore\n      dup5\n      dup2\n      mstore\n      0xa0\n      dup7\n      add\n      mstore\n      dup6\n      mload\n      dup1\n      dup5\n      add\n      dup8\n      mstore\n      dup5\n      dup2\n      mstore\n      0xc0\n      dup7\n      add\n      mstore\n        /* \"database/business/post/ListBusinessPost.sol\":1895:1907  Status.close */\n      0x01\n        /* \"database/business/post/ListBusinessPost.sol\":1760:1917  BusinessPost(... */\n      0xe0\n      dup7\n      add\n      dup2\n      swap1\n      mstore\n        /* \"database/business/post/ListBusinessPost.sol\":1927:1938  list[index] */\n      dup12\n      dup6\n      mstore\n      swap3\n      dup4\n      swap1\n      mstore\n      swap5\n      swap1\n      swap3\n      keccak256\n        /* \"database/business/post/ListBusinessPost.sol\":1927:1944  list[index] = gap */\n      dup4\n      mload\n      dup2\n      sstore\n      swap2\n      mload\n      swap1\n      dup3\n      add\n      sstore\n      swap2\n      mload\n        /* \"database/business/post/ListBusinessPost.sol\":1760:1917  BusinessPost(... */\n      swap1\n      swap2\n      dup3\n      swap2\n        /* \"database/business/post/ListBusinessPost.sol\":1927:1944  list[index] = gap */\n      0x02\n      dup3\n      add\n      swap1\n      tag_91\n      swap1\n      dup3\n      tag_57\n      jump\t// in\n    tag_91:\n      pop\n      0x60\n      dup3\n      add\n      mload\n      0x03\n      dup3\n      add\n      sstore\n      0x80\n      dup3\n      add\n      mload\n      0x04\n      dup3\n      add\n      swap1\n      tag_92\n      swap1\n      dup3\n      tag_57\n      jump\t// in\n    tag_92:\n      pop\n      0xa0\n      dup3\n      add\n      mload\n      0x05\n      dup3\n      add\n      swap1\n      tag_93\n      swap1\n      dup3\n      tag_57\n      jump\t// in\n    tag_93:\n      pop\n      0xc0\n      dup3\n      add\n      mload\n      0x06\n      dup3\n      add\n      swap1\n      tag_94\n      swap1\n      dup3\n      tag_57\n      jump\t// in\n    tag_94:\n      pop\n      0xe0\n      dup3\n      add\n      mload\n      0x07\n      dup3\n      add\n      dup1\n      sload\n      not(0xff)\n      and\n      0x01\n      dup4\n      0x02\n      dup2\n      gt\n      iszero\n      tag_96\n      jumpi\n      tag_96\n      tag_63\n      jump\t// in\n    tag_96:\n      mul\n      or\n      swap1\n      sstore\n      pop\n        /* \"database/business/post/ListBusinessPost.sol\":1961:1965  true */\n      0x01\n      swap9\n        /* \"database/business/post/ListBusinessPost.sol\":1578:1972  function hide(uint256 index, bytes32 secret)... */\n      swap8\n      pop\n      pop\n      pop\n      pop\n      pop\n      pop\n      pop\n      pop\n      jump\t// out\n        /* \"database/business/post/ListBusinessPost.sol\":1365:1572  function at(uint256 index, bytes32 secret)... */\n    tag_37:\n        /* \"database/business/post/ListBusinessPost.sol\":1512:1531  BusinessPost memory */\n      tag_97\n      tag_98\n      jump\t// in\n    tag_97:\n        /* \"database/business/post/ListBusinessPost.sol\":1461:1467  secret */\n      dup2\n      0x00\n      dup1\n      mload\n      0x20\n      data_98ee57057fe0a523e70b51608fd55a37ff53d47c3b8dac495a5f45d45157392f\n      dup4\n      codecopy\n      dup2\n      mload\n      swap2\n      mstore\n        /* \"database/business/post/ListBusinessPost.sol\":580:601  value == DATABASE_KEY */\n      dup2\n      eq\n        /* \"database/business/post/ListBusinessPost.sol\":559:670  require(... */\n      tag_100\n      jumpi\n      mload(0x40)\n      shl(0xe5, 0x461bcd)\n      dup2\n      mstore\n      0x04\n      add\n      tag_51\n      swap1\n      tag_52\n      jump\t// in\n    tag_100:\n        /* \"database/business/post/ListBusinessPost.sol\":1488:1493  index */\n      dup4\n        /* \"database/business/post/ListBusinessPost.sol\":766:771  index */\n      dup1\n        /* \"database/business/post/ListBusinessPost.sol\":761:762  1 */\n      0x01\n        /* \"database/business/post/ListBusinessPost.sol\":761:771  1 <= index */\n      gt\n      iszero\n        /* \"database/business/post/ListBusinessPost.sol\":760:800  (1 <= index) && (index <= autoIncrement) */\n      dup1\n      iszero\n      tag_103\n      jumpi\n      pop\n        /* \"database/business/post/ListBusinessPost.sol\":786:799  autoIncrement */\n      sload(0x02)\n        /* \"database/business/post/ListBusinessPost.sol\":777:782  index */\n      dup2\n        /* \"database/business/post/ListBusinessPost.sol\":777:799  index <= autoIncrement */\n      gt\n      iszero\n        /* \"database/business/post/ListBusinessPost.sol\":760:800  (1 <= index) && (index <= autoIncrement) */\n    tag_103:\n        /* \"database/business/post/ListBusinessPost.sol\":739:866  require(... */\n      tag_104\n      jumpi\n      mload(0x40)\n      shl(0xe5, 0x461bcd)\n      dup2\n      mstore\n      0x04\n      add\n      tag_51\n      swap1\n      tag_72\n      jump\t// in\n    tag_104:\n        /* \"database/business/post/ListBusinessPost.sol\":1554:1558  list */\n      0x01\n        /* \"database/business/post/ListBusinessPost.sol\":1554:1565  list[index] */\n      0x00\n        /* \"database/business/post/ListBusinessPost.sol\":1559:1564  index */\n      dup7\n        /* \"database/business/post/ListBusinessPost.sol\":1554:1565  list[index] */\n      dup2\n      mstore\n      0x20\n      add\n      swap1\n      dup2\n      mstore\n      0x20\n      add\n      0x00\n      keccak256\n        /* \"database/business/post/ListBusinessPost.sol\":1547:1565  return list[index] */\n      mload(0x40)\n      dup1\n      0x0100\n      add\n      0x40\n      mstore\n      swap1\n      dup2\n      0x00\n      dup3\n      add\n      sload\n      dup2\n      mstore\n      0x20\n      add\n      0x01\n      dup3\n      add\n      sload\n      dup2\n      mstore\n      0x20\n      add\n      0x02\n      dup3\n      add\n      dup1\n      sload\n      tag_107\n      swap1\n      tag_108\n      jump\t// in\n    tag_107:\n      dup1\n      0x1f\n      add\n      0x20\n      dup1\n      swap2\n      div\n      mul\n      0x20\n      add\n      mload(0x40)\n      swap1\n      dup2\n      add\n      0x40\n      mstore\n      dup1\n      swap3\n      swap2\n      swap1\n      dup2\n      dup2\n      mstore\n      0x20\n      add\n      dup3\n      dup1\n      sload\n      tag_109\n      swap1\n      tag_108\n      jump\t// in\n    tag_109:\n      dup1\n      iszero\n      tag_110\n      jumpi\n      dup1\n      0x1f\n      lt\n      tag_111\n      jumpi\n      0x0100\n      dup1\n      dup4\n      sload\n      div\n      mul\n      dup4\n      mstore\n      swap2\n      0x20\n      add\n      swap2\n      jump(tag_110)\n    tag_111:\n      dup3\n      add\n      swap2\n      swap1\n      0x00\n      mstore\n      keccak256(0x00, 0x20)\n      swap1\n    tag_112:\n      dup2\n      sload\n      dup2\n      mstore\n      swap1\n      0x01\n      add\n      swap1\n      0x20\n      add\n      dup1\n      dup4\n      gt\n      tag_112\n      jumpi\n      dup3\n      swap1\n      sub\n      0x1f\n      and\n      dup3\n      add\n      swap2\n    tag_110:\n      pop\n      pop\n      pop\n      pop\n      pop\n      dup2\n      mstore\n      0x20\n      add\n      0x03\n      dup3\n      add\n      sload\n      dup2\n      mstore\n      0x20\n      add\n      0x04\n      dup3\n      add\n      dup1\n      sload\n      tag_113\n      swap1\n      tag_108\n      jump\t// in\n    tag_113:\n      dup1\n      0x1f\n      add\n      0x20\n      dup1\n      swap2\n      div\n      mul\n      0x20\n      add\n      mload(0x40)\n      swap1\n      dup2\n      add\n      0x40\n      mstore\n      dup1\n      swap3\n      swap2\n      swap1\n      dup2\n      dup2\n      mstore\n      0x20\n      add\n      dup3\n      dup1\n      sload\n      tag_114\n      swap1\n      tag_108\n      jump\t// in\n    tag_114:\n      dup1\n      iszero\n      tag_115\n      jumpi\n      dup1\n      0x1f\n      lt\n      tag_116\n      jumpi\n      0x0100\n      dup1\n      dup4\n      sload\n      div\n      mul\n      dup4\n      mstore\n      swap2\n      0x20\n      add\n      swap2\n      jump(tag_115)\n    tag_116:\n      dup3\n      add\n      swap2\n      swap1\n      0x00\n      mstore\n      keccak256(0x00, 0x20)\n      swap1\n    tag_117:\n      dup2\n      sload\n      dup2\n      mstore\n      swap1\n      0x01\n      add\n      swap1\n      0x20\n      add\n      dup1\n      dup4\n      gt\n      tag_117\n      jumpi\n      dup3\n      swap1\n      sub\n      0x1f\n      and\n      dup3\n      add\n      swap2\n    tag_115:\n      pop\n      pop\n      pop\n      pop\n      pop\n      dup2\n      mstore\n      0x20\n      add\n      0x05\n      dup3\n      add\n      dup1\n      sload\n      tag_118\n      swap1\n      tag_108\n      jump\t// in\n    tag_118:\n      dup1\n      0x1f\n      add\n      0x20\n      dup1\n      swap2\n      div\n      mul\n      0x20\n      add\n      mload(0x40)\n      swap1\n      dup2\n      add\n      0x40\n      mstore\n      dup1\n      swap3\n      swap2\n      swap1\n      dup2\n      dup2\n      mstore\n      0x20\n      add\n      dup3\n      dup1\n      sload\n      tag_119\n      swap1\n      tag_108\n      jump\t// in\n    tag_119:\n      dup1\n      iszero\n      tag_120\n      jumpi\n      dup1\n      0x1f\n      lt\n      tag_121\n      jumpi\n      0x0100\n      dup1\n      dup4\n      sload\n      div\n      mul\n      dup4\n      mstore\n      swap2\n      0x20\n      add\n      swap2\n      jump(tag_120)\n    tag_121:\n      dup3\n      add\n      swap2\n      swap1\n      0x00\n      mstore\n      keccak256(0x00, 0x20)\n      swap1\n    tag_122:\n      dup2\n      sload\n      dup2\n      mstore\n      swap1\n      0x01\n      add\n      swap1\n      0x20\n      add\n      dup1\n      dup4\n      gt\n      tag_122\n      jumpi\n      dup3\n      swap1\n      sub\n      0x1f\n      and\n      dup3\n      add\n      swap2\n    tag_120:\n      pop\n      pop\n      pop\n      pop\n      pop\n      dup2\n      mstore\n      0x20\n      add\n      0x06\n      dup3\n      add\n      dup1\n      sload\n      tag_123\n      swap1\n      tag_108\n      jump\t// in\n    tag_123:\n      dup1\n      0x1f\n      add\n      0x20\n      dup1\n      swap2\n      div\n      mul\n      0x20\n      add\n      mload(0x40)\n      swap1\n      dup2\n      add\n      0x40\n      mstore\n      dup1\n      swap3\n      swap2\n      swap1\n      dup2\n      dup2\n      mstore\n      0x20\n      add\n      dup3\n      dup1\n      sload\n      tag_124\n      swap1\n      tag_108\n      jump\t// in\n    tag_124:\n      dup1\n      iszero\n      tag_125\n      jumpi\n      dup1\n      0x1f\n      lt\n      tag_126\n      jumpi\n      0x0100\n      dup1\n      dup4\n      sload\n      div\n      mul\n      dup4\n      mstore\n      swap2\n      0x20\n      add\n      swap2\n      jump(tag_125)\n    tag_126:\n      dup3\n      add\n      swap2\n      swap1\n      0x00\n      mstore\n      keccak256(0x00, 0x20)\n      swap1\n    tag_127:\n      dup2\n      sload\n      dup2\n      mstore\n      swap1\n      0x01\n      add\n      swap1\n      0x20\n      add\n      dup1\n      dup4\n      gt\n      tag_127\n      jumpi\n      dup3\n      swap1\n      sub\n      0x1f\n      and\n      dup3\n      add\n      swap2\n    tag_125:\n      pop\n      pop\n      pop\n      swap2\n      dup4\n      mstore\n      pop\n      pop\n      0x07\n      dup3\n      add\n      sload\n      0x20\n      swap1\n      swap2\n      add\n      swap1\n      0xff\n      and\n      0x02\n      dup2\n      gt\n      iszero\n      tag_129\n      jumpi\n      tag_129\n      tag_63\n      jump\t// in\n    tag_129:\n      0x02\n      dup2\n      gt\n      iszero\n      tag_131\n      jumpi\n      tag_131\n      tag_63\n      jump\t// in\n    tag_131:\n      swap1\n      mstore\n      pop\n      swap6\n        /* \"database/business/post/ListBusinessPost.sol\":1365:1572  function at(uint256 index, bytes32 secret)... */\n      swap5\n      pop\n      pop\n      pop\n      pop\n      pop\n      jump\t// out\n        /* \"abstract/Ownable.sol\":2063:2295  function transferOwnership(address newOwner) public virtual onlyOwner {... */\n    tag_43:\n        /* \"abstract/Ownable.sol\":1068:1081  _checkOwner() */\n      tag_133\n        /* \"abstract/Ownable.sol\":1068:1079  _checkOwner */\n      tag_78\n        /* \"abstract/Ownable.sol\":1068:1081  _checkOwner() */\n      jump\t// in\n    tag_133:\n      sub(shl(0xa0, 0x01), 0x01)\n        /* \"abstract/Ownable.sol\":2164:2186  newOwner != address(0) */\n      dup2\n      and\n        /* \"abstract/Ownable.sol\":2143:2250  require(... */\n      tag_135\n      jumpi\n      mload(0x40)\n      shl(0xe5, 0x461bcd)\n      dup2\n      mstore\n        /* \"#utility.yul\":10320:10322   */\n      0x20\n        /* \"abstract/Ownable.sol\":2143:2250  require(... */\n      0x04\n      dup3\n      add\n        /* \"#utility.yul\":10302:10323   */\n      mstore\n        /* \"#utility.yul\":10359:10361   */\n      0x26\n        /* \"#utility.yul\":10339:10357   */\n      0x24\n      dup3\n      add\n        /* \"#utility.yul\":10332:10362   */\n      mstore\n        /* \"#utility.yul\":10398:10432   */\n      0x4f776e61626c653a206e6577206f776e657220697320746865207a65726f2061\n        /* \"#utility.yul\":10378:10396   */\n      0x44\n      dup3\n      add\n        /* \"#utility.yul\":10371:10433   */\n      mstore\n      shl(0xd0, 0x646472657373)\n        /* \"#utility.yul\":10449:10467   */\n      0x64\n      dup3\n      add\n        /* \"#utility.yul\":10442:10478   */\n      mstore\n        /* \"#utility.yul\":10495:10514   */\n      0x84\n      add\n        /* \"abstract/Ownable.sol\":2143:2250  require(... */\n      tag_51\n        /* \"#utility.yul\":10118:10520   */\n      jump\n        /* \"abstract/Ownable.sol\":2143:2250  require(... */\n    tag_135:\n        /* \"abstract/Ownable.sol\":2260:2288  _transferOwnership(newOwner) */\n      tag_138\n        /* \"abstract/Ownable.sol\":2279:2287  newOwner */\n      dup2\n        /* \"abstract/Ownable.sol\":2260:2278  _transferOwnership */\n      tag_139\n        /* \"abstract/Ownable.sol\":2260:2288  _transferOwnership(newOwner) */\n      jump\t// in\n    tag_138:\n        /* \"abstract/Ownable.sol\":2063:2295  function transferOwnership(address newOwner) public virtual onlyOwner {... */\n      pop\n      jump\t// out\n        /* \"database/business/post/ListBusinessPost.sol\":890:1053  function getLength(bytes32 secret)... */\n    tag_47:\n        /* \"database/business/post/ListBusinessPost.sol\":1003:1010  uint256 */\n      0x00\n        /* \"database/business/post/ListBusinessPost.sol\":978:984  secret */\n      dup2\n      0x00\n      dup1\n      mload\n      0x20\n      data_98ee57057fe0a523e70b51608fd55a37ff53d47c3b8dac495a5f45d45157392f\n      dup4\n      codecopy\n      dup2\n      mload\n      swap2\n      mstore\n        /* \"database/business/post/ListBusinessPost.sol\":580:601  value == DATABASE_KEY */\n      dup2\n      eq\n        /* \"database/business/post/ListBusinessPost.sol\":559:670  require(... */\n      tag_141\n      jumpi\n      mload(0x40)\n      shl(0xe5, 0x461bcd)\n      dup2\n      mstore\n      0x04\n      add\n      tag_51\n      swap1\n      tag_52\n      jump\t// in\n    tag_141:\n        /* \"database/business/post/ListBusinessPost.sol\":1033:1046  autoIncrement */\n      sload(0x02)\n        /* \"database/business/post/ListBusinessPost.sol\":1026:1046  return autoIncrement */\n      swap2\n      pop\n        /* \"database/business/post/ListBusinessPost.sol\":680:681  _ */\n    tag_143:\n        /* \"database/business/post/ListBusinessPost.sol\":890:1053  function getLength(bytes32 secret)... */\n      pop\n      swap2\n      swap1\n      pop\n      jump\t// out\n        /* \"abstract/Ownable.sol\":1333:1461  function _checkOwner() internal view virtual {... */\n    tag_78:\n        /* \"abstract/Ownable.sol\":1407:1417  msg.sender */\n      caller\n        /* \"abstract/Ownable.sol\":1396:1403  owner() */\n      tag_145\n        /* \"abstract/Ownable.sol\":1221:1228  address */\n      0x00\n        /* \"abstract/Ownable.sol\":1247:1253  _owner */\n      sload\n      sub(shl(0xa0, 0x01), 0x01)\n      and\n      swap1\n        /* \"abstract/Ownable.sol\":1175:1260  function owner() public view virtual returns (address) {... */\n      jump\n        /* \"abstract/Ownable.sol\":1396:1403  owner() */\n    tag_145:\n      sub(shl(0xa0, 0x01), 0x01)\n        /* \"abstract/Ownable.sol\":1396:1417  owner() == msg.sender */\n      and\n      eq\n        /* \"abstract/Ownable.sol\":1388:1454  require(owner() == msg.sender, \"Ownable: caller is not the owner\") */\n      tag_146\n      jumpi\n      mload(0x40)\n      shl(0xe5, 0x461bcd)\n      dup2\n      mstore\n        /* \"#utility.yul\":10727:10729   */\n      0x20\n        /* \"abstract/Ownable.sol\":1388:1454  require(owner() == msg.sender, \"Ownable: caller is not the owner\") */\n      0x04\n      dup3\n      add\n        /* \"#utility.yul\":10709:10730   */\n      dup2\n      swap1\n      mstore\n        /* \"#utility.yul\":10746:10764   */\n      0x24\n      dup3\n      add\n        /* \"#utility.yul\":10739:10769   */\n      mstore\n        /* \"#utility.yul\":10805:10839   */\n      0x4f776e61626c653a2063616c6c6572206973206e6f7420746865206f776e6572\n        /* \"#utility.yul\":10785:10803   */\n      0x44\n      dup3\n      add\n        /* \"#utility.yul\":10778:10840   */\n      mstore\n        /* \"#utility.yul\":10857:10875   */\n      0x64\n      add\n        /* \"abstract/Ownable.sol\":1388:1454  require(owner() == msg.sender, \"Ownable: caller is not the owner\") */\n      tag_51\n        /* \"#utility.yul\":10525:10881   */\n      jump\n        /* \"abstract/Ownable.sol\":1388:1454  require(owner() == msg.sender, \"Ownable: caller is not the owner\") */\n    tag_146:\n        /* \"abstract/Ownable.sol\":1333:1461  function _checkOwner() internal view virtual {... */\n      jump\t// out\n        /* \"abstract/Ownable.sol\":2449:2636  function _transferOwnership(address newOwner) internal virtual {... */\n    tag_139:\n        /* \"abstract/Ownable.sol\":2522:2538  address oldOwner */\n      0x00\n        /* \"abstract/Ownable.sol\":2541:2547  _owner */\n      dup1\n      sload\n      sub(shl(0xa0, 0x01), 0x01)\n        /* \"abstract/Ownable.sol\":2557:2574  _owner = newOwner */\n      dup4\n      dup2\n      and\n      not(sub(shl(0xa0, 0x01), 0x01))\n      dup4\n      and\n      dup2\n      or\n      dup5\n      sstore\n        /* \"abstract/Ownable.sol\":2589:2629  OwnershipTransferred(oldOwner, newOwner) */\n      mload(0x40)\n        /* \"abstract/Ownable.sol\":2541:2547  _owner */\n      swap2\n      swap1\n      swap3\n      and\n      swap3\n      dup4\n      swap2\n        /* \"abstract/Ownable.sol\":2589:2629  OwnershipTransferred(oldOwner, newOwner) */\n      0x8be0079c531659141344cd1fd0a4f28419497f9722a3daafe3b4186f6b6457e0\n      swap2\n        /* \"abstract/Ownable.sol\":2522:2538  address oldOwner */\n      swap1\n        /* \"abstract/Ownable.sol\":2589:2629  OwnershipTransferred(oldOwner, newOwner) */\n      log3\n        /* \"abstract/Ownable.sol\":2512:2636  {... */\n      pop\n        /* \"abstract/Ownable.sol\":2449:2636  function _transferOwnership(address newOwner) internal virtual {... */\n      pop\n      jump\t// out\n    tag_98:\n      mload(0x40)\n      dup1\n      0x0100\n      add\n      0x40\n      mstore\n      dup1\n      0x00\n      dup2\n      mstore\n      0x20\n      add\n      0x00\n      dup2\n      mstore\n      0x20\n      add\n      0x60\n      dup2\n      mstore\n      0x20\n      add\n      0x00\n      dup2\n      mstore\n      0x20\n      add\n      0x60\n      dup2\n      mstore\n      0x20\n      add\n      0x60\n      dup2\n      mstore\n      0x20\n      add\n      0x60\n      dup2\n      mstore\n      0x20\n      add\n      0x00\n      0x02\n      dup2\n      gt\n      iszero\n      tag_151\n      jumpi\n      tag_151\n      tag_63\n      jump\t// in\n    tag_151:\n      swap1\n      mstore\n      swap1\n      jump\t// out\n        /* \"#utility.yul\":14:141   */\n    tag_152:\n        /* \"#utility.yul\":75:85   */\n      0x4e487b71\n        /* \"#utility.yul\":70:73   */\n      0xe0\n        /* \"#utility.yul\":66:86   */\n      shl\n        /* \"#utility.yul\":63:64   */\n      0x00\n        /* \"#utility.yul\":56:87   */\n      mstore\n        /* \"#utility.yul\":106:110   */\n      0x41\n        /* \"#utility.yul\":103:104   */\n      0x04\n        /* \"#utility.yul\":96:111   */\n      mstore\n        /* \"#utility.yul\":130:134   */\n      0x24\n        /* \"#utility.yul\":127:128   */\n      0x00\n        /* \"#utility.yul\":120:135   */\n      revert\n        /* \"#utility.yul\":146:396   */\n    tag_153:\n        /* \"#utility.yul\":213:215   */\n      0x40\n        /* \"#utility.yul\":207:216   */\n      mload\n        /* \"#utility.yul\":255:261   */\n      0x0100\n        /* \"#utility.yul\":243:262   */\n      dup2\n      add\n        /* \"#utility.yul\":292:310   */\n      0xffffffffffffffff\n        /* \"#utility.yul\":277:311   */\n      dup2\n      gt\n        /* \"#utility.yul\":313:335   */\n      dup3\n      dup3\n      lt\n        /* \"#utility.yul\":274:336   */\n      or\n        /* \"#utility.yul\":271:359   */\n      iszero\n      tag_165\n      jumpi\n        /* \"#utility.yul\":339:357   */\n      tag_165\n      tag_152\n      jump\t// in\n    tag_165:\n        /* \"#utility.yul\":375:377   */\n      0x40\n        /* \"#utility.yul\":368:390   */\n      mstore\n        /* \"#utility.yul\":146:396   */\n      swap1\n      jump\t// out\n        /* \"#utility.yul\":401:1120   */\n    tag_154:\n        /* \"#utility.yul\":444:449   */\n      0x00\n        /* \"#utility.yul\":497:500   */\n      dup3\n        /* \"#utility.yul\":490:494   */\n      0x1f\n        /* \"#utility.yul\":482:488   */\n      dup4\n        /* \"#utility.yul\":478:495   */\n      add\n        /* \"#utility.yul\":474:501   */\n      slt\n        /* \"#utility.yul\":464:519   */\n      tag_167\n      jumpi\n        /* \"#utility.yul\":515:516   */\n      0x00\n        /* \"#utility.yul\":512:513   */\n      dup1\n        /* \"#utility.yul\":505:517   */\n      revert\n        /* \"#utility.yul\":464:519   */\n    tag_167:\n        /* \"#utility.yul\":551:557   */\n      dup2\n        /* \"#utility.yul\":538:558   */\n      calldataload\n        /* \"#utility.yul\":577:595   */\n      0xffffffffffffffff\n        /* \"#utility.yul\":614:616   */\n      dup1\n        /* \"#utility.yul\":610:612   */\n      dup3\n        /* \"#utility.yul\":607:617   */\n      gt\n        /* \"#utility.yul\":604:640   */\n      iszero\n      tag_169\n      jumpi\n        /* \"#utility.yul\":620:638   */\n      tag_169\n      tag_152\n      jump\t// in\n    tag_169:\n        /* \"#utility.yul\":695:697   */\n      0x40\n        /* \"#utility.yul\":689:698   */\n      mload\n        /* \"#utility.yul\":663:665   */\n      0x1f\n        /* \"#utility.yul\":749:762   */\n      dup4\n      add\n      not(0x1f)\n        /* \"#utility.yul\":745:767   */\n      swap1\n      dup2\n      and\n        /* \"#utility.yul\":769:771   */\n      0x3f\n        /* \"#utility.yul\":741:772   */\n      add\n        /* \"#utility.yul\":737:777   */\n      and\n        /* \"#utility.yul\":725:778   */\n      dup2\n      add\n      swap1\n        /* \"#utility.yul\":793:811   */\n      dup3\n      dup3\n      gt\n        /* \"#utility.yul\":813:835   */\n      dup2\n      dup4\n      lt\n        /* \"#utility.yul\":790:836   */\n      or\n        /* \"#utility.yul\":787:859   */\n      iszero\n      tag_171\n      jumpi\n        /* \"#utility.yul\":839:857   */\n      tag_171\n      tag_152\n      jump\t// in\n    tag_171:\n        /* \"#utility.yul\":879:889   */\n      dup2\n        /* \"#utility.yul\":875:877   */\n      0x40\n        /* \"#utility.yul\":868:890   */\n      mstore\n        /* \"#utility.yul\":914:916   */\n      dup4\n        /* \"#utility.yul\":906:912   */\n      dup2\n        /* \"#utility.yul\":899:917   */\n      mstore\n        /* \"#utility.yul\":960:963   */\n      dup7\n        /* \"#utility.yul\":953:957   */\n      0x20\n        /* \"#utility.yul\":948:950   */\n      dup6\n        /* \"#utility.yul\":940:946   */\n      dup9\n        /* \"#utility.yul\":936:951   */\n      add\n        /* \"#utility.yul\":932:958   */\n      add\n        /* \"#utility.yul\":929:964   */\n      gt\n        /* \"#utility.yul\":926:981   */\n      iszero\n      tag_172\n      jumpi\n        /* \"#utility.yul\":977:978   */\n      0x00\n        /* \"#utility.yul\":974:975   */\n      dup1\n        /* \"#utility.yul\":967:979   */\n      revert\n        /* \"#utility.yul\":926:981   */\n    tag_172:\n        /* \"#utility.yul\":1041:1043   */\n      dup4\n        /* \"#utility.yul\":1034:1038   */\n      0x20\n        /* \"#utility.yul\":1026:1032   */\n      dup8\n        /* \"#utility.yul\":1022:1039   */\n      add\n        /* \"#utility.yul\":1015:1019   */\n      0x20\n        /* \"#utility.yul\":1007:1013   */\n      dup4\n        /* \"#utility.yul\":1003:1020   */\n      add\n        /* \"#utility.yul\":990:1044   */\n      calldatacopy\n        /* \"#utility.yul\":1088:1089   */\n      0x00\n        /* \"#utility.yul\":1081:1085   */\n      0x20\n        /* \"#utility.yul\":1076:1078   */\n      dup6\n        /* \"#utility.yul\":1068:1074   */\n      dup4\n        /* \"#utility.yul\":1064:1079   */\n      add\n        /* \"#utility.yul\":1060:1086   */\n      add\n        /* \"#utility.yul\":1053:1090   */\n      mstore\n        /* \"#utility.yul\":1108:1114   */\n      dup1\n        /* \"#utility.yul\":1099:1114   */\n      swap5\n      pop\n      pop\n      pop\n      pop\n      pop\n        /* \"#utility.yul\":401:1120   */\n      swap3\n      swap2\n      pop\n      pop\n      jump\t// out\n        /* \"#utility.yul\":1125:1272   */\n    tag_155:\n        /* \"#utility.yul\":1197:1217   */\n      dup1\n      calldataload\n        /* \"#utility.yul\":1246:1247   */\n      0x03\n        /* \"#utility.yul\":1236:1248   */\n      dup2\n      lt\n        /* \"#utility.yul\":1226:1266   */\n      tag_174\n      jumpi\n        /* \"#utility.yul\":1262:1263   */\n      0x00\n        /* \"#utility.yul\":1259:1260   */\n      dup1\n        /* \"#utility.yul\":1252:1264   */\n      revert\n        /* \"#utility.yul\":1226:1266   */\n    tag_174:\n        /* \"#utility.yul\":1125:1272   */\n      swap2\n      swap1\n      pop\n      jump\t// out\n        /* \"#utility.yul\":1277:2724   */\n    tag_14:\n        /* \"#utility.yul\":1374:1380   */\n      0x00\n        /* \"#utility.yul\":1382:1388   */\n      dup1\n        /* \"#utility.yul\":1435:1437   */\n      0x40\n        /* \"#utility.yul\":1423:1432   */\n      dup4\n        /* \"#utility.yul\":1414:1421   */\n      dup6\n        /* \"#utility.yul\":1410:1433   */\n      sub\n        /* \"#utility.yul\":1406:1438   */\n      slt\n        /* \"#utility.yul\":1403:1455   */\n      iszero\n      tag_176\n      jumpi\n        /* \"#utility.yul\":1451:1452   */\n      0x00\n        /* \"#utility.yul\":1448:1449   */\n      dup1\n        /* \"#utility.yul\":1441:1453   */\n      revert\n        /* \"#utility.yul\":1403:1455   */\n    tag_176:\n        /* \"#utility.yul\":1491:1500   */\n      dup3\n        /* \"#utility.yul\":1478:1501   */\n      calldataload\n        /* \"#utility.yul\":1520:1538   */\n      0xffffffffffffffff\n        /* \"#utility.yul\":1561:1563   */\n      dup1\n        /* \"#utility.yul\":1553:1559   */\n      dup3\n        /* \"#utility.yul\":1550:1564   */\n      gt\n        /* \"#utility.yul\":1547:1581   */\n      iszero\n      tag_177\n      jumpi\n        /* \"#utility.yul\":1577:1578   */\n      0x00\n        /* \"#utility.yul\":1574:1575   */\n      dup1\n        /* \"#utility.yul\":1567:1579   */\n      revert\n        /* \"#utility.yul\":1547:1581   */\n    tag_177:\n        /* \"#utility.yul\":1600:1622   */\n      swap1\n      dup5\n      add\n      swap1\n        /* \"#utility.yul\":1656:1662   */\n      0x0100\n        /* \"#utility.yul\":1638:1654   */\n      dup3\n      dup8\n      sub\n        /* \"#utility.yul\":1634:1663   */\n      slt\n        /* \"#utility.yul\":1631:1680   */\n      iszero\n      tag_178\n      jumpi\n        /* \"#utility.yul\":1676:1677   */\n      0x00\n        /* \"#utility.yul\":1673:1674   */\n      dup1\n        /* \"#utility.yul\":1666:1678   */\n      revert\n        /* \"#utility.yul\":1631:1680   */\n    tag_178:\n        /* \"#utility.yul\":1702:1719   */\n      tag_179\n      tag_153\n      jump\t// in\n    tag_179:\n        /* \"#utility.yul\":1755:1757   */\n      dup3\n        /* \"#utility.yul\":1742:1758   */\n      calldataload\n        /* \"#utility.yul\":1735:1740   */\n      dup2\n        /* \"#utility.yul\":1728:1759   */\n      mstore\n        /* \"#utility.yul\":1812:1814   */\n      0x20\n        /* \"#utility.yul\":1808:1810   */\n      dup4\n        /* \"#utility.yul\":1804:1815   */\n      add\n        /* \"#utility.yul\":1791:1816   */\n      calldataload\n        /* \"#utility.yul\":1786:1788   */\n      0x20\n        /* \"#utility.yul\":1779:1784   */\n      dup3\n        /* \"#utility.yul\":1775:1789   */\n      add\n        /* \"#utility.yul\":1768:1817   */\n      mstore\n        /* \"#utility.yul\":1863:1865   */\n      0x40\n        /* \"#utility.yul\":1859:1861   */\n      dup4\n        /* \"#utility.yul\":1855:1866   */\n      add\n        /* \"#utility.yul\":1842:1867   */\n      calldataload\n        /* \"#utility.yul\":1892:1894   */\n      dup3\n        /* \"#utility.yul\":1882:1890   */\n      dup2\n        /* \"#utility.yul\":1879:1895   */\n      gt\n        /* \"#utility.yul\":1876:1912   */\n      iszero\n      tag_180\n      jumpi\n        /* \"#utility.yul\":1908:1909   */\n      0x00\n        /* \"#utility.yul\":1905:1906   */\n      dup1\n        /* \"#utility.yul\":1898:1910   */\n      revert\n        /* \"#utility.yul\":1876:1912   */\n    tag_180:\n        /* \"#utility.yul\":1944:1989   */\n      tag_181\n        /* \"#utility.yul\":1981:1988   */\n      dup9\n        /* \"#utility.yul\":1970:1978   */\n      dup3\n        /* \"#utility.yul\":1966:1968   */\n      dup7\n        /* \"#utility.yul\":1962:1979   */\n      add\n        /* \"#utility.yul\":1944:1989   */\n      tag_154\n      jump\t// in\n    tag_181:\n        /* \"#utility.yul\":1939:1941   */\n      0x40\n        /* \"#utility.yul\":1932:1937   */\n      dup4\n        /* \"#utility.yul\":1928:1942   */\n      add\n        /* \"#utility.yul\":1921:1990   */\n      mstore\n      pop\n        /* \"#utility.yul\":2043:2045   */\n      0x60\n        /* \"#utility.yul\":2039:2041   */\n      dup4\n        /* \"#utility.yul\":2035:2046   */\n      add\n        /* \"#utility.yul\":2022:2047   */\n      calldataload\n        /* \"#utility.yul\":2017:2019   */\n      0x60\n        /* \"#utility.yul\":2010:2015   */\n      dup3\n        /* \"#utility.yul\":2006:2020   */\n      add\n        /* \"#utility.yul\":1999:2048   */\n      mstore\n        /* \"#utility.yul\":2094:2097   */\n      0x80\n        /* \"#utility.yul\":2090:2092   */\n      dup4\n        /* \"#utility.yul\":2086:2098   */\n      add\n        /* \"#utility.yul\":2073:2099   */\n      calldataload\n        /* \"#utility.yul\":2124:2126   */\n      dup3\n        /* \"#utility.yul\":2114:2122   */\n      dup2\n        /* \"#utility.yul\":2111:2127   */\n      gt\n        /* \"#utility.yul\":2108:2144   */\n      iszero\n      tag_182\n      jumpi\n        /* \"#utility.yul\":2140:2141   */\n      0x00\n        /* \"#utility.yul\":2137:2138   */\n      dup1\n        /* \"#utility.yul\":2130:2142   */\n      revert\n        /* \"#utility.yul\":2108:2144   */\n    tag_182:\n        /* \"#utility.yul\":2177:2222   */\n      tag_183\n        /* \"#utility.yul\":2214:2221   */\n      dup9\n        /* \"#utility.yul\":2203:2211   */\n      dup3\n        /* \"#utility.yul\":2199:2201   */\n      dup7\n        /* \"#utility.yul\":2195:2212   */\n      add\n        /* \"#utility.yul\":2177:2222   */\n      tag_154\n      jump\t// in\n    tag_183:\n        /* \"#utility.yul\":2171:2174   */\n      0x80\n        /* \"#utility.yul\":2164:2169   */\n      dup4\n        /* \"#utility.yul\":2160:2175   */\n      add\n        /* \"#utility.yul\":2153:2223   */\n      mstore\n      pop\n        /* \"#utility.yul\":2269:2272   */\n      0xa0\n        /* \"#utility.yul\":2265:2267   */\n      dup4\n        /* \"#utility.yul\":2261:2273   */\n      add\n        /* \"#utility.yul\":2248:2274   */\n      calldataload\n        /* \"#utility.yul\":2299:2301   */\n      dup3\n        /* \"#utility.yul\":2289:2297   */\n      dup2\n        /* \"#utility.yul\":2286:2302   */\n      gt\n        /* \"#utility.yul\":2283:2319   */\n      iszero\n      tag_184\n      jumpi\n        /* \"#utility.yul\":2315:2316   */\n      0x00\n        /* \"#utility.yul\":2312:2313   */\n      dup1\n        /* \"#utility.yul\":2305:2317   */\n      revert\n        /* \"#utility.yul\":2283:2319   */\n    tag_184:\n        /* \"#utility.yul\":2352:2397   */\n      tag_185\n        /* \"#utility.yul\":2389:2396   */\n      dup9\n        /* \"#utility.yul\":2378:2386   */\n      dup3\n        /* \"#utility.yul\":2374:2376   */\n      dup7\n        /* \"#utility.yul\":2370:2387   */\n      add\n        /* \"#utility.yul\":2352:2397   */\n      tag_154\n      jump\t// in\n    tag_185:\n        /* \"#utility.yul\":2346:2349   */\n      0xa0\n        /* \"#utility.yul\":2339:2344   */\n      dup4\n        /* \"#utility.yul\":2335:2350   */\n      add\n        /* \"#utility.yul\":2328:2398   */\n      mstore\n      pop\n        /* \"#utility.yul\":2444:2447   */\n      0xc0\n        /* \"#utility.yul\":2440:2442   */\n      dup4\n        /* \"#utility.yul\":2436:2448   */\n      add\n        /* \"#utility.yul\":2423:2449   */\n      calldataload\n        /* \"#utility.yul\":2474:2476   */\n      dup3\n        /* \"#utility.yul\":2464:2472   */\n      dup2\n        /* \"#utility.yul\":2461:2477   */\n      gt\n        /* \"#utility.yul\":2458:2494   */\n      iszero\n      tag_186\n      jumpi\n        /* \"#utility.yul\":2490:2491   */\n      0x00\n        /* \"#utility.yul\":2487:2488   */\n      dup1\n        /* \"#utility.yul\":2480:2492   */\n      revert\n        /* \"#utility.yul\":2458:2494   */\n    tag_186:\n        /* \"#utility.yul\":2527:2572   */\n      tag_187\n        /* \"#utility.yul\":2564:2571   */\n      dup9\n        /* \"#utility.yul\":2553:2561   */\n      dup3\n        /* \"#utility.yul\":2549:2551   */\n      dup7\n        /* \"#utility.yul\":2545:2562   */\n      add\n        /* \"#utility.yul\":2527:2572   */\n      tag_154\n      jump\t// in\n    tag_187:\n        /* \"#utility.yul\":2521:2524   */\n      0xc0\n        /* \"#utility.yul\":2514:2519   */\n      dup4\n        /* \"#utility.yul\":2510:2525   */\n      add\n        /* \"#utility.yul\":2503:2573   */\n      mstore\n      pop\n        /* \"#utility.yul\":2606:2642   */\n      tag_188\n        /* \"#utility.yul\":2637:2640   */\n      0xe0\n        /* \"#utility.yul\":2633:2635   */\n      dup5\n        /* \"#utility.yul\":2629:2641   */\n      add\n        /* \"#utility.yul\":2606:2642   */\n      tag_155\n      jump\t// in\n    tag_188:\n        /* \"#utility.yul\":2600:2603   */\n      0xe0\n        /* \"#utility.yul\":2589:2604   */\n      dup3\n      add\n        /* \"#utility.yul\":2582:2643   */\n      mstore\n        /* \"#utility.yul\":2593:2598   */\n      swap7\n        /* \"#utility.yul\":2714:2716   */\n      0x20\n        /* \"#utility.yul\":2699:2717   */\n      swap6\n      swap1\n      swap6\n      add\n        /* \"#utility.yul\":2686:2718   */\n      calldataload\n      swap6\n      pop\n      pop\n      pop\n      pop\n      pop\n        /* \"#utility.yul\":1277:2724   */\n      jump\t// out\n        /* \"#utility.yul\":2911:3247   */\n    tag_20:\n        /* \"#utility.yul\":2998:3004   */\n      0x00\n        /* \"#utility.yul\":3006:3012   */\n      dup1\n        /* \"#utility.yul\":3014:3020   */\n      0x00\n        /* \"#utility.yul\":3067:3069   */\n      0x60\n        /* \"#utility.yul\":3055:3064   */\n      dup5\n        /* \"#utility.yul\":3046:3053   */\n      dup7\n        /* \"#utility.yul\":3042:3065   */\n      sub\n        /* \"#utility.yul\":3038:3070   */\n      slt\n        /* \"#utility.yul\":3035:3087   */\n      iszero\n      tag_191\n      jumpi\n        /* \"#utility.yul\":3083:3084   */\n      0x00\n        /* \"#utility.yul\":3080:3081   */\n      dup1\n        /* \"#utility.yul\":3073:3085   */\n      revert\n        /* \"#utility.yul\":3035:3087   */\n    tag_191:\n        /* \"#utility.yul\":3119:3128   */\n      dup4\n        /* \"#utility.yul\":3106:3129   */\n      calldataload\n        /* \"#utility.yul\":3096:3129   */\n      swap3\n      pop\n        /* \"#utility.yul\":3176:3178   */\n      0x20\n        /* \"#utility.yul\":3165:3174   */\n      dup5\n        /* \"#utility.yul\":3161:3179   */\n      add\n        /* \"#utility.yul\":3148:3180   */\n      calldataload\n        /* \"#utility.yul\":3138:3180   */\n      swap2\n      pop\n        /* \"#utility.yul\":3199:3241   */\n      tag_192\n        /* \"#utility.yul\":3237:3239   */\n      0x40\n        /* \"#utility.yul\":3226:3235   */\n      dup6\n        /* \"#utility.yul\":3222:3240   */\n      add\n        /* \"#utility.yul\":3199:3241   */\n      tag_155\n      jump\t// in\n    tag_192:\n        /* \"#utility.yul\":3189:3241   */\n      swap1\n      pop\n        /* \"#utility.yul\":2911:3247   */\n      swap3\n      pop\n      swap3\n      pop\n      swap3\n      jump\t// out\n        /* \"#utility.yul\":3652:3900   */\n    tag_32:\n        /* \"#utility.yul\":3720:3726   */\n      0x00\n        /* \"#utility.yul\":3728:3734   */\n      dup1\n        /* \"#utility.yul\":3781:3783   */\n      0x40\n        /* \"#utility.yul\":3769:3778   */\n      dup4\n        /* \"#utility.yul\":3760:3767   */\n      dup6\n        /* \"#utility.yul\":3756:3779   */\n      sub\n        /* \"#utility.yul\":3752:3784   */\n      slt\n        /* \"#utility.yul\":3749:3801   */\n      iszero\n      tag_196\n      jumpi\n        /* \"#utility.yul\":3797:3798   */\n      0x00\n        /* \"#utility.yul\":3794:3795   */\n      dup1\n        /* \"#utility.yul\":3787:3799   */\n      revert\n        /* \"#utility.yul\":3749:3801   */\n    tag_196:\n      pop\n      pop\n        /* \"#utility.yul\":3820:3843   */\n      dup1\n      calldataload\n      swap3\n        /* \"#utility.yul\":3890:3892   */\n      0x20\n        /* \"#utility.yul\":3875:3893   */\n      swap1\n      swap2\n      add\n        /* \"#utility.yul\":3862:3894   */\n      calldataload\n      swap2\n      pop\n        /* \"#utility.yul\":3652:3900   */\n      jump\t// out\n        /* \"#utility.yul\":3905:4328   */\n    tag_156:\n        /* \"#utility.yul\":3947:3950   */\n      0x00\n        /* \"#utility.yul\":3985:3990   */\n      dup2\n        /* \"#utility.yul\":3979:3991   */\n      mload\n        /* \"#utility.yul\":4012:4018   */\n      dup1\n        /* \"#utility.yul\":4007:4010   */\n      dup5\n        /* \"#utility.yul\":4000:4019   */\n      mstore\n        /* \"#utility.yul\":4037:4038   */\n      0x00\n        /* \"#utility.yul\":4047:4209   */\n    tag_198:\n        /* \"#utility.yul\":4061:4067   */\n      dup2\n        /* \"#utility.yul\":4058:4059   */\n      dup2\n        /* \"#utility.yul\":4055:4068   */\n      lt\n        /* \"#utility.yul\":4047:4209   */\n      iszero\n      tag_200\n      jumpi\n        /* \"#utility.yul\":4123:4127   */\n      0x20\n        /* \"#utility.yul\":4179:4192   */\n      dup2\n      dup6\n      add\n        /* \"#utility.yul\":4175:4197   */\n      dup2\n      add\n        /* \"#utility.yul\":4169:4198   */\n      mload\n        /* \"#utility.yul\":4151:4162   */\n      dup7\n      dup4\n      add\n        /* \"#utility.yul\":4147:4167   */\n      dup3\n      add\n        /* \"#utility.yul\":4140:4199   */\n      mstore\n        /* \"#utility.yul\":4076:4088   */\n      add\n        /* \"#utility.yul\":4047:4209   */\n      jump(tag_198)\n    tag_200:\n        /* \"#utility.yul\":4051:4054   */\n      pop\n        /* \"#utility.yul\":4254:4255   */\n      0x00\n        /* \"#utility.yul\":4247:4251   */\n      0x20\n        /* \"#utility.yul\":4238:4244   */\n      dup3\n        /* \"#utility.yul\":4233:4236   */\n      dup7\n        /* \"#utility.yul\":4229:4245   */\n      add\n        /* \"#utility.yul\":4225:4252   */\n      add\n        /* \"#utility.yul\":4218:4256   */\n      mstore\n        /* \"#utility.yul\":4317:4321   */\n      0x20\n        /* \"#utility.yul\":4310:4312   */\n      0x1f\n        /* \"#utility.yul\":4306:4313   */\n      not\n        /* \"#utility.yul\":4301:4303   */\n      0x1f\n        /* \"#utility.yul\":4293:4299   */\n      dup4\n        /* \"#utility.yul\":4289:4304   */\n      add\n        /* \"#utility.yul\":4285:4314   */\n      and\n        /* \"#utility.yul\":4280:4283   */\n      dup6\n        /* \"#utility.yul\":4276:4315   */\n      add\n        /* \"#utility.yul\":4272:4322   */\n      add\n        /* \"#utility.yul\":4265:4322   */\n      swap2\n      pop\n      pop\n        /* \"#utility.yul\":3905:4328   */\n      swap3\n      swap2\n      pop\n      pop\n      jump\t// out\n        /* \"#utility.yul\":4333:4460   */\n    tag_63:\n        /* \"#utility.yul\":4394:4404   */\n      0x4e487b71\n        /* \"#utility.yul\":4389:4392   */\n      0xe0\n        /* \"#utility.yul\":4385:4405   */\n      shl\n        /* \"#utility.yul\":4382:4383   */\n      0x00\n        /* \"#utility.yul\":4375:4406   */\n      mstore\n        /* \"#utility.yul\":4425:4429   */\n      0x21\n        /* \"#utility.yul\":4422:4423   */\n      0x04\n        /* \"#utility.yul\":4415:4430   */\n      mstore\n        /* \"#utility.yul\":4449:4453   */\n      0x24\n        /* \"#utility.yul\":4446:4447   */\n      0x00\n        /* \"#utility.yul\":4439:4454   */\n      revert\n        /* \"#utility.yul\":4465:4699   */\n    tag_157:\n        /* \"#utility.yul\":4543:4544   */\n      0x03\n        /* \"#utility.yul\":4536:4541   */\n      dup2\n        /* \"#utility.yul\":4533:4545   */\n      lt\n        /* \"#utility.yul\":4523:4666   */\n      tag_203\n      jumpi\n        /* \"#utility.yul\":4588:4598   */\n      0x4e487b71\n        /* \"#utility.yul\":4583:4586   */\n      0xe0\n        /* \"#utility.yul\":4579:4599   */\n      shl\n        /* \"#utility.yul\":4576:4577   */\n      0x00\n        /* \"#utility.yul\":4569:4600   */\n      mstore\n        /* \"#utility.yul\":4623:4627   */\n      0x21\n        /* \"#utility.yul\":4620:4621   */\n      0x04\n        /* \"#utility.yul\":4613:4628   */\n      mstore\n        /* \"#utility.yul\":4651:4655   */\n      0x24\n        /* \"#utility.yul\":4648:4649   */\n      0x00\n        /* \"#utility.yul\":4641:4656   */\n      revert\n        /* \"#utility.yul\":4523:4666   */\n    tag_203:\n        /* \"#utility.yul\":4675:4693   */\n      swap1\n      mstore\n        /* \"#utility.yul\":4465:4699   */\n      jump\t// out\n        /* \"#utility.yul\":4704:5990   */\n    tag_39:\n        /* \"#utility.yul\":4891:4893   */\n      0x20\n        /* \"#utility.yul\":4880:4889   */\n      dup2\n        /* \"#utility.yul\":4873:4894   */\n      mstore\n        /* \"#utility.yul\":4936:4942   */\n      dup2\n        /* \"#utility.yul\":4930:4943   */\n      mload\n        /* \"#utility.yul\":4925:4927   */\n      0x20\n        /* \"#utility.yul\":4914:4923   */\n      dup3\n        /* \"#utility.yul\":4910:4928   */\n      add\n        /* \"#utility.yul\":4903:4944   */\n      mstore\n        /* \"#utility.yul\":4998:5000   */\n      0x20\n        /* \"#utility.yul\":4990:4996   */\n      dup3\n        /* \"#utility.yul\":4986:5001   */\n      add\n        /* \"#utility.yul\":4980:5002   */\n      mload\n        /* \"#utility.yul\":4975:4977   */\n      0x40\n        /* \"#utility.yul\":4964:4973   */\n      dup3\n        /* \"#utility.yul\":4960:4978   */\n      add\n        /* \"#utility.yul\":4953:5003   */\n      mstore\n        /* \"#utility.yul\":4854:4858   */\n      0x00\n        /* \"#utility.yul\":5050:5052   */\n      0x40\n        /* \"#utility.yul\":5042:5048   */\n      dup4\n        /* \"#utility.yul\":5038:5053   */\n      add\n        /* \"#utility.yul\":5032:5054   */\n      mload\n        /* \"#utility.yul\":5073:5079   */\n      0x0100\n        /* \"#utility.yul\":5115:5117   */\n      dup1\n        /* \"#utility.yul\":5110:5112   */\n      0x60\n        /* \"#utility.yul\":5099:5108   */\n      dup6\n        /* \"#utility.yul\":5095:5113   */\n      add\n        /* \"#utility.yul\":5088:5118   */\n      mstore\n        /* \"#utility.yul\":5141:5193   */\n      tag_205\n        /* \"#utility.yul\":5188:5191   */\n      0x0120\n        /* \"#utility.yul\":5177:5186   */\n      dup6\n        /* \"#utility.yul\":5173:5192   */\n      add\n        /* \"#utility.yul\":5159:5171   */\n      dup4\n        /* \"#utility.yul\":5141:5193   */\n      tag_156\n      jump\t// in\n    tag_205:\n        /* \"#utility.yul\":5127:5193   */\n      swap2\n      pop\n        /* \"#utility.yul\":5248:5250   */\n      0x60\n        /* \"#utility.yul\":5240:5246   */\n      dup6\n        /* \"#utility.yul\":5236:5251   */\n      add\n        /* \"#utility.yul\":5230:5252   */\n      mload\n        /* \"#utility.yul\":5224:5227   */\n      0x80\n        /* \"#utility.yul\":5213:5222   */\n      dup6\n        /* \"#utility.yul\":5209:5228   */\n      add\n        /* \"#utility.yul\":5202:5253   */\n      mstore\n        /* \"#utility.yul\":5302:5305   */\n      0x80\n        /* \"#utility.yul\":5294:5300   */\n      dup6\n        /* \"#utility.yul\":5290:5306   */\n      add\n        /* \"#utility.yul\":5284:5307   */\n      mload\n        /* \"#utility.yul\":5330:5332   */\n      0x1f\n        /* \"#utility.yul\":5326:5333   */\n      not\n        /* \"#utility.yul\":5398:5400   */\n      dup1\n        /* \"#utility.yul\":5386:5395   */\n      dup7\n        /* \"#utility.yul\":5378:5384   */\n      dup6\n        /* \"#utility.yul\":5374:5396   */\n      sub\n        /* \"#utility.yul\":5370:5401   */\n      add\n        /* \"#utility.yul\":5364:5367   */\n      0xa0\n        /* \"#utility.yul\":5353:5362   */\n      dup8\n        /* \"#utility.yul\":5349:5368   */\n      add\n        /* \"#utility.yul\":5342:5402   */\n      mstore\n        /* \"#utility.yul\":5425:5466   */\n      tag_206\n        /* \"#utility.yul\":5459:5465   */\n      dup5\n        /* \"#utility.yul\":5443:5457   */\n      dup4\n        /* \"#utility.yul\":5425:5466   */\n      tag_156\n      jump\t// in\n    tag_206:\n        /* \"#utility.yul\":5411:5466   */\n      swap4\n      pop\n        /* \"#utility.yul\":5515:5518   */\n      0xa0\n        /* \"#utility.yul\":5507:5513   */\n      dup8\n        /* \"#utility.yul\":5503:5519   */\n      add\n        /* \"#utility.yul\":5497:5520   */\n      mload\n        /* \"#utility.yul\":5475:5520   */\n      swap2\n      pop\n        /* \"#utility.yul\":5585:5587   */\n      dup1\n        /* \"#utility.yul\":5573:5582   */\n      dup7\n        /* \"#utility.yul\":5565:5571   */\n      dup6\n        /* \"#utility.yul\":5561:5583   */\n      sub\n        /* \"#utility.yul\":5557:5588   */\n      add\n        /* \"#utility.yul\":5551:5554   */\n      0xc0\n        /* \"#utility.yul\":5540:5549   */\n      dup8\n        /* \"#utility.yul\":5536:5555   */\n      add\n        /* \"#utility.yul\":5529:5589   */\n      mstore\n        /* \"#utility.yul\":5612:5653   */\n      tag_207\n        /* \"#utility.yul\":5646:5652   */\n      dup5\n        /* \"#utility.yul\":5630:5644   */\n      dup4\n        /* \"#utility.yul\":5612:5653   */\n      tag_156\n      jump\t// in\n    tag_207:\n        /* \"#utility.yul\":5598:5653   */\n      swap4\n      pop\n        /* \"#utility.yul\":5702:5705   */\n      0xc0\n        /* \"#utility.yul\":5694:5700   */\n      dup8\n        /* \"#utility.yul\":5690:5706   */\n      add\n        /* \"#utility.yul\":5684:5707   */\n      mload\n        /* \"#utility.yul\":5662:5707   */\n      swap2\n      pop\n        /* \"#utility.yul\":5772:5774   */\n      dup1\n        /* \"#utility.yul\":5760:5769   */\n      dup7\n        /* \"#utility.yul\":5752:5758   */\n      dup6\n        /* \"#utility.yul\":5748:5770   */\n      sub\n        /* \"#utility.yul\":5744:5775   */\n      add\n        /* \"#utility.yul\":5738:5741   */\n      0xe0\n        /* \"#utility.yul\":5727:5736   */\n      dup8\n        /* \"#utility.yul\":5723:5742   */\n      add\n        /* \"#utility.yul\":5716:5776   */\n      mstore\n      pop\n        /* \"#utility.yul\":5799:5840   */\n      tag_208\n        /* \"#utility.yul\":5833:5839   */\n      dup4\n        /* \"#utility.yul\":5817:5831   */\n      dup3\n        /* \"#utility.yul\":5799:5840   */\n      tag_156\n      jump\t// in\n    tag_208:\n        /* \"#utility.yul\":5785:5840   */\n      swap3\n      pop\n      pop\n        /* \"#utility.yul\":5889:5892   */\n      0xe0\n        /* \"#utility.yul\":5881:5887   */\n      dup6\n        /* \"#utility.yul\":5877:5893   */\n      add\n        /* \"#utility.yul\":5871:5894   */\n      mload\n        /* \"#utility.yul\":5903:5961   */\n      tag_209\n        /* \"#utility.yul\":5957:5959   */\n      dup3\n        /* \"#utility.yul\":5946:5955   */\n      dup7\n        /* \"#utility.yul\":5942:5960   */\n      add\n        /* \"#utility.yul\":5926:5940   */\n      dup3\n        /* \"#utility.yul\":5903:5961   */\n      tag_157\n      jump\t// in\n    tag_209:\n      pop\n        /* \"#utility.yul\":5978:5984   */\n      swap1\n      swap5\n        /* \"#utility.yul\":4704:5990   */\n      swap4\n      pop\n      pop\n      pop\n      pop\n      jump\t// out\n        /* \"#utility.yul\":5995:6281   */\n    tag_42:\n        /* \"#utility.yul\":6054:6060   */\n      0x00\n        /* \"#utility.yul\":6107:6109   */\n      0x20\n        /* \"#utility.yul\":6095:6104   */\n      dup3\n        /* \"#utility.yul\":6086:6093   */\n      dup5\n        /* \"#utility.yul\":6082:6105   */\n      sub\n        /* \"#utility.yul\":6078:6110   */\n      slt\n        /* \"#utility.yul\":6075:6127   */\n      iszero\n      tag_211\n      jumpi\n        /* \"#utility.yul\":6123:6124   */\n      0x00\n        /* \"#utility.yul\":6120:6121   */\n      dup1\n        /* \"#utility.yul\":6113:6125   */\n      revert\n        /* \"#utility.yul\":6075:6127   */\n    tag_211:\n        /* \"#utility.yul\":6149:6172   */\n      dup2\n      calldataload\n      sub(shl(0xa0, 0x01), 0x01)\n        /* \"#utility.yul\":6201:6232   */\n      dup2\n      and\n        /* \"#utility.yul\":6191:6233   */\n      dup2\n      eq\n        /* \"#utility.yul\":6181:6251   */\n      tag_212\n      jumpi\n        /* \"#utility.yul\":6247:6248   */\n      0x00\n        /* \"#utility.yul\":6244:6245   */\n      dup1\n        /* \"#utility.yul\":6237:6249   */\n      revert\n        /* \"#utility.yul\":6181:6251   */\n    tag_212:\n        /* \"#utility.yul\":6270:6275   */\n      swap4\n        /* \"#utility.yul\":5995:6281   */\n      swap3\n      pop\n      pop\n      pop\n      jump\t// out\n        /* \"#utility.yul\":6286:6466   */\n    tag_46:\n        /* \"#utility.yul\":6345:6351   */\n      0x00\n        /* \"#utility.yul\":6398:6400   */\n      0x20\n        /* \"#utility.yul\":6386:6395   */\n      dup3\n        /* \"#utility.yul\":6377:6384   */\n      dup5\n        /* \"#utility.yul\":6373:6396   */\n      sub\n        /* \"#utility.yul\":6369:6401   */\n      slt\n        /* \"#utility.yul\":6366:6418   */\n      iszero\n      tag_214\n      jumpi\n        /* \"#utility.yul\":6414:6415   */\n      0x00\n        /* \"#utility.yul\":6411:6412   */\n      dup1\n        /* \"#utility.yul\":6404:6416   */\n      revert\n        /* \"#utility.yul\":6366:6418   */\n    tag_214:\n      pop\n        /* \"#utility.yul\":6437:6460   */\n      calldataload\n      swap2\n        /* \"#utility.yul\":6286:6466   */\n      swap1\n      pop\n      jump\t// out\n        /* \"#utility.yul\":6471:6878   */\n    tag_52:\n        /* \"#utility.yul\":6673:6675   */\n      0x20\n        /* \"#utility.yul\":6655:6676   */\n      dup1\n      dup3\n      mstore\n        /* \"#utility.yul\":6712:6714   */\n      0x2b\n        /* \"#utility.yul\":6692:6710   */\n      swap1\n      dup3\n      add\n        /* \"#utility.yul\":6685:6715   */\n      mstore\n        /* \"#utility.yul\":6751:6785   */\n      0x4461746162617365204c697374427573696e657373506f73743a205365637265\n        /* \"#utility.yul\":6746:6748   */\n      0x40\n        /* \"#utility.yul\":6731:6749   */\n      dup3\n      add\n        /* \"#utility.yul\":6724:6786   */\n      mstore\n      shl(0xa9, 0x3a1035b2bc9032b93937b9)\n        /* \"#utility.yul\":6817:6819   */\n      0x60\n        /* \"#utility.yul\":6802:6820   */\n      dup3\n      add\n        /* \"#utility.yul\":6795:6836   */\n      mstore\n        /* \"#utility.yul\":6868:6871   */\n      0x80\n        /* \"#utility.yul\":6853:6872   */\n      add\n      swap1\n        /* \"#utility.yul\":6471:6878   */\n      jump\t// out\n        /* \"#utility.yul\":6883:7115   */\n    tag_55:\n        /* \"#utility.yul\":6922:6925   */\n      0x00\n        /* \"#utility.yul\":6943:6960   */\n      0x01\n      dup3\n      add\n        /* \"#utility.yul\":6940:7080   */\n      tag_217\n      jumpi\n        /* \"#utility.yul\":7002:7012   */\n      0x4e487b71\n        /* \"#utility.yul\":6997:7000   */\n      0xe0\n        /* \"#utility.yul\":6993:7013   */\n      shl\n        /* \"#utility.yul\":6990:6991   */\n      0x00\n        /* \"#utility.yul\":6983:7014   */\n      mstore\n        /* \"#utility.yul\":7037:7041   */\n      0x11\n        /* \"#utility.yul\":7034:7035   */\n      0x04\n        /* \"#utility.yul\":7027:7042   */\n      mstore\n        /* \"#utility.yul\":7065:7069   */\n      0x24\n        /* \"#utility.yul\":7062:7063   */\n      0x00\n        /* \"#utility.yul\":7055:7070   */\n      revert\n        /* \"#utility.yul\":6940:7080   */\n    tag_217:\n      pop\n        /* \"#utility.yul\":7107:7108   */\n      0x01\n        /* \"#utility.yul\":7096:7109   */\n      add\n      swap1\n        /* \"#utility.yul\":6883:7115   */\n      jump\t// out\n        /* \"#utility.yul\":7120:7500   */\n    tag_108:\n        /* \"#utility.yul\":7199:7200   */\n      0x01\n        /* \"#utility.yul\":7195:7207   */\n      dup2\n      dup2\n      shr\n      swap1\n        /* \"#utility.yul\":7242:7254   */\n      dup3\n      and\n      dup1\n        /* \"#utility.yul\":7263:7324   */\n      tag_219\n      jumpi\n        /* \"#utility.yul\":7317:7321   */\n      0x7f\n        /* \"#utility.yul\":7309:7315   */\n      dup3\n        /* \"#utility.yul\":7305:7322   */\n      and\n        /* \"#utility.yul\":7295:7322   */\n      swap2\n      pop\n        /* \"#utility.yul\":7263:7324   */\n    tag_219:\n        /* \"#utility.yul\":7370:7372   */\n      0x20\n        /* \"#utility.yul\":7362:7368   */\n      dup3\n        /* \"#utility.yul\":7359:7373   */\n      lt\n        /* \"#utility.yul\":7339:7357   */\n      dup2\n        /* \"#utility.yul\":7336:7374   */\n      sub\n        /* \"#utility.yul\":7333:7494   */\n      tag_143\n      jumpi\n        /* \"#utility.yul\":7416:7426   */\n      0x4e487b71\n        /* \"#utility.yul\":7411:7414   */\n      0xe0\n        /* \"#utility.yul\":7407:7427   */\n      shl\n        /* \"#utility.yul\":7404:7405   */\n      0x00\n        /* \"#utility.yul\":7397:7428   */\n      mstore\n        /* \"#utility.yul\":7451:7455   */\n      0x22\n        /* \"#utility.yul\":7448:7449   */\n      0x04\n        /* \"#utility.yul\":7441:7456   */\n      mstore\n        /* \"#utility.yul\":7479:7483   */\n      0x24\n        /* \"#utility.yul\":7476:7477   */\n      0x00\n        /* \"#utility.yul\":7469:7484   */\n      revert\n        /* \"#utility.yul\":7631:8176   */\n    tag_159:\n        /* \"#utility.yul\":7733:7735   */\n      0x1f\n        /* \"#utility.yul\":7728:7731   */\n      dup3\n        /* \"#utility.yul\":7725:7736   */\n      gt\n        /* \"#utility.yul\":7722:8170   */\n      iszero\n      tag_223\n      jumpi\n        /* \"#utility.yul\":7769:7770   */\n      0x00\n        /* \"#utility.yul\":7794:7799   */\n      dup2\n        /* \"#utility.yul\":7790:7792   */\n      dup2\n        /* \"#utility.yul\":7783:7800   */\n      mstore\n        /* \"#utility.yul\":7839:7843   */\n      0x20\n        /* \"#utility.yul\":7835:7837   */\n      dup2\n        /* \"#utility.yul\":7825:7844   */\n      keccak256\n        /* \"#utility.yul\":7909:7911   */\n      0x1f\n        /* \"#utility.yul\":7897:7907   */\n      dup6\n        /* \"#utility.yul\":7893:7912   */\n      add\n        /* \"#utility.yul\":7890:7891   */\n      0x05\n        /* \"#utility.yul\":7886:7913   */\n      shr\n        /* \"#utility.yul\":7880:7884   */\n      dup2\n        /* \"#utility.yul\":7876:7914   */\n      add\n        /* \"#utility.yul\":7945:7949   */\n      0x20\n        /* \"#utility.yul\":7933:7943   */\n      dup7\n        /* \"#utility.yul\":7930:7950   */\n      lt\n        /* \"#utility.yul\":7927:7974   */\n      iszero\n      tag_224\n      jumpi\n      pop\n        /* \"#utility.yul\":7968:7972   */\n      dup1\n        /* \"#utility.yul\":7927:7974   */\n    tag_224:\n        /* \"#utility.yul\":8023:8025   */\n      0x1f\n        /* \"#utility.yul\":8018:8021   */\n      dup6\n        /* \"#utility.yul\":8014:8026   */\n      add\n        /* \"#utility.yul\":8011:8012   */\n      0x05\n        /* \"#utility.yul\":8007:8027   */\n      shr\n        /* \"#utility.yul\":8001:8005   */\n      dup3\n        /* \"#utility.yul\":7997:8028   */\n      add\n        /* \"#utility.yul\":7987:8028   */\n      swap2\n      pop\n        /* \"#utility.yul\":8078:8160   */\n    tag_225:\n        /* \"#utility.yul\":8096:8098   */\n      dup2\n        /* \"#utility.yul\":8089:8094   */\n      dup2\n        /* \"#utility.yul\":8086:8099   */\n      lt\n        /* \"#utility.yul\":8078:8160   */\n      iszero\n      tag_227\n      jumpi\n        /* \"#utility.yul\":8141:8158   */\n      dup3\n      dup2\n      sstore\n        /* \"#utility.yul\":8122:8123   */\n      0x01\n        /* \"#utility.yul\":8111:8124   */\n      add\n        /* \"#utility.yul\":8078:8160   */\n      jump(tag_225)\n    tag_227:\n        /* \"#utility.yul\":8082:8085   */\n      pop\n      pop\n      pop\n        /* \"#utility.yul\":7722:8170   */\n    tag_223:\n        /* \"#utility.yul\":7631:8176   */\n      pop\n      pop\n      pop\n      jump\t// out\n        /* \"#utility.yul\":8352:9704   */\n    tag_57:\n        /* \"#utility.yul\":8478:8481   */\n      dup2\n        /* \"#utility.yul\":8472:8482   */\n      mload\n        /* \"#utility.yul\":8505:8523   */\n      0xffffffffffffffff\n        /* \"#utility.yul\":8497:8503   */\n      dup2\n        /* \"#utility.yul\":8494:8524   */\n      gt\n        /* \"#utility.yul\":8491:8547   */\n      iszero\n      tag_231\n      jumpi\n        /* \"#utility.yul\":8527:8545   */\n      tag_231\n      tag_152\n      jump\t// in\n    tag_231:\n        /* \"#utility.yul\":8556:8653   */\n      tag_232\n        /* \"#utility.yul\":8646:8652   */\n      dup2\n        /* \"#utility.yul\":8606:8644   */\n      tag_233\n        /* \"#utility.yul\":8638:8642   */\n      dup5\n        /* \"#utility.yul\":8632:8643   */\n      sload\n        /* \"#utility.yul\":8606:8644   */\n      tag_108\n      jump\t// in\n    tag_233:\n        /* \"#utility.yul\":8600:8604   */\n      dup5\n        /* \"#utility.yul\":8556:8653   */\n      tag_159\n      jump\t// in\n    tag_232:\n        /* \"#utility.yul\":8708:8712   */\n      0x20\n      dup1\n        /* \"#utility.yul\":8772:8774   */\n      0x1f\n        /* \"#utility.yul\":8761:8775   */\n      dup4\n      gt\n        /* \"#utility.yul\":8789:8790   */\n      0x01\n        /* \"#utility.yul\":8784:9447   */\n      dup2\n      eq\n      tag_235\n      jumpi\n        /* \"#utility.yul\":9491:9492   */\n      0x00\n        /* \"#utility.yul\":9508:9514   */\n      dup5\n        /* \"#utility.yul\":9505:9594   */\n      iszero\n      tag_236\n      jumpi\n      pop\n        /* \"#utility.yul\":9560:9579   */\n      dup6\n      dup4\n      add\n        /* \"#utility.yul\":9554:9580   */\n      mload\n        /* \"#utility.yul\":9505:9594   */\n    tag_236:\n      not(0x00)\n        /* \"#utility.yul\":8309:8310   */\n      0x03\n        /* \"#utility.yul\":8305:8316   */\n      dup7\n      swap1\n      shl\n        /* \"#utility.yul\":8301:8325   */\n      shr\n        /* \"#utility.yul\":8297:8326   */\n      not\n        /* \"#utility.yul\":8287:8327   */\n      and\n        /* \"#utility.yul\":8333:8334   */\n      0x01\n        /* \"#utility.yul\":8329:8340   */\n      dup6\n      swap1\n      shl\n        /* \"#utility.yul\":8284:8341   */\n      or\n        /* \"#utility.yul\":9607:9688   */\n      dup6\n      sstore\n        /* \"#utility.yul\":8754:9698   */\n      jump(tag_227)\n        /* \"#utility.yul\":8784:9447   */\n    tag_235:\n        /* \"#utility.yul\":7578:7579   */\n      0x00\n        /* \"#utility.yul\":7571:7585   */\n      dup6\n      dup2\n      mstore\n        /* \"#utility.yul\":7615:7619   */\n      0x20\n        /* \"#utility.yul\":7602:7620   */\n      dup2\n      keccak256\n      not(0x1f)\n        /* \"#utility.yul\":8820:8840   */\n      dup7\n      and\n      swap2\n        /* \"#utility.yul\":8938:9174   */\n    tag_239:\n        /* \"#utility.yul\":8952:8959   */\n      dup3\n        /* \"#utility.yul\":8949:8950   */\n      dup2\n        /* \"#utility.yul\":8946:8960   */\n      lt\n        /* \"#utility.yul\":8938:9174   */\n      iszero\n      tag_241\n      jumpi\n        /* \"#utility.yul\":9041:9060   */\n      dup9\n      dup7\n      add\n        /* \"#utility.yul\":9035:9061   */\n      mload\n        /* \"#utility.yul\":9020:9062   */\n      dup3\n      sstore\n        /* \"#utility.yul\":9133:9160   */\n      swap5\n      dup5\n      add\n      swap5\n        /* \"#utility.yul\":9101:9102   */\n      0x01\n        /* \"#utility.yul\":9089:9103   */\n      swap1\n      swap2\n      add\n      swap1\n        /* \"#utility.yul\":8968:8987   */\n      dup5\n      add\n        /* \"#utility.yul\":8938:9174   */\n      jump(tag_239)\n    tag_241:\n        /* \"#utility.yul\":8942:8945   */\n      pop\n        /* \"#utility.yul\":9202:9208   */\n      dup6\n        /* \"#utility.yul\":9193:9200   */\n      dup3\n        /* \"#utility.yul\":9190:9209   */\n      lt\n        /* \"#utility.yul\":9187:9388   */\n      iszero\n      tag_242\n      jumpi\n        /* \"#utility.yul\":9263:9282   */\n      dup8\n      dup6\n      add\n        /* \"#utility.yul\":9257:9283   */\n      mload\n      not(0x00)\n        /* \"#utility.yul\":9346:9347   */\n      0x03\n        /* \"#utility.yul\":9342:9356   */\n      dup9\n      swap1\n      shl\n        /* \"#utility.yul\":9358:9361   */\n      0xf8\n        /* \"#utility.yul\":9338:9362   */\n      and\n        /* \"#utility.yul\":9334:9371   */\n      shr\n        /* \"#utility.yul\":9330:9372   */\n      not\n        /* \"#utility.yul\":9315:9373   */\n      and\n        /* \"#utility.yul\":9300:9374   */\n      dup2\n      sstore\n        /* \"#utility.yul\":9187:9388   */\n    tag_242:\n      pop\n      pop\n      pop\n      pop\n      pop\n        /* \"#utility.yul\":9434:9435   */\n      0x01\n        /* \"#utility.yul\":9418:9432   */\n      swap1\n      dup2\n      shl\n        /* \"#utility.yul\":9414:9436   */\n      add\n        /* \"#utility.yul\":9401:9437   */\n      swap1\n      sstore\n      pop\n        /* \"#utility.yul\":8352:9704   */\n      jump\t// out\n        /* \"#utility.yul\":9709:10113   */\n    tag_72:\n        /* \"#utility.yul\":9911:9913   */\n      0x20\n        /* \"#utility.yul\":9893:9914   */\n      dup1\n      dup3\n      mstore\n        /* \"#utility.yul\":9950:9952   */\n      0x28\n        /* \"#utility.yul\":9930:9948   */\n      swap1\n      dup3\n      add\n        /* \"#utility.yul\":9923:9953   */\n      mstore\n        /* \"#utility.yul\":9989:10023   */\n      0x4461746162617365204c697374427573696e657373506f73743a20496e76616c\n        /* \"#utility.yul\":9984:9986   */\n      0x40\n        /* \"#utility.yul\":9969:9987   */\n      dup3\n      add\n        /* \"#utility.yul\":9962:10024   */\n      mstore\n      shl(0xc3, 0x0d2c840d2dcc8caf)\n        /* \"#utility.yul\":10055:10057   */\n      0x60\n        /* \"#utility.yul\":10040:10058   */\n      dup3\n      add\n        /* \"#utility.yul\":10033:10071   */\n      mstore\n        /* \"#utility.yul\":10103:10106   */\n      0x80\n        /* \"#utility.yul\":10088:10107   */\n      add\n      swap1\n        /* \"#utility.yul\":9709:10113   */\n      jump\t// out\n    stop\n    data_98ee57057fe0a523e70b51608fd55a37ff53d47c3b8dac495a5f45d45157392f 8e1604a838d0f1a9b2cda14a099e4ceb08e966cc6e05e8296f67b02d61a79f09\n\n    auxdata: 0xa2646970667358221220bc585ac99e024ca0c31636b710c3f664e7f6c1c9e5e5aa2b024dd82eeac3157664736f6c63430008100033\n}\n",
				"bytecode": {
					"linkReferences": {},
					"object": "6080604052600060025534801561001557600080fd5b50600080546001600160a01b03191633179055610fb4806100376000396000f3fe608060405234801561001057600080fd5b50600436106100885760003560e01c8063b615c00a1161005b578063b615c00a146100fb578063c78a67411461010e578063f2fde38b1461012e578063fd82e9dd1461014157600080fd5b8063116f4a231461008d5780634f71735b146100b357806383197ef0146100d65780638da5cb5b146100e0575b600080fd5b6100a061009b366004610a7e565b610154565b6040519081526020015b60405180910390f35b6100c66100c1366004610b8f565b610296565b60405190151581526020016100aa565b6100de610338565b005b6000546040516001600160a01b0390911681526020016100aa565b6100c6610109366004610bc4565b610343565b61012161011c366004610bc4565b6104b2565b6040516100aa9190610c64565b6100de61013c366004610d18565b6107d8565b6100a061014f366004610d48565b610851565b600081600080516020610f5f833981519152811461018d5760405162461bcd60e51b815260040161018490610d61565b60405180910390fd5b6002805490600061019d83610dac565b90915550506002805460208087018281526000928352600191829052604092839020885181559051918101919091559086015186928201906101df9082610e56565b5060608201516003820155608082015160048201906101fe9082610e56565b5060a082015160058201906102139082610e56565b5060c082015160068201906102289082610e56565b5060e082015160078201805460ff1916600183600281111561024c5761024c610c2c565b02179055509050507f0d5ee3861e0240d8a6d08d64672bed790ae1b3bc668354ffbf817ae2db0f3533846040516102839190610c64565b60405180910390a1505060025492915050565b600082600080516020610f5f83398151915281146102c65760405162461bcd60e51b815260040161018490610d61565b84806001111580156102da57506002548111155b6102f65760405162461bcd60e51b815260040161018490610f16565b60008681526001602081905260409091206007018054869260ff199091169083600281111561032757610327610c2c565b021790555060019695505050505050565b61034061088d565b30ff5b600081600080516020610f5f83398151915281146103735760405162461bcd60e51b815260040161018490610d61565b838060011115801561038757506002548111155b6103a35760405162461bcd60e51b815260040161018490610f16565b60408051610100810182526000808252602080830182815284518083018652838152848601908152606085018490528551808401875284815260808601528551808401875284815260a08601528551808401875284815260c0860152600160e086018190528b855292839052949092208351815591519082015591519091829160028201906104329082610e56565b5060608201516003820155608082015160048201906104519082610e56565b5060a082015160058201906104669082610e56565b5060c0820151600682019061047b9082610e56565b5060e082015160078201805460ff1916600183600281111561049f5761049f610c2c565b0217905550600198975050505050505050565b6104ba610948565b81600080516020610f5f83398151915281146104e85760405162461bcd60e51b815260040161018490610d61565b83806001111580156104fc57506002548111155b6105185760405162461bcd60e51b815260040161018490610f16565b6001600086815260200190815260200160002060405180610100016040529081600082015481526020016001820154815260200160028201805461055b90610dd3565b80601f016020809104026020016040519081016040528092919081815260200182805461058790610dd3565b80156105d45780601f106105a9576101008083540402835291602001916105d4565b820191906000526020600020905b8154815290600101906020018083116105b757829003601f168201915b50505050508152602001600382015481526020016004820180546105f790610dd3565b80601f016020809104026020016040519081016040528092919081815260200182805461062390610dd3565b80156106705780601f1061064557610100808354040283529160200191610670565b820191906000526020600020905b81548152906001019060200180831161065357829003601f168201915b5050505050815260200160058201805461068990610dd3565b80601f01602080910402602001604051908101604052809291908181526020018280546106b590610dd3565b80156107025780601f106106d757610100808354040283529160200191610702565b820191906000526020600020905b8154815290600101906020018083116106e557829003601f168201915b5050505050815260200160068201805461071b90610dd3565b80601f016020809104026020016040519081016040528092919081815260200182805461074790610dd3565b80156107945780601f1061076957610100808354040283529160200191610794565b820191906000526020600020905b81548152906001019060200180831161077757829003601f168201915b5050509183525050600782015460209091019060ff1660028111156107bb576107bb610c2c565b60028111156107cc576107cc610c2c565b90525095945050505050565b6107e061088d565b6001600160a01b0381166108455760405162461bcd60e51b815260206004820152602660248201527f4f776e61626c653a206e6577206f776e657220697320746865207a65726f206160448201526564647265737360d01b6064820152608401610184565b61084e816108f8565b50565b600081600080516020610f5f83398151915281146108815760405162461bcd60e51b815260040161018490610d61565b60025491505b50919050565b336108a06000546001600160a01b031690565b6001600160a01b0316146108f65760405162461bcd60e51b815260206004820181905260248201527f4f776e61626c653a2063616c6c6572206973206e6f7420746865206f776e65726044820152606401610184565b565b600080546001600160a01b038381166001600160a01b0319831681178455604051919092169283917f8be0079c531659141344cd1fd0a4f28419497f9722a3daafe3b4186f6b6457e09190a35050565b604051806101000160405280600081526020016000815260200160608152602001600081526020016060815260200160608152602001606081526020016000600281111561099857610998610c2c565b905290565b634e487b7160e01b600052604160045260246000fd5b604051610100810167ffffffffffffffff811182821017156109d7576109d761099d565b60405290565b600082601f8301126109ee57600080fd5b813567ffffffffffffffff80821115610a0957610a0961099d565b604051601f8301601f19908116603f01168101908282118183101715610a3157610a3161099d565b81604052838152866020858801011115610a4a57600080fd5b836020870160208301376000602085830101528094505050505092915050565b803560038110610a7957600080fd5b919050565b60008060408385031215610a9157600080fd5b823567ffffffffffffffff80821115610aa957600080fd5b908401906101008287031215610abe57600080fd5b610ac66109b3565b8235815260208301356020820152604083013582811115610ae657600080fd5b610af2888286016109dd565b60408301525060608301356060820152608083013582811115610b1457600080fd5b610b20888286016109dd565b60808301525060a083013582811115610b3857600080fd5b610b44888286016109dd565b60a08301525060c083013582811115610b5c57600080fd5b610b68888286016109dd565b60c083015250610b7a60e08401610a6a565b60e08201529660209590950135955050505050565b600080600060608486031215610ba457600080fd5b8335925060208401359150610bbb60408501610a6a565b90509250925092565b60008060408385031215610bd757600080fd5b50508035926020909101359150565b6000815180845260005b81811015610c0c57602081850181015186830182015201610bf0565b506000602082860101526020601f19601f83011685010191505092915050565b634e487b7160e01b600052602160045260246000fd5b60038110610c6057634e487b7160e01b600052602160045260246000fd5b9052565b60208152815160208201526020820151604082015260006040830151610100806060850152610c97610120850183610be6565b9150606085015160808501526080850151601f19808685030160a0870152610cbf8483610be6565b935060a08701519150808685030160c0870152610cdc8483610be6565b935060c08701519150808685030160e087015250610cfa8382610be6565b92505060e0850151610d0e82860182610c42565b5090949350505050565b600060208284031215610d2a57600080fd5b81356001600160a01b0381168114610d4157600080fd5b9392505050565b600060208284031215610d5a57600080fd5b5035919050565b6020808252602b908201527f4461746162617365204c697374427573696e657373506f73743a20536563726560408201526a3a1035b2bc9032b93937b960a91b606082015260800190565b600060018201610dcc57634e487b7160e01b600052601160045260246000fd5b5060010190565b600181811c90821680610de757607f821691505b60208210810361088757634e487b7160e01b600052602260045260246000fd5b601f821115610e5157600081815260208120601f850160051c81016020861015610e2e5750805b601f850160051c820191505b81811015610e4d57828155600101610e3a565b5050505b505050565b815167ffffffffffffffff811115610e7057610e7061099d565b610e8481610e7e8454610dd3565b84610e07565b602080601f831160018114610eb95760008415610ea15750858301515b600019600386901b1c1916600185901b178555610e4d565b600085815260208120601f198616915b82811015610ee857888601518255948401946001909101908401610ec9565b5085821015610f065787850151600019600388901b60f8161c191681555b5050505050600190811b01905550565b60208082526028908201527f4461746162617365204c697374427573696e657373506f73743a20496e76616c6040820152670d2c840d2dcc8caf60c31b60608201526080019056fe8e1604a838d0f1a9b2cda14a099e4ceb08e966cc6e05e8296f67b02d61a79f09a2646970667358221220bc585ac99e024ca0c31636b710c3f664e7f6c1c9e5e5aa2b024dd82eeac3157664736f6c63430008100033",
					"opcodes": "PUSH1 0x80 PUSH1 0x40 MSTORE PUSH1 0x0 PUSH1 0x2 SSTORE CALLVALUE DUP1 ISZERO PUSH2 0x15 JUMPI PUSH1 0x0 DUP1 REVERT JUMPDEST POP PUSH1 0x0 DUP1 SLOAD PUSH1 0x1 PUSH1 0x1 PUSH1 0xA0 SHL SUB NOT AND CALLER OR SWAP1 SSTORE PUSH2 0xFB4 DUP1 PUSH2 0x37 PUSH1 0x0 CODECOPY PUSH1 0x0 RETURN INVALID PUSH1 0x80 PUSH1 0x40 MSTORE CALLVALUE DUP1 ISZERO PUSH2 0x10 JUMPI PUSH1 0x0 DUP1 REVERT JUMPDEST POP PUSH1 0x4 CALLDATASIZE LT PUSH2 0x88 JUMPI PUSH1 0x0 CALLDATALOAD PUSH1 0xE0 SHR DUP1 PUSH4 0xB615C00A GT PUSH2 0x5B JUMPI DUP1 PUSH4 0xB615C00A EQ PUSH2 0xFB JUMPI DUP1 PUSH4 0xC78A6741 EQ PUSH2 0x10E JUMPI DUP1 PUSH4 0xF2FDE38B EQ PUSH2 0x12E JUMPI DUP1 PUSH4 0xFD82E9DD EQ PUSH2 0x141 JUMPI PUSH1 0x0 DUP1 REVERT JUMPDEST DUP1 PUSH4 0x116F4A23 EQ PUSH2 0x8D JUMPI DUP1 PUSH4 0x4F71735B EQ PUSH2 0xB3 JUMPI DUP1 PUSH4 0x83197EF0 EQ PUSH2 0xD6 JUMPI DUP1 PUSH4 0x8DA5CB5B EQ PUSH2 0xE0 JUMPI JUMPDEST PUSH1 0x0 DUP1 REVERT JUMPDEST PUSH2 0xA0 PUSH2 0x9B CALLDATASIZE PUSH1 0x4 PUSH2 0xA7E JUMP JUMPDEST PUSH2 0x154 JUMP JUMPDEST PUSH1 0x40 MLOAD SWAP1 DUP2 MSTORE PUSH1 0x20 ADD JUMPDEST PUSH1 0x40 MLOAD DUP1 SWAP2 SUB SWAP1 RETURN JUMPDEST PUSH2 0xC6 PUSH2 0xC1 CALLDATASIZE PUSH1 0x4 PUSH2 0xB8F JUMP JUMPDEST PUSH2 0x296 JUMP JUMPDEST PUSH1 0x40 MLOAD SWAP1 ISZERO ISZERO DUP2 MSTORE PUSH1 0x20 ADD PUSH2 0xAA JUMP JUMPDEST PUSH2 0xDE PUSH2 0x338 JUMP JUMPDEST STOP JUMPDEST PUSH1 0x0 SLOAD PUSH1 0x40 MLOAD PUSH1 0x1 PUSH1 0x1 PUSH1 0xA0 SHL SUB SWAP1 SWAP2 AND DUP2 MSTORE PUSH1 0x20 ADD PUSH2 0xAA JUMP JUMPDEST PUSH2 0xC6 PUSH2 0x109 CALLDATASIZE PUSH1 0x4 PUSH2 0xBC4 JUMP JUMPDEST PUSH2 0x343 JUMP JUMPDEST PUSH2 0x121 PUSH2 0x11C CALLDATASIZE PUSH1 0x4 PUSH2 0xBC4 JUMP JUMPDEST PUSH2 0x4B2 JUMP JUMPDEST PUSH1 0x40 MLOAD PUSH2 0xAA SWAP2 SWAP1 PUSH2 0xC64 JUMP JUMPDEST PUSH2 0xDE PUSH2 0x13C CALLDATASIZE PUSH1 0x4 PUSH2 0xD18 JUMP JUMPDEST PUSH2 0x7D8 JUMP JUMPDEST PUSH2 0xA0 PUSH2 0x14F CALLDATASIZE PUSH1 0x4 PUSH2 0xD48 JUMP JUMPDEST PUSH2 0x851 JUMP JUMPDEST PUSH1 0x0 DUP2 PUSH1 0x0 DUP1 MLOAD PUSH1 0x20 PUSH2 0xF5F DUP4 CODECOPY DUP2 MLOAD SWAP2 MSTORE DUP2 EQ PUSH2 0x18D JUMPI PUSH1 0x40 MLOAD PUSH3 0x461BCD PUSH1 0xE5 SHL DUP2 MSTORE PUSH1 0x4 ADD PUSH2 0x184 SWAP1 PUSH2 0xD61 JUMP JUMPDEST PUSH1 0x40 MLOAD DUP1 SWAP2 SUB SWAP1 REVERT JUMPDEST PUSH1 0x2 DUP1 SLOAD SWAP1 PUSH1 0x0 PUSH2 0x19D DUP4 PUSH2 0xDAC JUMP JUMPDEST SWAP1 SWAP2 SSTORE POP POP PUSH1 0x2 DUP1 SLOAD PUSH1 0x20 DUP1 DUP8 ADD DUP3 DUP2 MSTORE PUSH1 0x0 SWAP3 DUP4 MSTORE PUSH1 0x1 SWAP2 DUP3 SWAP1 MSTORE PUSH1 0x40 SWAP3 DUP4 SWAP1 KECCAK256 DUP9 MLOAD DUP2 SSTORE SWAP1 MLOAD SWAP2 DUP2 ADD SWAP2 SWAP1 SWAP2 SSTORE SWAP1 DUP7 ADD MLOAD DUP7 SWAP3 DUP3 ADD SWAP1 PUSH2 0x1DF SWAP1 DUP3 PUSH2 0xE56 JUMP JUMPDEST POP PUSH1 0x60 DUP3 ADD MLOAD PUSH1 0x3 DUP3 ADD SSTORE PUSH1 0x80 DUP3 ADD MLOAD PUSH1 0x4 DUP3 ADD SWAP1 PUSH2 0x1FE SWAP1 DUP3 PUSH2 0xE56 JUMP JUMPDEST POP PUSH1 0xA0 DUP3 ADD MLOAD PUSH1 0x5 DUP3 ADD SWAP1 PUSH2 0x213 SWAP1 DUP3 PUSH2 0xE56 JUMP JUMPDEST POP PUSH1 0xC0 DUP3 ADD MLOAD PUSH1 0x6 DUP3 ADD SWAP1 PUSH2 0x228 SWAP1 DUP3 PUSH2 0xE56 JUMP JUMPDEST POP PUSH1 0xE0 DUP3 ADD MLOAD PUSH1 0x7 DUP3 ADD DUP1 SLOAD PUSH1 0xFF NOT AND PUSH1 0x1 DUP4 PUSH1 0x2 DUP2 GT ISZERO PUSH2 0x24C JUMPI PUSH2 0x24C PUSH2 0xC2C JUMP JUMPDEST MUL OR SWAP1 SSTORE POP SWAP1 POP POP PUSH32 0xD5EE3861E0240D8A6D08D64672BED790AE1B3BC668354FFBF817AE2DB0F3533 DUP5 PUSH1 0x40 MLOAD PUSH2 0x283 SWAP2 SWAP1 PUSH2 0xC64 JUMP JUMPDEST PUSH1 0x40 MLOAD DUP1 SWAP2 SUB SWAP1 LOG1 POP POP PUSH1 0x2 SLOAD SWAP3 SWAP2 POP POP JUMP JUMPDEST PUSH1 0x0 DUP3 PUSH1 0x0 DUP1 MLOAD PUSH1 0x20 PUSH2 0xF5F DUP4 CODECOPY DUP2 MLOAD SWAP2 MSTORE DUP2 EQ PUSH2 0x2C6 JUMPI PUSH1 0x40 MLOAD PUSH3 0x461BCD PUSH1 0xE5 SHL DUP2 MSTORE PUSH1 0x4 ADD PUSH2 0x184 SWAP1 PUSH2 0xD61 JUMP JUMPDEST DUP5 DUP1 PUSH1 0x1 GT ISZERO DUP1 ISZERO PUSH2 0x2DA JUMPI POP PUSH1 0x2 SLOAD DUP2 GT ISZERO JUMPDEST PUSH2 0x2F6 JUMPI PUSH1 0x40 MLOAD PUSH3 0x461BCD PUSH1 0xE5 SHL DUP2 MSTORE PUSH1 0x4 ADD PUSH2 0x184 SWAP1 PUSH2 0xF16 JUMP JUMPDEST PUSH1 0x0 DUP7 DUP2 MSTORE PUSH1 0x1 PUSH1 0x20 DUP2 SWAP1 MSTORE PUSH1 0x40 SWAP1 SWAP2 KECCAK256 PUSH1 0x7 ADD DUP1 SLOAD DUP7 SWAP3 PUSH1 0xFF NOT SWAP1 SWAP2 AND SWAP1 DUP4 PUSH1 0x2 DUP2 GT ISZERO PUSH2 0x327 JUMPI PUSH2 0x327 PUSH2 0xC2C JUMP JUMPDEST MUL OR SWAP1 SSTORE POP PUSH1 0x1 SWAP7 SWAP6 POP POP POP POP POP POP JUMP JUMPDEST PUSH2 0x340 PUSH2 0x88D JUMP JUMPDEST ADDRESS SELFDESTRUCT JUMPDEST PUSH1 0x0 DUP2 PUSH1 0x0 DUP1 MLOAD PUSH1 0x20 PUSH2 0xF5F DUP4 CODECOPY DUP2 MLOAD SWAP2 MSTORE DUP2 EQ PUSH2 0x373 JUMPI PUSH1 0x40 MLOAD PUSH3 0x461BCD PUSH1 0xE5 SHL DUP2 MSTORE PUSH1 0x4 ADD PUSH2 0x184 SWAP1 PUSH2 0xD61 JUMP JUMPDEST DUP4 DUP1 PUSH1 0x1 GT ISZERO DUP1 ISZERO PUSH2 0x387 JUMPI POP PUSH1 0x2 SLOAD DUP2 GT ISZERO JUMPDEST PUSH2 0x3A3 JUMPI PUSH1 0x40 MLOAD PUSH3 0x461BCD PUSH1 0xE5 SHL DUP2 MSTORE PUSH1 0x4 ADD PUSH2 0x184 SWAP1 PUSH2 0xF16 JUMP JUMPDEST PUSH1 0x40 DUP1 MLOAD PUSH2 0x100 DUP2 ADD DUP3 MSTORE PUSH1 0x0 DUP1 DUP3 MSTORE PUSH1 0x20 DUP1 DUP4 ADD DUP3 DUP2 MSTORE DUP5 MLOAD DUP1 DUP4 ADD DUP7 MSTORE DUP4 DUP2 MSTORE DUP5 DUP7 ADD SWAP1 DUP2 MSTORE PUSH1 0x60 DUP6 ADD DUP5 SWAP1 MSTORE DUP6 MLOAD DUP1 DUP5 ADD DUP8 MSTORE DUP5 DUP2 MSTORE PUSH1 0x80 DUP7 ADD MSTORE DUP6 MLOAD DUP1 DUP5 ADD DUP8 MSTORE DUP5 DUP2 MSTORE PUSH1 0xA0 DUP7 ADD MSTORE DUP6 MLOAD DUP1 DUP5 ADD DUP8 MSTORE DUP5 DUP2 MSTORE PUSH1 0xC0 DUP7 ADD MSTORE PUSH1 0x1 PUSH1 0xE0 DUP7 ADD DUP2 SWAP1 MSTORE DUP12 DUP6 MSTORE SWAP3 DUP4 SWAP1 MSTORE SWAP5 SWAP1 SWAP3 KECCAK256 DUP4 MLOAD DUP2 SSTORE SWAP2 MLOAD SWAP1 DUP3 ADD SSTORE SWAP2 MLOAD SWAP1 SWAP2 DUP3 SWAP2 PUSH1 0x2 DUP3 ADD SWAP1 PUSH2 0x432 SWAP1 DUP3 PUSH2 0xE56 JUMP JUMPDEST POP PUSH1 0x60 DUP3 ADD MLOAD PUSH1 0x3 DUP3 ADD SSTORE PUSH1 0x80 DUP3 ADD MLOAD PUSH1 0x4 DUP3 ADD SWAP1 PUSH2 0x451 SWAP1 DUP3 PUSH2 0xE56 JUMP JUMPDEST POP PUSH1 0xA0 DUP3 ADD MLOAD PUSH1 0x5 DUP3 ADD SWAP1 PUSH2 0x466 SWAP1 DUP3 PUSH2 0xE56 JUMP JUMPDEST POP PUSH1 0xC0 DUP3 ADD MLOAD PUSH1 0x6 DUP3 ADD SWAP1 PUSH2 0x47B SWAP1 DUP3 PUSH2 0xE56 JUMP JUMPDEST POP PUSH1 0xE0 DUP3 ADD MLOAD PUSH1 0x7 DUP3 ADD DUP1 SLOAD PUSH1 0xFF NOT AND PUSH1 0x1 DUP4 PUSH1 0x2 DUP2 GT ISZERO PUSH2 0x49F JUMPI PUSH2 0x49F PUSH2 0xC2C JUMP JUMPDEST MUL OR SWAP1 SSTORE POP PUSH1 0x1 SWAP9 SWAP8 POP POP POP POP POP POP POP POP JUMP JUMPDEST PUSH2 0x4BA PUSH2 0x948 JUMP JUMPDEST DUP2 PUSH1 0x0 DUP1 MLOAD PUSH1 0x20 PUSH2 0xF5F DUP4 CODECOPY DUP2 MLOAD SWAP2 MSTORE DUP2 EQ PUSH2 0x4E8 JUMPI PUSH1 0x40 MLOAD PUSH3 0x461BCD PUSH1 0xE5 SHL DUP2 MSTORE PUSH1 0x4 ADD PUSH2 0x184 SWAP1 PUSH2 0xD61 JUMP JUMPDEST DUP4 DUP1 PUSH1 0x1 GT ISZERO DUP1 ISZERO PUSH2 0x4FC JUMPI POP PUSH1 0x2 SLOAD DUP2 GT ISZERO JUMPDEST PUSH2 0x518 JUMPI PUSH1 0x40 MLOAD PUSH3 0x461BCD PUSH1 0xE5 SHL DUP2 MSTORE PUSH1 0x4 ADD PUSH2 0x184 SWAP1 PUSH2 0xF16 JUMP JUMPDEST PUSH1 0x1 PUSH1 0x0 DUP7 DUP2 MSTORE PUSH1 0x20 ADD SWAP1 DUP2 MSTORE PUSH1 0x20 ADD PUSH1 0x0 KECCAK256 PUSH1 0x40 MLOAD DUP1 PUSH2 0x100 ADD PUSH1 0x40 MSTORE SWAP1 DUP2 PUSH1 0x0 DUP3 ADD SLOAD DUP2 MSTORE PUSH1 0x20 ADD PUSH1 0x1 DUP3 ADD SLOAD DUP2 MSTORE PUSH1 0x20 ADD PUSH1 0x2 DUP3 ADD DUP1 SLOAD PUSH2 0x55B SWAP1 PUSH2 0xDD3 JUMP JUMPDEST DUP1 PUSH1 0x1F ADD PUSH1 0x20 DUP1 SWAP2 DIV MUL PUSH1 0x20 ADD PUSH1 0x40 MLOAD SWAP1 DUP2 ADD PUSH1 0x40 MSTORE DUP1 SWAP3 SWAP2 SWAP1 DUP2 DUP2 MSTORE PUSH1 0x20 ADD DUP3 DUP1 SLOAD PUSH2 0x587 SWAP1 PUSH2 0xDD3 JUMP JUMPDEST DUP1 ISZERO PUSH2 0x5D4 JUMPI DUP1 PUSH1 0x1F LT PUSH2 0x5A9 JUMPI PUSH2 0x100 DUP1 DUP4 SLOAD DIV MUL DUP4 MSTORE SWAP2 PUSH1 0x20 ADD SWAP2 PUSH2 0x5D4 JUMP JUMPDEST DUP3 ADD SWAP2 SWAP1 PUSH1 0x0 MSTORE PUSH1 0x20 PUSH1 0x0 KECCAK256 SWAP1 JUMPDEST DUP2 SLOAD DUP2 MSTORE SWAP1 PUSH1 0x1 ADD SWAP1 PUSH1 0x20 ADD DUP1 DUP4 GT PUSH2 0x5B7 JUMPI DUP3 SWAP1 SUB PUSH1 0x1F AND DUP3 ADD SWAP2 JUMPDEST POP POP POP POP POP DUP2 MSTORE PUSH1 0x20 ADD PUSH1 0x3 DUP3 ADD SLOAD DUP2 MSTORE PUSH1 0x20 ADD PUSH1 0x4 DUP3 ADD DUP1 SLOAD PUSH2 0x5F7 SWAP1 PUSH2 0xDD3 JUMP JUMPDEST DUP1 PUSH1 0x1F ADD PUSH1 0x20 DUP1 SWAP2 DIV MUL PUSH1 0x20 ADD PUSH1 0x40 MLOAD SWAP1 DUP2 ADD PUSH1 0x40 MSTORE DUP1 SWAP3 SWAP2 SWAP1 DUP2 DUP2 MSTORE PUSH1 0x20 ADD DUP3 DUP1 SLOAD PUSH2 0x623 SWAP1 PUSH2 0xDD3 JUMP JUMPDEST DUP1 ISZERO PUSH2 0x670 JUMPI DUP1 PUSH1 0x1F LT PUSH2 0x645 JUMPI PUSH2 0x100 DUP1 DUP4 SLOAD DIV MUL DUP4 MSTORE SWAP2 PUSH1 0x20 ADD SWAP2 PUSH2 0x670 JUMP JUMPDEST DUP3 ADD SWAP2 SWAP1 PUSH1 0x0 MSTORE PUSH1 0x20 PUSH1 0x0 KECCAK256 SWAP1 JUMPDEST DUP2 SLOAD DUP2 MSTORE SWAP1 PUSH1 0x1 ADD SWAP1 PUSH1 0x20 ADD DUP1 DUP4 GT PUSH2 0x653 JUMPI DUP3 SWAP1 SUB PUSH1 0x1F AND DUP3 ADD SWAP2 JUMPDEST POP POP POP POP POP DUP2 MSTORE PUSH1 0x20 ADD PUSH1 0x5 DUP3 ADD DUP1 SLOAD PUSH2 0x689 SWAP1 PUSH2 0xDD3 JUMP JUMPDEST DUP1 PUSH1 0x1F ADD PUSH1 0x20 DUP1 SWAP2 DIV MUL PUSH1 0x20 ADD PUSH1 0x40 MLOAD SWAP1 DUP2 ADD PUSH1 0x40 MSTORE DUP1 SWAP3 SWAP2 SWAP1 DUP2 DUP2 MSTORE PUSH1 0x20 ADD DUP3 DUP1 SLOAD PUSH2 0x6B5 SWAP1 PUSH2 0xDD3 JUMP JUMPDEST DUP1 ISZERO PUSH2 0x702 JUMPI DUP1 PUSH1 0x1F LT PUSH2 0x6D7 JUMPI PUSH2 0x100 DUP1 DUP4 SLOAD DIV MUL DUP4 MSTORE SWAP2 PUSH1 0x20 ADD SWAP2 PUSH2 0x702 JUMP JUMPDEST DUP3 ADD SWAP2 SWAP1 PUSH1 0x0 MSTORE PUSH1 0x20 PUSH1 0x0 KECCAK256 SWAP1 JUMPDEST DUP2 SLOAD DUP2 MSTORE SWAP1 PUSH1 0x1 ADD SWAP1 PUSH1 0x20 ADD DUP1 DUP4 GT PUSH2 0x6E5 JUMPI DUP3 SWAP1 SUB PUSH1 0x1F AND DUP3 ADD SWAP2 JUMPDEST POP POP POP POP POP DUP2 MSTORE PUSH1 0x20 ADD PUSH1 0x6 DUP3 ADD DUP1 SLOAD PUSH2 0x71B SWAP1 PUSH2 0xDD3 JUMP JUMPDEST DUP1 PUSH1 0x1F ADD PUSH1 0x20 DUP1 SWAP2 DIV MUL PUSH1 0x20 ADD PUSH1 0x40 MLOAD SWAP1 DUP2 ADD PUSH1 0x40 MSTORE DUP1 SWAP3 SWAP2 SWAP1 DUP2 DUP2 MSTORE PUSH1 0x20 ADD DUP3 DUP1 SLOAD PUSH2 0x747 SWAP1 PUSH2 0xDD3 JUMP JUMPDEST DUP1 ISZERO PUSH2 0x794 JUMPI DUP1 PUSH1 0x1F LT PUSH2 0x769 JUMPI PUSH2 0x100 DUP1 DUP4 SLOAD DIV MUL DUP4 MSTORE SWAP2 PUSH1 0x20 ADD SWAP2 PUSH2 0x794 JUMP JUMPDEST DUP3 ADD SWAP2 SWAP1 PUSH1 0x0 MSTORE PUSH1 0x20 PUSH1 0x0 KECCAK256 SWAP1 JUMPDEST DUP2 SLOAD DUP2 MSTORE SWAP1 PUSH1 0x1 ADD SWAP1 PUSH1 0x20 ADD DUP1 DUP4 GT PUSH2 0x777 JUMPI DUP3 SWAP1 SUB PUSH1 0x1F AND DUP3 ADD SWAP2 JUMPDEST POP POP POP SWAP2 DUP4 MSTORE POP POP PUSH1 0x7 DUP3 ADD SLOAD PUSH1 0x20 SWAP1 SWAP2 ADD SWAP1 PUSH1 0xFF AND PUSH1 0x2 DUP2 GT ISZERO PUSH2 0x7BB JUMPI PUSH2 0x7BB PUSH2 0xC2C JUMP JUMPDEST PUSH1 0x2 DUP2 GT ISZERO PUSH2 0x7CC JUMPI PUSH2 0x7CC PUSH2 0xC2C JUMP JUMPDEST SWAP1 MSTORE POP SWAP6 SWAP5 POP POP POP POP POP JUMP JUMPDEST PUSH2 0x7E0 PUSH2 0x88D JUMP JUMPDEST PUSH1 0x1 PUSH1 0x1 PUSH1 0xA0 SHL SUB DUP2 AND PUSH2 0x845 JUMPI PUSH1 0x40 MLOAD PUSH3 0x461BCD PUSH1 0xE5 SHL DUP2 MSTORE PUSH1 0x20 PUSH1 0x4 DUP3 ADD MSTORE PUSH1 0x26 PUSH1 0x24 DUP3 ADD MSTORE PUSH32 0x4F776E61626C653A206E6577206F776E657220697320746865207A65726F2061 PUSH1 0x44 DUP3 ADD MSTORE PUSH6 0x646472657373 PUSH1 0xD0 SHL PUSH1 0x64 DUP3 ADD MSTORE PUSH1 0x84 ADD PUSH2 0x184 JUMP JUMPDEST PUSH2 0x84E DUP2 PUSH2 0x8F8 JUMP JUMPDEST POP JUMP JUMPDEST PUSH1 0x0 DUP2 PUSH1 0x0 DUP1 MLOAD PUSH1 0x20 PUSH2 0xF5F DUP4 CODECOPY DUP2 MLOAD SWAP2 MSTORE DUP2 EQ PUSH2 0x881 JUMPI PUSH1 0x40 MLOAD PUSH3 0x461BCD PUSH1 0xE5 SHL DUP2 MSTORE PUSH1 0x4 ADD PUSH2 0x184 SWAP1 PUSH2 0xD61 JUMP JUMPDEST PUSH1 0x2 SLOAD SWAP2 POP JUMPDEST POP SWAP2 SWAP1 POP JUMP JUMPDEST CALLER PUSH2 0x8A0 PUSH1 0x0 SLOAD PUSH1 0x1 PUSH1 0x1 PUSH1 0xA0 SHL SUB AND SWAP1 JUMP JUMPDEST PUSH1 0x1 PUSH1 0x1 PUSH1 0xA0 SHL SUB AND EQ PUSH2 0x8F6 JUMPI PUSH1 0x40 MLOAD PUSH3 0x461BCD PUSH1 0xE5 SHL DUP2 MSTORE PUSH1 0x20 PUSH1 0x4 DUP3 ADD DUP2 SWAP1 MSTORE PUSH1 0x24 DUP3 ADD MSTORE PUSH32 0x4F776E61626C653A2063616C6C6572206973206E6F7420746865206F776E6572 PUSH1 0x44 DUP3 ADD MSTORE PUSH1 0x64 ADD PUSH2 0x184 JUMP JUMPDEST JUMP JUMPDEST PUSH1 0x0 DUP1 SLOAD PUSH1 0x1 PUSH1 0x1 PUSH1 0xA0 SHL SUB DUP4 DUP2 AND PUSH1 0x1 PUSH1 0x1 PUSH1 0xA0 SHL SUB NOT DUP4 AND DUP2 OR DUP5 SSTORE PUSH1 0x40 MLOAD SWAP2 SWAP1 SWAP3 AND SWAP3 DUP4 SWAP2 PUSH32 0x8BE0079C531659141344CD1FD0A4F28419497F9722A3DAAFE3B4186F6B6457E0 SWAP2 SWAP1 LOG3 POP POP JUMP JUMPDEST PUSH1 0x40 MLOAD DUP1 PUSH2 0x100 ADD PUSH1 0x40 MSTORE DUP1 PUSH1 0x0 DUP2 MSTORE PUSH1 0x20 ADD PUSH1 0x0 DUP2 MSTORE PUSH1 0x20 ADD PUSH1 0x60 DUP2 MSTORE PUSH1 0x20 ADD PUSH1 0x0 DUP2 MSTORE PUSH1 0x20 ADD PUSH1 0x60 DUP2 MSTORE PUSH1 0x20 ADD PUSH1 0x60 DUP2 MSTORE PUSH1 0x20 ADD PUSH1 0x60 DUP2 MSTORE PUSH1 0x20 ADD PUSH1 0x0 PUSH1 0x2 DUP2 GT ISZERO PUSH2 0x998 JUMPI PUSH2 0x998 PUSH2 0xC2C JUMP JUMPDEST SWAP1 MSTORE SWAP1 JUMP JUMPDEST PUSH4 0x4E487B71 PUSH1 0xE0 SHL PUSH1 0x0 MSTORE PUSH1 0x41 PUSH1 0x4 MSTORE PUSH1 0x24 PUSH1 0x0 REVERT JUMPDEST PUSH1 0x40 MLOAD PUSH2 0x100 DUP2 ADD PUSH8 0xFFFFFFFFFFFFFFFF DUP2 GT DUP3 DUP3 LT OR ISZERO PUSH2 0x9D7 JUMPI PUSH2 0x9D7 PUSH2 0x99D JUMP JUMPDEST PUSH1 0x40 MSTORE SWAP1 JUMP JUMPDEST PUSH1 0x0 DUP3 PUSH1 0x1F DUP4 ADD SLT PUSH2 0x9EE JUMPI PUSH1 0x0 DUP1 REVERT JUMPDEST DUP2 CALLDATALOAD PUSH8 0xFFFFFFFFFFFFFFFF DUP1 DUP3 GT ISZERO PUSH2 0xA09 JUMPI PUSH2 0xA09 PUSH2 0x99D JUMP JUMPDEST PUSH1 0x40 MLOAD PUSH1 0x1F DUP4 ADD PUSH1 0x1F NOT SWAP1 DUP2 AND PUSH1 0x3F ADD AND DUP2 ADD SWAP1 DUP3 DUP3 GT DUP2 DUP4 LT OR ISZERO PUSH2 0xA31 JUMPI PUSH2 0xA31 PUSH2 0x99D JUMP JUMPDEST DUP2 PUSH1 0x40 MSTORE DUP4 DUP2 MSTORE DUP7 PUSH1 0x20 DUP6 DUP9 ADD ADD GT ISZERO PUSH2 0xA4A JUMPI PUSH1 0x0 DUP1 REVERT JUMPDEST DUP4 PUSH1 0x20 DUP8 ADD PUSH1 0x20 DUP4 ADD CALLDATACOPY PUSH1 0x0 PUSH1 0x20 DUP6 DUP4 ADD ADD MSTORE DUP1 SWAP5 POP POP POP POP POP SWAP3 SWAP2 POP POP JUMP JUMPDEST DUP1 CALLDATALOAD PUSH1 0x3 DUP2 LT PUSH2 0xA79 JUMPI PUSH1 0x0 DUP1 REVERT JUMPDEST SWAP2 SWAP1 POP JUMP JUMPDEST PUSH1 0x0 DUP1 PUSH1 0x40 DUP4 DUP6 SUB SLT ISZERO PUSH2 0xA91 JUMPI PUSH1 0x0 DUP1 REVERT JUMPDEST DUP3 CALLDATALOAD PUSH8 0xFFFFFFFFFFFFFFFF DUP1 DUP3 GT ISZERO PUSH2 0xAA9 JUMPI PUSH1 0x0 DUP1 REVERT JUMPDEST SWAP1 DUP5 ADD SWAP1 PUSH2 0x100 DUP3 DUP8 SUB SLT ISZERO PUSH2 0xABE JUMPI PUSH1 0x0 DUP1 REVERT JUMPDEST PUSH2 0xAC6 PUSH2 0x9B3 JUMP JUMPDEST DUP3 CALLDATALOAD DUP2 MSTORE PUSH1 0x20 DUP4 ADD CALLDATALOAD PUSH1 0x20 DUP3 ADD MSTORE PUSH1 0x40 DUP4 ADD CALLDATALOAD DUP3 DUP2 GT ISZERO PUSH2 0xAE6 JUMPI PUSH1 0x0 DUP1 REVERT JUMPDEST PUSH2 0xAF2 DUP9 DUP3 DUP7 ADD PUSH2 0x9DD JUMP JUMPDEST PUSH1 0x40 DUP4 ADD MSTORE POP PUSH1 0x60 DUP4 ADD CALLDATALOAD PUSH1 0x60 DUP3 ADD MSTORE PUSH1 0x80 DUP4 ADD CALLDATALOAD DUP3 DUP2 GT ISZERO PUSH2 0xB14 JUMPI PUSH1 0x0 DUP1 REVERT JUMPDEST PUSH2 0xB20 DUP9 DUP3 DUP7 ADD PUSH2 0x9DD JUMP JUMPDEST PUSH1 0x80 DUP4 ADD MSTORE POP PUSH1 0xA0 DUP4 ADD CALLDATALOAD DUP3 DUP2 GT ISZERO PUSH2 0xB38 JUMPI PUSH1 0x0 DUP1 REVERT JUMPDEST PUSH2 0xB44 DUP9 DUP3 DUP7 ADD PUSH2 0x9DD JUMP JUMPDEST PUSH1 0xA0 DUP4 ADD MSTORE POP PUSH1 0xC0 DUP4 ADD CALLDATALOAD DUP3 DUP2 GT ISZERO PUSH2 0xB5C JUMPI PUSH1 0x0 DUP1 REVERT JUMPDEST PUSH2 0xB68 DUP9 DUP3 DUP7 ADD PUSH2 0x9DD JUMP JUMPDEST PUSH1 0xC0 DUP4 ADD MSTORE POP PUSH2 0xB7A PUSH1 0xE0 DUP5 ADD PUSH2 0xA6A JUMP JUMPDEST PUSH1 0xE0 DUP3 ADD MSTORE SWAP7 PUSH1 0x20 SWAP6 SWAP1 SWAP6 ADD CALLDATALOAD SWAP6 POP POP POP POP POP JUMP JUMPDEST PUSH1 0x0 DUP1 PUSH1 0x0 PUSH1 0x60 DUP5 DUP7 SUB SLT ISZERO PUSH2 0xBA4 JUMPI PUSH1 0x0 DUP1 REVERT JUMPDEST DUP4 CALLDATALOAD SWAP3 POP PUSH1 0x20 DUP5 ADD CALLDATALOAD SWAP2 POP PUSH2 0xBBB PUSH1 0x40 DUP6 ADD PUSH2 0xA6A JUMP JUMPDEST SWAP1 POP SWAP3 POP SWAP3 POP SWAP3 JUMP JUMPDEST PUSH1 0x0 DUP1 PUSH1 0x40 DUP4 DUP6 SUB SLT ISZERO PUSH2 0xBD7 JUMPI PUSH1 0x0 DUP1 REVERT JUMPDEST POP POP DUP1 CALLDATALOAD SWAP3 PUSH1 0x20 SWAP1 SWAP2 ADD CALLDATALOAD SWAP2 POP JUMP JUMPDEST PUSH1 0x0 DUP2 MLOAD DUP1 DUP5 MSTORE PUSH1 0x0 JUMPDEST DUP2 DUP2 LT ISZERO PUSH2 0xC0C JUMPI PUSH1 0x20 DUP2 DUP6 ADD DUP2 ADD MLOAD DUP7 DUP4 ADD DUP3 ADD MSTORE ADD PUSH2 0xBF0 JUMP JUMPDEST POP PUSH1 0x0 PUSH1 0x20 DUP3 DUP7 ADD ADD MSTORE PUSH1 0x20 PUSH1 0x1F NOT PUSH1 0x1F DUP4 ADD AND DUP6 ADD ADD SWAP2 POP POP SWAP3 SWAP2 POP POP JUMP JUMPDEST PUSH4 0x4E487B71 PUSH1 0xE0 SHL PUSH1 0x0 MSTORE PUSH1 0x21 PUSH1 0x4 MSTORE PUSH1 0x24 PUSH1 0x0 REVERT JUMPDEST PUSH1 0x3 DUP2 LT PUSH2 0xC60 JUMPI PUSH4 0x4E487B71 PUSH1 0xE0 SHL PUSH1 0x0 MSTORE PUSH1 0x21 PUSH1 0x4 MSTORE PUSH1 0x24 PUSH1 0x0 REVERT JUMPDEST SWAP1 MSTORE JUMP JUMPDEST PUSH1 0x20 DUP2 MSTORE DUP2 MLOAD PUSH1 0x20 DUP3 ADD MSTORE PUSH1 0x20 DUP3 ADD MLOAD PUSH1 0x40 DUP3 ADD MSTORE PUSH1 0x0 PUSH1 0x40 DUP4 ADD MLOAD PUSH2 0x100 DUP1 PUSH1 0x60 DUP6 ADD MSTORE PUSH2 0xC97 PUSH2 0x120 DUP6 ADD DUP4 PUSH2 0xBE6 JUMP JUMPDEST SWAP2 POP PUSH1 0x60 DUP6 ADD MLOAD PUSH1 0x80 DUP6 ADD MSTORE PUSH1 0x80 DUP6 ADD MLOAD PUSH1 0x1F NOT DUP1 DUP7 DUP6 SUB ADD PUSH1 0xA0 DUP8 ADD MSTORE PUSH2 0xCBF DUP5 DUP4 PUSH2 0xBE6 JUMP JUMPDEST SWAP4 POP PUSH1 0xA0 DUP8 ADD MLOAD SWAP2 POP DUP1 DUP7 DUP6 SUB ADD PUSH1 0xC0 DUP8 ADD MSTORE PUSH2 0xCDC DUP5 DUP4 PUSH2 0xBE6 JUMP JUMPDEST SWAP4 POP PUSH1 0xC0 DUP8 ADD MLOAD SWAP2 POP DUP1 DUP7 DUP6 SUB ADD PUSH1 0xE0 DUP8 ADD MSTORE POP PUSH2 0xCFA DUP4 DUP3 PUSH2 0xBE6 JUMP JUMPDEST SWAP3 POP POP PUSH1 0xE0 DUP6 ADD MLOAD PUSH2 0xD0E DUP3 DUP7 ADD DUP3 PUSH2 0xC42 JUMP JUMPDEST POP SWAP1 SWAP5 SWAP4 POP POP POP POP JUMP JUMPDEST PUSH1 0x0 PUSH1 0x20 DUP3 DUP5 SUB SLT ISZERO PUSH2 0xD2A JUMPI PUSH1 0x0 DUP1 REVERT JUMPDEST DUP2 CALLDATALOAD PUSH1 0x1 PUSH1 0x1 PUSH1 0xA0 SHL SUB DUP2 AND DUP2 EQ PUSH2 0xD41 JUMPI PUSH1 0x0 DUP1 REVERT JUMPDEST SWAP4 SWAP3 POP POP POP JUMP JUMPDEST PUSH1 0x0 PUSH1 0x20 DUP3 DUP5 SUB SLT ISZERO PUSH2 0xD5A JUMPI PUSH1 0x0 DUP1 REVERT JUMPDEST POP CALLDATALOAD SWAP2 SWAP1 POP JUMP JUMPDEST PUSH1 0x20 DUP1 DUP3 MSTORE PUSH1 0x2B SWAP1 DUP3 ADD MSTORE PUSH32 0x4461746162617365204C697374427573696E657373506F73743A205365637265 PUSH1 0x40 DUP3 ADD MSTORE PUSH11 0x3A1035B2BC9032B93937B9 PUSH1 0xA9 SHL PUSH1 0x60 DUP3 ADD MSTORE PUSH1 0x80 ADD SWAP1 JUMP JUMPDEST PUSH1 0x0 PUSH1 0x1 DUP3 ADD PUSH2 0xDCC JUMPI PUSH4 0x4E487B71 PUSH1 0xE0 SHL PUSH1 0x0 MSTORE PUSH1 0x11 PUSH1 0x4 MSTORE PUSH1 0x24 PUSH1 0x0 REVERT JUMPDEST POP PUSH1 0x1 ADD SWAP1 JUMP JUMPDEST PUSH1 0x1 DUP2 DUP2 SHR SWAP1 DUP3 AND DUP1 PUSH2 0xDE7 JUMPI PUSH1 0x7F DUP3 AND SWAP2 POP JUMPDEST PUSH1 0x20 DUP3 LT DUP2 SUB PUSH2 0x887 JUMPI PUSH4 0x4E487B71 PUSH1 0xE0 SHL PUSH1 0x0 MSTORE PUSH1 0x22 PUSH1 0x4 MSTORE PUSH1 0x24 PUSH1 0x0 REVERT JUMPDEST PUSH1 0x1F DUP3 GT ISZERO PUSH2 0xE51 JUMPI PUSH1 0x0 DUP2 DUP2 MSTORE PUSH1 0x20 DUP2 KECCAK256 PUSH1 0x1F DUP6 ADD PUSH1 0x5 SHR DUP2 ADD PUSH1 0x20 DUP7 LT ISZERO PUSH2 0xE2E JUMPI POP DUP1 JUMPDEST PUSH1 0x1F DUP6 ADD PUSH1 0x5 SHR DUP3 ADD SWAP2 POP JUMPDEST DUP2 DUP2 LT ISZERO PUSH2 0xE4D JUMPI DUP3 DUP2 SSTORE PUSH1 0x1 ADD PUSH2 0xE3A JUMP JUMPDEST POP POP POP JUMPDEST POP POP POP JUMP JUMPDEST DUP2 MLOAD PUSH8 0xFFFFFFFFFFFFFFFF DUP2 GT ISZERO PUSH2 0xE70 JUMPI PUSH2 0xE70 PUSH2 0x99D JUMP JUMPDEST PUSH2 0xE84 DUP2 PUSH2 0xE7E DUP5 SLOAD PUSH2 0xDD3 JUMP JUMPDEST DUP5 PUSH2 0xE07 JUMP JUMPDEST PUSH1 0x20 DUP1 PUSH1 0x1F DUP4 GT PUSH1 0x1 DUP2 EQ PUSH2 0xEB9 JUMPI PUSH1 0x0 DUP5 ISZERO PUSH2 0xEA1 JUMPI POP DUP6 DUP4 ADD MLOAD JUMPDEST PUSH1 0x0 NOT PUSH1 0x3 DUP7 SWAP1 SHL SHR NOT AND PUSH1 0x1 DUP6 SWAP1 SHL OR DUP6 SSTORE PUSH2 0xE4D JUMP JUMPDEST PUSH1 0x0 DUP6 DUP2 MSTORE PUSH1 0x20 DUP2 KECCAK256 PUSH1 0x1F NOT DUP7 AND SWAP2 JUMPDEST DUP3 DUP2 LT ISZERO PUSH2 0xEE8 JUMPI DUP9 DUP7 ADD MLOAD DUP3 SSTORE SWAP5 DUP5 ADD SWAP5 PUSH1 0x1 SWAP1 SWAP2 ADD SWAP1 DUP5 ADD PUSH2 0xEC9 JUMP JUMPDEST POP DUP6 DUP3 LT ISZERO PUSH2 0xF06 JUMPI DUP8 DUP6 ADD MLOAD PUSH1 0x0 NOT PUSH1 0x3 DUP9 SWAP1 SHL PUSH1 0xF8 AND SHR NOT AND DUP2 SSTORE JUMPDEST POP POP POP POP POP PUSH1 0x1 SWAP1 DUP2 SHL ADD SWAP1 SSTORE POP JUMP JUMPDEST PUSH1 0x20 DUP1 DUP3 MSTORE PUSH1 0x28 SWAP1 DUP3 ADD MSTORE PUSH32 0x4461746162617365204C697374427573696E657373506F73743A20496E76616C PUSH1 0x40 DUP3 ADD MSTORE PUSH8 0xD2C840D2DCC8CAF PUSH1 0xC3 SHL PUSH1 0x60 DUP3 ADD MSTORE PUSH1 0x80 ADD SWAP1 JUMP INVALID DUP15 AND DIV 0xA8 CODESIZE 0xD0 CALL 0xA9 0xB2 0xCD LOG1 0x4A MULMOD SWAP15 0x4C 0xEB ADDMOD 0xE9 PUSH7 0xCC6E05E8296F67 0xB0 0x2D PUSH2 0xA79F MULMOD LOG2 PUSH5 0x6970667358 0x22 SLT KECCAK256 0xBC PC GAS 0xC9 SWAP15 MUL 0x4C LOG0 0xC3 AND CALLDATASIZE 0xB7 LT 0xC3 0xF6 PUSH5 0xE7F6C1C9E5 0xE5 0xAA 0x2B MUL 0x4D 0xD8 0x2E 0xEA 0xC3 ISZERO PUSH23 0x64736F6C63430008100033000000000000000000000000 "
				},
				"gasEstimates": {
					"creation": {
						"codeDepositCost": "804000",
						"executionCost": "30079",
						"totalCost": "834079"
					},
					"external": {
						"add((uint256,uint256,string,uint256,string,string,string,uint8),bytes32)": "infinite",
						"at(uint256,bytes32)": "infinite",
						"destroy()": "29979",
						"getLength(bytes32)": "infinite",
						"hide(uint256,bytes32)": "infinite",
						"owner()": "2368",
						"setStatus(uint256,bytes32,uint8)": "infinite",
						"transferOwnership(address)": "28375"
					}
				},
				"methodIdentifiers": {
					"add((uint256,uint256,string,uint256,string,string,string,uint8),bytes32)": "116f4a23",
					"at(uint256,bytes32)": "c78a6741",
					"destroy()": "83197ef0",
					"getLength(bytes32)": "fd82e9dd",
					"hide(uint256,bytes32)": "b615c00a",
					"owner()": "8da5cb5b",
					"setStatus(uint256,bytes32,uint8)": "4f71735b",
					"transferOwnership(address)": "f2fde38b"
				}
			},
			"storageLayout": {
				"storage": [
					{
						"astId": 4,
						"contract": "database/business/post/ListBusinessPost.sol:ListBusinessPost",
						"label": "_owner",
						"offset": 0,
						"slot": "0",
						"type": "t_address"
					},
					{
						"astId": 135,
						"contract": "database/business/post/ListBusinessPost.sol:ListBusinessPost",
						"label": "list",
						"offset": 0,
						"slot": "1",
						"type": "t_mapping(t_uint256,t_struct(BusinessPost)347_storage)"
					},
					{
						"astId": 138,
						"contract": "database/business/post/ListBusinessPost.sol:ListBusinessPost",
						"label": "autoIncrement",
						"offset": 0,
						"slot": "2",
						"type": "t_uint256"
					}
				],
				"types": {
					"t_address": {
						"encoding": "inplace",
						"label": "address",
						"numberOfBytes": "20"
					},
					"t_enum(Status)329": {
						"encoding": "inplace",
						"label": "enum Status",
						"numberOfBytes": "1"
					},
					"t_mapping(t_uint256,t_struct(BusinessPost)347_storage)": {
						"encoding": "mapping",
						"key": "t_uint256",
						"label": "mapping(uint256 => struct BusinessPost)",
						"numberOfBytes": "32",
						"value": "t_struct(BusinessPost)347_storage"
					},
					"t_string_storage": {
						"encoding": "bytes",
						"label": "string",
						"numberOfBytes": "32"
					},
					"t_struct(BusinessPost)347_storage": {
						"encoding": "inplace",
						"label": "struct BusinessPost",
						"members": [
							{
								"astId": 331,
								"contract": "database/business/post/ListBusinessPost.sol:ListBusinessPost",
								"label": "id",
								"offset": 0,
								"slot": "0",
								"type": "t_uint256"
							},
							{
								"astId": 333,
								"contract": "database/business/post/ListBusinessPost.sol:ListBusinessPost",
								"label": "businessPostId",
								"offset": 0,
								"slot": "1",
								"type": "t_uint256"
							},
							{
								"astId": 335,
								"contract": "database/business/post/ListBusinessPost.sol:ListBusinessPost",
								"label": "hashTag",
								"offset": 0,
								"slot": "2",
								"type": "t_string_storage"
							},
							{
								"astId": 337,
								"contract": "database/business/post/ListBusinessPost.sol:ListBusinessPost",
								"label": "time",
								"offset": 0,
								"slot": "3",
								"type": "t_uint256"
							},
							{
								"astId": 339,
								"contract": "database/business/post/ListBusinessPost.sol:ListBusinessPost",
								"label": "content",
								"offset": 0,
								"slot": "4",
								"type": "t_string_storage"
							},
							{
								"astId": 341,
								"contract": "database/business/post/ListBusinessPost.sol:ListBusinessPost",
								"label": "imageSource",
								"offset": 0,
								"slot": "5",
								"type": "t_string_storage"
							},
							{
								"astId": 343,
								"contract": "database/business/post/ListBusinessPost.sol:ListBusinessPost",
								"label": "job",
								"offset": 0,
								"slot": "6",
								"type": "t_string_storage"
							},
							{
								"astId": 346,
								"contract": "database/business/post/ListBusinessPost.sol:ListBusinessPost",
								"label": "status",
								"offset": 0,
								"slot": "7",
								"type": "t_enum(Status)329"
							}
						],
						"numberOfBytes": "256"
					},
					"t_uint256": {
						"encoding": "inplace",
						"label": "uint256",
						"numberOfBytes": "32"
					}
				}
			},
			"userdoc": {
				"kind": "user",
				"methods": {},
				"version": 1
			}
		}
	}
}