{
	"database/business/post/ListBusinessPost.sol": {
		"ListBusinessPost": {
			"abi": [
				{
					"inputs": [],
					"stateMutability": "nonpayable",
					"type": "constructor"
				},
				{
					"anonymous": false,
					"inputs": [
						{
							"components": [
								{
									"internalType": "uint256",
									"name": "id",
									"type": "uint256"
								},
								{
									"internalType": "uint256",
									"name": "businessPostId",
									"type": "uint256"
								},
								{
									"internalType": "string",
									"name": "hashTag",
									"type": "string"
								},
								{
									"internalType": "uint256",
									"name": "time",
									"type": "uint256"
								},
								{
									"internalType": "string",
									"name": "content",
									"type": "string"
								},
								{
									"internalType": "string",
									"name": "imageSource",
									"type": "string"
								},
								{
									"internalType": "string",
									"name": "job",
									"type": "string"
								},
								{
									"internalType": "enum Status",
									"name": "status",
									"type": "uint8"
								}
							],
							"indexed": false,
							"internalType": "struct BusinessPost",
							"name": "item",
							"type": "tuple"
						}
					],
					"name": "Add",
					"type": "event"
				},
				{
					"anonymous": false,
					"inputs": [
						{
							"indexed": true,
							"internalType": "address",
							"name": "previousOwner",
							"type": "address"
						},
						{
							"indexed": true,
							"internalType": "address",
							"name": "newOwner",
							"type": "address"
						}
					],
					"name": "OwnershipTransferred",
					"type": "event"
				},
				{
					"anonymous": false,
					"inputs": [
						{
							"components": [
								{
									"internalType": "uint256",
									"name": "id",
									"type": "uint256"
								},
								{
									"internalType": "uint256",
									"name": "businessPostId",
									"type": "uint256"
								},
								{
									"internalType": "string",
									"name": "hashTag",
									"type": "string"
								},
								{
									"internalType": "uint256",
									"name": "time",
									"type": "uint256"
								},
								{
									"internalType": "string",
									"name": "content",
									"type": "string"
								},
								{
									"internalType": "string",
									"name": "imageSource",
									"type": "string"
								},
								{
									"internalType": "string",
									"name": "job",
									"type": "string"
								},
								{
									"internalType": "enum Status",
									"name": "status",
									"type": "uint8"
								}
							],
							"indexed": false,
							"internalType": "struct BusinessPost",
							"name": "item",
							"type": "tuple"
						}
					],
					"name": "Remove",
					"type": "event"
				},
				{
					"inputs": [
						{
							"components": [
								{
									"internalType": "uint256",
									"name": "id",
									"type": "uint256"
								},
								{
									"internalType": "uint256",
									"name": "businessPostId",
									"type": "uint256"
								},
								{
									"internalType": "string",
									"name": "hashTag",
									"type": "string"
								},
								{
									"internalType": "uint256",
									"name": "time",
									"type": "uint256"
								},
								{
									"internalType": "string",
									"name": "content",
									"type": "string"
								},
								{
									"internalType": "string",
									"name": "imageSource",
									"type": "string"
								},
								{
									"internalType": "string",
									"name": "job",
									"type": "string"
								},
								{
									"internalType": "enum Status",
									"name": "status",
									"type": "uint8"
								}
							],
							"internalType": "struct BusinessPost",
							"name": "item",
							"type": "tuple"
						},
						{
							"internalType": "bytes32",
							"name": "secret",
							"type": "bytes32"
						}
					],
					"name": "add",
					"outputs": [
						{
							"internalType": "uint256",
							"name": "",
							"type": "uint256"
						}
					],
					"stateMutability": "nonpayable",
					"type": "function"
				},
				{
					"inputs": [
						{
							"internalType": "uint256",
							"name": "index",
							"type": "uint256"
						},
						{
							"internalType": "bytes32",
							"name": "secret",
							"type": "bytes32"
						}
					],
					"name": "at",
					"outputs": [
						{
							"components": [
								{
									"internalType": "uint256",
									"name": "id",
									"type": "uint256"
								},
								{
									"internalType": "uint256",
									"name": "businessPostId",
									"type": "uint256"
								},
								{
									"internalType": "string",
									"name": "hashTag",
									"type": "string"
								},
								{
									"internalType": "uint256",
									"name": "time",
									"type": "uint256"
								},
								{
									"internalType": "string",
									"name": "content",
									"type": "string"
								},
								{
									"internalType": "string",
									"name": "imageSource",
									"type": "string"
								},
								{
									"internalType": "string",
									"name": "job",
									"type": "string"
								},
								{
									"internalType": "enum Status",
									"name": "status",
									"type": "uint8"
								}
							],
							"internalType": "struct BusinessPost",
							"name": "",
							"type": "tuple"
						}
					],
					"stateMutability": "view",
					"type": "function"
				},
				{
					"inputs": [],
					"name": "destroy",
					"outputs": [],
					"stateMutability": "nonpayable",
					"type": "function"
				},
				{
					"inputs": [
						{
							"internalType": "bytes32",
							"name": "secret",
							"type": "bytes32"
						}
					],
					"name": "getLength",
					"outputs": [
						{
							"internalType": "uint256",
							"name": "",
							"type": "uint256"
						}
					],
					"stateMutability": "view",
					"type": "function"
				},
				{
					"inputs": [
						{
							"internalType": "uint256",
							"name": "index",
							"type": "uint256"
						},
						{
							"internalType": "bytes32",
							"name": "secret",
							"type": "bytes32"
						}
					],
					"name": "hide",
					"outputs": [
						{
							"internalType": "bool",
							"name": "",
							"type": "bool"
						}
					],
					"stateMutability": "nonpayable",
					"type": "function"
				},
				{
					"inputs": [],
					"name": "owner",
					"outputs": [
						{
							"internalType": "address",
							"name": "",
							"type": "address"
						}
					],
					"stateMutability": "view",
					"type": "function"
				},
				{
					"inputs": [
						{
							"internalType": "address",
							"name": "newOwner",
							"type": "address"
						}
					],
					"name": "transferOwnership",
					"outputs": [],
					"stateMutability": "nonpayable",
					"type": "function"
				}
			],
			"devdoc": {
				"kind": "dev",
				"methods": {
					"owner()": {
						"details": "Returns the address of the current owner."
					},
					"transferOwnership(address)": {
						"details": "Transfers ownership of the contract to a new account (`newOwner`). Can only be called by the current owner."
					}
				},
				"version": 1
			},
			"evm": {
				"assembly": "    /* \"database/business/post/ListBusinessPost.sol\":269:1975  contract ListBusinessPost is Ownable {... */\n  mstore(0x40, 0x80)\n    /* \"database/business/post/ListBusinessPost.sol\":395:396  0 */\n  0x00\n    /* \"database/business/post/ListBusinessPost.sol\":363:396  uint256 private autoIncrement = 0 */\n  0x02\n  sstore\n    /* \"database/business/post/ListBusinessPost.sol\":403:429  constructor() Ownable() {} */\n  callvalue\n  dup1\n  iszero\n  tag_1\n  jumpi\n  0x00\n  dup1\n  revert\ntag_1:\n  pop\n    /* \"abstract/Ownable.sol\":923:929  _owner */\n  0x00\n    /* \"abstract/Ownable.sol\":923:942  _owner = msg.sender */\n  dup1\n  sload\n  not(sub(shl(0xa0, 0x01), 0x01))\n  and\n    /* \"abstract/Ownable.sol\":932:942  msg.sender */\n  caller\n    /* \"abstract/Ownable.sol\":923:942  _owner = msg.sender */\n  or\n  swap1\n  sstore\n    /* \"database/business/post/ListBusinessPost.sol\":269:1975  contract ListBusinessPost is Ownable {... */\n  dataSize(sub_0)\n  dup1\n  dataOffset(sub_0)\n  0x00\n  codecopy\n  0x00\n  return\nstop\n\nsub_0: assembly {\n        /* \"database/business/post/ListBusinessPost.sol\":269:1975  contract ListBusinessPost is Ownable {... */\n      mstore(0x40, 0x80)\n      callvalue\n      dup1\n      iszero\n      tag_1\n      jumpi\n      0x00\n      dup1\n      revert\n    tag_1:\n      pop\n      jumpi(tag_2, lt(calldatasize, 0x04))\n      shr(0xe0, calldataload(0x00))\n      dup1\n      0xb615c00a\n      gt\n      tag_10\n      jumpi\n      dup1\n      0xb615c00a\n      eq\n      tag_6\n      jumpi\n      dup1\n      0xc78a6741\n      eq\n      tag_7\n      jumpi\n      dup1\n      0xf2fde38b\n      eq\n      tag_8\n      jumpi\n      dup1\n      0xfd82e9dd\n      eq\n      tag_9\n      jumpi\n      0x00\n      dup1\n      revert\n    tag_10:\n      dup1\n      0x116f4a23\n      eq\n      tag_3\n      jumpi\n      dup1\n      0x83197ef0\n      eq\n      tag_4\n      jumpi\n      dup1\n      0x8da5cb5b\n      eq\n      tag_5\n      jumpi\n    tag_2:\n      0x00\n      dup1\n      revert\n        /* \"database/business/post/ListBusinessPost.sol\":1059:1359  function add(BusinessPost memory item, bytes32 secret)... */\n    tag_3:\n      tag_11\n      tag_12\n      calldatasize\n      0x04\n      tag_13\n      jump\t// in\n    tag_12:\n      tag_14\n      jump\t// in\n    tag_11:\n      mload(0x40)\n        /* \"#utility.yul\":2875:2900   */\n      swap1\n      dup2\n      mstore\n        /* \"#utility.yul\":2863:2865   */\n      0x20\n        /* \"#utility.yul\":2848:2866   */\n      add\n        /* \"database/business/post/ListBusinessPost.sol\":1059:1359  function add(BusinessPost memory item, bytes32 secret)... */\n    tag_15:\n      mload(0x40)\n      dup1\n      swap2\n      sub\n      swap1\n      return\n        /* \"abstract/Ownable.sol\":2642:2731  function destroy() public onlyOwner {... */\n    tag_4:\n      tag_17\n      tag_18\n      jump\t// in\n    tag_17:\n      stop\n        /* \"abstract/Ownable.sol\":1175:1260  function owner() public view virtual returns (address) {... */\n    tag_5:\n        /* \"abstract/Ownable.sol\":1221:1228  address */\n      0x00\n        /* \"abstract/Ownable.sol\":1247:1253  _owner */\n      sload\n        /* \"abstract/Ownable.sol\":1175:1260  function owner() public view virtual returns (address) {... */\n      mload(0x40)\n      sub(shl(0xa0, 0x01), 0x01)\n        /* \"abstract/Ownable.sol\":1247:1253  _owner */\n      swap1\n      swap2\n      and\n        /* \"#utility.yul\":3057:3108   */\n      dup2\n      mstore\n        /* \"#utility.yul\":3045:3047   */\n      0x20\n        /* \"#utility.yul\":3030:3048   */\n      add\n        /* \"abstract/Ownable.sol\":1175:1260  function owner() public view virtual returns (address) {... */\n      tag_15\n        /* \"#utility.yul\":2911:3114   */\n      jump\n        /* \"database/business/post/ListBusinessPost.sol\":1578:1972  function hide(uint256 index, bytes32 secret)... */\n    tag_6:\n      tag_23\n      tag_24\n      calldatasize\n      0x04\n      tag_25\n      jump\t// in\n    tag_24:\n      tag_26\n      jump\t// in\n    tag_23:\n      mload(0x40)\n        /* \"#utility.yul\":3537:3551   */\n      swap1\n      iszero\n        /* \"#utility.yul\":3530:3552   */\n      iszero\n        /* \"#utility.yul\":3512:3553   */\n      dup2\n      mstore\n        /* \"#utility.yul\":3500:3502   */\n      0x20\n        /* \"#utility.yul\":3485:3503   */\n      add\n        /* \"database/business/post/ListBusinessPost.sol\":1578:1972  function hide(uint256 index, bytes32 secret)... */\n      tag_15\n        /* \"#utility.yul\":3372:3559   */\n      jump\n        /* \"database/business/post/ListBusinessPost.sol\":1365:1572  function at(uint256 index, bytes32 secret)... */\n    tag_7:\n      tag_29\n      tag_30\n      calldatasize\n      0x04\n      tag_25\n      jump\t// in\n    tag_30:\n      tag_31\n      jump\t// in\n    tag_29:\n      mload(0x40)\n      tag_15\n      swap2\n      swap1\n      tag_33\n      jump\t// in\n        /* \"abstract/Ownable.sol\":2063:2295  function transferOwnership(address newOwner) public virtual onlyOwner {... */\n    tag_8:\n      tag_17\n      tag_35\n      calldatasize\n      0x04\n      tag_36\n      jump\t// in\n    tag_35:\n      tag_37\n      jump\t// in\n        /* \"database/business/post/ListBusinessPost.sol\":890:1053  function getLength(bytes32 secret)... */\n    tag_9:\n      tag_11\n      tag_39\n      calldatasize\n      0x04\n      tag_40\n      jump\t// in\n    tag_39:\n      tag_41\n      jump\t// in\n        /* \"database/business/post/ListBusinessPost.sol\":1059:1359  function add(BusinessPost memory item, bytes32 secret)... */\n    tag_14:\n        /* \"database/business/post/ListBusinessPost.sol\":1179:1186  uint256 */\n      0x00\n        /* \"database/business/post/ListBusinessPost.sol\":1154:1160  secret */\n      dup2\n      0x00\n      dup1\n      mload\n      0x20\n      data_98ee57057fe0a523e70b51608fd55a37ff53d47c3b8dac495a5f45d45157392f\n      dup4\n      codecopy\n      dup2\n      mload\n      swap2\n      mstore\n        /* \"database/business/post/ListBusinessPost.sol\":580:601  value == DATABASE_KEY */\n      dup2\n      eq\n        /* \"database/business/post/ListBusinessPost.sol\":559:670  require(... */\n      tag_44\n      jumpi\n      mload(0x40)\n      shl(0xe5, 0x461bcd)\n      dup2\n      mstore\n      0x04\n      add\n      tag_45\n      swap1\n      tag_46\n      jump\t// in\n    tag_45:\n      mload(0x40)\n      dup1\n      swap2\n      sub\n      swap1\n      revert\n    tag_44:\n        /* \"database/business/post/ListBusinessPost.sol\":1202:1215  autoIncrement */\n      0x02\n        /* \"database/business/post/ListBusinessPost.sol\":1202:1217  autoIncrement++ */\n      dup1\n      sload\n      swap1\n        /* \"database/business/post/ListBusinessPost.sol\":1202:1215  autoIncrement */\n      0x00\n        /* \"database/business/post/ListBusinessPost.sol\":1202:1217  autoIncrement++ */\n      tag_48\n      dup4\n      tag_49\n      jump\t// in\n    tag_48:\n      swap1\n      swap2\n      sstore\n      pop\n      pop\n        /* \"database/business/post/ListBusinessPost.sol\":1249:1262  autoIncrement */\n      0x02\n      dup1\n      sload\n        /* \"database/business/post/ListBusinessPost.sol\":1227:1246  item.businessPostId */\n      0x20\n      dup1\n      dup8\n      add\n        /* \"database/business/post/ListBusinessPost.sol\":1227:1262  item.businessPostId = autoIncrement */\n      dup3\n      dup2\n      mstore\n        /* \"database/business/post/ListBusinessPost.sol\":1272:1291  list[autoIncrement] */\n      0x00\n      swap3\n      dup4\n      mstore\n        /* \"database/business/post/ListBusinessPost.sol\":1272:1276  list */\n      0x01\n        /* \"database/business/post/ListBusinessPost.sol\":1272:1291  list[autoIncrement] */\n      swap2\n      dup3\n      swap1\n      mstore\n      0x40\n      swap3\n      dup4\n      swap1\n      keccak256\n        /* \"database/business/post/ListBusinessPost.sol\":1272:1298  list[autoIncrement] = item */\n      dup9\n      mload\n      dup2\n      sstore\n      swap1\n      mload\n      swap2\n      dup2\n      add\n      swap2\n      swap1\n      swap2\n      sstore\n      swap1\n      dup7\n      add\n      mload\n        /* \"database/business/post/ListBusinessPost.sol\":1227:1231  item */\n      dup7\n      swap3\n        /* \"database/business/post/ListBusinessPost.sol\":1272:1298  list[autoIncrement] = item */\n      dup3\n      add\n      swap1\n      tag_50\n      swap1\n      dup3\n      tag_51\n      jump\t// in\n    tag_50:\n      pop\n      0x60\n      dup3\n      add\n      mload\n      0x03\n      dup3\n      add\n      sstore\n      0x80\n      dup3\n      add\n      mload\n      0x04\n      dup3\n      add\n      swap1\n      tag_52\n      swap1\n      dup3\n      tag_51\n      jump\t// in\n    tag_52:\n      pop\n      0xa0\n      dup3\n      add\n      mload\n      0x05\n      dup3\n      add\n      swap1\n      tag_53\n      swap1\n      dup3\n      tag_51\n      jump\t// in\n    tag_53:\n      pop\n      0xc0\n      dup3\n      add\n      mload\n      0x06\n      dup3\n      add\n      swap1\n      tag_54\n      swap1\n      dup3\n      tag_51\n      jump\t// in\n    tag_54:\n      pop\n      0xe0\n      dup3\n      add\n      mload\n      0x07\n      dup3\n      add\n      dup1\n      sload\n      not(0xff)\n      and\n      0x01\n      dup4\n      0x02\n      dup2\n      gt\n      iszero\n      tag_56\n      jumpi\n      tag_56\n      tag_57\n      jump\t// in\n    tag_56:\n      mul\n      or\n      swap1\n      sstore\n      pop\n      swap1\n      pop\n      pop\n        /* \"database/business/post/ListBusinessPost.sol\":1313:1322  Add(item) */\n      0x0d5ee3861e0240d8a6d08d64672bed790ae1b3bc668354ffbf817ae2db0f3533\n        /* \"database/business/post/ListBusinessPost.sol\":1317:1321  item */\n      dup5\n        /* \"database/business/post/ListBusinessPost.sol\":1313:1322  Add(item) */\n      mload(0x40)\n      tag_58\n      swap2\n      swap1\n      tag_33\n      jump\t// in\n    tag_58:\n      mload(0x40)\n      dup1\n      swap2\n      sub\n      swap1\n      log1\n      pop\n      pop\n        /* \"database/business/post/ListBusinessPost.sol\":1339:1352  autoIncrement */\n      sload(0x02)\n      swap3\n        /* \"database/business/post/ListBusinessPost.sol\":1059:1359  function add(BusinessPost memory item, bytes32 secret)... */\n      swap2\n      pop\n      pop\n      jump\t// out\n        /* \"abstract/Ownable.sol\":2642:2731  function destroy() public onlyOwner {... */\n    tag_18:\n        /* \"abstract/Ownable.sol\":1068:1081  _checkOwner() */\n      tag_60\n        /* \"abstract/Ownable.sol\":1068:1079  _checkOwner */\n      tag_61\n        /* \"abstract/Ownable.sol\":1068:1081  _checkOwner() */\n      jump\t// in\n    tag_60:\n        /* \"abstract/Ownable.sol\":2717:2721  this */\n      address\n        /* \"abstract/Ownable.sol\":2688:2724  selfdestruct(payable(address(this))) */\n      selfdestruct\n        /* \"database/business/post/ListBusinessPost.sol\":1578:1972  function hide(uint256 index, bytes32 secret)... */\n    tag_26:\n        /* \"database/business/post/ListBusinessPost.sol\":1714:1718  bool */\n      0x00\n        /* \"database/business/post/ListBusinessPost.sol\":1663:1669  secret */\n      dup2\n      0x00\n      dup1\n      mload\n      0x20\n      data_98ee57057fe0a523e70b51608fd55a37ff53d47c3b8dac495a5f45d45157392f\n      dup4\n      codecopy\n      dup2\n      mload\n      swap2\n      mstore\n        /* \"database/business/post/ListBusinessPost.sol\":580:601  value == DATABASE_KEY */\n      dup2\n      eq\n        /* \"database/business/post/ListBusinessPost.sol\":559:670  require(... */\n      tag_65\n      jumpi\n      mload(0x40)\n      shl(0xe5, 0x461bcd)\n      dup2\n      mstore\n      0x04\n      add\n      tag_45\n      swap1\n      tag_46\n      jump\t// in\n    tag_65:\n        /* \"database/business/post/ListBusinessPost.sol\":1690:1695  index */\n      dup4\n        /* \"database/business/post/ListBusinessPost.sol\":766:771  index */\n      dup1\n        /* \"database/business/post/ListBusinessPost.sol\":761:762  1 */\n      0x01\n        /* \"database/business/post/ListBusinessPost.sol\":761:771  1 <= index */\n      gt\n      iszero\n        /* \"database/business/post/ListBusinessPost.sol\":760:800  (1 <= index) && (index <= autoIncrement) */\n      dup1\n      iszero\n      tag_68\n      jumpi\n      pop\n        /* \"database/business/post/ListBusinessPost.sol\":786:799  autoIncrement */\n      sload(0x02)\n        /* \"database/business/post/ListBusinessPost.sol\":777:782  index */\n      dup2\n        /* \"database/business/post/ListBusinessPost.sol\":777:799  index <= autoIncrement */\n      gt\n      iszero\n        /* \"database/business/post/ListBusinessPost.sol\":760:800  (1 <= index) && (index <= autoIncrement) */\n    tag_68:\n        /* \"database/business/post/ListBusinessPost.sol\":739:866  require(... */\n      tag_69\n      jumpi\n      mload(0x40)\n      shl(0xe5, 0x461bcd)\n      dup2\n      mstore\n      0x04\n      add\n      tag_45\n      swap1\n      tag_71\n      jump\t// in\n    tag_69:\n        /* \"database/business/post/ListBusinessPost.sol\":1760:1917  BusinessPost(... */\n      0x40\n      dup1\n      mload\n      0x0100\n      dup2\n      add\n      dup3\n      mstore\n      0x00\n      dup1\n      dup3\n      mstore\n      0x20\n      dup1\n      dup4\n      add\n      dup3\n      dup2\n      mstore\n      dup5\n      mload\n      dup1\n      dup4\n      add\n      dup7\n      mstore\n      dup4\n      dup2\n      mstore\n      dup5\n      dup7\n      add\n      swap1\n      dup2\n      mstore\n      0x60\n      dup6\n      add\n      dup5\n      swap1\n      mstore\n      dup6\n      mload\n      dup1\n      dup5\n      add\n      dup8\n      mstore\n      dup5\n      dup2\n      mstore\n      0x80\n      dup7\n      add\n      mstore\n      dup6\n      mload\n      dup1\n      dup5\n      add\n      dup8\n      mstore\n      dup5\n      dup2\n      mstore\n      0xa0\n      dup7\n      add\n      mstore\n      dup6\n      mload\n      dup1\n      dup5\n      add\n      dup8\n      mstore\n      dup5\n      dup2\n      mstore\n      0xc0\n      dup7\n      add\n      mstore\n        /* \"database/business/post/ListBusinessPost.sol\":1895:1907  Status.close */\n      0x01\n        /* \"database/business/post/ListBusinessPost.sol\":1760:1917  BusinessPost(... */\n      0xe0\n      dup7\n      add\n      dup2\n      swap1\n      mstore\n        /* \"database/business/post/ListBusinessPost.sol\":1927:1938  list[index] */\n      dup12\n      dup6\n      mstore\n      swap3\n      dup4\n      swap1\n      mstore\n      swap5\n      swap1\n      swap3\n      keccak256\n        /* \"database/business/post/ListBusinessPost.sol\":1927:1944  list[index] = gap */\n      dup4\n      mload\n      dup2\n      sstore\n      swap2\n      mload\n      swap1\n      dup3\n      add\n      sstore\n      swap2\n      mload\n        /* \"database/business/post/ListBusinessPost.sol\":1760:1917  BusinessPost(... */\n      swap1\n      swap2\n      dup3\n      swap2\n        /* \"database/business/post/ListBusinessPost.sol\":1927:1944  list[index] = gap */\n      0x02\n      dup3\n      add\n      swap1\n      tag_75\n      swap1\n      dup3\n      tag_51\n      jump\t// in\n    tag_75:\n      pop\n      0x60\n      dup3\n      add\n      mload\n      0x03\n      dup3\n      add\n      sstore\n      0x80\n      dup3\n      add\n      mload\n      0x04\n      dup3\n      add\n      swap1\n      tag_76\n      swap1\n      dup3\n      tag_51\n      jump\t// in\n    tag_76:\n      pop\n      0xa0\n      dup3\n      add\n      mload\n      0x05\n      dup3\n      add\n      swap1\n      tag_77\n      swap1\n      dup3\n      tag_51\n      jump\t// in\n    tag_77:\n      pop\n      0xc0\n      dup3\n      add\n      mload\n      0x06\n      dup3\n      add\n      swap1\n      tag_78\n      swap1\n      dup3\n      tag_51\n      jump\t// in\n    tag_78:\n      pop\n      0xe0\n      dup3\n      add\n      mload\n      0x07\n      dup3\n      add\n      dup1\n      sload\n      not(0xff)\n      and\n      0x01\n      dup4\n      0x02\n      dup2\n      gt\n      iszero\n      tag_80\n      jumpi\n      tag_80\n      tag_57\n      jump\t// in\n    tag_80:\n      mul\n      or\n      swap1\n      sstore\n      pop\n        /* \"database/business/post/ListBusinessPost.sol\":1961:1965  true */\n      0x01\n      swap9\n        /* \"database/business/post/ListBusinessPost.sol\":1578:1972  function hide(uint256 index, bytes32 secret)... */\n      swap8\n      pop\n      pop\n      pop\n      pop\n      pop\n      pop\n      pop\n      pop\n      jump\t// out\n        /* \"database/business/post/ListBusinessPost.sol\":1365:1572  function at(uint256 index, bytes32 secret)... */\n    tag_31:\n        /* \"database/business/post/ListBusinessPost.sol\":1512:1531  BusinessPost memory */\n      tag_81\n      tag_82\n      jump\t// in\n    tag_81:\n        /* \"database/business/post/ListBusinessPost.sol\":1461:1467  secret */\n      dup2\n      0x00\n      dup1\n      mload\n      0x20\n      data_98ee57057fe0a523e70b51608fd55a37ff53d47c3b8dac495a5f45d45157392f\n      dup4\n      codecopy\n      dup2\n      mload\n      swap2\n      mstore\n        /* \"database/business/post/ListBusinessPost.sol\":580:601  value == DATABASE_KEY */\n      dup2\n      eq\n        /* \"database/business/post/ListBusinessPost.sol\":559:670  require(... */\n      tag_84\n      jumpi\n      mload(0x40)\n      shl(0xe5, 0x461bcd)\n      dup2\n      mstore\n      0x04\n      add\n      tag_45\n      swap1\n      tag_46\n      jump\t// in\n    tag_84:\n        /* \"database/business/post/ListBusinessPost.sol\":1488:1493  index */\n      dup4\n        /* \"database/business/post/ListBusinessPost.sol\":766:771  index */\n      dup1\n        /* \"database/business/post/ListBusinessPost.sol\":761:762  1 */\n      0x01\n        /* \"database/business/post/ListBusinessPost.sol\":761:771  1 <= index */\n      gt\n      iszero\n        /* \"database/business/post/ListBusinessPost.sol\":760:800  (1 <= index) && (index <= autoIncrement) */\n      dup1\n      iszero\n      tag_87\n      jumpi\n      pop\n        /* \"database/business/post/ListBusinessPost.sol\":786:799  autoIncrement */\n      sload(0x02)\n        /* \"database/business/post/ListBusinessPost.sol\":777:782  index */\n      dup2\n        /* \"database/business/post/ListBusinessPost.sol\":777:799  index <= autoIncrement */\n      gt\n      iszero\n        /* \"database/business/post/ListBusinessPost.sol\":760:800  (1 <= index) && (index <= autoIncrement) */\n    tag_87:\n        /* \"database/business/post/ListBusinessPost.sol\":739:866  require(... */\n      tag_88\n      jumpi\n      mload(0x40)\n      shl(0xe5, 0x461bcd)\n      dup2\n      mstore\n      0x04\n      add\n      tag_45\n      swap1\n      tag_71\n      jump\t// in\n    tag_88:\n        /* \"database/business/post/ListBusinessPost.sol\":1554:1558  list */\n      0x01\n        /* \"database/business/post/ListBusinessPost.sol\":1554:1565  list[index] */\n      0x00\n        /* \"database/business/post/ListBusinessPost.sol\":1559:1564  index */\n      dup7\n        /* \"database/business/post/ListBusinessPost.sol\":1554:1565  list[index] */\n      dup2\n      mstore\n      0x20\n      add\n      swap1\n      dup2\n      mstore\n      0x20\n      add\n      0x00\n      keccak256\n        /* \"database/business/post/ListBusinessPost.sol\":1547:1565  return list[index] */\n      mload(0x40)\n      dup1\n      0x0100\n      add\n      0x40\n      mstore\n      swap1\n      dup2\n      0x00\n      dup3\n      add\n      sload\n      dup2\n      mstore\n      0x20\n      add\n      0x01\n      dup3\n      add\n      sload\n      dup2\n      mstore\n      0x20\n      add\n      0x02\n      dup3\n      add\n      dup1\n      sload\n      tag_91\n      swap1\n      tag_92\n      jump\t// in\n    tag_91:\n      dup1\n      0x1f\n      add\n      0x20\n      dup1\n      swap2\n      div\n      mul\n      0x20\n      add\n      mload(0x40)\n      swap1\n      dup2\n      add\n      0x40\n      mstore\n      dup1\n      swap3\n      swap2\n      swap1\n      dup2\n      dup2\n      mstore\n      0x20\n      add\n      dup3\n      dup1\n      sload\n      tag_93\n      swap1\n      tag_92\n      jump\t// in\n    tag_93:\n      dup1\n      iszero\n      tag_94\n      jumpi\n      dup1\n      0x1f\n      lt\n      tag_95\n      jumpi\n      0x0100\n      dup1\n      dup4\n      sload\n      div\n      mul\n      dup4\n      mstore\n      swap2\n      0x20\n      add\n      swap2\n      jump(tag_94)\n    tag_95:\n      dup3\n      add\n      swap2\n      swap1\n      0x00\n      mstore\n      keccak256(0x00, 0x20)\n      swap1\n    tag_96:\n      dup2\n      sload\n      dup2\n      mstore\n      swap1\n      0x01\n      add\n      swap1\n      0x20\n      add\n      dup1\n      dup4\n      gt\n      tag_96\n      jumpi\n      dup3\n      swap1\n      sub\n      0x1f\n      and\n      dup3\n      add\n      swap2\n    tag_94:\n      pop\n      pop\n      pop\n      pop\n      pop\n      dup2\n      mstore\n      0x20\n      add\n      0x03\n      dup3\n      add\n      sload\n      dup2\n      mstore\n      0x20\n      add\n      0x04\n      dup3\n      add\n      dup1\n      sload\n      tag_97\n      swap1\n      tag_92\n      jump\t// in\n    tag_97:\n      dup1\n      0x1f\n      add\n      0x20\n      dup1\n      swap2\n      div\n      mul\n      0x20\n      add\n      mload(0x40)\n      swap1\n      dup2\n      add\n      0x40\n      mstore\n      dup1\n      swap3\n      swap2\n      swap1\n      dup2\n      dup2\n      mstore\n      0x20\n      add\n      dup3\n      dup1\n      sload\n      tag_98\n      swap1\n      tag_92\n      jump\t// in\n    tag_98:\n      dup1\n      iszero\n      tag_99\n      jumpi\n      dup1\n      0x1f\n      lt\n      tag_100\n      jumpi\n      0x0100\n      dup1\n      dup4\n      sload\n      div\n      mul\n      dup4\n      mstore\n      swap2\n      0x20\n      add\n      swap2\n      jump(tag_99)\n    tag_100:\n      dup3\n      add\n      swap2\n      swap1\n      0x00\n      mstore\n      keccak256(0x00, 0x20)\n      swap1\n    tag_101:\n      dup2\n      sload\n      dup2\n      mstore\n      swap1\n      0x01\n      add\n      swap1\n      0x20\n      add\n      dup1\n      dup4\n      gt\n      tag_101\n      jumpi\n      dup3\n      swap1\n      sub\n      0x1f\n      and\n      dup3\n      add\n      swap2\n    tag_99:\n      pop\n      pop\n      pop\n      pop\n      pop\n      dup2\n      mstore\n      0x20\n      add\n      0x05\n      dup3\n      add\n      dup1\n      sload\n      tag_102\n      swap1\n      tag_92\n      jump\t// in\n    tag_102:\n      dup1\n      0x1f\n      add\n      0x20\n      dup1\n      swap2\n      div\n      mul\n      0x20\n      add\n      mload(0x40)\n      swap1\n      dup2\n      add\n      0x40\n      mstore\n      dup1\n      swap3\n      swap2\n      swap1\n      dup2\n      dup2\n      mstore\n      0x20\n      add\n      dup3\n      dup1\n      sload\n      tag_103\n      swap1\n      tag_92\n      jump\t// in\n    tag_103:\n      dup1\n      iszero\n      tag_104\n      jumpi\n      dup1\n      0x1f\n      lt\n      tag_105\n      jumpi\n      0x0100\n      dup1\n      dup4\n      sload\n      div\n      mul\n      dup4\n      mstore\n      swap2\n      0x20\n      add\n      swap2\n      jump(tag_104)\n    tag_105:\n      dup3\n      add\n      swap2\n      swap1\n      0x00\n      mstore\n      keccak256(0x00, 0x20)\n      swap1\n    tag_106:\n      dup2\n      sload\n      dup2\n      mstore\n      swap1\n      0x01\n      add\n      swap1\n      0x20\n      add\n      dup1\n      dup4\n      gt\n      tag_106\n      jumpi\n      dup3\n      swap1\n      sub\n      0x1f\n      and\n      dup3\n      add\n      swap2\n    tag_104:\n      pop\n      pop\n      pop\n      pop\n      pop\n      dup2\n      mstore\n      0x20\n      add\n      0x06\n      dup3\n      add\n      dup1\n      sload\n      tag_107\n      swap1\n      tag_92\n      jump\t// in\n    tag_107:\n      dup1\n      0x1f\n      add\n      0x20\n      dup1\n      swap2\n      div\n      mul\n      0x20\n      add\n      mload(0x40)\n      swap1\n      dup2\n      add\n      0x40\n      mstore\n      dup1\n      swap3\n      swap2\n      swap1\n      dup2\n      dup2\n      mstore\n      0x20\n      add\n      dup3\n      dup1\n      sload\n      tag_108\n      swap1\n      tag_92\n      jump\t// in\n    tag_108:\n      dup1\n      iszero\n      tag_109\n      jumpi\n      dup1\n      0x1f\n      lt\n      tag_110\n      jumpi\n      0x0100\n      dup1\n      dup4\n      sload\n      div\n      mul\n      dup4\n      mstore\n      swap2\n      0x20\n      add\n      swap2\n      jump(tag_109)\n    tag_110:\n      dup3\n      add\n      swap2\n      swap1\n      0x00\n      mstore\n      keccak256(0x00, 0x20)\n      swap1\n    tag_111:\n      dup2\n      sload\n      dup2\n      mstore\n      swap1\n      0x01\n      add\n      swap1\n      0x20\n      add\n      dup1\n      dup4\n      gt\n      tag_111\n      jumpi\n      dup3\n      swap1\n      sub\n      0x1f\n      and\n      dup3\n      add\n      swap2\n    tag_109:\n      pop\n      pop\n      pop\n      swap2\n      dup4\n      mstore\n      pop\n      pop\n      0x07\n      dup3\n      add\n      sload\n      0x20\n      swap1\n      swap2\n      add\n      swap1\n      0xff\n      and\n      0x02\n      dup2\n      gt\n      iszero\n      tag_113\n      jumpi\n      tag_113\n      tag_57\n      jump\t// in\n    tag_113:\n      0x02\n      dup2\n      gt\n      iszero\n      tag_115\n      jumpi\n      tag_115\n      tag_57\n      jump\t// in\n    tag_115:\n      swap1\n      mstore\n      pop\n      swap6\n        /* \"database/business/post/ListBusinessPost.sol\":1365:1572  function at(uint256 index, bytes32 secret)... */\n      swap5\n      pop\n      pop\n      pop\n      pop\n      pop\n      jump\t// out\n        /* \"abstract/Ownable.sol\":2063:2295  function transferOwnership(address newOwner) public virtual onlyOwner {... */\n    tag_37:\n        /* \"abstract/Ownable.sol\":1068:1081  _checkOwner() */\n      tag_117\n        /* \"abstract/Ownable.sol\":1068:1079  _checkOwner */\n      tag_61\n        /* \"abstract/Ownable.sol\":1068:1081  _checkOwner() */\n      jump\t// in\n    tag_117:\n      sub(shl(0xa0, 0x01), 0x01)\n        /* \"abstract/Ownable.sol\":2164:2186  newOwner != address(0) */\n      dup2\n      and\n        /* \"abstract/Ownable.sol\":2143:2250  require(... */\n      tag_119\n      jumpi\n      mload(0x40)\n      shl(0xe5, 0x461bcd)\n      dup2\n      mstore\n        /* \"#utility.yul\":9979:9981   */\n      0x20\n        /* \"abstract/Ownable.sol\":2143:2250  require(... */\n      0x04\n      dup3\n      add\n        /* \"#utility.yul\":9961:9982   */\n      mstore\n        /* \"#utility.yul\":10018:10020   */\n      0x26\n        /* \"#utility.yul\":9998:10016   */\n      0x24\n      dup3\n      add\n        /* \"#utility.yul\":9991:10021   */\n      mstore\n        /* \"#utility.yul\":10057:10091   */\n      0x4f776e61626c653a206e6577206f776e657220697320746865207a65726f2061\n        /* \"#utility.yul\":10037:10055   */\n      0x44\n      dup3\n      add\n        /* \"#utility.yul\":10030:10092   */\n      mstore\n      shl(0xd0, 0x646472657373)\n        /* \"#utility.yul\":10108:10126   */\n      0x64\n      dup3\n      add\n        /* \"#utility.yul\":10101:10137   */\n      mstore\n        /* \"#utility.yul\":10154:10173   */\n      0x84\n      add\n        /* \"abstract/Ownable.sol\":2143:2250  require(... */\n      tag_45\n        /* \"#utility.yul\":9777:10179   */\n      jump\n        /* \"abstract/Ownable.sol\":2143:2250  require(... */\n    tag_119:\n        /* \"abstract/Ownable.sol\":2260:2288  _transferOwnership(newOwner) */\n      tag_122\n        /* \"abstract/Ownable.sol\":2279:2287  newOwner */\n      dup2\n        /* \"abstract/Ownable.sol\":2260:2278  _transferOwnership */\n      tag_123\n        /* \"abstract/Ownable.sol\":2260:2288  _transferOwnership(newOwner) */\n      jump\t// in\n    tag_122:\n        /* \"abstract/Ownable.sol\":2063:2295  function transferOwnership(address newOwner) public virtual onlyOwner {... */\n      pop\n      jump\t// out\n        /* \"database/business/post/ListBusinessPost.sol\":890:1053  function getLength(bytes32 secret)... */\n    tag_41:\n        /* \"database/business/post/ListBusinessPost.sol\":1003:1010  uint256 */\n      0x00\n        /* \"database/business/post/ListBusinessPost.sol\":978:984  secret */\n      dup2\n      0x00\n      dup1\n      mload\n      0x20\n      data_98ee57057fe0a523e70b51608fd55a37ff53d47c3b8dac495a5f45d45157392f\n      dup4\n      codecopy\n      dup2\n      mload\n      swap2\n      mstore\n        /* \"database/business/post/ListBusinessPost.sol\":580:601  value == DATABASE_KEY */\n      dup2\n      eq\n        /* \"database/business/post/ListBusinessPost.sol\":559:670  require(... */\n      tag_125\n      jumpi\n      mload(0x40)\n      shl(0xe5, 0x461bcd)\n      dup2\n      mstore\n      0x04\n      add\n      tag_45\n      swap1\n      tag_46\n      jump\t// in\n    tag_125:\n        /* \"database/business/post/ListBusinessPost.sol\":1033:1046  autoIncrement */\n      sload(0x02)\n        /* \"database/business/post/ListBusinessPost.sol\":1026:1046  return autoIncrement */\n      swap2\n      pop\n        /* \"database/business/post/ListBusinessPost.sol\":680:681  _ */\n    tag_127:\n        /* \"database/business/post/ListBusinessPost.sol\":890:1053  function getLength(bytes32 secret)... */\n      pop\n      swap2\n      swap1\n      pop\n      jump\t// out\n        /* \"abstract/Ownable.sol\":1333:1461  function _checkOwner() internal view virtual {... */\n    tag_61:\n        /* \"abstract/Ownable.sol\":1407:1417  msg.sender */\n      caller\n        /* \"abstract/Ownable.sol\":1396:1403  owner() */\n      tag_129\n        /* \"abstract/Ownable.sol\":1221:1228  address */\n      0x00\n        /* \"abstract/Ownable.sol\":1247:1253  _owner */\n      sload\n      sub(shl(0xa0, 0x01), 0x01)\n      and\n      swap1\n        /* \"abstract/Ownable.sol\":1175:1260  function owner() public view virtual returns (address) {... */\n      jump\n        /* \"abstract/Ownable.sol\":1396:1403  owner() */\n    tag_129:\n      sub(shl(0xa0, 0x01), 0x01)\n        /* \"abstract/Ownable.sol\":1396:1417  owner() == msg.sender */\n      and\n      eq\n        /* \"abstract/Ownable.sol\":1388:1454  require(owner() == msg.sender, \"Ownable: caller is not the owner\") */\n      tag_130\n      jumpi\n      mload(0x40)\n      shl(0xe5, 0x461bcd)\n      dup2\n      mstore\n        /* \"#utility.yul\":10386:10388   */\n      0x20\n        /* \"abstract/Ownable.sol\":1388:1454  require(owner() == msg.sender, \"Ownable: caller is not the owner\") */\n      0x04\n      dup3\n      add\n        /* \"#utility.yul\":10368:10389   */\n      dup2\n      swap1\n      mstore\n        /* \"#utility.yul\":10405:10423   */\n      0x24\n      dup3\n      add\n        /* \"#utility.yul\":10398:10428   */\n      mstore\n        /* \"#utility.yul\":10464:10498   */\n      0x4f776e61626c653a2063616c6c6572206973206e6f7420746865206f776e6572\n        /* \"#utility.yul\":10444:10462   */\n      0x44\n      dup3\n      add\n        /* \"#utility.yul\":10437:10499   */\n      mstore\n        /* \"#utility.yul\":10516:10534   */\n      0x64\n      add\n        /* \"abstract/Ownable.sol\":1388:1454  require(owner() == msg.sender, \"Ownable: caller is not the owner\") */\n      tag_45\n        /* \"#utility.yul\":10184:10540   */\n      jump\n        /* \"abstract/Ownable.sol\":1388:1454  require(owner() == msg.sender, \"Ownable: caller is not the owner\") */\n    tag_130:\n        /* \"abstract/Ownable.sol\":1333:1461  function _checkOwner() internal view virtual {... */\n      jump\t// out\n        /* \"abstract/Ownable.sol\":2449:2636  function _transferOwnership(address newOwner) internal virtual {... */\n    tag_123:\n        /* \"abstract/Ownable.sol\":2522:2538  address oldOwner */\n      0x00\n        /* \"abstract/Ownable.sol\":2541:2547  _owner */\n      dup1\n      sload\n      sub(shl(0xa0, 0x01), 0x01)\n        /* \"abstract/Ownable.sol\":2557:2574  _owner = newOwner */\n      dup4\n      dup2\n      and\n      not(sub(shl(0xa0, 0x01), 0x01))\n      dup4\n      and\n      dup2\n      or\n      dup5\n      sstore\n        /* \"abstract/Ownable.sol\":2589:2629  OwnershipTransferred(oldOwner, newOwner) */\n      mload(0x40)\n        /* \"abstract/Ownable.sol\":2541:2547  _owner */\n      swap2\n      swap1\n      swap3\n      and\n      swap3\n      dup4\n      swap2\n        /* \"abstract/Ownable.sol\":2589:2629  OwnershipTransferred(oldOwner, newOwner) */\n      0x8be0079c531659141344cd1fd0a4f28419497f9722a3daafe3b4186f6b6457e0\n      swap2\n        /* \"abstract/Ownable.sol\":2522:2538  address oldOwner */\n      swap1\n        /* \"abstract/Ownable.sol\":2589:2629  OwnershipTransferred(oldOwner, newOwner) */\n      log3\n        /* \"abstract/Ownable.sol\":2512:2636  {... */\n      pop\n        /* \"abstract/Ownable.sol\":2449:2636  function _transferOwnership(address newOwner) internal virtual {... */\n      pop\n      jump\t// out\n    tag_82:\n      mload(0x40)\n      dup1\n      0x0100\n      add\n      0x40\n      mstore\n      dup1\n      0x00\n      dup2\n      mstore\n      0x20\n      add\n      0x00\n      dup2\n      mstore\n      0x20\n      add\n      0x60\n      dup2\n      mstore\n      0x20\n      add\n      0x00\n      dup2\n      mstore\n      0x20\n      add\n      0x60\n      dup2\n      mstore\n      0x20\n      add\n      0x60\n      dup2\n      mstore\n      0x20\n      add\n      0x60\n      dup2\n      mstore\n      0x20\n      add\n      0x00\n      0x02\n      dup2\n      gt\n      iszero\n      tag_135\n      jumpi\n      tag_135\n      tag_57\n      jump\t// in\n    tag_135:\n      swap1\n      mstore\n      swap1\n      jump\t// out\n        /* \"#utility.yul\":14:141   */\n    tag_136:\n        /* \"#utility.yul\":75:85   */\n      0x4e487b71\n        /* \"#utility.yul\":70:73   */\n      0xe0\n        /* \"#utility.yul\":66:86   */\n      shl\n        /* \"#utility.yul\":63:64   */\n      0x00\n        /* \"#utility.yul\":56:87   */\n      mstore\n        /* \"#utility.yul\":106:110   */\n      0x41\n        /* \"#utility.yul\":103:104   */\n      0x04\n        /* \"#utility.yul\":96:111   */\n      mstore\n        /* \"#utility.yul\":130:134   */\n      0x24\n        /* \"#utility.yul\":127:128   */\n      0x00\n        /* \"#utility.yul\":120:135   */\n      revert\n        /* \"#utility.yul\":146:396   */\n    tag_137:\n        /* \"#utility.yul\":213:215   */\n      0x40\n        /* \"#utility.yul\":207:216   */\n      mload\n        /* \"#utility.yul\":255:261   */\n      0x0100\n        /* \"#utility.yul\":243:262   */\n      dup2\n      add\n        /* \"#utility.yul\":292:310   */\n      0xffffffffffffffff\n        /* \"#utility.yul\":277:311   */\n      dup2\n      gt\n        /* \"#utility.yul\":313:335   */\n      dup3\n      dup3\n      lt\n        /* \"#utility.yul\":274:336   */\n      or\n        /* \"#utility.yul\":271:359   */\n      iszero\n      tag_149\n      jumpi\n        /* \"#utility.yul\":339:357   */\n      tag_149\n      tag_136\n      jump\t// in\n    tag_149:\n        /* \"#utility.yul\":375:377   */\n      0x40\n        /* \"#utility.yul\":368:390   */\n      mstore\n        /* \"#utility.yul\":146:396   */\n      swap1\n      jump\t// out\n        /* \"#utility.yul\":401:1120   */\n    tag_138:\n        /* \"#utility.yul\":444:449   */\n      0x00\n        /* \"#utility.yul\":497:500   */\n      dup3\n        /* \"#utility.yul\":490:494   */\n      0x1f\n        /* \"#utility.yul\":482:488   */\n      dup4\n        /* \"#utility.yul\":478:495   */\n      add\n        /* \"#utility.yul\":474:501   */\n      slt\n        /* \"#utility.yul\":464:519   */\n      tag_151\n      jumpi\n        /* \"#utility.yul\":515:516   */\n      0x00\n        /* \"#utility.yul\":512:513   */\n      dup1\n        /* \"#utility.yul\":505:517   */\n      revert\n        /* \"#utility.yul\":464:519   */\n    tag_151:\n        /* \"#utility.yul\":551:557   */\n      dup2\n        /* \"#utility.yul\":538:558   */\n      calldataload\n        /* \"#utility.yul\":577:595   */\n      0xffffffffffffffff\n        /* \"#utility.yul\":614:616   */\n      dup1\n        /* \"#utility.yul\":610:612   */\n      dup3\n        /* \"#utility.yul\":607:617   */\n      gt\n        /* \"#utility.yul\":604:640   */\n      iszero\n      tag_153\n      jumpi\n        /* \"#utility.yul\":620:638   */\n      tag_153\n      tag_136\n      jump\t// in\n    tag_153:\n        /* \"#utility.yul\":695:697   */\n      0x40\n        /* \"#utility.yul\":689:698   */\n      mload\n        /* \"#utility.yul\":663:665   */\n      0x1f\n        /* \"#utility.yul\":749:762   */\n      dup4\n      add\n      not(0x1f)\n        /* \"#utility.yul\":745:767   */\n      swap1\n      dup2\n      and\n        /* \"#utility.yul\":769:771   */\n      0x3f\n        /* \"#utility.yul\":741:772   */\n      add\n        /* \"#utility.yul\":737:777   */\n      and\n        /* \"#utility.yul\":725:778   */\n      dup2\n      add\n      swap1\n        /* \"#utility.yul\":793:811   */\n      dup3\n      dup3\n      gt\n        /* \"#utility.yul\":813:835   */\n      dup2\n      dup4\n      lt\n        /* \"#utility.yul\":790:836   */\n      or\n        /* \"#utility.yul\":787:859   */\n      iszero\n      tag_155\n      jumpi\n        /* \"#utility.yul\":839:857   */\n      tag_155\n      tag_136\n      jump\t// in\n    tag_155:\n        /* \"#utility.yul\":879:889   */\n      dup2\n        /* \"#utility.yul\":875:877   */\n      0x40\n        /* \"#utility.yul\":868:890   */\n      mstore\n        /* \"#utility.yul\":914:916   */\n      dup4\n        /* \"#utility.yul\":906:912   */\n      dup2\n        /* \"#utility.yul\":899:917   */\n      mstore\n        /* \"#utility.yul\":960:963   */\n      dup7\n        /* \"#utility.yul\":953:957   */\n      0x20\n        /* \"#utility.yul\":948:950   */\n      dup6\n        /* \"#utility.yul\":940:946   */\n      dup9\n        /* \"#utility.yul\":936:951   */\n      add\n        /* \"#utility.yul\":932:958   */\n      add\n        /* \"#utility.yul\":929:964   */\n      gt\n        /* \"#utility.yul\":926:981   */\n      iszero\n      tag_156\n      jumpi\n        /* \"#utility.yul\":977:978   */\n      0x00\n        /* \"#utility.yul\":974:975   */\n      dup1\n        /* \"#utility.yul\":967:979   */\n      revert\n        /* \"#utility.yul\":926:981   */\n    tag_156:\n        /* \"#utility.yul\":1041:1043   */\n      dup4\n        /* \"#utility.yul\":1034:1038   */\n      0x20\n        /* \"#utility.yul\":1026:1032   */\n      dup8\n        /* \"#utility.yul\":1022:1039   */\n      add\n        /* \"#utility.yul\":1015:1019   */\n      0x20\n        /* \"#utility.yul\":1007:1013   */\n      dup4\n        /* \"#utility.yul\":1003:1020   */\n      add\n        /* \"#utility.yul\":990:1044   */\n      calldatacopy\n        /* \"#utility.yul\":1088:1089   */\n      0x00\n        /* \"#utility.yul\":1081:1085   */\n      0x20\n        /* \"#utility.yul\":1076:1078   */\n      dup6\n        /* \"#utility.yul\":1068:1074   */\n      dup4\n        /* \"#utility.yul\":1064:1079   */\n      add\n        /* \"#utility.yul\":1060:1086   */\n      add\n        /* \"#utility.yul\":1053:1090   */\n      mstore\n        /* \"#utility.yul\":1108:1114   */\n      dup1\n        /* \"#utility.yul\":1099:1114   */\n      swap5\n      pop\n      pop\n      pop\n      pop\n      pop\n        /* \"#utility.yul\":401:1120   */\n      swap3\n      swap2\n      pop\n      pop\n      jump\t// out\n        /* \"#utility.yul\":1125:1272   */\n    tag_139:\n        /* \"#utility.yul\":1197:1217   */\n      dup1\n      calldataload\n        /* \"#utility.yul\":1246:1247   */\n      0x03\n        /* \"#utility.yul\":1236:1248   */\n      dup2\n      lt\n        /* \"#utility.yul\":1226:1266   */\n      tag_158\n      jumpi\n        /* \"#utility.yul\":1262:1263   */\n      0x00\n        /* \"#utility.yul\":1259:1260   */\n      dup1\n        /* \"#utility.yul\":1252:1264   */\n      revert\n        /* \"#utility.yul\":1226:1266   */\n    tag_158:\n        /* \"#utility.yul\":1125:1272   */\n      swap2\n      swap1\n      pop\n      jump\t// out\n        /* \"#utility.yul\":1277:2724   */\n    tag_13:\n        /* \"#utility.yul\":1374:1380   */\n      0x00\n        /* \"#utility.yul\":1382:1388   */\n      dup1\n        /* \"#utility.yul\":1435:1437   */\n      0x40\n        /* \"#utility.yul\":1423:1432   */\n      dup4\n        /* \"#utility.yul\":1414:1421   */\n      dup6\n        /* \"#utility.yul\":1410:1433   */\n      sub\n        /* \"#utility.yul\":1406:1438   */\n      slt\n        /* \"#utility.yul\":1403:1455   */\n      iszero\n      tag_160\n      jumpi\n        /* \"#utility.yul\":1451:1452   */\n      0x00\n        /* \"#utility.yul\":1448:1449   */\n      dup1\n        /* \"#utility.yul\":1441:1453   */\n      revert\n        /* \"#utility.yul\":1403:1455   */\n    tag_160:\n        /* \"#utility.yul\":1491:1500   */\n      dup3\n        /* \"#utility.yul\":1478:1501   */\n      calldataload\n        /* \"#utility.yul\":1520:1538   */\n      0xffffffffffffffff\n        /* \"#utility.yul\":1561:1563   */\n      dup1\n        /* \"#utility.yul\":1553:1559   */\n      dup3\n        /* \"#utility.yul\":1550:1564   */\n      gt\n        /* \"#utility.yul\":1547:1581   */\n      iszero\n      tag_161\n      jumpi\n        /* \"#utility.yul\":1577:1578   */\n      0x00\n        /* \"#utility.yul\":1574:1575   */\n      dup1\n        /* \"#utility.yul\":1567:1579   */\n      revert\n        /* \"#utility.yul\":1547:1581   */\n    tag_161:\n        /* \"#utility.yul\":1600:1622   */\n      swap1\n      dup5\n      add\n      swap1\n        /* \"#utility.yul\":1656:1662   */\n      0x0100\n        /* \"#utility.yul\":1638:1654   */\n      dup3\n      dup8\n      sub\n        /* \"#utility.yul\":1634:1663   */\n      slt\n        /* \"#utility.yul\":1631:1680   */\n      iszero\n      tag_162\n      jumpi\n        /* \"#utility.yul\":1676:1677   */\n      0x00\n        /* \"#utility.yul\":1673:1674   */\n      dup1\n        /* \"#utility.yul\":1666:1678   */\n      revert\n        /* \"#utility.yul\":1631:1680   */\n    tag_162:\n        /* \"#utility.yul\":1702:1719   */\n      tag_163\n      tag_137\n      jump\t// in\n    tag_163:\n        /* \"#utility.yul\":1755:1757   */\n      dup3\n        /* \"#utility.yul\":1742:1758   */\n      calldataload\n        /* \"#utility.yul\":1735:1740   */\n      dup2\n        /* \"#utility.yul\":1728:1759   */\n      mstore\n        /* \"#utility.yul\":1812:1814   */\n      0x20\n        /* \"#utility.yul\":1808:1810   */\n      dup4\n        /* \"#utility.yul\":1804:1815   */\n      add\n        /* \"#utility.yul\":1791:1816   */\n      calldataload\n        /* \"#utility.yul\":1786:1788   */\n      0x20\n        /* \"#utility.yul\":1779:1784   */\n      dup3\n        /* \"#utility.yul\":1775:1789   */\n      add\n        /* \"#utility.yul\":1768:1817   */\n      mstore\n        /* \"#utility.yul\":1863:1865   */\n      0x40\n        /* \"#utility.yul\":1859:1861   */\n      dup4\n        /* \"#utility.yul\":1855:1866   */\n      add\n        /* \"#utility.yul\":1842:1867   */\n      calldataload\n        /* \"#utility.yul\":1892:1894   */\n      dup3\n        /* \"#utility.yul\":1882:1890   */\n      dup2\n        /* \"#utility.yul\":1879:1895   */\n      gt\n        /* \"#utility.yul\":1876:1912   */\n      iszero\n      tag_164\n      jumpi\n        /* \"#utility.yul\":1908:1909   */\n      0x00\n        /* \"#utility.yul\":1905:1906   */\n      dup1\n        /* \"#utility.yul\":1898:1910   */\n      revert\n        /* \"#utility.yul\":1876:1912   */\n    tag_164:\n        /* \"#utility.yul\":1944:1989   */\n      tag_165\n        /* \"#utility.yul\":1981:1988   */\n      dup9\n        /* \"#utility.yul\":1970:1978   */\n      dup3\n        /* \"#utility.yul\":1966:1968   */\n      dup7\n        /* \"#utility.yul\":1962:1979   */\n      add\n        /* \"#utility.yul\":1944:1989   */\n      tag_138\n      jump\t// in\n    tag_165:\n        /* \"#utility.yul\":1939:1941   */\n      0x40\n        /* \"#utility.yul\":1932:1937   */\n      dup4\n        /* \"#utility.yul\":1928:1942   */\n      add\n        /* \"#utility.yul\":1921:1990   */\n      mstore\n      pop\n        /* \"#utility.yul\":2043:2045   */\n      0x60\n        /* \"#utility.yul\":2039:2041   */\n      dup4\n        /* \"#utility.yul\":2035:2046   */\n      add\n        /* \"#utility.yul\":2022:2047   */\n      calldataload\n        /* \"#utility.yul\":2017:2019   */\n      0x60\n        /* \"#utility.yul\":2010:2015   */\n      dup3\n        /* \"#utility.yul\":2006:2020   */\n      add\n        /* \"#utility.yul\":1999:2048   */\n      mstore\n        /* \"#utility.yul\":2094:2097   */\n      0x80\n        /* \"#utility.yul\":2090:2092   */\n      dup4\n        /* \"#utility.yul\":2086:2098   */\n      add\n        /* \"#utility.yul\":2073:2099   */\n      calldataload\n        /* \"#utility.yul\":2124:2126   */\n      dup3\n        /* \"#utility.yul\":2114:2122   */\n      dup2\n        /* \"#utility.yul\":2111:2127   */\n      gt\n        /* \"#utility.yul\":2108:2144   */\n      iszero\n      tag_166\n      jumpi\n        /* \"#utility.yul\":2140:2141   */\n      0x00\n        /* \"#utility.yul\":2137:2138   */\n      dup1\n        /* \"#utility.yul\":2130:2142   */\n      revert\n        /* \"#utility.yul\":2108:2144   */\n    tag_166:\n        /* \"#utility.yul\":2177:2222   */\n      tag_167\n        /* \"#utility.yul\":2214:2221   */\n      dup9\n        /* \"#utility.yul\":2203:2211   */\n      dup3\n        /* \"#utility.yul\":2199:2201   */\n      dup7\n        /* \"#utility.yul\":2195:2212   */\n      add\n        /* \"#utility.yul\":2177:2222   */\n      tag_138\n      jump\t// in\n    tag_167:\n        /* \"#utility.yul\":2171:2174   */\n      0x80\n        /* \"#utility.yul\":2164:2169   */\n      dup4\n        /* \"#utility.yul\":2160:2175   */\n      add\n        /* \"#utility.yul\":2153:2223   */\n      mstore\n      pop\n        /* \"#utility.yul\":2269:2272   */\n      0xa0\n        /* \"#utility.yul\":2265:2267   */\n      dup4\n        /* \"#utility.yul\":2261:2273   */\n      add\n        /* \"#utility.yul\":2248:2274   */\n      calldataload\n        /* \"#utility.yul\":2299:2301   */\n      dup3\n        /* \"#utility.yul\":2289:2297   */\n      dup2\n        /* \"#utility.yul\":2286:2302   */\n      gt\n        /* \"#utility.yul\":2283:2319   */\n      iszero\n      tag_168\n      jumpi\n        /* \"#utility.yul\":2315:2316   */\n      0x00\n        /* \"#utility.yul\":2312:2313   */\n      dup1\n        /* \"#utility.yul\":2305:2317   */\n      revert\n        /* \"#utility.yul\":2283:2319   */\n    tag_168:\n        /* \"#utility.yul\":2352:2397   */\n      tag_169\n        /* \"#utility.yul\":2389:2396   */\n      dup9\n        /* \"#utility.yul\":2378:2386   */\n      dup3\n        /* \"#utility.yul\":2374:2376   */\n      dup7\n        /* \"#utility.yul\":2370:2387   */\n      add\n        /* \"#utility.yul\":2352:2397   */\n      tag_138\n      jump\t// in\n    tag_169:\n        /* \"#utility.yul\":2346:2349   */\n      0xa0\n        /* \"#utility.yul\":2339:2344   */\n      dup4\n        /* \"#utility.yul\":2335:2350   */\n      add\n        /* \"#utility.yul\":2328:2398   */\n      mstore\n      pop\n        /* \"#utility.yul\":2444:2447   */\n      0xc0\n        /* \"#utility.yul\":2440:2442   */\n      dup4\n        /* \"#utility.yul\":2436:2448   */\n      add\n        /* \"#utility.yul\":2423:2449   */\n      calldataload\n        /* \"#utility.yul\":2474:2476   */\n      dup3\n        /* \"#utility.yul\":2464:2472   */\n      dup2\n        /* \"#utility.yul\":2461:2477   */\n      gt\n        /* \"#utility.yul\":2458:2494   */\n      iszero\n      tag_170\n      jumpi\n        /* \"#utility.yul\":2490:2491   */\n      0x00\n        /* \"#utility.yul\":2487:2488   */\n      dup1\n        /* \"#utility.yul\":2480:2492   */\n      revert\n        /* \"#utility.yul\":2458:2494   */\n    tag_170:\n        /* \"#utility.yul\":2527:2572   */\n      tag_171\n        /* \"#utility.yul\":2564:2571   */\n      dup9\n        /* \"#utility.yul\":2553:2561   */\n      dup3\n        /* \"#utility.yul\":2549:2551   */\n      dup7\n        /* \"#utility.yul\":2545:2562   */\n      add\n        /* \"#utility.yul\":2527:2572   */\n      tag_138\n      jump\t// in\n    tag_171:\n        /* \"#utility.yul\":2521:2524   */\n      0xc0\n        /* \"#utility.yul\":2514:2519   */\n      dup4\n        /* \"#utility.yul\":2510:2525   */\n      add\n        /* \"#utility.yul\":2503:2573   */\n      mstore\n      pop\n        /* \"#utility.yul\":2606:2642   */\n      tag_172\n        /* \"#utility.yul\":2637:2640   */\n      0xe0\n        /* \"#utility.yul\":2633:2635   */\n      dup5\n        /* \"#utility.yul\":2629:2641   */\n      add\n        /* \"#utility.yul\":2606:2642   */\n      tag_139\n      jump\t// in\n    tag_172:\n        /* \"#utility.yul\":2600:2603   */\n      0xe0\n        /* \"#utility.yul\":2589:2604   */\n      dup3\n      add\n        /* \"#utility.yul\":2582:2643   */\n      mstore\n        /* \"#utility.yul\":2593:2598   */\n      swap7\n        /* \"#utility.yul\":2714:2716   */\n      0x20\n        /* \"#utility.yul\":2699:2717   */\n      swap6\n      swap1\n      swap6\n      add\n        /* \"#utility.yul\":2686:2718   */\n      calldataload\n      swap6\n      pop\n      pop\n      pop\n      pop\n      pop\n        /* \"#utility.yul\":1277:2724   */\n      jump\t// out\n        /* \"#utility.yul\":3119:3367   */\n    tag_25:\n        /* \"#utility.yul\":3187:3193   */\n      0x00\n        /* \"#utility.yul\":3195:3201   */\n      dup1\n        /* \"#utility.yul\":3248:3250   */\n      0x40\n        /* \"#utility.yul\":3236:3245   */\n      dup4\n        /* \"#utility.yul\":3227:3234   */\n      dup6\n        /* \"#utility.yul\":3223:3246   */\n      sub\n        /* \"#utility.yul\":3219:3251   */\n      slt\n        /* \"#utility.yul\":3216:3268   */\n      iszero\n      tag_176\n      jumpi\n        /* \"#utility.yul\":3264:3265   */\n      0x00\n        /* \"#utility.yul\":3261:3262   */\n      dup1\n        /* \"#utility.yul\":3254:3266   */\n      revert\n        /* \"#utility.yul\":3216:3268   */\n    tag_176:\n      pop\n      pop\n        /* \"#utility.yul\":3287:3310   */\n      dup1\n      calldataload\n      swap3\n        /* \"#utility.yul\":3357:3359   */\n      0x20\n        /* \"#utility.yul\":3342:3360   */\n      swap1\n      swap2\n      add\n        /* \"#utility.yul\":3329:3361   */\n      calldataload\n      swap2\n      pop\n        /* \"#utility.yul\":3119:3367   */\n      jump\t// out\n        /* \"#utility.yul\":3564:3987   */\n    tag_140:\n        /* \"#utility.yul\":3606:3609   */\n      0x00\n        /* \"#utility.yul\":3644:3649   */\n      dup2\n        /* \"#utility.yul\":3638:3650   */\n      mload\n        /* \"#utility.yul\":3671:3677   */\n      dup1\n        /* \"#utility.yul\":3666:3669   */\n      dup5\n        /* \"#utility.yul\":3659:3678   */\n      mstore\n        /* \"#utility.yul\":3696:3697   */\n      0x00\n        /* \"#utility.yul\":3706:3868   */\n    tag_179:\n        /* \"#utility.yul\":3720:3726   */\n      dup2\n        /* \"#utility.yul\":3717:3718   */\n      dup2\n        /* \"#utility.yul\":3714:3727   */\n      lt\n        /* \"#utility.yul\":3706:3868   */\n      iszero\n      tag_181\n      jumpi\n        /* \"#utility.yul\":3782:3786   */\n      0x20\n        /* \"#utility.yul\":3838:3851   */\n      dup2\n      dup6\n      add\n        /* \"#utility.yul\":3834:3856   */\n      dup2\n      add\n        /* \"#utility.yul\":3828:3857   */\n      mload\n        /* \"#utility.yul\":3810:3821   */\n      dup7\n      dup4\n      add\n        /* \"#utility.yul\":3806:3826   */\n      dup3\n      add\n        /* \"#utility.yul\":3799:3858   */\n      mstore\n        /* \"#utility.yul\":3735:3747   */\n      add\n        /* \"#utility.yul\":3706:3868   */\n      jump(tag_179)\n    tag_181:\n        /* \"#utility.yul\":3710:3713   */\n      pop\n        /* \"#utility.yul\":3913:3914   */\n      0x00\n        /* \"#utility.yul\":3906:3910   */\n      0x20\n        /* \"#utility.yul\":3897:3903   */\n      dup3\n        /* \"#utility.yul\":3892:3895   */\n      dup7\n        /* \"#utility.yul\":3888:3904   */\n      add\n        /* \"#utility.yul\":3884:3911   */\n      add\n        /* \"#utility.yul\":3877:3915   */\n      mstore\n        /* \"#utility.yul\":3976:3980   */\n      0x20\n        /* \"#utility.yul\":3969:3971   */\n      0x1f\n        /* \"#utility.yul\":3965:3972   */\n      not\n        /* \"#utility.yul\":3960:3962   */\n      0x1f\n        /* \"#utility.yul\":3952:3958   */\n      dup4\n        /* \"#utility.yul\":3948:3963   */\n      add\n        /* \"#utility.yul\":3944:3973   */\n      and\n        /* \"#utility.yul\":3939:3942   */\n      dup6\n        /* \"#utility.yul\":3935:3974   */\n      add\n        /* \"#utility.yul\":3931:3981   */\n      add\n        /* \"#utility.yul\":3924:3981   */\n      swap2\n      pop\n      pop\n        /* \"#utility.yul\":3564:3987   */\n      swap3\n      swap2\n      pop\n      pop\n      jump\t// out\n        /* \"#utility.yul\":3992:4119   */\n    tag_57:\n        /* \"#utility.yul\":4053:4063   */\n      0x4e487b71\n        /* \"#utility.yul\":4048:4051   */\n      0xe0\n        /* \"#utility.yul\":4044:4064   */\n      shl\n        /* \"#utility.yul\":4041:4042   */\n      0x00\n        /* \"#utility.yul\":4034:4065   */\n      mstore\n        /* \"#utility.yul\":4084:4088   */\n      0x21\n        /* \"#utility.yul\":4081:4082   */\n      0x04\n        /* \"#utility.yul\":4074:4089   */\n      mstore\n        /* \"#utility.yul\":4108:4112   */\n      0x24\n        /* \"#utility.yul\":4105:4106   */\n      0x00\n        /* \"#utility.yul\":4098:4113   */\n      revert\n        /* \"#utility.yul\":4124:4358   */\n    tag_141:\n        /* \"#utility.yul\":4202:4203   */\n      0x03\n        /* \"#utility.yul\":4195:4200   */\n      dup2\n        /* \"#utility.yul\":4192:4204   */\n      lt\n        /* \"#utility.yul\":4182:4325   */\n      tag_184\n      jumpi\n        /* \"#utility.yul\":4247:4257   */\n      0x4e487b71\n        /* \"#utility.yul\":4242:4245   */\n      0xe0\n        /* \"#utility.yul\":4238:4258   */\n      shl\n        /* \"#utility.yul\":4235:4236   */\n      0x00\n        /* \"#utility.yul\":4228:4259   */\n      mstore\n        /* \"#utility.yul\":4282:4286   */\n      0x21\n        /* \"#utility.yul\":4279:4280   */\n      0x04\n        /* \"#utility.yul\":4272:4287   */\n      mstore\n        /* \"#utility.yul\":4310:4314   */\n      0x24\n        /* \"#utility.yul\":4307:4308   */\n      0x00\n        /* \"#utility.yul\":4300:4315   */\n      revert\n        /* \"#utility.yul\":4182:4325   */\n    tag_184:\n        /* \"#utility.yul\":4334:4352   */\n      swap1\n      mstore\n        /* \"#utility.yul\":4124:4358   */\n      jump\t// out\n        /* \"#utility.yul\":4363:5649   */\n    tag_33:\n        /* \"#utility.yul\":4550:4552   */\n      0x20\n        /* \"#utility.yul\":4539:4548   */\n      dup2\n        /* \"#utility.yul\":4532:4553   */\n      mstore\n        /* \"#utility.yul\":4595:4601   */\n      dup2\n        /* \"#utility.yul\":4589:4602   */\n      mload\n        /* \"#utility.yul\":4584:4586   */\n      0x20\n        /* \"#utility.yul\":4573:4582   */\n      dup3\n        /* \"#utility.yul\":4569:4587   */\n      add\n        /* \"#utility.yul\":4562:4603   */\n      mstore\n        /* \"#utility.yul\":4657:4659   */\n      0x20\n        /* \"#utility.yul\":4649:4655   */\n      dup3\n        /* \"#utility.yul\":4645:4660   */\n      add\n        /* \"#utility.yul\":4639:4661   */\n      mload\n        /* \"#utility.yul\":4634:4636   */\n      0x40\n        /* \"#utility.yul\":4623:4632   */\n      dup3\n        /* \"#utility.yul\":4619:4637   */\n      add\n        /* \"#utility.yul\":4612:4662   */\n      mstore\n        /* \"#utility.yul\":4513:4517   */\n      0x00\n        /* \"#utility.yul\":4709:4711   */\n      0x40\n        /* \"#utility.yul\":4701:4707   */\n      dup4\n        /* \"#utility.yul\":4697:4712   */\n      add\n        /* \"#utility.yul\":4691:4713   */\n      mload\n        /* \"#utility.yul\":4732:4738   */\n      0x0100\n        /* \"#utility.yul\":4774:4776   */\n      dup1\n        /* \"#utility.yul\":4769:4771   */\n      0x60\n        /* \"#utility.yul\":4758:4767   */\n      dup6\n        /* \"#utility.yul\":4754:4772   */\n      add\n        /* \"#utility.yul\":4747:4777   */\n      mstore\n        /* \"#utility.yul\":4800:4852   */\n      tag_186\n        /* \"#utility.yul\":4847:4850   */\n      0x0120\n        /* \"#utility.yul\":4836:4845   */\n      dup6\n        /* \"#utility.yul\":4832:4851   */\n      add\n        /* \"#utility.yul\":4818:4830   */\n      dup4\n        /* \"#utility.yul\":4800:4852   */\n      tag_140\n      jump\t// in\n    tag_186:\n        /* \"#utility.yul\":4786:4852   */\n      swap2\n      pop\n        /* \"#utility.yul\":4907:4909   */\n      0x60\n        /* \"#utility.yul\":4899:4905   */\n      dup6\n        /* \"#utility.yul\":4895:4910   */\n      add\n        /* \"#utility.yul\":4889:4911   */\n      mload\n        /* \"#utility.yul\":4883:4886   */\n      0x80\n        /* \"#utility.yul\":4872:4881   */\n      dup6\n        /* \"#utility.yul\":4868:4887   */\n      add\n        /* \"#utility.yul\":4861:4912   */\n      mstore\n        /* \"#utility.yul\":4961:4964   */\n      0x80\n        /* \"#utility.yul\":4953:4959   */\n      dup6\n        /* \"#utility.yul\":4949:4965   */\n      add\n        /* \"#utility.yul\":4943:4966   */\n      mload\n        /* \"#utility.yul\":4989:4991   */\n      0x1f\n        /* \"#utility.yul\":4985:4992   */\n      not\n        /* \"#utility.yul\":5057:5059   */\n      dup1\n        /* \"#utility.yul\":5045:5054   */\n      dup7\n        /* \"#utility.yul\":5037:5043   */\n      dup6\n        /* \"#utility.yul\":5033:5055   */\n      sub\n        /* \"#utility.yul\":5029:5060   */\n      add\n        /* \"#utility.yul\":5023:5026   */\n      0xa0\n        /* \"#utility.yul\":5012:5021   */\n      dup8\n        /* \"#utility.yul\":5008:5027   */\n      add\n        /* \"#utility.yul\":5001:5061   */\n      mstore\n        /* \"#utility.yul\":5084:5125   */\n      tag_187\n        /* \"#utility.yul\":5118:5124   */\n      dup5\n        /* \"#utility.yul\":5102:5116   */\n      dup4\n        /* \"#utility.yul\":5084:5125   */\n      tag_140\n      jump\t// in\n    tag_187:\n        /* \"#utility.yul\":5070:5125   */\n      swap4\n      pop\n        /* \"#utility.yul\":5174:5177   */\n      0xa0\n        /* \"#utility.yul\":5166:5172   */\n      dup8\n        /* \"#utility.yul\":5162:5178   */\n      add\n        /* \"#utility.yul\":5156:5179   */\n      mload\n        /* \"#utility.yul\":5134:5179   */\n      swap2\n      pop\n        /* \"#utility.yul\":5244:5246   */\n      dup1\n        /* \"#utility.yul\":5232:5241   */\n      dup7\n        /* \"#utility.yul\":5224:5230   */\n      dup6\n        /* \"#utility.yul\":5220:5242   */\n      sub\n        /* \"#utility.yul\":5216:5247   */\n      add\n        /* \"#utility.yul\":5210:5213   */\n      0xc0\n        /* \"#utility.yul\":5199:5208   */\n      dup8\n        /* \"#utility.yul\":5195:5214   */\n      add\n        /* \"#utility.yul\":5188:5248   */\n      mstore\n        /* \"#utility.yul\":5271:5312   */\n      tag_188\n        /* \"#utility.yul\":5305:5311   */\n      dup5\n        /* \"#utility.yul\":5289:5303   */\n      dup4\n        /* \"#utility.yul\":5271:5312   */\n      tag_140\n      jump\t// in\n    tag_188:\n        /* \"#utility.yul\":5257:5312   */\n      swap4\n      pop\n        /* \"#utility.yul\":5361:5364   */\n      0xc0\n        /* \"#utility.yul\":5353:5359   */\n      dup8\n        /* \"#utility.yul\":5349:5365   */\n      add\n        /* \"#utility.yul\":5343:5366   */\n      mload\n        /* \"#utility.yul\":5321:5366   */\n      swap2\n      pop\n        /* \"#utility.yul\":5431:5433   */\n      dup1\n        /* \"#utility.yul\":5419:5428   */\n      dup7\n        /* \"#utility.yul\":5411:5417   */\n      dup6\n        /* \"#utility.yul\":5407:5429   */\n      sub\n        /* \"#utility.yul\":5403:5434   */\n      add\n        /* \"#utility.yul\":5397:5400   */\n      0xe0\n        /* \"#utility.yul\":5386:5395   */\n      dup8\n        /* \"#utility.yul\":5382:5401   */\n      add\n        /* \"#utility.yul\":5375:5435   */\n      mstore\n      pop\n        /* \"#utility.yul\":5458:5499   */\n      tag_189\n        /* \"#utility.yul\":5492:5498   */\n      dup4\n        /* \"#utility.yul\":5476:5490   */\n      dup3\n        /* \"#utility.yul\":5458:5499   */\n      tag_140\n      jump\t// in\n    tag_189:\n        /* \"#utility.yul\":5444:5499   */\n      swap3\n      pop\n      pop\n        /* \"#utility.yul\":5548:5551   */\n      0xe0\n        /* \"#utility.yul\":5540:5546   */\n      dup6\n        /* \"#utility.yul\":5536:5552   */\n      add\n        /* \"#utility.yul\":5530:5553   */\n      mload\n        /* \"#utility.yul\":5562:5620   */\n      tag_190\n        /* \"#utility.yul\":5616:5618   */\n      dup3\n        /* \"#utility.yul\":5605:5614   */\n      dup7\n        /* \"#utility.yul\":5601:5619   */\n      add\n        /* \"#utility.yul\":5585:5599   */\n      dup3\n        /* \"#utility.yul\":5562:5620   */\n      tag_141\n      jump\t// in\n    tag_190:\n      pop\n        /* \"#utility.yul\":5637:5643   */\n      swap1\n      swap5\n        /* \"#utility.yul\":4363:5649   */\n      swap4\n      pop\n      pop\n      pop\n      pop\n      jump\t// out\n        /* \"#utility.yul\":5654:5940   */\n    tag_36:\n        /* \"#utility.yul\":5713:5719   */\n      0x00\n        /* \"#utility.yul\":5766:5768   */\n      0x20\n        /* \"#utility.yul\":5754:5763   */\n      dup3\n        /* \"#utility.yul\":5745:5752   */\n      dup5\n        /* \"#utility.yul\":5741:5764   */\n      sub\n        /* \"#utility.yul\":5737:5769   */\n      slt\n        /* \"#utility.yul\":5734:5786   */\n      iszero\n      tag_192\n      jumpi\n        /* \"#utility.yul\":5782:5783   */\n      0x00\n        /* \"#utility.yul\":5779:5780   */\n      dup1\n        /* \"#utility.yul\":5772:5784   */\n      revert\n        /* \"#utility.yul\":5734:5786   */\n    tag_192:\n        /* \"#utility.yul\":5808:5831   */\n      dup2\n      calldataload\n      sub(shl(0xa0, 0x01), 0x01)\n        /* \"#utility.yul\":5860:5891   */\n      dup2\n      and\n        /* \"#utility.yul\":5850:5892   */\n      dup2\n      eq\n        /* \"#utility.yul\":5840:5910   */\n      tag_193\n      jumpi\n        /* \"#utility.yul\":5906:5907   */\n      0x00\n        /* \"#utility.yul\":5903:5904   */\n      dup1\n        /* \"#utility.yul\":5896:5908   */\n      revert\n        /* \"#utility.yul\":5840:5910   */\n    tag_193:\n        /* \"#utility.yul\":5929:5934   */\n      swap4\n        /* \"#utility.yul\":5654:5940   */\n      swap3\n      pop\n      pop\n      pop\n      jump\t// out\n        /* \"#utility.yul\":5945:6125   */\n    tag_40:\n        /* \"#utility.yul\":6004:6010   */\n      0x00\n        /* \"#utility.yul\":6057:6059   */\n      0x20\n        /* \"#utility.yul\":6045:6054   */\n      dup3\n        /* \"#utility.yul\":6036:6043   */\n      dup5\n        /* \"#utility.yul\":6032:6055   */\n      sub\n        /* \"#utility.yul\":6028:6060   */\n      slt\n        /* \"#utility.yul\":6025:6077   */\n      iszero\n      tag_195\n      jumpi\n        /* \"#utility.yul\":6073:6074   */\n      0x00\n        /* \"#utility.yul\":6070:6071   */\n      dup1\n        /* \"#utility.yul\":6063:6075   */\n      revert\n        /* \"#utility.yul\":6025:6077   */\n    tag_195:\n      pop\n        /* \"#utility.yul\":6096:6119   */\n      calldataload\n      swap2\n        /* \"#utility.yul\":5945:6125   */\n      swap1\n      pop\n      jump\t// out\n        /* \"#utility.yul\":6130:6537   */\n    tag_46:\n        /* \"#utility.yul\":6332:6334   */\n      0x20\n        /* \"#utility.yul\":6314:6335   */\n      dup1\n      dup3\n      mstore\n        /* \"#utility.yul\":6371:6373   */\n      0x2b\n        /* \"#utility.yul\":6351:6369   */\n      swap1\n      dup3\n      add\n        /* \"#utility.yul\":6344:6374   */\n      mstore\n        /* \"#utility.yul\":6410:6444   */\n      0x4461746162617365204c697374427573696e657373506f73743a205365637265\n        /* \"#utility.yul\":6405:6407   */\n      0x40\n        /* \"#utility.yul\":6390:6408   */\n      dup3\n      add\n        /* \"#utility.yul\":6383:6445   */\n      mstore\n      shl(0xa9, 0x3a1035b2bc9032b93937b9)\n        /* \"#utility.yul\":6476:6478   */\n      0x60\n        /* \"#utility.yul\":6461:6479   */\n      dup3\n      add\n        /* \"#utility.yul\":6454:6495   */\n      mstore\n        /* \"#utility.yul\":6527:6530   */\n      0x80\n        /* \"#utility.yul\":6512:6531   */\n      add\n      swap1\n        /* \"#utility.yul\":6130:6537   */\n      jump\t// out\n        /* \"#utility.yul\":6542:6774   */\n    tag_49:\n        /* \"#utility.yul\":6581:6584   */\n      0x00\n        /* \"#utility.yul\":6602:6619   */\n      0x01\n      dup3\n      add\n        /* \"#utility.yul\":6599:6739   */\n      tag_198\n      jumpi\n        /* \"#utility.yul\":6661:6671   */\n      0x4e487b71\n        /* \"#utility.yul\":6656:6659   */\n      0xe0\n        /* \"#utility.yul\":6652:6672   */\n      shl\n        /* \"#utility.yul\":6649:6650   */\n      0x00\n        /* \"#utility.yul\":6642:6673   */\n      mstore\n        /* \"#utility.yul\":6696:6700   */\n      0x11\n        /* \"#utility.yul\":6693:6694   */\n      0x04\n        /* \"#utility.yul\":6686:6701   */\n      mstore\n        /* \"#utility.yul\":6724:6728   */\n      0x24\n        /* \"#utility.yul\":6721:6722   */\n      0x00\n        /* \"#utility.yul\":6714:6729   */\n      revert\n        /* \"#utility.yul\":6599:6739   */\n    tag_198:\n      pop\n        /* \"#utility.yul\":6766:6767   */\n      0x01\n        /* \"#utility.yul\":6755:6768   */\n      add\n      swap1\n        /* \"#utility.yul\":6542:6774   */\n      jump\t// out\n        /* \"#utility.yul\":6779:7159   */\n    tag_92:\n        /* \"#utility.yul\":6858:6859   */\n      0x01\n        /* \"#utility.yul\":6854:6866   */\n      dup2\n      dup2\n      shr\n      swap1\n        /* \"#utility.yul\":6901:6913   */\n      dup3\n      and\n      dup1\n        /* \"#utility.yul\":6922:6983   */\n      tag_200\n      jumpi\n        /* \"#utility.yul\":6976:6980   */\n      0x7f\n        /* \"#utility.yul\":6968:6974   */\n      dup3\n        /* \"#utility.yul\":6964:6981   */\n      and\n        /* \"#utility.yul\":6954:6981   */\n      swap2\n      pop\n        /* \"#utility.yul\":6922:6983   */\n    tag_200:\n        /* \"#utility.yul\":7029:7031   */\n      0x20\n        /* \"#utility.yul\":7021:7027   */\n      dup3\n        /* \"#utility.yul\":7018:7032   */\n      lt\n        /* \"#utility.yul\":6998:7016   */\n      dup2\n        /* \"#utility.yul\":6995:7033   */\n      sub\n        /* \"#utility.yul\":6992:7153   */\n      tag_127\n      jumpi\n        /* \"#utility.yul\":7075:7085   */\n      0x4e487b71\n        /* \"#utility.yul\":7070:7073   */\n      0xe0\n        /* \"#utility.yul\":7066:7086   */\n      shl\n        /* \"#utility.yul\":7063:7064   */\n      0x00\n        /* \"#utility.yul\":7056:7087   */\n      mstore\n        /* \"#utility.yul\":7110:7114   */\n      0x22\n        /* \"#utility.yul\":7107:7108   */\n      0x04\n        /* \"#utility.yul\":7100:7115   */\n      mstore\n        /* \"#utility.yul\":7138:7142   */\n      0x24\n        /* \"#utility.yul\":7135:7136   */\n      0x00\n        /* \"#utility.yul\":7128:7143   */\n      revert\n        /* \"#utility.yul\":7290:7835   */\n    tag_143:\n        /* \"#utility.yul\":7392:7394   */\n      0x1f\n        /* \"#utility.yul\":7387:7390   */\n      dup3\n        /* \"#utility.yul\":7384:7395   */\n      gt\n        /* \"#utility.yul\":7381:7829   */\n      iszero\n      tag_204\n      jumpi\n        /* \"#utility.yul\":7428:7429   */\n      0x00\n        /* \"#utility.yul\":7453:7458   */\n      dup2\n        /* \"#utility.yul\":7449:7451   */\n      dup2\n        /* \"#utility.yul\":7442:7459   */\n      mstore\n        /* \"#utility.yul\":7498:7502   */\n      0x20\n        /* \"#utility.yul\":7494:7496   */\n      dup2\n        /* \"#utility.yul\":7484:7503   */\n      keccak256\n        /* \"#utility.yul\":7568:7570   */\n      0x1f\n        /* \"#utility.yul\":7556:7566   */\n      dup6\n        /* \"#utility.yul\":7552:7571   */\n      add\n        /* \"#utility.yul\":7549:7550   */\n      0x05\n        /* \"#utility.yul\":7545:7572   */\n      shr\n        /* \"#utility.yul\":7539:7543   */\n      dup2\n        /* \"#utility.yul\":7535:7573   */\n      add\n        /* \"#utility.yul\":7604:7608   */\n      0x20\n        /* \"#utility.yul\":7592:7602   */\n      dup7\n        /* \"#utility.yul\":7589:7609   */\n      lt\n        /* \"#utility.yul\":7586:7633   */\n      iszero\n      tag_205\n      jumpi\n      pop\n        /* \"#utility.yul\":7627:7631   */\n      dup1\n        /* \"#utility.yul\":7586:7633   */\n    tag_205:\n        /* \"#utility.yul\":7682:7684   */\n      0x1f\n        /* \"#utility.yul\":7677:7680   */\n      dup6\n        /* \"#utility.yul\":7673:7685   */\n      add\n        /* \"#utility.yul\":7670:7671   */\n      0x05\n        /* \"#utility.yul\":7666:7686   */\n      shr\n        /* \"#utility.yul\":7660:7664   */\n      dup3\n        /* \"#utility.yul\":7656:7687   */\n      add\n        /* \"#utility.yul\":7646:7687   */\n      swap2\n      pop\n        /* \"#utility.yul\":7737:7819   */\n    tag_206:\n        /* \"#utility.yul\":7755:7757   */\n      dup2\n        /* \"#utility.yul\":7748:7753   */\n      dup2\n        /* \"#utility.yul\":7745:7758   */\n      lt\n        /* \"#utility.yul\":7737:7819   */\n      iszero\n      tag_208\n      jumpi\n        /* \"#utility.yul\":7800:7817   */\n      dup3\n      dup2\n      sstore\n        /* \"#utility.yul\":7781:7782   */\n      0x01\n        /* \"#utility.yul\":7770:7783   */\n      add\n        /* \"#utility.yul\":7737:7819   */\n      jump(tag_206)\n    tag_208:\n        /* \"#utility.yul\":7741:7744   */\n      pop\n      pop\n      pop\n        /* \"#utility.yul\":7381:7829   */\n    tag_204:\n        /* \"#utility.yul\":7290:7835   */\n      pop\n      pop\n      pop\n      jump\t// out\n        /* \"#utility.yul\":8011:9363   */\n    tag_51:\n        /* \"#utility.yul\":8137:8140   */\n      dup2\n        /* \"#utility.yul\":8131:8141   */\n      mload\n        /* \"#utility.yul\":8164:8182   */\n      0xffffffffffffffff\n        /* \"#utility.yul\":8156:8162   */\n      dup2\n        /* \"#utility.yul\":8153:8183   */\n      gt\n        /* \"#utility.yul\":8150:8206   */\n      iszero\n      tag_212\n      jumpi\n        /* \"#utility.yul\":8186:8204   */\n      tag_212\n      tag_136\n      jump\t// in\n    tag_212:\n        /* \"#utility.yul\":8215:8312   */\n      tag_213\n        /* \"#utility.yul\":8305:8311   */\n      dup2\n        /* \"#utility.yul\":8265:8303   */\n      tag_214\n        /* \"#utility.yul\":8297:8301   */\n      dup5\n        /* \"#utility.yul\":8291:8302   */\n      sload\n        /* \"#utility.yul\":8265:8303   */\n      tag_92\n      jump\t// in\n    tag_214:\n        /* \"#utility.yul\":8259:8263   */\n      dup5\n        /* \"#utility.yul\":8215:8312   */\n      tag_143\n      jump\t// in\n    tag_213:\n        /* \"#utility.yul\":8367:8371   */\n      0x20\n      dup1\n        /* \"#utility.yul\":8431:8433   */\n      0x1f\n        /* \"#utility.yul\":8420:8434   */\n      dup4\n      gt\n        /* \"#utility.yul\":8448:8449   */\n      0x01\n        /* \"#utility.yul\":8443:9106   */\n      dup2\n      eq\n      tag_216\n      jumpi\n        /* \"#utility.yul\":9150:9151   */\n      0x00\n        /* \"#utility.yul\":9167:9173   */\n      dup5\n        /* \"#utility.yul\":9164:9253   */\n      iszero\n      tag_217\n      jumpi\n      pop\n        /* \"#utility.yul\":9219:9238   */\n      dup6\n      dup4\n      add\n        /* \"#utility.yul\":9213:9239   */\n      mload\n        /* \"#utility.yul\":9164:9253   */\n    tag_217:\n      not(0x00)\n        /* \"#utility.yul\":7968:7969   */\n      0x03\n        /* \"#utility.yul\":7964:7975   */\n      dup7\n      swap1\n      shl\n        /* \"#utility.yul\":7960:7984   */\n      shr\n        /* \"#utility.yul\":7956:7985   */\n      not\n        /* \"#utility.yul\":7946:7986   */\n      and\n        /* \"#utility.yul\":7992:7993   */\n      0x01\n        /* \"#utility.yul\":7988:7999   */\n      dup6\n      swap1\n      shl\n        /* \"#utility.yul\":7943:8000   */\n      or\n        /* \"#utility.yul\":9266:9347   */\n      dup6\n      sstore\n        /* \"#utility.yul\":8413:9357   */\n      jump(tag_208)\n        /* \"#utility.yul\":8443:9106   */\n    tag_216:\n        /* \"#utility.yul\":7237:7238   */\n      0x00\n        /* \"#utility.yul\":7230:7244   */\n      dup6\n      dup2\n      mstore\n        /* \"#utility.yul\":7274:7278   */\n      0x20\n        /* \"#utility.yul\":7261:7279   */\n      dup2\n      keccak256\n      not(0x1f)\n        /* \"#utility.yul\":8479:8499   */\n      dup7\n      and\n      swap2\n        /* \"#utility.yul\":8597:8833   */\n    tag_220:\n        /* \"#utility.yul\":8611:8618   */\n      dup3\n        /* \"#utility.yul\":8608:8609   */\n      dup2\n        /* \"#utility.yul\":8605:8619   */\n      lt\n        /* \"#utility.yul\":8597:8833   */\n      iszero\n      tag_222\n      jumpi\n        /* \"#utility.yul\":8700:8719   */\n      dup9\n      dup7\n      add\n        /* \"#utility.yul\":8694:8720   */\n      mload\n        /* \"#utility.yul\":8679:8721   */\n      dup3\n      sstore\n        /* \"#utility.yul\":8792:8819   */\n      swap5\n      dup5\n      add\n      swap5\n        /* \"#utility.yul\":8760:8761   */\n      0x01\n        /* \"#utility.yul\":8748:8762   */\n      swap1\n      swap2\n      add\n      swap1\n        /* \"#utility.yul\":8627:8646   */\n      dup5\n      add\n        /* \"#utility.yul\":8597:8833   */\n      jump(tag_220)\n    tag_222:\n        /* \"#utility.yul\":8601:8604   */\n      pop\n        /* \"#utility.yul\":8861:8867   */\n      dup6\n        /* \"#utility.yul\":8852:8859   */\n      dup3\n        /* \"#utility.yul\":8849:8868   */\n      lt\n        /* \"#utility.yul\":8846:9047   */\n      iszero\n      tag_223\n      jumpi\n        /* \"#utility.yul\":8922:8941   */\n      dup8\n      dup6\n      add\n        /* \"#utility.yul\":8916:8942   */\n      mload\n      not(0x00)\n        /* \"#utility.yul\":9005:9006   */\n      0x03\n        /* \"#utility.yul\":9001:9015   */\n      dup9\n      swap1\n      shl\n        /* \"#utility.yul\":9017:9020   */\n      0xf8\n        /* \"#utility.yul\":8997:9021   */\n      and\n        /* \"#utility.yul\":8993:9030   */\n      shr\n        /* \"#utility.yul\":8989:9031   */\n      not\n        /* \"#utility.yul\":8974:9032   */\n      and\n        /* \"#utility.yul\":8959:9033   */\n      dup2\n      sstore\n        /* \"#utility.yul\":8846:9047   */\n    tag_223:\n      pop\n      pop\n      pop\n      pop\n      pop\n        /* \"#utility.yul\":9093:9094   */\n      0x01\n        /* \"#utility.yul\":9077:9091   */\n      swap1\n      dup2\n      shl\n        /* \"#utility.yul\":9073:9095   */\n      add\n        /* \"#utility.yul\":9060:9096   */\n      swap1\n      sstore\n      pop\n        /* \"#utility.yul\":8011:9363   */\n      jump\t// out\n        /* \"#utility.yul\":9368:9772   */\n    tag_71:\n        /* \"#utility.yul\":9570:9572   */\n      0x20\n        /* \"#utility.yul\":9552:9573   */\n      dup1\n      dup3\n      mstore\n        /* \"#utility.yul\":9609:9611   */\n      0x28\n        /* \"#utility.yul\":9589:9607   */\n      swap1\n      dup3\n      add\n        /* \"#utility.yul\":9582:9612   */\n      mstore\n        /* \"#utility.yul\":9648:9682   */\n      0x4461746162617365204c697374427573696e657373506f73743a20496e76616c\n        /* \"#utility.yul\":9643:9645   */\n      0x40\n        /* \"#utility.yul\":9628:9646   */\n      dup3\n      add\n        /* \"#utility.yul\":9621:9683   */\n      mstore\n      shl(0xc3, 0x0d2c840d2dcc8caf)\n        /* \"#utility.yul\":9714:9716   */\n      0x60\n        /* \"#utility.yul\":9699:9717   */\n      dup3\n      add\n        /* \"#utility.yul\":9692:9730   */\n      mstore\n        /* \"#utility.yul\":9762:9765   */\n      0x80\n        /* \"#utility.yul\":9747:9766   */\n      add\n      swap1\n        /* \"#utility.yul\":9368:9772   */\n      jump\t// out\n    stop\n    data_98ee57057fe0a523e70b51608fd55a37ff53d47c3b8dac495a5f45d45157392f 8e1604a838d0f1a9b2cda14a099e4ceb08e966cc6e05e8296f67b02d61a79f09\n\n    auxdata: 0xa2646970667358221220e8ff65a78c331519762d71aac1876cf13f05e630d7ca12108b7e03e16ad97b1b64736f6c63430008100033\n}\n",
				"bytecode": {
					"linkReferences": {},
					"object": "6080604052600060025534801561001557600080fd5b50600080546001600160a01b03191633179055610ebf806100376000396000f3fe608060405234801561001057600080fd5b506004361061007d5760003560e01c8063b615c00a1161005b578063b615c00a146100cd578063c78a6741146100f0578063f2fde38b14610110578063fd82e9dd1461012357600080fd5b8063116f4a231461008257806383197ef0146100a85780638da5cb5b146100b2575b600080fd5b6100956100903660046109be565b610136565b6040519081526020015b60405180910390f35b6100b0610278565b005b6000546040516001600160a01b03909116815260200161009f565b6100e06100db366004610acf565b610283565b604051901515815260200161009f565b6101036100fe366004610acf565b6103f2565b60405161009f9190610b6f565b6100b061011e366004610c23565b610718565b610095610131366004610c53565b610791565b600081600080516020610e6a833981519152811461016f5760405162461bcd60e51b815260040161016690610c6c565b60405180910390fd5b6002805490600061017f83610cb7565b90915550506002805460208087018281526000928352600191829052604092839020885181559051918101919091559086015186928201906101c19082610d61565b5060608201516003820155608082015160048201906101e09082610d61565b5060a082015160058201906101f59082610d61565b5060c0820151600682019061020a9082610d61565b5060e082015160078201805460ff1916600183600281111561022e5761022e610b37565b02179055509050507f0d5ee3861e0240d8a6d08d64672bed790ae1b3bc668354ffbf817ae2db0f3533846040516102659190610b6f565b60405180910390a1505060025492915050565b6102806107cd565b30ff5b600081600080516020610e6a83398151915281146102b35760405162461bcd60e51b815260040161016690610c6c565b83806001111580156102c757506002548111155b6102e35760405162461bcd60e51b815260040161016690610e21565b60408051610100810182526000808252602080830182815284518083018652838152848601908152606085018490528551808401875284815260808601528551808401875284815260a08601528551808401875284815260c0860152600160e086018190528b855292839052949092208351815591519082015591519091829160028201906103729082610d61565b5060608201516003820155608082015160048201906103919082610d61565b5060a082015160058201906103a69082610d61565b5060c082015160068201906103bb9082610d61565b5060e082015160078201805460ff191660018360028111156103df576103df610b37565b0217905550600198975050505050505050565b6103fa610888565b81600080516020610e6a83398151915281146104285760405162461bcd60e51b815260040161016690610c6c565b838060011115801561043c57506002548111155b6104585760405162461bcd60e51b815260040161016690610e21565b6001600086815260200190815260200160002060405180610100016040529081600082015481526020016001820154815260200160028201805461049b90610cde565b80601f01602080910402602001604051908101604052809291908181526020018280546104c790610cde565b80156105145780601f106104e957610100808354040283529160200191610514565b820191906000526020600020905b8154815290600101906020018083116104f757829003601f168201915b505050505081526020016003820154815260200160048201805461053790610cde565b80601f016020809104026020016040519081016040528092919081815260200182805461056390610cde565b80156105b05780601f10610585576101008083540402835291602001916105b0565b820191906000526020600020905b81548152906001019060200180831161059357829003601f168201915b505050505081526020016005820180546105c990610cde565b80601f01602080910402602001604051908101604052809291908181526020018280546105f590610cde565b80156106425780601f1061061757610100808354040283529160200191610642565b820191906000526020600020905b81548152906001019060200180831161062557829003601f168201915b5050505050815260200160068201805461065b90610cde565b80601f016020809104026020016040519081016040528092919081815260200182805461068790610cde565b80156106d45780601f106106a9576101008083540402835291602001916106d4565b820191906000526020600020905b8154815290600101906020018083116106b757829003601f168201915b5050509183525050600782015460209091019060ff1660028111156106fb576106fb610b37565b600281111561070c5761070c610b37565b90525095945050505050565b6107206107cd565b6001600160a01b0381166107855760405162461bcd60e51b815260206004820152602660248201527f4f776e61626c653a206e6577206f776e657220697320746865207a65726f206160448201526564647265737360d01b6064820152608401610166565b61078e81610838565b50565b600081600080516020610e6a83398151915281146107c15760405162461bcd60e51b815260040161016690610c6c565b60025491505b50919050565b336107e06000546001600160a01b031690565b6001600160a01b0316146108365760405162461bcd60e51b815260206004820181905260248201527f4f776e61626c653a2063616c6c6572206973206e6f7420746865206f776e65726044820152606401610166565b565b600080546001600160a01b038381166001600160a01b0319831681178455604051919092169283917f8be0079c531659141344cd1fd0a4f28419497f9722a3daafe3b4186f6b6457e09190a35050565b60405180610100016040528060008152602001600081526020016060815260200160008152602001606081526020016060815260200160608152602001600060028111156108d8576108d8610b37565b905290565b634e487b7160e01b600052604160045260246000fd5b604051610100810167ffffffffffffffff81118282101715610917576109176108dd565b60405290565b600082601f83011261092e57600080fd5b813567ffffffffffffffff80821115610949576109496108dd565b604051601f8301601f19908116603f01168101908282118183101715610971576109716108dd565b8160405283815286602085880101111561098a57600080fd5b836020870160208301376000602085830101528094505050505092915050565b8035600381106109b957600080fd5b919050565b600080604083850312156109d157600080fd5b823567ffffffffffffffff808211156109e957600080fd5b9084019061010082870312156109fe57600080fd5b610a066108f3565b8235815260208301356020820152604083013582811115610a2657600080fd5b610a328882860161091d565b60408301525060608301356060820152608083013582811115610a5457600080fd5b610a608882860161091d565b60808301525060a083013582811115610a7857600080fd5b610a848882860161091d565b60a08301525060c083013582811115610a9c57600080fd5b610aa88882860161091d565b60c083015250610aba60e084016109aa565b60e08201529660209590950135955050505050565b60008060408385031215610ae257600080fd5b50508035926020909101359150565b6000815180845260005b81811015610b1757602081850181015186830182015201610afb565b506000602082860101526020601f19601f83011685010191505092915050565b634e487b7160e01b600052602160045260246000fd5b60038110610b6b57634e487b7160e01b600052602160045260246000fd5b9052565b60208152815160208201526020820151604082015260006040830151610100806060850152610ba2610120850183610af1565b9150606085015160808501526080850151601f19808685030160a0870152610bca8483610af1565b935060a08701519150808685030160c0870152610be78483610af1565b935060c08701519150808685030160e087015250610c058382610af1565b92505060e0850151610c1982860182610b4d565b5090949350505050565b600060208284031215610c3557600080fd5b81356001600160a01b0381168114610c4c57600080fd5b9392505050565b600060208284031215610c6557600080fd5b5035919050565b6020808252602b908201527f4461746162617365204c697374427573696e657373506f73743a20536563726560408201526a3a1035b2bc9032b93937b960a91b606082015260800190565b600060018201610cd757634e487b7160e01b600052601160045260246000fd5b5060010190565b600181811c90821680610cf257607f821691505b6020821081036107c757634e487b7160e01b600052602260045260246000fd5b601f821115610d5c57600081815260208120601f850160051c81016020861015610d395750805b601f850160051c820191505b81811015610d5857828155600101610d45565b5050505b505050565b815167ffffffffffffffff811115610d7b57610d7b6108dd565b610d8f81610d898454610cde565b84610d12565b602080601f831160018114610dc45760008415610dac5750858301515b600019600386901b1c1916600185901b178555610d58565b600085815260208120601f198616915b82811015610df357888601518255948401946001909101908401610dd4565b5085821015610e115787850151600019600388901b60f8161c191681555b5050505050600190811b01905550565b60208082526028908201527f4461746162617365204c697374427573696e657373506f73743a20496e76616c6040820152670d2c840d2dcc8caf60c31b60608201526080019056fe8e1604a838d0f1a9b2cda14a099e4ceb08e966cc6e05e8296f67b02d61a79f09a2646970667358221220e8ff65a78c331519762d71aac1876cf13f05e630d7ca12108b7e03e16ad97b1b64736f6c63430008100033",
					"opcodes": "PUSH1 0x80 PUSH1 0x40 MSTORE PUSH1 0x0 PUSH1 0x2 SSTORE CALLVALUE DUP1 ISZERO PUSH2 0x15 JUMPI PUSH1 0x0 DUP1 REVERT JUMPDEST POP PUSH1 0x0 DUP1 SLOAD PUSH1 0x1 PUSH1 0x1 PUSH1 0xA0 SHL SUB NOT AND CALLER OR SWAP1 SSTORE PUSH2 0xEBF DUP1 PUSH2 0x37 PUSH1 0x0 CODECOPY PUSH1 0x0 RETURN INVALID PUSH1 0x80 PUSH1 0x40 MSTORE CALLVALUE DUP1 ISZERO PUSH2 0x10 JUMPI PUSH1 0x0 DUP1 REVERT JUMPDEST POP PUSH1 0x4 CALLDATASIZE LT PUSH2 0x7D JUMPI PUSH1 0x0 CALLDATALOAD PUSH1 0xE0 SHR DUP1 PUSH4 0xB615C00A GT PUSH2 0x5B JUMPI DUP1 PUSH4 0xB615C00A EQ PUSH2 0xCD JUMPI DUP1 PUSH4 0xC78A6741 EQ PUSH2 0xF0 JUMPI DUP1 PUSH4 0xF2FDE38B EQ PUSH2 0x110 JUMPI DUP1 PUSH4 0xFD82E9DD EQ PUSH2 0x123 JUMPI PUSH1 0x0 DUP1 REVERT JUMPDEST DUP1 PUSH4 0x116F4A23 EQ PUSH2 0x82 JUMPI DUP1 PUSH4 0x83197EF0 EQ PUSH2 0xA8 JUMPI DUP1 PUSH4 0x8DA5CB5B EQ PUSH2 0xB2 JUMPI JUMPDEST PUSH1 0x0 DUP1 REVERT JUMPDEST PUSH2 0x95 PUSH2 0x90 CALLDATASIZE PUSH1 0x4 PUSH2 0x9BE JUMP JUMPDEST PUSH2 0x136 JUMP JUMPDEST PUSH1 0x40 MLOAD SWAP1 DUP2 MSTORE PUSH1 0x20 ADD JUMPDEST PUSH1 0x40 MLOAD DUP1 SWAP2 SUB SWAP1 RETURN JUMPDEST PUSH2 0xB0 PUSH2 0x278 JUMP JUMPDEST STOP JUMPDEST PUSH1 0x0 SLOAD PUSH1 0x40 MLOAD PUSH1 0x1 PUSH1 0x1 PUSH1 0xA0 SHL SUB SWAP1 SWAP2 AND DUP2 MSTORE PUSH1 0x20 ADD PUSH2 0x9F JUMP JUMPDEST PUSH2 0xE0 PUSH2 0xDB CALLDATASIZE PUSH1 0x4 PUSH2 0xACF JUMP JUMPDEST PUSH2 0x283 JUMP JUMPDEST PUSH1 0x40 MLOAD SWAP1 ISZERO ISZERO DUP2 MSTORE PUSH1 0x20 ADD PUSH2 0x9F JUMP JUMPDEST PUSH2 0x103 PUSH2 0xFE CALLDATASIZE PUSH1 0x4 PUSH2 0xACF JUMP JUMPDEST PUSH2 0x3F2 JUMP JUMPDEST PUSH1 0x40 MLOAD PUSH2 0x9F SWAP2 SWAP1 PUSH2 0xB6F JUMP JUMPDEST PUSH2 0xB0 PUSH2 0x11E CALLDATASIZE PUSH1 0x4 PUSH2 0xC23 JUMP JUMPDEST PUSH2 0x718 JUMP JUMPDEST PUSH2 0x95 PUSH2 0x131 CALLDATASIZE PUSH1 0x4 PUSH2 0xC53 JUMP JUMPDEST PUSH2 0x791 JUMP JUMPDEST PUSH1 0x0 DUP2 PUSH1 0x0 DUP1 MLOAD PUSH1 0x20 PUSH2 0xE6A DUP4 CODECOPY DUP2 MLOAD SWAP2 MSTORE DUP2 EQ PUSH2 0x16F JUMPI PUSH1 0x40 MLOAD PUSH3 0x461BCD PUSH1 0xE5 SHL DUP2 MSTORE PUSH1 0x4 ADD PUSH2 0x166 SWAP1 PUSH2 0xC6C JUMP JUMPDEST PUSH1 0x40 MLOAD DUP1 SWAP2 SUB SWAP1 REVERT JUMPDEST PUSH1 0x2 DUP1 SLOAD SWAP1 PUSH1 0x0 PUSH2 0x17F DUP4 PUSH2 0xCB7 JUMP JUMPDEST SWAP1 SWAP2 SSTORE POP POP PUSH1 0x2 DUP1 SLOAD PUSH1 0x20 DUP1 DUP8 ADD DUP3 DUP2 MSTORE PUSH1 0x0 SWAP3 DUP4 MSTORE PUSH1 0x1 SWAP2 DUP3 SWAP1 MSTORE PUSH1 0x40 SWAP3 DUP4 SWAP1 KECCAK256 DUP9 MLOAD DUP2 SSTORE SWAP1 MLOAD SWAP2 DUP2 ADD SWAP2 SWAP1 SWAP2 SSTORE SWAP1 DUP7 ADD MLOAD DUP7 SWAP3 DUP3 ADD SWAP1 PUSH2 0x1C1 SWAP1 DUP3 PUSH2 0xD61 JUMP JUMPDEST POP PUSH1 0x60 DUP3 ADD MLOAD PUSH1 0x3 DUP3 ADD SSTORE PUSH1 0x80 DUP3 ADD MLOAD PUSH1 0x4 DUP3 ADD SWAP1 PUSH2 0x1E0 SWAP1 DUP3 PUSH2 0xD61 JUMP JUMPDEST POP PUSH1 0xA0 DUP3 ADD MLOAD PUSH1 0x5 DUP3 ADD SWAP1 PUSH2 0x1F5 SWAP1 DUP3 PUSH2 0xD61 JUMP JUMPDEST POP PUSH1 0xC0 DUP3 ADD MLOAD PUSH1 0x6 DUP3 ADD SWAP1 PUSH2 0x20A SWAP1 DUP3 PUSH2 0xD61 JUMP JUMPDEST POP PUSH1 0xE0 DUP3 ADD MLOAD PUSH1 0x7 DUP3 ADD DUP1 SLOAD PUSH1 0xFF NOT AND PUSH1 0x1 DUP4 PUSH1 0x2 DUP2 GT ISZERO PUSH2 0x22E JUMPI PUSH2 0x22E PUSH2 0xB37 JUMP JUMPDEST MUL OR SWAP1 SSTORE POP SWAP1 POP POP PUSH32 0xD5EE3861E0240D8A6D08D64672BED790AE1B3BC668354FFBF817AE2DB0F3533 DUP5 PUSH1 0x40 MLOAD PUSH2 0x265 SWAP2 SWAP1 PUSH2 0xB6F JUMP JUMPDEST PUSH1 0x40 MLOAD DUP1 SWAP2 SUB SWAP1 LOG1 POP POP PUSH1 0x2 SLOAD SWAP3 SWAP2 POP POP JUMP JUMPDEST PUSH2 0x280 PUSH2 0x7CD JUMP JUMPDEST ADDRESS SELFDESTRUCT JUMPDEST PUSH1 0x0 DUP2 PUSH1 0x0 DUP1 MLOAD PUSH1 0x20 PUSH2 0xE6A DUP4 CODECOPY DUP2 MLOAD SWAP2 MSTORE DUP2 EQ PUSH2 0x2B3 JUMPI PUSH1 0x40 MLOAD PUSH3 0x461BCD PUSH1 0xE5 SHL DUP2 MSTORE PUSH1 0x4 ADD PUSH2 0x166 SWAP1 PUSH2 0xC6C JUMP JUMPDEST DUP4 DUP1 PUSH1 0x1 GT ISZERO DUP1 ISZERO PUSH2 0x2C7 JUMPI POP PUSH1 0x2 SLOAD DUP2 GT ISZERO JUMPDEST PUSH2 0x2E3 JUMPI PUSH1 0x40 MLOAD PUSH3 0x461BCD PUSH1 0xE5 SHL DUP2 MSTORE PUSH1 0x4 ADD PUSH2 0x166 SWAP1 PUSH2 0xE21 JUMP JUMPDEST PUSH1 0x40 DUP1 MLOAD PUSH2 0x100 DUP2 ADD DUP3 MSTORE PUSH1 0x0 DUP1 DUP3 MSTORE PUSH1 0x20 DUP1 DUP4 ADD DUP3 DUP2 MSTORE DUP5 MLOAD DUP1 DUP4 ADD DUP7 MSTORE DUP4 DUP2 MSTORE DUP5 DUP7 ADD SWAP1 DUP2 MSTORE PUSH1 0x60 DUP6 ADD DUP5 SWAP1 MSTORE DUP6 MLOAD DUP1 DUP5 ADD DUP8 MSTORE DUP5 DUP2 MSTORE PUSH1 0x80 DUP7 ADD MSTORE DUP6 MLOAD DUP1 DUP5 ADD DUP8 MSTORE DUP5 DUP2 MSTORE PUSH1 0xA0 DUP7 ADD MSTORE DUP6 MLOAD DUP1 DUP5 ADD DUP8 MSTORE DUP5 DUP2 MSTORE PUSH1 0xC0 DUP7 ADD MSTORE PUSH1 0x1 PUSH1 0xE0 DUP7 ADD DUP2 SWAP1 MSTORE DUP12 DUP6 MSTORE SWAP3 DUP4 SWAP1 MSTORE SWAP5 SWAP1 SWAP3 KECCAK256 DUP4 MLOAD DUP2 SSTORE SWAP2 MLOAD SWAP1 DUP3 ADD SSTORE SWAP2 MLOAD SWAP1 SWAP2 DUP3 SWAP2 PUSH1 0x2 DUP3 ADD SWAP1 PUSH2 0x372 SWAP1 DUP3 PUSH2 0xD61 JUMP JUMPDEST POP PUSH1 0x60 DUP3 ADD MLOAD PUSH1 0x3 DUP3 ADD SSTORE PUSH1 0x80 DUP3 ADD MLOAD PUSH1 0x4 DUP3 ADD SWAP1 PUSH2 0x391 SWAP1 DUP3 PUSH2 0xD61 JUMP JUMPDEST POP PUSH1 0xA0 DUP3 ADD MLOAD PUSH1 0x5 DUP3 ADD SWAP1 PUSH2 0x3A6 SWAP1 DUP3 PUSH2 0xD61 JUMP JUMPDEST POP PUSH1 0xC0 DUP3 ADD MLOAD PUSH1 0x6 DUP3 ADD SWAP1 PUSH2 0x3BB SWAP1 DUP3 PUSH2 0xD61 JUMP JUMPDEST POP PUSH1 0xE0 DUP3 ADD MLOAD PUSH1 0x7 DUP3 ADD DUP1 SLOAD PUSH1 0xFF NOT AND PUSH1 0x1 DUP4 PUSH1 0x2 DUP2 GT ISZERO PUSH2 0x3DF JUMPI PUSH2 0x3DF PUSH2 0xB37 JUMP JUMPDEST MUL OR SWAP1 SSTORE POP PUSH1 0x1 SWAP9 SWAP8 POP POP POP POP POP POP POP POP JUMP JUMPDEST PUSH2 0x3FA PUSH2 0x888 JUMP JUMPDEST DUP2 PUSH1 0x0 DUP1 MLOAD PUSH1 0x20 PUSH2 0xE6A DUP4 CODECOPY DUP2 MLOAD SWAP2 MSTORE DUP2 EQ PUSH2 0x428 JUMPI PUSH1 0x40 MLOAD PUSH3 0x461BCD PUSH1 0xE5 SHL DUP2 MSTORE PUSH1 0x4 ADD PUSH2 0x166 SWAP1 PUSH2 0xC6C JUMP JUMPDEST DUP4 DUP1 PUSH1 0x1 GT ISZERO DUP1 ISZERO PUSH2 0x43C JUMPI POP PUSH1 0x2 SLOAD DUP2 GT ISZERO JUMPDEST PUSH2 0x458 JUMPI PUSH1 0x40 MLOAD PUSH3 0x461BCD PUSH1 0xE5 SHL DUP2 MSTORE PUSH1 0x4 ADD PUSH2 0x166 SWAP1 PUSH2 0xE21 JUMP JUMPDEST PUSH1 0x1 PUSH1 0x0 DUP7 DUP2 MSTORE PUSH1 0x20 ADD SWAP1 DUP2 MSTORE PUSH1 0x20 ADD PUSH1 0x0 KECCAK256 PUSH1 0x40 MLOAD DUP1 PUSH2 0x100 ADD PUSH1 0x40 MSTORE SWAP1 DUP2 PUSH1 0x0 DUP3 ADD SLOAD DUP2 MSTORE PUSH1 0x20 ADD PUSH1 0x1 DUP3 ADD SLOAD DUP2 MSTORE PUSH1 0x20 ADD PUSH1 0x2 DUP3 ADD DUP1 SLOAD PUSH2 0x49B SWAP1 PUSH2 0xCDE JUMP JUMPDEST DUP1 PUSH1 0x1F ADD PUSH1 0x20 DUP1 SWAP2 DIV MUL PUSH1 0x20 ADD PUSH1 0x40 MLOAD SWAP1 DUP2 ADD PUSH1 0x40 MSTORE DUP1 SWAP3 SWAP2 SWAP1 DUP2 DUP2 MSTORE PUSH1 0x20 ADD DUP3 DUP1 SLOAD PUSH2 0x4C7 SWAP1 PUSH2 0xCDE JUMP JUMPDEST DUP1 ISZERO PUSH2 0x514 JUMPI DUP1 PUSH1 0x1F LT PUSH2 0x4E9 JUMPI PUSH2 0x100 DUP1 DUP4 SLOAD DIV MUL DUP4 MSTORE SWAP2 PUSH1 0x20 ADD SWAP2 PUSH2 0x514 JUMP JUMPDEST DUP3 ADD SWAP2 SWAP1 PUSH1 0x0 MSTORE PUSH1 0x20 PUSH1 0x0 KECCAK256 SWAP1 JUMPDEST DUP2 SLOAD DUP2 MSTORE SWAP1 PUSH1 0x1 ADD SWAP1 PUSH1 0x20 ADD DUP1 DUP4 GT PUSH2 0x4F7 JUMPI DUP3 SWAP1 SUB PUSH1 0x1F AND DUP3 ADD SWAP2 JUMPDEST POP POP POP POP POP DUP2 MSTORE PUSH1 0x20 ADD PUSH1 0x3 DUP3 ADD SLOAD DUP2 MSTORE PUSH1 0x20 ADD PUSH1 0x4 DUP3 ADD DUP1 SLOAD PUSH2 0x537 SWAP1 PUSH2 0xCDE JUMP JUMPDEST DUP1 PUSH1 0x1F ADD PUSH1 0x20 DUP1 SWAP2 DIV MUL PUSH1 0x20 ADD PUSH1 0x40 MLOAD SWAP1 DUP2 ADD PUSH1 0x40 MSTORE DUP1 SWAP3 SWAP2 SWAP1 DUP2 DUP2 MSTORE PUSH1 0x20 ADD DUP3 DUP1 SLOAD PUSH2 0x563 SWAP1 PUSH2 0xCDE JUMP JUMPDEST DUP1 ISZERO PUSH2 0x5B0 JUMPI DUP1 PUSH1 0x1F LT PUSH2 0x585 JUMPI PUSH2 0x100 DUP1 DUP4 SLOAD DIV MUL DUP4 MSTORE SWAP2 PUSH1 0x20 ADD SWAP2 PUSH2 0x5B0 JUMP JUMPDEST DUP3 ADD SWAP2 SWAP1 PUSH1 0x0 MSTORE PUSH1 0x20 PUSH1 0x0 KECCAK256 SWAP1 JUMPDEST DUP2 SLOAD DUP2 MSTORE SWAP1 PUSH1 0x1 ADD SWAP1 PUSH1 0x20 ADD DUP1 DUP4 GT PUSH2 0x593 JUMPI DUP3 SWAP1 SUB PUSH1 0x1F AND DUP3 ADD SWAP2 JUMPDEST POP POP POP POP POP DUP2 MSTORE PUSH1 0x20 ADD PUSH1 0x5 DUP3 ADD DUP1 SLOAD PUSH2 0x5C9 SWAP1 PUSH2 0xCDE JUMP JUMPDEST DUP1 PUSH1 0x1F ADD PUSH1 0x20 DUP1 SWAP2 DIV MUL PUSH1 0x20 ADD PUSH1 0x40 MLOAD SWAP1 DUP2 ADD PUSH1 0x40 MSTORE DUP1 SWAP3 SWAP2 SWAP1 DUP2 DUP2 MSTORE PUSH1 0x20 ADD DUP3 DUP1 SLOAD PUSH2 0x5F5 SWAP1 PUSH2 0xCDE JUMP JUMPDEST DUP1 ISZERO PUSH2 0x642 JUMPI DUP1 PUSH1 0x1F LT PUSH2 0x617 JUMPI PUSH2 0x100 DUP1 DUP4 SLOAD DIV MUL DUP4 MSTORE SWAP2 PUSH1 0x20 ADD SWAP2 PUSH2 0x642 JUMP JUMPDEST DUP3 ADD SWAP2 SWAP1 PUSH1 0x0 MSTORE PUSH1 0x20 PUSH1 0x0 KECCAK256 SWAP1 JUMPDEST DUP2 SLOAD DUP2 MSTORE SWAP1 PUSH1 0x1 ADD SWAP1 PUSH1 0x20 ADD DUP1 DUP4 GT PUSH2 0x625 JUMPI DUP3 SWAP1 SUB PUSH1 0x1F AND DUP3 ADD SWAP2 JUMPDEST POP POP POP POP POP DUP2 MSTORE PUSH1 0x20 ADD PUSH1 0x6 DUP3 ADD DUP1 SLOAD PUSH2 0x65B SWAP1 PUSH2 0xCDE JUMP JUMPDEST DUP1 PUSH1 0x1F ADD PUSH1 0x20 DUP1 SWAP2 DIV MUL PUSH1 0x20 ADD PUSH1 0x40 MLOAD SWAP1 DUP2 ADD PUSH1 0x40 MSTORE DUP1 SWAP3 SWAP2 SWAP1 DUP2 DUP2 MSTORE PUSH1 0x20 ADD DUP3 DUP1 SLOAD PUSH2 0x687 SWAP1 PUSH2 0xCDE JUMP JUMPDEST DUP1 ISZERO PUSH2 0x6D4 JUMPI DUP1 PUSH1 0x1F LT PUSH2 0x6A9 JUMPI PUSH2 0x100 DUP1 DUP4 SLOAD DIV MUL DUP4 MSTORE SWAP2 PUSH1 0x20 ADD SWAP2 PUSH2 0x6D4 JUMP JUMPDEST DUP3 ADD SWAP2 SWAP1 PUSH1 0x0 MSTORE PUSH1 0x20 PUSH1 0x0 KECCAK256 SWAP1 JUMPDEST DUP2 SLOAD DUP2 MSTORE SWAP1 PUSH1 0x1 ADD SWAP1 PUSH1 0x20 ADD DUP1 DUP4 GT PUSH2 0x6B7 JUMPI DUP3 SWAP1 SUB PUSH1 0x1F AND DUP3 ADD SWAP2 JUMPDEST POP POP POP SWAP2 DUP4 MSTORE POP POP PUSH1 0x7 DUP3 ADD SLOAD PUSH1 0x20 SWAP1 SWAP2 ADD SWAP1 PUSH1 0xFF AND PUSH1 0x2 DUP2 GT ISZERO PUSH2 0x6FB JUMPI PUSH2 0x6FB PUSH2 0xB37 JUMP JUMPDEST PUSH1 0x2 DUP2 GT ISZERO PUSH2 0x70C JUMPI PUSH2 0x70C PUSH2 0xB37 JUMP JUMPDEST SWAP1 MSTORE POP SWAP6 SWAP5 POP POP POP POP POP JUMP JUMPDEST PUSH2 0x720 PUSH2 0x7CD JUMP JUMPDEST PUSH1 0x1 PUSH1 0x1 PUSH1 0xA0 SHL SUB DUP2 AND PUSH2 0x785 JUMPI PUSH1 0x40 MLOAD PUSH3 0x461BCD PUSH1 0xE5 SHL DUP2 MSTORE PUSH1 0x20 PUSH1 0x4 DUP3 ADD MSTORE PUSH1 0x26 PUSH1 0x24 DUP3 ADD MSTORE PUSH32 0x4F776E61626C653A206E6577206F776E657220697320746865207A65726F2061 PUSH1 0x44 DUP3 ADD MSTORE PUSH6 0x646472657373 PUSH1 0xD0 SHL PUSH1 0x64 DUP3 ADD MSTORE PUSH1 0x84 ADD PUSH2 0x166 JUMP JUMPDEST PUSH2 0x78E DUP2 PUSH2 0x838 JUMP JUMPDEST POP JUMP JUMPDEST PUSH1 0x0 DUP2 PUSH1 0x0 DUP1 MLOAD PUSH1 0x20 PUSH2 0xE6A DUP4 CODECOPY DUP2 MLOAD SWAP2 MSTORE DUP2 EQ PUSH2 0x7C1 JUMPI PUSH1 0x40 MLOAD PUSH3 0x461BCD PUSH1 0xE5 SHL DUP2 MSTORE PUSH1 0x4 ADD PUSH2 0x166 SWAP1 PUSH2 0xC6C JUMP JUMPDEST PUSH1 0x2 SLOAD SWAP2 POP JUMPDEST POP SWAP2 SWAP1 POP JUMP JUMPDEST CALLER PUSH2 0x7E0 PUSH1 0x0 SLOAD PUSH1 0x1 PUSH1 0x1 PUSH1 0xA0 SHL SUB AND SWAP1 JUMP JUMPDEST PUSH1 0x1 PUSH1 0x1 PUSH1 0xA0 SHL SUB AND EQ PUSH2 0x836 JUMPI PUSH1 0x40 MLOAD PUSH3 0x461BCD PUSH1 0xE5 SHL DUP2 MSTORE PUSH1 0x20 PUSH1 0x4 DUP3 ADD DUP2 SWAP1 MSTORE PUSH1 0x24 DUP3 ADD MSTORE PUSH32 0x4F776E61626C653A2063616C6C6572206973206E6F7420746865206F776E6572 PUSH1 0x44 DUP3 ADD MSTORE PUSH1 0x64 ADD PUSH2 0x166 JUMP JUMPDEST JUMP JUMPDEST PUSH1 0x0 DUP1 SLOAD PUSH1 0x1 PUSH1 0x1 PUSH1 0xA0 SHL SUB DUP4 DUP2 AND PUSH1 0x1 PUSH1 0x1 PUSH1 0xA0 SHL SUB NOT DUP4 AND DUP2 OR DUP5 SSTORE PUSH1 0x40 MLOAD SWAP2 SWAP1 SWAP3 AND SWAP3 DUP4 SWAP2 PUSH32 0x8BE0079C531659141344CD1FD0A4F28419497F9722A3DAAFE3B4186F6B6457E0 SWAP2 SWAP1 LOG3 POP POP JUMP JUMPDEST PUSH1 0x40 MLOAD DUP1 PUSH2 0x100 ADD PUSH1 0x40 MSTORE DUP1 PUSH1 0x0 DUP2 MSTORE PUSH1 0x20 ADD PUSH1 0x0 DUP2 MSTORE PUSH1 0x20 ADD PUSH1 0x60 DUP2 MSTORE PUSH1 0x20 ADD PUSH1 0x0 DUP2 MSTORE PUSH1 0x20 ADD PUSH1 0x60 DUP2 MSTORE PUSH1 0x20 ADD PUSH1 0x60 DUP2 MSTORE PUSH1 0x20 ADD PUSH1 0x60 DUP2 MSTORE PUSH1 0x20 ADD PUSH1 0x0 PUSH1 0x2 DUP2 GT ISZERO PUSH2 0x8D8 JUMPI PUSH2 0x8D8 PUSH2 0xB37 JUMP JUMPDEST SWAP1 MSTORE SWAP1 JUMP JUMPDEST PUSH4 0x4E487B71 PUSH1 0xE0 SHL PUSH1 0x0 MSTORE PUSH1 0x41 PUSH1 0x4 MSTORE PUSH1 0x24 PUSH1 0x0 REVERT JUMPDEST PUSH1 0x40 MLOAD PUSH2 0x100 DUP2 ADD PUSH8 0xFFFFFFFFFFFFFFFF DUP2 GT DUP3 DUP3 LT OR ISZERO PUSH2 0x917 JUMPI PUSH2 0x917 PUSH2 0x8DD JUMP JUMPDEST PUSH1 0x40 MSTORE SWAP1 JUMP JUMPDEST PUSH1 0x0 DUP3 PUSH1 0x1F DUP4 ADD SLT PUSH2 0x92E JUMPI PUSH1 0x0 DUP1 REVERT JUMPDEST DUP2 CALLDATALOAD PUSH8 0xFFFFFFFFFFFFFFFF DUP1 DUP3 GT ISZERO PUSH2 0x949 JUMPI PUSH2 0x949 PUSH2 0x8DD JUMP JUMPDEST PUSH1 0x40 MLOAD PUSH1 0x1F DUP4 ADD PUSH1 0x1F NOT SWAP1 DUP2 AND PUSH1 0x3F ADD AND DUP2 ADD SWAP1 DUP3 DUP3 GT DUP2 DUP4 LT OR ISZERO PUSH2 0x971 JUMPI PUSH2 0x971 PUSH2 0x8DD JUMP JUMPDEST DUP2 PUSH1 0x40 MSTORE DUP4 DUP2 MSTORE DUP7 PUSH1 0x20 DUP6 DUP9 ADD ADD GT ISZERO PUSH2 0x98A JUMPI PUSH1 0x0 DUP1 REVERT JUMPDEST DUP4 PUSH1 0x20 DUP8 ADD PUSH1 0x20 DUP4 ADD CALLDATACOPY PUSH1 0x0 PUSH1 0x20 DUP6 DUP4 ADD ADD MSTORE DUP1 SWAP5 POP POP POP POP POP SWAP3 SWAP2 POP POP JUMP JUMPDEST DUP1 CALLDATALOAD PUSH1 0x3 DUP2 LT PUSH2 0x9B9 JUMPI PUSH1 0x0 DUP1 REVERT JUMPDEST SWAP2 SWAP1 POP JUMP JUMPDEST PUSH1 0x0 DUP1 PUSH1 0x40 DUP4 DUP6 SUB SLT ISZERO PUSH2 0x9D1 JUMPI PUSH1 0x0 DUP1 REVERT JUMPDEST DUP3 CALLDATALOAD PUSH8 0xFFFFFFFFFFFFFFFF DUP1 DUP3 GT ISZERO PUSH2 0x9E9 JUMPI PUSH1 0x0 DUP1 REVERT JUMPDEST SWAP1 DUP5 ADD SWAP1 PUSH2 0x100 DUP3 DUP8 SUB SLT ISZERO PUSH2 0x9FE JUMPI PUSH1 0x0 DUP1 REVERT JUMPDEST PUSH2 0xA06 PUSH2 0x8F3 JUMP JUMPDEST DUP3 CALLDATALOAD DUP2 MSTORE PUSH1 0x20 DUP4 ADD CALLDATALOAD PUSH1 0x20 DUP3 ADD MSTORE PUSH1 0x40 DUP4 ADD CALLDATALOAD DUP3 DUP2 GT ISZERO PUSH2 0xA26 JUMPI PUSH1 0x0 DUP1 REVERT JUMPDEST PUSH2 0xA32 DUP9 DUP3 DUP7 ADD PUSH2 0x91D JUMP JUMPDEST PUSH1 0x40 DUP4 ADD MSTORE POP PUSH1 0x60 DUP4 ADD CALLDATALOAD PUSH1 0x60 DUP3 ADD MSTORE PUSH1 0x80 DUP4 ADD CALLDATALOAD DUP3 DUP2 GT ISZERO PUSH2 0xA54 JUMPI PUSH1 0x0 DUP1 REVERT JUMPDEST PUSH2 0xA60 DUP9 DUP3 DUP7 ADD PUSH2 0x91D JUMP JUMPDEST PUSH1 0x80 DUP4 ADD MSTORE POP PUSH1 0xA0 DUP4 ADD CALLDATALOAD DUP3 DUP2 GT ISZERO PUSH2 0xA78 JUMPI PUSH1 0x0 DUP1 REVERT JUMPDEST PUSH2 0xA84 DUP9 DUP3 DUP7 ADD PUSH2 0x91D JUMP JUMPDEST PUSH1 0xA0 DUP4 ADD MSTORE POP PUSH1 0xC0 DUP4 ADD CALLDATALOAD DUP3 DUP2 GT ISZERO PUSH2 0xA9C JUMPI PUSH1 0x0 DUP1 REVERT JUMPDEST PUSH2 0xAA8 DUP9 DUP3 DUP7 ADD PUSH2 0x91D JUMP JUMPDEST PUSH1 0xC0 DUP4 ADD MSTORE POP PUSH2 0xABA PUSH1 0xE0 DUP5 ADD PUSH2 0x9AA JUMP JUMPDEST PUSH1 0xE0 DUP3 ADD MSTORE SWAP7 PUSH1 0x20 SWAP6 SWAP1 SWAP6 ADD CALLDATALOAD SWAP6 POP POP POP POP POP JUMP JUMPDEST PUSH1 0x0 DUP1 PUSH1 0x40 DUP4 DUP6 SUB SLT ISZERO PUSH2 0xAE2 JUMPI PUSH1 0x0 DUP1 REVERT JUMPDEST POP POP DUP1 CALLDATALOAD SWAP3 PUSH1 0x20 SWAP1 SWAP2 ADD CALLDATALOAD SWAP2 POP JUMP JUMPDEST PUSH1 0x0 DUP2 MLOAD DUP1 DUP5 MSTORE PUSH1 0x0 JUMPDEST DUP2 DUP2 LT ISZERO PUSH2 0xB17 JUMPI PUSH1 0x20 DUP2 DUP6 ADD DUP2 ADD MLOAD DUP7 DUP4 ADD DUP3 ADD MSTORE ADD PUSH2 0xAFB JUMP JUMPDEST POP PUSH1 0x0 PUSH1 0x20 DUP3 DUP7 ADD ADD MSTORE PUSH1 0x20 PUSH1 0x1F NOT PUSH1 0x1F DUP4 ADD AND DUP6 ADD ADD SWAP2 POP POP SWAP3 SWAP2 POP POP JUMP JUMPDEST PUSH4 0x4E487B71 PUSH1 0xE0 SHL PUSH1 0x0 MSTORE PUSH1 0x21 PUSH1 0x4 MSTORE PUSH1 0x24 PUSH1 0x0 REVERT JUMPDEST PUSH1 0x3 DUP2 LT PUSH2 0xB6B JUMPI PUSH4 0x4E487B71 PUSH1 0xE0 SHL PUSH1 0x0 MSTORE PUSH1 0x21 PUSH1 0x4 MSTORE PUSH1 0x24 PUSH1 0x0 REVERT JUMPDEST SWAP1 MSTORE JUMP JUMPDEST PUSH1 0x20 DUP2 MSTORE DUP2 MLOAD PUSH1 0x20 DUP3 ADD MSTORE PUSH1 0x20 DUP3 ADD MLOAD PUSH1 0x40 DUP3 ADD MSTORE PUSH1 0x0 PUSH1 0x40 DUP4 ADD MLOAD PUSH2 0x100 DUP1 PUSH1 0x60 DUP6 ADD MSTORE PUSH2 0xBA2 PUSH2 0x120 DUP6 ADD DUP4 PUSH2 0xAF1 JUMP JUMPDEST SWAP2 POP PUSH1 0x60 DUP6 ADD MLOAD PUSH1 0x80 DUP6 ADD MSTORE PUSH1 0x80 DUP6 ADD MLOAD PUSH1 0x1F NOT DUP1 DUP7 DUP6 SUB ADD PUSH1 0xA0 DUP8 ADD MSTORE PUSH2 0xBCA DUP5 DUP4 PUSH2 0xAF1 JUMP JUMPDEST SWAP4 POP PUSH1 0xA0 DUP8 ADD MLOAD SWAP2 POP DUP1 DUP7 DUP6 SUB ADD PUSH1 0xC0 DUP8 ADD MSTORE PUSH2 0xBE7 DUP5 DUP4 PUSH2 0xAF1 JUMP JUMPDEST SWAP4 POP PUSH1 0xC0 DUP8 ADD MLOAD SWAP2 POP DUP1 DUP7 DUP6 SUB ADD PUSH1 0xE0 DUP8 ADD MSTORE POP PUSH2 0xC05 DUP4 DUP3 PUSH2 0xAF1 JUMP JUMPDEST SWAP3 POP POP PUSH1 0xE0 DUP6 ADD MLOAD PUSH2 0xC19 DUP3 DUP7 ADD DUP3 PUSH2 0xB4D JUMP JUMPDEST POP SWAP1 SWAP5 SWAP4 POP POP POP POP JUMP JUMPDEST PUSH1 0x0 PUSH1 0x20 DUP3 DUP5 SUB SLT ISZERO PUSH2 0xC35 JUMPI PUSH1 0x0 DUP1 REVERT JUMPDEST DUP2 CALLDATALOAD PUSH1 0x1 PUSH1 0x1 PUSH1 0xA0 SHL SUB DUP2 AND DUP2 EQ PUSH2 0xC4C JUMPI PUSH1 0x0 DUP1 REVERT JUMPDEST SWAP4 SWAP3 POP POP POP JUMP JUMPDEST PUSH1 0x0 PUSH1 0x20 DUP3 DUP5 SUB SLT ISZERO PUSH2 0xC65 JUMPI PUSH1 0x0 DUP1 REVERT JUMPDEST POP CALLDATALOAD SWAP2 SWAP1 POP JUMP JUMPDEST PUSH1 0x20 DUP1 DUP3 MSTORE PUSH1 0x2B SWAP1 DUP3 ADD MSTORE PUSH32 0x4461746162617365204C697374427573696E657373506F73743A205365637265 PUSH1 0x40 DUP3 ADD MSTORE PUSH11 0x3A1035B2BC9032B93937B9 PUSH1 0xA9 SHL PUSH1 0x60 DUP3 ADD MSTORE PUSH1 0x80 ADD SWAP1 JUMP JUMPDEST PUSH1 0x0 PUSH1 0x1 DUP3 ADD PUSH2 0xCD7 JUMPI PUSH4 0x4E487B71 PUSH1 0xE0 SHL PUSH1 0x0 MSTORE PUSH1 0x11 PUSH1 0x4 MSTORE PUSH1 0x24 PUSH1 0x0 REVERT JUMPDEST POP PUSH1 0x1 ADD SWAP1 JUMP JUMPDEST PUSH1 0x1 DUP2 DUP2 SHR SWAP1 DUP3 AND DUP1 PUSH2 0xCF2 JUMPI PUSH1 0x7F DUP3 AND SWAP2 POP JUMPDEST PUSH1 0x20 DUP3 LT DUP2 SUB PUSH2 0x7C7 JUMPI PUSH4 0x4E487B71 PUSH1 0xE0 SHL PUSH1 0x0 MSTORE PUSH1 0x22 PUSH1 0x4 MSTORE PUSH1 0x24 PUSH1 0x0 REVERT JUMPDEST PUSH1 0x1F DUP3 GT ISZERO PUSH2 0xD5C JUMPI PUSH1 0x0 DUP2 DUP2 MSTORE PUSH1 0x20 DUP2 KECCAK256 PUSH1 0x1F DUP6 ADD PUSH1 0x5 SHR DUP2 ADD PUSH1 0x20 DUP7 LT ISZERO PUSH2 0xD39 JUMPI POP DUP1 JUMPDEST PUSH1 0x1F DUP6 ADD PUSH1 0x5 SHR DUP3 ADD SWAP2 POP JUMPDEST DUP2 DUP2 LT ISZERO PUSH2 0xD58 JUMPI DUP3 DUP2 SSTORE PUSH1 0x1 ADD PUSH2 0xD45 JUMP JUMPDEST POP POP POP JUMPDEST POP POP POP JUMP JUMPDEST DUP2 MLOAD PUSH8 0xFFFFFFFFFFFFFFFF DUP2 GT ISZERO PUSH2 0xD7B JUMPI PUSH2 0xD7B PUSH2 0x8DD JUMP JUMPDEST PUSH2 0xD8F DUP2 PUSH2 0xD89 DUP5 SLOAD PUSH2 0xCDE JUMP JUMPDEST DUP5 PUSH2 0xD12 JUMP JUMPDEST PUSH1 0x20 DUP1 PUSH1 0x1F DUP4 GT PUSH1 0x1 DUP2 EQ PUSH2 0xDC4 JUMPI PUSH1 0x0 DUP5 ISZERO PUSH2 0xDAC JUMPI POP DUP6 DUP4 ADD MLOAD JUMPDEST PUSH1 0x0 NOT PUSH1 0x3 DUP7 SWAP1 SHL SHR NOT AND PUSH1 0x1 DUP6 SWAP1 SHL OR DUP6 SSTORE PUSH2 0xD58 JUMP JUMPDEST PUSH1 0x0 DUP6 DUP2 MSTORE PUSH1 0x20 DUP2 KECCAK256 PUSH1 0x1F NOT DUP7 AND SWAP2 JUMPDEST DUP3 DUP2 LT ISZERO PUSH2 0xDF3 JUMPI DUP9 DUP7 ADD MLOAD DUP3 SSTORE SWAP5 DUP5 ADD SWAP5 PUSH1 0x1 SWAP1 SWAP2 ADD SWAP1 DUP5 ADD PUSH2 0xDD4 JUMP JUMPDEST POP DUP6 DUP3 LT ISZERO PUSH2 0xE11 JUMPI DUP8 DUP6 ADD MLOAD PUSH1 0x0 NOT PUSH1 0x3 DUP9 SWAP1 SHL PUSH1 0xF8 AND SHR NOT AND DUP2 SSTORE JUMPDEST POP POP POP POP POP PUSH1 0x1 SWAP1 DUP2 SHL ADD SWAP1 SSTORE POP JUMP JUMPDEST PUSH1 0x20 DUP1 DUP3 MSTORE PUSH1 0x28 SWAP1 DUP3 ADD MSTORE PUSH32 0x4461746162617365204C697374427573696E657373506F73743A20496E76616C PUSH1 0x40 DUP3 ADD MSTORE PUSH8 0xD2C840D2DCC8CAF PUSH1 0xC3 SHL PUSH1 0x60 DUP3 ADD MSTORE PUSH1 0x80 ADD SWAP1 JUMP INVALID DUP15 AND DIV 0xA8 CODESIZE 0xD0 CALL 0xA9 0xB2 0xCD LOG1 0x4A MULMOD SWAP15 0x4C 0xEB ADDMOD 0xE9 PUSH7 0xCC6E05E8296F67 0xB0 0x2D PUSH2 0xA79F MULMOD LOG2 PUSH5 0x6970667358 0x22 SLT KECCAK256 0xE8 SELFDESTRUCT PUSH6 0xA78C33151976 0x2D PUSH18 0xAAC1876CF13F05E630D7CA12108B7E03E16A 0xD9 PUSH28 0x1B64736F6C6343000810003300000000000000000000000000000000 "
				},
				"gasEstimates": {
					"creation": {
						"codeDepositCost": "755000",
						"executionCost": "30027",
						"totalCost": "785027"
					},
					"external": {
						"add((uint256,uint256,string,uint256,string,string,string,uint8),bytes32)": "infinite",
						"at(uint256,bytes32)": "infinite",
						"destroy()": "29957",
						"getLength(bytes32)": "infinite",
						"hide(uint256,bytes32)": "infinite",
						"owner()": "2346",
						"transferOwnership(address)": "28375"
					}
				},
				"methodIdentifiers": {
					"add((uint256,uint256,string,uint256,string,string,string,uint8),bytes32)": "116f4a23",
					"at(uint256,bytes32)": "c78a6741",
					"destroy()": "83197ef0",
					"getLength(bytes32)": "fd82e9dd",
					"hide(uint256,bytes32)": "b615c00a",
					"owner()": "8da5cb5b",
					"transferOwnership(address)": "f2fde38b"
				}
			},
			"storageLayout": {
				"storage": [
					{
						"astId": 4,
						"contract": "database/business/post/ListBusinessPost.sol:ListBusinessPost",
						"label": "_owner",
						"offset": 0,
						"slot": "0",
						"type": "t_address"
					},
					{
						"astId": 135,
						"contract": "database/business/post/ListBusinessPost.sol:ListBusinessPost",
						"label": "list",
						"offset": 0,
						"slot": "1",
						"type": "t_mapping(t_uint256,t_struct(BusinessPost)319_storage)"
					},
					{
						"astId": 138,
						"contract": "database/business/post/ListBusinessPost.sol:ListBusinessPost",
						"label": "autoIncrement",
						"offset": 0,
						"slot": "2",
						"type": "t_uint256"
					}
				],
				"types": {
					"t_address": {
						"encoding": "inplace",
						"label": "address",
						"numberOfBytes": "20"
					},
					"t_enum(Status)301": {
						"encoding": "inplace",
						"label": "enum Status",
						"numberOfBytes": "1"
					},
					"t_mapping(t_uint256,t_struct(BusinessPost)319_storage)": {
						"encoding": "mapping",
						"key": "t_uint256",
						"label": "mapping(uint256 => struct BusinessPost)",
						"numberOfBytes": "32",
						"value": "t_struct(BusinessPost)319_storage"
					},
					"t_string_storage": {
						"encoding": "bytes",
						"label": "string",
						"numberOfBytes": "32"
					},
					"t_struct(BusinessPost)319_storage": {
						"encoding": "inplace",
						"label": "struct BusinessPost",
						"members": [
							{
								"astId": 303,
								"contract": "database/business/post/ListBusinessPost.sol:ListBusinessPost",
								"label": "id",
								"offset": 0,
								"slot": "0",
								"type": "t_uint256"
							},
							{
								"astId": 305,
								"contract": "database/business/post/ListBusinessPost.sol:ListBusinessPost",
								"label": "businessPostId",
								"offset": 0,
								"slot": "1",
								"type": "t_uint256"
							},
							{
								"astId": 307,
								"contract": "database/business/post/ListBusinessPost.sol:ListBusinessPost",
								"label": "hashTag",
								"offset": 0,
								"slot": "2",
								"type": "t_string_storage"
							},
							{
								"astId": 309,
								"contract": "database/business/post/ListBusinessPost.sol:ListBusinessPost",
								"label": "time",
								"offset": 0,
								"slot": "3",
								"type": "t_uint256"
							},
							{
								"astId": 311,
								"contract": "database/business/post/ListBusinessPost.sol:ListBusinessPost",
								"label": "content",
								"offset": 0,
								"slot": "4",
								"type": "t_string_storage"
							},
							{
								"astId": 313,
								"contract": "database/business/post/ListBusinessPost.sol:ListBusinessPost",
								"label": "imageSource",
								"offset": 0,
								"slot": "5",
								"type": "t_string_storage"
							},
							{
								"astId": 315,
								"contract": "database/business/post/ListBusinessPost.sol:ListBusinessPost",
								"label": "job",
								"offset": 0,
								"slot": "6",
								"type": "t_string_storage"
							},
							{
								"astId": 318,
								"contract": "database/business/post/ListBusinessPost.sol:ListBusinessPost",
								"label": "status",
								"offset": 0,
								"slot": "7",
								"type": "t_enum(Status)301"
							}
						],
						"numberOfBytes": "256"
					},
					"t_uint256": {
						"encoding": "inplace",
						"label": "uint256",
						"numberOfBytes": "32"
					}
				}
			},
			"userdoc": {
				"kind": "user",
				"methods": {},
				"version": 1
			}
		}
	}
}