{
	"controller/BusinessController.sol": {
		"BusinessController": {
			"abi": [
				{
					"inputs": [
						{
							"internalType": "address",
							"name": "listBusinessAddress",
							"type": "address"
						}
					],
					"stateMutability": "nonpayable",
					"type": "constructor"
				},
				{
					"anonymous": false,
					"inputs": [
						{
							"indexed": true,
							"internalType": "address",
							"name": "previousOwner",
							"type": "address"
						},
						{
							"indexed": true,
							"internalType": "address",
							"name": "newOwner",
							"type": "address"
						}
					],
					"name": "OwnershipTransferred",
					"type": "event"
				},
				{
					"inputs": [
						{
							"internalType": "uint256",
							"name": "catergory",
							"type": "uint256"
						},
						{
							"internalType": "string",
							"name": "name",
							"type": "string"
						},
						{
							"internalType": "string",
							"name": "phone",
							"type": "string"
						},
						{
							"internalType": "string",
							"name": "professional",
							"type": "string"
						},
						{
							"internalType": "string",
							"name": "email",
							"type": "string"
						},
						{
							"internalType": "string",
							"name": "github",
							"type": "string"
						},
						{
							"internalType": "string",
							"name": "linkedin",
							"type": "string"
						},
						{
							"internalType": "string",
							"name": "sourceImage",
							"type": "string"
						},
						{
							"internalType": "string",
							"name": "password",
							"type": "string"
						}
					],
					"name": "addBusiness",
					"outputs": [
						{
							"internalType": "bool",
							"name": "",
							"type": "bool"
						}
					],
					"stateMutability": "nonpayable",
					"type": "function"
				},
				{
					"inputs": [],
					"name": "destroy",
					"outputs": [],
					"stateMutability": "nonpayable",
					"type": "function"
				},
				{
					"inputs": [
						{
							"internalType": "uint256",
							"name": "id",
							"type": "uint256"
						},
						{
							"internalType": "string",
							"name": "name",
							"type": "string"
						},
						{
							"internalType": "string",
							"name": "phone",
							"type": "string"
						},
						{
							"internalType": "string",
							"name": "professional",
							"type": "string"
						},
						{
							"internalType": "string",
							"name": "email",
							"type": "string"
						},
						{
							"internalType": "string",
							"name": "github",
							"type": "string"
						},
						{
							"internalType": "string",
							"name": "linkedin",
							"type": "string"
						},
						{
							"internalType": "string",
							"name": "sourceImage",
							"type": "string"
						}
					],
					"name": "editBusiness",
					"outputs": [
						{
							"internalType": "bool",
							"name": "",
							"type": "bool"
						}
					],
					"stateMutability": "nonpayable",
					"type": "function"
				},
				{
					"inputs": [
						{
							"internalType": "uint256",
							"name": "id",
							"type": "uint256"
						}
					],
					"name": "getProfile",
					"outputs": [
						{
							"components": [
								{
									"internalType": "uint256",
									"name": "catergory",
									"type": "uint256"
								},
								{
									"internalType": "uint256",
									"name": "id",
									"type": "uint256"
								},
								{
									"internalType": "address",
									"name": "user",
									"type": "address"
								},
								{
									"internalType": "string",
									"name": "name",
									"type": "string"
								},
								{
									"internalType": "string",
									"name": "phone",
									"type": "string"
								},
								{
									"internalType": "string",
									"name": "professional",
									"type": "string"
								},
								{
									"internalType": "string",
									"name": "email",
									"type": "string"
								},
								{
									"internalType": "string",
									"name": "github",
									"type": "string"
								},
								{
									"internalType": "string",
									"name": "linkedin",
									"type": "string"
								},
								{
									"internalType": "string",
									"name": "sourceImage",
									"type": "string"
								},
								{
									"internalType": "string",
									"name": "password",
									"type": "string"
								}
							],
							"internalType": "struct Profile",
							"name": "",
							"type": "tuple"
						}
					],
					"stateMutability": "view",
					"type": "function"
				},
				{
					"inputs": [],
					"name": "owner",
					"outputs": [
						{
							"internalType": "address",
							"name": "",
							"type": "address"
						}
					],
					"stateMutability": "view",
					"type": "function"
				},
				{
					"inputs": [
						{
							"internalType": "address",
							"name": "newOwner",
							"type": "address"
						}
					],
					"name": "transferOwnership",
					"outputs": [],
					"stateMutability": "nonpayable",
					"type": "function"
				}
			],
			"devdoc": {
				"kind": "dev",
				"methods": {
					"owner()": {
						"details": "Returns the address of the current owner."
					},
					"transferOwnership(address)": {
						"details": "Transfers ownership of the contract to a new account (`newOwner`). Can only be called by the current owner."
					}
				},
				"version": 1
			},
			"evm": {
				"assembly": "    /* \"controller/BusinessController.sol\":364:2571  contract BusinessController is Ownable, ListBusinessCursor {... */\n  mstore(0x40, 0x80)\n    /* \"controller/BusinessController.sol\":429:542  constructor(address listBusinessAddress)... */\n  callvalue\n  dup1\n  iszero\n  tag_1\n  jumpi\n  0x00\n  dup1\n  revert\ntag_1:\n  pop\n  mload(0x40)\n  sub(codesize, bytecodeSize)\n  dup1\n  bytecodeSize\n  dup4\n  codecopy\n  dup2\n  dup2\n  add\n  0x40\n  mstore\n  dup2\n  add\n  swap1\n  tag_2\n  swap2\n  swap1\n  tag_3\n  jump\t// in\ntag_2:\n    /* \"controller/BusinessController.sol\":515:534  listBusinessAddress */\n  dup1\n    /* \"abstract/Ownable.sol\":932:942  msg.sender */\n  caller\n    /* \"abstract/Ownable.sol\":923:929  _owner */\n  0x00\n  dup1\n    /* \"abstract/Ownable.sol\":923:942  _owner = msg.sender */\n  0x0100\n  exp\n  dup2\n  sload\n  dup2\n  0xffffffffffffffffffffffffffffffffffffffff\n  mul\n  not\n  and\n  swap1\n  dup4\n  0xffffffffffffffffffffffffffffffffffffffff\n  and\n  mul\n  or\n  swap1\n  sstore\n  pop\n    /* \"cursor/ListBusinessCursor.sol\":434:439  value */\n  dup1\n    /* \"cursor/ListBusinessCursor.sol\":412:431  listBusinessAddress */\n  0x02\n  0x00\n    /* \"cursor/ListBusinessCursor.sol\":412:439  listBusinessAddress = value */\n  0x0100\n  exp\n  dup2\n  sload\n  dup2\n  0xffffffffffffffffffffffffffffffffffffffff\n  mul\n  not\n  and\n  swap1\n  dup4\n  0xffffffffffffffffffffffffffffffffffffffff\n  and\n  mul\n  or\n  swap1\n  sstore\n  pop\n    /* \"cursor/ListBusinessCursor.sol\":483:488  value */\n  dup1\n    /* \"cursor/ListBusinessCursor.sol\":449:467  listBusinessCursor */\n  0x01\n  0x00\n    /* \"cursor/ListBusinessCursor.sol\":449:489  listBusinessCursor = ListBusiness(value) */\n  0x0100\n  exp\n  dup2\n  sload\n  dup2\n  0xffffffffffffffffffffffffffffffffffffffff\n  mul\n  not\n  and\n  swap1\n  dup4\n  0xffffffffffffffffffffffffffffffffffffffff\n  and\n  mul\n  or\n  swap1\n  sstore\n  pop\n    /* \"cursor/ListBusinessCursor.sol\":375:496  constructor(address value) {... */\n  pop\n    /* \"controller/BusinessController.sol\":429:542  constructor(address listBusinessAddress)... */\n  pop\n    /* \"controller/BusinessController.sol\":364:2571  contract BusinessController is Ownable, ListBusinessCursor {... */\n  jump(tag_10)\n    /* \"#utility.yul\":88:205   */\ntag_12:\n    /* \"#utility.yul\":197:198   */\n  0x00\n    /* \"#utility.yul\":194:195   */\n  dup1\n    /* \"#utility.yul\":187:199   */\n  revert\n    /* \"#utility.yul\":334:460   */\ntag_14:\n    /* \"#utility.yul\":371:378   */\n  0x00\n    /* \"#utility.yul\":411:453   */\n  0xffffffffffffffffffffffffffffffffffffffff\n    /* \"#utility.yul\":404:409   */\n  dup3\n    /* \"#utility.yul\":400:454   */\n  and\n    /* \"#utility.yul\":389:454   */\n  swap1\n  pop\n    /* \"#utility.yul\":334:460   */\n  swap2\n  swap1\n  pop\n  jump\t// out\n    /* \"#utility.yul\":466:562   */\ntag_15:\n    /* \"#utility.yul\":503:510   */\n  0x00\n    /* \"#utility.yul\":532:556   */\n  tag_24\n    /* \"#utility.yul\":550:555   */\n  dup3\n    /* \"#utility.yul\":532:556   */\n  tag_14\n  jump\t// in\ntag_24:\n    /* \"#utility.yul\":521:556   */\n  swap1\n  pop\n    /* \"#utility.yul\":466:562   */\n  swap2\n  swap1\n  pop\n  jump\t// out\n    /* \"#utility.yul\":568:690   */\ntag_16:\n    /* \"#utility.yul\":641:665   */\n  tag_26\n    /* \"#utility.yul\":659:664   */\n  dup2\n    /* \"#utility.yul\":641:665   */\n  tag_15\n  jump\t// in\ntag_26:\n    /* \"#utility.yul\":634:639   */\n  dup2\n    /* \"#utility.yul\":631:666   */\n  eq\n    /* \"#utility.yul\":621:684   */\n  tag_27\n  jumpi\n    /* \"#utility.yul\":680:681   */\n  0x00\n    /* \"#utility.yul\":677:678   */\n  dup1\n    /* \"#utility.yul\":670:682   */\n  revert\n    /* \"#utility.yul\":621:684   */\ntag_27:\n    /* \"#utility.yul\":568:690   */\n  pop\n  jump\t// out\n    /* \"#utility.yul\":696:839   */\ntag_17:\n    /* \"#utility.yul\":753:758   */\n  0x00\n    /* \"#utility.yul\":784:790   */\n  dup2\n    /* \"#utility.yul\":778:791   */\n  mload\n    /* \"#utility.yul\":769:791   */\n  swap1\n  pop\n    /* \"#utility.yul\":800:833   */\n  tag_29\n    /* \"#utility.yul\":827:832   */\n  dup2\n    /* \"#utility.yul\":800:833   */\n  tag_16\n  jump\t// in\ntag_29:\n    /* \"#utility.yul\":696:839   */\n  swap3\n  swap2\n  pop\n  pop\n  jump\t// out\n    /* \"#utility.yul\":845:1196   */\ntag_3:\n    /* \"#utility.yul\":915:921   */\n  0x00\n    /* \"#utility.yul\":964:966   */\n  0x20\n    /* \"#utility.yul\":952:961   */\n  dup3\n    /* \"#utility.yul\":943:950   */\n  dup5\n    /* \"#utility.yul\":939:962   */\n  sub\n    /* \"#utility.yul\":935:967   */\n  slt\n    /* \"#utility.yul\":932:1051   */\n  iszero\n  tag_31\n  jumpi\n    /* \"#utility.yul\":970:1049   */\n  tag_32\n  tag_12\n  jump\t// in\ntag_32:\n    /* \"#utility.yul\":932:1051   */\ntag_31:\n    /* \"#utility.yul\":1090:1091   */\n  0x00\n    /* \"#utility.yul\":1115:1179   */\n  tag_33\n    /* \"#utility.yul\":1171:1178   */\n  dup5\n    /* \"#utility.yul\":1162:1168   */\n  dup3\n    /* \"#utility.yul\":1151:1160   */\n  dup6\n    /* \"#utility.yul\":1147:1169   */\n  add\n    /* \"#utility.yul\":1115:1179   */\n  tag_17\n  jump\t// in\ntag_33:\n    /* \"#utility.yul\":1105:1179   */\n  swap2\n  pop\n    /* \"#utility.yul\":1061:1189   */\n  pop\n    /* \"#utility.yul\":845:1196   */\n  swap3\n  swap2\n  pop\n  pop\n  jump\t// out\n    /* \"controller/BusinessController.sol\":364:2571  contract BusinessController is Ownable, ListBusinessCursor {... */\ntag_10:\n  dataSize(sub_0)\n  dup1\n  dataOffset(sub_0)\n  0x00\n  codecopy\n  0x00\n  return\nstop\n\nsub_0: assembly {\n        /* \"controller/BusinessController.sol\":364:2571  contract BusinessController is Ownable, ListBusinessCursor {... */\n      mstore(0x40, 0x80)\n      callvalue\n      dup1\n      iszero\n      tag_1\n      jumpi\n      0x00\n      dup1\n      revert\n    tag_1:\n      pop\n      jumpi(tag_2, lt(calldatasize, 0x04))\n      shr(0xe0, calldataload(0x00))\n      dup1\n      0x01b02b8c\n      eq\n      tag_3\n      jumpi\n      dup1\n      0x83197ef0\n      eq\n      tag_4\n      jumpi\n      dup1\n      0x8da5cb5b\n      eq\n      tag_5\n      jumpi\n      dup1\n      0xd6c6109a\n      eq\n      tag_6\n      jumpi\n      dup1\n      0xf08f4f64\n      eq\n      tag_7\n      jumpi\n      dup1\n      0xf2fde38b\n      eq\n      tag_8\n      jumpi\n    tag_2:\n      0x00\n      dup1\n      revert\n        /* \"controller/BusinessController.sol\":600:1346  function addBusiness(... */\n    tag_3:\n      tag_9\n      0x04\n      dup1\n      calldatasize\n      sub\n      dup2\n      add\n      swap1\n      tag_10\n      swap2\n      swap1\n      tag_11\n      jump\t// in\n    tag_10:\n      tag_12\n      jump\t// in\n    tag_9:\n      mload(0x40)\n      tag_13\n      swap2\n      swap1\n      tag_14\n      jump\t// in\n    tag_13:\n      mload(0x40)\n      dup1\n      swap2\n      sub\n      swap1\n      return\n        /* \"abstract/Ownable.sol\":2642:2731  function destroy() public onlyOwner {... */\n    tag_4:\n      tag_15\n      tag_16\n      jump\t// in\n    tag_15:\n      stop\n        /* \"abstract/Ownable.sol\":1175:1260  function owner() public view virtual returns (address) {... */\n    tag_5:\n      tag_17\n      tag_18\n      jump\t// in\n    tag_17:\n      mload(0x40)\n      tag_19\n      swap2\n      swap1\n      tag_20\n      jump\t// in\n    tag_19:\n      mload(0x40)\n      dup1\n      swap2\n      sub\n      swap1\n      return\n        /* \"controller/BusinessController.sol\":1412:2318  function editBusiness(... */\n    tag_6:\n      tag_21\n      0x04\n      dup1\n      calldatasize\n      sub\n      dup2\n      add\n      swap1\n      tag_22\n      swap2\n      swap1\n      tag_23\n      jump\t// in\n    tag_22:\n      tag_24\n      jump\t// in\n    tag_21:\n      mload(0x40)\n      tag_25\n      swap2\n      swap1\n      tag_14\n      jump\t// in\n    tag_25:\n      mload(0x40)\n      dup1\n      swap2\n      sub\n      swap1\n      return\n        /* \"controller/BusinessController.sol\":2324:2569  function getProfile(uint256 id)... */\n    tag_7:\n      tag_26\n      0x04\n      dup1\n      calldatasize\n      sub\n      dup2\n      add\n      swap1\n      tag_27\n      swap2\n      swap1\n      tag_28\n      jump\t// in\n    tag_27:\n      tag_29\n      jump\t// in\n    tag_26:\n      mload(0x40)\n      tag_30\n      swap2\n      swap1\n      tag_31\n      jump\t// in\n    tag_30:\n      mload(0x40)\n      dup1\n      swap2\n      sub\n      swap1\n      return\n        /* \"abstract/Ownable.sol\":2063:2295  function transferOwnership(address newOwner) public virtual onlyOwner {... */\n    tag_8:\n      tag_32\n      0x04\n      dup1\n      calldatasize\n      sub\n      dup2\n      add\n      swap1\n      tag_33\n      swap2\n      swap1\n      tag_34\n      jump\t// in\n    tag_33:\n      tag_35\n      jump\t// in\n    tag_32:\n      stop\n        /* \"controller/BusinessController.sol\":600:1346  function addBusiness(... */\n    tag_12:\n        /* \"controller/BusinessController.sol\":942:946  bool */\n      0x00\n        /* \"cursor/ListBusinessCursor.sol\":774:802  _checkExistBusinessAccount() */\n      tag_37\n        /* \"cursor/ListBusinessCursor.sol\":774:800  _checkExistBusinessAccount */\n      tag_38\n        /* \"cursor/ListBusinessCursor.sol\":774:802  _checkExistBusinessAccount() */\n      jump\t// in\n    tag_37:\n        /* \"cursor/ListBusinessCursor.sol\":753:871  require(... */\n      tag_39\n      jumpi\n      mload(0x40)\n      0x08c379a000000000000000000000000000000000000000000000000000000000\n      dup2\n      mstore\n      0x04\n      add\n      tag_40\n      swap1\n      tag_41\n      jump\t// in\n    tag_40:\n      mload(0x40)\n      dup1\n      swap2\n      sub\n      swap1\n      revert\n    tag_39:\n        /* \"controller/BusinessController.sol\":958:970  address user */\n      0x00\n        /* \"controller/BusinessController.sol\":973:983  msg.sender */\n      caller\n        /* \"controller/BusinessController.sol\":958:983  address user = msg.sender */\n      swap1\n      pop\n        /* \"controller/BusinessController.sol\":993:1012  Profile memory item */\n      0x00\n        /* \"controller/BusinessController.sol\":1015:1259  Profile(... */\n      mload(0x40)\n      dup1\n      0x0160\n      add\n      0x40\n      mstore\n      dup1\n        /* \"controller/BusinessController.sol\":1036:1045  catergory */\n      dup14\n        /* \"controller/BusinessController.sol\":1015:1259  Profile(... */\n      dup2\n      mstore\n      0x20\n      add\n        /* \"controller/BusinessController.sol\":1059:1060  0 */\n      0x00\n        /* \"controller/BusinessController.sol\":1015:1259  Profile(... */\n      dup2\n      mstore\n      0x20\n      add\n        /* \"controller/BusinessController.sol\":1074:1078  user */\n      dup4\n        /* \"controller/BusinessController.sol\":1015:1259  Profile(... */\n      0xffffffffffffffffffffffffffffffffffffffff\n      and\n      dup2\n      mstore\n      0x20\n      add\n        /* \"controller/BusinessController.sol\":1092:1096  name */\n      dup13\n        /* \"controller/BusinessController.sol\":1015:1259  Profile(... */\n      dup2\n      mstore\n      0x20\n      add\n        /* \"controller/BusinessController.sol\":1110:1115  phone */\n      dup12\n        /* \"controller/BusinessController.sol\":1015:1259  Profile(... */\n      dup2\n      mstore\n      0x20\n      add\n        /* \"controller/BusinessController.sol\":1129:1141  professional */\n      dup11\n        /* \"controller/BusinessController.sol\":1015:1259  Profile(... */\n      dup2\n      mstore\n      0x20\n      add\n        /* \"controller/BusinessController.sol\":1155:1160  email */\n      dup10\n        /* \"controller/BusinessController.sol\":1015:1259  Profile(... */\n      dup2\n      mstore\n      0x20\n      add\n        /* \"controller/BusinessController.sol\":1174:1180  github */\n      dup9\n        /* \"controller/BusinessController.sol\":1015:1259  Profile(... */\n      dup2\n      mstore\n      0x20\n      add\n        /* \"controller/BusinessController.sol\":1194:1202  linkedin */\n      dup8\n        /* \"controller/BusinessController.sol\":1015:1259  Profile(... */\n      dup2\n      mstore\n      0x20\n      add\n        /* \"controller/BusinessController.sol\":1216:1227  sourceImage */\n      dup7\n        /* \"controller/BusinessController.sol\":1015:1259  Profile(... */\n      dup2\n      mstore\n      0x20\n      add\n        /* \"controller/BusinessController.sol\":1241:1249  password */\n      dup6\n        /* \"controller/BusinessController.sol\":1015:1259  Profile(... */\n      dup2\n      mstore\n      pop\n        /* \"controller/BusinessController.sol\":993:1259  Profile memory item = Profile(... */\n      swap1\n      pop\n        /* \"controller/BusinessController.sol\":1269:1293  _getListBusinessCursor() */\n      tag_43\n        /* \"controller/BusinessController.sol\":1269:1291  _getListBusinessCursor */\n      tag_44\n        /* \"controller/BusinessController.sol\":1269:1293  _getListBusinessCursor() */\n      jump\t// in\n    tag_43:\n        /* \"controller/BusinessController.sol\":1269:1297  _getListBusinessCursor().add */\n      0xffffffffffffffffffffffffffffffffffffffff\n      and\n      0x04a28c07\n        /* \"controller/BusinessController.sol\":1298:1302  item */\n      dup3\n        /* \"constant/SecretKey.sol\":232:298  0x8e1604a838d0f1a9b2cda14a099e4ceb08e966cc6e05e8296f67b02d61a79f09 */\n      0x8e1604a838d0f1a9b2cda14a099e4ceb08e966cc6e05e8296f67b02d61a79f09\n        /* \"controller/BusinessController.sol\":1304:1316  DATABASE_KEY */\n      0x00\n      shl\n        /* \"controller/BusinessController.sol\":1269:1317  _getListBusinessCursor().add(item, DATABASE_KEY) */\n      mload(0x40)\n      dup4\n      0xffffffff\n      and\n      0xe0\n      shl\n      dup2\n      mstore\n      0x04\n      add\n      tag_45\n      swap3\n      swap2\n      swap1\n      tag_46\n      jump\t// in\n    tag_45:\n      0x20\n      mload(0x40)\n      dup1\n      dup4\n      sub\n      dup2\n      0x00\n      dup8\n      gas\n      call\n      iszero\n      dup1\n      iszero\n      tag_48\n      jumpi\n      returndatasize\n      0x00\n      dup1\n      returndatacopy\n      revert(0x00, returndatasize)\n    tag_48:\n      pop\n      pop\n      pop\n      pop\n      mload(0x40)\n      returndatasize\n      not(0x1f)\n      0x1f\n      dup3\n      add\n      and\n      dup3\n      add\n      dup1\n      0x40\n      mstore\n      pop\n      dup2\n      add\n      swap1\n      tag_49\n      swap2\n      swap1\n      tag_50\n      jump\t// in\n    tag_49:\n      pop\n        /* \"controller/BusinessController.sol\":1335:1339  true */\n      0x01\n        /* \"controller/BusinessController.sol\":1328:1339  return true */\n      swap3\n      pop\n      pop\n      pop\n        /* \"controller/BusinessController.sol\":600:1346  function addBusiness(... */\n      swap10\n      swap9\n      pop\n      pop\n      pop\n      pop\n      pop\n      pop\n      pop\n      pop\n      pop\n      jump\t// out\n        /* \"abstract/Ownable.sol\":2642:2731  function destroy() public onlyOwner {... */\n    tag_16:\n        /* \"abstract/Ownable.sol\":1068:1081  _checkOwner() */\n      tag_52\n        /* \"abstract/Ownable.sol\":1068:1079  _checkOwner */\n      tag_53\n        /* \"abstract/Ownable.sol\":1068:1081  _checkOwner() */\n      jump\t// in\n    tag_52:\n        /* \"abstract/Ownable.sol\":2717:2721  this */\n      address\n        /* \"abstract/Ownable.sol\":2688:2724  selfdestruct(payable(address(this))) */\n      0xffffffffffffffffffffffffffffffffffffffff\n      and\n      selfdestruct\n        /* \"abstract/Ownable.sol\":1175:1260  function owner() public view virtual returns (address) {... */\n    tag_18:\n        /* \"abstract/Ownable.sol\":1221:1228  address */\n      0x00\n        /* \"abstract/Ownable.sol\":1247:1253  _owner */\n      dup1\n      0x00\n      swap1\n      sload\n      swap1\n      0x0100\n      exp\n      swap1\n      div\n      0xffffffffffffffffffffffffffffffffffffffff\n      and\n        /* \"abstract/Ownable.sol\":1240:1253  return _owner */\n      swap1\n      pop\n        /* \"abstract/Ownable.sol\":1175:1260  function owner() public view virtual returns (address) {... */\n      swap1\n      jump\t// out\n        /* \"controller/BusinessController.sol\":1412:2318  function editBusiness(... */\n    tag_24:\n        /* \"controller/BusinessController.sol\":1730:1734  bool */\n      0x00\n        /* \"controller/BusinessController.sol\":1717:1719  id */\n      dup9\n        /* \"cursor/ListBusinessCursor.sol\":978:1006  _checkExistBusinessAccount() */\n      tag_57\n        /* \"cursor/ListBusinessCursor.sol\":978:1004  _checkExistBusinessAccount */\n      tag_38\n        /* \"cursor/ListBusinessCursor.sol\":978:1006  _checkExistBusinessAccount() */\n      jump\t// in\n    tag_57:\n        /* \"cursor/ListBusinessCursor.sol\":957:1075  require(... */\n      tag_58\n      jumpi\n      mload(0x40)\n      0x08c379a000000000000000000000000000000000000000000000000000000000\n      dup2\n      mstore\n      0x04\n      add\n      tag_59\n      swap1\n      tag_41\n      jump\t// in\n    tag_59:\n      mload(0x40)\n      dup1\n      swap2\n      sub\n      swap1\n      revert\n    tag_58:\n        /* \"cursor/ListBusinessCursor.sol\":1106:1142  _checkBusinessIdBelongstoAddress(id) */\n      tag_60\n        /* \"cursor/ListBusinessCursor.sol\":1139:1141  id */\n      dup2\n        /* \"cursor/ListBusinessCursor.sol\":1106:1138  _checkBusinessIdBelongstoAddress */\n      tag_61\n        /* \"cursor/ListBusinessCursor.sol\":1106:1142  _checkBusinessIdBelongstoAddress(id) */\n      jump\t// in\n    tag_60:\n        /* \"cursor/ListBusinessCursor.sol\":1085:1215  require(... */\n      tag_62\n      jumpi\n      mload(0x40)\n      0x08c379a000000000000000000000000000000000000000000000000000000000\n      dup2\n      mstore\n      0x04\n      add\n      tag_63\n      swap1\n      tag_64\n      jump\t// in\n    tag_63:\n      mload(0x40)\n      dup1\n      swap2\n      sub\n      swap1\n      revert\n    tag_62:\n        /* \"controller/BusinessController.sol\":1746:1770  _getListBusinessCursor() */\n      tag_66\n        /* \"controller/BusinessController.sol\":1746:1768  _getListBusinessCursor */\n      tag_44\n        /* \"controller/BusinessController.sol\":1746:1770  _getListBusinessCursor() */\n      jump\t// in\n    tag_66:\n        /* \"controller/BusinessController.sol\":1746:1778  _getListBusinessCursor().setName */\n      0xffffffffffffffffffffffffffffffffffffffff\n      and\n      0x413896e4\n        /* \"controller/BusinessController.sol\":1779:1781  id */\n      dup12\n        /* \"constant/SecretKey.sol\":232:298  0x8e1604a838d0f1a9b2cda14a099e4ceb08e966cc6e05e8296f67b02d61a79f09 */\n      0x8e1604a838d0f1a9b2cda14a099e4ceb08e966cc6e05e8296f67b02d61a79f09\n        /* \"controller/BusinessController.sol\":1783:1795  DATABASE_KEY */\n      0x00\n      shl\n        /* \"controller/BusinessController.sol\":1797:1801  name */\n      dup13\n        /* \"controller/BusinessController.sol\":1746:1802  _getListBusinessCursor().setName(id, DATABASE_KEY, name) */\n      mload(0x40)\n      dup5\n      0xffffffff\n      and\n      0xe0\n      shl\n      dup2\n      mstore\n      0x04\n      add\n      tag_67\n      swap4\n      swap3\n      swap2\n      swap1\n      tag_68\n      jump\t// in\n    tag_67:\n      0x20\n      mload(0x40)\n      dup1\n      dup4\n      sub\n      dup2\n      0x00\n      dup8\n      gas\n      call\n      iszero\n      dup1\n      iszero\n      tag_70\n      jumpi\n      returndatasize\n      0x00\n      dup1\n      returndatacopy\n      revert(0x00, returndatasize)\n    tag_70:\n      pop\n      pop\n      pop\n      pop\n      mload(0x40)\n      returndatasize\n      not(0x1f)\n      0x1f\n      dup3\n      add\n      and\n      dup3\n      add\n      dup1\n      0x40\n      mstore\n      pop\n      dup2\n      add\n      swap1\n      tag_71\n      swap2\n      swap1\n      tag_50\n      jump\t// in\n    tag_71:\n      pop\n        /* \"controller/BusinessController.sol\":1812:1836  _getListBusinessCursor() */\n      tag_72\n        /* \"controller/BusinessController.sol\":1812:1834  _getListBusinessCursor */\n      tag_44\n        /* \"controller/BusinessController.sol\":1812:1836  _getListBusinessCursor() */\n      jump\t// in\n    tag_72:\n        /* \"controller/BusinessController.sol\":1812:1845  _getListBusinessCursor().setPhone */\n      0xffffffffffffffffffffffffffffffffffffffff\n      and\n      0xd49cb146\n        /* \"controller/BusinessController.sol\":1846:1848  id */\n      dup12\n        /* \"constant/SecretKey.sol\":232:298  0x8e1604a838d0f1a9b2cda14a099e4ceb08e966cc6e05e8296f67b02d61a79f09 */\n      0x8e1604a838d0f1a9b2cda14a099e4ceb08e966cc6e05e8296f67b02d61a79f09\n        /* \"controller/BusinessController.sol\":1850:1862  DATABASE_KEY */\n      0x00\n      shl\n        /* \"controller/BusinessController.sol\":1864:1869  phone */\n      dup12\n        /* \"controller/BusinessController.sol\":1812:1870  _getListBusinessCursor().setPhone(id, DATABASE_KEY, phone) */\n      mload(0x40)\n      dup5\n      0xffffffff\n      and\n      0xe0\n      shl\n      dup2\n      mstore\n      0x04\n      add\n      tag_73\n      swap4\n      swap3\n      swap2\n      swap1\n      tag_68\n      jump\t// in\n    tag_73:\n      0x20\n      mload(0x40)\n      dup1\n      dup4\n      sub\n      dup2\n      0x00\n      dup8\n      gas\n      call\n      iszero\n      dup1\n      iszero\n      tag_75\n      jumpi\n      returndatasize\n      0x00\n      dup1\n      returndatacopy\n      revert(0x00, returndatasize)\n    tag_75:\n      pop\n      pop\n      pop\n      pop\n      mload(0x40)\n      returndatasize\n      not(0x1f)\n      0x1f\n      dup3\n      add\n      and\n      dup3\n      add\n      dup1\n      0x40\n      mstore\n      pop\n      dup2\n      add\n      swap1\n      tag_76\n      swap2\n      swap1\n      tag_50\n      jump\t// in\n    tag_76:\n      pop\n        /* \"controller/BusinessController.sol\":1880:1904  _getListBusinessCursor() */\n      tag_77\n        /* \"controller/BusinessController.sol\":1880:1902  _getListBusinessCursor */\n      tag_44\n        /* \"controller/BusinessController.sol\":1880:1904  _getListBusinessCursor() */\n      jump\t// in\n    tag_77:\n        /* \"controller/BusinessController.sol\":1880:1920  _getListBusinessCursor().setProfessional */\n      0xffffffffffffffffffffffffffffffffffffffff\n      and\n      0xe3f34371\n        /* \"controller/BusinessController.sol\":1934:1936  id */\n      dup12\n        /* \"constant/SecretKey.sol\":232:298  0x8e1604a838d0f1a9b2cda14a099e4ceb08e966cc6e05e8296f67b02d61a79f09 */\n      0x8e1604a838d0f1a9b2cda14a099e4ceb08e966cc6e05e8296f67b02d61a79f09\n        /* \"controller/BusinessController.sol\":1950:1962  DATABASE_KEY */\n      0x00\n      shl\n        /* \"controller/BusinessController.sol\":1976:1988  professional */\n      dup11\n        /* \"controller/BusinessController.sol\":1880:1998  _getListBusinessCursor().setProfessional(... */\n      mload(0x40)\n      dup5\n      0xffffffff\n      and\n      0xe0\n      shl\n      dup2\n      mstore\n      0x04\n      add\n      tag_78\n      swap4\n      swap3\n      swap2\n      swap1\n      tag_68\n      jump\t// in\n    tag_78:\n      0x20\n      mload(0x40)\n      dup1\n      dup4\n      sub\n      dup2\n      0x00\n      dup8\n      gas\n      call\n      iszero\n      dup1\n      iszero\n      tag_80\n      jumpi\n      returndatasize\n      0x00\n      dup1\n      returndatacopy\n      revert(0x00, returndatasize)\n    tag_80:\n      pop\n      pop\n      pop\n      pop\n      mload(0x40)\n      returndatasize\n      not(0x1f)\n      0x1f\n      dup3\n      add\n      and\n      dup3\n      add\n      dup1\n      0x40\n      mstore\n      pop\n      dup2\n      add\n      swap1\n      tag_81\n      swap2\n      swap1\n      tag_50\n      jump\t// in\n    tag_81:\n      pop\n        /* \"controller/BusinessController.sol\":2008:2032  _getListBusinessCursor() */\n      tag_82\n        /* \"controller/BusinessController.sol\":2008:2030  _getListBusinessCursor */\n      tag_44\n        /* \"controller/BusinessController.sol\":2008:2032  _getListBusinessCursor() */\n      jump\t// in\n    tag_82:\n        /* \"controller/BusinessController.sol\":2008:2041  _getListBusinessCursor().setEmail */\n      0xffffffffffffffffffffffffffffffffffffffff\n      and\n      0x29cd6311\n        /* \"controller/BusinessController.sol\":2042:2044  id */\n      dup12\n        /* \"constant/SecretKey.sol\":232:298  0x8e1604a838d0f1a9b2cda14a099e4ceb08e966cc6e05e8296f67b02d61a79f09 */\n      0x8e1604a838d0f1a9b2cda14a099e4ceb08e966cc6e05e8296f67b02d61a79f09\n        /* \"controller/BusinessController.sol\":2046:2058  DATABASE_KEY */\n      0x00\n      shl\n        /* \"controller/BusinessController.sol\":2060:2065  email */\n      dup10\n        /* \"controller/BusinessController.sol\":2008:2066  _getListBusinessCursor().setEmail(id, DATABASE_KEY, email) */\n      mload(0x40)\n      dup5\n      0xffffffff\n      and\n      0xe0\n      shl\n      dup2\n      mstore\n      0x04\n      add\n      tag_83\n      swap4\n      swap3\n      swap2\n      swap1\n      tag_68\n      jump\t// in\n    tag_83:\n      0x20\n      mload(0x40)\n      dup1\n      dup4\n      sub\n      dup2\n      0x00\n      dup8\n      gas\n      call\n      iszero\n      dup1\n      iszero\n      tag_85\n      jumpi\n      returndatasize\n      0x00\n      dup1\n      returndatacopy\n      revert(0x00, returndatasize)\n    tag_85:\n      pop\n      pop\n      pop\n      pop\n      mload(0x40)\n      returndatasize\n      not(0x1f)\n      0x1f\n      dup3\n      add\n      and\n      dup3\n      add\n      dup1\n      0x40\n      mstore\n      pop\n      dup2\n      add\n      swap1\n      tag_86\n      swap2\n      swap1\n      tag_50\n      jump\t// in\n    tag_86:\n      pop\n        /* \"controller/BusinessController.sol\":2076:2100  _getListBusinessCursor() */\n      tag_87\n        /* \"controller/BusinessController.sol\":2076:2098  _getListBusinessCursor */\n      tag_44\n        /* \"controller/BusinessController.sol\":2076:2100  _getListBusinessCursor() */\n      jump\t// in\n    tag_87:\n        /* \"controller/BusinessController.sol\":2076:2110  _getListBusinessCursor().setGithub */\n      0xffffffffffffffffffffffffffffffffffffffff\n      and\n      0xd2af71a6\n        /* \"controller/BusinessController.sol\":2111:2113  id */\n      dup12\n        /* \"constant/SecretKey.sol\":232:298  0x8e1604a838d0f1a9b2cda14a099e4ceb08e966cc6e05e8296f67b02d61a79f09 */\n      0x8e1604a838d0f1a9b2cda14a099e4ceb08e966cc6e05e8296f67b02d61a79f09\n        /* \"controller/BusinessController.sol\":2115:2127  DATABASE_KEY */\n      0x00\n      shl\n        /* \"controller/BusinessController.sol\":2129:2135  github */\n      dup9\n        /* \"controller/BusinessController.sol\":2076:2136  _getListBusinessCursor().setGithub(id, DATABASE_KEY, github) */\n      mload(0x40)\n      dup5\n      0xffffffff\n      and\n      0xe0\n      shl\n      dup2\n      mstore\n      0x04\n      add\n      tag_88\n      swap4\n      swap3\n      swap2\n      swap1\n      tag_68\n      jump\t// in\n    tag_88:\n      0x20\n      mload(0x40)\n      dup1\n      dup4\n      sub\n      dup2\n      0x00\n      dup8\n      gas\n      call\n      iszero\n      dup1\n      iszero\n      tag_90\n      jumpi\n      returndatasize\n      0x00\n      dup1\n      returndatacopy\n      revert(0x00, returndatasize)\n    tag_90:\n      pop\n      pop\n      pop\n      pop\n      mload(0x40)\n      returndatasize\n      not(0x1f)\n      0x1f\n      dup3\n      add\n      and\n      dup3\n      add\n      dup1\n      0x40\n      mstore\n      pop\n      dup2\n      add\n      swap1\n      tag_91\n      swap2\n      swap1\n      tag_50\n      jump\t// in\n    tag_91:\n      pop\n        /* \"controller/BusinessController.sol\":2146:2170  _getListBusinessCursor() */\n      tag_92\n        /* \"controller/BusinessController.sol\":2146:2168  _getListBusinessCursor */\n      tag_44\n        /* \"controller/BusinessController.sol\":2146:2170  _getListBusinessCursor() */\n      jump\t// in\n    tag_92:\n        /* \"controller/BusinessController.sol\":2146:2182  _getListBusinessCursor().setLinkedin */\n      0xffffffffffffffffffffffffffffffffffffffff\n      and\n      0xd45c8abf\n        /* \"controller/BusinessController.sol\":2183:2185  id */\n      dup12\n        /* \"constant/SecretKey.sol\":232:298  0x8e1604a838d0f1a9b2cda14a099e4ceb08e966cc6e05e8296f67b02d61a79f09 */\n      0x8e1604a838d0f1a9b2cda14a099e4ceb08e966cc6e05e8296f67b02d61a79f09\n        /* \"controller/BusinessController.sol\":2187:2199  DATABASE_KEY */\n      0x00\n      shl\n        /* \"controller/BusinessController.sol\":2201:2209  linkedin */\n      dup8\n        /* \"controller/BusinessController.sol\":2146:2210  _getListBusinessCursor().setLinkedin(id, DATABASE_KEY, linkedin) */\n      mload(0x40)\n      dup5\n      0xffffffff\n      and\n      0xe0\n      shl\n      dup2\n      mstore\n      0x04\n      add\n      tag_93\n      swap4\n      swap3\n      swap2\n      swap1\n      tag_68\n      jump\t// in\n    tag_93:\n      0x20\n      mload(0x40)\n      dup1\n      dup4\n      sub\n      dup2\n      0x00\n      dup8\n      gas\n      call\n      iszero\n      dup1\n      iszero\n      tag_95\n      jumpi\n      returndatasize\n      0x00\n      dup1\n      returndatacopy\n      revert(0x00, returndatasize)\n    tag_95:\n      pop\n      pop\n      pop\n      pop\n      mload(0x40)\n      returndatasize\n      not(0x1f)\n      0x1f\n      dup3\n      add\n      and\n      dup3\n      add\n      dup1\n      0x40\n      mstore\n      pop\n      dup2\n      add\n      swap1\n      tag_96\n      swap2\n      swap1\n      tag_50\n      jump\t// in\n    tag_96:\n      pop\n        /* \"controller/BusinessController.sol\":2220:2244  _getListBusinessCursor() */\n      tag_97\n        /* \"controller/BusinessController.sol\":2220:2242  _getListBusinessCursor */\n      tag_44\n        /* \"controller/BusinessController.sol\":2220:2244  _getListBusinessCursor() */\n      jump\t// in\n    tag_97:\n        /* \"controller/BusinessController.sol\":2220:2259  _getListBusinessCursor().setSourceImage */\n      0xffffffffffffffffffffffffffffffffffffffff\n      and\n      0x800f2234\n        /* \"controller/BusinessController.sol\":2260:2262  id */\n      dup12\n        /* \"constant/SecretKey.sol\":232:298  0x8e1604a838d0f1a9b2cda14a099e4ceb08e966cc6e05e8296f67b02d61a79f09 */\n      0x8e1604a838d0f1a9b2cda14a099e4ceb08e966cc6e05e8296f67b02d61a79f09\n        /* \"controller/BusinessController.sol\":2264:2276  DATABASE_KEY */\n      0x00\n      shl\n        /* \"controller/BusinessController.sol\":2278:2289  sourceImage */\n      dup7\n        /* \"controller/BusinessController.sol\":2220:2290  _getListBusinessCursor().setSourceImage(id, DATABASE_KEY, sourceImage) */\n      mload(0x40)\n      dup5\n      0xffffffff\n      and\n      0xe0\n      shl\n      dup2\n      mstore\n      0x04\n      add\n      tag_98\n      swap4\n      swap3\n      swap2\n      swap1\n      tag_68\n      jump\t// in\n    tag_98:\n      0x20\n      mload(0x40)\n      dup1\n      dup4\n      sub\n      dup2\n      0x00\n      dup8\n      gas\n      call\n      iszero\n      dup1\n      iszero\n      tag_100\n      jumpi\n      returndatasize\n      0x00\n      dup1\n      returndatacopy\n      revert(0x00, returndatasize)\n    tag_100:\n      pop\n      pop\n      pop\n      pop\n      mload(0x40)\n      returndatasize\n      not(0x1f)\n      0x1f\n      dup3\n      add\n      and\n      dup3\n      add\n      dup1\n      0x40\n      mstore\n      pop\n      dup2\n      add\n      swap1\n      tag_101\n      swap2\n      swap1\n      tag_50\n      jump\t// in\n    tag_101:\n      pop\n        /* \"controller/BusinessController.sol\":2307:2311  true */\n      0x01\n        /* \"controller/BusinessController.sol\":2300:2311  return true */\n      swap2\n      pop\n        /* \"controller/BusinessController.sol\":1412:2318  function editBusiness(... */\n      pop\n      swap9\n      swap8\n      pop\n      pop\n      pop\n      pop\n      pop\n      pop\n      pop\n      pop\n      jump\t// out\n        /* \"controller/BusinessController.sol\":2324:2569  function getProfile(uint256 id)... */\n    tag_29:\n        /* \"controller/BusinessController.sol\":2444:2458  Profile memory */\n      tag_102\n      tag_103\n      jump\t// in\n    tag_102:\n        /* \"controller/BusinessController.sol\":2423:2425  id */\n      dup2\n        /* \"cursor/ListBusinessCursor.sol\":978:1006  _checkExistBusinessAccount() */\n      tag_105\n        /* \"cursor/ListBusinessCursor.sol\":978:1004  _checkExistBusinessAccount */\n      tag_38\n        /* \"cursor/ListBusinessCursor.sol\":978:1006  _checkExistBusinessAccount() */\n      jump\t// in\n    tag_105:\n        /* \"cursor/ListBusinessCursor.sol\":957:1075  require(... */\n      tag_106\n      jumpi\n      mload(0x40)\n      0x08c379a000000000000000000000000000000000000000000000000000000000\n      dup2\n      mstore\n      0x04\n      add\n      tag_107\n      swap1\n      tag_41\n      jump\t// in\n    tag_107:\n      mload(0x40)\n      dup1\n      swap2\n      sub\n      swap1\n      revert\n    tag_106:\n        /* \"cursor/ListBusinessCursor.sol\":1106:1142  _checkBusinessIdBelongstoAddress(id) */\n      tag_108\n        /* \"cursor/ListBusinessCursor.sol\":1139:1141  id */\n      dup2\n        /* \"cursor/ListBusinessCursor.sol\":1106:1138  _checkBusinessIdBelongstoAddress */\n      tag_61\n        /* \"cursor/ListBusinessCursor.sol\":1106:1142  _checkBusinessIdBelongstoAddress(id) */\n      jump\t// in\n    tag_108:\n        /* \"cursor/ListBusinessCursor.sol\":1085:1215  require(... */\n      tag_109\n      jumpi\n      mload(0x40)\n      0x08c379a000000000000000000000000000000000000000000000000000000000\n      dup2\n      mstore\n      0x04\n      add\n      tag_110\n      swap1\n      tag_64\n      jump\t// in\n    tag_110:\n      mload(0x40)\n      dup1\n      swap2\n      sub\n      swap1\n      revert\n    tag_109:\n        /* \"controller/BusinessController.sol\":2474:2493  Profile memory item */\n      0x00\n        /* \"controller/BusinessController.sol\":2496:2520  _getListBusinessCursor() */\n      tag_112\n        /* \"controller/BusinessController.sol\":2496:2518  _getListBusinessCursor */\n      tag_44\n        /* \"controller/BusinessController.sol\":2496:2520  _getListBusinessCursor() */\n      jump\t// in\n    tag_112:\n        /* \"controller/BusinessController.sol\":2496:2523  _getListBusinessCursor().at */\n      0xffffffffffffffffffffffffffffffffffffffff\n      and\n      0xc78a6741\n        /* \"controller/BusinessController.sol\":2524:2526  id */\n      dup6\n        /* \"constant/SecretKey.sol\":232:298  0x8e1604a838d0f1a9b2cda14a099e4ceb08e966cc6e05e8296f67b02d61a79f09 */\n      0x8e1604a838d0f1a9b2cda14a099e4ceb08e966cc6e05e8296f67b02d61a79f09\n        /* \"controller/BusinessController.sol\":2528:2540  DATABASE_KEY */\n      0x00\n      shl\n        /* \"controller/BusinessController.sol\":2496:2541  _getListBusinessCursor().at(id, DATABASE_KEY) */\n      mload(0x40)\n      dup4\n      0xffffffff\n      and\n      0xe0\n      shl\n      dup2\n      mstore\n      0x04\n      add\n      tag_113\n      swap3\n      swap2\n      swap1\n      tag_114\n      jump\t// in\n    tag_113:\n      0x00\n      mload(0x40)\n      dup1\n      dup4\n      sub\n      dup2\n      dup7\n      gas\n      staticcall\n      iszero\n      dup1\n      iszero\n      tag_116\n      jumpi\n      returndatasize\n      0x00\n      dup1\n      returndatacopy\n      revert(0x00, returndatasize)\n    tag_116:\n      pop\n      pop\n      pop\n      pop\n      mload(0x40)\n      returndatasize\n      0x00\n      dup3\n      returndatacopy\n      returndatasize\n      not(0x1f)\n      0x1f\n      dup3\n      add\n      and\n      dup3\n      add\n      dup1\n      0x40\n      mstore\n      pop\n      dup2\n      add\n      swap1\n      tag_117\n      swap2\n      swap1\n      tag_118\n      jump\t// in\n    tag_117:\n        /* \"controller/BusinessController.sol\":2474:2541  Profile memory item = _getListBusinessCursor().at(id, DATABASE_KEY) */\n      swap1\n      pop\n        /* \"controller/BusinessController.sol\":2558:2562  item */\n      dup1\n        /* \"controller/BusinessController.sol\":2551:2562  return item */\n      swap3\n      pop\n      pop\n        /* \"controller/BusinessController.sol\":2324:2569  function getProfile(uint256 id)... */\n      pop\n      swap2\n      swap1\n      pop\n      jump\t// out\n        /* \"abstract/Ownable.sol\":2063:2295  function transferOwnership(address newOwner) public virtual onlyOwner {... */\n    tag_35:\n        /* \"abstract/Ownable.sol\":1068:1081  _checkOwner() */\n      tag_120\n        /* \"abstract/Ownable.sol\":1068:1079  _checkOwner */\n      tag_53\n        /* \"abstract/Ownable.sol\":1068:1081  _checkOwner() */\n      jump\t// in\n    tag_120:\n        /* \"abstract/Ownable.sol\":2184:2185  0 */\n      0x00\n        /* \"abstract/Ownable.sol\":2164:2186  newOwner != address(0) */\n      0xffffffffffffffffffffffffffffffffffffffff\n      and\n        /* \"abstract/Ownable.sol\":2164:2172  newOwner */\n      dup2\n        /* \"abstract/Ownable.sol\":2164:2186  newOwner != address(0) */\n      0xffffffffffffffffffffffffffffffffffffffff\n      and\n      sub\n        /* \"abstract/Ownable.sol\":2143:2250  require(... */\n      tag_122\n      jumpi\n      mload(0x40)\n      0x08c379a000000000000000000000000000000000000000000000000000000000\n      dup2\n      mstore\n      0x04\n      add\n      tag_123\n      swap1\n      tag_124\n      jump\t// in\n    tag_123:\n      mload(0x40)\n      dup1\n      swap2\n      sub\n      swap1\n      revert\n    tag_122:\n        /* \"abstract/Ownable.sol\":2260:2288  _transferOwnership(newOwner) */\n      tag_125\n        /* \"abstract/Ownable.sol\":2279:2287  newOwner */\n      dup2\n        /* \"abstract/Ownable.sol\":2260:2278  _transferOwnership */\n      tag_126\n        /* \"abstract/Ownable.sol\":2260:2288  _transferOwnership(newOwner) */\n      jump\t// in\n    tag_125:\n        /* \"abstract/Ownable.sol\":2063:2295  function transferOwnership(address newOwner) public virtual onlyOwner {... */\n      pop\n      jump\t// out\n        /* \"cursor/ListBusinessCursor.sol\":1239:1485  function _checkExistBusinessAccount() internal view returns (bool) {... */\n    tag_38:\n        /* \"cursor/ListBusinessCursor.sol\":1300:1304  bool */\n      0x00\n        /* \"cursor/ListBusinessCursor.sol\":1316:1326  uint256 id */\n      dup1\n        /* \"cursor/ListBusinessCursor.sol\":1329:1347  listBusinessCursor */\n      0x01\n      0x00\n      swap1\n      sload\n      swap1\n      0x0100\n      exp\n      swap1\n      div\n      0xffffffffffffffffffffffffffffffffffffffff\n      and\n        /* \"cursor/ListBusinessCursor.sol\":1329:1363  listBusinessCursor.findIdByAddress */\n      0xffffffffffffffffffffffffffffffffffffffff\n      and\n      0xd32a04c7\n        /* \"cursor/ListBusinessCursor.sol\":1377:1387  msg.sender */\n      caller\n        /* \"constant/SecretKey.sol\":232:298  0x8e1604a838d0f1a9b2cda14a099e4ceb08e966cc6e05e8296f67b02d61a79f09 */\n      0x8e1604a838d0f1a9b2cda14a099e4ceb08e966cc6e05e8296f67b02d61a79f09\n        /* \"cursor/ListBusinessCursor.sol\":1401:1413  DATABASE_KEY */\n      0x00\n      shl\n        /* \"cursor/ListBusinessCursor.sol\":1329:1423  listBusinessCursor.findIdByAddress(... */\n      mload(0x40)\n      dup4\n      0xffffffff\n      and\n      0xe0\n      shl\n      dup2\n      mstore\n      0x04\n      add\n      tag_128\n      swap3\n      swap2\n      swap1\n      tag_129\n      jump\t// in\n    tag_128:\n      0x20\n      mload(0x40)\n      dup1\n      dup4\n      sub\n      dup2\n      dup7\n      gas\n      staticcall\n      iszero\n      dup1\n      iszero\n      tag_131\n      jumpi\n      returndatasize\n      0x00\n      dup1\n      returndatacopy\n      revert(0x00, returndatasize)\n    tag_131:\n      pop\n      pop\n      pop\n      pop\n      mload(0x40)\n      returndatasize\n      not(0x1f)\n      0x1f\n      dup3\n      add\n      and\n      dup3\n      add\n      dup1\n      0x40\n      mstore\n      pop\n      dup2\n      add\n      swap1\n      tag_132\n      swap2\n      swap1\n      tag_133\n      jump\t// in\n    tag_132:\n        /* \"cursor/ListBusinessCursor.sol\":1316:1423  uint256 id = listBusinessCursor.findIdByAddress(... */\n      swap1\n      pop\n        /* \"cursor/ListBusinessCursor.sol\":1442:1443  0 */\n      0x00\n        /* \"cursor/ListBusinessCursor.sol\":1437:1439  id */\n      dup2\n        /* \"cursor/ListBusinessCursor.sol\":1437:1443  id > 0 */\n      gt\n        /* \"cursor/ListBusinessCursor.sol\":1433:1456  if (id > 0) return true */\n      iszero\n      tag_134\n      jumpi\n        /* \"cursor/ListBusinessCursor.sol\":1452:1456  true */\n      0x01\n        /* \"cursor/ListBusinessCursor.sol\":1445:1456  return true */\n      swap2\n      pop\n      pop\n      jump(tag_127)\n        /* \"cursor/ListBusinessCursor.sol\":1433:1456  if (id > 0) return true */\n    tag_134:\n        /* \"cursor/ListBusinessCursor.sol\":1473:1478  false */\n      0x00\n        /* \"cursor/ListBusinessCursor.sol\":1466:1478  return false */\n      swap2\n      pop\n      pop\n        /* \"cursor/ListBusinessCursor.sol\":1239:1485  function _checkExistBusinessAccount() internal view returns (bool) {... */\n    tag_127:\n      swap1\n      jump\t// out\n        /* \"cursor/ListBusinessCursor.sol\":2212:2325  function _getListBusinessCursor() internal view returns (ListBusiness) {... */\n    tag_44:\n        /* \"cursor/ListBusinessCursor.sol\":2269:2281  ListBusiness */\n      0x00\n        /* \"cursor/ListBusinessCursor.sol\":2300:2318  listBusinessCursor */\n      0x01\n      0x00\n      swap1\n      sload\n      swap1\n      0x0100\n      exp\n      swap1\n      div\n      0xffffffffffffffffffffffffffffffffffffffff\n      and\n        /* \"cursor/ListBusinessCursor.sol\":2293:2318  return listBusinessCursor */\n      swap1\n      pop\n        /* \"cursor/ListBusinessCursor.sol\":2212:2325  function _getListBusinessCursor() internal view returns (ListBusiness) {... */\n      swap1\n      jump\t// out\n        /* \"abstract/Ownable.sol\":1333:1461  function _checkOwner() internal view virtual {... */\n    tag_53:\n        /* \"abstract/Ownable.sol\":1407:1417  msg.sender */\n      caller\n        /* \"abstract/Ownable.sol\":1396:1417  owner() == msg.sender */\n      0xffffffffffffffffffffffffffffffffffffffff\n      and\n        /* \"abstract/Ownable.sol\":1396:1403  owner() */\n      tag_137\n        /* \"abstract/Ownable.sol\":1396:1401  owner */\n      tag_18\n        /* \"abstract/Ownable.sol\":1396:1403  owner() */\n      jump\t// in\n    tag_137:\n        /* \"abstract/Ownable.sol\":1396:1417  owner() == msg.sender */\n      0xffffffffffffffffffffffffffffffffffffffff\n      and\n      eq\n        /* \"abstract/Ownable.sol\":1388:1454  require(owner() == msg.sender, \"Ownable: caller is not the owner\") */\n      tag_138\n      jumpi\n      mload(0x40)\n      0x08c379a000000000000000000000000000000000000000000000000000000000\n      dup2\n      mstore\n      0x04\n      add\n      tag_139\n      swap1\n      tag_140\n      jump\t// in\n    tag_139:\n      mload(0x40)\n      dup1\n      swap2\n      sub\n      swap1\n      revert\n    tag_138:\n        /* \"abstract/Ownable.sol\":1333:1461  function _checkOwner() internal view virtual {... */\n      jump\t// out\n        /* \"cursor/ListBusinessCursor.sol\":1491:1738  function _checkBusinessIdBelongstoAddress(uint256 id)... */\n    tag_61:\n        /* \"cursor/ListBusinessCursor.sol\":1592:1596  bool */\n      0x00\n        /* \"cursor/ListBusinessCursor.sol\":1612:1631  Profile memory item */\n      dup1\n        /* \"cursor/ListBusinessCursor.sol\":1634:1652  listBusinessCursor */\n      0x01\n      0x00\n      swap1\n      sload\n      swap1\n      0x0100\n      exp\n      swap1\n      div\n      0xffffffffffffffffffffffffffffffffffffffff\n      and\n        /* \"cursor/ListBusinessCursor.sol\":1634:1655  listBusinessCursor.at */\n      0xffffffffffffffffffffffffffffffffffffffff\n      and\n      0xc78a6741\n        /* \"cursor/ListBusinessCursor.sol\":1656:1658  id */\n      dup5\n        /* \"constant/SecretKey.sol\":232:298  0x8e1604a838d0f1a9b2cda14a099e4ceb08e966cc6e05e8296f67b02d61a79f09 */\n      0x8e1604a838d0f1a9b2cda14a099e4ceb08e966cc6e05e8296f67b02d61a79f09\n        /* \"cursor/ListBusinessCursor.sol\":1660:1672  DATABASE_KEY */\n      0x00\n      shl\n        /* \"cursor/ListBusinessCursor.sol\":1634:1673  listBusinessCursor.at(id, DATABASE_KEY) */\n      mload(0x40)\n      dup4\n      0xffffffff\n      and\n      0xe0\n      shl\n      dup2\n      mstore\n      0x04\n      add\n      tag_142\n      swap3\n      swap2\n      swap1\n      tag_114\n      jump\t// in\n    tag_142:\n      0x00\n      mload(0x40)\n      dup1\n      dup4\n      sub\n      dup2\n      dup7\n      gas\n      staticcall\n      iszero\n      dup1\n      iszero\n      tag_144\n      jumpi\n      returndatasize\n      0x00\n      dup1\n      returndatacopy\n      revert(0x00, returndatasize)\n    tag_144:\n      pop\n      pop\n      pop\n      pop\n      mload(0x40)\n      returndatasize\n      0x00\n      dup3\n      returndatacopy\n      returndatasize\n      not(0x1f)\n      0x1f\n      dup3\n      add\n      and\n      dup3\n      add\n      dup1\n      0x40\n      mstore\n      pop\n      dup2\n      add\n      swap1\n      tag_145\n      swap2\n      swap1\n      tag_118\n      jump\t// in\n    tag_145:\n        /* \"cursor/ListBusinessCursor.sol\":1612:1673  Profile memory item = listBusinessCursor.at(id, DATABASE_KEY) */\n      swap1\n      pop\n        /* \"cursor/ListBusinessCursor.sol\":1690:1731  _checkBusinessUser(item.user, msg.sender) */\n      tag_146\n        /* \"cursor/ListBusinessCursor.sol\":1709:1713  item */\n      dup2\n        /* \"cursor/ListBusinessCursor.sol\":1709:1718  item.user */\n      0x40\n      add\n      mload\n        /* \"cursor/ListBusinessCursor.sol\":1720:1730  msg.sender */\n      caller\n        /* \"cursor/ListBusinessCursor.sol\":1690:1708  _checkBusinessUser */\n      tag_147\n        /* \"cursor/ListBusinessCursor.sol\":1690:1731  _checkBusinessUser(item.user, msg.sender) */\n      jump\t// in\n    tag_146:\n        /* \"cursor/ListBusinessCursor.sol\":1683:1731  return _checkBusinessUser(item.user, msg.sender) */\n      swap2\n      pop\n      pop\n        /* \"cursor/ListBusinessCursor.sol\":1491:1738  function _checkBusinessIdBelongstoAddress(uint256 id)... */\n      swap2\n      swap1\n      pop\n      jump\t// out\n        /* \"abstract/Ownable.sol\":2449:2636  function _transferOwnership(address newOwner) internal virtual {... */\n    tag_126:\n        /* \"abstract/Ownable.sol\":2522:2538  address oldOwner */\n      0x00\n        /* \"abstract/Ownable.sol\":2541:2547  _owner */\n      dup1\n      0x00\n      swap1\n      sload\n      swap1\n      0x0100\n      exp\n      swap1\n      div\n      0xffffffffffffffffffffffffffffffffffffffff\n      and\n        /* \"abstract/Ownable.sol\":2522:2547  address oldOwner = _owner */\n      swap1\n      pop\n        /* \"abstract/Ownable.sol\":2566:2574  newOwner */\n      dup2\n        /* \"abstract/Ownable.sol\":2557:2563  _owner */\n      0x00\n      dup1\n        /* \"abstract/Ownable.sol\":2557:2574  _owner = newOwner */\n      0x0100\n      exp\n      dup2\n      sload\n      dup2\n      0xffffffffffffffffffffffffffffffffffffffff\n      mul\n      not\n      and\n      swap1\n      dup4\n      0xffffffffffffffffffffffffffffffffffffffff\n      and\n      mul\n      or\n      swap1\n      sstore\n      pop\n        /* \"abstract/Ownable.sol\":2620:2628  newOwner */\n      dup2\n        /* \"abstract/Ownable.sol\":2589:2629  OwnershipTransferred(oldOwner, newOwner) */\n      0xffffffffffffffffffffffffffffffffffffffff\n      and\n        /* \"abstract/Ownable.sol\":2610:2618  oldOwner */\n      dup2\n        /* \"abstract/Ownable.sol\":2589:2629  OwnershipTransferred(oldOwner, newOwner) */\n      0xffffffffffffffffffffffffffffffffffffffff\n      and\n      0x8be0079c531659141344cd1fd0a4f28419497f9722a3daafe3b4186f6b6457e0\n      mload(0x40)\n      mload(0x40)\n      dup1\n      swap2\n      sub\n      swap1\n      log3\n        /* \"abstract/Ownable.sol\":2512:2636  {... */\n      pop\n        /* \"abstract/Ownable.sol\":2449:2636  function _transferOwnership(address newOwner) internal virtual {... */\n      pop\n      jump\t// out\n        /* \"cursor/ListBusinessCursor.sol\":1744:1927  function _checkBusinessUser(address user, address value)... */\n    tag_147:\n        /* \"cursor/ListBusinessCursor.sol\":1848:1852  bool */\n      0x00\n        /* \"cursor/ListBusinessCursor.sol\":1880:1885  value */\n      dup2\n        /* \"cursor/ListBusinessCursor.sol\":1872:1885  user == value */\n      0xffffffffffffffffffffffffffffffffffffffff\n      and\n        /* \"cursor/ListBusinessCursor.sol\":1872:1876  user */\n      dup4\n        /* \"cursor/ListBusinessCursor.sol\":1872:1885  user == value */\n      0xffffffffffffffffffffffffffffffffffffffff\n      and\n      sub\n        /* \"cursor/ListBusinessCursor.sol\":1868:1898  if (user == value) return true */\n      tag_150\n      jumpi\n        /* \"cursor/ListBusinessCursor.sol\":1894:1898  true */\n      0x01\n        /* \"cursor/ListBusinessCursor.sol\":1887:1898  return true */\n      swap1\n      pop\n      jump(tag_149)\n        /* \"cursor/ListBusinessCursor.sol\":1868:1898  if (user == value) return true */\n    tag_150:\n        /* \"cursor/ListBusinessCursor.sol\":1915:1920  false */\n      0x00\n        /* \"cursor/ListBusinessCursor.sol\":1908:1920  return false */\n      swap1\n      pop\n        /* \"cursor/ListBusinessCursor.sol\":1744:1927  function _checkBusinessUser(address user, address value)... */\n    tag_149:\n      swap3\n      swap2\n      pop\n      pop\n      jump\t// out\n    tag_103:\n      mload(0x40)\n      dup1\n      0x0160\n      add\n      0x40\n      mstore\n      dup1\n      0x00\n      dup2\n      mstore\n      0x20\n      add\n      0x00\n      dup2\n      mstore\n      0x20\n      add\n      and(0xffffffffffffffffffffffffffffffffffffffff, 0x00)\n      dup2\n      mstore\n      0x20\n      add\n      0x60\n      dup2\n      mstore\n      0x20\n      add\n      0x60\n      dup2\n      mstore\n      0x20\n      add\n      0x60\n      dup2\n      mstore\n      0x20\n      add\n      0x60\n      dup2\n      mstore\n      0x20\n      add\n      0x60\n      dup2\n      mstore\n      0x20\n      add\n      0x60\n      dup2\n      mstore\n      0x20\n      add\n      0x60\n      dup2\n      mstore\n      0x20\n      add\n      0x60\n      dup2\n      mstore\n      pop\n      swap1\n      jump\t// out\n        /* \"#utility.yul\":7:82   */\n    tag_151:\n        /* \"#utility.yul\":40:46   */\n      0x00\n        /* \"#utility.yul\":73:75   */\n      0x40\n        /* \"#utility.yul\":67:76   */\n      mload\n        /* \"#utility.yul\":57:76   */\n      swap1\n      pop\n        /* \"#utility.yul\":7:82   */\n      swap1\n      jump\t// out\n        /* \"#utility.yul\":88:205   */\n    tag_152:\n        /* \"#utility.yul\":197:198   */\n      0x00\n        /* \"#utility.yul\":194:195   */\n      dup1\n        /* \"#utility.yul\":187:199   */\n      revert\n        /* \"#utility.yul\":211:328   */\n    tag_153:\n        /* \"#utility.yul\":320:321   */\n      0x00\n        /* \"#utility.yul\":317:318   */\n      dup1\n        /* \"#utility.yul\":310:322   */\n      revert\n        /* \"#utility.yul\":334:411   */\n    tag_154:\n        /* \"#utility.yul\":371:378   */\n      0x00\n        /* \"#utility.yul\":400:405   */\n      dup2\n        /* \"#utility.yul\":389:405   */\n      swap1\n      pop\n        /* \"#utility.yul\":334:411   */\n      swap2\n      swap1\n      pop\n      jump\t// out\n        /* \"#utility.yul\":417:539   */\n    tag_155:\n        /* \"#utility.yul\":490:514   */\n      tag_209\n        /* \"#utility.yul\":508:513   */\n      dup2\n        /* \"#utility.yul\":490:514   */\n      tag_154\n      jump\t// in\n    tag_209:\n        /* \"#utility.yul\":483:488   */\n      dup2\n        /* \"#utility.yul\":480:515   */\n      eq\n        /* \"#utility.yul\":470:533   */\n      tag_210\n      jumpi\n        /* \"#utility.yul\":529:530   */\n      0x00\n        /* \"#utility.yul\":526:527   */\n      dup1\n        /* \"#utility.yul\":519:531   */\n      revert\n        /* \"#utility.yul\":470:533   */\n    tag_210:\n        /* \"#utility.yul\":417:539   */\n      pop\n      jump\t// out\n        /* \"#utility.yul\":545:684   */\n    tag_156:\n        /* \"#utility.yul\":591:596   */\n      0x00\n        /* \"#utility.yul\":629:635   */\n      dup2\n        /* \"#utility.yul\":616:636   */\n      calldataload\n        /* \"#utility.yul\":607:636   */\n      swap1\n      pop\n        /* \"#utility.yul\":645:678   */\n      tag_212\n        /* \"#utility.yul\":672:677   */\n      dup2\n        /* \"#utility.yul\":645:678   */\n      tag_155\n      jump\t// in\n    tag_212:\n        /* \"#utility.yul\":545:684   */\n      swap3\n      swap2\n      pop\n      pop\n      jump\t// out\n        /* \"#utility.yul\":690:807   */\n    tag_157:\n        /* \"#utility.yul\":799:800   */\n      0x00\n        /* \"#utility.yul\":796:797   */\n      dup1\n        /* \"#utility.yul\":789:801   */\n      revert\n        /* \"#utility.yul\":813:930   */\n    tag_158:\n        /* \"#utility.yul\":922:923   */\n      0x00\n        /* \"#utility.yul\":919:920   */\n      dup1\n        /* \"#utility.yul\":912:924   */\n      revert\n        /* \"#utility.yul\":936:1038   */\n    tag_159:\n        /* \"#utility.yul\":977:983   */\n      0x00\n        /* \"#utility.yul\":1028:1030   */\n      0x1f\n        /* \"#utility.yul\":1024:1031   */\n      not\n        /* \"#utility.yul\":1019:1021   */\n      0x1f\n        /* \"#utility.yul\":1012:1017   */\n      dup4\n        /* \"#utility.yul\":1008:1022   */\n      add\n        /* \"#utility.yul\":1004:1032   */\n      and\n        /* \"#utility.yul\":994:1032   */\n      swap1\n      pop\n        /* \"#utility.yul\":936:1038   */\n      swap2\n      swap1\n      pop\n      jump\t// out\n        /* \"#utility.yul\":1044:1224   */\n    tag_160:\n        /* \"#utility.yul\":1092:1169   */\n      0x4e487b7100000000000000000000000000000000000000000000000000000000\n        /* \"#utility.yul\":1089:1090   */\n      0x00\n        /* \"#utility.yul\":1082:1170   */\n      mstore\n        /* \"#utility.yul\":1189:1193   */\n      0x41\n        /* \"#utility.yul\":1186:1187   */\n      0x04\n        /* \"#utility.yul\":1179:1194   */\n      mstore\n        /* \"#utility.yul\":1213:1217   */\n      0x24\n        /* \"#utility.yul\":1210:1211   */\n      0x00\n        /* \"#utility.yul\":1203:1218   */\n      revert\n        /* \"#utility.yul\":1230:1511   */\n    tag_161:\n        /* \"#utility.yul\":1313:1340   */\n      tag_218\n        /* \"#utility.yul\":1335:1339   */\n      dup3\n        /* \"#utility.yul\":1313:1340   */\n      tag_159\n      jump\t// in\n    tag_218:\n        /* \"#utility.yul\":1305:1311   */\n      dup2\n        /* \"#utility.yul\":1301:1341   */\n      add\n        /* \"#utility.yul\":1443:1449   */\n      dup2\n        /* \"#utility.yul\":1431:1441   */\n      dup2\n        /* \"#utility.yul\":1428:1450   */\n      lt\n        /* \"#utility.yul\":1407:1425   */\n      0xffffffffffffffff\n        /* \"#utility.yul\":1395:1405   */\n      dup3\n        /* \"#utility.yul\":1392:1426   */\n      gt\n        /* \"#utility.yul\":1389:1451   */\n      or\n        /* \"#utility.yul\":1386:1474   */\n      iszero\n      tag_219\n      jumpi\n        /* \"#utility.yul\":1454:1472   */\n      tag_220\n      tag_160\n      jump\t// in\n    tag_220:\n        /* \"#utility.yul\":1386:1474   */\n    tag_219:\n        /* \"#utility.yul\":1494:1504   */\n      dup1\n        /* \"#utility.yul\":1490:1492   */\n      0x40\n        /* \"#utility.yul\":1483:1505   */\n      mstore\n        /* \"#utility.yul\":1273:1511   */\n      pop\n        /* \"#utility.yul\":1230:1511   */\n      pop\n      pop\n      jump\t// out\n        /* \"#utility.yul\":1517:1646   */\n    tag_162:\n        /* \"#utility.yul\":1551:1557   */\n      0x00\n        /* \"#utility.yul\":1578:1598   */\n      tag_222\n      tag_151\n      jump\t// in\n    tag_222:\n        /* \"#utility.yul\":1568:1598   */\n      swap1\n      pop\n        /* \"#utility.yul\":1607:1640   */\n      tag_223\n        /* \"#utility.yul\":1635:1639   */\n      dup3\n        /* \"#utility.yul\":1627:1633   */\n      dup3\n        /* \"#utility.yul\":1607:1640   */\n      tag_161\n      jump\t// in\n    tag_223:\n        /* \"#utility.yul\":1517:1646   */\n      swap2\n      swap1\n      pop\n      jump\t// out\n        /* \"#utility.yul\":1652:1960   */\n    tag_163:\n        /* \"#utility.yul\":1714:1718   */\n      0x00\n        /* \"#utility.yul\":1804:1822   */\n      0xffffffffffffffff\n        /* \"#utility.yul\":1796:1802   */\n      dup3\n        /* \"#utility.yul\":1793:1823   */\n      gt\n        /* \"#utility.yul\":1790:1846   */\n      iszero\n      tag_225\n      jumpi\n        /* \"#utility.yul\":1826:1844   */\n      tag_226\n      tag_160\n      jump\t// in\n    tag_226:\n        /* \"#utility.yul\":1790:1846   */\n    tag_225:\n        /* \"#utility.yul\":1864:1893   */\n      tag_227\n        /* \"#utility.yul\":1886:1892   */\n      dup3\n        /* \"#utility.yul\":1864:1893   */\n      tag_159\n      jump\t// in\n    tag_227:\n        /* \"#utility.yul\":1856:1893   */\n      swap1\n      pop\n        /* \"#utility.yul\":1948:1952   */\n      0x20\n        /* \"#utility.yul\":1942:1946   */\n      dup2\n        /* \"#utility.yul\":1938:1953   */\n      add\n        /* \"#utility.yul\":1930:1953   */\n      swap1\n      pop\n        /* \"#utility.yul\":1652:1960   */\n      swap2\n      swap1\n      pop\n      jump\t// out\n        /* \"#utility.yul\":1966:2112   */\n    tag_164:\n        /* \"#utility.yul\":2063:2069   */\n      dup3\n        /* \"#utility.yul\":2058:2061   */\n      dup2\n        /* \"#utility.yul\":2053:2056   */\n      dup4\n        /* \"#utility.yul\":2040:2070   */\n      calldatacopy\n        /* \"#utility.yul\":2104:2105   */\n      0x00\n        /* \"#utility.yul\":2095:2101   */\n      dup4\n        /* \"#utility.yul\":2090:2093   */\n      dup4\n        /* \"#utility.yul\":2086:2102   */\n      add\n        /* \"#utility.yul\":2079:2106   */\n      mstore\n        /* \"#utility.yul\":1966:2112   */\n      pop\n      pop\n      pop\n      jump\t// out\n        /* \"#utility.yul\":2118:2543   */\n    tag_165:\n        /* \"#utility.yul\":2196:2201   */\n      0x00\n        /* \"#utility.yul\":2221:2287   */\n      tag_230\n        /* \"#utility.yul\":2237:2286   */\n      tag_231\n        /* \"#utility.yul\":2279:2285   */\n      dup5\n        /* \"#utility.yul\":2237:2286   */\n      tag_163\n      jump\t// in\n    tag_231:\n        /* \"#utility.yul\":2221:2287   */\n      tag_162\n      jump\t// in\n    tag_230:\n        /* \"#utility.yul\":2212:2287   */\n      swap1\n      pop\n        /* \"#utility.yul\":2310:2316   */\n      dup3\n        /* \"#utility.yul\":2303:2308   */\n      dup2\n        /* \"#utility.yul\":2296:2317   */\n      mstore\n        /* \"#utility.yul\":2348:2352   */\n      0x20\n        /* \"#utility.yul\":2341:2346   */\n      dup2\n        /* \"#utility.yul\":2337:2353   */\n      add\n        /* \"#utility.yul\":2386:2389   */\n      dup5\n        /* \"#utility.yul\":2377:2383   */\n      dup5\n        /* \"#utility.yul\":2372:2375   */\n      dup5\n        /* \"#utility.yul\":2368:2384   */\n      add\n        /* \"#utility.yul\":2365:2390   */\n      gt\n        /* \"#utility.yul\":2362:2474   */\n      iszero\n      tag_232\n      jumpi\n        /* \"#utility.yul\":2393:2472   */\n      tag_233\n      tag_158\n      jump\t// in\n    tag_233:\n        /* \"#utility.yul\":2362:2474   */\n    tag_232:\n        /* \"#utility.yul\":2483:2537   */\n      tag_234\n        /* \"#utility.yul\":2530:2536   */\n      dup5\n        /* \"#utility.yul\":2525:2528   */\n      dup3\n        /* \"#utility.yul\":2520:2523   */\n      dup6\n        /* \"#utility.yul\":2483:2537   */\n      tag_164\n      jump\t// in\n    tag_234:\n        /* \"#utility.yul\":2202:2543   */\n      pop\n        /* \"#utility.yul\":2118:2543   */\n      swap4\n      swap3\n      pop\n      pop\n      pop\n      jump\t// out\n        /* \"#utility.yul\":2563:2903   */\n    tag_166:\n        /* \"#utility.yul\":2619:2624   */\n      0x00\n        /* \"#utility.yul\":2668:2671   */\n      dup3\n        /* \"#utility.yul\":2661:2665   */\n      0x1f\n        /* \"#utility.yul\":2653:2659   */\n      dup4\n        /* \"#utility.yul\":2649:2666   */\n      add\n        /* \"#utility.yul\":2645:2672   */\n      slt\n        /* \"#utility.yul\":2635:2757   */\n      tag_236\n      jumpi\n        /* \"#utility.yul\":2676:2755   */\n      tag_237\n      tag_157\n      jump\t// in\n    tag_237:\n        /* \"#utility.yul\":2635:2757   */\n    tag_236:\n        /* \"#utility.yul\":2793:2799   */\n      dup2\n        /* \"#utility.yul\":2780:2800   */\n      calldataload\n        /* \"#utility.yul\":2818:2897   */\n      tag_238\n        /* \"#utility.yul\":2893:2896   */\n      dup5\n        /* \"#utility.yul\":2885:2891   */\n      dup3\n        /* \"#utility.yul\":2878:2882   */\n      0x20\n        /* \"#utility.yul\":2870:2876   */\n      dup7\n        /* \"#utility.yul\":2866:2883   */\n      add\n        /* \"#utility.yul\":2818:2897   */\n      tag_165\n      jump\t// in\n    tag_238:\n        /* \"#utility.yul\":2809:2897   */\n      swap2\n      pop\n        /* \"#utility.yul\":2625:2903   */\n      pop\n        /* \"#utility.yul\":2563:2903   */\n      swap3\n      swap2\n      pop\n      pop\n      jump\t// out\n        /* \"#utility.yul\":2909:5844   */\n    tag_11:\n        /* \"#utility.yul\":3120:3126   */\n      0x00\n        /* \"#utility.yul\":3128:3134   */\n      dup1\n        /* \"#utility.yul\":3136:3142   */\n      0x00\n        /* \"#utility.yul\":3144:3150   */\n      dup1\n        /* \"#utility.yul\":3152:3158   */\n      0x00\n        /* \"#utility.yul\":3160:3166   */\n      dup1\n        /* \"#utility.yul\":3168:3174   */\n      0x00\n        /* \"#utility.yul\":3176:3182   */\n      dup1\n        /* \"#utility.yul\":3184:3190   */\n      0x00\n        /* \"#utility.yul\":3233:3236   */\n      0x0120\n        /* \"#utility.yul\":3221:3230   */\n      dup11\n        /* \"#utility.yul\":3212:3219   */\n      dup13\n        /* \"#utility.yul\":3208:3231   */\n      sub\n        /* \"#utility.yul\":3204:3237   */\n      slt\n        /* \"#utility.yul\":3201:3321   */\n      iszero\n      tag_240\n      jumpi\n        /* \"#utility.yul\":3240:3319   */\n      tag_241\n      tag_152\n      jump\t// in\n    tag_241:\n        /* \"#utility.yul\":3201:3321   */\n    tag_240:\n        /* \"#utility.yul\":3360:3361   */\n      0x00\n        /* \"#utility.yul\":3385:3438   */\n      tag_242\n        /* \"#utility.yul\":3430:3437   */\n      dup13\n        /* \"#utility.yul\":3421:3427   */\n      dup3\n        /* \"#utility.yul\":3410:3419   */\n      dup14\n        /* \"#utility.yul\":3406:3428   */\n      add\n        /* \"#utility.yul\":3385:3438   */\n      tag_156\n      jump\t// in\n    tag_242:\n        /* \"#utility.yul\":3375:3438   */\n      swap10\n      pop\n        /* \"#utility.yul\":3331:3448   */\n      pop\n        /* \"#utility.yul\":3515:3517   */\n      0x20\n        /* \"#utility.yul\":3504:3513   */\n      dup11\n        /* \"#utility.yul\":3500:3518   */\n      add\n        /* \"#utility.yul\":3487:3519   */\n      calldataload\n        /* \"#utility.yul\":3546:3564   */\n      0xffffffffffffffff\n        /* \"#utility.yul\":3538:3544   */\n      dup2\n        /* \"#utility.yul\":3535:3565   */\n      gt\n        /* \"#utility.yul\":3532:3649   */\n      iszero\n      tag_243\n      jumpi\n        /* \"#utility.yul\":3568:3647   */\n      tag_244\n      tag_153\n      jump\t// in\n    tag_244:\n        /* \"#utility.yul\":3532:3649   */\n    tag_243:\n        /* \"#utility.yul\":3673:3736   */\n      tag_245\n        /* \"#utility.yul\":3728:3735   */\n      dup13\n        /* \"#utility.yul\":3719:3725   */\n      dup3\n        /* \"#utility.yul\":3708:3717   */\n      dup14\n        /* \"#utility.yul\":3704:3726   */\n      add\n        /* \"#utility.yul\":3673:3736   */\n      tag_166\n      jump\t// in\n    tag_245:\n        /* \"#utility.yul\":3663:3736   */\n      swap9\n      pop\n        /* \"#utility.yul\":3458:3746   */\n      pop\n        /* \"#utility.yul\":3813:3815   */\n      0x40\n        /* \"#utility.yul\":3802:3811   */\n      dup11\n        /* \"#utility.yul\":3798:3816   */\n      add\n        /* \"#utility.yul\":3785:3817   */\n      calldataload\n        /* \"#utility.yul\":3844:3862   */\n      0xffffffffffffffff\n        /* \"#utility.yul\":3836:3842   */\n      dup2\n        /* \"#utility.yul\":3833:3863   */\n      gt\n        /* \"#utility.yul\":3830:3947   */\n      iszero\n      tag_246\n      jumpi\n        /* \"#utility.yul\":3866:3945   */\n      tag_247\n      tag_153\n      jump\t// in\n    tag_247:\n        /* \"#utility.yul\":3830:3947   */\n    tag_246:\n        /* \"#utility.yul\":3971:4034   */\n      tag_248\n        /* \"#utility.yul\":4026:4033   */\n      dup13\n        /* \"#utility.yul\":4017:4023   */\n      dup3\n        /* \"#utility.yul\":4006:4015   */\n      dup14\n        /* \"#utility.yul\":4002:4024   */\n      add\n        /* \"#utility.yul\":3971:4034   */\n      tag_166\n      jump\t// in\n    tag_248:\n        /* \"#utility.yul\":3961:4034   */\n      swap8\n      pop\n        /* \"#utility.yul\":3756:4044   */\n      pop\n        /* \"#utility.yul\":4111:4113   */\n      0x60\n        /* \"#utility.yul\":4100:4109   */\n      dup11\n        /* \"#utility.yul\":4096:4114   */\n      add\n        /* \"#utility.yul\":4083:4115   */\n      calldataload\n        /* \"#utility.yul\":4142:4160   */\n      0xffffffffffffffff\n        /* \"#utility.yul\":4134:4140   */\n      dup2\n        /* \"#utility.yul\":4131:4161   */\n      gt\n        /* \"#utility.yul\":4128:4245   */\n      iszero\n      tag_249\n      jumpi\n        /* \"#utility.yul\":4164:4243   */\n      tag_250\n      tag_153\n      jump\t// in\n    tag_250:\n        /* \"#utility.yul\":4128:4245   */\n    tag_249:\n        /* \"#utility.yul\":4269:4332   */\n      tag_251\n        /* \"#utility.yul\":4324:4331   */\n      dup13\n        /* \"#utility.yul\":4315:4321   */\n      dup3\n        /* \"#utility.yul\":4304:4313   */\n      dup14\n        /* \"#utility.yul\":4300:4322   */\n      add\n        /* \"#utility.yul\":4269:4332   */\n      tag_166\n      jump\t// in\n    tag_251:\n        /* \"#utility.yul\":4259:4332   */\n      swap7\n      pop\n        /* \"#utility.yul\":4054:4342   */\n      pop\n        /* \"#utility.yul\":4409:4412   */\n      0x80\n        /* \"#utility.yul\":4398:4407   */\n      dup11\n        /* \"#utility.yul\":4394:4413   */\n      add\n        /* \"#utility.yul\":4381:4414   */\n      calldataload\n        /* \"#utility.yul\":4441:4459   */\n      0xffffffffffffffff\n        /* \"#utility.yul\":4433:4439   */\n      dup2\n        /* \"#utility.yul\":4430:4460   */\n      gt\n        /* \"#utility.yul\":4427:4544   */\n      iszero\n      tag_252\n      jumpi\n        /* \"#utility.yul\":4463:4542   */\n      tag_253\n      tag_153\n      jump\t// in\n    tag_253:\n        /* \"#utility.yul\":4427:4544   */\n    tag_252:\n        /* \"#utility.yul\":4568:4631   */\n      tag_254\n        /* \"#utility.yul\":4623:4630   */\n      dup13\n        /* \"#utility.yul\":4614:4620   */\n      dup3\n        /* \"#utility.yul\":4603:4612   */\n      dup14\n        /* \"#utility.yul\":4599:4621   */\n      add\n        /* \"#utility.yul\":4568:4631   */\n      tag_166\n      jump\t// in\n    tag_254:\n        /* \"#utility.yul\":4558:4631   */\n      swap6\n      pop\n        /* \"#utility.yul\":4352:4641   */\n      pop\n        /* \"#utility.yul\":4708:4711   */\n      0xa0\n        /* \"#utility.yul\":4697:4706   */\n      dup11\n        /* \"#utility.yul\":4693:4712   */\n      add\n        /* \"#utility.yul\":4680:4713   */\n      calldataload\n        /* \"#utility.yul\":4740:4758   */\n      0xffffffffffffffff\n        /* \"#utility.yul\":4732:4738   */\n      dup2\n        /* \"#utility.yul\":4729:4759   */\n      gt\n        /* \"#utility.yul\":4726:4843   */\n      iszero\n      tag_255\n      jumpi\n        /* \"#utility.yul\":4762:4841   */\n      tag_256\n      tag_153\n      jump\t// in\n    tag_256:\n        /* \"#utility.yul\":4726:4843   */\n    tag_255:\n        /* \"#utility.yul\":4867:4930   */\n      tag_257\n        /* \"#utility.yul\":4922:4929   */\n      dup13\n        /* \"#utility.yul\":4913:4919   */\n      dup3\n        /* \"#utility.yul\":4902:4911   */\n      dup14\n        /* \"#utility.yul\":4898:4920   */\n      add\n        /* \"#utility.yul\":4867:4930   */\n      tag_166\n      jump\t// in\n    tag_257:\n        /* \"#utility.yul\":4857:4930   */\n      swap5\n      pop\n        /* \"#utility.yul\":4651:4940   */\n      pop\n        /* \"#utility.yul\":5007:5010   */\n      0xc0\n        /* \"#utility.yul\":4996:5005   */\n      dup11\n        /* \"#utility.yul\":4992:5011   */\n      add\n        /* \"#utility.yul\":4979:5012   */\n      calldataload\n        /* \"#utility.yul\":5039:5057   */\n      0xffffffffffffffff\n        /* \"#utility.yul\":5031:5037   */\n      dup2\n        /* \"#utility.yul\":5028:5058   */\n      gt\n        /* \"#utility.yul\":5025:5142   */\n      iszero\n      tag_258\n      jumpi\n        /* \"#utility.yul\":5061:5140   */\n      tag_259\n      tag_153\n      jump\t// in\n    tag_259:\n        /* \"#utility.yul\":5025:5142   */\n    tag_258:\n        /* \"#utility.yul\":5166:5229   */\n      tag_260\n        /* \"#utility.yul\":5221:5228   */\n      dup13\n        /* \"#utility.yul\":5212:5218   */\n      dup3\n        /* \"#utility.yul\":5201:5210   */\n      dup14\n        /* \"#utility.yul\":5197:5219   */\n      add\n        /* \"#utility.yul\":5166:5229   */\n      tag_166\n      jump\t// in\n    tag_260:\n        /* \"#utility.yul\":5156:5229   */\n      swap4\n      pop\n        /* \"#utility.yul\":4950:5239   */\n      pop\n        /* \"#utility.yul\":5306:5309   */\n      0xe0\n        /* \"#utility.yul\":5295:5304   */\n      dup11\n        /* \"#utility.yul\":5291:5310   */\n      add\n        /* \"#utility.yul\":5278:5311   */\n      calldataload\n        /* \"#utility.yul\":5338:5356   */\n      0xffffffffffffffff\n        /* \"#utility.yul\":5330:5336   */\n      dup2\n        /* \"#utility.yul\":5327:5357   */\n      gt\n        /* \"#utility.yul\":5324:5441   */\n      iszero\n      tag_261\n      jumpi\n        /* \"#utility.yul\":5360:5439   */\n      tag_262\n      tag_153\n      jump\t// in\n    tag_262:\n        /* \"#utility.yul\":5324:5441   */\n    tag_261:\n        /* \"#utility.yul\":5465:5528   */\n      tag_263\n        /* \"#utility.yul\":5520:5527   */\n      dup13\n        /* \"#utility.yul\":5511:5517   */\n      dup3\n        /* \"#utility.yul\":5500:5509   */\n      dup14\n        /* \"#utility.yul\":5496:5518   */\n      add\n        /* \"#utility.yul\":5465:5528   */\n      tag_166\n      jump\t// in\n    tag_263:\n        /* \"#utility.yul\":5455:5528   */\n      swap3\n      pop\n        /* \"#utility.yul\":5249:5538   */\n      pop\n        /* \"#utility.yul\":5605:5608   */\n      0x0100\n        /* \"#utility.yul\":5594:5603   */\n      dup11\n        /* \"#utility.yul\":5590:5609   */\n      add\n        /* \"#utility.yul\":5577:5610   */\n      calldataload\n        /* \"#utility.yul\":5637:5655   */\n      0xffffffffffffffff\n        /* \"#utility.yul\":5629:5635   */\n      dup2\n        /* \"#utility.yul\":5626:5656   */\n      gt\n        /* \"#utility.yul\":5623:5740   */\n      iszero\n      tag_264\n      jumpi\n        /* \"#utility.yul\":5659:5738   */\n      tag_265\n      tag_153\n      jump\t// in\n    tag_265:\n        /* \"#utility.yul\":5623:5740   */\n    tag_264:\n        /* \"#utility.yul\":5764:5827   */\n      tag_266\n        /* \"#utility.yul\":5819:5826   */\n      dup13\n        /* \"#utility.yul\":5810:5816   */\n      dup3\n        /* \"#utility.yul\":5799:5808   */\n      dup14\n        /* \"#utility.yul\":5795:5817   */\n      add\n        /* \"#utility.yul\":5764:5827   */\n      tag_166\n      jump\t// in\n    tag_266:\n        /* \"#utility.yul\":5754:5827   */\n      swap2\n      pop\n        /* \"#utility.yul\":5548:5837   */\n      pop\n        /* \"#utility.yul\":2909:5844   */\n      swap3\n      swap6\n      swap9\n      pop\n      swap3\n      swap6\n      swap9\n      pop\n      swap3\n      swap6\n      swap9\n      jump\t// out\n        /* \"#utility.yul\":5850:5940   */\n    tag_167:\n        /* \"#utility.yul\":5884:5891   */\n      0x00\n        /* \"#utility.yul\":5927:5932   */\n      dup2\n        /* \"#utility.yul\":5920:5933   */\n      iszero\n        /* \"#utility.yul\":5913:5934   */\n      iszero\n        /* \"#utility.yul\":5902:5934   */\n      swap1\n      pop\n        /* \"#utility.yul\":5850:5940   */\n      swap2\n      swap1\n      pop\n      jump\t// out\n        /* \"#utility.yul\":5946:6055   */\n    tag_168:\n        /* \"#utility.yul\":6027:6048   */\n      tag_269\n        /* \"#utility.yul\":6042:6047   */\n      dup2\n        /* \"#utility.yul\":6027:6048   */\n      tag_167\n      jump\t// in\n    tag_269:\n        /* \"#utility.yul\":6022:6025   */\n      dup3\n        /* \"#utility.yul\":6015:6049   */\n      mstore\n        /* \"#utility.yul\":5946:6055   */\n      pop\n      pop\n      jump\t// out\n        /* \"#utility.yul\":6061:6271   */\n    tag_14:\n        /* \"#utility.yul\":6148:6152   */\n      0x00\n        /* \"#utility.yul\":6186:6188   */\n      0x20\n        /* \"#utility.yul\":6175:6184   */\n      dup3\n        /* \"#utility.yul\":6171:6189   */\n      add\n        /* \"#utility.yul\":6163:6189   */\n      swap1\n      pop\n        /* \"#utility.yul\":6199:6264   */\n      tag_271\n        /* \"#utility.yul\":6261:6262   */\n      0x00\n        /* \"#utility.yul\":6250:6259   */\n      dup4\n        /* \"#utility.yul\":6246:6263   */\n      add\n        /* \"#utility.yul\":6237:6243   */\n      dup5\n        /* \"#utility.yul\":6199:6264   */\n      tag_168\n      jump\t// in\n    tag_271:\n        /* \"#utility.yul\":6061:6271   */\n      swap3\n      swap2\n      pop\n      pop\n      jump\t// out\n        /* \"#utility.yul\":6277:6403   */\n    tag_169:\n        /* \"#utility.yul\":6314:6321   */\n      0x00\n        /* \"#utility.yul\":6354:6396   */\n      0xffffffffffffffffffffffffffffffffffffffff\n        /* \"#utility.yul\":6347:6352   */\n      dup3\n        /* \"#utility.yul\":6343:6397   */\n      and\n        /* \"#utility.yul\":6332:6397   */\n      swap1\n      pop\n        /* \"#utility.yul\":6277:6403   */\n      swap2\n      swap1\n      pop\n      jump\t// out\n        /* \"#utility.yul\":6409:6505   */\n    tag_170:\n        /* \"#utility.yul\":6446:6453   */\n      0x00\n        /* \"#utility.yul\":6475:6499   */\n      tag_274\n        /* \"#utility.yul\":6493:6498   */\n      dup3\n        /* \"#utility.yul\":6475:6499   */\n      tag_169\n      jump\t// in\n    tag_274:\n        /* \"#utility.yul\":6464:6499   */\n      swap1\n      pop\n        /* \"#utility.yul\":6409:6505   */\n      swap2\n      swap1\n      pop\n      jump\t// out\n        /* \"#utility.yul\":6511:6629   */\n    tag_171:\n        /* \"#utility.yul\":6598:6622   */\n      tag_276\n        /* \"#utility.yul\":6616:6621   */\n      dup2\n        /* \"#utility.yul\":6598:6622   */\n      tag_170\n      jump\t// in\n    tag_276:\n        /* \"#utility.yul\":6593:6596   */\n      dup3\n        /* \"#utility.yul\":6586:6623   */\n      mstore\n        /* \"#utility.yul\":6511:6629   */\n      pop\n      pop\n      jump\t// out\n        /* \"#utility.yul\":6635:6857   */\n    tag_20:\n        /* \"#utility.yul\":6728:6732   */\n      0x00\n        /* \"#utility.yul\":6766:6768   */\n      0x20\n        /* \"#utility.yul\":6755:6764   */\n      dup3\n        /* \"#utility.yul\":6751:6769   */\n      add\n        /* \"#utility.yul\":6743:6769   */\n      swap1\n      pop\n        /* \"#utility.yul\":6779:6850   */\n      tag_278\n        /* \"#utility.yul\":6847:6848   */\n      0x00\n        /* \"#utility.yul\":6836:6845   */\n      dup4\n        /* \"#utility.yul\":6832:6849   */\n      add\n        /* \"#utility.yul\":6823:6829   */\n      dup5\n        /* \"#utility.yul\":6779:6850   */\n      tag_171\n      jump\t// in\n    tag_278:\n        /* \"#utility.yul\":6635:6857   */\n      swap3\n      swap2\n      pop\n      pop\n      jump\t// out\n        /* \"#utility.yul\":6863:9472   */\n    tag_23:\n        /* \"#utility.yul\":7055:7061   */\n      0x00\n        /* \"#utility.yul\":7063:7069   */\n      dup1\n        /* \"#utility.yul\":7071:7077   */\n      0x00\n        /* \"#utility.yul\":7079:7085   */\n      dup1\n        /* \"#utility.yul\":7087:7093   */\n      0x00\n        /* \"#utility.yul\":7095:7101   */\n      dup1\n        /* \"#utility.yul\":7103:7109   */\n      0x00\n        /* \"#utility.yul\":7111:7117   */\n      dup1\n        /* \"#utility.yul\":7160:7163   */\n      0x0100\n        /* \"#utility.yul\":7148:7157   */\n      dup10\n        /* \"#utility.yul\":7139:7146   */\n      dup12\n        /* \"#utility.yul\":7135:7158   */\n      sub\n        /* \"#utility.yul\":7131:7164   */\n      slt\n        /* \"#utility.yul\":7128:7248   */\n      iszero\n      tag_280\n      jumpi\n        /* \"#utility.yul\":7167:7246   */\n      tag_281\n      tag_152\n      jump\t// in\n    tag_281:\n        /* \"#utility.yul\":7128:7248   */\n    tag_280:\n        /* \"#utility.yul\":7287:7288   */\n      0x00\n        /* \"#utility.yul\":7312:7365   */\n      tag_282\n        /* \"#utility.yul\":7357:7364   */\n      dup12\n        /* \"#utility.yul\":7348:7354   */\n      dup3\n        /* \"#utility.yul\":7337:7346   */\n      dup13\n        /* \"#utility.yul\":7333:7355   */\n      add\n        /* \"#utility.yul\":7312:7365   */\n      tag_156\n      jump\t// in\n    tag_282:\n        /* \"#utility.yul\":7302:7365   */\n      swap9\n      pop\n        /* \"#utility.yul\":7258:7375   */\n      pop\n        /* \"#utility.yul\":7442:7444   */\n      0x20\n        /* \"#utility.yul\":7431:7440   */\n      dup10\n        /* \"#utility.yul\":7427:7445   */\n      add\n        /* \"#utility.yul\":7414:7446   */\n      calldataload\n        /* \"#utility.yul\":7473:7491   */\n      0xffffffffffffffff\n        /* \"#utility.yul\":7465:7471   */\n      dup2\n        /* \"#utility.yul\":7462:7492   */\n      gt\n        /* \"#utility.yul\":7459:7576   */\n      iszero\n      tag_283\n      jumpi\n        /* \"#utility.yul\":7495:7574   */\n      tag_284\n      tag_153\n      jump\t// in\n    tag_284:\n        /* \"#utility.yul\":7459:7576   */\n    tag_283:\n        /* \"#utility.yul\":7600:7663   */\n      tag_285\n        /* \"#utility.yul\":7655:7662   */\n      dup12\n        /* \"#utility.yul\":7646:7652   */\n      dup3\n        /* \"#utility.yul\":7635:7644   */\n      dup13\n        /* \"#utility.yul\":7631:7653   */\n      add\n        /* \"#utility.yul\":7600:7663   */\n      tag_166\n      jump\t// in\n    tag_285:\n        /* \"#utility.yul\":7590:7663   */\n      swap8\n      pop\n        /* \"#utility.yul\":7385:7673   */\n      pop\n        /* \"#utility.yul\":7740:7742   */\n      0x40\n        /* \"#utility.yul\":7729:7738   */\n      dup10\n        /* \"#utility.yul\":7725:7743   */\n      add\n        /* \"#utility.yul\":7712:7744   */\n      calldataload\n        /* \"#utility.yul\":7771:7789   */\n      0xffffffffffffffff\n        /* \"#utility.yul\":7763:7769   */\n      dup2\n        /* \"#utility.yul\":7760:7790   */\n      gt\n        /* \"#utility.yul\":7757:7874   */\n      iszero\n      tag_286\n      jumpi\n        /* \"#utility.yul\":7793:7872   */\n      tag_287\n      tag_153\n      jump\t// in\n    tag_287:\n        /* \"#utility.yul\":7757:7874   */\n    tag_286:\n        /* \"#utility.yul\":7898:7961   */\n      tag_288\n        /* \"#utility.yul\":7953:7960   */\n      dup12\n        /* \"#utility.yul\":7944:7950   */\n      dup3\n        /* \"#utility.yul\":7933:7942   */\n      dup13\n        /* \"#utility.yul\":7929:7951   */\n      add\n        /* \"#utility.yul\":7898:7961   */\n      tag_166\n      jump\t// in\n    tag_288:\n        /* \"#utility.yul\":7888:7961   */\n      swap7\n      pop\n        /* \"#utility.yul\":7683:7971   */\n      pop\n        /* \"#utility.yul\":8038:8040   */\n      0x60\n        /* \"#utility.yul\":8027:8036   */\n      dup10\n        /* \"#utility.yul\":8023:8041   */\n      add\n        /* \"#utility.yul\":8010:8042   */\n      calldataload\n        /* \"#utility.yul\":8069:8087   */\n      0xffffffffffffffff\n        /* \"#utility.yul\":8061:8067   */\n      dup2\n        /* \"#utility.yul\":8058:8088   */\n      gt\n        /* \"#utility.yul\":8055:8172   */\n      iszero\n      tag_289\n      jumpi\n        /* \"#utility.yul\":8091:8170   */\n      tag_290\n      tag_153\n      jump\t// in\n    tag_290:\n        /* \"#utility.yul\":8055:8172   */\n    tag_289:\n        /* \"#utility.yul\":8196:8259   */\n      tag_291\n        /* \"#utility.yul\":8251:8258   */\n      dup12\n        /* \"#utility.yul\":8242:8248   */\n      dup3\n        /* \"#utility.yul\":8231:8240   */\n      dup13\n        /* \"#utility.yul\":8227:8249   */\n      add\n        /* \"#utility.yul\":8196:8259   */\n      tag_166\n      jump\t// in\n    tag_291:\n        /* \"#utility.yul\":8186:8259   */\n      swap6\n      pop\n        /* \"#utility.yul\":7981:8269   */\n      pop\n        /* \"#utility.yul\":8336:8339   */\n      0x80\n        /* \"#utility.yul\":8325:8334   */\n      dup10\n        /* \"#utility.yul\":8321:8340   */\n      add\n        /* \"#utility.yul\":8308:8341   */\n      calldataload\n        /* \"#utility.yul\":8368:8386   */\n      0xffffffffffffffff\n        /* \"#utility.yul\":8360:8366   */\n      dup2\n        /* \"#utility.yul\":8357:8387   */\n      gt\n        /* \"#utility.yul\":8354:8471   */\n      iszero\n      tag_292\n      jumpi\n        /* \"#utility.yul\":8390:8469   */\n      tag_293\n      tag_153\n      jump\t// in\n    tag_293:\n        /* \"#utility.yul\":8354:8471   */\n    tag_292:\n        /* \"#utility.yul\":8495:8558   */\n      tag_294\n        /* \"#utility.yul\":8550:8557   */\n      dup12\n        /* \"#utility.yul\":8541:8547   */\n      dup3\n        /* \"#utility.yul\":8530:8539   */\n      dup13\n        /* \"#utility.yul\":8526:8548   */\n      add\n        /* \"#utility.yul\":8495:8558   */\n      tag_166\n      jump\t// in\n    tag_294:\n        /* \"#utility.yul\":8485:8558   */\n      swap5\n      pop\n        /* \"#utility.yul\":8279:8568   */\n      pop\n        /* \"#utility.yul\":8635:8638   */\n      0xa0\n        /* \"#utility.yul\":8624:8633   */\n      dup10\n        /* \"#utility.yul\":8620:8639   */\n      add\n        /* \"#utility.yul\":8607:8640   */\n      calldataload\n        /* \"#utility.yul\":8667:8685   */\n      0xffffffffffffffff\n        /* \"#utility.yul\":8659:8665   */\n      dup2\n        /* \"#utility.yul\":8656:8686   */\n      gt\n        /* \"#utility.yul\":8653:8770   */\n      iszero\n      tag_295\n      jumpi\n        /* \"#utility.yul\":8689:8768   */\n      tag_296\n      tag_153\n      jump\t// in\n    tag_296:\n        /* \"#utility.yul\":8653:8770   */\n    tag_295:\n        /* \"#utility.yul\":8794:8857   */\n      tag_297\n        /* \"#utility.yul\":8849:8856   */\n      dup12\n        /* \"#utility.yul\":8840:8846   */\n      dup3\n        /* \"#utility.yul\":8829:8838   */\n      dup13\n        /* \"#utility.yul\":8825:8847   */\n      add\n        /* \"#utility.yul\":8794:8857   */\n      tag_166\n      jump\t// in\n    tag_297:\n        /* \"#utility.yul\":8784:8857   */\n      swap4\n      pop\n        /* \"#utility.yul\":8578:8867   */\n      pop\n        /* \"#utility.yul\":8934:8937   */\n      0xc0\n        /* \"#utility.yul\":8923:8932   */\n      dup10\n        /* \"#utility.yul\":8919:8938   */\n      add\n        /* \"#utility.yul\":8906:8939   */\n      calldataload\n        /* \"#utility.yul\":8966:8984   */\n      0xffffffffffffffff\n        /* \"#utility.yul\":8958:8964   */\n      dup2\n        /* \"#utility.yul\":8955:8985   */\n      gt\n        /* \"#utility.yul\":8952:9069   */\n      iszero\n      tag_298\n      jumpi\n        /* \"#utility.yul\":8988:9067   */\n      tag_299\n      tag_153\n      jump\t// in\n    tag_299:\n        /* \"#utility.yul\":8952:9069   */\n    tag_298:\n        /* \"#utility.yul\":9093:9156   */\n      tag_300\n        /* \"#utility.yul\":9148:9155   */\n      dup12\n        /* \"#utility.yul\":9139:9145   */\n      dup3\n        /* \"#utility.yul\":9128:9137   */\n      dup13\n        /* \"#utility.yul\":9124:9146   */\n      add\n        /* \"#utility.yul\":9093:9156   */\n      tag_166\n      jump\t// in\n    tag_300:\n        /* \"#utility.yul\":9083:9156   */\n      swap3\n      pop\n        /* \"#utility.yul\":8877:9166   */\n      pop\n        /* \"#utility.yul\":9233:9236   */\n      0xe0\n        /* \"#utility.yul\":9222:9231   */\n      dup10\n        /* \"#utility.yul\":9218:9237   */\n      add\n        /* \"#utility.yul\":9205:9238   */\n      calldataload\n        /* \"#utility.yul\":9265:9283   */\n      0xffffffffffffffff\n        /* \"#utility.yul\":9257:9263   */\n      dup2\n        /* \"#utility.yul\":9254:9284   */\n      gt\n        /* \"#utility.yul\":9251:9368   */\n      iszero\n      tag_301\n      jumpi\n        /* \"#utility.yul\":9287:9366   */\n      tag_302\n      tag_153\n      jump\t// in\n    tag_302:\n        /* \"#utility.yul\":9251:9368   */\n    tag_301:\n        /* \"#utility.yul\":9392:9455   */\n      tag_303\n        /* \"#utility.yul\":9447:9454   */\n      dup12\n        /* \"#utility.yul\":9438:9444   */\n      dup3\n        /* \"#utility.yul\":9427:9436   */\n      dup13\n        /* \"#utility.yul\":9423:9445   */\n      add\n        /* \"#utility.yul\":9392:9455   */\n      tag_166\n      jump\t// in\n    tag_303:\n        /* \"#utility.yul\":9382:9455   */\n      swap2\n      pop\n        /* \"#utility.yul\":9176:9465   */\n      pop\n        /* \"#utility.yul\":6863:9472   */\n      swap3\n      swap6\n      swap9\n      pop\n      swap3\n      swap6\n      swap9\n      swap1\n      swap4\n      swap7\n      pop\n      jump\t// out\n        /* \"#utility.yul\":9478:9807   */\n    tag_28:\n        /* \"#utility.yul\":9537:9543   */\n      0x00\n        /* \"#utility.yul\":9586:9588   */\n      0x20\n        /* \"#utility.yul\":9574:9583   */\n      dup3\n        /* \"#utility.yul\":9565:9572   */\n      dup5\n        /* \"#utility.yul\":9561:9584   */\n      sub\n        /* \"#utility.yul\":9557:9589   */\n      slt\n        /* \"#utility.yul\":9554:9673   */\n      iszero\n      tag_305\n      jumpi\n        /* \"#utility.yul\":9592:9671   */\n      tag_306\n      tag_152\n      jump\t// in\n    tag_306:\n        /* \"#utility.yul\":9554:9673   */\n    tag_305:\n        /* \"#utility.yul\":9712:9713   */\n      0x00\n        /* \"#utility.yul\":9737:9790   */\n      tag_307\n        /* \"#utility.yul\":9782:9789   */\n      dup5\n        /* \"#utility.yul\":9773:9779   */\n      dup3\n        /* \"#utility.yul\":9762:9771   */\n      dup6\n        /* \"#utility.yul\":9758:9780   */\n      add\n        /* \"#utility.yul\":9737:9790   */\n      tag_156\n      jump\t// in\n    tag_307:\n        /* \"#utility.yul\":9727:9790   */\n      swap2\n      pop\n        /* \"#utility.yul\":9683:9800   */\n      pop\n        /* \"#utility.yul\":9478:9807   */\n      swap3\n      swap2\n      pop\n      pop\n      jump\t// out\n        /* \"#utility.yul\":9813:9921   */\n    tag_172:\n        /* \"#utility.yul\":9890:9914   */\n      tag_309\n        /* \"#utility.yul\":9908:9913   */\n      dup2\n        /* \"#utility.yul\":9890:9914   */\n      tag_154\n      jump\t// in\n    tag_309:\n        /* \"#utility.yul\":9885:9888   */\n      dup3\n        /* \"#utility.yul\":9878:9915   */\n      mstore\n        /* \"#utility.yul\":9813:9921   */\n      pop\n      pop\n      jump\t// out\n        /* \"#utility.yul\":9927:10035   */\n    tag_173:\n        /* \"#utility.yul\":10004:10028   */\n      tag_311\n        /* \"#utility.yul\":10022:10027   */\n      dup2\n        /* \"#utility.yul\":10004:10028   */\n      tag_170\n      jump\t// in\n    tag_311:\n        /* \"#utility.yul\":9999:10002   */\n      dup3\n        /* \"#utility.yul\":9992:10029   */\n      mstore\n        /* \"#utility.yul\":9927:10035   */\n      pop\n      pop\n      jump\t// out\n        /* \"#utility.yul\":10041:10140   */\n    tag_174:\n        /* \"#utility.yul\":10093:10099   */\n      0x00\n        /* \"#utility.yul\":10127:10132   */\n      dup2\n        /* \"#utility.yul\":10121:10133   */\n      mload\n        /* \"#utility.yul\":10111:10133   */\n      swap1\n      pop\n        /* \"#utility.yul\":10041:10140   */\n      swap2\n      swap1\n      pop\n      jump\t// out\n        /* \"#utility.yul\":10146:10305   */\n    tag_175:\n        /* \"#utility.yul\":10220:10231   */\n      0x00\n        /* \"#utility.yul\":10254:10260   */\n      dup3\n        /* \"#utility.yul\":10249:10252   */\n      dup3\n        /* \"#utility.yul\":10242:10261   */\n      mstore\n        /* \"#utility.yul\":10294:10298   */\n      0x20\n        /* \"#utility.yul\":10289:10292   */\n      dup3\n        /* \"#utility.yul\":10285:10299   */\n      add\n        /* \"#utility.yul\":10270:10299   */\n      swap1\n      pop\n        /* \"#utility.yul\":10146:10305   */\n      swap3\n      swap2\n      pop\n      pop\n      jump\t// out\n        /* \"#utility.yul\":10311:10557   */\n    tag_176:\n        /* \"#utility.yul\":10392:10393   */\n      0x00\n        /* \"#utility.yul\":10402:10515   */\n    tag_315:\n        /* \"#utility.yul\":10416:10422   */\n      dup4\n        /* \"#utility.yul\":10413:10414   */\n      dup2\n        /* \"#utility.yul\":10410:10423   */\n      lt\n        /* \"#utility.yul\":10402:10515   */\n      iszero\n      tag_317\n      jumpi\n        /* \"#utility.yul\":10501:10502   */\n      dup1\n        /* \"#utility.yul\":10496:10499   */\n      dup3\n        /* \"#utility.yul\":10492:10503   */\n      add\n        /* \"#utility.yul\":10486:10504   */\n      mload\n        /* \"#utility.yul\":10482:10483   */\n      dup2\n        /* \"#utility.yul\":10477:10480   */\n      dup5\n        /* \"#utility.yul\":10473:10484   */\n      add\n        /* \"#utility.yul\":10466:10505   */\n      mstore\n        /* \"#utility.yul\":10438:10440   */\n      0x20\n        /* \"#utility.yul\":10435:10436   */\n      dup2\n        /* \"#utility.yul\":10431:10441   */\n      add\n        /* \"#utility.yul\":10426:10441   */\n      swap1\n      pop\n        /* \"#utility.yul\":10402:10515   */\n      jump(tag_315)\n    tag_317:\n        /* \"#utility.yul\":10549:10550   */\n      0x00\n        /* \"#utility.yul\":10540:10546   */\n      dup5\n        /* \"#utility.yul\":10535:10538   */\n      dup5\n        /* \"#utility.yul\":10531:10547   */\n      add\n        /* \"#utility.yul\":10524:10551   */\n      mstore\n        /* \"#utility.yul\":10373:10557   */\n      pop\n        /* \"#utility.yul\":10311:10557   */\n      pop\n      pop\n      pop\n      jump\t// out\n        /* \"#utility.yul\":10563:10920   */\n    tag_177:\n        /* \"#utility.yul\":10641:10644   */\n      0x00\n        /* \"#utility.yul\":10669:10708   */\n      tag_319\n        /* \"#utility.yul\":10702:10707   */\n      dup3\n        /* \"#utility.yul\":10669:10708   */\n      tag_174\n      jump\t// in\n    tag_319:\n        /* \"#utility.yul\":10724:10785   */\n      tag_320\n        /* \"#utility.yul\":10778:10784   */\n      dup2\n        /* \"#utility.yul\":10773:10776   */\n      dup6\n        /* \"#utility.yul\":10724:10785   */\n      tag_175\n      jump\t// in\n    tag_320:\n        /* \"#utility.yul\":10717:10785   */\n      swap4\n      pop\n        /* \"#utility.yul\":10794:10859   */\n      tag_321\n        /* \"#utility.yul\":10852:10858   */\n      dup2\n        /* \"#utility.yul\":10847:10850   */\n      dup6\n        /* \"#utility.yul\":10840:10844   */\n      0x20\n        /* \"#utility.yul\":10833:10838   */\n      dup7\n        /* \"#utility.yul\":10829:10845   */\n      add\n        /* \"#utility.yul\":10794:10859   */\n      tag_176\n      jump\t// in\n    tag_321:\n        /* \"#utility.yul\":10884:10913   */\n      tag_322\n        /* \"#utility.yul\":10906:10912   */\n      dup2\n        /* \"#utility.yul\":10884:10913   */\n      tag_159\n      jump\t// in\n    tag_322:\n        /* \"#utility.yul\":10879:10882   */\n      dup5\n        /* \"#utility.yul\":10875:10914   */\n      add\n        /* \"#utility.yul\":10868:10914   */\n      swap2\n      pop\n        /* \"#utility.yul\":10645:10920   */\n      pop\n        /* \"#utility.yul\":10563:10920   */\n      swap3\n      swap2\n      pop\n      pop\n      jump\t// out\n        /* \"#utility.yul\":10966:13679   */\n    tag_178:\n        /* \"#utility.yul\":11085:11088   */\n      0x00\n        /* \"#utility.yul\":11121:11127   */\n      0x0160\n        /* \"#utility.yul\":11116:11119   */\n      dup4\n        /* \"#utility.yul\":11112:11128   */\n      add\n        /* \"#utility.yul\":11215:11219   */\n      0x00\n        /* \"#utility.yul\":11208:11213   */\n      dup4\n        /* \"#utility.yul\":11204:11220   */\n      add\n        /* \"#utility.yul\":11198:11221   */\n      mload\n        /* \"#utility.yul\":11234:11297   */\n      tag_324\n        /* \"#utility.yul\":11291:11295   */\n      0x00\n        /* \"#utility.yul\":11286:11289   */\n      dup7\n        /* \"#utility.yul\":11282:11296   */\n      add\n        /* \"#utility.yul\":11268:11280   */\n      dup3\n        /* \"#utility.yul\":11234:11297   */\n      tag_172\n      jump\t// in\n    tag_324:\n        /* \"#utility.yul\":11138:11307   */\n      pop\n        /* \"#utility.yul\":11387:11391   */\n      0x20\n        /* \"#utility.yul\":11380:11385   */\n      dup4\n        /* \"#utility.yul\":11376:11392   */\n      add\n        /* \"#utility.yul\":11370:11393   */\n      mload\n        /* \"#utility.yul\":11406:11469   */\n      tag_325\n        /* \"#utility.yul\":11463:11467   */\n      0x20\n        /* \"#utility.yul\":11458:11461   */\n      dup7\n        /* \"#utility.yul\":11454:11468   */\n      add\n        /* \"#utility.yul\":11440:11452   */\n      dup3\n        /* \"#utility.yul\":11406:11469   */\n      tag_172\n      jump\t// in\n    tag_325:\n        /* \"#utility.yul\":11317:11479   */\n      pop\n        /* \"#utility.yul\":11561:11565   */\n      0x40\n        /* \"#utility.yul\":11554:11559   */\n      dup4\n        /* \"#utility.yul\":11550:11566   */\n      add\n        /* \"#utility.yul\":11544:11567   */\n      mload\n        /* \"#utility.yul\":11580:11643   */\n      tag_326\n        /* \"#utility.yul\":11637:11641   */\n      0x40\n        /* \"#utility.yul\":11632:11635   */\n      dup7\n        /* \"#utility.yul\":11628:11642   */\n      add\n        /* \"#utility.yul\":11614:11626   */\n      dup3\n        /* \"#utility.yul\":11580:11643   */\n      tag_173\n      jump\t// in\n    tag_326:\n        /* \"#utility.yul\":11489:11653   */\n      pop\n        /* \"#utility.yul\":11735:11739   */\n      0x60\n        /* \"#utility.yul\":11728:11733   */\n      dup4\n        /* \"#utility.yul\":11724:11740   */\n      add\n        /* \"#utility.yul\":11718:11741   */\n      mload\n        /* \"#utility.yul\":11788:11791   */\n      dup5\n        /* \"#utility.yul\":11782:11786   */\n      dup3\n        /* \"#utility.yul\":11778:11792   */\n      sub\n        /* \"#utility.yul\":11771:11775   */\n      0x60\n        /* \"#utility.yul\":11766:11769   */\n      dup7\n        /* \"#utility.yul\":11762:11776   */\n      add\n        /* \"#utility.yul\":11755:11793   */\n      mstore\n        /* \"#utility.yul\":11814:11887   */\n      tag_327\n        /* \"#utility.yul\":11882:11886   */\n      dup3\n        /* \"#utility.yul\":11868:11880   */\n      dup3\n        /* \"#utility.yul\":11814:11887   */\n      tag_177\n      jump\t// in\n    tag_327:\n        /* \"#utility.yul\":11806:11887   */\n      swap2\n      pop\n        /* \"#utility.yul\":11663:11898   */\n      pop\n        /* \"#utility.yul\":11981:11985   */\n      0x80\n        /* \"#utility.yul\":11974:11979   */\n      dup4\n        /* \"#utility.yul\":11970:11986   */\n      add\n        /* \"#utility.yul\":11964:11987   */\n      mload\n        /* \"#utility.yul\":12034:12037   */\n      dup5\n        /* \"#utility.yul\":12028:12032   */\n      dup3\n        /* \"#utility.yul\":12024:12038   */\n      sub\n        /* \"#utility.yul\":12017:12021   */\n      0x80\n        /* \"#utility.yul\":12012:12015   */\n      dup7\n        /* \"#utility.yul\":12008:12022   */\n      add\n        /* \"#utility.yul\":12001:12039   */\n      mstore\n        /* \"#utility.yul\":12060:12133   */\n      tag_328\n        /* \"#utility.yul\":12128:12132   */\n      dup3\n        /* \"#utility.yul\":12114:12126   */\n      dup3\n        /* \"#utility.yul\":12060:12133   */\n      tag_177\n      jump\t// in\n    tag_328:\n        /* \"#utility.yul\":12052:12133   */\n      swap2\n      pop\n        /* \"#utility.yul\":11908:12144   */\n      pop\n        /* \"#utility.yul\":12234:12238   */\n      0xa0\n        /* \"#utility.yul\":12227:12232   */\n      dup4\n        /* \"#utility.yul\":12223:12239   */\n      add\n        /* \"#utility.yul\":12217:12240   */\n      mload\n        /* \"#utility.yul\":12287:12290   */\n      dup5\n        /* \"#utility.yul\":12281:12285   */\n      dup3\n        /* \"#utility.yul\":12277:12291   */\n      sub\n        /* \"#utility.yul\":12270:12274   */\n      0xa0\n        /* \"#utility.yul\":12265:12268   */\n      dup7\n        /* \"#utility.yul\":12261:12275   */\n      add\n        /* \"#utility.yul\":12254:12292   */\n      mstore\n        /* \"#utility.yul\":12313:12386   */\n      tag_329\n        /* \"#utility.yul\":12381:12385   */\n      dup3\n        /* \"#utility.yul\":12367:12379   */\n      dup3\n        /* \"#utility.yul\":12313:12386   */\n      tag_177\n      jump\t// in\n    tag_329:\n        /* \"#utility.yul\":12305:12386   */\n      swap2\n      pop\n        /* \"#utility.yul\":12154:12397   */\n      pop\n        /* \"#utility.yul\":12480:12484   */\n      0xc0\n        /* \"#utility.yul\":12473:12478   */\n      dup4\n        /* \"#utility.yul\":12469:12485   */\n      add\n        /* \"#utility.yul\":12463:12486   */\n      mload\n        /* \"#utility.yul\":12533:12536   */\n      dup5\n        /* \"#utility.yul\":12527:12531   */\n      dup3\n        /* \"#utility.yul\":12523:12537   */\n      sub\n        /* \"#utility.yul\":12516:12520   */\n      0xc0\n        /* \"#utility.yul\":12511:12514   */\n      dup7\n        /* \"#utility.yul\":12507:12521   */\n      add\n        /* \"#utility.yul\":12500:12538   */\n      mstore\n        /* \"#utility.yul\":12559:12632   */\n      tag_330\n        /* \"#utility.yul\":12627:12631   */\n      dup3\n        /* \"#utility.yul\":12613:12625   */\n      dup3\n        /* \"#utility.yul\":12559:12632   */\n      tag_177\n      jump\t// in\n    tag_330:\n        /* \"#utility.yul\":12551:12632   */\n      swap2\n      pop\n        /* \"#utility.yul\":12407:12643   */\n      pop\n        /* \"#utility.yul\":12727:12731   */\n      0xe0\n        /* \"#utility.yul\":12720:12725   */\n      dup4\n        /* \"#utility.yul\":12716:12732   */\n      add\n        /* \"#utility.yul\":12710:12733   */\n      mload\n        /* \"#utility.yul\":12780:12783   */\n      dup5\n        /* \"#utility.yul\":12774:12778   */\n      dup3\n        /* \"#utility.yul\":12770:12784   */\n      sub\n        /* \"#utility.yul\":12763:12767   */\n      0xe0\n        /* \"#utility.yul\":12758:12761   */\n      dup7\n        /* \"#utility.yul\":12754:12768   */\n      add\n        /* \"#utility.yul\":12747:12785   */\n      mstore\n        /* \"#utility.yul\":12806:12879   */\n      tag_331\n        /* \"#utility.yul\":12874:12878   */\n      dup3\n        /* \"#utility.yul\":12860:12872   */\n      dup3\n        /* \"#utility.yul\":12806:12879   */\n      tag_177\n      jump\t// in\n    tag_331:\n        /* \"#utility.yul\":12798:12879   */\n      swap2\n      pop\n        /* \"#utility.yul\":12653:12890   */\n      pop\n        /* \"#utility.yul\":12976:12982   */\n      0x0100\n        /* \"#utility.yul\":12969:12974   */\n      dup4\n        /* \"#utility.yul\":12965:12983   */\n      add\n        /* \"#utility.yul\":12959:12984   */\n      mload\n        /* \"#utility.yul\":13033:13036   */\n      dup5\n        /* \"#utility.yul\":13027:13031   */\n      dup3\n        /* \"#utility.yul\":13023:13037   */\n      sub\n        /* \"#utility.yul\":13014:13020   */\n      0x0100\n        /* \"#utility.yul\":13009:13012   */\n      dup7\n        /* \"#utility.yul\":13005:13021   */\n      add\n        /* \"#utility.yul\":12998:13038   */\n      mstore\n        /* \"#utility.yul\":13059:13132   */\n      tag_332\n        /* \"#utility.yul\":13127:13131   */\n      dup3\n        /* \"#utility.yul\":13113:13125   */\n      dup3\n        /* \"#utility.yul\":13059:13132   */\n      tag_177\n      jump\t// in\n    tag_332:\n        /* \"#utility.yul\":13051:13132   */\n      swap2\n      pop\n        /* \"#utility.yul\":12900:13143   */\n      pop\n        /* \"#utility.yul\":13232:13238   */\n      0x0120\n        /* \"#utility.yul\":13225:13230   */\n      dup4\n        /* \"#utility.yul\":13221:13239   */\n      add\n        /* \"#utility.yul\":13215:13240   */\n      mload\n        /* \"#utility.yul\":13289:13292   */\n      dup5\n        /* \"#utility.yul\":13283:13287   */\n      dup3\n        /* \"#utility.yul\":13279:13293   */\n      sub\n        /* \"#utility.yul\":13270:13276   */\n      0x0120\n        /* \"#utility.yul\":13265:13268   */\n      dup7\n        /* \"#utility.yul\":13261:13277   */\n      add\n        /* \"#utility.yul\":13254:13294   */\n      mstore\n        /* \"#utility.yul\":13315:13388   */\n      tag_333\n        /* \"#utility.yul\":13383:13387   */\n      dup3\n        /* \"#utility.yul\":13369:13381   */\n      dup3\n        /* \"#utility.yul\":13315:13388   */\n      tag_177\n      jump\t// in\n    tag_333:\n        /* \"#utility.yul\":13307:13388   */\n      swap2\n      pop\n        /* \"#utility.yul\":13153:13399   */\n      pop\n        /* \"#utility.yul\":13485:13491   */\n      0x0140\n        /* \"#utility.yul\":13478:13483   */\n      dup4\n        /* \"#utility.yul\":13474:13492   */\n      add\n        /* \"#utility.yul\":13468:13493   */\n      mload\n        /* \"#utility.yul\":13542:13545   */\n      dup5\n        /* \"#utility.yul\":13536:13540   */\n      dup3\n        /* \"#utility.yul\":13532:13546   */\n      sub\n        /* \"#utility.yul\":13523:13529   */\n      0x0140\n        /* \"#utility.yul\":13518:13521   */\n      dup7\n        /* \"#utility.yul\":13514:13530   */\n      add\n        /* \"#utility.yul\":13507:13547   */\n      mstore\n        /* \"#utility.yul\":13568:13641   */\n      tag_334\n        /* \"#utility.yul\":13636:13640   */\n      dup3\n        /* \"#utility.yul\":13622:13634   */\n      dup3\n        /* \"#utility.yul\":13568:13641   */\n      tag_177\n      jump\t// in\n    tag_334:\n        /* \"#utility.yul\":13560:13641   */\n      swap2\n      pop\n        /* \"#utility.yul\":13409:13652   */\n      pop\n        /* \"#utility.yul\":13669:13673   */\n      dup1\n        /* \"#utility.yul\":13662:13673   */\n      swap2\n      pop\n        /* \"#utility.yul\":11090:13679   */\n      pop\n        /* \"#utility.yul\":10966:13679   */\n      swap3\n      swap2\n      pop\n      pop\n      jump\t// out\n        /* \"#utility.yul\":13685:14058   */\n    tag_31:\n        /* \"#utility.yul\":13828:13832   */\n      0x00\n        /* \"#utility.yul\":13866:13868   */\n      0x20\n        /* \"#utility.yul\":13855:13864   */\n      dup3\n        /* \"#utility.yul\":13851:13869   */\n      add\n        /* \"#utility.yul\":13843:13869   */\n      swap1\n      pop\n        /* \"#utility.yul\":13915:13924   */\n      dup2\n        /* \"#utility.yul\":13909:13913   */\n      dup2\n        /* \"#utility.yul\":13905:13925   */\n      sub\n        /* \"#utility.yul\":13901:13902   */\n      0x00\n        /* \"#utility.yul\":13890:13899   */\n      dup4\n        /* \"#utility.yul\":13886:13903   */\n      add\n        /* \"#utility.yul\":13879:13926   */\n      mstore\n        /* \"#utility.yul\":13943:14051   */\n      tag_336\n        /* \"#utility.yul\":14046:14050   */\n      dup2\n        /* \"#utility.yul\":14037:14043   */\n      dup5\n        /* \"#utility.yul\":13943:14051   */\n      tag_178\n      jump\t// in\n    tag_336:\n        /* \"#utility.yul\":13935:14051   */\n      swap1\n      pop\n        /* \"#utility.yul\":13685:14058   */\n      swap3\n      swap2\n      pop\n      pop\n      jump\t// out\n        /* \"#utility.yul\":14064:14186   */\n    tag_179:\n        /* \"#utility.yul\":14137:14161   */\n      tag_338\n        /* \"#utility.yul\":14155:14160   */\n      dup2\n        /* \"#utility.yul\":14137:14161   */\n      tag_170\n      jump\t// in\n    tag_338:\n        /* \"#utility.yul\":14130:14135   */\n      dup2\n        /* \"#utility.yul\":14127:14162   */\n      eq\n        /* \"#utility.yul\":14117:14180   */\n      tag_339\n      jumpi\n        /* \"#utility.yul\":14176:14177   */\n      0x00\n        /* \"#utility.yul\":14173:14174   */\n      dup1\n        /* \"#utility.yul\":14166:14178   */\n      revert\n        /* \"#utility.yul\":14117:14180   */\n    tag_339:\n        /* \"#utility.yul\":14064:14186   */\n      pop\n      jump\t// out\n        /* \"#utility.yul\":14192:14331   */\n    tag_180:\n        /* \"#utility.yul\":14238:14243   */\n      0x00\n        /* \"#utility.yul\":14276:14282   */\n      dup2\n        /* \"#utility.yul\":14263:14283   */\n      calldataload\n        /* \"#utility.yul\":14254:14283   */\n      swap1\n      pop\n        /* \"#utility.yul\":14292:14325   */\n      tag_341\n        /* \"#utility.yul\":14319:14324   */\n      dup2\n        /* \"#utility.yul\":14292:14325   */\n      tag_179\n      jump\t// in\n    tag_341:\n        /* \"#utility.yul\":14192:14331   */\n      swap3\n      swap2\n      pop\n      pop\n      jump\t// out\n        /* \"#utility.yul\":14337:14666   */\n    tag_34:\n        /* \"#utility.yul\":14396:14402   */\n      0x00\n        /* \"#utility.yul\":14445:14447   */\n      0x20\n        /* \"#utility.yul\":14433:14442   */\n      dup3\n        /* \"#utility.yul\":14424:14431   */\n      dup5\n        /* \"#utility.yul\":14420:14443   */\n      sub\n        /* \"#utility.yul\":14416:14448   */\n      slt\n        /* \"#utility.yul\":14413:14532   */\n      iszero\n      tag_343\n      jumpi\n        /* \"#utility.yul\":14451:14530   */\n      tag_344\n      tag_152\n      jump\t// in\n    tag_344:\n        /* \"#utility.yul\":14413:14532   */\n    tag_343:\n        /* \"#utility.yul\":14571:14572   */\n      0x00\n        /* \"#utility.yul\":14596:14649   */\n      tag_345\n        /* \"#utility.yul\":14641:14648   */\n      dup5\n        /* \"#utility.yul\":14632:14638   */\n      dup3\n        /* \"#utility.yul\":14621:14630   */\n      dup6\n        /* \"#utility.yul\":14617:14639   */\n      add\n        /* \"#utility.yul\":14596:14649   */\n      tag_180\n      jump\t// in\n    tag_345:\n        /* \"#utility.yul\":14586:14649   */\n      swap2\n      pop\n        /* \"#utility.yul\":14542:14659   */\n      pop\n        /* \"#utility.yul\":14337:14666   */\n      swap3\n      swap2\n      pop\n      pop\n      jump\t// out\n        /* \"#utility.yul\":14672:14841   */\n    tag_181:\n        /* \"#utility.yul\":14756:14767   */\n      0x00\n        /* \"#utility.yul\":14790:14796   */\n      dup3\n        /* \"#utility.yul\":14785:14788   */\n      dup3\n        /* \"#utility.yul\":14778:14797   */\n      mstore\n        /* \"#utility.yul\":14830:14834   */\n      0x20\n        /* \"#utility.yul\":14825:14828   */\n      dup3\n        /* \"#utility.yul\":14821:14835   */\n      add\n        /* \"#utility.yul\":14806:14835   */\n      swap1\n      pop\n        /* \"#utility.yul\":14672:14841   */\n      swap3\n      swap2\n      pop\n      pop\n      jump\t// out\n        /* \"#utility.yul\":14847:15077   */\n    tag_182:\n        /* \"#utility.yul\":14987:15021   */\n      0x4c697374427573696e657373437572736f723a20416c72656164792065786973\n        /* \"#utility.yul\":14983:14984   */\n      0x00\n        /* \"#utility.yul\":14975:14981   */\n      dup3\n        /* \"#utility.yul\":14971:14985   */\n      add\n        /* \"#utility.yul\":14964:15022   */\n      mstore\n        /* \"#utility.yul\":15056:15069   */\n      0x746564206163636f756e74000000000000000000000000000000000000000000\n        /* \"#utility.yul\":15051:15053   */\n      0x20\n        /* \"#utility.yul\":15043:15049   */\n      dup3\n        /* \"#utility.yul\":15039:15054   */\n      add\n        /* \"#utility.yul\":15032:15070   */\n      mstore\n        /* \"#utility.yul\":14847:15077   */\n      pop\n      jump\t// out\n        /* \"#utility.yul\":15083:15449   */\n    tag_183:\n        /* \"#utility.yul\":15225:15228   */\n      0x00\n        /* \"#utility.yul\":15246:15313   */\n      tag_349\n        /* \"#utility.yul\":15310:15312   */\n      0x2b\n        /* \"#utility.yul\":15305:15308   */\n      dup4\n        /* \"#utility.yul\":15246:15313   */\n      tag_181\n      jump\t// in\n    tag_349:\n        /* \"#utility.yul\":15239:15313   */\n      swap2\n      pop\n        /* \"#utility.yul\":15322:15415   */\n      tag_350\n        /* \"#utility.yul\":15411:15414   */\n      dup3\n        /* \"#utility.yul\":15322:15415   */\n      tag_182\n      jump\t// in\n    tag_350:\n        /* \"#utility.yul\":15440:15442   */\n      0x40\n        /* \"#utility.yul\":15435:15438   */\n      dup3\n        /* \"#utility.yul\":15431:15443   */\n      add\n        /* \"#utility.yul\":15424:15443   */\n      swap1\n      pop\n        /* \"#utility.yul\":15083:15449   */\n      swap2\n      swap1\n      pop\n      jump\t// out\n        /* \"#utility.yul\":15455:15874   */\n    tag_41:\n        /* \"#utility.yul\":15621:15625   */\n      0x00\n        /* \"#utility.yul\":15659:15661   */\n      0x20\n        /* \"#utility.yul\":15648:15657   */\n      dup3\n        /* \"#utility.yul\":15644:15662   */\n      add\n        /* \"#utility.yul\":15636:15662   */\n      swap1\n      pop\n        /* \"#utility.yul\":15708:15717   */\n      dup2\n        /* \"#utility.yul\":15702:15706   */\n      dup2\n        /* \"#utility.yul\":15698:15718   */\n      sub\n        /* \"#utility.yul\":15694:15695   */\n      0x00\n        /* \"#utility.yul\":15683:15692   */\n      dup4\n        /* \"#utility.yul\":15679:15696   */\n      add\n        /* \"#utility.yul\":15672:15719   */\n      mstore\n        /* \"#utility.yul\":15736:15867   */\n      tag_352\n        /* \"#utility.yul\":15862:15866   */\n      dup2\n        /* \"#utility.yul\":15736:15867   */\n      tag_183\n      jump\t// in\n    tag_352:\n        /* \"#utility.yul\":15728:15867   */\n      swap1\n      pop\n        /* \"#utility.yul\":15455:15874   */\n      swap2\n      swap1\n      pop\n      jump\t// out\n        /* \"#utility.yul\":15880:15957   */\n    tag_184:\n        /* \"#utility.yul\":15917:15924   */\n      0x00\n        /* \"#utility.yul\":15946:15951   */\n      dup2\n        /* \"#utility.yul\":15935:15951   */\n      swap1\n      pop\n        /* \"#utility.yul\":15880:15957   */\n      swap2\n      swap1\n      pop\n      jump\t// out\n        /* \"#utility.yul\":15963:16081   */\n    tag_185:\n        /* \"#utility.yul\":16050:16074   */\n      tag_355\n        /* \"#utility.yul\":16068:16073   */\n      dup2\n        /* \"#utility.yul\":16050:16074   */\n      tag_184\n      jump\t// in\n    tag_355:\n        /* \"#utility.yul\":16045:16048   */\n      dup3\n        /* \"#utility.yul\":16038:16075   */\n      mstore\n        /* \"#utility.yul\":15963:16081   */\n      pop\n      pop\n      jump\t// out\n        /* \"#utility.yul\":16087:16570   */\n    tag_46:\n        /* \"#utility.yul\":16258:16262   */\n      0x00\n        /* \"#utility.yul\":16296:16298   */\n      0x40\n        /* \"#utility.yul\":16285:16294   */\n      dup3\n        /* \"#utility.yul\":16281:16299   */\n      add\n        /* \"#utility.yul\":16273:16299   */\n      swap1\n      pop\n        /* \"#utility.yul\":16345:16354   */\n      dup2\n        /* \"#utility.yul\":16339:16343   */\n      dup2\n        /* \"#utility.yul\":16335:16355   */\n      sub\n        /* \"#utility.yul\":16331:16332   */\n      0x00\n        /* \"#utility.yul\":16320:16329   */\n      dup4\n        /* \"#utility.yul\":16316:16333   */\n      add\n        /* \"#utility.yul\":16309:16356   */\n      mstore\n        /* \"#utility.yul\":16373:16481   */\n      tag_357\n        /* \"#utility.yul\":16476:16480   */\n      dup2\n        /* \"#utility.yul\":16467:16473   */\n      dup6\n        /* \"#utility.yul\":16373:16481   */\n      tag_178\n      jump\t// in\n    tag_357:\n        /* \"#utility.yul\":16365:16481   */\n      swap1\n      pop\n        /* \"#utility.yul\":16491:16563   */\n      tag_358\n        /* \"#utility.yul\":16559:16561   */\n      0x20\n        /* \"#utility.yul\":16548:16557   */\n      dup4\n        /* \"#utility.yul\":16544:16562   */\n      add\n        /* \"#utility.yul\":16535:16541   */\n      dup5\n        /* \"#utility.yul\":16491:16563   */\n      tag_185\n      jump\t// in\n    tag_358:\n        /* \"#utility.yul\":16087:16570   */\n      swap4\n      swap3\n      pop\n      pop\n      pop\n      jump\t// out\n        /* \"#utility.yul\":16576:16692   */\n    tag_186:\n        /* \"#utility.yul\":16646:16667   */\n      tag_360\n        /* \"#utility.yul\":16661:16666   */\n      dup2\n        /* \"#utility.yul\":16646:16667   */\n      tag_167\n      jump\t// in\n    tag_360:\n        /* \"#utility.yul\":16639:16644   */\n      dup2\n        /* \"#utility.yul\":16636:16668   */\n      eq\n        /* \"#utility.yul\":16626:16686   */\n      tag_361\n      jumpi\n        /* \"#utility.yul\":16682:16683   */\n      0x00\n        /* \"#utility.yul\":16679:16680   */\n      dup1\n        /* \"#utility.yul\":16672:16684   */\n      revert\n        /* \"#utility.yul\":16626:16686   */\n    tag_361:\n        /* \"#utility.yul\":16576:16692   */\n      pop\n      jump\t// out\n        /* \"#utility.yul\":16698:16835   */\n    tag_187:\n        /* \"#utility.yul\":16752:16757   */\n      0x00\n        /* \"#utility.yul\":16783:16789   */\n      dup2\n        /* \"#utility.yul\":16777:16790   */\n      mload\n        /* \"#utility.yul\":16768:16790   */\n      swap1\n      pop\n        /* \"#utility.yul\":16799:16829   */\n      tag_363\n        /* \"#utility.yul\":16823:16828   */\n      dup2\n        /* \"#utility.yul\":16799:16829   */\n      tag_186\n      jump\t// in\n    tag_363:\n        /* \"#utility.yul\":16698:16835   */\n      swap3\n      swap2\n      pop\n      pop\n      jump\t// out\n        /* \"#utility.yul\":16841:17186   */\n    tag_50:\n        /* \"#utility.yul\":16908:16914   */\n      0x00\n        /* \"#utility.yul\":16957:16959   */\n      0x20\n        /* \"#utility.yul\":16945:16954   */\n      dup3\n        /* \"#utility.yul\":16936:16943   */\n      dup5\n        /* \"#utility.yul\":16932:16955   */\n      sub\n        /* \"#utility.yul\":16928:16960   */\n      slt\n        /* \"#utility.yul\":16925:17044   */\n      iszero\n      tag_365\n      jumpi\n        /* \"#utility.yul\":16963:17042   */\n      tag_366\n      tag_152\n      jump\t// in\n    tag_366:\n        /* \"#utility.yul\":16925:17044   */\n    tag_365:\n        /* \"#utility.yul\":17083:17084   */\n      0x00\n        /* \"#utility.yul\":17108:17169   */\n      tag_367\n        /* \"#utility.yul\":17161:17168   */\n      dup5\n        /* \"#utility.yul\":17152:17158   */\n      dup3\n        /* \"#utility.yul\":17141:17150   */\n      dup6\n        /* \"#utility.yul\":17137:17159   */\n      add\n        /* \"#utility.yul\":17108:17169   */\n      tag_187\n      jump\t// in\n    tag_367:\n        /* \"#utility.yul\":17098:17169   */\n      swap2\n      pop\n        /* \"#utility.yul\":17054:17179   */\n      pop\n        /* \"#utility.yul\":16841:17186   */\n      swap3\n      swap2\n      pop\n      pop\n      jump\t// out\n        /* \"#utility.yul\":17192:17426   */\n    tag_188:\n        /* \"#utility.yul\":17332:17366   */\n      0x4c697374427573696e657373437572736f723a206964206973206e6f74206265\n        /* \"#utility.yul\":17328:17329   */\n      0x00\n        /* \"#utility.yul\":17320:17326   */\n      dup3\n        /* \"#utility.yul\":17316:17330   */\n      add\n        /* \"#utility.yul\":17309:17367   */\n      mstore\n        /* \"#utility.yul\":17401:17418   */\n      0x6c6f6e6720746f20616464726573730000000000000000000000000000000000\n        /* \"#utility.yul\":17396:17398   */\n      0x20\n        /* \"#utility.yul\":17388:17394   */\n      dup3\n        /* \"#utility.yul\":17384:17399   */\n      add\n        /* \"#utility.yul\":17377:17419   */\n      mstore\n        /* \"#utility.yul\":17192:17426   */\n      pop\n      jump\t// out\n        /* \"#utility.yul\":17432:17798   */\n    tag_189:\n        /* \"#utility.yul\":17574:17577   */\n      0x00\n        /* \"#utility.yul\":17595:17662   */\n      tag_370\n        /* \"#utility.yul\":17659:17661   */\n      0x2f\n        /* \"#utility.yul\":17654:17657   */\n      dup4\n        /* \"#utility.yul\":17595:17662   */\n      tag_181\n      jump\t// in\n    tag_370:\n        /* \"#utility.yul\":17588:17662   */\n      swap2\n      pop\n        /* \"#utility.yul\":17671:17764   */\n      tag_371\n        /* \"#utility.yul\":17760:17763   */\n      dup3\n        /* \"#utility.yul\":17671:17764   */\n      tag_188\n      jump\t// in\n    tag_371:\n        /* \"#utility.yul\":17789:17791   */\n      0x40\n        /* \"#utility.yul\":17784:17787   */\n      dup3\n        /* \"#utility.yul\":17780:17792   */\n      add\n        /* \"#utility.yul\":17773:17792   */\n      swap1\n      pop\n        /* \"#utility.yul\":17432:17798   */\n      swap2\n      swap1\n      pop\n      jump\t// out\n        /* \"#utility.yul\":17804:18223   */\n    tag_64:\n        /* \"#utility.yul\":17970:17974   */\n      0x00\n        /* \"#utility.yul\":18008:18010   */\n      0x20\n        /* \"#utility.yul\":17997:18006   */\n      dup3\n        /* \"#utility.yul\":17993:18011   */\n      add\n        /* \"#utility.yul\":17985:18011   */\n      swap1\n      pop\n        /* \"#utility.yul\":18057:18066   */\n      dup2\n        /* \"#utility.yul\":18051:18055   */\n      dup2\n        /* \"#utility.yul\":18047:18067   */\n      sub\n        /* \"#utility.yul\":18043:18044   */\n      0x00\n        /* \"#utility.yul\":18032:18041   */\n      dup4\n        /* \"#utility.yul\":18028:18045   */\n      add\n        /* \"#utility.yul\":18021:18068   */\n      mstore\n        /* \"#utility.yul\":18085:18216   */\n      tag_373\n        /* \"#utility.yul\":18211:18215   */\n      dup2\n        /* \"#utility.yul\":18085:18216   */\n      tag_189\n      jump\t// in\n    tag_373:\n        /* \"#utility.yul\":18077:18216   */\n      swap1\n      pop\n        /* \"#utility.yul\":17804:18223   */\n      swap2\n      swap1\n      pop\n      jump\t// out\n        /* \"#utility.yul\":18229:18347   */\n    tag_190:\n        /* \"#utility.yul\":18316:18340   */\n      tag_375\n        /* \"#utility.yul\":18334:18339   */\n      dup2\n        /* \"#utility.yul\":18316:18340   */\n      tag_154\n      jump\t// in\n    tag_375:\n        /* \"#utility.yul\":18311:18314   */\n      dup3\n        /* \"#utility.yul\":18304:18341   */\n      mstore\n        /* \"#utility.yul\":18229:18347   */\n      pop\n      pop\n      jump\t// out\n        /* \"#utility.yul\":18353:18730   */\n    tag_191:\n        /* \"#utility.yul\":18441:18444   */\n      0x00\n        /* \"#utility.yul\":18469:18508   */\n      tag_377\n        /* \"#utility.yul\":18502:18507   */\n      dup3\n        /* \"#utility.yul\":18469:18508   */\n      tag_174\n      jump\t// in\n    tag_377:\n        /* \"#utility.yul\":18524:18595   */\n      tag_378\n        /* \"#utility.yul\":18588:18594   */\n      dup2\n        /* \"#utility.yul\":18583:18586   */\n      dup6\n        /* \"#utility.yul\":18524:18595   */\n      tag_181\n      jump\t// in\n    tag_378:\n        /* \"#utility.yul\":18517:18595   */\n      swap4\n      pop\n        /* \"#utility.yul\":18604:18669   */\n      tag_379\n        /* \"#utility.yul\":18662:18668   */\n      dup2\n        /* \"#utility.yul\":18657:18660   */\n      dup6\n        /* \"#utility.yul\":18650:18654   */\n      0x20\n        /* \"#utility.yul\":18643:18648   */\n      dup7\n        /* \"#utility.yul\":18639:18655   */\n      add\n        /* \"#utility.yul\":18604:18669   */\n      tag_176\n      jump\t// in\n    tag_379:\n        /* \"#utility.yul\":18694:18723   */\n      tag_380\n        /* \"#utility.yul\":18716:18722   */\n      dup2\n        /* \"#utility.yul\":18694:18723   */\n      tag_159\n      jump\t// in\n    tag_380:\n        /* \"#utility.yul\":18689:18692   */\n      dup5\n        /* \"#utility.yul\":18685:18724   */\n      add\n        /* \"#utility.yul\":18678:18724   */\n      swap2\n      pop\n        /* \"#utility.yul\":18445:18730   */\n      pop\n        /* \"#utility.yul\":18353:18730   */\n      swap3\n      swap2\n      pop\n      pop\n      jump\t// out\n        /* \"#utility.yul\":18736:19269   */\n    tag_68:\n        /* \"#utility.yul\":18905:18909   */\n      0x00\n        /* \"#utility.yul\":18943:18945   */\n      0x60\n        /* \"#utility.yul\":18932:18941   */\n      dup3\n        /* \"#utility.yul\":18928:18946   */\n      add\n        /* \"#utility.yul\":18920:18946   */\n      swap1\n      pop\n        /* \"#utility.yul\":18956:19027   */\n      tag_382\n        /* \"#utility.yul\":19024:19025   */\n      0x00\n        /* \"#utility.yul\":19013:19022   */\n      dup4\n        /* \"#utility.yul\":19009:19026   */\n      add\n        /* \"#utility.yul\":19000:19006   */\n      dup7\n        /* \"#utility.yul\":18956:19027   */\n      tag_190\n      jump\t// in\n    tag_382:\n        /* \"#utility.yul\":19037:19109   */\n      tag_383\n        /* \"#utility.yul\":19105:19107   */\n      0x20\n        /* \"#utility.yul\":19094:19103   */\n      dup4\n        /* \"#utility.yul\":19090:19108   */\n      add\n        /* \"#utility.yul\":19081:19087   */\n      dup6\n        /* \"#utility.yul\":19037:19109   */\n      tag_185\n      jump\t// in\n    tag_383:\n        /* \"#utility.yul\":19156:19165   */\n      dup2\n        /* \"#utility.yul\":19150:19154   */\n      dup2\n        /* \"#utility.yul\":19146:19166   */\n      sub\n        /* \"#utility.yul\":19141:19143   */\n      0x40\n        /* \"#utility.yul\":19130:19139   */\n      dup4\n        /* \"#utility.yul\":19126:19144   */\n      add\n        /* \"#utility.yul\":19119:19167   */\n      mstore\n        /* \"#utility.yul\":19184:19262   */\n      tag_384\n        /* \"#utility.yul\":19257:19261   */\n      dup2\n        /* \"#utility.yul\":19248:19254   */\n      dup5\n        /* \"#utility.yul\":19184:19262   */\n      tag_191\n      jump\t// in\n    tag_384:\n        /* \"#utility.yul\":19176:19262   */\n      swap1\n      pop\n        /* \"#utility.yul\":18736:19269   */\n      swap5\n      swap4\n      pop\n      pop\n      pop\n      pop\n      jump\t// out\n        /* \"#utility.yul\":19275:19607   */\n    tag_114:\n        /* \"#utility.yul\":19396:19400   */\n      0x00\n        /* \"#utility.yul\":19434:19436   */\n      0x40\n        /* \"#utility.yul\":19423:19432   */\n      dup3\n        /* \"#utility.yul\":19419:19437   */\n      add\n        /* \"#utility.yul\":19411:19437   */\n      swap1\n      pop\n        /* \"#utility.yul\":19447:19518   */\n      tag_386\n        /* \"#utility.yul\":19515:19516   */\n      0x00\n        /* \"#utility.yul\":19504:19513   */\n      dup4\n        /* \"#utility.yul\":19500:19517   */\n      add\n        /* \"#utility.yul\":19491:19497   */\n      dup6\n        /* \"#utility.yul\":19447:19518   */\n      tag_190\n      jump\t// in\n    tag_386:\n        /* \"#utility.yul\":19528:19600   */\n      tag_387\n        /* \"#utility.yul\":19596:19598   */\n      0x20\n        /* \"#utility.yul\":19585:19594   */\n      dup4\n        /* \"#utility.yul\":19581:19599   */\n      add\n        /* \"#utility.yul\":19572:19578   */\n      dup5\n        /* \"#utility.yul\":19528:19600   */\n      tag_185\n      jump\t// in\n    tag_387:\n        /* \"#utility.yul\":19275:19607   */\n      swap4\n      swap3\n      pop\n      pop\n      pop\n      jump\t// out\n        /* \"#utility.yul\":19613:19730   */\n    tag_192:\n        /* \"#utility.yul\":19722:19723   */\n      0x00\n        /* \"#utility.yul\":19719:19720   */\n      dup1\n        /* \"#utility.yul\":19712:19724   */\n      revert\n        /* \"#utility.yul\":19736:19853   */\n    tag_193:\n        /* \"#utility.yul\":19845:19846   */\n      0x00\n        /* \"#utility.yul\":19842:19843   */\n      dup1\n        /* \"#utility.yul\":19835:19847   */\n      revert\n        /* \"#utility.yul\":19859:20002   */\n    tag_194:\n        /* \"#utility.yul\":19916:19921   */\n      0x00\n        /* \"#utility.yul\":19947:19953   */\n      dup2\n        /* \"#utility.yul\":19941:19954   */\n      mload\n        /* \"#utility.yul\":19932:19954   */\n      swap1\n      pop\n        /* \"#utility.yul\":19963:19996   */\n      tag_391\n        /* \"#utility.yul\":19990:19995   */\n      dup2\n        /* \"#utility.yul\":19963:19996   */\n      tag_155\n      jump\t// in\n    tag_391:\n        /* \"#utility.yul\":19859:20002   */\n      swap3\n      swap2\n      pop\n      pop\n      jump\t// out\n        /* \"#utility.yul\":20008:20151   */\n    tag_195:\n        /* \"#utility.yul\":20065:20070   */\n      0x00\n        /* \"#utility.yul\":20096:20102   */\n      dup2\n        /* \"#utility.yul\":20090:20103   */\n      mload\n        /* \"#utility.yul\":20081:20103   */\n      swap1\n      pop\n        /* \"#utility.yul\":20112:20145   */\n      tag_393\n        /* \"#utility.yul\":20139:20144   */\n      dup2\n        /* \"#utility.yul\":20112:20145   */\n      tag_179\n      jump\t// in\n    tag_393:\n        /* \"#utility.yul\":20008:20151   */\n      swap3\n      swap2\n      pop\n      pop\n      jump\t// out\n        /* \"#utility.yul\":20157:20591   */\n    tag_196:\n        /* \"#utility.yul\":20246:20251   */\n      0x00\n        /* \"#utility.yul\":20271:20337   */\n      tag_395\n        /* \"#utility.yul\":20287:20336   */\n      tag_396\n        /* \"#utility.yul\":20329:20335   */\n      dup5\n        /* \"#utility.yul\":20287:20336   */\n      tag_163\n      jump\t// in\n    tag_396:\n        /* \"#utility.yul\":20271:20337   */\n      tag_162\n      jump\t// in\n    tag_395:\n        /* \"#utility.yul\":20262:20337   */\n      swap1\n      pop\n        /* \"#utility.yul\":20360:20366   */\n      dup3\n        /* \"#utility.yul\":20353:20358   */\n      dup2\n        /* \"#utility.yul\":20346:20367   */\n      mstore\n        /* \"#utility.yul\":20398:20402   */\n      0x20\n        /* \"#utility.yul\":20391:20396   */\n      dup2\n        /* \"#utility.yul\":20387:20403   */\n      add\n        /* \"#utility.yul\":20436:20439   */\n      dup5\n        /* \"#utility.yul\":20427:20433   */\n      dup5\n        /* \"#utility.yul\":20422:20425   */\n      dup5\n        /* \"#utility.yul\":20418:20434   */\n      add\n        /* \"#utility.yul\":20415:20440   */\n      gt\n        /* \"#utility.yul\":20412:20524   */\n      iszero\n      tag_397\n      jumpi\n        /* \"#utility.yul\":20443:20522   */\n      tag_398\n      tag_158\n      jump\t// in\n    tag_398:\n        /* \"#utility.yul\":20412:20524   */\n    tag_397:\n        /* \"#utility.yul\":20533:20585   */\n      tag_399\n        /* \"#utility.yul\":20578:20584   */\n      dup5\n        /* \"#utility.yul\":20573:20576   */\n      dup3\n        /* \"#utility.yul\":20568:20571   */\n      dup6\n        /* \"#utility.yul\":20533:20585   */\n      tag_176\n      jump\t// in\n    tag_399:\n        /* \"#utility.yul\":20252:20591   */\n      pop\n        /* \"#utility.yul\":20157:20591   */\n      swap4\n      swap3\n      pop\n      pop\n      pop\n      jump\t// out\n        /* \"#utility.yul\":20611:20966   */\n    tag_197:\n        /* \"#utility.yul\":20678:20683   */\n      0x00\n        /* \"#utility.yul\":20727:20730   */\n      dup3\n        /* \"#utility.yul\":20720:20724   */\n      0x1f\n        /* \"#utility.yul\":20712:20718   */\n      dup4\n        /* \"#utility.yul\":20708:20725   */\n      add\n        /* \"#utility.yul\":20704:20731   */\n      slt\n        /* \"#utility.yul\":20694:20816   */\n      tag_401\n      jumpi\n        /* \"#utility.yul\":20735:20814   */\n      tag_402\n      tag_157\n      jump\t// in\n    tag_402:\n        /* \"#utility.yul\":20694:20816   */\n    tag_401:\n        /* \"#utility.yul\":20845:20851   */\n      dup2\n        /* \"#utility.yul\":20839:20852   */\n      mload\n        /* \"#utility.yul\":20870:20960   */\n      tag_403\n        /* \"#utility.yul\":20956:20959   */\n      dup5\n        /* \"#utility.yul\":20948:20954   */\n      dup3\n        /* \"#utility.yul\":20941:20945   */\n      0x20\n        /* \"#utility.yul\":20933:20939   */\n      dup7\n        /* \"#utility.yul\":20929:20946   */\n      add\n        /* \"#utility.yul\":20870:20960   */\n      tag_196\n      jump\t// in\n    tag_403:\n        /* \"#utility.yul\":20861:20960   */\n      swap2\n      pop\n        /* \"#utility.yul\":20684:20966   */\n      pop\n        /* \"#utility.yul\":20611:20966   */\n      swap3\n      swap2\n      pop\n      pop\n      jump\t// out\n        /* \"#utility.yul\":20994:24500   */\n    tag_198:\n        /* \"#utility.yul\":21079:21084   */\n      0x00\n        /* \"#utility.yul\":21123:21129   */\n      0x0160\n        /* \"#utility.yul\":21111:21120   */\n      dup3\n        /* \"#utility.yul\":21106:21109   */\n      dup5\n        /* \"#utility.yul\":21102:21121   */\n      sub\n        /* \"#utility.yul\":21098:21130   */\n      slt\n        /* \"#utility.yul\":21095:21214   */\n      iszero\n      tag_405\n      jumpi\n        /* \"#utility.yul\":21133:21212   */\n      tag_406\n      tag_192\n      jump\t// in\n    tag_406:\n        /* \"#utility.yul\":21095:21214   */\n    tag_405:\n        /* \"#utility.yul\":21232:21255   */\n      tag_407\n        /* \"#utility.yul\":21248:21254   */\n      0x0160\n        /* \"#utility.yul\":21232:21255   */\n      tag_162\n      jump\t// in\n    tag_407:\n        /* \"#utility.yul\":21223:21255   */\n      swap1\n      pop\n        /* \"#utility.yul\":21319:21320   */\n      0x00\n        /* \"#utility.yul\":21359:21419   */\n      tag_408\n        /* \"#utility.yul\":21415:21418   */\n      dup5\n        /* \"#utility.yul\":21406:21412   */\n      dup3\n        /* \"#utility.yul\":21395:21404   */\n      dup6\n        /* \"#utility.yul\":21391:21413   */\n      add\n        /* \"#utility.yul\":21359:21419   */\n      tag_194\n      jump\t// in\n    tag_408:\n        /* \"#utility.yul\":21352:21356   */\n      0x00\n        /* \"#utility.yul\":21345:21350   */\n      dup4\n        /* \"#utility.yul\":21341:21357   */\n      add\n        /* \"#utility.yul\":21334:21420   */\n      mstore\n        /* \"#utility.yul\":21265:21431   */\n      pop\n        /* \"#utility.yul\":21488:21490   */\n      0x20\n        /* \"#utility.yul\":21529:21589   */\n      tag_409\n        /* \"#utility.yul\":21585:21588   */\n      dup5\n        /* \"#utility.yul\":21576:21582   */\n      dup3\n        /* \"#utility.yul\":21565:21574   */\n      dup6\n        /* \"#utility.yul\":21561:21583   */\n      add\n        /* \"#utility.yul\":21529:21589   */\n      tag_194\n      jump\t// in\n    tag_409:\n        /* \"#utility.yul\":21522:21526   */\n      0x20\n        /* \"#utility.yul\":21515:21520   */\n      dup4\n        /* \"#utility.yul\":21511:21527   */\n      add\n        /* \"#utility.yul\":21504:21590   */\n      mstore\n        /* \"#utility.yul\":21441:21601   */\n      pop\n        /* \"#utility.yul\":21660:21662   */\n      0x40\n        /* \"#utility.yul\":21701:21761   */\n      tag_410\n        /* \"#utility.yul\":21757:21760   */\n      dup5\n        /* \"#utility.yul\":21748:21754   */\n      dup3\n        /* \"#utility.yul\":21737:21746   */\n      dup6\n        /* \"#utility.yul\":21733:21755   */\n      add\n        /* \"#utility.yul\":21701:21761   */\n      tag_195\n      jump\t// in\n    tag_410:\n        /* \"#utility.yul\":21694:21698   */\n      0x40\n        /* \"#utility.yul\":21687:21692   */\n      dup4\n        /* \"#utility.yul\":21683:21699   */\n      add\n        /* \"#utility.yul\":21676:21762   */\n      mstore\n        /* \"#utility.yul\":21611:21773   */\n      pop\n        /* \"#utility.yul\":21853:21855   */\n      0x60\n        /* \"#utility.yul\":21842:21851   */\n      dup3\n        /* \"#utility.yul\":21838:21856   */\n      add\n        /* \"#utility.yul\":21832:21857   */\n      mload\n        /* \"#utility.yul\":21884:21902   */\n      0xffffffffffffffff\n        /* \"#utility.yul\":21876:21882   */\n      dup2\n        /* \"#utility.yul\":21873:21903   */\n      gt\n        /* \"#utility.yul\":21870:21987   */\n      iszero\n      tag_411\n      jumpi\n        /* \"#utility.yul\":21906:21985   */\n      tag_412\n      tag_193\n      jump\t// in\n    tag_412:\n        /* \"#utility.yul\":21870:21987   */\n    tag_411:\n        /* \"#utility.yul\":22026:22096   */\n      tag_413\n        /* \"#utility.yul\":22092:22095   */\n      dup5\n        /* \"#utility.yul\":22083:22089   */\n      dup3\n        /* \"#utility.yul\":22072:22081   */\n      dup6\n        /* \"#utility.yul\":22068:22090   */\n      add\n        /* \"#utility.yul\":22026:22096   */\n      tag_197\n      jump\t// in\n    tag_413:\n        /* \"#utility.yul\":22019:22023   */\n      0x60\n        /* \"#utility.yul\":22012:22017   */\n      dup4\n        /* \"#utility.yul\":22008:22024   */\n      add\n        /* \"#utility.yul\":22001:22097   */\n      mstore\n        /* \"#utility.yul\":21783:22108   */\n      pop\n        /* \"#utility.yul\":22189:22192   */\n      0x80\n        /* \"#utility.yul\":22178:22187   */\n      dup3\n        /* \"#utility.yul\":22174:22193   */\n      add\n        /* \"#utility.yul\":22168:22194   */\n      mload\n        /* \"#utility.yul\":22221:22239   */\n      0xffffffffffffffff\n        /* \"#utility.yul\":22213:22219   */\n      dup2\n        /* \"#utility.yul\":22210:22240   */\n      gt\n        /* \"#utility.yul\":22207:22324   */\n      iszero\n      tag_414\n      jumpi\n        /* \"#utility.yul\":22243:22322   */\n      tag_415\n      tag_193\n      jump\t// in\n    tag_415:\n        /* \"#utility.yul\":22207:22324   */\n    tag_414:\n        /* \"#utility.yul\":22363:22433   */\n      tag_416\n        /* \"#utility.yul\":22429:22432   */\n      dup5\n        /* \"#utility.yul\":22420:22426   */\n      dup3\n        /* \"#utility.yul\":22409:22418   */\n      dup6\n        /* \"#utility.yul\":22405:22427   */\n      add\n        /* \"#utility.yul\":22363:22433   */\n      tag_197\n      jump\t// in\n    tag_416:\n        /* \"#utility.yul\":22356:22360   */\n      0x80\n        /* \"#utility.yul\":22349:22354   */\n      dup4\n        /* \"#utility.yul\":22345:22361   */\n      add\n        /* \"#utility.yul\":22338:22434   */\n      mstore\n        /* \"#utility.yul\":22118:22445   */\n      pop\n        /* \"#utility.yul\":22533:22536   */\n      0xa0\n        /* \"#utility.yul\":22522:22531   */\n      dup3\n        /* \"#utility.yul\":22518:22537   */\n      add\n        /* \"#utility.yul\":22512:22538   */\n      mload\n        /* \"#utility.yul\":22565:22583   */\n      0xffffffffffffffff\n        /* \"#utility.yul\":22557:22563   */\n      dup2\n        /* \"#utility.yul\":22554:22584   */\n      gt\n        /* \"#utility.yul\":22551:22668   */\n      iszero\n      tag_417\n      jumpi\n        /* \"#utility.yul\":22587:22666   */\n      tag_418\n      tag_193\n      jump\t// in\n    tag_418:\n        /* \"#utility.yul\":22551:22668   */\n    tag_417:\n        /* \"#utility.yul\":22707:22777   */\n      tag_419\n        /* \"#utility.yul\":22773:22776   */\n      dup5\n        /* \"#utility.yul\":22764:22770   */\n      dup3\n        /* \"#utility.yul\":22753:22762   */\n      dup6\n        /* \"#utility.yul\":22749:22771   */\n      add\n        /* \"#utility.yul\":22707:22777   */\n      tag_197\n      jump\t// in\n    tag_419:\n        /* \"#utility.yul\":22700:22704   */\n      0xa0\n        /* \"#utility.yul\":22693:22698   */\n      dup4\n        /* \"#utility.yul\":22689:22705   */\n      add\n        /* \"#utility.yul\":22682:22778   */\n      mstore\n        /* \"#utility.yul\":22455:22789   */\n      pop\n        /* \"#utility.yul\":22870:22873   */\n      0xc0\n        /* \"#utility.yul\":22859:22868   */\n      dup3\n        /* \"#utility.yul\":22855:22874   */\n      add\n        /* \"#utility.yul\":22849:22875   */\n      mload\n        /* \"#utility.yul\":22902:22920   */\n      0xffffffffffffffff\n        /* \"#utility.yul\":22894:22900   */\n      dup2\n        /* \"#utility.yul\":22891:22921   */\n      gt\n        /* \"#utility.yul\":22888:23005   */\n      iszero\n      tag_420\n      jumpi\n        /* \"#utility.yul\":22924:23003   */\n      tag_421\n      tag_193\n      jump\t// in\n    tag_421:\n        /* \"#utility.yul\":22888:23005   */\n    tag_420:\n        /* \"#utility.yul\":23044:23114   */\n      tag_422\n        /* \"#utility.yul\":23110:23113   */\n      dup5\n        /* \"#utility.yul\":23101:23107   */\n      dup3\n        /* \"#utility.yul\":23090:23099   */\n      dup6\n        /* \"#utility.yul\":23086:23108   */\n      add\n        /* \"#utility.yul\":23044:23114   */\n      tag_197\n      jump\t// in\n    tag_422:\n        /* \"#utility.yul\":23037:23041   */\n      0xc0\n        /* \"#utility.yul\":23030:23035   */\n      dup4\n        /* \"#utility.yul\":23026:23042   */\n      add\n        /* \"#utility.yul\":23019:23115   */\n      mstore\n        /* \"#utility.yul\":22799:23126   */\n      pop\n        /* \"#utility.yul\":23208:23211   */\n      0xe0\n        /* \"#utility.yul\":23197:23206   */\n      dup3\n        /* \"#utility.yul\":23193:23212   */\n      add\n        /* \"#utility.yul\":23187:23213   */\n      mload\n        /* \"#utility.yul\":23240:23258   */\n      0xffffffffffffffff\n        /* \"#utility.yul\":23232:23238   */\n      dup2\n        /* \"#utility.yul\":23229:23259   */\n      gt\n        /* \"#utility.yul\":23226:23343   */\n      iszero\n      tag_423\n      jumpi\n        /* \"#utility.yul\":23262:23341   */\n      tag_424\n      tag_193\n      jump\t// in\n    tag_424:\n        /* \"#utility.yul\":23226:23343   */\n    tag_423:\n        /* \"#utility.yul\":23382:23452   */\n      tag_425\n        /* \"#utility.yul\":23448:23451   */\n      dup5\n        /* \"#utility.yul\":23439:23445   */\n      dup3\n        /* \"#utility.yul\":23428:23437   */\n      dup6\n        /* \"#utility.yul\":23424:23446   */\n      add\n        /* \"#utility.yul\":23382:23452   */\n      tag_197\n      jump\t// in\n    tag_425:\n        /* \"#utility.yul\":23375:23379   */\n      0xe0\n        /* \"#utility.yul\":23368:23373   */\n      dup4\n        /* \"#utility.yul\":23364:23380   */\n      add\n        /* \"#utility.yul\":23357:23453   */\n      mstore\n        /* \"#utility.yul\":23136:23464   */\n      pop\n        /* \"#utility.yul\":23548:23551   */\n      0x0100\n        /* \"#utility.yul\":23537:23546   */\n      dup3\n        /* \"#utility.yul\":23533:23552   */\n      add\n        /* \"#utility.yul\":23527:23553   */\n      mload\n        /* \"#utility.yul\":23580:23598   */\n      0xffffffffffffffff\n        /* \"#utility.yul\":23572:23578   */\n      dup2\n        /* \"#utility.yul\":23569:23599   */\n      gt\n        /* \"#utility.yul\":23566:23683   */\n      iszero\n      tag_426\n      jumpi\n        /* \"#utility.yul\":23602:23681   */\n      tag_427\n      tag_193\n      jump\t// in\n    tag_427:\n        /* \"#utility.yul\":23566:23683   */\n    tag_426:\n        /* \"#utility.yul\":23724:23794   */\n      tag_428\n        /* \"#utility.yul\":23790:23793   */\n      dup5\n        /* \"#utility.yul\":23781:23787   */\n      dup3\n        /* \"#utility.yul\":23770:23779   */\n      dup6\n        /* \"#utility.yul\":23766:23788   */\n      add\n        /* \"#utility.yul\":23724:23794   */\n      tag_197\n      jump\t// in\n    tag_428:\n        /* \"#utility.yul\":23715:23721   */\n      0x0100\n        /* \"#utility.yul\":23708:23713   */\n      dup4\n        /* \"#utility.yul\":23704:23722   */\n      add\n        /* \"#utility.yul\":23697:23795   */\n      mstore\n        /* \"#utility.yul\":23474:23806   */\n      pop\n        /* \"#utility.yul\":23893:23896   */\n      0x0120\n        /* \"#utility.yul\":23882:23891   */\n      dup3\n        /* \"#utility.yul\":23878:23897   */\n      add\n        /* \"#utility.yul\":23872:23898   */\n      mload\n        /* \"#utility.yul\":23925:23943   */\n      0xffffffffffffffff\n        /* \"#utility.yul\":23917:23923   */\n      dup2\n        /* \"#utility.yul\":23914:23944   */\n      gt\n        /* \"#utility.yul\":23911:24028   */\n      iszero\n      tag_429\n      jumpi\n        /* \"#utility.yul\":23947:24026   */\n      tag_430\n      tag_193\n      jump\t// in\n    tag_430:\n        /* \"#utility.yul\":23911:24028   */\n    tag_429:\n        /* \"#utility.yul\":24069:24139   */\n      tag_431\n        /* \"#utility.yul\":24135:24138   */\n      dup5\n        /* \"#utility.yul\":24126:24132   */\n      dup3\n        /* \"#utility.yul\":24115:24124   */\n      dup6\n        /* \"#utility.yul\":24111:24133   */\n      add\n        /* \"#utility.yul\":24069:24139   */\n      tag_197\n      jump\t// in\n    tag_431:\n        /* \"#utility.yul\":24060:24066   */\n      0x0120\n        /* \"#utility.yul\":24053:24058   */\n      dup4\n        /* \"#utility.yul\":24049:24067   */\n      add\n        /* \"#utility.yul\":24042:24140   */\n      mstore\n        /* \"#utility.yul\":23816:24151   */\n      pop\n        /* \"#utility.yul\":24235:24238   */\n      0x0140\n        /* \"#utility.yul\":24224:24233   */\n      dup3\n        /* \"#utility.yul\":24220:24239   */\n      add\n        /* \"#utility.yul\":24214:24240   */\n      mload\n        /* \"#utility.yul\":24267:24285   */\n      0xffffffffffffffff\n        /* \"#utility.yul\":24259:24265   */\n      dup2\n        /* \"#utility.yul\":24256:24286   */\n      gt\n        /* \"#utility.yul\":24253:24370   */\n      iszero\n      tag_432\n      jumpi\n        /* \"#utility.yul\":24289:24368   */\n      tag_433\n      tag_193\n      jump\t// in\n    tag_433:\n        /* \"#utility.yul\":24253:24370   */\n    tag_432:\n        /* \"#utility.yul\":24411:24481   */\n      tag_434\n        /* \"#utility.yul\":24477:24480   */\n      dup5\n        /* \"#utility.yul\":24468:24474   */\n      dup3\n        /* \"#utility.yul\":24457:24466   */\n      dup6\n        /* \"#utility.yul\":24453:24475   */\n      add\n        /* \"#utility.yul\":24411:24481   */\n      tag_197\n      jump\t// in\n    tag_434:\n        /* \"#utility.yul\":24402:24408   */\n      0x0140\n        /* \"#utility.yul\":24395:24400   */\n      dup4\n        /* \"#utility.yul\":24391:24409   */\n      add\n        /* \"#utility.yul\":24384:24482   */\n      mstore\n        /* \"#utility.yul\":24161:24493   */\n      pop\n        /* \"#utility.yul\":20994:24500   */\n      swap3\n      swap2\n      pop\n      pop\n      jump\t// out\n        /* \"#utility.yul\":24506:25060   */\n    tag_118:\n        /* \"#utility.yul\":24601:24607   */\n      0x00\n        /* \"#utility.yul\":24650:24652   */\n      0x20\n        /* \"#utility.yul\":24638:24647   */\n      dup3\n        /* \"#utility.yul\":24629:24636   */\n      dup5\n        /* \"#utility.yul\":24625:24648   */\n      sub\n        /* \"#utility.yul\":24621:24653   */\n      slt\n        /* \"#utility.yul\":24618:24737   */\n      iszero\n      tag_436\n      jumpi\n        /* \"#utility.yul\":24656:24735   */\n      tag_437\n      tag_152\n      jump\t// in\n    tag_437:\n        /* \"#utility.yul\":24618:24737   */\n    tag_436:\n        /* \"#utility.yul\":24797:24798   */\n      0x00\n        /* \"#utility.yul\":24786:24795   */\n      dup3\n        /* \"#utility.yul\":24782:24799   */\n      add\n        /* \"#utility.yul\":24776:24800   */\n      mload\n        /* \"#utility.yul\":24827:24845   */\n      0xffffffffffffffff\n        /* \"#utility.yul\":24819:24825   */\n      dup2\n        /* \"#utility.yul\":24816:24846   */\n      gt\n        /* \"#utility.yul\":24813:24930   */\n      iszero\n      tag_438\n      jumpi\n        /* \"#utility.yul\":24849:24928   */\n      tag_439\n      tag_153\n      jump\t// in\n    tag_439:\n        /* \"#utility.yul\":24813:24930   */\n    tag_438:\n        /* \"#utility.yul\":24954:25043   */\n      tag_440\n        /* \"#utility.yul\":25035:25042   */\n      dup5\n        /* \"#utility.yul\":25026:25032   */\n      dup3\n        /* \"#utility.yul\":25015:25024   */\n      dup6\n        /* \"#utility.yul\":25011:25033   */\n      add\n        /* \"#utility.yul\":24954:25043   */\n      tag_198\n      jump\t// in\n    tag_440:\n        /* \"#utility.yul\":24944:25043   */\n      swap2\n      pop\n        /* \"#utility.yul\":24747:25053   */\n      pop\n        /* \"#utility.yul\":24506:25060   */\n      swap3\n      swap2\n      pop\n      pop\n      jump\t// out\n        /* \"#utility.yul\":25066:25291   */\n    tag_199:\n        /* \"#utility.yul\":25206:25240   */\n      0x4f776e61626c653a206e6577206f776e657220697320746865207a65726f2061\n        /* \"#utility.yul\":25202:25203   */\n      0x00\n        /* \"#utility.yul\":25194:25200   */\n      dup3\n        /* \"#utility.yul\":25190:25204   */\n      add\n        /* \"#utility.yul\":25183:25241   */\n      mstore\n        /* \"#utility.yul\":25275:25283   */\n      0x6464726573730000000000000000000000000000000000000000000000000000\n        /* \"#utility.yul\":25270:25272   */\n      0x20\n        /* \"#utility.yul\":25262:25268   */\n      dup3\n        /* \"#utility.yul\":25258:25273   */\n      add\n        /* \"#utility.yul\":25251:25284   */\n      mstore\n        /* \"#utility.yul\":25066:25291   */\n      pop\n      jump\t// out\n        /* \"#utility.yul\":25297:25663   */\n    tag_200:\n        /* \"#utility.yul\":25439:25442   */\n      0x00\n        /* \"#utility.yul\":25460:25527   */\n      tag_443\n        /* \"#utility.yul\":25524:25526   */\n      0x26\n        /* \"#utility.yul\":25519:25522   */\n      dup4\n        /* \"#utility.yul\":25460:25527   */\n      tag_181\n      jump\t// in\n    tag_443:\n        /* \"#utility.yul\":25453:25527   */\n      swap2\n      pop\n        /* \"#utility.yul\":25536:25629   */\n      tag_444\n        /* \"#utility.yul\":25625:25628   */\n      dup3\n        /* \"#utility.yul\":25536:25629   */\n      tag_199\n      jump\t// in\n    tag_444:\n        /* \"#utility.yul\":25654:25656   */\n      0x40\n        /* \"#utility.yul\":25649:25652   */\n      dup3\n        /* \"#utility.yul\":25645:25657   */\n      add\n        /* \"#utility.yul\":25638:25657   */\n      swap1\n      pop\n        /* \"#utility.yul\":25297:25663   */\n      swap2\n      swap1\n      pop\n      jump\t// out\n        /* \"#utility.yul\":25669:26088   */\n    tag_124:\n        /* \"#utility.yul\":25835:25839   */\n      0x00\n        /* \"#utility.yul\":25873:25875   */\n      0x20\n        /* \"#utility.yul\":25862:25871   */\n      dup3\n        /* \"#utility.yul\":25858:25876   */\n      add\n        /* \"#utility.yul\":25850:25876   */\n      swap1\n      pop\n        /* \"#utility.yul\":25922:25931   */\n      dup2\n        /* \"#utility.yul\":25916:25920   */\n      dup2\n        /* \"#utility.yul\":25912:25932   */\n      sub\n        /* \"#utility.yul\":25908:25909   */\n      0x00\n        /* \"#utility.yul\":25897:25906   */\n      dup4\n        /* \"#utility.yul\":25893:25910   */\n      add\n        /* \"#utility.yul\":25886:25933   */\n      mstore\n        /* \"#utility.yul\":25950:26081   */\n      tag_446\n        /* \"#utility.yul\":26076:26080   */\n      dup2\n        /* \"#utility.yul\":25950:26081   */\n      tag_200\n      jump\t// in\n    tag_446:\n        /* \"#utility.yul\":25942:26081   */\n      swap1\n      pop\n        /* \"#utility.yul\":25669:26088   */\n      swap2\n      swap1\n      pop\n      jump\t// out\n        /* \"#utility.yul\":26094:26426   */\n    tag_129:\n        /* \"#utility.yul\":26215:26219   */\n      0x00\n        /* \"#utility.yul\":26253:26255   */\n      0x40\n        /* \"#utility.yul\":26242:26251   */\n      dup3\n        /* \"#utility.yul\":26238:26256   */\n      add\n        /* \"#utility.yul\":26230:26256   */\n      swap1\n      pop\n        /* \"#utility.yul\":26266:26337   */\n      tag_448\n        /* \"#utility.yul\":26334:26335   */\n      0x00\n        /* \"#utility.yul\":26323:26332   */\n      dup4\n        /* \"#utility.yul\":26319:26336   */\n      add\n        /* \"#utility.yul\":26310:26316   */\n      dup6\n        /* \"#utility.yul\":26266:26337   */\n      tag_171\n      jump\t// in\n    tag_448:\n        /* \"#utility.yul\":26347:26419   */\n      tag_449\n        /* \"#utility.yul\":26415:26417   */\n      0x20\n        /* \"#utility.yul\":26404:26413   */\n      dup4\n        /* \"#utility.yul\":26400:26418   */\n      add\n        /* \"#utility.yul\":26391:26397   */\n      dup5\n        /* \"#utility.yul\":26347:26419   */\n      tag_185\n      jump\t// in\n    tag_449:\n        /* \"#utility.yul\":26094:26426   */\n      swap4\n      swap3\n      pop\n      pop\n      pop\n      jump\t// out\n        /* \"#utility.yul\":26432:26783   */\n    tag_133:\n        /* \"#utility.yul\":26502:26508   */\n      0x00\n        /* \"#utility.yul\":26551:26553   */\n      0x20\n        /* \"#utility.yul\":26539:26548   */\n      dup3\n        /* \"#utility.yul\":26530:26537   */\n      dup5\n        /* \"#utility.yul\":26526:26549   */\n      sub\n        /* \"#utility.yul\":26522:26554   */\n      slt\n        /* \"#utility.yul\":26519:26638   */\n      iszero\n      tag_451\n      jumpi\n        /* \"#utility.yul\":26557:26636   */\n      tag_452\n      tag_152\n      jump\t// in\n    tag_452:\n        /* \"#utility.yul\":26519:26638   */\n    tag_451:\n        /* \"#utility.yul\":26677:26678   */\n      0x00\n        /* \"#utility.yul\":26702:26766   */\n      tag_453\n        /* \"#utility.yul\":26758:26765   */\n      dup5\n        /* \"#utility.yul\":26749:26755   */\n      dup3\n        /* \"#utility.yul\":26738:26747   */\n      dup6\n        /* \"#utility.yul\":26734:26756   */\n      add\n        /* \"#utility.yul\":26702:26766   */\n      tag_194\n      jump\t// in\n    tag_453:\n        /* \"#utility.yul\":26692:26766   */\n      swap2\n      pop\n        /* \"#utility.yul\":26648:26776   */\n      pop\n        /* \"#utility.yul\":26432:26783   */\n      swap3\n      swap2\n      pop\n      pop\n      jump\t// out\n        /* \"#utility.yul\":26789:26971   */\n    tag_201:\n        /* \"#utility.yul\":26929:26963   */\n      0x4f776e61626c653a2063616c6c6572206973206e6f7420746865206f776e6572\n        /* \"#utility.yul\":26925:26926   */\n      0x00\n        /* \"#utility.yul\":26917:26923   */\n      dup3\n        /* \"#utility.yul\":26913:26927   */\n      add\n        /* \"#utility.yul\":26906:26964   */\n      mstore\n        /* \"#utility.yul\":26789:26971   */\n      pop\n      jump\t// out\n        /* \"#utility.yul\":26977:27343   */\n    tag_202:\n        /* \"#utility.yul\":27119:27122   */\n      0x00\n        /* \"#utility.yul\":27140:27207   */\n      tag_456\n        /* \"#utility.yul\":27204:27206   */\n      0x20\n        /* \"#utility.yul\":27199:27202   */\n      dup4\n        /* \"#utility.yul\":27140:27207   */\n      tag_181\n      jump\t// in\n    tag_456:\n        /* \"#utility.yul\":27133:27207   */\n      swap2\n      pop\n        /* \"#utility.yul\":27216:27309   */\n      tag_457\n        /* \"#utility.yul\":27305:27308   */\n      dup3\n        /* \"#utility.yul\":27216:27309   */\n      tag_201\n      jump\t// in\n    tag_457:\n        /* \"#utility.yul\":27334:27336   */\n      0x20\n        /* \"#utility.yul\":27329:27332   */\n      dup3\n        /* \"#utility.yul\":27325:27337   */\n      add\n        /* \"#utility.yul\":27318:27337   */\n      swap1\n      pop\n        /* \"#utility.yul\":26977:27343   */\n      swap2\n      swap1\n      pop\n      jump\t// out\n        /* \"#utility.yul\":27349:27768   */\n    tag_140:\n        /* \"#utility.yul\":27515:27519   */\n      0x00\n        /* \"#utility.yul\":27553:27555   */\n      0x20\n        /* \"#utility.yul\":27542:27551   */\n      dup3\n        /* \"#utility.yul\":27538:27556   */\n      add\n        /* \"#utility.yul\":27530:27556   */\n      swap1\n      pop\n        /* \"#utility.yul\":27602:27611   */\n      dup2\n        /* \"#utility.yul\":27596:27600   */\n      dup2\n        /* \"#utility.yul\":27592:27612   */\n      sub\n        /* \"#utility.yul\":27588:27589   */\n      0x00\n        /* \"#utility.yul\":27577:27586   */\n      dup4\n        /* \"#utility.yul\":27573:27590   */\n      add\n        /* \"#utility.yul\":27566:27613   */\n      mstore\n        /* \"#utility.yul\":27630:27761   */\n      tag_459\n        /* \"#utility.yul\":27756:27760   */\n      dup2\n        /* \"#utility.yul\":27630:27761   */\n      tag_202\n      jump\t// in\n    tag_459:\n        /* \"#utility.yul\":27622:27761   */\n      swap1\n      pop\n        /* \"#utility.yul\":27349:27768   */\n      swap2\n      swap1\n      pop\n      jump\t// out\n\n    auxdata: 0xa2646970667358221220777507062c0e157609529fa2dfaaa07f4962eeef6d120ec646cc4821d698dbc164736f6c63430008100033\n}\n",
				"bytecode": {
					"linkReferences": {},
					"object": "60806040523480156200001157600080fd5b5060405162001e3d38038062001e3d83398181016040528101906200003791906200016c565b80336000806101000a81548173ffffffffffffffffffffffffffffffffffffffff021916908373ffffffffffffffffffffffffffffffffffffffff16021790555080600260006101000a81548173ffffffffffffffffffffffffffffffffffffffff021916908373ffffffffffffffffffffffffffffffffffffffff16021790555080600160006101000a81548173ffffffffffffffffffffffffffffffffffffffff021916908373ffffffffffffffffffffffffffffffffffffffff16021790555050506200019e565b600080fd5b600073ffffffffffffffffffffffffffffffffffffffff82169050919050565b6000620001348262000107565b9050919050565b620001468162000127565b81146200015257600080fd5b50565b60008151905062000166816200013b565b92915050565b60006020828403121562000185576200018462000102565b5b6000620001958482850162000155565b91505092915050565b611c8f80620001ae6000396000f3fe608060405234801561001057600080fd5b50600436106100625760003560e01c806301b02b8c1461006757806383197ef0146100975780638da5cb5b146100a1578063d6c6109a146100bf578063f08f4f64146100ef578063f2fde38b1461011f575b600080fd5b610081600480360381019061007c9190610f8b565b61013b565b60405161008e9190611150565b60405180910390f35b61009f6102ac565b005b6100a96102cd565b6040516100b691906111ac565b60405180910390f35b6100d960048036038101906100d491906111c7565b6102f6565b6040516100e69190611150565b60405180910390f35b61010960048036038101906101049190611341565b610846565b604051610116919061152b565b60405180910390f35b61013960048036038101906101349190611579565b610997565b005b6000610145610a1a565b610184576040517f08c379a000000000000000000000000000000000000000000000000000000000815260040161017b90611629565b60405180910390fd5b600033905060006040518061016001604052808d8152602001600081526020018373ffffffffffffffffffffffffffffffffffffffff1681526020018c81526020018b81526020018a81526020018981526020018881526020018781526020018681526020018581525090506101f8610afc565b73ffffffffffffffffffffffffffffffffffffffff166304a28c07827f8e1604a838d0f1a9b2cda14a099e4ceb08e966cc6e05e8296f67b02d61a79f0960001b6040518363ffffffff1660e01b8152600401610255929190611662565b6020604051808303816000875af1158015610274573d6000803e3d6000fd5b505050506040513d601f19601f8201168201806040525081019061029891906116be565b506001925050509998505050505050505050565b6102b4610b26565b3073ffffffffffffffffffffffffffffffffffffffff16ff5b60008060009054906101000a900473ffffffffffffffffffffffffffffffffffffffff16905090565b600088610301610a1a565b610340576040517f08c379a000000000000000000000000000000000000000000000000000000000815260040161033790611629565b60405180910390fd5b61034981610b9d565b610388576040517f08c379a000000000000000000000000000000000000000000000000000000000815260040161037f9061175d565b60405180910390fd5b610390610afc565b73ffffffffffffffffffffffffffffffffffffffff1663413896e48b7f8e1604a838d0f1a9b2cda14a099e4ceb08e966cc6e05e8296f67b02d61a79f0960001b8c6040518463ffffffff1660e01b81526004016103ef939291906117c5565b6020604051808303816000875af115801561040e573d6000803e3d6000fd5b505050506040513d601f19601f8201168201806040525081019061043291906116be565b5061043b610afc565b73ffffffffffffffffffffffffffffffffffffffff1663d49cb1468b7f8e1604a838d0f1a9b2cda14a099e4ceb08e966cc6e05e8296f67b02d61a79f0960001b8b6040518463ffffffff1660e01b815260040161049a939291906117c5565b6020604051808303816000875af11580156104b9573d6000803e3d6000fd5b505050506040513d601f19601f820116820180604052508101906104dd91906116be565b506104e6610afc565b73ffffffffffffffffffffffffffffffffffffffff1663e3f343718b7f8e1604a838d0f1a9b2cda14a099e4ceb08e966cc6e05e8296f67b02d61a79f0960001b8a6040518463ffffffff1660e01b8152600401610545939291906117c5565b6020604051808303816000875af1158015610564573d6000803e3d6000fd5b505050506040513d601f19601f8201168201806040525081019061058891906116be565b50610591610afc565b73ffffffffffffffffffffffffffffffffffffffff166329cd63118b7f8e1604a838d0f1a9b2cda14a099e4ceb08e966cc6e05e8296f67b02d61a79f0960001b896040518463ffffffff1660e01b81526004016105f0939291906117c5565b6020604051808303816000875af115801561060f573d6000803e3d6000fd5b505050506040513d601f19601f8201168201806040525081019061063391906116be565b5061063c610afc565b73ffffffffffffffffffffffffffffffffffffffff1663d2af71a68b7f8e1604a838d0f1a9b2cda14a099e4ceb08e966cc6e05e8296f67b02d61a79f0960001b886040518463ffffffff1660e01b815260040161069b939291906117c5565b6020604051808303816000875af11580156106ba573d6000803e3d6000fd5b505050506040513d601f19601f820116820180604052508101906106de91906116be565b506106e7610afc565b73ffffffffffffffffffffffffffffffffffffffff1663d45c8abf8b7f8e1604a838d0f1a9b2cda14a099e4ceb08e966cc6e05e8296f67b02d61a79f0960001b876040518463ffffffff1660e01b8152600401610746939291906117c5565b6020604051808303816000875af1158015610765573d6000803e3d6000fd5b505050506040513d601f19601f8201168201806040525081019061078991906116be565b50610792610afc565b73ffffffffffffffffffffffffffffffffffffffff1663800f22348b7f8e1604a838d0f1a9b2cda14a099e4ceb08e966cc6e05e8296f67b02d61a79f0960001b866040518463ffffffff1660e01b81526004016107f1939291906117c5565b6020604051808303816000875af1158015610810573d6000803e3d6000fd5b505050506040513d601f19601f8201168201806040525081019061083491906116be565b50600191505098975050505050505050565b61084e610d8b565b81610857610a1a565b610896576040517f08c379a000000000000000000000000000000000000000000000000000000000815260040161088d90611629565b60405180910390fd5b61089f81610b9d565b6108de576040517f08c379a00000000000000000000000000000000000000000000000000000000081526004016108d59061175d565b60405180910390fd5b60006108e8610afc565b73ffffffffffffffffffffffffffffffffffffffff1663c78a6741857f8e1604a838d0f1a9b2cda14a099e4ceb08e966cc6e05e8296f67b02d61a79f0960001b6040518363ffffffff1660e01b8152600401610945929190611803565b600060405180830381865afa158015610962573d6000803e3d6000fd5b505050506040513d6000823e3d601f19601f8201168201806040525081019061098b9190611abc565b90508092505050919050565b61099f610b26565b600073ffffffffffffffffffffffffffffffffffffffff168173ffffffffffffffffffffffffffffffffffffffff1603610a0e576040517f08c379a0000000000000000000000000000000000000000000000000000000008152600401610a0590611b77565b60405180910390fd5b610a1781610c7e565b50565b600080600160009054906101000a900473ffffffffffffffffffffffffffffffffffffffff1673ffffffffffffffffffffffffffffffffffffffff1663d32a04c7337f8e1604a838d0f1a9b2cda14a099e4ceb08e966cc6e05e8296f67b02d61a79f0960001b6040518363ffffffff1660e01b8152600401610a9d929190611b97565b602060405180830381865afa158015610aba573d6000803e3d6000fd5b505050506040513d601f19601f82011682018060405250810190610ade9190611bc0565b90506000811115610af3576001915050610af9565b60009150505b90565b6000600160009054906101000a900473ffffffffffffffffffffffffffffffffffffffff16905090565b3373ffffffffffffffffffffffffffffffffffffffff16610b456102cd565b73ffffffffffffffffffffffffffffffffffffffff1614610b9b576040517f08c379a0000000000000000000000000000000000000000000000000000000008152600401610b9290611c39565b60405180910390fd5b565b600080600160009054906101000a900473ffffffffffffffffffffffffffffffffffffffff1673ffffffffffffffffffffffffffffffffffffffff1663c78a6741847f8e1604a838d0f1a9b2cda14a099e4ceb08e966cc6e05e8296f67b02d61a79f0960001b6040518363ffffffff1660e01b8152600401610c20929190611803565b600060405180830381865afa158015610c3d573d6000803e3d6000fd5b505050506040513d6000823e3d601f19601f82011682018060405250810190610c669190611abc565b9050610c76816040015133610d42565b915050919050565b60008060009054906101000a900473ffffffffffffffffffffffffffffffffffffffff169050816000806101000a81548173ffffffffffffffffffffffffffffffffffffffff021916908373ffffffffffffffffffffffffffffffffffffffff1602179055508173ffffffffffffffffffffffffffffffffffffffff168173ffffffffffffffffffffffffffffffffffffffff167f8be0079c531659141344cd1fd0a4f28419497f9722a3daafe3b4186f6b6457e060405160405180910390a35050565b60008173ffffffffffffffffffffffffffffffffffffffff168373ffffffffffffffffffffffffffffffffffffffff1603610d805760019050610d85565b600090505b92915050565b6040518061016001604052806000815260200160008152602001600073ffffffffffffffffffffffffffffffffffffffff16815260200160608152602001606081526020016060815260200160608152602001606081526020016060815260200160608152602001606081525090565b6000604051905090565b600080fd5b600080fd5b6000819050919050565b610e2281610e0f565b8114610e2d57600080fd5b50565b600081359050610e3f81610e19565b92915050565b600080fd5b600080fd5b6000601f19601f8301169050919050565b7f4e487b7100000000000000000000000000000000000000000000000000000000600052604160045260246000fd5b610e9882610e4f565b810181811067ffffffffffffffff82111715610eb757610eb6610e60565b5b80604052505050565b6000610eca610dfb565b9050610ed68282610e8f565b919050565b600067ffffffffffffffff821115610ef657610ef5610e60565b5b610eff82610e4f565b9050602081019050919050565b82818337600083830152505050565b6000610f2e610f2984610edb565b610ec0565b905082815260208101848484011115610f4a57610f49610e4a565b5b610f55848285610f0c565b509392505050565b600082601f830112610f7257610f71610e45565b5b8135610f82848260208601610f1b565b91505092915050565b60008060008060008060008060006101208a8c031215610fae57610fad610e05565b5b6000610fbc8c828d01610e30565b99505060208a013567ffffffffffffffff811115610fdd57610fdc610e0a565b5b610fe98c828d01610f5d565b98505060408a013567ffffffffffffffff81111561100a57611009610e0a565b5b6110168c828d01610f5d565b97505060608a013567ffffffffffffffff81111561103757611036610e0a565b5b6110438c828d01610f5d565b96505060808a013567ffffffffffffffff81111561106457611063610e0a565b5b6110708c828d01610f5d565b95505060a08a013567ffffffffffffffff81111561109157611090610e0a565b5b61109d8c828d01610f5d565b94505060c08a013567ffffffffffffffff8111156110be576110bd610e0a565b5b6110ca8c828d01610f5d565b93505060e08a013567ffffffffffffffff8111156110eb576110ea610e0a565b5b6110f78c828d01610f5d565b9250506101008a013567ffffffffffffffff81111561111957611118610e0a565b5b6111258c828d01610f5d565b9150509295985092959850929598565b60008115159050919050565b61114a81611135565b82525050565b60006020820190506111656000830184611141565b92915050565b600073ffffffffffffffffffffffffffffffffffffffff82169050919050565b60006111968261116b565b9050919050565b6111a68161118b565b82525050565b60006020820190506111c1600083018461119d565b92915050565b600080600080600080600080610100898b0312156111e8576111e7610e05565b5b60006111f68b828c01610e30565b985050602089013567ffffffffffffffff81111561121757611216610e0a565b5b6112238b828c01610f5d565b975050604089013567ffffffffffffffff81111561124457611243610e0a565b5b6112508b828c01610f5d565b965050606089013567ffffffffffffffff81111561127157611270610e0a565b5b61127d8b828c01610f5d565b955050608089013567ffffffffffffffff81111561129e5761129d610e0a565b5b6112aa8b828c01610f5d565b94505060a089013567ffffffffffffffff8111156112cb576112ca610e0a565b5b6112d78b828c01610f5d565b93505060c089013567ffffffffffffffff8111156112f8576112f7610e0a565b5b6113048b828c01610f5d565b92505060e089013567ffffffffffffffff81111561132557611324610e0a565b5b6113318b828c01610f5d565b9150509295985092959890939650565b60006020828403121561135757611356610e05565b5b600061136584828501610e30565b91505092915050565b61137781610e0f565b82525050565b6113868161118b565b82525050565b600081519050919050565b600082825260208201905092915050565b60005b838110156113c65780820151818401526020810190506113ab565b60008484015250505050565b60006113dd8261138c565b6113e78185611397565b93506113f78185602086016113a8565b61140081610e4f565b840191505092915050565b600061016083016000830151611424600086018261136e565b506020830151611437602086018261136e565b50604083015161144a604086018261137d565b506060830151848203606086015261146282826113d2565b9150506080830151848203608086015261147c82826113d2565b91505060a083015184820360a086015261149682826113d2565b91505060c083015184820360c08601526114b082826113d2565b91505060e083015184820360e08601526114ca82826113d2565b9150506101008301518482036101008601526114e682826113d2565b91505061012083015184820361012086015261150282826113d2565b91505061014083015184820361014086015261151e82826113d2565b9150508091505092915050565b60006020820190508181036000830152611545818461140b565b905092915050565b6115568161118b565b811461156157600080fd5b50565b6000813590506115738161154d565b92915050565b60006020828403121561158f5761158e610e05565b5b600061159d84828501611564565b91505092915050565b600082825260208201905092915050565b7f4c697374427573696e657373437572736f723a20416c7265616479206578697360008201527f746564206163636f756e74000000000000000000000000000000000000000000602082015250565b6000611613602b836115a6565b915061161e826115b7565b604082019050919050565b6000602082019050818103600083015261164281611606565b9050919050565b6000819050919050565b61165c81611649565b82525050565b6000604082019050818103600083015261167c818561140b565b905061168b6020830184611653565b9392505050565b61169b81611135565b81146116a657600080fd5b50565b6000815190506116b881611692565b92915050565b6000602082840312156116d4576116d3610e05565b5b60006116e2848285016116a9565b91505092915050565b7f4c697374427573696e657373437572736f723a206964206973206e6f7420626560008201527f6c6f6e6720746f20616464726573730000000000000000000000000000000000602082015250565b6000611747602f836115a6565b9150611752826116eb565b604082019050919050565b600060208201905081810360008301526117768161173a565b9050919050565b61178681610e0f565b82525050565b60006117978261138c565b6117a181856115a6565b93506117b18185602086016113a8565b6117ba81610e4f565b840191505092915050565b60006060820190506117da600083018661177d565b6117e76020830185611653565b81810360408301526117f9818461178c565b9050949350505050565b6000604082019050611818600083018561177d565b6118256020830184611653565b9392505050565b600080fd5b600080fd5b60008151905061184581610e19565b92915050565b60008151905061185a8161154d565b92915050565b600061187361186e84610edb565b610ec0565b90508281526020810184848401111561188f5761188e610e4a565b5b61189a8482856113a8565b509392505050565b600082601f8301126118b7576118b6610e45565b5b81516118c7848260208601611860565b91505092915050565b600061016082840312156118e7576118e661182c565b5b6118f2610160610ec0565b9050600061190284828501611836565b600083015250602061191684828501611836565b602083015250604061192a8482850161184b565b604083015250606082015167ffffffffffffffff81111561194e5761194d611831565b5b61195a848285016118a2565b606083015250608082015167ffffffffffffffff81111561197e5761197d611831565b5b61198a848285016118a2565b60808301525060a082015167ffffffffffffffff8111156119ae576119ad611831565b5b6119ba848285016118a2565b60a08301525060c082015167ffffffffffffffff8111156119de576119dd611831565b5b6119ea848285016118a2565b60c08301525060e082015167ffffffffffffffff811115611a0e57611a0d611831565b5b611a1a848285016118a2565b60e08301525061010082015167ffffffffffffffff811115611a3f57611a3e611831565b5b611a4b848285016118a2565b6101008301525061012082015167ffffffffffffffff811115611a7157611a70611831565b5b611a7d848285016118a2565b6101208301525061014082015167ffffffffffffffff811115611aa357611aa2611831565b5b611aaf848285016118a2565b6101408301525092915050565b600060208284031215611ad257611ad1610e05565b5b600082015167ffffffffffffffff811115611af057611aef610e0a565b5b611afc848285016118d0565b91505092915050565b7f4f776e61626c653a206e6577206f776e657220697320746865207a65726f206160008201527f6464726573730000000000000000000000000000000000000000000000000000602082015250565b6000611b616026836115a6565b9150611b6c82611b05565b604082019050919050565b60006020820190508181036000830152611b9081611b54565b9050919050565b6000604082019050611bac600083018561119d565b611bb96020830184611653565b9392505050565b600060208284031215611bd657611bd5610e05565b5b6000611be484828501611836565b91505092915050565b7f4f776e61626c653a2063616c6c6572206973206e6f7420746865206f776e6572600082015250565b6000611c236020836115a6565b9150611c2e82611bed565b602082019050919050565b60006020820190508181036000830152611c5281611c16565b905091905056fea2646970667358221220777507062c0e157609529fa2dfaaa07f4962eeef6d120ec646cc4821d698dbc164736f6c63430008100033",
					"opcodes": "PUSH1 0x80 PUSH1 0x40 MSTORE CALLVALUE DUP1 ISZERO PUSH3 0x11 JUMPI PUSH1 0x0 DUP1 REVERT JUMPDEST POP PUSH1 0x40 MLOAD PUSH3 0x1E3D CODESIZE SUB DUP1 PUSH3 0x1E3D DUP4 CODECOPY DUP2 DUP2 ADD PUSH1 0x40 MSTORE DUP2 ADD SWAP1 PUSH3 0x37 SWAP2 SWAP1 PUSH3 0x16C JUMP JUMPDEST DUP1 CALLER PUSH1 0x0 DUP1 PUSH2 0x100 EXP DUP2 SLOAD DUP2 PUSH20 0xFFFFFFFFFFFFFFFFFFFFFFFFFFFFFFFFFFFFFFFF MUL NOT AND SWAP1 DUP4 PUSH20 0xFFFFFFFFFFFFFFFFFFFFFFFFFFFFFFFFFFFFFFFF AND MUL OR SWAP1 SSTORE POP DUP1 PUSH1 0x2 PUSH1 0x0 PUSH2 0x100 EXP DUP2 SLOAD DUP2 PUSH20 0xFFFFFFFFFFFFFFFFFFFFFFFFFFFFFFFFFFFFFFFF MUL NOT AND SWAP1 DUP4 PUSH20 0xFFFFFFFFFFFFFFFFFFFFFFFFFFFFFFFFFFFFFFFF AND MUL OR SWAP1 SSTORE POP DUP1 PUSH1 0x1 PUSH1 0x0 PUSH2 0x100 EXP DUP2 SLOAD DUP2 PUSH20 0xFFFFFFFFFFFFFFFFFFFFFFFFFFFFFFFFFFFFFFFF MUL NOT AND SWAP1 DUP4 PUSH20 0xFFFFFFFFFFFFFFFFFFFFFFFFFFFFFFFFFFFFFFFF AND MUL OR SWAP1 SSTORE POP POP POP PUSH3 0x19E JUMP JUMPDEST PUSH1 0x0 DUP1 REVERT JUMPDEST PUSH1 0x0 PUSH20 0xFFFFFFFFFFFFFFFFFFFFFFFFFFFFFFFFFFFFFFFF DUP3 AND SWAP1 POP SWAP2 SWAP1 POP JUMP JUMPDEST PUSH1 0x0 PUSH3 0x134 DUP3 PUSH3 0x107 JUMP JUMPDEST SWAP1 POP SWAP2 SWAP1 POP JUMP JUMPDEST PUSH3 0x146 DUP2 PUSH3 0x127 JUMP JUMPDEST DUP2 EQ PUSH3 0x152 JUMPI PUSH1 0x0 DUP1 REVERT JUMPDEST POP JUMP JUMPDEST PUSH1 0x0 DUP2 MLOAD SWAP1 POP PUSH3 0x166 DUP2 PUSH3 0x13B JUMP JUMPDEST SWAP3 SWAP2 POP POP JUMP JUMPDEST PUSH1 0x0 PUSH1 0x20 DUP3 DUP5 SUB SLT ISZERO PUSH3 0x185 JUMPI PUSH3 0x184 PUSH3 0x102 JUMP JUMPDEST JUMPDEST PUSH1 0x0 PUSH3 0x195 DUP5 DUP3 DUP6 ADD PUSH3 0x155 JUMP JUMPDEST SWAP2 POP POP SWAP3 SWAP2 POP POP JUMP JUMPDEST PUSH2 0x1C8F DUP1 PUSH3 0x1AE PUSH1 0x0 CODECOPY PUSH1 0x0 RETURN INVALID PUSH1 0x80 PUSH1 0x40 MSTORE CALLVALUE DUP1 ISZERO PUSH2 0x10 JUMPI PUSH1 0x0 DUP1 REVERT JUMPDEST POP PUSH1 0x4 CALLDATASIZE LT PUSH2 0x62 JUMPI PUSH1 0x0 CALLDATALOAD PUSH1 0xE0 SHR DUP1 PUSH4 0x1B02B8C EQ PUSH2 0x67 JUMPI DUP1 PUSH4 0x83197EF0 EQ PUSH2 0x97 JUMPI DUP1 PUSH4 0x8DA5CB5B EQ PUSH2 0xA1 JUMPI DUP1 PUSH4 0xD6C6109A EQ PUSH2 0xBF JUMPI DUP1 PUSH4 0xF08F4F64 EQ PUSH2 0xEF JUMPI DUP1 PUSH4 0xF2FDE38B EQ PUSH2 0x11F JUMPI JUMPDEST PUSH1 0x0 DUP1 REVERT JUMPDEST PUSH2 0x81 PUSH1 0x4 DUP1 CALLDATASIZE SUB DUP2 ADD SWAP1 PUSH2 0x7C SWAP2 SWAP1 PUSH2 0xF8B JUMP JUMPDEST PUSH2 0x13B JUMP JUMPDEST PUSH1 0x40 MLOAD PUSH2 0x8E SWAP2 SWAP1 PUSH2 0x1150 JUMP JUMPDEST PUSH1 0x40 MLOAD DUP1 SWAP2 SUB SWAP1 RETURN JUMPDEST PUSH2 0x9F PUSH2 0x2AC JUMP JUMPDEST STOP JUMPDEST PUSH2 0xA9 PUSH2 0x2CD JUMP JUMPDEST PUSH1 0x40 MLOAD PUSH2 0xB6 SWAP2 SWAP1 PUSH2 0x11AC JUMP JUMPDEST PUSH1 0x40 MLOAD DUP1 SWAP2 SUB SWAP1 RETURN JUMPDEST PUSH2 0xD9 PUSH1 0x4 DUP1 CALLDATASIZE SUB DUP2 ADD SWAP1 PUSH2 0xD4 SWAP2 SWAP1 PUSH2 0x11C7 JUMP JUMPDEST PUSH2 0x2F6 JUMP JUMPDEST PUSH1 0x40 MLOAD PUSH2 0xE6 SWAP2 SWAP1 PUSH2 0x1150 JUMP JUMPDEST PUSH1 0x40 MLOAD DUP1 SWAP2 SUB SWAP1 RETURN JUMPDEST PUSH2 0x109 PUSH1 0x4 DUP1 CALLDATASIZE SUB DUP2 ADD SWAP1 PUSH2 0x104 SWAP2 SWAP1 PUSH2 0x1341 JUMP JUMPDEST PUSH2 0x846 JUMP JUMPDEST PUSH1 0x40 MLOAD PUSH2 0x116 SWAP2 SWAP1 PUSH2 0x152B JUMP JUMPDEST PUSH1 0x40 MLOAD DUP1 SWAP2 SUB SWAP1 RETURN JUMPDEST PUSH2 0x139 PUSH1 0x4 DUP1 CALLDATASIZE SUB DUP2 ADD SWAP1 PUSH2 0x134 SWAP2 SWAP1 PUSH2 0x1579 JUMP JUMPDEST PUSH2 0x997 JUMP JUMPDEST STOP JUMPDEST PUSH1 0x0 PUSH2 0x145 PUSH2 0xA1A JUMP JUMPDEST PUSH2 0x184 JUMPI PUSH1 0x40 MLOAD PUSH32 0x8C379A000000000000000000000000000000000000000000000000000000000 DUP2 MSTORE PUSH1 0x4 ADD PUSH2 0x17B SWAP1 PUSH2 0x1629 JUMP JUMPDEST PUSH1 0x40 MLOAD DUP1 SWAP2 SUB SWAP1 REVERT JUMPDEST PUSH1 0x0 CALLER SWAP1 POP PUSH1 0x0 PUSH1 0x40 MLOAD DUP1 PUSH2 0x160 ADD PUSH1 0x40 MSTORE DUP1 DUP14 DUP2 MSTORE PUSH1 0x20 ADD PUSH1 0x0 DUP2 MSTORE PUSH1 0x20 ADD DUP4 PUSH20 0xFFFFFFFFFFFFFFFFFFFFFFFFFFFFFFFFFFFFFFFF AND DUP2 MSTORE PUSH1 0x20 ADD DUP13 DUP2 MSTORE PUSH1 0x20 ADD DUP12 DUP2 MSTORE PUSH1 0x20 ADD DUP11 DUP2 MSTORE PUSH1 0x20 ADD DUP10 DUP2 MSTORE PUSH1 0x20 ADD DUP9 DUP2 MSTORE PUSH1 0x20 ADD DUP8 DUP2 MSTORE PUSH1 0x20 ADD DUP7 DUP2 MSTORE PUSH1 0x20 ADD DUP6 DUP2 MSTORE POP SWAP1 POP PUSH2 0x1F8 PUSH2 0xAFC JUMP JUMPDEST PUSH20 0xFFFFFFFFFFFFFFFFFFFFFFFFFFFFFFFFFFFFFFFF AND PUSH4 0x4A28C07 DUP3 PUSH32 0x8E1604A838D0F1A9B2CDA14A099E4CEB08E966CC6E05E8296F67B02D61A79F09 PUSH1 0x0 SHL PUSH1 0x40 MLOAD DUP4 PUSH4 0xFFFFFFFF AND PUSH1 0xE0 SHL DUP2 MSTORE PUSH1 0x4 ADD PUSH2 0x255 SWAP3 SWAP2 SWAP1 PUSH2 0x1662 JUMP JUMPDEST PUSH1 0x20 PUSH1 0x40 MLOAD DUP1 DUP4 SUB DUP2 PUSH1 0x0 DUP8 GAS CALL ISZERO DUP1 ISZERO PUSH2 0x274 JUMPI RETURNDATASIZE PUSH1 0x0 DUP1 RETURNDATACOPY RETURNDATASIZE PUSH1 0x0 REVERT JUMPDEST POP POP POP POP PUSH1 0x40 MLOAD RETURNDATASIZE PUSH1 0x1F NOT PUSH1 0x1F DUP3 ADD AND DUP3 ADD DUP1 PUSH1 0x40 MSTORE POP DUP2 ADD SWAP1 PUSH2 0x298 SWAP2 SWAP1 PUSH2 0x16BE JUMP JUMPDEST POP PUSH1 0x1 SWAP3 POP POP POP SWAP10 SWAP9 POP POP POP POP POP POP POP POP POP JUMP JUMPDEST PUSH2 0x2B4 PUSH2 0xB26 JUMP JUMPDEST ADDRESS PUSH20 0xFFFFFFFFFFFFFFFFFFFFFFFFFFFFFFFFFFFFFFFF AND SELFDESTRUCT JUMPDEST PUSH1 0x0 DUP1 PUSH1 0x0 SWAP1 SLOAD SWAP1 PUSH2 0x100 EXP SWAP1 DIV PUSH20 0xFFFFFFFFFFFFFFFFFFFFFFFFFFFFFFFFFFFFFFFF AND SWAP1 POP SWAP1 JUMP JUMPDEST PUSH1 0x0 DUP9 PUSH2 0x301 PUSH2 0xA1A JUMP JUMPDEST PUSH2 0x340 JUMPI PUSH1 0x40 MLOAD PUSH32 0x8C379A000000000000000000000000000000000000000000000000000000000 DUP2 MSTORE PUSH1 0x4 ADD PUSH2 0x337 SWAP1 PUSH2 0x1629 JUMP JUMPDEST PUSH1 0x40 MLOAD DUP1 SWAP2 SUB SWAP1 REVERT JUMPDEST PUSH2 0x349 DUP2 PUSH2 0xB9D JUMP JUMPDEST PUSH2 0x388 JUMPI PUSH1 0x40 MLOAD PUSH32 0x8C379A000000000000000000000000000000000000000000000000000000000 DUP2 MSTORE PUSH1 0x4 ADD PUSH2 0x37F SWAP1 PUSH2 0x175D JUMP JUMPDEST PUSH1 0x40 MLOAD DUP1 SWAP2 SUB SWAP1 REVERT JUMPDEST PUSH2 0x390 PUSH2 0xAFC JUMP JUMPDEST PUSH20 0xFFFFFFFFFFFFFFFFFFFFFFFFFFFFFFFFFFFFFFFF AND PUSH4 0x413896E4 DUP12 PUSH32 0x8E1604A838D0F1A9B2CDA14A099E4CEB08E966CC6E05E8296F67B02D61A79F09 PUSH1 0x0 SHL DUP13 PUSH1 0x40 MLOAD DUP5 PUSH4 0xFFFFFFFF AND PUSH1 0xE0 SHL DUP2 MSTORE PUSH1 0x4 ADD PUSH2 0x3EF SWAP4 SWAP3 SWAP2 SWAP1 PUSH2 0x17C5 JUMP JUMPDEST PUSH1 0x20 PUSH1 0x40 MLOAD DUP1 DUP4 SUB DUP2 PUSH1 0x0 DUP8 GAS CALL ISZERO DUP1 ISZERO PUSH2 0x40E JUMPI RETURNDATASIZE PUSH1 0x0 DUP1 RETURNDATACOPY RETURNDATASIZE PUSH1 0x0 REVERT JUMPDEST POP POP POP POP PUSH1 0x40 MLOAD RETURNDATASIZE PUSH1 0x1F NOT PUSH1 0x1F DUP3 ADD AND DUP3 ADD DUP1 PUSH1 0x40 MSTORE POP DUP2 ADD SWAP1 PUSH2 0x432 SWAP2 SWAP1 PUSH2 0x16BE JUMP JUMPDEST POP PUSH2 0x43B PUSH2 0xAFC JUMP JUMPDEST PUSH20 0xFFFFFFFFFFFFFFFFFFFFFFFFFFFFFFFFFFFFFFFF AND PUSH4 0xD49CB146 DUP12 PUSH32 0x8E1604A838D0F1A9B2CDA14A099E4CEB08E966CC6E05E8296F67B02D61A79F09 PUSH1 0x0 SHL DUP12 PUSH1 0x40 MLOAD DUP5 PUSH4 0xFFFFFFFF AND PUSH1 0xE0 SHL DUP2 MSTORE PUSH1 0x4 ADD PUSH2 0x49A SWAP4 SWAP3 SWAP2 SWAP1 PUSH2 0x17C5 JUMP JUMPDEST PUSH1 0x20 PUSH1 0x40 MLOAD DUP1 DUP4 SUB DUP2 PUSH1 0x0 DUP8 GAS CALL ISZERO DUP1 ISZERO PUSH2 0x4B9 JUMPI RETURNDATASIZE PUSH1 0x0 DUP1 RETURNDATACOPY RETURNDATASIZE PUSH1 0x0 REVERT JUMPDEST POP POP POP POP PUSH1 0x40 MLOAD RETURNDATASIZE PUSH1 0x1F NOT PUSH1 0x1F DUP3 ADD AND DUP3 ADD DUP1 PUSH1 0x40 MSTORE POP DUP2 ADD SWAP1 PUSH2 0x4DD SWAP2 SWAP1 PUSH2 0x16BE JUMP JUMPDEST POP PUSH2 0x4E6 PUSH2 0xAFC JUMP JUMPDEST PUSH20 0xFFFFFFFFFFFFFFFFFFFFFFFFFFFFFFFFFFFFFFFF AND PUSH4 0xE3F34371 DUP12 PUSH32 0x8E1604A838D0F1A9B2CDA14A099E4CEB08E966CC6E05E8296F67B02D61A79F09 PUSH1 0x0 SHL DUP11 PUSH1 0x40 MLOAD DUP5 PUSH4 0xFFFFFFFF AND PUSH1 0xE0 SHL DUP2 MSTORE PUSH1 0x4 ADD PUSH2 0x545 SWAP4 SWAP3 SWAP2 SWAP1 PUSH2 0x17C5 JUMP JUMPDEST PUSH1 0x20 PUSH1 0x40 MLOAD DUP1 DUP4 SUB DUP2 PUSH1 0x0 DUP8 GAS CALL ISZERO DUP1 ISZERO PUSH2 0x564 JUMPI RETURNDATASIZE PUSH1 0x0 DUP1 RETURNDATACOPY RETURNDATASIZE PUSH1 0x0 REVERT JUMPDEST POP POP POP POP PUSH1 0x40 MLOAD RETURNDATASIZE PUSH1 0x1F NOT PUSH1 0x1F DUP3 ADD AND DUP3 ADD DUP1 PUSH1 0x40 MSTORE POP DUP2 ADD SWAP1 PUSH2 0x588 SWAP2 SWAP1 PUSH2 0x16BE JUMP JUMPDEST POP PUSH2 0x591 PUSH2 0xAFC JUMP JUMPDEST PUSH20 0xFFFFFFFFFFFFFFFFFFFFFFFFFFFFFFFFFFFFFFFF AND PUSH4 0x29CD6311 DUP12 PUSH32 0x8E1604A838D0F1A9B2CDA14A099E4CEB08E966CC6E05E8296F67B02D61A79F09 PUSH1 0x0 SHL DUP10 PUSH1 0x40 MLOAD DUP5 PUSH4 0xFFFFFFFF AND PUSH1 0xE0 SHL DUP2 MSTORE PUSH1 0x4 ADD PUSH2 0x5F0 SWAP4 SWAP3 SWAP2 SWAP1 PUSH2 0x17C5 JUMP JUMPDEST PUSH1 0x20 PUSH1 0x40 MLOAD DUP1 DUP4 SUB DUP2 PUSH1 0x0 DUP8 GAS CALL ISZERO DUP1 ISZERO PUSH2 0x60F JUMPI RETURNDATASIZE PUSH1 0x0 DUP1 RETURNDATACOPY RETURNDATASIZE PUSH1 0x0 REVERT JUMPDEST POP POP POP POP PUSH1 0x40 MLOAD RETURNDATASIZE PUSH1 0x1F NOT PUSH1 0x1F DUP3 ADD AND DUP3 ADD DUP1 PUSH1 0x40 MSTORE POP DUP2 ADD SWAP1 PUSH2 0x633 SWAP2 SWAP1 PUSH2 0x16BE JUMP JUMPDEST POP PUSH2 0x63C PUSH2 0xAFC JUMP JUMPDEST PUSH20 0xFFFFFFFFFFFFFFFFFFFFFFFFFFFFFFFFFFFFFFFF AND PUSH4 0xD2AF71A6 DUP12 PUSH32 0x8E1604A838D0F1A9B2CDA14A099E4CEB08E966CC6E05E8296F67B02D61A79F09 PUSH1 0x0 SHL DUP9 PUSH1 0x40 MLOAD DUP5 PUSH4 0xFFFFFFFF AND PUSH1 0xE0 SHL DUP2 MSTORE PUSH1 0x4 ADD PUSH2 0x69B SWAP4 SWAP3 SWAP2 SWAP1 PUSH2 0x17C5 JUMP JUMPDEST PUSH1 0x20 PUSH1 0x40 MLOAD DUP1 DUP4 SUB DUP2 PUSH1 0x0 DUP8 GAS CALL ISZERO DUP1 ISZERO PUSH2 0x6BA JUMPI RETURNDATASIZE PUSH1 0x0 DUP1 RETURNDATACOPY RETURNDATASIZE PUSH1 0x0 REVERT JUMPDEST POP POP POP POP PUSH1 0x40 MLOAD RETURNDATASIZE PUSH1 0x1F NOT PUSH1 0x1F DUP3 ADD AND DUP3 ADD DUP1 PUSH1 0x40 MSTORE POP DUP2 ADD SWAP1 PUSH2 0x6DE SWAP2 SWAP1 PUSH2 0x16BE JUMP JUMPDEST POP PUSH2 0x6E7 PUSH2 0xAFC JUMP JUMPDEST PUSH20 0xFFFFFFFFFFFFFFFFFFFFFFFFFFFFFFFFFFFFFFFF AND PUSH4 0xD45C8ABF DUP12 PUSH32 0x8E1604A838D0F1A9B2CDA14A099E4CEB08E966CC6E05E8296F67B02D61A79F09 PUSH1 0x0 SHL DUP8 PUSH1 0x40 MLOAD DUP5 PUSH4 0xFFFFFFFF AND PUSH1 0xE0 SHL DUP2 MSTORE PUSH1 0x4 ADD PUSH2 0x746 SWAP4 SWAP3 SWAP2 SWAP1 PUSH2 0x17C5 JUMP JUMPDEST PUSH1 0x20 PUSH1 0x40 MLOAD DUP1 DUP4 SUB DUP2 PUSH1 0x0 DUP8 GAS CALL ISZERO DUP1 ISZERO PUSH2 0x765 JUMPI RETURNDATASIZE PUSH1 0x0 DUP1 RETURNDATACOPY RETURNDATASIZE PUSH1 0x0 REVERT JUMPDEST POP POP POP POP PUSH1 0x40 MLOAD RETURNDATASIZE PUSH1 0x1F NOT PUSH1 0x1F DUP3 ADD AND DUP3 ADD DUP1 PUSH1 0x40 MSTORE POP DUP2 ADD SWAP1 PUSH2 0x789 SWAP2 SWAP1 PUSH2 0x16BE JUMP JUMPDEST POP PUSH2 0x792 PUSH2 0xAFC JUMP JUMPDEST PUSH20 0xFFFFFFFFFFFFFFFFFFFFFFFFFFFFFFFFFFFFFFFF AND PUSH4 0x800F2234 DUP12 PUSH32 0x8E1604A838D0F1A9B2CDA14A099E4CEB08E966CC6E05E8296F67B02D61A79F09 PUSH1 0x0 SHL DUP7 PUSH1 0x40 MLOAD DUP5 PUSH4 0xFFFFFFFF AND PUSH1 0xE0 SHL DUP2 MSTORE PUSH1 0x4 ADD PUSH2 0x7F1 SWAP4 SWAP3 SWAP2 SWAP1 PUSH2 0x17C5 JUMP JUMPDEST PUSH1 0x20 PUSH1 0x40 MLOAD DUP1 DUP4 SUB DUP2 PUSH1 0x0 DUP8 GAS CALL ISZERO DUP1 ISZERO PUSH2 0x810 JUMPI RETURNDATASIZE PUSH1 0x0 DUP1 RETURNDATACOPY RETURNDATASIZE PUSH1 0x0 REVERT JUMPDEST POP POP POP POP PUSH1 0x40 MLOAD RETURNDATASIZE PUSH1 0x1F NOT PUSH1 0x1F DUP3 ADD AND DUP3 ADD DUP1 PUSH1 0x40 MSTORE POP DUP2 ADD SWAP1 PUSH2 0x834 SWAP2 SWAP1 PUSH2 0x16BE JUMP JUMPDEST POP PUSH1 0x1 SWAP2 POP POP SWAP9 SWAP8 POP POP POP POP POP POP POP POP JUMP JUMPDEST PUSH2 0x84E PUSH2 0xD8B JUMP JUMPDEST DUP2 PUSH2 0x857 PUSH2 0xA1A JUMP JUMPDEST PUSH2 0x896 JUMPI PUSH1 0x40 MLOAD PUSH32 0x8C379A000000000000000000000000000000000000000000000000000000000 DUP2 MSTORE PUSH1 0x4 ADD PUSH2 0x88D SWAP1 PUSH2 0x1629 JUMP JUMPDEST PUSH1 0x40 MLOAD DUP1 SWAP2 SUB SWAP1 REVERT JUMPDEST PUSH2 0x89F DUP2 PUSH2 0xB9D JUMP JUMPDEST PUSH2 0x8DE JUMPI PUSH1 0x40 MLOAD PUSH32 0x8C379A000000000000000000000000000000000000000000000000000000000 DUP2 MSTORE PUSH1 0x4 ADD PUSH2 0x8D5 SWAP1 PUSH2 0x175D JUMP JUMPDEST PUSH1 0x40 MLOAD DUP1 SWAP2 SUB SWAP1 REVERT JUMPDEST PUSH1 0x0 PUSH2 0x8E8 PUSH2 0xAFC JUMP JUMPDEST PUSH20 0xFFFFFFFFFFFFFFFFFFFFFFFFFFFFFFFFFFFFFFFF AND PUSH4 0xC78A6741 DUP6 PUSH32 0x8E1604A838D0F1A9B2CDA14A099E4CEB08E966CC6E05E8296F67B02D61A79F09 PUSH1 0x0 SHL PUSH1 0x40 MLOAD DUP4 PUSH4 0xFFFFFFFF AND PUSH1 0xE0 SHL DUP2 MSTORE PUSH1 0x4 ADD PUSH2 0x945 SWAP3 SWAP2 SWAP1 PUSH2 0x1803 JUMP JUMPDEST PUSH1 0x0 PUSH1 0x40 MLOAD DUP1 DUP4 SUB DUP2 DUP7 GAS STATICCALL ISZERO DUP1 ISZERO PUSH2 0x962 JUMPI RETURNDATASIZE PUSH1 0x0 DUP1 RETURNDATACOPY RETURNDATASIZE PUSH1 0x0 REVERT JUMPDEST POP POP POP POP PUSH1 0x40 MLOAD RETURNDATASIZE PUSH1 0x0 DUP3 RETURNDATACOPY RETURNDATASIZE PUSH1 0x1F NOT PUSH1 0x1F DUP3 ADD AND DUP3 ADD DUP1 PUSH1 0x40 MSTORE POP DUP2 ADD SWAP1 PUSH2 0x98B SWAP2 SWAP1 PUSH2 0x1ABC JUMP JUMPDEST SWAP1 POP DUP1 SWAP3 POP POP POP SWAP2 SWAP1 POP JUMP JUMPDEST PUSH2 0x99F PUSH2 0xB26 JUMP JUMPDEST PUSH1 0x0 PUSH20 0xFFFFFFFFFFFFFFFFFFFFFFFFFFFFFFFFFFFFFFFF AND DUP2 PUSH20 0xFFFFFFFFFFFFFFFFFFFFFFFFFFFFFFFFFFFFFFFF AND SUB PUSH2 0xA0E JUMPI PUSH1 0x40 MLOAD PUSH32 0x8C379A000000000000000000000000000000000000000000000000000000000 DUP2 MSTORE PUSH1 0x4 ADD PUSH2 0xA05 SWAP1 PUSH2 0x1B77 JUMP JUMPDEST PUSH1 0x40 MLOAD DUP1 SWAP2 SUB SWAP1 REVERT JUMPDEST PUSH2 0xA17 DUP2 PUSH2 0xC7E JUMP JUMPDEST POP JUMP JUMPDEST PUSH1 0x0 DUP1 PUSH1 0x1 PUSH1 0x0 SWAP1 SLOAD SWAP1 PUSH2 0x100 EXP SWAP1 DIV PUSH20 0xFFFFFFFFFFFFFFFFFFFFFFFFFFFFFFFFFFFFFFFF AND PUSH20 0xFFFFFFFFFFFFFFFFFFFFFFFFFFFFFFFFFFFFFFFF AND PUSH4 0xD32A04C7 CALLER PUSH32 0x8E1604A838D0F1A9B2CDA14A099E4CEB08E966CC6E05E8296F67B02D61A79F09 PUSH1 0x0 SHL PUSH1 0x40 MLOAD DUP4 PUSH4 0xFFFFFFFF AND PUSH1 0xE0 SHL DUP2 MSTORE PUSH1 0x4 ADD PUSH2 0xA9D SWAP3 SWAP2 SWAP1 PUSH2 0x1B97 JUMP JUMPDEST PUSH1 0x20 PUSH1 0x40 MLOAD DUP1 DUP4 SUB DUP2 DUP7 GAS STATICCALL ISZERO DUP1 ISZERO PUSH2 0xABA JUMPI RETURNDATASIZE PUSH1 0x0 DUP1 RETURNDATACOPY RETURNDATASIZE PUSH1 0x0 REVERT JUMPDEST POP POP POP POP PUSH1 0x40 MLOAD RETURNDATASIZE PUSH1 0x1F NOT PUSH1 0x1F DUP3 ADD AND DUP3 ADD DUP1 PUSH1 0x40 MSTORE POP DUP2 ADD SWAP1 PUSH2 0xADE SWAP2 SWAP1 PUSH2 0x1BC0 JUMP JUMPDEST SWAP1 POP PUSH1 0x0 DUP2 GT ISZERO PUSH2 0xAF3 JUMPI PUSH1 0x1 SWAP2 POP POP PUSH2 0xAF9 JUMP JUMPDEST PUSH1 0x0 SWAP2 POP POP JUMPDEST SWAP1 JUMP JUMPDEST PUSH1 0x0 PUSH1 0x1 PUSH1 0x0 SWAP1 SLOAD SWAP1 PUSH2 0x100 EXP SWAP1 DIV PUSH20 0xFFFFFFFFFFFFFFFFFFFFFFFFFFFFFFFFFFFFFFFF AND SWAP1 POP SWAP1 JUMP JUMPDEST CALLER PUSH20 0xFFFFFFFFFFFFFFFFFFFFFFFFFFFFFFFFFFFFFFFF AND PUSH2 0xB45 PUSH2 0x2CD JUMP JUMPDEST PUSH20 0xFFFFFFFFFFFFFFFFFFFFFFFFFFFFFFFFFFFFFFFF AND EQ PUSH2 0xB9B JUMPI PUSH1 0x40 MLOAD PUSH32 0x8C379A000000000000000000000000000000000000000000000000000000000 DUP2 MSTORE PUSH1 0x4 ADD PUSH2 0xB92 SWAP1 PUSH2 0x1C39 JUMP JUMPDEST PUSH1 0x40 MLOAD DUP1 SWAP2 SUB SWAP1 REVERT JUMPDEST JUMP JUMPDEST PUSH1 0x0 DUP1 PUSH1 0x1 PUSH1 0x0 SWAP1 SLOAD SWAP1 PUSH2 0x100 EXP SWAP1 DIV PUSH20 0xFFFFFFFFFFFFFFFFFFFFFFFFFFFFFFFFFFFFFFFF AND PUSH20 0xFFFFFFFFFFFFFFFFFFFFFFFFFFFFFFFFFFFFFFFF AND PUSH4 0xC78A6741 DUP5 PUSH32 0x8E1604A838D0F1A9B2CDA14A099E4CEB08E966CC6E05E8296F67B02D61A79F09 PUSH1 0x0 SHL PUSH1 0x40 MLOAD DUP4 PUSH4 0xFFFFFFFF AND PUSH1 0xE0 SHL DUP2 MSTORE PUSH1 0x4 ADD PUSH2 0xC20 SWAP3 SWAP2 SWAP1 PUSH2 0x1803 JUMP JUMPDEST PUSH1 0x0 PUSH1 0x40 MLOAD DUP1 DUP4 SUB DUP2 DUP7 GAS STATICCALL ISZERO DUP1 ISZERO PUSH2 0xC3D JUMPI RETURNDATASIZE PUSH1 0x0 DUP1 RETURNDATACOPY RETURNDATASIZE PUSH1 0x0 REVERT JUMPDEST POP POP POP POP PUSH1 0x40 MLOAD RETURNDATASIZE PUSH1 0x0 DUP3 RETURNDATACOPY RETURNDATASIZE PUSH1 0x1F NOT PUSH1 0x1F DUP3 ADD AND DUP3 ADD DUP1 PUSH1 0x40 MSTORE POP DUP2 ADD SWAP1 PUSH2 0xC66 SWAP2 SWAP1 PUSH2 0x1ABC JUMP JUMPDEST SWAP1 POP PUSH2 0xC76 DUP2 PUSH1 0x40 ADD MLOAD CALLER PUSH2 0xD42 JUMP JUMPDEST SWAP2 POP POP SWAP2 SWAP1 POP JUMP JUMPDEST PUSH1 0x0 DUP1 PUSH1 0x0 SWAP1 SLOAD SWAP1 PUSH2 0x100 EXP SWAP1 DIV PUSH20 0xFFFFFFFFFFFFFFFFFFFFFFFFFFFFFFFFFFFFFFFF AND SWAP1 POP DUP2 PUSH1 0x0 DUP1 PUSH2 0x100 EXP DUP2 SLOAD DUP2 PUSH20 0xFFFFFFFFFFFFFFFFFFFFFFFFFFFFFFFFFFFFFFFF MUL NOT AND SWAP1 DUP4 PUSH20 0xFFFFFFFFFFFFFFFFFFFFFFFFFFFFFFFFFFFFFFFF AND MUL OR SWAP1 SSTORE POP DUP2 PUSH20 0xFFFFFFFFFFFFFFFFFFFFFFFFFFFFFFFFFFFFFFFF AND DUP2 PUSH20 0xFFFFFFFFFFFFFFFFFFFFFFFFFFFFFFFFFFFFFFFF AND PUSH32 0x8BE0079C531659141344CD1FD0A4F28419497F9722A3DAAFE3B4186F6B6457E0 PUSH1 0x40 MLOAD PUSH1 0x40 MLOAD DUP1 SWAP2 SUB SWAP1 LOG3 POP POP JUMP JUMPDEST PUSH1 0x0 DUP2 PUSH20 0xFFFFFFFFFFFFFFFFFFFFFFFFFFFFFFFFFFFFFFFF AND DUP4 PUSH20 0xFFFFFFFFFFFFFFFFFFFFFFFFFFFFFFFFFFFFFFFF AND SUB PUSH2 0xD80 JUMPI PUSH1 0x1 SWAP1 POP PUSH2 0xD85 JUMP JUMPDEST PUSH1 0x0 SWAP1 POP JUMPDEST SWAP3 SWAP2 POP POP JUMP JUMPDEST PUSH1 0x40 MLOAD DUP1 PUSH2 0x160 ADD PUSH1 0x40 MSTORE DUP1 PUSH1 0x0 DUP2 MSTORE PUSH1 0x20 ADD PUSH1 0x0 DUP2 MSTORE PUSH1 0x20 ADD PUSH1 0x0 PUSH20 0xFFFFFFFFFFFFFFFFFFFFFFFFFFFFFFFFFFFFFFFF AND DUP2 MSTORE PUSH1 0x20 ADD PUSH1 0x60 DUP2 MSTORE PUSH1 0x20 ADD PUSH1 0x60 DUP2 MSTORE PUSH1 0x20 ADD PUSH1 0x60 DUP2 MSTORE PUSH1 0x20 ADD PUSH1 0x60 DUP2 MSTORE PUSH1 0x20 ADD PUSH1 0x60 DUP2 MSTORE PUSH1 0x20 ADD PUSH1 0x60 DUP2 MSTORE PUSH1 0x20 ADD PUSH1 0x60 DUP2 MSTORE PUSH1 0x20 ADD PUSH1 0x60 DUP2 MSTORE POP SWAP1 JUMP JUMPDEST PUSH1 0x0 PUSH1 0x40 MLOAD SWAP1 POP SWAP1 JUMP JUMPDEST PUSH1 0x0 DUP1 REVERT JUMPDEST PUSH1 0x0 DUP1 REVERT JUMPDEST PUSH1 0x0 DUP2 SWAP1 POP SWAP2 SWAP1 POP JUMP JUMPDEST PUSH2 0xE22 DUP2 PUSH2 0xE0F JUMP JUMPDEST DUP2 EQ PUSH2 0xE2D JUMPI PUSH1 0x0 DUP1 REVERT JUMPDEST POP JUMP JUMPDEST PUSH1 0x0 DUP2 CALLDATALOAD SWAP1 POP PUSH2 0xE3F DUP2 PUSH2 0xE19 JUMP JUMPDEST SWAP3 SWAP2 POP POP JUMP JUMPDEST PUSH1 0x0 DUP1 REVERT JUMPDEST PUSH1 0x0 DUP1 REVERT JUMPDEST PUSH1 0x0 PUSH1 0x1F NOT PUSH1 0x1F DUP4 ADD AND SWAP1 POP SWAP2 SWAP1 POP JUMP JUMPDEST PUSH32 0x4E487B7100000000000000000000000000000000000000000000000000000000 PUSH1 0x0 MSTORE PUSH1 0x41 PUSH1 0x4 MSTORE PUSH1 0x24 PUSH1 0x0 REVERT JUMPDEST PUSH2 0xE98 DUP3 PUSH2 0xE4F JUMP JUMPDEST DUP2 ADD DUP2 DUP2 LT PUSH8 0xFFFFFFFFFFFFFFFF DUP3 GT OR ISZERO PUSH2 0xEB7 JUMPI PUSH2 0xEB6 PUSH2 0xE60 JUMP JUMPDEST JUMPDEST DUP1 PUSH1 0x40 MSTORE POP POP POP JUMP JUMPDEST PUSH1 0x0 PUSH2 0xECA PUSH2 0xDFB JUMP JUMPDEST SWAP1 POP PUSH2 0xED6 DUP3 DUP3 PUSH2 0xE8F JUMP JUMPDEST SWAP2 SWAP1 POP JUMP JUMPDEST PUSH1 0x0 PUSH8 0xFFFFFFFFFFFFFFFF DUP3 GT ISZERO PUSH2 0xEF6 JUMPI PUSH2 0xEF5 PUSH2 0xE60 JUMP JUMPDEST JUMPDEST PUSH2 0xEFF DUP3 PUSH2 0xE4F JUMP JUMPDEST SWAP1 POP PUSH1 0x20 DUP2 ADD SWAP1 POP SWAP2 SWAP1 POP JUMP JUMPDEST DUP3 DUP2 DUP4 CALLDATACOPY PUSH1 0x0 DUP4 DUP4 ADD MSTORE POP POP POP JUMP JUMPDEST PUSH1 0x0 PUSH2 0xF2E PUSH2 0xF29 DUP5 PUSH2 0xEDB JUMP JUMPDEST PUSH2 0xEC0 JUMP JUMPDEST SWAP1 POP DUP3 DUP2 MSTORE PUSH1 0x20 DUP2 ADD DUP5 DUP5 DUP5 ADD GT ISZERO PUSH2 0xF4A JUMPI PUSH2 0xF49 PUSH2 0xE4A JUMP JUMPDEST JUMPDEST PUSH2 0xF55 DUP5 DUP3 DUP6 PUSH2 0xF0C JUMP JUMPDEST POP SWAP4 SWAP3 POP POP POP JUMP JUMPDEST PUSH1 0x0 DUP3 PUSH1 0x1F DUP4 ADD SLT PUSH2 0xF72 JUMPI PUSH2 0xF71 PUSH2 0xE45 JUMP JUMPDEST JUMPDEST DUP2 CALLDATALOAD PUSH2 0xF82 DUP5 DUP3 PUSH1 0x20 DUP7 ADD PUSH2 0xF1B JUMP JUMPDEST SWAP2 POP POP SWAP3 SWAP2 POP POP JUMP JUMPDEST PUSH1 0x0 DUP1 PUSH1 0x0 DUP1 PUSH1 0x0 DUP1 PUSH1 0x0 DUP1 PUSH1 0x0 PUSH2 0x120 DUP11 DUP13 SUB SLT ISZERO PUSH2 0xFAE JUMPI PUSH2 0xFAD PUSH2 0xE05 JUMP JUMPDEST JUMPDEST PUSH1 0x0 PUSH2 0xFBC DUP13 DUP3 DUP14 ADD PUSH2 0xE30 JUMP JUMPDEST SWAP10 POP POP PUSH1 0x20 DUP11 ADD CALLDATALOAD PUSH8 0xFFFFFFFFFFFFFFFF DUP2 GT ISZERO PUSH2 0xFDD JUMPI PUSH2 0xFDC PUSH2 0xE0A JUMP JUMPDEST JUMPDEST PUSH2 0xFE9 DUP13 DUP3 DUP14 ADD PUSH2 0xF5D JUMP JUMPDEST SWAP9 POP POP PUSH1 0x40 DUP11 ADD CALLDATALOAD PUSH8 0xFFFFFFFFFFFFFFFF DUP2 GT ISZERO PUSH2 0x100A JUMPI PUSH2 0x1009 PUSH2 0xE0A JUMP JUMPDEST JUMPDEST PUSH2 0x1016 DUP13 DUP3 DUP14 ADD PUSH2 0xF5D JUMP JUMPDEST SWAP8 POP POP PUSH1 0x60 DUP11 ADD CALLDATALOAD PUSH8 0xFFFFFFFFFFFFFFFF DUP2 GT ISZERO PUSH2 0x1037 JUMPI PUSH2 0x1036 PUSH2 0xE0A JUMP JUMPDEST JUMPDEST PUSH2 0x1043 DUP13 DUP3 DUP14 ADD PUSH2 0xF5D JUMP JUMPDEST SWAP7 POP POP PUSH1 0x80 DUP11 ADD CALLDATALOAD PUSH8 0xFFFFFFFFFFFFFFFF DUP2 GT ISZERO PUSH2 0x1064 JUMPI PUSH2 0x1063 PUSH2 0xE0A JUMP JUMPDEST JUMPDEST PUSH2 0x1070 DUP13 DUP3 DUP14 ADD PUSH2 0xF5D JUMP JUMPDEST SWAP6 POP POP PUSH1 0xA0 DUP11 ADD CALLDATALOAD PUSH8 0xFFFFFFFFFFFFFFFF DUP2 GT ISZERO PUSH2 0x1091 JUMPI PUSH2 0x1090 PUSH2 0xE0A JUMP JUMPDEST JUMPDEST PUSH2 0x109D DUP13 DUP3 DUP14 ADD PUSH2 0xF5D JUMP JUMPDEST SWAP5 POP POP PUSH1 0xC0 DUP11 ADD CALLDATALOAD PUSH8 0xFFFFFFFFFFFFFFFF DUP2 GT ISZERO PUSH2 0x10BE JUMPI PUSH2 0x10BD PUSH2 0xE0A JUMP JUMPDEST JUMPDEST PUSH2 0x10CA DUP13 DUP3 DUP14 ADD PUSH2 0xF5D JUMP JUMPDEST SWAP4 POP POP PUSH1 0xE0 DUP11 ADD CALLDATALOAD PUSH8 0xFFFFFFFFFFFFFFFF DUP2 GT ISZERO PUSH2 0x10EB JUMPI PUSH2 0x10EA PUSH2 0xE0A JUMP JUMPDEST JUMPDEST PUSH2 0x10F7 DUP13 DUP3 DUP14 ADD PUSH2 0xF5D JUMP JUMPDEST SWAP3 POP POP PUSH2 0x100 DUP11 ADD CALLDATALOAD PUSH8 0xFFFFFFFFFFFFFFFF DUP2 GT ISZERO PUSH2 0x1119 JUMPI PUSH2 0x1118 PUSH2 0xE0A JUMP JUMPDEST JUMPDEST PUSH2 0x1125 DUP13 DUP3 DUP14 ADD PUSH2 0xF5D JUMP JUMPDEST SWAP2 POP POP SWAP3 SWAP6 SWAP9 POP SWAP3 SWAP6 SWAP9 POP SWAP3 SWAP6 SWAP9 JUMP JUMPDEST PUSH1 0x0 DUP2 ISZERO ISZERO SWAP1 POP SWAP2 SWAP1 POP JUMP JUMPDEST PUSH2 0x114A DUP2 PUSH2 0x1135 JUMP JUMPDEST DUP3 MSTORE POP POP JUMP JUMPDEST PUSH1 0x0 PUSH1 0x20 DUP3 ADD SWAP1 POP PUSH2 0x1165 PUSH1 0x0 DUP4 ADD DUP5 PUSH2 0x1141 JUMP JUMPDEST SWAP3 SWAP2 POP POP JUMP JUMPDEST PUSH1 0x0 PUSH20 0xFFFFFFFFFFFFFFFFFFFFFFFFFFFFFFFFFFFFFFFF DUP3 AND SWAP1 POP SWAP2 SWAP1 POP JUMP JUMPDEST PUSH1 0x0 PUSH2 0x1196 DUP3 PUSH2 0x116B JUMP JUMPDEST SWAP1 POP SWAP2 SWAP1 POP JUMP JUMPDEST PUSH2 0x11A6 DUP2 PUSH2 0x118B JUMP JUMPDEST DUP3 MSTORE POP POP JUMP JUMPDEST PUSH1 0x0 PUSH1 0x20 DUP3 ADD SWAP1 POP PUSH2 0x11C1 PUSH1 0x0 DUP4 ADD DUP5 PUSH2 0x119D JUMP JUMPDEST SWAP3 SWAP2 POP POP JUMP JUMPDEST PUSH1 0x0 DUP1 PUSH1 0x0 DUP1 PUSH1 0x0 DUP1 PUSH1 0x0 DUP1 PUSH2 0x100 DUP10 DUP12 SUB SLT ISZERO PUSH2 0x11E8 JUMPI PUSH2 0x11E7 PUSH2 0xE05 JUMP JUMPDEST JUMPDEST PUSH1 0x0 PUSH2 0x11F6 DUP12 DUP3 DUP13 ADD PUSH2 0xE30 JUMP JUMPDEST SWAP9 POP POP PUSH1 0x20 DUP10 ADD CALLDATALOAD PUSH8 0xFFFFFFFFFFFFFFFF DUP2 GT ISZERO PUSH2 0x1217 JUMPI PUSH2 0x1216 PUSH2 0xE0A JUMP JUMPDEST JUMPDEST PUSH2 0x1223 DUP12 DUP3 DUP13 ADD PUSH2 0xF5D JUMP JUMPDEST SWAP8 POP POP PUSH1 0x40 DUP10 ADD CALLDATALOAD PUSH8 0xFFFFFFFFFFFFFFFF DUP2 GT ISZERO PUSH2 0x1244 JUMPI PUSH2 0x1243 PUSH2 0xE0A JUMP JUMPDEST JUMPDEST PUSH2 0x1250 DUP12 DUP3 DUP13 ADD PUSH2 0xF5D JUMP JUMPDEST SWAP7 POP POP PUSH1 0x60 DUP10 ADD CALLDATALOAD PUSH8 0xFFFFFFFFFFFFFFFF DUP2 GT ISZERO PUSH2 0x1271 JUMPI PUSH2 0x1270 PUSH2 0xE0A JUMP JUMPDEST JUMPDEST PUSH2 0x127D DUP12 DUP3 DUP13 ADD PUSH2 0xF5D JUMP JUMPDEST SWAP6 POP POP PUSH1 0x80 DUP10 ADD CALLDATALOAD PUSH8 0xFFFFFFFFFFFFFFFF DUP2 GT ISZERO PUSH2 0x129E JUMPI PUSH2 0x129D PUSH2 0xE0A JUMP JUMPDEST JUMPDEST PUSH2 0x12AA DUP12 DUP3 DUP13 ADD PUSH2 0xF5D JUMP JUMPDEST SWAP5 POP POP PUSH1 0xA0 DUP10 ADD CALLDATALOAD PUSH8 0xFFFFFFFFFFFFFFFF DUP2 GT ISZERO PUSH2 0x12CB JUMPI PUSH2 0x12CA PUSH2 0xE0A JUMP JUMPDEST JUMPDEST PUSH2 0x12D7 DUP12 DUP3 DUP13 ADD PUSH2 0xF5D JUMP JUMPDEST SWAP4 POP POP PUSH1 0xC0 DUP10 ADD CALLDATALOAD PUSH8 0xFFFFFFFFFFFFFFFF DUP2 GT ISZERO PUSH2 0x12F8 JUMPI PUSH2 0x12F7 PUSH2 0xE0A JUMP JUMPDEST JUMPDEST PUSH2 0x1304 DUP12 DUP3 DUP13 ADD PUSH2 0xF5D JUMP JUMPDEST SWAP3 POP POP PUSH1 0xE0 DUP10 ADD CALLDATALOAD PUSH8 0xFFFFFFFFFFFFFFFF DUP2 GT ISZERO PUSH2 0x1325 JUMPI PUSH2 0x1324 PUSH2 0xE0A JUMP JUMPDEST JUMPDEST PUSH2 0x1331 DUP12 DUP3 DUP13 ADD PUSH2 0xF5D JUMP JUMPDEST SWAP2 POP POP SWAP3 SWAP6 SWAP9 POP SWAP3 SWAP6 SWAP9 SWAP1 SWAP4 SWAP7 POP JUMP JUMPDEST PUSH1 0x0 PUSH1 0x20 DUP3 DUP5 SUB SLT ISZERO PUSH2 0x1357 JUMPI PUSH2 0x1356 PUSH2 0xE05 JUMP JUMPDEST JUMPDEST PUSH1 0x0 PUSH2 0x1365 DUP5 DUP3 DUP6 ADD PUSH2 0xE30 JUMP JUMPDEST SWAP2 POP POP SWAP3 SWAP2 POP POP JUMP JUMPDEST PUSH2 0x1377 DUP2 PUSH2 0xE0F JUMP JUMPDEST DUP3 MSTORE POP POP JUMP JUMPDEST PUSH2 0x1386 DUP2 PUSH2 0x118B JUMP JUMPDEST DUP3 MSTORE POP POP JUMP JUMPDEST PUSH1 0x0 DUP2 MLOAD SWAP1 POP SWAP2 SWAP1 POP JUMP JUMPDEST PUSH1 0x0 DUP3 DUP3 MSTORE PUSH1 0x20 DUP3 ADD SWAP1 POP SWAP3 SWAP2 POP POP JUMP JUMPDEST PUSH1 0x0 JUMPDEST DUP4 DUP2 LT ISZERO PUSH2 0x13C6 JUMPI DUP1 DUP3 ADD MLOAD DUP2 DUP5 ADD MSTORE PUSH1 0x20 DUP2 ADD SWAP1 POP PUSH2 0x13AB JUMP JUMPDEST PUSH1 0x0 DUP5 DUP5 ADD MSTORE POP POP POP POP JUMP JUMPDEST PUSH1 0x0 PUSH2 0x13DD DUP3 PUSH2 0x138C JUMP JUMPDEST PUSH2 0x13E7 DUP2 DUP6 PUSH2 0x1397 JUMP JUMPDEST SWAP4 POP PUSH2 0x13F7 DUP2 DUP6 PUSH1 0x20 DUP7 ADD PUSH2 0x13A8 JUMP JUMPDEST PUSH2 0x1400 DUP2 PUSH2 0xE4F JUMP JUMPDEST DUP5 ADD SWAP2 POP POP SWAP3 SWAP2 POP POP JUMP JUMPDEST PUSH1 0x0 PUSH2 0x160 DUP4 ADD PUSH1 0x0 DUP4 ADD MLOAD PUSH2 0x1424 PUSH1 0x0 DUP7 ADD DUP3 PUSH2 0x136E JUMP JUMPDEST POP PUSH1 0x20 DUP4 ADD MLOAD PUSH2 0x1437 PUSH1 0x20 DUP7 ADD DUP3 PUSH2 0x136E JUMP JUMPDEST POP PUSH1 0x40 DUP4 ADD MLOAD PUSH2 0x144A PUSH1 0x40 DUP7 ADD DUP3 PUSH2 0x137D JUMP JUMPDEST POP PUSH1 0x60 DUP4 ADD MLOAD DUP5 DUP3 SUB PUSH1 0x60 DUP7 ADD MSTORE PUSH2 0x1462 DUP3 DUP3 PUSH2 0x13D2 JUMP JUMPDEST SWAP2 POP POP PUSH1 0x80 DUP4 ADD MLOAD DUP5 DUP3 SUB PUSH1 0x80 DUP7 ADD MSTORE PUSH2 0x147C DUP3 DUP3 PUSH2 0x13D2 JUMP JUMPDEST SWAP2 POP POP PUSH1 0xA0 DUP4 ADD MLOAD DUP5 DUP3 SUB PUSH1 0xA0 DUP7 ADD MSTORE PUSH2 0x1496 DUP3 DUP3 PUSH2 0x13D2 JUMP JUMPDEST SWAP2 POP POP PUSH1 0xC0 DUP4 ADD MLOAD DUP5 DUP3 SUB PUSH1 0xC0 DUP7 ADD MSTORE PUSH2 0x14B0 DUP3 DUP3 PUSH2 0x13D2 JUMP JUMPDEST SWAP2 POP POP PUSH1 0xE0 DUP4 ADD MLOAD DUP5 DUP3 SUB PUSH1 0xE0 DUP7 ADD MSTORE PUSH2 0x14CA DUP3 DUP3 PUSH2 0x13D2 JUMP JUMPDEST SWAP2 POP POP PUSH2 0x100 DUP4 ADD MLOAD DUP5 DUP3 SUB PUSH2 0x100 DUP7 ADD MSTORE PUSH2 0x14E6 DUP3 DUP3 PUSH2 0x13D2 JUMP JUMPDEST SWAP2 POP POP PUSH2 0x120 DUP4 ADD MLOAD DUP5 DUP3 SUB PUSH2 0x120 DUP7 ADD MSTORE PUSH2 0x1502 DUP3 DUP3 PUSH2 0x13D2 JUMP JUMPDEST SWAP2 POP POP PUSH2 0x140 DUP4 ADD MLOAD DUP5 DUP3 SUB PUSH2 0x140 DUP7 ADD MSTORE PUSH2 0x151E DUP3 DUP3 PUSH2 0x13D2 JUMP JUMPDEST SWAP2 POP POP DUP1 SWAP2 POP POP SWAP3 SWAP2 POP POP JUMP JUMPDEST PUSH1 0x0 PUSH1 0x20 DUP3 ADD SWAP1 POP DUP2 DUP2 SUB PUSH1 0x0 DUP4 ADD MSTORE PUSH2 0x1545 DUP2 DUP5 PUSH2 0x140B JUMP JUMPDEST SWAP1 POP SWAP3 SWAP2 POP POP JUMP JUMPDEST PUSH2 0x1556 DUP2 PUSH2 0x118B JUMP JUMPDEST DUP2 EQ PUSH2 0x1561 JUMPI PUSH1 0x0 DUP1 REVERT JUMPDEST POP JUMP JUMPDEST PUSH1 0x0 DUP2 CALLDATALOAD SWAP1 POP PUSH2 0x1573 DUP2 PUSH2 0x154D JUMP JUMPDEST SWAP3 SWAP2 POP POP JUMP JUMPDEST PUSH1 0x0 PUSH1 0x20 DUP3 DUP5 SUB SLT ISZERO PUSH2 0x158F JUMPI PUSH2 0x158E PUSH2 0xE05 JUMP JUMPDEST JUMPDEST PUSH1 0x0 PUSH2 0x159D DUP5 DUP3 DUP6 ADD PUSH2 0x1564 JUMP JUMPDEST SWAP2 POP POP SWAP3 SWAP2 POP POP JUMP JUMPDEST PUSH1 0x0 DUP3 DUP3 MSTORE PUSH1 0x20 DUP3 ADD SWAP1 POP SWAP3 SWAP2 POP POP JUMP JUMPDEST PUSH32 0x4C697374427573696E657373437572736F723A20416C72656164792065786973 PUSH1 0x0 DUP3 ADD MSTORE PUSH32 0x746564206163636F756E74000000000000000000000000000000000000000000 PUSH1 0x20 DUP3 ADD MSTORE POP JUMP JUMPDEST PUSH1 0x0 PUSH2 0x1613 PUSH1 0x2B DUP4 PUSH2 0x15A6 JUMP JUMPDEST SWAP2 POP PUSH2 0x161E DUP3 PUSH2 0x15B7 JUMP JUMPDEST PUSH1 0x40 DUP3 ADD SWAP1 POP SWAP2 SWAP1 POP JUMP JUMPDEST PUSH1 0x0 PUSH1 0x20 DUP3 ADD SWAP1 POP DUP2 DUP2 SUB PUSH1 0x0 DUP4 ADD MSTORE PUSH2 0x1642 DUP2 PUSH2 0x1606 JUMP JUMPDEST SWAP1 POP SWAP2 SWAP1 POP JUMP JUMPDEST PUSH1 0x0 DUP2 SWAP1 POP SWAP2 SWAP1 POP JUMP JUMPDEST PUSH2 0x165C DUP2 PUSH2 0x1649 JUMP JUMPDEST DUP3 MSTORE POP POP JUMP JUMPDEST PUSH1 0x0 PUSH1 0x40 DUP3 ADD SWAP1 POP DUP2 DUP2 SUB PUSH1 0x0 DUP4 ADD MSTORE PUSH2 0x167C DUP2 DUP6 PUSH2 0x140B JUMP JUMPDEST SWAP1 POP PUSH2 0x168B PUSH1 0x20 DUP4 ADD DUP5 PUSH2 0x1653 JUMP JUMPDEST SWAP4 SWAP3 POP POP POP JUMP JUMPDEST PUSH2 0x169B DUP2 PUSH2 0x1135 JUMP JUMPDEST DUP2 EQ PUSH2 0x16A6 JUMPI PUSH1 0x0 DUP1 REVERT JUMPDEST POP JUMP JUMPDEST PUSH1 0x0 DUP2 MLOAD SWAP1 POP PUSH2 0x16B8 DUP2 PUSH2 0x1692 JUMP JUMPDEST SWAP3 SWAP2 POP POP JUMP JUMPDEST PUSH1 0x0 PUSH1 0x20 DUP3 DUP5 SUB SLT ISZERO PUSH2 0x16D4 JUMPI PUSH2 0x16D3 PUSH2 0xE05 JUMP JUMPDEST JUMPDEST PUSH1 0x0 PUSH2 0x16E2 DUP5 DUP3 DUP6 ADD PUSH2 0x16A9 JUMP JUMPDEST SWAP2 POP POP SWAP3 SWAP2 POP POP JUMP JUMPDEST PUSH32 0x4C697374427573696E657373437572736F723A206964206973206E6F74206265 PUSH1 0x0 DUP3 ADD MSTORE PUSH32 0x6C6F6E6720746F20616464726573730000000000000000000000000000000000 PUSH1 0x20 DUP3 ADD MSTORE POP JUMP JUMPDEST PUSH1 0x0 PUSH2 0x1747 PUSH1 0x2F DUP4 PUSH2 0x15A6 JUMP JUMPDEST SWAP2 POP PUSH2 0x1752 DUP3 PUSH2 0x16EB JUMP JUMPDEST PUSH1 0x40 DUP3 ADD SWAP1 POP SWAP2 SWAP1 POP JUMP JUMPDEST PUSH1 0x0 PUSH1 0x20 DUP3 ADD SWAP1 POP DUP2 DUP2 SUB PUSH1 0x0 DUP4 ADD MSTORE PUSH2 0x1776 DUP2 PUSH2 0x173A JUMP JUMPDEST SWAP1 POP SWAP2 SWAP1 POP JUMP JUMPDEST PUSH2 0x1786 DUP2 PUSH2 0xE0F JUMP JUMPDEST DUP3 MSTORE POP POP JUMP JUMPDEST PUSH1 0x0 PUSH2 0x1797 DUP3 PUSH2 0x138C JUMP JUMPDEST PUSH2 0x17A1 DUP2 DUP6 PUSH2 0x15A6 JUMP JUMPDEST SWAP4 POP PUSH2 0x17B1 DUP2 DUP6 PUSH1 0x20 DUP7 ADD PUSH2 0x13A8 JUMP JUMPDEST PUSH2 0x17BA DUP2 PUSH2 0xE4F JUMP JUMPDEST DUP5 ADD SWAP2 POP POP SWAP3 SWAP2 POP POP JUMP JUMPDEST PUSH1 0x0 PUSH1 0x60 DUP3 ADD SWAP1 POP PUSH2 0x17DA PUSH1 0x0 DUP4 ADD DUP7 PUSH2 0x177D JUMP JUMPDEST PUSH2 0x17E7 PUSH1 0x20 DUP4 ADD DUP6 PUSH2 0x1653 JUMP JUMPDEST DUP2 DUP2 SUB PUSH1 0x40 DUP4 ADD MSTORE PUSH2 0x17F9 DUP2 DUP5 PUSH2 0x178C JUMP JUMPDEST SWAP1 POP SWAP5 SWAP4 POP POP POP POP JUMP JUMPDEST PUSH1 0x0 PUSH1 0x40 DUP3 ADD SWAP1 POP PUSH2 0x1818 PUSH1 0x0 DUP4 ADD DUP6 PUSH2 0x177D JUMP JUMPDEST PUSH2 0x1825 PUSH1 0x20 DUP4 ADD DUP5 PUSH2 0x1653 JUMP JUMPDEST SWAP4 SWAP3 POP POP POP JUMP JUMPDEST PUSH1 0x0 DUP1 REVERT JUMPDEST PUSH1 0x0 DUP1 REVERT JUMPDEST PUSH1 0x0 DUP2 MLOAD SWAP1 POP PUSH2 0x1845 DUP2 PUSH2 0xE19 JUMP JUMPDEST SWAP3 SWAP2 POP POP JUMP JUMPDEST PUSH1 0x0 DUP2 MLOAD SWAP1 POP PUSH2 0x185A DUP2 PUSH2 0x154D JUMP JUMPDEST SWAP3 SWAP2 POP POP JUMP JUMPDEST PUSH1 0x0 PUSH2 0x1873 PUSH2 0x186E DUP5 PUSH2 0xEDB JUMP JUMPDEST PUSH2 0xEC0 JUMP JUMPDEST SWAP1 POP DUP3 DUP2 MSTORE PUSH1 0x20 DUP2 ADD DUP5 DUP5 DUP5 ADD GT ISZERO PUSH2 0x188F JUMPI PUSH2 0x188E PUSH2 0xE4A JUMP JUMPDEST JUMPDEST PUSH2 0x189A DUP5 DUP3 DUP6 PUSH2 0x13A8 JUMP JUMPDEST POP SWAP4 SWAP3 POP POP POP JUMP JUMPDEST PUSH1 0x0 DUP3 PUSH1 0x1F DUP4 ADD SLT PUSH2 0x18B7 JUMPI PUSH2 0x18B6 PUSH2 0xE45 JUMP JUMPDEST JUMPDEST DUP2 MLOAD PUSH2 0x18C7 DUP5 DUP3 PUSH1 0x20 DUP7 ADD PUSH2 0x1860 JUMP JUMPDEST SWAP2 POP POP SWAP3 SWAP2 POP POP JUMP JUMPDEST PUSH1 0x0 PUSH2 0x160 DUP3 DUP5 SUB SLT ISZERO PUSH2 0x18E7 JUMPI PUSH2 0x18E6 PUSH2 0x182C JUMP JUMPDEST JUMPDEST PUSH2 0x18F2 PUSH2 0x160 PUSH2 0xEC0 JUMP JUMPDEST SWAP1 POP PUSH1 0x0 PUSH2 0x1902 DUP5 DUP3 DUP6 ADD PUSH2 0x1836 JUMP JUMPDEST PUSH1 0x0 DUP4 ADD MSTORE POP PUSH1 0x20 PUSH2 0x1916 DUP5 DUP3 DUP6 ADD PUSH2 0x1836 JUMP JUMPDEST PUSH1 0x20 DUP4 ADD MSTORE POP PUSH1 0x40 PUSH2 0x192A DUP5 DUP3 DUP6 ADD PUSH2 0x184B JUMP JUMPDEST PUSH1 0x40 DUP4 ADD MSTORE POP PUSH1 0x60 DUP3 ADD MLOAD PUSH8 0xFFFFFFFFFFFFFFFF DUP2 GT ISZERO PUSH2 0x194E JUMPI PUSH2 0x194D PUSH2 0x1831 JUMP JUMPDEST JUMPDEST PUSH2 0x195A DUP5 DUP3 DUP6 ADD PUSH2 0x18A2 JUMP JUMPDEST PUSH1 0x60 DUP4 ADD MSTORE POP PUSH1 0x80 DUP3 ADD MLOAD PUSH8 0xFFFFFFFFFFFFFFFF DUP2 GT ISZERO PUSH2 0x197E JUMPI PUSH2 0x197D PUSH2 0x1831 JUMP JUMPDEST JUMPDEST PUSH2 0x198A DUP5 DUP3 DUP6 ADD PUSH2 0x18A2 JUMP JUMPDEST PUSH1 0x80 DUP4 ADD MSTORE POP PUSH1 0xA0 DUP3 ADD MLOAD PUSH8 0xFFFFFFFFFFFFFFFF DUP2 GT ISZERO PUSH2 0x19AE JUMPI PUSH2 0x19AD PUSH2 0x1831 JUMP JUMPDEST JUMPDEST PUSH2 0x19BA DUP5 DUP3 DUP6 ADD PUSH2 0x18A2 JUMP JUMPDEST PUSH1 0xA0 DUP4 ADD MSTORE POP PUSH1 0xC0 DUP3 ADD MLOAD PUSH8 0xFFFFFFFFFFFFFFFF DUP2 GT ISZERO PUSH2 0x19DE JUMPI PUSH2 0x19DD PUSH2 0x1831 JUMP JUMPDEST JUMPDEST PUSH2 0x19EA DUP5 DUP3 DUP6 ADD PUSH2 0x18A2 JUMP JUMPDEST PUSH1 0xC0 DUP4 ADD MSTORE POP PUSH1 0xE0 DUP3 ADD MLOAD PUSH8 0xFFFFFFFFFFFFFFFF DUP2 GT ISZERO PUSH2 0x1A0E JUMPI PUSH2 0x1A0D PUSH2 0x1831 JUMP JUMPDEST JUMPDEST PUSH2 0x1A1A DUP5 DUP3 DUP6 ADD PUSH2 0x18A2 JUMP JUMPDEST PUSH1 0xE0 DUP4 ADD MSTORE POP PUSH2 0x100 DUP3 ADD MLOAD PUSH8 0xFFFFFFFFFFFFFFFF DUP2 GT ISZERO PUSH2 0x1A3F JUMPI PUSH2 0x1A3E PUSH2 0x1831 JUMP JUMPDEST JUMPDEST PUSH2 0x1A4B DUP5 DUP3 DUP6 ADD PUSH2 0x18A2 JUMP JUMPDEST PUSH2 0x100 DUP4 ADD MSTORE POP PUSH2 0x120 DUP3 ADD MLOAD PUSH8 0xFFFFFFFFFFFFFFFF DUP2 GT ISZERO PUSH2 0x1A71 JUMPI PUSH2 0x1A70 PUSH2 0x1831 JUMP JUMPDEST JUMPDEST PUSH2 0x1A7D DUP5 DUP3 DUP6 ADD PUSH2 0x18A2 JUMP JUMPDEST PUSH2 0x120 DUP4 ADD MSTORE POP PUSH2 0x140 DUP3 ADD MLOAD PUSH8 0xFFFFFFFFFFFFFFFF DUP2 GT ISZERO PUSH2 0x1AA3 JUMPI PUSH2 0x1AA2 PUSH2 0x1831 JUMP JUMPDEST JUMPDEST PUSH2 0x1AAF DUP5 DUP3 DUP6 ADD PUSH2 0x18A2 JUMP JUMPDEST PUSH2 0x140 DUP4 ADD MSTORE POP SWAP3 SWAP2 POP POP JUMP JUMPDEST PUSH1 0x0 PUSH1 0x20 DUP3 DUP5 SUB SLT ISZERO PUSH2 0x1AD2 JUMPI PUSH2 0x1AD1 PUSH2 0xE05 JUMP JUMPDEST JUMPDEST PUSH1 0x0 DUP3 ADD MLOAD PUSH8 0xFFFFFFFFFFFFFFFF DUP2 GT ISZERO PUSH2 0x1AF0 JUMPI PUSH2 0x1AEF PUSH2 0xE0A JUMP JUMPDEST JUMPDEST PUSH2 0x1AFC DUP5 DUP3 DUP6 ADD PUSH2 0x18D0 JUMP JUMPDEST SWAP2 POP POP SWAP3 SWAP2 POP POP JUMP JUMPDEST PUSH32 0x4F776E61626C653A206E6577206F776E657220697320746865207A65726F2061 PUSH1 0x0 DUP3 ADD MSTORE PUSH32 0x6464726573730000000000000000000000000000000000000000000000000000 PUSH1 0x20 DUP3 ADD MSTORE POP JUMP JUMPDEST PUSH1 0x0 PUSH2 0x1B61 PUSH1 0x26 DUP4 PUSH2 0x15A6 JUMP JUMPDEST SWAP2 POP PUSH2 0x1B6C DUP3 PUSH2 0x1B05 JUMP JUMPDEST PUSH1 0x40 DUP3 ADD SWAP1 POP SWAP2 SWAP1 POP JUMP JUMPDEST PUSH1 0x0 PUSH1 0x20 DUP3 ADD SWAP1 POP DUP2 DUP2 SUB PUSH1 0x0 DUP4 ADD MSTORE PUSH2 0x1B90 DUP2 PUSH2 0x1B54 JUMP JUMPDEST SWAP1 POP SWAP2 SWAP1 POP JUMP JUMPDEST PUSH1 0x0 PUSH1 0x40 DUP3 ADD SWAP1 POP PUSH2 0x1BAC PUSH1 0x0 DUP4 ADD DUP6 PUSH2 0x119D JUMP JUMPDEST PUSH2 0x1BB9 PUSH1 0x20 DUP4 ADD DUP5 PUSH2 0x1653 JUMP JUMPDEST SWAP4 SWAP3 POP POP POP JUMP JUMPDEST PUSH1 0x0 PUSH1 0x20 DUP3 DUP5 SUB SLT ISZERO PUSH2 0x1BD6 JUMPI PUSH2 0x1BD5 PUSH2 0xE05 JUMP JUMPDEST JUMPDEST PUSH1 0x0 PUSH2 0x1BE4 DUP5 DUP3 DUP6 ADD PUSH2 0x1836 JUMP JUMPDEST SWAP2 POP POP SWAP3 SWAP2 POP POP JUMP JUMPDEST PUSH32 0x4F776E61626C653A2063616C6C6572206973206E6F7420746865206F776E6572 PUSH1 0x0 DUP3 ADD MSTORE POP JUMP JUMPDEST PUSH1 0x0 PUSH2 0x1C23 PUSH1 0x20 DUP4 PUSH2 0x15A6 JUMP JUMPDEST SWAP2 POP PUSH2 0x1C2E DUP3 PUSH2 0x1BED JUMP JUMPDEST PUSH1 0x20 DUP3 ADD SWAP1 POP SWAP2 SWAP1 POP JUMP JUMPDEST PUSH1 0x0 PUSH1 0x20 DUP3 ADD SWAP1 POP DUP2 DUP2 SUB PUSH1 0x0 DUP4 ADD MSTORE PUSH2 0x1C52 DUP2 PUSH2 0x1C16 JUMP JUMPDEST SWAP1 POP SWAP2 SWAP1 POP JUMP INVALID LOG2 PUSH5 0x6970667358 0x22 SLT KECCAK256 PUSH24 0x7507062C0E157609529FA2DFAAA07F4962EEEF6D120EC646 0xCC BASEFEE 0x21 0xD6 SWAP9 0xDB 0xC1 PUSH5 0x736F6C6343 STOP ADDMOD LT STOP CALLER "
				},
				"gasEstimates": {
					"creation": {
						"codeDepositCost": "1462200",
						"executionCost": "infinite",
						"totalCost": "infinite"
					},
					"external": {
						"addBusiness(uint256,string,string,string,string,string,string,string,string)": "infinite",
						"destroy()": "29972",
						"editBusiness(uint256,string,string,string,string,string,string,string)": "infinite",
						"getProfile(uint256)": "infinite",
						"owner()": "2544",
						"transferOwnership(address)": "30797"
					}
				},
				"methodIdentifiers": {
					"addBusiness(uint256,string,string,string,string,string,string,string,string)": "01b02b8c",
					"destroy()": "83197ef0",
					"editBusiness(uint256,string,string,string,string,string,string,string)": "d6c6109a",
					"getProfile(uint256)": "f08f4f64",
					"owner()": "8da5cb5b",
					"transferOwnership(address)": "f2fde38b"
				}
			},
			"storageLayout": {
				"storage": [
					{
						"astId": 4,
						"contract": "controller/BusinessController.sol:BusinessController",
						"label": "_owner",
						"offset": 0,
						"slot": "0",
						"type": "t_address"
					},
					{
						"astId": 322,
						"contract": "controller/BusinessController.sol:BusinessController",
						"label": "listBusinessCursor",
						"offset": 0,
						"slot": "1",
						"type": "t_contract(ListBusiness)1017"
					},
					{
						"astId": 324,
						"contract": "controller/BusinessController.sol:BusinessController",
						"label": "listBusinessAddress",
						"offset": 0,
						"slot": "2",
						"type": "t_address"
					}
				],
				"types": {
					"t_address": {
						"encoding": "inplace",
						"label": "address",
						"numberOfBytes": "20"
					},
					"t_contract(ListBusiness)1017": {
						"encoding": "inplace",
						"label": "contract ListBusiness",
						"numberOfBytes": "20"
					}
				}
			},
			"userdoc": {
				"kind": "user",
				"methods": {},
				"version": 1
			}
		}
	}
}