{
	"data": {
		"bytecode": {
			"linkReferences": {},
			"object": "60806040523480156200001157600080fd5b50604051620011313803806200113183398181016040528101906200003791906200016f565b8082336000806101000a81548173ffffffffffffffffffffffffffffffffffffffff021916908373ffffffffffffffffffffffffffffffffffffffff16021790555080600160006101000a81548173ffffffffffffffffffffffffffffffffffffffff021916908373ffffffffffffffffffffffffffffffffffffffff1602179055505080600260006101000a81548173ffffffffffffffffffffffffffffffffffffffff021916908373ffffffffffffffffffffffffffffffffffffffff160217905550505050620001b6565b600080fd5b600073ffffffffffffffffffffffffffffffffffffffff82169050919050565b600062000137826200010a565b9050919050565b62000149816200012a565b81146200015557600080fd5b50565b60008151905062000169816200013e565b92915050565b6000806040838503121562000189576200018862000105565b5b6000620001998582860162000158565b9250506020620001ac8582860162000158565b9150509250929050565b610f6b80620001c66000396000f3fe608060405234801561001057600080fd5b50600436106100575760003560e01c806383197ef01461005c5780638da5cb5b14610066578063ec40a59b14610084578063f2fde38b146100a2578063ffc1e78a146100be575b600080fd5b6100646100da565b005b61006e6100fb565b60405161007b919061065b565b60405180910390f35b61008c610124565b6040516100999190610691565b60405180910390f35b6100bc60048036038101906100b791906106ec565b6101ff565b005b6100d860048036038101906100d39190610895565b610282565b005b6100e26103b0565b3073ffffffffffffffffffffffffffffffffffffffff16ff5b60008060009054906101000a900473ffffffffffffffffffffffffffffffffffffffff16905090565b600080600160009054906101000a900473ffffffffffffffffffffffffffffffffffffffff1673ffffffffffffffffffffffffffffffffffffffff166368938870336040518263ffffffff1660e01b8152600401610182919061065b565b602060405180830381865afa15801561019f573d6000803e3d6000fd5b505050506040513d601f19601f820116820180604052508101906101c39190610906565b90507fffffffffffffffffffffffffffffffffffffffffffffffffffffffffffffffff81036101f65760019150506101fc565b60019150505b90565b6102076103b0565b600073ffffffffffffffffffffffffffffffffffffffff168173ffffffffffffffffffffffffffffffffffffffff1603610276576040517f08c379a000000000000000000000000000000000000000000000000000000000815260040161026d906109b6565b60405180910390fd5b61027f81610427565b50565b8161028b610124565b6102ca576040517f08c379a00000000000000000000000000000000000000000000000000000000081526004016102c190610a48565b60405180910390fd5b6102d3816104eb565b610312576040517f08c379a000000000000000000000000000000000000000000000000000000000815260040161030990610ada565b60405180910390fd5b60006040518060800160405280858152602001600081526020014281526020018481525090506103406105a7565b73ffffffffffffffffffffffffffffffffffffffff1663f4440976826040518263ffffffff1660e01b81526004016103789190610beb565b600060405180830381600087803b15801561039257600080fd5b505af11580156103a6573d6000803e3d6000fd5b5050505050505050565b3373ffffffffffffffffffffffffffffffffffffffff166103cf6100fb565b73ffffffffffffffffffffffffffffffffffffffff1614610425576040517f08c379a000000000000000000000000000000000000000000000000000000000815260040161041c90610c59565b60405180910390fd5b565b60008060009054906101000a900473ffffffffffffffffffffffffffffffffffffffff169050816000806101000a81548173ffffffffffffffffffffffffffffffffffffffff021916908373ffffffffffffffffffffffffffffffffffffffff1602179055508173ffffffffffffffffffffffffffffffffffffffff168173ffffffffffffffffffffffffffffffffffffffff167f8be0079c531659141344cd1fd0a4f28419497f9722a3daafe3b4186f6b6457e060405160405180910390a35050565b600080600160009054906101000a900473ffffffffffffffffffffffffffffffffffffffff1673ffffffffffffffffffffffffffffffffffffffff1663e0886f90846040518263ffffffff1660e01b81526004016105499190610c88565b600060405180830381865afa158015610566573d6000803e3d6000fd5b505050506040513d6000823e3d601f19601f8201168201806040525081019061058f9190610eec565b905061059f8160400151336105d1565b915050919050565b6000600260009054906101000a900473ffffffffffffffffffffffffffffffffffffffff16905090565b60008173ffffffffffffffffffffffffffffffffffffffff168373ffffffffffffffffffffffffffffffffffffffff160361060f5760019050610614565b600090505b92915050565b600073ffffffffffffffffffffffffffffffffffffffff82169050919050565b60006106458261061a565b9050919050565b6106558161063a565b82525050565b6000602082019050610670600083018461064c565b92915050565b60008115159050919050565b61068b81610676565b82525050565b60006020820190506106a66000830184610682565b92915050565b6000604051905090565b600080fd5b600080fd5b6106c98161063a565b81146106d457600080fd5b50565b6000813590506106e6816106c0565b92915050565b600060208284031215610702576107016106b6565b5b6000610710848285016106d7565b91505092915050565b6000819050919050565b61072c81610719565b811461073757600080fd5b50565b60008135905061074981610723565b92915050565b600080fd5b600080fd5b6000601f19601f8301169050919050565b7f4e487b7100000000000000000000000000000000000000000000000000000000600052604160045260246000fd5b6107a282610759565b810181811067ffffffffffffffff821117156107c1576107c061076a565b5b80604052505050565b60006107d46106ac565b90506107e08282610799565b919050565b600067ffffffffffffffff821115610800576107ff61076a565b5b61080982610759565b9050602081019050919050565b82818337600083830152505050565b6000610838610833846107e5565b6107ca565b90508281526020810184848401111561085457610853610754565b5b61085f848285610816565b509392505050565b600082601f83011261087c5761087b61074f565b5b813561088c848260208601610825565b91505092915050565b600080604083850312156108ac576108ab6106b6565b5b60006108ba8582860161073a565b925050602083013567ffffffffffffffff8111156108db576108da6106bb565b5b6108e785828601610867565b9150509250929050565b60008151905061090081610723565b92915050565b60006020828403121561091c5761091b6106b6565b5b600061092a848285016108f1565b91505092915050565b600082825260208201905092915050565b7f4f776e61626c653a206e6577206f776e657220697320746865207a65726f206160008201527f6464726573730000000000000000000000000000000000000000000000000000602082015250565b60006109a0602683610933565b91506109ab82610944565b604082019050919050565b600060208201905081810360008301526109cf81610993565b9050919050565b7f4c697374456d706c6f796565437572736f723a2061646472657373206e6f742060008201527f62656c6f6e677320746f20746865206163636f756e7400000000000000000000602082015250565b6000610a32603683610933565b9150610a3d826109d6565b604082019050919050565b60006020820190508181036000830152610a6181610a25565b9050919050565b7f4c697374456d706c6f796565437572736f723a206964206973206e6f7420626560008201527f6c6f6e6720746f20616464726573730000000000000000000000000000000000602082015250565b6000610ac4602f83610933565b9150610acf82610a68565b604082019050919050565b60006020820190508181036000830152610af381610ab7565b9050919050565b610b0381610719565b82525050565b600081519050919050565b600082825260208201905092915050565b60005b83811015610b43578082015181840152602081019050610b28565b60008484015250505050565b6000610b5a82610b09565b610b648185610b14565b9350610b74818560208601610b25565b610b7d81610759565b840191505092915050565b6000608083016000830151610ba06000860182610afa565b506020830151610bb36020860182610afa565b506040830151610bc66040860182610afa565b5060608301518482036060860152610bde8282610b4f565b9150508091505092915050565b60006020820190508181036000830152610c058184610b88565b905092915050565b7f4f776e61626c653a2063616c6c6572206973206e6f7420746865206f776e6572600082015250565b6000610c43602083610933565b9150610c4e82610c0d565b602082019050919050565b60006020820190508181036000830152610c7281610c36565b9050919050565b610c8281610719565b82525050565b6000602082019050610c9d6000830184610c79565b92915050565b600080fd5b600080fd5b600081519050610cbc816106c0565b92915050565b6000610cd5610cd0846107e5565b6107ca565b905082815260208101848484011115610cf157610cf0610754565b5b610cfc848285610b25565b509392505050565b600082601f830112610d1957610d1861074f565b5b8151610d29848260208601610cc2565b91505092915050565b60006101408284031215610d4957610d48610ca3565b5b610d546101406107ca565b90506000610d64848285016108f1565b6000830152506020610d78848285016108f1565b6020830152506040610d8c84828501610cad565b604083015250606082015167ffffffffffffffff811115610db057610daf610ca8565b5b610dbc84828501610d04565b606083015250608082015167ffffffffffffffff811115610de057610ddf610ca8565b5b610dec84828501610d04565b60808301525060a082015167ffffffffffffffff811115610e1057610e0f610ca8565b5b610e1c84828501610d04565b60a08301525060c082015167ffffffffffffffff811115610e4057610e3f610ca8565b5b610e4c84828501610d04565b60c08301525060e082015167ffffffffffffffff811115610e7057610e6f610ca8565b5b610e7c84828501610d04565b60e08301525061010082015167ffffffffffffffff811115610ea157610ea0610ca8565b5b610ead84828501610d04565b6101008301525061012082015167ffffffffffffffff811115610ed357610ed2610ca8565b5b610edf84828501610d04565b6101208301525092915050565b600060208284031215610f0257610f016106b6565b5b600082015167ffffffffffffffff811115610f2057610f1f6106bb565b5b610f2c84828501610d32565b9150509291505056fea2646970667358221220c815b4b5d837ebc4532913d8149e1b30db77158cb0d03848c69fa067112cfad164736f6c63430008110033",
			"opcodes": "PUSH1 0x80 PUSH1 0x40 MSTORE CALLVALUE DUP1 ISZERO PUSH3 0x11 JUMPI PUSH1 0x0 DUP1 REVERT JUMPDEST POP PUSH1 0x40 MLOAD PUSH3 0x1131 CODESIZE SUB DUP1 PUSH3 0x1131 DUP4 CODECOPY DUP2 DUP2 ADD PUSH1 0x40 MSTORE DUP2 ADD SWAP1 PUSH3 0x37 SWAP2 SWAP1 PUSH3 0x16F JUMP JUMPDEST DUP1 DUP3 CALLER PUSH1 0x0 DUP1 PUSH2 0x100 EXP DUP2 SLOAD DUP2 PUSH20 0xFFFFFFFFFFFFFFFFFFFFFFFFFFFFFFFFFFFFFFFF MUL NOT AND SWAP1 DUP4 PUSH20 0xFFFFFFFFFFFFFFFFFFFFFFFFFFFFFFFFFFFFFFFF AND MUL OR SWAP1 SSTORE POP DUP1 PUSH1 0x1 PUSH1 0x0 PUSH2 0x100 EXP DUP2 SLOAD DUP2 PUSH20 0xFFFFFFFFFFFFFFFFFFFFFFFFFFFFFFFFFFFFFFFF MUL NOT AND SWAP1 DUP4 PUSH20 0xFFFFFFFFFFFFFFFFFFFFFFFFFFFFFFFFFFFFFFFF AND MUL OR SWAP1 SSTORE POP POP DUP1 PUSH1 0x2 PUSH1 0x0 PUSH2 0x100 EXP DUP2 SLOAD DUP2 PUSH20 0xFFFFFFFFFFFFFFFFFFFFFFFFFFFFFFFFFFFFFFFF MUL NOT AND SWAP1 DUP4 PUSH20 0xFFFFFFFFFFFFFFFFFFFFFFFFFFFFFFFFFFFFFFFF AND MUL OR SWAP1 SSTORE POP POP POP POP PUSH3 0x1B6 JUMP JUMPDEST PUSH1 0x0 DUP1 REVERT JUMPDEST PUSH1 0x0 PUSH20 0xFFFFFFFFFFFFFFFFFFFFFFFFFFFFFFFFFFFFFFFF DUP3 AND SWAP1 POP SWAP2 SWAP1 POP JUMP JUMPDEST PUSH1 0x0 PUSH3 0x137 DUP3 PUSH3 0x10A JUMP JUMPDEST SWAP1 POP SWAP2 SWAP1 POP JUMP JUMPDEST PUSH3 0x149 DUP2 PUSH3 0x12A JUMP JUMPDEST DUP2 EQ PUSH3 0x155 JUMPI PUSH1 0x0 DUP1 REVERT JUMPDEST POP JUMP JUMPDEST PUSH1 0x0 DUP2 MLOAD SWAP1 POP PUSH3 0x169 DUP2 PUSH3 0x13E JUMP JUMPDEST SWAP3 SWAP2 POP POP JUMP JUMPDEST PUSH1 0x0 DUP1 PUSH1 0x40 DUP4 DUP6 SUB SLT ISZERO PUSH3 0x189 JUMPI PUSH3 0x188 PUSH3 0x105 JUMP JUMPDEST JUMPDEST PUSH1 0x0 PUSH3 0x199 DUP6 DUP3 DUP7 ADD PUSH3 0x158 JUMP JUMPDEST SWAP3 POP POP PUSH1 0x20 PUSH3 0x1AC DUP6 DUP3 DUP7 ADD PUSH3 0x158 JUMP JUMPDEST SWAP2 POP POP SWAP3 POP SWAP3 SWAP1 POP JUMP JUMPDEST PUSH2 0xF6B DUP1 PUSH3 0x1C6 PUSH1 0x0 CODECOPY PUSH1 0x0 RETURN INVALID PUSH1 0x80 PUSH1 0x40 MSTORE CALLVALUE DUP1 ISZERO PUSH2 0x10 JUMPI PUSH1 0x0 DUP1 REVERT JUMPDEST POP PUSH1 0x4 CALLDATASIZE LT PUSH2 0x57 JUMPI PUSH1 0x0 CALLDATALOAD PUSH1 0xE0 SHR DUP1 PUSH4 0x83197EF0 EQ PUSH2 0x5C JUMPI DUP1 PUSH4 0x8DA5CB5B EQ PUSH2 0x66 JUMPI DUP1 PUSH4 0xEC40A59B EQ PUSH2 0x84 JUMPI DUP1 PUSH4 0xF2FDE38B EQ PUSH2 0xA2 JUMPI DUP1 PUSH4 0xFFC1E78A EQ PUSH2 0xBE JUMPI JUMPDEST PUSH1 0x0 DUP1 REVERT JUMPDEST PUSH2 0x64 PUSH2 0xDA JUMP JUMPDEST STOP JUMPDEST PUSH2 0x6E PUSH2 0xFB JUMP JUMPDEST PUSH1 0x40 MLOAD PUSH2 0x7B SWAP2 SWAP1 PUSH2 0x65B JUMP JUMPDEST PUSH1 0x40 MLOAD DUP1 SWAP2 SUB SWAP1 RETURN JUMPDEST PUSH2 0x8C PUSH2 0x124 JUMP JUMPDEST PUSH1 0x40 MLOAD PUSH2 0x99 SWAP2 SWAP1 PUSH2 0x691 JUMP JUMPDEST PUSH1 0x40 MLOAD DUP1 SWAP2 SUB SWAP1 RETURN JUMPDEST PUSH2 0xBC PUSH1 0x4 DUP1 CALLDATASIZE SUB DUP2 ADD SWAP1 PUSH2 0xB7 SWAP2 SWAP1 PUSH2 0x6EC JUMP JUMPDEST PUSH2 0x1FF JUMP JUMPDEST STOP JUMPDEST PUSH2 0xD8 PUSH1 0x4 DUP1 CALLDATASIZE SUB DUP2 ADD SWAP1 PUSH2 0xD3 SWAP2 SWAP1 PUSH2 0x895 JUMP JUMPDEST PUSH2 0x282 JUMP JUMPDEST STOP JUMPDEST PUSH2 0xE2 PUSH2 0x3B0 JUMP JUMPDEST ADDRESS PUSH20 0xFFFFFFFFFFFFFFFFFFFFFFFFFFFFFFFFFFFFFFFF AND SELFDESTRUCT JUMPDEST PUSH1 0x0 DUP1 PUSH1 0x0 SWAP1 SLOAD SWAP1 PUSH2 0x100 EXP SWAP1 DIV PUSH20 0xFFFFFFFFFFFFFFFFFFFFFFFFFFFFFFFFFFFFFFFF AND SWAP1 POP SWAP1 JUMP JUMPDEST PUSH1 0x0 DUP1 PUSH1 0x1 PUSH1 0x0 SWAP1 SLOAD SWAP1 PUSH2 0x100 EXP SWAP1 DIV PUSH20 0xFFFFFFFFFFFFFFFFFFFFFFFFFFFFFFFFFFFFFFFF AND PUSH20 0xFFFFFFFFFFFFFFFFFFFFFFFFFFFFFFFFFFFFFFFF AND PUSH4 0x68938870 CALLER PUSH1 0x40 MLOAD DUP3 PUSH4 0xFFFFFFFF AND PUSH1 0xE0 SHL DUP2 MSTORE PUSH1 0x4 ADD PUSH2 0x182 SWAP2 SWAP1 PUSH2 0x65B JUMP JUMPDEST PUSH1 0x20 PUSH1 0x40 MLOAD DUP1 DUP4 SUB DUP2 DUP7 GAS STATICCALL ISZERO DUP1 ISZERO PUSH2 0x19F JUMPI RETURNDATASIZE PUSH1 0x0 DUP1 RETURNDATACOPY RETURNDATASIZE PUSH1 0x0 REVERT JUMPDEST POP POP POP POP PUSH1 0x40 MLOAD RETURNDATASIZE PUSH1 0x1F NOT PUSH1 0x1F DUP3 ADD AND DUP3 ADD DUP1 PUSH1 0x40 MSTORE POP DUP2 ADD SWAP1 PUSH2 0x1C3 SWAP2 SWAP1 PUSH2 0x906 JUMP JUMPDEST SWAP1 POP PUSH32 0xFFFFFFFFFFFFFFFFFFFFFFFFFFFFFFFFFFFFFFFFFFFFFFFFFFFFFFFFFFFFFFFF DUP2 SUB PUSH2 0x1F6 JUMPI PUSH1 0x1 SWAP2 POP POP PUSH2 0x1FC JUMP JUMPDEST PUSH1 0x1 SWAP2 POP POP JUMPDEST SWAP1 JUMP JUMPDEST PUSH2 0x207 PUSH2 0x3B0 JUMP JUMPDEST PUSH1 0x0 PUSH20 0xFFFFFFFFFFFFFFFFFFFFFFFFFFFFFFFFFFFFFFFF AND DUP2 PUSH20 0xFFFFFFFFFFFFFFFFFFFFFFFFFFFFFFFFFFFFFFFF AND SUB PUSH2 0x276 JUMPI PUSH1 0x40 MLOAD PUSH32 0x8C379A000000000000000000000000000000000000000000000000000000000 DUP2 MSTORE PUSH1 0x4 ADD PUSH2 0x26D SWAP1 PUSH2 0x9B6 JUMP JUMPDEST PUSH1 0x40 MLOAD DUP1 SWAP2 SUB SWAP1 REVERT JUMPDEST PUSH2 0x27F DUP2 PUSH2 0x427 JUMP JUMPDEST POP JUMP JUMPDEST DUP2 PUSH2 0x28B PUSH2 0x124 JUMP JUMPDEST PUSH2 0x2CA JUMPI PUSH1 0x40 MLOAD PUSH32 0x8C379A000000000000000000000000000000000000000000000000000000000 DUP2 MSTORE PUSH1 0x4 ADD PUSH2 0x2C1 SWAP1 PUSH2 0xA48 JUMP JUMPDEST PUSH1 0x40 MLOAD DUP1 SWAP2 SUB SWAP1 REVERT JUMPDEST PUSH2 0x2D3 DUP2 PUSH2 0x4EB JUMP JUMPDEST PUSH2 0x312 JUMPI PUSH1 0x40 MLOAD PUSH32 0x8C379A000000000000000000000000000000000000000000000000000000000 DUP2 MSTORE PUSH1 0x4 ADD PUSH2 0x309 SWAP1 PUSH2 0xADA JUMP JUMPDEST PUSH1 0x40 MLOAD DUP1 SWAP2 SUB SWAP1 REVERT JUMPDEST PUSH1 0x0 PUSH1 0x40 MLOAD DUP1 PUSH1 0x80 ADD PUSH1 0x40 MSTORE DUP1 DUP6 DUP2 MSTORE PUSH1 0x20 ADD PUSH1 0x0 DUP2 MSTORE PUSH1 0x20 ADD TIMESTAMP DUP2 MSTORE PUSH1 0x20 ADD DUP5 DUP2 MSTORE POP SWAP1 POP PUSH2 0x340 PUSH2 0x5A7 JUMP JUMPDEST PUSH20 0xFFFFFFFFFFFFFFFFFFFFFFFFFFFFFFFFFFFFFFFF AND PUSH4 0xF4440976 DUP3 PUSH1 0x40 MLOAD DUP3 PUSH4 0xFFFFFFFF AND PUSH1 0xE0 SHL DUP2 MSTORE PUSH1 0x4 ADD PUSH2 0x378 SWAP2 SWAP1 PUSH2 0xBEB JUMP JUMPDEST PUSH1 0x0 PUSH1 0x40 MLOAD DUP1 DUP4 SUB DUP2 PUSH1 0x0 DUP8 DUP1 EXTCODESIZE ISZERO DUP1 ISZERO PUSH2 0x392 JUMPI PUSH1 0x0 DUP1 REVERT JUMPDEST POP GAS CALL ISZERO DUP1 ISZERO PUSH2 0x3A6 JUMPI RETURNDATASIZE PUSH1 0x0 DUP1 RETURNDATACOPY RETURNDATASIZE PUSH1 0x0 REVERT JUMPDEST POP POP POP POP POP POP POP POP JUMP JUMPDEST CALLER PUSH20 0xFFFFFFFFFFFFFFFFFFFFFFFFFFFFFFFFFFFFFFFF AND PUSH2 0x3CF PUSH2 0xFB JUMP JUMPDEST PUSH20 0xFFFFFFFFFFFFFFFFFFFFFFFFFFFFFFFFFFFFFFFF AND EQ PUSH2 0x425 JUMPI PUSH1 0x40 MLOAD PUSH32 0x8C379A000000000000000000000000000000000000000000000000000000000 DUP2 MSTORE PUSH1 0x4 ADD PUSH2 0x41C SWAP1 PUSH2 0xC59 JUMP JUMPDEST PUSH1 0x40 MLOAD DUP1 SWAP2 SUB SWAP1 REVERT JUMPDEST JUMP JUMPDEST PUSH1 0x0 DUP1 PUSH1 0x0 SWAP1 SLOAD SWAP1 PUSH2 0x100 EXP SWAP1 DIV PUSH20 0xFFFFFFFFFFFFFFFFFFFFFFFFFFFFFFFFFFFFFFFF AND SWAP1 POP DUP2 PUSH1 0x0 DUP1 PUSH2 0x100 EXP DUP2 SLOAD DUP2 PUSH20 0xFFFFFFFFFFFFFFFFFFFFFFFFFFFFFFFFFFFFFFFF MUL NOT AND SWAP1 DUP4 PUSH20 0xFFFFFFFFFFFFFFFFFFFFFFFFFFFFFFFFFFFFFFFF AND MUL OR SWAP1 SSTORE POP DUP2 PUSH20 0xFFFFFFFFFFFFFFFFFFFFFFFFFFFFFFFFFFFFFFFF AND DUP2 PUSH20 0xFFFFFFFFFFFFFFFFFFFFFFFFFFFFFFFFFFFFFFFF AND PUSH32 0x8BE0079C531659141344CD1FD0A4F28419497F9722A3DAAFE3B4186F6B6457E0 PUSH1 0x40 MLOAD PUSH1 0x40 MLOAD DUP1 SWAP2 SUB SWAP1 LOG3 POP POP JUMP JUMPDEST PUSH1 0x0 DUP1 PUSH1 0x1 PUSH1 0x0 SWAP1 SLOAD SWAP1 PUSH2 0x100 EXP SWAP1 DIV PUSH20 0xFFFFFFFFFFFFFFFFFFFFFFFFFFFFFFFFFFFFFFFF AND PUSH20 0xFFFFFFFFFFFFFFFFFFFFFFFFFFFFFFFFFFFFFFFF AND PUSH4 0xE0886F90 DUP5 PUSH1 0x40 MLOAD DUP3 PUSH4 0xFFFFFFFF AND PUSH1 0xE0 SHL DUP2 MSTORE PUSH1 0x4 ADD PUSH2 0x549 SWAP2 SWAP1 PUSH2 0xC88 JUMP JUMPDEST PUSH1 0x0 PUSH1 0x40 MLOAD DUP1 DUP4 SUB DUP2 DUP7 GAS STATICCALL ISZERO DUP1 ISZERO PUSH2 0x566 JUMPI RETURNDATASIZE PUSH1 0x0 DUP1 RETURNDATACOPY RETURNDATASIZE PUSH1 0x0 REVERT JUMPDEST POP POP POP POP PUSH1 0x40 MLOAD RETURNDATASIZE PUSH1 0x0 DUP3 RETURNDATACOPY RETURNDATASIZE PUSH1 0x1F NOT PUSH1 0x1F DUP3 ADD AND DUP3 ADD DUP1 PUSH1 0x40 MSTORE POP DUP2 ADD SWAP1 PUSH2 0x58F SWAP2 SWAP1 PUSH2 0xEEC JUMP JUMPDEST SWAP1 POP PUSH2 0x59F DUP2 PUSH1 0x40 ADD MLOAD CALLER PUSH2 0x5D1 JUMP JUMPDEST SWAP2 POP POP SWAP2 SWAP1 POP JUMP JUMPDEST PUSH1 0x0 PUSH1 0x2 PUSH1 0x0 SWAP1 SLOAD SWAP1 PUSH2 0x100 EXP SWAP1 DIV PUSH20 0xFFFFFFFFFFFFFFFFFFFFFFFFFFFFFFFFFFFFFFFF AND SWAP1 POP SWAP1 JUMP JUMPDEST PUSH1 0x0 DUP2 PUSH20 0xFFFFFFFFFFFFFFFFFFFFFFFFFFFFFFFFFFFFFFFF AND DUP4 PUSH20 0xFFFFFFFFFFFFFFFFFFFFFFFFFFFFFFFFFFFFFFFF AND SUB PUSH2 0x60F JUMPI PUSH1 0x1 SWAP1 POP PUSH2 0x614 JUMP JUMPDEST PUSH1 0x0 SWAP1 POP JUMPDEST SWAP3 SWAP2 POP POP JUMP JUMPDEST PUSH1 0x0 PUSH20 0xFFFFFFFFFFFFFFFFFFFFFFFFFFFFFFFFFFFFFFFF DUP3 AND SWAP1 POP SWAP2 SWAP1 POP JUMP JUMPDEST PUSH1 0x0 PUSH2 0x645 DUP3 PUSH2 0x61A JUMP JUMPDEST SWAP1 POP SWAP2 SWAP1 POP JUMP JUMPDEST PUSH2 0x655 DUP2 PUSH2 0x63A JUMP JUMPDEST DUP3 MSTORE POP POP JUMP JUMPDEST PUSH1 0x0 PUSH1 0x20 DUP3 ADD SWAP1 POP PUSH2 0x670 PUSH1 0x0 DUP4 ADD DUP5 PUSH2 0x64C JUMP JUMPDEST SWAP3 SWAP2 POP POP JUMP JUMPDEST PUSH1 0x0 DUP2 ISZERO ISZERO SWAP1 POP SWAP2 SWAP1 POP JUMP JUMPDEST PUSH2 0x68B DUP2 PUSH2 0x676 JUMP JUMPDEST DUP3 MSTORE POP POP JUMP JUMPDEST PUSH1 0x0 PUSH1 0x20 DUP3 ADD SWAP1 POP PUSH2 0x6A6 PUSH1 0x0 DUP4 ADD DUP5 PUSH2 0x682 JUMP JUMPDEST SWAP3 SWAP2 POP POP JUMP JUMPDEST PUSH1 0x0 PUSH1 0x40 MLOAD SWAP1 POP SWAP1 JUMP JUMPDEST PUSH1 0x0 DUP1 REVERT JUMPDEST PUSH1 0x0 DUP1 REVERT JUMPDEST PUSH2 0x6C9 DUP2 PUSH2 0x63A JUMP JUMPDEST DUP2 EQ PUSH2 0x6D4 JUMPI PUSH1 0x0 DUP1 REVERT JUMPDEST POP JUMP JUMPDEST PUSH1 0x0 DUP2 CALLDATALOAD SWAP1 POP PUSH2 0x6E6 DUP2 PUSH2 0x6C0 JUMP JUMPDEST SWAP3 SWAP2 POP POP JUMP JUMPDEST PUSH1 0x0 PUSH1 0x20 DUP3 DUP5 SUB SLT ISZERO PUSH2 0x702 JUMPI PUSH2 0x701 PUSH2 0x6B6 JUMP JUMPDEST JUMPDEST PUSH1 0x0 PUSH2 0x710 DUP5 DUP3 DUP6 ADD PUSH2 0x6D7 JUMP JUMPDEST SWAP2 POP POP SWAP3 SWAP2 POP POP JUMP JUMPDEST PUSH1 0x0 DUP2 SWAP1 POP SWAP2 SWAP1 POP JUMP JUMPDEST PUSH2 0x72C DUP2 PUSH2 0x719 JUMP JUMPDEST DUP2 EQ PUSH2 0x737 JUMPI PUSH1 0x0 DUP1 REVERT JUMPDEST POP JUMP JUMPDEST PUSH1 0x0 DUP2 CALLDATALOAD SWAP1 POP PUSH2 0x749 DUP2 PUSH2 0x723 JUMP JUMPDEST SWAP3 SWAP2 POP POP JUMP JUMPDEST PUSH1 0x0 DUP1 REVERT JUMPDEST PUSH1 0x0 DUP1 REVERT JUMPDEST PUSH1 0x0 PUSH1 0x1F NOT PUSH1 0x1F DUP4 ADD AND SWAP1 POP SWAP2 SWAP1 POP JUMP JUMPDEST PUSH32 0x4E487B7100000000000000000000000000000000000000000000000000000000 PUSH1 0x0 MSTORE PUSH1 0x41 PUSH1 0x4 MSTORE PUSH1 0x24 PUSH1 0x0 REVERT JUMPDEST PUSH2 0x7A2 DUP3 PUSH2 0x759 JUMP JUMPDEST DUP2 ADD DUP2 DUP2 LT PUSH8 0xFFFFFFFFFFFFFFFF DUP3 GT OR ISZERO PUSH2 0x7C1 JUMPI PUSH2 0x7C0 PUSH2 0x76A JUMP JUMPDEST JUMPDEST DUP1 PUSH1 0x40 MSTORE POP POP POP JUMP JUMPDEST PUSH1 0x0 PUSH2 0x7D4 PUSH2 0x6AC JUMP JUMPDEST SWAP1 POP PUSH2 0x7E0 DUP3 DUP3 PUSH2 0x799 JUMP JUMPDEST SWAP2 SWAP1 POP JUMP JUMPDEST PUSH1 0x0 PUSH8 0xFFFFFFFFFFFFFFFF DUP3 GT ISZERO PUSH2 0x800 JUMPI PUSH2 0x7FF PUSH2 0x76A JUMP JUMPDEST JUMPDEST PUSH2 0x809 DUP3 PUSH2 0x759 JUMP JUMPDEST SWAP1 POP PUSH1 0x20 DUP2 ADD SWAP1 POP SWAP2 SWAP1 POP JUMP JUMPDEST DUP3 DUP2 DUP4 CALLDATACOPY PUSH1 0x0 DUP4 DUP4 ADD MSTORE POP POP POP JUMP JUMPDEST PUSH1 0x0 PUSH2 0x838 PUSH2 0x833 DUP5 PUSH2 0x7E5 JUMP JUMPDEST PUSH2 0x7CA JUMP JUMPDEST SWAP1 POP DUP3 DUP2 MSTORE PUSH1 0x20 DUP2 ADD DUP5 DUP5 DUP5 ADD GT ISZERO PUSH2 0x854 JUMPI PUSH2 0x853 PUSH2 0x754 JUMP JUMPDEST JUMPDEST PUSH2 0x85F DUP5 DUP3 DUP6 PUSH2 0x816 JUMP JUMPDEST POP SWAP4 SWAP3 POP POP POP JUMP JUMPDEST PUSH1 0x0 DUP3 PUSH1 0x1F DUP4 ADD SLT PUSH2 0x87C JUMPI PUSH2 0x87B PUSH2 0x74F JUMP JUMPDEST JUMPDEST DUP2 CALLDATALOAD PUSH2 0x88C DUP5 DUP3 PUSH1 0x20 DUP7 ADD PUSH2 0x825 JUMP JUMPDEST SWAP2 POP POP SWAP3 SWAP2 POP POP JUMP JUMPDEST PUSH1 0x0 DUP1 PUSH1 0x40 DUP4 DUP6 SUB SLT ISZERO PUSH2 0x8AC JUMPI PUSH2 0x8AB PUSH2 0x6B6 JUMP JUMPDEST JUMPDEST PUSH1 0x0 PUSH2 0x8BA DUP6 DUP3 DUP7 ADD PUSH2 0x73A JUMP JUMPDEST SWAP3 POP POP PUSH1 0x20 DUP4 ADD CALLDATALOAD PUSH8 0xFFFFFFFFFFFFFFFF DUP2 GT ISZERO PUSH2 0x8DB JUMPI PUSH2 0x8DA PUSH2 0x6BB JUMP JUMPDEST JUMPDEST PUSH2 0x8E7 DUP6 DUP3 DUP7 ADD PUSH2 0x867 JUMP JUMPDEST SWAP2 POP POP SWAP3 POP SWAP3 SWAP1 POP JUMP JUMPDEST PUSH1 0x0 DUP2 MLOAD SWAP1 POP PUSH2 0x900 DUP2 PUSH2 0x723 JUMP JUMPDEST SWAP3 SWAP2 POP POP JUMP JUMPDEST PUSH1 0x0 PUSH1 0x20 DUP3 DUP5 SUB SLT ISZERO PUSH2 0x91C JUMPI PUSH2 0x91B PUSH2 0x6B6 JUMP JUMPDEST JUMPDEST PUSH1 0x0 PUSH2 0x92A DUP5 DUP3 DUP6 ADD PUSH2 0x8F1 JUMP JUMPDEST SWAP2 POP POP SWAP3 SWAP2 POP POP JUMP JUMPDEST PUSH1 0x0 DUP3 DUP3 MSTORE PUSH1 0x20 DUP3 ADD SWAP1 POP SWAP3 SWAP2 POP POP JUMP JUMPDEST PUSH32 0x4F776E61626C653A206E6577206F776E657220697320746865207A65726F2061 PUSH1 0x0 DUP3 ADD MSTORE PUSH32 0x6464726573730000000000000000000000000000000000000000000000000000 PUSH1 0x20 DUP3 ADD MSTORE POP JUMP JUMPDEST PUSH1 0x0 PUSH2 0x9A0 PUSH1 0x26 DUP4 PUSH2 0x933 JUMP JUMPDEST SWAP2 POP PUSH2 0x9AB DUP3 PUSH2 0x944 JUMP JUMPDEST PUSH1 0x40 DUP3 ADD SWAP1 POP SWAP2 SWAP1 POP JUMP JUMPDEST PUSH1 0x0 PUSH1 0x20 DUP3 ADD SWAP1 POP DUP2 DUP2 SUB PUSH1 0x0 DUP4 ADD MSTORE PUSH2 0x9CF DUP2 PUSH2 0x993 JUMP JUMPDEST SWAP1 POP SWAP2 SWAP1 POP JUMP JUMPDEST PUSH32 0x4C697374456D706C6F796565437572736F723A2061646472657373206E6F7420 PUSH1 0x0 DUP3 ADD MSTORE PUSH32 0x62656C6F6E677320746F20746865206163636F756E7400000000000000000000 PUSH1 0x20 DUP3 ADD MSTORE POP JUMP JUMPDEST PUSH1 0x0 PUSH2 0xA32 PUSH1 0x36 DUP4 PUSH2 0x933 JUMP JUMPDEST SWAP2 POP PUSH2 0xA3D DUP3 PUSH2 0x9D6 JUMP JUMPDEST PUSH1 0x40 DUP3 ADD SWAP1 POP SWAP2 SWAP1 POP JUMP JUMPDEST PUSH1 0x0 PUSH1 0x20 DUP3 ADD SWAP1 POP DUP2 DUP2 SUB PUSH1 0x0 DUP4 ADD MSTORE PUSH2 0xA61 DUP2 PUSH2 0xA25 JUMP JUMPDEST SWAP1 POP SWAP2 SWAP1 POP JUMP JUMPDEST PUSH32 0x4C697374456D706C6F796565437572736F723A206964206973206E6F74206265 PUSH1 0x0 DUP3 ADD MSTORE PUSH32 0x6C6F6E6720746F20616464726573730000000000000000000000000000000000 PUSH1 0x20 DUP3 ADD MSTORE POP JUMP JUMPDEST PUSH1 0x0 PUSH2 0xAC4 PUSH1 0x2F DUP4 PUSH2 0x933 JUMP JUMPDEST SWAP2 POP PUSH2 0xACF DUP3 PUSH2 0xA68 JUMP JUMPDEST PUSH1 0x40 DUP3 ADD SWAP1 POP SWAP2 SWAP1 POP JUMP JUMPDEST PUSH1 0x0 PUSH1 0x20 DUP3 ADD SWAP1 POP DUP2 DUP2 SUB PUSH1 0x0 DUP4 ADD MSTORE PUSH2 0xAF3 DUP2 PUSH2 0xAB7 JUMP JUMPDEST SWAP1 POP SWAP2 SWAP1 POP JUMP JUMPDEST PUSH2 0xB03 DUP2 PUSH2 0x719 JUMP JUMPDEST DUP3 MSTORE POP POP JUMP JUMPDEST PUSH1 0x0 DUP2 MLOAD SWAP1 POP SWAP2 SWAP1 POP JUMP JUMPDEST PUSH1 0x0 DUP3 DUP3 MSTORE PUSH1 0x20 DUP3 ADD SWAP1 POP SWAP3 SWAP2 POP POP JUMP JUMPDEST PUSH1 0x0 JUMPDEST DUP4 DUP2 LT ISZERO PUSH2 0xB43 JUMPI DUP1 DUP3 ADD MLOAD DUP2 DUP5 ADD MSTORE PUSH1 0x20 DUP2 ADD SWAP1 POP PUSH2 0xB28 JUMP JUMPDEST PUSH1 0x0 DUP5 DUP5 ADD MSTORE POP POP POP POP JUMP JUMPDEST PUSH1 0x0 PUSH2 0xB5A DUP3 PUSH2 0xB09 JUMP JUMPDEST PUSH2 0xB64 DUP2 DUP6 PUSH2 0xB14 JUMP JUMPDEST SWAP4 POP PUSH2 0xB74 DUP2 DUP6 PUSH1 0x20 DUP7 ADD PUSH2 0xB25 JUMP JUMPDEST PUSH2 0xB7D DUP2 PUSH2 0x759 JUMP JUMPDEST DUP5 ADD SWAP2 POP POP SWAP3 SWAP2 POP POP JUMP JUMPDEST PUSH1 0x0 PUSH1 0x80 DUP4 ADD PUSH1 0x0 DUP4 ADD MLOAD PUSH2 0xBA0 PUSH1 0x0 DUP7 ADD DUP3 PUSH2 0xAFA JUMP JUMPDEST POP PUSH1 0x20 DUP4 ADD MLOAD PUSH2 0xBB3 PUSH1 0x20 DUP7 ADD DUP3 PUSH2 0xAFA JUMP JUMPDEST POP PUSH1 0x40 DUP4 ADD MLOAD PUSH2 0xBC6 PUSH1 0x40 DUP7 ADD DUP3 PUSH2 0xAFA JUMP JUMPDEST POP PUSH1 0x60 DUP4 ADD MLOAD DUP5 DUP3 SUB PUSH1 0x60 DUP7 ADD MSTORE PUSH2 0xBDE DUP3 DUP3 PUSH2 0xB4F JUMP JUMPDEST SWAP2 POP POP DUP1 SWAP2 POP POP SWAP3 SWAP2 POP POP JUMP JUMPDEST PUSH1 0x0 PUSH1 0x20 DUP3 ADD SWAP1 POP DUP2 DUP2 SUB PUSH1 0x0 DUP4 ADD MSTORE PUSH2 0xC05 DUP2 DUP5 PUSH2 0xB88 JUMP JUMPDEST SWAP1 POP SWAP3 SWAP2 POP POP JUMP JUMPDEST PUSH32 0x4F776E61626C653A2063616C6C6572206973206E6F7420746865206F776E6572 PUSH1 0x0 DUP3 ADD MSTORE POP JUMP JUMPDEST PUSH1 0x0 PUSH2 0xC43 PUSH1 0x20 DUP4 PUSH2 0x933 JUMP JUMPDEST SWAP2 POP PUSH2 0xC4E DUP3 PUSH2 0xC0D JUMP JUMPDEST PUSH1 0x20 DUP3 ADD SWAP1 POP SWAP2 SWAP1 POP JUMP JUMPDEST PUSH1 0x0 PUSH1 0x20 DUP3 ADD SWAP1 POP DUP2 DUP2 SUB PUSH1 0x0 DUP4 ADD MSTORE PUSH2 0xC72 DUP2 PUSH2 0xC36 JUMP JUMPDEST SWAP1 POP SWAP2 SWAP1 POP JUMP JUMPDEST PUSH2 0xC82 DUP2 PUSH2 0x719 JUMP JUMPDEST DUP3 MSTORE POP POP JUMP JUMPDEST PUSH1 0x0 PUSH1 0x20 DUP3 ADD SWAP1 POP PUSH2 0xC9D PUSH1 0x0 DUP4 ADD DUP5 PUSH2 0xC79 JUMP JUMPDEST SWAP3 SWAP2 POP POP JUMP JUMPDEST PUSH1 0x0 DUP1 REVERT JUMPDEST PUSH1 0x0 DUP1 REVERT JUMPDEST PUSH1 0x0 DUP2 MLOAD SWAP1 POP PUSH2 0xCBC DUP2 PUSH2 0x6C0 JUMP JUMPDEST SWAP3 SWAP2 POP POP JUMP JUMPDEST PUSH1 0x0 PUSH2 0xCD5 PUSH2 0xCD0 DUP5 PUSH2 0x7E5 JUMP JUMPDEST PUSH2 0x7CA JUMP JUMPDEST SWAP1 POP DUP3 DUP2 MSTORE PUSH1 0x20 DUP2 ADD DUP5 DUP5 DUP5 ADD GT ISZERO PUSH2 0xCF1 JUMPI PUSH2 0xCF0 PUSH2 0x754 JUMP JUMPDEST JUMPDEST PUSH2 0xCFC DUP5 DUP3 DUP6 PUSH2 0xB25 JUMP JUMPDEST POP SWAP4 SWAP3 POP POP POP JUMP JUMPDEST PUSH1 0x0 DUP3 PUSH1 0x1F DUP4 ADD SLT PUSH2 0xD19 JUMPI PUSH2 0xD18 PUSH2 0x74F JUMP JUMPDEST JUMPDEST DUP2 MLOAD PUSH2 0xD29 DUP5 DUP3 PUSH1 0x20 DUP7 ADD PUSH2 0xCC2 JUMP JUMPDEST SWAP2 POP POP SWAP3 SWAP2 POP POP JUMP JUMPDEST PUSH1 0x0 PUSH2 0x140 DUP3 DUP5 SUB SLT ISZERO PUSH2 0xD49 JUMPI PUSH2 0xD48 PUSH2 0xCA3 JUMP JUMPDEST JUMPDEST PUSH2 0xD54 PUSH2 0x140 PUSH2 0x7CA JUMP JUMPDEST SWAP1 POP PUSH1 0x0 PUSH2 0xD64 DUP5 DUP3 DUP6 ADD PUSH2 0x8F1 JUMP JUMPDEST PUSH1 0x0 DUP4 ADD MSTORE POP PUSH1 0x20 PUSH2 0xD78 DUP5 DUP3 DUP6 ADD PUSH2 0x8F1 JUMP JUMPDEST PUSH1 0x20 DUP4 ADD MSTORE POP PUSH1 0x40 PUSH2 0xD8C DUP5 DUP3 DUP6 ADD PUSH2 0xCAD JUMP JUMPDEST PUSH1 0x40 DUP4 ADD MSTORE POP PUSH1 0x60 DUP3 ADD MLOAD PUSH8 0xFFFFFFFFFFFFFFFF DUP2 GT ISZERO PUSH2 0xDB0 JUMPI PUSH2 0xDAF PUSH2 0xCA8 JUMP JUMPDEST JUMPDEST PUSH2 0xDBC DUP5 DUP3 DUP6 ADD PUSH2 0xD04 JUMP JUMPDEST PUSH1 0x60 DUP4 ADD MSTORE POP PUSH1 0x80 DUP3 ADD MLOAD PUSH8 0xFFFFFFFFFFFFFFFF DUP2 GT ISZERO PUSH2 0xDE0 JUMPI PUSH2 0xDDF PUSH2 0xCA8 JUMP JUMPDEST JUMPDEST PUSH2 0xDEC DUP5 DUP3 DUP6 ADD PUSH2 0xD04 JUMP JUMPDEST PUSH1 0x80 DUP4 ADD MSTORE POP PUSH1 0xA0 DUP3 ADD MLOAD PUSH8 0xFFFFFFFFFFFFFFFF DUP2 GT ISZERO PUSH2 0xE10 JUMPI PUSH2 0xE0F PUSH2 0xCA8 JUMP JUMPDEST JUMPDEST PUSH2 0xE1C DUP5 DUP3 DUP6 ADD PUSH2 0xD04 JUMP JUMPDEST PUSH1 0xA0 DUP4 ADD MSTORE POP PUSH1 0xC0 DUP3 ADD MLOAD PUSH8 0xFFFFFFFFFFFFFFFF DUP2 GT ISZERO PUSH2 0xE40 JUMPI PUSH2 0xE3F PUSH2 0xCA8 JUMP JUMPDEST JUMPDEST PUSH2 0xE4C DUP5 DUP3 DUP6 ADD PUSH2 0xD04 JUMP JUMPDEST PUSH1 0xC0 DUP4 ADD MSTORE POP PUSH1 0xE0 DUP3 ADD MLOAD PUSH8 0xFFFFFFFFFFFFFFFF DUP2 GT ISZERO PUSH2 0xE70 JUMPI PUSH2 0xE6F PUSH2 0xCA8 JUMP JUMPDEST JUMPDEST PUSH2 0xE7C DUP5 DUP3 DUP6 ADD PUSH2 0xD04 JUMP JUMPDEST PUSH1 0xE0 DUP4 ADD MSTORE POP PUSH2 0x100 DUP3 ADD MLOAD PUSH8 0xFFFFFFFFFFFFFFFF DUP2 GT ISZERO PUSH2 0xEA1 JUMPI PUSH2 0xEA0 PUSH2 0xCA8 JUMP JUMPDEST JUMPDEST PUSH2 0xEAD DUP5 DUP3 DUP6 ADD PUSH2 0xD04 JUMP JUMPDEST PUSH2 0x100 DUP4 ADD MSTORE POP PUSH2 0x120 DUP3 ADD MLOAD PUSH8 0xFFFFFFFFFFFFFFFF DUP2 GT ISZERO PUSH2 0xED3 JUMPI PUSH2 0xED2 PUSH2 0xCA8 JUMP JUMPDEST JUMPDEST PUSH2 0xEDF DUP5 DUP3 DUP6 ADD PUSH2 0xD04 JUMP JUMPDEST PUSH2 0x120 DUP4 ADD MSTORE POP SWAP3 SWAP2 POP POP JUMP JUMPDEST PUSH1 0x0 PUSH1 0x20 DUP3 DUP5 SUB SLT ISZERO PUSH2 0xF02 JUMPI PUSH2 0xF01 PUSH2 0x6B6 JUMP JUMPDEST JUMPDEST PUSH1 0x0 DUP3 ADD MLOAD PUSH8 0xFFFFFFFFFFFFFFFF DUP2 GT ISZERO PUSH2 0xF20 JUMPI PUSH2 0xF1F PUSH2 0x6BB JUMP JUMPDEST JUMPDEST PUSH2 0xF2C DUP5 DUP3 DUP6 ADD PUSH2 0xD32 JUMP JUMPDEST SWAP2 POP POP SWAP3 SWAP2 POP POP JUMP INVALID LOG2 PUSH5 0x6970667358 0x22 SLT KECCAK256 0xC8 ISZERO 0xB4 0xB5 0xD8 CALLDATACOPY 0xEB 0xC4 MSTORE8 0x29 SGT 0xD8 EQ SWAP15 SHL ADDRESS 0xDB PUSH24 0x158CB0D03848C69FA067112CFAD164736F6C634300081100 CALLER "
		},
		"gasEstimates": {
			"creation": {
				"codeDepositCost": "789400",
				"executionCost": "infinite",
				"totalCost": "infinite"
			},
			"external": {
				"_checkExistEmployeeAccount()": "infinite",
				"addCV(uint256,string)": "infinite",
				"destroy()": "29950",
				"owner()": "2522",
				"transferOwnership(address)": "30753"
			}
		},
		"methodIdentifiers": {
			"_checkExistEmployeeAccount()": "ec40a59b",
			"addCV(uint256,string)": "ffc1e78a",
			"destroy()": "83197ef0",
			"owner()": "8da5cb5b",
			"transferOwnership(address)": "f2fde38b"
		}
	},
	"abi": [
		{
			"inputs": [
				{
					"internalType": "address",
					"name": "listEmployeeAddress",
					"type": "address"
				},
				{
					"internalType": "address",
					"name": "listEmployeeCVAddress",
					"type": "address"
				}
			],
			"stateMutability": "nonpayable",
			"type": "constructor"
		},
		{
			"anonymous": false,
			"inputs": [
				{
					"indexed": true,
					"internalType": "address",
					"name": "previousOwner",
					"type": "address"
				},
				{
					"indexed": true,
					"internalType": "address",
					"name": "newOwner",
					"type": "address"
				}
			],
			"name": "OwnershipTransferred",
			"type": "event"
		},
		{
			"inputs": [],
			"name": "_checkExistEmployeeAccount",
			"outputs": [
				{
					"internalType": "bool",
					"name": "",
					"type": "bool"
				}
			],
			"stateMutability": "view",
			"type": "function"
		},
		{
			"inputs": [
				{
					"internalType": "uint256",
					"name": "employeeId",
					"type": "uint256"
				},
				{
					"internalType": "string",
					"name": "source",
					"type": "string"
				}
			],
			"name": "addCV",
			"outputs": [],
			"stateMutability": "nonpayable",
			"type": "function"
		},
		{
			"inputs": [],
			"name": "destroy",
			"outputs": [],
			"stateMutability": "nonpayable",
			"type": "function"
		},
		{
			"inputs": [],
			"name": "owner",
			"outputs": [
				{
					"internalType": "address",
					"name": "",
					"type": "address"
				}
			],
			"stateMutability": "view",
			"type": "function"
		},
		{
			"inputs": [
				{
					"internalType": "address",
					"name": "newOwner",
					"type": "address"
				}
			],
			"name": "transferOwnership",
			"outputs": [],
			"stateMutability": "nonpayable",
			"type": "function"
		}
	]
}